{
	"smart-contracts/playground/main/Canvassing.sol": {
		"Canvassing": {
			"abi": [
				{
					"inputs": [
						{
							"internalType": "uint256",
							"name": "",
							"type": "uint256"
						},
						{
							"internalType": "uint256",
							"name": "",
							"type": "uint256"
						}
					],
					"name": "allAnswers",
					"outputs": [
						{
							"internalType": "uint256",
							"name": "id",
							"type": "uint256"
						},
						{
							"internalType": "uint256",
							"name": "questionId",
							"type": "uint256"
						},
						{
							"internalType": "uint256",
							"name": "surveyId",
							"type": "uint256"
						},
						{
							"internalType": "address",
							"name": "participantWalletAddress",
							"type": "address"
						},
						{
							"internalType": "bool",
							"name": "value",
							"type": "bool"
						},
						{
							"internalType": "bool",
							"name": "isBlank",
							"type": "bool"
						}
					],
					"stateMutability": "view",
					"type": "function"
				},
				{
					"inputs": [
						{
							"internalType": "uint256",
							"name": "",
							"type": "uint256"
						}
					],
					"name": "allEarnings",
					"outputs": [
						{
							"internalType": "uint256",
							"name": "id",
							"type": "uint256"
						},
						{
							"internalType": "uint256",
							"name": "surveyId",
							"type": "uint256"
						},
						{
							"internalType": "address",
							"name": "walletAddress",
							"type": "address"
						},
						{
							"internalType": "uint256",
							"name": "amountPaidOutInWei",
							"type": "uint256"
						},
						{
							"internalType": "bool",
							"name": "isBlank",
							"type": "bool"
						}
					],
					"stateMutability": "view",
					"type": "function"
				},
				{
					"inputs": [
						{
							"internalType": "uint256",
							"name": "",
							"type": "uint256"
						}
					],
					"name": "allFundings",
					"outputs": [
						{
							"internalType": "uint256",
							"name": "id",
							"type": "uint256"
						},
						{
							"internalType": "uint256",
							"name": "surveyId",
							"type": "uint256"
						},
						{
							"internalType": "address",
							"name": "creatingResearcherWalletAddress",
							"type": "address"
						},
						{
							"internalType": "uint256",
							"name": "amountFundedInWei",
							"type": "uint256"
						},
						{
							"internalType": "bool",
							"name": "isBlank",
							"type": "bool"
						}
					],
					"stateMutability": "view",
					"type": "function"
				},
				{
					"inputs": [
						{
							"internalType": "address",
							"name": "",
							"type": "address"
						}
					],
					"name": "allParticipants",
					"outputs": [
						{
							"internalType": "uint256",
							"name": "id",
							"type": "uint256"
						},
						{
							"internalType": "address",
							"name": "walletAddress",
							"type": "address"
						},
						{
							"internalType": "string",
							"name": "gender",
							"type": "string"
						},
						{
							"internalType": "string",
							"name": "country",
							"type": "string"
						},
						{
							"internalType": "uint256",
							"name": "yearOfBirth",
							"type": "uint256"
						},
						{
							"internalType": "uint256",
							"name": "totalNumberOfSurveysTaken",
							"type": "uint256"
						},
						{
							"internalType": "bool",
							"name": "isResearcher",
							"type": "bool"
						},
						{
							"internalType": "bool",
							"name": "isBlank",
							"type": "bool"
						}
					],
					"stateMutability": "view",
					"type": "function"
				},
				{
					"inputs": [
						{
							"internalType": "uint256",
							"name": "",
							"type": "uint256"
						},
						{
							"internalType": "uint256",
							"name": "",
							"type": "uint256"
						}
					],
					"name": "allQuestions",
					"outputs": [
						{
							"internalType": "uint256",
							"name": "id",
							"type": "uint256"
						},
						{
							"internalType": "uint256",
							"name": "surveyId",
							"type": "uint256"
						},
						{
							"internalType": "string",
							"name": "sentence",
							"type": "string"
						},
						{
							"internalType": "bool",
							"name": "isBlank",
							"type": "bool"
						}
					],
					"stateMutability": "view",
					"type": "function"
				},
				{
					"inputs": [
						{
							"internalType": "address",
							"name": "",
							"type": "address"
						}
					],
					"name": "allResearchers",
					"outputs": [
						{
							"internalType": "uint256",
							"name": "id",
							"type": "uint256"
						},
						{
							"internalType": "address",
							"name": "walletAddress",
							"type": "address"
						},
						{
							"internalType": "string",
							"name": "industry",
							"type": "string"
						},
						{
							"internalType": "uint256",
							"name": "yearOfIncorporation",
							"type": "uint256"
						},
						{
							"internalType": "bool",
							"name": "isParticipant",
							"type": "bool"
						},
						{
							"internalType": "bool",
							"name": "isVerified",
							"type": "bool"
						},
						{
							"internalType": "bool",
							"name": "isBlank",
							"type": "bool"
						}
					],
					"stateMutability": "view",
					"type": "function"
				},
				{
					"inputs": [
						{
							"internalType": "uint256",
							"name": "",
							"type": "uint256"
						}
					],
					"name": "allSurveys",
					"outputs": [
						{
							"internalType": "uint256",
							"name": "id",
							"type": "uint256"
						},
						{
							"internalType": "address",
							"name": "creatingResearcherWalletAddress",
							"type": "address"
						},
						{
							"internalType": "string",
							"name": "topic",
							"type": "string"
						},
						{
							"internalType": "uint256",
							"name": "numberOfQuestions",
							"type": "uint256"
						},
						{
							"internalType": "uint256",
							"name": "targetNumberOfParticipants",
							"type": "uint256"
						},
						{
							"internalType": "uint256",
							"name": "amountFundedInWei",
							"type": "uint256"
						},
						{
							"internalType": "bool",
							"name": "isBlank",
							"type": "bool"
						}
					],
					"stateMutability": "view",
					"type": "function"
				},
				{
					"inputs": [
						{
							"internalType": "address",
							"name": "_walletAddress",
							"type": "address"
						}
					],
					"name": "checkIfParticipantExists",
					"outputs": [
						{
							"internalType": "bool",
							"name": "",
							"type": "bool"
						}
					],
					"stateMutability": "view",
					"type": "function"
				},
				{
					"inputs": [
						{
							"internalType": "address",
							"name": "_participantWalletAddress",
							"type": "address"
						},
						{
							"internalType": "uint256",
							"name": "_surveyId",
							"type": "uint256"
						}
					],
					"name": "checkIfParticipantHasAlreadyParticipatedInSurvey",
					"outputs": [
						{
							"internalType": "bool",
							"name": "",
							"type": "bool"
						}
					],
					"stateMutability": "view",
					"type": "function"
				},
				{
					"inputs": [
						{
							"internalType": "address",
							"name": "_walletAddress",
							"type": "address"
						}
					],
					"name": "checkIfResearcherExists",
					"outputs": [
						{
							"internalType": "bool",
							"name": "",
							"type": "bool"
						}
					],
					"stateMutability": "view",
					"type": "function"
				},
				{
					"inputs": [
						{
							"internalType": "uint256",
							"name": "_numberOfQuestions",
							"type": "uint256"
						},
						{
							"internalType": "uint256",
							"name": "_targetNumberOfParticipants",
							"type": "uint256"
						},
						{
							"internalType": "uint256",
							"name": "_surveyId",
							"type": "uint256"
						},
						{
							"internalType": "address",
							"name": "_researcherWalletAddress",
							"type": "address"
						}
					],
					"name": "createFunding",
					"outputs": [],
					"stateMutability": "nonpayable",
					"type": "function"
				},
				{
					"inputs": [
						{
							"internalType": "address",
							"name": "_walletAddress",
							"type": "address"
						},
						{
							"internalType": "string",
							"name": "_gender",
							"type": "string"
						},
						{
							"internalType": "string",
							"name": "_country",
							"type": "string"
						},
						{
							"internalType": "uint256",
							"name": "_yearOfBirth",
							"type": "uint256"
						}
					],
					"name": "createParticipant",
					"outputs": [],
					"stateMutability": "nonpayable",
					"type": "function"
				},
				{
					"inputs": [
						{
							"internalType": "address",
							"name": "_walletAddress",
							"type": "address"
						},
						{
							"internalType": "string",
							"name": "_industry",
							"type": "string"
						},
						{
							"internalType": "uint256",
							"name": "_yearOfCorporation",
							"type": "uint256"
						}
					],
					"name": "createResearcher",
					"outputs": [],
					"stateMutability": "nonpayable",
					"type": "function"
				},
				{
					"inputs": [
						{
							"internalType": "address",
							"name": "_researcherWalletAddress",
							"type": "address"
						},
						{
							"internalType": "string",
							"name": "_topic",
							"type": "string"
						},
						{
							"internalType": "uint256",
							"name": "_numberOfQuestions",
							"type": "uint256"
						},
						{
							"internalType": "uint256",
							"name": "_targetNumberOfParticipants",
							"type": "uint256"
						},
						{
							"internalType": "string[]",
							"name": "_questionSentences",
							"type": "string[]"
						},
						{
							"internalType": "uint256",
							"name": "_amountFundedForSurvey",
							"type": "uint256"
						}
					],
					"name": "createSurvey",
					"outputs": [],
					"stateMutability": "nonpayable",
					"type": "function"
				},
				{
					"inputs": [
						{
							"internalType": "uint256",
							"name": "_surveyId",
							"type": "uint256"
						},
						{
							"internalType": "address",
							"name": "_participantWalletAddress",
							"type": "address"
						}
					],
					"name": "getAllAnswersOfParticipantOfSurvey",
					"outputs": [
						{
							"components": [
								{
									"internalType": "uint256",
									"name": "id",
									"type": "uint256"
								},
								{
									"internalType": "uint256",
									"name": "questionId",
									"type": "uint256"
								},
								{
									"internalType": "uint256",
									"name": "surveyId",
									"type": "uint256"
								},
								{
									"internalType": "address",
									"name": "participantWalletAddress",
									"type": "address"
								},
								{
									"internalType": "bool",
									"name": "value",
									"type": "bool"
								},
								{
									"internalType": "bool",
									"name": "isBlank",
									"type": "bool"
								}
							],
							"internalType": "struct Answer[]",
							"name": "",
							"type": "tuple[]"
						}
					],
					"stateMutability": "view",
					"type": "function"
				},
				{
					"inputs": [
						{
							"internalType": "address",
							"name": "_walletAddress",
							"type": "address"
						}
					],
					"name": "getAllEarningsMadeByParticipant",
					"outputs": [
						{
							"components": [
								{
									"internalType": "uint256",
									"name": "id",
									"type": "uint256"
								},
								{
									"internalType": "uint256",
									"name": "surveyId",
									"type": "uint256"
								},
								{
									"internalType": "address",
									"name": "walletAddress",
									"type": "address"
								},
								{
									"internalType": "uint256",
									"name": "amountPaidOutInWei",
									"type": "uint256"
								},
								{
									"internalType": "bool",
									"name": "isBlank",
									"type": "bool"
								}
							],
							"internalType": "struct Earning[]",
							"name": "",
							"type": "tuple[]"
						}
					],
					"stateMutability": "view",
					"type": "function"
				},
				{
					"inputs": [
						{
							"internalType": "uint256",
							"name": "_surveyId",
							"type": "uint256"
						}
					],
					"name": "getAllQuestionsOfSurvey",
					"outputs": [
						{
							"components": [
								{
									"internalType": "uint256",
									"name": "id",
									"type": "uint256"
								},
								{
									"internalType": "uint256",
									"name": "surveyId",
									"type": "uint256"
								},
								{
									"internalType": "string",
									"name": "sentence",
									"type": "string"
								},
								{
									"internalType": "bool",
									"name": "isBlank",
									"type": "bool"
								}
							],
							"internalType": "struct Question[]",
							"name": "",
							"type": "tuple[]"
						}
					],
					"stateMutability": "view",
					"type": "function"
				},
				{
					"inputs": [],
					"name": "getAllSurveys",
					"outputs": [
						{
							"components": [
								{
									"internalType": "uint256",
									"name": "id",
									"type": "uint256"
								},
								{
									"internalType": "address",
									"name": "creatingResearcherWalletAddress",
									"type": "address"
								},
								{
									"internalType": "string",
									"name": "topic",
									"type": "string"
								},
								{
									"internalType": "uint256",
									"name": "numberOfQuestions",
									"type": "uint256"
								},
								{
									"internalType": "uint256",
									"name": "targetNumberOfParticipants",
									"type": "uint256"
								},
								{
									"internalType": "uint256",
									"name": "amountFundedInWei",
									"type": "uint256"
								},
								{
									"internalType": "bool",
									"name": "isBlank",
									"type": "bool"
								}
							],
							"internalType": "struct Survey[]",
							"name": "",
							"type": "tuple[]"
						}
					],
					"stateMutability": "view",
					"type": "function"
				},
				{
					"inputs": [
						{
							"internalType": "address",
							"name": "_walletAddress",
							"type": "address"
						}
					],
					"name": "getAllSurveysTakenByParticipant",
					"outputs": [
						{
							"components": [
								{
									"internalType": "uint256",
									"name": "id",
									"type": "uint256"
								},
								{
									"internalType": "address",
									"name": "creatingResearcherWalletAddress",
									"type": "address"
								},
								{
									"internalType": "string",
									"name": "topic",
									"type": "string"
								},
								{
									"internalType": "uint256",
									"name": "numberOfQuestions",
									"type": "uint256"
								},
								{
									"internalType": "uint256",
									"name": "targetNumberOfParticipants",
									"type": "uint256"
								},
								{
									"internalType": "uint256",
									"name": "amountFundedInWei",
									"type": "uint256"
								},
								{
									"internalType": "bool",
									"name": "isBlank",
									"type": "bool"
								}
							],
							"internalType": "struct Survey[]",
							"name": "",
							"type": "tuple[]"
						}
					],
					"stateMutability": "view",
					"type": "function"
				},
				{
					"inputs": [
						{
							"internalType": "uint256",
							"name": "_surveyId",
							"type": "uint256"
						},
						{
							"internalType": "uint256",
							"name": "_numberOfParticipants",
							"type": "uint256"
						}
					],
					"name": "getAmountOfEarningForCanvassingForSurveyPerParticipantInWei",
					"outputs": [
						{
							"internalType": "uint256",
							"name": "",
							"type": "uint256"
						}
					],
					"stateMutability": "view",
					"type": "function"
				},
				{
					"inputs": [
						{
							"internalType": "uint256",
							"name": "_surveyId",
							"type": "uint256"
						}
					],
					"name": "getAmountOfEarningPerParticipantForSurveyInWei",
					"outputs": [
						{
							"internalType": "uint256",
							"name": "",
							"type": "uint256"
						}
					],
					"stateMutability": "view",
					"type": "function"
				},
				{
					"inputs": [
						{
							"internalType": "uint256",
							"name": "_numberOfQuestions",
							"type": "uint256"
						},
						{
							"internalType": "uint256",
							"name": "_targetNumberOfParticipants",
							"type": "uint256"
						}
					],
					"name": "getAmountOfFundingOfAnySurveyInWei",
					"outputs": [
						{
							"internalType": "uint256",
							"name": "",
							"type": "uint256"
						}
					],
					"stateMutability": "view",
					"type": "function"
				},
				{
					"inputs": [
						{
							"internalType": "uint256",
							"name": "_surveyId",
							"type": "uint256"
						}
					],
					"name": "getAnswersOfSurvey",
					"outputs": [
						{
							"components": [
								{
									"internalType": "uint256",
									"name": "id",
									"type": "uint256"
								},
								{
									"internalType": "uint256",
									"name": "questionId",
									"type": "uint256"
								},
								{
									"internalType": "uint256",
									"name": "surveyId",
									"type": "uint256"
								},
								{
									"internalType": "address",
									"name": "participantWalletAddress",
									"type": "address"
								},
								{
									"internalType": "bool",
									"name": "value",
									"type": "bool"
								},
								{
									"internalType": "bool",
									"name": "isBlank",
									"type": "bool"
								}
							],
							"internalType": "struct Answer[]",
							"name": "",
							"type": "tuple[]"
						}
					],
					"stateMutability": "view",
					"type": "function"
				},
				{
					"inputs": [
						{
							"internalType": "address",
							"name": "_walletAddress",
							"type": "address"
						}
					],
					"name": "getParticipantByWalletAddress",
					"outputs": [
						{
							"components": [
								{
									"internalType": "uint256",
									"name": "id",
									"type": "uint256"
								},
								{
									"internalType": "address",
									"name": "walletAddress",
									"type": "address"
								},
								{
									"internalType": "string",
									"name": "gender",
									"type": "string"
								},
								{
									"internalType": "string",
									"name": "country",
									"type": "string"
								},
								{
									"internalType": "uint256",
									"name": "yearOfBirth",
									"type": "uint256"
								},
								{
									"internalType": "uint256",
									"name": "totalNumberOfSurveysTaken",
									"type": "uint256"
								},
								{
									"internalType": "bool",
									"name": "isResearcher",
									"type": "bool"
								},
								{
									"internalType": "bool",
									"name": "isBlank",
									"type": "bool"
								}
							],
							"internalType": "struct Participant",
							"name": "",
							"type": "tuple"
						}
					],
					"stateMutability": "view",
					"type": "function"
				},
				{
					"inputs": [
						{
							"internalType": "uint256",
							"name": "_surveyId",
							"type": "uint256"
						}
					],
					"name": "getParticipantsOfSurvey",
					"outputs": [
						{
							"components": [
								{
									"internalType": "uint256",
									"name": "id",
									"type": "uint256"
								},
								{
									"internalType": "address",
									"name": "walletAddress",
									"type": "address"
								},
								{
									"internalType": "string",
									"name": "gender",
									"type": "string"
								},
								{
									"internalType": "string",
									"name": "country",
									"type": "string"
								},
								{
									"internalType": "uint256",
									"name": "yearOfBirth",
									"type": "uint256"
								},
								{
									"internalType": "uint256",
									"name": "totalNumberOfSurveysTaken",
									"type": "uint256"
								},
								{
									"internalType": "bool",
									"name": "isResearcher",
									"type": "bool"
								},
								{
									"internalType": "bool",
									"name": "isBlank",
									"type": "bool"
								}
							],
							"internalType": "struct Participant[]",
							"name": "",
							"type": "tuple[]"
						}
					],
					"stateMutability": "view",
					"type": "function"
				},
				{
					"inputs": [
						{
							"internalType": "address",
							"name": "_walletAddress",
							"type": "address"
						}
					],
					"name": "getResearcherByWalletAddress",
					"outputs": [
						{
							"components": [
								{
									"internalType": "uint256",
									"name": "id",
									"type": "uint256"
								},
								{
									"internalType": "address",
									"name": "walletAddress",
									"type": "address"
								},
								{
									"internalType": "string",
									"name": "industry",
									"type": "string"
								},
								{
									"internalType": "uint256",
									"name": "yearOfIncorporation",
									"type": "uint256"
								},
								{
									"internalType": "bool",
									"name": "isParticipant",
									"type": "bool"
								},
								{
									"internalType": "bool",
									"name": "isVerified",
									"type": "bool"
								},
								{
									"internalType": "bool",
									"name": "isBlank",
									"type": "bool"
								}
							],
							"internalType": "struct Researcher",
							"name": "",
							"type": "tuple"
						}
					],
					"stateMutability": "view",
					"type": "function"
				},
				{
					"inputs": [
						{
							"internalType": "uint256",
							"name": "_surveyId",
							"type": "uint256"
						}
					],
					"name": "getSurveyById",
					"outputs": [
						{
							"components": [
								{
									"internalType": "uint256",
									"name": "id",
									"type": "uint256"
								},
								{
									"internalType": "address",
									"name": "creatingResearcherWalletAddress",
									"type": "address"
								},
								{
									"internalType": "string",
									"name": "topic",
									"type": "string"
								},
								{
									"internalType": "uint256",
									"name": "numberOfQuestions",
									"type": "uint256"
								},
								{
									"internalType": "uint256",
									"name": "targetNumberOfParticipants",
									"type": "uint256"
								},
								{
									"internalType": "uint256",
									"name": "amountFundedInWei",
									"type": "uint256"
								},
								{
									"internalType": "bool",
									"name": "isBlank",
									"type": "bool"
								}
							],
							"internalType": "struct Survey",
							"name": "",
							"type": "tuple"
						}
					],
					"stateMutability": "view",
					"type": "function"
				},
				{
					"inputs": [
						{
							"internalType": "address",
							"name": "_researcherWalletAddress",
							"type": "address"
						}
					],
					"name": "getSurveysCreatedByResearcher",
					"outputs": [
						{
							"components": [
								{
									"internalType": "uint256",
									"name": "id",
									"type": "uint256"
								},
								{
									"internalType": "address",
									"name": "creatingResearcherWalletAddress",
									"type": "address"
								},
								{
									"internalType": "string",
									"name": "topic",
									"type": "string"
								},
								{
									"internalType": "uint256",
									"name": "numberOfQuestions",
									"type": "uint256"
								},
								{
									"internalType": "uint256",
									"name": "targetNumberOfParticipants",
									"type": "uint256"
								},
								{
									"internalType": "uint256",
									"name": "amountFundedInWei",
									"type": "uint256"
								},
								{
									"internalType": "bool",
									"name": "isBlank",
									"type": "bool"
								}
							],
							"internalType": "struct Survey[]",
							"name": "",
							"type": "tuple[]"
						}
					],
					"stateMutability": "view",
					"type": "function"
				},
				{
					"inputs": [
						{
							"internalType": "address",
							"name": "_creatingResearcherWalletAddress",
							"type": "address"
						}
					],
					"name": "getTotalAmountFundedByResearchersInWei",
					"outputs": [
						{
							"internalType": "uint256",
							"name": "",
							"type": "uint256"
						}
					],
					"stateMutability": "view",
					"type": "function"
				},
				{
					"inputs": [
						{
							"internalType": "address",
							"name": "_walletAddress",
							"type": "address"
						}
					],
					"name": "getTotalAmountOfEarningsReceivedByParticipantInWei",
					"outputs": [
						{
							"internalType": "uint256",
							"name": "",
							"type": "uint256"
						}
					],
					"stateMutability": "view",
					"type": "function"
				},
				{
					"inputs": [
						{
							"internalType": "address",
							"name": "_creatingResearcherWalletAddress",
							"type": "address"
						}
					],
					"name": "getTotalNumberOfSurveyCreatedByResearcher",
					"outputs": [
						{
							"internalType": "uint256",
							"name": "",
							"type": "uint256"
						}
					],
					"stateMutability": "view",
					"type": "function"
				},
				{
					"inputs": [
						{
							"internalType": "uint256",
							"name": "_surveyId",
							"type": "uint256"
						},
						{
							"internalType": "address",
							"name": "_participantWalletAddress",
							"type": "address"
						}
					],
					"name": "makePayoutAndCreateEarning",
					"outputs": [],
					"stateMutability": "nonpayable",
					"type": "function"
				},
				{
					"inputs": [
						{
							"internalType": "uint256",
							"name": "",
							"type": "uint256"
						},
						{
							"internalType": "uint256",
							"name": "",
							"type": "uint256"
						}
					],
					"name": "participantsOfSurvey",
					"outputs": [
						{
							"internalType": "uint256",
							"name": "id",
							"type": "uint256"
						},
						{
							"internalType": "address",
							"name": "walletAddress",
							"type": "address"
						},
						{
							"internalType": "string",
							"name": "gender",
							"type": "string"
						},
						{
							"internalType": "string",
							"name": "country",
							"type": "string"
						},
						{
							"internalType": "uint256",
							"name": "yearOfBirth",
							"type": "uint256"
						},
						{
							"internalType": "uint256",
							"name": "totalNumberOfSurveysTaken",
							"type": "uint256"
						},
						{
							"internalType": "bool",
							"name": "isResearcher",
							"type": "bool"
						},
						{
							"internalType": "bool",
							"name": "isBlank",
							"type": "bool"
						}
					],
					"stateMutability": "view",
					"type": "function"
				},
				{
					"inputs": [
						{
							"internalType": "uint256",
							"name": "_surveyId",
							"type": "uint256"
						},
						{
							"internalType": "address",
							"name": "_participantWalletAddress",
							"type": "address"
						},
						{
							"internalType": "bool[]",
							"name": "_answerValues",
							"type": "bool[]"
						}
					],
					"name": "participateInSurvey",
					"outputs": [],
					"stateMutability": "nonpayable",
					"type": "function"
				},
				{
					"inputs": [
						{
							"internalType": "uint256",
							"name": "",
							"type": "uint256"
						},
						{
							"internalType": "address",
							"name": "",
							"type": "address"
						}
					],
					"name": "participationStatusForSurvey",
					"outputs": [
						{
							"internalType": "bool",
							"name": "",
							"type": "bool"
						}
					],
					"stateMutability": "view",
					"type": "function"
				},
				{
					"inputs": [
						{
							"internalType": "uint256",
							"name": "",
							"type": "uint256"
						},
						{
							"internalType": "address",
							"name": "",
							"type": "address"
						}
					],
					"name": "payoutStatusOfParticipantForSurvey",
					"outputs": [
						{
							"internalType": "bool",
							"name": "",
							"type": "bool"
						}
					],
					"stateMutability": "view",
					"type": "function"
				},
				{
					"inputs": [
						{
							"internalType": "address",
							"name": "",
							"type": "address"
						}
					],
					"name": "totalAmountFundedByResearchersInWei",
					"outputs": [
						{
							"internalType": "uint256",
							"name": "",
							"type": "uint256"
						}
					],
					"stateMutability": "view",
					"type": "function"
				},
				{
					"inputs": [
						{
							"internalType": "address",
							"name": "",
							"type": "address"
						}
					],
					"name": "totalNumberOfSurveysCreatedByResearchers",
					"outputs": [
						{
							"internalType": "uint256",
							"name": "",
							"type": "uint256"
						}
					],
					"stateMutability": "view",
					"type": "function"
				},
				{
					"inputs": [
						{
							"internalType": "address",
							"name": "_walletAddress",
							"type": "address"
						}
					],
					"name": "verifyResearcher",
					"outputs": [],
					"stateMutability": "nonpayable",
					"type": "function"
				}
			],
			"devdoc": {
				"kind": "dev",
				"methods": {},
				"version": 1
			},
			"evm": {
				"assembly": "    /* \"smart-contracts/playground/main/Canvassing.sol\":212:19416  contract Canvassing {... */\n  mstore(0x40, 0x80)\n    /* \"smart-contracts/playground/main/Canvassing.sol\":268:352  address canvassingWalletAddress =... */\n  0x00\n  dup1\n  sload\n  not(sub(shl(0xa0, 0x01), 0x01))\n  swap1\n  dup2\n  and\n    /* \"smart-contracts/playground/main/Canvassing.sol\":310:352  0xecE897a85688f2e83a73Fed36b9d1a6efCC99e93 */\n  0xece897a85688f2e83a73fed36b9d1a6efcc99e93\n    /* \"smart-contracts/playground/main/Canvassing.sol\":268:352  address canvassingWalletAddress =... */\n  or\n  swap1\n  swap2\n  sstore\n    /* \"smart-contracts/playground/main/Canvassing.sol\":1724:1786  ERC20 cUSD = ERC20(0x874069Fa1Eb16D44d622F2e0Ca25eeA172369bC1) */\n  0x14\n  dup1\n  sload\n  swap1\n  swap2\n  and\n    /* \"smart-contracts/playground/main/Canvassing.sol\":1743:1785  0x874069Fa1Eb16D44d622F2e0Ca25eeA172369bC1 */\n  0x874069fa1eb16d44d622f2e0ca25eea172369bc1\n    /* \"smart-contracts/playground/main/Canvassing.sol\":1724:1786  ERC20 cUSD = ERC20(0x874069Fa1Eb16D44d622F2e0Ca25eeA172369bC1) */\n  or\n  swap1\n  sstore\n    /* \"smart-contracts/playground/main/Canvassing.sol\":212:19416  contract Canvassing {... */\n  callvalue\n  dup1\n  iszero\n  tag_1\n  jumpi\n  0x00\n  dup1\n  revert\ntag_1:\n  pop\n  dataSize(sub_0)\n  dup1\n  dataOffset(sub_0)\n  0x00\n  codecopy\n  0x00\n  return\nstop\n\nsub_0: assembly {\n        /* \"smart-contracts/playground/main/Canvassing.sol\":212:19416  contract Canvassing {... */\n      mstore(0x40, 0x80)\n      callvalue\n      dup1\n      iszero\n      tag_1\n      jumpi\n      0x00\n      dup1\n      revert\n    tag_1:\n      pop\n      jumpi(tag_2, lt(calldatasize, 0x04))\n      shr(0xe0, calldataload(0x00))\n      dup1\n      0x68df3299\n      gt\n      tag_42\n      jumpi\n      dup1\n      0x9a23218f\n      gt\n      tag_43\n      jumpi\n      dup1\n      0xca2e7f9b\n      gt\n      tag_44\n      jumpi\n      dup1\n      0xca2e7f9b\n      eq\n      tag_37\n      jumpi\n      dup1\n      0xcc4903ca\n      eq\n      tag_38\n      jumpi\n      dup1\n      0xf31e72e4\n      eq\n      tag_39\n      jumpi\n      dup1\n      0xf692a3bb\n      eq\n      tag_40\n      jumpi\n      dup1\n      0xfb47e9e6\n      eq\n      tag_41\n      jumpi\n      0x00\n      dup1\n      revert\n    tag_44:\n      dup1\n      0x9a23218f\n      eq\n      tag_32\n      jumpi\n      dup1\n      0xa58543fe\n      eq\n      tag_33\n      jumpi\n      dup1\n      0xb3265ecd\n      eq\n      tag_34\n      jumpi\n      dup1\n      0xb9c745b3\n      eq\n      tag_35\n      jumpi\n      dup1\n      0xc0ac4ae4\n      eq\n      tag_36\n      jumpi\n      0x00\n      dup1\n      revert\n    tag_43:\n      dup1\n      0x7a1bc375\n      gt\n      tag_45\n      jumpi\n      dup1\n      0x7a1bc375\n      eq\n      tag_27\n      jumpi\n      dup1\n      0x7e950819\n      eq\n      tag_28\n      jumpi\n      dup1\n      0x8e6da619\n      eq\n      tag_29\n      jumpi\n      dup1\n      0x95ecea1f\n      eq\n      tag_30\n      jumpi\n      dup1\n      0x964f6566\n      eq\n      tag_31\n      jumpi\n      0x00\n      dup1\n      revert\n    tag_45:\n      dup1\n      0x68df3299\n      eq\n      tag_22\n      jumpi\n      dup1\n      0x69bff3fb\n      eq\n      tag_23\n      jumpi\n      dup1\n      0x6b8ac0e7\n      eq\n      tag_24\n      jumpi\n      dup1\n      0x6f5fde11\n      eq\n      tag_25\n      jumpi\n      dup1\n      0x73fd653d\n      eq\n      tag_26\n      jumpi\n      0x00\n      dup1\n      revert\n    tag_42:\n      dup1\n      0x25f18424\n      gt\n      tag_46\n      jumpi\n      dup1\n      0x44962609\n      gt\n      tag_47\n      jumpi\n      dup1\n      0x44962609\n      eq\n      tag_17\n      jumpi\n      dup1\n      0x4fe1cfad\n      eq\n      tag_18\n      jumpi\n      dup1\n      0x5822bff1\n      eq\n      tag_19\n      jumpi\n      dup1\n      0x5b76074e\n      eq\n      tag_20\n      jumpi\n      dup1\n      0x5fa7a90a\n      eq\n      tag_21\n      jumpi\n      0x00\n      dup1\n      revert\n    tag_47:\n      dup1\n      0x25f18424\n      eq\n      tag_12\n      jumpi\n      dup1\n      0x392a5822\n      eq\n      tag_13\n      jumpi\n      dup1\n      0x3abb615a\n      eq\n      tag_14\n      jumpi\n      dup1\n      0x3b43b7d0\n      eq\n      tag_15\n      jumpi\n      dup1\n      0x3bdd0ad1\n      eq\n      tag_16\n      jumpi\n      0x00\n      dup1\n      revert\n    tag_46:\n      dup1\n      0x196f7f1e\n      gt\n      tag_48\n      jumpi\n      dup1\n      0x196f7f1e\n      eq\n      tag_7\n      jumpi\n      dup1\n      0x1b6f2485\n      eq\n      tag_8\n      jumpi\n      dup1\n      0x1bd1ebc4\n      eq\n      tag_9\n      jumpi\n      dup1\n      0x2076a35a\n      eq\n      tag_10\n      jumpi\n      dup1\n      0x2394e5dc\n      eq\n      tag_11\n      jumpi\n      0x00\n      dup1\n      revert\n    tag_48:\n      dup1\n      0x03f16747\n      eq\n      tag_3\n      jumpi\n      dup1\n      0x0478318b\n      eq\n      tag_4\n      jumpi\n      dup1\n      0x07f6646e\n      eq\n      tag_5\n      jumpi\n      dup1\n      0x125bb83d\n      eq\n      tag_6\n      jumpi\n    tag_2:\n      0x00\n      dup1\n      revert\n        /* \"smart-contracts/playground/main/Canvassing.sol\":7899:8664  function getAmountOfFundingOfAnySurveyInWei(... */\n    tag_3:\n      tag_49\n      tag_50\n      calldatasize\n      0x04\n      tag_51\n      jump\t// in\n    tag_50:\n      tag_52\n      jump\t// in\n    tag_49:\n      mload(0x40)\n        /* \"#utility.yul\":413:438   */\n      swap1\n      dup2\n      mstore\n        /* \"#utility.yul\":401:403   */\n      0x20\n        /* \"#utility.yul\":386:404   */\n      add\n        /* \"smart-contracts/playground/main/Canvassing.sol\":7899:8664  function getAmountOfFundingOfAnySurveyInWei(... */\n    tag_53:\n      mload(0x40)\n      dup1\n      swap2\n      sub\n      swap1\n      return\n        /* \"smart-contracts/playground/main/Canvassing.sol\":13368:13552  function getResearcherByWalletAddress(address _walletAddress)... */\n    tag_4:\n      tag_55\n      tag_56\n      calldatasize\n      0x04\n      tag_57\n      jump\t// in\n    tag_56:\n      tag_58\n      jump\t// in\n    tag_55:\n      mload(0x40)\n      tag_53\n      swap2\n      swap1\n      tag_60\n      jump\t// in\n        /* \"smart-contracts/playground/main/Canvassing.sol\":14729:15773  function getSurveysCreatedByResearcher(address _researcherWalletAddress)... */\n    tag_5:\n      tag_61\n      tag_62\n      calldatasize\n      0x04\n      tag_57\n      jump\t// in\n    tag_62:\n      tag_63\n      jump\t// in\n    tag_61:\n      mload(0x40)\n      tag_53\n      swap2\n      swap1\n      tag_65\n      jump\t// in\n        /* \"smart-contracts/playground/main/Canvassing.sol\":1344:1405  mapping(uint256 => Participant[]) public participantsOfSurvey */\n    tag_6:\n      tag_66\n      tag_67\n      calldatasize\n      0x04\n      tag_51\n      jump\t// in\n    tag_67:\n      tag_68\n      jump\t// in\n    tag_66:\n      mload(0x40)\n      tag_53\n      swap9\n      swap8\n      swap7\n      swap6\n      swap5\n      swap4\n      swap3\n      swap2\n      swap1\n      tag_70\n      jump\t// in\n        /* \"smart-contracts/playground/main/Canvassing.sol\":13558:14165  function createResearcher(... */\n    tag_7:\n      tag_71\n      tag_72\n      calldatasize\n      0x04\n      tag_73\n      jump\t// in\n    tag_72:\n      tag_74\n      jump\t// in\n    tag_71:\n      stop\n        /* \"smart-contracts/playground/main/Canvassing.sol\":565:591  Survey[] public allSurveys */\n    tag_8:\n      tag_75\n      tag_76\n      calldatasize\n      0x04\n      tag_77\n      jump\t// in\n    tag_76:\n      tag_78\n      jump\t// in\n    tag_75:\n      mload(0x40)\n      tag_53\n      swap8\n      swap7\n      swap6\n      swap5\n      swap4\n      swap3\n      swap2\n      swap1\n      tag_80\n      jump\t// in\n        /* \"smart-contracts/playground/main/Canvassing.sol\":8670:9394  function getAmountOfEarningPerParticipantForSurveyInWei(uint256 _surveyId)... */\n    tag_9:\n      tag_49\n      tag_82\n      calldatasize\n      0x04\n      tag_77\n      jump\t// in\n    tag_82:\n      tag_83\n      jump\t// in\n        /* \"smart-contracts/playground/main/Canvassing.sol\":6416:7624  function getAllAnswersOfParticipantOfSurvey(... */\n    tag_10:\n      tag_85\n      tag_86\n      calldatasize\n      0x04\n      tag_87\n      jump\t// in\n    tag_86:\n      tag_88\n      jump\t// in\n    tag_85:\n      mload(0x40)\n      tag_53\n      swap2\n      swap1\n      tag_90\n      jump\t// in\n        /* \"smart-contracts/playground/main/Canvassing.sol\":1990:2177  function getParticipantByWalletAddress(address _walletAddress)... */\n    tag_11:\n      tag_91\n      tag_92\n      calldatasize\n      0x04\n      tag_57\n      jump\t// in\n    tag_92:\n      tag_93\n      jump\t// in\n    tag_91:\n      mload(0x40)\n      tag_53\n      swap2\n      swap1\n      tag_95\n      jump\t// in\n        /* \"smart-contracts/playground/main/Canvassing.sol\":5309:6237  function getTotalAmountOfEarningsReceivedByParticipantInWei(... */\n    tag_12:\n      tag_49\n      tag_97\n      calldatasize\n      0x04\n      tag_57\n      jump\t// in\n    tag_97:\n      tag_98\n      jump\t// in\n        /* \"smart-contracts/playground/main/Canvassing.sol\":3190:4191  function getAllEarningsMadeByParticipant(address _walletAddress)... */\n    tag_13:\n      tag_100\n      tag_101\n      calldatasize\n      0x04\n      tag_57\n      jump\t// in\n    tag_101:\n      tag_102\n      jump\t// in\n    tag_100:\n      mload(0x40)\n      tag_53\n      swap2\n      swap1\n      tag_104\n      jump\t// in\n        /* \"smart-contracts/playground/main/Canvassing.sol\":4197:5303  function getAllSurveysTakenByParticipant(address _walletAddress)... */\n    tag_14:\n      tag_61\n      tag_106\n      calldatasize\n      0x04\n      tag_57\n      jump\t// in\n    tag_106:\n      tag_107\n      jump\t// in\n        /* \"smart-contracts/playground/main/Canvassing.sol\":2183:2924  function createParticipant(... */\n    tag_15:\n      tag_71\n      tag_110\n      calldatasize\n      0x04\n      tag_111\n      jump\t// in\n    tag_110:\n      tag_112\n      jump\t// in\n        /* \"smart-contracts/playground/main/Canvassing.sol\":14454:14723  function getTotalAmountFundedByResearchersInWei(... */\n    tag_16:\n      tag_49\n      tag_114\n      calldatasize\n      0x04\n      tag_57\n      jump\t// in\n    tag_114:\n      sub(shl(0xa0, 0x01), 0x01)\n        /* \"smart-contracts/playground/main/Canvassing.sol\":14617:14716  totalAmountFundedByResearchersInWei[... */\n      and\n        /* \"smart-contracts/playground/main/Canvassing.sol\":14579:14586  uint256 */\n      0x00\n        /* \"smart-contracts/playground/main/Canvassing.sol\":14617:14716  totalAmountFundedByResearchersInWei[... */\n      swap1\n      dup2\n      mstore\n        /* \"smart-contracts/playground/main/Canvassing.sol\":14617:14652  totalAmountFundedByResearchersInWei */\n      0x09\n        /* \"smart-contracts/playground/main/Canvassing.sol\":14617:14716  totalAmountFundedByResearchersInWei[... */\n      0x20\n      mstore\n      0x40\n      swap1\n      keccak256\n      sload\n      swap1\n        /* \"smart-contracts/playground/main/Canvassing.sol\":14454:14723  function getTotalAmountFundedByResearchersInWei(... */\n      jump\n        /* \"smart-contracts/playground/main/Canvassing.sol\":9400:9907  function getAmountOfEarningForCanvassingForSurveyPerParticipantInWei(... */\n    tag_17:\n      tag_49\n      tag_118\n      calldatasize\n      0x04\n      tag_51\n      jump\t// in\n    tag_118:\n      tag_119\n      jump\t// in\n        /* \"smart-contracts/playground/main/Canvassing.sol\":14171:14448  function getTotalNumberOfSurveyCreatedByResearcher(... */\n    tag_18:\n      tag_49\n      tag_122\n      calldatasize\n      0x04\n      tag_57\n      jump\t// in\n    tag_122:\n      sub(shl(0xa0, 0x01), 0x01)\n        /* \"smart-contracts/playground/main/Canvassing.sol\":14337:14441  totalNumberOfSurveysCreatedByResearchers[... */\n      and\n        /* \"smart-contracts/playground/main/Canvassing.sol\":14299:14306  uint256 */\n      0x00\n        /* \"smart-contracts/playground/main/Canvassing.sol\":14337:14441  totalNumberOfSurveysCreatedByResearchers[... */\n      swap1\n      dup2\n      mstore\n        /* \"smart-contracts/playground/main/Canvassing.sol\":14337:14377  totalNumberOfSurveysCreatedByResearchers */\n      0x08\n        /* \"smart-contracts/playground/main/Canvassing.sol\":14337:14441  totalNumberOfSurveysCreatedByResearchers[... */\n      0x20\n      mstore\n      0x40\n      swap1\n      keccak256\n      sload\n      swap1\n        /* \"smart-contracts/playground/main/Canvassing.sol\":14171:14448  function getTotalNumberOfSurveyCreatedByResearcher(... */\n      jump\n        /* \"smart-contracts/playground/main/Canvassing.sol\":1105:1180  mapping(address => uint256) public totalNumberOfSurveysCreatedByResearchers */\n    tag_19:\n      tag_49\n      tag_126\n      calldatasize\n      0x04\n      tag_57\n      jump\t// in\n    tag_126:\n      mstore(0x20, 0x08)\n      0x00\n      swap1\n      dup2\n      mstore\n      0x40\n      swap1\n      keccak256\n      sload\n      dup2\n      jump\n        /* \"smart-contracts/playground/main/Canvassing.sol\":505:559  mapping(address => Participant) public allParticipants */\n    tag_20:\n      tag_66\n      tag_130\n      calldatasize\n      0x04\n      tag_57\n      jump\t// in\n    tag_130:\n      tag_131\n      jump\t// in\n        /* \"smart-contracts/playground/main/Canvassing.sol\":1239:1309  mapping(address => uint256) public totalAmountFundedByResearchersInWei */\n    tag_21:\n      tag_49\n      tag_134\n      calldatasize\n      0x04\n      tag_57\n      jump\t// in\n    tag_134:\n      mstore(0x20, 0x09)\n      0x00\n      swap1\n      dup2\n      mstore\n      0x40\n      swap1\n      keccak256\n      sload\n      dup2\n      jump\n        /* \"smart-contracts/playground/main/Canvassing.sol\":17202:19066  function createSurvey(... */\n    tag_22:\n      tag_71\n      tag_138\n      calldatasize\n      0x04\n      tag_139\n      jump\t// in\n    tag_138:\n      tag_140\n      jump\t// in\n        /* \"smart-contracts/playground/main/Canvassing.sol\":711:757  mapping(uint256 => Answer[]) public allAnswers */\n    tag_23:\n      tag_141\n      tag_142\n      calldatasize\n      0x04\n      tag_51\n      jump\t// in\n    tag_142:\n      tag_143\n      jump\t// in\n    tag_141:\n      0x40\n      dup1\n      mload\n        /* \"#utility.yul\":13022:13047   */\n      swap7\n      dup8\n      mstore\n        /* \"#utility.yul\":13078:13080   */\n      0x20\n        /* \"#utility.yul\":13063:13081   */\n      dup8\n      add\n        /* \"#utility.yul\":13056:13090   */\n      swap6\n      swap1\n      swap6\n      mstore\n        /* \"#utility.yul\":13106:13124   */\n      swap4\n      dup6\n      add\n        /* \"#utility.yul\":13099:13133   */\n      swap3\n      swap1\n      swap3\n      mstore\n      sub(shl(0xa0, 0x01), 0x01)\n        /* \"#utility.yul\":13169:13201   */\n      and\n        /* \"#utility.yul\":13164:13166   */\n      0x60\n        /* \"#utility.yul\":13149:13167   */\n      dup5\n      add\n        /* \"#utility.yul\":13142:13202   */\n      mstore\n        /* \"#utility.yul\":13246:13260   */\n      iszero\n        /* \"#utility.yul\":13239:13261   */\n      iszero\n        /* \"#utility.yul\":13233:13236   */\n      0x80\n        /* \"#utility.yul\":13218:13237   */\n      dup4\n      add\n        /* \"#utility.yul\":13211:13262   */\n      mstore\n        /* \"#utility.yul\":13306:13320   */\n      iszero\n        /* \"#utility.yul\":13299:13321   */\n      iszero\n        /* \"#utility.yul\":13189:13192   */\n      0xa0\n        /* \"#utility.yul\":13278:13297   */\n      dup3\n      add\n        /* \"#utility.yul\":13271:13322   */\n      mstore\n        /* \"#utility.yul\":13009:13012   */\n      0xc0\n        /* \"#utility.yul\":12994:13013   */\n      add\n        /* \"smart-contracts/playground/main/Canvassing.sol\":711:757  mapping(uint256 => Answer[]) public allAnswers */\n      tag_53\n        /* \"#utility.yul\":12747:13328   */\n      jump\n        /* \"smart-contracts/playground/main/Canvassing.sol\":11147:13167  function makePayoutAndCreateEarning(... */\n    tag_24:\n      tag_71\n      tag_147\n      calldatasize\n      0x04\n      tag_87\n      jump\t// in\n    tag_147:\n      tag_148\n      jump\t// in\n        /* \"smart-contracts/playground/main/Canvassing.sol\":1793:1984  function checkIfParticipantExists(address _walletAddress)... */\n    tag_25:\n      tag_149\n      tag_150\n      calldatasize\n      0x04\n      tag_57\n      jump\t// in\n    tag_150:\n      tag_151\n      jump\t// in\n    tag_149:\n      mload(0x40)\n        /* \"#utility.yul\":13498:13512   */\n      swap1\n      iszero\n        /* \"#utility.yul\":13491:13513   */\n      iszero\n        /* \"#utility.yul\":13473:13514   */\n      dup2\n      mstore\n        /* \"#utility.yul\":13461:13463   */\n      0x20\n        /* \"#utility.yul\":13446:13464   */\n      add\n        /* \"smart-contracts/playground/main/Canvassing.sol\":1793:1984  function checkIfParticipantExists(address _walletAddress)... */\n      tag_53\n        /* \"#utility.yul\":13333:13520   */\n      jump\n        /* \"smart-contracts/playground/main/Canvassing.sol\":16949:17196  function verifyResearcher(address _walletAddress) public {... */\n    tag_26:\n      tag_71\n      tag_155\n      calldatasize\n      0x04\n      tag_57\n      jump\t// in\n    tag_155:\n      tag_156\n      jump\t// in\n        /* \"smart-contracts/playground/main/Canvassing.sol\":2930:3027  function getAllSurveys() public view returns (Survey[] memory) {... */\n    tag_27:\n      tag_61\n      tag_158\n      jump\t// in\n        /* \"smart-contracts/playground/main/Canvassing.sol\":953:1047  mapping(uint256 => mapping(address => bool))... */\n    tag_28:\n      tag_149\n      tag_161\n      calldatasize\n      0x04\n      tag_87\n      jump\t// in\n    tag_161:\n      0x07\n      0x20\n      swap1\n      dup2\n      mstore\n      0x00\n      swap3\n      dup4\n      mstore\n      0x40\n      dup1\n      dup5\n      keccak256\n      swap1\n      swap2\n      mstore\n      swap1\n      dup3\n      mstore\n      swap1\n      keccak256\n      sload\n      0xff\n      and\n      dup2\n      jump\n        /* \"smart-contracts/playground/main/Canvassing.sol\":1447:1475  Earning[] public allEarnings */\n    tag_29:\n      tag_164\n      tag_165\n      calldatasize\n      0x04\n      tag_77\n      jump\t// in\n    tag_165:\n      tag_166\n      jump\t// in\n    tag_164:\n      0x40\n      dup1\n      mload\n        /* \"#utility.yul\":13778:13803   */\n      swap6\n      dup7\n      mstore\n        /* \"#utility.yul\":13834:13836   */\n      0x20\n        /* \"#utility.yul\":13819:13837   */\n      dup7\n      add\n        /* \"#utility.yul\":13812:13846   */\n      swap5\n      swap1\n      swap5\n      mstore\n      sub(shl(0xa0, 0x01), 0x01)\n        /* \"#utility.yul\":13882:13914   */\n      swap1\n      swap3\n      and\n        /* \"#utility.yul\":13862:13880   */\n      swap3\n      dup5\n      add\n        /* \"#utility.yul\":13855:13915   */\n      swap3\n      swap1\n      swap3\n      mstore\n        /* \"#utility.yul\":13946:13948   */\n      0x60\n        /* \"#utility.yul\":13931:13949   */\n      dup4\n      add\n        /* \"#utility.yul\":13924:13958   */\n      swap2\n      swap1\n      swap2\n      mstore\n        /* \"#utility.yul\":14002:14016   */\n      iszero\n        /* \"#utility.yul\":13995:14017   */\n      iszero\n        /* \"#utility.yul\":13989:13992   */\n      0x80\n        /* \"#utility.yul\":13974:13993   */\n      dup3\n      add\n        /* \"#utility.yul\":13967:14018   */\n      mstore\n        /* \"#utility.yul\":13765:13768   */\n      0xa0\n        /* \"#utility.yul\":13750:13769   */\n      add\n        /* \"smart-contracts/playground/main/Canvassing.sol\":1447:1475  Earning[] public allEarnings */\n      tag_53\n        /* \"#utility.yul\":13525:14024   */\n      jump\n        /* \"smart-contracts/playground/main/Canvassing.sol\":1412:1440  Funding[] public allFundings */\n    tag_30:\n      tag_164\n      tag_170\n      calldatasize\n      0x04\n      tag_77\n      jump\t// in\n    tag_170:\n      tag_171\n      jump\t// in\n        /* \"smart-contracts/playground/main/Canvassing.sol\":19072:19250  function getParticipantsOfSurvey(uint256 _surveyId)... */\n    tag_31:\n      tag_173\n      tag_174\n      calldatasize\n      0x04\n      tag_77\n      jump\t// in\n    tag_174:\n      tag_175\n      jump\t// in\n    tag_173:\n      mload(0x40)\n      tag_53\n      swap2\n      swap1\n      tag_177\n      jump\t// in\n        /* \"smart-contracts/playground/main/Canvassing.sol\":13173:13362  function checkIfResearcherExists(address _walletAddress)... */\n    tag_32:\n      tag_149\n      tag_179\n      calldatasize\n      0x04\n      tag_57\n      jump\t// in\n    tag_179:\n      tag_180\n      jump\t// in\n        /* \"smart-contracts/playground/main/Canvassing.sol\":7630:7893  function checkIfParticipantHasAlreadyParticipatedInSurvey(... */\n    tag_33:\n      tag_149\n      tag_183\n      calldatasize\n      0x04\n      tag_184\n      jump\t// in\n    tag_183:\n        /* \"smart-contracts/playground/main/Canvassing.sol\":7785:7789  bool */\n      0x00\n        /* \"smart-contracts/playground/main/Canvassing.sol\":7820:7859  participationStatusForSurvey[_surveyId] */\n      swap1\n      dup2\n      mstore\n        /* \"smart-contracts/playground/main/Canvassing.sol\":7820:7848  participationStatusForSurvey */\n      0x06\n        /* \"smart-contracts/playground/main/Canvassing.sol\":7820:7859  participationStatusForSurvey[_surveyId] */\n      0x20\n      swap1\n      dup2\n      mstore\n      0x40\n      dup1\n      dup4\n      keccak256\n      sub(shl(0xa0, 0x01), 0x01)\n        /* \"smart-contracts/playground/main/Canvassing.sol\":7820:7886  participationStatusForSurvey[_surveyId][_participantWalletAddress] */\n      swap5\n      swap1\n      swap5\n      and\n      dup4\n      mstore\n      swap3\n      swap1\n      mstore\n      keccak256\n      sload\n      0xff\n      and\n      swap1\n        /* \"smart-contracts/playground/main/Canvassing.sol\":7630:7893  function checkIfParticipantHasAlreadyParticipatedInSurvey(... */\n      jump\n        /* \"smart-contracts/playground/main/Canvassing.sol\":15779:16943  function createFunding(... */\n    tag_34:\n      tag_71\n      tag_188\n      calldatasize\n      0x04\n      tag_189\n      jump\t// in\n    tag_188:\n      tag_190\n      jump\t// in\n        /* \"smart-contracts/playground/main/Canvassing.sol\":792:880  mapping(uint256 => mapping(address => bool))... */\n    tag_35:\n      tag_149\n      tag_192\n      calldatasize\n      0x04\n      tag_87\n      jump\t// in\n    tag_192:\n      0x06\n      0x20\n      swap1\n      dup2\n      mstore\n      0x00\n      swap3\n      dup4\n      mstore\n      0x40\n      dup1\n      dup5\n      keccak256\n      swap1\n      swap2\n      mstore\n      swap1\n      dup3\n      mstore\n      swap1\n      keccak256\n      sload\n      0xff\n      and\n      dup2\n      jump\n        /* \"smart-contracts/playground/main/Canvassing.sol\":3033:3184  function getSurveyById(uint256 _surveyId)... */\n    tag_36:\n      tag_195\n      tag_196\n      calldatasize\n      0x04\n      tag_77\n      jump\t// in\n    tag_196:\n      tag_197\n      jump\t// in\n    tag_195:\n      mload(0x40)\n      tag_53\n      swap2\n      swap1\n      tag_199\n      jump\t// in\n        /* \"smart-contracts/playground/main/Canvassing.sol\":9913:11141  function participateInSurvey(... */\n    tag_37:\n      tag_71\n      tag_201\n      calldatasize\n      0x04\n      tag_202\n      jump\t// in\n    tag_201:\n      tag_203\n      jump\t// in\n        /* \"smart-contracts/playground/main/Canvassing.sol\":19256:19414  function getAnswersOfSurvey(uint256 _surveyId)... */\n    tag_38:\n      tag_85\n      tag_205\n      calldatasize\n      0x04\n      tag_77\n      jump\t// in\n    tag_205:\n      tag_206\n      jump\t// in\n        /* \"smart-contracts/playground/main/Canvassing.sol\":6243:6410  function getAllQuestionsOfSurvey(uint256 _surveyId)... */\n    tag_39:\n      tag_208\n      tag_209\n      calldatasize\n      0x04\n      tag_77\n      jump\t// in\n    tag_209:\n      tag_210\n      jump\t// in\n    tag_208:\n      mload(0x40)\n      tag_53\n      swap2\n      swap1\n      tag_212\n      jump\t// in\n        /* \"smart-contracts/playground/main/Canvassing.sol\":402:454  mapping(address => Researcher) public allResearchers */\n    tag_40:\n      tag_213\n      tag_214\n      calldatasize\n      0x04\n      tag_57\n      jump\t// in\n    tag_214:\n      tag_215\n      jump\t// in\n    tag_213:\n      mload(0x40)\n      tag_53\n      swap8\n      swap7\n      swap6\n      swap5\n      swap4\n      swap3\n      swap2\n      swap1\n      tag_217\n      jump\t// in\n        /* \"smart-contracts/playground/main/Canvassing.sol\":626:676  mapping(uint256 => Question[]) public allQuestions */\n    tag_41:\n      tag_218\n      tag_219\n      calldatasize\n      0x04\n      tag_51\n      jump\t// in\n    tag_219:\n      tag_220\n      jump\t// in\n    tag_218:\n      mload(0x40)\n      tag_53\n      swap5\n      swap4\n      swap3\n      swap2\n      swap1\n      tag_222\n      jump\t// in\n        /* \"smart-contracts/playground/main/Canvassing.sol\":7899:8664  function getAmountOfFundingOfAnySurveyInWei(... */\n    tag_52:\n        /* \"smart-contracts/playground/main/Canvassing.sol\":8051:8058  uint256 */\n      0x00\n      dup1\n        /* \"smart-contracts/playground/main/Canvassing.sol\":8157:8211  potentialFundingOfAnySurveyInWei += _numberOfQuestions */\n      tag_224\n        /* \"smart-contracts/playground/main/Canvassing.sol\":8193:8211  _numberOfQuestions */\n      dup5\n        /* \"smart-contracts/playground/main/Canvassing.sol\":8051:8058  uint256 */\n      dup3\n        /* \"smart-contracts/playground/main/Canvassing.sol\":8157:8211  potentialFundingOfAnySurveyInWei += _numberOfQuestions */\n      tag_225\n      jump\t// in\n    tag_224:\n      swap1\n      pop\n        /* \"smart-contracts/playground/main/Canvassing.sol\":8268:8295  _targetNumberOfParticipants */\n      dup3\n        /* \"smart-contracts/playground/main/Canvassing.sol\":8299:8300  5 */\n      0x05\n        /* \"smart-contracts/playground/main/Canvassing.sol\":8268:8300  _targetNumberOfParticipants == 5 */\n      sub\n        /* \"smart-contracts/playground/main/Canvassing.sol\":8264:8364  if (_targetNumberOfParticipants == 5) {... */\n      tag_226\n      jumpi\n        /* \"smart-contracts/playground/main/Canvassing.sol\":8316:8353  potentialFundingOfAnySurveyInWei += 2 */\n      tag_227\n        /* \"smart-contracts/playground/main/Canvassing.sol\":8352:8353  2 */\n      0x02\n        /* \"smart-contracts/playground/main/Canvassing.sol\":8316:8353  potentialFundingOfAnySurveyInWei += 2 */\n      dup3\n      tag_225\n      jump\t// in\n    tag_227:\n      swap1\n      pop\n        /* \"smart-contracts/playground/main/Canvassing.sol\":8264:8364  if (_targetNumberOfParticipants == 5) {... */\n    tag_226:\n        /* \"smart-contracts/playground/main/Canvassing.sol\":8378:8405  _targetNumberOfParticipants */\n      dup3\n        /* \"smart-contracts/playground/main/Canvassing.sol\":8409:8410  7 */\n      0x07\n        /* \"smart-contracts/playground/main/Canvassing.sol\":8378:8410  _targetNumberOfParticipants == 7 */\n      sub\n        /* \"smart-contracts/playground/main/Canvassing.sol\":8374:8474  if (_targetNumberOfParticipants == 7) {... */\n      tag_228\n      jumpi\n        /* \"smart-contracts/playground/main/Canvassing.sol\":8426:8463  potentialFundingOfAnySurveyInWei += 4 */\n      tag_229\n        /* \"smart-contracts/playground/main/Canvassing.sol\":8462:8463  4 */\n      0x04\n        /* \"smart-contracts/playground/main/Canvassing.sol\":8426:8463  potentialFundingOfAnySurveyInWei += 4 */\n      dup3\n      tag_225\n      jump\t// in\n    tag_229:\n      swap1\n      pop\n        /* \"smart-contracts/playground/main/Canvassing.sol\":8374:8474  if (_targetNumberOfParticipants == 7) {... */\n    tag_228:\n        /* \"smart-contracts/playground/main/Canvassing.sol\":8488:8515  _targetNumberOfParticipants */\n      dup3\n        /* \"smart-contracts/playground/main/Canvassing.sol\":8519:8520  9 */\n      0x09\n        /* \"smart-contracts/playground/main/Canvassing.sol\":8488:8520  _targetNumberOfParticipants == 9 */\n      sub\n        /* \"smart-contracts/playground/main/Canvassing.sol\":8484:8584  if (_targetNumberOfParticipants == 9) {... */\n      tag_230\n      jumpi\n        /* \"smart-contracts/playground/main/Canvassing.sol\":8536:8573  potentialFundingOfAnySurveyInWei += 6 */\n      tag_231\n        /* \"smart-contracts/playground/main/Canvassing.sol\":8572:8573  6 */\n      0x06\n        /* \"smart-contracts/playground/main/Canvassing.sol\":8536:8573  potentialFundingOfAnySurveyInWei += 6 */\n      dup3\n      tag_225\n      jump\t// in\n    tag_231:\n      swap1\n      pop\n        /* \"smart-contracts/playground/main/Canvassing.sol\":8484:8584  if (_targetNumberOfParticipants == 9) {... */\n    tag_230:\n        /* \"smart-contracts/playground/main/Canvassing.sol\":8641:8645  cUSD */\n      0x14\n      0x00\n      swap1\n      sload\n      swap1\n      0x0100\n      exp\n      swap1\n      div\n      sub(shl(0xa0, 0x01), 0x01)\n      and\n      sub(shl(0xa0, 0x01), 0x01)\n        /* \"smart-contracts/playground/main/Canvassing.sol\":8641:8654  cUSD.decimals */\n      and\n      0x313ce567\n        /* \"smart-contracts/playground/main/Canvassing.sol\":8641:8656  cUSD.decimals() */\n      mload(0x40)\n      dup2\n      0xffffffff\n      and\n      0xe0\n      shl\n      dup2\n      mstore\n      0x04\n      add\n      0x20\n      mload(0x40)\n      dup1\n      dup4\n      sub\n      dup2\n      dup7\n      gas\n      staticcall\n      iszero\n      dup1\n      iszero\n      tag_233\n      jumpi\n      returndatasize\n      0x00\n      dup1\n      returndatacopy\n      revert(0x00, returndatasize)\n    tag_233:\n      pop\n      pop\n      pop\n      pop\n      mload(0x40)\n      returndatasize\n      not(0x1f)\n      0x1f\n      dup3\n      add\n      and\n      dup3\n      add\n      dup1\n      0x40\n      mstore\n      pop\n      dup2\n      add\n      swap1\n      tag_234\n      swap2\n      swap1\n      tag_235\n      jump\t// in\n    tag_234:\n        /* \"smart-contracts/playground/main/Canvassing.sol\":8637:8656  10**cUSD.decimals() */\n      tag_236\n      swap1\n        /* \"smart-contracts/playground/main/Canvassing.sol\":8637:8639  10 */\n      0x0a\n        /* \"smart-contracts/playground/main/Canvassing.sol\":8637:8656  10**cUSD.decimals() */\n      tag_237\n      jump\t// in\n    tag_236:\n        /* \"smart-contracts/playground/main/Canvassing.sol\":8601:8657  potentialFundingOfAnySurveyInWei * (10**cUSD.decimals()) */\n      tag_238\n      swap1\n        /* \"smart-contracts/playground/main/Canvassing.sol\":8601:8633  potentialFundingOfAnySurveyInWei */\n      dup3\n        /* \"smart-contracts/playground/main/Canvassing.sol\":8601:8657  potentialFundingOfAnySurveyInWei * (10**cUSD.decimals()) */\n      tag_239\n      jump\t// in\n    tag_238:\n        /* \"smart-contracts/playground/main/Canvassing.sol\":8594:8657  return potentialFundingOfAnySurveyInWei * (10**cUSD.decimals()) */\n      swap2\n      pop\n      pop\n        /* \"smart-contracts/playground/main/Canvassing.sol\":7899:8664  function getAmountOfFundingOfAnySurveyInWei(... */\n    tag_223:\n      swap3\n      swap2\n      pop\n      pop\n      jump\t// out\n        /* \"smart-contracts/playground/main/Canvassing.sol\":13368:13552  function getResearcherByWalletAddress(address _walletAddress)... */\n    tag_58:\n        /* \"smart-contracts/playground/main/Canvassing.sol\":13475:13492  Researcher memory */\n      tag_240\n      tag_241\n      jump\t// in\n    tag_240:\n      sub(shl(0xa0, 0x01), 0x01)\n        /* \"smart-contracts/playground/main/Canvassing.sol\":13515:13545  allResearchers[_walletAddress] */\n      dup1\n      dup4\n      and\n      0x00\n      swap1\n      dup2\n      mstore\n        /* \"smart-contracts/playground/main/Canvassing.sol\":13515:13529  allResearchers */\n      0x01\n        /* \"smart-contracts/playground/main/Canvassing.sol\":13515:13545  allResearchers[_walletAddress] */\n      0x20\n      dup2\n      dup2\n      mstore\n      0x40\n      swap3\n      dup4\n      swap1\n      keccak256\n        /* \"smart-contracts/playground/main/Canvassing.sol\":13508:13545  return allResearchers[_walletAddress] */\n      dup4\n      mload\n      0xe0\n      dup2\n      add\n      dup6\n      mstore\n      dup2\n      sload\n      dup2\n      mstore\n      swap3\n      dup2\n      add\n      sload\n      swap1\n      swap5\n      and\n      swap1\n      dup3\n      add\n      mstore\n      0x02\n      dup4\n      add\n      dup1\n      sload\n      swap2\n      swap4\n        /* \"smart-contracts/playground/main/Canvassing.sol\":13515:13545  allResearchers[_walletAddress] */\n      swap3\n        /* \"smart-contracts/playground/main/Canvassing.sol\":13508:13545  return allResearchers[_walletAddress] */\n      dup5\n      add\n      swap2\n      tag_243\n      swap1\n      tag_244\n      jump\t// in\n    tag_243:\n      dup1\n      0x1f\n      add\n      0x20\n      dup1\n      swap2\n      div\n      mul\n      0x20\n      add\n      mload(0x40)\n      swap1\n      dup2\n      add\n      0x40\n      mstore\n      dup1\n      swap3\n      swap2\n      swap1\n      dup2\n      dup2\n      mstore\n      0x20\n      add\n      dup3\n      dup1\n      sload\n      tag_245\n      swap1\n      tag_244\n      jump\t// in\n    tag_245:\n      dup1\n      iszero\n      tag_246\n      jumpi\n      dup1\n      0x1f\n      lt\n      tag_247\n      jumpi\n      0x0100\n      dup1\n      dup4\n      sload\n      div\n      mul\n      dup4\n      mstore\n      swap2\n      0x20\n      add\n      swap2\n      jump(tag_246)\n    tag_247:\n      dup3\n      add\n      swap2\n      swap1\n      0x00\n      mstore\n      keccak256(0x00, 0x20)\n      swap1\n    tag_248:\n      dup2\n      sload\n      dup2\n      mstore\n      swap1\n      0x01\n      add\n      swap1\n      0x20\n      add\n      dup1\n      dup4\n      gt\n      tag_248\n      jumpi\n      dup3\n      swap1\n      sub\n      0x1f\n      and\n      dup3\n      add\n      swap2\n    tag_246:\n      pop\n      pop\n      pop\n      swap2\n      dup4\n      mstore\n      pop\n      pop\n      0x03\n      dup3\n      add\n      sload\n      0x20\n      dup3\n      add\n      mstore\n      0x04\n      swap1\n      swap2\n      add\n      sload\n      0xff\n      dup1\n      dup3\n      and\n      iszero\n      iszero\n      0x40\n      dup5\n      add\n      mstore\n      0x0100\n      dup3\n      div\n      dup2\n      and\n      iszero\n      iszero\n      0x60\n      dup5\n      add\n      mstore\n      0x010000\n      swap1\n      swap2\n      div\n      and\n      iszero\n      iszero\n      0x80\n      swap1\n      swap2\n      add\n      mstore\n      swap3\n        /* \"smart-contracts/playground/main/Canvassing.sol\":13368:13552  function getResearcherByWalletAddress(address _walletAddress)... */\n      swap2\n      pop\n      pop\n      jump\t// out\n        /* \"smart-contracts/playground/main/Canvassing.sol\":14729:15773  function getSurveysCreatedByResearcher(address _researcherWalletAddress)... */\n    tag_63:\n      sub(shl(0xa0, 0x01), 0x01)\n        /* \"smart-contracts/playground/main/Canvassing.sol\":14928:15024  totalNumberOfSurveysCreatedByResearchers[... */\n      dup2\n      and\n        /* \"smart-contracts/playground/main/Canvassing.sol\":14878:14925  uint256 totalNumberOfSurveysCreatedByResearcher */\n      0x00\n        /* \"smart-contracts/playground/main/Canvassing.sol\":14928:15024  totalNumberOfSurveysCreatedByResearchers[... */\n      swap1\n      dup2\n      mstore\n        /* \"smart-contracts/playground/main/Canvassing.sol\":14928:14968  totalNumberOfSurveysCreatedByResearchers */\n      0x08\n        /* \"smart-contracts/playground/main/Canvassing.sol\":14928:15024  totalNumberOfSurveysCreatedByResearchers[... */\n      0x20\n      mstore\n      0x40\n      dup2\n      keccak256\n      sload\n        /* \"smart-contracts/playground/main/Canvassing.sol\":14847:14862  Survey[] memory */\n      0x60\n      swap2\n        /* \"smart-contracts/playground/main/Canvassing.sol\":14928:15024  totalNumberOfSurveysCreatedByResearchers[... */\n      dup2\n      sub(shl(0x40, 0x01), 0x01)\n        /* \"smart-contracts/playground/main/Canvassing.sol\":15083:15158  new Survey[](... */\n      dup2\n      gt\n      iszero\n      tag_251\n      jumpi\n      tag_251\n      tag_252\n      jump\t// in\n    tag_251:\n      mload(0x40)\n      swap1\n      dup1\n      dup3\n      mstore\n      dup1\n      0x20\n      mul\n      0x20\n      add\n      dup3\n      add\n      0x40\n      mstore\n      dup1\n      iszero\n      tag_253\n      jumpi\n      dup2\n      0x20\n      add\n    tag_254:\n      tag_255\n      tag_256\n      jump\t// in\n    tag_255:\n      dup2\n      mstore\n      0x20\n      add\n      swap1\n      0x01\n      swap1\n      sub\n      swap1\n      dup2\n      tag_254\n      jumpi\n      swap1\n      pop\n    tag_253:\n      pop\n        /* \"smart-contracts/playground/main/Canvassing.sol\":15035:15158  Survey[] memory allSurveysCreatedByResearcher = new Survey[](... */\n      swap1\n      pop\n        /* \"smart-contracts/playground/main/Canvassing.sol\":15169:15188  uint256 surveyIndex */\n      0x00\n        /* \"smart-contracts/playground/main/Canvassing.sol\":15208:15224  uint256 surveyId */\n      dup1\n        /* \"smart-contracts/playground/main/Canvassing.sol\":15203:15720  for (uint256 surveyId = 0; surveyId < allSurveys.length; surveyId++) {... */\n    tag_257:\n        /* \"smart-contracts/playground/main/Canvassing.sol\":15241:15251  allSurveys */\n      0x03\n        /* \"smart-contracts/playground/main/Canvassing.sol\":15241:15258  allSurveys.length */\n      sload\n        /* \"smart-contracts/playground/main/Canvassing.sol\":15230:15258  surveyId < allSurveys.length */\n      dup2\n      lt\n        /* \"smart-contracts/playground/main/Canvassing.sol\":15203:15720  for (uint256 surveyId = 0; surveyId < allSurveys.length; surveyId++) {... */\n      iszero\n      tag_258\n      jumpi\n        /* \"smart-contracts/playground/main/Canvassing.sol\":15286:15313  Survey memory runningSurvey */\n      0x00\n        /* \"smart-contracts/playground/main/Canvassing.sol\":15316:15326  allSurveys */\n      0x03\n        /* \"smart-contracts/playground/main/Canvassing.sol\":15327:15335  surveyId */\n      dup3\n        /* \"smart-contracts/playground/main/Canvassing.sol\":15316:15336  allSurveys[surveyId] */\n      dup2\n      sload\n      dup2\n      lt\n      tag_261\n      jumpi\n      tag_261\n      tag_262\n      jump\t// in\n    tag_261:\n      swap1\n      0x00\n      mstore\n      keccak256(0x00, 0x20)\n      swap1\n      0x07\n      mul\n      add\n        /* \"smart-contracts/playground/main/Canvassing.sol\":15286:15336  Survey memory runningSurvey = allSurveys[surveyId] */\n      mload(0x40)\n      dup1\n      0xe0\n      add\n      0x40\n      mstore\n      swap1\n      dup2\n      0x00\n      dup3\n      add\n      sload\n      dup2\n      mstore\n      0x20\n      add\n      0x01\n      dup3\n      add\n      0x00\n      swap1\n      sload\n      swap1\n      0x0100\n      exp\n      swap1\n      div\n      sub(shl(0xa0, 0x01), 0x01)\n      and\n      sub(shl(0xa0, 0x01), 0x01)\n      and\n      sub(shl(0xa0, 0x01), 0x01)\n      and\n      dup2\n      mstore\n      0x20\n      add\n      0x02\n      dup3\n      add\n      dup1\n      sload\n      tag_264\n      swap1\n      tag_244\n      jump\t// in\n    tag_264:\n      dup1\n      0x1f\n      add\n      0x20\n      dup1\n      swap2\n      div\n      mul\n      0x20\n      add\n      mload(0x40)\n      swap1\n      dup2\n      add\n      0x40\n      mstore\n      dup1\n      swap3\n      swap2\n      swap1\n      dup2\n      dup2\n      mstore\n      0x20\n      add\n      dup3\n      dup1\n      sload\n      tag_265\n      swap1\n      tag_244\n      jump\t// in\n    tag_265:\n      dup1\n      iszero\n      tag_266\n      jumpi\n      dup1\n      0x1f\n      lt\n      tag_267\n      jumpi\n      0x0100\n      dup1\n      dup4\n      sload\n      div\n      mul\n      dup4\n      mstore\n      swap2\n      0x20\n      add\n      swap2\n      jump(tag_266)\n    tag_267:\n      dup3\n      add\n      swap2\n      swap1\n      0x00\n      mstore\n      keccak256(0x00, 0x20)\n      swap1\n    tag_268:\n      dup2\n      sload\n      dup2\n      mstore\n      swap1\n      0x01\n      add\n      swap1\n      0x20\n      add\n      dup1\n      dup4\n      gt\n      tag_268\n      jumpi\n      dup3\n      swap1\n      sub\n      0x1f\n      and\n      dup3\n      add\n      swap2\n    tag_266:\n      pop\n      pop\n      pop\n      swap2\n      dup4\n      mstore\n      pop\n      pop\n      0x03\n      dup3\n      add\n      sload\n      0x20\n      dup1\n      dup4\n      add\n      swap2\n      swap1\n      swap2\n      mstore\n      0x04\n      dup4\n      add\n      sload\n      0x40\n      dup4\n      add\n      mstore\n      0x05\n      dup4\n      add\n      sload\n      0x60\n      dup4\n      add\n      mstore\n      0x06\n      swap1\n      swap3\n      add\n      sload\n      0xff\n      and\n      iszero\n      iszero\n      0x80\n      swap1\n      swap2\n      add\n      mstore\n        /* \"smart-contracts/playground/main/Canvassing.sol\":15372:15417  runningSurvey.creatingResearcherWalletAddress */\n      dup2\n      add\n      mload\n        /* \"smart-contracts/playground/main/Canvassing.sol\":15286:15336  Survey memory runningSurvey = allSurveys[surveyId] */\n      swap1\n      swap2\n      pop\n      sub(shl(0xa0, 0x01), 0x01)\n        /* \"smart-contracts/playground/main/Canvassing.sol\":15372:15461  runningSurvey.creatingResearcherWalletAddress ==... */\n      dup1\n      dup10\n      and\n      swap2\n      and\n      sub\n        /* \"smart-contracts/playground/main/Canvassing.sol\":15351:15598  if (... */\n      tag_269\n      jumpi\n        /* \"smart-contracts/playground/main/Canvassing.sol\":15539:15552  runningSurvey */\n      dup1\n        /* \"smart-contracts/playground/main/Canvassing.sol\":15494:15523  allSurveysCreatedByResearcher */\n      dup5\n        /* \"smart-contracts/playground/main/Canvassing.sol\":15524:15535  surveyIndex */\n      dup5\n        /* \"smart-contracts/playground/main/Canvassing.sol\":15494:15536  allSurveysCreatedByResearcher[surveyIndex] */\n      dup2\n      mload\n      dup2\n      lt\n      tag_271\n      jumpi\n      tag_271\n      tag_262\n      jump\t// in\n    tag_271:\n      0x20\n      mul\n      0x20\n      add\n      add\n        /* \"smart-contracts/playground/main/Canvassing.sol\":15494:15552  allSurveysCreatedByResearcher[surveyIndex] = runningSurvey */\n      dup2\n      swap1\n      mstore\n      pop\n        /* \"smart-contracts/playground/main/Canvassing.sol\":15570:15583  surveyIndex++ */\n      dup3\n      dup1\n      tag_272\n      swap1\n      tag_273\n      jump\t// in\n    tag_272:\n      swap4\n      pop\n      pop\n        /* \"smart-contracts/playground/main/Canvassing.sol\":15351:15598  if (... */\n    tag_269:\n        /* \"smart-contracts/playground/main/Canvassing.sol\":15631:15670  totalNumberOfSurveysCreatedByResearcher */\n      dup5\n        /* \"smart-contracts/playground/main/Canvassing.sol\":15616:15627  surveyIndex */\n      dup4\n        /* \"smart-contracts/playground/main/Canvassing.sol\":15616:15670  surveyIndex == totalNumberOfSurveysCreatedByResearcher */\n      sub\n        /* \"smart-contracts/playground/main/Canvassing.sol\":15612:15710  if (surveyIndex == totalNumberOfSurveysCreatedByResearcher) {... */\n      tag_274\n      jumpi\n        /* \"smart-contracts/playground/main/Canvassing.sol\":15690:15695  break */\n      pop\n      jump(tag_258)\n        /* \"smart-contracts/playground/main/Canvassing.sol\":15612:15710  if (surveyIndex == totalNumberOfSurveysCreatedByResearcher) {... */\n    tag_274:\n      pop\n        /* \"smart-contracts/playground/main/Canvassing.sol\":15260:15270  surveyId++ */\n      dup1\n      tag_275\n      dup2\n      tag_273\n      jump\t// in\n    tag_275:\n      swap2\n      pop\n      pop\n        /* \"smart-contracts/playground/main/Canvassing.sol\":15203:15720  for (uint256 surveyId = 0; surveyId < allSurveys.length; surveyId++) {... */\n      jump(tag_257)\n    tag_258:\n      pop\n        /* \"smart-contracts/playground/main/Canvassing.sol\":15737:15766  allSurveysCreatedByResearcher */\n      swap1\n      swap5\n        /* \"smart-contracts/playground/main/Canvassing.sol\":14729:15773  function getSurveysCreatedByResearcher(address _researcherWalletAddress)... */\n      swap4\n      pop\n      pop\n      pop\n      pop\n      jump\t// out\n        /* \"smart-contracts/playground/main/Canvassing.sol\":1344:1405  mapping(uint256 => Participant[]) public participantsOfSurvey */\n    tag_68:\n      mstore(0x20, 0x0a)\n      dup2\n      0x00\n      mstore\n      keccak256(0x00, 0x40)\n      dup2\n      dup2\n      sload\n      dup2\n      lt\n      tag_276\n      jumpi\n      0x00\n      dup1\n      revert\n    tag_276:\n      0x00\n      swap2\n      dup3\n      mstore\n      0x20\n      swap1\n      swap2\n      keccak256\n      0x07\n      swap1\n      swap2\n      mul\n      add\n      dup1\n      sload\n      0x01\n      dup3\n      add\n      sload\n      0x02\n      dup4\n      add\n      dup1\n      sload\n      swap3\n      swap6\n      pop\n      sub(shl(0xa0, 0x01), 0x01)\n      swap1\n      swap2\n      and\n      swap4\n      pop\n      swap1\n      tag_278\n      swap1\n      tag_244\n      jump\t// in\n    tag_278:\n      dup1\n      0x1f\n      add\n      0x20\n      dup1\n      swap2\n      div\n      mul\n      0x20\n      add\n      mload(0x40)\n      swap1\n      dup2\n      add\n      0x40\n      mstore\n      dup1\n      swap3\n      swap2\n      swap1\n      dup2\n      dup2\n      mstore\n      0x20\n      add\n      dup3\n      dup1\n      sload\n      tag_279\n      swap1\n      tag_244\n      jump\t// in\n    tag_279:\n      dup1\n      iszero\n      tag_280\n      jumpi\n      dup1\n      0x1f\n      lt\n      tag_281\n      jumpi\n      0x0100\n      dup1\n      dup4\n      sload\n      div\n      mul\n      dup4\n      mstore\n      swap2\n      0x20\n      add\n      swap2\n      jump(tag_280)\n    tag_281:\n      dup3\n      add\n      swap2\n      swap1\n      0x00\n      mstore\n      keccak256(0x00, 0x20)\n      swap1\n    tag_282:\n      dup2\n      sload\n      dup2\n      mstore\n      swap1\n      0x01\n      add\n      swap1\n      0x20\n      add\n      dup1\n      dup4\n      gt\n      tag_282\n      jumpi\n      dup3\n      swap1\n      sub\n      0x1f\n      and\n      dup3\n      add\n      swap2\n    tag_280:\n      pop\n      pop\n      pop\n      pop\n      pop\n      swap1\n      dup1\n      0x03\n      add\n      dup1\n      sload\n      tag_283\n      swap1\n      tag_244\n      jump\t// in\n    tag_283:\n      dup1\n      0x1f\n      add\n      0x20\n      dup1\n      swap2\n      div\n      mul\n      0x20\n      add\n      mload(0x40)\n      swap1\n      dup2\n      add\n      0x40\n      mstore\n      dup1\n      swap3\n      swap2\n      swap1\n      dup2\n      dup2\n      mstore\n      0x20\n      add\n      dup3\n      dup1\n      sload\n      tag_284\n      swap1\n      tag_244\n      jump\t// in\n    tag_284:\n      dup1\n      iszero\n      tag_285\n      jumpi\n      dup1\n      0x1f\n      lt\n      tag_286\n      jumpi\n      0x0100\n      dup1\n      dup4\n      sload\n      div\n      mul\n      dup4\n      mstore\n      swap2\n      0x20\n      add\n      swap2\n      jump(tag_285)\n    tag_286:\n      dup3\n      add\n      swap2\n      swap1\n      0x00\n      mstore\n      keccak256(0x00, 0x20)\n      swap1\n    tag_287:\n      dup2\n      sload\n      dup2\n      mstore\n      swap1\n      0x01\n      add\n      swap1\n      0x20\n      add\n      dup1\n      dup4\n      gt\n      tag_287\n      jumpi\n      dup3\n      swap1\n      sub\n      0x1f\n      and\n      dup3\n      add\n      swap2\n    tag_285:\n      pop\n      pop\n      pop\n      pop\n      0x04\n      dup4\n      add\n      sload\n      0x05\n      dup5\n      add\n      sload\n      0x06\n      swap1\n      swap5\n      add\n      sload\n      swap3\n      swap4\n      swap1\n      swap3\n      swap1\n      swap2\n      pop\n      0xff\n      dup1\n      dup3\n      and\n      swap2\n      0x0100\n      swap1\n      div\n      and\n      dup9\n      jump\t// out\n        /* \"smart-contracts/playground/main/Canvassing.sol\":13558:14165  function createResearcher(... */\n    tag_74:\n        /* \"smart-contracts/playground/main/Canvassing.sol\":13734:13753  currentResearcherId */\n      sload(0x0d)\n        /* \"smart-contracts/playground/main/Canvassing.sol\":13764:13795  Researcher memory newResearcher */\n      tag_289\n      tag_241\n      jump\t// in\n    tag_289:\n        /* \"smart-contracts/playground/main/Canvassing.sol\":13805:13839  newResearcher.id = newResearcherId */\n      dup2\n      dup2\n      mstore\n      sub(shl(0xa0, 0x01), 0x01)\n        /* \"smart-contracts/playground/main/Canvassing.sol\":13849:13893  newResearcher.walletAddress = _walletAddress */\n      dup6\n      and\n        /* \"smart-contracts/playground/main/Canvassing.sol\":13849:13876  newResearcher.walletAddress */\n      0x20\n      dup3\n      add\n        /* \"smart-contracts/playground/main/Canvassing.sol\":13849:13893  newResearcher.walletAddress = _walletAddress */\n      mstore\n        /* \"smart-contracts/playground/main/Canvassing.sol\":13903:13925  newResearcher.industry */\n      0x40\n      dup2\n      add\n        /* \"smart-contracts/playground/main/Canvassing.sol\":13903:13937  newResearcher.industry = _industry */\n      dup5\n      swap1\n      mstore\n        /* \"smart-contracts/playground/main/Canvassing.sol\":13947:13980  newResearcher.yearOfIncorporation */\n      0x60\n      dup2\n      add\n        /* \"smart-contracts/playground/main/Canvassing.sol\":13947:14001  newResearcher.yearOfIncorporation = _yearOfCorporation */\n      dup4\n      swap1\n      mstore\n        /* \"smart-contracts/playground/main/Canvassing.sol\":13805:13821  newResearcher.id */\n      0x00\n        /* \"smart-contracts/playground/main/Canvassing.sol\":14011:14038  newResearcher.isParticipant */\n      0x80\n      dup3\n      add\n        /* \"smart-contracts/playground/main/Canvassing.sol\":14011:14046  newResearcher.isParticipant = false */\n      dup2\n      swap1\n      mstore\n        /* \"smart-contracts/playground/main/Canvassing.sol\":14056:14080  newResearcher.isVerified */\n      0xa0\n      dup3\n      add\n        /* \"smart-contracts/playground/main/Canvassing.sol\":14056:14088  newResearcher.isVerified = false */\n      dup2\n      swap1\n      mstore\n        /* \"smart-contracts/playground/main/Canvassing.sol\":14098:14119  newResearcher.isBlank */\n      0xc0\n      dup3\n      add\n        /* \"smart-contracts/playground/main/Canvassing.sol\":14098:14127  newResearcher.isBlank = false */\n      dup2\n      swap1\n      mstore\n        /* \"smart-contracts/playground/main/Canvassing.sol\":14137:14156  currentResearcherId */\n      0x0d\n        /* \"smart-contracts/playground/main/Canvassing.sol\":14137:14158  currentResearcherId++ */\n      dup1\n      sload\n      swap2\n      tag_290\n      dup4\n      tag_273\n      jump\t// in\n    tag_290:\n      swap2\n      swap1\n      pop\n      sstore\n      pop\n        /* \"smart-contracts/playground/main/Canvassing.sol\":13698:14165  {... */\n      pop\n      pop\n        /* \"smart-contracts/playground/main/Canvassing.sol\":13558:14165  function createResearcher(... */\n      pop\n      pop\n      pop\n      jump\t// out\n        /* \"smart-contracts/playground/main/Canvassing.sol\":565:591  Survey[] public allSurveys */\n    tag_78:\n      0x03\n      dup2\n      dup2\n      sload\n      dup2\n      lt\n      tag_291\n      jumpi\n      0x00\n      dup1\n      revert\n    tag_291:\n      0x00\n      swap2\n      dup3\n      mstore\n      0x20\n      swap1\n      swap2\n      keccak256\n      0x07\n      swap1\n      swap2\n      mul\n      add\n      dup1\n      sload\n      0x01\n      dup3\n      add\n      sload\n      0x02\n      dup4\n      add\n      dup1\n      sload\n      swap3\n      swap5\n      pop\n      sub(shl(0xa0, 0x01), 0x01)\n      swap1\n      swap2\n      and\n      swap3\n      swap2\n      tag_293\n      swap1\n      tag_244\n      jump\t// in\n    tag_293:\n      dup1\n      0x1f\n      add\n      0x20\n      dup1\n      swap2\n      div\n      mul\n      0x20\n      add\n      mload(0x40)\n      swap1\n      dup2\n      add\n      0x40\n      mstore\n      dup1\n      swap3\n      swap2\n      swap1\n      dup2\n      dup2\n      mstore\n      0x20\n      add\n      dup3\n      dup1\n      sload\n      tag_294\n      swap1\n      tag_244\n      jump\t// in\n    tag_294:\n      dup1\n      iszero\n      tag_295\n      jumpi\n      dup1\n      0x1f\n      lt\n      tag_296\n      jumpi\n      0x0100\n      dup1\n      dup4\n      sload\n      div\n      mul\n      dup4\n      mstore\n      swap2\n      0x20\n      add\n      swap2\n      jump(tag_295)\n    tag_296:\n      dup3\n      add\n      swap2\n      swap1\n      0x00\n      mstore\n      keccak256(0x00, 0x20)\n      swap1\n    tag_297:\n      dup2\n      sload\n      dup2\n      mstore\n      swap1\n      0x01\n      add\n      swap1\n      0x20\n      add\n      dup1\n      dup4\n      gt\n      tag_297\n      jumpi\n      dup3\n      swap1\n      sub\n      0x1f\n      and\n      dup3\n      add\n      swap2\n    tag_295:\n      pop\n      pop\n      pop\n      pop\n      0x03\n      dup4\n      add\n      sload\n      0x04\n      dup5\n      add\n      sload\n      0x05\n      dup6\n      add\n      sload\n      0x06\n      swap1\n      swap6\n      add\n      sload\n      swap4\n      swap5\n      swap2\n      swap4\n      swap1\n      swap3\n      pop\n      0xff\n      and\n      dup8\n      jump\t// out\n        /* \"smart-contracts/playground/main/Canvassing.sol\":8670:9394  function getAmountOfEarningPerParticipantForSurveyInWei(uint256 _surveyId)... */\n    tag_83:\n        /* \"smart-contracts/playground/main/Canvassing.sol\":8790:8797  uint256 */\n      0x00\n        /* \"smart-contracts/playground/main/Canvassing.sol\":8813:8840  Survey memory currentSurvey */\n      dup1\n        /* \"smart-contracts/playground/main/Canvassing.sol\":8843:8853  allSurveys */\n      0x03\n        /* \"smart-contracts/playground/main/Canvassing.sol\":8854:8863  _surveyId */\n      dup4\n        /* \"smart-contracts/playground/main/Canvassing.sol\":8843:8864  allSurveys[_surveyId] */\n      dup2\n      sload\n      dup2\n      lt\n      tag_300\n      jumpi\n      tag_300\n      tag_262\n      jump\t// in\n    tag_300:\n      swap1\n      0x00\n      mstore\n      keccak256(0x00, 0x20)\n      swap1\n      0x07\n      mul\n      add\n        /* \"smart-contracts/playground/main/Canvassing.sol\":8813:8864  Survey memory currentSurvey = allSurveys[_surveyId] */\n      mload(0x40)\n      dup1\n      0xe0\n      add\n      0x40\n      mstore\n      swap1\n      dup2\n      0x00\n      dup3\n      add\n      sload\n      dup2\n      mstore\n      0x20\n      add\n      0x01\n      dup3\n      add\n      0x00\n      swap1\n      sload\n      swap1\n      0x0100\n      exp\n      swap1\n      div\n      sub(shl(0xa0, 0x01), 0x01)\n      and\n      sub(shl(0xa0, 0x01), 0x01)\n      and\n      sub(shl(0xa0, 0x01), 0x01)\n      and\n      dup2\n      mstore\n      0x20\n      add\n      0x02\n      dup3\n      add\n      dup1\n      sload\n      tag_302\n      swap1\n      tag_244\n      jump\t// in\n    tag_302:\n      dup1\n      0x1f\n      add\n      0x20\n      dup1\n      swap2\n      div\n      mul\n      0x20\n      add\n      mload(0x40)\n      swap1\n      dup2\n      add\n      0x40\n      mstore\n      dup1\n      swap3\n      swap2\n      swap1\n      dup2\n      dup2\n      mstore\n      0x20\n      add\n      dup3\n      dup1\n      sload\n      tag_303\n      swap1\n      tag_244\n      jump\t// in\n    tag_303:\n      dup1\n      iszero\n      tag_304\n      jumpi\n      dup1\n      0x1f\n      lt\n      tag_305\n      jumpi\n      0x0100\n      dup1\n      dup4\n      sload\n      div\n      mul\n      dup4\n      mstore\n      swap2\n      0x20\n      add\n      swap2\n      jump(tag_304)\n    tag_305:\n      dup3\n      add\n      swap2\n      swap1\n      0x00\n      mstore\n      keccak256(0x00, 0x20)\n      swap1\n    tag_306:\n      dup2\n      sload\n      dup2\n      mstore\n      swap1\n      0x01\n      add\n      swap1\n      0x20\n      add\n      dup1\n      dup4\n      gt\n      tag_306\n      jumpi\n      dup3\n      swap1\n      sub\n      0x1f\n      and\n      dup3\n      add\n      swap2\n    tag_304:\n      pop\n      pop\n      pop\n      swap2\n      dup4\n      mstore\n      pop\n      pop\n      0x03\n      dup3\n      add\n      sload\n      0x20\n      dup3\n      add\n      mstore\n      0x04\n      dup3\n      add\n      sload\n      0x40\n      dup3\n      add\n      mstore\n      0x05\n      dup1\n      dup4\n      add\n      sload\n      0x60\n      dup4\n      add\n      mstore\n      0x06\n      swap1\n      swap3\n      add\n      sload\n      0xff\n      and\n      iszero\n      iszero\n      0x80\n      swap2\n      dup3\n      add\n      mstore\n        /* \"smart-contracts/playground/main/Canvassing.sol\":8903:8934  currentSurvey.amountFundedInWei */\n      0xa0\n      dup4\n      add\n      mload\n        /* \"smart-contracts/playground/main/Canvassing.sol\":8981:9034  currentSurvey... */\n      swap1\n      dup4\n      add\n      mload\n        /* \"smart-contracts/playground/main/Canvassing.sol\":8813:8864  Survey memory currentSurvey = allSurveys[_surveyId] */\n      swap3\n      swap4\n      pop\n        /* \"smart-contracts/playground/main/Canvassing.sol\":8903:8934  currentSurvey.amountFundedInWei */\n      swap2\n        /* \"smart-contracts/playground/main/Canvassing.sol\":8981:9034  currentSurvey... */\n      swap1\n      0x00\n      swap1\n        /* \"smart-contracts/playground/main/Canvassing.sol\":9129:9131  10 */\n      0x0a\n      swap1\n        /* \"smart-contracts/playground/main/Canvassing.sol\":9092:9113  amountFundedInWei * 5 */\n      tag_307\n      swap1\n        /* \"smart-contracts/playground/main/Canvassing.sol\":8903:8934  currentSurvey.amountFundedInWei */\n      dup6\n      swap1\n        /* \"smart-contracts/playground/main/Canvassing.sol\":9092:9113  amountFundedInWei * 5 */\n      tag_239\n      jump\t// in\n    tag_307:\n        /* \"smart-contracts/playground/main/Canvassing.sol\":9091:9131  (amountFundedInWei * 5) /... */\n      tag_308\n      swap2\n      swap1\n      tag_309\n      jump\t// in\n    tag_308:\n        /* \"smart-contracts/playground/main/Canvassing.sol\":9045:9131  uint256 participantRevenueSharingPoolAmount = (amountFundedInWei * 5) /... */\n      swap1\n      pop\n        /* \"smart-contracts/playground/main/Canvassing.sol\":9142:9194  uint256 potentialEarningPerParticipantForSurveyInWei */\n      0x00\n        /* \"smart-contracts/playground/main/Canvassing.sol\":9197:9277  participantRevenueSharingPoolAmount /... */\n      tag_310\n        /* \"smart-contracts/playground/main/Canvassing.sol\":9251:9277  targetNumberOfParticipants */\n      dup4\n        /* \"smart-contracts/playground/main/Canvassing.sol\":9045:9131  uint256 participantRevenueSharingPoolAmount = (amountFundedInWei * 5) /... */\n      dup4\n        /* \"smart-contracts/playground/main/Canvassing.sol\":9197:9277  participantRevenueSharingPoolAmount /... */\n      tag_309\n      jump\t// in\n    tag_310:\n        /* \"smart-contracts/playground/main/Canvassing.sol\":9142:9277  uint256 potentialEarningPerParticipantForSurveyInWei = participantRevenueSharingPoolAmount /... */\n      swap1\n      pop\n        /* \"smart-contracts/playground/main/Canvassing.sol\":9371:9375  cUSD */\n      0x14\n      0x00\n      swap1\n      sload\n      swap1\n      0x0100\n      exp\n      swap1\n      div\n      sub(shl(0xa0, 0x01), 0x01)\n      and\n      sub(shl(0xa0, 0x01), 0x01)\n        /* \"smart-contracts/playground/main/Canvassing.sol\":9371:9384  cUSD.decimals */\n      and\n      0x313ce567\n        /* \"smart-contracts/playground/main/Canvassing.sol\":9371:9386  cUSD.decimals() */\n      mload(0x40)\n      dup2\n      0xffffffff\n      and\n      0xe0\n      shl\n      dup2\n      mstore\n      0x04\n      add\n      0x20\n      mload(0x40)\n      dup1\n      dup4\n      sub\n      dup2\n      dup7\n      gas\n      staticcall\n      iszero\n      dup1\n      iszero\n      tag_312\n      jumpi\n      returndatasize\n      0x00\n      dup1\n      returndatacopy\n      revert(0x00, returndatasize)\n    tag_312:\n      pop\n      pop\n      pop\n      pop\n      mload(0x40)\n      returndatasize\n      not(0x1f)\n      0x1f\n      dup3\n      add\n      and\n      dup3\n      add\n      dup1\n      0x40\n      mstore\n      pop\n      dup2\n      add\n      swap1\n      tag_313\n      swap2\n      swap1\n      tag_235\n      jump\t// in\n    tag_313:\n        /* \"smart-contracts/playground/main/Canvassing.sol\":9367:9386  10**cUSD.decimals() */\n      tag_314\n      swap1\n        /* \"smart-contracts/playground/main/Canvassing.sol\":9367:9369  10 */\n      0x0a\n        /* \"smart-contracts/playground/main/Canvassing.sol\":9367:9386  10**cUSD.decimals() */\n      tag_237\n      jump\t// in\n    tag_314:\n        /* \"smart-contracts/playground/main/Canvassing.sol\":9307:9387  potentialEarningPerParticipantForSurveyInWei *... */\n      tag_315\n      swap1\n        /* \"smart-contracts/playground/main/Canvassing.sol\":9307:9351  potentialEarningPerParticipantForSurveyInWei */\n      dup3\n        /* \"smart-contracts/playground/main/Canvassing.sol\":9307:9387  potentialEarningPerParticipantForSurveyInWei *... */\n      tag_239\n      jump\t// in\n    tag_315:\n        /* \"smart-contracts/playground/main/Canvassing.sol\":9288:9387  return... */\n      swap8\n        /* \"smart-contracts/playground/main/Canvassing.sol\":8670:9394  function getAmountOfEarningPerParticipantForSurveyInWei(uint256 _surveyId)... */\n      swap7\n      pop\n      pop\n      pop\n      pop\n      pop\n      pop\n      pop\n      jump\t// out\n        /* \"smart-contracts/playground/main/Canvassing.sol\":6416:7624  function getAllAnswersOfParticipantOfSurvey(... */\n    tag_88:\n        /* \"smart-contracts/playground/main/Canvassing.sol\":6557:6572  Answer[] memory */\n      0x60\n        /* \"smart-contracts/playground/main/Canvassing.sol\":6584:6611  Survey memory currentSurvey */\n      0x00\n        /* \"smart-contracts/playground/main/Canvassing.sol\":6614:6624  allSurveys */\n      0x03\n        /* \"smart-contracts/playground/main/Canvassing.sol\":6625:6634  _surveyId */\n      dup5\n        /* \"smart-contracts/playground/main/Canvassing.sol\":6614:6635  allSurveys[_surveyId] */\n      dup2\n      sload\n      dup2\n      lt\n      tag_318\n      jumpi\n      tag_318\n      tag_262\n      jump\t// in\n    tag_318:\n      swap1\n      0x00\n      mstore\n      keccak256(0x00, 0x20)\n      swap1\n      0x07\n      mul\n      add\n        /* \"smart-contracts/playground/main/Canvassing.sol\":6584:6635  Survey memory currentSurvey = allSurveys[_surveyId] */\n      mload(0x40)\n      dup1\n      0xe0\n      add\n      0x40\n      mstore\n      swap1\n      dup2\n      0x00\n      dup3\n      add\n      sload\n      dup2\n      mstore\n      0x20\n      add\n      0x01\n      dup3\n      add\n      0x00\n      swap1\n      sload\n      swap1\n      0x0100\n      exp\n      swap1\n      div\n      sub(shl(0xa0, 0x01), 0x01)\n      and\n      sub(shl(0xa0, 0x01), 0x01)\n      and\n      sub(shl(0xa0, 0x01), 0x01)\n      and\n      dup2\n      mstore\n      0x20\n      add\n      0x02\n      dup3\n      add\n      dup1\n      sload\n      tag_320\n      swap1\n      tag_244\n      jump\t// in\n    tag_320:\n      dup1\n      0x1f\n      add\n      0x20\n      dup1\n      swap2\n      div\n      mul\n      0x20\n      add\n      mload(0x40)\n      swap1\n      dup2\n      add\n      0x40\n      mstore\n      dup1\n      swap3\n      swap2\n      swap1\n      dup2\n      dup2\n      mstore\n      0x20\n      add\n      dup3\n      dup1\n      sload\n      tag_321\n      swap1\n      tag_244\n      jump\t// in\n    tag_321:\n      dup1\n      iszero\n      tag_322\n      jumpi\n      dup1\n      0x1f\n      lt\n      tag_323\n      jumpi\n      0x0100\n      dup1\n      dup4\n      sload\n      div\n      mul\n      dup4\n      mstore\n      swap2\n      0x20\n      add\n      swap2\n      jump(tag_322)\n    tag_323:\n      dup3\n      add\n      swap2\n      swap1\n      0x00\n      mstore\n      keccak256(0x00, 0x20)\n      swap1\n    tag_324:\n      dup2\n      sload\n      dup2\n      mstore\n      swap1\n      0x01\n      add\n      swap1\n      0x20\n      add\n      dup1\n      dup4\n      gt\n      tag_324\n      jumpi\n      dup3\n      swap1\n      sub\n      0x1f\n      and\n      dup3\n      add\n      swap2\n    tag_322:\n      pop\n      pop\n      pop\n      pop\n      pop\n      dup2\n      mstore\n      0x20\n      add\n      0x03\n      dup3\n      add\n      sload\n      dup2\n      mstore\n      0x20\n      add\n      0x04\n      dup3\n      add\n      sload\n      dup2\n      mstore\n      0x20\n      add\n      0x05\n      dup3\n      add\n      sload\n      dup2\n      mstore\n      0x20\n      add\n      0x06\n      dup3\n      add\n      0x00\n      swap1\n      sload\n      swap1\n      0x0100\n      exp\n      swap1\n      div\n      0xff\n      and\n      iszero\n      iszero\n      iszero\n      iszero\n      dup2\n      mstore\n      pop\n      pop\n      swap1\n      pop\n        /* \"smart-contracts/playground/main/Canvassing.sol\":6645:6679  Answer[] memory allAnswersOfSurvey */\n      0x00\n        /* \"smart-contracts/playground/main/Canvassing.sol\":6682:6692  allAnswers */\n      0x05\n        /* \"smart-contracts/playground/main/Canvassing.sol\":6682:6703  allAnswers[_surveyId] */\n      0x00\n        /* \"smart-contracts/playground/main/Canvassing.sol\":6693:6702  _surveyId */\n      dup7\n        /* \"smart-contracts/playground/main/Canvassing.sol\":6682:6703  allAnswers[_surveyId] */\n      dup2\n      mstore\n      0x20\n      add\n      swap1\n      dup2\n      mstore\n      0x20\n      add\n      0x00\n      keccak256\n        /* \"smart-contracts/playground/main/Canvassing.sol\":6645:6703  Answer[] memory allAnswersOfSurvey = allAnswers[_surveyId] */\n      dup1\n      sload\n      dup1\n      0x20\n      mul\n      0x20\n      add\n      mload(0x40)\n      swap1\n      dup2\n      add\n      0x40\n      mstore\n      dup1\n      swap3\n      swap2\n      swap1\n      dup2\n      dup2\n      mstore\n      0x20\n      add\n      0x00\n      swap1\n    tag_325:\n      dup3\n      dup3\n      lt\n      iszero\n      tag_326\n      jumpi\n      0x00\n      dup5\n      dup2\n      mstore\n      0x20\n      swap1\n      dup2\n      swap1\n      keccak256\n      0x40\n      dup1\n      mload\n      0xc0\n      dup2\n      add\n      dup3\n      mstore\n      0x04\n      dup7\n      mul\n      swap1\n      swap3\n      add\n      dup1\n      sload\n      dup4\n      mstore\n      0x01\n      dup1\n      dup3\n      add\n      sload\n      dup5\n      dup7\n      add\n      mstore\n      0x02\n      dup3\n      add\n      sload\n      swap3\n      dup5\n      add\n      swap3\n      swap1\n      swap3\n      mstore\n      0x03\n      add\n      sload\n      sub(shl(0xa0, 0x01), 0x01)\n      dup2\n      and\n      0x60\n      dup5\n      add\n      mstore\n      0xff\n      shl(0xa0, 0x01)\n      dup3\n      div\n      dup2\n      and\n      iszero\n      iszero\n      0x80\n      dup6\n      add\n      mstore\n      shl(0xa8, 0x01)\n      swap1\n      swap2\n      div\n      and\n      iszero\n      iszero\n      0xa0\n      dup4\n      add\n      mstore\n      swap1\n      dup4\n      mstore\n      swap1\n      swap3\n      add\n      swap2\n      add\n      jump(tag_325)\n    tag_326:\n      pop\n      pop\n      pop\n      pop\n        /* \"smart-contracts/playground/main/Canvassing.sol\":6766:6810  currentSurvey... */\n      0x60\n      dup4\n      add\n      mload\n        /* \"smart-contracts/playground/main/Canvassing.sol\":6645:6703  Answer[] memory allAnswersOfSurvey = allAnswers[_surveyId] */\n      swap1\n      swap2\n      pop\n        /* \"smart-contracts/playground/main/Canvassing.sol\":6714:6763  uint256 totalNumberOfAnswersOfParticipantOfSurvey */\n      0x00\n        /* \"smart-contracts/playground/main/Canvassing.sol\":6766:6810  currentSurvey... */\n      dup2\n      sub(shl(0x40, 0x01), 0x01)\n        /* \"smart-contracts/playground/main/Canvassing.sol\":6871:6948  new Answer[](... */\n      dup2\n      gt\n      iszero\n      tag_329\n      jumpi\n      tag_329\n      tag_252\n      jump\t// in\n    tag_329:\n      mload(0x40)\n      swap1\n      dup1\n      dup3\n      mstore\n      dup1\n      0x20\n      mul\n      0x20\n      add\n      dup3\n      add\n      0x40\n      mstore\n      dup1\n      iszero\n      tag_330\n      jumpi\n      dup2\n      0x20\n      add\n    tag_331:\n      tag_332\n      tag_333\n      jump\t// in\n    tag_332:\n      dup2\n      mstore\n      0x20\n      add\n      swap1\n      0x01\n      swap1\n      sub\n      swap1\n      dup2\n      tag_331\n      jumpi\n      swap1\n      pop\n    tag_330:\n      pop\n        /* \"smart-contracts/playground/main/Canvassing.sol\":6821:6948  Answer[] memory allAnswersOfParticipantOfSurvey = new Answer[](... */\n      swap1\n      pop\n        /* \"smart-contracts/playground/main/Canvassing.sol\":6959:6978  uint256 answerIndex */\n      0x00\n        /* \"smart-contracts/playground/main/Canvassing.sol\":7011:7027  uint256 answerId */\n      dup1\n        /* \"smart-contracts/playground/main/Canvassing.sol\":6993:7570  for (... */\n    tag_334:\n        /* \"smart-contracts/playground/main/Canvassing.sol\":7056:7074  allAnswersOfSurvey */\n      dup5\n        /* \"smart-contracts/playground/main/Canvassing.sol\":7056:7081  allAnswersOfSurvey.length */\n      mload\n        /* \"smart-contracts/playground/main/Canvassing.sol\":7045:7053  answerId */\n      dup2\n        /* \"smart-contracts/playground/main/Canvassing.sol\":7045:7081  answerId < allAnswersOfSurvey.length */\n      lt\n        /* \"smart-contracts/playground/main/Canvassing.sol\":6993:7570  for (... */\n      iszero\n      tag_335\n      jumpi\n        /* \"smart-contracts/playground/main/Canvassing.sol\":7130:7157  Answer memory runningAnswer */\n      0x00\n        /* \"smart-contracts/playground/main/Canvassing.sol\":7160:7178  allAnswersOfSurvey */\n      dup6\n        /* \"smart-contracts/playground/main/Canvassing.sol\":7179:7187  answerId */\n      dup3\n        /* \"smart-contracts/playground/main/Canvassing.sol\":7160:7188  allAnswersOfSurvey[answerId] */\n      dup2\n      mload\n      dup2\n      lt\n      tag_338\n      jumpi\n      tag_338\n      tag_262\n      jump\t// in\n    tag_338:\n      0x20\n      mul\n      0x20\n      add\n      add\n      mload\n        /* \"smart-contracts/playground/main/Canvassing.sol\":7130:7188  Answer memory runningAnswer = allAnswersOfSurvey[answerId] */\n      swap1\n      pop\n        /* \"smart-contracts/playground/main/Canvassing.sol\":7282:7307  _participantWalletAddress */\n      dup9\n      sub(shl(0xa0, 0x01), 0x01)\n        /* \"smart-contracts/playground/main/Canvassing.sol\":7224:7307  runningAnswer.participantWalletAddress ==... */\n      and\n        /* \"smart-contracts/playground/main/Canvassing.sol\":7224:7237  runningAnswer */\n      dup2\n        /* \"smart-contracts/playground/main/Canvassing.sol\":7224:7262  runningAnswer.participantWalletAddress */\n      0x60\n      add\n      mload\n      sub(shl(0xa0, 0x01), 0x01)\n        /* \"smart-contracts/playground/main/Canvassing.sol\":7224:7307  runningAnswer.participantWalletAddress ==... */\n      and\n      sub\n        /* \"smart-contracts/playground/main/Canvassing.sol\":7203:7446  if (... */\n      tag_339\n      jumpi\n        /* \"smart-contracts/playground/main/Canvassing.sol\":7387:7400  runningAnswer */\n      dup1\n        /* \"smart-contracts/playground/main/Canvassing.sol\":7340:7371  allAnswersOfParticipantOfSurvey */\n      dup5\n        /* \"smart-contracts/playground/main/Canvassing.sol\":7372:7383  answerIndex */\n      dup5\n        /* \"smart-contracts/playground/main/Canvassing.sol\":7340:7384  allAnswersOfParticipantOfSurvey[answerIndex] */\n      dup2\n      mload\n      dup2\n      lt\n      tag_341\n      jumpi\n      tag_341\n      tag_262\n      jump\t// in\n    tag_341:\n      0x20\n      mul\n      0x20\n      add\n      add\n        /* \"smart-contracts/playground/main/Canvassing.sol\":7340:7400  allAnswersOfParticipantOfSurvey[answerIndex] = runningAnswer */\n      dup2\n      swap1\n      mstore\n      pop\n        /* \"smart-contracts/playground/main/Canvassing.sol\":7418:7431  answerIndex++ */\n      dup3\n      dup1\n      tag_342\n      swap1\n      tag_273\n      jump\t// in\n    tag_342:\n      swap4\n      pop\n      pop\n        /* \"smart-contracts/playground/main/Canvassing.sol\":7203:7446  if (... */\n    tag_339:\n        /* \"smart-contracts/playground/main/Canvassing.sol\":7479:7520  totalNumberOfAnswersOfParticipantOfSurvey */\n      dup5\n        /* \"smart-contracts/playground/main/Canvassing.sol\":7464:7475  answerIndex */\n      dup4\n        /* \"smart-contracts/playground/main/Canvassing.sol\":7464:7520  answerIndex == totalNumberOfAnswersOfParticipantOfSurvey */\n      sub\n        /* \"smart-contracts/playground/main/Canvassing.sol\":7460:7560  if (answerIndex == totalNumberOfAnswersOfParticipantOfSurvey) {... */\n      tag_343\n      jumpi\n        /* \"smart-contracts/playground/main/Canvassing.sol\":7540:7545  break */\n      pop\n      jump(tag_335)\n        /* \"smart-contracts/playground/main/Canvassing.sol\":7460:7560  if (answerIndex == totalNumberOfAnswersOfParticipantOfSurvey) {... */\n    tag_343:\n      pop\n        /* \"smart-contracts/playground/main/Canvassing.sol\":7095:7105  answerId++ */\n      dup1\n      tag_344\n      dup2\n      tag_273\n      jump\t// in\n    tag_344:\n      swap2\n      pop\n      pop\n        /* \"smart-contracts/playground/main/Canvassing.sol\":6993:7570  for (... */\n      jump(tag_334)\n    tag_335:\n      pop\n        /* \"smart-contracts/playground/main/Canvassing.sol\":7586:7617  allAnswersOfParticipantOfSurvey */\n      swap1\n      swap8\n        /* \"smart-contracts/playground/main/Canvassing.sol\":6416:7624  function getAllAnswersOfParticipantOfSurvey(... */\n      swap7\n      pop\n      pop\n      pop\n      pop\n      pop\n      pop\n      pop\n      jump\t// out\n        /* \"smart-contracts/playground/main/Canvassing.sol\":1990:2177  function getParticipantByWalletAddress(address _walletAddress)... */\n    tag_93:\n        /* \"smart-contracts/playground/main/Canvassing.sol\":2098:2116  Participant memory */\n      tag_345\n      tag_346\n      jump\t// in\n    tag_345:\n      sub(shl(0xa0, 0x01), 0x01)\n        /* \"smart-contracts/playground/main/Canvassing.sol\":2139:2170  allParticipants[_walletAddress] */\n      dup1\n      dup4\n      and\n      0x00\n      swap1\n      dup2\n      mstore\n        /* \"smart-contracts/playground/main/Canvassing.sol\":2139:2154  allParticipants */\n      0x02\n        /* \"smart-contracts/playground/main/Canvassing.sol\":2139:2170  allParticipants[_walletAddress] */\n      0x20\n      dup2\n      dup2\n      mstore\n      0x40\n      swap3\n      dup4\n      swap1\n      keccak256\n        /* \"smart-contracts/playground/main/Canvassing.sol\":2132:2170  return allParticipants[_walletAddress] */\n      dup4\n      mload\n      0x0100\n      dup2\n      add\n      dup6\n      mstore\n      dup2\n      sload\n      dup2\n      mstore\n      0x01\n      dup3\n      add\n      sload\n      swap1\n      swap6\n      and\n      swap2\n      dup6\n      add\n      swap2\n      swap1\n      swap2\n      mstore\n      swap1\n      dup2\n      add\n      dup1\n      sload\n        /* \"smart-contracts/playground/main/Canvassing.sol\":2139:2170  allParticipants[_walletAddress] */\n      swap2\n      swap3\n        /* \"smart-contracts/playground/main/Canvassing.sol\":2132:2170  return allParticipants[_walletAddress] */\n      dup5\n      add\n      swap2\n      tag_348\n      swap1\n      tag_244\n      jump\t// in\n    tag_348:\n      dup1\n      0x1f\n      add\n      0x20\n      dup1\n      swap2\n      div\n      mul\n      0x20\n      add\n      mload(0x40)\n      swap1\n      dup2\n      add\n      0x40\n      mstore\n      dup1\n      swap3\n      swap2\n      swap1\n      dup2\n      dup2\n      mstore\n      0x20\n      add\n      dup3\n      dup1\n      sload\n      tag_349\n      swap1\n      tag_244\n      jump\t// in\n    tag_349:\n      dup1\n      iszero\n      tag_350\n      jumpi\n      dup1\n      0x1f\n      lt\n      tag_351\n      jumpi\n      0x0100\n      dup1\n      dup4\n      sload\n      div\n      mul\n      dup4\n      mstore\n      swap2\n      0x20\n      add\n      swap2\n      jump(tag_350)\n    tag_351:\n      dup3\n      add\n      swap2\n      swap1\n      0x00\n      mstore\n      keccak256(0x00, 0x20)\n      swap1\n    tag_352:\n      dup2\n      sload\n      dup2\n      mstore\n      swap1\n      0x01\n      add\n      swap1\n      0x20\n      add\n      dup1\n      dup4\n      gt\n      tag_352\n      jumpi\n      dup3\n      swap1\n      sub\n      0x1f\n      and\n      dup3\n      add\n      swap2\n    tag_350:\n      pop\n      pop\n      pop\n      pop\n      pop\n      dup2\n      mstore\n      0x20\n      add\n      0x03\n      dup3\n      add\n      dup1\n      sload\n      tag_353\n      swap1\n      tag_244\n      jump\t// in\n    tag_353:\n      dup1\n      0x1f\n      add\n      0x20\n      dup1\n      swap2\n      div\n      mul\n      0x20\n      add\n      mload(0x40)\n      swap1\n      dup2\n      add\n      0x40\n      mstore\n      dup1\n      swap3\n      swap2\n      swap1\n      dup2\n      dup2\n      mstore\n      0x20\n      add\n      dup3\n      dup1\n      sload\n      tag_354\n      swap1\n      tag_244\n      jump\t// in\n    tag_354:\n      dup1\n      iszero\n      tag_355\n      jumpi\n      dup1\n      0x1f\n      lt\n      tag_356\n      jumpi\n      0x0100\n      dup1\n      dup4\n      sload\n      div\n      mul\n      dup4\n      mstore\n      swap2\n      0x20\n      add\n      swap2\n      jump(tag_355)\n    tag_356:\n      dup3\n      add\n      swap2\n      swap1\n      0x00\n      mstore\n      keccak256(0x00, 0x20)\n      swap1\n    tag_357:\n      dup2\n      sload\n      dup2\n      mstore\n      swap1\n      0x01\n      add\n      swap1\n      0x20\n      add\n      dup1\n      dup4\n      gt\n      tag_357\n      jumpi\n      dup3\n      swap1\n      sub\n      0x1f\n      and\n      dup3\n      add\n      swap2\n    tag_355:\n      pop\n      pop\n      pop\n      swap2\n      dup4\n      mstore\n      pop\n      pop\n      0x04\n      dup3\n      add\n      sload\n      0x20\n      dup3\n      add\n      mstore\n      0x05\n      dup3\n      add\n      sload\n      0x40\n      dup3\n      add\n      mstore\n      0x06\n      swap1\n      swap2\n      add\n      sload\n      0xff\n      dup1\n      dup3\n      and\n      iszero\n      iszero\n      0x60\n      dup5\n      add\n      mstore\n      0x0100\n      swap1\n      swap2\n      div\n      and\n      iszero\n      iszero\n      0x80\n      swap1\n      swap2\n      add\n      mstore\n      swap3\n        /* \"smart-contracts/playground/main/Canvassing.sol\":1990:2177  function getParticipantByWalletAddress(address _walletAddress)... */\n      swap2\n      pop\n      pop\n      jump\t// out\n        /* \"smart-contracts/playground/main/Canvassing.sol\":5309:6237  function getTotalAmountOfEarningsReceivedByParticipantInWei(... */\n    tag_98:\n      sub(shl(0xa0, 0x01), 0x01)\n        /* \"smart-contracts/playground/main/Canvassing.sol\":5496:5549  allParticipants[... */\n      dup2\n      and\n        /* \"smart-contracts/playground/main/Canvassing.sol\":5428:5435  uint256 */\n      0x00\n        /* \"smart-contracts/playground/main/Canvassing.sol\":5496:5549  allParticipants[... */\n      swap1\n      dup2\n      mstore\n        /* \"smart-contracts/playground/main/Canvassing.sol\":5496:5511  allParticipants */\n      0x02\n        /* \"smart-contracts/playground/main/Canvassing.sol\":5496:5549  allParticipants[... */\n      0x20\n      mstore\n      0x40\n      dup2\n      keccak256\n        /* \"smart-contracts/playground/main/Canvassing.sol\":5496:5575  allParticipants[... */\n      0x05\n      add\n      sload\n        /* \"smart-contracts/playground/main/Canvassing.sol\":5428:5435  uint256 */\n      dup2\n        /* \"smart-contracts/playground/main/Canvassing.sol\":5496:5575  allParticipants[... */\n      dup2\n      sub(shl(0x40, 0x01), 0x01)\n        /* \"smart-contracts/playground/main/Canvassing.sol\":5634:5709  new Earning[](... */\n      dup2\n      gt\n      iszero\n      tag_360\n      jumpi\n      tag_360\n      tag_252\n      jump\t// in\n    tag_360:\n      mload(0x40)\n      swap1\n      dup1\n      dup3\n      mstore\n      dup1\n      0x20\n      mul\n      0x20\n      add\n      dup3\n      add\n      0x40\n      mstore\n      dup1\n      iszero\n      tag_361\n      jumpi\n      dup2\n      0x20\n      add\n    tag_362:\n      tag_363\n      tag_364\n      jump\t// in\n    tag_363:\n      dup2\n      mstore\n      0x20\n      add\n      swap1\n      0x01\n      swap1\n      sub\n      swap1\n      dup2\n      tag_362\n      jumpi\n      swap1\n      pop\n    tag_361:\n      pop\n        /* \"smart-contracts/playground/main/Canvassing.sol\":5586:5709  Earning[] memory allEarningsMadeByParticipant = new Earning[](... */\n      swap1\n      pop\n        /* \"smart-contracts/playground/main/Canvassing.sol\":5720:5775  uint256 totalAmountOfEarningsReceivedByParticipantInWei */\n      0x00\n        /* \"smart-contracts/playground/main/Canvassing.sol\":5808:5825  uint256 earningId */\n      dup1\n        /* \"smart-contracts/playground/main/Canvassing.sol\":5790:6167  for (... */\n    tag_365:\n        /* \"smart-contracts/playground/main/Canvassing.sol\":5855:5883  allEarningsMadeByParticipant */\n      dup3\n        /* \"smart-contracts/playground/main/Canvassing.sol\":5855:5890  allEarningsMadeByParticipant.length */\n      mload\n        /* \"smart-contracts/playground/main/Canvassing.sol\":5843:5852  earningId */\n      dup2\n        /* \"smart-contracts/playground/main/Canvassing.sol\":5843:5890  earningId < allEarningsMadeByParticipant.length */\n      lt\n        /* \"smart-contracts/playground/main/Canvassing.sol\":5790:6167  for (... */\n      iszero\n      tag_366\n      jumpi\n        /* \"smart-contracts/playground/main/Canvassing.sol\":5940:5969  Earning memory runningEarning */\n      0x00\n        /* \"smart-contracts/playground/main/Canvassing.sol\":5972:6000  allEarningsMadeByParticipant */\n      dup4\n        /* \"smart-contracts/playground/main/Canvassing.sol\":6018:6027  earningId */\n      dup3\n        /* \"smart-contracts/playground/main/Canvassing.sol\":5972:6041  allEarningsMadeByParticipant[... */\n      dup2\n      mload\n      dup2\n      lt\n      tag_369\n      jumpi\n      tag_369\n      tag_262\n      jump\t// in\n    tag_369:\n      0x20\n      mul\n      0x20\n      add\n      add\n      mload\n        /* \"smart-contracts/playground/main/Canvassing.sol\":5940:6041  Earning memory runningEarning = allEarningsMadeByParticipant[... */\n      swap1\n      pop\n        /* \"smart-contracts/playground/main/Canvassing.sol\":6106:6120  runningEarning */\n      dup1\n        /* \"smart-contracts/playground/main/Canvassing.sol\":6106:6156  runningEarning... */\n      0x60\n      add\n      mload\n        /* \"smart-contracts/playground/main/Canvassing.sol\":6055:6156  totalAmountOfEarningsReceivedByParticipantInWei += runningEarning... */\n      dup4\n      tag_370\n      swap2\n      swap1\n      tag_225\n      jump\t// in\n    tag_370:\n      swap3\n      pop\n        /* \"smart-contracts/playground/main/Canvassing.sol\":5926:6167  {... */\n      pop\n        /* \"smart-contracts/playground/main/Canvassing.sol\":5904:5915  earningId++ */\n      dup1\n      dup1\n      tag_371\n      swap1\n      tag_273\n      jump\t// in\n    tag_371:\n      swap2\n      pop\n      pop\n        /* \"smart-contracts/playground/main/Canvassing.sol\":5790:6167  for (... */\n      jump(tag_365)\n    tag_366:\n      pop\n        /* \"smart-contracts/playground/main/Canvassing.sol\":6183:6230  totalAmountOfEarningsReceivedByParticipantInWei */\n      swap5\n        /* \"smart-contracts/playground/main/Canvassing.sol\":5309:6237  function getTotalAmountOfEarningsReceivedByParticipantInWei(... */\n      swap4\n      pop\n      pop\n      pop\n      pop\n      jump\t// out\n        /* \"smart-contracts/playground/main/Canvassing.sol\":3190:4191  function getAllEarningsMadeByParticipant(address _walletAddress)... */\n    tag_102:\n      sub(shl(0xa0, 0x01), 0x01)\n        /* \"smart-contracts/playground/main/Canvassing.sol\":3381:3434  allParticipants[... */\n      dup2\n      and\n        /* \"smart-contracts/playground/main/Canvassing.sol\":3332:3378  uint256 totalNumberOfSurveysTakenByParticipant */\n      0x00\n        /* \"smart-contracts/playground/main/Canvassing.sol\":3381:3434  allParticipants[... */\n      swap1\n      dup2\n      mstore\n        /* \"smart-contracts/playground/main/Canvassing.sol\":3381:3396  allParticipants */\n      0x02\n        /* \"smart-contracts/playground/main/Canvassing.sol\":3381:3434  allParticipants[... */\n      0x20\n      mstore\n      0x40\n      dup2\n      keccak256\n        /* \"smart-contracts/playground/main/Canvassing.sol\":3381:3460  allParticipants[... */\n      0x05\n      add\n      sload\n        /* \"smart-contracts/playground/main/Canvassing.sol\":3300:3316  Earning[] memory */\n      0x60\n      swap2\n        /* \"smart-contracts/playground/main/Canvassing.sol\":3381:3460  allParticipants[... */\n      dup2\n      sub(shl(0x40, 0x01), 0x01)\n        /* \"smart-contracts/playground/main/Canvassing.sol\":3519:3594  new Earning[](... */\n      dup2\n      gt\n      iszero\n      tag_374\n      jumpi\n      tag_374\n      tag_252\n      jump\t// in\n    tag_374:\n      mload(0x40)\n      swap1\n      dup1\n      dup3\n      mstore\n      dup1\n      0x20\n      mul\n      0x20\n      add\n      dup3\n      add\n      0x40\n      mstore\n      dup1\n      iszero\n      tag_375\n      jumpi\n      dup2\n      0x20\n      add\n    tag_376:\n      tag_377\n      tag_364\n      jump\t// in\n    tag_377:\n      dup2\n      mstore\n      0x20\n      add\n      swap1\n      0x01\n      swap1\n      sub\n      swap1\n      dup2\n      tag_376\n      jumpi\n      swap1\n      pop\n    tag_375:\n      pop\n        /* \"smart-contracts/playground/main/Canvassing.sol\":3471:3594  Earning[] memory allEarningsMadeByParticipant = new Earning[](... */\n      swap1\n      pop\n        /* \"smart-contracts/playground/main/Canvassing.sol\":3604:3624  uint256 earningIndex */\n      0x00\n        /* \"smart-contracts/playground/main/Canvassing.sol\":3657:3674  uint256 earningId */\n      dup1\n        /* \"smart-contracts/playground/main/Canvassing.sol\":3639:4139  for (... */\n    tag_378:\n        /* \"smart-contracts/playground/main/Canvassing.sol\":3704:3715  allEarnings */\n      0x0c\n        /* \"smart-contracts/playground/main/Canvassing.sol\":3704:3722  allEarnings.length */\n      sload\n        /* \"smart-contracts/playground/main/Canvassing.sol\":3692:3722  earningId < allEarnings.length */\n      dup2\n      lt\n        /* \"smart-contracts/playground/main/Canvassing.sol\":3639:4139  for (... */\n      iszero\n      tag_258\n      jumpi\n        /* \"smart-contracts/playground/main/Canvassing.sol\":3772:3801  Earning memory runningEarning */\n      0x00\n        /* \"smart-contracts/playground/main/Canvassing.sol\":3804:3815  allEarnings */\n      0x0c\n        /* \"smart-contracts/playground/main/Canvassing.sol\":3816:3825  earningId */\n      dup3\n        /* \"smart-contracts/playground/main/Canvassing.sol\":3804:3826  allEarnings[earningId] */\n      dup2\n      sload\n      dup2\n      lt\n      tag_382\n      jumpi\n      tag_382\n      tag_262\n      jump\t// in\n    tag_382:\n      0x00\n      swap2\n      dup3\n      mstore\n      0x20\n      swap2\n      dup3\n      swap1\n      keccak256\n        /* \"smart-contracts/playground/main/Canvassing.sol\":3772:3826  Earning memory runningEarning = allEarnings[earningId] */\n      0x40\n      dup1\n      mload\n      0xa0\n      dup2\n      add\n      dup3\n      mstore\n        /* \"smart-contracts/playground/main/Canvassing.sol\":3804:3826  allEarnings[earningId] */\n      0x05\n      swap1\n      swap4\n      mul\n      swap1\n      swap2\n      add\n        /* \"smart-contracts/playground/main/Canvassing.sol\":3772:3826  Earning memory runningEarning = allEarnings[earningId] */\n      dup1\n      sload\n      dup4\n      mstore\n      0x01\n      dup2\n      add\n      sload\n      swap4\n      dup4\n      add\n      swap4\n      swap1\n      swap4\n      mstore\n      0x02\n      dup4\n      add\n      sload\n      sub(shl(0xa0, 0x01), 0x01)\n      swap1\n      dup2\n      and\n      swap2\n      dup4\n      add\n      dup3\n      swap1\n      mstore\n      0x03\n      dup5\n      add\n      sload\n      0x60\n      dup5\n      add\n      mstore\n      0x04\n      swap1\n      swap4\n      add\n      sload\n      0xff\n      and\n      iszero\n      iszero\n      0x80\n      dup4\n      add\n      mstore\n      swap1\n      swap3\n      pop\n        /* \"smart-contracts/playground/main/Canvassing.sol\":3845:3891  runningEarning.walletAddress == _walletAddress */\n      swap1\n      dup9\n      and\n      swap1\n      sub\n        /* \"smart-contracts/playground/main/Canvassing.sol\":3841:4017  if (runningEarning.walletAddress == _walletAddress) {... */\n      tag_384\n      jumpi\n        /* \"smart-contracts/playground/main/Canvassing.sol\":3956:3970  runningEarning */\n      dup1\n        /* \"smart-contracts/playground/main/Canvassing.sol\":3911:3939  allEarningsMadeByParticipant */\n      dup5\n        /* \"smart-contracts/playground/main/Canvassing.sol\":3940:3952  earningIndex */\n      dup5\n        /* \"smart-contracts/playground/main/Canvassing.sol\":3911:3953  allEarningsMadeByParticipant[earningIndex] */\n      dup2\n      mload\n      dup2\n      lt\n      tag_386\n      jumpi\n      tag_386\n      tag_262\n      jump\t// in\n    tag_386:\n      0x20\n      mul\n      0x20\n      add\n      add\n        /* \"smart-contracts/playground/main/Canvassing.sol\":3911:3970  allEarningsMadeByParticipant[earningIndex] = runningEarning */\n      dup2\n      swap1\n      mstore\n      pop\n        /* \"smart-contracts/playground/main/Canvassing.sol\":3988:4002  earningIndex++ */\n      dup3\n      dup1\n      tag_387\n      swap1\n      tag_273\n      jump\t// in\n    tag_387:\n      swap4\n      pop\n      pop\n        /* \"smart-contracts/playground/main/Canvassing.sol\":3841:4017  if (runningEarning.walletAddress == _walletAddress) {... */\n    tag_384:\n        /* \"smart-contracts/playground/main/Canvassing.sol\":4051:4089  totalNumberOfSurveysTakenByParticipant */\n      dup5\n        /* \"smart-contracts/playground/main/Canvassing.sol\":4035:4047  earningIndex */\n      dup4\n        /* \"smart-contracts/playground/main/Canvassing.sol\":4035:4089  earningIndex == totalNumberOfSurveysTakenByParticipant */\n      sub\n        /* \"smart-contracts/playground/main/Canvassing.sol\":4031:4129  if (earningIndex == totalNumberOfSurveysTakenByParticipant) {... */\n      tag_388\n      jumpi\n        /* \"smart-contracts/playground/main/Canvassing.sol\":4109:4114  break */\n      pop\n      jump(tag_258)\n        /* \"smart-contracts/playground/main/Canvassing.sol\":4031:4129  if (earningIndex == totalNumberOfSurveysTakenByParticipant) {... */\n    tag_388:\n      pop\n        /* \"smart-contracts/playground/main/Canvassing.sol\":3736:3747  earningId++ */\n      dup1\n      tag_389\n      dup2\n      tag_273\n      jump\t// in\n    tag_389:\n      swap2\n      pop\n      pop\n        /* \"smart-contracts/playground/main/Canvassing.sol\":3639:4139  for (... */\n      jump(tag_378)\n        /* \"smart-contracts/playground/main/Canvassing.sol\":4197:5303  function getAllSurveysTakenByParticipant(address _walletAddress)... */\n    tag_107:\n        /* \"smart-contracts/playground/main/Canvassing.sol\":4307:4322  Survey[] memory */\n      0x60\n        /* \"smart-contracts/playground/main/Canvassing.sol\":4433:4490  Earning[]... */\n      0x00\n        /* \"smart-contracts/playground/main/Canvassing.sol\":4493:4570  getAllEarningsMadeByParticipant(... */\n      tag_391\n        /* \"smart-contracts/playground/main/Canvassing.sol\":4542:4556  _walletAddress */\n      dup4\n        /* \"smart-contracts/playground/main/Canvassing.sol\":4493:4524  getAllEarningsMadeByParticipant */\n      tag_102\n        /* \"smart-contracts/playground/main/Canvassing.sol\":4493:4570  getAllEarningsMadeByParticipant(... */\n      jump\t// in\n    tag_391:\n        /* \"smart-contracts/playground/main/Canvassing.sol\":4433:4570  Earning[]... */\n      swap1\n      pop\n        /* \"smart-contracts/playground/main/Canvassing.sol\":4581:4625  Survey[] memory allSurveysTakenByParticipant */\n      0x00\n        /* \"smart-contracts/playground/main/Canvassing.sol\":4654:4682  allEarningsMadeByParticipant */\n      dup2\n        /* \"smart-contracts/playground/main/Canvassing.sol\":4654:4689  allEarningsMadeByParticipant.length */\n      mload\n      sub(shl(0x40, 0x01), 0x01)\n        /* \"smart-contracts/playground/main/Canvassing.sol\":4628:4699  new Survey[](... */\n      dup2\n      gt\n      iszero\n      tag_393\n      jumpi\n      tag_393\n      tag_252\n      jump\t// in\n    tag_393:\n      mload(0x40)\n      swap1\n      dup1\n      dup3\n      mstore\n      dup1\n      0x20\n      mul\n      0x20\n      add\n      dup3\n      add\n      0x40\n      mstore\n      dup1\n      iszero\n      tag_394\n      jumpi\n      dup2\n      0x20\n      add\n    tag_395:\n      tag_396\n      tag_256\n      jump\t// in\n    tag_396:\n      dup2\n      mstore\n      0x20\n      add\n      swap1\n      0x01\n      swap1\n      sub\n      swap1\n      dup2\n      tag_395\n      jumpi\n      swap1\n      pop\n    tag_394:\n      pop\n        /* \"smart-contracts/playground/main/Canvassing.sol\":4581:4699  Survey[] memory allSurveysTakenByParticipant = new Survey[](... */\n      swap1\n      pop\n        /* \"smart-contracts/playground/main/Canvassing.sol\":4709:4728  uint256 surveyIndex */\n      0x00\n        /* \"smart-contracts/playground/main/Canvassing.sol\":4856:4873  uint256 earningId */\n      dup1\n        /* \"smart-contracts/playground/main/Canvassing.sol\":4838:5251  for (... */\n    tag_397:\n        /* \"smart-contracts/playground/main/Canvassing.sol\":4903:4931  allEarningsMadeByParticipant */\n      dup4\n        /* \"smart-contracts/playground/main/Canvassing.sol\":4903:4938  allEarningsMadeByParticipant.length */\n      mload\n        /* \"smart-contracts/playground/main/Canvassing.sol\":4891:4900  earningId */\n      dup2\n        /* \"smart-contracts/playground/main/Canvassing.sol\":4891:4938  earningId < allEarningsMadeByParticipant.length */\n      lt\n        /* \"smart-contracts/playground/main/Canvassing.sol\":4838:5251  for (... */\n      iszero\n      tag_258\n      jumpi\n        /* \"smart-contracts/playground/main/Canvassing.sol\":4988:5017  Earning memory runningEarning */\n      0x00\n        /* \"smart-contracts/playground/main/Canvassing.sol\":5020:5048  allEarningsMadeByParticipant */\n      dup5\n        /* \"smart-contracts/playground/main/Canvassing.sol\":5066:5075  earningId */\n      dup3\n        /* \"smart-contracts/playground/main/Canvassing.sol\":5020:5089  allEarningsMadeByParticipant[... */\n      dup2\n      mload\n      dup2\n      lt\n      tag_401\n      jumpi\n      tag_401\n      tag_262\n      jump\t// in\n    tag_401:\n      0x20\n      mul\n      0x20\n      add\n      add\n      mload\n        /* \"smart-contracts/playground/main/Canvassing.sol\":4988:5089  Earning memory runningEarning = allEarningsMadeByParticipant[... */\n      swap1\n      pop\n        /* \"smart-contracts/playground/main/Canvassing.sol\":5148:5158  allSurveys */\n      0x03\n        /* \"smart-contracts/playground/main/Canvassing.sol\":5176:5190  runningEarning */\n      dup2\n        /* \"smart-contracts/playground/main/Canvassing.sol\":5176:5199  runningEarning.surveyId */\n      0x20\n      add\n      mload\n        /* \"smart-contracts/playground/main/Canvassing.sol\":5148:5213  allSurveys[... */\n      dup2\n      sload\n      dup2\n      lt\n      tag_403\n      jumpi\n      tag_403\n      tag_262\n      jump\t// in\n    tag_403:\n      swap1\n      0x00\n      mstore\n      keccak256(0x00, 0x20)\n      swap1\n      0x07\n      mul\n      add\n        /* \"smart-contracts/playground/main/Canvassing.sol\":5104:5213  allSurveysTakenByParticipant[surveyIndex] = allSurveys[... */\n      mload(0x40)\n      dup1\n      0xe0\n      add\n      0x40\n      mstore\n      swap1\n      dup2\n      0x00\n      dup3\n      add\n      sload\n      dup2\n      mstore\n      0x20\n      add\n      0x01\n      dup3\n      add\n      0x00\n      swap1\n      sload\n      swap1\n      0x0100\n      exp\n      swap1\n      div\n      sub(shl(0xa0, 0x01), 0x01)\n      and\n      sub(shl(0xa0, 0x01), 0x01)\n      and\n      sub(shl(0xa0, 0x01), 0x01)\n      and\n      dup2\n      mstore\n      0x20\n      add\n      0x02\n      dup3\n      add\n      dup1\n      sload\n      tag_405\n      swap1\n      tag_244\n      jump\t// in\n    tag_405:\n      dup1\n      0x1f\n      add\n      0x20\n      dup1\n      swap2\n      div\n      mul\n      0x20\n      add\n      mload(0x40)\n      swap1\n      dup2\n      add\n      0x40\n      mstore\n      dup1\n      swap3\n      swap2\n      swap1\n      dup2\n      dup2\n      mstore\n      0x20\n      add\n      dup3\n      dup1\n      sload\n      tag_406\n      swap1\n      tag_244\n      jump\t// in\n    tag_406:\n      dup1\n      iszero\n      tag_407\n      jumpi\n      dup1\n      0x1f\n      lt\n      tag_408\n      jumpi\n      0x0100\n      dup1\n      dup4\n      sload\n      div\n      mul\n      dup4\n      mstore\n      swap2\n      0x20\n      add\n      swap2\n      jump(tag_407)\n    tag_408:\n      dup3\n      add\n      swap2\n      swap1\n      0x00\n      mstore\n      keccak256(0x00, 0x20)\n      swap1\n    tag_409:\n      dup2\n      sload\n      dup2\n      mstore\n      swap1\n      0x01\n      add\n      swap1\n      0x20\n      add\n      dup1\n      dup4\n      gt\n      tag_409\n      jumpi\n      dup3\n      swap1\n      sub\n      0x1f\n      and\n      dup3\n      add\n      swap2\n    tag_407:\n      pop\n      pop\n      pop\n      swap2\n      dup4\n      mstore\n      pop\n      pop\n      0x03\n      dup3\n      add\n      sload\n      0x20\n      dup3\n      add\n      mstore\n      0x04\n      dup3\n      add\n      sload\n      0x40\n      dup3\n      add\n      mstore\n      0x05\n      dup3\n      add\n      sload\n      0x60\n      dup3\n      add\n      mstore\n      0x06\n      swap1\n      swap2\n      add\n      sload\n      0xff\n      and\n      iszero\n      iszero\n      0x80\n      swap1\n      swap2\n      add\n      mstore\n        /* \"smart-contracts/playground/main/Canvassing.sol\":5104:5145  allSurveysTakenByParticipant[surveyIndex] */\n      dup5\n      mload\n        /* \"smart-contracts/playground/main/Canvassing.sol\":5104:5132  allSurveysTakenByParticipant */\n      dup6\n      swap1\n        /* \"smart-contracts/playground/main/Canvassing.sol\":5133:5144  surveyIndex */\n      dup6\n      swap1\n        /* \"smart-contracts/playground/main/Canvassing.sol\":5104:5145  allSurveysTakenByParticipant[surveyIndex] */\n      dup2\n      lt\n      tag_411\n      jumpi\n      tag_411\n      tag_262\n      jump\t// in\n    tag_411:\n      0x20\n      mul\n      0x20\n      add\n      add\n        /* \"smart-contracts/playground/main/Canvassing.sol\":5104:5213  allSurveysTakenByParticipant[surveyIndex] = allSurveys[... */\n      dup2\n      swap1\n      mstore\n      pop\n        /* \"smart-contracts/playground/main/Canvassing.sol\":5227:5240  surveyIndex++ */\n      dup3\n      dup1\n      tag_412\n      swap1\n      tag_273\n      jump\t// in\n    tag_412:\n      swap4\n      pop\n      pop\n        /* \"smart-contracts/playground/main/Canvassing.sol\":4974:5251  {... */\n      pop\n        /* \"smart-contracts/playground/main/Canvassing.sol\":4952:4963  earningId++ */\n      dup1\n      dup1\n      tag_413\n      swap1\n      tag_273\n      jump\t// in\n    tag_413:\n      swap2\n      pop\n      pop\n        /* \"smart-contracts/playground/main/Canvassing.sol\":4838:5251  for (... */\n      jump(tag_397)\n        /* \"smart-contracts/playground/main/Canvassing.sol\":2183:2924  function createParticipant(... */\n    tag_112:\n        /* \"smart-contracts/playground/main/Canvassing.sol\":2385:2405  currentParticipantId */\n      sload(0x0e)\n        /* \"smart-contracts/playground/main/Canvassing.sol\":2416:2449  Participant memory newParticipant */\n      tag_415\n      tag_346\n      jump\t// in\n    tag_415:\n        /* \"smart-contracts/playground/main/Canvassing.sol\":2460:2496  newParticipant.id = newParticipantId */\n      dup2\n      dup2\n      mstore\n      sub(shl(0xa0, 0x01), 0x01)\n        /* \"smart-contracts/playground/main/Canvassing.sol\":2506:2551  newParticipant.walletAddress = _walletAddress */\n      dup7\n      dup2\n      and\n        /* \"smart-contracts/playground/main/Canvassing.sol\":2506:2534  newParticipant.walletAddress */\n      0x20\n      dup1\n      dup5\n      add\n        /* \"smart-contracts/playground/main/Canvassing.sol\":2506:2551  newParticipant.walletAddress = _walletAddress */\n      dup3\n      dup2\n      mstore\n        /* \"smart-contracts/playground/main/Canvassing.sol\":2561:2582  newParticipant.gender */\n      0x40\n      dup1\n      dup7\n      add\n        /* \"smart-contracts/playground/main/Canvassing.sol\":2561:2592  newParticipant.gender = _gender */\n      dup11\n      dup2\n      mstore\n        /* \"smart-contracts/playground/main/Canvassing.sol\":2602:2624  newParticipant.country */\n      0x60\n      dup8\n      add\n        /* \"smart-contracts/playground/main/Canvassing.sol\":2602:2635  newParticipant.country = _country */\n      dup11\n      swap1\n      mstore\n        /* \"smart-contracts/playground/main/Canvassing.sol\":2645:2671  newParticipant.yearOfBirth */\n      0x80\n      dup8\n      add\n        /* \"smart-contracts/playground/main/Canvassing.sol\":2645:2686  newParticipant.yearOfBirth = _yearOfBirth */\n      dup10\n      swap1\n      mstore\n      0x00\n        /* \"smart-contracts/playground/main/Canvassing.sol\":2696:2736  newParticipant.totalNumberOfSurveysTaken */\n      0xa0\n      dup9\n      add\n        /* \"smart-contracts/playground/main/Canvassing.sol\":2696:2740  newParticipant.totalNumberOfSurveysTaken = 0 */\n      dup2\n      swap1\n      mstore\n        /* \"smart-contracts/playground/main/Canvassing.sol\":2750:2777  newParticipant.isResearcher */\n      0xc0\n      dup9\n      add\n        /* \"smart-contracts/playground/main/Canvassing.sol\":2750:2785  newParticipant.isResearcher = false */\n      dup2\n      swap1\n      mstore\n        /* \"smart-contracts/playground/main/Canvassing.sol\":2795:2817  newParticipant.isBlank */\n      0xe0\n      dup9\n      add\n        /* \"smart-contracts/playground/main/Canvassing.sol\":2795:2825  newParticipant.isBlank = false */\n      dup2\n      swap1\n      mstore\n        /* \"smart-contracts/playground/main/Canvassing.sol\":2836:2867  allParticipants[_walletAddress] */\n      swap5\n      dup6\n      mstore\n        /* \"smart-contracts/playground/main/Canvassing.sol\":2836:2851  allParticipants */\n      0x02\n        /* \"smart-contracts/playground/main/Canvassing.sol\":2836:2867  allParticipants[_walletAddress] */\n      swap4\n      dup5\n      swap1\n      mstore\n      swap4\n      keccak256\n        /* \"smart-contracts/playground/main/Canvassing.sol\":2836:2884  allParticipants[_walletAddress] = newParticipant */\n      dup6\n      mload\n      dup2\n      sstore\n      swap1\n      mload\n        /* \"smart-contracts/playground/main/Canvassing.sol\":2750:2785  newParticipant.isResearcher = false */\n      0x01\n        /* \"smart-contracts/playground/main/Canvassing.sol\":2836:2884  allParticipants[_walletAddress] = newParticipant */\n      dup3\n      add\n      dup1\n      sload\n      not(sub(shl(0xa0, 0x01), 0x01))\n      and\n      swap2\n      swap1\n      swap6\n      and\n      or\n      swap1\n      swap4\n      sstore\n      swap1\n      mload\n        /* \"smart-contracts/playground/main/Canvassing.sol\":2460:2496  newParticipant.id = newParticipantId */\n      dup4\n      swap3\n        /* \"smart-contracts/playground/main/Canvassing.sol\":2836:2867  allParticipants[_walletAddress] */\n      swap2\n        /* \"smart-contracts/playground/main/Canvassing.sol\":2836:2884  allParticipants[_walletAddress] = newParticipant */\n      dup3\n      add\n      swap1\n      tag_416\n      swap1\n      dup3\n      tag_417\n      jump\t// in\n    tag_416:\n      pop\n      0x60\n      dup3\n      add\n      mload\n      0x03\n      dup3\n      add\n      swap1\n      tag_418\n      swap1\n      dup3\n      tag_417\n      jump\t// in\n    tag_418:\n      pop\n      0x80\n      dup3\n      add\n      mload\n      0x04\n      dup3\n      add\n      sstore\n      0xa0\n      dup3\n      add\n      mload\n      0x05\n      dup3\n      add\n      sstore\n      0xc0\n      dup3\n      add\n      mload\n      0x06\n      swap1\n      swap2\n      add\n      dup1\n      sload\n      0xe0\n      swap1\n      swap4\n      add\n      mload\n      iszero\n      iszero\n      0x0100\n      mul\n      not(0xff00)\n      swap3\n      iszero\n      iszero\n      swap3\n      swap1\n      swap3\n      and\n      not(0xffff)\n      swap1\n      swap4\n      and\n      swap3\n      swap1\n      swap3\n      or\n      or\n      swap1\n      sstore\n        /* \"smart-contracts/playground/main/Canvassing.sol\":2895:2915  currentParticipantId */\n      0x0e\n        /* \"smart-contracts/playground/main/Canvassing.sol\":2895:2917  currentParticipantId++ */\n      dup1\n      sload\n      swap1\n      0x00\n      tag_419\n      dup4\n      tag_273\n      jump\t// in\n    tag_419:\n      swap2\n      swap1\n      pop\n      sstore\n      pop\n        /* \"smart-contracts/playground/main/Canvassing.sol\":2348:2924  {... */\n      pop\n      pop\n        /* \"smart-contracts/playground/main/Canvassing.sol\":2183:2924  function createParticipant(... */\n      pop\n      pop\n      pop\n      pop\n      jump\t// out\n        /* \"smart-contracts/playground/main/Canvassing.sol\":9400:9907  function getAmountOfEarningForCanvassingForSurveyPerParticipantInWei(... */\n    tag_119:\n        /* \"smart-contracts/playground/main/Canvassing.sol\":9562:9569  uint256 */\n      0x00\n        /* \"smart-contracts/playground/main/Canvassing.sol\":9581:9608  Survey memory currentSurvey */\n      dup1\n        /* \"smart-contracts/playground/main/Canvassing.sol\":9611:9621  allSurveys */\n      0x03\n        /* \"smart-contracts/playground/main/Canvassing.sol\":9622:9631  _surveyId */\n      dup5\n        /* \"smart-contracts/playground/main/Canvassing.sol\":9611:9632  allSurveys[_surveyId] */\n      dup2\n      sload\n      dup2\n      lt\n      tag_423\n      jumpi\n      tag_423\n      tag_262\n      jump\t// in\n    tag_423:\n      swap1\n      0x00\n      mstore\n      keccak256(0x00, 0x20)\n      swap1\n      0x07\n      mul\n      add\n        /* \"smart-contracts/playground/main/Canvassing.sol\":9581:9632  Survey memory currentSurvey = allSurveys[_surveyId] */\n      mload(0x40)\n      dup1\n      0xe0\n      add\n      0x40\n      mstore\n      swap1\n      dup2\n      0x00\n      dup3\n      add\n      sload\n      dup2\n      mstore\n      0x20\n      add\n      0x01\n      dup3\n      add\n      0x00\n      swap1\n      sload\n      swap1\n      0x0100\n      exp\n      swap1\n      div\n      sub(shl(0xa0, 0x01), 0x01)\n      and\n      sub(shl(0xa0, 0x01), 0x01)\n      and\n      sub(shl(0xa0, 0x01), 0x01)\n      and\n      dup2\n      mstore\n      0x20\n      add\n      0x02\n      dup3\n      add\n      dup1\n      sload\n      tag_425\n      swap1\n      tag_244\n      jump\t// in\n    tag_425:\n      dup1\n      0x1f\n      add\n      0x20\n      dup1\n      swap2\n      div\n      mul\n      0x20\n      add\n      mload(0x40)\n      swap1\n      dup2\n      add\n      0x40\n      mstore\n      dup1\n      swap3\n      swap2\n      swap1\n      dup2\n      dup2\n      mstore\n      0x20\n      add\n      dup3\n      dup1\n      sload\n      tag_426\n      swap1\n      tag_244\n      jump\t// in\n    tag_426:\n      dup1\n      iszero\n      tag_427\n      jumpi\n      dup1\n      0x1f\n      lt\n      tag_428\n      jumpi\n      0x0100\n      dup1\n      dup4\n      sload\n      div\n      mul\n      dup4\n      mstore\n      swap2\n      0x20\n      add\n      swap2\n      jump(tag_427)\n    tag_428:\n      dup3\n      add\n      swap2\n      swap1\n      0x00\n      mstore\n      keccak256(0x00, 0x20)\n      swap1\n    tag_429:\n      dup2\n      sload\n      dup2\n      mstore\n      swap1\n      0x01\n      add\n      swap1\n      0x20\n      add\n      dup1\n      dup4\n      gt\n      tag_429\n      jumpi\n      dup3\n      swap1\n      sub\n      0x1f\n      and\n      dup3\n      add\n      swap2\n    tag_427:\n      pop\n      pop\n      pop\n      swap2\n      dup4\n      mstore\n      pop\n      pop\n      0x03\n      dup3\n      add\n      sload\n      0x20\n      dup3\n      add\n      mstore\n      0x04\n      dup3\n      add\n      sload\n      0x40\n      dup3\n      add\n      mstore\n      0x05\n      dup1\n      dup4\n      add\n      sload\n      0x60\n      dup4\n      add\n      mstore\n      0x06\n      swap1\n      swap3\n      add\n      sload\n      0xff\n      and\n      iszero\n      iszero\n      0x80\n      swap1\n      swap2\n      add\n      mstore\n        /* \"smart-contracts/playground/main/Canvassing.sol\":9670:9701  currentSurvey.amountFundedInWei */\n      0xa0\n      dup3\n      add\n      mload\n        /* \"smart-contracts/playground/main/Canvassing.sol\":9581:9632  Survey memory currentSurvey = allSurveys[_surveyId] */\n      swap2\n      swap3\n      pop\n      0x00\n      swap1\n        /* \"smart-contracts/playground/main/Canvassing.sol\":9802:9823  _numberOfParticipants */\n      dup6\n      swap1\n        /* \"smart-contracts/playground/main/Canvassing.sol\":9796:9798  10 */\n      0x0a\n      swap1\n        /* \"smart-contracts/playground/main/Canvassing.sol\":9759:9780  amountFundedInWei * 5 */\n      tag_430\n      swap1\n        /* \"smart-contracts/playground/main/Canvassing.sol\":9670:9701  currentSurvey.amountFundedInWei */\n      dup6\n      swap1\n        /* \"smart-contracts/playground/main/Canvassing.sol\":9759:9780  amountFundedInWei * 5 */\n      tag_239\n      jump\t// in\n    tag_430:\n        /* \"smart-contracts/playground/main/Canvassing.sol\":9758:9798  (amountFundedInWei * 5) /... */\n      tag_431\n      swap2\n      swap1\n      tag_309\n      jump\t// in\n    tag_431:\n        /* \"smart-contracts/playground/main/Canvassing.sol\":9757:9823  ((amountFundedInWei * 5) /... */\n      tag_432\n      swap2\n      swap1\n      tag_309\n      jump\t// in\n    tag_432:\n        /* \"smart-contracts/playground/main/Canvassing.sol\":9711:9823  uint256 canvassingShareAmountPerParticipant = ((amountFundedInWei * 5) /... */\n      swap1\n      pop\n        /* \"smart-contracts/playground/main/Canvassing.sol\":9884:9888  cUSD */\n      0x14\n      0x00\n      swap1\n      sload\n      swap1\n      0x0100\n      exp\n      swap1\n      div\n      sub(shl(0xa0, 0x01), 0x01)\n      and\n      sub(shl(0xa0, 0x01), 0x01)\n        /* \"smart-contracts/playground/main/Canvassing.sol\":9884:9897  cUSD.decimals */\n      and\n      0x313ce567\n        /* \"smart-contracts/playground/main/Canvassing.sol\":9884:9899  cUSD.decimals() */\n      mload(0x40)\n      dup2\n      0xffffffff\n      and\n      0xe0\n      shl\n      dup2\n      mstore\n      0x04\n      add\n      0x20\n      mload(0x40)\n      dup1\n      dup4\n      sub\n      dup2\n      dup7\n      gas\n      staticcall\n      iszero\n      dup1\n      iszero\n      tag_434\n      jumpi\n      returndatasize\n      0x00\n      dup1\n      returndatacopy\n      revert(0x00, returndatasize)\n    tag_434:\n      pop\n      pop\n      pop\n      pop\n      mload(0x40)\n      returndatasize\n      not(0x1f)\n      0x1f\n      dup3\n      add\n      and\n      dup3\n      add\n      dup1\n      0x40\n      mstore\n      pop\n      dup2\n      add\n      swap1\n      tag_435\n      swap2\n      swap1\n      tag_235\n      jump\t// in\n    tag_435:\n        /* \"smart-contracts/playground/main/Canvassing.sol\":9880:9899  10**cUSD.decimals() */\n      tag_436\n      swap1\n        /* \"smart-contracts/playground/main/Canvassing.sol\":9880:9882  10 */\n      0x0a\n        /* \"smart-contracts/playground/main/Canvassing.sol\":9880:9899  10**cUSD.decimals() */\n      tag_237\n      jump\t// in\n    tag_436:\n        /* \"smart-contracts/playground/main/Canvassing.sol\":9841:9900  canvassingShareAmountPerParticipant * (10**cUSD.decimals()) */\n      tag_437\n      swap1\n        /* \"smart-contracts/playground/main/Canvassing.sol\":9841:9876  canvassingShareAmountPerParticipant */\n      dup3\n        /* \"smart-contracts/playground/main/Canvassing.sol\":9841:9900  canvassingShareAmountPerParticipant * (10**cUSD.decimals()) */\n      tag_239\n      jump\t// in\n    tag_437:\n        /* \"smart-contracts/playground/main/Canvassing.sol\":9834:9900  return canvassingShareAmountPerParticipant * (10**cUSD.decimals()) */\n      swap7\n        /* \"smart-contracts/playground/main/Canvassing.sol\":9400:9907  function getAmountOfEarningForCanvassingForSurveyPerParticipantInWei(... */\n      swap6\n      pop\n      pop\n      pop\n      pop\n      pop\n      pop\n      jump\t// out\n        /* \"smart-contracts/playground/main/Canvassing.sol\":505:559  mapping(address => Participant) public allParticipants */\n    tag_131:\n      0x02\n      0x20\n      dup2\n      swap1\n      mstore\n      0x00\n      swap2\n      dup3\n      mstore\n      0x40\n      swap1\n      swap2\n      keccak256\n      dup1\n      sload\n      0x01\n      dup3\n      add\n      sload\n      swap3\n      dup3\n      add\n      dup1\n      sload\n      swap2\n      swap4\n      sub(shl(0xa0, 0x01), 0x01)\n      and\n      swap3\n      swap2\n      tag_278\n      swap1\n      tag_244\n      jump\t// in\n        /* \"smart-contracts/playground/main/Canvassing.sol\":17202:19066  function createSurvey(... */\n    tag_140:\n        /* \"smart-contracts/playground/main/Canvassing.sol\":17506:17521  currentSurveyId */\n      sload(0x0f)\n        /* \"smart-contracts/playground/main/Canvassing.sol\":17565:17588  Survey memory newSurvey */\n      tag_450\n      tag_256\n      jump\t// in\n    tag_450:\n        /* \"smart-contracts/playground/main/Canvassing.sol\":17598:17624  newSurvey.id = newSurveyId */\n      dup2\n      dup2\n      mstore\n      sub(shl(0xa0, 0x01), 0x01)\n        /* \"smart-contracts/playground/main/Canvassing.sol\":17634:17702  newSurvey.creatingResearcherWalletAddress = _researcherWalletAddress */\n      dup9\n      dup2\n      and\n        /* \"smart-contracts/playground/main/Canvassing.sol\":17634:17675  newSurvey.creatingResearcherWalletAddress */\n      0x20\n      dup4\n      add\n        /* \"smart-contracts/playground/main/Canvassing.sol\":17634:17702  newSurvey.creatingResearcherWalletAddress = _researcherWalletAddress */\n      swap1\n      dup2\n      mstore\n        /* \"smart-contracts/playground/main/Canvassing.sol\":17712:17727  newSurvey.topic */\n      0x40\n      dup4\n      add\n        /* \"smart-contracts/playground/main/Canvassing.sol\":17712:17736  newSurvey.topic = _topic */\n      dup10\n      dup2\n      mstore\n        /* \"smart-contracts/playground/main/Canvassing.sol\":17746:17773  newSurvey.numberOfQuestions */\n      0x60\n      dup5\n      add\n        /* \"smart-contracts/playground/main/Canvassing.sol\":17746:17794  newSurvey.numberOfQuestions = _numberOfQuestions */\n      dup10\n      swap1\n      mstore\n        /* \"smart-contracts/playground/main/Canvassing.sol\":17804:17840  newSurvey.targetNumberOfParticipants */\n      0x80\n      dup5\n      add\n        /* \"smart-contracts/playground/main/Canvassing.sol\":17804:17870  newSurvey.targetNumberOfParticipants = _targetNumberOfParticipants */\n      dup9\n      swap1\n      mstore\n        /* \"smart-contracts/playground/main/Canvassing.sol\":17880:17907  newSurvey.amountFundedInWei */\n      0xa0\n      dup5\n      add\n        /* \"smart-contracts/playground/main/Canvassing.sol\":17880:17932  newSurvey.amountFundedInWei = _amountFundedForSurvey */\n      dup7\n      swap1\n      mstore\n      0x00\n        /* \"smart-contracts/playground/main/Canvassing.sol\":17942:17959  newSurvey.isBlank */\n      0xc0\n      dup6\n      add\n        /* \"smart-contracts/playground/main/Canvassing.sol\":17942:17967  newSurvey.isBlank = false */\n      dup2\n      swap1\n      mstore\n        /* \"smart-contracts/playground/main/Canvassing.sol\":17977:17987  allSurveys */\n      0x03\n        /* \"smart-contracts/playground/main/Canvassing.sol\":17977:18003  allSurveys.push(newSurvey) */\n      dup1\n      sload\n        /* \"smart-contracts/playground/main/Canvassing.sol\":17942:17967  newSurvey.isBlank = false */\n      0x01\n        /* \"smart-contracts/playground/main/Canvassing.sol\":17977:18003  allSurveys.push(newSurvey) */\n      dup2\n      add\n      dup3\n      sstore\n      swap2\n      mstore\n      dup5\n      mload\n      0xc2575a0e9e593c00f959f8c92f12db2869c3395a3b0502d05e2516446f71f85b\n      0x07\n      swap1\n      swap3\n      mul\n      swap2\n      dup3\n      add\n      swap1\n      dup2\n      sstore\n      swap3\n      mload\n      0xc2575a0e9e593c00f959f8c92f12db2869c3395a3b0502d05e2516446f71f85c\n      dup3\n      add\n      dup1\n      sload\n      not(sub(shl(0xa0, 0x01), 0x01))\n      and\n      swap2\n      swap1\n      swap6\n      and\n      or\n      swap1\n      swap4\n      sstore\n      mload\n        /* \"smart-contracts/playground/main/Canvassing.sol\":17598:17624  newSurvey.id = newSurveyId */\n      dup4\n      swap3\n        /* \"smart-contracts/playground/main/Canvassing.sol\":17977:18003  allSurveys.push(newSurvey) */\n      0xc2575a0e9e593c00f959f8c92f12db2869c3395a3b0502d05e2516446f71f85d\n      add\n      swap1\n      tag_452\n      swap1\n      dup3\n      tag_417\n      jump\t// in\n    tag_452:\n      pop\n      0x60\n      dup3\n      add\n      mload\n      0x03\n      dup3\n      add\n      sstore\n      0x80\n      dup3\n      add\n      mload\n      0x04\n      dup3\n      add\n      sstore\n      0xa0\n      dup3\n      add\n      mload\n      0x05\n      dup3\n      add\n      sstore\n      0xc0\n      swap1\n      swap2\n      add\n      mload\n      0x06\n      swap1\n      swap2\n      add\n      dup1\n      sload\n      not(0xff)\n      and\n      swap2\n      iszero\n      iszero\n      swap2\n      swap1\n      swap2\n      or\n      swap1\n      sstore\n      sub(shl(0xa0, 0x01), 0x01)\n        /* \"smart-contracts/playground/main/Canvassing.sol\":18071:18167  totalNumberOfSurveysCreatedByResearchers[... */\n      dup9\n      and\n      0x00\n      swap1\n      dup2\n      mstore\n        /* \"smart-contracts/playground/main/Canvassing.sol\":18071:18111  totalNumberOfSurveysCreatedByResearchers */\n      0x08\n        /* \"smart-contracts/playground/main/Canvassing.sol\":18071:18167  totalNumberOfSurveysCreatedByResearchers[... */\n      0x20\n      mstore\n      0x40\n      swap1\n      keccak256\n      sload\n      dup1\n        /* \"smart-contracts/playground/main/Canvassing.sol\":18269:18317  currentTotalNumberOfSurveysCreatedByResearcher++ */\n      tag_453\n        /* \"smart-contracts/playground/main/Canvassing.sol\":18071:18167  totalNumberOfSurveysCreatedByResearchers[... */\n      dup2\n        /* \"smart-contracts/playground/main/Canvassing.sol\":18269:18317  currentTotalNumberOfSurveysCreatedByResearcher++ */\n      tag_273\n      jump\t// in\n    tag_453:\n      sub(shl(0xa0, 0x01), 0x01)\n        /* \"smart-contracts/playground/main/Canvassing.sol\":18178:18266  totalNumberOfSurveysCreatedByResearchers[... */\n      dup12\n      and\n      0x00\n      swap1\n      dup2\n      mstore\n        /* \"smart-contracts/playground/main/Canvassing.sol\":18178:18218  totalNumberOfSurveysCreatedByResearchers */\n      0x08\n        /* \"smart-contracts/playground/main/Canvassing.sol\":18178:18266  totalNumberOfSurveysCreatedByResearchers[... */\n      0x20\n      mstore\n      0x40\n      dup2\n      keccak256\n        /* \"smart-contracts/playground/main/Canvassing.sol\":18178:18317  totalNumberOfSurveysCreatedByResearchers[... */\n      swap3\n      swap1\n      swap3\n      sstore\n        /* \"smart-contracts/playground/main/Canvassing.sol\":18269:18317  currentTotalNumberOfSurveysCreatedByResearcher++ */\n      swap2\n      pop\n        /* \"smart-contracts/playground/main/Canvassing.sol\":18391:18982  for (... */\n    tag_454:\n        /* \"smart-contracts/playground/main/Canvassing.sol\":18464:18482  _numberOfQuestions */\n      dup8\n        /* \"smart-contracts/playground/main/Canvassing.sol\":18448:18461  questionIndex */\n      dup2\n        /* \"smart-contracts/playground/main/Canvassing.sol\":18448:18482  questionIndex < _numberOfQuestions */\n      lt\n        /* \"smart-contracts/playground/main/Canvassing.sol\":18391:18982  for (... */\n      iszero\n      tag_455\n      jumpi\n        /* \"smart-contracts/playground/main/Canvassing.sol\":18560:18577  currentQuestionId */\n      sload(0x10)\n      0x40\n      dup1\n      mload\n      0x80\n      dup2\n      add\n      dup3\n      mstore\n      0x00\n      0x20\n      dup3\n      add\n      dup2\n      dup2\n      mstore\n      0x60\n      swap4\n      dup4\n      add\n      dup5\n      swap1\n      mstore\n      swap3\n      dup3\n      add\n      mstore\n        /* \"smart-contracts/playground/main/Canvassing.sol\":18633:18663  newQuestion.id = newQuestionId */\n      dup3\n      dup2\n      mstore\n        /* \"smart-contracts/playground/main/Canvassing.sol\":18700:18712  newSurvey.id */\n      dup6\n      mload\n        /* \"smart-contracts/playground/main/Canvassing.sol\":18677:18712  newQuestion.surveyId = newSurvey.id */\n      swap1\n      swap2\n      mstore\n        /* \"smart-contracts/playground/main/Canvassing.sol\":18749:18782  _questionSentences[questionIndex] */\n      dup8\n      mload\n      dup9\n      swap1\n        /* \"smart-contracts/playground/main/Canvassing.sol\":18768:18781  questionIndex */\n      dup5\n      swap1\n        /* \"smart-contracts/playground/main/Canvassing.sol\":18749:18782  _questionSentences[questionIndex] */\n      dup2\n      lt\n      tag_460\n      jumpi\n      tag_460\n      tag_262\n      jump\t// in\n    tag_460:\n      0x20\n      swap1\n      dup2\n      mul\n      swap2\n      swap1\n      swap2\n      add\n      dup2\n      add\n      mload\n        /* \"smart-contracts/playground/main/Canvassing.sol\":18726:18746  newQuestion.sentence */\n      0x40\n      dup1\n      dup5\n      add\n        /* \"smart-contracts/playground/main/Canvassing.sol\":18726:18782  newQuestion.sentence = _questionSentences[questionIndex] */\n      swap2\n      dup3\n      mstore\n        /* \"smart-contracts/playground/main/Canvassing.sol\":18818:18823  false */\n      0x00\n        /* \"smart-contracts/playground/main/Canvassing.sol\":18796:18815  newQuestion.isBlank */\n      0x60\n      dup6\n      add\n        /* \"smart-contracts/playground/main/Canvassing.sol\":18796:18823  newQuestion.isBlank = false */\n      dup2\n      swap1\n      mstore\n        /* \"smart-contracts/playground/main/Canvassing.sol\":18850:18862  newSurvey.id */\n      dup9\n      mload\n        /* \"smart-contracts/playground/main/Canvassing.sol\":18837:18863  allQuestions[newSurvey.id] */\n      dup2\n      mstore\n        /* \"smart-contracts/playground/main/Canvassing.sol\":18837:18849  allQuestions */\n      0x04\n        /* \"smart-contracts/playground/main/Canvassing.sol\":18837:18863  allQuestions[newSurvey.id] */\n      dup1\n      dup6\n      mstore\n      swap2\n      dup2\n      keccak256\n        /* \"smart-contracts/playground/main/Canvassing.sol\":18837:18881  allQuestions[newSurvey.id].push(newQuestion) */\n      dup1\n      sload\n        /* \"smart-contracts/playground/main/Canvassing.sol\":18796:18823  newQuestion.isBlank = false */\n      0x01\n        /* \"smart-contracts/playground/main/Canvassing.sol\":18837:18881  allQuestions[newSurvey.id].push(newQuestion) */\n      dup2\n      dup2\n      add\n      dup4\n      sstore\n      swap2\n      dup4\n      mstore\n      swap2\n      dup6\n      swap1\n      keccak256\n      dup7\n      mload\n      swap3\n      swap1\n      swap4\n      mul\n      swap1\n      swap3\n      add\n      swap1\n      dup2\n      sstore\n      swap3\n      dup5\n      add\n      mload\n      swap1\n      dup4\n      add\n      sstore\n      mload\n        /* \"smart-contracts/playground/main/Canvassing.sol\":18726:18737  newQuestion */\n      dup3\n      swap2\n        /* \"smart-contracts/playground/main/Canvassing.sol\":18837:18881  allQuestions[newSurvey.id].push(newQuestion) */\n      swap1\n      0x02\n      dup3\n      add\n      swap1\n      tag_462\n      swap1\n      dup3\n      tag_417\n      jump\t// in\n    tag_462:\n      pop\n      0x60\n      swap2\n      swap1\n      swap2\n      add\n      mload\n      0x03\n      swap1\n      swap2\n      add\n      dup1\n      sload\n      not(0xff)\n      and\n      swap2\n      iszero\n      iszero\n      swap2\n      swap1\n      swap2\n      or\n      swap1\n      sstore\n        /* \"smart-contracts/playground/main/Canvassing.sol\":18952:18969  currentQuestionId */\n      0x10\n        /* \"smart-contracts/playground/main/Canvassing.sol\":18952:18971  currentQuestionId++ */\n      dup1\n      sload\n      swap1\n      0x00\n      tag_463\n      dup4\n      tag_273\n      jump\t// in\n    tag_463:\n      swap2\n      swap1\n      pop\n      sstore\n      pop\n        /* \"smart-contracts/playground/main/Canvassing.sol\":18522:18982  {... */\n      pop\n      pop\n        /* \"smart-contracts/playground/main/Canvassing.sol\":18496:18511  questionIndex++ */\n      dup1\n      dup1\n      tag_464\n      swap1\n      tag_273\n      jump\t// in\n    tag_464:\n      swap2\n      pop\n      pop\n        /* \"smart-contracts/playground/main/Canvassing.sol\":18391:18982  for (... */\n      jump(tag_454)\n    tag_455:\n      pop\n        /* \"smart-contracts/playground/main/Canvassing.sol\":19042:19057  currentSurveyId */\n      0x0f\n        /* \"smart-contracts/playground/main/Canvassing.sol\":19042:19059  currentSurveyId++ */\n      dup1\n      sload\n      swap1\n        /* \"smart-contracts/playground/main/Canvassing.sol\":19042:19057  currentSurveyId */\n      0x00\n        /* \"smart-contracts/playground/main/Canvassing.sol\":19042:19059  currentSurveyId++ */\n      tag_465\n      dup4\n      tag_273\n      jump\t// in\n    tag_465:\n      swap2\n      swap1\n      pop\n      sstore\n      pop\n        /* \"smart-contracts/playground/main/Canvassing.sol\":17474:19066  {... */\n      pop\n      pop\n      pop\n        /* \"smart-contracts/playground/main/Canvassing.sol\":17202:19066  function createSurvey(... */\n      pop\n      pop\n      pop\n      pop\n      pop\n      pop\n      jump\t// out\n        /* \"smart-contracts/playground/main/Canvassing.sol\":711:757  mapping(uint256 => Answer[]) public allAnswers */\n    tag_143:\n      mstore(0x20, 0x05)\n      dup2\n      0x00\n      mstore\n      keccak256(0x00, 0x40)\n      dup2\n      dup2\n      sload\n      dup2\n      lt\n      tag_466\n      jumpi\n      0x00\n      dup1\n      revert\n    tag_466:\n      0x00\n      swap2\n      dup3\n      mstore\n      0x20\n      swap1\n      swap2\n      keccak256\n      0x04\n      swap1\n      swap2\n      mul\n      add\n      dup1\n      sload\n      0x01\n      dup3\n      add\n      sload\n      0x02\n      dup4\n      add\n      sload\n      0x03\n      swap1\n      swap4\n      add\n      sload\n      swap2\n      swap5\n      pop\n      swap3\n      pop\n      sub(shl(0xa0, 0x01), 0x01)\n      dup2\n      and\n      swap1\n      0xff\n      shl(0xa0, 0x01)\n      dup3\n      div\n      dup2\n      and\n      swap2\n      shl(0xa8, 0x01)\n      swap1\n      div\n      and\n      dup7\n      jump\t// out\n        /* \"smart-contracts/playground/main/Canvassing.sol\":11147:13167  function makePayoutAndCreateEarning(... */\n    tag_148:\n        /* \"smart-contracts/playground/main/Canvassing.sol\":11276:11303  Survey memory currentSurvey */\n      0x00\n        /* \"smart-contracts/playground/main/Canvassing.sol\":11306:11316  allSurveys */\n      0x03\n        /* \"smart-contracts/playground/main/Canvassing.sol\":11317:11326  _surveyId */\n      dup4\n        /* \"smart-contracts/playground/main/Canvassing.sol\":11306:11327  allSurveys[_surveyId] */\n      dup2\n      sload\n      dup2\n      lt\n      tag_470\n      jumpi\n      tag_470\n      tag_262\n      jump\t// in\n    tag_470:\n      swap1\n      0x00\n      mstore\n      keccak256(0x00, 0x20)\n      swap1\n      0x07\n      mul\n      add\n        /* \"smart-contracts/playground/main/Canvassing.sol\":11276:11327  Survey memory currentSurvey = allSurveys[_surveyId] */\n      mload(0x40)\n      dup1\n      0xe0\n      add\n      0x40\n      mstore\n      swap1\n      dup2\n      0x00\n      dup3\n      add\n      sload\n      dup2\n      mstore\n      0x20\n      add\n      0x01\n      dup3\n      add\n      0x00\n      swap1\n      sload\n      swap1\n      0x0100\n      exp\n      swap1\n      div\n      sub(shl(0xa0, 0x01), 0x01)\n      and\n      sub(shl(0xa0, 0x01), 0x01)\n      and\n      sub(shl(0xa0, 0x01), 0x01)\n      and\n      dup2\n      mstore\n      0x20\n      add\n      0x02\n      dup3\n      add\n      dup1\n      sload\n      tag_472\n      swap1\n      tag_244\n      jump\t// in\n    tag_472:\n      dup1\n      0x1f\n      add\n      0x20\n      dup1\n      swap2\n      div\n      mul\n      0x20\n      add\n      mload(0x40)\n      swap1\n      dup2\n      add\n      0x40\n      mstore\n      dup1\n      swap3\n      swap2\n      swap1\n      dup2\n      dup2\n      mstore\n      0x20\n      add\n      dup3\n      dup1\n      sload\n      tag_473\n      swap1\n      tag_244\n      jump\t// in\n    tag_473:\n      dup1\n      iszero\n      tag_474\n      jumpi\n      dup1\n      0x1f\n      lt\n      tag_475\n      jumpi\n      0x0100\n      dup1\n      dup4\n      sload\n      div\n      mul\n      dup4\n      mstore\n      swap2\n      0x20\n      add\n      swap2\n      jump(tag_474)\n    tag_475:\n      dup3\n      add\n      swap2\n      swap1\n      0x00\n      mstore\n      keccak256(0x00, 0x20)\n      swap1\n    tag_476:\n      dup2\n      sload\n      dup2\n      mstore\n      swap1\n      0x01\n      add\n      swap1\n      0x20\n      add\n      dup1\n      dup4\n      gt\n      tag_476\n      jumpi\n      dup3\n      swap1\n      sub\n      0x1f\n      and\n      dup3\n      add\n      swap2\n    tag_474:\n      pop\n      pop\n      pop\n      swap2\n      dup4\n      mstore\n      pop\n      pop\n      0x03\n      dup3\n      add\n      sload\n      0x20\n      dup3\n      add\n      mstore\n      0x04\n      dup3\n      add\n      sload\n      0x40\n      dup3\n      add\n      mstore\n      0x05\n      dup3\n      add\n      sload\n      0x60\n      dup3\n      add\n      mstore\n      0x06\n      swap1\n      swap2\n      add\n      sload\n      0xff\n      and\n      iszero\n      iszero\n      0x80\n      swap1\n      swap2\n      add\n      mstore\n      swap1\n      pop\n      0x00\n        /* \"smart-contracts/playground/main/Canvassing.sol\":11424:11511  getAmountOfEarningPerParticipantForSurveyInWei(... */\n      tag_477\n        /* \"smart-contracts/playground/main/Canvassing.sol\":11488:11497  _surveyId */\n      dup5\n        /* \"smart-contracts/playground/main/Canvassing.sol\":11424:11470  getAmountOfEarningPerParticipantForSurveyInWei */\n      tag_83\n        /* \"smart-contracts/playground/main/Canvassing.sol\":11424:11511  getAmountOfEarningPerParticipantForSurveyInWei(... */\n      jump\t// in\n    tag_477:\n        /* \"smart-contracts/playground/main/Canvassing.sol\":11543:11547  cUSD */\n      sload(0x14)\n        /* \"smart-contracts/playground/main/Canvassing.sol\":11543:11654  cUSD.transfer(... */\n      mload(0x40)\n      shl(0xe0, 0xa9059cbb)\n      dup2\n      mstore\n      sub(shl(0xa0, 0x01), 0x01)\n        /* \"#utility.yul\":24813:24845   */\n      dup7\n      dup2\n      and\n        /* \"smart-contracts/playground/main/Canvassing.sol\":11543:11654  cUSD.transfer(... */\n      0x04\n      dup4\n      add\n        /* \"#utility.yul\":24795:24846   */\n      mstore\n        /* \"#utility.yul\":24862:24880   */\n      0x24\n      dup3\n      add\n        /* \"#utility.yul\":24855:24889   */\n      dup5\n      swap1\n      mstore\n        /* \"smart-contracts/playground/main/Canvassing.sol\":11378:11511  uint256 amountToBePaidOutToParticipantInWei = getAmountOfEarningPerParticipantForSurveyInWei(... */\n      swap3\n      swap4\n      pop\n        /* \"smart-contracts/playground/main/Canvassing.sol\":11543:11547  cUSD */\n      swap2\n      and\n      swap1\n        /* \"smart-contracts/playground/main/Canvassing.sol\":11543:11556  cUSD.transfer */\n      0xa9059cbb\n      swap1\n        /* \"#utility.yul\":24768:24786   */\n      0x44\n      add\n        /* \"smart-contracts/playground/main/Canvassing.sol\":11543:11654  cUSD.transfer(... */\n      0x20\n      mload(0x40)\n      dup1\n      dup4\n      sub\n      dup2\n      0x00\n      dup8\n      gas\n      call\n      iszero\n      dup1\n      iszero\n      tag_481\n      jumpi\n      returndatasize\n      0x00\n      dup1\n      returndatacopy\n      revert(0x00, returndatasize)\n    tag_481:\n      pop\n      pop\n      pop\n      pop\n      mload(0x40)\n      returndatasize\n      not(0x1f)\n      0x1f\n      dup3\n      add\n      and\n      dup3\n      add\n      dup1\n      0x40\n      mstore\n      pop\n      dup2\n      add\n      swap1\n      tag_482\n      swap2\n      swap1\n      tag_483\n      jump\t// in\n    tag_482:\n      pop\n        /* \"smart-contracts/playground/main/Canvassing.sol\":11725:11767  uint256 amountToBePaidOutToCanvassingInWei */\n      0x00\n        /* \"smart-contracts/playground/main/Canvassing.sol\":11770:11928  getAmountOfEarningForCanvassingForSurveyPerParticipantInWei(... */\n      tag_484\n        /* \"smart-contracts/playground/main/Canvassing.sol\":11847:11856  _surveyId */\n      dup6\n        /* \"smart-contracts/playground/main/Canvassing.sol\":11874:11887  currentSurvey */\n      dup5\n        /* \"smart-contracts/playground/main/Canvassing.sol\":11874:11914  currentSurvey.targetNumberOfParticipants */\n      0x80\n      add\n      mload\n        /* \"smart-contracts/playground/main/Canvassing.sol\":11770:11829  getAmountOfEarningForCanvassingForSurveyPerParticipantInWei */\n      tag_119\n        /* \"smart-contracts/playground/main/Canvassing.sol\":11770:11928  getAmountOfEarningForCanvassingForSurveyPerParticipantInWei(... */\n      jump\t// in\n    tag_484:\n        /* \"smart-contracts/playground/main/Canvassing.sol\":11939:11943  cUSD */\n      sload(0x14)\n      0x00\n        /* \"smart-contracts/playground/main/Canvassing.sol\":11966:11989  canvassingWalletAddress */\n      sload\n        /* \"smart-contracts/playground/main/Canvassing.sol\":11939:12047  cUSD.transfer(... */\n      mload(0x40)\n      shl(0xe0, 0xa9059cbb)\n      dup2\n      mstore\n      sub(shl(0xa0, 0x01), 0x01)\n        /* \"smart-contracts/playground/main/Canvassing.sol\":11966:11989  canvassingWalletAddress */\n      swap2\n      dup3\n      and\n        /* \"smart-contracts/playground/main/Canvassing.sol\":11939:12047  cUSD.transfer(... */\n      0x04\n      dup3\n      add\n        /* \"#utility.yul\":24795:24846   */\n      mstore\n        /* \"#utility.yul\":24862:24880   */\n      0x24\n      dup2\n      add\n        /* \"#utility.yul\":24855:24889   */\n      dup5\n      swap1\n      mstore\n        /* \"smart-contracts/playground/main/Canvassing.sol\":11725:11928  uint256 amountToBePaidOutToCanvassingInWei = getAmountOfEarningForCanvassingForSurveyPerParticipantInWei(... */\n      swap3\n      swap4\n      pop\n        /* \"smart-contracts/playground/main/Canvassing.sol\":11939:11943  cUSD */\n      and\n      swap1\n        /* \"smart-contracts/playground/main/Canvassing.sol\":11939:11952  cUSD.transfer */\n      0xa9059cbb\n      swap1\n        /* \"#utility.yul\":24768:24786   */\n      0x44\n      add\n        /* \"smart-contracts/playground/main/Canvassing.sol\":11939:12047  cUSD.transfer(... */\n      0x20\n      mload(0x40)\n      dup1\n      dup4\n      sub\n      dup2\n      0x00\n      dup8\n      gas\n      call\n      iszero\n      dup1\n      iszero\n      tag_487\n      jumpi\n      returndatasize\n      0x00\n      dup1\n      returndatacopy\n      revert(0x00, returndatasize)\n    tag_487:\n      pop\n      pop\n      pop\n      pop\n      mload(0x40)\n      returndatasize\n      not(0x1f)\n      0x1f\n      dup3\n      add\n      and\n      dup3\n      add\n      dup1\n      0x40\n      mstore\n      pop\n      dup2\n      add\n      swap1\n      tag_488\n      swap2\n      swap1\n      tag_483\n      jump\t// in\n    tag_488:\n      pop\n        /* \"smart-contracts/playground/main/Canvassing.sol\":12108:12144  Earning memory newParticipantEarning */\n      tag_489\n      tag_364\n      jump\t// in\n    tag_489:\n        /* \"smart-contracts/playground/main/Canvassing.sol\":12181:12197  currentEarningId */\n      0x12\n      dup1\n      sload\n        /* \"smart-contracts/playground/main/Canvassing.sol\":12154:12197  newParticipantEarning.id = currentEarningId */\n      dup3\n      mstore\n        /* \"smart-contracts/playground/main/Canvassing.sol\":12207:12237  newParticipantEarning.surveyId */\n      0x20\n      dup3\n      add\n        /* \"smart-contracts/playground/main/Canvassing.sol\":12207:12249  newParticipantEarning.surveyId = _surveyId */\n      dup8\n      dup2\n      mstore\n      sub(shl(0xa0, 0x01), 0x01)\n        /* \"smart-contracts/playground/main/Canvassing.sol\":12259:12322  newParticipantEarning.walletAddress = _participantWalletAddress */\n      dup8\n      dup2\n      and\n        /* \"smart-contracts/playground/main/Canvassing.sol\":12259:12294  newParticipantEarning.walletAddress */\n      0x40\n      dup6\n      add\n        /* \"smart-contracts/playground/main/Canvassing.sol\":12259:12322  newParticipantEarning.walletAddress = _participantWalletAddress */\n      swap1\n      dup2\n      mstore\n        /* \"smart-contracts/playground/main/Canvassing.sol\":12332:12385  newParticipantEarning... */\n      0x60\n      dup6\n      add\n        /* \"smart-contracts/playground/main/Canvassing.sol\":12332:12423  newParticipantEarning... */\n      dup8\n      dup2\n      mstore\n      0x00\n        /* \"smart-contracts/playground/main/Canvassing.sol\":12433:12462  newParticipantEarning.isBlank */\n      0x80\n      dup8\n      add\n        /* \"smart-contracts/playground/main/Canvassing.sol\":12433:12470  newParticipantEarning.isBlank = false */\n      dup2\n      dup2\n      mstore\n        /* \"smart-contracts/playground/main/Canvassing.sol\":12480:12491  allEarnings */\n      0x0c\n        /* \"smart-contracts/playground/main/Canvassing.sol\":12480:12519  allEarnings.push(newParticipantEarning) */\n      dup1\n      sload\n        /* \"smart-contracts/playground/main/Canvassing.sol\":12433:12470  newParticipantEarning.isBlank = false */\n      0x01\n        /* \"smart-contracts/playground/main/Canvassing.sol\":12480:12519  allEarnings.push(newParticipantEarning) */\n      dup2\n      add\n      dup3\n      sstore\n      swap1\n      dup4\n      mstore\n      dup9\n      mload\n      0xdf6966c971051c3d54ec59162606531493a51404a002842f56009d7e5cf4a8c7\n      0x05\n      swap1\n      swap3\n      mul\n      swap2\n      dup3\n      add\n      sstore\n      swap6\n      mload\n      0xdf6966c971051c3d54ec59162606531493a51404a002842f56009d7e5cf4a8c8\n      dup8\n      add\n      sstore\n      swap3\n      mload\n      0xdf6966c971051c3d54ec59162606531493a51404a002842f56009d7e5cf4a8c9\n      dup7\n      add\n      dup1\n      sload\n      not(sub(shl(0xa0, 0x01), 0x01))\n      and\n      swap2\n      swap1\n      swap6\n      and\n      or\n      swap1\n      swap4\n      sstore\n      mload\n      0xdf6966c971051c3d54ec59162606531493a51404a002842f56009d7e5cf4a8ca\n      dup5\n      add\n      sstore\n      mload\n      0xdf6966c971051c3d54ec59162606531493a51404a002842f56009d7e5cf4a8cb\n      swap1\n      swap3\n      add\n      dup1\n      sload\n      not(0xff)\n      and\n      swap3\n      iszero\n      iszero\n      swap3\n      swap1\n      swap3\n      or\n      swap1\n      swap2\n      sstore\n        /* \"smart-contracts/playground/main/Canvassing.sol\":12529:12547  currentEarningId++ */\n      dup2\n      sload\n      swap2\n        /* \"smart-contracts/playground/main/Canvassing.sol\":12181:12197  currentEarningId */\n      swap1\n        /* \"smart-contracts/playground/main/Canvassing.sol\":12529:12547  currentEarningId++ */\n      tag_491\n      dup4\n      tag_273\n      jump\t// in\n    tag_491:\n      swap1\n      swap2\n      sstore\n      pop\n      pop\n        /* \"smart-contracts/playground/main/Canvassing.sol\":12557:12602  payoutStatusOfParticipantForSurvey[_surveyId] */\n      0x00\n      dup7\n      dup2\n      mstore\n        /* \"smart-contracts/playground/main/Canvassing.sol\":12557:12591  payoutStatusOfParticipantForSurvey */\n      0x07\n        /* \"smart-contracts/playground/main/Canvassing.sol\":12557:12602  payoutStatusOfParticipantForSurvey[_surveyId] */\n      0x20\n      swap1\n      dup2\n      mstore\n      0x40\n      dup1\n      dup4\n      keccak256\n      sub(shl(0xa0, 0x01), 0x01)\n        /* \"smart-contracts/playground/main/Canvassing.sol\":12557:12651  payoutStatusOfParticipantForSurvey[_surveyId][... */\n      dup10\n      and\n      dup5\n      mstore\n      swap1\n      swap2\n      mstore\n      swap1\n      keccak256\n        /* \"smart-contracts/playground/main/Canvassing.sol\":12557:12658  payoutStatusOfParticipantForSurvey[_surveyId][... */\n      dup1\n      sload\n      not(0xff)\n      and\n        /* \"smart-contracts/playground/main/Canvassing.sol\":12654:12658  true */\n      0x01\n        /* \"smart-contracts/playground/main/Canvassing.sol\":12557:12658  payoutStatusOfParticipantForSurvey[_surveyId][... */\n      or\n      swap1\n      sstore\n        /* \"smart-contracts/playground/main/Canvassing.sol\":12731:12766  Earning memory newCanvassingEarning */\n      tag_492\n      tag_364\n      jump\t// in\n    tag_492:\n        /* \"smart-contracts/playground/main/Canvassing.sol\":12802:12818  currentEarningId */\n      0x12\n      dup1\n      sload\n        /* \"smart-contracts/playground/main/Canvassing.sol\":12776:12818  newCanvassingEarning.id = currentEarningId */\n      dup3\n      mstore\n        /* \"smart-contracts/playground/main/Canvassing.sol\":12828:12857  newCanvassingEarning.surveyId */\n      0x20\n      dup3\n      add\n        /* \"smart-contracts/playground/main/Canvassing.sol\":12828:12869  newCanvassingEarning.surveyId = _surveyId */\n      dup9\n      dup2\n      mstore\n      0x00\n        /* \"smart-contracts/playground/main/Canvassing.sol\":12916:12939  canvassingWalletAddress */\n      dup1\n      sload\n      sub(shl(0xa0, 0x01), 0x01)\n      swap1\n      dup2\n      and\n        /* \"smart-contracts/playground/main/Canvassing.sol\":12879:12913  newCanvassingEarning.walletAddress */\n      0x40\n      dup7\n      add\n        /* \"smart-contracts/playground/main/Canvassing.sol\":12879:12939  newCanvassingEarning.walletAddress = canvassingWalletAddress */\n      swap1\n      dup2\n      mstore\n        /* \"smart-contracts/playground/main/Canvassing.sol\":12949:13001  newCanvassingEarning... */\n      0x60\n      dup7\n      add\n        /* \"smart-contracts/playground/main/Canvassing.sol\":12949:13038  newCanvassingEarning... */\n      dup9\n      dup2\n      mstore\n        /* \"smart-contracts/playground/main/Canvassing.sol\":13048:13076  newCanvassingEarning.isBlank */\n      0x80\n      dup8\n      add\n        /* \"smart-contracts/playground/main/Canvassing.sol\":13048:13084  newCanvassingEarning.isBlank = false */\n      dup5\n      dup2\n      mstore\n        /* \"smart-contracts/playground/main/Canvassing.sol\":13094:13105  allEarnings */\n      0x0c\n        /* \"smart-contracts/playground/main/Canvassing.sol\":13094:13132  allEarnings.push(newCanvassingEarning) */\n      dup1\n      sload\n        /* \"smart-contracts/playground/main/Canvassing.sol\":12916:12939  canvassingWalletAddress */\n      0x01\n        /* \"smart-contracts/playground/main/Canvassing.sol\":13094:13132  allEarnings.push(newCanvassingEarning) */\n      dup2\n      add\n      dup3\n      sstore\n      swap1\n      dup7\n      mstore\n      dup9\n      mload\n      0xdf6966c971051c3d54ec59162606531493a51404a002842f56009d7e5cf4a8c7\n      0x05\n      swap1\n      swap3\n      mul\n      swap2\n      dup3\n      add\n      sstore\n      swap6\n      mload\n      0xdf6966c971051c3d54ec59162606531493a51404a002842f56009d7e5cf4a8c8\n      dup8\n      add\n      sstore\n      swap2\n      mload\n      0xdf6966c971051c3d54ec59162606531493a51404a002842f56009d7e5cf4a8c9\n      dup7\n      add\n      dup1\n      sload\n      not(sub(shl(0xa0, 0x01), 0x01))\n      and\n      swap2\n      swap1\n      swap5\n      and\n      or\n      swap1\n      swap3\n      sstore\n      swap1\n      mload\n      0xdf6966c971051c3d54ec59162606531493a51404a002842f56009d7e5cf4a8ca\n      dup5\n      add\n      sstore\n      mload\n      0xdf6966c971051c3d54ec59162606531493a51404a002842f56009d7e5cf4a8cb\n      swap1\n      swap3\n      add\n      dup1\n      sload\n      not(0xff)\n      and\n      swap3\n      iszero\n      iszero\n      swap3\n      swap1\n      swap3\n      or\n      swap1\n      swap2\n      sstore\n        /* \"smart-contracts/playground/main/Canvassing.sol\":13142:13160  currentEarningId++ */\n      dup2\n      sload\n      swap2\n        /* \"smart-contracts/playground/main/Canvassing.sol\":12802:12818  currentEarningId */\n      swap1\n        /* \"smart-contracts/playground/main/Canvassing.sol\":13142:13160  currentEarningId++ */\n      tag_494\n      dup4\n      tag_273\n      jump\t// in\n    tag_494:\n      swap2\n      swap1\n      pop\n      sstore\n      pop\n        /* \"smart-contracts/playground/main/Canvassing.sol\":11266:13167  {... */\n      pop\n      pop\n      pop\n      pop\n      pop\n        /* \"smart-contracts/playground/main/Canvassing.sol\":11147:13167  function makePayoutAndCreateEarning(... */\n      pop\n      pop\n      jump\t// out\n        /* \"smart-contracts/playground/main/Canvassing.sol\":1793:1984  function checkIfParticipantExists(address _walletAddress)... */\n    tag_151:\n      sub(shl(0xa0, 0x01), 0x01)\n        /* \"smart-contracts/playground/main/Canvassing.sol\":1923:1954  allParticipants[_walletAddress] */\n      dup2\n      and\n        /* \"smart-contracts/playground/main/Canvassing.sol\":1896:1900  bool */\n      0x00\n        /* \"smart-contracts/playground/main/Canvassing.sol\":1923:1954  allParticipants[_walletAddress] */\n      swap1\n      dup2\n      mstore\n        /* \"smart-contracts/playground/main/Canvassing.sol\":1923:1938  allParticipants */\n      0x02\n        /* \"smart-contracts/playground/main/Canvassing.sol\":1923:1954  allParticipants[_walletAddress] */\n      0x20\n      mstore\n      0x40\n      dup2\n      keccak256\n        /* \"smart-contracts/playground/main/Canvassing.sol\":1923:1962  allParticipants[_walletAddress].isBlank */\n      0x06\n      add\n      sload\n      0x0100\n      swap1\n      div\n      0xff\n      and\n        /* \"smart-contracts/playground/main/Canvassing.sol\":1923:1977  allParticipants[_walletAddress].isBlank ? false : true */\n      tag_496\n      jumpi\n        /* \"smart-contracts/playground/main/Canvassing.sol\":1973:1977  true */\n      0x01\n        /* \"smart-contracts/playground/main/Canvassing.sol\":1923:1977  allParticipants[_walletAddress].isBlank ? false : true */\n      jump(tag_223)\n    tag_496:\n        /* \"smart-contracts/playground/main/Canvassing.sol\":1965:1970  false */\n      0x00\n        /* \"smart-contracts/playground/main/Canvassing.sol\":1916:1977  return allParticipants[_walletAddress].isBlank ? false : true */\n      swap3\n        /* \"smart-contracts/playground/main/Canvassing.sol\":1793:1984  function checkIfParticipantExists(address _walletAddress)... */\n      swap2\n      pop\n      pop\n      jump\t// out\n        /* \"smart-contracts/playground/main/Canvassing.sol\":16949:17196  function verifyResearcher(address _walletAddress) public {... */\n    tag_156:\n      sub(shl(0xa0, 0x01), 0x01)\n        /* \"smart-contracts/playground/main/Canvassing.sol\":17054:17084  allResearchers[_walletAddress] */\n      dup1\n      dup3\n      and\n        /* \"smart-contracts/playground/main/Canvassing.sol\":17016:17051  Researcher memory currentResearcher */\n      0x00\n        /* \"smart-contracts/playground/main/Canvassing.sol\":17054:17084  allResearchers[_walletAddress] */\n      swap1\n      dup2\n      mstore\n        /* \"smart-contracts/playground/main/Canvassing.sol\":17054:17068  allResearchers */\n      0x01\n        /* \"smart-contracts/playground/main/Canvassing.sol\":17054:17084  allResearchers[_walletAddress] */\n      0x20\n      dup2\n      dup2\n      mstore\n      0x40\n      dup1\n      dup5\n      keccak256\n        /* \"smart-contracts/playground/main/Canvassing.sol\":17016:17084  Researcher memory currentResearcher = allResearchers[_walletAddress] */\n      dup2\n      mload\n      0xe0\n      dup2\n      add\n      dup4\n      mstore\n      dup2\n      sload\n      dup2\n      mstore\n      swap4\n      dup2\n      add\n      sload\n      swap1\n      swap6\n      and\n      swap2\n      dup4\n      add\n      swap2\n      swap1\n      swap2\n      mstore\n      0x02\n      dup5\n      add\n      dup1\n      sload\n        /* \"smart-contracts/playground/main/Canvassing.sol\":17016:17051  Researcher memory currentResearcher */\n      swap4\n      swap5\n        /* \"smart-contracts/playground/main/Canvassing.sol\":17016:17084  Researcher memory currentResearcher = allResearchers[_walletAddress] */\n      swap3\n      swap4\n      swap2\n      dup5\n      add\n      swap2\n      tag_499\n      swap1\n      tag_244\n      jump\t// in\n    tag_499:\n      dup1\n      0x1f\n      add\n      0x20\n      dup1\n      swap2\n      div\n      mul\n      0x20\n      add\n      mload(0x40)\n      swap1\n      dup2\n      add\n      0x40\n      mstore\n      dup1\n      swap3\n      swap2\n      swap1\n      dup2\n      dup2\n      mstore\n      0x20\n      add\n      dup3\n      dup1\n      sload\n      tag_500\n      swap1\n      tag_244\n      jump\t// in\n    tag_500:\n      dup1\n      iszero\n      tag_501\n      jumpi\n      dup1\n      0x1f\n      lt\n      tag_502\n      jumpi\n      0x0100\n      dup1\n      dup4\n      sload\n      div\n      mul\n      dup4\n      mstore\n      swap2\n      0x20\n      add\n      swap2\n      jump(tag_501)\n    tag_502:\n      dup3\n      add\n      swap2\n      swap1\n      0x00\n      mstore\n      keccak256(0x00, 0x20)\n      swap1\n    tag_503:\n      dup2\n      sload\n      dup2\n      mstore\n      swap1\n      0x01\n      add\n      swap1\n      0x20\n      add\n      dup1\n      dup4\n      gt\n      tag_503\n      jumpi\n      dup3\n      swap1\n      sub\n      0x1f\n      and\n      dup3\n      add\n      swap2\n    tag_501:\n      pop\n      pop\n      pop\n      swap2\n      dup4\n      mstore\n      pop\n      pop\n      0x03\n      dup3\n      add\n      sload\n      0x20\n      dup1\n      dup4\n      add\n      swap2\n      swap1\n      swap2\n      mstore\n      0x04\n      swap1\n      swap3\n      add\n      sload\n      0xff\n      dup1\n      dup3\n      and\n      iszero\n      iszero\n      0x40\n      dup1\n      dup6\n      add\n      swap2\n      swap1\n      swap2\n      mstore\n      0x0100\n      dup4\n      div\n      dup3\n      and\n      iszero\n      iszero\n      0x60\n      dup6\n      add\n      mstore\n      0x010000\n      swap1\n      swap3\n      div\n      and\n      iszero\n      iszero\n      0x80\n      swap1\n      swap3\n      add\n      swap2\n      swap1\n      swap2\n      mstore\n      0x01\n        /* \"smart-contracts/playground/main/Canvassing.sol\":17094:17122  currentResearcher.isVerified */\n      0xa0\n      dup5\n      add\n        /* \"smart-contracts/playground/main/Canvassing.sol\":17094:17129  currentResearcher.isVerified = true */\n      dup2\n      swap1\n      mstore\n      sub(shl(0xa0, 0x01), 0x01)\n        /* \"smart-contracts/playground/main/Canvassing.sol\":17139:17169  allResearchers[_walletAddress] */\n      dup7\n      dup2\n      and\n      0x00\n      swap1\n      dup2\n      mstore\n      dup3\n      dup6\n      mstore\n      dup4\n      swap1\n      keccak256\n        /* \"smart-contracts/playground/main/Canvassing.sol\":17139:17189  allResearchers[_walletAddress] = currentResearcher */\n      dup6\n      mload\n      dup2\n      sstore\n      swap4\n      dup6\n      add\n      mload\n      swap2\n      dup5\n      add\n      dup1\n      sload\n      not(sub(shl(0xa0, 0x01), 0x01))\n      and\n      swap3\n      swap1\n      swap2\n      and\n      swap2\n      swap1\n      swap2\n      or\n      swap1\n      sstore\n      dup3\n      add\n      mload\n        /* \"smart-contracts/playground/main/Canvassing.sol\":17094:17122  currentResearcher.isVerified */\n      swap2\n      swap3\n      pop\n      dup3\n      swap2\n        /* \"smart-contracts/playground/main/Canvassing.sol\":17016:17084  Researcher memory currentResearcher = allResearchers[_walletAddress] */\n      0x02\n        /* \"smart-contracts/playground/main/Canvassing.sol\":17139:17189  allResearchers[_walletAddress] = currentResearcher */\n      dup3\n      add\n      swap1\n      tag_504\n      swap1\n      dup3\n      tag_417\n      jump\t// in\n    tag_504:\n      pop\n      0x60\n      dup3\n      add\n      mload\n      0x03\n      dup3\n      add\n      sstore\n      0x80\n      dup3\n      add\n      mload\n      0x04\n      swap1\n      swap2\n      add\n      dup1\n      sload\n      0xa0\n      dup5\n      add\n      mload\n      0xc0\n      swap1\n      swap5\n      add\n      mload\n      iszero\n      iszero\n      0x010000\n      mul\n      not(0xff0000)\n      swap5\n      iszero\n      iszero\n      0x0100\n      mul\n      not(0xff00)\n      swap5\n      iszero\n      iszero\n      swap5\n      swap1\n      swap5\n      and\n      not(0xffff)\n      swap1\n      swap3\n      and\n      swap2\n      swap1\n      swap2\n      or\n      swap3\n      swap1\n      swap3\n      or\n      swap3\n      swap1\n      swap3\n      and\n      or\n      swap1\n      sstore\n      pop\n      pop\n        /* \"smart-contracts/playground/main/Canvassing.sol\":16949:17196  function verifyResearcher(address _walletAddress) public {... */\n      jump\t// out\n        /* \"smart-contracts/playground/main/Canvassing.sol\":2930:3027  function getAllSurveys() public view returns (Survey[] memory) {... */\n    tag_158:\n        /* \"smart-contracts/playground/main/Canvassing.sol\":2976:2991  Survey[] memory */\n      0x60\n        /* \"smart-contracts/playground/main/Canvassing.sol\":3010:3020  allSurveys */\n      0x03\n        /* \"smart-contracts/playground/main/Canvassing.sol\":3003:3020  return allSurveys */\n      dup1\n      sload\n      dup1\n      0x20\n      mul\n      0x20\n      add\n      mload(0x40)\n      swap1\n      dup2\n      add\n      0x40\n      mstore\n      dup1\n      swap3\n      swap2\n      swap1\n      dup2\n      dup2\n      mstore\n      0x20\n      add\n      0x00\n      swap1\n    tag_506:\n      dup3\n      dup3\n      lt\n      iszero\n      tag_507\n      jumpi\n      0x00\n      dup5\n      dup2\n      mstore\n      0x20\n      swap1\n      dup2\n      swap1\n      keccak256\n      0x40\n      dup1\n      mload\n      0xe0\n      dup2\n      add\n      dup3\n      mstore\n      0x07\n      dup7\n      mul\n      swap1\n      swap3\n      add\n      dup1\n      sload\n      dup4\n      mstore\n      0x01\n      dup2\n      add\n      sload\n      sub(shl(0xa0, 0x01), 0x01)\n      and\n      swap4\n      dup4\n      add\n      swap4\n      swap1\n      swap4\n      mstore\n      0x02\n      dup4\n      add\n      dup1\n      sload\n      swap3\n      swap4\n      swap3\n      swap2\n      dup5\n      add\n      swap2\n      tag_509\n      swap1\n      tag_244\n      jump\t// in\n    tag_509:\n      dup1\n      0x1f\n      add\n      0x20\n      dup1\n      swap2\n      div\n      mul\n      0x20\n      add\n      mload(0x40)\n      swap1\n      dup2\n      add\n      0x40\n      mstore\n      dup1\n      swap3\n      swap2\n      swap1\n      dup2\n      dup2\n      mstore\n      0x20\n      add\n      dup3\n      dup1\n      sload\n      tag_510\n      swap1\n      tag_244\n      jump\t// in\n    tag_510:\n      dup1\n      iszero\n      tag_511\n      jumpi\n      dup1\n      0x1f\n      lt\n      tag_512\n      jumpi\n      0x0100\n      dup1\n      dup4\n      sload\n      div\n      mul\n      dup4\n      mstore\n      swap2\n      0x20\n      add\n      swap2\n      jump(tag_511)\n    tag_512:\n      dup3\n      add\n      swap2\n      swap1\n      0x00\n      mstore\n      keccak256(0x00, 0x20)\n      swap1\n    tag_513:\n      dup2\n      sload\n      dup2\n      mstore\n      swap1\n      0x01\n      add\n      swap1\n      0x20\n      add\n      dup1\n      dup4\n      gt\n      tag_513\n      jumpi\n      dup3\n      swap1\n      sub\n      0x1f\n      and\n      dup3\n      add\n      swap2\n    tag_511:\n      pop\n      pop\n      pop\n      swap2\n      dup4\n      mstore\n      pop\n      pop\n      0x03\n      dup3\n      add\n      sload\n      0x20\n      dup1\n      dup4\n      add\n      swap2\n      swap1\n      swap2\n      mstore\n      0x04\n      dup4\n      add\n      sload\n      0x40\n      dup4\n      add\n      mstore\n      0x05\n      dup4\n      add\n      sload\n      0x60\n      dup4\n      add\n      mstore\n      0x06\n      swap1\n      swap3\n      add\n      sload\n      0xff\n      and\n      iszero\n      iszero\n      0x80\n      swap1\n      swap2\n      add\n      mstore\n      swap1\n      dup3\n      mstore\n      0x01\n      swap3\n      swap1\n      swap3\n      add\n      swap2\n      add\n      jump(tag_506)\n    tag_507:\n      pop\n      pop\n      pop\n      pop\n      swap1\n      pop\n        /* \"smart-contracts/playground/main/Canvassing.sol\":2930:3027  function getAllSurveys() public view returns (Survey[] memory) {... */\n      swap1\n      jump\t// out\n        /* \"smart-contracts/playground/main/Canvassing.sol\":1447:1475  Earning[] public allEarnings */\n    tag_166:\n      0x0c\n      dup2\n      dup2\n      sload\n      dup2\n      lt\n      tag_514\n      jumpi\n      0x00\n      dup1\n      revert\n    tag_514:\n      0x00\n      swap2\n      dup3\n      mstore\n      0x20\n      swap1\n      swap2\n      keccak256\n      0x05\n      swap1\n      swap2\n      mul\n      add\n      dup1\n      sload\n      0x01\n      dup3\n      add\n      sload\n      0x02\n      dup4\n      add\n      sload\n      0x03\n      dup5\n      add\n      sload\n      0x04\n      swap1\n      swap5\n      add\n      sload\n      swap3\n      swap5\n      pop\n      swap1\n      swap3\n      sub(shl(0xa0, 0x01), 0x01)\n      swap1\n      swap2\n      and\n      swap2\n      0xff\n      and\n      dup6\n      jump\t// out\n        /* \"smart-contracts/playground/main/Canvassing.sol\":1412:1440  Funding[] public allFundings */\n    tag_171:\n      0x0b\n      dup2\n      dup2\n      sload\n      dup2\n      lt\n      tag_514\n      jumpi\n      0x00\n      dup1\n      revert\n        /* \"smart-contracts/playground/main/Canvassing.sol\":19072:19250  function getParticipantsOfSurvey(uint256 _surveyId)... */\n    tag_175:\n        /* \"smart-contracts/playground/main/Canvassing.sol\":19169:19189  Participant[] memory */\n      0x60\n        /* \"smart-contracts/playground/main/Canvassing.sol\":19212:19232  participantsOfSurvey */\n      0x0a\n        /* \"smart-contracts/playground/main/Canvassing.sol\":19212:19243  participantsOfSurvey[_surveyId] */\n      0x00\n        /* \"smart-contracts/playground/main/Canvassing.sol\":19233:19242  _surveyId */\n      dup4\n        /* \"smart-contracts/playground/main/Canvassing.sol\":19212:19243  participantsOfSurvey[_surveyId] */\n      dup2\n      mstore\n      0x20\n      add\n      swap1\n      dup2\n      mstore\n      0x20\n      add\n      0x00\n      keccak256\n        /* \"smart-contracts/playground/main/Canvassing.sol\":19205:19243  return participantsOfSurvey[_surveyId] */\n      dup1\n      sload\n      dup1\n      0x20\n      mul\n      0x20\n      add\n      mload(0x40)\n      swap1\n      dup2\n      add\n      0x40\n      mstore\n      dup1\n      swap3\n      swap2\n      swap1\n      dup2\n      dup2\n      mstore\n      0x20\n      add\n      0x00\n      swap1\n    tag_519:\n      dup3\n      dup3\n      lt\n      iszero\n      tag_520\n      jumpi\n      0x00\n      dup5\n      dup2\n      mstore\n      0x20\n      swap1\n      dup2\n      swap1\n      keccak256\n      0x40\n      dup1\n      mload\n      0x0100\n      dup2\n      add\n      dup3\n      mstore\n      0x07\n      dup7\n      mul\n      swap1\n      swap3\n      add\n      dup1\n      sload\n      dup4\n      mstore\n      0x01\n      dup2\n      add\n      sload\n      sub(shl(0xa0, 0x01), 0x01)\n      and\n      swap4\n      dup4\n      add\n      swap4\n      swap1\n      swap4\n      mstore\n      0x02\n      dup4\n      add\n      dup1\n      sload\n      swap3\n      swap4\n      swap3\n      swap2\n      dup5\n      add\n      swap2\n      tag_522\n      swap1\n      tag_244\n      jump\t// in\n    tag_522:\n      dup1\n      0x1f\n      add\n      0x20\n      dup1\n      swap2\n      div\n      mul\n      0x20\n      add\n      mload(0x40)\n      swap1\n      dup2\n      add\n      0x40\n      mstore\n      dup1\n      swap3\n      swap2\n      swap1\n      dup2\n      dup2\n      mstore\n      0x20\n      add\n      dup3\n      dup1\n      sload\n      tag_523\n      swap1\n      tag_244\n      jump\t// in\n    tag_523:\n      dup1\n      iszero\n      tag_524\n      jumpi\n      dup1\n      0x1f\n      lt\n      tag_525\n      jumpi\n      0x0100\n      dup1\n      dup4\n      sload\n      div\n      mul\n      dup4\n      mstore\n      swap2\n      0x20\n      add\n      swap2\n      jump(tag_524)\n    tag_525:\n      dup3\n      add\n      swap2\n      swap1\n      0x00\n      mstore\n      keccak256(0x00, 0x20)\n      swap1\n    tag_526:\n      dup2\n      sload\n      dup2\n      mstore\n      swap1\n      0x01\n      add\n      swap1\n      0x20\n      add\n      dup1\n      dup4\n      gt\n      tag_526\n      jumpi\n      dup3\n      swap1\n      sub\n      0x1f\n      and\n      dup3\n      add\n      swap2\n    tag_524:\n      pop\n      pop\n      pop\n      pop\n      pop\n      dup2\n      mstore\n      0x20\n      add\n      0x03\n      dup3\n      add\n      dup1\n      sload\n      tag_527\n      swap1\n      tag_244\n      jump\t// in\n    tag_527:\n      dup1\n      0x1f\n      add\n      0x20\n      dup1\n      swap2\n      div\n      mul\n      0x20\n      add\n      mload(0x40)\n      swap1\n      dup2\n      add\n      0x40\n      mstore\n      dup1\n      swap3\n      swap2\n      swap1\n      dup2\n      dup2\n      mstore\n      0x20\n      add\n      dup3\n      dup1\n      sload\n      tag_528\n      swap1\n      tag_244\n      jump\t// in\n    tag_528:\n      dup1\n      iszero\n      tag_529\n      jumpi\n      dup1\n      0x1f\n      lt\n      tag_530\n      jumpi\n      0x0100\n      dup1\n      dup4\n      sload\n      div\n      mul\n      dup4\n      mstore\n      swap2\n      0x20\n      add\n      swap2\n      jump(tag_529)\n    tag_530:\n      dup3\n      add\n      swap2\n      swap1\n      0x00\n      mstore\n      keccak256(0x00, 0x20)\n      swap1\n    tag_531:\n      dup2\n      sload\n      dup2\n      mstore\n      swap1\n      0x01\n      add\n      swap1\n      0x20\n      add\n      dup1\n      dup4\n      gt\n      tag_531\n      jumpi\n      dup3\n      swap1\n      sub\n      0x1f\n      and\n      dup3\n      add\n      swap2\n    tag_529:\n      pop\n      pop\n      pop\n      swap2\n      dup4\n      mstore\n      pop\n      pop\n      0x04\n      dup3\n      add\n      sload\n      0x20\n      dup1\n      dup4\n      add\n      swap2\n      swap1\n      swap2\n      mstore\n      0x05\n      dup4\n      add\n      sload\n      0x40\n      dup4\n      add\n      mstore\n      0x06\n      swap1\n      swap3\n      add\n      sload\n      0xff\n      dup1\n      dup3\n      and\n      iszero\n      iszero\n      0x60\n      dup5\n      add\n      mstore\n      0x0100\n      swap1\n      swap2\n      div\n      and\n      iszero\n      iszero\n      0x80\n      swap1\n      swap2\n      add\n      mstore\n      swap1\n      dup3\n      mstore\n      0x01\n      swap3\n      swap1\n      swap3\n      add\n      swap2\n      add\n      jump(tag_519)\n    tag_520:\n      pop\n      pop\n      pop\n      pop\n      swap1\n      pop\n        /* \"smart-contracts/playground/main/Canvassing.sol\":19072:19250  function getParticipantsOfSurvey(uint256 _surveyId)... */\n      swap2\n      swap1\n      pop\n      jump\t// out\n        /* \"smart-contracts/playground/main/Canvassing.sol\":13173:13362  function checkIfResearcherExists(address _walletAddress)... */\n    tag_180:\n      sub(shl(0xa0, 0x01), 0x01)\n        /* \"smart-contracts/playground/main/Canvassing.sol\":13302:13332  allResearchers[_walletAddress] */\n      dup2\n      and\n        /* \"smart-contracts/playground/main/Canvassing.sol\":13275:13279  bool */\n      0x00\n        /* \"smart-contracts/playground/main/Canvassing.sol\":13302:13332  allResearchers[_walletAddress] */\n      swap1\n      dup2\n      mstore\n        /* \"smart-contracts/playground/main/Canvassing.sol\":13302:13316  allResearchers */\n      0x01\n        /* \"smart-contracts/playground/main/Canvassing.sol\":13302:13332  allResearchers[_walletAddress] */\n      0x20\n      mstore\n      0x40\n      dup2\n      keccak256\n        /* \"smart-contracts/playground/main/Canvassing.sol\":13302:13340  allResearchers[_walletAddress].isBlank */\n      0x04\n      add\n      sload\n      0x010000\n      swap1\n      div\n      0xff\n      and\n        /* \"smart-contracts/playground/main/Canvassing.sol\":13302:13355  allResearchers[_walletAddress].isBlank ? false : true */\n      tag_496\n      jumpi\n        /* \"smart-contracts/playground/main/Canvassing.sol\":13351:13355  true */\n      0x01\n        /* \"smart-contracts/playground/main/Canvassing.sol\":13302:13355  allResearchers[_walletAddress].isBlank ? false : true */\n      jump(tag_223)\n        /* \"smart-contracts/playground/main/Canvassing.sol\":15779:16943  function createFunding(... */\n    tag_190:\n        /* \"smart-contracts/playground/main/Canvassing.sol\":15975:16011  uint256 amountOfFundingOfSurveyInWei */\n      0x00\n        /* \"smart-contracts/playground/main/Canvassing.sol\":16014:16143  getAmountOfFundingOfAnySurveyInWei(... */\n      tag_537\n        /* \"smart-contracts/playground/main/Canvassing.sol\":16066:16084  _numberOfQuestions */\n      dup6\n        /* \"smart-contracts/playground/main/Canvassing.sol\":16102:16129  _targetNumberOfParticipants */\n      dup6\n        /* \"smart-contracts/playground/main/Canvassing.sol\":16014:16048  getAmountOfFundingOfAnySurveyInWei */\n      tag_52\n        /* \"smart-contracts/playground/main/Canvassing.sol\":16014:16143  getAmountOfFundingOfAnySurveyInWei(... */\n      jump\t// in\n    tag_537:\n        /* \"smart-contracts/playground/main/Canvassing.sol\":16177:16193  currentFundingId */\n      sload(0x13)\n      0x40\n      dup1\n      mload\n      0xa0\n      dup2\n      add\n      dup3\n      mstore\n      0x00\n      0x80\n      dup3\n      add\n      dup2\n      dup2\n      mstore\n        /* \"smart-contracts/playground/main/Canvassing.sol\":16240:16268  newFunding.id = newFundingId */\n      dup5\n      dup4\n      mstore\n      0x20\n      dup1\n      dup5\n      add\n        /* \"smart-contracts/playground/main/Canvassing.sol\":16278:16309  newFunding.surveyId = _surveyId */\n      dup11\n      dup2\n      mstore\n      sub(shl(0xa0, 0x01), 0x01)\n        /* \"smart-contracts/playground/main/Canvassing.sol\":16319:16388  newFunding.creatingResearcherWalletAddress = _researcherWalletAddress */\n      dup11\n      dup2\n      and\n      dup7\n      dup9\n      add\n      dup2\n      dup2\n      mstore\n      0x60\n      dup9\n      add\n        /* \"smart-contracts/playground/main/Canvassing.sol\":16398:16457  newFunding.amountFundedInWei = amountOfFundingOfSurveyInWei */\n      dup12\n      dup2\n      mstore\n        /* \"smart-contracts/playground/main/Canvassing.sol\":16504:16515  allFundings */\n      0x0b\n        /* \"smart-contracts/playground/main/Canvassing.sol\":16504:16532  allFundings.push(newFunding) */\n      dup1\n      sload\n        /* \"smart-contracts/playground/main/Canvassing.sol\":16467:16493  newFunding.isBlank = false */\n      0x01\n        /* \"smart-contracts/playground/main/Canvassing.sol\":16504:16532  allFundings.push(newFunding) */\n      dup2\n      add\n      dup3\n      sstore\n      swap1\n      dup10\n      mstore\n      dup10\n      mload\n      0x0175b7a638427703f0dbe7bb9bbf987a2551717b34e79f33b5b1008d1fa01db9\n      0x05\n      swap1\n      swap3\n      mul\n      swap2\n      dup3\n      add\n      sstore\n      swap5\n      mload\n      0x0175b7a638427703f0dbe7bb9bbf987a2551717b34e79f33b5b1008d1fa01dba\n      dup7\n      add\n      sstore\n      swap1\n      mload\n      0x0175b7a638427703f0dbe7bb9bbf987a2551717b34e79f33b5b1008d1fa01dbb\n      dup6\n      add\n      dup1\n      sload\n      not(sub(shl(0xa0, 0x01), 0x01))\n      and\n      swap2\n      swap1\n      swap5\n      and\n      or\n      swap1\n      swap3\n      sstore\n      swap1\n      mload\n      0x0175b7a638427703f0dbe7bb9bbf987a2551717b34e79f33b5b1008d1fa01dbc\n      dup4\n      add\n      sstore\n      swap3\n      mload\n      0x0175b7a638427703f0dbe7bb9bbf987a2551717b34e79f33b5b1008d1fa01dbd\n      swap1\n      swap2\n      add\n      dup1\n      sload\n      not(0xff)\n      and\n      swap2\n      iszero\n      iszero\n      swap2\n      swap1\n      swap2\n      or\n      swap1\n      sstore\n        /* \"smart-contracts/playground/main/Canvassing.sol\":16595:16686  totalAmountFundedByResearchersInWei[... */\n      swap1\n      dup3\n      mstore\n        /* \"smart-contracts/playground/main/Canvassing.sol\":16595:16630  totalAmountFundedByResearchersInWei */\n      0x09\n        /* \"smart-contracts/playground/main/Canvassing.sol\":16595:16686  totalAmountFundedByResearchersInWei[... */\n      swap1\n      mstore\n      swap2\n      swap1\n      swap2\n      keccak256\n      sload\n        /* \"smart-contracts/playground/main/Canvassing.sol\":16398:16457  newFunding.amountFundedInWei = amountOfFundingOfSurveyInWei */\n      swap3\n      swap4\n      pop\n        /* \"smart-contracts/playground/main/Canvassing.sol\":16177:16193  currentFundingId */\n      swap1\n      swap2\n        /* \"smart-contracts/playground/main/Canvassing.sol\":16783:16856  currentTotalAmountFundedByResearcherInWei += amountOfFundingOfSurveyInWei */\n      tag_541\n        /* \"smart-contracts/playground/main/Canvassing.sol\":16398:16457  newFunding.amountFundedInWei = amountOfFundingOfSurveyInWei */\n      dup5\n        /* \"smart-contracts/playground/main/Canvassing.sol\":16595:16686  totalAmountFundedByResearchersInWei[... */\n      dup3\n        /* \"smart-contracts/playground/main/Canvassing.sol\":16783:16856  currentTotalAmountFundedByResearcherInWei += amountOfFundingOfSurveyInWei */\n      tag_225\n      jump\t// in\n    tag_541:\n      sub(shl(0xa0, 0x01), 0x01)\n        /* \"smart-contracts/playground/main/Canvassing.sol\":16697:16780  totalAmountFundedByResearchersInWei[... */\n      dup7\n      and\n      0x00\n      swap1\n      dup2\n      mstore\n        /* \"smart-contracts/playground/main/Canvassing.sol\":16697:16732  totalAmountFundedByResearchersInWei */\n      0x09\n        /* \"smart-contracts/playground/main/Canvassing.sol\":16697:16780  totalAmountFundedByResearchersInWei[... */\n      0x20\n      mstore\n      0x40\n      dup2\n      keccak256\n        /* \"smart-contracts/playground/main/Canvassing.sol\":16697:16856  totalAmountFundedByResearchersInWei[... */\n      dup3\n      swap1\n      sstore\n        /* \"smart-contracts/playground/main/Canvassing.sol\":16918:16934  currentFundingId */\n      0x13\n        /* \"smart-contracts/playground/main/Canvassing.sol\":16918:16936  currentFundingId++ */\n      dup1\n      sload\n        /* \"smart-contracts/playground/main/Canvassing.sol\":16783:16856  currentTotalAmountFundedByResearcherInWei += amountOfFundingOfSurveyInWei */\n      swap3\n      swap4\n      pop\n        /* \"smart-contracts/playground/main/Canvassing.sol\":16918:16934  currentFundingId */\n      swap1\n        /* \"smart-contracts/playground/main/Canvassing.sol\":16918:16936  currentFundingId++ */\n      tag_542\n      dup4\n      tag_273\n      jump\t// in\n    tag_542:\n      swap2\n      swap1\n      pop\n      sstore\n      pop\n        /* \"smart-contracts/playground/main/Canvassing.sol\":15965:16943  {... */\n      pop\n      pop\n      pop\n      pop\n        /* \"smart-contracts/playground/main/Canvassing.sol\":15779:16943  function createFunding(... */\n      pop\n      pop\n      pop\n      pop\n      jump\t// out\n        /* \"smart-contracts/playground/main/Canvassing.sol\":3033:3184  function getSurveyById(uint256 _surveyId)... */\n    tag_197:\n        /* \"smart-contracts/playground/main/Canvassing.sol\":3120:3133  Survey memory */\n      tag_543\n      tag_256\n      jump\t// in\n    tag_543:\n        /* \"smart-contracts/playground/main/Canvassing.sol\":3156:3166  allSurveys */\n      0x03\n        /* \"smart-contracts/playground/main/Canvassing.sol\":3167:3176  _surveyId */\n      dup3\n        /* \"smart-contracts/playground/main/Canvassing.sol\":3156:3177  allSurveys[_surveyId] */\n      dup2\n      sload\n      dup2\n      lt\n      tag_546\n      jumpi\n      tag_546\n      tag_262\n      jump\t// in\n    tag_546:\n      swap1\n      0x00\n      mstore\n      keccak256(0x00, 0x20)\n      swap1\n      0x07\n      mul\n      add\n        /* \"smart-contracts/playground/main/Canvassing.sol\":3149:3177  return allSurveys[_surveyId] */\n      mload(0x40)\n      dup1\n      0xe0\n      add\n      0x40\n      mstore\n      swap1\n      dup2\n      0x00\n      dup3\n      add\n      sload\n      dup2\n      mstore\n      0x20\n      add\n      0x01\n      dup3\n      add\n      0x00\n      swap1\n      sload\n      swap1\n      0x0100\n      exp\n      swap1\n      div\n      sub(shl(0xa0, 0x01), 0x01)\n      and\n      sub(shl(0xa0, 0x01), 0x01)\n      and\n      sub(shl(0xa0, 0x01), 0x01)\n      and\n      dup2\n      mstore\n      0x20\n      add\n      0x02\n      dup3\n      add\n      dup1\n      sload\n      tag_548\n      swap1\n      tag_244\n      jump\t// in\n    tag_548:\n      dup1\n      0x1f\n      add\n      0x20\n      dup1\n      swap2\n      div\n      mul\n      0x20\n      add\n      mload(0x40)\n      swap1\n      dup2\n      add\n      0x40\n      mstore\n      dup1\n      swap3\n      swap2\n      swap1\n      dup2\n      dup2\n      mstore\n      0x20\n      add\n      dup3\n      dup1\n      sload\n      tag_549\n      swap1\n      tag_244\n      jump\t// in\n    tag_549:\n      dup1\n      iszero\n      tag_550\n      jumpi\n      dup1\n      0x1f\n      lt\n      tag_551\n      jumpi\n      0x0100\n      dup1\n      dup4\n      sload\n      div\n      mul\n      dup4\n      mstore\n      swap2\n      0x20\n      add\n      swap2\n      jump(tag_550)\n    tag_551:\n      dup3\n      add\n      swap2\n      swap1\n      0x00\n      mstore\n      keccak256(0x00, 0x20)\n      swap1\n    tag_552:\n      dup2\n      sload\n      dup2\n      mstore\n      swap1\n      0x01\n      add\n      swap1\n      0x20\n      add\n      dup1\n      dup4\n      gt\n      tag_552\n      jumpi\n      dup3\n      swap1\n      sub\n      0x1f\n      and\n      dup3\n      add\n      swap2\n    tag_550:\n      pop\n      pop\n      pop\n      swap2\n      dup4\n      mstore\n      pop\n      pop\n      0x03\n      dup3\n      add\n      sload\n      0x20\n      dup3\n      add\n      mstore\n      0x04\n      dup3\n      add\n      sload\n      0x40\n      dup3\n      add\n      mstore\n      0x05\n      dup3\n      add\n      sload\n      0x60\n      dup3\n      add\n      mstore\n      0x06\n      swap1\n      swap2\n      add\n      sload\n      0xff\n      and\n      iszero\n      iszero\n      0x80\n      swap1\n      swap2\n      add\n      mstore\n      swap3\n        /* \"smart-contracts/playground/main/Canvassing.sol\":3033:3184  function getSurveyById(uint256 _surveyId)... */\n      swap2\n      pop\n      pop\n      jump\t// out\n        /* \"smart-contracts/playground/main/Canvassing.sol\":9913:11141  function participateInSurvey(... */\n    tag_203:\n        /* \"smart-contracts/playground/main/Canvassing.sol\":10072:10099  Survey memory currentSurvey */\n      0x00\n        /* \"smart-contracts/playground/main/Canvassing.sol\":10102:10112  allSurveys */\n      0x03\n        /* \"smart-contracts/playground/main/Canvassing.sol\":10113:10122  _surveyId */\n      dup5\n        /* \"smart-contracts/playground/main/Canvassing.sol\":10102:10123  allSurveys[_surveyId] */\n      dup2\n      sload\n      dup2\n      lt\n      tag_555\n      jumpi\n      tag_555\n      tag_262\n      jump\t// in\n    tag_555:\n      swap1\n      0x00\n      mstore\n      keccak256(0x00, 0x20)\n      swap1\n      0x07\n      mul\n      add\n        /* \"smart-contracts/playground/main/Canvassing.sol\":10072:10123  Survey memory currentSurvey = allSurveys[_surveyId] */\n      mload(0x40)\n      dup1\n      0xe0\n      add\n      0x40\n      mstore\n      swap1\n      dup2\n      0x00\n      dup3\n      add\n      sload\n      dup2\n      mstore\n      0x20\n      add\n      0x01\n      dup3\n      add\n      0x00\n      swap1\n      sload\n      swap1\n      0x0100\n      exp\n      swap1\n      div\n      sub(shl(0xa0, 0x01), 0x01)\n      and\n      sub(shl(0xa0, 0x01), 0x01)\n      and\n      sub(shl(0xa0, 0x01), 0x01)\n      and\n      dup2\n      mstore\n      0x20\n      add\n      0x02\n      dup3\n      add\n      dup1\n      sload\n      tag_557\n      swap1\n      tag_244\n      jump\t// in\n    tag_557:\n      dup1\n      0x1f\n      add\n      0x20\n      dup1\n      swap2\n      div\n      mul\n      0x20\n      add\n      mload(0x40)\n      swap1\n      dup2\n      add\n      0x40\n      mstore\n      dup1\n      swap3\n      swap2\n      swap1\n      dup2\n      dup2\n      mstore\n      0x20\n      add\n      dup3\n      dup1\n      sload\n      tag_558\n      swap1\n      tag_244\n      jump\t// in\n    tag_558:\n      dup1\n      iszero\n      tag_559\n      jumpi\n      dup1\n      0x1f\n      lt\n      tag_560\n      jumpi\n      0x0100\n      dup1\n      dup4\n      sload\n      div\n      mul\n      dup4\n      mstore\n      swap2\n      0x20\n      add\n      swap2\n      jump(tag_559)\n    tag_560:\n      dup3\n      add\n      swap2\n      swap1\n      0x00\n      mstore\n      keccak256(0x00, 0x20)\n      swap1\n    tag_561:\n      dup2\n      sload\n      dup2\n      mstore\n      swap1\n      0x01\n      add\n      swap1\n      0x20\n      add\n      dup1\n      dup4\n      gt\n      tag_561\n      jumpi\n      dup3\n      swap1\n      sub\n      0x1f\n      and\n      dup3\n      add\n      swap2\n    tag_559:\n      pop\n      pop\n      pop\n      swap2\n      dup4\n      mstore\n      pop\n      pop\n      0x03\n      dup3\n      add\n      sload\n      0x20\n      dup3\n      add\n      mstore\n      0x04\n      dup3\n      add\n      sload\n      0x40\n      dup3\n      add\n      mstore\n      0x05\n      dup3\n      add\n      sload\n      0x60\n      dup1\n      dup4\n      add\n      swap2\n      swap1\n      swap2\n      mstore\n      0x06\n      swap1\n      swap3\n      add\n      sload\n      0xff\n      and\n      iszero\n      iszero\n      0x80\n      swap1\n      swap2\n      add\n      mstore\n        /* \"smart-contracts/playground/main/Canvassing.sol\":10168:10199  currentSurvey.numberOfQuestions */\n      dup2\n      add\n      mload\n        /* \"smart-contracts/playground/main/Canvassing.sol\":10072:10123  Survey memory currentSurvey = allSurveys[_surveyId] */\n      swap1\n      swap2\n      pop\n      0x00\n        /* \"smart-contracts/playground/main/Canvassing.sol\":10268:10830  for (... */\n    tag_562:\n        /* \"smart-contracts/playground/main/Canvassing.sol\":10331:10354  numberOfExpectedAnswers */\n      dup2\n        /* \"smart-contracts/playground/main/Canvassing.sol\":10320:10328  answerId */\n      dup2\n        /* \"smart-contracts/playground/main/Canvassing.sol\":10320:10354  answerId < numberOfExpectedAnswers */\n      lt\n        /* \"smart-contracts/playground/main/Canvassing.sol\":10268:10830  for (... */\n      iszero\n      tag_563\n      jumpi\n        /* \"smart-contracts/playground/main/Canvassing.sol\":10403:10426  Answer memory newAnswer */\n      tag_565\n      tag_333\n      jump\t// in\n    tag_565:\n        /* \"smart-contracts/playground/main/Canvassing.sol\":10462:10477  currentAnswerId */\n      sload(0x11)\n        /* \"smart-contracts/playground/main/Canvassing.sol\":10491:10517  newAnswer.id = newAnswerId */\n      dup1\n      dup3\n      mstore\n        /* \"smart-contracts/playground/main/Canvassing.sol\":10531:10551  newAnswer.questionId */\n      0x20\n      dup3\n      add\n        /* \"smart-contracts/playground/main/Canvassing.sol\":10531:10562  newAnswer.questionId = answerId */\n      dup4\n      swap1\n      mstore\n        /* \"smart-contracts/playground/main/Canvassing.sol\":10576:10594  newAnswer.surveyId */\n      0x40\n      dup3\n      add\n        /* \"smart-contracts/playground/main/Canvassing.sol\":10576:10606  newAnswer.surveyId = _surveyId */\n      dup9\n      swap1\n      mstore\n      sub(shl(0xa0, 0x01), 0x01)\n        /* \"smart-contracts/playground/main/Canvassing.sol\":10620:10682  newAnswer.participantWalletAddress = _participantWalletAddress */\n      dup8\n      and\n        /* \"smart-contracts/playground/main/Canvassing.sol\":10620:10654  newAnswer.participantWalletAddress */\n      0x60\n      dup4\n      add\n        /* \"smart-contracts/playground/main/Canvassing.sol\":10620:10682  newAnswer.participantWalletAddress = _participantWalletAddress */\n      mstore\n        /* \"smart-contracts/playground/main/Canvassing.sol\":10714:10737  _answerValues[answerId] */\n      dup6\n      mload\n        /* \"smart-contracts/playground/main/Canvassing.sol\":10714:10727  _answerValues */\n      dup7\n      swap1\n        /* \"smart-contracts/playground/main/Canvassing.sol\":10554:10562  answerId */\n      dup5\n      swap1\n        /* \"smart-contracts/playground/main/Canvassing.sol\":10714:10737  _answerValues[answerId] */\n      dup2\n      lt\n      tag_567\n      jumpi\n      tag_567\n      tag_262\n      jump\t// in\n    tag_567:\n      0x20\n      swap1\n      dup2\n      mul\n      swap2\n      swap1\n      swap2\n      add\n      dup2\n      add\n      mload\n        /* \"smart-contracts/playground/main/Canvassing.sol\":10696:10737  newAnswer.value = _answerValues[answerId] */\n      iszero\n      iszero\n        /* \"smart-contracts/playground/main/Canvassing.sol\":10696:10711  newAnswer.value */\n      0x80\n      dup5\n      add\n        /* \"smart-contracts/playground/main/Canvassing.sol\":10696:10737  newAnswer.value = _answerValues[answerId] */\n      swap1\n      dup2\n      mstore\n        /* \"smart-contracts/playground/main/Canvassing.sol\":10751:10772  allAnswers[_surveyId] */\n      0x00\n      dup11\n      dup2\n      mstore\n        /* \"smart-contracts/playground/main/Canvassing.sol\":10751:10761  allAnswers */\n      0x05\n        /* \"smart-contracts/playground/main/Canvassing.sol\":10751:10772  allAnswers[_surveyId] */\n      dup4\n      mstore\n      0x40\n      dup1\n      dup3\n      keccak256\n        /* \"smart-contracts/playground/main/Canvassing.sol\":10751:10788  allAnswers[_surveyId].push(newAnswer) */\n      dup1\n      sload\n      0x01\n      dup2\n      dup2\n      add\n      dup4\n      sstore\n      swap2\n      dup5\n      mstore\n      dup6\n      dup5\n      keccak256\n      dup9\n      mload\n      0x04\n      swap1\n      swap3\n      mul\n      add\n      swap1\n      dup2\n      sstore\n      swap5\n      dup8\n      add\n      mload\n      swap1\n      dup6\n      add\n      sstore\n      dup6\n      add\n      mload\n      0x02\n      dup5\n      add\n      sstore\n      0x60\n      dup6\n      add\n      mload\n      0x03\n      swap1\n      swap4\n      add\n      dup1\n      sload\n      swap3\n      mload\n      0xa0\n      dup8\n      add\n      mload\n      iszero\n      iszero\n      shl(0xa8, 0x01)\n      mul\n      not(shl(0xa8, 0xff))\n      swap2\n      iszero\n      iszero\n      shl(0xa0, 0x01)\n      mul\n      not(sub(shl(0xa8, 0x01), 0x01))\n      swap1\n      swap6\n      and\n      sub(shl(0xa0, 0x01), 0x01)\n      swap1\n      swap7\n      and\n      swap6\n      swap1\n      swap6\n      or\n      swap4\n      swap1\n      swap4\n      or\n      swap3\n      swap1\n      swap3\n      and\n      swap3\n      swap1\n      swap3\n      or\n      swap1\n      sstore\n        /* \"smart-contracts/playground/main/Canvassing.sol\":10802:10817  currentAnswerId */\n      0x11\n        /* \"smart-contracts/playground/main/Canvassing.sol\":10802:10819  currentAnswerId++ */\n      dup1\n      sload\n      swap2\n      tag_569\n      dup4\n      tag_273\n      jump\t// in\n    tag_569:\n      swap2\n      swap1\n      pop\n      sstore\n      pop\n        /* \"smart-contracts/playground/main/Canvassing.sol\":10389:10830  {... */\n      pop\n      pop\n        /* \"smart-contracts/playground/main/Canvassing.sol\":10368:10378  answerId++ */\n      dup1\n      dup1\n      tag_570\n      swap1\n      tag_273\n      jump\t// in\n    tag_570:\n      swap2\n      pop\n      pop\n        /* \"smart-contracts/playground/main/Canvassing.sol\":10268:10830  for (... */\n      jump(tag_562)\n    tag_563:\n      pop\n        /* \"smart-contracts/playground/main/Canvassing.sol\":10912:10951  participationStatusForSurvey[_surveyId] */\n      0x00\n      dup6\n      dup2\n      mstore\n        /* \"smart-contracts/playground/main/Canvassing.sol\":10912:10940  participationStatusForSurvey */\n      0x06\n        /* \"smart-contracts/playground/main/Canvassing.sol\":10912:10951  participationStatusForSurvey[_surveyId] */\n      0x20\n      swap1\n      dup2\n      mstore\n      0x40\n      dup1\n      dup4\n      keccak256\n      sub(shl(0xa0, 0x01), 0x01)\n        /* \"smart-contracts/playground/main/Canvassing.sol\":10912:11000  participationStatusForSurvey[_surveyId][... */\n      dup9\n      and\n      dup5\n      mstore\n      dup3\n      mstore\n      dup1\n      dup4\n      keccak256\n        /* \"smart-contracts/playground/main/Canvassing.sol\":10912:11007  participationStatusForSurvey[_surveyId][... */\n      dup1\n      sload\n      not(0xff)\n      and\n        /* \"smart-contracts/playground/main/Canvassing.sol\":11003:11007  true */\n      0x01\n        /* \"smart-contracts/playground/main/Canvassing.sol\":10912:11007  participationStatusForSurvey[_surveyId][... */\n      or\n      swap1\n      sstore\n        /* \"smart-contracts/playground/main/Canvassing.sol\":11018:11049  participantsOfSurvey[_surveyId] */\n      dup8\n      dup4\n      mstore\n        /* \"smart-contracts/playground/main/Canvassing.sol\":11018:11038  participantsOfSurvey */\n      0x0a\n        /* \"smart-contracts/playground/main/Canvassing.sol\":11018:11049  participantsOfSurvey[_surveyId] */\n      swap1\n      swap2\n      mstore\n      swap1\n      keccak256\n        /* \"smart-contracts/playground/main/Canvassing.sol\":11068:11124  getParticipantByWalletAddress(_participantWalletAddress) */\n      tag_571\n        /* \"smart-contracts/playground/main/Canvassing.sol\":10965:10990  _participantWalletAddress */\n      dup6\n        /* \"smart-contracts/playground/main/Canvassing.sol\":11068:11097  getParticipantByWalletAddress */\n      tag_93\n        /* \"smart-contracts/playground/main/Canvassing.sol\":11068:11124  getParticipantByWalletAddress(_participantWalletAddress) */\n      jump\t// in\n    tag_571:\n        /* \"smart-contracts/playground/main/Canvassing.sol\":11018:11134  participantsOfSurvey[_surveyId].push(... */\n      dup2\n      sload\n      0x01\n      dup1\n      dup3\n      add\n      dup5\n      sstore\n      0x00\n      swap4\n      dup5\n      mstore\n      0x20\n      swap4\n      dup5\n      swap1\n      keccak256\n      dup4\n      mload\n      0x07\n      swap1\n      swap4\n      mul\n      add\n      swap2\n      dup3\n      sstore\n      swap3\n      dup3\n      add\n      mload\n      swap3\n      dup2\n      add\n      dup1\n      sload\n      not(sub(shl(0xa0, 0x01), 0x01))\n      and\n      sub(shl(0xa0, 0x01), 0x01)\n      swap1\n      swap5\n      and\n      swap4\n      swap1\n      swap4\n      or\n      swap1\n      swap3\n      sstore\n      0x40\n      dup2\n      add\n      mload\n      swap1\n      swap2\n      swap1\n      0x02\n      dup3\n      add\n      swap1\n      tag_573\n      swap1\n      dup3\n      tag_417\n      jump\t// in\n    tag_573:\n      pop\n      0x60\n      dup3\n      add\n      mload\n      0x03\n      dup3\n      add\n      swap1\n      tag_574\n      swap1\n      dup3\n      tag_417\n      jump\t// in\n    tag_574:\n      pop\n      0x80\n      dup3\n      add\n      mload\n      0x04\n      dup3\n      add\n      sstore\n      0xa0\n      dup3\n      add\n      mload\n      0x05\n      dup3\n      add\n      sstore\n      0xc0\n      dup3\n      add\n      mload\n      0x06\n      swap1\n      swap2\n      add\n      dup1\n      sload\n      0xe0\n      swap1\n      swap4\n      add\n      mload\n      iszero\n      iszero\n      0x0100\n      mul\n      not(0xff00)\n      swap3\n      iszero\n      iszero\n      swap3\n      swap1\n      swap3\n      and\n      not(0xffff)\n      swap1\n      swap4\n      and\n      swap3\n      swap1\n      swap3\n      or\n      or\n      swap1\n      sstore\n      pop\n      pop\n      pop\n      pop\n      pop\n        /* \"smart-contracts/playground/main/Canvassing.sol\":9913:11141  function participateInSurvey(... */\n      jump\t// out\n        /* \"smart-contracts/playground/main/Canvassing.sol\":19256:19414  function getAnswersOfSurvey(uint256 _surveyId)... */\n    tag_206:\n        /* \"smart-contracts/playground/main/Canvassing.sol\":19348:19363  Answer[] memory */\n      0x60\n        /* \"smart-contracts/playground/main/Canvassing.sol\":19386:19396  allAnswers */\n      0x05\n        /* \"smart-contracts/playground/main/Canvassing.sol\":19386:19407  allAnswers[_surveyId] */\n      0x00\n        /* \"smart-contracts/playground/main/Canvassing.sol\":19397:19406  _surveyId */\n      dup4\n        /* \"smart-contracts/playground/main/Canvassing.sol\":19386:19407  allAnswers[_surveyId] */\n      dup2\n      mstore\n      0x20\n      add\n      swap1\n      dup2\n      mstore\n      0x20\n      add\n      0x00\n      keccak256\n        /* \"smart-contracts/playground/main/Canvassing.sol\":19379:19407  return allAnswers[_surveyId] */\n      dup1\n      sload\n      dup1\n      0x20\n      mul\n      0x20\n      add\n      mload(0x40)\n      swap1\n      dup2\n      add\n      0x40\n      mstore\n      dup1\n      swap3\n      swap2\n      swap1\n      dup2\n      dup2\n      mstore\n      0x20\n      add\n      0x00\n      swap1\n    tag_576:\n      dup3\n      dup3\n      lt\n      iszero\n      tag_520\n      jumpi\n      0x00\n      dup5\n      dup2\n      mstore\n      0x20\n      swap1\n      dup2\n      swap1\n      keccak256\n      0x40\n      dup1\n      mload\n      0xc0\n      dup2\n      add\n      dup3\n      mstore\n      0x04\n      dup7\n      mul\n      swap1\n      swap3\n      add\n      dup1\n      sload\n      dup4\n      mstore\n      0x01\n      dup1\n      dup3\n      add\n      sload\n      dup5\n      dup7\n      add\n      mstore\n      0x02\n      dup3\n      add\n      sload\n      swap3\n      dup5\n      add\n      swap3\n      swap1\n      swap3\n      mstore\n      0x03\n      add\n      sload\n      sub(shl(0xa0, 0x01), 0x01)\n      dup2\n      and\n      0x60\n      dup5\n      add\n      mstore\n      0xff\n      shl(0xa0, 0x01)\n      dup3\n      div\n      dup2\n      and\n      iszero\n      iszero\n      0x80\n      dup6\n      add\n      mstore\n      shl(0xa8, 0x01)\n      swap1\n      swap2\n      div\n      and\n      iszero\n      iszero\n      0xa0\n      dup4\n      add\n      mstore\n      swap1\n      dup4\n      mstore\n      swap1\n      swap3\n      add\n      swap2\n      add\n      jump(tag_576)\n        /* \"smart-contracts/playground/main/Canvassing.sol\":6243:6410  function getAllQuestionsOfSurvey(uint256 _surveyId)... */\n    tag_210:\n        /* \"smart-contracts/playground/main/Canvassing.sol\":6340:6357  Question[] memory */\n      0x60\n        /* \"smart-contracts/playground/main/Canvassing.sol\":6380:6392  allQuestions */\n      0x04\n        /* \"smart-contracts/playground/main/Canvassing.sol\":6380:6403  allQuestions[_surveyId] */\n      0x00\n        /* \"smart-contracts/playground/main/Canvassing.sol\":6393:6402  _surveyId */\n      dup4\n        /* \"smart-contracts/playground/main/Canvassing.sol\":6380:6403  allQuestions[_surveyId] */\n      dup2\n      mstore\n      0x20\n      add\n      swap1\n      dup2\n      mstore\n      0x20\n      add\n      0x00\n      keccak256\n        /* \"smart-contracts/playground/main/Canvassing.sol\":6373:6403  return allQuestions[_surveyId] */\n      dup1\n      sload\n      dup1\n      0x20\n      mul\n      0x20\n      add\n      mload(0x40)\n      swap1\n      dup2\n      add\n      0x40\n      mstore\n      dup1\n      swap3\n      swap2\n      swap1\n      dup2\n      dup2\n      mstore\n      0x20\n      add\n      0x00\n      swap1\n    tag_580:\n      dup3\n      dup3\n      lt\n      iszero\n      tag_520\n      jumpi\n      dup4\n      dup3\n      swap1\n      0x00\n      mstore\n      keccak256(0x00, 0x20)\n      swap1\n      0x04\n      mul\n      add\n      mload(0x40)\n      dup1\n      0x80\n      add\n      0x40\n      mstore\n      swap1\n      dup2\n      0x00\n      dup3\n      add\n      sload\n      dup2\n      mstore\n      0x20\n      add\n      0x01\n      dup3\n      add\n      sload\n      dup2\n      mstore\n      0x20\n      add\n      0x02\n      dup3\n      add\n      dup1\n      sload\n      tag_583\n      swap1\n      tag_244\n      jump\t// in\n    tag_583:\n      dup1\n      0x1f\n      add\n      0x20\n      dup1\n      swap2\n      div\n      mul\n      0x20\n      add\n      mload(0x40)\n      swap1\n      dup2\n      add\n      0x40\n      mstore\n      dup1\n      swap3\n      swap2\n      swap1\n      dup2\n      dup2\n      mstore\n      0x20\n      add\n      dup3\n      dup1\n      sload\n      tag_584\n      swap1\n      tag_244\n      jump\t// in\n    tag_584:\n      dup1\n      iszero\n      tag_585\n      jumpi\n      dup1\n      0x1f\n      lt\n      tag_586\n      jumpi\n      0x0100\n      dup1\n      dup4\n      sload\n      div\n      mul\n      dup4\n      mstore\n      swap2\n      0x20\n      add\n      swap2\n      jump(tag_585)\n    tag_586:\n      dup3\n      add\n      swap2\n      swap1\n      0x00\n      mstore\n      keccak256(0x00, 0x20)\n      swap1\n    tag_587:\n      dup2\n      sload\n      dup2\n      mstore\n      swap1\n      0x01\n      add\n      swap1\n      0x20\n      add\n      dup1\n      dup4\n      gt\n      tag_587\n      jumpi\n      dup3\n      swap1\n      sub\n      0x1f\n      and\n      dup3\n      add\n      swap2\n    tag_585:\n      pop\n      pop\n      pop\n      swap2\n      dup4\n      mstore\n      pop\n      pop\n      0x03\n      swap2\n      swap1\n      swap2\n      add\n      sload\n      0xff\n      and\n      iszero\n      iszero\n      0x20\n      swap2\n      dup3\n      add\n      mstore\n      swap1\n      dup3\n      mstore\n      0x01\n      swap3\n      swap1\n      swap3\n      add\n      swap2\n      add\n      jump(tag_580)\n        /* \"smart-contracts/playground/main/Canvassing.sol\":402:454  mapping(address => Researcher) public allResearchers */\n    tag_215:\n      0x01\n      0x20\n      dup2\n      swap1\n      mstore\n      0x00\n      swap2\n      dup3\n      mstore\n      0x40\n      swap1\n      swap2\n      keccak256\n      dup1\n      sload\n      swap2\n      dup2\n      add\n      sload\n      0x02\n      dup3\n      add\n      dup1\n      sload\n      sub(shl(0xa0, 0x01), 0x01)\n      swap1\n      swap3\n      and\n      swap3\n      swap2\n      tag_588\n      swap1\n      tag_244\n      jump\t// in\n    tag_588:\n      dup1\n      0x1f\n      add\n      0x20\n      dup1\n      swap2\n      div\n      mul\n      0x20\n      add\n      mload(0x40)\n      swap1\n      dup2\n      add\n      0x40\n      mstore\n      dup1\n      swap3\n      swap2\n      swap1\n      dup2\n      dup2\n      mstore\n      0x20\n      add\n      dup3\n      dup1\n      sload\n      tag_589\n      swap1\n      tag_244\n      jump\t// in\n    tag_589:\n      dup1\n      iszero\n      tag_590\n      jumpi\n      dup1\n      0x1f\n      lt\n      tag_591\n      jumpi\n      0x0100\n      dup1\n      dup4\n      sload\n      div\n      mul\n      dup4\n      mstore\n      swap2\n      0x20\n      add\n      swap2\n      jump(tag_590)\n    tag_591:\n      dup3\n      add\n      swap2\n      swap1\n      0x00\n      mstore\n      keccak256(0x00, 0x20)\n      swap1\n    tag_592:\n      dup2\n      sload\n      dup2\n      mstore\n      swap1\n      0x01\n      add\n      swap1\n      0x20\n      add\n      dup1\n      dup4\n      gt\n      tag_592\n      jumpi\n      dup3\n      swap1\n      sub\n      0x1f\n      and\n      dup3\n      add\n      swap2\n    tag_590:\n      pop\n      pop\n      pop\n      pop\n      0x03\n      dup4\n      add\n      sload\n      0x04\n      swap1\n      swap4\n      add\n      sload\n      swap2\n      swap3\n      swap2\n      0xff\n      dup1\n      dup3\n      and\n      swap3\n      pop\n      0x0100\n      dup3\n      div\n      dup2\n      and\n      swap2\n      0x010000\n      swap1\n      div\n      and\n      dup8\n      jump\t// out\n        /* \"smart-contracts/playground/main/Canvassing.sol\":626:676  mapping(uint256 => Question[]) public allQuestions */\n    tag_220:\n      mstore(0x20, 0x04)\n      dup2\n      0x00\n      mstore\n      keccak256(0x00, 0x40)\n      dup2\n      dup2\n      sload\n      dup2\n      lt\n      tag_593\n      jumpi\n      0x00\n      dup1\n      revert\n    tag_593:\n      swap1\n      0x00\n      mstore\n      keccak256(0x00, 0x20)\n      swap1\n      0x04\n      mul\n      add\n      0x00\n      swap2\n      pop\n      swap2\n      pop\n      pop\n      dup1\n      0x00\n      add\n      sload\n      swap1\n      dup1\n      0x01\n      add\n      sload\n      swap1\n      dup1\n      0x02\n      add\n      dup1\n      sload\n      tag_595\n      swap1\n      tag_244\n      jump\t// in\n    tag_595:\n      dup1\n      0x1f\n      add\n      0x20\n      dup1\n      swap2\n      div\n      mul\n      0x20\n      add\n      mload(0x40)\n      swap1\n      dup2\n      add\n      0x40\n      mstore\n      dup1\n      swap3\n      swap2\n      swap1\n      dup2\n      dup2\n      mstore\n      0x20\n      add\n      dup3\n      dup1\n      sload\n      tag_596\n      swap1\n      tag_244\n      jump\t// in\n    tag_596:\n      dup1\n      iszero\n      tag_597\n      jumpi\n      dup1\n      0x1f\n      lt\n      tag_598\n      jumpi\n      0x0100\n      dup1\n      dup4\n      sload\n      div\n      mul\n      dup4\n      mstore\n      swap2\n      0x20\n      add\n      swap2\n      jump(tag_597)\n    tag_598:\n      dup3\n      add\n      swap2\n      swap1\n      0x00\n      mstore\n      keccak256(0x00, 0x20)\n      swap1\n    tag_599:\n      dup2\n      sload\n      dup2\n      mstore\n      swap1\n      0x01\n      add\n      swap1\n      0x20\n      add\n      dup1\n      dup4\n      gt\n      tag_599\n      jumpi\n      dup3\n      swap1\n      sub\n      0x1f\n      and\n      dup3\n      add\n      swap2\n    tag_597:\n      pop\n      pop\n      pop\n      0x03\n      swap1\n      swap4\n      add\n      sload\n      swap2\n      swap3\n      pop\n      pop\n      0xff\n      and\n      dup5\n      jump\t// out\n    tag_241:\n      mload(0x40)\n      dup1\n      0xe0\n      add\n      0x40\n      mstore\n      dup1\n      0x00\n      dup2\n      mstore\n      0x20\n      add\n      and(sub(shl(0xa0, 0x01), 0x01), 0x00)\n      dup2\n      mstore\n      0x20\n      add\n      0x60\n      dup2\n      mstore\n      0x20\n      add\n      0x00\n      dup2\n      mstore\n      0x20\n      add\n      iszero(iszero(0x00))\n      dup2\n      mstore\n      0x20\n      add\n      iszero(iszero(0x00))\n      dup2\n      mstore\n      0x20\n      add\n      iszero(iszero(0x00))\n      dup2\n      mstore\n      pop\n      swap1\n      jump\t// out\n    tag_256:\n      mload(0x40)\n      dup1\n      0xe0\n      add\n      0x40\n      mstore\n      dup1\n      0x00\n      dup2\n      mstore\n      0x20\n      add\n      and(sub(shl(0xa0, 0x01), 0x01), 0x00)\n      dup2\n      mstore\n      0x20\n      add\n      0x60\n      dup2\n      mstore\n      0x20\n      add\n      0x00\n      dup2\n      mstore\n      0x20\n      add\n      0x00\n      dup2\n      mstore\n      0x20\n      add\n      0x00\n      dup2\n      mstore\n      0x20\n      add\n      iszero(iszero(0x00))\n      dup2\n      mstore\n      pop\n      swap1\n      jump\t// out\n    tag_333:\n      mload(0x40)\n      dup1\n      0xc0\n      add\n      0x40\n      mstore\n      dup1\n      0x00\n      dup2\n      mstore\n      0x20\n      add\n      0x00\n      dup2\n      mstore\n      0x20\n      add\n      0x00\n      dup2\n      mstore\n      0x20\n      add\n      and(sub(shl(0xa0, 0x01), 0x01), 0x00)\n      dup2\n      mstore\n      0x20\n      add\n      iszero(iszero(0x00))\n      dup2\n      mstore\n      0x20\n      add\n      iszero(iszero(0x00))\n      dup2\n      mstore\n      pop\n      swap1\n      jump\t// out\n    tag_346:\n      mload(0x40)\n      dup1\n      0x0100\n      add\n      0x40\n      mstore\n      dup1\n      0x00\n      dup2\n      mstore\n      0x20\n      add\n      and(sub(shl(0xa0, 0x01), 0x01), 0x00)\n      dup2\n      mstore\n      0x20\n      add\n      0x60\n      dup2\n      mstore\n      0x20\n      add\n      0x60\n      dup2\n      mstore\n      0x20\n      add\n      0x00\n      dup2\n      mstore\n      0x20\n      add\n      0x00\n      dup2\n      mstore\n      0x20\n      add\n      iszero(iszero(0x00))\n      dup2\n      mstore\n      0x20\n      add\n      iszero(iszero(0x00))\n      dup2\n      mstore\n      pop\n      swap1\n      jump\t// out\n    tag_364:\n      mload(0x40)\n      dup1\n      0xa0\n      add\n      0x40\n      mstore\n      dup1\n      0x00\n      dup2\n      mstore\n      0x20\n      add\n      0x00\n      dup2\n      mstore\n      0x20\n      add\n      and(sub(shl(0xa0, 0x01), 0x01), 0x00)\n      dup2\n      mstore\n      0x20\n      add\n      0x00\n      dup2\n      mstore\n      0x20\n      add\n      iszero(iszero(0x00))\n      dup2\n      mstore\n      pop\n      swap1\n      jump\t// out\n        /* \"#utility.yul\":14:262   */\n    tag_51:\n        /* \"#utility.yul\":82:88   */\n      0x00\n        /* \"#utility.yul\":90:96   */\n      dup1\n        /* \"#utility.yul\":143:145   */\n      0x40\n        /* \"#utility.yul\":131:140   */\n      dup4\n        /* \"#utility.yul\":122:129   */\n      dup6\n        /* \"#utility.yul\":118:141   */\n      sub\n        /* \"#utility.yul\":114:146   */\n      slt\n        /* \"#utility.yul\":111:163   */\n      iszero\n      tag_617\n      jumpi\n        /* \"#utility.yul\":159:160   */\n      0x00\n        /* \"#utility.yul\":156:157   */\n      dup1\n        /* \"#utility.yul\":149:161   */\n      revert\n        /* \"#utility.yul\":111:163   */\n    tag_617:\n      pop\n      pop\n        /* \"#utility.yul\":182:205   */\n      dup1\n      calldataload\n      swap3\n        /* \"#utility.yul\":252:254   */\n      0x20\n        /* \"#utility.yul\":237:255   */\n      swap1\n      swap2\n      add\n        /* \"#utility.yul\":224:256   */\n      calldataload\n      swap2\n      pop\n        /* \"#utility.yul\":14:262   */\n      jump\t// out\n        /* \"#utility.yul\":449:622   */\n    tag_600:\n        /* \"#utility.yul\":517:537   */\n      dup1\n      calldataload\n      sub(shl(0xa0, 0x01), 0x01)\n        /* \"#utility.yul\":566:597   */\n      dup2\n      and\n        /* \"#utility.yul\":556:598   */\n      dup2\n      eq\n        /* \"#utility.yul\":546:616   */\n      tag_620\n      jumpi\n        /* \"#utility.yul\":612:613   */\n      0x00\n        /* \"#utility.yul\":609:610   */\n      dup1\n        /* \"#utility.yul\":602:614   */\n      revert\n        /* \"#utility.yul\":546:616   */\n    tag_620:\n        /* \"#utility.yul\":449:622   */\n      swap2\n      swap1\n      pop\n      jump\t// out\n        /* \"#utility.yul\":627:813   */\n    tag_57:\n        /* \"#utility.yul\":686:692   */\n      0x00\n        /* \"#utility.yul\":739:741   */\n      0x20\n        /* \"#utility.yul\":727:736   */\n      dup3\n        /* \"#utility.yul\":718:725   */\n      dup5\n        /* \"#utility.yul\":714:737   */\n      sub\n        /* \"#utility.yul\":710:742   */\n      slt\n        /* \"#utility.yul\":707:759   */\n      iszero\n      tag_622\n      jumpi\n        /* \"#utility.yul\":755:756   */\n      0x00\n        /* \"#utility.yul\":752:753   */\n      dup1\n        /* \"#utility.yul\":745:757   */\n      revert\n        /* \"#utility.yul\":707:759   */\n    tag_622:\n        /* \"#utility.yul\":778:807   */\n      tag_623\n        /* \"#utility.yul\":797:806   */\n      dup3\n        /* \"#utility.yul\":778:807   */\n      tag_600\n      jump\t// in\n    tag_623:\n        /* \"#utility.yul\":768:807   */\n      swap4\n        /* \"#utility.yul\":627:813   */\n      swap3\n      pop\n      pop\n      pop\n      jump\t// out\n        /* \"#utility.yul\":818:1241   */\n    tag_601:\n        /* \"#utility.yul\":860:863   */\n      0x00\n        /* \"#utility.yul\":898:903   */\n      dup2\n        /* \"#utility.yul\":892:904   */\n      mload\n        /* \"#utility.yul\":925:931   */\n      dup1\n        /* \"#utility.yul\":920:923   */\n      dup5\n        /* \"#utility.yul\":913:932   */\n      mstore\n        /* \"#utility.yul\":950:951   */\n      0x00\n        /* \"#utility.yul\":960:1122   */\n    tag_625:\n        /* \"#utility.yul\":974:980   */\n      dup2\n        /* \"#utility.yul\":971:972   */\n      dup2\n        /* \"#utility.yul\":968:981   */\n      lt\n        /* \"#utility.yul\":960:1122   */\n      iszero\n      tag_627\n      jumpi\n        /* \"#utility.yul\":1036:1040   */\n      0x20\n        /* \"#utility.yul\":1092:1105   */\n      dup2\n      dup6\n      add\n        /* \"#utility.yul\":1088:1110   */\n      dup2\n      add\n        /* \"#utility.yul\":1082:1111   */\n      mload\n        /* \"#utility.yul\":1064:1075   */\n      dup7\n      dup4\n      add\n        /* \"#utility.yul\":1060:1080   */\n      dup3\n      add\n        /* \"#utility.yul\":1053:1112   */\n      mstore\n        /* \"#utility.yul\":989:1001   */\n      add\n        /* \"#utility.yul\":960:1122   */\n      jump(tag_625)\n    tag_627:\n        /* \"#utility.yul\":964:967   */\n      pop\n        /* \"#utility.yul\":1167:1168   */\n      0x00\n        /* \"#utility.yul\":1160:1164   */\n      0x20\n        /* \"#utility.yul\":1151:1157   */\n      dup3\n        /* \"#utility.yul\":1146:1149   */\n      dup7\n        /* \"#utility.yul\":1142:1158   */\n      add\n        /* \"#utility.yul\":1138:1165   */\n      add\n        /* \"#utility.yul\":1131:1169   */\n      mstore\n        /* \"#utility.yul\":1230:1234   */\n      0x20\n        /* \"#utility.yul\":1223:1225   */\n      0x1f\n        /* \"#utility.yul\":1219:1226   */\n      not\n        /* \"#utility.yul\":1214:1216   */\n      0x1f\n        /* \"#utility.yul\":1206:1212   */\n      dup4\n        /* \"#utility.yul\":1202:1217   */\n      add\n        /* \"#utility.yul\":1198:1227   */\n      and\n        /* \"#utility.yul\":1193:1196   */\n      dup6\n        /* \"#utility.yul\":1189:1228   */\n      add\n        /* \"#utility.yul\":1185:1235   */\n      add\n        /* \"#utility.yul\":1178:1235   */\n      swap2\n      pop\n      pop\n        /* \"#utility.yul\":818:1241   */\n      swap3\n      swap2\n      pop\n      pop\n      jump\t// out\n        /* \"#utility.yul\":1342:2153   */\n    tag_60:\n        /* \"#utility.yul\":1527:1529   */\n      0x20\n        /* \"#utility.yul\":1516:1525   */\n      dup2\n        /* \"#utility.yul\":1509:1530   */\n      mstore\n        /* \"#utility.yul\":1572:1578   */\n      dup2\n        /* \"#utility.yul\":1566:1579   */\n      mload\n        /* \"#utility.yul\":1561:1563   */\n      0x20\n        /* \"#utility.yul\":1550:1559   */\n      dup3\n        /* \"#utility.yul\":1546:1564   */\n      add\n        /* \"#utility.yul\":1539:1580   */\n      mstore\n        /* \"#utility.yul\":1661:1662   */\n      0x01\n        /* \"#utility.yul\":1657:1658   */\n      dup1\n        /* \"#utility.yul\":1652:1655   */\n      0xa0\n        /* \"#utility.yul\":1648:1659   */\n      shl\n        /* \"#utility.yul\":1644:1663   */\n      sub\n        /* \"#utility.yul\":1638:1640   */\n      0x20\n        /* \"#utility.yul\":1630:1636   */\n      dup4\n        /* \"#utility.yul\":1626:1641   */\n      add\n        /* \"#utility.yul\":1620:1642   */\n      mload\n        /* \"#utility.yul\":1616:1664   */\n      and\n        /* \"#utility.yul\":1611:1613   */\n      0x40\n        /* \"#utility.yul\":1600:1609   */\n      dup3\n        /* \"#utility.yul\":1596:1614   */\n      add\n        /* \"#utility.yul\":1589:1665   */\n      mstore\n        /* \"#utility.yul\":1490:1494   */\n      0x00\n        /* \"#utility.yul\":1712:1714   */\n      0x40\n        /* \"#utility.yul\":1704:1710   */\n      dup4\n        /* \"#utility.yul\":1700:1715   */\n      add\n        /* \"#utility.yul\":1694:1716   */\n      mload\n        /* \"#utility.yul\":1752:1756   */\n      0xe0\n        /* \"#utility.yul\":1747:1749   */\n      0x60\n        /* \"#utility.yul\":1736:1745   */\n      dup5\n        /* \"#utility.yul\":1732:1750   */\n      add\n        /* \"#utility.yul\":1725:1757   */\n      mstore\n        /* \"#utility.yul\":1780:1832   */\n      tag_630\n        /* \"#utility.yul\":1827:1830   */\n      0x0100\n        /* \"#utility.yul\":1816:1825   */\n      dup5\n        /* \"#utility.yul\":1812:1831   */\n      add\n        /* \"#utility.yul\":1798:1810   */\n      dup3\n        /* \"#utility.yul\":1780:1832   */\n      tag_601\n      jump\t// in\n    tag_630:\n        /* \"#utility.yul\":1766:1832   */\n      swap1\n      pop\n        /* \"#utility.yul\":1887:1889   */\n      0x60\n        /* \"#utility.yul\":1879:1885   */\n      dup5\n        /* \"#utility.yul\":1875:1890   */\n      add\n        /* \"#utility.yul\":1869:1891   */\n      mload\n        /* \"#utility.yul\":1863:1866   */\n      0x80\n        /* \"#utility.yul\":1852:1861   */\n      dup5\n        /* \"#utility.yul\":1848:1867   */\n      add\n        /* \"#utility.yul\":1841:1892   */\n      mstore\n        /* \"#utility.yul\":1961:1964   */\n      0x80\n        /* \"#utility.yul\":1953:1959   */\n      dup5\n        /* \"#utility.yul\":1949:1965   */\n      add\n        /* \"#utility.yul\":1943:1966   */\n      mload\n        /* \"#utility.yul\":1936:1967   */\n      iszero\n        /* \"#utility.yul\":1929:1968   */\n      iszero\n        /* \"#utility.yul\":1923:1926   */\n      0xa0\n        /* \"#utility.yul\":1912:1921   */\n      dup5\n        /* \"#utility.yul\":1908:1927   */\n      add\n        /* \"#utility.yul\":1901:1969   */\n      mstore\n        /* \"#utility.yul\":2038:2041   */\n      0xa0\n        /* \"#utility.yul\":2030:2036   */\n      dup5\n        /* \"#utility.yul\":2026:2042   */\n      add\n        /* \"#utility.yul\":2020:2043   */\n      mload\n        /* \"#utility.yul\":2013:2044   */\n      iszero\n        /* \"#utility.yul\":2006:2045   */\n      iszero\n        /* \"#utility.yul\":2000:2003   */\n      0xc0\n        /* \"#utility.yul\":1989:1998   */\n      dup5\n        /* \"#utility.yul\":1985:2004   */\n      add\n        /* \"#utility.yul\":1978:2046   */\n      mstore\n        /* \"#utility.yul\":2116:2119   */\n      0xc0\n        /* \"#utility.yul\":2108:2114   */\n      dup5\n        /* \"#utility.yul\":2104:2120   */\n      add\n        /* \"#utility.yul\":2098:2121   */\n      mload\n        /* \"#utility.yul\":2091:2122   */\n      iszero\n        /* \"#utility.yul\":2084:2123   */\n      iszero\n        /* \"#utility.yul\":2077:2081   */\n      0xe0\n        /* \"#utility.yul\":2066:2075   */\n      dup5\n        /* \"#utility.yul\":2062:2082   */\n      add\n        /* \"#utility.yul\":2055:2124   */\n      mstore\n        /* \"#utility.yul\":2141:2147   */\n      dup1\n        /* \"#utility.yul\":2133:2147   */\n      swap2\n      pop\n      pop\n        /* \"#utility.yul\":1342:2153   */\n      swap3\n      swap2\n      pop\n      pop\n      jump\t// out\n        /* \"#utility.yul\":2158:2755   */\n    tag_603:\n        /* \"#utility.yul\":2243:2248   */\n      dup1\n        /* \"#utility.yul\":2237:2249   */\n      mload\n        /* \"#utility.yul\":2232:2235   */\n      dup3\n        /* \"#utility.yul\":2225:2250   */\n      mstore\n        /* \"#utility.yul\":2328:2329   */\n      0x01\n        /* \"#utility.yul\":2324:2325   */\n      dup1\n        /* \"#utility.yul\":2319:2322   */\n      0xa0\n        /* \"#utility.yul\":2315:2326   */\n      shl\n        /* \"#utility.yul\":2311:2330   */\n      sub\n        /* \"#utility.yul\":2303:2307   */\n      0x20\n        /* \"#utility.yul\":2296:2301   */\n      dup3\n        /* \"#utility.yul\":2292:2308   */\n      add\n        /* \"#utility.yul\":2286:2309   */\n      mload\n        /* \"#utility.yul\":2282:2331   */\n      and\n        /* \"#utility.yul\":2275:2279   */\n      0x20\n        /* \"#utility.yul\":2270:2273   */\n      dup4\n        /* \"#utility.yul\":2266:2280   */\n      add\n        /* \"#utility.yul\":2259:2332   */\n      mstore\n        /* \"#utility.yul\":2207:2210   */\n      0x00\n        /* \"#utility.yul\":2378:2382   */\n      0x40\n        /* \"#utility.yul\":2371:2376   */\n      dup3\n        /* \"#utility.yul\":2367:2383   */\n      add\n        /* \"#utility.yul\":2361:2384   */\n      mload\n        /* \"#utility.yul\":2416:2420   */\n      0xe0\n        /* \"#utility.yul\":2409:2413   */\n      0x40\n        /* \"#utility.yul\":2404:2407   */\n      dup6\n        /* \"#utility.yul\":2400:2414   */\n      add\n        /* \"#utility.yul\":2393:2421   */\n      mstore\n        /* \"#utility.yul\":2442:2489   */\n      tag_632\n        /* \"#utility.yul\":2483:2487   */\n      0xe0\n        /* \"#utility.yul\":2478:2481   */\n      dup6\n        /* \"#utility.yul\":2474:2488   */\n      add\n        /* \"#utility.yul\":2460:2472   */\n      dup3\n        /* \"#utility.yul\":2442:2489   */\n      tag_601\n      jump\t// in\n    tag_632:\n        /* \"#utility.yul\":2430:2489   */\n      swap1\n      pop\n        /* \"#utility.yul\":2538:2542   */\n      0x60\n        /* \"#utility.yul\":2531:2536   */\n      dup4\n        /* \"#utility.yul\":2527:2543   */\n      add\n        /* \"#utility.yul\":2521:2544   */\n      mload\n        /* \"#utility.yul\":2514:2518   */\n      0x60\n        /* \"#utility.yul\":2509:2512   */\n      dup6\n        /* \"#utility.yul\":2505:2519   */\n      add\n        /* \"#utility.yul\":2498:2545   */\n      mstore\n        /* \"#utility.yul\":2594:2598   */\n      0x80\n        /* \"#utility.yul\":2587:2592   */\n      dup4\n        /* \"#utility.yul\":2583:2599   */\n      add\n        /* \"#utility.yul\":2577:2600   */\n      mload\n        /* \"#utility.yul\":2570:2574   */\n      0x80\n        /* \"#utility.yul\":2565:2568   */\n      dup6\n        /* \"#utility.yul\":2561:2575   */\n      add\n        /* \"#utility.yul\":2554:2601   */\n      mstore\n        /* \"#utility.yul\":2650:2654   */\n      0xa0\n        /* \"#utility.yul\":2643:2648   */\n      dup4\n        /* \"#utility.yul\":2639:2655   */\n      add\n        /* \"#utility.yul\":2633:2656   */\n      mload\n        /* \"#utility.yul\":2626:2630   */\n      0xa0\n        /* \"#utility.yul\":2621:2624   */\n      dup6\n        /* \"#utility.yul\":2617:2631   */\n      add\n        /* \"#utility.yul\":2610:2657   */\n      mstore\n        /* \"#utility.yul\":2720:2724   */\n      0xc0\n        /* \"#utility.yul\":2713:2718   */\n      dup4\n        /* \"#utility.yul\":2709:2725   */\n      add\n        /* \"#utility.yul\":2703:2726   */\n      mload\n        /* \"#utility.yul\":2696:2727   */\n      iszero\n        /* \"#utility.yul\":2689:2728   */\n      iszero\n        /* \"#utility.yul\":2682:2686   */\n      0xc0\n        /* \"#utility.yul\":2677:2680   */\n      dup6\n        /* \"#utility.yul\":2673:2687   */\n      add\n        /* \"#utility.yul\":2666:2729   */\n      mstore\n        /* \"#utility.yul\":2745:2749   */\n      dup1\n        /* \"#utility.yul\":2738:2749   */\n      swap2\n      pop\n      pop\n        /* \"#utility.yul\":2158:2755   */\n      swap3\n      swap2\n      pop\n      pop\n      jump\t// out\n        /* \"#utility.yul\":2760:3598   */\n    tag_65:\n        /* \"#utility.yul\":2950:2954   */\n      0x00\n        /* \"#utility.yul\":2979:2981   */\n      0x20\n        /* \"#utility.yul\":3019:3021   */\n      dup1\n        /* \"#utility.yul\":3008:3017   */\n      dup4\n        /* \"#utility.yul\":3004:3022   */\n      add\n        /* \"#utility.yul\":3049:3051   */\n      dup2\n        /* \"#utility.yul\":3038:3047   */\n      dup5\n        /* \"#utility.yul\":3031:3052   */\n      mstore\n        /* \"#utility.yul\":3072:3078   */\n      dup1\n        /* \"#utility.yul\":3107:3113   */\n      dup6\n        /* \"#utility.yul\":3101:3114   */\n      mload\n        /* \"#utility.yul\":3138:3144   */\n      dup1\n        /* \"#utility.yul\":3130:3136   */\n      dup4\n        /* \"#utility.yul\":3123:3145   */\n      mstore\n        /* \"#utility.yul\":3176:3178   */\n      0x40\n        /* \"#utility.yul\":3165:3174   */\n      dup7\n        /* \"#utility.yul\":3161:3179   */\n      add\n        /* \"#utility.yul\":3154:3179   */\n      swap2\n      pop\n        /* \"#utility.yul\":3238:3240   */\n      0x40\n        /* \"#utility.yul\":3228:3234   */\n      dup2\n        /* \"#utility.yul\":3225:3226   */\n      0x05\n        /* \"#utility.yul\":3221:3235   */\n      shl\n        /* \"#utility.yul\":3210:3219   */\n      dup8\n        /* \"#utility.yul\":3206:3236   */\n      add\n        /* \"#utility.yul\":3202:3241   */\n      add\n        /* \"#utility.yul\":3188:3241   */\n      swap3\n      pop\n        /* \"#utility.yul\":3276:3278   */\n      dup4\n        /* \"#utility.yul\":3268:3274   */\n      dup8\n        /* \"#utility.yul\":3264:3279   */\n      add\n        /* \"#utility.yul\":3297:3298   */\n      0x00\n        /* \"#utility.yul\":3307:3569   */\n    tag_634:\n        /* \"#utility.yul\":3321:3327   */\n      dup3\n        /* \"#utility.yul\":3318:3319   */\n      dup2\n        /* \"#utility.yul\":3315:3328   */\n      lt\n        /* \"#utility.yul\":3307:3569   */\n      iszero\n      tag_636\n      jumpi\n        /* \"#utility.yul\":3414:3416   */\n      0x3f\n        /* \"#utility.yul\":3410:3417   */\n      not\n        /* \"#utility.yul\":3398:3407   */\n      dup9\n        /* \"#utility.yul\":3390:3396   */\n      dup7\n        /* \"#utility.yul\":3386:3408   */\n      sub\n        /* \"#utility.yul\":3382:3418   */\n      add\n        /* \"#utility.yul\":3377:3380   */\n      dup5\n        /* \"#utility.yul\":3370:3419   */\n      mstore\n        /* \"#utility.yul\":3442:3489   */\n      tag_637\n        /* \"#utility.yul\":3482:3488   */\n      dup6\n        /* \"#utility.yul\":3473:3479   */\n      dup4\n        /* \"#utility.yul\":3467:3480   */\n      mload\n        /* \"#utility.yul\":3442:3489   */\n      tag_603\n      jump\t// in\n    tag_637:\n        /* \"#utility.yul\":3432:3489   */\n      swap5\n      pop\n        /* \"#utility.yul\":3547:3559   */\n      swap3\n      dup6\n      add\n      swap3\n        /* \"#utility.yul\":3512:3527   */\n      swap1\n      dup6\n      add\n      swap1\n        /* \"#utility.yul\":3343:3344   */\n      0x01\n        /* \"#utility.yul\":3336:3345   */\n      add\n        /* \"#utility.yul\":3307:3569   */\n      jump(tag_634)\n    tag_636:\n      pop\n        /* \"#utility.yul\":3586:3592   */\n      swap3\n      swap8\n        /* \"#utility.yul\":2760:3598   */\n      swap7\n      pop\n      pop\n      pop\n      pop\n      pop\n      pop\n      pop\n      jump\t// out\n        /* \"#utility.yul\":3603:4484   */\n    tag_70:\n        /* \"#utility.yul\":3960:3985   */\n      dup9\n      dup2\n      mstore\n      sub(shl(0xa0, 0x01), 0x01)\n        /* \"#utility.yul\":4021:4053   */\n      dup9\n      and\n        /* \"#utility.yul\":4016:4018   */\n      0x20\n        /* \"#utility.yul\":4001:4019   */\n      dup3\n      add\n        /* \"#utility.yul\":3994:4054   */\n      mstore\n        /* \"#utility.yul\":3948:3951   */\n      0x0100\n        /* \"#utility.yul\":4085:4087   */\n      0x40\n        /* \"#utility.yul\":4070:4088   */\n      dup3\n      add\n        /* \"#utility.yul\":4063:4093   */\n      dup2\n      swap1\n      mstore\n        /* \"#utility.yul\":3919:3923   */\n      0x00\n      swap1\n        /* \"#utility.yul\":4116:4161   */\n      tag_639\n        /* \"#utility.yul\":4142:4160   */\n      dup4\n      dup3\n      add\n        /* \"#utility.yul\":4134:4140   */\n      dup11\n        /* \"#utility.yul\":4116:4161   */\n      tag_601\n      jump\t// in\n    tag_639:\n        /* \"#utility.yul\":4102:4161   */\n      swap1\n      pop\n        /* \"#utility.yul\":4209:4218   */\n      dup3\n        /* \"#utility.yul\":4201:4207   */\n      dup2\n        /* \"#utility.yul\":4197:4219   */\n      sub\n        /* \"#utility.yul\":4192:4194   */\n      0x60\n        /* \"#utility.yul\":4181:4190   */\n      dup5\n        /* \"#utility.yul\":4177:4195   */\n      add\n        /* \"#utility.yul\":4170:4220   */\n      mstore\n        /* \"#utility.yul\":4237:4270   */\n      tag_640\n        /* \"#utility.yul\":4263:4269   */\n      dup2\n        /* \"#utility.yul\":4255:4261   */\n      dup10\n        /* \"#utility.yul\":4237:4270   */\n      tag_601\n      jump\t// in\n    tag_640:\n        /* \"#utility.yul\":4301:4304   */\n      0x80\n        /* \"#utility.yul\":4286:4305   */\n      dup5\n      add\n        /* \"#utility.yul\":4279:4314   */\n      swap8\n      swap1\n      swap8\n      mstore\n      pop\n      pop\n        /* \"#utility.yul\":4345:4348   */\n      0xa0\n        /* \"#utility.yul\":4330:4349   */\n      dup2\n      add\n        /* \"#utility.yul\":4323:4358   */\n      swap4\n      swap1\n      swap4\n      mstore\n        /* \"#utility.yul\":4402:4416   */\n      swap1\n      iszero\n        /* \"#utility.yul\":4395:4417   */\n      iszero\n        /* \"#utility.yul\":4389:4392   */\n      0xc0\n        /* \"#utility.yul\":4374:4393   */\n      dup4\n      add\n        /* \"#utility.yul\":4367:4418   */\n      mstore\n        /* \"#utility.yul\":4462:4476   */\n      iszero\n        /* \"#utility.yul\":4455:4477   */\n      iszero\n        /* \"#utility.yul\":4449:4452   */\n      0xe0\n        /* \"#utility.yul\":4434:4453   */\n      swap1\n      swap2\n      add\n        /* \"#utility.yul\":4427:4478   */\n      mstore\n        /* \"#utility.yul\":4229:4270   */\n      swap5\n        /* \"#utility.yul\":3603:4484   */\n      swap4\n      pop\n      pop\n      pop\n      pop\n      jump\t// out\n        /* \"#utility.yul\":4489:4616   */\n    tag_252:\n        /* \"#utility.yul\":4550:4560   */\n      0x4e487b71\n        /* \"#utility.yul\":4545:4548   */\n      0xe0\n        /* \"#utility.yul\":4541:4561   */\n      shl\n        /* \"#utility.yul\":4538:4539   */\n      0x00\n        /* \"#utility.yul\":4531:4562   */\n      mstore\n        /* \"#utility.yul\":4581:4585   */\n      0x41\n        /* \"#utility.yul\":4578:4579   */\n      0x04\n        /* \"#utility.yul\":4571:4586   */\n      mstore\n        /* \"#utility.yul\":4605:4609   */\n      0x24\n        /* \"#utility.yul\":4602:4603   */\n      0x00\n        /* \"#utility.yul\":4595:4610   */\n      revert\n        /* \"#utility.yul\":4621:4896   */\n    tag_604:\n        /* \"#utility.yul\":4692:4694   */\n      0x40\n        /* \"#utility.yul\":4686:4695   */\n      mload\n        /* \"#utility.yul\":4757:4759   */\n      0x1f\n        /* \"#utility.yul\":4738:4751   */\n      dup3\n      add\n      not(0x1f)\n        /* \"#utility.yul\":4734:4761   */\n      and\n        /* \"#utility.yul\":4722:4762   */\n      dup2\n      add\n      sub(shl(0x40, 0x01), 0x01)\n        /* \"#utility.yul\":4777:4811   */\n      dup2\n      gt\n        /* \"#utility.yul\":4813:4835   */\n      dup3\n      dup3\n      lt\n        /* \"#utility.yul\":4774:4836   */\n      or\n        /* \"#utility.yul\":4771:4859   */\n      iszero\n      tag_644\n      jumpi\n        /* \"#utility.yul\":4839:4857   */\n      tag_644\n      tag_252\n      jump\t// in\n    tag_644:\n        /* \"#utility.yul\":4875:4877   */\n      0x40\n        /* \"#utility.yul\":4868:4890   */\n      mstore\n        /* \"#utility.yul\":4621:4896   */\n      swap2\n      swap1\n      pop\n      jump\t// out\n        /* \"#utility.yul\":4901:5432   */\n    tag_605:\n        /* \"#utility.yul\":4944:4949   */\n      0x00\n        /* \"#utility.yul\":4997:5000   */\n      dup3\n        /* \"#utility.yul\":4990:4994   */\n      0x1f\n        /* \"#utility.yul\":4982:4988   */\n      dup4\n        /* \"#utility.yul\":4978:4995   */\n      add\n        /* \"#utility.yul\":4974:5001   */\n      slt\n        /* \"#utility.yul\":4964:5019   */\n      tag_646\n      jumpi\n        /* \"#utility.yul\":5015:5016   */\n      0x00\n        /* \"#utility.yul\":5012:5013   */\n      dup1\n        /* \"#utility.yul\":5005:5017   */\n      revert\n        /* \"#utility.yul\":4964:5019   */\n    tag_646:\n        /* \"#utility.yul\":5051:5057   */\n      dup2\n        /* \"#utility.yul\":5038:5058   */\n      calldataload\n      sub(shl(0x40, 0x01), 0x01)\n        /* \"#utility.yul\":5073:5075   */\n      dup2\n        /* \"#utility.yul\":5070:5096   */\n      gt\n        /* \"#utility.yul\":5067:5119   */\n      iszero\n      tag_648\n      jumpi\n        /* \"#utility.yul\":5099:5117   */\n      tag_648\n      tag_252\n      jump\t// in\n    tag_648:\n        /* \"#utility.yul\":5143:5198   */\n      tag_649\n        /* \"#utility.yul\":5186:5188   */\n      0x1f\n        /* \"#utility.yul\":5167:5180   */\n      dup3\n      add\n      not(0x1f)\n        /* \"#utility.yul\":5163:5190   */\n      and\n        /* \"#utility.yul\":5192:5196   */\n      0x20\n        /* \"#utility.yul\":5159:5197   */\n      add\n        /* \"#utility.yul\":5143:5198   */\n      tag_604\n      jump\t// in\n    tag_649:\n        /* \"#utility.yul\":5223:5225   */\n      dup2\n        /* \"#utility.yul\":5214:5221   */\n      dup2\n        /* \"#utility.yul\":5207:5226   */\n      mstore\n        /* \"#utility.yul\":5269:5272   */\n      dup5\n        /* \"#utility.yul\":5262:5266   */\n      0x20\n        /* \"#utility.yul\":5257:5259   */\n      dup4\n        /* \"#utility.yul\":5249:5255   */\n      dup7\n        /* \"#utility.yul\":5245:5260   */\n      add\n        /* \"#utility.yul\":5241:5267   */\n      add\n        /* \"#utility.yul\":5238:5273   */\n      gt\n        /* \"#utility.yul\":5235:5290   */\n      iszero\n      tag_650\n      jumpi\n        /* \"#utility.yul\":5286:5287   */\n      0x00\n        /* \"#utility.yul\":5283:5284   */\n      dup1\n        /* \"#utility.yul\":5276:5288   */\n      revert\n        /* \"#utility.yul\":5235:5290   */\n    tag_650:\n        /* \"#utility.yul\":5351:5353   */\n      dup2\n        /* \"#utility.yul\":5344:5348   */\n      0x20\n        /* \"#utility.yul\":5336:5342   */\n      dup6\n        /* \"#utility.yul\":5332:5349   */\n      add\n        /* \"#utility.yul\":5325:5329   */\n      0x20\n        /* \"#utility.yul\":5316:5323   */\n      dup4\n        /* \"#utility.yul\":5312:5330   */\n      add\n        /* \"#utility.yul\":5299:5354   */\n      calldatacopy\n        /* \"#utility.yul\":5399:5400   */\n      0x00\n        /* \"#utility.yul\":5374:5390   */\n      swap2\n      dup2\n      add\n        /* \"#utility.yul\":5392:5396   */\n      0x20\n        /* \"#utility.yul\":5370:5397   */\n      add\n        /* \"#utility.yul\":5363:5401   */\n      swap2\n      swap1\n      swap2\n      mstore\n        /* \"#utility.yul\":5378:5385   */\n      swap4\n        /* \"#utility.yul\":4901:5432   */\n      swap3\n      pop\n      pop\n      pop\n      jump\t// out\n        /* \"#utility.yul\":5437:5901   */\n    tag_73:\n        /* \"#utility.yul\":5524:5530   */\n      0x00\n        /* \"#utility.yul\":5532:5538   */\n      dup1\n        /* \"#utility.yul\":5540:5546   */\n      0x00\n        /* \"#utility.yul\":5593:5595   */\n      0x60\n        /* \"#utility.yul\":5581:5590   */\n      dup5\n        /* \"#utility.yul\":5572:5579   */\n      dup7\n        /* \"#utility.yul\":5568:5591   */\n      sub\n        /* \"#utility.yul\":5564:5596   */\n      slt\n        /* \"#utility.yul\":5561:5613   */\n      iszero\n      tag_652\n      jumpi\n        /* \"#utility.yul\":5609:5610   */\n      0x00\n        /* \"#utility.yul\":5606:5607   */\n      dup1\n        /* \"#utility.yul\":5599:5611   */\n      revert\n        /* \"#utility.yul\":5561:5613   */\n    tag_652:\n        /* \"#utility.yul\":5632:5661   */\n      tag_653\n        /* \"#utility.yul\":5651:5660   */\n      dup5\n        /* \"#utility.yul\":5632:5661   */\n      tag_600\n      jump\t// in\n    tag_653:\n        /* \"#utility.yul\":5622:5661   */\n      swap3\n      pop\n        /* \"#utility.yul\":5712:5714   */\n      0x20\n        /* \"#utility.yul\":5701:5710   */\n      dup5\n        /* \"#utility.yul\":5697:5715   */\n      add\n        /* \"#utility.yul\":5684:5716   */\n      calldataload\n      sub(shl(0x40, 0x01), 0x01)\n        /* \"#utility.yul\":5731:5737   */\n      dup2\n        /* \"#utility.yul\":5728:5758   */\n      gt\n        /* \"#utility.yul\":5725:5775   */\n      iszero\n      tag_654\n      jumpi\n        /* \"#utility.yul\":5771:5772   */\n      0x00\n        /* \"#utility.yul\":5768:5769   */\n      dup1\n        /* \"#utility.yul\":5761:5773   */\n      revert\n        /* \"#utility.yul\":5725:5775   */\n    tag_654:\n        /* \"#utility.yul\":5794:5844   */\n      tag_655\n        /* \"#utility.yul\":5836:5843   */\n      dup7\n        /* \"#utility.yul\":5827:5833   */\n      dup3\n        /* \"#utility.yul\":5816:5825   */\n      dup8\n        /* \"#utility.yul\":5812:5834   */\n      add\n        /* \"#utility.yul\":5794:5844   */\n      tag_605\n      jump\t// in\n    tag_655:\n        /* \"#utility.yul\":5784:5844   */\n      swap3\n      pop\n      pop\n        /* \"#utility.yul\":5891:5893   */\n      0x40\n        /* \"#utility.yul\":5880:5889   */\n      dup5\n        /* \"#utility.yul\":5876:5894   */\n      add\n        /* \"#utility.yul\":5863:5895   */\n      calldataload\n        /* \"#utility.yul\":5853:5895   */\n      swap1\n      pop\n        /* \"#utility.yul\":5437:5901   */\n      swap3\n      pop\n      swap3\n      pop\n      swap3\n      jump\t// out\n        /* \"#utility.yul\":5906:6086   */\n    tag_77:\n        /* \"#utility.yul\":5965:5971   */\n      0x00\n        /* \"#utility.yul\":6018:6020   */\n      0x20\n        /* \"#utility.yul\":6006:6015   */\n      dup3\n        /* \"#utility.yul\":5997:6004   */\n      dup5\n        /* \"#utility.yul\":5993:6016   */\n      sub\n        /* \"#utility.yul\":5989:6021   */\n      slt\n        /* \"#utility.yul\":5986:6038   */\n      iszero\n      tag_657\n      jumpi\n        /* \"#utility.yul\":6034:6035   */\n      0x00\n        /* \"#utility.yul\":6031:6032   */\n      dup1\n        /* \"#utility.yul\":6024:6036   */\n      revert\n        /* \"#utility.yul\":5986:6038   */\n    tag_657:\n      pop\n        /* \"#utility.yul\":6057:6080   */\n      calldataload\n      swap2\n        /* \"#utility.yul\":5906:6086   */\n      swap1\n      pop\n      jump\t// out\n        /* \"#utility.yul\":6091:6778   */\n    tag_80:\n        /* \"#utility.yul\":6384:6409   */\n      dup8\n      dup2\n      mstore\n      sub(shl(0xa0, 0x01), 0x01)\n        /* \"#utility.yul\":6445:6477   */\n      dup8\n      and\n        /* \"#utility.yul\":6440:6442   */\n      0x20\n        /* \"#utility.yul\":6425:6443   */\n      dup3\n      add\n        /* \"#utility.yul\":6418:6478   */\n      mstore\n        /* \"#utility.yul\":6514:6517   */\n      0xe0\n        /* \"#utility.yul\":6509:6511   */\n      0x40\n        /* \"#utility.yul\":6494:6512   */\n      dup3\n      add\n        /* \"#utility.yul\":6487:6518   */\n      dup2\n      swap1\n      mstore\n      0x00\n      swap1\n        /* \"#utility.yul\":6535:6581   */\n      tag_659\n      swap1\n        /* \"#utility.yul\":6561:6580   */\n      dup4\n      add\n        /* \"#utility.yul\":6553:6559   */\n      dup9\n        /* \"#utility.yul\":6535:6581   */\n      tag_601\n      jump\t// in\n    tag_659:\n        /* \"#utility.yul\":6527:6581   */\n      swap1\n      pop\n        /* \"#utility.yul\":6617:6623   */\n      dup6\n        /* \"#utility.yul\":6612:6614   */\n      0x60\n        /* \"#utility.yul\":6601:6610   */\n      dup4\n        /* \"#utility.yul\":6597:6615   */\n      add\n        /* \"#utility.yul\":6590:6624   */\n      mstore\n        /* \"#utility.yul\":6661:6667   */\n      dup5\n        /* \"#utility.yul\":6655:6658   */\n      0x80\n        /* \"#utility.yul\":6644:6653   */\n      dup4\n        /* \"#utility.yul\":6640:6659   */\n      add\n        /* \"#utility.yul\":6633:6668   */\n      mstore\n        /* \"#utility.yul\":6705:6711   */\n      dup4\n        /* \"#utility.yul\":6699:6702   */\n      0xa0\n        /* \"#utility.yul\":6688:6697   */\n      dup4\n        /* \"#utility.yul\":6684:6703   */\n      add\n        /* \"#utility.yul\":6677:6712   */\n      mstore\n        /* \"#utility.yul\":6763:6769   */\n      dup3\n        /* \"#utility.yul\":6756:6770   */\n      iszero\n        /* \"#utility.yul\":6749:6771   */\n      iszero\n        /* \"#utility.yul\":6743:6746   */\n      0xc0\n        /* \"#utility.yul\":6732:6741   */\n      dup4\n        /* \"#utility.yul\":6728:6747   */\n      add\n        /* \"#utility.yul\":6721:6772   */\n      mstore\n        /* \"#utility.yul\":6091:6778   */\n      swap9\n      swap8\n      pop\n      pop\n      pop\n      pop\n      pop\n      pop\n      pop\n      pop\n      jump\t// out\n        /* \"#utility.yul\":6783:7037   */\n    tag_87:\n        /* \"#utility.yul\":6851:6857   */\n      0x00\n        /* \"#utility.yul\":6859:6865   */\n      dup1\n        /* \"#utility.yul\":6912:6914   */\n      0x40\n        /* \"#utility.yul\":6900:6909   */\n      dup4\n        /* \"#utility.yul\":6891:6898   */\n      dup6\n        /* \"#utility.yul\":6887:6910   */\n      sub\n        /* \"#utility.yul\":6883:6915   */\n      slt\n        /* \"#utility.yul\":6880:6932   */\n      iszero\n      tag_661\n      jumpi\n        /* \"#utility.yul\":6928:6929   */\n      0x00\n        /* \"#utility.yul\":6925:6926   */\n      dup1\n        /* \"#utility.yul\":6918:6930   */\n      revert\n        /* \"#utility.yul\":6880:6932   */\n    tag_661:\n        /* \"#utility.yul\":6964:6973   */\n      dup3\n        /* \"#utility.yul\":6951:6974   */\n      calldataload\n        /* \"#utility.yul\":6941:6974   */\n      swap2\n      pop\n        /* \"#utility.yul\":6993:7031   */\n      tag_662\n        /* \"#utility.yul\":7027:7029   */\n      0x20\n        /* \"#utility.yul\":7016:7025   */\n      dup5\n        /* \"#utility.yul\":7012:7030   */\n      add\n        /* \"#utility.yul\":6993:7031   */\n      tag_600\n      jump\t// in\n    tag_662:\n        /* \"#utility.yul\":6983:7031   */\n      swap1\n      pop\n        /* \"#utility.yul\":6783:7037   */\n      swap3\n      pop\n      swap3\n      swap1\n      pop\n      jump\t// out\n        /* \"#utility.yul\":7042:8181   */\n    tag_90:\n        /* \"#utility.yul\":7261:7263   */\n      0x20\n        /* \"#utility.yul\":7313:7334   */\n      dup1\n      dup3\n      mstore\n        /* \"#utility.yul\":7383:7396   */\n      dup3\n      mload\n        /* \"#utility.yul\":7286:7304   */\n      dup3\n      dup3\n      add\n        /* \"#utility.yul\":7405:7427   */\n      dup2\n      swap1\n      mstore\n        /* \"#utility.yul\":7232:7236   */\n      0x00\n      swap2\n        /* \"#utility.yul\":7261:7263   */\n      swap1\n        /* \"#utility.yul\":7446:7448   */\n      0x40\n      swap1\n        /* \"#utility.yul\":7464:7482   */\n      dup2\n      dup6\n      add\n      swap1\n        /* \"#utility.yul\":7505:7520   */\n      dup7\n      dup5\n      add\n        /* \"#utility.yul\":7232:7236   */\n      dup6\n        /* \"#utility.yul\":7548:8155   */\n    tag_664:\n        /* \"#utility.yul\":7562:7568   */\n      dup3\n        /* \"#utility.yul\":7559:7560   */\n      dup2\n        /* \"#utility.yul\":7556:7569   */\n      lt\n        /* \"#utility.yul\":7548:8155   */\n      iszero\n      tag_666\n      jumpi\n        /* \"#utility.yul\":7621:7634   */\n      dup2\n      mload\n        /* \"#utility.yul\":7659:7668   */\n      dup1\n      mload\n        /* \"#utility.yul\":7647:7669   */\n      dup6\n      mstore\n        /* \"#utility.yul\":7709:7720   */\n      dup7\n      dup2\n      add\n        /* \"#utility.yul\":7703:7721   */\n      mload\n        /* \"#utility.yul\":7689:7701   */\n      dup8\n      dup7\n      add\n        /* \"#utility.yul\":7682:7722   */\n      mstore\n        /* \"#utility.yul\":7762:7773   */\n      dup6\n      dup2\n      add\n        /* \"#utility.yul\":7756:7774   */\n      mload\n        /* \"#utility.yul\":7742:7754   */\n      dup7\n      dup7\n      add\n        /* \"#utility.yul\":7735:7775   */\n      mstore\n        /* \"#utility.yul\":7798:7802   */\n      0x60\n        /* \"#utility.yul\":7846:7857   */\n      dup1\n      dup3\n      add\n        /* \"#utility.yul\":7840:7858   */\n      mload\n      sub(shl(0xa0, 0x01), 0x01)\n        /* \"#utility.yul\":7836:7880   */\n      and\n        /* \"#utility.yul\":7822:7834   */\n      swap1\n      dup7\n      add\n        /* \"#utility.yul\":7815:7881   */\n      mstore\n        /* \"#utility.yul\":7904:7908   */\n      0x80\n        /* \"#utility.yul\":7962:7973   */\n      dup1\n      dup3\n      add\n        /* \"#utility.yul\":7956:7974   */\n      mload\n        /* \"#utility.yul\":7949:7975   */\n      iszero\n        /* \"#utility.yul\":7942:7976   */\n      iszero\n        /* \"#utility.yul\":7928:7940   */\n      swap1\n      dup7\n      add\n        /* \"#utility.yul\":7921:7977   */\n      mstore\n        /* \"#utility.yul\":7868:7871   */\n      0xa0\n        /* \"#utility.yul\":8058:8069   */\n      swap1\n      dup2\n      add\n        /* \"#utility.yul\":8052:8070   */\n      mload\n        /* \"#utility.yul\":8045:8071   */\n      iszero\n        /* \"#utility.yul\":8038:8072   */\n      iszero\n        /* \"#utility.yul\":8024:8036   */\n      swap1\n      dup6\n      add\n        /* \"#utility.yul\":8017:8073   */\n      mstore\n        /* \"#utility.yul\":8102:8106   */\n      0xc0\n        /* \"#utility.yul\":8093:8107   */\n      swap1\n      swap4\n      add\n      swap3\n        /* \"#utility.yul\":8130:8145   */\n      swap1\n      dup6\n      add\n      swap1\n        /* \"#utility.yul\":7877:7878   */\n      0x01\n        /* \"#utility.yul\":7577:7586   */\n      add\n        /* \"#utility.yul\":7548:8155   */\n      jump(tag_664)\n    tag_666:\n      pop\n        /* \"#utility.yul\":8172:8175   */\n      swap2\n      swap8\n        /* \"#utility.yul\":7042:8181   */\n      swap7\n      pop\n      pop\n      pop\n      pop\n      pop\n      pop\n      pop\n      jump\t// out\n        /* \"#utility.yul\":8186:9028   */\n    tag_606:\n        /* \"#utility.yul\":8240:8243   */\n      0x00\n        /* \"#utility.yul\":8268:8274   */\n      0x0100\n        /* \"#utility.yul\":8301:8306   */\n      dup3\n        /* \"#utility.yul\":8295:8307   */\n      mload\n        /* \"#utility.yul\":8290:8293   */\n      dup5\n        /* \"#utility.yul\":8283:8308   */\n      mstore\n        /* \"#utility.yul\":8386:8387   */\n      0x01\n        /* \"#utility.yul\":8382:8383   */\n      dup1\n        /* \"#utility.yul\":8377:8380   */\n      0xa0\n        /* \"#utility.yul\":8373:8384   */\n      shl\n        /* \"#utility.yul\":8369:8388   */\n      sub\n        /* \"#utility.yul\":8361:8365   */\n      0x20\n        /* \"#utility.yul\":8354:8359   */\n      dup5\n        /* \"#utility.yul\":8350:8366   */\n      add\n        /* \"#utility.yul\":8344:8367   */\n      mload\n        /* \"#utility.yul\":8340:8389   */\n      and\n        /* \"#utility.yul\":8333:8337   */\n      0x20\n        /* \"#utility.yul\":8328:8331   */\n      dup6\n        /* \"#utility.yul\":8324:8338   */\n      add\n        /* \"#utility.yul\":8317:8390   */\n      mstore\n        /* \"#utility.yul\":8436:8440   */\n      0x40\n        /* \"#utility.yul\":8429:8434   */\n      dup4\n        /* \"#utility.yul\":8425:8441   */\n      add\n        /* \"#utility.yul\":8419:8442   */\n      mload\n        /* \"#utility.yul\":8474:8476   */\n      dup2\n        /* \"#utility.yul\":8467:8471   */\n      0x40\n        /* \"#utility.yul\":8462:8465   */\n      dup7\n        /* \"#utility.yul\":8458:8472   */\n      add\n        /* \"#utility.yul\":8451:8477   */\n      mstore\n        /* \"#utility.yul\":8498:8543   */\n      tag_668\n        /* \"#utility.yul\":8539:8541   */\n      dup3\n        /* \"#utility.yul\":8534:8537   */\n      dup7\n        /* \"#utility.yul\":8530:8542   */\n      add\n        /* \"#utility.yul\":8516:8528   */\n      dup3\n        /* \"#utility.yul\":8498:8543   */\n      tag_601\n      jump\t// in\n    tag_668:\n        /* \"#utility.yul\":8486:8543   */\n      swap2\n      pop\n      pop\n        /* \"#utility.yul\":8591:8595   */\n      0x60\n        /* \"#utility.yul\":8584:8589   */\n      dup4\n        /* \"#utility.yul\":8580:8596   */\n      add\n        /* \"#utility.yul\":8574:8597   */\n      mload\n        /* \"#utility.yul\":8639:8642   */\n      dup5\n        /* \"#utility.yul\":8633:8637   */\n      dup3\n        /* \"#utility.yul\":8629:8643   */\n      sub\n        /* \"#utility.yul\":8622:8626   */\n      0x60\n        /* \"#utility.yul\":8617:8620   */\n      dup7\n        /* \"#utility.yul\":8613:8627   */\n      add\n        /* \"#utility.yul\":8606:8644   */\n      mstore\n        /* \"#utility.yul\":8667:8706   */\n      tag_669\n        /* \"#utility.yul\":8701:8705   */\n      dup3\n        /* \"#utility.yul\":8685:8699   */\n      dup3\n        /* \"#utility.yul\":8667:8706   */\n      tag_601\n      jump\t// in\n    tag_669:\n        /* \"#utility.yul\":8653:8706   */\n      swap2\n      pop\n      pop\n        /* \"#utility.yul\":8755:8759   */\n      0x80\n        /* \"#utility.yul\":8748:8753   */\n      dup4\n        /* \"#utility.yul\":8744:8760   */\n      add\n        /* \"#utility.yul\":8738:8761   */\n      mload\n        /* \"#utility.yul\":8731:8735   */\n      0x80\n        /* \"#utility.yul\":8726:8729   */\n      dup6\n        /* \"#utility.yul\":8722:8736   */\n      add\n        /* \"#utility.yul\":8715:8762   */\n      mstore\n        /* \"#utility.yul\":8811:8815   */\n      0xa0\n        /* \"#utility.yul\":8804:8809   */\n      dup4\n        /* \"#utility.yul\":8800:8816   */\n      add\n        /* \"#utility.yul\":8794:8817   */\n      mload\n        /* \"#utility.yul\":8787:8791   */\n      0xa0\n        /* \"#utility.yul\":8782:8785   */\n      dup6\n        /* \"#utility.yul\":8778:8792   */\n      add\n        /* \"#utility.yul\":8771:8818   */\n      mstore\n        /* \"#utility.yul\":8881:8885   */\n      0xc0\n        /* \"#utility.yul\":8874:8879   */\n      dup4\n        /* \"#utility.yul\":8870:8886   */\n      add\n        /* \"#utility.yul\":8864:8887   */\n      mload\n        /* \"#utility.yul\":8857:8888   */\n      iszero\n        /* \"#utility.yul\":8850:8889   */\n      iszero\n        /* \"#utility.yul\":8843:8847   */\n      0xc0\n        /* \"#utility.yul\":8838:8841   */\n      dup6\n        /* \"#utility.yul\":8834:8848   */\n      add\n        /* \"#utility.yul\":8827:8890   */\n      mstore\n        /* \"#utility.yul\":8938:8942   */\n      0xe0\n        /* \"#utility.yul\":8931:8936   */\n      dup4\n        /* \"#utility.yul\":8927:8943   */\n      add\n        /* \"#utility.yul\":8921:8944   */\n      mload\n        /* \"#utility.yul\":8953:9000   */\n      tag_670\n        /* \"#utility.yul\":8994:8998   */\n      0xe0\n        /* \"#utility.yul\":8989:8992   */\n      dup7\n        /* \"#utility.yul\":8985:8999   */\n      add\n        /* \"#utility.yul\":8969:8983   */\n      dup3\n        /* \"#utility.yul\":1316:1329   */\n      iszero\n        /* \"#utility.yul\":1309:1330   */\n      iszero\n        /* \"#utility.yul\":1297:1331   */\n      swap1\n      mstore\n        /* \"#utility.yul\":1246:1337   */\n      jump\n        /* \"#utility.yul\":8953:9000   */\n    tag_670:\n      pop\n        /* \"#utility.yul\":9016:9022   */\n      swap4\n        /* \"#utility.yul\":8186:9028   */\n      swap3\n      pop\n      pop\n      pop\n      jump\t// out\n        /* \"#utility.yul\":9033:9303   */\n    tag_95:\n        /* \"#utility.yul\":9220:9222   */\n      0x20\n        /* \"#utility.yul\":9209:9218   */\n      dup2\n        /* \"#utility.yul\":9202:9223   */\n      mstore\n        /* \"#utility.yul\":9183:9187   */\n      0x00\n        /* \"#utility.yul\":9240:9297   */\n      tag_623\n        /* \"#utility.yul\":9293:9295   */\n      0x20\n        /* \"#utility.yul\":9282:9291   */\n      dup4\n        /* \"#utility.yul\":9278:9296   */\n      add\n        /* \"#utility.yul\":9270:9276   */\n      dup5\n        /* \"#utility.yul\":9240:9297   */\n      tag_606\n      jump\t// in\n        /* \"#utility.yul\":9308:10353   */\n    tag_104:\n        /* \"#utility.yul\":9529:9531   */\n      0x20\n        /* \"#utility.yul\":9581:9602   */\n      dup1\n      dup3\n      mstore\n        /* \"#utility.yul\":9651:9664   */\n      dup3\n      mload\n        /* \"#utility.yul\":9554:9572   */\n      dup3\n      dup3\n      add\n        /* \"#utility.yul\":9673:9695   */\n      dup2\n      swap1\n      mstore\n        /* \"#utility.yul\":9500:9504   */\n      0x00\n      swap2\n        /* \"#utility.yul\":9529:9531   */\n      swap1\n        /* \"#utility.yul\":9714:9716   */\n      0x40\n      swap1\n        /* \"#utility.yul\":9732:9750   */\n      dup2\n      dup6\n      add\n      swap1\n        /* \"#utility.yul\":9773:9788   */\n      dup7\n      dup5\n      add\n        /* \"#utility.yul\":9500:9504   */\n      dup6\n        /* \"#utility.yul\":9816:10327   */\n    tag_674:\n        /* \"#utility.yul\":9830:9836   */\n      dup3\n        /* \"#utility.yul\":9827:9828   */\n      dup2\n        /* \"#utility.yul\":9824:9837   */\n      lt\n        /* \"#utility.yul\":9816:10327   */\n      iszero\n      tag_666\n      jumpi\n        /* \"#utility.yul\":9889:9902   */\n      dup2\n      mload\n        /* \"#utility.yul\":9927:9936   */\n      dup1\n      mload\n        /* \"#utility.yul\":9915:9937   */\n      dup6\n      mstore\n        /* \"#utility.yul\":9977:9988   */\n      dup7\n      dup2\n      add\n        /* \"#utility.yul\":9971:9989   */\n      mload\n        /* \"#utility.yul\":9957:9969   */\n      dup8\n      dup7\n      add\n        /* \"#utility.yul\":9950:9990   */\n      mstore\n        /* \"#utility.yul\":10034:10045   */\n      dup6\n      dup2\n      add\n        /* \"#utility.yul\":10028:10046   */\n      mload\n      sub(shl(0xa0, 0x01), 0x01)\n        /* \"#utility.yul\":10024:10068   */\n      and\n        /* \"#utility.yul\":10010:10022   */\n      dup7\n      dup7\n      add\n        /* \"#utility.yul\":10003:10069   */\n      mstore\n        /* \"#utility.yul\":10092:10096   */\n      0x60\n        /* \"#utility.yul\":10136:10147   */\n      dup1\n      dup3\n      add\n        /* \"#utility.yul\":10130:10148   */\n      mload\n        /* \"#utility.yul\":10116:10128   */\n      swap1\n      dup7\n      add\n        /* \"#utility.yul\":10109:10149   */\n      mstore\n        /* \"#utility.yul\":10172:10176   */\n      0x80\n        /* \"#utility.yul\":10230:10241   */\n      swap1\n      dup2\n      add\n        /* \"#utility.yul\":10224:10242   */\n      mload\n        /* \"#utility.yul\":10217:10243   */\n      iszero\n        /* \"#utility.yul\":10210:10244   */\n      iszero\n        /* \"#utility.yul\":10196:10208   */\n      swap1\n      dup6\n      add\n        /* \"#utility.yul\":10189:10245   */\n      mstore\n        /* \"#utility.yul\":10056:10059   */\n      0xa0\n        /* \"#utility.yul\":10265:10279   */\n      swap1\n      swap4\n      add\n      swap3\n        /* \"#utility.yul\":10302:10317   */\n      swap1\n      dup6\n      add\n      swap1\n        /* \"#utility.yul\":10065:10066   */\n      0x01\n        /* \"#utility.yul\":9845:9854   */\n      add\n        /* \"#utility.yul\":9816:10327   */\n      jump(tag_674)\n        /* \"#utility.yul\":10358:11044   */\n    tag_111:\n        /* \"#utility.yul\":10464:10470   */\n      0x00\n        /* \"#utility.yul\":10472:10478   */\n      dup1\n        /* \"#utility.yul\":10480:10486   */\n      0x00\n        /* \"#utility.yul\":10488:10494   */\n      dup1\n        /* \"#utility.yul\":10541:10544   */\n      0x80\n        /* \"#utility.yul\":10529:10538   */\n      dup6\n        /* \"#utility.yul\":10520:10527   */\n      dup8\n        /* \"#utility.yul\":10516:10539   */\n      sub\n        /* \"#utility.yul\":10512:10545   */\n      slt\n        /* \"#utility.yul\":10509:10562   */\n      iszero\n      tag_678\n      jumpi\n        /* \"#utility.yul\":10558:10559   */\n      0x00\n        /* \"#utility.yul\":10555:10556   */\n      dup1\n        /* \"#utility.yul\":10548:10560   */\n      revert\n        /* \"#utility.yul\":10509:10562   */\n    tag_678:\n        /* \"#utility.yul\":10581:10610   */\n      tag_679\n        /* \"#utility.yul\":10600:10609   */\n      dup6\n        /* \"#utility.yul\":10581:10610   */\n      tag_600\n      jump\t// in\n    tag_679:\n        /* \"#utility.yul\":10571:10610   */\n      swap4\n      pop\n        /* \"#utility.yul\":10661:10663   */\n      0x20\n        /* \"#utility.yul\":10650:10659   */\n      dup6\n        /* \"#utility.yul\":10646:10664   */\n      add\n        /* \"#utility.yul\":10633:10665   */\n      calldataload\n      sub(shl(0x40, 0x01), 0x01)\n        /* \"#utility.yul\":10725:10727   */\n      dup1\n        /* \"#utility.yul\":10717:10723   */\n      dup3\n        /* \"#utility.yul\":10714:10728   */\n      gt\n        /* \"#utility.yul\":10711:10745   */\n      iszero\n      tag_680\n      jumpi\n        /* \"#utility.yul\":10741:10742   */\n      0x00\n        /* \"#utility.yul\":10738:10739   */\n      dup1\n        /* \"#utility.yul\":10731:10743   */\n      revert\n        /* \"#utility.yul\":10711:10745   */\n    tag_680:\n        /* \"#utility.yul\":10764:10814   */\n      tag_681\n        /* \"#utility.yul\":10806:10813   */\n      dup9\n        /* \"#utility.yul\":10797:10803   */\n      dup4\n        /* \"#utility.yul\":10786:10795   */\n      dup10\n        /* \"#utility.yul\":10782:10804   */\n      add\n        /* \"#utility.yul\":10764:10814   */\n      tag_605\n      jump\t// in\n    tag_681:\n        /* \"#utility.yul\":10754:10814   */\n      swap5\n      pop\n        /* \"#utility.yul\":10867:10869   */\n      0x40\n        /* \"#utility.yul\":10856:10865   */\n      dup8\n        /* \"#utility.yul\":10852:10870   */\n      add\n        /* \"#utility.yul\":10839:10871   */\n      calldataload\n        /* \"#utility.yul\":10823:10871   */\n      swap2\n      pop\n        /* \"#utility.yul\":10896:10898   */\n      dup1\n        /* \"#utility.yul\":10886:10894   */\n      dup3\n        /* \"#utility.yul\":10883:10899   */\n      gt\n        /* \"#utility.yul\":10880:10916   */\n      iszero\n      tag_682\n      jumpi\n        /* \"#utility.yul\":10912:10913   */\n      0x00\n        /* \"#utility.yul\":10909:10910   */\n      dup1\n        /* \"#utility.yul\":10902:10914   */\n      revert\n        /* \"#utility.yul\":10880:10916   */\n    tag_682:\n      pop\n        /* \"#utility.yul\":10935:10987   */\n      tag_683\n        /* \"#utility.yul\":10979:10986   */\n      dup8\n        /* \"#utility.yul\":10968:10976   */\n      dup3\n        /* \"#utility.yul\":10957:10966   */\n      dup9\n        /* \"#utility.yul\":10953:10977   */\n      add\n        /* \"#utility.yul\":10935:10987   */\n      tag_605\n      jump\t// in\n    tag_683:\n        /* \"#utility.yul\":10358:11044   */\n      swap5\n      swap8\n      swap4\n      swap7\n      pop\n        /* \"#utility.yul\":10925:10987   */\n      swap4\n      swap5\n        /* \"#utility.yul\":11034:11036   */\n      0x60\n        /* \"#utility.yul\":11019:11037   */\n      add\n        /* \"#utility.yul\":11006:11038   */\n      calldataload\n      swap4\n      pop\n      pop\n      pop\n        /* \"#utility.yul\":10358:11044   */\n      jump\t// out\n        /* \"#utility.yul\":11049:11231   */\n    tag_607:\n        /* \"#utility.yul\":11108:11112   */\n      0x00\n      sub(shl(0x40, 0x01), 0x01)\n        /* \"#utility.yul\":11133:11139   */\n      dup3\n        /* \"#utility.yul\":11130:11160   */\n      gt\n        /* \"#utility.yul\":11127:11183   */\n      iszero\n      tag_686\n      jumpi\n        /* \"#utility.yul\":11163:11181   */\n      tag_686\n      tag_252\n      jump\t// in\n    tag_686:\n      pop\n        /* \"#utility.yul\":11208:11209   */\n      0x05\n        /* \"#utility.yul\":11204:11218   */\n      shl\n        /* \"#utility.yul\":11220:11224   */\n      0x20\n        /* \"#utility.yul\":11200:11225   */\n      add\n      swap1\n        /* \"#utility.yul\":11049:11231   */\n      jump\t// out\n        /* \"#utility.yul\":11236:12742   */\n    tag_139:\n        /* \"#utility.yul\":11385:11391   */\n      0x00\n        /* \"#utility.yul\":11393:11399   */\n      dup1\n        /* \"#utility.yul\":11401:11407   */\n      0x00\n        /* \"#utility.yul\":11409:11415   */\n      dup1\n        /* \"#utility.yul\":11417:11423   */\n      0x00\n        /* \"#utility.yul\":11425:11431   */\n      dup1\n        /* \"#utility.yul\":11478:11481   */\n      0xc0\n        /* \"#utility.yul\":11466:11475   */\n      dup8\n        /* \"#utility.yul\":11457:11464   */\n      dup10\n        /* \"#utility.yul\":11453:11476   */\n      sub\n        /* \"#utility.yul\":11449:11482   */\n      slt\n        /* \"#utility.yul\":11446:11499   */\n      iszero\n      tag_688\n      jumpi\n        /* \"#utility.yul\":11495:11496   */\n      0x00\n        /* \"#utility.yul\":11492:11493   */\n      dup1\n        /* \"#utility.yul\":11485:11497   */\n      revert\n        /* \"#utility.yul\":11446:11499   */\n    tag_688:\n        /* \"#utility.yul\":11518:11547   */\n      tag_689\n        /* \"#utility.yul\":11537:11546   */\n      dup8\n        /* \"#utility.yul\":11518:11547   */\n      tag_600\n      jump\t// in\n    tag_689:\n        /* \"#utility.yul\":11508:11547   */\n      swap6\n      pop\n        /* \"#utility.yul\":11566:11568   */\n      0x20\n        /* \"#utility.yul\":11619:11621   */\n      dup1\n        /* \"#utility.yul\":11608:11617   */\n      dup9\n        /* \"#utility.yul\":11604:11622   */\n      add\n        /* \"#utility.yul\":11591:11623   */\n      calldataload\n      sub(shl(0x40, 0x01), 0x01)\n        /* \"#utility.yul\":11683:11685   */\n      dup1\n        /* \"#utility.yul\":11675:11681   */\n      dup3\n        /* \"#utility.yul\":11672:11686   */\n      gt\n        /* \"#utility.yul\":11669:11703   */\n      iszero\n      tag_690\n      jumpi\n        /* \"#utility.yul\":11699:11700   */\n      0x00\n        /* \"#utility.yul\":11696:11697   */\n      dup1\n        /* \"#utility.yul\":11689:11701   */\n      revert\n        /* \"#utility.yul\":11669:11703   */\n    tag_690:\n        /* \"#utility.yul\":11722:11772   */\n      tag_691\n        /* \"#utility.yul\":11764:11771   */\n      dup12\n        /* \"#utility.yul\":11755:11761   */\n      dup4\n        /* \"#utility.yul\":11744:11753   */\n      dup13\n        /* \"#utility.yul\":11740:11762   */\n      add\n        /* \"#utility.yul\":11722:11772   */\n      tag_605\n      jump\t// in\n    tag_691:\n        /* \"#utility.yul\":11712:11772   */\n      swap8\n      pop\n        /* \"#utility.yul\":11819:11821   */\n      0x40\n        /* \"#utility.yul\":11808:11817   */\n      dup11\n        /* \"#utility.yul\":11804:11822   */\n      add\n        /* \"#utility.yul\":11791:11823   */\n      calldataload\n        /* \"#utility.yul\":11781:11823   */\n      swap7\n      pop\n        /* \"#utility.yul\":11870:11872   */\n      0x60\n        /* \"#utility.yul\":11859:11868   */\n      dup11\n        /* \"#utility.yul\":11855:11873   */\n      add\n        /* \"#utility.yul\":11842:11874   */\n      calldataload\n        /* \"#utility.yul\":11832:11874   */\n      swap6\n      pop\n        /* \"#utility.yul\":11927:11930   */\n      0x80\n        /* \"#utility.yul\":11916:11925   */\n      dup11\n        /* \"#utility.yul\":11912:11931   */\n      add\n        /* \"#utility.yul\":11899:11932   */\n      calldataload\n        /* \"#utility.yul\":11883:11932   */\n      swap2\n      pop\n        /* \"#utility.yul\":11957:11959   */\n      dup1\n        /* \"#utility.yul\":11947:11955   */\n      dup3\n        /* \"#utility.yul\":11944:11960   */\n      gt\n        /* \"#utility.yul\":11941:11977   */\n      iszero\n      tag_692\n      jumpi\n        /* \"#utility.yul\":11973:11974   */\n      0x00\n        /* \"#utility.yul\":11970:11971   */\n      dup1\n        /* \"#utility.yul\":11963:11975   */\n      revert\n        /* \"#utility.yul\":11941:11977   */\n    tag_692:\n        /* \"#utility.yul\":12011:12019   */\n      dup2\n        /* \"#utility.yul\":12000:12009   */\n      dup11\n        /* \"#utility.yul\":11996:12020   */\n      add\n        /* \"#utility.yul\":11986:12020   */\n      swap2\n      pop\n        /* \"#utility.yul\":12058:12065   */\n      dup11\n        /* \"#utility.yul\":12051:12055   */\n      0x1f\n        /* \"#utility.yul\":12047:12049   */\n      dup4\n        /* \"#utility.yul\":12043:12056   */\n      add\n        /* \"#utility.yul\":12039:12066   */\n      slt\n        /* \"#utility.yul\":12029:12084   */\n      tag_693\n      jumpi\n        /* \"#utility.yul\":12080:12081   */\n      0x00\n        /* \"#utility.yul\":12077:12078   */\n      dup1\n        /* \"#utility.yul\":12070:12082   */\n      revert\n        /* \"#utility.yul\":12029:12084   */\n    tag_693:\n        /* \"#utility.yul\":12116:12118   */\n      dup2\n        /* \"#utility.yul\":12103:12119   */\n      calldataload\n        /* \"#utility.yul\":12139:12198   */\n      tag_694\n        /* \"#utility.yul\":12155:12197   */\n      tag_695\n        /* \"#utility.yul\":12194:12196   */\n      dup3\n        /* \"#utility.yul\":12155:12197   */\n      tag_607\n      jump\t// in\n    tag_695:\n        /* \"#utility.yul\":12139:12198   */\n      tag_604\n      jump\t// in\n    tag_694:\n        /* \"#utility.yul\":12232:12247   */\n      dup2\n      dup2\n      mstore\n        /* \"#utility.yul\":12314:12315   */\n      0x05\n        /* \"#utility.yul\":12310:12320   */\n      swap2\n      swap1\n      swap2\n      shl\n        /* \"#utility.yul\":12302:12321   */\n      dup4\n      add\n        /* \"#utility.yul\":12298:12326   */\n      dup5\n      add\n      swap1\n        /* \"#utility.yul\":12263:12275   */\n      dup5\n      dup2\n      add\n      swap1\n        /* \"#utility.yul\":12338:12357   */\n      dup14\n      dup4\n      gt\n        /* \"#utility.yul\":12335:12374   */\n      iszero\n      tag_696\n      jumpi\n        /* \"#utility.yul\":12370:12371   */\n      0x00\n        /* \"#utility.yul\":12367:12368   */\n      dup1\n        /* \"#utility.yul\":12360:12372   */\n      revert\n        /* \"#utility.yul\":12335:12374   */\n    tag_696:\n        /* \"#utility.yul\":12402:12404   */\n      dup6\n        /* \"#utility.yul\":12398:12400   */\n      dup6\n        /* \"#utility.yul\":12394:12405   */\n      add\n        /* \"#utility.yul\":12414:12660   */\n    tag_697:\n        /* \"#utility.yul\":12430:12436   */\n      dup4\n        /* \"#utility.yul\":12425:12428   */\n      dup2\n        /* \"#utility.yul\":12422:12437   */\n      lt\n        /* \"#utility.yul\":12414:12660   */\n      iszero\n      tag_699\n      jumpi\n        /* \"#utility.yul\":12509:12511   */\n      dup5\n        /* \"#utility.yul\":12503:12506   */\n      dup2\n        /* \"#utility.yul\":12490:12507   */\n      calldataload\n        /* \"#utility.yul\":12487:12512   */\n      gt\n        /* \"#utility.yul\":12484:12529   */\n      iszero\n      tag_700\n      jumpi\n        /* \"#utility.yul\":12525:12526   */\n      0x00\n        /* \"#utility.yul\":12522:12523   */\n      dup1\n        /* \"#utility.yul\":12515:12527   */\n      revert\n        /* \"#utility.yul\":12484:12529   */\n    tag_700:\n        /* \"#utility.yul\":12554:12617   */\n      tag_701\n        /* \"#utility.yul\":12609:12616   */\n      dup16\n        /* \"#utility.yul\":12604:12606   */\n      dup9\n        /* \"#utility.yul\":12597:12600   */\n      dup4\n        /* \"#utility.yul\":12584:12601   */\n      calldataload\n        /* \"#utility.yul\":12580:12582   */\n      dup10\n        /* \"#utility.yul\":12576:12602   */\n      add\n        /* \"#utility.yul\":12572:12607   */\n      add\n        /* \"#utility.yul\":12554:12617   */\n      tag_605\n      jump\t// in\n    tag_701:\n        /* \"#utility.yul\":12542:12618   */\n      dup4\n      mstore\n        /* \"#utility.yul\":12638:12650   */\n      swap2\n      dup7\n      add\n      swap2\n        /* \"#utility.yul\":12447:12459   */\n      dup7\n      add\n        /* \"#utility.yul\":12414:12660   */\n      jump(tag_697)\n    tag_699:\n        /* \"#utility.yul\":12418:12421   */\n      pop\n        /* \"#utility.yul\":12679:12684   */\n      dup1\n        /* \"#utility.yul\":12669:12684   */\n      swap8\n      pop\n      pop\n      pop\n      pop\n      pop\n      pop\n      pop\n        /* \"#utility.yul\":12731:12734   */\n      0xa0\n        /* \"#utility.yul\":12720:12729   */\n      dup8\n        /* \"#utility.yul\":12716:12735   */\n      add\n        /* \"#utility.yul\":12703:12736   */\n      calldataload\n        /* \"#utility.yul\":12693:12736   */\n      swap1\n      pop\n        /* \"#utility.yul\":11236:12742   */\n      swap3\n      swap6\n      pop\n      swap3\n      swap6\n      pop\n      swap3\n      swap6\n      jump\t// out\n        /* \"#utility.yul\":14029:14882   */\n    tag_177:\n        /* \"#utility.yul\":14229:14233   */\n      0x00\n        /* \"#utility.yul\":14258:14260   */\n      0x20\n        /* \"#utility.yul\":14298:14300   */\n      dup1\n        /* \"#utility.yul\":14287:14296   */\n      dup4\n        /* \"#utility.yul\":14283:14301   */\n      add\n        /* \"#utility.yul\":14328:14330   */\n      dup2\n        /* \"#utility.yul\":14317:14326   */\n      dup5\n        /* \"#utility.yul\":14310:14331   */\n      mstore\n        /* \"#utility.yul\":14351:14357   */\n      dup1\n        /* \"#utility.yul\":14386:14392   */\n      dup6\n        /* \"#utility.yul\":14380:14393   */\n      mload\n        /* \"#utility.yul\":14417:14423   */\n      dup1\n        /* \"#utility.yul\":14409:14415   */\n      dup4\n        /* \"#utility.yul\":14402:14424   */\n      mstore\n        /* \"#utility.yul\":14455:14457   */\n      0x40\n        /* \"#utility.yul\":14444:14453   */\n      dup7\n        /* \"#utility.yul\":14440:14458   */\n      add\n        /* \"#utility.yul\":14433:14458   */\n      swap2\n      pop\n        /* \"#utility.yul\":14517:14519   */\n      0x40\n        /* \"#utility.yul\":14507:14513   */\n      dup2\n        /* \"#utility.yul\":14504:14505   */\n      0x05\n        /* \"#utility.yul\":14500:14514   */\n      shl\n        /* \"#utility.yul\":14489:14498   */\n      dup8\n        /* \"#utility.yul\":14485:14515   */\n      add\n        /* \"#utility.yul\":14481:14520   */\n      add\n        /* \"#utility.yul\":14467:14520   */\n      swap3\n      pop\n        /* \"#utility.yul\":14555:14557   */\n      dup4\n        /* \"#utility.yul\":14547:14553   */\n      dup8\n        /* \"#utility.yul\":14543:14558   */\n      add\n        /* \"#utility.yul\":14576:14577   */\n      0x00\n        /* \"#utility.yul\":14586:14853   */\n    tag_706:\n        /* \"#utility.yul\":14600:14606   */\n      dup3\n        /* \"#utility.yul\":14597:14598   */\n      dup2\n        /* \"#utility.yul\":14594:14607   */\n      lt\n        /* \"#utility.yul\":14586:14853   */\n      iszero\n      tag_636\n      jumpi\n        /* \"#utility.yul\":14693:14695   */\n      0x3f\n        /* \"#utility.yul\":14689:14696   */\n      not\n        /* \"#utility.yul\":14677:14686   */\n      dup9\n        /* \"#utility.yul\":14669:14675   */\n      dup7\n        /* \"#utility.yul\":14665:14687   */\n      sub\n        /* \"#utility.yul\":14661:14697   */\n      add\n        /* \"#utility.yul\":14656:14659   */\n      dup5\n        /* \"#utility.yul\":14649:14698   */\n      mstore\n        /* \"#utility.yul\":14721:14773   */\n      tag_709\n        /* \"#utility.yul\":14766:14772   */\n      dup6\n        /* \"#utility.yul\":14757:14763   */\n      dup4\n        /* \"#utility.yul\":14751:14764   */\n      mload\n        /* \"#utility.yul\":14721:14773   */\n      tag_606\n      jump\t// in\n    tag_709:\n        /* \"#utility.yul\":14711:14773   */\n      swap5\n      pop\n        /* \"#utility.yul\":14831:14843   */\n      swap3\n      dup6\n      add\n      swap3\n        /* \"#utility.yul\":14796:14811   */\n      swap1\n      dup6\n      add\n      swap1\n        /* \"#utility.yul\":14622:14623   */\n      0x01\n        /* \"#utility.yul\":14615:14624   */\n      add\n        /* \"#utility.yul\":14586:14853   */\n      jump(tag_706)\n        /* \"#utility.yul\":14887:15141   */\n    tag_184:\n        /* \"#utility.yul\":14955:14961   */\n      0x00\n        /* \"#utility.yul\":14963:14969   */\n      dup1\n        /* \"#utility.yul\":15016:15018   */\n      0x40\n        /* \"#utility.yul\":15004:15013   */\n      dup4\n        /* \"#utility.yul\":14995:15002   */\n      dup6\n        /* \"#utility.yul\":14991:15014   */\n      sub\n        /* \"#utility.yul\":14987:15019   */\n      slt\n        /* \"#utility.yul\":14984:15036   */\n      iszero\n      tag_711\n      jumpi\n        /* \"#utility.yul\":15032:15033   */\n      0x00\n        /* \"#utility.yul\":15029:15030   */\n      dup1\n        /* \"#utility.yul\":15022:15034   */\n      revert\n        /* \"#utility.yul\":14984:15036   */\n    tag_711:\n        /* \"#utility.yul\":15055:15084   */\n      tag_712\n        /* \"#utility.yul\":15074:15083   */\n      dup4\n        /* \"#utility.yul\":15055:15084   */\n      tag_600\n      jump\t// in\n    tag_712:\n        /* \"#utility.yul\":15045:15084   */\n      swap5\n        /* \"#utility.yul\":15131:15133   */\n      0x20\n        /* \"#utility.yul\":15116:15134   */\n      swap4\n      swap1\n      swap4\n      add\n        /* \"#utility.yul\":15103:15135   */\n      calldataload\n      swap4\n      pop\n      pop\n      pop\n        /* \"#utility.yul\":14887:15141   */\n      jump\t// out\n        /* \"#utility.yul\":15146:15537   */\n    tag_189:\n        /* \"#utility.yul\":15232:15238   */\n      0x00\n        /* \"#utility.yul\":15240:15246   */\n      dup1\n        /* \"#utility.yul\":15248:15254   */\n      0x00\n        /* \"#utility.yul\":15256:15262   */\n      dup1\n        /* \"#utility.yul\":15309:15312   */\n      0x80\n        /* \"#utility.yul\":15297:15306   */\n      dup6\n        /* \"#utility.yul\":15288:15295   */\n      dup8\n        /* \"#utility.yul\":15284:15307   */\n      sub\n        /* \"#utility.yul\":15280:15313   */\n      slt\n        /* \"#utility.yul\":15277:15330   */\n      iszero\n      tag_714\n      jumpi\n        /* \"#utility.yul\":15326:15327   */\n      0x00\n        /* \"#utility.yul\":15323:15324   */\n      dup1\n        /* \"#utility.yul\":15316:15328   */\n      revert\n        /* \"#utility.yul\":15277:15330   */\n    tag_714:\n        /* \"#utility.yul\":15362:15371   */\n      dup5\n        /* \"#utility.yul\":15349:15372   */\n      calldataload\n        /* \"#utility.yul\":15339:15372   */\n      swap4\n      pop\n        /* \"#utility.yul\":15419:15421   */\n      0x20\n        /* \"#utility.yul\":15408:15417   */\n      dup6\n        /* \"#utility.yul\":15404:15422   */\n      add\n        /* \"#utility.yul\":15391:15423   */\n      calldataload\n        /* \"#utility.yul\":15381:15423   */\n      swap3\n      pop\n        /* \"#utility.yul\":15470:15472   */\n      0x40\n        /* \"#utility.yul\":15459:15468   */\n      dup6\n        /* \"#utility.yul\":15455:15473   */\n      add\n        /* \"#utility.yul\":15442:15474   */\n      calldataload\n        /* \"#utility.yul\":15432:15474   */\n      swap2\n      pop\n        /* \"#utility.yul\":15493:15531   */\n      tag_715\n        /* \"#utility.yul\":15527:15529   */\n      0x60\n        /* \"#utility.yul\":15516:15525   */\n      dup7\n        /* \"#utility.yul\":15512:15530   */\n      add\n        /* \"#utility.yul\":15493:15531   */\n      tag_600\n      jump\t// in\n    tag_715:\n        /* \"#utility.yul\":15483:15531   */\n      swap1\n      pop\n        /* \"#utility.yul\":15146:15537   */\n      swap3\n      swap6\n      swap2\n      swap5\n      pop\n      swap3\n      pop\n      jump\t// out\n        /* \"#utility.yul\":15542:15797   */\n    tag_199:\n        /* \"#utility.yul\":15719:15721   */\n      0x20\n        /* \"#utility.yul\":15708:15717   */\n      dup2\n        /* \"#utility.yul\":15701:15722   */\n      mstore\n        /* \"#utility.yul\":15682:15686   */\n      0x00\n        /* \"#utility.yul\":15739:15791   */\n      tag_623\n        /* \"#utility.yul\":15787:15789   */\n      0x20\n        /* \"#utility.yul\":15776:15785   */\n      dup4\n        /* \"#utility.yul\":15772:15790   */\n      add\n        /* \"#utility.yul\":15764:15770   */\n      dup5\n        /* \"#utility.yul\":15739:15791   */\n      tag_603\n      jump\t// in\n        /* \"#utility.yul\":15802:15920   */\n    tag_608:\n        /* \"#utility.yul\":15888:15893   */\n      dup1\n        /* \"#utility.yul\":15881:15894   */\n      iszero\n        /* \"#utility.yul\":15874:15895   */\n      iszero\n        /* \"#utility.yul\":15867:15872   */\n      dup2\n        /* \"#utility.yul\":15864:15896   */\n      eq\n        /* \"#utility.yul\":15854:15914   */\n      tag_719\n      jumpi\n        /* \"#utility.yul\":15910:15911   */\n      0x00\n        /* \"#utility.yul\":15907:15908   */\n      dup1\n        /* \"#utility.yul\":15900:15912   */\n      revert\n        /* \"#utility.yul\":15854:15914   */\n    tag_719:\n        /* \"#utility.yul\":15802:15920   */\n      pop\n      jump\t// out\n        /* \"#utility.yul\":15925:17026   */\n    tag_202:\n        /* \"#utility.yul\":16024:16030   */\n      0x00\n        /* \"#utility.yul\":16032:16038   */\n      dup1\n        /* \"#utility.yul\":16040:16046   */\n      0x00\n        /* \"#utility.yul\":16093:16095   */\n      0x60\n        /* \"#utility.yul\":16081:16090   */\n      dup5\n        /* \"#utility.yul\":16072:16079   */\n      dup7\n        /* \"#utility.yul\":16068:16091   */\n      sub\n        /* \"#utility.yul\":16064:16096   */\n      slt\n        /* \"#utility.yul\":16061:16113   */\n      iszero\n      tag_721\n      jumpi\n        /* \"#utility.yul\":16109:16110   */\n      0x00\n        /* \"#utility.yul\":16106:16107   */\n      dup1\n        /* \"#utility.yul\":16099:16111   */\n      revert\n        /* \"#utility.yul\":16061:16113   */\n    tag_721:\n        /* \"#utility.yul\":16145:16154   */\n      dup4\n        /* \"#utility.yul\":16132:16155   */\n      calldataload\n        /* \"#utility.yul\":16122:16155   */\n      swap3\n      pop\n        /* \"#utility.yul\":16174:16176   */\n      0x20\n        /* \"#utility.yul\":16195:16233   */\n      tag_722\n        /* \"#utility.yul\":16229:16231   */\n      dup2\n        /* \"#utility.yul\":16218:16227   */\n      dup7\n        /* \"#utility.yul\":16214:16232   */\n      add\n        /* \"#utility.yul\":16195:16233   */\n      tag_600\n      jump\t// in\n    tag_722:\n        /* \"#utility.yul\":16185:16233   */\n      swap3\n      pop\n        /* \"#utility.yul\":16284:16286   */\n      0x40\n        /* \"#utility.yul\":16273:16282   */\n      dup6\n        /* \"#utility.yul\":16269:16287   */\n      add\n        /* \"#utility.yul\":16256:16288   */\n      calldataload\n      sub(shl(0x40, 0x01), 0x01)\n        /* \"#utility.yul\":16303:16309   */\n      dup2\n        /* \"#utility.yul\":16300:16330   */\n      gt\n        /* \"#utility.yul\":16297:16347   */\n      iszero\n      tag_723\n      jumpi\n        /* \"#utility.yul\":16343:16344   */\n      0x00\n        /* \"#utility.yul\":16340:16341   */\n      dup1\n        /* \"#utility.yul\":16333:16345   */\n      revert\n        /* \"#utility.yul\":16297:16347   */\n    tag_723:\n        /* \"#utility.yul\":16366:16388   */\n      dup6\n      add\n        /* \"#utility.yul\":16419:16423   */\n      0x1f\n        /* \"#utility.yul\":16411:16424   */\n      dup2\n      add\n        /* \"#utility.yul\":16407:16434   */\n      dup8\n      sgt\n        /* \"#utility.yul\":16397:16452   */\n      tag_724\n      jumpi\n        /* \"#utility.yul\":16448:16449   */\n      0x00\n        /* \"#utility.yul\":16445:16446   */\n      dup1\n        /* \"#utility.yul\":16438:16450   */\n      revert\n        /* \"#utility.yul\":16397:16452   */\n    tag_724:\n        /* \"#utility.yul\":16484:16486   */\n      dup1\n        /* \"#utility.yul\":16471:16487   */\n      calldataload\n        /* \"#utility.yul\":16507:16566   */\n      tag_725\n        /* \"#utility.yul\":16523:16565   */\n      tag_695\n        /* \"#utility.yul\":16562:16564   */\n      dup3\n        /* \"#utility.yul\":16523:16565   */\n      tag_607\n      jump\t// in\n        /* \"#utility.yul\":16507:16566   */\n    tag_725:\n        /* \"#utility.yul\":16600:16615   */\n      dup2\n      dup2\n      mstore\n        /* \"#utility.yul\":16682:16683   */\n      0x05\n        /* \"#utility.yul\":16678:16688   */\n      swap2\n      swap1\n      swap2\n      shl\n        /* \"#utility.yul\":16670:16689   */\n      dup3\n      add\n        /* \"#utility.yul\":16666:16694   */\n      dup4\n      add\n      swap1\n        /* \"#utility.yul\":16631:16643   */\n      dup4\n      dup2\n      add\n      swap1\n        /* \"#utility.yul\":16706:16725   */\n      dup10\n      dup4\n      gt\n        /* \"#utility.yul\":16703:16742   */\n      iszero\n      tag_727\n      jumpi\n        /* \"#utility.yul\":16738:16739   */\n      0x00\n        /* \"#utility.yul\":16735:16736   */\n      dup1\n        /* \"#utility.yul\":16728:16740   */\n      revert\n        /* \"#utility.yul\":16703:16742   */\n    tag_727:\n        /* \"#utility.yul\":16762:16773   */\n      swap3\n      dup5\n      add\n      swap3\n        /* \"#utility.yul\":16782:16996   */\n    tag_728:\n        /* \"#utility.yul\":16798:16804   */\n      dup3\n        /* \"#utility.yul\":16793:16796   */\n      dup5\n        /* \"#utility.yul\":16790:16805   */\n      lt\n        /* \"#utility.yul\":16782:16996   */\n      iszero\n      tag_730\n      jumpi\n        /* \"#utility.yul\":16878:16881   */\n      dup4\n        /* \"#utility.yul\":16865:16882   */\n      calldataload\n        /* \"#utility.yul\":16895:16923   */\n      tag_731\n        /* \"#utility.yul\":16917:16922   */\n      dup2\n        /* \"#utility.yul\":16895:16923   */\n      tag_608\n      jump\t// in\n    tag_731:\n        /* \"#utility.yul\":16936:16954   */\n      dup3\n      mstore\n        /* \"#utility.yul\":16815:16827   */\n      swap3\n      dup5\n      add\n      swap3\n        /* \"#utility.yul\":16974:16986   */\n      swap1\n      dup5\n      add\n      swap1\n        /* \"#utility.yul\":16782:16996   */\n      jump(tag_728)\n    tag_730:\n        /* \"#utility.yul\":17015:17020   */\n      dup1\n        /* \"#utility.yul\":17005:17020   */\n      swap6\n      pop\n      pop\n      pop\n      pop\n      pop\n      pop\n        /* \"#utility.yul\":15925:17026   */\n      swap3\n      pop\n      swap3\n      pop\n      swap3\n      jump\t// out\n        /* \"#utility.yul\":17031:18275   */\n    tag_212:\n        /* \"#utility.yul\":17225:17229   */\n      0x00\n        /* \"#utility.yul\":17254:17256   */\n      0x20\n        /* \"#utility.yul\":17294:17296   */\n      dup1\n        /* \"#utility.yul\":17283:17292   */\n      dup4\n        /* \"#utility.yul\":17279:17297   */\n      add\n        /* \"#utility.yul\":17324:17326   */\n      dup2\n        /* \"#utility.yul\":17313:17322   */\n      dup5\n        /* \"#utility.yul\":17306:17327   */\n      mstore\n        /* \"#utility.yul\":17347:17353   */\n      dup1\n        /* \"#utility.yul\":17382:17388   */\n      dup6\n        /* \"#utility.yul\":17376:17389   */\n      mload\n        /* \"#utility.yul\":17413:17419   */\n      dup1\n        /* \"#utility.yul\":17405:17411   */\n      dup4\n        /* \"#utility.yul\":17398:17420   */\n      mstore\n        /* \"#utility.yul\":17439:17441   */\n      0x40\n        /* \"#utility.yul\":17429:17441   */\n      swap3\n      pop\n        /* \"#utility.yul\":17472:17474   */\n      dup3\n        /* \"#utility.yul\":17461:17470   */\n      dup7\n        /* \"#utility.yul\":17457:17475   */\n      add\n        /* \"#utility.yul\":17450:17475   */\n      swap2\n      pop\n        /* \"#utility.yul\":17534:17536   */\n      dup3\n        /* \"#utility.yul\":17524:17530   */\n      dup2\n        /* \"#utility.yul\":17521:17522   */\n      0x05\n        /* \"#utility.yul\":17517:17531   */\n      shl\n        /* \"#utility.yul\":17506:17515   */\n      dup8\n        /* \"#utility.yul\":17502:17532   */\n      add\n        /* \"#utility.yul\":17498:17537   */\n      add\n        /* \"#utility.yul\":17572:17574   */\n      dup5\n        /* \"#utility.yul\":17564:17570   */\n      dup9\n        /* \"#utility.yul\":17560:17575   */\n      add\n        /* \"#utility.yul\":17593:17594   */\n      0x00\n        /* \"#utility.yul\":17603:18246   */\n    tag_733:\n        /* \"#utility.yul\":17617:17623   */\n      dup4\n        /* \"#utility.yul\":17614:17615   */\n      dup2\n        /* \"#utility.yul\":17611:17624   */\n      lt\n        /* \"#utility.yul\":17603:18246   */\n      iszero\n      tag_735\n      jumpi\n        /* \"#utility.yul\":17710:17712   */\n      0x3f\n        /* \"#utility.yul\":17706:17713   */\n      not\n        /* \"#utility.yul\":17694:17703   */\n      dup10\n        /* \"#utility.yul\":17686:17692   */\n      dup5\n        /* \"#utility.yul\":17682:17704   */\n      sub\n        /* \"#utility.yul\":17678:17714   */\n      add\n        /* \"#utility.yul\":17673:17676   */\n      dup6\n        /* \"#utility.yul\":17666:17715   */\n      mstore\n        /* \"#utility.yul\":17744:17750   */\n      dup2\n        /* \"#utility.yul\":17738:17751   */\n      mload\n        /* \"#utility.yul\":17774:17778   */\n      0x80\n        /* \"#utility.yul\":17812:17814   */\n      dup2\n        /* \"#utility.yul\":17806:17815   */\n      mload\n        /* \"#utility.yul\":17798:17804   */\n      dup6\n        /* \"#utility.yul\":17791:17816   */\n      mstore\n        /* \"#utility.yul\":17867:17869   */\n      dup9\n        /* \"#utility.yul\":17863:17865   */\n      dup3\n        /* \"#utility.yul\":17859:17870   */\n      add\n        /* \"#utility.yul\":17853:17871   */\n      mload\n        /* \"#utility.yul\":17848:17850   */\n      dup10\n        /* \"#utility.yul\":17840:17846   */\n      dup7\n        /* \"#utility.yul\":17836:17851   */\n      add\n        /* \"#utility.yul\":17829:17872   */\n      mstore\n        /* \"#utility.yul\":17919:17921   */\n      dup8\n        /* \"#utility.yul\":17915:17917   */\n      dup3\n        /* \"#utility.yul\":17911:17922   */\n      add\n        /* \"#utility.yul\":17905:17923   */\n      mload\n        /* \"#utility.yul\":17960:17962   */\n      dup2\n        /* \"#utility.yul\":17955:17957   */\n      dup10\n        /* \"#utility.yul\":17947:17953   */\n      dup8\n        /* \"#utility.yul\":17943:17958   */\n      add\n        /* \"#utility.yul\":17936:17963   */\n      mstore\n        /* \"#utility.yul\":17990:18038   */\n      tag_736\n        /* \"#utility.yul\":18034:18036   */\n      dup3\n        /* \"#utility.yul\":18026:18032   */\n      dup8\n        /* \"#utility.yul\":18022:18037   */\n      add\n        /* \"#utility.yul\":18008:18020   */\n      dup3\n        /* \"#utility.yul\":17990:18038   */\n      tag_601\n      jump\t// in\n    tag_736:\n        /* \"#utility.yul\":18061:18065   */\n      0x60\n        /* \"#utility.yul\":18122:18133   */\n      swap4\n      dup5\n      add\n        /* \"#utility.yul\":18116:18134   */\n      mload\n        /* \"#utility.yul\":18109:18135   */\n      iszero\n        /* \"#utility.yul\":18102:18136   */\n      iszero\n        /* \"#utility.yul\":18085:18100   */\n      swap7\n      swap1\n      swap4\n      add\n        /* \"#utility.yul\":18078:18137   */\n      swap6\n      swap1\n      swap6\n      mstore\n      pop\n        /* \"#utility.yul\":18224:18236   */\n      swap5\n      dup8\n      add\n      swap5\n        /* \"#utility.yul\":17976:18038   */\n      swap3\n      pop\n        /* \"#utility.yul\":18189:18204   */\n      swap1\n      dup7\n      add\n      swap1\n        /* \"#utility.yul\":17639:17640   */\n      0x01\n        /* \"#utility.yul\":17632:17641   */\n      add\n        /* \"#utility.yul\":17603:18246   */\n      jump(tag_733)\n    tag_735:\n      pop\n        /* \"#utility.yul\":18263:18269   */\n      swap1\n      swap9\n        /* \"#utility.yul\":17031:18275   */\n      swap8\n      pop\n      pop\n      pop\n      pop\n      pop\n      pop\n      pop\n      pop\n      jump\t// out\n        /* \"#utility.yul\":18280:18987   */\n    tag_217:\n        /* \"#utility.yul\":18561:18586   */\n      dup8\n      dup2\n      mstore\n      sub(shl(0xa0, 0x01), 0x01)\n        /* \"#utility.yul\":18622:18654   */\n      dup8\n      and\n        /* \"#utility.yul\":18617:18619   */\n      0x20\n        /* \"#utility.yul\":18602:18620   */\n      dup3\n      add\n        /* \"#utility.yul\":18595:18655   */\n      mstore\n        /* \"#utility.yul\":18691:18694   */\n      0xe0\n        /* \"#utility.yul\":18686:18688   */\n      0x40\n        /* \"#utility.yul\":18671:18689   */\n      dup3\n      add\n        /* \"#utility.yul\":18664:18695   */\n      dup2\n      swap1\n      mstore\n      0x00\n      swap1\n        /* \"#utility.yul\":18712:18758   */\n      tag_738\n      swap1\n        /* \"#utility.yul\":18738:18757   */\n      dup4\n      add\n        /* \"#utility.yul\":18730:18736   */\n      dup9\n        /* \"#utility.yul\":18712:18758   */\n      tag_601\n      jump\t// in\n    tag_738:\n        /* \"#utility.yul\":18789:18791   */\n      0x60\n        /* \"#utility.yul\":18774:18792   */\n      dup4\n      add\n        /* \"#utility.yul\":18767:18801   */\n      swap7\n      swap1\n      swap7\n      mstore\n      pop\n        /* \"#utility.yul\":18845:18859   */\n      swap3\n      iszero\n        /* \"#utility.yul\":18838:18860   */\n      iszero\n        /* \"#utility.yul\":18832:18835   */\n      0x80\n        /* \"#utility.yul\":18817:18836   */\n      dup5\n      add\n        /* \"#utility.yul\":18810:18861   */\n      mstore\n        /* \"#utility.yul\":18905:18919   */\n      swap1\n      iszero\n        /* \"#utility.yul\":18898:18920   */\n      iszero\n        /* \"#utility.yul\":18892:18895   */\n      0xa0\n        /* \"#utility.yul\":18877:18896   */\n      dup4\n      add\n        /* \"#utility.yul\":18870:18921   */\n      mstore\n        /* \"#utility.yul\":18965:18979   */\n      iszero\n        /* \"#utility.yul\":18958:18980   */\n      iszero\n        /* \"#utility.yul\":18952:18955   */\n      0xc0\n        /* \"#utility.yul\":18937:18956   */\n      swap1\n      swap2\n      add\n        /* \"#utility.yul\":18930:18981   */\n      mstore\n        /* \"#utility.yul\":18704:18758   */\n      swap4\n        /* \"#utility.yul\":18280:18987   */\n      swap3\n      pop\n      pop\n      pop\n      jump\t// out\n        /* \"#utility.yul\":18992:19437   */\n    tag_222:\n        /* \"#utility.yul\":19219:19225   */\n      dup5\n        /* \"#utility.yul\":19208:19217   */\n      dup2\n        /* \"#utility.yul\":19201:19226   */\n      mstore\n        /* \"#utility.yul\":19262:19268   */\n      dup4\n        /* \"#utility.yul\":19257:19259   */\n      0x20\n        /* \"#utility.yul\":19246:19255   */\n      dup3\n        /* \"#utility.yul\":19242:19260   */\n      add\n        /* \"#utility.yul\":19235:19269   */\n      mstore\n        /* \"#utility.yul\":19305:19308   */\n      0x80\n        /* \"#utility.yul\":19300:19302   */\n      0x40\n        /* \"#utility.yul\":19289:19298   */\n      dup3\n        /* \"#utility.yul\":19285:19303   */\n      add\n        /* \"#utility.yul\":19278:19309   */\n      mstore\n        /* \"#utility.yul\":19182:19186   */\n      0x00\n        /* \"#utility.yul\":19326:19372   */\n      tag_740\n        /* \"#utility.yul\":19367:19370   */\n      0x80\n        /* \"#utility.yul\":19356:19365   */\n      dup4\n        /* \"#utility.yul\":19352:19371   */\n      add\n        /* \"#utility.yul\":19344:19350   */\n      dup6\n        /* \"#utility.yul\":19326:19372   */\n      tag_601\n      jump\t// in\n    tag_740:\n        /* \"#utility.yul\":19318:19372   */\n      swap1\n      pop\n        /* \"#utility.yul\":19422:19428   */\n      dup3\n        /* \"#utility.yul\":19415:19429   */\n      iszero\n        /* \"#utility.yul\":19408:19430   */\n      iszero\n        /* \"#utility.yul\":19403:19405   */\n      0x60\n        /* \"#utility.yul\":19392:19401   */\n      dup4\n        /* \"#utility.yul\":19388:19406   */\n      add\n        /* \"#utility.yul\":19381:19431   */\n      mstore\n        /* \"#utility.yul\":18992:19437   */\n      swap6\n      swap5\n      pop\n      pop\n      pop\n      pop\n      pop\n      jump\t// out\n        /* \"#utility.yul\":19442:19569   */\n    tag_609:\n        /* \"#utility.yul\":19503:19513   */\n      0x4e487b71\n        /* \"#utility.yul\":19498:19501   */\n      0xe0\n        /* \"#utility.yul\":19494:19514   */\n      shl\n        /* \"#utility.yul\":19491:19492   */\n      0x00\n        /* \"#utility.yul\":19484:19515   */\n      mstore\n        /* \"#utility.yul\":19534:19538   */\n      0x11\n        /* \"#utility.yul\":19531:19532   */\n      0x04\n        /* \"#utility.yul\":19524:19539   */\n      mstore\n        /* \"#utility.yul\":19558:19562   */\n      0x24\n        /* \"#utility.yul\":19555:19556   */\n      0x00\n        /* \"#utility.yul\":19548:19563   */\n      revert\n        /* \"#utility.yul\":19574:19699   */\n    tag_225:\n        /* \"#utility.yul\":19639:19648   */\n      dup1\n      dup3\n      add\n        /* \"#utility.yul\":19660:19670   */\n      dup1\n      dup3\n      gt\n        /* \"#utility.yul\":19657:19693   */\n      iszero\n      tag_223\n      jumpi\n        /* \"#utility.yul\":19673:19691   */\n      tag_223\n      tag_609\n      jump\t// in\n        /* \"#utility.yul\":19704:19977   */\n    tag_235:\n        /* \"#utility.yul\":19772:19778   */\n      0x00\n        /* \"#utility.yul\":19825:19827   */\n      0x20\n        /* \"#utility.yul\":19813:19822   */\n      dup3\n        /* \"#utility.yul\":19804:19811   */\n      dup5\n        /* \"#utility.yul\":19800:19823   */\n      sub\n        /* \"#utility.yul\":19796:19828   */\n      slt\n        /* \"#utility.yul\":19793:19845   */\n      iszero\n      tag_746\n      jumpi\n        /* \"#utility.yul\":19841:19842   */\n      0x00\n        /* \"#utility.yul\":19838:19839   */\n      dup1\n        /* \"#utility.yul\":19831:19843   */\n      revert\n        /* \"#utility.yul\":19793:19845   */\n    tag_746:\n        /* \"#utility.yul\":19873:19882   */\n      dup2\n        /* \"#utility.yul\":19867:19883   */\n      mload\n        /* \"#utility.yul\":19923:19927   */\n      0xff\n        /* \"#utility.yul\":19916:19921   */\n      dup2\n        /* \"#utility.yul\":19912:19928   */\n      and\n        /* \"#utility.yul\":19905:19910   */\n      dup2\n        /* \"#utility.yul\":19902:19929   */\n      eq\n        /* \"#utility.yul\":19892:19947   */\n      tag_623\n      jumpi\n        /* \"#utility.yul\":19943:19944   */\n      0x00\n        /* \"#utility.yul\":19940:19941   */\n      dup1\n        /* \"#utility.yul\":19933:19945   */\n      revert\n        /* \"#utility.yul\":19982:20404   */\n    tag_610:\n        /* \"#utility.yul\":20071:20072   */\n      0x01\n        /* \"#utility.yul\":20114:20119   */\n      dup2\n        /* \"#utility.yul\":20071:20072   */\n      dup2\n        /* \"#utility.yul\":20128:20398   */\n    tag_749:\n        /* \"#utility.yul\":20149:20156   */\n      dup1\n        /* \"#utility.yul\":20139:20147   */\n      dup6\n        /* \"#utility.yul\":20136:20157   */\n      gt\n        /* \"#utility.yul\":20128:20398   */\n      iszero\n      tag_751\n      jumpi\n        /* \"#utility.yul\":20208:20212   */\n      dup2\n        /* \"#utility.yul\":20204:20205   */\n      0x00\n        /* \"#utility.yul\":20200:20206   */\n      not\n        /* \"#utility.yul\":20196:20213   */\n      div\n        /* \"#utility.yul\":20190:20194   */\n      dup3\n        /* \"#utility.yul\":20187:20214   */\n      gt\n        /* \"#utility.yul\":20184:20237   */\n      iszero\n      tag_753\n      jumpi\n        /* \"#utility.yul\":20217:20235   */\n      tag_753\n      tag_609\n      jump\t// in\n    tag_753:\n        /* \"#utility.yul\":20267:20274   */\n      dup1\n        /* \"#utility.yul\":20257:20265   */\n      dup6\n        /* \"#utility.yul\":20253:20275   */\n      and\n        /* \"#utility.yul\":20250:20305   */\n      iszero\n      tag_754\n      jumpi\n        /* \"#utility.yul\":20287:20303   */\n      swap2\n      dup2\n      mul\n      swap2\n        /* \"#utility.yul\":20250:20305   */\n    tag_754:\n        /* \"#utility.yul\":20366:20388   */\n      swap4\n      dup5\n      shr\n      swap4\n        /* \"#utility.yul\":20326:20341   */\n      swap1\n      dup1\n      mul\n      swap1\n        /* \"#utility.yul\":20128:20398   */\n      jump(tag_749)\n    tag_751:\n        /* \"#utility.yul\":20132:20135   */\n      pop\n        /* \"#utility.yul\":19982:20404   */\n      swap3\n      pop\n      swap3\n      swap1\n      pop\n      jump\t// out\n        /* \"#utility.yul\":20409:21215   */\n    tag_611:\n        /* \"#utility.yul\":20458:20463   */\n      0x00\n        /* \"#utility.yul\":20488:20496   */\n      dup3\n        /* \"#utility.yul\":20478:20558   */\n      tag_756\n      jumpi\n      pop\n        /* \"#utility.yul\":20529:20530   */\n      0x01\n        /* \"#utility.yul\":20543:20548   */\n      jump(tag_223)\n        /* \"#utility.yul\":20478:20558   */\n    tag_756:\n        /* \"#utility.yul\":20577:20581   */\n      dup2\n        /* \"#utility.yul\":20567:20643   */\n      tag_757\n      jumpi\n      pop\n        /* \"#utility.yul\":20614:20615   */\n      0x00\n        /* \"#utility.yul\":20628:20633   */\n      jump(tag_223)\n        /* \"#utility.yul\":20567:20643   */\n    tag_757:\n        /* \"#utility.yul\":20659:20663   */\n      dup2\n        /* \"#utility.yul\":20677:20678   */\n      0x01\n        /* \"#utility.yul\":20672:20731   */\n      dup2\n      eq\n      tag_759\n      jumpi\n        /* \"#utility.yul\":20745:20746   */\n      0x02\n        /* \"#utility.yul\":20740:20870   */\n      dup2\n      eq\n      tag_760\n      jumpi\n        /* \"#utility.yul\":20652:20870   */\n      jump(tag_758)\n        /* \"#utility.yul\":20672:20731   */\n    tag_759:\n        /* \"#utility.yul\":20702:20703   */\n      0x01\n        /* \"#utility.yul\":20693:20703   */\n      swap2\n      pop\n        /* \"#utility.yul\":20716:20721   */\n      pop\n      jump(tag_223)\n        /* \"#utility.yul\":20740:20870   */\n    tag_760:\n        /* \"#utility.yul\":20777:20780   */\n      0xff\n        /* \"#utility.yul\":20767:20775   */\n      dup5\n        /* \"#utility.yul\":20764:20781   */\n      gt\n        /* \"#utility.yul\":20761:20804   */\n      iszero\n      tag_762\n      jumpi\n        /* \"#utility.yul\":20784:20802   */\n      tag_762\n      tag_609\n      jump\t// in\n    tag_762:\n      pop\n      pop\n        /* \"#utility.yul\":20840:20841   */\n      0x01\n        /* \"#utility.yul\":20826:20842   */\n      dup3\n      shl\n        /* \"#utility.yul\":20855:20860   */\n      jump(tag_223)\n        /* \"#utility.yul\":20652:20870   */\n    tag_758:\n      pop\n        /* \"#utility.yul\":20954:20956   */\n      0x20\n        /* \"#utility.yul\":20944:20952   */\n      dup4\n        /* \"#utility.yul\":20941:20957   */\n      lt\n        /* \"#utility.yul\":20935:20938   */\n      0x0133\n        /* \"#utility.yul\":20929:20933   */\n      dup4\n        /* \"#utility.yul\":20926:20939   */\n      lt\n        /* \"#utility.yul\":20922:20958   */\n      and\n        /* \"#utility.yul\":20916:20918   */\n      0x4e\n        /* \"#utility.yul\":20906:20914   */\n      dup5\n        /* \"#utility.yul\":20903:20919   */\n      lt\n        /* \"#utility.yul\":20898:20900   */\n      0x0b\n        /* \"#utility.yul\":20892:20896   */\n      dup5\n        /* \"#utility.yul\":20889:20901   */\n      lt\n        /* \"#utility.yul\":20885:20920   */\n      and\n        /* \"#utility.yul\":20882:20959   */\n      or\n        /* \"#utility.yul\":20879:21038   */\n      iszero\n      tag_763\n      jumpi\n      pop\n        /* \"#utility.yul\":20991:21010   */\n      dup2\n      dup2\n      exp\n        /* \"#utility.yul\":21023:21028   */\n      jump(tag_223)\n        /* \"#utility.yul\":20879:21038   */\n    tag_763:\n        /* \"#utility.yul\":21070:21104   */\n      tag_764\n        /* \"#utility.yul\":21095:21103   */\n      dup4\n        /* \"#utility.yul\":21089:21093   */\n      dup4\n        /* \"#utility.yul\":21070:21104   */\n      tag_610\n      jump\t// in\n    tag_764:\n        /* \"#utility.yul\":21140:21146   */\n      dup1\n        /* \"#utility.yul\":21136:21137   */\n      0x00\n        /* \"#utility.yul\":21132:21138   */\n      not\n        /* \"#utility.yul\":21128:21147   */\n      div\n        /* \"#utility.yul\":21119:21126   */\n      dup3\n        /* \"#utility.yul\":21116:21148   */\n      gt\n        /* \"#utility.yul\":21113:21171   */\n      iszero\n      tag_766\n      jumpi\n        /* \"#utility.yul\":21151:21169   */\n      tag_766\n      tag_609\n      jump\t// in\n    tag_766:\n        /* \"#utility.yul\":21189:21209   */\n      mul\n      swap4\n        /* \"#utility.yul\":20409:21215   */\n      swap3\n      pop\n      pop\n      pop\n      jump\t// out\n        /* \"#utility.yul\":21220:21360   */\n    tag_237:\n        /* \"#utility.yul\":21278:21283   */\n      0x00\n        /* \"#utility.yul\":21307:21354   */\n      tag_623\n        /* \"#utility.yul\":21348:21352   */\n      0xff\n        /* \"#utility.yul\":21338:21346   */\n      dup5\n        /* \"#utility.yul\":21334:21353   */\n      and\n        /* \"#utility.yul\":21328:21332   */\n      dup4\n        /* \"#utility.yul\":21307:21354   */\n      tag_611\n      jump\t// in\n        /* \"#utility.yul\":21365:21533   */\n    tag_239:\n        /* \"#utility.yul\":21438:21447   */\n      dup1\n      dup3\n      mul\n        /* \"#utility.yul\":21469:21478   */\n      dup2\n      iszero\n        /* \"#utility.yul\":21486:21501   */\n      dup3\n      dup3\n      div\n        /* \"#utility.yul\":21480:21502   */\n      dup5\n      eq\n        /* \"#utility.yul\":21466:21503   */\n      or\n        /* \"#utility.yul\":21456:21527   */\n      tag_223\n      jumpi\n        /* \"#utility.yul\":21507:21525   */\n      tag_223\n      tag_609\n      jump\t// in\n        /* \"#utility.yul\":21538:21918   */\n    tag_244:\n        /* \"#utility.yul\":21617:21618   */\n      0x01\n        /* \"#utility.yul\":21613:21625   */\n      dup2\n      dup2\n      shr\n      swap1\n        /* \"#utility.yul\":21660:21672   */\n      dup3\n      and\n      dup1\n        /* \"#utility.yul\":21681:21742   */\n      tag_773\n      jumpi\n        /* \"#utility.yul\":21735:21739   */\n      0x7f\n        /* \"#utility.yul\":21727:21733   */\n      dup3\n        /* \"#utility.yul\":21723:21740   */\n      and\n        /* \"#utility.yul\":21713:21740   */\n      swap2\n      pop\n        /* \"#utility.yul\":21681:21742   */\n    tag_773:\n        /* \"#utility.yul\":21788:21790   */\n      0x20\n        /* \"#utility.yul\":21780:21786   */\n      dup3\n        /* \"#utility.yul\":21777:21791   */\n      lt\n        /* \"#utility.yul\":21757:21775   */\n      dup2\n        /* \"#utility.yul\":21754:21792   */\n      sub\n        /* \"#utility.yul\":21751:21912   */\n      tag_774\n      jumpi\n        /* \"#utility.yul\":21834:21844   */\n      0x4e487b71\n        /* \"#utility.yul\":21829:21832   */\n      0xe0\n        /* \"#utility.yul\":21825:21845   */\n      shl\n        /* \"#utility.yul\":21822:21823   */\n      0x00\n        /* \"#utility.yul\":21815:21846   */\n      mstore\n        /* \"#utility.yul\":21869:21873   */\n      0x22\n        /* \"#utility.yul\":21866:21867   */\n      0x04\n        /* \"#utility.yul\":21859:21874   */\n      mstore\n        /* \"#utility.yul\":21897:21901   */\n      0x24\n        /* \"#utility.yul\":21894:21895   */\n      0x00\n        /* \"#utility.yul\":21887:21902   */\n      revert\n        /* \"#utility.yul\":21751:21912   */\n    tag_774:\n      pop\n        /* \"#utility.yul\":21538:21918   */\n      swap2\n      swap1\n      pop\n      jump\t// out\n        /* \"#utility.yul\":21923:22050   */\n    tag_262:\n        /* \"#utility.yul\":21984:21994   */\n      0x4e487b71\n        /* \"#utility.yul\":21979:21982   */\n      0xe0\n        /* \"#utility.yul\":21975:21995   */\n      shl\n        /* \"#utility.yul\":21972:21973   */\n      0x00\n        /* \"#utility.yul\":21965:21996   */\n      mstore\n        /* \"#utility.yul\":22015:22019   */\n      0x32\n        /* \"#utility.yul\":22012:22013   */\n      0x04\n        /* \"#utility.yul\":22005:22020   */\n      mstore\n        /* \"#utility.yul\":22039:22043   */\n      0x24\n        /* \"#utility.yul\":22036:22037   */\n      0x00\n        /* \"#utility.yul\":22029:22044   */\n      revert\n        /* \"#utility.yul\":22055:22190   */\n    tag_273:\n        /* \"#utility.yul\":22094:22097   */\n      0x00\n        /* \"#utility.yul\":22115:22132   */\n      0x01\n      dup3\n      add\n        /* \"#utility.yul\":22112:22155   */\n      tag_778\n      jumpi\n        /* \"#utility.yul\":22135:22153   */\n      tag_778\n      tag_609\n      jump\t// in\n    tag_778:\n      pop\n        /* \"#utility.yul\":22182:22183   */\n      0x01\n        /* \"#utility.yul\":22171:22184   */\n      add\n      swap1\n        /* \"#utility.yul\":22055:22190   */\n      jump\t// out\n        /* \"#utility.yul\":22195:22412   */\n    tag_309:\n        /* \"#utility.yul\":22235:22236   */\n      0x00\n        /* \"#utility.yul\":22261:22262   */\n      dup3\n        /* \"#utility.yul\":22251:22383   */\n      tag_780\n      jumpi\n        /* \"#utility.yul\":22305:22315   */\n      0x4e487b71\n        /* \"#utility.yul\":22300:22303   */\n      0xe0\n        /* \"#utility.yul\":22296:22316   */\n      shl\n        /* \"#utility.yul\":22293:22294   */\n      0x00\n        /* \"#utility.yul\":22286:22317   */\n      mstore\n        /* \"#utility.yul\":22340:22344   */\n      0x12\n        /* \"#utility.yul\":22337:22338   */\n      0x04\n        /* \"#utility.yul\":22330:22345   */\n      mstore\n        /* \"#utility.yul\":22368:22372   */\n      0x24\n        /* \"#utility.yul\":22365:22366   */\n      0x00\n        /* \"#utility.yul\":22358:22373   */\n      revert\n        /* \"#utility.yul\":22251:22383   */\n    tag_780:\n      pop\n        /* \"#utility.yul\":22397:22406   */\n      div\n      swap1\n        /* \"#utility.yul\":22195:22412   */\n      jump\t// out\n        /* \"#utility.yul\":22543:23088   */\n    tag_613:\n        /* \"#utility.yul\":22645:22647   */\n      0x1f\n        /* \"#utility.yul\":22640:22643   */\n      dup3\n        /* \"#utility.yul\":22637:22648   */\n      gt\n        /* \"#utility.yul\":22634:23082   */\n      iszero\n      tag_783\n      jumpi\n        /* \"#utility.yul\":22681:22682   */\n      0x00\n        /* \"#utility.yul\":22706:22711   */\n      dup2\n        /* \"#utility.yul\":22702:22704   */\n      dup2\n        /* \"#utility.yul\":22695:22712   */\n      mstore\n        /* \"#utility.yul\":22751:22755   */\n      0x20\n        /* \"#utility.yul\":22747:22749   */\n      dup2\n        /* \"#utility.yul\":22737:22756   */\n      keccak256\n        /* \"#utility.yul\":22821:22823   */\n      0x1f\n        /* \"#utility.yul\":22809:22819   */\n      dup6\n        /* \"#utility.yul\":22805:22824   */\n      add\n        /* \"#utility.yul\":22802:22803   */\n      0x05\n        /* \"#utility.yul\":22798:22825   */\n      shr\n        /* \"#utility.yul\":22792:22796   */\n      dup2\n        /* \"#utility.yul\":22788:22826   */\n      add\n        /* \"#utility.yul\":22857:22861   */\n      0x20\n        /* \"#utility.yul\":22845:22855   */\n      dup7\n        /* \"#utility.yul\":22842:22862   */\n      lt\n        /* \"#utility.yul\":22839:22886   */\n      iszero\n      tag_784\n      jumpi\n      pop\n        /* \"#utility.yul\":22880:22884   */\n      dup1\n        /* \"#utility.yul\":22839:22886   */\n    tag_784:\n        /* \"#utility.yul\":22935:22937   */\n      0x1f\n        /* \"#utility.yul\":22930:22933   */\n      dup6\n        /* \"#utility.yul\":22926:22938   */\n      add\n        /* \"#utility.yul\":22923:22924   */\n      0x05\n        /* \"#utility.yul\":22919:22939   */\n      shr\n        /* \"#utility.yul\":22913:22917   */\n      dup3\n        /* \"#utility.yul\":22909:22940   */\n      add\n        /* \"#utility.yul\":22899:22940   */\n      swap2\n      pop\n        /* \"#utility.yul\":22990:23072   */\n    tag_785:\n        /* \"#utility.yul\":23008:23010   */\n      dup2\n        /* \"#utility.yul\":23001:23006   */\n      dup2\n        /* \"#utility.yul\":22998:23011   */\n      lt\n        /* \"#utility.yul\":22990:23072   */\n      iszero\n      tag_787\n      jumpi\n        /* \"#utility.yul\":23053:23070   */\n      dup3\n      dup2\n      sstore\n        /* \"#utility.yul\":23034:23035   */\n      0x01\n        /* \"#utility.yul\":23023:23036   */\n      add\n        /* \"#utility.yul\":22990:23072   */\n      jump(tag_785)\n    tag_787:\n        /* \"#utility.yul\":22994:22997   */\n      pop\n      pop\n      pop\n        /* \"#utility.yul\":22634:23082   */\n    tag_783:\n        /* \"#utility.yul\":22543:23088   */\n      pop\n      pop\n      pop\n      jump\t// out\n        /* \"#utility.yul\":23264:24616   */\n    tag_417:\n        /* \"#utility.yul\":23390:23393   */\n      dup2\n        /* \"#utility.yul\":23384:23394   */\n      mload\n      sub(shl(0x40, 0x01), 0x01)\n        /* \"#utility.yul\":23409:23415   */\n      dup2\n        /* \"#utility.yul\":23406:23436   */\n      gt\n        /* \"#utility.yul\":23403:23459   */\n      iszero\n      tag_791\n      jumpi\n        /* \"#utility.yul\":23439:23457   */\n      tag_791\n      tag_252\n      jump\t// in\n    tag_791:\n        /* \"#utility.yul\":23468:23565   */\n      tag_792\n        /* \"#utility.yul\":23558:23564   */\n      dup2\n        /* \"#utility.yul\":23518:23556   */\n      tag_793\n        /* \"#utility.yul\":23550:23554   */\n      dup5\n        /* \"#utility.yul\":23544:23555   */\n      sload\n        /* \"#utility.yul\":23518:23556   */\n      tag_244\n      jump\t// in\n    tag_793:\n        /* \"#utility.yul\":23512:23516   */\n      dup5\n        /* \"#utility.yul\":23468:23565   */\n      tag_613\n      jump\t// in\n    tag_792:\n        /* \"#utility.yul\":23620:23624   */\n      0x20\n      dup1\n        /* \"#utility.yul\":23684:23686   */\n      0x1f\n        /* \"#utility.yul\":23673:23687   */\n      dup4\n      gt\n        /* \"#utility.yul\":23701:23702   */\n      0x01\n        /* \"#utility.yul\":23696:24359   */\n      dup2\n      eq\n      tag_795\n      jumpi\n        /* \"#utility.yul\":24403:24404   */\n      0x00\n        /* \"#utility.yul\":24420:24426   */\n      dup5\n        /* \"#utility.yul\":24417:24506   */\n      iszero\n      tag_796\n      jumpi\n      pop\n        /* \"#utility.yul\":24472:24491   */\n      dup6\n      dup4\n      add\n        /* \"#utility.yul\":24466:24492   */\n      mload\n        /* \"#utility.yul\":24417:24506   */\n    tag_796:\n      not(0x00)\n        /* \"#utility.yul\":23221:23222   */\n      0x03\n        /* \"#utility.yul\":23217:23228   */\n      dup7\n      swap1\n      shl\n        /* \"#utility.yul\":23213:23237   */\n      shr\n        /* \"#utility.yul\":23209:23238   */\n      not\n        /* \"#utility.yul\":23199:23239   */\n      and\n        /* \"#utility.yul\":23245:23246   */\n      0x01\n        /* \"#utility.yul\":23241:23252   */\n      dup6\n      swap1\n      shl\n        /* \"#utility.yul\":23196:23253   */\n      or\n        /* \"#utility.yul\":24519:24600   */\n      dup6\n      sstore\n        /* \"#utility.yul\":23666:24610   */\n      jump(tag_787)\n        /* \"#utility.yul\":23696:24359   */\n    tag_795:\n        /* \"#utility.yul\":22490:22491   */\n      0x00\n        /* \"#utility.yul\":22483:22497   */\n      dup6\n      dup2\n      mstore\n        /* \"#utility.yul\":22527:22531   */\n      0x20\n        /* \"#utility.yul\":22514:22532   */\n      dup2\n      keccak256\n      not(0x1f)\n        /* \"#utility.yul\":23732:23752   */\n      dup7\n      and\n      swap2\n        /* \"#utility.yul\":23850:24086   */\n    tag_799:\n        /* \"#utility.yul\":23864:23871   */\n      dup3\n        /* \"#utility.yul\":23861:23862   */\n      dup2\n        /* \"#utility.yul\":23858:23872   */\n      lt\n        /* \"#utility.yul\":23850:24086   */\n      iszero\n      tag_801\n      jumpi\n        /* \"#utility.yul\":23953:23972   */\n      dup9\n      dup7\n      add\n        /* \"#utility.yul\":23947:23973   */\n      mload\n        /* \"#utility.yul\":23932:23974   */\n      dup3\n      sstore\n        /* \"#utility.yul\":24045:24072   */\n      swap5\n      dup5\n      add\n      swap5\n        /* \"#utility.yul\":24013:24014   */\n      0x01\n        /* \"#utility.yul\":24001:24015   */\n      swap1\n      swap2\n      add\n      swap1\n        /* \"#utility.yul\":23880:23899   */\n      dup5\n      add\n        /* \"#utility.yul\":23850:24086   */\n      jump(tag_799)\n    tag_801:\n        /* \"#utility.yul\":23854:23857   */\n      pop\n        /* \"#utility.yul\":24114:24120   */\n      dup6\n        /* \"#utility.yul\":24105:24112   */\n      dup3\n        /* \"#utility.yul\":24102:24121   */\n      lt\n        /* \"#utility.yul\":24099:24300   */\n      iszero\n      tag_802\n      jumpi\n        /* \"#utility.yul\":24175:24194   */\n      dup8\n      dup6\n      add\n        /* \"#utility.yul\":24169:24195   */\n      mload\n      not(0x00)\n        /* \"#utility.yul\":24258:24259   */\n      0x03\n        /* \"#utility.yul\":24254:24268   */\n      dup9\n      swap1\n      shl\n        /* \"#utility.yul\":24270:24273   */\n      0xf8\n        /* \"#utility.yul\":24250:24274   */\n      and\n        /* \"#utility.yul\":24246:24283   */\n      shr\n        /* \"#utility.yul\":24242:24284   */\n      not\n        /* \"#utility.yul\":24227:24285   */\n      and\n        /* \"#utility.yul\":24212:24286   */\n      dup2\n      sstore\n        /* \"#utility.yul\":24099:24300   */\n    tag_802:\n      pop\n      pop\n      pop\n      pop\n      pop\n        /* \"#utility.yul\":24346:24347   */\n      0x01\n        /* \"#utility.yul\":24330:24344   */\n      swap1\n      dup2\n      shl\n        /* \"#utility.yul\":24326:24348   */\n      add\n        /* \"#utility.yul\":24313:24349   */\n      swap1\n      sstore\n      pop\n        /* \"#utility.yul\":23264:24616   */\n      jump\t// out\n        /* \"#utility.yul\":24900:25145   */\n    tag_483:\n        /* \"#utility.yul\":24967:24973   */\n      0x00\n        /* \"#utility.yul\":25020:25022   */\n      0x20\n        /* \"#utility.yul\":25008:25017   */\n      dup3\n        /* \"#utility.yul\":24999:25006   */\n      dup5\n        /* \"#utility.yul\":24995:25018   */\n      sub\n        /* \"#utility.yul\":24991:25023   */\n      slt\n        /* \"#utility.yul\":24988:25040   */\n      iszero\n      tag_805\n      jumpi\n        /* \"#utility.yul\":25036:25037   */\n      0x00\n        /* \"#utility.yul\":25033:25034   */\n      dup1\n        /* \"#utility.yul\":25026:25038   */\n      revert\n        /* \"#utility.yul\":24988:25040   */\n    tag_805:\n        /* \"#utility.yul\":25068:25077   */\n      dup2\n        /* \"#utility.yul\":25062:25078   */\n      mload\n        /* \"#utility.yul\":25087:25115   */\n      tag_623\n        /* \"#utility.yul\":25109:25114   */\n      dup2\n        /* \"#utility.yul\":25087:25115   */\n      tag_608\n      jump\t// in\n\n    auxdata: 0xa264697066735822122067064bd0c18cfacf3e442a863181434d846ffe448e209e55962469c1b75b6f2f64736f6c63430008130033\n}\n",
				"bytecode": {
					"linkReferences": {},
					"object": "6080604052600080546001600160a01b031990811673ece897a85688f2e83a73fed36b9d1a6efcc99e93179091556014805490911673874069fa1eb16d44d622f2e0ca25eea172369bc117905534801561005857600080fd5b50614109806100686000396000f3fe608060405234801561001057600080fd5b506004361061023d5760003560e01c806368df32991161013b5780639a23218f116100b8578063ca2e7f9b1161007c578063ca2e7f9b14610677578063cc4903ca1461068a578063f31e72e41461069d578063f692a3bb146106bd578063fb47e9e6146106e357600080fd5b80639a23218f146105cb578063a58543fe146105de578063b3265ecd14610616578063b9c745b314610629578063c0ac4ae41461065757600080fd5b80637a1bc375116100ff5780637a1bc375146105175780637e9508191461051f5780638e6da6191461054d57806395ecea1f14610598578063964f6566146105ab57600080fd5b806368df32991461046e57806369bff3fb146104815780636b8ac0e7146104ce5780636f5fde11146104e157806373fd653d1461050457600080fd5b806325f18424116101c9578063449626091161018d57806344962609146103df5780634fe1cfad146103f25780635822bff11461041b5780635b76074e1461043b5780635fa7a90a1461044e57600080fd5b806325f184241461035d578063392a5822146103705780633abb615a146103905780633b43b7d0146103a35780633bdd0ad1146103b657600080fd5b8063196f7f1e11610210578063196f7f1e146102cf5780631b6f2485146102e45780631bd1ebc41461030a5780632076a35a1461031d5780632394e5dc1461033d57600080fd5b806303f16747146102425780630478318b1461026857806307f6646e14610288578063125bb83d146102a8575b600080fd5b6102556102503660046133ff565b610706565b6040519081526020015b60405180910390f35b61027b61027636600461343d565b6107ed565b60405161025f91906134a5565b61029b61029636600461343d565b6108ff565b60405161025f919061357f565b6102bb6102b63660046133ff565b610b17565b60405161025f9897969594939291906135e1565b6102e26102dd3660046136ff565b610c9b565b005b6102f76102f2366004613755565b610cf7565b60405161025f979695949392919061376e565b610255610318366004613755565b610ddc565b61033061032b3660046137c0565b610fd5565b60405161025f91906137ec565b61035061034b36600461343d565b6112c4565b60405161025f91906138fb565b61025561036b36600461343d565b611466565b61038361037e36600461343d565b611531565b60405161025f919061390e565b61029b61039e36600461343d565b61167d565b6102e26103b136600461397a565b611878565b6102556103c436600461343d565b6001600160a01b031660009081526009602052604090205490565b6102556103ed3660046133ff565b611979565b61025561040036600461343d565b6001600160a01b031660009081526008602052604090205490565b61025561042936600461343d565b60086020526000908152604090205481565b6102bb61044936600461343d565b611b69565b61025561045c36600461343d565b60096020526000908152604090205481565b6102e261047c366004613a18565b611b9c565b61049461048f3660046133ff565b611e0c565b604080519687526020870195909552938501929092526001600160a01b0316606084015215156080830152151560a082015260c00161025f565b6102e26104dc3660046137c0565b611e71565b6104f46104ef36600461343d565b61235a565b604051901515815260200161025f565b6102e261051236600461343d565b612391565b61029b612555565b6104f461052d3660046137c0565b600760209081526000928352604080842090915290825290205460ff1681565b61056061055b366004613755565b612699565b6040805195865260208601949094526001600160a01b039092169284019290925260608301919091521515608082015260a00161025f565b6105606105a6366004613755565b6126e7565b6105be6105b9366004613755565b6126f7565b60405161025f9190613b1e565b6104f46105d936600461343d565b6128e7565b6104f46105ec366004613b73565b60009081526006602090815260408083206001600160a01b03949094168352929052205460ff1690565b6102e2610624366004613b9d565b612917565b6104f46106373660046137c0565b600660209081526000928352604080842090915290825290205460ff1681565b61066a610665366004613755565b612aa5565b60405161025f9190613bdc565b6102e2610685366004613c00565b612bd8565b610330610698366004613755565b612f19565b6106b06106ab366004613755565b612fce565b60405161025f9190613cb5565b6106d06106cb36600461343d565b6130ed565b60405161025f9796959493929190613d43565b6106f66106f13660046133ff565b6131c4565b60405161025f9493929190613d95565b6000806107138482613ddd565b90508260050361072b57610728600282613ddd565b90505b826007036107415761073e600482613ddd565b90505b8260090361075757610754600682613ddd565b90505b601460009054906101000a90046001600160a01b03166001600160a01b031663313ce5676040518163ffffffff1660e01b8152600401602060405180830381865afa1580156107aa573d6000803e3d6000fd5b505050506040513d601f19601f820116820180604052508101906107ce9190613df0565b6107d990600a613ef7565b6107e39082613f06565b9150505b92915050565b6107f561329c565b6001600160a01b03808316600090815260016020818152604092839020835160e08101855281548152928101549094169082015260028301805491939284019161083e90613f1d565b80601f016020809104026020016040519081016040528092919081815260200182805461086a90613f1d565b80156108b75780601f1061088c576101008083540402835291602001916108b7565b820191906000526020600020905b81548152906001019060200180831161089a57829003601f168201915b50505091835250506003820154602082015260049091015460ff8082161515604084015261010082048116151560608401526201000090910416151560809091015292915050565b6001600160a01b038116600090815260086020526040812054606091816001600160401b038111156109335761093361364a565b60405190808252806020026020018201604052801561096c57816020015b6109596132e8565b8152602001906001900390816109515790505b5090506000805b600354811015610b0d5760006003828154811061099257610992613f57565b90600052602060002090600702016040518060e0016040529081600082015481526020016001820160009054906101000a90046001600160a01b03166001600160a01b03166001600160a01b031681526020016002820180546109f490613f1d565b80601f0160208091040260200160405190810160405280929190818152602001828054610a2090613f1d565b8015610a6d5780601f10610a4257610100808354040283529160200191610a6d565b820191906000526020600020905b815481529060010190602001808311610a5057829003601f168201915b50505091835250506003820154602080830191909152600483015460408301526005830154606083015260069092015460ff1615156080909101528101519091506001600160a01b03808916911603610aed5780848481518110610ad357610ad3613f57565b60200260200101819052508280610ae990613f6d565b9350505b848303610afa5750610b0d565b5080610b0581613f6d565b915050610973565b5090949350505050565b600a6020528160005260406000208181548110610b3357600080fd5b60009182526020909120600790910201805460018201546002830180549295506001600160a01b03909116935090610b6a90613f1d565b80601f0160208091040260200160405190810160405280929190818152602001828054610b9690613f1d565b8015610be35780601f10610bb857610100808354040283529160200191610be3565b820191906000526020600020905b815481529060010190602001808311610bc657829003601f168201915b505050505090806003018054610bf890613f1d565b80601f0160208091040260200160405190810160405280929190818152602001828054610c2490613f1d565b8015610c715780601f10610c4657610100808354040283529160200191610c71565b820191906000526020600020905b815481529060010190602001808311610c5457829003601f168201915b50505050600483015460058401546006909401549293909290915060ff8082169161010090041688565b600d54610ca661329c565b8181526001600160a01b0385166020820152604081018490526060810183905260006080820181905260a0820181905260c08201819052600d805491610ceb83613f6d565b91905055505050505050565b60038181548110610d0757600080fd5b60009182526020909120600790910201805460018201546002830180549294506001600160a01b039091169291610d3d90613f1d565b80601f0160208091040260200160405190810160405280929190818152602001828054610d6990613f1d565b8015610db65780601f10610d8b57610100808354040283529160200191610db6565b820191906000526020600020905b815481529060010190602001808311610d9957829003601f168201915b505050506003830154600484015460058501546006909501549394919390925060ff1687565b60008060038381548110610df257610df2613f57565b90600052602060002090600702016040518060e0016040529081600082015481526020016001820160009054906101000a90046001600160a01b03166001600160a01b03166001600160a01b03168152602001600282018054610e5490613f1d565b80601f0160208091040260200160405190810160405280929190818152602001828054610e8090613f1d565b8015610ecd5780601f10610ea257610100808354040283529160200191610ecd565b820191906000526020600020905b815481529060010190602001808311610eb057829003601f168201915b50505091835250506003820154602082015260048201546040820152600580830154606083015260069092015460ff16151560809182015260a0830151908301519293509190600090600a90610f24908590613f06565b610f2e9190613f86565b90506000610f3c8383613f86565b9050601460009054906101000a90046001600160a01b03166001600160a01b031663313ce5676040518163ffffffff1660e01b8152600401602060405180830381865afa158015610f91573d6000803e3d6000fd5b505050506040513d601f19601f82011682018060405250810190610fb59190613df0565b610fc090600a613ef7565b610fca9082613f06565b979650505050505050565b6060600060038481548110610fec57610fec613f57565b90600052602060002090600702016040518060e0016040529081600082015481526020016001820160009054906101000a90046001600160a01b03166001600160a01b03166001600160a01b0316815260200160028201805461104e90613f1d565b80601f016020809104026020016040519081016040528092919081815260200182805461107a90613f1d565b80156110c75780601f1061109c576101008083540402835291602001916110c7565b820191906000526020600020905b8154815290600101906020018083116110aa57829003601f168201915b505050505081526020016003820154815260200160048201548152602001600582015481526020016006820160009054906101000a900460ff1615151515815250509050600060056000868152602001908152602001600020805480602002602001604051908101604052809291908181526020016000905b828210156111c05760008481526020908190206040805160c081018252600486029092018054835260018082015484860152600282015492840192909252600301546001600160a01b038116606084015260ff600160a01b8204811615156080850152600160a81b90910416151560a08301529083529092019101611140565b5050505060608301519091506000816001600160401b038111156111e6576111e661364a565b60405190808252806020026020018201604052801561121f57816020015b61120c613330565b8152602001906001900390816112045790505b5090506000805b84518110156112b757600085828151811061124357611243613f57565b60200260200101519050886001600160a01b031681606001516001600160a01b031603611297578084848151811061127d5761127d613f57565b6020026020010181905250828061129390613f6d565b9350505b8483036112a457506112b7565b50806112af81613f6d565b915050611226565b5090979650505050505050565b6112cc613373565b6001600160a01b03808316600090815260026020818152604092839020835161010081018552815481526001820154909516918501919091529081018054919284019161131890613f1d565b80601f016020809104026020016040519081016040528092919081815260200182805461134490613f1d565b80156113915780601f1061136657610100808354040283529160200191611391565b820191906000526020600020905b81548152906001019060200180831161137457829003601f168201915b505050505081526020016003820180546113aa90613f1d565b80601f01602080910402602001604051908101604052809291908181526020018280546113d690613f1d565b80156114235780601f106113f857610100808354040283529160200191611423565b820191906000526020600020905b81548152906001019060200180831161140657829003601f168201915b5050509183525050600482015460208201526005820154604082015260069091015460ff8082161515606084015261010090910416151560809091015292915050565b6001600160a01b03811660009081526002602052604081206005015481816001600160401b0381111561149b5761149b61364a565b6040519080825280602002602001820160405280156114d457816020015b6114c16133c5565b8152602001906001900390816114b95790505b5090506000805b82518110156115285760008382815181106114f8576114f8613f57565b602002602001015190508060600151836115129190613ddd565b925050808061152090613f6d565b9150506114db565b50949350505050565b6001600160a01b038116600090815260026020526040812060050154606091816001600160401b038111156115685761156861364a565b6040519080825280602002602001820160405280156115a157816020015b61158e6133c5565b8152602001906001900390816115865790505b5090506000805b600c54811015610b0d576000600c82815481106115c7576115c7613f57565b60009182526020918290206040805160a08101825260059093029091018054835260018101549383019390935260028301546001600160a01b039081169183018290526003840154606084015260049093015460ff1615156080830152909250908816900361165d578084848151811061164357611643613f57565b6020026020010181905250828061165990613f6d565b9350505b84830361166a5750610b0d565b508061167581613f6d565b9150506115a8565b6060600061168a83611531565b9050600081516001600160401b038111156116a7576116a761364a565b6040519080825280602002602001820160405280156116e057816020015b6116cd6132e8565b8152602001906001900390816116c55790505b5090506000805b8351811015610b0d57600084828151811061170457611704613f57565b60200260200101519050600381602001518154811061172557611725613f57565b90600052602060002090600702016040518060e0016040529081600082015481526020016001820160009054906101000a90046001600160a01b03166001600160a01b03166001600160a01b0316815260200160028201805461178790613f1d565b80601f01602080910402602001604051908101604052809291908181526020018280546117b390613f1d565b80156118005780601f106117d557610100808354040283529160200191611800565b820191906000526020600020905b8154815290600101906020018083116117e357829003601f168201915b505050918352505060038201546020820152600482015460408201526005820154606082015260069091015460ff161515608090910152845185908590811061184b5761184b613f57565b6020026020010181905250828061186190613f6d565b93505050808061187090613f6d565b9150506116e7565b600e54611883613373565b8181526001600160a01b03868116602080840182815260408086018a8152606087018a905260808701899052600060a0880181905260c0880181905260e0880181905294855260029384905293208551815590516001820180546001600160a01b031916919095161790935590518392918201906119019082613ff7565b50606082015160038201906119169082613ff7565b506080820151600482015560a0820151600582015560c08201516006909101805460e09093015115156101000261ff00199215159290921661ffff1990931692909217179055600e805490600061196c83613f6d565b9190505550505050505050565b6000806003848154811061198f5761198f613f57565b90600052602060002090600702016040518060e0016040529081600082015481526020016001820160009054906101000a90046001600160a01b03166001600160a01b03166001600160a01b031681526020016002820180546119f190613f1d565b80601f0160208091040260200160405190810160405280929190818152602001828054611a1d90613f1d565b8015611a6a5780601f10611a3f57610100808354040283529160200191611a6a565b820191906000526020600020905b815481529060010190602001808311611a4d57829003601f168201915b50505091835250506003820154602082015260048201546040820152600580830154606083015260069092015460ff16151560809091015260a08201519192506000908590600a90611abd908590613f06565b611ac79190613f86565b611ad19190613f86565b9050601460009054906101000a90046001600160a01b03166001600160a01b031663313ce5676040518163ffffffff1660e01b8152600401602060405180830381865afa158015611b26573d6000803e3d6000fd5b505050506040513d601f19601f82011682018060405250810190611b4a9190613df0565b611b5590600a613ef7565b611b5f9082613f06565b9695505050505050565b600260208190526000918252604090912080546001820154928201805491936001600160a01b03169291610b6a90613f1d565b600f54611ba76132e8565b8181526001600160a01b038881166020830190815260408301898152606084018990526080840188905260a08401869052600060c0850181905260038054600181018255915284517fc2575a0e9e593c00f959f8c92f12db2869c3395a3b0502d05e2516446f71f85b600790920291820190815592517fc2575a0e9e593c00f959f8c92f12db2869c3395a3b0502d05e2516446f71f85c820180546001600160a01b03191691909516179093555183927fc2575a0e9e593c00f959f8c92f12db2869c3395a3b0502d05e2516446f71f85d0190611c849082613ff7565b50606082015160038201556080820151600482015560a0820151600582015560c0909101516006909101805460ff19169115159190911790556001600160a01b03881660009081526008602052604090205480611ce081613f6d565b6001600160a01b038b1660009081526008602052604081209290925591505b87811015611deb576010546040805160808101825260006020820181815260609383018490529282015282815285519091528751889084908110611d4557611d45613f57565b6020908102919091018101516040808401918252600060608501819052885181526004808552918120805460018181018355918352918590208651929093029092019081559284015190830155518291906002820190611da59082613ff7565b50606091909101516003909101805460ff191691151591909117905560108054906000611dd183613f6d565b919050555050508080611de390613f6d565b915050611cff565b50600f8054906000611dfc83613f6d565b9190505550505050505050505050565b60056020528160005260406000208181548110611e2857600080fd5b6000918252602090912060049091020180546001820154600283015460039093015491945092506001600160a01b0381169060ff600160a01b8204811691600160a81b90041686565b600060038381548110611e8657611e86613f57565b90600052602060002090600702016040518060e0016040529081600082015481526020016001820160009054906101000a90046001600160a01b03166001600160a01b03166001600160a01b03168152602001600282018054611ee890613f1d565b80601f0160208091040260200160405190810160405280929190818152602001828054611f1490613f1d565b8015611f615780601f10611f3657610100808354040283529160200191611f61565b820191906000526020600020905b815481529060010190602001808311611f4457829003601f168201915b505050918352505060038201546020820152600482015460408201526005820154606082015260069091015460ff16151560809091015290506000611fa584610ddc565b60145460405163a9059cbb60e01b81526001600160a01b0386811660048301526024820184905292935091169063a9059cbb906044016020604051808303816000875af1158015611ffa573d6000803e3d6000fd5b505050506040513d601f19601f8201168201806040525081019061201e91906140b6565b50600061202f858460800151611979565b60145460005460405163a9059cbb60e01b81526001600160a01b03918216600482015260248101849052929350169063a9059cbb906044016020604051808303816000875af1158015612086573d6000803e3d6000fd5b505050506040513d601f19601f820116820180604052508101906120aa91906140b6565b506120b36133c5565b601280548252602082018781526001600160a01b038781166040850190815260608501878152600060808701818152600c805460018101825590835288517fdf6966c971051c3d54ec59162606531493a51404a002842f56009d7e5cf4a8c760059092029182015595517fdf6966c971051c3d54ec59162606531493a51404a002842f56009d7e5cf4a8c887015592517fdf6966c971051c3d54ec59162606531493a51404a002842f56009d7e5cf4a8c9860180546001600160a01b0319169190951617909355517fdf6966c971051c3d54ec59162606531493a51404a002842f56009d7e5cf4a8ca840155517fdf6966c971051c3d54ec59162606531493a51404a002842f56009d7e5cf4a8cb909201805460ff191692151592909217909155815491906121e183613f6d565b909155505060008681526007602090815260408083206001600160a01b03891684529091529020805460ff1916600117905561221b6133c5565b60128054825260208201888152600080546001600160a01b03908116604086019081526060860188815260808701848152600c805460018101825590865288517fdf6966c971051c3d54ec59162606531493a51404a002842f56009d7e5cf4a8c760059092029182015595517fdf6966c971051c3d54ec59162606531493a51404a002842f56009d7e5cf4a8c887015591517fdf6966c971051c3d54ec59162606531493a51404a002842f56009d7e5cf4a8c9860180546001600160a01b031916919094161790925590517fdf6966c971051c3d54ec59162606531493a51404a002842f56009d7e5cf4a8ca840155517fdf6966c971051c3d54ec59162606531493a51404a002842f56009d7e5cf4a8cb909201805460ff1916921515929092179091558154919061234c83613f6d565b919050555050505050505050565b6001600160a01b038116600090815260026020526040812060060154610100900460ff166123895760016107e7565b600092915050565b6001600160a01b038082166000908152600160208181526040808420815160e08101835281548152938101549095169183019190915260028401805493949293918401916123de90613f1d565b80601f016020809104026020016040519081016040528092919081815260200182805461240a90613f1d565b80156124575780601f1061242c57610100808354040283529160200191612457565b820191906000526020600020905b81548152906001019060200180831161243a57829003601f168201915b5050509183525050600382015460208083019190915260049092015460ff8082161515604080850191909152610100830482161515606085015262010000909204161515608090920191909152600160a084018190526001600160a01b038681166000908152828552839020855181559385015191840180546001600160a01b03191692909116919091179055820151919250829160028201906124fb9082613ff7565b506060820151600382015560808201516004909101805460a084015160c0909401511515620100000262ff0000199415156101000261ff00199415159490941661ffff199092169190911792909217929092161790555050565b60606003805480602002602001604051908101604052809291908181526020016000905b828210156126905760008481526020908190206040805160e081018252600786029092018054835260018101546001600160a01b031693830193909352600283018054929392918401916125cc90613f1d565b80601f01602080910402602001604051908101604052809291908181526020018280546125f890613f1d565b80156126455780601f1061261a57610100808354040283529160200191612645565b820191906000526020600020905b81548152906001019060200180831161262857829003601f168201915b50505091835250506003820154602080830191909152600483015460408301526005830154606083015260069092015460ff1615156080909101529082526001929092019101612579565b50505050905090565b600c81815481106126a957600080fd5b60009182526020909120600590910201805460018201546002830154600384015460049094015492945090926001600160a01b039091169160ff1685565b600b81815481106126a957600080fd5b6060600a6000838152602001908152602001600020805480602002602001604051908101604052809291908181526020016000905b828210156128dc5760008481526020908190206040805161010081018252600786029092018054835260018101546001600160a01b0316938301939093526002830180549293929184019161278090613f1d565b80601f01602080910402602001604051908101604052809291908181526020018280546127ac90613f1d565b80156127f95780601f106127ce576101008083540402835291602001916127f9565b820191906000526020600020905b8154815290600101906020018083116127dc57829003601f168201915b5050505050815260200160038201805461281290613f1d565b80601f016020809104026020016040519081016040528092919081815260200182805461283e90613f1d565b801561288b5780601f106128605761010080835404028352916020019161288b565b820191906000526020600020905b81548152906001019060200180831161286e57829003601f168201915b505050918352505060048201546020808301919091526005830154604083015260069092015460ff80821615156060840152610100909104161515608090910152908252600192909201910161272c565b505050509050919050565b6001600160a01b03811660009081526001602052604081206004015462010000900460ff166123895760016107e7565b60006129238585610706565b6013546040805160a08101825260006080820181815284835260208084018a81526001600160a01b038a8116868801818152606088018b8152600b805460018101825590895289517f0175b7a638427703f0dbe7bb9bbf987a2551717b34e79f33b5b1008d1fa01db960059092029182015594517f0175b7a638427703f0dbe7bb9bbf987a2551717b34e79f33b5b1008d1fa01dba86015590517f0175b7a638427703f0dbe7bb9bbf987a2551717b34e79f33b5b1008d1fa01dbb850180546001600160a01b031916919094161790925590517f0175b7a638427703f0dbe7bb9bbf987a2551717b34e79f33b5b1008d1fa01dbc83015592517f0175b7a638427703f0dbe7bb9bbf987a2551717b34e79f33b5b1008d1fa01dbd909101805460ff19169115159190911790559082526009905291909120549293509091612a6a8482613ddd565b6001600160a01b03861660009081526009602052604081208290556013805492935090612a9683613f6d565b91905055505050505050505050565b612aad6132e8565b60038281548110612ac057612ac0613f57565b90600052602060002090600702016040518060e0016040529081600082015481526020016001820160009054906101000a90046001600160a01b03166001600160a01b03166001600160a01b03168152602001600282018054612b2290613f1d565b80601f0160208091040260200160405190810160405280929190818152602001828054612b4e90613f1d565b8015612b9b5780601f10612b7057610100808354040283529160200191612b9b565b820191906000526020600020905b815481529060010190602001808311612b7e57829003601f168201915b505050918352505060038201546020820152600482015460408201526005820154606082015260069091015460ff16151560809091015292915050565b600060038481548110612bed57612bed613f57565b90600052602060002090600702016040518060e0016040529081600082015481526020016001820160009054906101000a90046001600160a01b03166001600160a01b03166001600160a01b03168152602001600282018054612c4f90613f1d565b80601f0160208091040260200160405190810160405280929190818152602001828054612c7b90613f1d565b8015612cc85780601f10612c9d57610100808354040283529160200191612cc8565b820191906000526020600020905b815481529060010190602001808311612cab57829003601f168201915b50505091835250506003820154602082015260048201546040820152600582015460608083019190915260069092015460ff16151560809091015281015190915060005b81811015612e1b57612d1c613330565b60115480825260208201839052604082018890526001600160a01b03871660608301528551869084908110612d5357612d53613f57565b60209081029190910181015115156080840190815260008a8152600583526040808220805460018181018355918452858420885160049092020190815594870151908501558501516002840155606085015160039093018054925160a08701511515600160a81b0260ff60a81b19911515600160a01b026001600160a81b03199095166001600160a01b039096169590951793909317929092169290921790556011805491612e0183613f6d565b919050555050508080612e1390613f6d565b915050612d0c565b5060008581526006602090815260408083206001600160a01b03881684528252808320805460ff19166001179055878352600a9091529020612e5c856112c4565b815460018082018455600093845260209384902083516007909302019182559282015192810180546001600160a01b0319166001600160a01b039094169390931790925560408101519091906002820190612eb79082613ff7565b5060608201516003820190612ecc9082613ff7565b506080820151600482015560a0820151600582015560c08201516006909101805460e09093015115156101000261ff00199215159290921661ffff19909316929092171790555050505050565b606060056000838152602001908152602001600020805480602002602001604051908101604052809291908181526020016000905b828210156128dc5760008481526020908190206040805160c081018252600486029092018054835260018082015484860152600282015492840192909252600301546001600160a01b038116606084015260ff600160a01b8204811615156080850152600160a81b90910416151560a08301529083529092019101612f4e565b606060046000838152602001908152602001600020805480602002602001604051908101604052809291908181526020016000905b828210156128dc5783829060005260206000209060040201604051806080016040529081600082015481526020016001820154815260200160028201805461304a90613f1d565b80601f016020809104026020016040519081016040528092919081815260200182805461307690613f1d565b80156130c35780601f10613098576101008083540402835291602001916130c3565b820191906000526020600020905b8154815290600101906020018083116130a657829003601f168201915b50505091835250506003919091015460ff1615156020918201529082526001929092019101613003565b60016020819052600091825260409091208054918101546002820180546001600160a01b03909216929161312090613f1d565b80601f016020809104026020016040519081016040528092919081815260200182805461314c90613f1d565b80156131995780601f1061316e57610100808354040283529160200191613199565b820191906000526020600020905b81548152906001019060200180831161317c57829003601f168201915b50505050600383015460049093015491929160ff808216925061010082048116916201000090041687565b600460205281600052604060002081815481106131e057600080fd5b90600052602060002090600402016000915091505080600001549080600101549080600201805461321090613f1d565b80601f016020809104026020016040519081016040528092919081815260200182805461323c90613f1d565b80156132895780601f1061325e57610100808354040283529160200191613289565b820191906000526020600020905b81548152906001019060200180831161326c57829003601f168201915b5050506003909301549192505060ff1684565b6040518060e001604052806000815260200160006001600160a01b0316815260200160608152602001600081526020016000151581526020016000151581526020016000151581525090565b6040518060e001604052806000815260200160006001600160a01b03168152602001606081526020016000815260200160008152602001600081526020016000151581525090565b6040518060c0016040528060008152602001600081526020016000815260200160006001600160a01b031681526020016000151581526020016000151581525090565b6040518061010001604052806000815260200160006001600160a01b03168152602001606081526020016060815260200160008152602001600081526020016000151581526020016000151581525090565b6040518060a00160405280600081526020016000815260200160006001600160a01b03168152602001600081526020016000151581525090565b6000806040838503121561341257600080fd5b50508035926020909101359150565b80356001600160a01b038116811461343857600080fd5b919050565b60006020828403121561344f57600080fd5b61345882613421565b9392505050565b6000815180845260005b8181101561348557602081850181015186830182015201613469565b506000602082860101526020601f19601f83011685010191505092915050565b602081528151602082015260018060a01b0360208301511660408201526000604083015160e060608401526134de61010084018261345f565b9050606084015160808401526080840151151560a084015260a0840151151560c084015260c0840151151560e08401528091505092915050565b8051825260018060a01b0360208201511660208301526000604082015160e0604085015261354960e085018261345f565b9050606083015160608501526080830151608085015260a083015160a085015260c0830151151560c08501528091505092915050565b6000602080830181845280855180835260408601915060408160051b870101925083870160005b828110156135d457603f198886030184526135c2858351613518565b945092850192908501906001016135a6565b5092979650505050505050565b8881526001600160a01b03881660208201526101006040820181905260009061360c8382018a61345f565b90508281036060840152613620818961345f565b6080840197909752505060a081019390935290151560c0830152151560e090910152949350505050565b634e487b7160e01b600052604160045260246000fd5b604051601f8201601f191681016001600160401b03811182821017156136885761368861364a565b604052919050565b600082601f8301126136a157600080fd5b81356001600160401b038111156136ba576136ba61364a565b6136cd601f8201601f1916602001613660565b8181528460208386010111156136e257600080fd5b816020850160208301376000918101602001919091529392505050565b60008060006060848603121561371457600080fd5b61371d84613421565b925060208401356001600160401b0381111561373857600080fd5b61374486828701613690565b925050604084013590509250925092565b60006020828403121561376757600080fd5b5035919050565b8781526001600160a01b038716602082015260e0604082018190526000906137989083018861345f565b90508560608301528460808301528360a083015282151560c083015298975050505050505050565b600080604083850312156137d357600080fd5b823591506137e360208401613421565b90509250929050565b602080825282518282018190526000919060409081850190868401855b8281101561386457815180518552868101518786015285810151868601526060808201516001600160a01b03169086015260808082015115159086015260a09081015115159085015260c09093019290850190600101613809565b5091979650505050505050565b60006101008251845260018060a01b03602084015116602085015260408301518160408601526138a38286018261345f565b915050606083015184820360608601526138bd828261345f565b9150506080830151608085015260a083015160a085015260c0830151151560c085015260e08301516138f360e086018215159052565b509392505050565b6020815260006134586020830184613871565b602080825282518282018190526000919060409081850190868401855b82811015613864578151805185528681015187860152858101516001600160a01b0316868601526060808201519086015260809081015115159085015260a0909301929085019060010161392b565b6000806000806080858703121561399057600080fd5b61399985613421565b935060208501356001600160401b03808211156139b557600080fd5b6139c188838901613690565b945060408701359150808211156139d757600080fd5b506139e487828801613690565b949793965093946060013593505050565b60006001600160401b03821115613a0e57613a0e61364a565b5060051b60200190565b60008060008060008060c08789031215613a3157600080fd5b613a3a87613421565b95506020808801356001600160401b0380821115613a5757600080fd5b613a638b838c01613690565b975060408a0135965060608a0135955060808a0135915080821115613a8757600080fd5b818a0191508a601f830112613a9b57600080fd5b8135613aae613aa9826139f5565b613660565b81815260059190911b8301840190848101908d831115613acd57600080fd5b8585015b83811015613b03578481351115613ae757600080fd5b613af68f888335890101613690565b8352918601918601613ad1565b5080975050505050505060a087013590509295509295509295565b6000602080830181845280855180835260408601915060408160051b870101925083870160005b828110156135d457603f19888603018452613b61858351613871565b94509285019290850190600101613b45565b60008060408385031215613b8657600080fd5b613b8f83613421565b946020939093013593505050565b60008060008060808587031215613bb357600080fd5b843593506020850135925060408501359150613bd160608601613421565b905092959194509250565b6020815260006134586020830184613518565b8015158114613bfd57600080fd5b50565b600080600060608486031215613c1557600080fd5b833592506020613c26818601613421565b925060408501356001600160401b03811115613c4157600080fd5b8501601f81018713613c5257600080fd5b8035613c60613aa9826139f5565b81815260059190911b82018301908381019089831115613c7f57600080fd5b928401925b82841015613ca6578335613c9781613bef565b82529284019290840190613c84565b80955050505050509250925092565b60006020808301818452808551808352604092508286019150828160051b87010184880160005b83811015613d3557603f1989840301855281516080815185528882015189860152878201518189870152613d128287018261345f565b606093840151151596909301959095525094870194925090860190600101613cdc565b509098975050505050505050565b8781526001600160a01b038716602082015260e060408201819052600090613d6d9083018861345f565b606083019690965250921515608084015290151560a0830152151560c0909101529392505050565b848152836020820152608060408201526000613db4608083018561345f565b9050821515606083015295945050505050565b634e487b7160e01b600052601160045260246000fd5b808201808211156107e7576107e7613dc7565b600060208284031215613e0257600080fd5b815160ff8116811461345857600080fd5b600181815b80851115613e4e578160001904821115613e3457613e34613dc7565b80851615613e4157918102915b93841c9390800290613e18565b509250929050565b600082613e65575060016107e7565b81613e72575060006107e7565b8160018114613e885760028114613e9257613eae565b60019150506107e7565b60ff841115613ea357613ea3613dc7565b50506001821b6107e7565b5060208310610133831016604e8410600b8410161715613ed1575081810a6107e7565b613edb8383613e13565b8060001904821115613eef57613eef613dc7565b029392505050565b600061345860ff841683613e56565b80820281158282048414176107e7576107e7613dc7565b600181811c90821680613f3157607f821691505b602082108103613f5157634e487b7160e01b600052602260045260246000fd5b50919050565b634e487b7160e01b600052603260045260246000fd5b600060018201613f7f57613f7f613dc7565b5060010190565b600082613fa357634e487b7160e01b600052601260045260246000fd5b500490565b601f821115613ff257600081815260208120601f850160051c81016020861015613fcf5750805b601f850160051c820191505b81811015613fee57828155600101613fdb565b5050505b505050565b81516001600160401b038111156140105761401061364a565b6140248161401e8454613f1d565b84613fa8565b602080601f83116001811461405957600084156140415750858301515b600019600386901b1c1916600185901b178555613fee565b600085815260208120601f198616915b8281101561408857888601518255948401946001909101908401614069565b50858210156140a65787850151600019600388901b60f8161c191681555b5050505050600190811b01905550565b6000602082840312156140c857600080fd5b815161345881613bef56fea264697066735822122067064bd0c18cfacf3e442a863181434d846ffe448e209e55962469c1b75b6f2f64736f6c63430008130033",
					"opcodes": "PUSH1 0x80 PUSH1 0x40 MSTORE PUSH1 0x0 DUP1 SLOAD PUSH1 0x1 PUSH1 0x1 PUSH1 0xA0 SHL SUB NOT SWAP1 DUP2 AND PUSH20 0xECE897A85688F2E83A73FED36B9D1A6EFCC99E93 OR SWAP1 SWAP2 SSTORE PUSH1 0x14 DUP1 SLOAD SWAP1 SWAP2 AND PUSH20 0x874069FA1EB16D44D622F2E0CA25EEA172369BC1 OR SWAP1 SSTORE CALLVALUE DUP1 ISZERO PUSH2 0x58 JUMPI PUSH1 0x0 DUP1 REVERT JUMPDEST POP PUSH2 0x4109 DUP1 PUSH2 0x68 PUSH1 0x0 CODECOPY PUSH1 0x0 RETURN INVALID PUSH1 0x80 PUSH1 0x40 MSTORE CALLVALUE DUP1 ISZERO PUSH2 0x10 JUMPI PUSH1 0x0 DUP1 REVERT JUMPDEST POP PUSH1 0x4 CALLDATASIZE LT PUSH2 0x23D JUMPI PUSH1 0x0 CALLDATALOAD PUSH1 0xE0 SHR DUP1 PUSH4 0x68DF3299 GT PUSH2 0x13B JUMPI DUP1 PUSH4 0x9A23218F GT PUSH2 0xB8 JUMPI DUP1 PUSH4 0xCA2E7F9B GT PUSH2 0x7C JUMPI DUP1 PUSH4 0xCA2E7F9B EQ PUSH2 0x677 JUMPI DUP1 PUSH4 0xCC4903CA EQ PUSH2 0x68A JUMPI DUP1 PUSH4 0xF31E72E4 EQ PUSH2 0x69D JUMPI DUP1 PUSH4 0xF692A3BB EQ PUSH2 0x6BD JUMPI DUP1 PUSH4 0xFB47E9E6 EQ PUSH2 0x6E3 JUMPI PUSH1 0x0 DUP1 REVERT JUMPDEST DUP1 PUSH4 0x9A23218F EQ PUSH2 0x5CB JUMPI DUP1 PUSH4 0xA58543FE EQ PUSH2 0x5DE JUMPI DUP1 PUSH4 0xB3265ECD EQ PUSH2 0x616 JUMPI DUP1 PUSH4 0xB9C745B3 EQ PUSH2 0x629 JUMPI DUP1 PUSH4 0xC0AC4AE4 EQ PUSH2 0x657 JUMPI PUSH1 0x0 DUP1 REVERT JUMPDEST DUP1 PUSH4 0x7A1BC375 GT PUSH2 0xFF JUMPI DUP1 PUSH4 0x7A1BC375 EQ PUSH2 0x517 JUMPI DUP1 PUSH4 0x7E950819 EQ PUSH2 0x51F JUMPI DUP1 PUSH4 0x8E6DA619 EQ PUSH2 0x54D JUMPI DUP1 PUSH4 0x95ECEA1F EQ PUSH2 0x598 JUMPI DUP1 PUSH4 0x964F6566 EQ PUSH2 0x5AB JUMPI PUSH1 0x0 DUP1 REVERT JUMPDEST DUP1 PUSH4 0x68DF3299 EQ PUSH2 0x46E JUMPI DUP1 PUSH4 0x69BFF3FB EQ PUSH2 0x481 JUMPI DUP1 PUSH4 0x6B8AC0E7 EQ PUSH2 0x4CE JUMPI DUP1 PUSH4 0x6F5FDE11 EQ PUSH2 0x4E1 JUMPI DUP1 PUSH4 0x73FD653D EQ PUSH2 0x504 JUMPI PUSH1 0x0 DUP1 REVERT JUMPDEST DUP1 PUSH4 0x25F18424 GT PUSH2 0x1C9 JUMPI DUP1 PUSH4 0x44962609 GT PUSH2 0x18D JUMPI DUP1 PUSH4 0x44962609 EQ PUSH2 0x3DF JUMPI DUP1 PUSH4 0x4FE1CFAD EQ PUSH2 0x3F2 JUMPI DUP1 PUSH4 0x5822BFF1 EQ PUSH2 0x41B JUMPI DUP1 PUSH4 0x5B76074E EQ PUSH2 0x43B JUMPI DUP1 PUSH4 0x5FA7A90A EQ PUSH2 0x44E JUMPI PUSH1 0x0 DUP1 REVERT JUMPDEST DUP1 PUSH4 0x25F18424 EQ PUSH2 0x35D JUMPI DUP1 PUSH4 0x392A5822 EQ PUSH2 0x370 JUMPI DUP1 PUSH4 0x3ABB615A EQ PUSH2 0x390 JUMPI DUP1 PUSH4 0x3B43B7D0 EQ PUSH2 0x3A3 JUMPI DUP1 PUSH4 0x3BDD0AD1 EQ PUSH2 0x3B6 JUMPI PUSH1 0x0 DUP1 REVERT JUMPDEST DUP1 PUSH4 0x196F7F1E GT PUSH2 0x210 JUMPI DUP1 PUSH4 0x196F7F1E EQ PUSH2 0x2CF JUMPI DUP1 PUSH4 0x1B6F2485 EQ PUSH2 0x2E4 JUMPI DUP1 PUSH4 0x1BD1EBC4 EQ PUSH2 0x30A JUMPI DUP1 PUSH4 0x2076A35A EQ PUSH2 0x31D JUMPI DUP1 PUSH4 0x2394E5DC EQ PUSH2 0x33D JUMPI PUSH1 0x0 DUP1 REVERT JUMPDEST DUP1 PUSH4 0x3F16747 EQ PUSH2 0x242 JUMPI DUP1 PUSH4 0x478318B EQ PUSH2 0x268 JUMPI DUP1 PUSH4 0x7F6646E EQ PUSH2 0x288 JUMPI DUP1 PUSH4 0x125BB83D EQ PUSH2 0x2A8 JUMPI JUMPDEST PUSH1 0x0 DUP1 REVERT JUMPDEST PUSH2 0x255 PUSH2 0x250 CALLDATASIZE PUSH1 0x4 PUSH2 0x33FF JUMP JUMPDEST PUSH2 0x706 JUMP JUMPDEST PUSH1 0x40 MLOAD SWAP1 DUP2 MSTORE PUSH1 0x20 ADD JUMPDEST PUSH1 0x40 MLOAD DUP1 SWAP2 SUB SWAP1 RETURN JUMPDEST PUSH2 0x27B PUSH2 0x276 CALLDATASIZE PUSH1 0x4 PUSH2 0x343D JUMP JUMPDEST PUSH2 0x7ED JUMP JUMPDEST PUSH1 0x40 MLOAD PUSH2 0x25F SWAP2 SWAP1 PUSH2 0x34A5 JUMP JUMPDEST PUSH2 0x29B PUSH2 0x296 CALLDATASIZE PUSH1 0x4 PUSH2 0x343D JUMP JUMPDEST PUSH2 0x8FF JUMP JUMPDEST PUSH1 0x40 MLOAD PUSH2 0x25F SWAP2 SWAP1 PUSH2 0x357F JUMP JUMPDEST PUSH2 0x2BB PUSH2 0x2B6 CALLDATASIZE PUSH1 0x4 PUSH2 0x33FF JUMP JUMPDEST PUSH2 0xB17 JUMP JUMPDEST PUSH1 0x40 MLOAD PUSH2 0x25F SWAP9 SWAP8 SWAP7 SWAP6 SWAP5 SWAP4 SWAP3 SWAP2 SWAP1 PUSH2 0x35E1 JUMP JUMPDEST PUSH2 0x2E2 PUSH2 0x2DD CALLDATASIZE PUSH1 0x4 PUSH2 0x36FF JUMP JUMPDEST PUSH2 0xC9B JUMP JUMPDEST STOP JUMPDEST PUSH2 0x2F7 PUSH2 0x2F2 CALLDATASIZE PUSH1 0x4 PUSH2 0x3755 JUMP JUMPDEST PUSH2 0xCF7 JUMP JUMPDEST PUSH1 0x40 MLOAD PUSH2 0x25F SWAP8 SWAP7 SWAP6 SWAP5 SWAP4 SWAP3 SWAP2 SWAP1 PUSH2 0x376E JUMP JUMPDEST PUSH2 0x255 PUSH2 0x318 CALLDATASIZE PUSH1 0x4 PUSH2 0x3755 JUMP JUMPDEST PUSH2 0xDDC JUMP JUMPDEST PUSH2 0x330 PUSH2 0x32B CALLDATASIZE PUSH1 0x4 PUSH2 0x37C0 JUMP JUMPDEST PUSH2 0xFD5 JUMP JUMPDEST PUSH1 0x40 MLOAD PUSH2 0x25F SWAP2 SWAP1 PUSH2 0x37EC JUMP JUMPDEST PUSH2 0x350 PUSH2 0x34B CALLDATASIZE PUSH1 0x4 PUSH2 0x343D JUMP JUMPDEST PUSH2 0x12C4 JUMP JUMPDEST PUSH1 0x40 MLOAD PUSH2 0x25F SWAP2 SWAP1 PUSH2 0x38FB JUMP JUMPDEST PUSH2 0x255 PUSH2 0x36B CALLDATASIZE PUSH1 0x4 PUSH2 0x343D JUMP JUMPDEST PUSH2 0x1466 JUMP JUMPDEST PUSH2 0x383 PUSH2 0x37E CALLDATASIZE PUSH1 0x4 PUSH2 0x343D JUMP JUMPDEST PUSH2 0x1531 JUMP JUMPDEST PUSH1 0x40 MLOAD PUSH2 0x25F SWAP2 SWAP1 PUSH2 0x390E JUMP JUMPDEST PUSH2 0x29B PUSH2 0x39E CALLDATASIZE PUSH1 0x4 PUSH2 0x343D JUMP JUMPDEST PUSH2 0x167D JUMP JUMPDEST PUSH2 0x2E2 PUSH2 0x3B1 CALLDATASIZE PUSH1 0x4 PUSH2 0x397A JUMP JUMPDEST PUSH2 0x1878 JUMP JUMPDEST PUSH2 0x255 PUSH2 0x3C4 CALLDATASIZE PUSH1 0x4 PUSH2 0x343D JUMP JUMPDEST PUSH1 0x1 PUSH1 0x1 PUSH1 0xA0 SHL SUB AND PUSH1 0x0 SWAP1 DUP2 MSTORE PUSH1 0x9 PUSH1 0x20 MSTORE PUSH1 0x40 SWAP1 KECCAK256 SLOAD SWAP1 JUMP JUMPDEST PUSH2 0x255 PUSH2 0x3ED CALLDATASIZE PUSH1 0x4 PUSH2 0x33FF JUMP JUMPDEST PUSH2 0x1979 JUMP JUMPDEST PUSH2 0x255 PUSH2 0x400 CALLDATASIZE PUSH1 0x4 PUSH2 0x343D JUMP JUMPDEST PUSH1 0x1 PUSH1 0x1 PUSH1 0xA0 SHL SUB AND PUSH1 0x0 SWAP1 DUP2 MSTORE PUSH1 0x8 PUSH1 0x20 MSTORE PUSH1 0x40 SWAP1 KECCAK256 SLOAD SWAP1 JUMP JUMPDEST PUSH2 0x255 PUSH2 0x429 CALLDATASIZE PUSH1 0x4 PUSH2 0x343D JUMP JUMPDEST PUSH1 0x8 PUSH1 0x20 MSTORE PUSH1 0x0 SWAP1 DUP2 MSTORE PUSH1 0x40 SWAP1 KECCAK256 SLOAD DUP2 JUMP JUMPDEST PUSH2 0x2BB PUSH2 0x449 CALLDATASIZE PUSH1 0x4 PUSH2 0x343D JUMP JUMPDEST PUSH2 0x1B69 JUMP JUMPDEST PUSH2 0x255 PUSH2 0x45C CALLDATASIZE PUSH1 0x4 PUSH2 0x343D JUMP JUMPDEST PUSH1 0x9 PUSH1 0x20 MSTORE PUSH1 0x0 SWAP1 DUP2 MSTORE PUSH1 0x40 SWAP1 KECCAK256 SLOAD DUP2 JUMP JUMPDEST PUSH2 0x2E2 PUSH2 0x47C CALLDATASIZE PUSH1 0x4 PUSH2 0x3A18 JUMP JUMPDEST PUSH2 0x1B9C JUMP JUMPDEST PUSH2 0x494 PUSH2 0x48F CALLDATASIZE PUSH1 0x4 PUSH2 0x33FF JUMP JUMPDEST PUSH2 0x1E0C JUMP JUMPDEST PUSH1 0x40 DUP1 MLOAD SWAP7 DUP8 MSTORE PUSH1 0x20 DUP8 ADD SWAP6 SWAP1 SWAP6 MSTORE SWAP4 DUP6 ADD SWAP3 SWAP1 SWAP3 MSTORE PUSH1 0x1 PUSH1 0x1 PUSH1 0xA0 SHL SUB AND PUSH1 0x60 DUP5 ADD MSTORE ISZERO ISZERO PUSH1 0x80 DUP4 ADD MSTORE ISZERO ISZERO PUSH1 0xA0 DUP3 ADD MSTORE PUSH1 0xC0 ADD PUSH2 0x25F JUMP JUMPDEST PUSH2 0x2E2 PUSH2 0x4DC CALLDATASIZE PUSH1 0x4 PUSH2 0x37C0 JUMP JUMPDEST PUSH2 0x1E71 JUMP JUMPDEST PUSH2 0x4F4 PUSH2 0x4EF CALLDATASIZE PUSH1 0x4 PUSH2 0x343D JUMP JUMPDEST PUSH2 0x235A JUMP JUMPDEST PUSH1 0x40 MLOAD SWAP1 ISZERO ISZERO DUP2 MSTORE PUSH1 0x20 ADD PUSH2 0x25F JUMP JUMPDEST PUSH2 0x2E2 PUSH2 0x512 CALLDATASIZE PUSH1 0x4 PUSH2 0x343D JUMP JUMPDEST PUSH2 0x2391 JUMP JUMPDEST PUSH2 0x29B PUSH2 0x2555 JUMP JUMPDEST PUSH2 0x4F4 PUSH2 0x52D CALLDATASIZE PUSH1 0x4 PUSH2 0x37C0 JUMP JUMPDEST PUSH1 0x7 PUSH1 0x20 SWAP1 DUP2 MSTORE PUSH1 0x0 SWAP3 DUP4 MSTORE PUSH1 0x40 DUP1 DUP5 KECCAK256 SWAP1 SWAP2 MSTORE SWAP1 DUP3 MSTORE SWAP1 KECCAK256 SLOAD PUSH1 0xFF AND DUP2 JUMP JUMPDEST PUSH2 0x560 PUSH2 0x55B CALLDATASIZE PUSH1 0x4 PUSH2 0x3755 JUMP JUMPDEST PUSH2 0x2699 JUMP JUMPDEST PUSH1 0x40 DUP1 MLOAD SWAP6 DUP7 MSTORE PUSH1 0x20 DUP7 ADD SWAP5 SWAP1 SWAP5 MSTORE PUSH1 0x1 PUSH1 0x1 PUSH1 0xA0 SHL SUB SWAP1 SWAP3 AND SWAP3 DUP5 ADD SWAP3 SWAP1 SWAP3 MSTORE PUSH1 0x60 DUP4 ADD SWAP2 SWAP1 SWAP2 MSTORE ISZERO ISZERO PUSH1 0x80 DUP3 ADD MSTORE PUSH1 0xA0 ADD PUSH2 0x25F JUMP JUMPDEST PUSH2 0x560 PUSH2 0x5A6 CALLDATASIZE PUSH1 0x4 PUSH2 0x3755 JUMP JUMPDEST PUSH2 0x26E7 JUMP JUMPDEST PUSH2 0x5BE PUSH2 0x5B9 CALLDATASIZE PUSH1 0x4 PUSH2 0x3755 JUMP JUMPDEST PUSH2 0x26F7 JUMP JUMPDEST PUSH1 0x40 MLOAD PUSH2 0x25F SWAP2 SWAP1 PUSH2 0x3B1E JUMP JUMPDEST PUSH2 0x4F4 PUSH2 0x5D9 CALLDATASIZE PUSH1 0x4 PUSH2 0x343D JUMP JUMPDEST PUSH2 0x28E7 JUMP JUMPDEST PUSH2 0x4F4 PUSH2 0x5EC CALLDATASIZE PUSH1 0x4 PUSH2 0x3B73 JUMP JUMPDEST PUSH1 0x0 SWAP1 DUP2 MSTORE PUSH1 0x6 PUSH1 0x20 SWAP1 DUP2 MSTORE PUSH1 0x40 DUP1 DUP4 KECCAK256 PUSH1 0x1 PUSH1 0x1 PUSH1 0xA0 SHL SUB SWAP5 SWAP1 SWAP5 AND DUP4 MSTORE SWAP3 SWAP1 MSTORE KECCAK256 SLOAD PUSH1 0xFF AND SWAP1 JUMP JUMPDEST PUSH2 0x2E2 PUSH2 0x624 CALLDATASIZE PUSH1 0x4 PUSH2 0x3B9D JUMP JUMPDEST PUSH2 0x2917 JUMP JUMPDEST PUSH2 0x4F4 PUSH2 0x637 CALLDATASIZE PUSH1 0x4 PUSH2 0x37C0 JUMP JUMPDEST PUSH1 0x6 PUSH1 0x20 SWAP1 DUP2 MSTORE PUSH1 0x0 SWAP3 DUP4 MSTORE PUSH1 0x40 DUP1 DUP5 KECCAK256 SWAP1 SWAP2 MSTORE SWAP1 DUP3 MSTORE SWAP1 KECCAK256 SLOAD PUSH1 0xFF AND DUP2 JUMP JUMPDEST PUSH2 0x66A PUSH2 0x665 CALLDATASIZE PUSH1 0x4 PUSH2 0x3755 JUMP JUMPDEST PUSH2 0x2AA5 JUMP JUMPDEST PUSH1 0x40 MLOAD PUSH2 0x25F SWAP2 SWAP1 PUSH2 0x3BDC JUMP JUMPDEST PUSH2 0x2E2 PUSH2 0x685 CALLDATASIZE PUSH1 0x4 PUSH2 0x3C00 JUMP JUMPDEST PUSH2 0x2BD8 JUMP JUMPDEST PUSH2 0x330 PUSH2 0x698 CALLDATASIZE PUSH1 0x4 PUSH2 0x3755 JUMP JUMPDEST PUSH2 0x2F19 JUMP JUMPDEST PUSH2 0x6B0 PUSH2 0x6AB CALLDATASIZE PUSH1 0x4 PUSH2 0x3755 JUMP JUMPDEST PUSH2 0x2FCE JUMP JUMPDEST PUSH1 0x40 MLOAD PUSH2 0x25F SWAP2 SWAP1 PUSH2 0x3CB5 JUMP JUMPDEST PUSH2 0x6D0 PUSH2 0x6CB CALLDATASIZE PUSH1 0x4 PUSH2 0x343D JUMP JUMPDEST PUSH2 0x30ED JUMP JUMPDEST PUSH1 0x40 MLOAD PUSH2 0x25F SWAP8 SWAP7 SWAP6 SWAP5 SWAP4 SWAP3 SWAP2 SWAP1 PUSH2 0x3D43 JUMP JUMPDEST PUSH2 0x6F6 PUSH2 0x6F1 CALLDATASIZE PUSH1 0x4 PUSH2 0x33FF JUMP JUMPDEST PUSH2 0x31C4 JUMP JUMPDEST PUSH1 0x40 MLOAD PUSH2 0x25F SWAP5 SWAP4 SWAP3 SWAP2 SWAP1 PUSH2 0x3D95 JUMP JUMPDEST PUSH1 0x0 DUP1 PUSH2 0x713 DUP5 DUP3 PUSH2 0x3DDD JUMP JUMPDEST SWAP1 POP DUP3 PUSH1 0x5 SUB PUSH2 0x72B JUMPI PUSH2 0x728 PUSH1 0x2 DUP3 PUSH2 0x3DDD JUMP JUMPDEST SWAP1 POP JUMPDEST DUP3 PUSH1 0x7 SUB PUSH2 0x741 JUMPI PUSH2 0x73E PUSH1 0x4 DUP3 PUSH2 0x3DDD JUMP JUMPDEST SWAP1 POP JUMPDEST DUP3 PUSH1 0x9 SUB PUSH2 0x757 JUMPI PUSH2 0x754 PUSH1 0x6 DUP3 PUSH2 0x3DDD JUMP JUMPDEST SWAP1 POP JUMPDEST PUSH1 0x14 PUSH1 0x0 SWAP1 SLOAD SWAP1 PUSH2 0x100 EXP SWAP1 DIV PUSH1 0x1 PUSH1 0x1 PUSH1 0xA0 SHL SUB AND PUSH1 0x1 PUSH1 0x1 PUSH1 0xA0 SHL SUB AND PUSH4 0x313CE567 PUSH1 0x40 MLOAD DUP2 PUSH4 0xFFFFFFFF AND PUSH1 0xE0 SHL DUP2 MSTORE PUSH1 0x4 ADD PUSH1 0x20 PUSH1 0x40 MLOAD DUP1 DUP4 SUB DUP2 DUP7 GAS STATICCALL ISZERO DUP1 ISZERO PUSH2 0x7AA JUMPI RETURNDATASIZE PUSH1 0x0 DUP1 RETURNDATACOPY RETURNDATASIZE PUSH1 0x0 REVERT JUMPDEST POP POP POP POP PUSH1 0x40 MLOAD RETURNDATASIZE PUSH1 0x1F NOT PUSH1 0x1F DUP3 ADD AND DUP3 ADD DUP1 PUSH1 0x40 MSTORE POP DUP2 ADD SWAP1 PUSH2 0x7CE SWAP2 SWAP1 PUSH2 0x3DF0 JUMP JUMPDEST PUSH2 0x7D9 SWAP1 PUSH1 0xA PUSH2 0x3EF7 JUMP JUMPDEST PUSH2 0x7E3 SWAP1 DUP3 PUSH2 0x3F06 JUMP JUMPDEST SWAP2 POP POP JUMPDEST SWAP3 SWAP2 POP POP JUMP JUMPDEST PUSH2 0x7F5 PUSH2 0x329C JUMP JUMPDEST PUSH1 0x1 PUSH1 0x1 PUSH1 0xA0 SHL SUB DUP1 DUP4 AND PUSH1 0x0 SWAP1 DUP2 MSTORE PUSH1 0x1 PUSH1 0x20 DUP2 DUP2 MSTORE PUSH1 0x40 SWAP3 DUP4 SWAP1 KECCAK256 DUP4 MLOAD PUSH1 0xE0 DUP2 ADD DUP6 MSTORE DUP2 SLOAD DUP2 MSTORE SWAP3 DUP2 ADD SLOAD SWAP1 SWAP5 AND SWAP1 DUP3 ADD MSTORE PUSH1 0x2 DUP4 ADD DUP1 SLOAD SWAP2 SWAP4 SWAP3 DUP5 ADD SWAP2 PUSH2 0x83E SWAP1 PUSH2 0x3F1D JUMP JUMPDEST DUP1 PUSH1 0x1F ADD PUSH1 0x20 DUP1 SWAP2 DIV MUL PUSH1 0x20 ADD PUSH1 0x40 MLOAD SWAP1 DUP2 ADD PUSH1 0x40 MSTORE DUP1 SWAP3 SWAP2 SWAP1 DUP2 DUP2 MSTORE PUSH1 0x20 ADD DUP3 DUP1 SLOAD PUSH2 0x86A SWAP1 PUSH2 0x3F1D JUMP JUMPDEST DUP1 ISZERO PUSH2 0x8B7 JUMPI DUP1 PUSH1 0x1F LT PUSH2 0x88C JUMPI PUSH2 0x100 DUP1 DUP4 SLOAD DIV MUL DUP4 MSTORE SWAP2 PUSH1 0x20 ADD SWAP2 PUSH2 0x8B7 JUMP JUMPDEST DUP3 ADD SWAP2 SWAP1 PUSH1 0x0 MSTORE PUSH1 0x20 PUSH1 0x0 KECCAK256 SWAP1 JUMPDEST DUP2 SLOAD DUP2 MSTORE SWAP1 PUSH1 0x1 ADD SWAP1 PUSH1 0x20 ADD DUP1 DUP4 GT PUSH2 0x89A JUMPI DUP3 SWAP1 SUB PUSH1 0x1F AND DUP3 ADD SWAP2 JUMPDEST POP POP POP SWAP2 DUP4 MSTORE POP POP PUSH1 0x3 DUP3 ADD SLOAD PUSH1 0x20 DUP3 ADD MSTORE PUSH1 0x4 SWAP1 SWAP2 ADD SLOAD PUSH1 0xFF DUP1 DUP3 AND ISZERO ISZERO PUSH1 0x40 DUP5 ADD MSTORE PUSH2 0x100 DUP3 DIV DUP2 AND ISZERO ISZERO PUSH1 0x60 DUP5 ADD MSTORE PUSH3 0x10000 SWAP1 SWAP2 DIV AND ISZERO ISZERO PUSH1 0x80 SWAP1 SWAP2 ADD MSTORE SWAP3 SWAP2 POP POP JUMP JUMPDEST PUSH1 0x1 PUSH1 0x1 PUSH1 0xA0 SHL SUB DUP2 AND PUSH1 0x0 SWAP1 DUP2 MSTORE PUSH1 0x8 PUSH1 0x20 MSTORE PUSH1 0x40 DUP2 KECCAK256 SLOAD PUSH1 0x60 SWAP2 DUP2 PUSH1 0x1 PUSH1 0x1 PUSH1 0x40 SHL SUB DUP2 GT ISZERO PUSH2 0x933 JUMPI PUSH2 0x933 PUSH2 0x364A JUMP JUMPDEST PUSH1 0x40 MLOAD SWAP1 DUP1 DUP3 MSTORE DUP1 PUSH1 0x20 MUL PUSH1 0x20 ADD DUP3 ADD PUSH1 0x40 MSTORE DUP1 ISZERO PUSH2 0x96C JUMPI DUP2 PUSH1 0x20 ADD JUMPDEST PUSH2 0x959 PUSH2 0x32E8 JUMP JUMPDEST DUP2 MSTORE PUSH1 0x20 ADD SWAP1 PUSH1 0x1 SWAP1 SUB SWAP1 DUP2 PUSH2 0x951 JUMPI SWAP1 POP JUMPDEST POP SWAP1 POP PUSH1 0x0 DUP1 JUMPDEST PUSH1 0x3 SLOAD DUP2 LT ISZERO PUSH2 0xB0D JUMPI PUSH1 0x0 PUSH1 0x3 DUP3 DUP2 SLOAD DUP2 LT PUSH2 0x992 JUMPI PUSH2 0x992 PUSH2 0x3F57 JUMP JUMPDEST SWAP1 PUSH1 0x0 MSTORE PUSH1 0x20 PUSH1 0x0 KECCAK256 SWAP1 PUSH1 0x7 MUL ADD PUSH1 0x40 MLOAD DUP1 PUSH1 0xE0 ADD PUSH1 0x40 MSTORE SWAP1 DUP2 PUSH1 0x0 DUP3 ADD SLOAD DUP2 MSTORE PUSH1 0x20 ADD PUSH1 0x1 DUP3 ADD PUSH1 0x0 SWAP1 SLOAD SWAP1 PUSH2 0x100 EXP SWAP1 DIV PUSH1 0x1 PUSH1 0x1 PUSH1 0xA0 SHL SUB AND PUSH1 0x1 PUSH1 0x1 PUSH1 0xA0 SHL SUB AND PUSH1 0x1 PUSH1 0x1 PUSH1 0xA0 SHL SUB AND DUP2 MSTORE PUSH1 0x20 ADD PUSH1 0x2 DUP3 ADD DUP1 SLOAD PUSH2 0x9F4 SWAP1 PUSH2 0x3F1D JUMP JUMPDEST DUP1 PUSH1 0x1F ADD PUSH1 0x20 DUP1 SWAP2 DIV MUL PUSH1 0x20 ADD PUSH1 0x40 MLOAD SWAP1 DUP2 ADD PUSH1 0x40 MSTORE DUP1 SWAP3 SWAP2 SWAP1 DUP2 DUP2 MSTORE PUSH1 0x20 ADD DUP3 DUP1 SLOAD PUSH2 0xA20 SWAP1 PUSH2 0x3F1D JUMP JUMPDEST DUP1 ISZERO PUSH2 0xA6D JUMPI DUP1 PUSH1 0x1F LT PUSH2 0xA42 JUMPI PUSH2 0x100 DUP1 DUP4 SLOAD DIV MUL DUP4 MSTORE SWAP2 PUSH1 0x20 ADD SWAP2 PUSH2 0xA6D JUMP JUMPDEST DUP3 ADD SWAP2 SWAP1 PUSH1 0x0 MSTORE PUSH1 0x20 PUSH1 0x0 KECCAK256 SWAP1 JUMPDEST DUP2 SLOAD DUP2 MSTORE SWAP1 PUSH1 0x1 ADD SWAP1 PUSH1 0x20 ADD DUP1 DUP4 GT PUSH2 0xA50 JUMPI DUP3 SWAP1 SUB PUSH1 0x1F AND DUP3 ADD SWAP2 JUMPDEST POP POP POP SWAP2 DUP4 MSTORE POP POP PUSH1 0x3 DUP3 ADD SLOAD PUSH1 0x20 DUP1 DUP4 ADD SWAP2 SWAP1 SWAP2 MSTORE PUSH1 0x4 DUP4 ADD SLOAD PUSH1 0x40 DUP4 ADD MSTORE PUSH1 0x5 DUP4 ADD SLOAD PUSH1 0x60 DUP4 ADD MSTORE PUSH1 0x6 SWAP1 SWAP3 ADD SLOAD PUSH1 0xFF AND ISZERO ISZERO PUSH1 0x80 SWAP1 SWAP2 ADD MSTORE DUP2 ADD MLOAD SWAP1 SWAP2 POP PUSH1 0x1 PUSH1 0x1 PUSH1 0xA0 SHL SUB DUP1 DUP10 AND SWAP2 AND SUB PUSH2 0xAED JUMPI DUP1 DUP5 DUP5 DUP2 MLOAD DUP2 LT PUSH2 0xAD3 JUMPI PUSH2 0xAD3 PUSH2 0x3F57 JUMP JUMPDEST PUSH1 0x20 MUL PUSH1 0x20 ADD ADD DUP2 SWAP1 MSTORE POP DUP3 DUP1 PUSH2 0xAE9 SWAP1 PUSH2 0x3F6D JUMP JUMPDEST SWAP4 POP POP JUMPDEST DUP5 DUP4 SUB PUSH2 0xAFA JUMPI POP PUSH2 0xB0D JUMP JUMPDEST POP DUP1 PUSH2 0xB05 DUP2 PUSH2 0x3F6D JUMP JUMPDEST SWAP2 POP POP PUSH2 0x973 JUMP JUMPDEST POP SWAP1 SWAP5 SWAP4 POP POP POP POP JUMP JUMPDEST PUSH1 0xA PUSH1 0x20 MSTORE DUP2 PUSH1 0x0 MSTORE PUSH1 0x40 PUSH1 0x0 KECCAK256 DUP2 DUP2 SLOAD DUP2 LT PUSH2 0xB33 JUMPI PUSH1 0x0 DUP1 REVERT JUMPDEST PUSH1 0x0 SWAP2 DUP3 MSTORE PUSH1 0x20 SWAP1 SWAP2 KECCAK256 PUSH1 0x7 SWAP1 SWAP2 MUL ADD DUP1 SLOAD PUSH1 0x1 DUP3 ADD SLOAD PUSH1 0x2 DUP4 ADD DUP1 SLOAD SWAP3 SWAP6 POP PUSH1 0x1 PUSH1 0x1 PUSH1 0xA0 SHL SUB SWAP1 SWAP2 AND SWAP4 POP SWAP1 PUSH2 0xB6A SWAP1 PUSH2 0x3F1D JUMP JUMPDEST DUP1 PUSH1 0x1F ADD PUSH1 0x20 DUP1 SWAP2 DIV MUL PUSH1 0x20 ADD PUSH1 0x40 MLOAD SWAP1 DUP2 ADD PUSH1 0x40 MSTORE DUP1 SWAP3 SWAP2 SWAP1 DUP2 DUP2 MSTORE PUSH1 0x20 ADD DUP3 DUP1 SLOAD PUSH2 0xB96 SWAP1 PUSH2 0x3F1D JUMP JUMPDEST DUP1 ISZERO PUSH2 0xBE3 JUMPI DUP1 PUSH1 0x1F LT PUSH2 0xBB8 JUMPI PUSH2 0x100 DUP1 DUP4 SLOAD DIV MUL DUP4 MSTORE SWAP2 PUSH1 0x20 ADD SWAP2 PUSH2 0xBE3 JUMP JUMPDEST DUP3 ADD SWAP2 SWAP1 PUSH1 0x0 MSTORE PUSH1 0x20 PUSH1 0x0 KECCAK256 SWAP1 JUMPDEST DUP2 SLOAD DUP2 MSTORE SWAP1 PUSH1 0x1 ADD SWAP1 PUSH1 0x20 ADD DUP1 DUP4 GT PUSH2 0xBC6 JUMPI DUP3 SWAP1 SUB PUSH1 0x1F AND DUP3 ADD SWAP2 JUMPDEST POP POP POP POP POP SWAP1 DUP1 PUSH1 0x3 ADD DUP1 SLOAD PUSH2 0xBF8 SWAP1 PUSH2 0x3F1D JUMP JUMPDEST DUP1 PUSH1 0x1F ADD PUSH1 0x20 DUP1 SWAP2 DIV MUL PUSH1 0x20 ADD PUSH1 0x40 MLOAD SWAP1 DUP2 ADD PUSH1 0x40 MSTORE DUP1 SWAP3 SWAP2 SWAP1 DUP2 DUP2 MSTORE PUSH1 0x20 ADD DUP3 DUP1 SLOAD PUSH2 0xC24 SWAP1 PUSH2 0x3F1D JUMP JUMPDEST DUP1 ISZERO PUSH2 0xC71 JUMPI DUP1 PUSH1 0x1F LT PUSH2 0xC46 JUMPI PUSH2 0x100 DUP1 DUP4 SLOAD DIV MUL DUP4 MSTORE SWAP2 PUSH1 0x20 ADD SWAP2 PUSH2 0xC71 JUMP JUMPDEST DUP3 ADD SWAP2 SWAP1 PUSH1 0x0 MSTORE PUSH1 0x20 PUSH1 0x0 KECCAK256 SWAP1 JUMPDEST DUP2 SLOAD DUP2 MSTORE SWAP1 PUSH1 0x1 ADD SWAP1 PUSH1 0x20 ADD DUP1 DUP4 GT PUSH2 0xC54 JUMPI DUP3 SWAP1 SUB PUSH1 0x1F AND DUP3 ADD SWAP2 JUMPDEST POP POP POP POP PUSH1 0x4 DUP4 ADD SLOAD PUSH1 0x5 DUP5 ADD SLOAD PUSH1 0x6 SWAP1 SWAP5 ADD SLOAD SWAP3 SWAP4 SWAP1 SWAP3 SWAP1 SWAP2 POP PUSH1 0xFF DUP1 DUP3 AND SWAP2 PUSH2 0x100 SWAP1 DIV AND DUP9 JUMP JUMPDEST PUSH1 0xD SLOAD PUSH2 0xCA6 PUSH2 0x329C JUMP JUMPDEST DUP2 DUP2 MSTORE PUSH1 0x1 PUSH1 0x1 PUSH1 0xA0 SHL SUB DUP6 AND PUSH1 0x20 DUP3 ADD MSTORE PUSH1 0x40 DUP2 ADD DUP5 SWAP1 MSTORE PUSH1 0x60 DUP2 ADD DUP4 SWAP1 MSTORE PUSH1 0x0 PUSH1 0x80 DUP3 ADD DUP2 SWAP1 MSTORE PUSH1 0xA0 DUP3 ADD DUP2 SWAP1 MSTORE PUSH1 0xC0 DUP3 ADD DUP2 SWAP1 MSTORE PUSH1 0xD DUP1 SLOAD SWAP2 PUSH2 0xCEB DUP4 PUSH2 0x3F6D JUMP JUMPDEST SWAP2 SWAP1 POP SSTORE POP POP POP POP POP POP JUMP JUMPDEST PUSH1 0x3 DUP2 DUP2 SLOAD DUP2 LT PUSH2 0xD07 JUMPI PUSH1 0x0 DUP1 REVERT JUMPDEST PUSH1 0x0 SWAP2 DUP3 MSTORE PUSH1 0x20 SWAP1 SWAP2 KECCAK256 PUSH1 0x7 SWAP1 SWAP2 MUL ADD DUP1 SLOAD PUSH1 0x1 DUP3 ADD SLOAD PUSH1 0x2 DUP4 ADD DUP1 SLOAD SWAP3 SWAP5 POP PUSH1 0x1 PUSH1 0x1 PUSH1 0xA0 SHL SUB SWAP1 SWAP2 AND SWAP3 SWAP2 PUSH2 0xD3D SWAP1 PUSH2 0x3F1D JUMP JUMPDEST DUP1 PUSH1 0x1F ADD PUSH1 0x20 DUP1 SWAP2 DIV MUL PUSH1 0x20 ADD PUSH1 0x40 MLOAD SWAP1 DUP2 ADD PUSH1 0x40 MSTORE DUP1 SWAP3 SWAP2 SWAP1 DUP2 DUP2 MSTORE PUSH1 0x20 ADD DUP3 DUP1 SLOAD PUSH2 0xD69 SWAP1 PUSH2 0x3F1D JUMP JUMPDEST DUP1 ISZERO PUSH2 0xDB6 JUMPI DUP1 PUSH1 0x1F LT PUSH2 0xD8B JUMPI PUSH2 0x100 DUP1 DUP4 SLOAD DIV MUL DUP4 MSTORE SWAP2 PUSH1 0x20 ADD SWAP2 PUSH2 0xDB6 JUMP JUMPDEST DUP3 ADD SWAP2 SWAP1 PUSH1 0x0 MSTORE PUSH1 0x20 PUSH1 0x0 KECCAK256 SWAP1 JUMPDEST DUP2 SLOAD DUP2 MSTORE SWAP1 PUSH1 0x1 ADD SWAP1 PUSH1 0x20 ADD DUP1 DUP4 GT PUSH2 0xD99 JUMPI DUP3 SWAP1 SUB PUSH1 0x1F AND DUP3 ADD SWAP2 JUMPDEST POP POP POP POP PUSH1 0x3 DUP4 ADD SLOAD PUSH1 0x4 DUP5 ADD SLOAD PUSH1 0x5 DUP6 ADD SLOAD PUSH1 0x6 SWAP1 SWAP6 ADD SLOAD SWAP4 SWAP5 SWAP2 SWAP4 SWAP1 SWAP3 POP PUSH1 0xFF AND DUP8 JUMP JUMPDEST PUSH1 0x0 DUP1 PUSH1 0x3 DUP4 DUP2 SLOAD DUP2 LT PUSH2 0xDF2 JUMPI PUSH2 0xDF2 PUSH2 0x3F57 JUMP JUMPDEST SWAP1 PUSH1 0x0 MSTORE PUSH1 0x20 PUSH1 0x0 KECCAK256 SWAP1 PUSH1 0x7 MUL ADD PUSH1 0x40 MLOAD DUP1 PUSH1 0xE0 ADD PUSH1 0x40 MSTORE SWAP1 DUP2 PUSH1 0x0 DUP3 ADD SLOAD DUP2 MSTORE PUSH1 0x20 ADD PUSH1 0x1 DUP3 ADD PUSH1 0x0 SWAP1 SLOAD SWAP1 PUSH2 0x100 EXP SWAP1 DIV PUSH1 0x1 PUSH1 0x1 PUSH1 0xA0 SHL SUB AND PUSH1 0x1 PUSH1 0x1 PUSH1 0xA0 SHL SUB AND PUSH1 0x1 PUSH1 0x1 PUSH1 0xA0 SHL SUB AND DUP2 MSTORE PUSH1 0x20 ADD PUSH1 0x2 DUP3 ADD DUP1 SLOAD PUSH2 0xE54 SWAP1 PUSH2 0x3F1D JUMP JUMPDEST DUP1 PUSH1 0x1F ADD PUSH1 0x20 DUP1 SWAP2 DIV MUL PUSH1 0x20 ADD PUSH1 0x40 MLOAD SWAP1 DUP2 ADD PUSH1 0x40 MSTORE DUP1 SWAP3 SWAP2 SWAP1 DUP2 DUP2 MSTORE PUSH1 0x20 ADD DUP3 DUP1 SLOAD PUSH2 0xE80 SWAP1 PUSH2 0x3F1D JUMP JUMPDEST DUP1 ISZERO PUSH2 0xECD JUMPI DUP1 PUSH1 0x1F LT PUSH2 0xEA2 JUMPI PUSH2 0x100 DUP1 DUP4 SLOAD DIV MUL DUP4 MSTORE SWAP2 PUSH1 0x20 ADD SWAP2 PUSH2 0xECD JUMP JUMPDEST DUP3 ADD SWAP2 SWAP1 PUSH1 0x0 MSTORE PUSH1 0x20 PUSH1 0x0 KECCAK256 SWAP1 JUMPDEST DUP2 SLOAD DUP2 MSTORE SWAP1 PUSH1 0x1 ADD SWAP1 PUSH1 0x20 ADD DUP1 DUP4 GT PUSH2 0xEB0 JUMPI DUP3 SWAP1 SUB PUSH1 0x1F AND DUP3 ADD SWAP2 JUMPDEST POP POP POP SWAP2 DUP4 MSTORE POP POP PUSH1 0x3 DUP3 ADD SLOAD PUSH1 0x20 DUP3 ADD MSTORE PUSH1 0x4 DUP3 ADD SLOAD PUSH1 0x40 DUP3 ADD MSTORE PUSH1 0x5 DUP1 DUP4 ADD SLOAD PUSH1 0x60 DUP4 ADD MSTORE PUSH1 0x6 SWAP1 SWAP3 ADD SLOAD PUSH1 0xFF AND ISZERO ISZERO PUSH1 0x80 SWAP2 DUP3 ADD MSTORE PUSH1 0xA0 DUP4 ADD MLOAD SWAP1 DUP4 ADD MLOAD SWAP3 SWAP4 POP SWAP2 SWAP1 PUSH1 0x0 SWAP1 PUSH1 0xA SWAP1 PUSH2 0xF24 SWAP1 DUP6 SWAP1 PUSH2 0x3F06 JUMP JUMPDEST PUSH2 0xF2E SWAP2 SWAP1 PUSH2 0x3F86 JUMP JUMPDEST SWAP1 POP PUSH1 0x0 PUSH2 0xF3C DUP4 DUP4 PUSH2 0x3F86 JUMP JUMPDEST SWAP1 POP PUSH1 0x14 PUSH1 0x0 SWAP1 SLOAD SWAP1 PUSH2 0x100 EXP SWAP1 DIV PUSH1 0x1 PUSH1 0x1 PUSH1 0xA0 SHL SUB AND PUSH1 0x1 PUSH1 0x1 PUSH1 0xA0 SHL SUB AND PUSH4 0x313CE567 PUSH1 0x40 MLOAD DUP2 PUSH4 0xFFFFFFFF AND PUSH1 0xE0 SHL DUP2 MSTORE PUSH1 0x4 ADD PUSH1 0x20 PUSH1 0x40 MLOAD DUP1 DUP4 SUB DUP2 DUP7 GAS STATICCALL ISZERO DUP1 ISZERO PUSH2 0xF91 JUMPI RETURNDATASIZE PUSH1 0x0 DUP1 RETURNDATACOPY RETURNDATASIZE PUSH1 0x0 REVERT JUMPDEST POP POP POP POP PUSH1 0x40 MLOAD RETURNDATASIZE PUSH1 0x1F NOT PUSH1 0x1F DUP3 ADD AND DUP3 ADD DUP1 PUSH1 0x40 MSTORE POP DUP2 ADD SWAP1 PUSH2 0xFB5 SWAP2 SWAP1 PUSH2 0x3DF0 JUMP JUMPDEST PUSH2 0xFC0 SWAP1 PUSH1 0xA PUSH2 0x3EF7 JUMP JUMPDEST PUSH2 0xFCA SWAP1 DUP3 PUSH2 0x3F06 JUMP JUMPDEST SWAP8 SWAP7 POP POP POP POP POP POP POP JUMP JUMPDEST PUSH1 0x60 PUSH1 0x0 PUSH1 0x3 DUP5 DUP2 SLOAD DUP2 LT PUSH2 0xFEC JUMPI PUSH2 0xFEC PUSH2 0x3F57 JUMP JUMPDEST SWAP1 PUSH1 0x0 MSTORE PUSH1 0x20 PUSH1 0x0 KECCAK256 SWAP1 PUSH1 0x7 MUL ADD PUSH1 0x40 MLOAD DUP1 PUSH1 0xE0 ADD PUSH1 0x40 MSTORE SWAP1 DUP2 PUSH1 0x0 DUP3 ADD SLOAD DUP2 MSTORE PUSH1 0x20 ADD PUSH1 0x1 DUP3 ADD PUSH1 0x0 SWAP1 SLOAD SWAP1 PUSH2 0x100 EXP SWAP1 DIV PUSH1 0x1 PUSH1 0x1 PUSH1 0xA0 SHL SUB AND PUSH1 0x1 PUSH1 0x1 PUSH1 0xA0 SHL SUB AND PUSH1 0x1 PUSH1 0x1 PUSH1 0xA0 SHL SUB AND DUP2 MSTORE PUSH1 0x20 ADD PUSH1 0x2 DUP3 ADD DUP1 SLOAD PUSH2 0x104E SWAP1 PUSH2 0x3F1D JUMP JUMPDEST DUP1 PUSH1 0x1F ADD PUSH1 0x20 DUP1 SWAP2 DIV MUL PUSH1 0x20 ADD PUSH1 0x40 MLOAD SWAP1 DUP2 ADD PUSH1 0x40 MSTORE DUP1 SWAP3 SWAP2 SWAP1 DUP2 DUP2 MSTORE PUSH1 0x20 ADD DUP3 DUP1 SLOAD PUSH2 0x107A SWAP1 PUSH2 0x3F1D JUMP JUMPDEST DUP1 ISZERO PUSH2 0x10C7 JUMPI DUP1 PUSH1 0x1F LT PUSH2 0x109C JUMPI PUSH2 0x100 DUP1 DUP4 SLOAD DIV MUL DUP4 MSTORE SWAP2 PUSH1 0x20 ADD SWAP2 PUSH2 0x10C7 JUMP JUMPDEST DUP3 ADD SWAP2 SWAP1 PUSH1 0x0 MSTORE PUSH1 0x20 PUSH1 0x0 KECCAK256 SWAP1 JUMPDEST DUP2 SLOAD DUP2 MSTORE SWAP1 PUSH1 0x1 ADD SWAP1 PUSH1 0x20 ADD DUP1 DUP4 GT PUSH2 0x10AA JUMPI DUP3 SWAP1 SUB PUSH1 0x1F AND DUP3 ADD SWAP2 JUMPDEST POP POP POP POP POP DUP2 MSTORE PUSH1 0x20 ADD PUSH1 0x3 DUP3 ADD SLOAD DUP2 MSTORE PUSH1 0x20 ADD PUSH1 0x4 DUP3 ADD SLOAD DUP2 MSTORE PUSH1 0x20 ADD PUSH1 0x5 DUP3 ADD SLOAD DUP2 MSTORE PUSH1 0x20 ADD PUSH1 0x6 DUP3 ADD PUSH1 0x0 SWAP1 SLOAD SWAP1 PUSH2 0x100 EXP SWAP1 DIV PUSH1 0xFF AND ISZERO ISZERO ISZERO ISZERO DUP2 MSTORE POP POP SWAP1 POP PUSH1 0x0 PUSH1 0x5 PUSH1 0x0 DUP7 DUP2 MSTORE PUSH1 0x20 ADD SWAP1 DUP2 MSTORE PUSH1 0x20 ADD PUSH1 0x0 KECCAK256 DUP1 SLOAD DUP1 PUSH1 0x20 MUL PUSH1 0x20 ADD PUSH1 0x40 MLOAD SWAP1 DUP2 ADD PUSH1 0x40 MSTORE DUP1 SWAP3 SWAP2 SWAP1 DUP2 DUP2 MSTORE PUSH1 0x20 ADD PUSH1 0x0 SWAP1 JUMPDEST DUP3 DUP3 LT ISZERO PUSH2 0x11C0 JUMPI PUSH1 0x0 DUP5 DUP2 MSTORE PUSH1 0x20 SWAP1 DUP2 SWAP1 KECCAK256 PUSH1 0x40 DUP1 MLOAD PUSH1 0xC0 DUP2 ADD DUP3 MSTORE PUSH1 0x4 DUP7 MUL SWAP1 SWAP3 ADD DUP1 SLOAD DUP4 MSTORE PUSH1 0x1 DUP1 DUP3 ADD SLOAD DUP5 DUP7 ADD MSTORE PUSH1 0x2 DUP3 ADD SLOAD SWAP3 DUP5 ADD SWAP3 SWAP1 SWAP3 MSTORE PUSH1 0x3 ADD SLOAD PUSH1 0x1 PUSH1 0x1 PUSH1 0xA0 SHL SUB DUP2 AND PUSH1 0x60 DUP5 ADD MSTORE PUSH1 0xFF PUSH1 0x1 PUSH1 0xA0 SHL DUP3 DIV DUP2 AND ISZERO ISZERO PUSH1 0x80 DUP6 ADD MSTORE PUSH1 0x1 PUSH1 0xA8 SHL SWAP1 SWAP2 DIV AND ISZERO ISZERO PUSH1 0xA0 DUP4 ADD MSTORE SWAP1 DUP4 MSTORE SWAP1 SWAP3 ADD SWAP2 ADD PUSH2 0x1140 JUMP JUMPDEST POP POP POP POP PUSH1 0x60 DUP4 ADD MLOAD SWAP1 SWAP2 POP PUSH1 0x0 DUP2 PUSH1 0x1 PUSH1 0x1 PUSH1 0x40 SHL SUB DUP2 GT ISZERO PUSH2 0x11E6 JUMPI PUSH2 0x11E6 PUSH2 0x364A JUMP JUMPDEST PUSH1 0x40 MLOAD SWAP1 DUP1 DUP3 MSTORE DUP1 PUSH1 0x20 MUL PUSH1 0x20 ADD DUP3 ADD PUSH1 0x40 MSTORE DUP1 ISZERO PUSH2 0x121F JUMPI DUP2 PUSH1 0x20 ADD JUMPDEST PUSH2 0x120C PUSH2 0x3330 JUMP JUMPDEST DUP2 MSTORE PUSH1 0x20 ADD SWAP1 PUSH1 0x1 SWAP1 SUB SWAP1 DUP2 PUSH2 0x1204 JUMPI SWAP1 POP JUMPDEST POP SWAP1 POP PUSH1 0x0 DUP1 JUMPDEST DUP5 MLOAD DUP2 LT ISZERO PUSH2 0x12B7 JUMPI PUSH1 0x0 DUP6 DUP3 DUP2 MLOAD DUP2 LT PUSH2 0x1243 JUMPI PUSH2 0x1243 PUSH2 0x3F57 JUMP JUMPDEST PUSH1 0x20 MUL PUSH1 0x20 ADD ADD MLOAD SWAP1 POP DUP9 PUSH1 0x1 PUSH1 0x1 PUSH1 0xA0 SHL SUB AND DUP2 PUSH1 0x60 ADD MLOAD PUSH1 0x1 PUSH1 0x1 PUSH1 0xA0 SHL SUB AND SUB PUSH2 0x1297 JUMPI DUP1 DUP5 DUP5 DUP2 MLOAD DUP2 LT PUSH2 0x127D JUMPI PUSH2 0x127D PUSH2 0x3F57 JUMP JUMPDEST PUSH1 0x20 MUL PUSH1 0x20 ADD ADD DUP2 SWAP1 MSTORE POP DUP3 DUP1 PUSH2 0x1293 SWAP1 PUSH2 0x3F6D JUMP JUMPDEST SWAP4 POP POP JUMPDEST DUP5 DUP4 SUB PUSH2 0x12A4 JUMPI POP PUSH2 0x12B7 JUMP JUMPDEST POP DUP1 PUSH2 0x12AF DUP2 PUSH2 0x3F6D JUMP JUMPDEST SWAP2 POP POP PUSH2 0x1226 JUMP JUMPDEST POP SWAP1 SWAP8 SWAP7 POP POP POP POP POP POP POP JUMP JUMPDEST PUSH2 0x12CC PUSH2 0x3373 JUMP JUMPDEST PUSH1 0x1 PUSH1 0x1 PUSH1 0xA0 SHL SUB DUP1 DUP4 AND PUSH1 0x0 SWAP1 DUP2 MSTORE PUSH1 0x2 PUSH1 0x20 DUP2 DUP2 MSTORE PUSH1 0x40 SWAP3 DUP4 SWAP1 KECCAK256 DUP4 MLOAD PUSH2 0x100 DUP2 ADD DUP6 MSTORE DUP2 SLOAD DUP2 MSTORE PUSH1 0x1 DUP3 ADD SLOAD SWAP1 SWAP6 AND SWAP2 DUP6 ADD SWAP2 SWAP1 SWAP2 MSTORE SWAP1 DUP2 ADD DUP1 SLOAD SWAP2 SWAP3 DUP5 ADD SWAP2 PUSH2 0x1318 SWAP1 PUSH2 0x3F1D JUMP JUMPDEST DUP1 PUSH1 0x1F ADD PUSH1 0x20 DUP1 SWAP2 DIV MUL PUSH1 0x20 ADD PUSH1 0x40 MLOAD SWAP1 DUP2 ADD PUSH1 0x40 MSTORE DUP1 SWAP3 SWAP2 SWAP1 DUP2 DUP2 MSTORE PUSH1 0x20 ADD DUP3 DUP1 SLOAD PUSH2 0x1344 SWAP1 PUSH2 0x3F1D JUMP JUMPDEST DUP1 ISZERO PUSH2 0x1391 JUMPI DUP1 PUSH1 0x1F LT PUSH2 0x1366 JUMPI PUSH2 0x100 DUP1 DUP4 SLOAD DIV MUL DUP4 MSTORE SWAP2 PUSH1 0x20 ADD SWAP2 PUSH2 0x1391 JUMP JUMPDEST DUP3 ADD SWAP2 SWAP1 PUSH1 0x0 MSTORE PUSH1 0x20 PUSH1 0x0 KECCAK256 SWAP1 JUMPDEST DUP2 SLOAD DUP2 MSTORE SWAP1 PUSH1 0x1 ADD SWAP1 PUSH1 0x20 ADD DUP1 DUP4 GT PUSH2 0x1374 JUMPI DUP3 SWAP1 SUB PUSH1 0x1F AND DUP3 ADD SWAP2 JUMPDEST POP POP POP POP POP DUP2 MSTORE PUSH1 0x20 ADD PUSH1 0x3 DUP3 ADD DUP1 SLOAD PUSH2 0x13AA SWAP1 PUSH2 0x3F1D JUMP JUMPDEST DUP1 PUSH1 0x1F ADD PUSH1 0x20 DUP1 SWAP2 DIV MUL PUSH1 0x20 ADD PUSH1 0x40 MLOAD SWAP1 DUP2 ADD PUSH1 0x40 MSTORE DUP1 SWAP3 SWAP2 SWAP1 DUP2 DUP2 MSTORE PUSH1 0x20 ADD DUP3 DUP1 SLOAD PUSH2 0x13D6 SWAP1 PUSH2 0x3F1D JUMP JUMPDEST DUP1 ISZERO PUSH2 0x1423 JUMPI DUP1 PUSH1 0x1F LT PUSH2 0x13F8 JUMPI PUSH2 0x100 DUP1 DUP4 SLOAD DIV MUL DUP4 MSTORE SWAP2 PUSH1 0x20 ADD SWAP2 PUSH2 0x1423 JUMP JUMPDEST DUP3 ADD SWAP2 SWAP1 PUSH1 0x0 MSTORE PUSH1 0x20 PUSH1 0x0 KECCAK256 SWAP1 JUMPDEST DUP2 SLOAD DUP2 MSTORE SWAP1 PUSH1 0x1 ADD SWAP1 PUSH1 0x20 ADD DUP1 DUP4 GT PUSH2 0x1406 JUMPI DUP3 SWAP1 SUB PUSH1 0x1F AND DUP3 ADD SWAP2 JUMPDEST POP POP POP SWAP2 DUP4 MSTORE POP POP PUSH1 0x4 DUP3 ADD SLOAD PUSH1 0x20 DUP3 ADD MSTORE PUSH1 0x5 DUP3 ADD SLOAD PUSH1 0x40 DUP3 ADD MSTORE PUSH1 0x6 SWAP1 SWAP2 ADD SLOAD PUSH1 0xFF DUP1 DUP3 AND ISZERO ISZERO PUSH1 0x60 DUP5 ADD MSTORE PUSH2 0x100 SWAP1 SWAP2 DIV AND ISZERO ISZERO PUSH1 0x80 SWAP1 SWAP2 ADD MSTORE SWAP3 SWAP2 POP POP JUMP JUMPDEST PUSH1 0x1 PUSH1 0x1 PUSH1 0xA0 SHL SUB DUP2 AND PUSH1 0x0 SWAP1 DUP2 MSTORE PUSH1 0x2 PUSH1 0x20 MSTORE PUSH1 0x40 DUP2 KECCAK256 PUSH1 0x5 ADD SLOAD DUP2 DUP2 PUSH1 0x1 PUSH1 0x1 PUSH1 0x40 SHL SUB DUP2 GT ISZERO PUSH2 0x149B JUMPI PUSH2 0x149B PUSH2 0x364A JUMP JUMPDEST PUSH1 0x40 MLOAD SWAP1 DUP1 DUP3 MSTORE DUP1 PUSH1 0x20 MUL PUSH1 0x20 ADD DUP3 ADD PUSH1 0x40 MSTORE DUP1 ISZERO PUSH2 0x14D4 JUMPI DUP2 PUSH1 0x20 ADD JUMPDEST PUSH2 0x14C1 PUSH2 0x33C5 JUMP JUMPDEST DUP2 MSTORE PUSH1 0x20 ADD SWAP1 PUSH1 0x1 SWAP1 SUB SWAP1 DUP2 PUSH2 0x14B9 JUMPI SWAP1 POP JUMPDEST POP SWAP1 POP PUSH1 0x0 DUP1 JUMPDEST DUP3 MLOAD DUP2 LT ISZERO PUSH2 0x1528 JUMPI PUSH1 0x0 DUP4 DUP3 DUP2 MLOAD DUP2 LT PUSH2 0x14F8 JUMPI PUSH2 0x14F8 PUSH2 0x3F57 JUMP JUMPDEST PUSH1 0x20 MUL PUSH1 0x20 ADD ADD MLOAD SWAP1 POP DUP1 PUSH1 0x60 ADD MLOAD DUP4 PUSH2 0x1512 SWAP2 SWAP1 PUSH2 0x3DDD JUMP JUMPDEST SWAP3 POP POP DUP1 DUP1 PUSH2 0x1520 SWAP1 PUSH2 0x3F6D JUMP JUMPDEST SWAP2 POP POP PUSH2 0x14DB JUMP JUMPDEST POP SWAP5 SWAP4 POP POP POP POP JUMP JUMPDEST PUSH1 0x1 PUSH1 0x1 PUSH1 0xA0 SHL SUB DUP2 AND PUSH1 0x0 SWAP1 DUP2 MSTORE PUSH1 0x2 PUSH1 0x20 MSTORE PUSH1 0x40 DUP2 KECCAK256 PUSH1 0x5 ADD SLOAD PUSH1 0x60 SWAP2 DUP2 PUSH1 0x1 PUSH1 0x1 PUSH1 0x40 SHL SUB DUP2 GT ISZERO PUSH2 0x1568 JUMPI PUSH2 0x1568 PUSH2 0x364A JUMP JUMPDEST PUSH1 0x40 MLOAD SWAP1 DUP1 DUP3 MSTORE DUP1 PUSH1 0x20 MUL PUSH1 0x20 ADD DUP3 ADD PUSH1 0x40 MSTORE DUP1 ISZERO PUSH2 0x15A1 JUMPI DUP2 PUSH1 0x20 ADD JUMPDEST PUSH2 0x158E PUSH2 0x33C5 JUMP JUMPDEST DUP2 MSTORE PUSH1 0x20 ADD SWAP1 PUSH1 0x1 SWAP1 SUB SWAP1 DUP2 PUSH2 0x1586 JUMPI SWAP1 POP JUMPDEST POP SWAP1 POP PUSH1 0x0 DUP1 JUMPDEST PUSH1 0xC SLOAD DUP2 LT ISZERO PUSH2 0xB0D JUMPI PUSH1 0x0 PUSH1 0xC DUP3 DUP2 SLOAD DUP2 LT PUSH2 0x15C7 JUMPI PUSH2 0x15C7 PUSH2 0x3F57 JUMP JUMPDEST PUSH1 0x0 SWAP2 DUP3 MSTORE PUSH1 0x20 SWAP2 DUP3 SWAP1 KECCAK256 PUSH1 0x40 DUP1 MLOAD PUSH1 0xA0 DUP2 ADD DUP3 MSTORE PUSH1 0x5 SWAP1 SWAP4 MUL SWAP1 SWAP2 ADD DUP1 SLOAD DUP4 MSTORE PUSH1 0x1 DUP2 ADD SLOAD SWAP4 DUP4 ADD SWAP4 SWAP1 SWAP4 MSTORE PUSH1 0x2 DUP4 ADD SLOAD PUSH1 0x1 PUSH1 0x1 PUSH1 0xA0 SHL SUB SWAP1 DUP2 AND SWAP2 DUP4 ADD DUP3 SWAP1 MSTORE PUSH1 0x3 DUP5 ADD SLOAD PUSH1 0x60 DUP5 ADD MSTORE PUSH1 0x4 SWAP1 SWAP4 ADD SLOAD PUSH1 0xFF AND ISZERO ISZERO PUSH1 0x80 DUP4 ADD MSTORE SWAP1 SWAP3 POP SWAP1 DUP9 AND SWAP1 SUB PUSH2 0x165D JUMPI DUP1 DUP5 DUP5 DUP2 MLOAD DUP2 LT PUSH2 0x1643 JUMPI PUSH2 0x1643 PUSH2 0x3F57 JUMP JUMPDEST PUSH1 0x20 MUL PUSH1 0x20 ADD ADD DUP2 SWAP1 MSTORE POP DUP3 DUP1 PUSH2 0x1659 SWAP1 PUSH2 0x3F6D JUMP JUMPDEST SWAP4 POP POP JUMPDEST DUP5 DUP4 SUB PUSH2 0x166A JUMPI POP PUSH2 0xB0D JUMP JUMPDEST POP DUP1 PUSH2 0x1675 DUP2 PUSH2 0x3F6D JUMP JUMPDEST SWAP2 POP POP PUSH2 0x15A8 JUMP JUMPDEST PUSH1 0x60 PUSH1 0x0 PUSH2 0x168A DUP4 PUSH2 0x1531 JUMP JUMPDEST SWAP1 POP PUSH1 0x0 DUP2 MLOAD PUSH1 0x1 PUSH1 0x1 PUSH1 0x40 SHL SUB DUP2 GT ISZERO PUSH2 0x16A7 JUMPI PUSH2 0x16A7 PUSH2 0x364A JUMP JUMPDEST PUSH1 0x40 MLOAD SWAP1 DUP1 DUP3 MSTORE DUP1 PUSH1 0x20 MUL PUSH1 0x20 ADD DUP3 ADD PUSH1 0x40 MSTORE DUP1 ISZERO PUSH2 0x16E0 JUMPI DUP2 PUSH1 0x20 ADD JUMPDEST PUSH2 0x16CD PUSH2 0x32E8 JUMP JUMPDEST DUP2 MSTORE PUSH1 0x20 ADD SWAP1 PUSH1 0x1 SWAP1 SUB SWAP1 DUP2 PUSH2 0x16C5 JUMPI SWAP1 POP JUMPDEST POP SWAP1 POP PUSH1 0x0 DUP1 JUMPDEST DUP4 MLOAD DUP2 LT ISZERO PUSH2 0xB0D JUMPI PUSH1 0x0 DUP5 DUP3 DUP2 MLOAD DUP2 LT PUSH2 0x1704 JUMPI PUSH2 0x1704 PUSH2 0x3F57 JUMP JUMPDEST PUSH1 0x20 MUL PUSH1 0x20 ADD ADD MLOAD SWAP1 POP PUSH1 0x3 DUP2 PUSH1 0x20 ADD MLOAD DUP2 SLOAD DUP2 LT PUSH2 0x1725 JUMPI PUSH2 0x1725 PUSH2 0x3F57 JUMP JUMPDEST SWAP1 PUSH1 0x0 MSTORE PUSH1 0x20 PUSH1 0x0 KECCAK256 SWAP1 PUSH1 0x7 MUL ADD PUSH1 0x40 MLOAD DUP1 PUSH1 0xE0 ADD PUSH1 0x40 MSTORE SWAP1 DUP2 PUSH1 0x0 DUP3 ADD SLOAD DUP2 MSTORE PUSH1 0x20 ADD PUSH1 0x1 DUP3 ADD PUSH1 0x0 SWAP1 SLOAD SWAP1 PUSH2 0x100 EXP SWAP1 DIV PUSH1 0x1 PUSH1 0x1 PUSH1 0xA0 SHL SUB AND PUSH1 0x1 PUSH1 0x1 PUSH1 0xA0 SHL SUB AND PUSH1 0x1 PUSH1 0x1 PUSH1 0xA0 SHL SUB AND DUP2 MSTORE PUSH1 0x20 ADD PUSH1 0x2 DUP3 ADD DUP1 SLOAD PUSH2 0x1787 SWAP1 PUSH2 0x3F1D JUMP JUMPDEST DUP1 PUSH1 0x1F ADD PUSH1 0x20 DUP1 SWAP2 DIV MUL PUSH1 0x20 ADD PUSH1 0x40 MLOAD SWAP1 DUP2 ADD PUSH1 0x40 MSTORE DUP1 SWAP3 SWAP2 SWAP1 DUP2 DUP2 MSTORE PUSH1 0x20 ADD DUP3 DUP1 SLOAD PUSH2 0x17B3 SWAP1 PUSH2 0x3F1D JUMP JUMPDEST DUP1 ISZERO PUSH2 0x1800 JUMPI DUP1 PUSH1 0x1F LT PUSH2 0x17D5 JUMPI PUSH2 0x100 DUP1 DUP4 SLOAD DIV MUL DUP4 MSTORE SWAP2 PUSH1 0x20 ADD SWAP2 PUSH2 0x1800 JUMP JUMPDEST DUP3 ADD SWAP2 SWAP1 PUSH1 0x0 MSTORE PUSH1 0x20 PUSH1 0x0 KECCAK256 SWAP1 JUMPDEST DUP2 SLOAD DUP2 MSTORE SWAP1 PUSH1 0x1 ADD SWAP1 PUSH1 0x20 ADD DUP1 DUP4 GT PUSH2 0x17E3 JUMPI DUP3 SWAP1 SUB PUSH1 0x1F AND DUP3 ADD SWAP2 JUMPDEST POP POP POP SWAP2 DUP4 MSTORE POP POP PUSH1 0x3 DUP3 ADD SLOAD PUSH1 0x20 DUP3 ADD MSTORE PUSH1 0x4 DUP3 ADD SLOAD PUSH1 0x40 DUP3 ADD MSTORE PUSH1 0x5 DUP3 ADD SLOAD PUSH1 0x60 DUP3 ADD MSTORE PUSH1 0x6 SWAP1 SWAP2 ADD SLOAD PUSH1 0xFF AND ISZERO ISZERO PUSH1 0x80 SWAP1 SWAP2 ADD MSTORE DUP5 MLOAD DUP6 SWAP1 DUP6 SWAP1 DUP2 LT PUSH2 0x184B JUMPI PUSH2 0x184B PUSH2 0x3F57 JUMP JUMPDEST PUSH1 0x20 MUL PUSH1 0x20 ADD ADD DUP2 SWAP1 MSTORE POP DUP3 DUP1 PUSH2 0x1861 SWAP1 PUSH2 0x3F6D JUMP JUMPDEST SWAP4 POP POP POP DUP1 DUP1 PUSH2 0x1870 SWAP1 PUSH2 0x3F6D JUMP JUMPDEST SWAP2 POP POP PUSH2 0x16E7 JUMP JUMPDEST PUSH1 0xE SLOAD PUSH2 0x1883 PUSH2 0x3373 JUMP JUMPDEST DUP2 DUP2 MSTORE PUSH1 0x1 PUSH1 0x1 PUSH1 0xA0 SHL SUB DUP7 DUP2 AND PUSH1 0x20 DUP1 DUP5 ADD DUP3 DUP2 MSTORE PUSH1 0x40 DUP1 DUP7 ADD DUP11 DUP2 MSTORE PUSH1 0x60 DUP8 ADD DUP11 SWAP1 MSTORE PUSH1 0x80 DUP8 ADD DUP10 SWAP1 MSTORE PUSH1 0x0 PUSH1 0xA0 DUP9 ADD DUP2 SWAP1 MSTORE PUSH1 0xC0 DUP9 ADD DUP2 SWAP1 MSTORE PUSH1 0xE0 DUP9 ADD DUP2 SWAP1 MSTORE SWAP5 DUP6 MSTORE PUSH1 0x2 SWAP4 DUP5 SWAP1 MSTORE SWAP4 KECCAK256 DUP6 MLOAD DUP2 SSTORE SWAP1 MLOAD PUSH1 0x1 DUP3 ADD DUP1 SLOAD PUSH1 0x1 PUSH1 0x1 PUSH1 0xA0 SHL SUB NOT AND SWAP2 SWAP1 SWAP6 AND OR SWAP1 SWAP4 SSTORE SWAP1 MLOAD DUP4 SWAP3 SWAP2 DUP3 ADD SWAP1 PUSH2 0x1901 SWAP1 DUP3 PUSH2 0x3FF7 JUMP JUMPDEST POP PUSH1 0x60 DUP3 ADD MLOAD PUSH1 0x3 DUP3 ADD SWAP1 PUSH2 0x1916 SWAP1 DUP3 PUSH2 0x3FF7 JUMP JUMPDEST POP PUSH1 0x80 DUP3 ADD MLOAD PUSH1 0x4 DUP3 ADD SSTORE PUSH1 0xA0 DUP3 ADD MLOAD PUSH1 0x5 DUP3 ADD SSTORE PUSH1 0xC0 DUP3 ADD MLOAD PUSH1 0x6 SWAP1 SWAP2 ADD DUP1 SLOAD PUSH1 0xE0 SWAP1 SWAP4 ADD MLOAD ISZERO ISZERO PUSH2 0x100 MUL PUSH2 0xFF00 NOT SWAP3 ISZERO ISZERO SWAP3 SWAP1 SWAP3 AND PUSH2 0xFFFF NOT SWAP1 SWAP4 AND SWAP3 SWAP1 SWAP3 OR OR SWAP1 SSTORE PUSH1 0xE DUP1 SLOAD SWAP1 PUSH1 0x0 PUSH2 0x196C DUP4 PUSH2 0x3F6D JUMP JUMPDEST SWAP2 SWAP1 POP SSTORE POP POP POP POP POP POP POP JUMP JUMPDEST PUSH1 0x0 DUP1 PUSH1 0x3 DUP5 DUP2 SLOAD DUP2 LT PUSH2 0x198F JUMPI PUSH2 0x198F PUSH2 0x3F57 JUMP JUMPDEST SWAP1 PUSH1 0x0 MSTORE PUSH1 0x20 PUSH1 0x0 KECCAK256 SWAP1 PUSH1 0x7 MUL ADD PUSH1 0x40 MLOAD DUP1 PUSH1 0xE0 ADD PUSH1 0x40 MSTORE SWAP1 DUP2 PUSH1 0x0 DUP3 ADD SLOAD DUP2 MSTORE PUSH1 0x20 ADD PUSH1 0x1 DUP3 ADD PUSH1 0x0 SWAP1 SLOAD SWAP1 PUSH2 0x100 EXP SWAP1 DIV PUSH1 0x1 PUSH1 0x1 PUSH1 0xA0 SHL SUB AND PUSH1 0x1 PUSH1 0x1 PUSH1 0xA0 SHL SUB AND PUSH1 0x1 PUSH1 0x1 PUSH1 0xA0 SHL SUB AND DUP2 MSTORE PUSH1 0x20 ADD PUSH1 0x2 DUP3 ADD DUP1 SLOAD PUSH2 0x19F1 SWAP1 PUSH2 0x3F1D JUMP JUMPDEST DUP1 PUSH1 0x1F ADD PUSH1 0x20 DUP1 SWAP2 DIV MUL PUSH1 0x20 ADD PUSH1 0x40 MLOAD SWAP1 DUP2 ADD PUSH1 0x40 MSTORE DUP1 SWAP3 SWAP2 SWAP1 DUP2 DUP2 MSTORE PUSH1 0x20 ADD DUP3 DUP1 SLOAD PUSH2 0x1A1D SWAP1 PUSH2 0x3F1D JUMP JUMPDEST DUP1 ISZERO PUSH2 0x1A6A JUMPI DUP1 PUSH1 0x1F LT PUSH2 0x1A3F JUMPI PUSH2 0x100 DUP1 DUP4 SLOAD DIV MUL DUP4 MSTORE SWAP2 PUSH1 0x20 ADD SWAP2 PUSH2 0x1A6A JUMP JUMPDEST DUP3 ADD SWAP2 SWAP1 PUSH1 0x0 MSTORE PUSH1 0x20 PUSH1 0x0 KECCAK256 SWAP1 JUMPDEST DUP2 SLOAD DUP2 MSTORE SWAP1 PUSH1 0x1 ADD SWAP1 PUSH1 0x20 ADD DUP1 DUP4 GT PUSH2 0x1A4D JUMPI DUP3 SWAP1 SUB PUSH1 0x1F AND DUP3 ADD SWAP2 JUMPDEST POP POP POP SWAP2 DUP4 MSTORE POP POP PUSH1 0x3 DUP3 ADD SLOAD PUSH1 0x20 DUP3 ADD MSTORE PUSH1 0x4 DUP3 ADD SLOAD PUSH1 0x40 DUP3 ADD MSTORE PUSH1 0x5 DUP1 DUP4 ADD SLOAD PUSH1 0x60 DUP4 ADD MSTORE PUSH1 0x6 SWAP1 SWAP3 ADD SLOAD PUSH1 0xFF AND ISZERO ISZERO PUSH1 0x80 SWAP1 SWAP2 ADD MSTORE PUSH1 0xA0 DUP3 ADD MLOAD SWAP2 SWAP3 POP PUSH1 0x0 SWAP1 DUP6 SWAP1 PUSH1 0xA SWAP1 PUSH2 0x1ABD SWAP1 DUP6 SWAP1 PUSH2 0x3F06 JUMP JUMPDEST PUSH2 0x1AC7 SWAP2 SWAP1 PUSH2 0x3F86 JUMP JUMPDEST PUSH2 0x1AD1 SWAP2 SWAP1 PUSH2 0x3F86 JUMP JUMPDEST SWAP1 POP PUSH1 0x14 PUSH1 0x0 SWAP1 SLOAD SWAP1 PUSH2 0x100 EXP SWAP1 DIV PUSH1 0x1 PUSH1 0x1 PUSH1 0xA0 SHL SUB AND PUSH1 0x1 PUSH1 0x1 PUSH1 0xA0 SHL SUB AND PUSH4 0x313CE567 PUSH1 0x40 MLOAD DUP2 PUSH4 0xFFFFFFFF AND PUSH1 0xE0 SHL DUP2 MSTORE PUSH1 0x4 ADD PUSH1 0x20 PUSH1 0x40 MLOAD DUP1 DUP4 SUB DUP2 DUP7 GAS STATICCALL ISZERO DUP1 ISZERO PUSH2 0x1B26 JUMPI RETURNDATASIZE PUSH1 0x0 DUP1 RETURNDATACOPY RETURNDATASIZE PUSH1 0x0 REVERT JUMPDEST POP POP POP POP PUSH1 0x40 MLOAD RETURNDATASIZE PUSH1 0x1F NOT PUSH1 0x1F DUP3 ADD AND DUP3 ADD DUP1 PUSH1 0x40 MSTORE POP DUP2 ADD SWAP1 PUSH2 0x1B4A SWAP2 SWAP1 PUSH2 0x3DF0 JUMP JUMPDEST PUSH2 0x1B55 SWAP1 PUSH1 0xA PUSH2 0x3EF7 JUMP JUMPDEST PUSH2 0x1B5F SWAP1 DUP3 PUSH2 0x3F06 JUMP JUMPDEST SWAP7 SWAP6 POP POP POP POP POP POP JUMP JUMPDEST PUSH1 0x2 PUSH1 0x20 DUP2 SWAP1 MSTORE PUSH1 0x0 SWAP2 DUP3 MSTORE PUSH1 0x40 SWAP1 SWAP2 KECCAK256 DUP1 SLOAD PUSH1 0x1 DUP3 ADD SLOAD SWAP3 DUP3 ADD DUP1 SLOAD SWAP2 SWAP4 PUSH1 0x1 PUSH1 0x1 PUSH1 0xA0 SHL SUB AND SWAP3 SWAP2 PUSH2 0xB6A SWAP1 PUSH2 0x3F1D JUMP JUMPDEST PUSH1 0xF SLOAD PUSH2 0x1BA7 PUSH2 0x32E8 JUMP JUMPDEST DUP2 DUP2 MSTORE PUSH1 0x1 PUSH1 0x1 PUSH1 0xA0 SHL SUB DUP9 DUP2 AND PUSH1 0x20 DUP4 ADD SWAP1 DUP2 MSTORE PUSH1 0x40 DUP4 ADD DUP10 DUP2 MSTORE PUSH1 0x60 DUP5 ADD DUP10 SWAP1 MSTORE PUSH1 0x80 DUP5 ADD DUP9 SWAP1 MSTORE PUSH1 0xA0 DUP5 ADD DUP7 SWAP1 MSTORE PUSH1 0x0 PUSH1 0xC0 DUP6 ADD DUP2 SWAP1 MSTORE PUSH1 0x3 DUP1 SLOAD PUSH1 0x1 DUP2 ADD DUP3 SSTORE SWAP2 MSTORE DUP5 MLOAD PUSH32 0xC2575A0E9E593C00F959F8C92F12DB2869C3395A3B0502D05E2516446F71F85B PUSH1 0x7 SWAP1 SWAP3 MUL SWAP2 DUP3 ADD SWAP1 DUP2 SSTORE SWAP3 MLOAD PUSH32 0xC2575A0E9E593C00F959F8C92F12DB2869C3395A3B0502D05E2516446F71F85C DUP3 ADD DUP1 SLOAD PUSH1 0x1 PUSH1 0x1 PUSH1 0xA0 SHL SUB NOT AND SWAP2 SWAP1 SWAP6 AND OR SWAP1 SWAP4 SSTORE MLOAD DUP4 SWAP3 PUSH32 0xC2575A0E9E593C00F959F8C92F12DB2869C3395A3B0502D05E2516446F71F85D ADD SWAP1 PUSH2 0x1C84 SWAP1 DUP3 PUSH2 0x3FF7 JUMP JUMPDEST POP PUSH1 0x60 DUP3 ADD MLOAD PUSH1 0x3 DUP3 ADD SSTORE PUSH1 0x80 DUP3 ADD MLOAD PUSH1 0x4 DUP3 ADD SSTORE PUSH1 0xA0 DUP3 ADD MLOAD PUSH1 0x5 DUP3 ADD SSTORE PUSH1 0xC0 SWAP1 SWAP2 ADD MLOAD PUSH1 0x6 SWAP1 SWAP2 ADD DUP1 SLOAD PUSH1 0xFF NOT AND SWAP2 ISZERO ISZERO SWAP2 SWAP1 SWAP2 OR SWAP1 SSTORE PUSH1 0x1 PUSH1 0x1 PUSH1 0xA0 SHL SUB DUP9 AND PUSH1 0x0 SWAP1 DUP2 MSTORE PUSH1 0x8 PUSH1 0x20 MSTORE PUSH1 0x40 SWAP1 KECCAK256 SLOAD DUP1 PUSH2 0x1CE0 DUP2 PUSH2 0x3F6D JUMP JUMPDEST PUSH1 0x1 PUSH1 0x1 PUSH1 0xA0 SHL SUB DUP12 AND PUSH1 0x0 SWAP1 DUP2 MSTORE PUSH1 0x8 PUSH1 0x20 MSTORE PUSH1 0x40 DUP2 KECCAK256 SWAP3 SWAP1 SWAP3 SSTORE SWAP2 POP JUMPDEST DUP8 DUP2 LT ISZERO PUSH2 0x1DEB JUMPI PUSH1 0x10 SLOAD PUSH1 0x40 DUP1 MLOAD PUSH1 0x80 DUP2 ADD DUP3 MSTORE PUSH1 0x0 PUSH1 0x20 DUP3 ADD DUP2 DUP2 MSTORE PUSH1 0x60 SWAP4 DUP4 ADD DUP5 SWAP1 MSTORE SWAP3 DUP3 ADD MSTORE DUP3 DUP2 MSTORE DUP6 MLOAD SWAP1 SWAP2 MSTORE DUP8 MLOAD DUP9 SWAP1 DUP5 SWAP1 DUP2 LT PUSH2 0x1D45 JUMPI PUSH2 0x1D45 PUSH2 0x3F57 JUMP JUMPDEST PUSH1 0x20 SWAP1 DUP2 MUL SWAP2 SWAP1 SWAP2 ADD DUP2 ADD MLOAD PUSH1 0x40 DUP1 DUP5 ADD SWAP2 DUP3 MSTORE PUSH1 0x0 PUSH1 0x60 DUP6 ADD DUP2 SWAP1 MSTORE DUP9 MLOAD DUP2 MSTORE PUSH1 0x4 DUP1 DUP6 MSTORE SWAP2 DUP2 KECCAK256 DUP1 SLOAD PUSH1 0x1 DUP2 DUP2 ADD DUP4 SSTORE SWAP2 DUP4 MSTORE SWAP2 DUP6 SWAP1 KECCAK256 DUP7 MLOAD SWAP3 SWAP1 SWAP4 MUL SWAP1 SWAP3 ADD SWAP1 DUP2 SSTORE SWAP3 DUP5 ADD MLOAD SWAP1 DUP4 ADD SSTORE MLOAD DUP3 SWAP2 SWAP1 PUSH1 0x2 DUP3 ADD SWAP1 PUSH2 0x1DA5 SWAP1 DUP3 PUSH2 0x3FF7 JUMP JUMPDEST POP PUSH1 0x60 SWAP2 SWAP1 SWAP2 ADD MLOAD PUSH1 0x3 SWAP1 SWAP2 ADD DUP1 SLOAD PUSH1 0xFF NOT AND SWAP2 ISZERO ISZERO SWAP2 SWAP1 SWAP2 OR SWAP1 SSTORE PUSH1 0x10 DUP1 SLOAD SWAP1 PUSH1 0x0 PUSH2 0x1DD1 DUP4 PUSH2 0x3F6D JUMP JUMPDEST SWAP2 SWAP1 POP SSTORE POP POP POP DUP1 DUP1 PUSH2 0x1DE3 SWAP1 PUSH2 0x3F6D JUMP JUMPDEST SWAP2 POP POP PUSH2 0x1CFF JUMP JUMPDEST POP PUSH1 0xF DUP1 SLOAD SWAP1 PUSH1 0x0 PUSH2 0x1DFC DUP4 PUSH2 0x3F6D JUMP JUMPDEST SWAP2 SWAP1 POP SSTORE POP POP POP POP POP POP POP POP POP POP JUMP JUMPDEST PUSH1 0x5 PUSH1 0x20 MSTORE DUP2 PUSH1 0x0 MSTORE PUSH1 0x40 PUSH1 0x0 KECCAK256 DUP2 DUP2 SLOAD DUP2 LT PUSH2 0x1E28 JUMPI PUSH1 0x0 DUP1 REVERT JUMPDEST PUSH1 0x0 SWAP2 DUP3 MSTORE PUSH1 0x20 SWAP1 SWAP2 KECCAK256 PUSH1 0x4 SWAP1 SWAP2 MUL ADD DUP1 SLOAD PUSH1 0x1 DUP3 ADD SLOAD PUSH1 0x2 DUP4 ADD SLOAD PUSH1 0x3 SWAP1 SWAP4 ADD SLOAD SWAP2 SWAP5 POP SWAP3 POP PUSH1 0x1 PUSH1 0x1 PUSH1 0xA0 SHL SUB DUP2 AND SWAP1 PUSH1 0xFF PUSH1 0x1 PUSH1 0xA0 SHL DUP3 DIV DUP2 AND SWAP2 PUSH1 0x1 PUSH1 0xA8 SHL SWAP1 DIV AND DUP7 JUMP JUMPDEST PUSH1 0x0 PUSH1 0x3 DUP4 DUP2 SLOAD DUP2 LT PUSH2 0x1E86 JUMPI PUSH2 0x1E86 PUSH2 0x3F57 JUMP JUMPDEST SWAP1 PUSH1 0x0 MSTORE PUSH1 0x20 PUSH1 0x0 KECCAK256 SWAP1 PUSH1 0x7 MUL ADD PUSH1 0x40 MLOAD DUP1 PUSH1 0xE0 ADD PUSH1 0x40 MSTORE SWAP1 DUP2 PUSH1 0x0 DUP3 ADD SLOAD DUP2 MSTORE PUSH1 0x20 ADD PUSH1 0x1 DUP3 ADD PUSH1 0x0 SWAP1 SLOAD SWAP1 PUSH2 0x100 EXP SWAP1 DIV PUSH1 0x1 PUSH1 0x1 PUSH1 0xA0 SHL SUB AND PUSH1 0x1 PUSH1 0x1 PUSH1 0xA0 SHL SUB AND PUSH1 0x1 PUSH1 0x1 PUSH1 0xA0 SHL SUB AND DUP2 MSTORE PUSH1 0x20 ADD PUSH1 0x2 DUP3 ADD DUP1 SLOAD PUSH2 0x1EE8 SWAP1 PUSH2 0x3F1D JUMP JUMPDEST DUP1 PUSH1 0x1F ADD PUSH1 0x20 DUP1 SWAP2 DIV MUL PUSH1 0x20 ADD PUSH1 0x40 MLOAD SWAP1 DUP2 ADD PUSH1 0x40 MSTORE DUP1 SWAP3 SWAP2 SWAP1 DUP2 DUP2 MSTORE PUSH1 0x20 ADD DUP3 DUP1 SLOAD PUSH2 0x1F14 SWAP1 PUSH2 0x3F1D JUMP JUMPDEST DUP1 ISZERO PUSH2 0x1F61 JUMPI DUP1 PUSH1 0x1F LT PUSH2 0x1F36 JUMPI PUSH2 0x100 DUP1 DUP4 SLOAD DIV MUL DUP4 MSTORE SWAP2 PUSH1 0x20 ADD SWAP2 PUSH2 0x1F61 JUMP JUMPDEST DUP3 ADD SWAP2 SWAP1 PUSH1 0x0 MSTORE PUSH1 0x20 PUSH1 0x0 KECCAK256 SWAP1 JUMPDEST DUP2 SLOAD DUP2 MSTORE SWAP1 PUSH1 0x1 ADD SWAP1 PUSH1 0x20 ADD DUP1 DUP4 GT PUSH2 0x1F44 JUMPI DUP3 SWAP1 SUB PUSH1 0x1F AND DUP3 ADD SWAP2 JUMPDEST POP POP POP SWAP2 DUP4 MSTORE POP POP PUSH1 0x3 DUP3 ADD SLOAD PUSH1 0x20 DUP3 ADD MSTORE PUSH1 0x4 DUP3 ADD SLOAD PUSH1 0x40 DUP3 ADD MSTORE PUSH1 0x5 DUP3 ADD SLOAD PUSH1 0x60 DUP3 ADD MSTORE PUSH1 0x6 SWAP1 SWAP2 ADD SLOAD PUSH1 0xFF AND ISZERO ISZERO PUSH1 0x80 SWAP1 SWAP2 ADD MSTORE SWAP1 POP PUSH1 0x0 PUSH2 0x1FA5 DUP5 PUSH2 0xDDC JUMP JUMPDEST PUSH1 0x14 SLOAD PUSH1 0x40 MLOAD PUSH4 0xA9059CBB PUSH1 0xE0 SHL DUP2 MSTORE PUSH1 0x1 PUSH1 0x1 PUSH1 0xA0 SHL SUB DUP7 DUP2 AND PUSH1 0x4 DUP4 ADD MSTORE PUSH1 0x24 DUP3 ADD DUP5 SWAP1 MSTORE SWAP3 SWAP4 POP SWAP2 AND SWAP1 PUSH4 0xA9059CBB SWAP1 PUSH1 0x44 ADD PUSH1 0x20 PUSH1 0x40 MLOAD DUP1 DUP4 SUB DUP2 PUSH1 0x0 DUP8 GAS CALL ISZERO DUP1 ISZERO PUSH2 0x1FFA JUMPI RETURNDATASIZE PUSH1 0x0 DUP1 RETURNDATACOPY RETURNDATASIZE PUSH1 0x0 REVERT JUMPDEST POP POP POP POP PUSH1 0x40 MLOAD RETURNDATASIZE PUSH1 0x1F NOT PUSH1 0x1F DUP3 ADD AND DUP3 ADD DUP1 PUSH1 0x40 MSTORE POP DUP2 ADD SWAP1 PUSH2 0x201E SWAP2 SWAP1 PUSH2 0x40B6 JUMP JUMPDEST POP PUSH1 0x0 PUSH2 0x202F DUP6 DUP5 PUSH1 0x80 ADD MLOAD PUSH2 0x1979 JUMP JUMPDEST PUSH1 0x14 SLOAD PUSH1 0x0 SLOAD PUSH1 0x40 MLOAD PUSH4 0xA9059CBB PUSH1 0xE0 SHL DUP2 MSTORE PUSH1 0x1 PUSH1 0x1 PUSH1 0xA0 SHL SUB SWAP2 DUP3 AND PUSH1 0x4 DUP3 ADD MSTORE PUSH1 0x24 DUP2 ADD DUP5 SWAP1 MSTORE SWAP3 SWAP4 POP AND SWAP1 PUSH4 0xA9059CBB SWAP1 PUSH1 0x44 ADD PUSH1 0x20 PUSH1 0x40 MLOAD DUP1 DUP4 SUB DUP2 PUSH1 0x0 DUP8 GAS CALL ISZERO DUP1 ISZERO PUSH2 0x2086 JUMPI RETURNDATASIZE PUSH1 0x0 DUP1 RETURNDATACOPY RETURNDATASIZE PUSH1 0x0 REVERT JUMPDEST POP POP POP POP PUSH1 0x40 MLOAD RETURNDATASIZE PUSH1 0x1F NOT PUSH1 0x1F DUP3 ADD AND DUP3 ADD DUP1 PUSH1 0x40 MSTORE POP DUP2 ADD SWAP1 PUSH2 0x20AA SWAP2 SWAP1 PUSH2 0x40B6 JUMP JUMPDEST POP PUSH2 0x20B3 PUSH2 0x33C5 JUMP JUMPDEST PUSH1 0x12 DUP1 SLOAD DUP3 MSTORE PUSH1 0x20 DUP3 ADD DUP8 DUP2 MSTORE PUSH1 0x1 PUSH1 0x1 PUSH1 0xA0 SHL SUB DUP8 DUP2 AND PUSH1 0x40 DUP6 ADD SWAP1 DUP2 MSTORE PUSH1 0x60 DUP6 ADD DUP8 DUP2 MSTORE PUSH1 0x0 PUSH1 0x80 DUP8 ADD DUP2 DUP2 MSTORE PUSH1 0xC DUP1 SLOAD PUSH1 0x1 DUP2 ADD DUP3 SSTORE SWAP1 DUP4 MSTORE DUP9 MLOAD PUSH32 0xDF6966C971051C3D54EC59162606531493A51404A002842F56009D7E5CF4A8C7 PUSH1 0x5 SWAP1 SWAP3 MUL SWAP2 DUP3 ADD SSTORE SWAP6 MLOAD PUSH32 0xDF6966C971051C3D54EC59162606531493A51404A002842F56009D7E5CF4A8C8 DUP8 ADD SSTORE SWAP3 MLOAD PUSH32 0xDF6966C971051C3D54EC59162606531493A51404A002842F56009D7E5CF4A8C9 DUP7 ADD DUP1 SLOAD PUSH1 0x1 PUSH1 0x1 PUSH1 0xA0 SHL SUB NOT AND SWAP2 SWAP1 SWAP6 AND OR SWAP1 SWAP4 SSTORE MLOAD PUSH32 0xDF6966C971051C3D54EC59162606531493A51404A002842F56009D7E5CF4A8CA DUP5 ADD SSTORE MLOAD PUSH32 0xDF6966C971051C3D54EC59162606531493A51404A002842F56009D7E5CF4A8CB SWAP1 SWAP3 ADD DUP1 SLOAD PUSH1 0xFF NOT AND SWAP3 ISZERO ISZERO SWAP3 SWAP1 SWAP3 OR SWAP1 SWAP2 SSTORE DUP2 SLOAD SWAP2 SWAP1 PUSH2 0x21E1 DUP4 PUSH2 0x3F6D JUMP JUMPDEST SWAP1 SWAP2 SSTORE POP POP PUSH1 0x0 DUP7 DUP2 MSTORE PUSH1 0x7 PUSH1 0x20 SWAP1 DUP2 MSTORE PUSH1 0x40 DUP1 DUP4 KECCAK256 PUSH1 0x1 PUSH1 0x1 PUSH1 0xA0 SHL SUB DUP10 AND DUP5 MSTORE SWAP1 SWAP2 MSTORE SWAP1 KECCAK256 DUP1 SLOAD PUSH1 0xFF NOT AND PUSH1 0x1 OR SWAP1 SSTORE PUSH2 0x221B PUSH2 0x33C5 JUMP JUMPDEST PUSH1 0x12 DUP1 SLOAD DUP3 MSTORE PUSH1 0x20 DUP3 ADD DUP9 DUP2 MSTORE PUSH1 0x0 DUP1 SLOAD PUSH1 0x1 PUSH1 0x1 PUSH1 0xA0 SHL SUB SWAP1 DUP2 AND PUSH1 0x40 DUP7 ADD SWAP1 DUP2 MSTORE PUSH1 0x60 DUP7 ADD DUP9 DUP2 MSTORE PUSH1 0x80 DUP8 ADD DUP5 DUP2 MSTORE PUSH1 0xC DUP1 SLOAD PUSH1 0x1 DUP2 ADD DUP3 SSTORE SWAP1 DUP7 MSTORE DUP9 MLOAD PUSH32 0xDF6966C971051C3D54EC59162606531493A51404A002842F56009D7E5CF4A8C7 PUSH1 0x5 SWAP1 SWAP3 MUL SWAP2 DUP3 ADD SSTORE SWAP6 MLOAD PUSH32 0xDF6966C971051C3D54EC59162606531493A51404A002842F56009D7E5CF4A8C8 DUP8 ADD SSTORE SWAP2 MLOAD PUSH32 0xDF6966C971051C3D54EC59162606531493A51404A002842F56009D7E5CF4A8C9 DUP7 ADD DUP1 SLOAD PUSH1 0x1 PUSH1 0x1 PUSH1 0xA0 SHL SUB NOT AND SWAP2 SWAP1 SWAP5 AND OR SWAP1 SWAP3 SSTORE SWAP1 MLOAD PUSH32 0xDF6966C971051C3D54EC59162606531493A51404A002842F56009D7E5CF4A8CA DUP5 ADD SSTORE MLOAD PUSH32 0xDF6966C971051C3D54EC59162606531493A51404A002842F56009D7E5CF4A8CB SWAP1 SWAP3 ADD DUP1 SLOAD PUSH1 0xFF NOT AND SWAP3 ISZERO ISZERO SWAP3 SWAP1 SWAP3 OR SWAP1 SWAP2 SSTORE DUP2 SLOAD SWAP2 SWAP1 PUSH2 0x234C DUP4 PUSH2 0x3F6D JUMP JUMPDEST SWAP2 SWAP1 POP SSTORE POP POP POP POP POP POP POP POP JUMP JUMPDEST PUSH1 0x1 PUSH1 0x1 PUSH1 0xA0 SHL SUB DUP2 AND PUSH1 0x0 SWAP1 DUP2 MSTORE PUSH1 0x2 PUSH1 0x20 MSTORE PUSH1 0x40 DUP2 KECCAK256 PUSH1 0x6 ADD SLOAD PUSH2 0x100 SWAP1 DIV PUSH1 0xFF AND PUSH2 0x2389 JUMPI PUSH1 0x1 PUSH2 0x7E7 JUMP JUMPDEST PUSH1 0x0 SWAP3 SWAP2 POP POP JUMP JUMPDEST PUSH1 0x1 PUSH1 0x1 PUSH1 0xA0 SHL SUB DUP1 DUP3 AND PUSH1 0x0 SWAP1 DUP2 MSTORE PUSH1 0x1 PUSH1 0x20 DUP2 DUP2 MSTORE PUSH1 0x40 DUP1 DUP5 KECCAK256 DUP2 MLOAD PUSH1 0xE0 DUP2 ADD DUP4 MSTORE DUP2 SLOAD DUP2 MSTORE SWAP4 DUP2 ADD SLOAD SWAP1 SWAP6 AND SWAP2 DUP4 ADD SWAP2 SWAP1 SWAP2 MSTORE PUSH1 0x2 DUP5 ADD DUP1 SLOAD SWAP4 SWAP5 SWAP3 SWAP4 SWAP2 DUP5 ADD SWAP2 PUSH2 0x23DE SWAP1 PUSH2 0x3F1D JUMP JUMPDEST DUP1 PUSH1 0x1F ADD PUSH1 0x20 DUP1 SWAP2 DIV MUL PUSH1 0x20 ADD PUSH1 0x40 MLOAD SWAP1 DUP2 ADD PUSH1 0x40 MSTORE DUP1 SWAP3 SWAP2 SWAP1 DUP2 DUP2 MSTORE PUSH1 0x20 ADD DUP3 DUP1 SLOAD PUSH2 0x240A SWAP1 PUSH2 0x3F1D JUMP JUMPDEST DUP1 ISZERO PUSH2 0x2457 JUMPI DUP1 PUSH1 0x1F LT PUSH2 0x242C JUMPI PUSH2 0x100 DUP1 DUP4 SLOAD DIV MUL DUP4 MSTORE SWAP2 PUSH1 0x20 ADD SWAP2 PUSH2 0x2457 JUMP JUMPDEST DUP3 ADD SWAP2 SWAP1 PUSH1 0x0 MSTORE PUSH1 0x20 PUSH1 0x0 KECCAK256 SWAP1 JUMPDEST DUP2 SLOAD DUP2 MSTORE SWAP1 PUSH1 0x1 ADD SWAP1 PUSH1 0x20 ADD DUP1 DUP4 GT PUSH2 0x243A JUMPI DUP3 SWAP1 SUB PUSH1 0x1F AND DUP3 ADD SWAP2 JUMPDEST POP POP POP SWAP2 DUP4 MSTORE POP POP PUSH1 0x3 DUP3 ADD SLOAD PUSH1 0x20 DUP1 DUP4 ADD SWAP2 SWAP1 SWAP2 MSTORE PUSH1 0x4 SWAP1 SWAP3 ADD SLOAD PUSH1 0xFF DUP1 DUP3 AND ISZERO ISZERO PUSH1 0x40 DUP1 DUP6 ADD SWAP2 SWAP1 SWAP2 MSTORE PUSH2 0x100 DUP4 DIV DUP3 AND ISZERO ISZERO PUSH1 0x60 DUP6 ADD MSTORE PUSH3 0x10000 SWAP1 SWAP3 DIV AND ISZERO ISZERO PUSH1 0x80 SWAP1 SWAP3 ADD SWAP2 SWAP1 SWAP2 MSTORE PUSH1 0x1 PUSH1 0xA0 DUP5 ADD DUP2 SWAP1 MSTORE PUSH1 0x1 PUSH1 0x1 PUSH1 0xA0 SHL SUB DUP7 DUP2 AND PUSH1 0x0 SWAP1 DUP2 MSTORE DUP3 DUP6 MSTORE DUP4 SWAP1 KECCAK256 DUP6 MLOAD DUP2 SSTORE SWAP4 DUP6 ADD MLOAD SWAP2 DUP5 ADD DUP1 SLOAD PUSH1 0x1 PUSH1 0x1 PUSH1 0xA0 SHL SUB NOT AND SWAP3 SWAP1 SWAP2 AND SWAP2 SWAP1 SWAP2 OR SWAP1 SSTORE DUP3 ADD MLOAD SWAP2 SWAP3 POP DUP3 SWAP2 PUSH1 0x2 DUP3 ADD SWAP1 PUSH2 0x24FB SWAP1 DUP3 PUSH2 0x3FF7 JUMP JUMPDEST POP PUSH1 0x60 DUP3 ADD MLOAD PUSH1 0x3 DUP3 ADD SSTORE PUSH1 0x80 DUP3 ADD MLOAD PUSH1 0x4 SWAP1 SWAP2 ADD DUP1 SLOAD PUSH1 0xA0 DUP5 ADD MLOAD PUSH1 0xC0 SWAP1 SWAP5 ADD MLOAD ISZERO ISZERO PUSH3 0x10000 MUL PUSH3 0xFF0000 NOT SWAP5 ISZERO ISZERO PUSH2 0x100 MUL PUSH2 0xFF00 NOT SWAP5 ISZERO ISZERO SWAP5 SWAP1 SWAP5 AND PUSH2 0xFFFF NOT SWAP1 SWAP3 AND SWAP2 SWAP1 SWAP2 OR SWAP3 SWAP1 SWAP3 OR SWAP3 SWAP1 SWAP3 AND OR SWAP1 SSTORE POP POP JUMP JUMPDEST PUSH1 0x60 PUSH1 0x3 DUP1 SLOAD DUP1 PUSH1 0x20 MUL PUSH1 0x20 ADD PUSH1 0x40 MLOAD SWAP1 DUP2 ADD PUSH1 0x40 MSTORE DUP1 SWAP3 SWAP2 SWAP1 DUP2 DUP2 MSTORE PUSH1 0x20 ADD PUSH1 0x0 SWAP1 JUMPDEST DUP3 DUP3 LT ISZERO PUSH2 0x2690 JUMPI PUSH1 0x0 DUP5 DUP2 MSTORE PUSH1 0x20 SWAP1 DUP2 SWAP1 KECCAK256 PUSH1 0x40 DUP1 MLOAD PUSH1 0xE0 DUP2 ADD DUP3 MSTORE PUSH1 0x7 DUP7 MUL SWAP1 SWAP3 ADD DUP1 SLOAD DUP4 MSTORE PUSH1 0x1 DUP2 ADD SLOAD PUSH1 0x1 PUSH1 0x1 PUSH1 0xA0 SHL SUB AND SWAP4 DUP4 ADD SWAP4 SWAP1 SWAP4 MSTORE PUSH1 0x2 DUP4 ADD DUP1 SLOAD SWAP3 SWAP4 SWAP3 SWAP2 DUP5 ADD SWAP2 PUSH2 0x25CC SWAP1 PUSH2 0x3F1D JUMP JUMPDEST DUP1 PUSH1 0x1F ADD PUSH1 0x20 DUP1 SWAP2 DIV MUL PUSH1 0x20 ADD PUSH1 0x40 MLOAD SWAP1 DUP2 ADD PUSH1 0x40 MSTORE DUP1 SWAP3 SWAP2 SWAP1 DUP2 DUP2 MSTORE PUSH1 0x20 ADD DUP3 DUP1 SLOAD PUSH2 0x25F8 SWAP1 PUSH2 0x3F1D JUMP JUMPDEST DUP1 ISZERO PUSH2 0x2645 JUMPI DUP1 PUSH1 0x1F LT PUSH2 0x261A JUMPI PUSH2 0x100 DUP1 DUP4 SLOAD DIV MUL DUP4 MSTORE SWAP2 PUSH1 0x20 ADD SWAP2 PUSH2 0x2645 JUMP JUMPDEST DUP3 ADD SWAP2 SWAP1 PUSH1 0x0 MSTORE PUSH1 0x20 PUSH1 0x0 KECCAK256 SWAP1 JUMPDEST DUP2 SLOAD DUP2 MSTORE SWAP1 PUSH1 0x1 ADD SWAP1 PUSH1 0x20 ADD DUP1 DUP4 GT PUSH2 0x2628 JUMPI DUP3 SWAP1 SUB PUSH1 0x1F AND DUP3 ADD SWAP2 JUMPDEST POP POP POP SWAP2 DUP4 MSTORE POP POP PUSH1 0x3 DUP3 ADD SLOAD PUSH1 0x20 DUP1 DUP4 ADD SWAP2 SWAP1 SWAP2 MSTORE PUSH1 0x4 DUP4 ADD SLOAD PUSH1 0x40 DUP4 ADD MSTORE PUSH1 0x5 DUP4 ADD SLOAD PUSH1 0x60 DUP4 ADD MSTORE PUSH1 0x6 SWAP1 SWAP3 ADD SLOAD PUSH1 0xFF AND ISZERO ISZERO PUSH1 0x80 SWAP1 SWAP2 ADD MSTORE SWAP1 DUP3 MSTORE PUSH1 0x1 SWAP3 SWAP1 SWAP3 ADD SWAP2 ADD PUSH2 0x2579 JUMP JUMPDEST POP POP POP POP SWAP1 POP SWAP1 JUMP JUMPDEST PUSH1 0xC DUP2 DUP2 SLOAD DUP2 LT PUSH2 0x26A9 JUMPI PUSH1 0x0 DUP1 REVERT JUMPDEST PUSH1 0x0 SWAP2 DUP3 MSTORE PUSH1 0x20 SWAP1 SWAP2 KECCAK256 PUSH1 0x5 SWAP1 SWAP2 MUL ADD DUP1 SLOAD PUSH1 0x1 DUP3 ADD SLOAD PUSH1 0x2 DUP4 ADD SLOAD PUSH1 0x3 DUP5 ADD SLOAD PUSH1 0x4 SWAP1 SWAP5 ADD SLOAD SWAP3 SWAP5 POP SWAP1 SWAP3 PUSH1 0x1 PUSH1 0x1 PUSH1 0xA0 SHL SUB SWAP1 SWAP2 AND SWAP2 PUSH1 0xFF AND DUP6 JUMP JUMPDEST PUSH1 0xB DUP2 DUP2 SLOAD DUP2 LT PUSH2 0x26A9 JUMPI PUSH1 0x0 DUP1 REVERT JUMPDEST PUSH1 0x60 PUSH1 0xA PUSH1 0x0 DUP4 DUP2 MSTORE PUSH1 0x20 ADD SWAP1 DUP2 MSTORE PUSH1 0x20 ADD PUSH1 0x0 KECCAK256 DUP1 SLOAD DUP1 PUSH1 0x20 MUL PUSH1 0x20 ADD PUSH1 0x40 MLOAD SWAP1 DUP2 ADD PUSH1 0x40 MSTORE DUP1 SWAP3 SWAP2 SWAP1 DUP2 DUP2 MSTORE PUSH1 0x20 ADD PUSH1 0x0 SWAP1 JUMPDEST DUP3 DUP3 LT ISZERO PUSH2 0x28DC JUMPI PUSH1 0x0 DUP5 DUP2 MSTORE PUSH1 0x20 SWAP1 DUP2 SWAP1 KECCAK256 PUSH1 0x40 DUP1 MLOAD PUSH2 0x100 DUP2 ADD DUP3 MSTORE PUSH1 0x7 DUP7 MUL SWAP1 SWAP3 ADD DUP1 SLOAD DUP4 MSTORE PUSH1 0x1 DUP2 ADD SLOAD PUSH1 0x1 PUSH1 0x1 PUSH1 0xA0 SHL SUB AND SWAP4 DUP4 ADD SWAP4 SWAP1 SWAP4 MSTORE PUSH1 0x2 DUP4 ADD DUP1 SLOAD SWAP3 SWAP4 SWAP3 SWAP2 DUP5 ADD SWAP2 PUSH2 0x2780 SWAP1 PUSH2 0x3F1D JUMP JUMPDEST DUP1 PUSH1 0x1F ADD PUSH1 0x20 DUP1 SWAP2 DIV MUL PUSH1 0x20 ADD PUSH1 0x40 MLOAD SWAP1 DUP2 ADD PUSH1 0x40 MSTORE DUP1 SWAP3 SWAP2 SWAP1 DUP2 DUP2 MSTORE PUSH1 0x20 ADD DUP3 DUP1 SLOAD PUSH2 0x27AC SWAP1 PUSH2 0x3F1D JUMP JUMPDEST DUP1 ISZERO PUSH2 0x27F9 JUMPI DUP1 PUSH1 0x1F LT PUSH2 0x27CE JUMPI PUSH2 0x100 DUP1 DUP4 SLOAD DIV MUL DUP4 MSTORE SWAP2 PUSH1 0x20 ADD SWAP2 PUSH2 0x27F9 JUMP JUMPDEST DUP3 ADD SWAP2 SWAP1 PUSH1 0x0 MSTORE PUSH1 0x20 PUSH1 0x0 KECCAK256 SWAP1 JUMPDEST DUP2 SLOAD DUP2 MSTORE SWAP1 PUSH1 0x1 ADD SWAP1 PUSH1 0x20 ADD DUP1 DUP4 GT PUSH2 0x27DC JUMPI DUP3 SWAP1 SUB PUSH1 0x1F AND DUP3 ADD SWAP2 JUMPDEST POP POP POP POP POP DUP2 MSTORE PUSH1 0x20 ADD PUSH1 0x3 DUP3 ADD DUP1 SLOAD PUSH2 0x2812 SWAP1 PUSH2 0x3F1D JUMP JUMPDEST DUP1 PUSH1 0x1F ADD PUSH1 0x20 DUP1 SWAP2 DIV MUL PUSH1 0x20 ADD PUSH1 0x40 MLOAD SWAP1 DUP2 ADD PUSH1 0x40 MSTORE DUP1 SWAP3 SWAP2 SWAP1 DUP2 DUP2 MSTORE PUSH1 0x20 ADD DUP3 DUP1 SLOAD PUSH2 0x283E SWAP1 PUSH2 0x3F1D JUMP JUMPDEST DUP1 ISZERO PUSH2 0x288B JUMPI DUP1 PUSH1 0x1F LT PUSH2 0x2860 JUMPI PUSH2 0x100 DUP1 DUP4 SLOAD DIV MUL DUP4 MSTORE SWAP2 PUSH1 0x20 ADD SWAP2 PUSH2 0x288B JUMP JUMPDEST DUP3 ADD SWAP2 SWAP1 PUSH1 0x0 MSTORE PUSH1 0x20 PUSH1 0x0 KECCAK256 SWAP1 JUMPDEST DUP2 SLOAD DUP2 MSTORE SWAP1 PUSH1 0x1 ADD SWAP1 PUSH1 0x20 ADD DUP1 DUP4 GT PUSH2 0x286E JUMPI DUP3 SWAP1 SUB PUSH1 0x1F AND DUP3 ADD SWAP2 JUMPDEST POP POP POP SWAP2 DUP4 MSTORE POP POP PUSH1 0x4 DUP3 ADD SLOAD PUSH1 0x20 DUP1 DUP4 ADD SWAP2 SWAP1 SWAP2 MSTORE PUSH1 0x5 DUP4 ADD SLOAD PUSH1 0x40 DUP4 ADD MSTORE PUSH1 0x6 SWAP1 SWAP3 ADD SLOAD PUSH1 0xFF DUP1 DUP3 AND ISZERO ISZERO PUSH1 0x60 DUP5 ADD MSTORE PUSH2 0x100 SWAP1 SWAP2 DIV AND ISZERO ISZERO PUSH1 0x80 SWAP1 SWAP2 ADD MSTORE SWAP1 DUP3 MSTORE PUSH1 0x1 SWAP3 SWAP1 SWAP3 ADD SWAP2 ADD PUSH2 0x272C JUMP JUMPDEST POP POP POP POP SWAP1 POP SWAP2 SWAP1 POP JUMP JUMPDEST PUSH1 0x1 PUSH1 0x1 PUSH1 0xA0 SHL SUB DUP2 AND PUSH1 0x0 SWAP1 DUP2 MSTORE PUSH1 0x1 PUSH1 0x20 MSTORE PUSH1 0x40 DUP2 KECCAK256 PUSH1 0x4 ADD SLOAD PUSH3 0x10000 SWAP1 DIV PUSH1 0xFF AND PUSH2 0x2389 JUMPI PUSH1 0x1 PUSH2 0x7E7 JUMP JUMPDEST PUSH1 0x0 PUSH2 0x2923 DUP6 DUP6 PUSH2 0x706 JUMP JUMPDEST PUSH1 0x13 SLOAD PUSH1 0x40 DUP1 MLOAD PUSH1 0xA0 DUP2 ADD DUP3 MSTORE PUSH1 0x0 PUSH1 0x80 DUP3 ADD DUP2 DUP2 MSTORE DUP5 DUP4 MSTORE PUSH1 0x20 DUP1 DUP5 ADD DUP11 DUP2 MSTORE PUSH1 0x1 PUSH1 0x1 PUSH1 0xA0 SHL SUB DUP11 DUP2 AND DUP7 DUP9 ADD DUP2 DUP2 MSTORE PUSH1 0x60 DUP9 ADD DUP12 DUP2 MSTORE PUSH1 0xB DUP1 SLOAD PUSH1 0x1 DUP2 ADD DUP3 SSTORE SWAP1 DUP10 MSTORE DUP10 MLOAD PUSH32 0x175B7A638427703F0DBE7BB9BBF987A2551717B34E79F33B5B1008D1FA01DB9 PUSH1 0x5 SWAP1 SWAP3 MUL SWAP2 DUP3 ADD SSTORE SWAP5 MLOAD PUSH32 0x175B7A638427703F0DBE7BB9BBF987A2551717B34E79F33B5B1008D1FA01DBA DUP7 ADD SSTORE SWAP1 MLOAD PUSH32 0x175B7A638427703F0DBE7BB9BBF987A2551717B34E79F33B5B1008D1FA01DBB DUP6 ADD DUP1 SLOAD PUSH1 0x1 PUSH1 0x1 PUSH1 0xA0 SHL SUB NOT AND SWAP2 SWAP1 SWAP5 AND OR SWAP1 SWAP3 SSTORE SWAP1 MLOAD PUSH32 0x175B7A638427703F0DBE7BB9BBF987A2551717B34E79F33B5B1008D1FA01DBC DUP4 ADD SSTORE SWAP3 MLOAD PUSH32 0x175B7A638427703F0DBE7BB9BBF987A2551717B34E79F33B5B1008D1FA01DBD SWAP1 SWAP2 ADD DUP1 SLOAD PUSH1 0xFF NOT AND SWAP2 ISZERO ISZERO SWAP2 SWAP1 SWAP2 OR SWAP1 SSTORE SWAP1 DUP3 MSTORE PUSH1 0x9 SWAP1 MSTORE SWAP2 SWAP1 SWAP2 KECCAK256 SLOAD SWAP3 SWAP4 POP SWAP1 SWAP2 PUSH2 0x2A6A DUP5 DUP3 PUSH2 0x3DDD JUMP JUMPDEST PUSH1 0x1 PUSH1 0x1 PUSH1 0xA0 SHL SUB DUP7 AND PUSH1 0x0 SWAP1 DUP2 MSTORE PUSH1 0x9 PUSH1 0x20 MSTORE PUSH1 0x40 DUP2 KECCAK256 DUP3 SWAP1 SSTORE PUSH1 0x13 DUP1 SLOAD SWAP3 SWAP4 POP SWAP1 PUSH2 0x2A96 DUP4 PUSH2 0x3F6D JUMP JUMPDEST SWAP2 SWAP1 POP SSTORE POP POP POP POP POP POP POP POP POP JUMP JUMPDEST PUSH2 0x2AAD PUSH2 0x32E8 JUMP JUMPDEST PUSH1 0x3 DUP3 DUP2 SLOAD DUP2 LT PUSH2 0x2AC0 JUMPI PUSH2 0x2AC0 PUSH2 0x3F57 JUMP JUMPDEST SWAP1 PUSH1 0x0 MSTORE PUSH1 0x20 PUSH1 0x0 KECCAK256 SWAP1 PUSH1 0x7 MUL ADD PUSH1 0x40 MLOAD DUP1 PUSH1 0xE0 ADD PUSH1 0x40 MSTORE SWAP1 DUP2 PUSH1 0x0 DUP3 ADD SLOAD DUP2 MSTORE PUSH1 0x20 ADD PUSH1 0x1 DUP3 ADD PUSH1 0x0 SWAP1 SLOAD SWAP1 PUSH2 0x100 EXP SWAP1 DIV PUSH1 0x1 PUSH1 0x1 PUSH1 0xA0 SHL SUB AND PUSH1 0x1 PUSH1 0x1 PUSH1 0xA0 SHL SUB AND PUSH1 0x1 PUSH1 0x1 PUSH1 0xA0 SHL SUB AND DUP2 MSTORE PUSH1 0x20 ADD PUSH1 0x2 DUP3 ADD DUP1 SLOAD PUSH2 0x2B22 SWAP1 PUSH2 0x3F1D JUMP JUMPDEST DUP1 PUSH1 0x1F ADD PUSH1 0x20 DUP1 SWAP2 DIV MUL PUSH1 0x20 ADD PUSH1 0x40 MLOAD SWAP1 DUP2 ADD PUSH1 0x40 MSTORE DUP1 SWAP3 SWAP2 SWAP1 DUP2 DUP2 MSTORE PUSH1 0x20 ADD DUP3 DUP1 SLOAD PUSH2 0x2B4E SWAP1 PUSH2 0x3F1D JUMP JUMPDEST DUP1 ISZERO PUSH2 0x2B9B JUMPI DUP1 PUSH1 0x1F LT PUSH2 0x2B70 JUMPI PUSH2 0x100 DUP1 DUP4 SLOAD DIV MUL DUP4 MSTORE SWAP2 PUSH1 0x20 ADD SWAP2 PUSH2 0x2B9B JUMP JUMPDEST DUP3 ADD SWAP2 SWAP1 PUSH1 0x0 MSTORE PUSH1 0x20 PUSH1 0x0 KECCAK256 SWAP1 JUMPDEST DUP2 SLOAD DUP2 MSTORE SWAP1 PUSH1 0x1 ADD SWAP1 PUSH1 0x20 ADD DUP1 DUP4 GT PUSH2 0x2B7E JUMPI DUP3 SWAP1 SUB PUSH1 0x1F AND DUP3 ADD SWAP2 JUMPDEST POP POP POP SWAP2 DUP4 MSTORE POP POP PUSH1 0x3 DUP3 ADD SLOAD PUSH1 0x20 DUP3 ADD MSTORE PUSH1 0x4 DUP3 ADD SLOAD PUSH1 0x40 DUP3 ADD MSTORE PUSH1 0x5 DUP3 ADD SLOAD PUSH1 0x60 DUP3 ADD MSTORE PUSH1 0x6 SWAP1 SWAP2 ADD SLOAD PUSH1 0xFF AND ISZERO ISZERO PUSH1 0x80 SWAP1 SWAP2 ADD MSTORE SWAP3 SWAP2 POP POP JUMP JUMPDEST PUSH1 0x0 PUSH1 0x3 DUP5 DUP2 SLOAD DUP2 LT PUSH2 0x2BED JUMPI PUSH2 0x2BED PUSH2 0x3F57 JUMP JUMPDEST SWAP1 PUSH1 0x0 MSTORE PUSH1 0x20 PUSH1 0x0 KECCAK256 SWAP1 PUSH1 0x7 MUL ADD PUSH1 0x40 MLOAD DUP1 PUSH1 0xE0 ADD PUSH1 0x40 MSTORE SWAP1 DUP2 PUSH1 0x0 DUP3 ADD SLOAD DUP2 MSTORE PUSH1 0x20 ADD PUSH1 0x1 DUP3 ADD PUSH1 0x0 SWAP1 SLOAD SWAP1 PUSH2 0x100 EXP SWAP1 DIV PUSH1 0x1 PUSH1 0x1 PUSH1 0xA0 SHL SUB AND PUSH1 0x1 PUSH1 0x1 PUSH1 0xA0 SHL SUB AND PUSH1 0x1 PUSH1 0x1 PUSH1 0xA0 SHL SUB AND DUP2 MSTORE PUSH1 0x20 ADD PUSH1 0x2 DUP3 ADD DUP1 SLOAD PUSH2 0x2C4F SWAP1 PUSH2 0x3F1D JUMP JUMPDEST DUP1 PUSH1 0x1F ADD PUSH1 0x20 DUP1 SWAP2 DIV MUL PUSH1 0x20 ADD PUSH1 0x40 MLOAD SWAP1 DUP2 ADD PUSH1 0x40 MSTORE DUP1 SWAP3 SWAP2 SWAP1 DUP2 DUP2 MSTORE PUSH1 0x20 ADD DUP3 DUP1 SLOAD PUSH2 0x2C7B SWAP1 PUSH2 0x3F1D JUMP JUMPDEST DUP1 ISZERO PUSH2 0x2CC8 JUMPI DUP1 PUSH1 0x1F LT PUSH2 0x2C9D JUMPI PUSH2 0x100 DUP1 DUP4 SLOAD DIV MUL DUP4 MSTORE SWAP2 PUSH1 0x20 ADD SWAP2 PUSH2 0x2CC8 JUMP JUMPDEST DUP3 ADD SWAP2 SWAP1 PUSH1 0x0 MSTORE PUSH1 0x20 PUSH1 0x0 KECCAK256 SWAP1 JUMPDEST DUP2 SLOAD DUP2 MSTORE SWAP1 PUSH1 0x1 ADD SWAP1 PUSH1 0x20 ADD DUP1 DUP4 GT PUSH2 0x2CAB JUMPI DUP3 SWAP1 SUB PUSH1 0x1F AND DUP3 ADD SWAP2 JUMPDEST POP POP POP SWAP2 DUP4 MSTORE POP POP PUSH1 0x3 DUP3 ADD SLOAD PUSH1 0x20 DUP3 ADD MSTORE PUSH1 0x4 DUP3 ADD SLOAD PUSH1 0x40 DUP3 ADD MSTORE PUSH1 0x5 DUP3 ADD SLOAD PUSH1 0x60 DUP1 DUP4 ADD SWAP2 SWAP1 SWAP2 MSTORE PUSH1 0x6 SWAP1 SWAP3 ADD SLOAD PUSH1 0xFF AND ISZERO ISZERO PUSH1 0x80 SWAP1 SWAP2 ADD MSTORE DUP2 ADD MLOAD SWAP1 SWAP2 POP PUSH1 0x0 JUMPDEST DUP2 DUP2 LT ISZERO PUSH2 0x2E1B JUMPI PUSH2 0x2D1C PUSH2 0x3330 JUMP JUMPDEST PUSH1 0x11 SLOAD DUP1 DUP3 MSTORE PUSH1 0x20 DUP3 ADD DUP4 SWAP1 MSTORE PUSH1 0x40 DUP3 ADD DUP9 SWAP1 MSTORE PUSH1 0x1 PUSH1 0x1 PUSH1 0xA0 SHL SUB DUP8 AND PUSH1 0x60 DUP4 ADD MSTORE DUP6 MLOAD DUP7 SWAP1 DUP5 SWAP1 DUP2 LT PUSH2 0x2D53 JUMPI PUSH2 0x2D53 PUSH2 0x3F57 JUMP JUMPDEST PUSH1 0x20 SWAP1 DUP2 MUL SWAP2 SWAP1 SWAP2 ADD DUP2 ADD MLOAD ISZERO ISZERO PUSH1 0x80 DUP5 ADD SWAP1 DUP2 MSTORE PUSH1 0x0 DUP11 DUP2 MSTORE PUSH1 0x5 DUP4 MSTORE PUSH1 0x40 DUP1 DUP3 KECCAK256 DUP1 SLOAD PUSH1 0x1 DUP2 DUP2 ADD DUP4 SSTORE SWAP2 DUP5 MSTORE DUP6 DUP5 KECCAK256 DUP9 MLOAD PUSH1 0x4 SWAP1 SWAP3 MUL ADD SWAP1 DUP2 SSTORE SWAP5 DUP8 ADD MLOAD SWAP1 DUP6 ADD SSTORE DUP6 ADD MLOAD PUSH1 0x2 DUP5 ADD SSTORE PUSH1 0x60 DUP6 ADD MLOAD PUSH1 0x3 SWAP1 SWAP4 ADD DUP1 SLOAD SWAP3 MLOAD PUSH1 0xA0 DUP8 ADD MLOAD ISZERO ISZERO PUSH1 0x1 PUSH1 0xA8 SHL MUL PUSH1 0xFF PUSH1 0xA8 SHL NOT SWAP2 ISZERO ISZERO PUSH1 0x1 PUSH1 0xA0 SHL MUL PUSH1 0x1 PUSH1 0x1 PUSH1 0xA8 SHL SUB NOT SWAP1 SWAP6 AND PUSH1 0x1 PUSH1 0x1 PUSH1 0xA0 SHL SUB SWAP1 SWAP7 AND SWAP6 SWAP1 SWAP6 OR SWAP4 SWAP1 SWAP4 OR SWAP3 SWAP1 SWAP3 AND SWAP3 SWAP1 SWAP3 OR SWAP1 SSTORE PUSH1 0x11 DUP1 SLOAD SWAP2 PUSH2 0x2E01 DUP4 PUSH2 0x3F6D JUMP JUMPDEST SWAP2 SWAP1 POP SSTORE POP POP POP DUP1 DUP1 PUSH2 0x2E13 SWAP1 PUSH2 0x3F6D JUMP JUMPDEST SWAP2 POP POP PUSH2 0x2D0C JUMP JUMPDEST POP PUSH1 0x0 DUP6 DUP2 MSTORE PUSH1 0x6 PUSH1 0x20 SWAP1 DUP2 MSTORE PUSH1 0x40 DUP1 DUP4 KECCAK256 PUSH1 0x1 PUSH1 0x1 PUSH1 0xA0 SHL SUB DUP9 AND DUP5 MSTORE DUP3 MSTORE DUP1 DUP4 KECCAK256 DUP1 SLOAD PUSH1 0xFF NOT AND PUSH1 0x1 OR SWAP1 SSTORE DUP8 DUP4 MSTORE PUSH1 0xA SWAP1 SWAP2 MSTORE SWAP1 KECCAK256 PUSH2 0x2E5C DUP6 PUSH2 0x12C4 JUMP JUMPDEST DUP2 SLOAD PUSH1 0x1 DUP1 DUP3 ADD DUP5 SSTORE PUSH1 0x0 SWAP4 DUP5 MSTORE PUSH1 0x20 SWAP4 DUP5 SWAP1 KECCAK256 DUP4 MLOAD PUSH1 0x7 SWAP1 SWAP4 MUL ADD SWAP2 DUP3 SSTORE SWAP3 DUP3 ADD MLOAD SWAP3 DUP2 ADD DUP1 SLOAD PUSH1 0x1 PUSH1 0x1 PUSH1 0xA0 SHL SUB NOT AND PUSH1 0x1 PUSH1 0x1 PUSH1 0xA0 SHL SUB SWAP1 SWAP5 AND SWAP4 SWAP1 SWAP4 OR SWAP1 SWAP3 SSTORE PUSH1 0x40 DUP2 ADD MLOAD SWAP1 SWAP2 SWAP1 PUSH1 0x2 DUP3 ADD SWAP1 PUSH2 0x2EB7 SWAP1 DUP3 PUSH2 0x3FF7 JUMP JUMPDEST POP PUSH1 0x60 DUP3 ADD MLOAD PUSH1 0x3 DUP3 ADD SWAP1 PUSH2 0x2ECC SWAP1 DUP3 PUSH2 0x3FF7 JUMP JUMPDEST POP PUSH1 0x80 DUP3 ADD MLOAD PUSH1 0x4 DUP3 ADD SSTORE PUSH1 0xA0 DUP3 ADD MLOAD PUSH1 0x5 DUP3 ADD SSTORE PUSH1 0xC0 DUP3 ADD MLOAD PUSH1 0x6 SWAP1 SWAP2 ADD DUP1 SLOAD PUSH1 0xE0 SWAP1 SWAP4 ADD MLOAD ISZERO ISZERO PUSH2 0x100 MUL PUSH2 0xFF00 NOT SWAP3 ISZERO ISZERO SWAP3 SWAP1 SWAP3 AND PUSH2 0xFFFF NOT SWAP1 SWAP4 AND SWAP3 SWAP1 SWAP3 OR OR SWAP1 SSTORE POP POP POP POP POP JUMP JUMPDEST PUSH1 0x60 PUSH1 0x5 PUSH1 0x0 DUP4 DUP2 MSTORE PUSH1 0x20 ADD SWAP1 DUP2 MSTORE PUSH1 0x20 ADD PUSH1 0x0 KECCAK256 DUP1 SLOAD DUP1 PUSH1 0x20 MUL PUSH1 0x20 ADD PUSH1 0x40 MLOAD SWAP1 DUP2 ADD PUSH1 0x40 MSTORE DUP1 SWAP3 SWAP2 SWAP1 DUP2 DUP2 MSTORE PUSH1 0x20 ADD PUSH1 0x0 SWAP1 JUMPDEST DUP3 DUP3 LT ISZERO PUSH2 0x28DC JUMPI PUSH1 0x0 DUP5 DUP2 MSTORE PUSH1 0x20 SWAP1 DUP2 SWAP1 KECCAK256 PUSH1 0x40 DUP1 MLOAD PUSH1 0xC0 DUP2 ADD DUP3 MSTORE PUSH1 0x4 DUP7 MUL SWAP1 SWAP3 ADD DUP1 SLOAD DUP4 MSTORE PUSH1 0x1 DUP1 DUP3 ADD SLOAD DUP5 DUP7 ADD MSTORE PUSH1 0x2 DUP3 ADD SLOAD SWAP3 DUP5 ADD SWAP3 SWAP1 SWAP3 MSTORE PUSH1 0x3 ADD SLOAD PUSH1 0x1 PUSH1 0x1 PUSH1 0xA0 SHL SUB DUP2 AND PUSH1 0x60 DUP5 ADD MSTORE PUSH1 0xFF PUSH1 0x1 PUSH1 0xA0 SHL DUP3 DIV DUP2 AND ISZERO ISZERO PUSH1 0x80 DUP6 ADD MSTORE PUSH1 0x1 PUSH1 0xA8 SHL SWAP1 SWAP2 DIV AND ISZERO ISZERO PUSH1 0xA0 DUP4 ADD MSTORE SWAP1 DUP4 MSTORE SWAP1 SWAP3 ADD SWAP2 ADD PUSH2 0x2F4E JUMP JUMPDEST PUSH1 0x60 PUSH1 0x4 PUSH1 0x0 DUP4 DUP2 MSTORE PUSH1 0x20 ADD SWAP1 DUP2 MSTORE PUSH1 0x20 ADD PUSH1 0x0 KECCAK256 DUP1 SLOAD DUP1 PUSH1 0x20 MUL PUSH1 0x20 ADD PUSH1 0x40 MLOAD SWAP1 DUP2 ADD PUSH1 0x40 MSTORE DUP1 SWAP3 SWAP2 SWAP1 DUP2 DUP2 MSTORE PUSH1 0x20 ADD PUSH1 0x0 SWAP1 JUMPDEST DUP3 DUP3 LT ISZERO PUSH2 0x28DC JUMPI DUP4 DUP3 SWAP1 PUSH1 0x0 MSTORE PUSH1 0x20 PUSH1 0x0 KECCAK256 SWAP1 PUSH1 0x4 MUL ADD PUSH1 0x40 MLOAD DUP1 PUSH1 0x80 ADD PUSH1 0x40 MSTORE SWAP1 DUP2 PUSH1 0x0 DUP3 ADD SLOAD DUP2 MSTORE PUSH1 0x20 ADD PUSH1 0x1 DUP3 ADD SLOAD DUP2 MSTORE PUSH1 0x20 ADD PUSH1 0x2 DUP3 ADD DUP1 SLOAD PUSH2 0x304A SWAP1 PUSH2 0x3F1D JUMP JUMPDEST DUP1 PUSH1 0x1F ADD PUSH1 0x20 DUP1 SWAP2 DIV MUL PUSH1 0x20 ADD PUSH1 0x40 MLOAD SWAP1 DUP2 ADD PUSH1 0x40 MSTORE DUP1 SWAP3 SWAP2 SWAP1 DUP2 DUP2 MSTORE PUSH1 0x20 ADD DUP3 DUP1 SLOAD PUSH2 0x3076 SWAP1 PUSH2 0x3F1D JUMP JUMPDEST DUP1 ISZERO PUSH2 0x30C3 JUMPI DUP1 PUSH1 0x1F LT PUSH2 0x3098 JUMPI PUSH2 0x100 DUP1 DUP4 SLOAD DIV MUL DUP4 MSTORE SWAP2 PUSH1 0x20 ADD SWAP2 PUSH2 0x30C3 JUMP JUMPDEST DUP3 ADD SWAP2 SWAP1 PUSH1 0x0 MSTORE PUSH1 0x20 PUSH1 0x0 KECCAK256 SWAP1 JUMPDEST DUP2 SLOAD DUP2 MSTORE SWAP1 PUSH1 0x1 ADD SWAP1 PUSH1 0x20 ADD DUP1 DUP4 GT PUSH2 0x30A6 JUMPI DUP3 SWAP1 SUB PUSH1 0x1F AND DUP3 ADD SWAP2 JUMPDEST POP POP POP SWAP2 DUP4 MSTORE POP POP PUSH1 0x3 SWAP2 SWAP1 SWAP2 ADD SLOAD PUSH1 0xFF AND ISZERO ISZERO PUSH1 0x20 SWAP2 DUP3 ADD MSTORE SWAP1 DUP3 MSTORE PUSH1 0x1 SWAP3 SWAP1 SWAP3 ADD SWAP2 ADD PUSH2 0x3003 JUMP JUMPDEST PUSH1 0x1 PUSH1 0x20 DUP2 SWAP1 MSTORE PUSH1 0x0 SWAP2 DUP3 MSTORE PUSH1 0x40 SWAP1 SWAP2 KECCAK256 DUP1 SLOAD SWAP2 DUP2 ADD SLOAD PUSH1 0x2 DUP3 ADD DUP1 SLOAD PUSH1 0x1 PUSH1 0x1 PUSH1 0xA0 SHL SUB SWAP1 SWAP3 AND SWAP3 SWAP2 PUSH2 0x3120 SWAP1 PUSH2 0x3F1D JUMP JUMPDEST DUP1 PUSH1 0x1F ADD PUSH1 0x20 DUP1 SWAP2 DIV MUL PUSH1 0x20 ADD PUSH1 0x40 MLOAD SWAP1 DUP2 ADD PUSH1 0x40 MSTORE DUP1 SWAP3 SWAP2 SWAP1 DUP2 DUP2 MSTORE PUSH1 0x20 ADD DUP3 DUP1 SLOAD PUSH2 0x314C SWAP1 PUSH2 0x3F1D JUMP JUMPDEST DUP1 ISZERO PUSH2 0x3199 JUMPI DUP1 PUSH1 0x1F LT PUSH2 0x316E JUMPI PUSH2 0x100 DUP1 DUP4 SLOAD DIV MUL DUP4 MSTORE SWAP2 PUSH1 0x20 ADD SWAP2 PUSH2 0x3199 JUMP JUMPDEST DUP3 ADD SWAP2 SWAP1 PUSH1 0x0 MSTORE PUSH1 0x20 PUSH1 0x0 KECCAK256 SWAP1 JUMPDEST DUP2 SLOAD DUP2 MSTORE SWAP1 PUSH1 0x1 ADD SWAP1 PUSH1 0x20 ADD DUP1 DUP4 GT PUSH2 0x317C JUMPI DUP3 SWAP1 SUB PUSH1 0x1F AND DUP3 ADD SWAP2 JUMPDEST POP POP POP POP PUSH1 0x3 DUP4 ADD SLOAD PUSH1 0x4 SWAP1 SWAP4 ADD SLOAD SWAP2 SWAP3 SWAP2 PUSH1 0xFF DUP1 DUP3 AND SWAP3 POP PUSH2 0x100 DUP3 DIV DUP2 AND SWAP2 PUSH3 0x10000 SWAP1 DIV AND DUP8 JUMP JUMPDEST PUSH1 0x4 PUSH1 0x20 MSTORE DUP2 PUSH1 0x0 MSTORE PUSH1 0x40 PUSH1 0x0 KECCAK256 DUP2 DUP2 SLOAD DUP2 LT PUSH2 0x31E0 JUMPI PUSH1 0x0 DUP1 REVERT JUMPDEST SWAP1 PUSH1 0x0 MSTORE PUSH1 0x20 PUSH1 0x0 KECCAK256 SWAP1 PUSH1 0x4 MUL ADD PUSH1 0x0 SWAP2 POP SWAP2 POP POP DUP1 PUSH1 0x0 ADD SLOAD SWAP1 DUP1 PUSH1 0x1 ADD SLOAD SWAP1 DUP1 PUSH1 0x2 ADD DUP1 SLOAD PUSH2 0x3210 SWAP1 PUSH2 0x3F1D JUMP JUMPDEST DUP1 PUSH1 0x1F ADD PUSH1 0x20 DUP1 SWAP2 DIV MUL PUSH1 0x20 ADD PUSH1 0x40 MLOAD SWAP1 DUP2 ADD PUSH1 0x40 MSTORE DUP1 SWAP3 SWAP2 SWAP1 DUP2 DUP2 MSTORE PUSH1 0x20 ADD DUP3 DUP1 SLOAD PUSH2 0x323C SWAP1 PUSH2 0x3F1D JUMP JUMPDEST DUP1 ISZERO PUSH2 0x3289 JUMPI DUP1 PUSH1 0x1F LT PUSH2 0x325E JUMPI PUSH2 0x100 DUP1 DUP4 SLOAD DIV MUL DUP4 MSTORE SWAP2 PUSH1 0x20 ADD SWAP2 PUSH2 0x3289 JUMP JUMPDEST DUP3 ADD SWAP2 SWAP1 PUSH1 0x0 MSTORE PUSH1 0x20 PUSH1 0x0 KECCAK256 SWAP1 JUMPDEST DUP2 SLOAD DUP2 MSTORE SWAP1 PUSH1 0x1 ADD SWAP1 PUSH1 0x20 ADD DUP1 DUP4 GT PUSH2 0x326C JUMPI DUP3 SWAP1 SUB PUSH1 0x1F AND DUP3 ADD SWAP2 JUMPDEST POP POP POP PUSH1 0x3 SWAP1 SWAP4 ADD SLOAD SWAP2 SWAP3 POP POP PUSH1 0xFF AND DUP5 JUMP JUMPDEST PUSH1 0x40 MLOAD DUP1 PUSH1 0xE0 ADD PUSH1 0x40 MSTORE DUP1 PUSH1 0x0 DUP2 MSTORE PUSH1 0x20 ADD PUSH1 0x0 PUSH1 0x1 PUSH1 0x1 PUSH1 0xA0 SHL SUB AND DUP2 MSTORE PUSH1 0x20 ADD PUSH1 0x60 DUP2 MSTORE PUSH1 0x20 ADD PUSH1 0x0 DUP2 MSTORE PUSH1 0x20 ADD PUSH1 0x0 ISZERO ISZERO DUP2 MSTORE PUSH1 0x20 ADD PUSH1 0x0 ISZERO ISZERO DUP2 MSTORE PUSH1 0x20 ADD PUSH1 0x0 ISZERO ISZERO DUP2 MSTORE POP SWAP1 JUMP JUMPDEST PUSH1 0x40 MLOAD DUP1 PUSH1 0xE0 ADD PUSH1 0x40 MSTORE DUP1 PUSH1 0x0 DUP2 MSTORE PUSH1 0x20 ADD PUSH1 0x0 PUSH1 0x1 PUSH1 0x1 PUSH1 0xA0 SHL SUB AND DUP2 MSTORE PUSH1 0x20 ADD PUSH1 0x60 DUP2 MSTORE PUSH1 0x20 ADD PUSH1 0x0 DUP2 MSTORE PUSH1 0x20 ADD PUSH1 0x0 DUP2 MSTORE PUSH1 0x20 ADD PUSH1 0x0 DUP2 MSTORE PUSH1 0x20 ADD PUSH1 0x0 ISZERO ISZERO DUP2 MSTORE POP SWAP1 JUMP JUMPDEST PUSH1 0x40 MLOAD DUP1 PUSH1 0xC0 ADD PUSH1 0x40 MSTORE DUP1 PUSH1 0x0 DUP2 MSTORE PUSH1 0x20 ADD PUSH1 0x0 DUP2 MSTORE PUSH1 0x20 ADD PUSH1 0x0 DUP2 MSTORE PUSH1 0x20 ADD PUSH1 0x0 PUSH1 0x1 PUSH1 0x1 PUSH1 0xA0 SHL SUB AND DUP2 MSTORE PUSH1 0x20 ADD PUSH1 0x0 ISZERO ISZERO DUP2 MSTORE PUSH1 0x20 ADD PUSH1 0x0 ISZERO ISZERO DUP2 MSTORE POP SWAP1 JUMP JUMPDEST PUSH1 0x40 MLOAD DUP1 PUSH2 0x100 ADD PUSH1 0x40 MSTORE DUP1 PUSH1 0x0 DUP2 MSTORE PUSH1 0x20 ADD PUSH1 0x0 PUSH1 0x1 PUSH1 0x1 PUSH1 0xA0 SHL SUB AND DUP2 MSTORE PUSH1 0x20 ADD PUSH1 0x60 DUP2 MSTORE PUSH1 0x20 ADD PUSH1 0x60 DUP2 MSTORE PUSH1 0x20 ADD PUSH1 0x0 DUP2 MSTORE PUSH1 0x20 ADD PUSH1 0x0 DUP2 MSTORE PUSH1 0x20 ADD PUSH1 0x0 ISZERO ISZERO DUP2 MSTORE PUSH1 0x20 ADD PUSH1 0x0 ISZERO ISZERO DUP2 MSTORE POP SWAP1 JUMP JUMPDEST PUSH1 0x40 MLOAD DUP1 PUSH1 0xA0 ADD PUSH1 0x40 MSTORE DUP1 PUSH1 0x0 DUP2 MSTORE PUSH1 0x20 ADD PUSH1 0x0 DUP2 MSTORE PUSH1 0x20 ADD PUSH1 0x0 PUSH1 0x1 PUSH1 0x1 PUSH1 0xA0 SHL SUB AND DUP2 MSTORE PUSH1 0x20 ADD PUSH1 0x0 DUP2 MSTORE PUSH1 0x20 ADD PUSH1 0x0 ISZERO ISZERO DUP2 MSTORE POP SWAP1 JUMP JUMPDEST PUSH1 0x0 DUP1 PUSH1 0x40 DUP4 DUP6 SUB SLT ISZERO PUSH2 0x3412 JUMPI PUSH1 0x0 DUP1 REVERT JUMPDEST POP POP DUP1 CALLDATALOAD SWAP3 PUSH1 0x20 SWAP1 SWAP2 ADD CALLDATALOAD SWAP2 POP JUMP JUMPDEST DUP1 CALLDATALOAD PUSH1 0x1 PUSH1 0x1 PUSH1 0xA0 SHL SUB DUP2 AND DUP2 EQ PUSH2 0x3438 JUMPI PUSH1 0x0 DUP1 REVERT JUMPDEST SWAP2 SWAP1 POP JUMP JUMPDEST PUSH1 0x0 PUSH1 0x20 DUP3 DUP5 SUB SLT ISZERO PUSH2 0x344F JUMPI PUSH1 0x0 DUP1 REVERT JUMPDEST PUSH2 0x3458 DUP3 PUSH2 0x3421 JUMP JUMPDEST SWAP4 SWAP3 POP POP POP JUMP JUMPDEST PUSH1 0x0 DUP2 MLOAD DUP1 DUP5 MSTORE PUSH1 0x0 JUMPDEST DUP2 DUP2 LT ISZERO PUSH2 0x3485 JUMPI PUSH1 0x20 DUP2 DUP6 ADD DUP2 ADD MLOAD DUP7 DUP4 ADD DUP3 ADD MSTORE ADD PUSH2 0x3469 JUMP JUMPDEST POP PUSH1 0x0 PUSH1 0x20 DUP3 DUP7 ADD ADD MSTORE PUSH1 0x20 PUSH1 0x1F NOT PUSH1 0x1F DUP4 ADD AND DUP6 ADD ADD SWAP2 POP POP SWAP3 SWAP2 POP POP JUMP JUMPDEST PUSH1 0x20 DUP2 MSTORE DUP2 MLOAD PUSH1 0x20 DUP3 ADD MSTORE PUSH1 0x1 DUP1 PUSH1 0xA0 SHL SUB PUSH1 0x20 DUP4 ADD MLOAD AND PUSH1 0x40 DUP3 ADD MSTORE PUSH1 0x0 PUSH1 0x40 DUP4 ADD MLOAD PUSH1 0xE0 PUSH1 0x60 DUP5 ADD MSTORE PUSH2 0x34DE PUSH2 0x100 DUP5 ADD DUP3 PUSH2 0x345F JUMP JUMPDEST SWAP1 POP PUSH1 0x60 DUP5 ADD MLOAD PUSH1 0x80 DUP5 ADD MSTORE PUSH1 0x80 DUP5 ADD MLOAD ISZERO ISZERO PUSH1 0xA0 DUP5 ADD MSTORE PUSH1 0xA0 DUP5 ADD MLOAD ISZERO ISZERO PUSH1 0xC0 DUP5 ADD MSTORE PUSH1 0xC0 DUP5 ADD MLOAD ISZERO ISZERO PUSH1 0xE0 DUP5 ADD MSTORE DUP1 SWAP2 POP POP SWAP3 SWAP2 POP POP JUMP JUMPDEST DUP1 MLOAD DUP3 MSTORE PUSH1 0x1 DUP1 PUSH1 0xA0 SHL SUB PUSH1 0x20 DUP3 ADD MLOAD AND PUSH1 0x20 DUP4 ADD MSTORE PUSH1 0x0 PUSH1 0x40 DUP3 ADD MLOAD PUSH1 0xE0 PUSH1 0x40 DUP6 ADD MSTORE PUSH2 0x3549 PUSH1 0xE0 DUP6 ADD DUP3 PUSH2 0x345F JUMP JUMPDEST SWAP1 POP PUSH1 0x60 DUP4 ADD MLOAD PUSH1 0x60 DUP6 ADD MSTORE PUSH1 0x80 DUP4 ADD MLOAD PUSH1 0x80 DUP6 ADD MSTORE PUSH1 0xA0 DUP4 ADD MLOAD PUSH1 0xA0 DUP6 ADD MSTORE PUSH1 0xC0 DUP4 ADD MLOAD ISZERO ISZERO PUSH1 0xC0 DUP6 ADD MSTORE DUP1 SWAP2 POP POP SWAP3 SWAP2 POP POP JUMP JUMPDEST PUSH1 0x0 PUSH1 0x20 DUP1 DUP4 ADD DUP2 DUP5 MSTORE DUP1 DUP6 MLOAD DUP1 DUP4 MSTORE PUSH1 0x40 DUP7 ADD SWAP2 POP PUSH1 0x40 DUP2 PUSH1 0x5 SHL DUP8 ADD ADD SWAP3 POP DUP4 DUP8 ADD PUSH1 0x0 JUMPDEST DUP3 DUP2 LT ISZERO PUSH2 0x35D4 JUMPI PUSH1 0x3F NOT DUP9 DUP7 SUB ADD DUP5 MSTORE PUSH2 0x35C2 DUP6 DUP4 MLOAD PUSH2 0x3518 JUMP JUMPDEST SWAP5 POP SWAP3 DUP6 ADD SWAP3 SWAP1 DUP6 ADD SWAP1 PUSH1 0x1 ADD PUSH2 0x35A6 JUMP JUMPDEST POP SWAP3 SWAP8 SWAP7 POP POP POP POP POP POP POP JUMP JUMPDEST DUP9 DUP2 MSTORE PUSH1 0x1 PUSH1 0x1 PUSH1 0xA0 SHL SUB DUP9 AND PUSH1 0x20 DUP3 ADD MSTORE PUSH2 0x100 PUSH1 0x40 DUP3 ADD DUP2 SWAP1 MSTORE PUSH1 0x0 SWAP1 PUSH2 0x360C DUP4 DUP3 ADD DUP11 PUSH2 0x345F JUMP JUMPDEST SWAP1 POP DUP3 DUP2 SUB PUSH1 0x60 DUP5 ADD MSTORE PUSH2 0x3620 DUP2 DUP10 PUSH2 0x345F JUMP JUMPDEST PUSH1 0x80 DUP5 ADD SWAP8 SWAP1 SWAP8 MSTORE POP POP PUSH1 0xA0 DUP2 ADD SWAP4 SWAP1 SWAP4 MSTORE SWAP1 ISZERO ISZERO PUSH1 0xC0 DUP4 ADD MSTORE ISZERO ISZERO PUSH1 0xE0 SWAP1 SWAP2 ADD MSTORE SWAP5 SWAP4 POP POP POP POP JUMP JUMPDEST PUSH4 0x4E487B71 PUSH1 0xE0 SHL PUSH1 0x0 MSTORE PUSH1 0x41 PUSH1 0x4 MSTORE PUSH1 0x24 PUSH1 0x0 REVERT JUMPDEST PUSH1 0x40 MLOAD PUSH1 0x1F DUP3 ADD PUSH1 0x1F NOT AND DUP2 ADD PUSH1 0x1 PUSH1 0x1 PUSH1 0x40 SHL SUB DUP2 GT DUP3 DUP3 LT OR ISZERO PUSH2 0x3688 JUMPI PUSH2 0x3688 PUSH2 0x364A JUMP JUMPDEST PUSH1 0x40 MSTORE SWAP2 SWAP1 POP JUMP JUMPDEST PUSH1 0x0 DUP3 PUSH1 0x1F DUP4 ADD SLT PUSH2 0x36A1 JUMPI PUSH1 0x0 DUP1 REVERT JUMPDEST DUP2 CALLDATALOAD PUSH1 0x1 PUSH1 0x1 PUSH1 0x40 SHL SUB DUP2 GT ISZERO PUSH2 0x36BA JUMPI PUSH2 0x36BA PUSH2 0x364A JUMP JUMPDEST PUSH2 0x36CD PUSH1 0x1F DUP3 ADD PUSH1 0x1F NOT AND PUSH1 0x20 ADD PUSH2 0x3660 JUMP JUMPDEST DUP2 DUP2 MSTORE DUP5 PUSH1 0x20 DUP4 DUP7 ADD ADD GT ISZERO PUSH2 0x36E2 JUMPI PUSH1 0x0 DUP1 REVERT JUMPDEST DUP2 PUSH1 0x20 DUP6 ADD PUSH1 0x20 DUP4 ADD CALLDATACOPY PUSH1 0x0 SWAP2 DUP2 ADD PUSH1 0x20 ADD SWAP2 SWAP1 SWAP2 MSTORE SWAP4 SWAP3 POP POP POP JUMP JUMPDEST PUSH1 0x0 DUP1 PUSH1 0x0 PUSH1 0x60 DUP5 DUP7 SUB SLT ISZERO PUSH2 0x3714 JUMPI PUSH1 0x0 DUP1 REVERT JUMPDEST PUSH2 0x371D DUP5 PUSH2 0x3421 JUMP JUMPDEST SWAP3 POP PUSH1 0x20 DUP5 ADD CALLDATALOAD PUSH1 0x1 PUSH1 0x1 PUSH1 0x40 SHL SUB DUP2 GT ISZERO PUSH2 0x3738 JUMPI PUSH1 0x0 DUP1 REVERT JUMPDEST PUSH2 0x3744 DUP7 DUP3 DUP8 ADD PUSH2 0x3690 JUMP JUMPDEST SWAP3 POP POP PUSH1 0x40 DUP5 ADD CALLDATALOAD SWAP1 POP SWAP3 POP SWAP3 POP SWAP3 JUMP JUMPDEST PUSH1 0x0 PUSH1 0x20 DUP3 DUP5 SUB SLT ISZERO PUSH2 0x3767 JUMPI PUSH1 0x0 DUP1 REVERT JUMPDEST POP CALLDATALOAD SWAP2 SWAP1 POP JUMP JUMPDEST DUP8 DUP2 MSTORE PUSH1 0x1 PUSH1 0x1 PUSH1 0xA0 SHL SUB DUP8 AND PUSH1 0x20 DUP3 ADD MSTORE PUSH1 0xE0 PUSH1 0x40 DUP3 ADD DUP2 SWAP1 MSTORE PUSH1 0x0 SWAP1 PUSH2 0x3798 SWAP1 DUP4 ADD DUP9 PUSH2 0x345F JUMP JUMPDEST SWAP1 POP DUP6 PUSH1 0x60 DUP4 ADD MSTORE DUP5 PUSH1 0x80 DUP4 ADD MSTORE DUP4 PUSH1 0xA0 DUP4 ADD MSTORE DUP3 ISZERO ISZERO PUSH1 0xC0 DUP4 ADD MSTORE SWAP9 SWAP8 POP POP POP POP POP POP POP POP JUMP JUMPDEST PUSH1 0x0 DUP1 PUSH1 0x40 DUP4 DUP6 SUB SLT ISZERO PUSH2 0x37D3 JUMPI PUSH1 0x0 DUP1 REVERT JUMPDEST DUP3 CALLDATALOAD SWAP2 POP PUSH2 0x37E3 PUSH1 0x20 DUP5 ADD PUSH2 0x3421 JUMP JUMPDEST SWAP1 POP SWAP3 POP SWAP3 SWAP1 POP JUMP JUMPDEST PUSH1 0x20 DUP1 DUP3 MSTORE DUP3 MLOAD DUP3 DUP3 ADD DUP2 SWAP1 MSTORE PUSH1 0x0 SWAP2 SWAP1 PUSH1 0x40 SWAP1 DUP2 DUP6 ADD SWAP1 DUP7 DUP5 ADD DUP6 JUMPDEST DUP3 DUP2 LT ISZERO PUSH2 0x3864 JUMPI DUP2 MLOAD DUP1 MLOAD DUP6 MSTORE DUP7 DUP2 ADD MLOAD DUP8 DUP7 ADD MSTORE DUP6 DUP2 ADD MLOAD DUP7 DUP7 ADD MSTORE PUSH1 0x60 DUP1 DUP3 ADD MLOAD PUSH1 0x1 PUSH1 0x1 PUSH1 0xA0 SHL SUB AND SWAP1 DUP7 ADD MSTORE PUSH1 0x80 DUP1 DUP3 ADD MLOAD ISZERO ISZERO SWAP1 DUP7 ADD MSTORE PUSH1 0xA0 SWAP1 DUP2 ADD MLOAD ISZERO ISZERO SWAP1 DUP6 ADD MSTORE PUSH1 0xC0 SWAP1 SWAP4 ADD SWAP3 SWAP1 DUP6 ADD SWAP1 PUSH1 0x1 ADD PUSH2 0x3809 JUMP JUMPDEST POP SWAP2 SWAP8 SWAP7 POP POP POP POP POP POP POP JUMP JUMPDEST PUSH1 0x0 PUSH2 0x100 DUP3 MLOAD DUP5 MSTORE PUSH1 0x1 DUP1 PUSH1 0xA0 SHL SUB PUSH1 0x20 DUP5 ADD MLOAD AND PUSH1 0x20 DUP6 ADD MSTORE PUSH1 0x40 DUP4 ADD MLOAD DUP2 PUSH1 0x40 DUP7 ADD MSTORE PUSH2 0x38A3 DUP3 DUP7 ADD DUP3 PUSH2 0x345F JUMP JUMPDEST SWAP2 POP POP PUSH1 0x60 DUP4 ADD MLOAD DUP5 DUP3 SUB PUSH1 0x60 DUP7 ADD MSTORE PUSH2 0x38BD DUP3 DUP3 PUSH2 0x345F JUMP JUMPDEST SWAP2 POP POP PUSH1 0x80 DUP4 ADD MLOAD PUSH1 0x80 DUP6 ADD MSTORE PUSH1 0xA0 DUP4 ADD MLOAD PUSH1 0xA0 DUP6 ADD MSTORE PUSH1 0xC0 DUP4 ADD MLOAD ISZERO ISZERO PUSH1 0xC0 DUP6 ADD MSTORE PUSH1 0xE0 DUP4 ADD MLOAD PUSH2 0x38F3 PUSH1 0xE0 DUP7 ADD DUP3 ISZERO ISZERO SWAP1 MSTORE JUMP JUMPDEST POP SWAP4 SWAP3 POP POP POP JUMP JUMPDEST PUSH1 0x20 DUP2 MSTORE PUSH1 0x0 PUSH2 0x3458 PUSH1 0x20 DUP4 ADD DUP5 PUSH2 0x3871 JUMP JUMPDEST PUSH1 0x20 DUP1 DUP3 MSTORE DUP3 MLOAD DUP3 DUP3 ADD DUP2 SWAP1 MSTORE PUSH1 0x0 SWAP2 SWAP1 PUSH1 0x40 SWAP1 DUP2 DUP6 ADD SWAP1 DUP7 DUP5 ADD DUP6 JUMPDEST DUP3 DUP2 LT ISZERO PUSH2 0x3864 JUMPI DUP2 MLOAD DUP1 MLOAD DUP6 MSTORE DUP7 DUP2 ADD MLOAD DUP8 DUP7 ADD MSTORE DUP6 DUP2 ADD MLOAD PUSH1 0x1 PUSH1 0x1 PUSH1 0xA0 SHL SUB AND DUP7 DUP7 ADD MSTORE PUSH1 0x60 DUP1 DUP3 ADD MLOAD SWAP1 DUP7 ADD MSTORE PUSH1 0x80 SWAP1 DUP2 ADD MLOAD ISZERO ISZERO SWAP1 DUP6 ADD MSTORE PUSH1 0xA0 SWAP1 SWAP4 ADD SWAP3 SWAP1 DUP6 ADD SWAP1 PUSH1 0x1 ADD PUSH2 0x392B JUMP JUMPDEST PUSH1 0x0 DUP1 PUSH1 0x0 DUP1 PUSH1 0x80 DUP6 DUP8 SUB SLT ISZERO PUSH2 0x3990 JUMPI PUSH1 0x0 DUP1 REVERT JUMPDEST PUSH2 0x3999 DUP6 PUSH2 0x3421 JUMP JUMPDEST SWAP4 POP PUSH1 0x20 DUP6 ADD CALLDATALOAD PUSH1 0x1 PUSH1 0x1 PUSH1 0x40 SHL SUB DUP1 DUP3 GT ISZERO PUSH2 0x39B5 JUMPI PUSH1 0x0 DUP1 REVERT JUMPDEST PUSH2 0x39C1 DUP9 DUP4 DUP10 ADD PUSH2 0x3690 JUMP JUMPDEST SWAP5 POP PUSH1 0x40 DUP8 ADD CALLDATALOAD SWAP2 POP DUP1 DUP3 GT ISZERO PUSH2 0x39D7 JUMPI PUSH1 0x0 DUP1 REVERT JUMPDEST POP PUSH2 0x39E4 DUP8 DUP3 DUP9 ADD PUSH2 0x3690 JUMP JUMPDEST SWAP5 SWAP8 SWAP4 SWAP7 POP SWAP4 SWAP5 PUSH1 0x60 ADD CALLDATALOAD SWAP4 POP POP POP JUMP JUMPDEST PUSH1 0x0 PUSH1 0x1 PUSH1 0x1 PUSH1 0x40 SHL SUB DUP3 GT ISZERO PUSH2 0x3A0E JUMPI PUSH2 0x3A0E PUSH2 0x364A JUMP JUMPDEST POP PUSH1 0x5 SHL PUSH1 0x20 ADD SWAP1 JUMP JUMPDEST PUSH1 0x0 DUP1 PUSH1 0x0 DUP1 PUSH1 0x0 DUP1 PUSH1 0xC0 DUP8 DUP10 SUB SLT ISZERO PUSH2 0x3A31 JUMPI PUSH1 0x0 DUP1 REVERT JUMPDEST PUSH2 0x3A3A DUP8 PUSH2 0x3421 JUMP JUMPDEST SWAP6 POP PUSH1 0x20 DUP1 DUP9 ADD CALLDATALOAD PUSH1 0x1 PUSH1 0x1 PUSH1 0x40 SHL SUB DUP1 DUP3 GT ISZERO PUSH2 0x3A57 JUMPI PUSH1 0x0 DUP1 REVERT JUMPDEST PUSH2 0x3A63 DUP12 DUP4 DUP13 ADD PUSH2 0x3690 JUMP JUMPDEST SWAP8 POP PUSH1 0x40 DUP11 ADD CALLDATALOAD SWAP7 POP PUSH1 0x60 DUP11 ADD CALLDATALOAD SWAP6 POP PUSH1 0x80 DUP11 ADD CALLDATALOAD SWAP2 POP DUP1 DUP3 GT ISZERO PUSH2 0x3A87 JUMPI PUSH1 0x0 DUP1 REVERT JUMPDEST DUP2 DUP11 ADD SWAP2 POP DUP11 PUSH1 0x1F DUP4 ADD SLT PUSH2 0x3A9B JUMPI PUSH1 0x0 DUP1 REVERT JUMPDEST DUP2 CALLDATALOAD PUSH2 0x3AAE PUSH2 0x3AA9 DUP3 PUSH2 0x39F5 JUMP JUMPDEST PUSH2 0x3660 JUMP JUMPDEST DUP2 DUP2 MSTORE PUSH1 0x5 SWAP2 SWAP1 SWAP2 SHL DUP4 ADD DUP5 ADD SWAP1 DUP5 DUP2 ADD SWAP1 DUP14 DUP4 GT ISZERO PUSH2 0x3ACD JUMPI PUSH1 0x0 DUP1 REVERT JUMPDEST DUP6 DUP6 ADD JUMPDEST DUP4 DUP2 LT ISZERO PUSH2 0x3B03 JUMPI DUP5 DUP2 CALLDATALOAD GT ISZERO PUSH2 0x3AE7 JUMPI PUSH1 0x0 DUP1 REVERT JUMPDEST PUSH2 0x3AF6 DUP16 DUP9 DUP4 CALLDATALOAD DUP10 ADD ADD PUSH2 0x3690 JUMP JUMPDEST DUP4 MSTORE SWAP2 DUP7 ADD SWAP2 DUP7 ADD PUSH2 0x3AD1 JUMP JUMPDEST POP DUP1 SWAP8 POP POP POP POP POP POP POP PUSH1 0xA0 DUP8 ADD CALLDATALOAD SWAP1 POP SWAP3 SWAP6 POP SWAP3 SWAP6 POP SWAP3 SWAP6 JUMP JUMPDEST PUSH1 0x0 PUSH1 0x20 DUP1 DUP4 ADD DUP2 DUP5 MSTORE DUP1 DUP6 MLOAD DUP1 DUP4 MSTORE PUSH1 0x40 DUP7 ADD SWAP2 POP PUSH1 0x40 DUP2 PUSH1 0x5 SHL DUP8 ADD ADD SWAP3 POP DUP4 DUP8 ADD PUSH1 0x0 JUMPDEST DUP3 DUP2 LT ISZERO PUSH2 0x35D4 JUMPI PUSH1 0x3F NOT DUP9 DUP7 SUB ADD DUP5 MSTORE PUSH2 0x3B61 DUP6 DUP4 MLOAD PUSH2 0x3871 JUMP JUMPDEST SWAP5 POP SWAP3 DUP6 ADD SWAP3 SWAP1 DUP6 ADD SWAP1 PUSH1 0x1 ADD PUSH2 0x3B45 JUMP JUMPDEST PUSH1 0x0 DUP1 PUSH1 0x40 DUP4 DUP6 SUB SLT ISZERO PUSH2 0x3B86 JUMPI PUSH1 0x0 DUP1 REVERT JUMPDEST PUSH2 0x3B8F DUP4 PUSH2 0x3421 JUMP JUMPDEST SWAP5 PUSH1 0x20 SWAP4 SWAP1 SWAP4 ADD CALLDATALOAD SWAP4 POP POP POP JUMP JUMPDEST PUSH1 0x0 DUP1 PUSH1 0x0 DUP1 PUSH1 0x80 DUP6 DUP8 SUB SLT ISZERO PUSH2 0x3BB3 JUMPI PUSH1 0x0 DUP1 REVERT JUMPDEST DUP5 CALLDATALOAD SWAP4 POP PUSH1 0x20 DUP6 ADD CALLDATALOAD SWAP3 POP PUSH1 0x40 DUP6 ADD CALLDATALOAD SWAP2 POP PUSH2 0x3BD1 PUSH1 0x60 DUP7 ADD PUSH2 0x3421 JUMP JUMPDEST SWAP1 POP SWAP3 SWAP6 SWAP2 SWAP5 POP SWAP3 POP JUMP JUMPDEST PUSH1 0x20 DUP2 MSTORE PUSH1 0x0 PUSH2 0x3458 PUSH1 0x20 DUP4 ADD DUP5 PUSH2 0x3518 JUMP JUMPDEST DUP1 ISZERO ISZERO DUP2 EQ PUSH2 0x3BFD JUMPI PUSH1 0x0 DUP1 REVERT JUMPDEST POP JUMP JUMPDEST PUSH1 0x0 DUP1 PUSH1 0x0 PUSH1 0x60 DUP5 DUP7 SUB SLT ISZERO PUSH2 0x3C15 JUMPI PUSH1 0x0 DUP1 REVERT JUMPDEST DUP4 CALLDATALOAD SWAP3 POP PUSH1 0x20 PUSH2 0x3C26 DUP2 DUP7 ADD PUSH2 0x3421 JUMP JUMPDEST SWAP3 POP PUSH1 0x40 DUP6 ADD CALLDATALOAD PUSH1 0x1 PUSH1 0x1 PUSH1 0x40 SHL SUB DUP2 GT ISZERO PUSH2 0x3C41 JUMPI PUSH1 0x0 DUP1 REVERT JUMPDEST DUP6 ADD PUSH1 0x1F DUP2 ADD DUP8 SGT PUSH2 0x3C52 JUMPI PUSH1 0x0 DUP1 REVERT JUMPDEST DUP1 CALLDATALOAD PUSH2 0x3C60 PUSH2 0x3AA9 DUP3 PUSH2 0x39F5 JUMP JUMPDEST DUP2 DUP2 MSTORE PUSH1 0x5 SWAP2 SWAP1 SWAP2 SHL DUP3 ADD DUP4 ADD SWAP1 DUP4 DUP2 ADD SWAP1 DUP10 DUP4 GT ISZERO PUSH2 0x3C7F JUMPI PUSH1 0x0 DUP1 REVERT JUMPDEST SWAP3 DUP5 ADD SWAP3 JUMPDEST DUP3 DUP5 LT ISZERO PUSH2 0x3CA6 JUMPI DUP4 CALLDATALOAD PUSH2 0x3C97 DUP2 PUSH2 0x3BEF JUMP JUMPDEST DUP3 MSTORE SWAP3 DUP5 ADD SWAP3 SWAP1 DUP5 ADD SWAP1 PUSH2 0x3C84 JUMP JUMPDEST DUP1 SWAP6 POP POP POP POP POP POP SWAP3 POP SWAP3 POP SWAP3 JUMP JUMPDEST PUSH1 0x0 PUSH1 0x20 DUP1 DUP4 ADD DUP2 DUP5 MSTORE DUP1 DUP6 MLOAD DUP1 DUP4 MSTORE PUSH1 0x40 SWAP3 POP DUP3 DUP7 ADD SWAP2 POP DUP3 DUP2 PUSH1 0x5 SHL DUP8 ADD ADD DUP5 DUP9 ADD PUSH1 0x0 JUMPDEST DUP4 DUP2 LT ISZERO PUSH2 0x3D35 JUMPI PUSH1 0x3F NOT DUP10 DUP5 SUB ADD DUP6 MSTORE DUP2 MLOAD PUSH1 0x80 DUP2 MLOAD DUP6 MSTORE DUP9 DUP3 ADD MLOAD DUP10 DUP7 ADD MSTORE DUP8 DUP3 ADD MLOAD DUP2 DUP10 DUP8 ADD MSTORE PUSH2 0x3D12 DUP3 DUP8 ADD DUP3 PUSH2 0x345F JUMP JUMPDEST PUSH1 0x60 SWAP4 DUP5 ADD MLOAD ISZERO ISZERO SWAP7 SWAP1 SWAP4 ADD SWAP6 SWAP1 SWAP6 MSTORE POP SWAP5 DUP8 ADD SWAP5 SWAP3 POP SWAP1 DUP7 ADD SWAP1 PUSH1 0x1 ADD PUSH2 0x3CDC JUMP JUMPDEST POP SWAP1 SWAP9 SWAP8 POP POP POP POP POP POP POP POP JUMP JUMPDEST DUP8 DUP2 MSTORE PUSH1 0x1 PUSH1 0x1 PUSH1 0xA0 SHL SUB DUP8 AND PUSH1 0x20 DUP3 ADD MSTORE PUSH1 0xE0 PUSH1 0x40 DUP3 ADD DUP2 SWAP1 MSTORE PUSH1 0x0 SWAP1 PUSH2 0x3D6D SWAP1 DUP4 ADD DUP9 PUSH2 0x345F JUMP JUMPDEST PUSH1 0x60 DUP4 ADD SWAP7 SWAP1 SWAP7 MSTORE POP SWAP3 ISZERO ISZERO PUSH1 0x80 DUP5 ADD MSTORE SWAP1 ISZERO ISZERO PUSH1 0xA0 DUP4 ADD MSTORE ISZERO ISZERO PUSH1 0xC0 SWAP1 SWAP2 ADD MSTORE SWAP4 SWAP3 POP POP POP JUMP JUMPDEST DUP5 DUP2 MSTORE DUP4 PUSH1 0x20 DUP3 ADD MSTORE PUSH1 0x80 PUSH1 0x40 DUP3 ADD MSTORE PUSH1 0x0 PUSH2 0x3DB4 PUSH1 0x80 DUP4 ADD DUP6 PUSH2 0x345F JUMP JUMPDEST SWAP1 POP DUP3 ISZERO ISZERO PUSH1 0x60 DUP4 ADD MSTORE SWAP6 SWAP5 POP POP POP POP POP JUMP JUMPDEST PUSH4 0x4E487B71 PUSH1 0xE0 SHL PUSH1 0x0 MSTORE PUSH1 0x11 PUSH1 0x4 MSTORE PUSH1 0x24 PUSH1 0x0 REVERT JUMPDEST DUP1 DUP3 ADD DUP1 DUP3 GT ISZERO PUSH2 0x7E7 JUMPI PUSH2 0x7E7 PUSH2 0x3DC7 JUMP JUMPDEST PUSH1 0x0 PUSH1 0x20 DUP3 DUP5 SUB SLT ISZERO PUSH2 0x3E02 JUMPI PUSH1 0x0 DUP1 REVERT JUMPDEST DUP2 MLOAD PUSH1 0xFF DUP2 AND DUP2 EQ PUSH2 0x3458 JUMPI PUSH1 0x0 DUP1 REVERT JUMPDEST PUSH1 0x1 DUP2 DUP2 JUMPDEST DUP1 DUP6 GT ISZERO PUSH2 0x3E4E JUMPI DUP2 PUSH1 0x0 NOT DIV DUP3 GT ISZERO PUSH2 0x3E34 JUMPI PUSH2 0x3E34 PUSH2 0x3DC7 JUMP JUMPDEST DUP1 DUP6 AND ISZERO PUSH2 0x3E41 JUMPI SWAP2 DUP2 MUL SWAP2 JUMPDEST SWAP4 DUP5 SHR SWAP4 SWAP1 DUP1 MUL SWAP1 PUSH2 0x3E18 JUMP JUMPDEST POP SWAP3 POP SWAP3 SWAP1 POP JUMP JUMPDEST PUSH1 0x0 DUP3 PUSH2 0x3E65 JUMPI POP PUSH1 0x1 PUSH2 0x7E7 JUMP JUMPDEST DUP2 PUSH2 0x3E72 JUMPI POP PUSH1 0x0 PUSH2 0x7E7 JUMP JUMPDEST DUP2 PUSH1 0x1 DUP2 EQ PUSH2 0x3E88 JUMPI PUSH1 0x2 DUP2 EQ PUSH2 0x3E92 JUMPI PUSH2 0x3EAE JUMP JUMPDEST PUSH1 0x1 SWAP2 POP POP PUSH2 0x7E7 JUMP JUMPDEST PUSH1 0xFF DUP5 GT ISZERO PUSH2 0x3EA3 JUMPI PUSH2 0x3EA3 PUSH2 0x3DC7 JUMP JUMPDEST POP POP PUSH1 0x1 DUP3 SHL PUSH2 0x7E7 JUMP JUMPDEST POP PUSH1 0x20 DUP4 LT PUSH2 0x133 DUP4 LT AND PUSH1 0x4E DUP5 LT PUSH1 0xB DUP5 LT AND OR ISZERO PUSH2 0x3ED1 JUMPI POP DUP2 DUP2 EXP PUSH2 0x7E7 JUMP JUMPDEST PUSH2 0x3EDB DUP4 DUP4 PUSH2 0x3E13 JUMP JUMPDEST DUP1 PUSH1 0x0 NOT DIV DUP3 GT ISZERO PUSH2 0x3EEF JUMPI PUSH2 0x3EEF PUSH2 0x3DC7 JUMP JUMPDEST MUL SWAP4 SWAP3 POP POP POP JUMP JUMPDEST PUSH1 0x0 PUSH2 0x3458 PUSH1 0xFF DUP5 AND DUP4 PUSH2 0x3E56 JUMP JUMPDEST DUP1 DUP3 MUL DUP2 ISZERO DUP3 DUP3 DIV DUP5 EQ OR PUSH2 0x7E7 JUMPI PUSH2 0x7E7 PUSH2 0x3DC7 JUMP JUMPDEST PUSH1 0x1 DUP2 DUP2 SHR SWAP1 DUP3 AND DUP1 PUSH2 0x3F31 JUMPI PUSH1 0x7F DUP3 AND SWAP2 POP JUMPDEST PUSH1 0x20 DUP3 LT DUP2 SUB PUSH2 0x3F51 JUMPI PUSH4 0x4E487B71 PUSH1 0xE0 SHL PUSH1 0x0 MSTORE PUSH1 0x22 PUSH1 0x4 MSTORE PUSH1 0x24 PUSH1 0x0 REVERT JUMPDEST POP SWAP2 SWAP1 POP JUMP JUMPDEST PUSH4 0x4E487B71 PUSH1 0xE0 SHL PUSH1 0x0 MSTORE PUSH1 0x32 PUSH1 0x4 MSTORE PUSH1 0x24 PUSH1 0x0 REVERT JUMPDEST PUSH1 0x0 PUSH1 0x1 DUP3 ADD PUSH2 0x3F7F JUMPI PUSH2 0x3F7F PUSH2 0x3DC7 JUMP JUMPDEST POP PUSH1 0x1 ADD SWAP1 JUMP JUMPDEST PUSH1 0x0 DUP3 PUSH2 0x3FA3 JUMPI PUSH4 0x4E487B71 PUSH1 0xE0 SHL PUSH1 0x0 MSTORE PUSH1 0x12 PUSH1 0x4 MSTORE PUSH1 0x24 PUSH1 0x0 REVERT JUMPDEST POP DIV SWAP1 JUMP JUMPDEST PUSH1 0x1F DUP3 GT ISZERO PUSH2 0x3FF2 JUMPI PUSH1 0x0 DUP2 DUP2 MSTORE PUSH1 0x20 DUP2 KECCAK256 PUSH1 0x1F DUP6 ADD PUSH1 0x5 SHR DUP2 ADD PUSH1 0x20 DUP7 LT ISZERO PUSH2 0x3FCF JUMPI POP DUP1 JUMPDEST PUSH1 0x1F DUP6 ADD PUSH1 0x5 SHR DUP3 ADD SWAP2 POP JUMPDEST DUP2 DUP2 LT ISZERO PUSH2 0x3FEE JUMPI DUP3 DUP2 SSTORE PUSH1 0x1 ADD PUSH2 0x3FDB JUMP JUMPDEST POP POP POP JUMPDEST POP POP POP JUMP JUMPDEST DUP2 MLOAD PUSH1 0x1 PUSH1 0x1 PUSH1 0x40 SHL SUB DUP2 GT ISZERO PUSH2 0x4010 JUMPI PUSH2 0x4010 PUSH2 0x364A JUMP JUMPDEST PUSH2 0x4024 DUP2 PUSH2 0x401E DUP5 SLOAD PUSH2 0x3F1D JUMP JUMPDEST DUP5 PUSH2 0x3FA8 JUMP JUMPDEST PUSH1 0x20 DUP1 PUSH1 0x1F DUP4 GT PUSH1 0x1 DUP2 EQ PUSH2 0x4059 JUMPI PUSH1 0x0 DUP5 ISZERO PUSH2 0x4041 JUMPI POP DUP6 DUP4 ADD MLOAD JUMPDEST PUSH1 0x0 NOT PUSH1 0x3 DUP7 SWAP1 SHL SHR NOT AND PUSH1 0x1 DUP6 SWAP1 SHL OR DUP6 SSTORE PUSH2 0x3FEE JUMP JUMPDEST PUSH1 0x0 DUP6 DUP2 MSTORE PUSH1 0x20 DUP2 KECCAK256 PUSH1 0x1F NOT DUP7 AND SWAP2 JUMPDEST DUP3 DUP2 LT ISZERO PUSH2 0x4088 JUMPI DUP9 DUP7 ADD MLOAD DUP3 SSTORE SWAP5 DUP5 ADD SWAP5 PUSH1 0x1 SWAP1 SWAP2 ADD SWAP1 DUP5 ADD PUSH2 0x4069 JUMP JUMPDEST POP DUP6 DUP3 LT ISZERO PUSH2 0x40A6 JUMPI DUP8 DUP6 ADD MLOAD PUSH1 0x0 NOT PUSH1 0x3 DUP9 SWAP1 SHL PUSH1 0xF8 AND SHR NOT AND DUP2 SSTORE JUMPDEST POP POP POP POP POP PUSH1 0x1 SWAP1 DUP2 SHL ADD SWAP1 SSTORE POP JUMP JUMPDEST PUSH1 0x0 PUSH1 0x20 DUP3 DUP5 SUB SLT ISZERO PUSH2 0x40C8 JUMPI PUSH1 0x0 DUP1 REVERT JUMPDEST DUP2 MLOAD PUSH2 0x3458 DUP2 PUSH2 0x3BEF JUMP INVALID LOG2 PUSH5 0x6970667358 0x22 SLT KECCAK256 PUSH8 0x64BD0C18CFACF3E PREVRANDAO 0x2A DUP7 BALANCE DUP2 NUMBER 0x4D DUP5 PUSH16 0xFE448E209E55962469C1B75B6F2F6473 PUSH16 0x6C634300081300330000000000000000 "
				},
				"gasEstimates": {
					"creation": {
						"codeDepositCost": "3329800",
						"executionCost": "52176",
						"totalCost": "3381976"
					},
					"external": {
						"allAnswers(uint256,uint256)": "11283",
						"allEarnings(uint256)": "13282",
						"allFundings(uint256)": "13304",
						"allParticipants(address)": "infinite",
						"allQuestions(uint256,uint256)": "infinite",
						"allResearchers(address)": "infinite",
						"allSurveys(uint256)": "infinite",
						"checkIfParticipantExists(address)": "2728",
						"checkIfParticipantHasAlreadyParticipatedInSurvey(address,uint256)": "2712",
						"checkIfResearcherExists(address)": "2661",
						"createFunding(uint256,uint256,uint256,address)": "infinite",
						"createParticipant(address,string,string,uint256)": "infinite",
						"createResearcher(address,string,uint256)": "infinite",
						"createSurvey(address,string,uint256,uint256,string[],uint256)": "infinite",
						"getAllAnswersOfParticipantOfSurvey(uint256,address)": "infinite",
						"getAllEarningsMadeByParticipant(address)": "infinite",
						"getAllQuestionsOfSurvey(uint256)": "infinite",
						"getAllSurveys()": "infinite",
						"getAllSurveysTakenByParticipant(address)": "infinite",
						"getAmountOfEarningForCanvassingForSurveyPerParticipantInWei(uint256,uint256)": "infinite",
						"getAmountOfEarningPerParticipantForSurveyInWei(uint256)": "infinite",
						"getAmountOfFundingOfAnySurveyInWei(uint256,uint256)": "infinite",
						"getAnswersOfSurvey(uint256)": "infinite",
						"getParticipantByWalletAddress(address)": "infinite",
						"getParticipantsOfSurvey(uint256)": "infinite",
						"getResearcherByWalletAddress(address)": "infinite",
						"getSurveyById(uint256)": "infinite",
						"getSurveysCreatedByResearcher(address)": "infinite",
						"getTotalAmountFundedByResearchersInWei(address)": "2660",
						"getTotalAmountOfEarningsReceivedByParticipantInWei(address)": "infinite",
						"getTotalNumberOfSurveyCreatedByResearcher(address)": "2593",
						"makePayoutAndCreateEarning(uint256,address)": "infinite",
						"participantsOfSurvey(uint256,uint256)": "infinite",
						"participateInSurvey(uint256,address,bool[])": "infinite",
						"participationStatusForSurvey(uint256,address)": "2740",
						"payoutStatusOfParticipantForSurvey(uint256,address)": "2696",
						"totalAmountFundedByResearchersInWei(address)": "2641",
						"totalNumberOfSurveysCreatedByResearchers(address)": "2597",
						"verifyResearcher(address)": "infinite"
					}
				},
				"methodIdentifiers": {
					"allAnswers(uint256,uint256)": "69bff3fb",
					"allEarnings(uint256)": "8e6da619",
					"allFundings(uint256)": "95ecea1f",
					"allParticipants(address)": "5b76074e",
					"allQuestions(uint256,uint256)": "fb47e9e6",
					"allResearchers(address)": "f692a3bb",
					"allSurveys(uint256)": "1b6f2485",
					"checkIfParticipantExists(address)": "6f5fde11",
					"checkIfParticipantHasAlreadyParticipatedInSurvey(address,uint256)": "a58543fe",
					"checkIfResearcherExists(address)": "9a23218f",
					"createFunding(uint256,uint256,uint256,address)": "b3265ecd",
					"createParticipant(address,string,string,uint256)": "3b43b7d0",
					"createResearcher(address,string,uint256)": "196f7f1e",
					"createSurvey(address,string,uint256,uint256,string[],uint256)": "68df3299",
					"getAllAnswersOfParticipantOfSurvey(uint256,address)": "2076a35a",
					"getAllEarningsMadeByParticipant(address)": "392a5822",
					"getAllQuestionsOfSurvey(uint256)": "f31e72e4",
					"getAllSurveys()": "7a1bc375",
					"getAllSurveysTakenByParticipant(address)": "3abb615a",
					"getAmountOfEarningForCanvassingForSurveyPerParticipantInWei(uint256,uint256)": "44962609",
					"getAmountOfEarningPerParticipantForSurveyInWei(uint256)": "1bd1ebc4",
					"getAmountOfFundingOfAnySurveyInWei(uint256,uint256)": "03f16747",
					"getAnswersOfSurvey(uint256)": "cc4903ca",
					"getParticipantByWalletAddress(address)": "2394e5dc",
					"getParticipantsOfSurvey(uint256)": "964f6566",
					"getResearcherByWalletAddress(address)": "0478318b",
					"getSurveyById(uint256)": "c0ac4ae4",
					"getSurveysCreatedByResearcher(address)": "07f6646e",
					"getTotalAmountFundedByResearchersInWei(address)": "3bdd0ad1",
					"getTotalAmountOfEarningsReceivedByParticipantInWei(address)": "25f18424",
					"getTotalNumberOfSurveyCreatedByResearcher(address)": "4fe1cfad",
					"makePayoutAndCreateEarning(uint256,address)": "6b8ac0e7",
					"participantsOfSurvey(uint256,uint256)": "125bb83d",
					"participateInSurvey(uint256,address,bool[])": "ca2e7f9b",
					"participationStatusForSurvey(uint256,address)": "b9c745b3",
					"payoutStatusOfParticipantForSurvey(uint256,address)": "7e950819",
					"totalAmountFundedByResearchersInWei(address)": "5fa7a90a",
					"totalNumberOfSurveysCreatedByResearchers(address)": "5822bff1",
					"verifyResearcher(address)": "73fd653d"
				}
			},
			"storageLayout": {
				"storage": [
					{
						"astId": 14,
						"contract": "smart-contracts/playground/main/Canvassing.sol:Canvassing",
						"label": "canvassingWalletAddress",
						"offset": 0,
						"slot": "0",
						"type": "t_address"
					},
					{
						"astId": 19,
						"contract": "smart-contracts/playground/main/Canvassing.sol:Canvassing",
						"label": "allResearchers",
						"offset": 0,
						"slot": "1",
						"type": "t_mapping(t_address,t_struct(Researcher)1578_storage)"
					},
					{
						"astId": 24,
						"contract": "smart-contracts/playground/main/Canvassing.sol:Canvassing",
						"label": "allParticipants",
						"offset": 0,
						"slot": "2",
						"type": "t_mapping(t_address,t_struct(Participant)1595_storage)"
					},
					{
						"astId": 28,
						"contract": "smart-contracts/playground/main/Canvassing.sol:Canvassing",
						"label": "allSurveys",
						"offset": 0,
						"slot": "3",
						"type": "t_array(t_struct(Survey)1610_storage)dyn_storage"
					},
					{
						"astId": 34,
						"contract": "smart-contracts/playground/main/Canvassing.sol:Canvassing",
						"label": "allQuestions",
						"offset": 0,
						"slot": "4",
						"type": "t_mapping(t_uint256,t_array(t_struct(Question)1619_storage)dyn_storage)"
					},
					{
						"astId": 40,
						"contract": "smart-contracts/playground/main/Canvassing.sol:Canvassing",
						"label": "allAnswers",
						"offset": 0,
						"slot": "5",
						"type": "t_mapping(t_uint256,t_array(t_struct(Answer)1632_storage)dyn_storage)"
					},
					{
						"astId": 46,
						"contract": "smart-contracts/playground/main/Canvassing.sol:Canvassing",
						"label": "participationStatusForSurvey",
						"offset": 0,
						"slot": "6",
						"type": "t_mapping(t_uint256,t_mapping(t_address,t_bool))"
					},
					{
						"astId": 52,
						"contract": "smart-contracts/playground/main/Canvassing.sol:Canvassing",
						"label": "payoutStatusOfParticipantForSurvey",
						"offset": 0,
						"slot": "7",
						"type": "t_mapping(t_uint256,t_mapping(t_address,t_bool))"
					},
					{
						"astId": 56,
						"contract": "smart-contracts/playground/main/Canvassing.sol:Canvassing",
						"label": "totalNumberOfSurveysCreatedByResearchers",
						"offset": 0,
						"slot": "8",
						"type": "t_mapping(t_address,t_uint256)"
					},
					{
						"astId": 60,
						"contract": "smart-contracts/playground/main/Canvassing.sol:Canvassing",
						"label": "totalAmountFundedByResearchersInWei",
						"offset": 0,
						"slot": "9",
						"type": "t_mapping(t_address,t_uint256)"
					},
					{
						"astId": 66,
						"contract": "smart-contracts/playground/main/Canvassing.sol:Canvassing",
						"label": "participantsOfSurvey",
						"offset": 0,
						"slot": "10",
						"type": "t_mapping(t_uint256,t_array(t_struct(Participant)1595_storage)dyn_storage)"
					},
					{
						"astId": 70,
						"contract": "smart-contracts/playground/main/Canvassing.sol:Canvassing",
						"label": "allFundings",
						"offset": 0,
						"slot": "11",
						"type": "t_array(t_struct(Funding)1654_storage)dyn_storage"
					},
					{
						"astId": 74,
						"contract": "smart-contracts/playground/main/Canvassing.sol:Canvassing",
						"label": "allEarnings",
						"offset": 0,
						"slot": "12",
						"type": "t_array(t_struct(Earning)1643_storage)dyn_storage"
					},
					{
						"astId": 76,
						"contract": "smart-contracts/playground/main/Canvassing.sol:Canvassing",
						"label": "currentResearcherId",
						"offset": 0,
						"slot": "13",
						"type": "t_uint256"
					},
					{
						"astId": 78,
						"contract": "smart-contracts/playground/main/Canvassing.sol:Canvassing",
						"label": "currentParticipantId",
						"offset": 0,
						"slot": "14",
						"type": "t_uint256"
					},
					{
						"astId": 80,
						"contract": "smart-contracts/playground/main/Canvassing.sol:Canvassing",
						"label": "currentSurveyId",
						"offset": 0,
						"slot": "15",
						"type": "t_uint256"
					},
					{
						"astId": 82,
						"contract": "smart-contracts/playground/main/Canvassing.sol:Canvassing",
						"label": "currentQuestionId",
						"offset": 0,
						"slot": "16",
						"type": "t_uint256"
					},
					{
						"astId": 84,
						"contract": "smart-contracts/playground/main/Canvassing.sol:Canvassing",
						"label": "currentAnswerId",
						"offset": 0,
						"slot": "17",
						"type": "t_uint256"
					},
					{
						"astId": 86,
						"contract": "smart-contracts/playground/main/Canvassing.sol:Canvassing",
						"label": "currentEarningId",
						"offset": 0,
						"slot": "18",
						"type": "t_uint256"
					},
					{
						"astId": 88,
						"contract": "smart-contracts/playground/main/Canvassing.sol:Canvassing",
						"label": "currentFundingId",
						"offset": 0,
						"slot": "19",
						"type": "t_uint256"
					},
					{
						"astId": 94,
						"contract": "smart-contracts/playground/main/Canvassing.sol:Canvassing",
						"label": "cUSD",
						"offset": 0,
						"slot": "20",
						"type": "t_contract(ERC20)1561"
					}
				],
				"types": {
					"t_address": {
						"encoding": "inplace",
						"label": "address",
						"numberOfBytes": "20"
					},
					"t_array(t_struct(Answer)1632_storage)dyn_storage": {
						"base": "t_struct(Answer)1632_storage",
						"encoding": "dynamic_array",
						"label": "struct Answer[]",
						"numberOfBytes": "32"
					},
					"t_array(t_struct(Earning)1643_storage)dyn_storage": {
						"base": "t_struct(Earning)1643_storage",
						"encoding": "dynamic_array",
						"label": "struct Earning[]",
						"numberOfBytes": "32"
					},
					"t_array(t_struct(Funding)1654_storage)dyn_storage": {
						"base": "t_struct(Funding)1654_storage",
						"encoding": "dynamic_array",
						"label": "struct Funding[]",
						"numberOfBytes": "32"
					},
					"t_array(t_struct(Participant)1595_storage)dyn_storage": {
						"base": "t_struct(Participant)1595_storage",
						"encoding": "dynamic_array",
						"label": "struct Participant[]",
						"numberOfBytes": "32"
					},
					"t_array(t_struct(Question)1619_storage)dyn_storage": {
						"base": "t_struct(Question)1619_storage",
						"encoding": "dynamic_array",
						"label": "struct Question[]",
						"numberOfBytes": "32"
					},
					"t_array(t_struct(Survey)1610_storage)dyn_storage": {
						"base": "t_struct(Survey)1610_storage",
						"encoding": "dynamic_array",
						"label": "struct Survey[]",
						"numberOfBytes": "32"
					},
					"t_bool": {
						"encoding": "inplace",
						"label": "bool",
						"numberOfBytes": "1"
					},
					"t_contract(ERC20)1561": {
						"encoding": "inplace",
						"label": "contract ERC20",
						"numberOfBytes": "20"
					},
					"t_mapping(t_address,t_bool)": {
						"encoding": "mapping",
						"key": "t_address",
						"label": "mapping(address => bool)",
						"numberOfBytes": "32",
						"value": "t_bool"
					},
					"t_mapping(t_address,t_struct(Participant)1595_storage)": {
						"encoding": "mapping",
						"key": "t_address",
						"label": "mapping(address => struct Participant)",
						"numberOfBytes": "32",
						"value": "t_struct(Participant)1595_storage"
					},
					"t_mapping(t_address,t_struct(Researcher)1578_storage)": {
						"encoding": "mapping",
						"key": "t_address",
						"label": "mapping(address => struct Researcher)",
						"numberOfBytes": "32",
						"value": "t_struct(Researcher)1578_storage"
					},
					"t_mapping(t_address,t_uint256)": {
						"encoding": "mapping",
						"key": "t_address",
						"label": "mapping(address => uint256)",
						"numberOfBytes": "32",
						"value": "t_uint256"
					},
					"t_mapping(t_uint256,t_array(t_struct(Answer)1632_storage)dyn_storage)": {
						"encoding": "mapping",
						"key": "t_uint256",
						"label": "mapping(uint256 => struct Answer[])",
						"numberOfBytes": "32",
						"value": "t_array(t_struct(Answer)1632_storage)dyn_storage"
					},
					"t_mapping(t_uint256,t_array(t_struct(Participant)1595_storage)dyn_storage)": {
						"encoding": "mapping",
						"key": "t_uint256",
						"label": "mapping(uint256 => struct Participant[])",
						"numberOfBytes": "32",
						"value": "t_array(t_struct(Participant)1595_storage)dyn_storage"
					},
					"t_mapping(t_uint256,t_array(t_struct(Question)1619_storage)dyn_storage)": {
						"encoding": "mapping",
						"key": "t_uint256",
						"label": "mapping(uint256 => struct Question[])",
						"numberOfBytes": "32",
						"value": "t_array(t_struct(Question)1619_storage)dyn_storage"
					},
					"t_mapping(t_uint256,t_mapping(t_address,t_bool))": {
						"encoding": "mapping",
						"key": "t_uint256",
						"label": "mapping(uint256 => mapping(address => bool))",
						"numberOfBytes": "32",
						"value": "t_mapping(t_address,t_bool)"
					},
					"t_string_storage": {
						"encoding": "bytes",
						"label": "string",
						"numberOfBytes": "32"
					},
					"t_struct(Answer)1632_storage": {
						"encoding": "inplace",
						"label": "struct Answer",
						"members": [
							{
								"astId": 1621,
								"contract": "smart-contracts/playground/main/Canvassing.sol:Canvassing",
								"label": "id",
								"offset": 0,
								"slot": "0",
								"type": "t_uint256"
							},
							{
								"astId": 1623,
								"contract": "smart-contracts/playground/main/Canvassing.sol:Canvassing",
								"label": "questionId",
								"offset": 0,
								"slot": "1",
								"type": "t_uint256"
							},
							{
								"astId": 1625,
								"contract": "smart-contracts/playground/main/Canvassing.sol:Canvassing",
								"label": "surveyId",
								"offset": 0,
								"slot": "2",
								"type": "t_uint256"
							},
							{
								"astId": 1627,
								"contract": "smart-contracts/playground/main/Canvassing.sol:Canvassing",
								"label": "participantWalletAddress",
								"offset": 0,
								"slot": "3",
								"type": "t_address"
							},
							{
								"astId": 1629,
								"contract": "smart-contracts/playground/main/Canvassing.sol:Canvassing",
								"label": "value",
								"offset": 20,
								"slot": "3",
								"type": "t_bool"
							},
							{
								"astId": 1631,
								"contract": "smart-contracts/playground/main/Canvassing.sol:Canvassing",
								"label": "isBlank",
								"offset": 21,
								"slot": "3",
								"type": "t_bool"
							}
						],
						"numberOfBytes": "128"
					},
					"t_struct(Earning)1643_storage": {
						"encoding": "inplace",
						"label": "struct Earning",
						"members": [
							{
								"astId": 1634,
								"contract": "smart-contracts/playground/main/Canvassing.sol:Canvassing",
								"label": "id",
								"offset": 0,
								"slot": "0",
								"type": "t_uint256"
							},
							{
								"astId": 1636,
								"contract": "smart-contracts/playground/main/Canvassing.sol:Canvassing",
								"label": "surveyId",
								"offset": 0,
								"slot": "1",
								"type": "t_uint256"
							},
							{
								"astId": 1638,
								"contract": "smart-contracts/playground/main/Canvassing.sol:Canvassing",
								"label": "walletAddress",
								"offset": 0,
								"slot": "2",
								"type": "t_address"
							},
							{
								"astId": 1640,
								"contract": "smart-contracts/playground/main/Canvassing.sol:Canvassing",
								"label": "amountPaidOutInWei",
								"offset": 0,
								"slot": "3",
								"type": "t_uint256"
							},
							{
								"astId": 1642,
								"contract": "smart-contracts/playground/main/Canvassing.sol:Canvassing",
								"label": "isBlank",
								"offset": 0,
								"slot": "4",
								"type": "t_bool"
							}
						],
						"numberOfBytes": "160"
					},
					"t_struct(Funding)1654_storage": {
						"encoding": "inplace",
						"label": "struct Funding",
						"members": [
							{
								"astId": 1645,
								"contract": "smart-contracts/playground/main/Canvassing.sol:Canvassing",
								"label": "id",
								"offset": 0,
								"slot": "0",
								"type": "t_uint256"
							},
							{
								"astId": 1647,
								"contract": "smart-contracts/playground/main/Canvassing.sol:Canvassing",
								"label": "surveyId",
								"offset": 0,
								"slot": "1",
								"type": "t_uint256"
							},
							{
								"astId": 1649,
								"contract": "smart-contracts/playground/main/Canvassing.sol:Canvassing",
								"label": "creatingResearcherWalletAddress",
								"offset": 0,
								"slot": "2",
								"type": "t_address"
							},
							{
								"astId": 1651,
								"contract": "smart-contracts/playground/main/Canvassing.sol:Canvassing",
								"label": "amountFundedInWei",
								"offset": 0,
								"slot": "3",
								"type": "t_uint256"
							},
							{
								"astId": 1653,
								"contract": "smart-contracts/playground/main/Canvassing.sol:Canvassing",
								"label": "isBlank",
								"offset": 0,
								"slot": "4",
								"type": "t_bool"
							}
						],
						"numberOfBytes": "160"
					},
					"t_struct(Participant)1595_storage": {
						"encoding": "inplace",
						"label": "struct Participant",
						"members": [
							{
								"astId": 1580,
								"contract": "smart-contracts/playground/main/Canvassing.sol:Canvassing",
								"label": "id",
								"offset": 0,
								"slot": "0",
								"type": "t_uint256"
							},
							{
								"astId": 1582,
								"contract": "smart-contracts/playground/main/Canvassing.sol:Canvassing",
								"label": "walletAddress",
								"offset": 0,
								"slot": "1",
								"type": "t_address"
							},
							{
								"astId": 1584,
								"contract": "smart-contracts/playground/main/Canvassing.sol:Canvassing",
								"label": "gender",
								"offset": 0,
								"slot": "2",
								"type": "t_string_storage"
							},
							{
								"astId": 1586,
								"contract": "smart-contracts/playground/main/Canvassing.sol:Canvassing",
								"label": "country",
								"offset": 0,
								"slot": "3",
								"type": "t_string_storage"
							},
							{
								"astId": 1588,
								"contract": "smart-contracts/playground/main/Canvassing.sol:Canvassing",
								"label": "yearOfBirth",
								"offset": 0,
								"slot": "4",
								"type": "t_uint256"
							},
							{
								"astId": 1590,
								"contract": "smart-contracts/playground/main/Canvassing.sol:Canvassing",
								"label": "totalNumberOfSurveysTaken",
								"offset": 0,
								"slot": "5",
								"type": "t_uint256"
							},
							{
								"astId": 1592,
								"contract": "smart-contracts/playground/main/Canvassing.sol:Canvassing",
								"label": "isResearcher",
								"offset": 0,
								"slot": "6",
								"type": "t_bool"
							},
							{
								"astId": 1594,
								"contract": "smart-contracts/playground/main/Canvassing.sol:Canvassing",
								"label": "isBlank",
								"offset": 1,
								"slot": "6",
								"type": "t_bool"
							}
						],
						"numberOfBytes": "224"
					},
					"t_struct(Question)1619_storage": {
						"encoding": "inplace",
						"label": "struct Question",
						"members": [
							{
								"astId": 1612,
								"contract": "smart-contracts/playground/main/Canvassing.sol:Canvassing",
								"label": "id",
								"offset": 0,
								"slot": "0",
								"type": "t_uint256"
							},
							{
								"astId": 1614,
								"contract": "smart-contracts/playground/main/Canvassing.sol:Canvassing",
								"label": "surveyId",
								"offset": 0,
								"slot": "1",
								"type": "t_uint256"
							},
							{
								"astId": 1616,
								"contract": "smart-contracts/playground/main/Canvassing.sol:Canvassing",
								"label": "sentence",
								"offset": 0,
								"slot": "2",
								"type": "t_string_storage"
							},
							{
								"astId": 1618,
								"contract": "smart-contracts/playground/main/Canvassing.sol:Canvassing",
								"label": "isBlank",
								"offset": 0,
								"slot": "3",
								"type": "t_bool"
							}
						],
						"numberOfBytes": "128"
					},
					"t_struct(Researcher)1578_storage": {
						"encoding": "inplace",
						"label": "struct Researcher",
						"members": [
							{
								"astId": 1565,
								"contract": "smart-contracts/playground/main/Canvassing.sol:Canvassing",
								"label": "id",
								"offset": 0,
								"slot": "0",
								"type": "t_uint256"
							},
							{
								"astId": 1567,
								"contract": "smart-contracts/playground/main/Canvassing.sol:Canvassing",
								"label": "walletAddress",
								"offset": 0,
								"slot": "1",
								"type": "t_address"
							},
							{
								"astId": 1569,
								"contract": "smart-contracts/playground/main/Canvassing.sol:Canvassing",
								"label": "industry",
								"offset": 0,
								"slot": "2",
								"type": "t_string_storage"
							},
							{
								"astId": 1571,
								"contract": "smart-contracts/playground/main/Canvassing.sol:Canvassing",
								"label": "yearOfIncorporation",
								"offset": 0,
								"slot": "3",
								"type": "t_uint256"
							},
							{
								"astId": 1573,
								"contract": "smart-contracts/playground/main/Canvassing.sol:Canvassing",
								"label": "isParticipant",
								"offset": 0,
								"slot": "4",
								"type": "t_bool"
							},
							{
								"astId": 1575,
								"contract": "smart-contracts/playground/main/Canvassing.sol:Canvassing",
								"label": "isVerified",
								"offset": 1,
								"slot": "4",
								"type": "t_bool"
							},
							{
								"astId": 1577,
								"contract": "smart-contracts/playground/main/Canvassing.sol:Canvassing",
								"label": "isBlank",
								"offset": 2,
								"slot": "4",
								"type": "t_bool"
							}
						],
						"numberOfBytes": "160"
					},
					"t_struct(Survey)1610_storage": {
						"encoding": "inplace",
						"label": "struct Survey",
						"members": [
							{
								"astId": 1597,
								"contract": "smart-contracts/playground/main/Canvassing.sol:Canvassing",
								"label": "id",
								"offset": 0,
								"slot": "0",
								"type": "t_uint256"
							},
							{
								"astId": 1599,
								"contract": "smart-contracts/playground/main/Canvassing.sol:Canvassing",
								"label": "creatingResearcherWalletAddress",
								"offset": 0,
								"slot": "1",
								"type": "t_address"
							},
							{
								"astId": 1601,
								"contract": "smart-contracts/playground/main/Canvassing.sol:Canvassing",
								"label": "topic",
								"offset": 0,
								"slot": "2",
								"type": "t_string_storage"
							},
							{
								"astId": 1603,
								"contract": "smart-contracts/playground/main/Canvassing.sol:Canvassing",
								"label": "numberOfQuestions",
								"offset": 0,
								"slot": "3",
								"type": "t_uint256"
							},
							{
								"astId": 1605,
								"contract": "smart-contracts/playground/main/Canvassing.sol:Canvassing",
								"label": "targetNumberOfParticipants",
								"offset": 0,
								"slot": "4",
								"type": "t_uint256"
							},
							{
								"astId": 1607,
								"contract": "smart-contracts/playground/main/Canvassing.sol:Canvassing",
								"label": "amountFundedInWei",
								"offset": 0,
								"slot": "5",
								"type": "t_uint256"
							},
							{
								"astId": 1609,
								"contract": "smart-contracts/playground/main/Canvassing.sol:Canvassing",
								"label": "isBlank",
								"offset": 0,
								"slot": "6",
								"type": "t_bool"
							}
						],
						"numberOfBytes": "224"
					},
					"t_uint256": {
						"encoding": "inplace",
						"label": "uint256",
						"numberOfBytes": "32"
					}
				}
			},
			"userdoc": {
				"kind": "user",
				"methods": {},
				"version": 1
			}
		}
	}
}