{
	"smart-contracts/playground/main/Canvassing.sol": {
		"Canvassing": {
			"abi": [
				{
					"inputs": [
						{
							"internalType": "address",
							"name": "_walletAddress",
							"type": "address"
						}
					],
					"name": "checkIfParticipantExists",
					"outputs": [
						{
							"internalType": "bool",
							"name": "",
							"type": "bool"
						}
					],
					"stateMutability": "view",
					"type": "function"
				},
				{
					"inputs": [
						{
							"internalType": "address",
							"name": "_walletAddress",
							"type": "address"
						},
						{
							"internalType": "string",
							"name": "_gender",
							"type": "string"
						},
						{
							"internalType": "string",
							"name": "_country",
							"type": "string"
						},
						{
							"internalType": "uint256",
							"name": "_yearOfBirth",
							"type": "uint256"
						}
					],
					"name": "createParticipant",
					"outputs": [],
					"stateMutability": "nonpayable",
					"type": "function"
				},
				{
					"inputs": [
						{
							"internalType": "address",
							"name": "_walletAddress",
							"type": "address"
						}
					],
					"name": "getAllEarningsMadeByParticipant",
					"outputs": [
						{
							"components": [
								{
									"internalType": "uint256",
									"name": "id",
									"type": "uint256"
								},
								{
									"internalType": "uint256",
									"name": "surveyId",
									"type": "uint256"
								},
								{
									"internalType": "address",
									"name": "participantWalletAddress",
									"type": "address"
								},
								{
									"internalType": "uint256",
									"name": "amountPaidOutInWei",
									"type": "uint256"
								},
								{
									"internalType": "bool",
									"name": "isBlank",
									"type": "bool"
								}
							],
							"internalType": "struct Earning[]",
							"name": "",
							"type": "tuple[]"
						}
					],
					"stateMutability": "view",
					"type": "function"
				},
				{
					"inputs": [],
					"name": "getAllSurveys",
					"outputs": [
						{
							"components": [
								{
									"internalType": "uint256",
									"name": "id",
									"type": "uint256"
								},
								{
									"internalType": "address",
									"name": "creatingResearcherWalletAddress",
									"type": "address"
								},
								{
									"internalType": "uint256",
									"name": "numberOfQuestions",
									"type": "uint256"
								},
								{
									"internalType": "uint256",
									"name": "targetNumberOfParticipants",
									"type": "uint256"
								},
								{
									"internalType": "uint256",
									"name": "potentialEarningsPerParticipantInWei",
									"type": "uint256"
								},
								{
									"internalType": "bool",
									"name": "isBlank",
									"type": "bool"
								}
							],
							"internalType": "struct Survey[]",
							"name": "",
							"type": "tuple[]"
						}
					],
					"stateMutability": "view",
					"type": "function"
				},
				{
					"inputs": [
						{
							"internalType": "address",
							"name": "_walletAddress",
							"type": "address"
						}
					],
					"name": "getAllSurveysTakenByParticipant",
					"outputs": [
						{
							"components": [
								{
									"internalType": "uint256",
									"name": "id",
									"type": "uint256"
								},
								{
									"internalType": "address",
									"name": "creatingResearcherWalletAddress",
									"type": "address"
								},
								{
									"internalType": "uint256",
									"name": "numberOfQuestions",
									"type": "uint256"
								},
								{
									"internalType": "uint256",
									"name": "targetNumberOfParticipants",
									"type": "uint256"
								},
								{
									"internalType": "uint256",
									"name": "potentialEarningsPerParticipantInWei",
									"type": "uint256"
								},
								{
									"internalType": "bool",
									"name": "isBlank",
									"type": "bool"
								}
							],
							"internalType": "struct Survey[]",
							"name": "",
							"type": "tuple[]"
						}
					],
					"stateMutability": "view",
					"type": "function"
				},
				{
					"inputs": [
						{
							"internalType": "address",
							"name": "_walletAddress",
							"type": "address"
						}
					],
					"name": "getParticipantByWalletAddress",
					"outputs": [
						{
							"components": [
								{
									"internalType": "uint256",
									"name": "id",
									"type": "uint256"
								},
								{
									"internalType": "address",
									"name": "walletAddress",
									"type": "address"
								},
								{
									"internalType": "string",
									"name": "gender",
									"type": "string"
								},
								{
									"internalType": "string",
									"name": "country",
									"type": "string"
								},
								{
									"internalType": "uint256",
									"name": "yearOfBirth",
									"type": "uint256"
								},
								{
									"internalType": "uint256",
									"name": "totalNumberOfSurveysTaken",
									"type": "uint256"
								},
								{
									"internalType": "bool",
									"name": "isResearcher",
									"type": "bool"
								},
								{
									"internalType": "bool",
									"name": "isBlank",
									"type": "bool"
								}
							],
							"internalType": "struct Participant",
							"name": "",
							"type": "tuple"
						}
					],
					"stateMutability": "view",
					"type": "function"
				},
				{
					"inputs": [
						{
							"internalType": "uint256",
							"name": "_surveyId",
							"type": "uint256"
						}
					],
					"name": "getSurveyById",
					"outputs": [
						{
							"components": [
								{
									"internalType": "uint256",
									"name": "id",
									"type": "uint256"
								},
								{
									"internalType": "address",
									"name": "creatingResearcherWalletAddress",
									"type": "address"
								},
								{
									"internalType": "uint256",
									"name": "numberOfQuestions",
									"type": "uint256"
								},
								{
									"internalType": "uint256",
									"name": "targetNumberOfParticipants",
									"type": "uint256"
								},
								{
									"internalType": "uint256",
									"name": "potentialEarningsPerParticipantInWei",
									"type": "uint256"
								},
								{
									"internalType": "bool",
									"name": "isBlank",
									"type": "bool"
								}
							],
							"internalType": "struct Survey",
							"name": "",
							"type": "tuple"
						}
					],
					"stateMutability": "view",
					"type": "function"
				}
			],
			"devdoc": {
				"kind": "dev",
				"methods": {},
				"version": 1
			},
			"evm": {
				"assembly": "    /* \"smart-contracts/playground/main/Canvassing.sol\":165:4408  contract Canvassing {... */\n  mstore(0x40, 0x80)\n    /* \"smart-contracts/playground/main/Canvassing.sol\":268:310  0xecE897a85688f2e83a73Fed36b9d1a6efCC99e93 */\n  0xece897a85688f2e83a73fed36b9d1a6efcc99e93\n    /* \"smart-contracts/playground/main/Canvassing.sol\":221:310  address canvassingOwnerWalletAddress =... */\n  0x00\n  dup1\n  0x0100\n  exp\n  dup2\n  sload\n  dup2\n  0xffffffffffffffffffffffffffffffffffffffff\n  mul\n  not\n  and\n  swap1\n  dup4\n  0xffffffffffffffffffffffffffffffffffffffff\n  and\n  mul\n  or\n  swap1\n  sstore\n  pop\n    /* \"smart-contracts/playground/main/Canvassing.sol\":165:4408  contract Canvassing {... */\n  callvalue\n  dup1\n  iszero\n  tag_1\n  jumpi\n  0x00\n  dup1\n  revert\ntag_1:\n  pop\n  dataSize(sub_0)\n  dup1\n  dataOffset(sub_0)\n  0x00\n  codecopy\n  0x00\n  return\nstop\n\nsub_0: assembly {\n        /* \"smart-contracts/playground/main/Canvassing.sol\":165:4408  contract Canvassing {... */\n      mstore(0x40, 0x80)\n      callvalue\n      dup1\n      iszero\n      tag_1\n      jumpi\n      0x00\n      dup1\n      revert\n    tag_1:\n      pop\n      jumpi(tag_2, lt(calldatasize, 0x04))\n      shr(0xe0, calldataload(0x00))\n      dup1\n      0x3b43b7d0\n      gt\n      tag_10\n      jumpi\n      dup1\n      0x3b43b7d0\n      eq\n      tag_6\n      jumpi\n      dup1\n      0x6f5fde11\n      eq\n      tag_7\n      jumpi\n      dup1\n      0x7a1bc375\n      eq\n      tag_8\n      jumpi\n      dup1\n      0xc0ac4ae4\n      eq\n      tag_9\n      jumpi\n      jump(tag_2)\n    tag_10:\n      dup1\n      0x2394e5dc\n      eq\n      tag_3\n      jumpi\n      dup1\n      0x392a5822\n      eq\n      tag_4\n      jumpi\n      dup1\n      0x3abb615a\n      eq\n      tag_5\n      jumpi\n    tag_2:\n      0x00\n      dup1\n      revert\n        /* \"smart-contracts/playground/main/Canvassing.sol\":1197:1384  function getParticipantByWalletAddress(address _walletAddress)... */\n    tag_3:\n      tag_11\n      0x04\n      dup1\n      calldatasize\n      sub\n      dup2\n      add\n      swap1\n      tag_12\n      swap2\n      swap1\n      tag_13\n      jump\t// in\n    tag_12:\n      tag_14\n      jump\t// in\n    tag_11:\n      mload(0x40)\n      tag_15\n      swap2\n      swap1\n      tag_16\n      jump\t// in\n    tag_15:\n      mload(0x40)\n      dup1\n      swap2\n      sub\n      swap1\n      return\n        /* \"smart-contracts/playground/main/Canvassing.sol\":2394:3294  function getAllEarningsMadeByParticipant(address _walletAddress)... */\n    tag_4:\n      tag_17\n      0x04\n      dup1\n      calldatasize\n      sub\n      dup2\n      add\n      swap1\n      tag_18\n      swap2\n      swap1\n      tag_13\n      jump\t// in\n    tag_18:\n      tag_19\n      jump\t// in\n    tag_17:\n      mload(0x40)\n      tag_20\n      swap2\n      swap1\n      tag_21\n      jump\t// in\n    tag_20:\n      mload(0x40)\n      dup1\n      swap2\n      sub\n      swap1\n      return\n        /* \"smart-contracts/playground/main/Canvassing.sol\":3300:4406  function getAllSurveysTakenByParticipant(address _walletAddress)... */\n    tag_5:\n      tag_22\n      0x04\n      dup1\n      calldatasize\n      sub\n      dup2\n      add\n      swap1\n      tag_23\n      swap2\n      swap1\n      tag_13\n      jump\t// in\n    tag_23:\n      tag_24\n      jump\t// in\n    tag_22:\n      mload(0x40)\n      tag_25\n      swap2\n      swap1\n      tag_26\n      jump\t// in\n    tag_25:\n      mload(0x40)\n      dup1\n      swap2\n      sub\n      swap1\n      return\n        /* \"smart-contracts/playground/main/Canvassing.sol\":1390:2128  function createParticipant(... */\n    tag_6:\n      tag_27\n      0x04\n      dup1\n      calldatasize\n      sub\n      dup2\n      add\n      swap1\n      tag_28\n      swap2\n      swap1\n      tag_29\n      jump\t// in\n    tag_28:\n      tag_30\n      jump\t// in\n    tag_27:\n      stop\n        /* \"smart-contracts/playground/main/Canvassing.sol\":1000:1191  function checkIfParticipantExists(address _walletAddress)... */\n    tag_7:\n      tag_31\n      0x04\n      dup1\n      calldatasize\n      sub\n      dup2\n      add\n      swap1\n      tag_32\n      swap2\n      swap1\n      tag_13\n      jump\t// in\n    tag_32:\n      tag_33\n      jump\t// in\n    tag_31:\n      mload(0x40)\n      tag_34\n      swap2\n      swap1\n      tag_35\n      jump\t// in\n    tag_34:\n      mload(0x40)\n      dup1\n      swap2\n      sub\n      swap1\n      return\n        /* \"smart-contracts/playground/main/Canvassing.sol\":2134:2231  function getAllSurveys() public view returns (Survey[] memory) {... */\n    tag_8:\n      tag_36\n      tag_37\n      jump\t// in\n    tag_36:\n      mload(0x40)\n      tag_38\n      swap2\n      swap1\n      tag_26\n      jump\t// in\n    tag_38:\n      mload(0x40)\n      dup1\n      swap2\n      sub\n      swap1\n      return\n        /* \"smart-contracts/playground/main/Canvassing.sol\":2237:2388  function getSurveyById(uint256 _surveyId)... */\n    tag_9:\n      tag_39\n      0x04\n      dup1\n      calldatasize\n      sub\n      dup2\n      add\n      swap1\n      tag_40\n      swap2\n      swap1\n      tag_41\n      jump\t// in\n    tag_40:\n      tag_42\n      jump\t// in\n    tag_39:\n      mload(0x40)\n      tag_43\n      swap2\n      swap1\n      tag_44\n      jump\t// in\n    tag_43:\n      mload(0x40)\n      dup1\n      swap2\n      sub\n      swap1\n      return\n        /* \"smart-contracts/playground/main/Canvassing.sol\":1197:1384  function getParticipantByWalletAddress(address _walletAddress)... */\n    tag_14:\n        /* \"smart-contracts/playground/main/Canvassing.sol\":1305:1323  Participant memory */\n      tag_45\n      tag_46\n      jump\t// in\n    tag_45:\n        /* \"smart-contracts/playground/main/Canvassing.sol\":1346:1361  allParticipants */\n      0x02\n        /* \"smart-contracts/playground/main/Canvassing.sol\":1346:1377  allParticipants[_walletAddress] */\n      0x00\n        /* \"smart-contracts/playground/main/Canvassing.sol\":1362:1376  _walletAddress */\n      dup4\n        /* \"smart-contracts/playground/main/Canvassing.sol\":1346:1377  allParticipants[_walletAddress] */\n      0xffffffffffffffffffffffffffffffffffffffff\n      and\n      0xffffffffffffffffffffffffffffffffffffffff\n      and\n      dup2\n      mstore\n      0x20\n      add\n      swap1\n      dup2\n      mstore\n      0x20\n      add\n      0x00\n      keccak256\n        /* \"smart-contracts/playground/main/Canvassing.sol\":1339:1377  return allParticipants[_walletAddress] */\n      mload(0x40)\n      dup1\n      0x0100\n      add\n      0x40\n      mstore\n      swap1\n      dup2\n      0x00\n      dup3\n      add\n      sload\n      dup2\n      mstore\n      0x20\n      add\n      0x01\n      dup3\n      add\n      0x00\n      swap1\n      sload\n      swap1\n      0x0100\n      exp\n      swap1\n      div\n      0xffffffffffffffffffffffffffffffffffffffff\n      and\n      0xffffffffffffffffffffffffffffffffffffffff\n      and\n      0xffffffffffffffffffffffffffffffffffffffff\n      and\n      dup2\n      mstore\n      0x20\n      add\n      0x02\n      dup3\n      add\n      dup1\n      sload\n      tag_48\n      swap1\n      tag_49\n      jump\t// in\n    tag_48:\n      dup1\n      0x1f\n      add\n      0x20\n      dup1\n      swap2\n      div\n      mul\n      0x20\n      add\n      mload(0x40)\n      swap1\n      dup2\n      add\n      0x40\n      mstore\n      dup1\n      swap3\n      swap2\n      swap1\n      dup2\n      dup2\n      mstore\n      0x20\n      add\n      dup3\n      dup1\n      sload\n      tag_50\n      swap1\n      tag_49\n      jump\t// in\n    tag_50:\n      dup1\n      iszero\n      tag_51\n      jumpi\n      dup1\n      0x1f\n      lt\n      tag_52\n      jumpi\n      0x0100\n      dup1\n      dup4\n      sload\n      div\n      mul\n      dup4\n      mstore\n      swap2\n      0x20\n      add\n      swap2\n      jump(tag_51)\n    tag_52:\n      dup3\n      add\n      swap2\n      swap1\n      0x00\n      mstore\n      keccak256(0x00, 0x20)\n      swap1\n    tag_53:\n      dup2\n      sload\n      dup2\n      mstore\n      swap1\n      0x01\n      add\n      swap1\n      0x20\n      add\n      dup1\n      dup4\n      gt\n      tag_53\n      jumpi\n      dup3\n      swap1\n      sub\n      0x1f\n      and\n      dup3\n      add\n      swap2\n    tag_51:\n      pop\n      pop\n      pop\n      pop\n      pop\n      dup2\n      mstore\n      0x20\n      add\n      0x03\n      dup3\n      add\n      dup1\n      sload\n      tag_54\n      swap1\n      tag_49\n      jump\t// in\n    tag_54:\n      dup1\n      0x1f\n      add\n      0x20\n      dup1\n      swap2\n      div\n      mul\n      0x20\n      add\n      mload(0x40)\n      swap1\n      dup2\n      add\n      0x40\n      mstore\n      dup1\n      swap3\n      swap2\n      swap1\n      dup2\n      dup2\n      mstore\n      0x20\n      add\n      dup3\n      dup1\n      sload\n      tag_55\n      swap1\n      tag_49\n      jump\t// in\n    tag_55:\n      dup1\n      iszero\n      tag_56\n      jumpi\n      dup1\n      0x1f\n      lt\n      tag_57\n      jumpi\n      0x0100\n      dup1\n      dup4\n      sload\n      div\n      mul\n      dup4\n      mstore\n      swap2\n      0x20\n      add\n      swap2\n      jump(tag_56)\n    tag_57:\n      dup3\n      add\n      swap2\n      swap1\n      0x00\n      mstore\n      keccak256(0x00, 0x20)\n      swap1\n    tag_58:\n      dup2\n      sload\n      dup2\n      mstore\n      swap1\n      0x01\n      add\n      swap1\n      0x20\n      add\n      dup1\n      dup4\n      gt\n      tag_58\n      jumpi\n      dup3\n      swap1\n      sub\n      0x1f\n      and\n      dup3\n      add\n      swap2\n    tag_56:\n      pop\n      pop\n      pop\n      pop\n      pop\n      dup2\n      mstore\n      0x20\n      add\n      0x04\n      dup3\n      add\n      sload\n      dup2\n      mstore\n      0x20\n      add\n      0x05\n      dup3\n      add\n      sload\n      dup2\n      mstore\n      0x20\n      add\n      0x06\n      dup3\n      add\n      0x00\n      swap1\n      sload\n      swap1\n      0x0100\n      exp\n      swap1\n      div\n      0xff\n      and\n      iszero\n      iszero\n      iszero\n      iszero\n      dup2\n      mstore\n      0x20\n      add\n      0x06\n      dup3\n      add\n      0x01\n      swap1\n      sload\n      swap1\n      0x0100\n      exp\n      swap1\n      div\n      0xff\n      and\n      iszero\n      iszero\n      iszero\n      iszero\n      dup2\n      mstore\n      pop\n      pop\n      swap1\n      pop\n        /* \"smart-contracts/playground/main/Canvassing.sol\":1197:1384  function getParticipantByWalletAddress(address _walletAddress)... */\n      swap2\n      swap1\n      pop\n      jump\t// out\n        /* \"smart-contracts/playground/main/Canvassing.sol\":2394:3294  function getAllEarningsMadeByParticipant(address _walletAddress)... */\n    tag_19:\n        /* \"smart-contracts/playground/main/Canvassing.sol\":2504:2520  Earning[] memory */\n      0x60\n        /* \"smart-contracts/playground/main/Canvassing.sol\":2536:2582  uint256 totalNumberOfSurveysTakenByParticipant */\n      0x00\n        /* \"smart-contracts/playground/main/Canvassing.sol\":2585:2600  allParticipants */\n      0x02\n        /* \"smart-contracts/playground/main/Canvassing.sol\":2585:2638  allParticipants[... */\n      0x00\n        /* \"smart-contracts/playground/main/Canvassing.sol\":2614:2628  _walletAddress */\n      dup5\n        /* \"smart-contracts/playground/main/Canvassing.sol\":2585:2638  allParticipants[... */\n      0xffffffffffffffffffffffffffffffffffffffff\n      and\n      0xffffffffffffffffffffffffffffffffffffffff\n      and\n      dup2\n      mstore\n      0x20\n      add\n      swap1\n      dup2\n      mstore\n      0x20\n      add\n      0x00\n      keccak256\n        /* \"smart-contracts/playground/main/Canvassing.sol\":2585:2664  allParticipants[... */\n      0x05\n      add\n      sload\n        /* \"smart-contracts/playground/main/Canvassing.sol\":2536:2664  uint256 totalNumberOfSurveysTakenByParticipant = allParticipants[... */\n      swap1\n      pop\n        /* \"smart-contracts/playground/main/Canvassing.sol\":2675:2720  Earning[] memory allEarningsMadeByParticipant */\n      0x00\n        /* \"smart-contracts/playground/main/Canvassing.sol\":2750:2788  totalNumberOfSurveysTakenByParticipant */\n      dup2\n        /* \"smart-contracts/playground/main/Canvassing.sol\":2723:2798  new Earning[](... */\n      0xffffffffffffffff\n      dup2\n      gt\n      iszero\n      tag_60\n      jumpi\n      tag_61\n      tag_62\n      jump\t// in\n    tag_61:\n    tag_60:\n      mload(0x40)\n      swap1\n      dup1\n      dup3\n      mstore\n      dup1\n      0x20\n      mul\n      0x20\n      add\n      dup3\n      add\n      0x40\n      mstore\n      dup1\n      iszero\n      tag_63\n      jumpi\n      dup2\n      0x20\n      add\n    tag_64:\n      tag_65\n      tag_66\n      jump\t// in\n    tag_65:\n      dup2\n      mstore\n      0x20\n      add\n      swap1\n      0x01\n      swap1\n      sub\n      swap1\n      dup2\n      tag_64\n      jumpi\n      swap1\n      pop\n    tag_63:\n      pop\n        /* \"smart-contracts/playground/main/Canvassing.sol\":2675:2798  Earning[] memory allEarningsMadeByParticipant = new Earning[](... */\n      swap1\n      pop\n        /* \"smart-contracts/playground/main/Canvassing.sol\":2808:2828  uint256 earningIndex */\n      0x00\n        /* \"smart-contracts/playground/main/Canvassing.sol\":2861:2878  uint256 earningId */\n      dup1\n        /* \"smart-contracts/playground/main/Canvassing.sol\":2843:3242  for (... */\n    tag_67:\n        /* \"smart-contracts/playground/main/Canvassing.sol\":2908:2919  allEarnings */\n      0x07\n        /* \"smart-contracts/playground/main/Canvassing.sol\":2908:2926  allEarnings.length */\n      dup1\n      sload\n      swap1\n      pop\n        /* \"smart-contracts/playground/main/Canvassing.sol\":2896:2905  earningId */\n      dup2\n        /* \"smart-contracts/playground/main/Canvassing.sol\":2896:2926  earningId < allEarnings.length */\n      lt\n        /* \"smart-contracts/playground/main/Canvassing.sol\":2843:3242  for (... */\n      iszero\n      tag_68\n      jumpi\n        /* \"smart-contracts/playground/main/Canvassing.sol\":2976:3005  Earning memory runningEarning */\n      0x00\n        /* \"smart-contracts/playground/main/Canvassing.sol\":3008:3019  allEarnings */\n      0x07\n        /* \"smart-contracts/playground/main/Canvassing.sol\":3020:3029  earningId */\n      dup3\n        /* \"smart-contracts/playground/main/Canvassing.sol\":3008:3030  allEarnings[earningId] */\n      dup2\n      sload\n      dup2\n      lt\n      tag_70\n      jumpi\n      tag_71\n      tag_72\n      jump\t// in\n    tag_71:\n    tag_70:\n      swap1\n      0x00\n      mstore\n      keccak256(0x00, 0x20)\n      swap1\n      0x05\n      mul\n      add\n        /* \"smart-contracts/playground/main/Canvassing.sol\":2976:3030  Earning memory runningEarning = allEarnings[earningId] */\n      mload(0x40)\n      dup1\n      0xa0\n      add\n      0x40\n      mstore\n      swap1\n      dup2\n      0x00\n      dup3\n      add\n      sload\n      dup2\n      mstore\n      0x20\n      add\n      0x01\n      dup3\n      add\n      sload\n      dup2\n      mstore\n      0x20\n      add\n      0x02\n      dup3\n      add\n      0x00\n      swap1\n      sload\n      swap1\n      0x0100\n      exp\n      swap1\n      div\n      0xffffffffffffffffffffffffffffffffffffffff\n      and\n      0xffffffffffffffffffffffffffffffffffffffff\n      and\n      0xffffffffffffffffffffffffffffffffffffffff\n      and\n      dup2\n      mstore\n      0x20\n      add\n      0x03\n      dup3\n      add\n      sload\n      dup2\n      mstore\n      0x20\n      add\n      0x04\n      dup3\n      add\n      0x00\n      swap1\n      sload\n      swap1\n      0x0100\n      exp\n      swap1\n      div\n      0xff\n      and\n      iszero\n      iszero\n      iszero\n      iszero\n      dup2\n      mstore\n      pop\n      pop\n      swap1\n      pop\n        /* \"smart-contracts/playground/main/Canvassing.sol\":3092:3106  _walletAddress */\n      dup7\n        /* \"smart-contracts/playground/main/Canvassing.sol\":3049:3106  runningEarning.participantWalletAddress == _walletAddress */\n      0xffffffffffffffffffffffffffffffffffffffff\n      and\n        /* \"smart-contracts/playground/main/Canvassing.sol\":3049:3063  runningEarning */\n      dup2\n        /* \"smart-contracts/playground/main/Canvassing.sol\":3049:3088  runningEarning.participantWalletAddress */\n      0x40\n      add\n      mload\n        /* \"smart-contracts/playground/main/Canvassing.sol\":3049:3106  runningEarning.participantWalletAddress == _walletAddress */\n      0xffffffffffffffffffffffffffffffffffffffff\n      and\n      sub\n        /* \"smart-contracts/playground/main/Canvassing.sol\":3045:3232  if (runningEarning.participantWalletAddress == _walletAddress) {... */\n      tag_74\n      jumpi\n        /* \"smart-contracts/playground/main/Canvassing.sol\":3171:3185  runningEarning */\n      dup1\n        /* \"smart-contracts/playground/main/Canvassing.sol\":3126:3154  allEarningsMadeByParticipant */\n      dup5\n        /* \"smart-contracts/playground/main/Canvassing.sol\":3155:3167  earningIndex */\n      dup5\n        /* \"smart-contracts/playground/main/Canvassing.sol\":3126:3168  allEarningsMadeByParticipant[earningIndex] */\n      dup2\n      mload\n      dup2\n      lt\n      tag_75\n      jumpi\n      tag_76\n      tag_72\n      jump\t// in\n    tag_76:\n    tag_75:\n      0x20\n      mul\n      0x20\n      add\n      add\n        /* \"smart-contracts/playground/main/Canvassing.sol\":3126:3185  allEarningsMadeByParticipant[earningIndex] = runningEarning */\n      dup2\n      swap1\n      mstore\n      pop\n        /* \"smart-contracts/playground/main/Canvassing.sol\":3203:3217  earningIndex++ */\n      dup3\n      dup1\n      tag_77\n      swap1\n      tag_78\n      jump\t// in\n    tag_77:\n      swap4\n      pop\n      pop\n        /* \"smart-contracts/playground/main/Canvassing.sol\":3045:3232  if (runningEarning.participantWalletAddress == _walletAddress) {... */\n    tag_74:\n        /* \"smart-contracts/playground/main/Canvassing.sol\":2962:3242  {... */\n      pop\n        /* \"smart-contracts/playground/main/Canvassing.sol\":2940:2951  earningId++ */\n      dup1\n      dup1\n      tag_79\n      swap1\n      tag_78\n      jump\t// in\n    tag_79:\n      swap2\n      pop\n      pop\n        /* \"smart-contracts/playground/main/Canvassing.sol\":2843:3242  for (... */\n      jump(tag_67)\n    tag_68:\n      pop\n        /* \"smart-contracts/playground/main/Canvassing.sol\":3259:3287  allEarningsMadeByParticipant */\n      dup2\n        /* \"smart-contracts/playground/main/Canvassing.sol\":3252:3287  return allEarningsMadeByParticipant */\n      swap4\n      pop\n      pop\n      pop\n      pop\n        /* \"smart-contracts/playground/main/Canvassing.sol\":2394:3294  function getAllEarningsMadeByParticipant(address _walletAddress)... */\n      swap2\n      swap1\n      pop\n      jump\t// out\n        /* \"smart-contracts/playground/main/Canvassing.sol\":3300:4406  function getAllSurveysTakenByParticipant(address _walletAddress)... */\n    tag_24:\n        /* \"smart-contracts/playground/main/Canvassing.sol\":3410:3425  Survey[] memory */\n      0x60\n        /* \"smart-contracts/playground/main/Canvassing.sol\":3536:3593  Earning[]... */\n      0x00\n        /* \"smart-contracts/playground/main/Canvassing.sol\":3596:3673  getAllEarningsMadeByParticipant(... */\n      tag_81\n        /* \"smart-contracts/playground/main/Canvassing.sol\":3645:3659  _walletAddress */\n      dup4\n        /* \"smart-contracts/playground/main/Canvassing.sol\":3596:3627  getAllEarningsMadeByParticipant */\n      tag_19\n        /* \"smart-contracts/playground/main/Canvassing.sol\":3596:3673  getAllEarningsMadeByParticipant(... */\n      jump\t// in\n    tag_81:\n        /* \"smart-contracts/playground/main/Canvassing.sol\":3536:3673  Earning[]... */\n      swap1\n      pop\n        /* \"smart-contracts/playground/main/Canvassing.sol\":3684:3728  Survey[] memory allSurveysTakenByParticipant */\n      0x00\n        /* \"smart-contracts/playground/main/Canvassing.sol\":3757:3785  allEarningsMadeByParticipant */\n      dup2\n        /* \"smart-contracts/playground/main/Canvassing.sol\":3757:3792  allEarningsMadeByParticipant.length */\n      mload\n        /* \"smart-contracts/playground/main/Canvassing.sol\":3731:3802  new Survey[](... */\n      0xffffffffffffffff\n      dup2\n      gt\n      iszero\n      tag_82\n      jumpi\n      tag_83\n      tag_62\n      jump\t// in\n    tag_83:\n    tag_82:\n      mload(0x40)\n      swap1\n      dup1\n      dup3\n      mstore\n      dup1\n      0x20\n      mul\n      0x20\n      add\n      dup3\n      add\n      0x40\n      mstore\n      dup1\n      iszero\n      tag_84\n      jumpi\n      dup2\n      0x20\n      add\n    tag_85:\n      tag_86\n      tag_87\n      jump\t// in\n    tag_86:\n      dup2\n      mstore\n      0x20\n      add\n      swap1\n      0x01\n      swap1\n      sub\n      swap1\n      dup2\n      tag_85\n      jumpi\n      swap1\n      pop\n    tag_84:\n      pop\n        /* \"smart-contracts/playground/main/Canvassing.sol\":3684:3802  Survey[] memory allSurveysTakenByParticipant = new Survey[](... */\n      swap1\n      pop\n        /* \"smart-contracts/playground/main/Canvassing.sol\":3812:3831  uint256 surveyIndex */\n      0x00\n        /* \"smart-contracts/playground/main/Canvassing.sol\":3959:3976  uint256 earningId */\n      dup1\n        /* \"smart-contracts/playground/main/Canvassing.sol\":3941:4354  for (... */\n    tag_88:\n        /* \"smart-contracts/playground/main/Canvassing.sol\":4006:4034  allEarningsMadeByParticipant */\n      dup4\n        /* \"smart-contracts/playground/main/Canvassing.sol\":4006:4041  allEarningsMadeByParticipant.length */\n      mload\n        /* \"smart-contracts/playground/main/Canvassing.sol\":3994:4003  earningId */\n      dup2\n        /* \"smart-contracts/playground/main/Canvassing.sol\":3994:4041  earningId < allEarningsMadeByParticipant.length */\n      lt\n        /* \"smart-contracts/playground/main/Canvassing.sol\":3941:4354  for (... */\n      iszero\n      tag_89\n      jumpi\n        /* \"smart-contracts/playground/main/Canvassing.sol\":4091:4120  Earning memory runningEarning */\n      0x00\n        /* \"smart-contracts/playground/main/Canvassing.sol\":4123:4151  allEarningsMadeByParticipant */\n      dup5\n        /* \"smart-contracts/playground/main/Canvassing.sol\":4169:4178  earningId */\n      dup3\n        /* \"smart-contracts/playground/main/Canvassing.sol\":4123:4192  allEarningsMadeByParticipant[... */\n      dup2\n      mload\n      dup2\n      lt\n      tag_91\n      jumpi\n      tag_92\n      tag_72\n      jump\t// in\n    tag_92:\n    tag_91:\n      0x20\n      mul\n      0x20\n      add\n      add\n      mload\n        /* \"smart-contracts/playground/main/Canvassing.sol\":4091:4192  Earning memory runningEarning = allEarningsMadeByParticipant[... */\n      swap1\n      pop\n        /* \"smart-contracts/playground/main/Canvassing.sol\":4251:4261  allSurveys */\n      0x03\n        /* \"smart-contracts/playground/main/Canvassing.sol\":4279:4293  runningEarning */\n      dup2\n        /* \"smart-contracts/playground/main/Canvassing.sol\":4279:4302  runningEarning.surveyId */\n      0x20\n      add\n      mload\n        /* \"smart-contracts/playground/main/Canvassing.sol\":4251:4316  allSurveys[... */\n      dup2\n      sload\n      dup2\n      lt\n      tag_93\n      jumpi\n      tag_94\n      tag_72\n      jump\t// in\n    tag_94:\n    tag_93:\n      swap1\n      0x00\n      mstore\n      keccak256(0x00, 0x20)\n      swap1\n      0x06\n      mul\n      add\n        /* \"smart-contracts/playground/main/Canvassing.sol\":4207:4316  allSurveysTakenByParticipant[surveyIndex] = allSurveys[... */\n      mload(0x40)\n      dup1\n      0xc0\n      add\n      0x40\n      mstore\n      swap1\n      dup2\n      0x00\n      dup3\n      add\n      sload\n      dup2\n      mstore\n      0x20\n      add\n      0x01\n      dup3\n      add\n      0x00\n      swap1\n      sload\n      swap1\n      0x0100\n      exp\n      swap1\n      div\n      0xffffffffffffffffffffffffffffffffffffffff\n      and\n      0xffffffffffffffffffffffffffffffffffffffff\n      and\n      0xffffffffffffffffffffffffffffffffffffffff\n      and\n      dup2\n      mstore\n      0x20\n      add\n      0x02\n      dup3\n      add\n      sload\n      dup2\n      mstore\n      0x20\n      add\n      0x03\n      dup3\n      add\n      sload\n      dup2\n      mstore\n      0x20\n      add\n      0x04\n      dup3\n      add\n      sload\n      dup2\n      mstore\n      0x20\n      add\n      0x05\n      dup3\n      add\n      0x00\n      swap1\n      sload\n      swap1\n      0x0100\n      exp\n      swap1\n      div\n      0xff\n      and\n      iszero\n      iszero\n      iszero\n      iszero\n      dup2\n      mstore\n      pop\n      pop\n        /* \"smart-contracts/playground/main/Canvassing.sol\":4207:4235  allSurveysTakenByParticipant */\n      dup5\n        /* \"smart-contracts/playground/main/Canvassing.sol\":4236:4247  surveyIndex */\n      dup5\n        /* \"smart-contracts/playground/main/Canvassing.sol\":4207:4248  allSurveysTakenByParticipant[surveyIndex] */\n      dup2\n      mload\n      dup2\n      lt\n      tag_96\n      jumpi\n      tag_97\n      tag_72\n      jump\t// in\n    tag_97:\n    tag_96:\n      0x20\n      mul\n      0x20\n      add\n      add\n        /* \"smart-contracts/playground/main/Canvassing.sol\":4207:4316  allSurveysTakenByParticipant[surveyIndex] = allSurveys[... */\n      dup2\n      swap1\n      mstore\n      pop\n        /* \"smart-contracts/playground/main/Canvassing.sol\":4330:4343  surveyIndex++ */\n      dup3\n      dup1\n      tag_98\n      swap1\n      tag_78\n      jump\t// in\n    tag_98:\n      swap4\n      pop\n      pop\n        /* \"smart-contracts/playground/main/Canvassing.sol\":4077:4354  {... */\n      pop\n        /* \"smart-contracts/playground/main/Canvassing.sol\":4055:4066  earningId++ */\n      dup1\n      dup1\n      tag_99\n      swap1\n      tag_78\n      jump\t// in\n    tag_99:\n      swap2\n      pop\n      pop\n        /* \"smart-contracts/playground/main/Canvassing.sol\":3941:4354  for (... */\n      jump(tag_88)\n    tag_89:\n      pop\n        /* \"smart-contracts/playground/main/Canvassing.sol\":4371:4399  allSurveysTakenByParticipant */\n      dup2\n        /* \"smart-contracts/playground/main/Canvassing.sol\":4364:4399  return allSurveysTakenByParticipant */\n      swap4\n      pop\n      pop\n      pop\n      pop\n        /* \"smart-contracts/playground/main/Canvassing.sol\":3300:4406  function getAllSurveysTakenByParticipant(address _walletAddress)... */\n      swap2\n      swap1\n      pop\n      jump\t// out\n        /* \"smart-contracts/playground/main/Canvassing.sol\":1390:2128  function createParticipant(... */\n    tag_30:\n        /* \"smart-contracts/playground/main/Canvassing.sol\":1565:1589  uint256 newParticipantId */\n      0x00\n        /* \"smart-contracts/playground/main/Canvassing.sol\":1592:1612  currentParticipantId */\n      sload(0x09)\n        /* \"smart-contracts/playground/main/Canvassing.sol\":1565:1612  uint256 newParticipantId = currentParticipantId */\n      swap1\n      pop\n        /* \"smart-contracts/playground/main/Canvassing.sol\":1623:1656  Participant memory newParticipant */\n      tag_101\n      tag_46\n      jump\t// in\n    tag_101:\n        /* \"smart-contracts/playground/main/Canvassing.sol\":1687:1703  newParticipantId */\n      dup2\n        /* \"smart-contracts/playground/main/Canvassing.sol\":1667:1681  newParticipant */\n      dup2\n        /* \"smart-contracts/playground/main/Canvassing.sol\":1667:1684  newParticipant.id */\n      0x00\n      add\n        /* \"smart-contracts/playground/main/Canvassing.sol\":1667:1703  newParticipant.id = newParticipantId */\n      dup2\n      dup2\n      mstore\n      pop\n      pop\n        /* \"smart-contracts/playground/main/Canvassing.sol\":1744:1758  _walletAddress */\n      dup6\n        /* \"smart-contracts/playground/main/Canvassing.sol\":1713:1727  newParticipant */\n      dup2\n        /* \"smart-contracts/playground/main/Canvassing.sol\":1713:1741  newParticipant.walletAddress */\n      0x20\n      add\n        /* \"smart-contracts/playground/main/Canvassing.sol\":1713:1758  newParticipant.walletAddress = _walletAddress */\n      swap1\n      0xffffffffffffffffffffffffffffffffffffffff\n      and\n      swap1\n      dup2\n      0xffffffffffffffffffffffffffffffffffffffff\n      and\n      dup2\n      mstore\n      pop\n      pop\n        /* \"smart-contracts/playground/main/Canvassing.sol\":1792:1799  _gender */\n      dup5\n        /* \"smart-contracts/playground/main/Canvassing.sol\":1768:1782  newParticipant */\n      dup2\n        /* \"smart-contracts/playground/main/Canvassing.sol\":1768:1789  newParticipant.gender */\n      0x40\n      add\n        /* \"smart-contracts/playground/main/Canvassing.sol\":1768:1799  newParticipant.gender = _gender */\n      dup2\n      swap1\n      mstore\n      pop\n        /* \"smart-contracts/playground/main/Canvassing.sol\":1834:1842  _country */\n      dup4\n        /* \"smart-contracts/playground/main/Canvassing.sol\":1809:1823  newParticipant */\n      dup2\n        /* \"smart-contracts/playground/main/Canvassing.sol\":1809:1831  newParticipant.country */\n      0x60\n      add\n        /* \"smart-contracts/playground/main/Canvassing.sol\":1809:1842  newParticipant.country = _country */\n      dup2\n      swap1\n      mstore\n      pop\n        /* \"smart-contracts/playground/main/Canvassing.sol\":1881:1893  _yearOfBirth */\n      dup3\n        /* \"smart-contracts/playground/main/Canvassing.sol\":1852:1866  newParticipant */\n      dup2\n        /* \"smart-contracts/playground/main/Canvassing.sol\":1852:1878  newParticipant.yearOfBirth */\n      0x80\n      add\n        /* \"smart-contracts/playground/main/Canvassing.sol\":1852:1893  newParticipant.yearOfBirth = _yearOfBirth */\n      dup2\n      dup2\n      mstore\n      pop\n      pop\n        /* \"smart-contracts/playground/main/Canvassing.sol\":1946:1947  0 */\n      0x00\n        /* \"smart-contracts/playground/main/Canvassing.sol\":1903:1917  newParticipant */\n      dup2\n        /* \"smart-contracts/playground/main/Canvassing.sol\":1903:1943  newParticipant.totalNumberOfSurveysTaken */\n      0xa0\n      add\n        /* \"smart-contracts/playground/main/Canvassing.sol\":1903:1947  newParticipant.totalNumberOfSurveysTaken = 0 */\n      dup2\n      dup2\n      mstore\n      pop\n      pop\n        /* \"smart-contracts/playground/main/Canvassing.sol\":1988:1993  false */\n      0x00\n        /* \"smart-contracts/playground/main/Canvassing.sol\":1958:1972  newParticipant */\n      dup2\n        /* \"smart-contracts/playground/main/Canvassing.sol\":1958:1985  newParticipant.isResearcher */\n      0xc0\n      add\n        /* \"smart-contracts/playground/main/Canvassing.sol\":1958:1993  newParticipant.isResearcher = false */\n      swap1\n      iszero\n      iszero\n      swap1\n      dup2\n      iszero\n      iszero\n      dup2\n      mstore\n      pop\n      pop\n        /* \"smart-contracts/playground/main/Canvassing.sol\":2028:2033  false */\n      0x00\n        /* \"smart-contracts/playground/main/Canvassing.sol\":2003:2017  newParticipant */\n      dup2\n        /* \"smart-contracts/playground/main/Canvassing.sol\":2003:2025  newParticipant.isBlank */\n      0xe0\n      add\n        /* \"smart-contracts/playground/main/Canvassing.sol\":2003:2033  newParticipant.isBlank = false */\n      swap1\n      iszero\n      iszero\n      swap1\n      dup2\n      iszero\n      iszero\n      dup2\n      mstore\n      pop\n      pop\n        /* \"smart-contracts/playground/main/Canvassing.sol\":2078:2092  newParticipant */\n      dup1\n        /* \"smart-contracts/playground/main/Canvassing.sol\":2044:2059  allParticipants */\n      0x02\n        /* \"smart-contracts/playground/main/Canvassing.sol\":2044:2075  allParticipants[_walletAddress] */\n      0x00\n        /* \"smart-contracts/playground/main/Canvassing.sol\":2060:2074  _walletAddress */\n      dup9\n        /* \"smart-contracts/playground/main/Canvassing.sol\":2044:2075  allParticipants[_walletAddress] */\n      0xffffffffffffffffffffffffffffffffffffffff\n      and\n      0xffffffffffffffffffffffffffffffffffffffff\n      and\n      dup2\n      mstore\n      0x20\n      add\n      swap1\n      dup2\n      mstore\n      0x20\n      add\n      0x00\n      keccak256\n        /* \"smart-contracts/playground/main/Canvassing.sol\":2044:2092  allParticipants[_walletAddress] = newParticipant */\n      0x00\n      dup3\n      add\n      mload\n      dup2\n      0x00\n      add\n      sstore\n      0x20\n      dup3\n      add\n      mload\n      dup2\n      0x01\n      add\n      exp(0x0100, 0x00)\n      dup2\n      sload\n      dup2\n      0xffffffffffffffffffffffffffffffffffffffff\n      mul\n      not\n      and\n      swap1\n      dup4\n      0xffffffffffffffffffffffffffffffffffffffff\n      and\n      mul\n      or\n      swap1\n      sstore\n      pop\n      0x40\n      dup3\n      add\n      mload\n      dup2\n      0x02\n      add\n      swap1\n      dup2\n      tag_102\n      swap2\n      swap1\n      tag_103\n      jump\t// in\n    tag_102:\n      pop\n      0x60\n      dup3\n      add\n      mload\n      dup2\n      0x03\n      add\n      swap1\n      dup2\n      tag_104\n      swap2\n      swap1\n      tag_103\n      jump\t// in\n    tag_104:\n      pop\n      0x80\n      dup3\n      add\n      mload\n      dup2\n      0x04\n      add\n      sstore\n      0xa0\n      dup3\n      add\n      mload\n      dup2\n      0x05\n      add\n      sstore\n      0xc0\n      dup3\n      add\n      mload\n      dup2\n      0x06\n      add\n      exp(0x0100, 0x00)\n      dup2\n      sload\n      dup2\n      0xff\n      mul\n      not\n      and\n      swap1\n      dup4\n      iszero\n      iszero\n      mul\n      or\n      swap1\n      sstore\n      pop\n      0xe0\n      dup3\n      add\n      mload\n      dup2\n      0x06\n      add\n      exp(0x0100, 0x01)\n      dup2\n      sload\n      dup2\n      0xff\n      mul\n      not\n      and\n      swap1\n      dup4\n      iszero\n      iszero\n      mul\n      or\n      swap1\n      sstore\n      pop\n      swap1\n      pop\n      pop\n        /* \"smart-contracts/playground/main/Canvassing.sol\":2103:2121  newParticipantId++ */\n      dup2\n      dup1\n      tag_105\n      swap1\n      tag_78\n      jump\t// in\n    tag_105:\n      swap3\n      pop\n      pop\n        /* \"smart-contracts/playground/main/Canvassing.sol\":1555:2128  {... */\n      pop\n      pop\n        /* \"smart-contracts/playground/main/Canvassing.sol\":1390:2128  function createParticipant(... */\n      pop\n      pop\n      pop\n      pop\n      jump\t// out\n        /* \"smart-contracts/playground/main/Canvassing.sol\":1000:1191  function checkIfParticipantExists(address _walletAddress)... */\n    tag_33:\n        /* \"smart-contracts/playground/main/Canvassing.sol\":1103:1107  bool */\n      0x00\n        /* \"smart-contracts/playground/main/Canvassing.sol\":1130:1145  allParticipants */\n      0x02\n        /* \"smart-contracts/playground/main/Canvassing.sol\":1130:1161  allParticipants[_walletAddress] */\n      0x00\n        /* \"smart-contracts/playground/main/Canvassing.sol\":1146:1160  _walletAddress */\n      dup4\n        /* \"smart-contracts/playground/main/Canvassing.sol\":1130:1161  allParticipants[_walletAddress] */\n      0xffffffffffffffffffffffffffffffffffffffff\n      and\n      0xffffffffffffffffffffffffffffffffffffffff\n      and\n      dup2\n      mstore\n      0x20\n      add\n      swap1\n      dup2\n      mstore\n      0x20\n      add\n      0x00\n      keccak256\n        /* \"smart-contracts/playground/main/Canvassing.sol\":1130:1169  allParticipants[_walletAddress].isBlank */\n      0x06\n      add\n      0x01\n      swap1\n      sload\n      swap1\n      0x0100\n      exp\n      swap1\n      div\n      0xff\n      and\n        /* \"smart-contracts/playground/main/Canvassing.sol\":1130:1184  allParticipants[_walletAddress].isBlank ? false : true */\n      tag_107\n      jumpi\n        /* \"smart-contracts/playground/main/Canvassing.sol\":1180:1184  true */\n      0x01\n        /* \"smart-contracts/playground/main/Canvassing.sol\":1130:1184  allParticipants[_walletAddress].isBlank ? false : true */\n      jump(tag_108)\n    tag_107:\n        /* \"smart-contracts/playground/main/Canvassing.sol\":1172:1177  false */\n      0x00\n        /* \"smart-contracts/playground/main/Canvassing.sol\":1130:1184  allParticipants[_walletAddress].isBlank ? false : true */\n    tag_108:\n        /* \"smart-contracts/playground/main/Canvassing.sol\":1123:1184  return allParticipants[_walletAddress].isBlank ? false : true */\n      swap1\n      pop\n        /* \"smart-contracts/playground/main/Canvassing.sol\":1000:1191  function checkIfParticipantExists(address _walletAddress)... */\n      swap2\n      swap1\n      pop\n      jump\t// out\n        /* \"smart-contracts/playground/main/Canvassing.sol\":2134:2231  function getAllSurveys() public view returns (Survey[] memory) {... */\n    tag_37:\n        /* \"smart-contracts/playground/main/Canvassing.sol\":2180:2195  Survey[] memory */\n      0x60\n        /* \"smart-contracts/playground/main/Canvassing.sol\":2214:2224  allSurveys */\n      0x03\n        /* \"smart-contracts/playground/main/Canvassing.sol\":2207:2224  return allSurveys */\n      dup1\n      sload\n      dup1\n      0x20\n      mul\n      0x20\n      add\n      mload(0x40)\n      swap1\n      dup2\n      add\n      0x40\n      mstore\n      dup1\n      swap3\n      swap2\n      swap1\n      dup2\n      dup2\n      mstore\n      0x20\n      add\n      0x00\n      swap1\n    tag_110:\n      dup3\n      dup3\n      lt\n      iszero\n      tag_111\n      jumpi\n      dup4\n      dup3\n      swap1\n      0x00\n      mstore\n      keccak256(0x00, 0x20)\n      swap1\n      0x06\n      mul\n      add\n      mload(0x40)\n      dup1\n      0xc0\n      add\n      0x40\n      mstore\n      swap1\n      dup2\n      0x00\n      dup3\n      add\n      sload\n      dup2\n      mstore\n      0x20\n      add\n      0x01\n      dup3\n      add\n      0x00\n      swap1\n      sload\n      swap1\n      0x0100\n      exp\n      swap1\n      div\n      0xffffffffffffffffffffffffffffffffffffffff\n      and\n      0xffffffffffffffffffffffffffffffffffffffff\n      and\n      0xffffffffffffffffffffffffffffffffffffffff\n      and\n      dup2\n      mstore\n      0x20\n      add\n      0x02\n      dup3\n      add\n      sload\n      dup2\n      mstore\n      0x20\n      add\n      0x03\n      dup3\n      add\n      sload\n      dup2\n      mstore\n      0x20\n      add\n      0x04\n      dup3\n      add\n      sload\n      dup2\n      mstore\n      0x20\n      add\n      0x05\n      dup3\n      add\n      0x00\n      swap1\n      sload\n      swap1\n      0x0100\n      exp\n      swap1\n      div\n      0xff\n      and\n      iszero\n      iszero\n      iszero\n      iszero\n      dup2\n      mstore\n      pop\n      pop\n      dup2\n      mstore\n      0x20\n      add\n      swap1\n      0x01\n      add\n      swap1\n      jump(tag_110)\n    tag_111:\n      pop\n      pop\n      pop\n      pop\n      swap1\n      pop\n        /* \"smart-contracts/playground/main/Canvassing.sol\":2134:2231  function getAllSurveys() public view returns (Survey[] memory) {... */\n      swap1\n      jump\t// out\n        /* \"smart-contracts/playground/main/Canvassing.sol\":2237:2388  function getSurveyById(uint256 _surveyId)... */\n    tag_42:\n        /* \"smart-contracts/playground/main/Canvassing.sol\":2324:2337  Survey memory */\n      tag_113\n      tag_87\n      jump\t// in\n    tag_113:\n        /* \"smart-contracts/playground/main/Canvassing.sol\":2360:2370  allSurveys */\n      0x03\n        /* \"smart-contracts/playground/main/Canvassing.sol\":2371:2380  _surveyId */\n      dup3\n        /* \"smart-contracts/playground/main/Canvassing.sol\":2360:2381  allSurveys[_surveyId] */\n      dup2\n      sload\n      dup2\n      lt\n      tag_115\n      jumpi\n      tag_116\n      tag_72\n      jump\t// in\n    tag_116:\n    tag_115:\n      swap1\n      0x00\n      mstore\n      keccak256(0x00, 0x20)\n      swap1\n      0x06\n      mul\n      add\n        /* \"smart-contracts/playground/main/Canvassing.sol\":2353:2381  return allSurveys[_surveyId] */\n      mload(0x40)\n      dup1\n      0xc0\n      add\n      0x40\n      mstore\n      swap1\n      dup2\n      0x00\n      dup3\n      add\n      sload\n      dup2\n      mstore\n      0x20\n      add\n      0x01\n      dup3\n      add\n      0x00\n      swap1\n      sload\n      swap1\n      0x0100\n      exp\n      swap1\n      div\n      0xffffffffffffffffffffffffffffffffffffffff\n      and\n      0xffffffffffffffffffffffffffffffffffffffff\n      and\n      0xffffffffffffffffffffffffffffffffffffffff\n      and\n      dup2\n      mstore\n      0x20\n      add\n      0x02\n      dup3\n      add\n      sload\n      dup2\n      mstore\n      0x20\n      add\n      0x03\n      dup3\n      add\n      sload\n      dup2\n      mstore\n      0x20\n      add\n      0x04\n      dup3\n      add\n      sload\n      dup2\n      mstore\n      0x20\n      add\n      0x05\n      dup3\n      add\n      0x00\n      swap1\n      sload\n      swap1\n      0x0100\n      exp\n      swap1\n      div\n      0xff\n      and\n      iszero\n      iszero\n      iszero\n      iszero\n      dup2\n      mstore\n      pop\n      pop\n      swap1\n      pop\n        /* \"smart-contracts/playground/main/Canvassing.sol\":2237:2388  function getSurveyById(uint256 _surveyId)... */\n      swap2\n      swap1\n      pop\n      jump\t// out\n    tag_46:\n      mload(0x40)\n      dup1\n      0x0100\n      add\n      0x40\n      mstore\n      dup1\n      0x00\n      dup2\n      mstore\n      0x20\n      add\n      and(0xffffffffffffffffffffffffffffffffffffffff, 0x00)\n      dup2\n      mstore\n      0x20\n      add\n      0x60\n      dup2\n      mstore\n      0x20\n      add\n      0x60\n      dup2\n      mstore\n      0x20\n      add\n      0x00\n      dup2\n      mstore\n      0x20\n      add\n      0x00\n      dup2\n      mstore\n      0x20\n      add\n      iszero(iszero(0x00))\n      dup2\n      mstore\n      0x20\n      add\n      iszero(iszero(0x00))\n      dup2\n      mstore\n      pop\n      swap1\n      jump\t// out\n    tag_66:\n      mload(0x40)\n      dup1\n      0xa0\n      add\n      0x40\n      mstore\n      dup1\n      0x00\n      dup2\n      mstore\n      0x20\n      add\n      0x00\n      dup2\n      mstore\n      0x20\n      add\n      and(0xffffffffffffffffffffffffffffffffffffffff, 0x00)\n      dup2\n      mstore\n      0x20\n      add\n      0x00\n      dup2\n      mstore\n      0x20\n      add\n      iszero(iszero(0x00))\n      dup2\n      mstore\n      pop\n      swap1\n      jump\t// out\n    tag_87:\n      mload(0x40)\n      dup1\n      0xc0\n      add\n      0x40\n      mstore\n      dup1\n      0x00\n      dup2\n      mstore\n      0x20\n      add\n      and(0xffffffffffffffffffffffffffffffffffffffff, 0x00)\n      dup2\n      mstore\n      0x20\n      add\n      0x00\n      dup2\n      mstore\n      0x20\n      add\n      0x00\n      dup2\n      mstore\n      0x20\n      add\n      0x00\n      dup2\n      mstore\n      0x20\n      add\n      iszero(iszero(0x00))\n      dup2\n      mstore\n      pop\n      swap1\n      jump\t// out\n        /* \"#utility.yul\":7:82   */\n    tag_118:\n        /* \"#utility.yul\":40:46   */\n      0x00\n        /* \"#utility.yul\":73:75   */\n      0x40\n        /* \"#utility.yul\":67:76   */\n      mload\n        /* \"#utility.yul\":57:76   */\n      swap1\n      pop\n        /* \"#utility.yul\":7:82   */\n      swap1\n      jump\t// out\n        /* \"#utility.yul\":88:205   */\n    tag_119:\n        /* \"#utility.yul\":197:198   */\n      0x00\n        /* \"#utility.yul\":194:195   */\n      dup1\n        /* \"#utility.yul\":187:199   */\n      revert\n        /* \"#utility.yul\":211:328   */\n    tag_120:\n        /* \"#utility.yul\":320:321   */\n      0x00\n        /* \"#utility.yul\":317:318   */\n      dup1\n        /* \"#utility.yul\":310:322   */\n      revert\n        /* \"#utility.yul\":334:460   */\n    tag_121:\n        /* \"#utility.yul\":371:378   */\n      0x00\n        /* \"#utility.yul\":411:453   */\n      0xffffffffffffffffffffffffffffffffffffffff\n        /* \"#utility.yul\":404:409   */\n      dup3\n        /* \"#utility.yul\":400:454   */\n      and\n        /* \"#utility.yul\":389:454   */\n      swap1\n      pop\n        /* \"#utility.yul\":334:460   */\n      swap2\n      swap1\n      pop\n      jump\t// out\n        /* \"#utility.yul\":466:562   */\n    tag_122:\n        /* \"#utility.yul\":503:510   */\n      0x00\n        /* \"#utility.yul\":532:556   */\n      tag_185\n        /* \"#utility.yul\":550:555   */\n      dup3\n        /* \"#utility.yul\":532:556   */\n      tag_121\n      jump\t// in\n    tag_185:\n        /* \"#utility.yul\":521:556   */\n      swap1\n      pop\n        /* \"#utility.yul\":466:562   */\n      swap2\n      swap1\n      pop\n      jump\t// out\n        /* \"#utility.yul\":568:690   */\n    tag_123:\n        /* \"#utility.yul\":641:665   */\n      tag_187\n        /* \"#utility.yul\":659:664   */\n      dup2\n        /* \"#utility.yul\":641:665   */\n      tag_122\n      jump\t// in\n    tag_187:\n        /* \"#utility.yul\":634:639   */\n      dup2\n        /* \"#utility.yul\":631:666   */\n      eq\n        /* \"#utility.yul\":621:684   */\n      tag_188\n      jumpi\n        /* \"#utility.yul\":680:681   */\n      0x00\n        /* \"#utility.yul\":677:678   */\n      dup1\n        /* \"#utility.yul\":670:682   */\n      revert\n        /* \"#utility.yul\":621:684   */\n    tag_188:\n        /* \"#utility.yul\":568:690   */\n      pop\n      jump\t// out\n        /* \"#utility.yul\":696:835   */\n    tag_124:\n        /* \"#utility.yul\":742:747   */\n      0x00\n        /* \"#utility.yul\":780:786   */\n      dup2\n        /* \"#utility.yul\":767:787   */\n      calldataload\n        /* \"#utility.yul\":758:787   */\n      swap1\n      pop\n        /* \"#utility.yul\":796:829   */\n      tag_190\n        /* \"#utility.yul\":823:828   */\n      dup2\n        /* \"#utility.yul\":796:829   */\n      tag_123\n      jump\t// in\n    tag_190:\n        /* \"#utility.yul\":696:835   */\n      swap3\n      swap2\n      pop\n      pop\n      jump\t// out\n        /* \"#utility.yul\":841:1170   */\n    tag_13:\n        /* \"#utility.yul\":900:906   */\n      0x00\n        /* \"#utility.yul\":949:951   */\n      0x20\n        /* \"#utility.yul\":937:946   */\n      dup3\n        /* \"#utility.yul\":928:935   */\n      dup5\n        /* \"#utility.yul\":924:947   */\n      sub\n        /* \"#utility.yul\":920:952   */\n      slt\n        /* \"#utility.yul\":917:1036   */\n      iszero\n      tag_192\n      jumpi\n        /* \"#utility.yul\":955:1034   */\n      tag_193\n      tag_119\n      jump\t// in\n    tag_193:\n        /* \"#utility.yul\":917:1036   */\n    tag_192:\n        /* \"#utility.yul\":1075:1076   */\n      0x00\n        /* \"#utility.yul\":1100:1153   */\n      tag_194\n        /* \"#utility.yul\":1145:1152   */\n      dup5\n        /* \"#utility.yul\":1136:1142   */\n      dup3\n        /* \"#utility.yul\":1125:1134   */\n      dup6\n        /* \"#utility.yul\":1121:1143   */\n      add\n        /* \"#utility.yul\":1100:1153   */\n      tag_124\n      jump\t// in\n    tag_194:\n        /* \"#utility.yul\":1090:1153   */\n      swap2\n      pop\n        /* \"#utility.yul\":1046:1163   */\n      pop\n        /* \"#utility.yul\":841:1170   */\n      swap3\n      swap2\n      pop\n      pop\n      jump\t// out\n        /* \"#utility.yul\":1176:1253   */\n    tag_125:\n        /* \"#utility.yul\":1213:1220   */\n      0x00\n        /* \"#utility.yul\":1242:1247   */\n      dup2\n        /* \"#utility.yul\":1231:1247   */\n      swap1\n      pop\n        /* \"#utility.yul\":1176:1253   */\n      swap2\n      swap1\n      pop\n      jump\t// out\n        /* \"#utility.yul\":1259:1367   */\n    tag_126:\n        /* \"#utility.yul\":1336:1360   */\n      tag_197\n        /* \"#utility.yul\":1354:1359   */\n      dup2\n        /* \"#utility.yul\":1336:1360   */\n      tag_125\n      jump\t// in\n    tag_197:\n        /* \"#utility.yul\":1331:1334   */\n      dup3\n        /* \"#utility.yul\":1324:1361   */\n      mstore\n        /* \"#utility.yul\":1259:1367   */\n      pop\n      pop\n      jump\t// out\n        /* \"#utility.yul\":1373:1481   */\n    tag_127:\n        /* \"#utility.yul\":1450:1474   */\n      tag_199\n        /* \"#utility.yul\":1468:1473   */\n      dup2\n        /* \"#utility.yul\":1450:1474   */\n      tag_122\n      jump\t// in\n    tag_199:\n        /* \"#utility.yul\":1445:1448   */\n      dup3\n        /* \"#utility.yul\":1438:1475   */\n      mstore\n        /* \"#utility.yul\":1373:1481   */\n      pop\n      pop\n      jump\t// out\n        /* \"#utility.yul\":1487:1586   */\n    tag_128:\n        /* \"#utility.yul\":1539:1545   */\n      0x00\n        /* \"#utility.yul\":1573:1578   */\n      dup2\n        /* \"#utility.yul\":1567:1579   */\n      mload\n        /* \"#utility.yul\":1557:1579   */\n      swap1\n      pop\n        /* \"#utility.yul\":1487:1586   */\n      swap2\n      swap1\n      pop\n      jump\t// out\n        /* \"#utility.yul\":1592:1751   */\n    tag_129:\n        /* \"#utility.yul\":1666:1677   */\n      0x00\n        /* \"#utility.yul\":1700:1706   */\n      dup3\n        /* \"#utility.yul\":1695:1698   */\n      dup3\n        /* \"#utility.yul\":1688:1707   */\n      mstore\n        /* \"#utility.yul\":1740:1744   */\n      0x20\n        /* \"#utility.yul\":1735:1738   */\n      dup3\n        /* \"#utility.yul\":1731:1745   */\n      add\n        /* \"#utility.yul\":1716:1745   */\n      swap1\n      pop\n        /* \"#utility.yul\":1592:1751   */\n      swap3\n      swap2\n      pop\n      pop\n      jump\t// out\n        /* \"#utility.yul\":1757:2003   */\n    tag_130:\n        /* \"#utility.yul\":1838:1839   */\n      0x00\n        /* \"#utility.yul\":1848:1961   */\n    tag_203:\n        /* \"#utility.yul\":1862:1868   */\n      dup4\n        /* \"#utility.yul\":1859:1860   */\n      dup2\n        /* \"#utility.yul\":1856:1869   */\n      lt\n        /* \"#utility.yul\":1848:1961   */\n      iszero\n      tag_205\n      jumpi\n        /* \"#utility.yul\":1947:1948   */\n      dup1\n        /* \"#utility.yul\":1942:1945   */\n      dup3\n        /* \"#utility.yul\":1938:1949   */\n      add\n        /* \"#utility.yul\":1932:1950   */\n      mload\n        /* \"#utility.yul\":1928:1929   */\n      dup2\n        /* \"#utility.yul\":1923:1926   */\n      dup5\n        /* \"#utility.yul\":1919:1930   */\n      add\n        /* \"#utility.yul\":1912:1951   */\n      mstore\n        /* \"#utility.yul\":1884:1886   */\n      0x20\n        /* \"#utility.yul\":1881:1882   */\n      dup2\n        /* \"#utility.yul\":1877:1887   */\n      add\n        /* \"#utility.yul\":1872:1887   */\n      swap1\n      pop\n        /* \"#utility.yul\":1848:1961   */\n      jump(tag_203)\n    tag_205:\n        /* \"#utility.yul\":1995:1996   */\n      0x00\n        /* \"#utility.yul\":1986:1992   */\n      dup5\n        /* \"#utility.yul\":1981:1984   */\n      dup5\n        /* \"#utility.yul\":1977:1993   */\n      add\n        /* \"#utility.yul\":1970:1997   */\n      mstore\n        /* \"#utility.yul\":1819:2003   */\n      pop\n        /* \"#utility.yul\":1757:2003   */\n      pop\n      pop\n      pop\n      jump\t// out\n        /* \"#utility.yul\":2009:2111   */\n    tag_131:\n        /* \"#utility.yul\":2050:2056   */\n      0x00\n        /* \"#utility.yul\":2101:2103   */\n      0x1f\n        /* \"#utility.yul\":2097:2104   */\n      not\n        /* \"#utility.yul\":2092:2094   */\n      0x1f\n        /* \"#utility.yul\":2085:2090   */\n      dup4\n        /* \"#utility.yul\":2081:2095   */\n      add\n        /* \"#utility.yul\":2077:2105   */\n      and\n        /* \"#utility.yul\":2067:2105   */\n      swap1\n      pop\n        /* \"#utility.yul\":2009:2111   */\n      swap2\n      swap1\n      pop\n      jump\t// out\n        /* \"#utility.yul\":2117:2474   */\n    tag_132:\n        /* \"#utility.yul\":2195:2198   */\n      0x00\n        /* \"#utility.yul\":2223:2262   */\n      tag_208\n        /* \"#utility.yul\":2256:2261   */\n      dup3\n        /* \"#utility.yul\":2223:2262   */\n      tag_128\n      jump\t// in\n    tag_208:\n        /* \"#utility.yul\":2278:2339   */\n      tag_209\n        /* \"#utility.yul\":2332:2338   */\n      dup2\n        /* \"#utility.yul\":2327:2330   */\n      dup6\n        /* \"#utility.yul\":2278:2339   */\n      tag_129\n      jump\t// in\n    tag_209:\n        /* \"#utility.yul\":2271:2339   */\n      swap4\n      pop\n        /* \"#utility.yul\":2348:2413   */\n      tag_210\n        /* \"#utility.yul\":2406:2412   */\n      dup2\n        /* \"#utility.yul\":2401:2404   */\n      dup6\n        /* \"#utility.yul\":2394:2398   */\n      0x20\n        /* \"#utility.yul\":2387:2392   */\n      dup7\n        /* \"#utility.yul\":2383:2399   */\n      add\n        /* \"#utility.yul\":2348:2413   */\n      tag_130\n      jump\t// in\n    tag_210:\n        /* \"#utility.yul\":2438:2467   */\n      tag_211\n        /* \"#utility.yul\":2460:2466   */\n      dup2\n        /* \"#utility.yul\":2438:2467   */\n      tag_131\n      jump\t// in\n    tag_211:\n        /* \"#utility.yul\":2433:2436   */\n      dup5\n        /* \"#utility.yul\":2429:2468   */\n      add\n        /* \"#utility.yul\":2422:2468   */\n      swap2\n      pop\n        /* \"#utility.yul\":2199:2474   */\n      pop\n        /* \"#utility.yul\":2117:2474   */\n      swap3\n      swap2\n      pop\n      pop\n      jump\t// out\n        /* \"#utility.yul\":2480:2570   */\n    tag_133:\n        /* \"#utility.yul\":2514:2521   */\n      0x00\n        /* \"#utility.yul\":2557:2562   */\n      dup2\n        /* \"#utility.yul\":2550:2563   */\n      iszero\n        /* \"#utility.yul\":2543:2564   */\n      iszero\n        /* \"#utility.yul\":2532:2564   */\n      swap1\n      pop\n        /* \"#utility.yul\":2480:2570   */\n      swap2\n      swap1\n      pop\n      jump\t// out\n        /* \"#utility.yul\":2576:2675   */\n    tag_134:\n        /* \"#utility.yul\":2647:2668   */\n      tag_214\n        /* \"#utility.yul\":2662:2667   */\n      dup2\n        /* \"#utility.yul\":2647:2668   */\n      tag_133\n      jump\t// in\n    tag_214:\n        /* \"#utility.yul\":2642:2645   */\n      dup3\n        /* \"#utility.yul\":2635:2669   */\n      mstore\n        /* \"#utility.yul\":2576:2675   */\n      pop\n      pop\n      jump\t// out\n        /* \"#utility.yul\":2729:4497   */\n    tag_135:\n        /* \"#utility.yul\":2854:2857   */\n      0x00\n        /* \"#utility.yul\":2890:2896   */\n      0x0100\n        /* \"#utility.yul\":2885:2888   */\n      dup4\n        /* \"#utility.yul\":2881:2897   */\n      add\n        /* \"#utility.yul\":2977:2981   */\n      0x00\n        /* \"#utility.yul\":2970:2975   */\n      dup4\n        /* \"#utility.yul\":2966:2982   */\n      add\n        /* \"#utility.yul\":2960:2983   */\n      mload\n        /* \"#utility.yul\":2996:3059   */\n      tag_216\n        /* \"#utility.yul\":3053:3057   */\n      0x00\n        /* \"#utility.yul\":3048:3051   */\n      dup7\n        /* \"#utility.yul\":3044:3058   */\n      add\n        /* \"#utility.yul\":3030:3042   */\n      dup3\n        /* \"#utility.yul\":2996:3059   */\n      tag_126\n      jump\t// in\n    tag_216:\n        /* \"#utility.yul\":2907:3069   */\n      pop\n        /* \"#utility.yul\":3160:3164   */\n      0x20\n        /* \"#utility.yul\":3153:3158   */\n      dup4\n        /* \"#utility.yul\":3149:3165   */\n      add\n        /* \"#utility.yul\":3143:3166   */\n      mload\n        /* \"#utility.yul\":3179:3242   */\n      tag_217\n        /* \"#utility.yul\":3236:3240   */\n      0x20\n        /* \"#utility.yul\":3231:3234   */\n      dup7\n        /* \"#utility.yul\":3227:3241   */\n      add\n        /* \"#utility.yul\":3213:3225   */\n      dup3\n        /* \"#utility.yul\":3179:3242   */\n      tag_127\n      jump\t// in\n    tag_217:\n        /* \"#utility.yul\":3079:3252   */\n      pop\n        /* \"#utility.yul\":3336:3340   */\n      0x40\n        /* \"#utility.yul\":3329:3334   */\n      dup4\n        /* \"#utility.yul\":3325:3341   */\n      add\n        /* \"#utility.yul\":3319:3342   */\n      mload\n        /* \"#utility.yul\":3389:3392   */\n      dup5\n        /* \"#utility.yul\":3383:3387   */\n      dup3\n        /* \"#utility.yul\":3379:3393   */\n      sub\n        /* \"#utility.yul\":3372:3376   */\n      0x40\n        /* \"#utility.yul\":3367:3370   */\n      dup7\n        /* \"#utility.yul\":3363:3377   */\n      add\n        /* \"#utility.yul\":3356:3394   */\n      mstore\n        /* \"#utility.yul\":3415:3488   */\n      tag_218\n        /* \"#utility.yul\":3483:3487   */\n      dup3\n        /* \"#utility.yul\":3469:3481   */\n      dup3\n        /* \"#utility.yul\":3415:3488   */\n      tag_132\n      jump\t// in\n    tag_218:\n        /* \"#utility.yul\":3407:3488   */\n      swap2\n      pop\n        /* \"#utility.yul\":3262:3499   */\n      pop\n        /* \"#utility.yul\":3584:3588   */\n      0x60\n        /* \"#utility.yul\":3577:3582   */\n      dup4\n        /* \"#utility.yul\":3573:3589   */\n      add\n        /* \"#utility.yul\":3567:3590   */\n      mload\n        /* \"#utility.yul\":3637:3640   */\n      dup5\n        /* \"#utility.yul\":3631:3635   */\n      dup3\n        /* \"#utility.yul\":3627:3641   */\n      sub\n        /* \"#utility.yul\":3620:3624   */\n      0x60\n        /* \"#utility.yul\":3615:3618   */\n      dup7\n        /* \"#utility.yul\":3611:3625   */\n      add\n        /* \"#utility.yul\":3604:3642   */\n      mstore\n        /* \"#utility.yul\":3663:3736   */\n      tag_219\n        /* \"#utility.yul\":3731:3735   */\n      dup3\n        /* \"#utility.yul\":3717:3729   */\n      dup3\n        /* \"#utility.yul\":3663:3736   */\n      tag_132\n      jump\t// in\n    tag_219:\n        /* \"#utility.yul\":3655:3736   */\n      swap2\n      pop\n        /* \"#utility.yul\":3509:3747   */\n      pop\n        /* \"#utility.yul\":3836:3840   */\n      0x80\n        /* \"#utility.yul\":3829:3834   */\n      dup4\n        /* \"#utility.yul\":3825:3841   */\n      add\n        /* \"#utility.yul\":3819:3842   */\n      mload\n        /* \"#utility.yul\":3855:3918   */\n      tag_220\n        /* \"#utility.yul\":3912:3916   */\n      0x80\n        /* \"#utility.yul\":3907:3910   */\n      dup7\n        /* \"#utility.yul\":3903:3917   */\n      add\n        /* \"#utility.yul\":3889:3901   */\n      dup3\n        /* \"#utility.yul\":3855:3918   */\n      tag_126\n      jump\t// in\n    tag_220:\n        /* \"#utility.yul\":3757:3928   */\n      pop\n        /* \"#utility.yul\":4031:4035   */\n      0xa0\n        /* \"#utility.yul\":4024:4029   */\n      dup4\n        /* \"#utility.yul\":4020:4036   */\n      add\n        /* \"#utility.yul\":4014:4037   */\n      mload\n        /* \"#utility.yul\":4050:4113   */\n      tag_221\n        /* \"#utility.yul\":4107:4111   */\n      0xa0\n        /* \"#utility.yul\":4102:4105   */\n      dup7\n        /* \"#utility.yul\":4098:4112   */\n      add\n        /* \"#utility.yul\":4084:4096   */\n      dup3\n        /* \"#utility.yul\":4050:4113   */\n      tag_126\n      jump\t// in\n    tag_221:\n        /* \"#utility.yul\":3938:4123   */\n      pop\n        /* \"#utility.yul\":4213:4217   */\n      0xc0\n        /* \"#utility.yul\":4206:4211   */\n      dup4\n        /* \"#utility.yul\":4202:4218   */\n      add\n        /* \"#utility.yul\":4196:4219   */\n      mload\n        /* \"#utility.yul\":4232:4289   */\n      tag_222\n        /* \"#utility.yul\":4283:4287   */\n      0xc0\n        /* \"#utility.yul\":4278:4281   */\n      dup7\n        /* \"#utility.yul\":4274:4288   */\n      add\n        /* \"#utility.yul\":4260:4272   */\n      dup3\n        /* \"#utility.yul\":4232:4289   */\n      tag_134\n      jump\t// in\n    tag_222:\n        /* \"#utility.yul\":4133:4299   */\n      pop\n        /* \"#utility.yul\":4384:4388   */\n      0xe0\n        /* \"#utility.yul\":4377:4382   */\n      dup4\n        /* \"#utility.yul\":4373:4389   */\n      add\n        /* \"#utility.yul\":4367:4390   */\n      mload\n        /* \"#utility.yul\":4403:4460   */\n      tag_223\n        /* \"#utility.yul\":4454:4458   */\n      0xe0\n        /* \"#utility.yul\":4449:4452   */\n      dup7\n        /* \"#utility.yul\":4445:4459   */\n      add\n        /* \"#utility.yul\":4431:4443   */\n      dup3\n        /* \"#utility.yul\":4403:4460   */\n      tag_134\n      jump\t// in\n    tag_223:\n        /* \"#utility.yul\":4309:4470   */\n      pop\n        /* \"#utility.yul\":4487:4491   */\n      dup1\n        /* \"#utility.yul\":4480:4491   */\n      swap2\n      pop\n        /* \"#utility.yul\":2859:4497   */\n      pop\n        /* \"#utility.yul\":2729:4497   */\n      swap3\n      swap2\n      pop\n      pop\n      jump\t// out\n        /* \"#utility.yul\":4503:4888   */\n    tag_16:\n        /* \"#utility.yul\":4652:4656   */\n      0x00\n        /* \"#utility.yul\":4690:4692   */\n      0x20\n        /* \"#utility.yul\":4679:4688   */\n      dup3\n        /* \"#utility.yul\":4675:4693   */\n      add\n        /* \"#utility.yul\":4667:4693   */\n      swap1\n      pop\n        /* \"#utility.yul\":4739:4748   */\n      dup2\n        /* \"#utility.yul\":4733:4737   */\n      dup2\n        /* \"#utility.yul\":4729:4749   */\n      sub\n        /* \"#utility.yul\":4725:4726   */\n      0x00\n        /* \"#utility.yul\":4714:4723   */\n      dup4\n        /* \"#utility.yul\":4710:4727   */\n      add\n        /* \"#utility.yul\":4703:4750   */\n      mstore\n        /* \"#utility.yul\":4767:4881   */\n      tag_225\n        /* \"#utility.yul\":4876:4880   */\n      dup2\n        /* \"#utility.yul\":4867:4873   */\n      dup5\n        /* \"#utility.yul\":4767:4881   */\n      tag_135\n      jump\t// in\n    tag_225:\n        /* \"#utility.yul\":4759:4881   */\n      swap1\n      pop\n        /* \"#utility.yul\":4503:4888   */\n      swap3\n      swap2\n      pop\n      pop\n      jump\t// out\n        /* \"#utility.yul\":4894:5032   */\n    tag_136:\n        /* \"#utility.yul\":4985:4991   */\n      0x00\n        /* \"#utility.yul\":5019:5024   */\n      dup2\n        /* \"#utility.yul\":5013:5025   */\n      mload\n        /* \"#utility.yul\":5003:5025   */\n      swap1\n      pop\n        /* \"#utility.yul\":4894:5032   */\n      swap2\n      swap1\n      pop\n      jump\t// out\n        /* \"#utility.yul\":5038:5246   */\n    tag_137:\n        /* \"#utility.yul\":5161:5172   */\n      0x00\n        /* \"#utility.yul\":5195:5201   */\n      dup3\n        /* \"#utility.yul\":5190:5193   */\n      dup3\n        /* \"#utility.yul\":5183:5202   */\n      mstore\n        /* \"#utility.yul\":5235:5239   */\n      0x20\n        /* \"#utility.yul\":5230:5233   */\n      dup3\n        /* \"#utility.yul\":5226:5240   */\n      add\n        /* \"#utility.yul\":5211:5240   */\n      swap1\n      pop\n        /* \"#utility.yul\":5038:5246   */\n      swap3\n      swap2\n      pop\n      pop\n      jump\t// out\n        /* \"#utility.yul\":5252:5408   */\n    tag_138:\n        /* \"#utility.yul\":5343:5347   */\n      0x00\n        /* \"#utility.yul\":5366:5369   */\n      dup2\n        /* \"#utility.yul\":5358:5369   */\n      swap1\n      pop\n        /* \"#utility.yul\":5396:5400   */\n      0x20\n        /* \"#utility.yul\":5391:5394   */\n      dup3\n        /* \"#utility.yul\":5387:5401   */\n      add\n        /* \"#utility.yul\":5379:5401   */\n      swap1\n      pop\n        /* \"#utility.yul\":5252:5408   */\n      swap2\n      swap1\n      pop\n      jump\t// out\n        /* \"#utility.yul\":5454:6504   */\n    tag_139:\n        /* \"#utility.yul\":5589:5593   */\n      0xa0\n        /* \"#utility.yul\":5584:5587   */\n      dup3\n        /* \"#utility.yul\":5580:5594   */\n      add\n        /* \"#utility.yul\":5674:5678   */\n      0x00\n        /* \"#utility.yul\":5667:5672   */\n      dup3\n        /* \"#utility.yul\":5663:5679   */\n      add\n        /* \"#utility.yul\":5657:5680   */\n      mload\n        /* \"#utility.yul\":5693:5756   */\n      tag_230\n        /* \"#utility.yul\":5750:5754   */\n      0x00\n        /* \"#utility.yul\":5745:5748   */\n      dup6\n        /* \"#utility.yul\":5741:5755   */\n      add\n        /* \"#utility.yul\":5727:5739   */\n      dup3\n        /* \"#utility.yul\":5693:5756   */\n      tag_126\n      jump\t// in\n    tag_230:\n        /* \"#utility.yul\":5604:5766   */\n      pop\n        /* \"#utility.yul\":5852:5856   */\n      0x20\n        /* \"#utility.yul\":5845:5850   */\n      dup3\n        /* \"#utility.yul\":5841:5857   */\n      add\n        /* \"#utility.yul\":5835:5858   */\n      mload\n        /* \"#utility.yul\":5871:5934   */\n      tag_231\n        /* \"#utility.yul\":5928:5932   */\n      0x20\n        /* \"#utility.yul\":5923:5926   */\n      dup6\n        /* \"#utility.yul\":5919:5933   */\n      add\n        /* \"#utility.yul\":5905:5917   */\n      dup3\n        /* \"#utility.yul\":5871:5934   */\n      tag_126\n      jump\t// in\n    tag_231:\n        /* \"#utility.yul\":5776:5944   */\n      pop\n        /* \"#utility.yul\":6046:6050   */\n      0x40\n        /* \"#utility.yul\":6039:6044   */\n      dup3\n        /* \"#utility.yul\":6035:6051   */\n      add\n        /* \"#utility.yul\":6029:6052   */\n      mload\n        /* \"#utility.yul\":6065:6128   */\n      tag_232\n        /* \"#utility.yul\":6122:6126   */\n      0x40\n        /* \"#utility.yul\":6117:6120   */\n      dup6\n        /* \"#utility.yul\":6113:6127   */\n      add\n        /* \"#utility.yul\":6099:6111   */\n      dup3\n        /* \"#utility.yul\":6065:6128   */\n      tag_127\n      jump\t// in\n    tag_232:\n        /* \"#utility.yul\":5954:6138   */\n      pop\n        /* \"#utility.yul\":6234:6238   */\n      0x60\n        /* \"#utility.yul\":6227:6232   */\n      dup3\n        /* \"#utility.yul\":6223:6239   */\n      add\n        /* \"#utility.yul\":6217:6240   */\n      mload\n        /* \"#utility.yul\":6253:6316   */\n      tag_233\n        /* \"#utility.yul\":6310:6314   */\n      0x60\n        /* \"#utility.yul\":6305:6308   */\n      dup6\n        /* \"#utility.yul\":6301:6315   */\n      add\n        /* \"#utility.yul\":6287:6299   */\n      dup3\n        /* \"#utility.yul\":6253:6316   */\n      tag_126\n      jump\t// in\n    tag_233:\n        /* \"#utility.yul\":6148:6326   */\n      pop\n        /* \"#utility.yul\":6411:6415   */\n      0x80\n        /* \"#utility.yul\":6404:6409   */\n      dup3\n        /* \"#utility.yul\":6400:6416   */\n      add\n        /* \"#utility.yul\":6394:6417   */\n      mload\n        /* \"#utility.yul\":6430:6487   */\n      tag_234\n        /* \"#utility.yul\":6481:6485   */\n      0x80\n        /* \"#utility.yul\":6476:6479   */\n      dup6\n        /* \"#utility.yul\":6472:6486   */\n      add\n        /* \"#utility.yul\":6458:6470   */\n      dup3\n        /* \"#utility.yul\":6430:6487   */\n      tag_134\n      jump\t// in\n    tag_234:\n        /* \"#utility.yul\":6336:6497   */\n      pop\n        /* \"#utility.yul\":5558:6504   */\n      pop\n        /* \"#utility.yul\":5454:6504   */\n      pop\n      pop\n      jump\t// out\n        /* \"#utility.yul\":6510:6785   */\n    tag_140:\n        /* \"#utility.yul\":6627:6637   */\n      0x00\n        /* \"#utility.yul\":6648:6742   */\n      tag_236\n        /* \"#utility.yul\":6738:6741   */\n      dup4\n        /* \"#utility.yul\":6730:6736   */\n      dup4\n        /* \"#utility.yul\":6648:6742   */\n      tag_139\n      jump\t// in\n    tag_236:\n        /* \"#utility.yul\":6774:6778   */\n      0xa0\n        /* \"#utility.yul\":6769:6772   */\n      dup4\n        /* \"#utility.yul\":6765:6779   */\n      add\n        /* \"#utility.yul\":6751:6779   */\n      swap1\n      pop\n        /* \"#utility.yul\":6510:6785   */\n      swap3\n      swap2\n      pop\n      pop\n      jump\t// out\n        /* \"#utility.yul\":6791:6928   */\n    tag_141:\n        /* \"#utility.yul\":6885:6889   */\n      0x00\n        /* \"#utility.yul\":6917:6921   */\n      0x20\n        /* \"#utility.yul\":6912:6915   */\n      dup3\n        /* \"#utility.yul\":6908:6922   */\n      add\n        /* \"#utility.yul\":6900:6922   */\n      swap1\n      pop\n        /* \"#utility.yul\":6791:6928   */\n      swap2\n      swap1\n      pop\n      jump\t// out\n        /* \"#utility.yul\":6978:7902   */\n    tag_142:\n        /* \"#utility.yul\":7145:7148   */\n      0x00\n        /* \"#utility.yul\":7174:7252   */\n      tag_239\n        /* \"#utility.yul\":7246:7251   */\n      dup3\n        /* \"#utility.yul\":7174:7252   */\n      tag_136\n      jump\t// in\n    tag_239:\n        /* \"#utility.yul\":7268:7378   */\n      tag_240\n        /* \"#utility.yul\":7371:7377   */\n      dup2\n        /* \"#utility.yul\":7366:7369   */\n      dup6\n        /* \"#utility.yul\":7268:7378   */\n      tag_137\n      jump\t// in\n    tag_240:\n        /* \"#utility.yul\":7261:7378   */\n      swap4\n      pop\n        /* \"#utility.yul\":7402:7482   */\n      tag_241\n        /* \"#utility.yul\":7476:7481   */\n      dup4\n        /* \"#utility.yul\":7402:7482   */\n      tag_138\n      jump\t// in\n    tag_241:\n        /* \"#utility.yul\":7505:7512   */\n      dup1\n        /* \"#utility.yul\":7536:7537   */\n      0x00\n        /* \"#utility.yul\":7521:7877   */\n    tag_242:\n        /* \"#utility.yul\":7546:7552   */\n      dup4\n        /* \"#utility.yul\":7543:7544   */\n      dup2\n        /* \"#utility.yul\":7540:7553   */\n      lt\n        /* \"#utility.yul\":7521:7877   */\n      iszero\n      tag_244\n      jumpi\n        /* \"#utility.yul\":7622:7628   */\n      dup2\n        /* \"#utility.yul\":7616:7629   */\n      mload\n        /* \"#utility.yul\":7649:7760   */\n      tag_245\n        /* \"#utility.yul\":7756:7759   */\n      dup9\n        /* \"#utility.yul\":7741:7754   */\n      dup3\n        /* \"#utility.yul\":7649:7760   */\n      tag_140\n      jump\t// in\n    tag_245:\n        /* \"#utility.yul\":7642:7760   */\n      swap8\n      pop\n        /* \"#utility.yul\":7783:7867   */\n      tag_246\n        /* \"#utility.yul\":7860:7866   */\n      dup4\n        /* \"#utility.yul\":7783:7867   */\n      tag_141\n      jump\t// in\n    tag_246:\n        /* \"#utility.yul\":7773:7867   */\n      swap3\n      pop\n        /* \"#utility.yul\":7581:7877   */\n      pop\n        /* \"#utility.yul\":7568:7569   */\n      0x01\n        /* \"#utility.yul\":7565:7566   */\n      dup2\n        /* \"#utility.yul\":7561:7570   */\n      add\n        /* \"#utility.yul\":7556:7570   */\n      swap1\n      pop\n        /* \"#utility.yul\":7521:7877   */\n      jump(tag_242)\n    tag_244:\n        /* \"#utility.yul\":7525:7539   */\n      pop\n        /* \"#utility.yul\":7893:7896   */\n      dup6\n        /* \"#utility.yul\":7886:7896   */\n      swap4\n      pop\n        /* \"#utility.yul\":7150:7902   */\n      pop\n      pop\n      pop\n        /* \"#utility.yul\":6978:7902   */\n      swap3\n      swap2\n      pop\n      pop\n      jump\t// out\n        /* \"#utility.yul\":7908:8377   */\n    tag_21:\n        /* \"#utility.yul\":8099:8103   */\n      0x00\n        /* \"#utility.yul\":8137:8139   */\n      0x20\n        /* \"#utility.yul\":8126:8135   */\n      dup3\n        /* \"#utility.yul\":8122:8140   */\n      add\n        /* \"#utility.yul\":8114:8140   */\n      swap1\n      pop\n        /* \"#utility.yul\":8186:8195   */\n      dup2\n        /* \"#utility.yul\":8180:8184   */\n      dup2\n        /* \"#utility.yul\":8176:8196   */\n      sub\n        /* \"#utility.yul\":8172:8173   */\n      0x00\n        /* \"#utility.yul\":8161:8170   */\n      dup4\n        /* \"#utility.yul\":8157:8174   */\n      add\n        /* \"#utility.yul\":8150:8197   */\n      mstore\n        /* \"#utility.yul\":8214:8370   */\n      tag_248\n        /* \"#utility.yul\":8365:8369   */\n      dup2\n        /* \"#utility.yul\":8356:8362   */\n      dup5\n        /* \"#utility.yul\":8214:8370   */\n      tag_142\n      jump\t// in\n    tag_248:\n        /* \"#utility.yul\":8206:8370   */\n      swap1\n      pop\n        /* \"#utility.yul\":7908:8377   */\n      swap3\n      swap2\n      pop\n      pop\n      jump\t// out\n        /* \"#utility.yul\":8383:8520   */\n    tag_143:\n        /* \"#utility.yul\":8473:8479   */\n      0x00\n        /* \"#utility.yul\":8507:8512   */\n      dup2\n        /* \"#utility.yul\":8501:8513   */\n      mload\n        /* \"#utility.yul\":8491:8513   */\n      swap1\n      pop\n        /* \"#utility.yul\":8383:8520   */\n      swap2\n      swap1\n      pop\n      jump\t// out\n        /* \"#utility.yul\":8526:8733   */\n    tag_144:\n        /* \"#utility.yul\":8648:8659   */\n      0x00\n        /* \"#utility.yul\":8682:8688   */\n      dup3\n        /* \"#utility.yul\":8677:8680   */\n      dup3\n        /* \"#utility.yul\":8670:8689   */\n      mstore\n        /* \"#utility.yul\":8722:8726   */\n      0x20\n        /* \"#utility.yul\":8717:8720   */\n      dup3\n        /* \"#utility.yul\":8713:8727   */\n      add\n        /* \"#utility.yul\":8698:8727   */\n      swap1\n      pop\n        /* \"#utility.yul\":8526:8733   */\n      swap3\n      swap2\n      pop\n      pop\n      jump\t// out\n        /* \"#utility.yul\":8739:8894   */\n    tag_145:\n        /* \"#utility.yul\":8829:8833   */\n      0x00\n        /* \"#utility.yul\":8852:8855   */\n      dup2\n        /* \"#utility.yul\":8844:8855   */\n      swap1\n      pop\n        /* \"#utility.yul\":8882:8886   */\n      0x20\n        /* \"#utility.yul\":8877:8880   */\n      dup3\n        /* \"#utility.yul\":8873:8887   */\n      add\n        /* \"#utility.yul\":8865:8887   */\n      swap1\n      pop\n        /* \"#utility.yul\":8739:8894   */\n      swap2\n      swap1\n      pop\n      jump\t// out\n        /* \"#utility.yul\":8938:10216   */\n    tag_146:\n        /* \"#utility.yul\":9071:9075   */\n      0xc0\n        /* \"#utility.yul\":9066:9069   */\n      dup3\n        /* \"#utility.yul\":9062:9076   */\n      add\n        /* \"#utility.yul\":9156:9160   */\n      0x00\n        /* \"#utility.yul\":9149:9154   */\n      dup3\n        /* \"#utility.yul\":9145:9161   */\n      add\n        /* \"#utility.yul\":9139:9162   */\n      mload\n        /* \"#utility.yul\":9175:9238   */\n      tag_253\n        /* \"#utility.yul\":9232:9236   */\n      0x00\n        /* \"#utility.yul\":9227:9230   */\n      dup6\n        /* \"#utility.yul\":9223:9237   */\n      add\n        /* \"#utility.yul\":9209:9221   */\n      dup3\n        /* \"#utility.yul\":9175:9238   */\n      tag_126\n      jump\t// in\n    tag_253:\n        /* \"#utility.yul\":9086:9248   */\n      pop\n        /* \"#utility.yul\":9357:9361   */\n      0x20\n        /* \"#utility.yul\":9350:9355   */\n      dup3\n        /* \"#utility.yul\":9346:9362   */\n      add\n        /* \"#utility.yul\":9340:9363   */\n      mload\n        /* \"#utility.yul\":9376:9439   */\n      tag_254\n        /* \"#utility.yul\":9433:9437   */\n      0x20\n        /* \"#utility.yul\":9428:9431   */\n      dup6\n        /* \"#utility.yul\":9424:9438   */\n      add\n        /* \"#utility.yul\":9410:9422   */\n      dup3\n        /* \"#utility.yul\":9376:9439   */\n      tag_127\n      jump\t// in\n    tag_254:\n        /* \"#utility.yul\":9258:9449   */\n      pop\n        /* \"#utility.yul\":9544:9548   */\n      0x40\n        /* \"#utility.yul\":9537:9542   */\n      dup3\n        /* \"#utility.yul\":9533:9549   */\n      add\n        /* \"#utility.yul\":9527:9550   */\n      mload\n        /* \"#utility.yul\":9563:9626   */\n      tag_255\n        /* \"#utility.yul\":9620:9624   */\n      0x40\n        /* \"#utility.yul\":9615:9618   */\n      dup6\n        /* \"#utility.yul\":9611:9625   */\n      add\n        /* \"#utility.yul\":9597:9609   */\n      dup3\n        /* \"#utility.yul\":9563:9626   */\n      tag_126\n      jump\t// in\n    tag_255:\n        /* \"#utility.yul\":9459:9636   */\n      pop\n        /* \"#utility.yul\":9740:9744   */\n      0x60\n        /* \"#utility.yul\":9733:9738   */\n      dup3\n        /* \"#utility.yul\":9729:9745   */\n      add\n        /* \"#utility.yul\":9723:9746   */\n      mload\n        /* \"#utility.yul\":9759:9822   */\n      tag_256\n        /* \"#utility.yul\":9816:9820   */\n      0x60\n        /* \"#utility.yul\":9811:9814   */\n      dup6\n        /* \"#utility.yul\":9807:9821   */\n      add\n        /* \"#utility.yul\":9793:9805   */\n      dup3\n        /* \"#utility.yul\":9759:9822   */\n      tag_126\n      jump\t// in\n    tag_256:\n        /* \"#utility.yul\":9646:9832   */\n      pop\n        /* \"#utility.yul\":9946:9950   */\n      0x80\n        /* \"#utility.yul\":9939:9944   */\n      dup3\n        /* \"#utility.yul\":9935:9951   */\n      add\n        /* \"#utility.yul\":9929:9952   */\n      mload\n        /* \"#utility.yul\":9965:10028   */\n      tag_257\n        /* \"#utility.yul\":10022:10026   */\n      0x80\n        /* \"#utility.yul\":10017:10020   */\n      dup6\n        /* \"#utility.yul\":10013:10027   */\n      add\n        /* \"#utility.yul\":9999:10011   */\n      dup3\n        /* \"#utility.yul\":9965:10028   */\n      tag_126\n      jump\t// in\n    tag_257:\n        /* \"#utility.yul\":9842:10038   */\n      pop\n        /* \"#utility.yul\":10123:10127   */\n      0xa0\n        /* \"#utility.yul\":10116:10121   */\n      dup3\n        /* \"#utility.yul\":10112:10128   */\n      add\n        /* \"#utility.yul\":10106:10129   */\n      mload\n        /* \"#utility.yul\":10142:10199   */\n      tag_258\n        /* \"#utility.yul\":10193:10197   */\n      0xa0\n        /* \"#utility.yul\":10188:10191   */\n      dup6\n        /* \"#utility.yul\":10184:10198   */\n      add\n        /* \"#utility.yul\":10170:10182   */\n      dup3\n        /* \"#utility.yul\":10142:10199   */\n      tag_134\n      jump\t// in\n    tag_258:\n        /* \"#utility.yul\":10048:10209   */\n      pop\n        /* \"#utility.yul\":9040:10216   */\n      pop\n        /* \"#utility.yul\":8938:10216   */\n      pop\n      pop\n      jump\t// out\n        /* \"#utility.yul\":10222:10493   */\n    tag_147:\n        /* \"#utility.yul\":10337:10347   */\n      0x00\n        /* \"#utility.yul\":10358:10450   */\n      tag_260\n        /* \"#utility.yul\":10446:10449   */\n      dup4\n        /* \"#utility.yul\":10438:10444   */\n      dup4\n        /* \"#utility.yul\":10358:10450   */\n      tag_146\n      jump\t// in\n    tag_260:\n        /* \"#utility.yul\":10482:10486   */\n      0xc0\n        /* \"#utility.yul\":10477:10480   */\n      dup4\n        /* \"#utility.yul\":10473:10487   */\n      add\n        /* \"#utility.yul\":10459:10487   */\n      swap1\n      pop\n        /* \"#utility.yul\":10222:10493   */\n      swap3\n      swap2\n      pop\n      pop\n      jump\t// out\n        /* \"#utility.yul\":10499:10635   */\n    tag_148:\n        /* \"#utility.yul\":10592:10596   */\n      0x00\n        /* \"#utility.yul\":10624:10628   */\n      0x20\n        /* \"#utility.yul\":10619:10622   */\n      dup3\n        /* \"#utility.yul\":10615:10629   */\n      add\n        /* \"#utility.yul\":10607:10629   */\n      swap1\n      pop\n        /* \"#utility.yul\":10499:10635   */\n      swap2\n      swap1\n      pop\n      jump\t// out\n        /* \"#utility.yul\":10683:11599   */\n    tag_149:\n        /* \"#utility.yul\":10848:10851   */\n      0x00\n        /* \"#utility.yul\":10877:10954   */\n      tag_263\n        /* \"#utility.yul\":10948:10953   */\n      dup3\n        /* \"#utility.yul\":10877:10954   */\n      tag_143\n      jump\t// in\n    tag_263:\n        /* \"#utility.yul\":10970:11079   */\n      tag_264\n        /* \"#utility.yul\":11072:11078   */\n      dup2\n        /* \"#utility.yul\":11067:11070   */\n      dup6\n        /* \"#utility.yul\":10970:11079   */\n      tag_144\n      jump\t// in\n    tag_264:\n        /* \"#utility.yul\":10963:11079   */\n      swap4\n      pop\n        /* \"#utility.yul\":11103:11182   */\n      tag_265\n        /* \"#utility.yul\":11176:11181   */\n      dup4\n        /* \"#utility.yul\":11103:11182   */\n      tag_145\n      jump\t// in\n    tag_265:\n        /* \"#utility.yul\":11205:11212   */\n      dup1\n        /* \"#utility.yul\":11236:11237   */\n      0x00\n        /* \"#utility.yul\":11221:11574   */\n    tag_266:\n        /* \"#utility.yul\":11246:11252   */\n      dup4\n        /* \"#utility.yul\":11243:11244   */\n      dup2\n        /* \"#utility.yul\":11240:11253   */\n      lt\n        /* \"#utility.yul\":11221:11574   */\n      iszero\n      tag_268\n      jumpi\n        /* \"#utility.yul\":11322:11328   */\n      dup2\n        /* \"#utility.yul\":11316:11329   */\n      mload\n        /* \"#utility.yul\":11349:11458   */\n      tag_269\n        /* \"#utility.yul\":11454:11457   */\n      dup9\n        /* \"#utility.yul\":11439:11452   */\n      dup3\n        /* \"#utility.yul\":11349:11458   */\n      tag_147\n      jump\t// in\n    tag_269:\n        /* \"#utility.yul\":11342:11458   */\n      swap8\n      pop\n        /* \"#utility.yul\":11481:11564   */\n      tag_270\n        /* \"#utility.yul\":11557:11563   */\n      dup4\n        /* \"#utility.yul\":11481:11564   */\n      tag_148\n      jump\t// in\n    tag_270:\n        /* \"#utility.yul\":11471:11564   */\n      swap3\n      pop\n        /* \"#utility.yul\":11281:11574   */\n      pop\n        /* \"#utility.yul\":11268:11269   */\n      0x01\n        /* \"#utility.yul\":11265:11266   */\n      dup2\n        /* \"#utility.yul\":11261:11270   */\n      add\n        /* \"#utility.yul\":11256:11270   */\n      swap1\n      pop\n        /* \"#utility.yul\":11221:11574   */\n      jump(tag_266)\n    tag_268:\n        /* \"#utility.yul\":11225:11239   */\n      pop\n        /* \"#utility.yul\":11590:11593   */\n      dup6\n        /* \"#utility.yul\":11583:11593   */\n      swap4\n      pop\n        /* \"#utility.yul\":10853:11599   */\n      pop\n      pop\n      pop\n        /* \"#utility.yul\":10683:11599   */\n      swap3\n      swap2\n      pop\n      pop\n      jump\t// out\n        /* \"#utility.yul\":11605:12070   */\n    tag_26:\n        /* \"#utility.yul\":11794:11798   */\n      0x00\n        /* \"#utility.yul\":11832:11834   */\n      0x20\n        /* \"#utility.yul\":11821:11830   */\n      dup3\n        /* \"#utility.yul\":11817:11835   */\n      add\n        /* \"#utility.yul\":11809:11835   */\n      swap1\n      pop\n        /* \"#utility.yul\":11881:11890   */\n      dup2\n        /* \"#utility.yul\":11875:11879   */\n      dup2\n        /* \"#utility.yul\":11871:11891   */\n      sub\n        /* \"#utility.yul\":11867:11868   */\n      0x00\n        /* \"#utility.yul\":11856:11865   */\n      dup4\n        /* \"#utility.yul\":11852:11869   */\n      add\n        /* \"#utility.yul\":11845:11892   */\n      mstore\n        /* \"#utility.yul\":11909:12063   */\n      tag_272\n        /* \"#utility.yul\":12058:12062   */\n      dup2\n        /* \"#utility.yul\":12049:12055   */\n      dup5\n        /* \"#utility.yul\":11909:12063   */\n      tag_149\n      jump\t// in\n    tag_272:\n        /* \"#utility.yul\":11901:12063   */\n      swap1\n      pop\n        /* \"#utility.yul\":11605:12070   */\n      swap3\n      swap2\n      pop\n      pop\n      jump\t// out\n        /* \"#utility.yul\":12076:12193   */\n    tag_150:\n        /* \"#utility.yul\":12185:12186   */\n      0x00\n        /* \"#utility.yul\":12182:12183   */\n      dup1\n        /* \"#utility.yul\":12175:12187   */\n      revert\n        /* \"#utility.yul\":12199:12316   */\n    tag_151:\n        /* \"#utility.yul\":12308:12309   */\n      0x00\n        /* \"#utility.yul\":12305:12306   */\n      dup1\n        /* \"#utility.yul\":12298:12310   */\n      revert\n        /* \"#utility.yul\":12322:12502   */\n    tag_62:\n        /* \"#utility.yul\":12370:12447   */\n      0x4e487b7100000000000000000000000000000000000000000000000000000000\n        /* \"#utility.yul\":12367:12368   */\n      0x00\n        /* \"#utility.yul\":12360:12448   */\n      mstore\n        /* \"#utility.yul\":12467:12471   */\n      0x41\n        /* \"#utility.yul\":12464:12465   */\n      0x04\n        /* \"#utility.yul\":12457:12472   */\n      mstore\n        /* \"#utility.yul\":12491:12495   */\n      0x24\n        /* \"#utility.yul\":12488:12489   */\n      0x00\n        /* \"#utility.yul\":12481:12496   */\n      revert\n        /* \"#utility.yul\":12508:12789   */\n    tag_152:\n        /* \"#utility.yul\":12591:12618   */\n      tag_277\n        /* \"#utility.yul\":12613:12617   */\n      dup3\n        /* \"#utility.yul\":12591:12618   */\n      tag_131\n      jump\t// in\n    tag_277:\n        /* \"#utility.yul\":12583:12589   */\n      dup2\n        /* \"#utility.yul\":12579:12619   */\n      add\n        /* \"#utility.yul\":12721:12727   */\n      dup2\n        /* \"#utility.yul\":12709:12719   */\n      dup2\n        /* \"#utility.yul\":12706:12728   */\n      lt\n        /* \"#utility.yul\":12685:12703   */\n      0xffffffffffffffff\n        /* \"#utility.yul\":12673:12683   */\n      dup3\n        /* \"#utility.yul\":12670:12704   */\n      gt\n        /* \"#utility.yul\":12667:12729   */\n      or\n        /* \"#utility.yul\":12664:12752   */\n      iszero\n      tag_278\n      jumpi\n        /* \"#utility.yul\":12732:12750   */\n      tag_279\n      tag_62\n      jump\t// in\n    tag_279:\n        /* \"#utility.yul\":12664:12752   */\n    tag_278:\n        /* \"#utility.yul\":12772:12782   */\n      dup1\n        /* \"#utility.yul\":12768:12770   */\n      0x40\n        /* \"#utility.yul\":12761:12783   */\n      mstore\n        /* \"#utility.yul\":12551:12789   */\n      pop\n        /* \"#utility.yul\":12508:12789   */\n      pop\n      pop\n      jump\t// out\n        /* \"#utility.yul\":12795:12924   */\n    tag_153:\n        /* \"#utility.yul\":12829:12835   */\n      0x00\n        /* \"#utility.yul\":12856:12876   */\n      tag_281\n      tag_118\n      jump\t// in\n    tag_281:\n        /* \"#utility.yul\":12846:12876   */\n      swap1\n      pop\n        /* \"#utility.yul\":12885:12918   */\n      tag_282\n        /* \"#utility.yul\":12913:12917   */\n      dup3\n        /* \"#utility.yul\":12905:12911   */\n      dup3\n        /* \"#utility.yul\":12885:12918   */\n      tag_152\n      jump\t// in\n    tag_282:\n        /* \"#utility.yul\":12795:12924   */\n      swap2\n      swap1\n      pop\n      jump\t// out\n        /* \"#utility.yul\":12930:13238   */\n    tag_154:\n        /* \"#utility.yul\":12992:12996   */\n      0x00\n        /* \"#utility.yul\":13082:13100   */\n      0xffffffffffffffff\n        /* \"#utility.yul\":13074:13080   */\n      dup3\n        /* \"#utility.yul\":13071:13101   */\n      gt\n        /* \"#utility.yul\":13068:13124   */\n      iszero\n      tag_284\n      jumpi\n        /* \"#utility.yul\":13104:13122   */\n      tag_285\n      tag_62\n      jump\t// in\n    tag_285:\n        /* \"#utility.yul\":13068:13124   */\n    tag_284:\n        /* \"#utility.yul\":13142:13171   */\n      tag_286\n        /* \"#utility.yul\":13164:13170   */\n      dup3\n        /* \"#utility.yul\":13142:13171   */\n      tag_131\n      jump\t// in\n    tag_286:\n        /* \"#utility.yul\":13134:13171   */\n      swap1\n      pop\n        /* \"#utility.yul\":13226:13230   */\n      0x20\n        /* \"#utility.yul\":13220:13224   */\n      dup2\n        /* \"#utility.yul\":13216:13231   */\n      add\n        /* \"#utility.yul\":13208:13231   */\n      swap1\n      pop\n        /* \"#utility.yul\":12930:13238   */\n      swap2\n      swap1\n      pop\n      jump\t// out\n        /* \"#utility.yul\":13244:13390   */\n    tag_155:\n        /* \"#utility.yul\":13341:13347   */\n      dup3\n        /* \"#utility.yul\":13336:13339   */\n      dup2\n        /* \"#utility.yul\":13331:13334   */\n      dup4\n        /* \"#utility.yul\":13318:13348   */\n      calldatacopy\n        /* \"#utility.yul\":13382:13383   */\n      0x00\n        /* \"#utility.yul\":13373:13379   */\n      dup4\n        /* \"#utility.yul\":13368:13371   */\n      dup4\n        /* \"#utility.yul\":13364:13380   */\n      add\n        /* \"#utility.yul\":13357:13384   */\n      mstore\n        /* \"#utility.yul\":13244:13390   */\n      pop\n      pop\n      pop\n      jump\t// out\n        /* \"#utility.yul\":13396:13821   */\n    tag_156:\n        /* \"#utility.yul\":13474:13479   */\n      0x00\n        /* \"#utility.yul\":13499:13565   */\n      tag_289\n        /* \"#utility.yul\":13515:13564   */\n      tag_290\n        /* \"#utility.yul\":13557:13563   */\n      dup5\n        /* \"#utility.yul\":13515:13564   */\n      tag_154\n      jump\t// in\n    tag_290:\n        /* \"#utility.yul\":13499:13565   */\n      tag_153\n      jump\t// in\n    tag_289:\n        /* \"#utility.yul\":13490:13565   */\n      swap1\n      pop\n        /* \"#utility.yul\":13588:13594   */\n      dup3\n        /* \"#utility.yul\":13581:13586   */\n      dup2\n        /* \"#utility.yul\":13574:13595   */\n      mstore\n        /* \"#utility.yul\":13626:13630   */\n      0x20\n        /* \"#utility.yul\":13619:13624   */\n      dup2\n        /* \"#utility.yul\":13615:13631   */\n      add\n        /* \"#utility.yul\":13664:13667   */\n      dup5\n        /* \"#utility.yul\":13655:13661   */\n      dup5\n        /* \"#utility.yul\":13650:13653   */\n      dup5\n        /* \"#utility.yul\":13646:13662   */\n      add\n        /* \"#utility.yul\":13643:13668   */\n      gt\n        /* \"#utility.yul\":13640:13752   */\n      iszero\n      tag_291\n      jumpi\n        /* \"#utility.yul\":13671:13750   */\n      tag_292\n      tag_151\n      jump\t// in\n    tag_292:\n        /* \"#utility.yul\":13640:13752   */\n    tag_291:\n        /* \"#utility.yul\":13761:13815   */\n      tag_293\n        /* \"#utility.yul\":13808:13814   */\n      dup5\n        /* \"#utility.yul\":13803:13806   */\n      dup3\n        /* \"#utility.yul\":13798:13801   */\n      dup6\n        /* \"#utility.yul\":13761:13815   */\n      tag_155\n      jump\t// in\n    tag_293:\n        /* \"#utility.yul\":13480:13821   */\n      pop\n        /* \"#utility.yul\":13396:13821   */\n      swap4\n      swap3\n      pop\n      pop\n      pop\n      jump\t// out\n        /* \"#utility.yul\":13841:14181   */\n    tag_157:\n        /* \"#utility.yul\":13897:13902   */\n      0x00\n        /* \"#utility.yul\":13946:13949   */\n      dup3\n        /* \"#utility.yul\":13939:13943   */\n      0x1f\n        /* \"#utility.yul\":13931:13937   */\n      dup4\n        /* \"#utility.yul\":13927:13944   */\n      add\n        /* \"#utility.yul\":13923:13950   */\n      slt\n        /* \"#utility.yul\":13913:14035   */\n      tag_295\n      jumpi\n        /* \"#utility.yul\":13954:14033   */\n      tag_296\n      tag_150\n      jump\t// in\n    tag_296:\n        /* \"#utility.yul\":13913:14035   */\n    tag_295:\n        /* \"#utility.yul\":14071:14077   */\n      dup2\n        /* \"#utility.yul\":14058:14078   */\n      calldataload\n        /* \"#utility.yul\":14096:14175   */\n      tag_297\n        /* \"#utility.yul\":14171:14174   */\n      dup5\n        /* \"#utility.yul\":14163:14169   */\n      dup3\n        /* \"#utility.yul\":14156:14160   */\n      0x20\n        /* \"#utility.yul\":14148:14154   */\n      dup7\n        /* \"#utility.yul\":14144:14161   */\n      add\n        /* \"#utility.yul\":14096:14175   */\n      tag_156\n      jump\t// in\n    tag_297:\n        /* \"#utility.yul\":14087:14175   */\n      swap2\n      pop\n        /* \"#utility.yul\":13903:14181   */\n      pop\n        /* \"#utility.yul\":13841:14181   */\n      swap3\n      swap2\n      pop\n      pop\n      jump\t// out\n        /* \"#utility.yul\":14187:14309   */\n    tag_158:\n        /* \"#utility.yul\":14260:14284   */\n      tag_299\n        /* \"#utility.yul\":14278:14283   */\n      dup2\n        /* \"#utility.yul\":14260:14284   */\n      tag_125\n      jump\t// in\n    tag_299:\n        /* \"#utility.yul\":14253:14258   */\n      dup2\n        /* \"#utility.yul\":14250:14285   */\n      eq\n        /* \"#utility.yul\":14240:14303   */\n      tag_300\n      jumpi\n        /* \"#utility.yul\":14299:14300   */\n      0x00\n        /* \"#utility.yul\":14296:14297   */\n      dup1\n        /* \"#utility.yul\":14289:14301   */\n      revert\n        /* \"#utility.yul\":14240:14303   */\n    tag_300:\n        /* \"#utility.yul\":14187:14309   */\n      pop\n      jump\t// out\n        /* \"#utility.yul\":14315:14454   */\n    tag_159:\n        /* \"#utility.yul\":14361:14366   */\n      0x00\n        /* \"#utility.yul\":14399:14405   */\n      dup2\n        /* \"#utility.yul\":14386:14406   */\n      calldataload\n        /* \"#utility.yul\":14377:14406   */\n      swap1\n      pop\n        /* \"#utility.yul\":14415:14448   */\n      tag_302\n        /* \"#utility.yul\":14442:14447   */\n      dup2\n        /* \"#utility.yul\":14415:14448   */\n      tag_158\n      jump\t// in\n    tag_302:\n        /* \"#utility.yul\":14315:14454   */\n      swap3\n      swap2\n      pop\n      pop\n      jump\t// out\n        /* \"#utility.yul\":14460:15585   */\n    tag_29:\n        /* \"#utility.yul\":14566:14572   */\n      0x00\n        /* \"#utility.yul\":14574:14580   */\n      dup1\n        /* \"#utility.yul\":14582:14588   */\n      0x00\n        /* \"#utility.yul\":14590:14596   */\n      dup1\n        /* \"#utility.yul\":14639:14642   */\n      0x80\n        /* \"#utility.yul\":14627:14636   */\n      dup6\n        /* \"#utility.yul\":14618:14625   */\n      dup8\n        /* \"#utility.yul\":14614:14637   */\n      sub\n        /* \"#utility.yul\":14610:14643   */\n      slt\n        /* \"#utility.yul\":14607:14727   */\n      iszero\n      tag_304\n      jumpi\n        /* \"#utility.yul\":14646:14725   */\n      tag_305\n      tag_119\n      jump\t// in\n    tag_305:\n        /* \"#utility.yul\":14607:14727   */\n    tag_304:\n        /* \"#utility.yul\":14766:14767   */\n      0x00\n        /* \"#utility.yul\":14791:14844   */\n      tag_306\n        /* \"#utility.yul\":14836:14843   */\n      dup8\n        /* \"#utility.yul\":14827:14833   */\n      dup3\n        /* \"#utility.yul\":14816:14825   */\n      dup9\n        /* \"#utility.yul\":14812:14834   */\n      add\n        /* \"#utility.yul\":14791:14844   */\n      tag_124\n      jump\t// in\n    tag_306:\n        /* \"#utility.yul\":14781:14844   */\n      swap5\n      pop\n        /* \"#utility.yul\":14737:14854   */\n      pop\n        /* \"#utility.yul\":14921:14923   */\n      0x20\n        /* \"#utility.yul\":14910:14919   */\n      dup6\n        /* \"#utility.yul\":14906:14924   */\n      add\n        /* \"#utility.yul\":14893:14925   */\n      calldataload\n        /* \"#utility.yul\":14952:14970   */\n      0xffffffffffffffff\n        /* \"#utility.yul\":14944:14950   */\n      dup2\n        /* \"#utility.yul\":14941:14971   */\n      gt\n        /* \"#utility.yul\":14938:15055   */\n      iszero\n      tag_307\n      jumpi\n        /* \"#utility.yul\":14974:15053   */\n      tag_308\n      tag_120\n      jump\t// in\n    tag_308:\n        /* \"#utility.yul\":14938:15055   */\n    tag_307:\n        /* \"#utility.yul\":15079:15142   */\n      tag_309\n        /* \"#utility.yul\":15134:15141   */\n      dup8\n        /* \"#utility.yul\":15125:15131   */\n      dup3\n        /* \"#utility.yul\":15114:15123   */\n      dup9\n        /* \"#utility.yul\":15110:15132   */\n      add\n        /* \"#utility.yul\":15079:15142   */\n      tag_157\n      jump\t// in\n    tag_309:\n        /* \"#utility.yul\":15069:15142   */\n      swap4\n      pop\n        /* \"#utility.yul\":14864:15152   */\n      pop\n        /* \"#utility.yul\":15219:15221   */\n      0x40\n        /* \"#utility.yul\":15208:15217   */\n      dup6\n        /* \"#utility.yul\":15204:15222   */\n      add\n        /* \"#utility.yul\":15191:15223   */\n      calldataload\n        /* \"#utility.yul\":15250:15268   */\n      0xffffffffffffffff\n        /* \"#utility.yul\":15242:15248   */\n      dup2\n        /* \"#utility.yul\":15239:15269   */\n      gt\n        /* \"#utility.yul\":15236:15353   */\n      iszero\n      tag_310\n      jumpi\n        /* \"#utility.yul\":15272:15351   */\n      tag_311\n      tag_120\n      jump\t// in\n    tag_311:\n        /* \"#utility.yul\":15236:15353   */\n    tag_310:\n        /* \"#utility.yul\":15377:15440   */\n      tag_312\n        /* \"#utility.yul\":15432:15439   */\n      dup8\n        /* \"#utility.yul\":15423:15429   */\n      dup3\n        /* \"#utility.yul\":15412:15421   */\n      dup9\n        /* \"#utility.yul\":15408:15430   */\n      add\n        /* \"#utility.yul\":15377:15440   */\n      tag_157\n      jump\t// in\n    tag_312:\n        /* \"#utility.yul\":15367:15440   */\n      swap3\n      pop\n        /* \"#utility.yul\":15162:15450   */\n      pop\n        /* \"#utility.yul\":15489:15491   */\n      0x60\n        /* \"#utility.yul\":15515:15568   */\n      tag_313\n        /* \"#utility.yul\":15560:15567   */\n      dup8\n        /* \"#utility.yul\":15551:15557   */\n      dup3\n        /* \"#utility.yul\":15540:15549   */\n      dup9\n        /* \"#utility.yul\":15536:15558   */\n      add\n        /* \"#utility.yul\":15515:15568   */\n      tag_159\n      jump\t// in\n    tag_313:\n        /* \"#utility.yul\":15505:15568   */\n      swap2\n      pop\n        /* \"#utility.yul\":15460:15578   */\n      pop\n        /* \"#utility.yul\":14460:15585   */\n      swap3\n      swap6\n      swap2\n      swap5\n      pop\n      swap3\n      pop\n      jump\t// out\n        /* \"#utility.yul\":15591:15700   */\n    tag_160:\n        /* \"#utility.yul\":15672:15693   */\n      tag_315\n        /* \"#utility.yul\":15687:15692   */\n      dup2\n        /* \"#utility.yul\":15672:15693   */\n      tag_133\n      jump\t// in\n    tag_315:\n        /* \"#utility.yul\":15667:15670   */\n      dup3\n        /* \"#utility.yul\":15660:15694   */\n      mstore\n        /* \"#utility.yul\":15591:15700   */\n      pop\n      pop\n      jump\t// out\n        /* \"#utility.yul\":15706:15916   */\n    tag_35:\n        /* \"#utility.yul\":15793:15797   */\n      0x00\n        /* \"#utility.yul\":15831:15833   */\n      0x20\n        /* \"#utility.yul\":15820:15829   */\n      dup3\n        /* \"#utility.yul\":15816:15834   */\n      add\n        /* \"#utility.yul\":15808:15834   */\n      swap1\n      pop\n        /* \"#utility.yul\":15844:15909   */\n      tag_317\n        /* \"#utility.yul\":15906:15907   */\n      0x00\n        /* \"#utility.yul\":15895:15904   */\n      dup4\n        /* \"#utility.yul\":15891:15908   */\n      add\n        /* \"#utility.yul\":15882:15888   */\n      dup5\n        /* \"#utility.yul\":15844:15909   */\n      tag_160\n      jump\t// in\n    tag_317:\n        /* \"#utility.yul\":15706:15916   */\n      swap3\n      swap2\n      pop\n      pop\n      jump\t// out\n        /* \"#utility.yul\":15922:16251   */\n    tag_41:\n        /* \"#utility.yul\":15981:15987   */\n      0x00\n        /* \"#utility.yul\":16030:16032   */\n      0x20\n        /* \"#utility.yul\":16018:16027   */\n      dup3\n        /* \"#utility.yul\":16009:16016   */\n      dup5\n        /* \"#utility.yul\":16005:16028   */\n      sub\n        /* \"#utility.yul\":16001:16033   */\n      slt\n        /* \"#utility.yul\":15998:16117   */\n      iszero\n      tag_319\n      jumpi\n        /* \"#utility.yul\":16036:16115   */\n      tag_320\n      tag_119\n      jump\t// in\n    tag_320:\n        /* \"#utility.yul\":15998:16117   */\n    tag_319:\n        /* \"#utility.yul\":16156:16157   */\n      0x00\n        /* \"#utility.yul\":16181:16234   */\n      tag_321\n        /* \"#utility.yul\":16226:16233   */\n      dup5\n        /* \"#utility.yul\":16217:16223   */\n      dup3\n        /* \"#utility.yul\":16206:16215   */\n      dup6\n        /* \"#utility.yul\":16202:16224   */\n      add\n        /* \"#utility.yul\":16181:16234   */\n      tag_159\n      jump\t// in\n    tag_321:\n        /* \"#utility.yul\":16171:16234   */\n      swap2\n      pop\n        /* \"#utility.yul\":16127:16244   */\n      pop\n        /* \"#utility.yul\":15922:16251   */\n      swap3\n      swap2\n      pop\n      pop\n      jump\t// out\n        /* \"#utility.yul\":16295:17583   */\n    tag_161:\n        /* \"#utility.yul\":16438:16442   */\n      0xc0\n        /* \"#utility.yul\":16433:16436   */\n      dup3\n        /* \"#utility.yul\":16429:16443   */\n      add\n        /* \"#utility.yul\":16523:16527   */\n      0x00\n        /* \"#utility.yul\":16516:16521   */\n      dup3\n        /* \"#utility.yul\":16512:16528   */\n      add\n        /* \"#utility.yul\":16506:16529   */\n      mload\n        /* \"#utility.yul\":16542:16605   */\n      tag_323\n        /* \"#utility.yul\":16599:16603   */\n      0x00\n        /* \"#utility.yul\":16594:16597   */\n      dup6\n        /* \"#utility.yul\":16590:16604   */\n      add\n        /* \"#utility.yul\":16576:16588   */\n      dup3\n        /* \"#utility.yul\":16542:16605   */\n      tag_126\n      jump\t// in\n    tag_323:\n        /* \"#utility.yul\":16453:16615   */\n      pop\n        /* \"#utility.yul\":16724:16728   */\n      0x20\n        /* \"#utility.yul\":16717:16722   */\n      dup3\n        /* \"#utility.yul\":16713:16729   */\n      add\n        /* \"#utility.yul\":16707:16730   */\n      mload\n        /* \"#utility.yul\":16743:16806   */\n      tag_324\n        /* \"#utility.yul\":16800:16804   */\n      0x20\n        /* \"#utility.yul\":16795:16798   */\n      dup6\n        /* \"#utility.yul\":16791:16805   */\n      add\n        /* \"#utility.yul\":16777:16789   */\n      dup3\n        /* \"#utility.yul\":16743:16806   */\n      tag_127\n      jump\t// in\n    tag_324:\n        /* \"#utility.yul\":16625:16816   */\n      pop\n        /* \"#utility.yul\":16911:16915   */\n      0x40\n        /* \"#utility.yul\":16904:16909   */\n      dup3\n        /* \"#utility.yul\":16900:16916   */\n      add\n        /* \"#utility.yul\":16894:16917   */\n      mload\n        /* \"#utility.yul\":16930:16993   */\n      tag_325\n        /* \"#utility.yul\":16987:16991   */\n      0x40\n        /* \"#utility.yul\":16982:16985   */\n      dup6\n        /* \"#utility.yul\":16978:16992   */\n      add\n        /* \"#utility.yul\":16964:16976   */\n      dup3\n        /* \"#utility.yul\":16930:16993   */\n      tag_126\n      jump\t// in\n    tag_325:\n        /* \"#utility.yul\":16826:17003   */\n      pop\n        /* \"#utility.yul\":17107:17111   */\n      0x60\n        /* \"#utility.yul\":17100:17105   */\n      dup3\n        /* \"#utility.yul\":17096:17112   */\n      add\n        /* \"#utility.yul\":17090:17113   */\n      mload\n        /* \"#utility.yul\":17126:17189   */\n      tag_326\n        /* \"#utility.yul\":17183:17187   */\n      0x60\n        /* \"#utility.yul\":17178:17181   */\n      dup6\n        /* \"#utility.yul\":17174:17188   */\n      add\n        /* \"#utility.yul\":17160:17172   */\n      dup3\n        /* \"#utility.yul\":17126:17189   */\n      tag_126\n      jump\t// in\n    tag_326:\n        /* \"#utility.yul\":17013:17199   */\n      pop\n        /* \"#utility.yul\":17313:17317   */\n      0x80\n        /* \"#utility.yul\":17306:17311   */\n      dup3\n        /* \"#utility.yul\":17302:17318   */\n      add\n        /* \"#utility.yul\":17296:17319   */\n      mload\n        /* \"#utility.yul\":17332:17395   */\n      tag_327\n        /* \"#utility.yul\":17389:17393   */\n      0x80\n        /* \"#utility.yul\":17384:17387   */\n      dup6\n        /* \"#utility.yul\":17380:17394   */\n      add\n        /* \"#utility.yul\":17366:17378   */\n      dup3\n        /* \"#utility.yul\":17332:17395   */\n      tag_126\n      jump\t// in\n    tag_327:\n        /* \"#utility.yul\":17209:17405   */\n      pop\n        /* \"#utility.yul\":17490:17494   */\n      0xa0\n        /* \"#utility.yul\":17483:17488   */\n      dup3\n        /* \"#utility.yul\":17479:17495   */\n      add\n        /* \"#utility.yul\":17473:17496   */\n      mload\n        /* \"#utility.yul\":17509:17566   */\n      tag_328\n        /* \"#utility.yul\":17560:17564   */\n      0xa0\n        /* \"#utility.yul\":17555:17558   */\n      dup6\n        /* \"#utility.yul\":17551:17565   */\n      add\n        /* \"#utility.yul\":17537:17549   */\n      dup3\n        /* \"#utility.yul\":17509:17566   */\n      tag_134\n      jump\t// in\n    tag_328:\n        /* \"#utility.yul\":17415:17576   */\n      pop\n        /* \"#utility.yul\":16407:17583   */\n      pop\n        /* \"#utility.yul\":16295:17583   */\n      pop\n      pop\n      jump\t// out\n        /* \"#utility.yul\":17589:17904   */\n    tag_44:\n        /* \"#utility.yul\":17728:17732   */\n      0x00\n        /* \"#utility.yul\":17766:17769   */\n      0xc0\n        /* \"#utility.yul\":17755:17764   */\n      dup3\n        /* \"#utility.yul\":17751:17770   */\n      add\n        /* \"#utility.yul\":17743:17770   */\n      swap1\n      pop\n        /* \"#utility.yul\":17780:17897   */\n      tag_330\n        /* \"#utility.yul\":17894:17895   */\n      0x00\n        /* \"#utility.yul\":17883:17892   */\n      dup4\n        /* \"#utility.yul\":17879:17896   */\n      add\n        /* \"#utility.yul\":17870:17876   */\n      dup5\n        /* \"#utility.yul\":17780:17897   */\n      tag_161\n      jump\t// in\n    tag_330:\n        /* \"#utility.yul\":17589:17904   */\n      swap3\n      swap2\n      pop\n      pop\n      jump\t// out\n        /* \"#utility.yul\":17910:18090   */\n    tag_162:\n        /* \"#utility.yul\":17958:18035   */\n      0x4e487b7100000000000000000000000000000000000000000000000000000000\n        /* \"#utility.yul\":17955:17956   */\n      0x00\n        /* \"#utility.yul\":17948:18036   */\n      mstore\n        /* \"#utility.yul\":18055:18059   */\n      0x22\n        /* \"#utility.yul\":18052:18053   */\n      0x04\n        /* \"#utility.yul\":18045:18060   */\n      mstore\n        /* \"#utility.yul\":18079:18083   */\n      0x24\n        /* \"#utility.yul\":18076:18077   */\n      0x00\n        /* \"#utility.yul\":18069:18084   */\n      revert\n        /* \"#utility.yul\":18096:18416   */\n    tag_49:\n        /* \"#utility.yul\":18140:18146   */\n      0x00\n        /* \"#utility.yul\":18177:18178   */\n      0x02\n        /* \"#utility.yul\":18171:18175   */\n      dup3\n        /* \"#utility.yul\":18167:18179   */\n      div\n        /* \"#utility.yul\":18157:18179   */\n      swap1\n      pop\n        /* \"#utility.yul\":18224:18225   */\n      0x01\n        /* \"#utility.yul\":18218:18222   */\n      dup3\n        /* \"#utility.yul\":18214:18226   */\n      and\n        /* \"#utility.yul\":18245:18263   */\n      dup1\n        /* \"#utility.yul\":18235:18316   */\n      tag_333\n      jumpi\n        /* \"#utility.yul\":18301:18305   */\n      0x7f\n        /* \"#utility.yul\":18293:18299   */\n      dup3\n        /* \"#utility.yul\":18289:18306   */\n      and\n        /* \"#utility.yul\":18279:18306   */\n      swap2\n      pop\n        /* \"#utility.yul\":18235:18316   */\n    tag_333:\n        /* \"#utility.yul\":18363:18365   */\n      0x20\n        /* \"#utility.yul\":18355:18361   */\n      dup3\n        /* \"#utility.yul\":18352:18366   */\n      lt\n        /* \"#utility.yul\":18332:18350   */\n      dup2\n        /* \"#utility.yul\":18329:18367   */\n      sub\n        /* \"#utility.yul\":18326:18410   */\n      tag_334\n      jumpi\n        /* \"#utility.yul\":18382:18400   */\n      tag_335\n      tag_162\n      jump\t// in\n    tag_335:\n        /* \"#utility.yul\":18326:18410   */\n    tag_334:\n        /* \"#utility.yul\":18147:18416   */\n      pop\n        /* \"#utility.yul\":18096:18416   */\n      swap2\n      swap1\n      pop\n      jump\t// out\n        /* \"#utility.yul\":18422:18602   */\n    tag_72:\n        /* \"#utility.yul\":18470:18547   */\n      0x4e487b7100000000000000000000000000000000000000000000000000000000\n        /* \"#utility.yul\":18467:18468   */\n      0x00\n        /* \"#utility.yul\":18460:18548   */\n      mstore\n        /* \"#utility.yul\":18567:18571   */\n      0x32\n        /* \"#utility.yul\":18564:18565   */\n      0x04\n        /* \"#utility.yul\":18557:18572   */\n      mstore\n        /* \"#utility.yul\":18591:18595   */\n      0x24\n        /* \"#utility.yul\":18588:18589   */\n      0x00\n        /* \"#utility.yul\":18581:18596   */\n      revert\n        /* \"#utility.yul\":18608:18788   */\n    tag_163:\n        /* \"#utility.yul\":18656:18733   */\n      0x4e487b7100000000000000000000000000000000000000000000000000000000\n        /* \"#utility.yul\":18653:18654   */\n      0x00\n        /* \"#utility.yul\":18646:18734   */\n      mstore\n        /* \"#utility.yul\":18753:18757   */\n      0x11\n        /* \"#utility.yul\":18750:18751   */\n      0x04\n        /* \"#utility.yul\":18743:18758   */\n      mstore\n        /* \"#utility.yul\":18777:18781   */\n      0x24\n        /* \"#utility.yul\":18774:18775   */\n      0x00\n        /* \"#utility.yul\":18767:18782   */\n      revert\n        /* \"#utility.yul\":18794:19027   */\n    tag_78:\n        /* \"#utility.yul\":18833:18836   */\n      0x00\n        /* \"#utility.yul\":18856:18880   */\n      tag_339\n        /* \"#utility.yul\":18874:18879   */\n      dup3\n        /* \"#utility.yul\":18856:18880   */\n      tag_125\n      jump\t// in\n    tag_339:\n        /* \"#utility.yul\":18847:18880   */\n      swap2\n      pop\n        /* \"#utility.yul\":18902:18968   */\n      0xffffffffffffffffffffffffffffffffffffffffffffffffffffffffffffffff\n        /* \"#utility.yul\":18895:18900   */\n      dup3\n        /* \"#utility.yul\":18892:18969   */\n      sub\n        /* \"#utility.yul\":18889:18992   */\n      tag_340\n      jumpi\n        /* \"#utility.yul\":18972:18990   */\n      tag_341\n      tag_163\n      jump\t// in\n    tag_341:\n        /* \"#utility.yul\":18889:18992   */\n    tag_340:\n        /* \"#utility.yul\":19019:19020   */\n      0x01\n        /* \"#utility.yul\":19012:19017   */\n      dup3\n        /* \"#utility.yul\":19008:19021   */\n      add\n        /* \"#utility.yul\":19001:19021   */\n      swap1\n      pop\n        /* \"#utility.yul\":18794:19027   */\n      swap2\n      swap1\n      pop\n      jump\t// out\n        /* \"#utility.yul\":19033:19174   */\n    tag_164:\n        /* \"#utility.yul\":19082:19086   */\n      0x00\n        /* \"#utility.yul\":19105:19108   */\n      dup2\n        /* \"#utility.yul\":19097:19108   */\n      swap1\n      pop\n        /* \"#utility.yul\":19128:19131   */\n      dup2\n        /* \"#utility.yul\":19125:19126   */\n      0x00\n        /* \"#utility.yul\":19118:19132   */\n      mstore\n        /* \"#utility.yul\":19162:19166   */\n      0x20\n        /* \"#utility.yul\":19159:19160   */\n      0x00\n        /* \"#utility.yul\":19149:19167   */\n      keccak256\n        /* \"#utility.yul\":19141:19167   */\n      swap1\n      pop\n        /* \"#utility.yul\":19033:19174   */\n      swap2\n      swap1\n      pop\n      jump\t// out\n        /* \"#utility.yul\":19180:19273   */\n    tag_165:\n        /* \"#utility.yul\":19217:19223   */\n      0x00\n        /* \"#utility.yul\":19264:19266   */\n      0x20\n        /* \"#utility.yul\":19259:19261   */\n      0x1f\n        /* \"#utility.yul\":19252:19257   */\n      dup4\n        /* \"#utility.yul\":19248:19262   */\n      add\n        /* \"#utility.yul\":19244:19267   */\n      div\n        /* \"#utility.yul\":19234:19267   */\n      swap1\n      pop\n        /* \"#utility.yul\":19180:19273   */\n      swap2\n      swap1\n      pop\n      jump\t// out\n        /* \"#utility.yul\":19279:19386   */\n    tag_166:\n        /* \"#utility.yul\":19323:19331   */\n      0x00\n        /* \"#utility.yul\":19373:19378   */\n      dup3\n        /* \"#utility.yul\":19367:19371   */\n      dup3\n        /* \"#utility.yul\":19363:19379   */\n      shl\n        /* \"#utility.yul\":19342:19379   */\n      swap1\n      pop\n        /* \"#utility.yul\":19279:19386   */\n      swap3\n      swap2\n      pop\n      pop\n      jump\t// out\n        /* \"#utility.yul\":19392:19785   */\n    tag_167:\n        /* \"#utility.yul\":19461:19467   */\n      0x00\n        /* \"#utility.yul\":19511:19512   */\n      0x08\n        /* \"#utility.yul\":19499:19509   */\n      dup4\n        /* \"#utility.yul\":19495:19513   */\n      mul\n        /* \"#utility.yul\":19534:19631   */\n      tag_346\n        /* \"#utility.yul\":19564:19630   */\n      0xffffffffffffffffffffffffffffffffffffffffffffffffffffffffffffffff\n        /* \"#utility.yul\":19553:19562   */\n      dup3\n        /* \"#utility.yul\":19534:19631   */\n      tag_166\n      jump\t// in\n    tag_346:\n        /* \"#utility.yul\":19652:19691   */\n      tag_347\n        /* \"#utility.yul\":19682:19690   */\n      dup7\n        /* \"#utility.yul\":19671:19680   */\n      dup4\n        /* \"#utility.yul\":19652:19691   */\n      tag_166\n      jump\t// in\n    tag_347:\n        /* \"#utility.yul\":19640:19691   */\n      swap6\n      pop\n        /* \"#utility.yul\":19724:19728   */\n      dup1\n        /* \"#utility.yul\":19720:19729   */\n      not\n        /* \"#utility.yul\":19713:19718   */\n      dup5\n        /* \"#utility.yul\":19709:19730   */\n      and\n        /* \"#utility.yul\":19700:19730   */\n      swap4\n      pop\n        /* \"#utility.yul\":19773:19777   */\n      dup1\n        /* \"#utility.yul\":19763:19771   */\n      dup7\n        /* \"#utility.yul\":19759:19778   */\n      and\n        /* \"#utility.yul\":19752:19757   */\n      dup5\n        /* \"#utility.yul\":19749:19779   */\n      or\n        /* \"#utility.yul\":19739:19779   */\n      swap3\n      pop\n        /* \"#utility.yul\":19468:19785   */\n      pop\n      pop\n        /* \"#utility.yul\":19392:19785   */\n      swap4\n      swap3\n      pop\n      pop\n      pop\n      jump\t// out\n        /* \"#utility.yul\":19791:19851   */\n    tag_168:\n        /* \"#utility.yul\":19819:19822   */\n      0x00\n        /* \"#utility.yul\":19840:19845   */\n      dup2\n        /* \"#utility.yul\":19833:19845   */\n      swap1\n      pop\n        /* \"#utility.yul\":19791:19851   */\n      swap2\n      swap1\n      pop\n      jump\t// out\n        /* \"#utility.yul\":19857:19999   */\n    tag_169:\n        /* \"#utility.yul\":19907:19916   */\n      0x00\n        /* \"#utility.yul\":19940:19993   */\n      tag_350\n        /* \"#utility.yul\":19958:19992   */\n      tag_351\n        /* \"#utility.yul\":19967:19991   */\n      tag_352\n        /* \"#utility.yul\":19985:19990   */\n      dup5\n        /* \"#utility.yul\":19967:19991   */\n      tag_125\n      jump\t// in\n    tag_352:\n        /* \"#utility.yul\":19958:19992   */\n      tag_168\n      jump\t// in\n    tag_351:\n        /* \"#utility.yul\":19940:19993   */\n      tag_125\n      jump\t// in\n    tag_350:\n        /* \"#utility.yul\":19927:19993   */\n      swap1\n      pop\n        /* \"#utility.yul\":19857:19999   */\n      swap2\n      swap1\n      pop\n      jump\t// out\n        /* \"#utility.yul\":20005:20080   */\n    tag_170:\n        /* \"#utility.yul\":20048:20051   */\n      0x00\n        /* \"#utility.yul\":20069:20074   */\n      dup2\n        /* \"#utility.yul\":20062:20074   */\n      swap1\n      pop\n        /* \"#utility.yul\":20005:20080   */\n      swap2\n      swap1\n      pop\n      jump\t// out\n        /* \"#utility.yul\":20086:20355   */\n    tag_171:\n        /* \"#utility.yul\":20196:20235   */\n      tag_355\n        /* \"#utility.yul\":20227:20234   */\n      dup4\n        /* \"#utility.yul\":20196:20235   */\n      tag_169\n      jump\t// in\n    tag_355:\n        /* \"#utility.yul\":20257:20348   */\n      tag_356\n        /* \"#utility.yul\":20306:20347   */\n      tag_357\n        /* \"#utility.yul\":20330:20346   */\n      dup3\n        /* \"#utility.yul\":20306:20347   */\n      tag_170\n      jump\t// in\n    tag_357:\n        /* \"#utility.yul\":20298:20304   */\n      dup5\n        /* \"#utility.yul\":20291:20295   */\n      dup5\n        /* \"#utility.yul\":20285:20296   */\n      sload\n        /* \"#utility.yul\":20257:20348   */\n      tag_167\n      jump\t// in\n    tag_356:\n        /* \"#utility.yul\":20251:20255   */\n      dup3\n        /* \"#utility.yul\":20244:20349   */\n      sstore\n        /* \"#utility.yul\":20162:20355   */\n      pop\n        /* \"#utility.yul\":20086:20355   */\n      pop\n      pop\n      pop\n      jump\t// out\n        /* \"#utility.yul\":20361:20434   */\n    tag_172:\n        /* \"#utility.yul\":20406:20409   */\n      0x00\n        /* \"#utility.yul\":20361:20434   */\n      swap1\n      jump\t// out\n        /* \"#utility.yul\":20440:20629   */\n    tag_173:\n        /* \"#utility.yul\":20517:20549   */\n      tag_360\n      tag_172\n      jump\t// in\n    tag_360:\n        /* \"#utility.yul\":20558:20623   */\n      tag_361\n        /* \"#utility.yul\":20616:20622   */\n      dup2\n        /* \"#utility.yul\":20608:20614   */\n      dup5\n        /* \"#utility.yul\":20602:20606   */\n      dup5\n        /* \"#utility.yul\":20558:20623   */\n      tag_171\n      jump\t// in\n    tag_361:\n        /* \"#utility.yul\":20493:20629   */\n      pop\n        /* \"#utility.yul\":20440:20629   */\n      pop\n      pop\n      jump\t// out\n        /* \"#utility.yul\":20635:20821   */\n    tag_174:\n        /* \"#utility.yul\":20695:20815   */\n    tag_363:\n        /* \"#utility.yul\":20712:20715   */\n      dup2\n        /* \"#utility.yul\":20705:20710   */\n      dup2\n        /* \"#utility.yul\":20702:20716   */\n      lt\n        /* \"#utility.yul\":20695:20815   */\n      iszero\n      tag_365\n      jumpi\n        /* \"#utility.yul\":20766:20805   */\n      tag_366\n        /* \"#utility.yul\":20803:20804   */\n      0x00\n        /* \"#utility.yul\":20796:20801   */\n      dup3\n        /* \"#utility.yul\":20766:20805   */\n      tag_173\n      jump\t// in\n    tag_366:\n        /* \"#utility.yul\":20739:20740   */\n      0x01\n        /* \"#utility.yul\":20732:20737   */\n      dup2\n        /* \"#utility.yul\":20728:20741   */\n      add\n        /* \"#utility.yul\":20719:20741   */\n      swap1\n      pop\n        /* \"#utility.yul\":20695:20815   */\n      jump(tag_363)\n    tag_365:\n        /* \"#utility.yul\":20635:20821   */\n      pop\n      pop\n      jump\t// out\n        /* \"#utility.yul\":20827:21370   */\n    tag_175:\n        /* \"#utility.yul\":20928:20930   */\n      0x1f\n        /* \"#utility.yul\":20923:20926   */\n      dup3\n        /* \"#utility.yul\":20920:20931   */\n      gt\n        /* \"#utility.yul\":20917:21363   */\n      iszero\n      tag_368\n      jumpi\n        /* \"#utility.yul\":20962:21000   */\n      tag_369\n        /* \"#utility.yul\":20994:20999   */\n      dup2\n        /* \"#utility.yul\":20962:21000   */\n      tag_164\n      jump\t// in\n    tag_369:\n        /* \"#utility.yul\":21046:21075   */\n      tag_370\n        /* \"#utility.yul\":21064:21074   */\n      dup5\n        /* \"#utility.yul\":21046:21075   */\n      tag_165\n      jump\t// in\n    tag_370:\n        /* \"#utility.yul\":21036:21044   */\n      dup2\n        /* \"#utility.yul\":21032:21076   */\n      add\n        /* \"#utility.yul\":21229:21231   */\n      0x20\n        /* \"#utility.yul\":21217:21227   */\n      dup6\n        /* \"#utility.yul\":21214:21232   */\n      lt\n        /* \"#utility.yul\":21211:21260   */\n      iszero\n      tag_371\n      jumpi\n        /* \"#utility.yul\":21250:21258   */\n      dup2\n        /* \"#utility.yul\":21235:21258   */\n      swap1\n      pop\n        /* \"#utility.yul\":21211:21260   */\n    tag_371:\n        /* \"#utility.yul\":21273:21353   */\n      tag_372\n        /* \"#utility.yul\":21329:21351   */\n      tag_373\n        /* \"#utility.yul\":21347:21350   */\n      dup6\n        /* \"#utility.yul\":21329:21351   */\n      tag_165\n      jump\t// in\n    tag_373:\n        /* \"#utility.yul\":21319:21327   */\n      dup4\n        /* \"#utility.yul\":21315:21352   */\n      add\n        /* \"#utility.yul\":21302:21313   */\n      dup3\n        /* \"#utility.yul\":21273:21353   */\n      tag_174\n      jump\t// in\n    tag_372:\n        /* \"#utility.yul\":20932:21363   */\n      pop\n      pop\n        /* \"#utility.yul\":20917:21363   */\n    tag_368:\n        /* \"#utility.yul\":20827:21370   */\n      pop\n      pop\n      pop\n      jump\t// out\n        /* \"#utility.yul\":21376:21493   */\n    tag_176:\n        /* \"#utility.yul\":21430:21438   */\n      0x00\n        /* \"#utility.yul\":21480:21485   */\n      dup3\n        /* \"#utility.yul\":21474:21478   */\n      dup3\n        /* \"#utility.yul\":21470:21486   */\n      shr\n        /* \"#utility.yul\":21449:21486   */\n      swap1\n      pop\n        /* \"#utility.yul\":21376:21493   */\n      swap3\n      swap2\n      pop\n      pop\n      jump\t// out\n        /* \"#utility.yul\":21499:21668   */\n    tag_177:\n        /* \"#utility.yul\":21543:21549   */\n      0x00\n        /* \"#utility.yul\":21576:21627   */\n      tag_376\n        /* \"#utility.yul\":21624:21625   */\n      0x00\n        /* \"#utility.yul\":21620:21626   */\n      not\n        /* \"#utility.yul\":21612:21617   */\n      dup5\n        /* \"#utility.yul\":21609:21610   */\n      0x08\n        /* \"#utility.yul\":21605:21618   */\n      mul\n        /* \"#utility.yul\":21576:21627   */\n      tag_176\n      jump\t// in\n    tag_376:\n        /* \"#utility.yul\":21572:21628   */\n      not\n        /* \"#utility.yul\":21657:21661   */\n      dup1\n        /* \"#utility.yul\":21651:21655   */\n      dup4\n        /* \"#utility.yul\":21647:21662   */\n      and\n        /* \"#utility.yul\":21637:21662   */\n      swap2\n      pop\n        /* \"#utility.yul\":21550:21668   */\n      pop\n        /* \"#utility.yul\":21499:21668   */\n      swap3\n      swap2\n      pop\n      pop\n      jump\t// out\n        /* \"#utility.yul\":21673:21968   */\n    tag_178:\n        /* \"#utility.yul\":21749:21753   */\n      0x00\n        /* \"#utility.yul\":21895:21924   */\n      tag_378\n        /* \"#utility.yul\":21920:21923   */\n      dup4\n        /* \"#utility.yul\":21914:21918   */\n      dup4\n        /* \"#utility.yul\":21895:21924   */\n      tag_177\n      jump\t// in\n    tag_378:\n        /* \"#utility.yul\":21887:21924   */\n      swap2\n      pop\n        /* \"#utility.yul\":21957:21960   */\n      dup3\n        /* \"#utility.yul\":21954:21955   */\n      0x02\n        /* \"#utility.yul\":21950:21961   */\n      mul\n        /* \"#utility.yul\":21944:21948   */\n      dup3\n        /* \"#utility.yul\":21941:21962   */\n      or\n        /* \"#utility.yul\":21933:21962   */\n      swap1\n      pop\n        /* \"#utility.yul\":21673:21968   */\n      swap3\n      swap2\n      pop\n      pop\n      jump\t// out\n        /* \"#utility.yul\":21973:23368   */\n    tag_103:\n        /* \"#utility.yul\":22090:22127   */\n      tag_380\n        /* \"#utility.yul\":22123:22126   */\n      dup3\n        /* \"#utility.yul\":22090:22127   */\n      tag_128\n      jump\t// in\n    tag_380:\n        /* \"#utility.yul\":22192:22210   */\n      0xffffffffffffffff\n        /* \"#utility.yul\":22184:22190   */\n      dup2\n        /* \"#utility.yul\":22181:22211   */\n      gt\n        /* \"#utility.yul\":22178:22234   */\n      iszero\n      tag_381\n      jumpi\n        /* \"#utility.yul\":22214:22232   */\n      tag_382\n      tag_62\n      jump\t// in\n    tag_382:\n        /* \"#utility.yul\":22178:22234   */\n    tag_381:\n        /* \"#utility.yul\":22258:22296   */\n      tag_383\n        /* \"#utility.yul\":22290:22294   */\n      dup3\n        /* \"#utility.yul\":22284:22295   */\n      sload\n        /* \"#utility.yul\":22258:22296   */\n      tag_49\n      jump\t// in\n    tag_383:\n        /* \"#utility.yul\":22343:22410   */\n      tag_384\n        /* \"#utility.yul\":22403:22409   */\n      dup3\n        /* \"#utility.yul\":22395:22401   */\n      dup3\n        /* \"#utility.yul\":22389:22393   */\n      dup6\n        /* \"#utility.yul\":22343:22410   */\n      tag_175\n      jump\t// in\n    tag_384:\n        /* \"#utility.yul\":22437:22438   */\n      0x00\n        /* \"#utility.yul\":22461:22465   */\n      0x20\n        /* \"#utility.yul\":22448:22465   */\n      swap1\n      pop\n        /* \"#utility.yul\":22493:22495   */\n      0x1f\n        /* \"#utility.yul\":22485:22491   */\n      dup4\n        /* \"#utility.yul\":22482:22496   */\n      gt\n        /* \"#utility.yul\":22510:22511   */\n      0x01\n        /* \"#utility.yul\":22505:23123   */\n      dup2\n      eq\n      tag_386\n      jumpi\n        /* \"#utility.yul\":23167:23168   */\n      0x00\n        /* \"#utility.yul\":23184:23190   */\n      dup5\n        /* \"#utility.yul\":23181:23258   */\n      iszero\n      tag_387\n      jumpi\n        /* \"#utility.yul\":23233:23242   */\n      dup3\n        /* \"#utility.yul\":23228:23231   */\n      dup8\n        /* \"#utility.yul\":23224:23243   */\n      add\n        /* \"#utility.yul\":23218:23244   */\n      mload\n        /* \"#utility.yul\":23209:23244   */\n      swap1\n      pop\n        /* \"#utility.yul\":23181:23258   */\n    tag_387:\n        /* \"#utility.yul\":23284:23351   */\n      tag_388\n        /* \"#utility.yul\":23344:23350   */\n      dup6\n        /* \"#utility.yul\":23337:23342   */\n      dup3\n        /* \"#utility.yul\":23284:23351   */\n      tag_178\n      jump\t// in\n    tag_388:\n        /* \"#utility.yul\":23278:23282   */\n      dup7\n        /* \"#utility.yul\":23271:23352   */\n      sstore\n        /* \"#utility.yul\":23140:23362   */\n      pop\n        /* \"#utility.yul\":22475:23362   */\n      jump(tag_385)\n        /* \"#utility.yul\":22505:23123   */\n    tag_386:\n        /* \"#utility.yul\":22557:22561   */\n      0x1f\n        /* \"#utility.yul\":22553:22562   */\n      not\n        /* \"#utility.yul\":22545:22551   */\n      dup5\n        /* \"#utility.yul\":22541:22563   */\n      and\n        /* \"#utility.yul\":22591:22628   */\n      tag_389\n        /* \"#utility.yul\":22623:22627   */\n      dup7\n        /* \"#utility.yul\":22591:22628   */\n      tag_164\n      jump\t// in\n    tag_389:\n        /* \"#utility.yul\":22650:22651   */\n      0x00\n        /* \"#utility.yul\":22664:22872   */\n    tag_390:\n        /* \"#utility.yul\":22678:22685   */\n      dup3\n        /* \"#utility.yul\":22675:22676   */\n      dup2\n        /* \"#utility.yul\":22672:22686   */\n      lt\n        /* \"#utility.yul\":22664:22872   */\n      iszero\n      tag_392\n      jumpi\n        /* \"#utility.yul\":22757:22766   */\n      dup5\n        /* \"#utility.yul\":22752:22755   */\n      dup10\n        /* \"#utility.yul\":22748:22767   */\n      add\n        /* \"#utility.yul\":22742:22768   */\n      mload\n        /* \"#utility.yul\":22734:22740   */\n      dup3\n        /* \"#utility.yul\":22727:22769   */\n      sstore\n        /* \"#utility.yul\":22808:22809   */\n      0x01\n        /* \"#utility.yul\":22800:22806   */\n      dup3\n        /* \"#utility.yul\":22796:22810   */\n      add\n        /* \"#utility.yul\":22786:22810   */\n      swap2\n      pop\n        /* \"#utility.yul\":22855:22857   */\n      0x20\n        /* \"#utility.yul\":22844:22853   */\n      dup6\n        /* \"#utility.yul\":22840:22858   */\n      add\n        /* \"#utility.yul\":22827:22858   */\n      swap5\n      pop\n        /* \"#utility.yul\":22701:22705   */\n      0x20\n        /* \"#utility.yul\":22698:22699   */\n      dup2\n        /* \"#utility.yul\":22694:22706   */\n      add\n        /* \"#utility.yul\":22689:22706   */\n      swap1\n      pop\n        /* \"#utility.yul\":22664:22872   */\n      jump(tag_390)\n    tag_392:\n        /* \"#utility.yul\":22900:22906   */\n      dup7\n        /* \"#utility.yul\":22891:22898   */\n      dup4\n        /* \"#utility.yul\":22888:22907   */\n      lt\n        /* \"#utility.yul\":22885:23064   */\n      iszero\n      tag_393\n      jumpi\n        /* \"#utility.yul\":22958:22967   */\n      dup5\n        /* \"#utility.yul\":22953:22956   */\n      dup10\n        /* \"#utility.yul\":22949:22968   */\n      add\n        /* \"#utility.yul\":22943:22969   */\n      mload\n        /* \"#utility.yul\":23001:23049   */\n      tag_394\n        /* \"#utility.yul\":23043:23047   */\n      0x1f\n        /* \"#utility.yul\":23035:23041   */\n      dup10\n        /* \"#utility.yul\":23031:23048   */\n      and\n        /* \"#utility.yul\":23020:23029   */\n      dup3\n        /* \"#utility.yul\":23001:23049   */\n      tag_177\n      jump\t// in\n    tag_394:\n        /* \"#utility.yul\":22993:22999   */\n      dup4\n        /* \"#utility.yul\":22986:23050   */\n      sstore\n        /* \"#utility.yul\":22908:23064   */\n      pop\n        /* \"#utility.yul\":22885:23064   */\n    tag_393:\n        /* \"#utility.yul\":23110:23111   */\n      0x01\n        /* \"#utility.yul\":23106:23107   */\n      0x02\n        /* \"#utility.yul\":23098:23104   */\n      dup9\n        /* \"#utility.yul\":23094:23108   */\n      mul\n        /* \"#utility.yul\":23090:23112   */\n      add\n        /* \"#utility.yul\":23084:23088   */\n      dup9\n        /* \"#utility.yul\":23077:23113   */\n      sstore\n        /* \"#utility.yul\":22512:23123   */\n      pop\n      pop\n      pop\n        /* \"#utility.yul\":22475:23362   */\n    tag_385:\n      pop\n        /* \"#utility.yul\":22065:23368   */\n      pop\n      pop\n      pop\n        /* \"#utility.yul\":21973:23368   */\n      pop\n      pop\n      jump\t// out\n\n    auxdata: 0xa26469706673582212204554afe17445b8371f49cdcb7f512132bf91ffce98b0cc5e3e7712e52c750de964736f6c63430008130033\n}\n",
				"bytecode": {
					"linkReferences": {},
					"object": "608060405273ece897a85688f2e83a73fed36b9d1a6efcc99e936000806101000a81548173ffffffffffffffffffffffffffffffffffffffff021916908373ffffffffffffffffffffffffffffffffffffffff16021790555034801561006457600080fd5b506117d8806100746000396000f3fe608060405234801561001057600080fd5b506004361061007d5760003560e01c80633b43b7d01161005b5780633b43b7d0146101125780636f5fde111461012e5780637a1bc3751461015e578063c0ac4ae41461017c5761007d565b80632394e5dc14610082578063392a5822146100b25780633abb615a146100e2575b600080fd5b61009c60048036038101906100979190610cd3565b6101ac565b6040516100a99190610e8a565b60405180910390f35b6100cc60048036038101906100c79190610cd3565b6103d4565b6040516100d99190610fc3565b60405180910390f35b6100fc60048036038101906100f79190610cd3565b6105cb565b604051610109919061110f565b60405180910390f35b61012c60048036038101906101279190611292565b610775565b005b61014860048036038101906101439190610cd3565b610939565b6040516101559190611340565b60405180910390f35b6101666109a0565b604051610173919061110f565b60405180910390f35b6101966004803603810190610191919061135b565b610a98565b6040516101a39190611403565b60405180910390f35b6101b4610b6d565b600260008373ffffffffffffffffffffffffffffffffffffffff1673ffffffffffffffffffffffffffffffffffffffff16815260200190815260200160002060405180610100016040529081600082015481526020016001820160009054906101000a900473ffffffffffffffffffffffffffffffffffffffff1673ffffffffffffffffffffffffffffffffffffffff1673ffffffffffffffffffffffffffffffffffffffff16815260200160028201805461026f9061144d565b80601f016020809104026020016040519081016040528092919081815260200182805461029b9061144d565b80156102e85780601f106102bd576101008083540402835291602001916102e8565b820191906000526020600020905b8154815290600101906020018083116102cb57829003601f168201915b505050505081526020016003820180546103019061144d565b80601f016020809104026020016040519081016040528092919081815260200182805461032d9061144d565b801561037a5780601f1061034f5761010080835404028352916020019161037a565b820191906000526020600020905b81548152906001019060200180831161035d57829003601f168201915b5050505050815260200160048201548152602001600582015481526020016006820160009054906101000a900460ff161515151581526020016006820160019054906101000a900460ff1615151515815250509050919050565b60606000600260008473ffffffffffffffffffffffffffffffffffffffff1673ffffffffffffffffffffffffffffffffffffffff16815260200190815260200160002060050154905060008167ffffffffffffffff8111156104395761043861113b565b5b60405190808252806020026020018201604052801561047257816020015b61045f610bcc565b8152602001906001900390816104575790505b5090506000805b6007805490508110156105bf5760006007828154811061049c5761049b61147e565b5b90600052602060002090600502016040518060a001604052908160008201548152602001600182015481526020016002820160009054906101000a900473ffffffffffffffffffffffffffffffffffffffff1673ffffffffffffffffffffffffffffffffffffffff1673ffffffffffffffffffffffffffffffffffffffff168152602001600382015481526020016004820160009054906101000a900460ff16151515158152505090508673ffffffffffffffffffffffffffffffffffffffff16816040015173ffffffffffffffffffffffffffffffffffffffff16036105ab57808484815181106105915761059061147e565b5b602002602001018190525082806105a7906114dc565b9350505b5080806105b7906114dc565b915050610479565b50819350505050919050565b606060006105d8836103d4565b90506000815167ffffffffffffffff8111156105f7576105f661113b565b5b60405190808252806020026020018201604052801561063057816020015b61061d610c13565b8152602001906001900390816106155790505b5090506000805b83518110156107695760008482815181106106555761065461147e565b5b6020026020010151905060038160200151815481106106775761067661147e565b5b90600052602060002090600602016040518060c0016040529081600082015481526020016001820160009054906101000a900473ffffffffffffffffffffffffffffffffffffffff1673ffffffffffffffffffffffffffffffffffffffff1673ffffffffffffffffffffffffffffffffffffffff1681526020016002820154815260200160038201548152602001600482015481526020016005820160009054906101000a900460ff16151515158152505084848151811061073c5761073b61147e565b5b60200260200101819052508280610752906114dc565b935050508080610761906114dc565b915050610637565b50819350505050919050565b60006009549050610784610b6d565b8181600001818152505085816020019073ffffffffffffffffffffffffffffffffffffffff16908173ffffffffffffffffffffffffffffffffffffffff16815250508481604001819052508381606001819052508281608001818152505060008160a001818152505060008160c001901515908115158152505060008160e001901515908115158152505080600260008873ffffffffffffffffffffffffffffffffffffffff1673ffffffffffffffffffffffffffffffffffffffff1681526020019081526020016000206000820151816000015560208201518160010160006101000a81548173ffffffffffffffffffffffffffffffffffffffff021916908373ffffffffffffffffffffffffffffffffffffffff16021790555060408201518160020190816108b591906116d0565b5060608201518160030190816108cb91906116d0565b506080820151816004015560a0820151816005015560c08201518160060160006101000a81548160ff02191690831515021790555060e08201518160060160016101000a81548160ff021916908315150217905550905050818061092e906114dc565b925050505050505050565b6000600260008373ffffffffffffffffffffffffffffffffffffffff1673ffffffffffffffffffffffffffffffffffffffff16815260200190815260200160002060060160019054906101000a900460ff16610996576001610999565b60005b9050919050565b60606003805480602002602001604051908101604052809291908181526020016000905b82821015610a8f57838290600052602060002090600602016040518060c0016040529081600082015481526020016001820160009054906101000a900473ffffffffffffffffffffffffffffffffffffffff1673ffffffffffffffffffffffffffffffffffffffff1673ffffffffffffffffffffffffffffffffffffffff1681526020016002820154815260200160038201548152602001600482015481526020016005820160009054906101000a900460ff161515151581525050815260200190600101906109c4565b50505050905090565b610aa0610c13565b60038281548110610ab457610ab361147e565b5b90600052602060002090600602016040518060c0016040529081600082015481526020016001820160009054906101000a900473ffffffffffffffffffffffffffffffffffffffff1673ffffffffffffffffffffffffffffffffffffffff1673ffffffffffffffffffffffffffffffffffffffff1681526020016002820154815260200160038201548152602001600482015481526020016005820160009054906101000a900460ff1615151515815250509050919050565b60405180610100016040528060008152602001600073ffffffffffffffffffffffffffffffffffffffff168152602001606081526020016060815260200160008152602001600081526020016000151581526020016000151581525090565b6040518060a001604052806000815260200160008152602001600073ffffffffffffffffffffffffffffffffffffffff168152602001600081526020016000151581525090565b6040518060c0016040528060008152602001600073ffffffffffffffffffffffffffffffffffffffff1681526020016000815260200160008152602001600081526020016000151581525090565b6000604051905090565b600080fd5b600080fd5b600073ffffffffffffffffffffffffffffffffffffffff82169050919050565b6000610ca082610c75565b9050919050565b610cb081610c95565b8114610cbb57600080fd5b50565b600081359050610ccd81610ca7565b92915050565b600060208284031215610ce957610ce8610c6b565b5b6000610cf784828501610cbe565b91505092915050565b6000819050919050565b610d1381610d00565b82525050565b610d2281610c95565b82525050565b600081519050919050565b600082825260208201905092915050565b60005b83811015610d62578082015181840152602081019050610d47565b60008484015250505050565b6000601f19601f8301169050919050565b6000610d8a82610d28565b610d948185610d33565b9350610da4818560208601610d44565b610dad81610d6e565b840191505092915050565b60008115159050919050565b610dcd81610db8565b82525050565b600061010083016000830151610dec6000860182610d0a565b506020830151610dff6020860182610d19565b5060408301518482036040860152610e178282610d7f565b91505060608301518482036060860152610e318282610d7f565b9150506080830151610e466080860182610d0a565b5060a0830151610e5960a0860182610d0a565b5060c0830151610e6c60c0860182610dc4565b5060e0830151610e7f60e0860182610dc4565b508091505092915050565b60006020820190508181036000830152610ea48184610dd3565b905092915050565b600081519050919050565b600082825260208201905092915050565b6000819050602082019050919050565b60a082016000820151610eee6000850182610d0a565b506020820151610f016020850182610d0a565b506040820151610f146040850182610d19565b506060820151610f276060850182610d0a565b506080820151610f3a6080850182610dc4565b50505050565b6000610f4c8383610ed8565b60a08301905092915050565b6000602082019050919050565b6000610f7082610eac565b610f7a8185610eb7565b9350610f8583610ec8565b8060005b83811015610fb6578151610f9d8882610f40565b9750610fa883610f58565b925050600181019050610f89565b5085935050505092915050565b60006020820190508181036000830152610fdd8184610f65565b905092915050565b600081519050919050565b600082825260208201905092915050565b6000819050602082019050919050565b60c0820160008201516110276000850182610d0a565b50602082015161103a6020850182610d19565b50604082015161104d6040850182610d0a565b5060608201516110606060850182610d0a565b5060808201516110736080850182610d0a565b5060a082015161108660a0850182610dc4565b50505050565b60006110988383611011565b60c08301905092915050565b6000602082019050919050565b60006110bc82610fe5565b6110c68185610ff0565b93506110d183611001565b8060005b838110156111025781516110e9888261108c565b97506110f4836110a4565b9250506001810190506110d5565b5085935050505092915050565b6000602082019050818103600083015261112981846110b1565b905092915050565b600080fd5b600080fd5b7f4e487b7100000000000000000000000000000000000000000000000000000000600052604160045260246000fd5b61117382610d6e565b810181811067ffffffffffffffff821117156111925761119161113b565b5b80604052505050565b60006111a5610c61565b90506111b1828261116a565b919050565b600067ffffffffffffffff8211156111d1576111d061113b565b5b6111da82610d6e565b9050602081019050919050565b82818337600083830152505050565b6000611209611204846111b6565b61119b565b90508281526020810184848401111561122557611224611136565b5b6112308482856111e7565b509392505050565b600082601f83011261124d5761124c611131565b5b813561125d8482602086016111f6565b91505092915050565b61126f81610d00565b811461127a57600080fd5b50565b60008135905061128c81611266565b92915050565b600080600080608085870312156112ac576112ab610c6b565b5b60006112ba87828801610cbe565b945050602085013567ffffffffffffffff8111156112db576112da610c70565b5b6112e787828801611238565b935050604085013567ffffffffffffffff81111561130857611307610c70565b5b61131487828801611238565b92505060606113258782880161127d565b91505092959194509250565b61133a81610db8565b82525050565b60006020820190506113556000830184611331565b92915050565b60006020828403121561137157611370610c6b565b5b600061137f8482850161127d565b91505092915050565b60c08201600082015161139e6000850182610d0a565b5060208201516113b16020850182610d19565b5060408201516113c46040850182610d0a565b5060608201516113d76060850182610d0a565b5060808201516113ea6080850182610d0a565b5060a08201516113fd60a0850182610dc4565b50505050565b600060c0820190506114186000830184611388565b92915050565b7f4e487b7100000000000000000000000000000000000000000000000000000000600052602260045260246000fd5b6000600282049050600182168061146557607f821691505b6020821081036114785761147761141e565b5b50919050565b7f4e487b7100000000000000000000000000000000000000000000000000000000600052603260045260246000fd5b7f4e487b7100000000000000000000000000000000000000000000000000000000600052601160045260246000fd5b60006114e782610d00565b91507fffffffffffffffffffffffffffffffffffffffffffffffffffffffffffffffff8203611519576115186114ad565b5b600182019050919050565b60008190508160005260206000209050919050565b60006020601f8301049050919050565b600082821b905092915050565b6000600883026115867fffffffffffffffffffffffffffffffffffffffffffffffffffffffffffffffff82611549565b6115908683611549565b95508019841693508086168417925050509392505050565b6000819050919050565b60006115cd6115c86115c384610d00565b6115a8565b610d00565b9050919050565b6000819050919050565b6115e7836115b2565b6115fb6115f3826115d4565b848454611556565b825550505050565b600090565b611610611603565b61161b8184846115de565b505050565b5b8181101561163f57611634600082611608565b600181019050611621565b5050565b601f8211156116845761165581611524565b61165e84611539565b8101602085101561166d578190505b61168161167985611539565b830182611620565b50505b505050565b600082821c905092915050565b60006116a760001984600802611689565b1980831691505092915050565b60006116c08383611696565b9150826002028217905092915050565b6116d982610d28565b67ffffffffffffffff8111156116f2576116f161113b565b5b6116fc825461144d565b611707828285611643565b600060209050601f83116001811461173a5760008415611728578287015190505b61173285826116b4565b86555061179a565b601f19841661174886611524565b60005b828110156117705784890151825560018201915060208501945060208101905061174b565b8683101561178d5784890151611789601f891682611696565b8355505b6001600288020188555050505b50505050505056fea26469706673582212204554afe17445b8371f49cdcb7f512132bf91ffce98b0cc5e3e7712e52c750de964736f6c63430008130033",
					"opcodes": "PUSH1 0x80 PUSH1 0x40 MSTORE PUSH20 0xECE897A85688F2E83A73FED36B9D1A6EFCC99E93 PUSH1 0x0 DUP1 PUSH2 0x100 EXP DUP2 SLOAD DUP2 PUSH20 0xFFFFFFFFFFFFFFFFFFFFFFFFFFFFFFFFFFFFFFFF MUL NOT AND SWAP1 DUP4 PUSH20 0xFFFFFFFFFFFFFFFFFFFFFFFFFFFFFFFFFFFFFFFF AND MUL OR SWAP1 SSTORE POP CALLVALUE DUP1 ISZERO PUSH2 0x64 JUMPI PUSH1 0x0 DUP1 REVERT JUMPDEST POP PUSH2 0x17D8 DUP1 PUSH2 0x74 PUSH1 0x0 CODECOPY PUSH1 0x0 RETURN INVALID PUSH1 0x80 PUSH1 0x40 MSTORE CALLVALUE DUP1 ISZERO PUSH2 0x10 JUMPI PUSH1 0x0 DUP1 REVERT JUMPDEST POP PUSH1 0x4 CALLDATASIZE LT PUSH2 0x7D JUMPI PUSH1 0x0 CALLDATALOAD PUSH1 0xE0 SHR DUP1 PUSH4 0x3B43B7D0 GT PUSH2 0x5B JUMPI DUP1 PUSH4 0x3B43B7D0 EQ PUSH2 0x112 JUMPI DUP1 PUSH4 0x6F5FDE11 EQ PUSH2 0x12E JUMPI DUP1 PUSH4 0x7A1BC375 EQ PUSH2 0x15E JUMPI DUP1 PUSH4 0xC0AC4AE4 EQ PUSH2 0x17C JUMPI PUSH2 0x7D JUMP JUMPDEST DUP1 PUSH4 0x2394E5DC EQ PUSH2 0x82 JUMPI DUP1 PUSH4 0x392A5822 EQ PUSH2 0xB2 JUMPI DUP1 PUSH4 0x3ABB615A EQ PUSH2 0xE2 JUMPI JUMPDEST PUSH1 0x0 DUP1 REVERT JUMPDEST PUSH2 0x9C PUSH1 0x4 DUP1 CALLDATASIZE SUB DUP2 ADD SWAP1 PUSH2 0x97 SWAP2 SWAP1 PUSH2 0xCD3 JUMP JUMPDEST PUSH2 0x1AC JUMP JUMPDEST PUSH1 0x40 MLOAD PUSH2 0xA9 SWAP2 SWAP1 PUSH2 0xE8A JUMP JUMPDEST PUSH1 0x40 MLOAD DUP1 SWAP2 SUB SWAP1 RETURN JUMPDEST PUSH2 0xCC PUSH1 0x4 DUP1 CALLDATASIZE SUB DUP2 ADD SWAP1 PUSH2 0xC7 SWAP2 SWAP1 PUSH2 0xCD3 JUMP JUMPDEST PUSH2 0x3D4 JUMP JUMPDEST PUSH1 0x40 MLOAD PUSH2 0xD9 SWAP2 SWAP1 PUSH2 0xFC3 JUMP JUMPDEST PUSH1 0x40 MLOAD DUP1 SWAP2 SUB SWAP1 RETURN JUMPDEST PUSH2 0xFC PUSH1 0x4 DUP1 CALLDATASIZE SUB DUP2 ADD SWAP1 PUSH2 0xF7 SWAP2 SWAP1 PUSH2 0xCD3 JUMP JUMPDEST PUSH2 0x5CB JUMP JUMPDEST PUSH1 0x40 MLOAD PUSH2 0x109 SWAP2 SWAP1 PUSH2 0x110F JUMP JUMPDEST PUSH1 0x40 MLOAD DUP1 SWAP2 SUB SWAP1 RETURN JUMPDEST PUSH2 0x12C PUSH1 0x4 DUP1 CALLDATASIZE SUB DUP2 ADD SWAP1 PUSH2 0x127 SWAP2 SWAP1 PUSH2 0x1292 JUMP JUMPDEST PUSH2 0x775 JUMP JUMPDEST STOP JUMPDEST PUSH2 0x148 PUSH1 0x4 DUP1 CALLDATASIZE SUB DUP2 ADD SWAP1 PUSH2 0x143 SWAP2 SWAP1 PUSH2 0xCD3 JUMP JUMPDEST PUSH2 0x939 JUMP JUMPDEST PUSH1 0x40 MLOAD PUSH2 0x155 SWAP2 SWAP1 PUSH2 0x1340 JUMP JUMPDEST PUSH1 0x40 MLOAD DUP1 SWAP2 SUB SWAP1 RETURN JUMPDEST PUSH2 0x166 PUSH2 0x9A0 JUMP JUMPDEST PUSH1 0x40 MLOAD PUSH2 0x173 SWAP2 SWAP1 PUSH2 0x110F JUMP JUMPDEST PUSH1 0x40 MLOAD DUP1 SWAP2 SUB SWAP1 RETURN JUMPDEST PUSH2 0x196 PUSH1 0x4 DUP1 CALLDATASIZE SUB DUP2 ADD SWAP1 PUSH2 0x191 SWAP2 SWAP1 PUSH2 0x135B JUMP JUMPDEST PUSH2 0xA98 JUMP JUMPDEST PUSH1 0x40 MLOAD PUSH2 0x1A3 SWAP2 SWAP1 PUSH2 0x1403 JUMP JUMPDEST PUSH1 0x40 MLOAD DUP1 SWAP2 SUB SWAP1 RETURN JUMPDEST PUSH2 0x1B4 PUSH2 0xB6D JUMP JUMPDEST PUSH1 0x2 PUSH1 0x0 DUP4 PUSH20 0xFFFFFFFFFFFFFFFFFFFFFFFFFFFFFFFFFFFFFFFF AND PUSH20 0xFFFFFFFFFFFFFFFFFFFFFFFFFFFFFFFFFFFFFFFF AND DUP2 MSTORE PUSH1 0x20 ADD SWAP1 DUP2 MSTORE PUSH1 0x20 ADD PUSH1 0x0 KECCAK256 PUSH1 0x40 MLOAD DUP1 PUSH2 0x100 ADD PUSH1 0x40 MSTORE SWAP1 DUP2 PUSH1 0x0 DUP3 ADD SLOAD DUP2 MSTORE PUSH1 0x20 ADD PUSH1 0x1 DUP3 ADD PUSH1 0x0 SWAP1 SLOAD SWAP1 PUSH2 0x100 EXP SWAP1 DIV PUSH20 0xFFFFFFFFFFFFFFFFFFFFFFFFFFFFFFFFFFFFFFFF AND PUSH20 0xFFFFFFFFFFFFFFFFFFFFFFFFFFFFFFFFFFFFFFFF AND PUSH20 0xFFFFFFFFFFFFFFFFFFFFFFFFFFFFFFFFFFFFFFFF AND DUP2 MSTORE PUSH1 0x20 ADD PUSH1 0x2 DUP3 ADD DUP1 SLOAD PUSH2 0x26F SWAP1 PUSH2 0x144D JUMP JUMPDEST DUP1 PUSH1 0x1F ADD PUSH1 0x20 DUP1 SWAP2 DIV MUL PUSH1 0x20 ADD PUSH1 0x40 MLOAD SWAP1 DUP2 ADD PUSH1 0x40 MSTORE DUP1 SWAP3 SWAP2 SWAP1 DUP2 DUP2 MSTORE PUSH1 0x20 ADD DUP3 DUP1 SLOAD PUSH2 0x29B SWAP1 PUSH2 0x144D JUMP JUMPDEST DUP1 ISZERO PUSH2 0x2E8 JUMPI DUP1 PUSH1 0x1F LT PUSH2 0x2BD JUMPI PUSH2 0x100 DUP1 DUP4 SLOAD DIV MUL DUP4 MSTORE SWAP2 PUSH1 0x20 ADD SWAP2 PUSH2 0x2E8 JUMP JUMPDEST DUP3 ADD SWAP2 SWAP1 PUSH1 0x0 MSTORE PUSH1 0x20 PUSH1 0x0 KECCAK256 SWAP1 JUMPDEST DUP2 SLOAD DUP2 MSTORE SWAP1 PUSH1 0x1 ADD SWAP1 PUSH1 0x20 ADD DUP1 DUP4 GT PUSH2 0x2CB JUMPI DUP3 SWAP1 SUB PUSH1 0x1F AND DUP3 ADD SWAP2 JUMPDEST POP POP POP POP POP DUP2 MSTORE PUSH1 0x20 ADD PUSH1 0x3 DUP3 ADD DUP1 SLOAD PUSH2 0x301 SWAP1 PUSH2 0x144D JUMP JUMPDEST DUP1 PUSH1 0x1F ADD PUSH1 0x20 DUP1 SWAP2 DIV MUL PUSH1 0x20 ADD PUSH1 0x40 MLOAD SWAP1 DUP2 ADD PUSH1 0x40 MSTORE DUP1 SWAP3 SWAP2 SWAP1 DUP2 DUP2 MSTORE PUSH1 0x20 ADD DUP3 DUP1 SLOAD PUSH2 0x32D SWAP1 PUSH2 0x144D JUMP JUMPDEST DUP1 ISZERO PUSH2 0x37A JUMPI DUP1 PUSH1 0x1F LT PUSH2 0x34F JUMPI PUSH2 0x100 DUP1 DUP4 SLOAD DIV MUL DUP4 MSTORE SWAP2 PUSH1 0x20 ADD SWAP2 PUSH2 0x37A JUMP JUMPDEST DUP3 ADD SWAP2 SWAP1 PUSH1 0x0 MSTORE PUSH1 0x20 PUSH1 0x0 KECCAK256 SWAP1 JUMPDEST DUP2 SLOAD DUP2 MSTORE SWAP1 PUSH1 0x1 ADD SWAP1 PUSH1 0x20 ADD DUP1 DUP4 GT PUSH2 0x35D JUMPI DUP3 SWAP1 SUB PUSH1 0x1F AND DUP3 ADD SWAP2 JUMPDEST POP POP POP POP POP DUP2 MSTORE PUSH1 0x20 ADD PUSH1 0x4 DUP3 ADD SLOAD DUP2 MSTORE PUSH1 0x20 ADD PUSH1 0x5 DUP3 ADD SLOAD DUP2 MSTORE PUSH1 0x20 ADD PUSH1 0x6 DUP3 ADD PUSH1 0x0 SWAP1 SLOAD SWAP1 PUSH2 0x100 EXP SWAP1 DIV PUSH1 0xFF AND ISZERO ISZERO ISZERO ISZERO DUP2 MSTORE PUSH1 0x20 ADD PUSH1 0x6 DUP3 ADD PUSH1 0x1 SWAP1 SLOAD SWAP1 PUSH2 0x100 EXP SWAP1 DIV PUSH1 0xFF AND ISZERO ISZERO ISZERO ISZERO DUP2 MSTORE POP POP SWAP1 POP SWAP2 SWAP1 POP JUMP JUMPDEST PUSH1 0x60 PUSH1 0x0 PUSH1 0x2 PUSH1 0x0 DUP5 PUSH20 0xFFFFFFFFFFFFFFFFFFFFFFFFFFFFFFFFFFFFFFFF AND PUSH20 0xFFFFFFFFFFFFFFFFFFFFFFFFFFFFFFFFFFFFFFFF AND DUP2 MSTORE PUSH1 0x20 ADD SWAP1 DUP2 MSTORE PUSH1 0x20 ADD PUSH1 0x0 KECCAK256 PUSH1 0x5 ADD SLOAD SWAP1 POP PUSH1 0x0 DUP2 PUSH8 0xFFFFFFFFFFFFFFFF DUP2 GT ISZERO PUSH2 0x439 JUMPI PUSH2 0x438 PUSH2 0x113B JUMP JUMPDEST JUMPDEST PUSH1 0x40 MLOAD SWAP1 DUP1 DUP3 MSTORE DUP1 PUSH1 0x20 MUL PUSH1 0x20 ADD DUP3 ADD PUSH1 0x40 MSTORE DUP1 ISZERO PUSH2 0x472 JUMPI DUP2 PUSH1 0x20 ADD JUMPDEST PUSH2 0x45F PUSH2 0xBCC JUMP JUMPDEST DUP2 MSTORE PUSH1 0x20 ADD SWAP1 PUSH1 0x1 SWAP1 SUB SWAP1 DUP2 PUSH2 0x457 JUMPI SWAP1 POP JUMPDEST POP SWAP1 POP PUSH1 0x0 DUP1 JUMPDEST PUSH1 0x7 DUP1 SLOAD SWAP1 POP DUP2 LT ISZERO PUSH2 0x5BF JUMPI PUSH1 0x0 PUSH1 0x7 DUP3 DUP2 SLOAD DUP2 LT PUSH2 0x49C JUMPI PUSH2 0x49B PUSH2 0x147E JUMP JUMPDEST JUMPDEST SWAP1 PUSH1 0x0 MSTORE PUSH1 0x20 PUSH1 0x0 KECCAK256 SWAP1 PUSH1 0x5 MUL ADD PUSH1 0x40 MLOAD DUP1 PUSH1 0xA0 ADD PUSH1 0x40 MSTORE SWAP1 DUP2 PUSH1 0x0 DUP3 ADD SLOAD DUP2 MSTORE PUSH1 0x20 ADD PUSH1 0x1 DUP3 ADD SLOAD DUP2 MSTORE PUSH1 0x20 ADD PUSH1 0x2 DUP3 ADD PUSH1 0x0 SWAP1 SLOAD SWAP1 PUSH2 0x100 EXP SWAP1 DIV PUSH20 0xFFFFFFFFFFFFFFFFFFFFFFFFFFFFFFFFFFFFFFFF AND PUSH20 0xFFFFFFFFFFFFFFFFFFFFFFFFFFFFFFFFFFFFFFFF AND PUSH20 0xFFFFFFFFFFFFFFFFFFFFFFFFFFFFFFFFFFFFFFFF AND DUP2 MSTORE PUSH1 0x20 ADD PUSH1 0x3 DUP3 ADD SLOAD DUP2 MSTORE PUSH1 0x20 ADD PUSH1 0x4 DUP3 ADD PUSH1 0x0 SWAP1 SLOAD SWAP1 PUSH2 0x100 EXP SWAP1 DIV PUSH1 0xFF AND ISZERO ISZERO ISZERO ISZERO DUP2 MSTORE POP POP SWAP1 POP DUP7 PUSH20 0xFFFFFFFFFFFFFFFFFFFFFFFFFFFFFFFFFFFFFFFF AND DUP2 PUSH1 0x40 ADD MLOAD PUSH20 0xFFFFFFFFFFFFFFFFFFFFFFFFFFFFFFFFFFFFFFFF AND SUB PUSH2 0x5AB JUMPI DUP1 DUP5 DUP5 DUP2 MLOAD DUP2 LT PUSH2 0x591 JUMPI PUSH2 0x590 PUSH2 0x147E JUMP JUMPDEST JUMPDEST PUSH1 0x20 MUL PUSH1 0x20 ADD ADD DUP2 SWAP1 MSTORE POP DUP3 DUP1 PUSH2 0x5A7 SWAP1 PUSH2 0x14DC JUMP JUMPDEST SWAP4 POP POP JUMPDEST POP DUP1 DUP1 PUSH2 0x5B7 SWAP1 PUSH2 0x14DC JUMP JUMPDEST SWAP2 POP POP PUSH2 0x479 JUMP JUMPDEST POP DUP2 SWAP4 POP POP POP POP SWAP2 SWAP1 POP JUMP JUMPDEST PUSH1 0x60 PUSH1 0x0 PUSH2 0x5D8 DUP4 PUSH2 0x3D4 JUMP JUMPDEST SWAP1 POP PUSH1 0x0 DUP2 MLOAD PUSH8 0xFFFFFFFFFFFFFFFF DUP2 GT ISZERO PUSH2 0x5F7 JUMPI PUSH2 0x5F6 PUSH2 0x113B JUMP JUMPDEST JUMPDEST PUSH1 0x40 MLOAD SWAP1 DUP1 DUP3 MSTORE DUP1 PUSH1 0x20 MUL PUSH1 0x20 ADD DUP3 ADD PUSH1 0x40 MSTORE DUP1 ISZERO PUSH2 0x630 JUMPI DUP2 PUSH1 0x20 ADD JUMPDEST PUSH2 0x61D PUSH2 0xC13 JUMP JUMPDEST DUP2 MSTORE PUSH1 0x20 ADD SWAP1 PUSH1 0x1 SWAP1 SUB SWAP1 DUP2 PUSH2 0x615 JUMPI SWAP1 POP JUMPDEST POP SWAP1 POP PUSH1 0x0 DUP1 JUMPDEST DUP4 MLOAD DUP2 LT ISZERO PUSH2 0x769 JUMPI PUSH1 0x0 DUP5 DUP3 DUP2 MLOAD DUP2 LT PUSH2 0x655 JUMPI PUSH2 0x654 PUSH2 0x147E JUMP JUMPDEST JUMPDEST PUSH1 0x20 MUL PUSH1 0x20 ADD ADD MLOAD SWAP1 POP PUSH1 0x3 DUP2 PUSH1 0x20 ADD MLOAD DUP2 SLOAD DUP2 LT PUSH2 0x677 JUMPI PUSH2 0x676 PUSH2 0x147E JUMP JUMPDEST JUMPDEST SWAP1 PUSH1 0x0 MSTORE PUSH1 0x20 PUSH1 0x0 KECCAK256 SWAP1 PUSH1 0x6 MUL ADD PUSH1 0x40 MLOAD DUP1 PUSH1 0xC0 ADD PUSH1 0x40 MSTORE SWAP1 DUP2 PUSH1 0x0 DUP3 ADD SLOAD DUP2 MSTORE PUSH1 0x20 ADD PUSH1 0x1 DUP3 ADD PUSH1 0x0 SWAP1 SLOAD SWAP1 PUSH2 0x100 EXP SWAP1 DIV PUSH20 0xFFFFFFFFFFFFFFFFFFFFFFFFFFFFFFFFFFFFFFFF AND PUSH20 0xFFFFFFFFFFFFFFFFFFFFFFFFFFFFFFFFFFFFFFFF AND PUSH20 0xFFFFFFFFFFFFFFFFFFFFFFFFFFFFFFFFFFFFFFFF AND DUP2 MSTORE PUSH1 0x20 ADD PUSH1 0x2 DUP3 ADD SLOAD DUP2 MSTORE PUSH1 0x20 ADD PUSH1 0x3 DUP3 ADD SLOAD DUP2 MSTORE PUSH1 0x20 ADD PUSH1 0x4 DUP3 ADD SLOAD DUP2 MSTORE PUSH1 0x20 ADD PUSH1 0x5 DUP3 ADD PUSH1 0x0 SWAP1 SLOAD SWAP1 PUSH2 0x100 EXP SWAP1 DIV PUSH1 0xFF AND ISZERO ISZERO ISZERO ISZERO DUP2 MSTORE POP POP DUP5 DUP5 DUP2 MLOAD DUP2 LT PUSH2 0x73C JUMPI PUSH2 0x73B PUSH2 0x147E JUMP JUMPDEST JUMPDEST PUSH1 0x20 MUL PUSH1 0x20 ADD ADD DUP2 SWAP1 MSTORE POP DUP3 DUP1 PUSH2 0x752 SWAP1 PUSH2 0x14DC JUMP JUMPDEST SWAP4 POP POP POP DUP1 DUP1 PUSH2 0x761 SWAP1 PUSH2 0x14DC JUMP JUMPDEST SWAP2 POP POP PUSH2 0x637 JUMP JUMPDEST POP DUP2 SWAP4 POP POP POP POP SWAP2 SWAP1 POP JUMP JUMPDEST PUSH1 0x0 PUSH1 0x9 SLOAD SWAP1 POP PUSH2 0x784 PUSH2 0xB6D JUMP JUMPDEST DUP2 DUP2 PUSH1 0x0 ADD DUP2 DUP2 MSTORE POP POP DUP6 DUP2 PUSH1 0x20 ADD SWAP1 PUSH20 0xFFFFFFFFFFFFFFFFFFFFFFFFFFFFFFFFFFFFFFFF AND SWAP1 DUP2 PUSH20 0xFFFFFFFFFFFFFFFFFFFFFFFFFFFFFFFFFFFFFFFF AND DUP2 MSTORE POP POP DUP5 DUP2 PUSH1 0x40 ADD DUP2 SWAP1 MSTORE POP DUP4 DUP2 PUSH1 0x60 ADD DUP2 SWAP1 MSTORE POP DUP3 DUP2 PUSH1 0x80 ADD DUP2 DUP2 MSTORE POP POP PUSH1 0x0 DUP2 PUSH1 0xA0 ADD DUP2 DUP2 MSTORE POP POP PUSH1 0x0 DUP2 PUSH1 0xC0 ADD SWAP1 ISZERO ISZERO SWAP1 DUP2 ISZERO ISZERO DUP2 MSTORE POP POP PUSH1 0x0 DUP2 PUSH1 0xE0 ADD SWAP1 ISZERO ISZERO SWAP1 DUP2 ISZERO ISZERO DUP2 MSTORE POP POP DUP1 PUSH1 0x2 PUSH1 0x0 DUP9 PUSH20 0xFFFFFFFFFFFFFFFFFFFFFFFFFFFFFFFFFFFFFFFF AND PUSH20 0xFFFFFFFFFFFFFFFFFFFFFFFFFFFFFFFFFFFFFFFF AND DUP2 MSTORE PUSH1 0x20 ADD SWAP1 DUP2 MSTORE PUSH1 0x20 ADD PUSH1 0x0 KECCAK256 PUSH1 0x0 DUP3 ADD MLOAD DUP2 PUSH1 0x0 ADD SSTORE PUSH1 0x20 DUP3 ADD MLOAD DUP2 PUSH1 0x1 ADD PUSH1 0x0 PUSH2 0x100 EXP DUP2 SLOAD DUP2 PUSH20 0xFFFFFFFFFFFFFFFFFFFFFFFFFFFFFFFFFFFFFFFF MUL NOT AND SWAP1 DUP4 PUSH20 0xFFFFFFFFFFFFFFFFFFFFFFFFFFFFFFFFFFFFFFFF AND MUL OR SWAP1 SSTORE POP PUSH1 0x40 DUP3 ADD MLOAD DUP2 PUSH1 0x2 ADD SWAP1 DUP2 PUSH2 0x8B5 SWAP2 SWAP1 PUSH2 0x16D0 JUMP JUMPDEST POP PUSH1 0x60 DUP3 ADD MLOAD DUP2 PUSH1 0x3 ADD SWAP1 DUP2 PUSH2 0x8CB SWAP2 SWAP1 PUSH2 0x16D0 JUMP JUMPDEST POP PUSH1 0x80 DUP3 ADD MLOAD DUP2 PUSH1 0x4 ADD SSTORE PUSH1 0xA0 DUP3 ADD MLOAD DUP2 PUSH1 0x5 ADD SSTORE PUSH1 0xC0 DUP3 ADD MLOAD DUP2 PUSH1 0x6 ADD PUSH1 0x0 PUSH2 0x100 EXP DUP2 SLOAD DUP2 PUSH1 0xFF MUL NOT AND SWAP1 DUP4 ISZERO ISZERO MUL OR SWAP1 SSTORE POP PUSH1 0xE0 DUP3 ADD MLOAD DUP2 PUSH1 0x6 ADD PUSH1 0x1 PUSH2 0x100 EXP DUP2 SLOAD DUP2 PUSH1 0xFF MUL NOT AND SWAP1 DUP4 ISZERO ISZERO MUL OR SWAP1 SSTORE POP SWAP1 POP POP DUP2 DUP1 PUSH2 0x92E SWAP1 PUSH2 0x14DC JUMP JUMPDEST SWAP3 POP POP POP POP POP POP POP POP JUMP JUMPDEST PUSH1 0x0 PUSH1 0x2 PUSH1 0x0 DUP4 PUSH20 0xFFFFFFFFFFFFFFFFFFFFFFFFFFFFFFFFFFFFFFFF AND PUSH20 0xFFFFFFFFFFFFFFFFFFFFFFFFFFFFFFFFFFFFFFFF AND DUP2 MSTORE PUSH1 0x20 ADD SWAP1 DUP2 MSTORE PUSH1 0x20 ADD PUSH1 0x0 KECCAK256 PUSH1 0x6 ADD PUSH1 0x1 SWAP1 SLOAD SWAP1 PUSH2 0x100 EXP SWAP1 DIV PUSH1 0xFF AND PUSH2 0x996 JUMPI PUSH1 0x1 PUSH2 0x999 JUMP JUMPDEST PUSH1 0x0 JUMPDEST SWAP1 POP SWAP2 SWAP1 POP JUMP JUMPDEST PUSH1 0x60 PUSH1 0x3 DUP1 SLOAD DUP1 PUSH1 0x20 MUL PUSH1 0x20 ADD PUSH1 0x40 MLOAD SWAP1 DUP2 ADD PUSH1 0x40 MSTORE DUP1 SWAP3 SWAP2 SWAP1 DUP2 DUP2 MSTORE PUSH1 0x20 ADD PUSH1 0x0 SWAP1 JUMPDEST DUP3 DUP3 LT ISZERO PUSH2 0xA8F JUMPI DUP4 DUP3 SWAP1 PUSH1 0x0 MSTORE PUSH1 0x20 PUSH1 0x0 KECCAK256 SWAP1 PUSH1 0x6 MUL ADD PUSH1 0x40 MLOAD DUP1 PUSH1 0xC0 ADD PUSH1 0x40 MSTORE SWAP1 DUP2 PUSH1 0x0 DUP3 ADD SLOAD DUP2 MSTORE PUSH1 0x20 ADD PUSH1 0x1 DUP3 ADD PUSH1 0x0 SWAP1 SLOAD SWAP1 PUSH2 0x100 EXP SWAP1 DIV PUSH20 0xFFFFFFFFFFFFFFFFFFFFFFFFFFFFFFFFFFFFFFFF AND PUSH20 0xFFFFFFFFFFFFFFFFFFFFFFFFFFFFFFFFFFFFFFFF AND PUSH20 0xFFFFFFFFFFFFFFFFFFFFFFFFFFFFFFFFFFFFFFFF AND DUP2 MSTORE PUSH1 0x20 ADD PUSH1 0x2 DUP3 ADD SLOAD DUP2 MSTORE PUSH1 0x20 ADD PUSH1 0x3 DUP3 ADD SLOAD DUP2 MSTORE PUSH1 0x20 ADD PUSH1 0x4 DUP3 ADD SLOAD DUP2 MSTORE PUSH1 0x20 ADD PUSH1 0x5 DUP3 ADD PUSH1 0x0 SWAP1 SLOAD SWAP1 PUSH2 0x100 EXP SWAP1 DIV PUSH1 0xFF AND ISZERO ISZERO ISZERO ISZERO DUP2 MSTORE POP POP DUP2 MSTORE PUSH1 0x20 ADD SWAP1 PUSH1 0x1 ADD SWAP1 PUSH2 0x9C4 JUMP JUMPDEST POP POP POP POP SWAP1 POP SWAP1 JUMP JUMPDEST PUSH2 0xAA0 PUSH2 0xC13 JUMP JUMPDEST PUSH1 0x3 DUP3 DUP2 SLOAD DUP2 LT PUSH2 0xAB4 JUMPI PUSH2 0xAB3 PUSH2 0x147E JUMP JUMPDEST JUMPDEST SWAP1 PUSH1 0x0 MSTORE PUSH1 0x20 PUSH1 0x0 KECCAK256 SWAP1 PUSH1 0x6 MUL ADD PUSH1 0x40 MLOAD DUP1 PUSH1 0xC0 ADD PUSH1 0x40 MSTORE SWAP1 DUP2 PUSH1 0x0 DUP3 ADD SLOAD DUP2 MSTORE PUSH1 0x20 ADD PUSH1 0x1 DUP3 ADD PUSH1 0x0 SWAP1 SLOAD SWAP1 PUSH2 0x100 EXP SWAP1 DIV PUSH20 0xFFFFFFFFFFFFFFFFFFFFFFFFFFFFFFFFFFFFFFFF AND PUSH20 0xFFFFFFFFFFFFFFFFFFFFFFFFFFFFFFFFFFFFFFFF AND PUSH20 0xFFFFFFFFFFFFFFFFFFFFFFFFFFFFFFFFFFFFFFFF AND DUP2 MSTORE PUSH1 0x20 ADD PUSH1 0x2 DUP3 ADD SLOAD DUP2 MSTORE PUSH1 0x20 ADD PUSH1 0x3 DUP3 ADD SLOAD DUP2 MSTORE PUSH1 0x20 ADD PUSH1 0x4 DUP3 ADD SLOAD DUP2 MSTORE PUSH1 0x20 ADD PUSH1 0x5 DUP3 ADD PUSH1 0x0 SWAP1 SLOAD SWAP1 PUSH2 0x100 EXP SWAP1 DIV PUSH1 0xFF AND ISZERO ISZERO ISZERO ISZERO DUP2 MSTORE POP POP SWAP1 POP SWAP2 SWAP1 POP JUMP JUMPDEST PUSH1 0x40 MLOAD DUP1 PUSH2 0x100 ADD PUSH1 0x40 MSTORE DUP1 PUSH1 0x0 DUP2 MSTORE PUSH1 0x20 ADD PUSH1 0x0 PUSH20 0xFFFFFFFFFFFFFFFFFFFFFFFFFFFFFFFFFFFFFFFF AND DUP2 MSTORE PUSH1 0x20 ADD PUSH1 0x60 DUP2 MSTORE PUSH1 0x20 ADD PUSH1 0x60 DUP2 MSTORE PUSH1 0x20 ADD PUSH1 0x0 DUP2 MSTORE PUSH1 0x20 ADD PUSH1 0x0 DUP2 MSTORE PUSH1 0x20 ADD PUSH1 0x0 ISZERO ISZERO DUP2 MSTORE PUSH1 0x20 ADD PUSH1 0x0 ISZERO ISZERO DUP2 MSTORE POP SWAP1 JUMP JUMPDEST PUSH1 0x40 MLOAD DUP1 PUSH1 0xA0 ADD PUSH1 0x40 MSTORE DUP1 PUSH1 0x0 DUP2 MSTORE PUSH1 0x20 ADD PUSH1 0x0 DUP2 MSTORE PUSH1 0x20 ADD PUSH1 0x0 PUSH20 0xFFFFFFFFFFFFFFFFFFFFFFFFFFFFFFFFFFFFFFFF AND DUP2 MSTORE PUSH1 0x20 ADD PUSH1 0x0 DUP2 MSTORE PUSH1 0x20 ADD PUSH1 0x0 ISZERO ISZERO DUP2 MSTORE POP SWAP1 JUMP JUMPDEST PUSH1 0x40 MLOAD DUP1 PUSH1 0xC0 ADD PUSH1 0x40 MSTORE DUP1 PUSH1 0x0 DUP2 MSTORE PUSH1 0x20 ADD PUSH1 0x0 PUSH20 0xFFFFFFFFFFFFFFFFFFFFFFFFFFFFFFFFFFFFFFFF AND DUP2 MSTORE PUSH1 0x20 ADD PUSH1 0x0 DUP2 MSTORE PUSH1 0x20 ADD PUSH1 0x0 DUP2 MSTORE PUSH1 0x20 ADD PUSH1 0x0 DUP2 MSTORE PUSH1 0x20 ADD PUSH1 0x0 ISZERO ISZERO DUP2 MSTORE POP SWAP1 JUMP JUMPDEST PUSH1 0x0 PUSH1 0x40 MLOAD SWAP1 POP SWAP1 JUMP JUMPDEST PUSH1 0x0 DUP1 REVERT JUMPDEST PUSH1 0x0 DUP1 REVERT JUMPDEST PUSH1 0x0 PUSH20 0xFFFFFFFFFFFFFFFFFFFFFFFFFFFFFFFFFFFFFFFF DUP3 AND SWAP1 POP SWAP2 SWAP1 POP JUMP JUMPDEST PUSH1 0x0 PUSH2 0xCA0 DUP3 PUSH2 0xC75 JUMP JUMPDEST SWAP1 POP SWAP2 SWAP1 POP JUMP JUMPDEST PUSH2 0xCB0 DUP2 PUSH2 0xC95 JUMP JUMPDEST DUP2 EQ PUSH2 0xCBB JUMPI PUSH1 0x0 DUP1 REVERT JUMPDEST POP JUMP JUMPDEST PUSH1 0x0 DUP2 CALLDATALOAD SWAP1 POP PUSH2 0xCCD DUP2 PUSH2 0xCA7 JUMP JUMPDEST SWAP3 SWAP2 POP POP JUMP JUMPDEST PUSH1 0x0 PUSH1 0x20 DUP3 DUP5 SUB SLT ISZERO PUSH2 0xCE9 JUMPI PUSH2 0xCE8 PUSH2 0xC6B JUMP JUMPDEST JUMPDEST PUSH1 0x0 PUSH2 0xCF7 DUP5 DUP3 DUP6 ADD PUSH2 0xCBE JUMP JUMPDEST SWAP2 POP POP SWAP3 SWAP2 POP POP JUMP JUMPDEST PUSH1 0x0 DUP2 SWAP1 POP SWAP2 SWAP1 POP JUMP JUMPDEST PUSH2 0xD13 DUP2 PUSH2 0xD00 JUMP JUMPDEST DUP3 MSTORE POP POP JUMP JUMPDEST PUSH2 0xD22 DUP2 PUSH2 0xC95 JUMP JUMPDEST DUP3 MSTORE POP POP JUMP JUMPDEST PUSH1 0x0 DUP2 MLOAD SWAP1 POP SWAP2 SWAP1 POP JUMP JUMPDEST PUSH1 0x0 DUP3 DUP3 MSTORE PUSH1 0x20 DUP3 ADD SWAP1 POP SWAP3 SWAP2 POP POP JUMP JUMPDEST PUSH1 0x0 JUMPDEST DUP4 DUP2 LT ISZERO PUSH2 0xD62 JUMPI DUP1 DUP3 ADD MLOAD DUP2 DUP5 ADD MSTORE PUSH1 0x20 DUP2 ADD SWAP1 POP PUSH2 0xD47 JUMP JUMPDEST PUSH1 0x0 DUP5 DUP5 ADD MSTORE POP POP POP POP JUMP JUMPDEST PUSH1 0x0 PUSH1 0x1F NOT PUSH1 0x1F DUP4 ADD AND SWAP1 POP SWAP2 SWAP1 POP JUMP JUMPDEST PUSH1 0x0 PUSH2 0xD8A DUP3 PUSH2 0xD28 JUMP JUMPDEST PUSH2 0xD94 DUP2 DUP6 PUSH2 0xD33 JUMP JUMPDEST SWAP4 POP PUSH2 0xDA4 DUP2 DUP6 PUSH1 0x20 DUP7 ADD PUSH2 0xD44 JUMP JUMPDEST PUSH2 0xDAD DUP2 PUSH2 0xD6E JUMP JUMPDEST DUP5 ADD SWAP2 POP POP SWAP3 SWAP2 POP POP JUMP JUMPDEST PUSH1 0x0 DUP2 ISZERO ISZERO SWAP1 POP SWAP2 SWAP1 POP JUMP JUMPDEST PUSH2 0xDCD DUP2 PUSH2 0xDB8 JUMP JUMPDEST DUP3 MSTORE POP POP JUMP JUMPDEST PUSH1 0x0 PUSH2 0x100 DUP4 ADD PUSH1 0x0 DUP4 ADD MLOAD PUSH2 0xDEC PUSH1 0x0 DUP7 ADD DUP3 PUSH2 0xD0A JUMP JUMPDEST POP PUSH1 0x20 DUP4 ADD MLOAD PUSH2 0xDFF PUSH1 0x20 DUP7 ADD DUP3 PUSH2 0xD19 JUMP JUMPDEST POP PUSH1 0x40 DUP4 ADD MLOAD DUP5 DUP3 SUB PUSH1 0x40 DUP7 ADD MSTORE PUSH2 0xE17 DUP3 DUP3 PUSH2 0xD7F JUMP JUMPDEST SWAP2 POP POP PUSH1 0x60 DUP4 ADD MLOAD DUP5 DUP3 SUB PUSH1 0x60 DUP7 ADD MSTORE PUSH2 0xE31 DUP3 DUP3 PUSH2 0xD7F JUMP JUMPDEST SWAP2 POP POP PUSH1 0x80 DUP4 ADD MLOAD PUSH2 0xE46 PUSH1 0x80 DUP7 ADD DUP3 PUSH2 0xD0A JUMP JUMPDEST POP PUSH1 0xA0 DUP4 ADD MLOAD PUSH2 0xE59 PUSH1 0xA0 DUP7 ADD DUP3 PUSH2 0xD0A JUMP JUMPDEST POP PUSH1 0xC0 DUP4 ADD MLOAD PUSH2 0xE6C PUSH1 0xC0 DUP7 ADD DUP3 PUSH2 0xDC4 JUMP JUMPDEST POP PUSH1 0xE0 DUP4 ADD MLOAD PUSH2 0xE7F PUSH1 0xE0 DUP7 ADD DUP3 PUSH2 0xDC4 JUMP JUMPDEST POP DUP1 SWAP2 POP POP SWAP3 SWAP2 POP POP JUMP JUMPDEST PUSH1 0x0 PUSH1 0x20 DUP3 ADD SWAP1 POP DUP2 DUP2 SUB PUSH1 0x0 DUP4 ADD MSTORE PUSH2 0xEA4 DUP2 DUP5 PUSH2 0xDD3 JUMP JUMPDEST SWAP1 POP SWAP3 SWAP2 POP POP JUMP JUMPDEST PUSH1 0x0 DUP2 MLOAD SWAP1 POP SWAP2 SWAP1 POP JUMP JUMPDEST PUSH1 0x0 DUP3 DUP3 MSTORE PUSH1 0x20 DUP3 ADD SWAP1 POP SWAP3 SWAP2 POP POP JUMP JUMPDEST PUSH1 0x0 DUP2 SWAP1 POP PUSH1 0x20 DUP3 ADD SWAP1 POP SWAP2 SWAP1 POP JUMP JUMPDEST PUSH1 0xA0 DUP3 ADD PUSH1 0x0 DUP3 ADD MLOAD PUSH2 0xEEE PUSH1 0x0 DUP6 ADD DUP3 PUSH2 0xD0A JUMP JUMPDEST POP PUSH1 0x20 DUP3 ADD MLOAD PUSH2 0xF01 PUSH1 0x20 DUP6 ADD DUP3 PUSH2 0xD0A JUMP JUMPDEST POP PUSH1 0x40 DUP3 ADD MLOAD PUSH2 0xF14 PUSH1 0x40 DUP6 ADD DUP3 PUSH2 0xD19 JUMP JUMPDEST POP PUSH1 0x60 DUP3 ADD MLOAD PUSH2 0xF27 PUSH1 0x60 DUP6 ADD DUP3 PUSH2 0xD0A JUMP JUMPDEST POP PUSH1 0x80 DUP3 ADD MLOAD PUSH2 0xF3A PUSH1 0x80 DUP6 ADD DUP3 PUSH2 0xDC4 JUMP JUMPDEST POP POP POP POP JUMP JUMPDEST PUSH1 0x0 PUSH2 0xF4C DUP4 DUP4 PUSH2 0xED8 JUMP JUMPDEST PUSH1 0xA0 DUP4 ADD SWAP1 POP SWAP3 SWAP2 POP POP JUMP JUMPDEST PUSH1 0x0 PUSH1 0x20 DUP3 ADD SWAP1 POP SWAP2 SWAP1 POP JUMP JUMPDEST PUSH1 0x0 PUSH2 0xF70 DUP3 PUSH2 0xEAC JUMP JUMPDEST PUSH2 0xF7A DUP2 DUP6 PUSH2 0xEB7 JUMP JUMPDEST SWAP4 POP PUSH2 0xF85 DUP4 PUSH2 0xEC8 JUMP JUMPDEST DUP1 PUSH1 0x0 JUMPDEST DUP4 DUP2 LT ISZERO PUSH2 0xFB6 JUMPI DUP2 MLOAD PUSH2 0xF9D DUP9 DUP3 PUSH2 0xF40 JUMP JUMPDEST SWAP8 POP PUSH2 0xFA8 DUP4 PUSH2 0xF58 JUMP JUMPDEST SWAP3 POP POP PUSH1 0x1 DUP2 ADD SWAP1 POP PUSH2 0xF89 JUMP JUMPDEST POP DUP6 SWAP4 POP POP POP POP SWAP3 SWAP2 POP POP JUMP JUMPDEST PUSH1 0x0 PUSH1 0x20 DUP3 ADD SWAP1 POP DUP2 DUP2 SUB PUSH1 0x0 DUP4 ADD MSTORE PUSH2 0xFDD DUP2 DUP5 PUSH2 0xF65 JUMP JUMPDEST SWAP1 POP SWAP3 SWAP2 POP POP JUMP JUMPDEST PUSH1 0x0 DUP2 MLOAD SWAP1 POP SWAP2 SWAP1 POP JUMP JUMPDEST PUSH1 0x0 DUP3 DUP3 MSTORE PUSH1 0x20 DUP3 ADD SWAP1 POP SWAP3 SWAP2 POP POP JUMP JUMPDEST PUSH1 0x0 DUP2 SWAP1 POP PUSH1 0x20 DUP3 ADD SWAP1 POP SWAP2 SWAP1 POP JUMP JUMPDEST PUSH1 0xC0 DUP3 ADD PUSH1 0x0 DUP3 ADD MLOAD PUSH2 0x1027 PUSH1 0x0 DUP6 ADD DUP3 PUSH2 0xD0A JUMP JUMPDEST POP PUSH1 0x20 DUP3 ADD MLOAD PUSH2 0x103A PUSH1 0x20 DUP6 ADD DUP3 PUSH2 0xD19 JUMP JUMPDEST POP PUSH1 0x40 DUP3 ADD MLOAD PUSH2 0x104D PUSH1 0x40 DUP6 ADD DUP3 PUSH2 0xD0A JUMP JUMPDEST POP PUSH1 0x60 DUP3 ADD MLOAD PUSH2 0x1060 PUSH1 0x60 DUP6 ADD DUP3 PUSH2 0xD0A JUMP JUMPDEST POP PUSH1 0x80 DUP3 ADD MLOAD PUSH2 0x1073 PUSH1 0x80 DUP6 ADD DUP3 PUSH2 0xD0A JUMP JUMPDEST POP PUSH1 0xA0 DUP3 ADD MLOAD PUSH2 0x1086 PUSH1 0xA0 DUP6 ADD DUP3 PUSH2 0xDC4 JUMP JUMPDEST POP POP POP POP JUMP JUMPDEST PUSH1 0x0 PUSH2 0x1098 DUP4 DUP4 PUSH2 0x1011 JUMP JUMPDEST PUSH1 0xC0 DUP4 ADD SWAP1 POP SWAP3 SWAP2 POP POP JUMP JUMPDEST PUSH1 0x0 PUSH1 0x20 DUP3 ADD SWAP1 POP SWAP2 SWAP1 POP JUMP JUMPDEST PUSH1 0x0 PUSH2 0x10BC DUP3 PUSH2 0xFE5 JUMP JUMPDEST PUSH2 0x10C6 DUP2 DUP6 PUSH2 0xFF0 JUMP JUMPDEST SWAP4 POP PUSH2 0x10D1 DUP4 PUSH2 0x1001 JUMP JUMPDEST DUP1 PUSH1 0x0 JUMPDEST DUP4 DUP2 LT ISZERO PUSH2 0x1102 JUMPI DUP2 MLOAD PUSH2 0x10E9 DUP9 DUP3 PUSH2 0x108C JUMP JUMPDEST SWAP8 POP PUSH2 0x10F4 DUP4 PUSH2 0x10A4 JUMP JUMPDEST SWAP3 POP POP PUSH1 0x1 DUP2 ADD SWAP1 POP PUSH2 0x10D5 JUMP JUMPDEST POP DUP6 SWAP4 POP POP POP POP SWAP3 SWAP2 POP POP JUMP JUMPDEST PUSH1 0x0 PUSH1 0x20 DUP3 ADD SWAP1 POP DUP2 DUP2 SUB PUSH1 0x0 DUP4 ADD MSTORE PUSH2 0x1129 DUP2 DUP5 PUSH2 0x10B1 JUMP JUMPDEST SWAP1 POP SWAP3 SWAP2 POP POP JUMP JUMPDEST PUSH1 0x0 DUP1 REVERT JUMPDEST PUSH1 0x0 DUP1 REVERT JUMPDEST PUSH32 0x4E487B7100000000000000000000000000000000000000000000000000000000 PUSH1 0x0 MSTORE PUSH1 0x41 PUSH1 0x4 MSTORE PUSH1 0x24 PUSH1 0x0 REVERT JUMPDEST PUSH2 0x1173 DUP3 PUSH2 0xD6E JUMP JUMPDEST DUP2 ADD DUP2 DUP2 LT PUSH8 0xFFFFFFFFFFFFFFFF DUP3 GT OR ISZERO PUSH2 0x1192 JUMPI PUSH2 0x1191 PUSH2 0x113B JUMP JUMPDEST JUMPDEST DUP1 PUSH1 0x40 MSTORE POP POP POP JUMP JUMPDEST PUSH1 0x0 PUSH2 0x11A5 PUSH2 0xC61 JUMP JUMPDEST SWAP1 POP PUSH2 0x11B1 DUP3 DUP3 PUSH2 0x116A JUMP JUMPDEST SWAP2 SWAP1 POP JUMP JUMPDEST PUSH1 0x0 PUSH8 0xFFFFFFFFFFFFFFFF DUP3 GT ISZERO PUSH2 0x11D1 JUMPI PUSH2 0x11D0 PUSH2 0x113B JUMP JUMPDEST JUMPDEST PUSH2 0x11DA DUP3 PUSH2 0xD6E JUMP JUMPDEST SWAP1 POP PUSH1 0x20 DUP2 ADD SWAP1 POP SWAP2 SWAP1 POP JUMP JUMPDEST DUP3 DUP2 DUP4 CALLDATACOPY PUSH1 0x0 DUP4 DUP4 ADD MSTORE POP POP POP JUMP JUMPDEST PUSH1 0x0 PUSH2 0x1209 PUSH2 0x1204 DUP5 PUSH2 0x11B6 JUMP JUMPDEST PUSH2 0x119B JUMP JUMPDEST SWAP1 POP DUP3 DUP2 MSTORE PUSH1 0x20 DUP2 ADD DUP5 DUP5 DUP5 ADD GT ISZERO PUSH2 0x1225 JUMPI PUSH2 0x1224 PUSH2 0x1136 JUMP JUMPDEST JUMPDEST PUSH2 0x1230 DUP5 DUP3 DUP6 PUSH2 0x11E7 JUMP JUMPDEST POP SWAP4 SWAP3 POP POP POP JUMP JUMPDEST PUSH1 0x0 DUP3 PUSH1 0x1F DUP4 ADD SLT PUSH2 0x124D JUMPI PUSH2 0x124C PUSH2 0x1131 JUMP JUMPDEST JUMPDEST DUP2 CALLDATALOAD PUSH2 0x125D DUP5 DUP3 PUSH1 0x20 DUP7 ADD PUSH2 0x11F6 JUMP JUMPDEST SWAP2 POP POP SWAP3 SWAP2 POP POP JUMP JUMPDEST PUSH2 0x126F DUP2 PUSH2 0xD00 JUMP JUMPDEST DUP2 EQ PUSH2 0x127A JUMPI PUSH1 0x0 DUP1 REVERT JUMPDEST POP JUMP JUMPDEST PUSH1 0x0 DUP2 CALLDATALOAD SWAP1 POP PUSH2 0x128C DUP2 PUSH2 0x1266 JUMP JUMPDEST SWAP3 SWAP2 POP POP JUMP JUMPDEST PUSH1 0x0 DUP1 PUSH1 0x0 DUP1 PUSH1 0x80 DUP6 DUP8 SUB SLT ISZERO PUSH2 0x12AC JUMPI PUSH2 0x12AB PUSH2 0xC6B JUMP JUMPDEST JUMPDEST PUSH1 0x0 PUSH2 0x12BA DUP8 DUP3 DUP9 ADD PUSH2 0xCBE JUMP JUMPDEST SWAP5 POP POP PUSH1 0x20 DUP6 ADD CALLDATALOAD PUSH8 0xFFFFFFFFFFFFFFFF DUP2 GT ISZERO PUSH2 0x12DB JUMPI PUSH2 0x12DA PUSH2 0xC70 JUMP JUMPDEST JUMPDEST PUSH2 0x12E7 DUP8 DUP3 DUP9 ADD PUSH2 0x1238 JUMP JUMPDEST SWAP4 POP POP PUSH1 0x40 DUP6 ADD CALLDATALOAD PUSH8 0xFFFFFFFFFFFFFFFF DUP2 GT ISZERO PUSH2 0x1308 JUMPI PUSH2 0x1307 PUSH2 0xC70 JUMP JUMPDEST JUMPDEST PUSH2 0x1314 DUP8 DUP3 DUP9 ADD PUSH2 0x1238 JUMP JUMPDEST SWAP3 POP POP PUSH1 0x60 PUSH2 0x1325 DUP8 DUP3 DUP9 ADD PUSH2 0x127D JUMP JUMPDEST SWAP2 POP POP SWAP3 SWAP6 SWAP2 SWAP5 POP SWAP3 POP JUMP JUMPDEST PUSH2 0x133A DUP2 PUSH2 0xDB8 JUMP JUMPDEST DUP3 MSTORE POP POP JUMP JUMPDEST PUSH1 0x0 PUSH1 0x20 DUP3 ADD SWAP1 POP PUSH2 0x1355 PUSH1 0x0 DUP4 ADD DUP5 PUSH2 0x1331 JUMP JUMPDEST SWAP3 SWAP2 POP POP JUMP JUMPDEST PUSH1 0x0 PUSH1 0x20 DUP3 DUP5 SUB SLT ISZERO PUSH2 0x1371 JUMPI PUSH2 0x1370 PUSH2 0xC6B JUMP JUMPDEST JUMPDEST PUSH1 0x0 PUSH2 0x137F DUP5 DUP3 DUP6 ADD PUSH2 0x127D JUMP JUMPDEST SWAP2 POP POP SWAP3 SWAP2 POP POP JUMP JUMPDEST PUSH1 0xC0 DUP3 ADD PUSH1 0x0 DUP3 ADD MLOAD PUSH2 0x139E PUSH1 0x0 DUP6 ADD DUP3 PUSH2 0xD0A JUMP JUMPDEST POP PUSH1 0x20 DUP3 ADD MLOAD PUSH2 0x13B1 PUSH1 0x20 DUP6 ADD DUP3 PUSH2 0xD19 JUMP JUMPDEST POP PUSH1 0x40 DUP3 ADD MLOAD PUSH2 0x13C4 PUSH1 0x40 DUP6 ADD DUP3 PUSH2 0xD0A JUMP JUMPDEST POP PUSH1 0x60 DUP3 ADD MLOAD PUSH2 0x13D7 PUSH1 0x60 DUP6 ADD DUP3 PUSH2 0xD0A JUMP JUMPDEST POP PUSH1 0x80 DUP3 ADD MLOAD PUSH2 0x13EA PUSH1 0x80 DUP6 ADD DUP3 PUSH2 0xD0A JUMP JUMPDEST POP PUSH1 0xA0 DUP3 ADD MLOAD PUSH2 0x13FD PUSH1 0xA0 DUP6 ADD DUP3 PUSH2 0xDC4 JUMP JUMPDEST POP POP POP POP JUMP JUMPDEST PUSH1 0x0 PUSH1 0xC0 DUP3 ADD SWAP1 POP PUSH2 0x1418 PUSH1 0x0 DUP4 ADD DUP5 PUSH2 0x1388 JUMP JUMPDEST SWAP3 SWAP2 POP POP JUMP JUMPDEST PUSH32 0x4E487B7100000000000000000000000000000000000000000000000000000000 PUSH1 0x0 MSTORE PUSH1 0x22 PUSH1 0x4 MSTORE PUSH1 0x24 PUSH1 0x0 REVERT JUMPDEST PUSH1 0x0 PUSH1 0x2 DUP3 DIV SWAP1 POP PUSH1 0x1 DUP3 AND DUP1 PUSH2 0x1465 JUMPI PUSH1 0x7F DUP3 AND SWAP2 POP JUMPDEST PUSH1 0x20 DUP3 LT DUP2 SUB PUSH2 0x1478 JUMPI PUSH2 0x1477 PUSH2 0x141E JUMP JUMPDEST JUMPDEST POP SWAP2 SWAP1 POP JUMP JUMPDEST PUSH32 0x4E487B7100000000000000000000000000000000000000000000000000000000 PUSH1 0x0 MSTORE PUSH1 0x32 PUSH1 0x4 MSTORE PUSH1 0x24 PUSH1 0x0 REVERT JUMPDEST PUSH32 0x4E487B7100000000000000000000000000000000000000000000000000000000 PUSH1 0x0 MSTORE PUSH1 0x11 PUSH1 0x4 MSTORE PUSH1 0x24 PUSH1 0x0 REVERT JUMPDEST PUSH1 0x0 PUSH2 0x14E7 DUP3 PUSH2 0xD00 JUMP JUMPDEST SWAP2 POP PUSH32 0xFFFFFFFFFFFFFFFFFFFFFFFFFFFFFFFFFFFFFFFFFFFFFFFFFFFFFFFFFFFFFFFF DUP3 SUB PUSH2 0x1519 JUMPI PUSH2 0x1518 PUSH2 0x14AD JUMP JUMPDEST JUMPDEST PUSH1 0x1 DUP3 ADD SWAP1 POP SWAP2 SWAP1 POP JUMP JUMPDEST PUSH1 0x0 DUP2 SWAP1 POP DUP2 PUSH1 0x0 MSTORE PUSH1 0x20 PUSH1 0x0 KECCAK256 SWAP1 POP SWAP2 SWAP1 POP JUMP JUMPDEST PUSH1 0x0 PUSH1 0x20 PUSH1 0x1F DUP4 ADD DIV SWAP1 POP SWAP2 SWAP1 POP JUMP JUMPDEST PUSH1 0x0 DUP3 DUP3 SHL SWAP1 POP SWAP3 SWAP2 POP POP JUMP JUMPDEST PUSH1 0x0 PUSH1 0x8 DUP4 MUL PUSH2 0x1586 PUSH32 0xFFFFFFFFFFFFFFFFFFFFFFFFFFFFFFFFFFFFFFFFFFFFFFFFFFFFFFFFFFFFFFFF DUP3 PUSH2 0x1549 JUMP JUMPDEST PUSH2 0x1590 DUP7 DUP4 PUSH2 0x1549 JUMP JUMPDEST SWAP6 POP DUP1 NOT DUP5 AND SWAP4 POP DUP1 DUP7 AND DUP5 OR SWAP3 POP POP POP SWAP4 SWAP3 POP POP POP JUMP JUMPDEST PUSH1 0x0 DUP2 SWAP1 POP SWAP2 SWAP1 POP JUMP JUMPDEST PUSH1 0x0 PUSH2 0x15CD PUSH2 0x15C8 PUSH2 0x15C3 DUP5 PUSH2 0xD00 JUMP JUMPDEST PUSH2 0x15A8 JUMP JUMPDEST PUSH2 0xD00 JUMP JUMPDEST SWAP1 POP SWAP2 SWAP1 POP JUMP JUMPDEST PUSH1 0x0 DUP2 SWAP1 POP SWAP2 SWAP1 POP JUMP JUMPDEST PUSH2 0x15E7 DUP4 PUSH2 0x15B2 JUMP JUMPDEST PUSH2 0x15FB PUSH2 0x15F3 DUP3 PUSH2 0x15D4 JUMP JUMPDEST DUP5 DUP5 SLOAD PUSH2 0x1556 JUMP JUMPDEST DUP3 SSTORE POP POP POP POP JUMP JUMPDEST PUSH1 0x0 SWAP1 JUMP JUMPDEST PUSH2 0x1610 PUSH2 0x1603 JUMP JUMPDEST PUSH2 0x161B DUP2 DUP5 DUP5 PUSH2 0x15DE JUMP JUMPDEST POP POP POP JUMP JUMPDEST JUMPDEST DUP2 DUP2 LT ISZERO PUSH2 0x163F JUMPI PUSH2 0x1634 PUSH1 0x0 DUP3 PUSH2 0x1608 JUMP JUMPDEST PUSH1 0x1 DUP2 ADD SWAP1 POP PUSH2 0x1621 JUMP JUMPDEST POP POP JUMP JUMPDEST PUSH1 0x1F DUP3 GT ISZERO PUSH2 0x1684 JUMPI PUSH2 0x1655 DUP2 PUSH2 0x1524 JUMP JUMPDEST PUSH2 0x165E DUP5 PUSH2 0x1539 JUMP JUMPDEST DUP2 ADD PUSH1 0x20 DUP6 LT ISZERO PUSH2 0x166D JUMPI DUP2 SWAP1 POP JUMPDEST PUSH2 0x1681 PUSH2 0x1679 DUP6 PUSH2 0x1539 JUMP JUMPDEST DUP4 ADD DUP3 PUSH2 0x1620 JUMP JUMPDEST POP POP JUMPDEST POP POP POP JUMP JUMPDEST PUSH1 0x0 DUP3 DUP3 SHR SWAP1 POP SWAP3 SWAP2 POP POP JUMP JUMPDEST PUSH1 0x0 PUSH2 0x16A7 PUSH1 0x0 NOT DUP5 PUSH1 0x8 MUL PUSH2 0x1689 JUMP JUMPDEST NOT DUP1 DUP4 AND SWAP2 POP POP SWAP3 SWAP2 POP POP JUMP JUMPDEST PUSH1 0x0 PUSH2 0x16C0 DUP4 DUP4 PUSH2 0x1696 JUMP JUMPDEST SWAP2 POP DUP3 PUSH1 0x2 MUL DUP3 OR SWAP1 POP SWAP3 SWAP2 POP POP JUMP JUMPDEST PUSH2 0x16D9 DUP3 PUSH2 0xD28 JUMP JUMPDEST PUSH8 0xFFFFFFFFFFFFFFFF DUP2 GT ISZERO PUSH2 0x16F2 JUMPI PUSH2 0x16F1 PUSH2 0x113B JUMP JUMPDEST JUMPDEST PUSH2 0x16FC DUP3 SLOAD PUSH2 0x144D JUMP JUMPDEST PUSH2 0x1707 DUP3 DUP3 DUP6 PUSH2 0x1643 JUMP JUMPDEST PUSH1 0x0 PUSH1 0x20 SWAP1 POP PUSH1 0x1F DUP4 GT PUSH1 0x1 DUP2 EQ PUSH2 0x173A JUMPI PUSH1 0x0 DUP5 ISZERO PUSH2 0x1728 JUMPI DUP3 DUP8 ADD MLOAD SWAP1 POP JUMPDEST PUSH2 0x1732 DUP6 DUP3 PUSH2 0x16B4 JUMP JUMPDEST DUP7 SSTORE POP PUSH2 0x179A JUMP JUMPDEST PUSH1 0x1F NOT DUP5 AND PUSH2 0x1748 DUP7 PUSH2 0x1524 JUMP JUMPDEST PUSH1 0x0 JUMPDEST DUP3 DUP2 LT ISZERO PUSH2 0x1770 JUMPI DUP5 DUP10 ADD MLOAD DUP3 SSTORE PUSH1 0x1 DUP3 ADD SWAP2 POP PUSH1 0x20 DUP6 ADD SWAP5 POP PUSH1 0x20 DUP2 ADD SWAP1 POP PUSH2 0x174B JUMP JUMPDEST DUP7 DUP4 LT ISZERO PUSH2 0x178D JUMPI DUP5 DUP10 ADD MLOAD PUSH2 0x1789 PUSH1 0x1F DUP10 AND DUP3 PUSH2 0x1696 JUMP JUMPDEST DUP4 SSTORE POP JUMPDEST PUSH1 0x1 PUSH1 0x2 DUP9 MUL ADD DUP9 SSTORE POP POP POP JUMPDEST POP POP POP POP POP POP JUMP INVALID LOG2 PUSH5 0x6970667358 0x22 SLT KECCAK256 GASLIMIT SLOAD 0xAF 0xE1 PUSH21 0x45B8371F49CDCB7F512132BF91FFCE98B0CC5E3E77 SLT 0xE5 0x2C PUSH22 0xDE964736F6C63430008130033000000000000000000 "
				},
				"gasEstimates": {
					"creation": {
						"codeDepositCost": "1220800",
						"executionCost": "25535",
						"totalCost": "1246335"
					},
					"external": {
						"checkIfParticipantExists(address)": "2989",
						"createParticipant(address,string,string,uint256)": "infinite",
						"getAllEarningsMadeByParticipant(address)": "infinite",
						"getAllSurveys()": "infinite",
						"getAllSurveysTakenByParticipant(address)": "infinite",
						"getParticipantByWalletAddress(address)": "infinite",
						"getSurveyById(uint256)": "infinite"
					}
				},
				"methodIdentifiers": {
					"checkIfParticipantExists(address)": "6f5fde11",
					"createParticipant(address,string,string,uint256)": "3b43b7d0",
					"getAllEarningsMadeByParticipant(address)": "392a5822",
					"getAllSurveys()": "7a1bc375",
					"getAllSurveysTakenByParticipant(address)": "3abb615a",
					"getParticipantByWalletAddress(address)": "2394e5dc",
					"getSurveyById(uint256)": "c0ac4ae4"
				}
			},
			"storageLayout": {
				"storage": [
					{
						"astId": 12,
						"contract": "smart-contracts/playground/main/Canvassing.sol:Canvassing",
						"label": "canvassingOwnerWalletAddress",
						"offset": 0,
						"slot": "0",
						"type": "t_address"
					},
					{
						"astId": 17,
						"contract": "smart-contracts/playground/main/Canvassing.sol:Canvassing",
						"label": "allResearchers",
						"offset": 0,
						"slot": "1",
						"type": "t_mapping(t_address,t_struct(Researcher)345_storage)"
					},
					{
						"astId": 22,
						"contract": "smart-contracts/playground/main/Canvassing.sol:Canvassing",
						"label": "allParticipants",
						"offset": 0,
						"slot": "2",
						"type": "t_mapping(t_address,t_struct(Participant)362_storage)"
					},
					{
						"astId": 26,
						"contract": "smart-contracts/playground/main/Canvassing.sol:Canvassing",
						"label": "allSurveys",
						"offset": 0,
						"slot": "3",
						"type": "t_array(t_struct(Survey)375_storage)dyn_storage"
					},
					{
						"astId": 32,
						"contract": "smart-contracts/playground/main/Canvassing.sol:Canvassing",
						"label": "allQuestions",
						"offset": 0,
						"slot": "4",
						"type": "t_mapping(t_uint256,t_array(t_struct(Question)384_storage)dyn_storage)"
					},
					{
						"astId": 38,
						"contract": "smart-contracts/playground/main/Canvassing.sol:Canvassing",
						"label": "allAnswers",
						"offset": 0,
						"slot": "5",
						"type": "t_mapping(t_uint256,t_array(t_struct(Answer)397_storage)dyn_storage)"
					},
					{
						"astId": 42,
						"contract": "smart-contracts/playground/main/Canvassing.sol:Canvassing",
						"label": "allFundings",
						"offset": 0,
						"slot": "6",
						"type": "t_array(t_struct(Funding)419_storage)dyn_storage"
					},
					{
						"astId": 46,
						"contract": "smart-contracts/playground/main/Canvassing.sol:Canvassing",
						"label": "allEarnings",
						"offset": 0,
						"slot": "7",
						"type": "t_array(t_struct(Earning)408_storage)dyn_storage"
					},
					{
						"astId": 48,
						"contract": "smart-contracts/playground/main/Canvassing.sol:Canvassing",
						"label": "currentResearcherId",
						"offset": 0,
						"slot": "8",
						"type": "t_uint256"
					},
					{
						"astId": 50,
						"contract": "smart-contracts/playground/main/Canvassing.sol:Canvassing",
						"label": "currentParticipantId",
						"offset": 0,
						"slot": "9",
						"type": "t_uint256"
					},
					{
						"astId": 52,
						"contract": "smart-contracts/playground/main/Canvassing.sol:Canvassing",
						"label": "currentSurveyId",
						"offset": 0,
						"slot": "10",
						"type": "t_uint256"
					},
					{
						"astId": 54,
						"contract": "smart-contracts/playground/main/Canvassing.sol:Canvassing",
						"label": "currentQuestionId",
						"offset": 0,
						"slot": "11",
						"type": "t_uint256"
					},
					{
						"astId": 56,
						"contract": "smart-contracts/playground/main/Canvassing.sol:Canvassing",
						"label": "currentAnswerId",
						"offset": 0,
						"slot": "12",
						"type": "t_uint256"
					},
					{
						"astId": 58,
						"contract": "smart-contracts/playground/main/Canvassing.sol:Canvassing",
						"label": "currentEarningId",
						"offset": 0,
						"slot": "13",
						"type": "t_uint256"
					}
				],
				"types": {
					"t_address": {
						"encoding": "inplace",
						"label": "address",
						"numberOfBytes": "20"
					},
					"t_array(t_struct(Answer)397_storage)dyn_storage": {
						"base": "t_struct(Answer)397_storage",
						"encoding": "dynamic_array",
						"label": "struct Answer[]",
						"numberOfBytes": "32"
					},
					"t_array(t_struct(Earning)408_storage)dyn_storage": {
						"base": "t_struct(Earning)408_storage",
						"encoding": "dynamic_array",
						"label": "struct Earning[]",
						"numberOfBytes": "32"
					},
					"t_array(t_struct(Funding)419_storage)dyn_storage": {
						"base": "t_struct(Funding)419_storage",
						"encoding": "dynamic_array",
						"label": "struct Funding[]",
						"numberOfBytes": "32"
					},
					"t_array(t_struct(Question)384_storage)dyn_storage": {
						"base": "t_struct(Question)384_storage",
						"encoding": "dynamic_array",
						"label": "struct Question[]",
						"numberOfBytes": "32"
					},
					"t_array(t_struct(Survey)375_storage)dyn_storage": {
						"base": "t_struct(Survey)375_storage",
						"encoding": "dynamic_array",
						"label": "struct Survey[]",
						"numberOfBytes": "32"
					},
					"t_bool": {
						"encoding": "inplace",
						"label": "bool",
						"numberOfBytes": "1"
					},
					"t_mapping(t_address,t_struct(Participant)362_storage)": {
						"encoding": "mapping",
						"key": "t_address",
						"label": "mapping(address => struct Participant)",
						"numberOfBytes": "32",
						"value": "t_struct(Participant)362_storage"
					},
					"t_mapping(t_address,t_struct(Researcher)345_storage)": {
						"encoding": "mapping",
						"key": "t_address",
						"label": "mapping(address => struct Researcher)",
						"numberOfBytes": "32",
						"value": "t_struct(Researcher)345_storage"
					},
					"t_mapping(t_uint256,t_array(t_struct(Answer)397_storage)dyn_storage)": {
						"encoding": "mapping",
						"key": "t_uint256",
						"label": "mapping(uint256 => struct Answer[])",
						"numberOfBytes": "32",
						"value": "t_array(t_struct(Answer)397_storage)dyn_storage"
					},
					"t_mapping(t_uint256,t_array(t_struct(Question)384_storage)dyn_storage)": {
						"encoding": "mapping",
						"key": "t_uint256",
						"label": "mapping(uint256 => struct Question[])",
						"numberOfBytes": "32",
						"value": "t_array(t_struct(Question)384_storage)dyn_storage"
					},
					"t_string_storage": {
						"encoding": "bytes",
						"label": "string",
						"numberOfBytes": "32"
					},
					"t_struct(Answer)397_storage": {
						"encoding": "inplace",
						"label": "struct Answer",
						"members": [
							{
								"astId": 386,
								"contract": "smart-contracts/playground/main/Canvassing.sol:Canvassing",
								"label": "id",
								"offset": 0,
								"slot": "0",
								"type": "t_uint256"
							},
							{
								"astId": 388,
								"contract": "smart-contracts/playground/main/Canvassing.sol:Canvassing",
								"label": "questionId",
								"offset": 0,
								"slot": "1",
								"type": "t_uint256"
							},
							{
								"astId": 390,
								"contract": "smart-contracts/playground/main/Canvassing.sol:Canvassing",
								"label": "surveyId",
								"offset": 0,
								"slot": "2",
								"type": "t_uint256"
							},
							{
								"astId": 392,
								"contract": "smart-contracts/playground/main/Canvassing.sol:Canvassing",
								"label": "participantWalletAddress",
								"offset": 0,
								"slot": "3",
								"type": "t_uint256"
							},
							{
								"astId": 394,
								"contract": "smart-contracts/playground/main/Canvassing.sol:Canvassing",
								"label": "value",
								"offset": 0,
								"slot": "4",
								"type": "t_bool"
							},
							{
								"astId": 396,
								"contract": "smart-contracts/playground/main/Canvassing.sol:Canvassing",
								"label": "isBlank",
								"offset": 1,
								"slot": "4",
								"type": "t_bool"
							}
						],
						"numberOfBytes": "160"
					},
					"t_struct(Earning)408_storage": {
						"encoding": "inplace",
						"label": "struct Earning",
						"members": [
							{
								"astId": 399,
								"contract": "smart-contracts/playground/main/Canvassing.sol:Canvassing",
								"label": "id",
								"offset": 0,
								"slot": "0",
								"type": "t_uint256"
							},
							{
								"astId": 401,
								"contract": "smart-contracts/playground/main/Canvassing.sol:Canvassing",
								"label": "surveyId",
								"offset": 0,
								"slot": "1",
								"type": "t_uint256"
							},
							{
								"astId": 403,
								"contract": "smart-contracts/playground/main/Canvassing.sol:Canvassing",
								"label": "participantWalletAddress",
								"offset": 0,
								"slot": "2",
								"type": "t_address"
							},
							{
								"astId": 405,
								"contract": "smart-contracts/playground/main/Canvassing.sol:Canvassing",
								"label": "amountPaidOutInWei",
								"offset": 0,
								"slot": "3",
								"type": "t_uint256"
							},
							{
								"astId": 407,
								"contract": "smart-contracts/playground/main/Canvassing.sol:Canvassing",
								"label": "isBlank",
								"offset": 0,
								"slot": "4",
								"type": "t_bool"
							}
						],
						"numberOfBytes": "160"
					},
					"t_struct(Funding)419_storage": {
						"encoding": "inplace",
						"label": "struct Funding",
						"members": [
							{
								"astId": 410,
								"contract": "smart-contracts/playground/main/Canvassing.sol:Canvassing",
								"label": "id",
								"offset": 0,
								"slot": "0",
								"type": "t_uint256"
							},
							{
								"astId": 412,
								"contract": "smart-contracts/playground/main/Canvassing.sol:Canvassing",
								"label": "surveyId",
								"offset": 0,
								"slot": "1",
								"type": "t_uint256"
							},
							{
								"astId": 414,
								"contract": "smart-contracts/playground/main/Canvassing.sol:Canvassing",
								"label": "creatingResearcherWalletAddress",
								"offset": 0,
								"slot": "2",
								"type": "t_uint256"
							},
							{
								"astId": 416,
								"contract": "smart-contracts/playground/main/Canvassing.sol:Canvassing",
								"label": "amountFundedInWei",
								"offset": 0,
								"slot": "3",
								"type": "t_uint256"
							},
							{
								"astId": 418,
								"contract": "smart-contracts/playground/main/Canvassing.sol:Canvassing",
								"label": "isBlank",
								"offset": 0,
								"slot": "4",
								"type": "t_bool"
							}
						],
						"numberOfBytes": "160"
					},
					"t_struct(Participant)362_storage": {
						"encoding": "inplace",
						"label": "struct Participant",
						"members": [
							{
								"astId": 347,
								"contract": "smart-contracts/playground/main/Canvassing.sol:Canvassing",
								"label": "id",
								"offset": 0,
								"slot": "0",
								"type": "t_uint256"
							},
							{
								"astId": 349,
								"contract": "smart-contracts/playground/main/Canvassing.sol:Canvassing",
								"label": "walletAddress",
								"offset": 0,
								"slot": "1",
								"type": "t_address"
							},
							{
								"astId": 351,
								"contract": "smart-contracts/playground/main/Canvassing.sol:Canvassing",
								"label": "gender",
								"offset": 0,
								"slot": "2",
								"type": "t_string_storage"
							},
							{
								"astId": 353,
								"contract": "smart-contracts/playground/main/Canvassing.sol:Canvassing",
								"label": "country",
								"offset": 0,
								"slot": "3",
								"type": "t_string_storage"
							},
							{
								"astId": 355,
								"contract": "smart-contracts/playground/main/Canvassing.sol:Canvassing",
								"label": "yearOfBirth",
								"offset": 0,
								"slot": "4",
								"type": "t_uint256"
							},
							{
								"astId": 357,
								"contract": "smart-contracts/playground/main/Canvassing.sol:Canvassing",
								"label": "totalNumberOfSurveysTaken",
								"offset": 0,
								"slot": "5",
								"type": "t_uint256"
							},
							{
								"astId": 359,
								"contract": "smart-contracts/playground/main/Canvassing.sol:Canvassing",
								"label": "isResearcher",
								"offset": 0,
								"slot": "6",
								"type": "t_bool"
							},
							{
								"astId": 361,
								"contract": "smart-contracts/playground/main/Canvassing.sol:Canvassing",
								"label": "isBlank",
								"offset": 1,
								"slot": "6",
								"type": "t_bool"
							}
						],
						"numberOfBytes": "224"
					},
					"t_struct(Question)384_storage": {
						"encoding": "inplace",
						"label": "struct Question",
						"members": [
							{
								"astId": 377,
								"contract": "smart-contracts/playground/main/Canvassing.sol:Canvassing",
								"label": "id",
								"offset": 0,
								"slot": "0",
								"type": "t_uint256"
							},
							{
								"astId": 379,
								"contract": "smart-contracts/playground/main/Canvassing.sol:Canvassing",
								"label": "surveyId",
								"offset": 0,
								"slot": "1",
								"type": "t_uint256"
							},
							{
								"astId": 381,
								"contract": "smart-contracts/playground/main/Canvassing.sol:Canvassing",
								"label": "sentence",
								"offset": 0,
								"slot": "2",
								"type": "t_string_storage"
							},
							{
								"astId": 383,
								"contract": "smart-contracts/playground/main/Canvassing.sol:Canvassing",
								"label": "isBlank",
								"offset": 0,
								"slot": "3",
								"type": "t_bool"
							}
						],
						"numberOfBytes": "128"
					},
					"t_struct(Researcher)345_storage": {
						"encoding": "inplace",
						"label": "struct Researcher",
						"members": [
							{
								"astId": 332,
								"contract": "smart-contracts/playground/main/Canvassing.sol:Canvassing",
								"label": "id",
								"offset": 0,
								"slot": "0",
								"type": "t_uint256"
							},
							{
								"astId": 334,
								"contract": "smart-contracts/playground/main/Canvassing.sol:Canvassing",
								"label": "walletAddress",
								"offset": 0,
								"slot": "1",
								"type": "t_address"
							},
							{
								"astId": 336,
								"contract": "smart-contracts/playground/main/Canvassing.sol:Canvassing",
								"label": "industry",
								"offset": 0,
								"slot": "2",
								"type": "t_string_storage"
							},
							{
								"astId": 338,
								"contract": "smart-contracts/playground/main/Canvassing.sol:Canvassing",
								"label": "yearOfIncorporation",
								"offset": 0,
								"slot": "3",
								"type": "t_uint256"
							},
							{
								"astId": 340,
								"contract": "smart-contracts/playground/main/Canvassing.sol:Canvassing",
								"label": "isParticipant",
								"offset": 0,
								"slot": "4",
								"type": "t_bool"
							},
							{
								"astId": 342,
								"contract": "smart-contracts/playground/main/Canvassing.sol:Canvassing",
								"label": "isVerified",
								"offset": 1,
								"slot": "4",
								"type": "t_bool"
							},
							{
								"astId": 344,
								"contract": "smart-contracts/playground/main/Canvassing.sol:Canvassing",
								"label": "isBlank",
								"offset": 2,
								"slot": "4",
								"type": "t_bool"
							}
						],
						"numberOfBytes": "160"
					},
					"t_struct(Survey)375_storage": {
						"encoding": "inplace",
						"label": "struct Survey",
						"members": [
							{
								"astId": 364,
								"contract": "smart-contracts/playground/main/Canvassing.sol:Canvassing",
								"label": "id",
								"offset": 0,
								"slot": "0",
								"type": "t_uint256"
							},
							{
								"astId": 366,
								"contract": "smart-contracts/playground/main/Canvassing.sol:Canvassing",
								"label": "creatingResearcherWalletAddress",
								"offset": 0,
								"slot": "1",
								"type": "t_address"
							},
							{
								"astId": 368,
								"contract": "smart-contracts/playground/main/Canvassing.sol:Canvassing",
								"label": "numberOfQuestions",
								"offset": 0,
								"slot": "2",
								"type": "t_uint256"
							},
							{
								"astId": 370,
								"contract": "smart-contracts/playground/main/Canvassing.sol:Canvassing",
								"label": "targetNumberOfParticipants",
								"offset": 0,
								"slot": "3",
								"type": "t_uint256"
							},
							{
								"astId": 372,
								"contract": "smart-contracts/playground/main/Canvassing.sol:Canvassing",
								"label": "potentialEarningsPerParticipantInWei",
								"offset": 0,
								"slot": "4",
								"type": "t_uint256"
							},
							{
								"astId": 374,
								"contract": "smart-contracts/playground/main/Canvassing.sol:Canvassing",
								"label": "isBlank",
								"offset": 0,
								"slot": "5",
								"type": "t_bool"
							}
						],
						"numberOfBytes": "192"
					},
					"t_uint256": {
						"encoding": "inplace",
						"label": "uint256",
						"numberOfBytes": "32"
					}
				}
			},
			"userdoc": {
				"kind": "user",
				"methods": {},
				"version": 1
			}
		}
	}
}