{
	"smart-contracts/playground/main/Canvassing.sol": {
		"Canvassing": {
			"abi": [
				{
					"inputs": [
						{
							"internalType": "uint256",
							"name": "",
							"type": "uint256"
						},
						{
							"internalType": "uint256",
							"name": "",
							"type": "uint256"
						}
					],
					"name": "allAnswers",
					"outputs": [
						{
							"internalType": "uint256",
							"name": "id",
							"type": "uint256"
						},
						{
							"internalType": "uint256",
							"name": "questionId",
							"type": "uint256"
						},
						{
							"internalType": "uint256",
							"name": "surveyId",
							"type": "uint256"
						},
						{
							"internalType": "address",
							"name": "participantWalletAddress",
							"type": "address"
						},
						{
							"internalType": "bool",
							"name": "value",
							"type": "bool"
						},
						{
							"internalType": "bool",
							"name": "isBlank",
							"type": "bool"
						}
					],
					"stateMutability": "view",
					"type": "function"
				},
				{
					"inputs": [
						{
							"internalType": "uint256",
							"name": "",
							"type": "uint256"
						}
					],
					"name": "allEarnings",
					"outputs": [
						{
							"internalType": "uint256",
							"name": "id",
							"type": "uint256"
						},
						{
							"internalType": "uint256",
							"name": "surveyId",
							"type": "uint256"
						},
						{
							"internalType": "address",
							"name": "recipientWalletAddress",
							"type": "address"
						},
						{
							"internalType": "uint256",
							"name": "amountPaidOutInWei",
							"type": "uint256"
						},
						{
							"internalType": "bool",
							"name": "isBlank",
							"type": "bool"
						}
					],
					"stateMutability": "view",
					"type": "function"
				},
				{
					"inputs": [
						{
							"internalType": "uint256",
							"name": "",
							"type": "uint256"
						}
					],
					"name": "allFundings",
					"outputs": [
						{
							"internalType": "uint256",
							"name": "id",
							"type": "uint256"
						},
						{
							"internalType": "uint256",
							"name": "surveyId",
							"type": "uint256"
						},
						{
							"internalType": "address",
							"name": "creatingResearcherWalletAddress",
							"type": "address"
						},
						{
							"internalType": "uint256",
							"name": "amountFundedInWei",
							"type": "uint256"
						},
						{
							"internalType": "bool",
							"name": "isBlank",
							"type": "bool"
						}
					],
					"stateMutability": "view",
					"type": "function"
				},
				{
					"inputs": [
						{
							"internalType": "address",
							"name": "",
							"type": "address"
						}
					],
					"name": "allParticipants",
					"outputs": [
						{
							"internalType": "uint256",
							"name": "id",
							"type": "uint256"
						},
						{
							"internalType": "address",
							"name": "walletAddress",
							"type": "address"
						},
						{
							"internalType": "string",
							"name": "gender",
							"type": "string"
						},
						{
							"internalType": "string",
							"name": "country",
							"type": "string"
						},
						{
							"internalType": "uint256",
							"name": "yearOfBirth",
							"type": "uint256"
						},
						{
							"internalType": "uint256",
							"name": "totalNumberOfSurveysTaken",
							"type": "uint256"
						},
						{
							"internalType": "bool",
							"name": "isResearcher",
							"type": "bool"
						},
						{
							"internalType": "bool",
							"name": "isBlank",
							"type": "bool"
						}
					],
					"stateMutability": "view",
					"type": "function"
				},
				{
					"inputs": [
						{
							"internalType": "uint256",
							"name": "",
							"type": "uint256"
						},
						{
							"internalType": "uint256",
							"name": "",
							"type": "uint256"
						}
					],
					"name": "allQuestions",
					"outputs": [
						{
							"internalType": "uint256",
							"name": "id",
							"type": "uint256"
						},
						{
							"internalType": "uint256",
							"name": "surveyId",
							"type": "uint256"
						},
						{
							"internalType": "string",
							"name": "sentence",
							"type": "string"
						},
						{
							"internalType": "bool",
							"name": "isBlank",
							"type": "bool"
						}
					],
					"stateMutability": "view",
					"type": "function"
				},
				{
					"inputs": [
						{
							"internalType": "address",
							"name": "",
							"type": "address"
						}
					],
					"name": "allResearchers",
					"outputs": [
						{
							"internalType": "uint256",
							"name": "id",
							"type": "uint256"
						},
						{
							"internalType": "address",
							"name": "walletAddress",
							"type": "address"
						},
						{
							"internalType": "string",
							"name": "industry",
							"type": "string"
						},
						{
							"internalType": "uint256",
							"name": "yearOfIncorporation",
							"type": "uint256"
						},
						{
							"internalType": "bool",
							"name": "isParticipant",
							"type": "bool"
						},
						{
							"internalType": "bool",
							"name": "isVerified",
							"type": "bool"
						},
						{
							"internalType": "bool",
							"name": "isBlank",
							"type": "bool"
						}
					],
					"stateMutability": "view",
					"type": "function"
				},
				{
					"inputs": [
						{
							"internalType": "uint256",
							"name": "",
							"type": "uint256"
						}
					],
					"name": "allSurveys",
					"outputs": [
						{
							"internalType": "uint256",
							"name": "id",
							"type": "uint256"
						},
						{
							"internalType": "address",
							"name": "creatingResearcherWalletAddress",
							"type": "address"
						},
						{
							"internalType": "string",
							"name": "topic",
							"type": "string"
						},
						{
							"internalType": "uint256",
							"name": "numberOfQuestions",
							"type": "uint256"
						},
						{
							"internalType": "uint256",
							"name": "targetNumberOfParticipants",
							"type": "uint256"
						},
						{
							"internalType": "uint256",
							"name": "amountFundedInWei",
							"type": "uint256"
						},
						{
							"internalType": "bool",
							"name": "isBlank",
							"type": "bool"
						}
					],
					"stateMutability": "view",
					"type": "function"
				},
				{
					"inputs": [
						{
							"internalType": "address",
							"name": "_walletAddress",
							"type": "address"
						}
					],
					"name": "checkIfParticipantExists",
					"outputs": [
						{
							"internalType": "bool",
							"name": "",
							"type": "bool"
						}
					],
					"stateMutability": "view",
					"type": "function"
				},
				{
					"inputs": [
						{
							"internalType": "address",
							"name": "_participantWalletAddress",
							"type": "address"
						},
						{
							"internalType": "uint256",
							"name": "_surveyId",
							"type": "uint256"
						}
					],
					"name": "checkIfParticipantHasAlreadyParticipatedInSurvey",
					"outputs": [
						{
							"internalType": "bool",
							"name": "",
							"type": "bool"
						}
					],
					"stateMutability": "view",
					"type": "function"
				},
				{
					"inputs": [
						{
							"internalType": "address",
							"name": "_walletAddress",
							"type": "address"
						}
					],
					"name": "checkIfResearcherExists",
					"outputs": [
						{
							"internalType": "bool",
							"name": "",
							"type": "bool"
						}
					],
					"stateMutability": "view",
					"type": "function"
				},
				{
					"inputs": [
						{
							"internalType": "uint256",
							"name": "_numberOfQuestions",
							"type": "uint256"
						},
						{
							"internalType": "uint256",
							"name": "_targetNumberOfParticipants",
							"type": "uint256"
						},
						{
							"internalType": "uint256",
							"name": "_surveyId",
							"type": "uint256"
						},
						{
							"internalType": "address",
							"name": "_researcherWalletAddress",
							"type": "address"
						}
					],
					"name": "createFunding",
					"outputs": [],
					"stateMutability": "nonpayable",
					"type": "function"
				},
				{
					"inputs": [
						{
							"internalType": "address",
							"name": "_walletAddress",
							"type": "address"
						},
						{
							"internalType": "string",
							"name": "_gender",
							"type": "string"
						},
						{
							"internalType": "string",
							"name": "_country",
							"type": "string"
						},
						{
							"internalType": "uint256",
							"name": "_yearOfBirth",
							"type": "uint256"
						}
					],
					"name": "createParticipant",
					"outputs": [],
					"stateMutability": "nonpayable",
					"type": "function"
				},
				{
					"inputs": [
						{
							"internalType": "address",
							"name": "_walletAddress",
							"type": "address"
						},
						{
							"internalType": "string",
							"name": "_industry",
							"type": "string"
						},
						{
							"internalType": "uint256",
							"name": "_yearOfCorporation",
							"type": "uint256"
						}
					],
					"name": "createResearcher",
					"outputs": [],
					"stateMutability": "nonpayable",
					"type": "function"
				},
				{
					"inputs": [
						{
							"internalType": "address",
							"name": "_researcherWalletAddress",
							"type": "address"
						},
						{
							"internalType": "string",
							"name": "_topic",
							"type": "string"
						},
						{
							"internalType": "uint256",
							"name": "_numberOfQuestions",
							"type": "uint256"
						},
						{
							"internalType": "uint256",
							"name": "_targetNumberOfParticipants",
							"type": "uint256"
						},
						{
							"internalType": "string[]",
							"name": "_questionSentences",
							"type": "string[]"
						},
						{
							"internalType": "uint256",
							"name": "_amountFundedForSurvey",
							"type": "uint256"
						}
					],
					"name": "createSurvey",
					"outputs": [
						{
							"internalType": "uint256",
							"name": "",
							"type": "uint256"
						}
					],
					"stateMutability": "nonpayable",
					"type": "function"
				},
				{
					"inputs": [
						{
							"internalType": "uint256",
							"name": "_surveyId",
							"type": "uint256"
						},
						{
							"internalType": "address",
							"name": "_participantWalletAddress",
							"type": "address"
						}
					],
					"name": "getAllAnswersOfParticipantOfSurvey",
					"outputs": [
						{
							"components": [
								{
									"internalType": "uint256",
									"name": "id",
									"type": "uint256"
								},
								{
									"internalType": "uint256",
									"name": "questionId",
									"type": "uint256"
								},
								{
									"internalType": "uint256",
									"name": "surveyId",
									"type": "uint256"
								},
								{
									"internalType": "address",
									"name": "participantWalletAddress",
									"type": "address"
								},
								{
									"internalType": "bool",
									"name": "value",
									"type": "bool"
								},
								{
									"internalType": "bool",
									"name": "isBlank",
									"type": "bool"
								}
							],
							"internalType": "struct Answer[]",
							"name": "",
							"type": "tuple[]"
						}
					],
					"stateMutability": "view",
					"type": "function"
				},
				{
					"inputs": [
						{
							"internalType": "address",
							"name": "_walletAddress",
							"type": "address"
						}
					],
					"name": "getAllEarningsMadeByParticipant",
					"outputs": [
						{
							"components": [
								{
									"internalType": "uint256",
									"name": "id",
									"type": "uint256"
								},
								{
									"internalType": "uint256",
									"name": "surveyId",
									"type": "uint256"
								},
								{
									"internalType": "address",
									"name": "recipientWalletAddress",
									"type": "address"
								},
								{
									"internalType": "uint256",
									"name": "amountPaidOutInWei",
									"type": "uint256"
								},
								{
									"internalType": "bool",
									"name": "isBlank",
									"type": "bool"
								}
							],
							"internalType": "struct Earning[]",
							"name": "",
							"type": "tuple[]"
						}
					],
					"stateMutability": "view",
					"type": "function"
				},
				{
					"inputs": [
						{
							"internalType": "uint256",
							"name": "_surveyId",
							"type": "uint256"
						}
					],
					"name": "getAllQuestionsOfSurvey",
					"outputs": [
						{
							"components": [
								{
									"internalType": "uint256",
									"name": "id",
									"type": "uint256"
								},
								{
									"internalType": "uint256",
									"name": "surveyId",
									"type": "uint256"
								},
								{
									"internalType": "string",
									"name": "sentence",
									"type": "string"
								},
								{
									"internalType": "bool",
									"name": "isBlank",
									"type": "bool"
								}
							],
							"internalType": "struct Question[]",
							"name": "",
							"type": "tuple[]"
						}
					],
					"stateMutability": "view",
					"type": "function"
				},
				{
					"inputs": [],
					"name": "getAllSurveys",
					"outputs": [
						{
							"components": [
								{
									"internalType": "uint256",
									"name": "id",
									"type": "uint256"
								},
								{
									"internalType": "address",
									"name": "creatingResearcherWalletAddress",
									"type": "address"
								},
								{
									"internalType": "string",
									"name": "topic",
									"type": "string"
								},
								{
									"internalType": "uint256",
									"name": "numberOfQuestions",
									"type": "uint256"
								},
								{
									"internalType": "uint256",
									"name": "targetNumberOfParticipants",
									"type": "uint256"
								},
								{
									"internalType": "uint256",
									"name": "amountFundedInWei",
									"type": "uint256"
								},
								{
									"internalType": "bool",
									"name": "isBlank",
									"type": "bool"
								}
							],
							"internalType": "struct Survey[]",
							"name": "",
							"type": "tuple[]"
						}
					],
					"stateMutability": "view",
					"type": "function"
				},
				{
					"inputs": [
						{
							"internalType": "address",
							"name": "_walletAddress",
							"type": "address"
						}
					],
					"name": "getAllSurveysTakenByParticipant",
					"outputs": [
						{
							"components": [
								{
									"internalType": "uint256",
									"name": "id",
									"type": "uint256"
								},
								{
									"internalType": "address",
									"name": "creatingResearcherWalletAddress",
									"type": "address"
								},
								{
									"internalType": "string",
									"name": "topic",
									"type": "string"
								},
								{
									"internalType": "uint256",
									"name": "numberOfQuestions",
									"type": "uint256"
								},
								{
									"internalType": "uint256",
									"name": "targetNumberOfParticipants",
									"type": "uint256"
								},
								{
									"internalType": "uint256",
									"name": "amountFundedInWei",
									"type": "uint256"
								},
								{
									"internalType": "bool",
									"name": "isBlank",
									"type": "bool"
								}
							],
							"internalType": "struct Survey[]",
							"name": "",
							"type": "tuple[]"
						}
					],
					"stateMutability": "view",
					"type": "function"
				},
				{
					"inputs": [
						{
							"internalType": "uint256",
							"name": "_surveyId",
							"type": "uint256"
						},
						{
							"internalType": "uint256",
							"name": "_numberOfParticipants",
							"type": "uint256"
						}
					],
					"name": "getAmountOfEarningForCanvassingForSurveyPerParticipantInWei",
					"outputs": [
						{
							"internalType": "uint256",
							"name": "",
							"type": "uint256"
						}
					],
					"stateMutability": "view",
					"type": "function"
				},
				{
					"inputs": [
						{
							"internalType": "uint256",
							"name": "_surveyId",
							"type": "uint256"
						}
					],
					"name": "getAmountOfEarningPerParticipantForSurveyInWei",
					"outputs": [
						{
							"internalType": "uint256",
							"name": "",
							"type": "uint256"
						}
					],
					"stateMutability": "view",
					"type": "function"
				},
				{
					"inputs": [
						{
							"internalType": "uint256",
							"name": "_numberOfQuestions",
							"type": "uint256"
						},
						{
							"internalType": "uint256",
							"name": "_targetNumberOfParticipants",
							"type": "uint256"
						}
					],
					"name": "getAmountOfFundingOfAnySurveyInWei",
					"outputs": [
						{
							"internalType": "uint256",
							"name": "",
							"type": "uint256"
						}
					],
					"stateMutability": "view",
					"type": "function"
				},
				{
					"inputs": [
						{
							"internalType": "uint256",
							"name": "_surveyId",
							"type": "uint256"
						}
					],
					"name": "getAnswersOfSurvey",
					"outputs": [
						{
							"components": [
								{
									"internalType": "uint256",
									"name": "id",
									"type": "uint256"
								},
								{
									"internalType": "uint256",
									"name": "questionId",
									"type": "uint256"
								},
								{
									"internalType": "uint256",
									"name": "surveyId",
									"type": "uint256"
								},
								{
									"internalType": "address",
									"name": "participantWalletAddress",
									"type": "address"
								},
								{
									"internalType": "bool",
									"name": "value",
									"type": "bool"
								},
								{
									"internalType": "bool",
									"name": "isBlank",
									"type": "bool"
								}
							],
							"internalType": "struct Answer[]",
							"name": "",
							"type": "tuple[]"
						}
					],
					"stateMutability": "view",
					"type": "function"
				},
				{
					"inputs": [
						{
							"internalType": "address",
							"name": "_creatingResearcherWalletAddress",
							"type": "address"
						}
					],
					"name": "getIdsOfLatestSurveysCreatedByResearchers",
					"outputs": [
						{
							"internalType": "uint256",
							"name": "",
							"type": "uint256"
						}
					],
					"stateMutability": "view",
					"type": "function"
				},
				{
					"inputs": [
						{
							"internalType": "address",
							"name": "_walletAddress",
							"type": "address"
						}
					],
					"name": "getParticipantByWalletAddress",
					"outputs": [
						{
							"components": [
								{
									"internalType": "uint256",
									"name": "id",
									"type": "uint256"
								},
								{
									"internalType": "address",
									"name": "walletAddress",
									"type": "address"
								},
								{
									"internalType": "string",
									"name": "gender",
									"type": "string"
								},
								{
									"internalType": "string",
									"name": "country",
									"type": "string"
								},
								{
									"internalType": "uint256",
									"name": "yearOfBirth",
									"type": "uint256"
								},
								{
									"internalType": "uint256",
									"name": "totalNumberOfSurveysTaken",
									"type": "uint256"
								},
								{
									"internalType": "bool",
									"name": "isResearcher",
									"type": "bool"
								},
								{
									"internalType": "bool",
									"name": "isBlank",
									"type": "bool"
								}
							],
							"internalType": "struct Participant",
							"name": "",
							"type": "tuple"
						}
					],
					"stateMutability": "view",
					"type": "function"
				},
				{
					"inputs": [
						{
							"internalType": "uint256",
							"name": "_surveyId",
							"type": "uint256"
						}
					],
					"name": "getParticipantsOfSurvey",
					"outputs": [
						{
							"components": [
								{
									"internalType": "uint256",
									"name": "id",
									"type": "uint256"
								},
								{
									"internalType": "address",
									"name": "walletAddress",
									"type": "address"
								},
								{
									"internalType": "string",
									"name": "gender",
									"type": "string"
								},
								{
									"internalType": "string",
									"name": "country",
									"type": "string"
								},
								{
									"internalType": "uint256",
									"name": "yearOfBirth",
									"type": "uint256"
								},
								{
									"internalType": "uint256",
									"name": "totalNumberOfSurveysTaken",
									"type": "uint256"
								},
								{
									"internalType": "bool",
									"name": "isResearcher",
									"type": "bool"
								},
								{
									"internalType": "bool",
									"name": "isBlank",
									"type": "bool"
								}
							],
							"internalType": "struct Participant[]",
							"name": "",
							"type": "tuple[]"
						}
					],
					"stateMutability": "view",
					"type": "function"
				},
				{
					"inputs": [
						{
							"internalType": "address",
							"name": "_walletAddress",
							"type": "address"
						}
					],
					"name": "getResearcherByWalletAddress",
					"outputs": [
						{
							"components": [
								{
									"internalType": "uint256",
									"name": "id",
									"type": "uint256"
								},
								{
									"internalType": "address",
									"name": "walletAddress",
									"type": "address"
								},
								{
									"internalType": "string",
									"name": "industry",
									"type": "string"
								},
								{
									"internalType": "uint256",
									"name": "yearOfIncorporation",
									"type": "uint256"
								},
								{
									"internalType": "bool",
									"name": "isParticipant",
									"type": "bool"
								},
								{
									"internalType": "bool",
									"name": "isVerified",
									"type": "bool"
								},
								{
									"internalType": "bool",
									"name": "isBlank",
									"type": "bool"
								}
							],
							"internalType": "struct Researcher",
							"name": "",
							"type": "tuple"
						}
					],
					"stateMutability": "view",
					"type": "function"
				},
				{
					"inputs": [
						{
							"internalType": "uint256",
							"name": "_surveyId",
							"type": "uint256"
						}
					],
					"name": "getSurveyById",
					"outputs": [
						{
							"components": [
								{
									"internalType": "uint256",
									"name": "id",
									"type": "uint256"
								},
								{
									"internalType": "address",
									"name": "creatingResearcherWalletAddress",
									"type": "address"
								},
								{
									"internalType": "string",
									"name": "topic",
									"type": "string"
								},
								{
									"internalType": "uint256",
									"name": "numberOfQuestions",
									"type": "uint256"
								},
								{
									"internalType": "uint256",
									"name": "targetNumberOfParticipants",
									"type": "uint256"
								},
								{
									"internalType": "uint256",
									"name": "amountFundedInWei",
									"type": "uint256"
								},
								{
									"internalType": "bool",
									"name": "isBlank",
									"type": "bool"
								}
							],
							"internalType": "struct Survey",
							"name": "",
							"type": "tuple"
						}
					],
					"stateMutability": "view",
					"type": "function"
				},
				{
					"inputs": [
						{
							"internalType": "address",
							"name": "_researcherWalletAddress",
							"type": "address"
						}
					],
					"name": "getSurveysCreatedByResearcher",
					"outputs": [
						{
							"components": [
								{
									"internalType": "uint256",
									"name": "id",
									"type": "uint256"
								},
								{
									"internalType": "address",
									"name": "creatingResearcherWalletAddress",
									"type": "address"
								},
								{
									"internalType": "string",
									"name": "topic",
									"type": "string"
								},
								{
									"internalType": "uint256",
									"name": "numberOfQuestions",
									"type": "uint256"
								},
								{
									"internalType": "uint256",
									"name": "targetNumberOfParticipants",
									"type": "uint256"
								},
								{
									"internalType": "uint256",
									"name": "amountFundedInWei",
									"type": "uint256"
								},
								{
									"internalType": "bool",
									"name": "isBlank",
									"type": "bool"
								}
							],
							"internalType": "struct Survey[]",
							"name": "",
							"type": "tuple[]"
						}
					],
					"stateMutability": "view",
					"type": "function"
				},
				{
					"inputs": [
						{
							"internalType": "address",
							"name": "_creatingResearcherWalletAddress",
							"type": "address"
						}
					],
					"name": "getTotalAmountFundedByResearchersInWei",
					"outputs": [
						{
							"internalType": "uint256",
							"name": "",
							"type": "uint256"
						}
					],
					"stateMutability": "view",
					"type": "function"
				},
				{
					"inputs": [
						{
							"internalType": "address",
							"name": "_walletAddress",
							"type": "address"
						}
					],
					"name": "getTotalAmountOfEarningsReceivedByParticipantInWei",
					"outputs": [
						{
							"internalType": "uint256",
							"name": "",
							"type": "uint256"
						}
					],
					"stateMutability": "view",
					"type": "function"
				},
				{
					"inputs": [
						{
							"internalType": "address",
							"name": "_creatingResearcherWalletAddress",
							"type": "address"
						}
					],
					"name": "getTotalNumberOfSurveyCreatedByResearcher",
					"outputs": [
						{
							"internalType": "uint256",
							"name": "",
							"type": "uint256"
						}
					],
					"stateMutability": "view",
					"type": "function"
				},
				{
					"inputs": [
						{
							"internalType": "address",
							"name": "",
							"type": "address"
						}
					],
					"name": "idsOfLatestSurveysCreatedByResearchers",
					"outputs": [
						{
							"internalType": "uint256",
							"name": "",
							"type": "uint256"
						}
					],
					"stateMutability": "view",
					"type": "function"
				},
				{
					"inputs": [
						{
							"internalType": "uint256",
							"name": "_surveyId",
							"type": "uint256"
						},
						{
							"internalType": "address",
							"name": "_participantWalletAddress",
							"type": "address"
						}
					],
					"name": "makePayoutAndCreateEarning",
					"outputs": [],
					"stateMutability": "nonpayable",
					"type": "function"
				},
				{
					"inputs": [
						{
							"internalType": "uint256",
							"name": "",
							"type": "uint256"
						},
						{
							"internalType": "uint256",
							"name": "",
							"type": "uint256"
						}
					],
					"name": "participantsOfSurvey",
					"outputs": [
						{
							"internalType": "uint256",
							"name": "id",
							"type": "uint256"
						},
						{
							"internalType": "address",
							"name": "walletAddress",
							"type": "address"
						},
						{
							"internalType": "string",
							"name": "gender",
							"type": "string"
						},
						{
							"internalType": "string",
							"name": "country",
							"type": "string"
						},
						{
							"internalType": "uint256",
							"name": "yearOfBirth",
							"type": "uint256"
						},
						{
							"internalType": "uint256",
							"name": "totalNumberOfSurveysTaken",
							"type": "uint256"
						},
						{
							"internalType": "bool",
							"name": "isResearcher",
							"type": "bool"
						},
						{
							"internalType": "bool",
							"name": "isBlank",
							"type": "bool"
						}
					],
					"stateMutability": "view",
					"type": "function"
				},
				{
					"inputs": [
						{
							"internalType": "uint256",
							"name": "_surveyId",
							"type": "uint256"
						},
						{
							"internalType": "address",
							"name": "_participantWalletAddress",
							"type": "address"
						},
						{
							"internalType": "bool[]",
							"name": "_answerValues",
							"type": "bool[]"
						}
					],
					"name": "participateInSurvey",
					"outputs": [],
					"stateMutability": "nonpayable",
					"type": "function"
				},
				{
					"inputs": [
						{
							"internalType": "uint256",
							"name": "",
							"type": "uint256"
						},
						{
							"internalType": "address",
							"name": "",
							"type": "address"
						}
					],
					"name": "participationStatusForSurvey",
					"outputs": [
						{
							"internalType": "bool",
							"name": "",
							"type": "bool"
						}
					],
					"stateMutability": "view",
					"type": "function"
				},
				{
					"inputs": [
						{
							"internalType": "uint256",
							"name": "",
							"type": "uint256"
						},
						{
							"internalType": "address",
							"name": "",
							"type": "address"
						}
					],
					"name": "payoutStatusOfParticipantForSurvey",
					"outputs": [
						{
							"internalType": "bool",
							"name": "",
							"type": "bool"
						}
					],
					"stateMutability": "view",
					"type": "function"
				},
				{
					"inputs": [
						{
							"internalType": "address",
							"name": "",
							"type": "address"
						}
					],
					"name": "totalAmountFundedByResearchersInWei",
					"outputs": [
						{
							"internalType": "uint256",
							"name": "",
							"type": "uint256"
						}
					],
					"stateMutability": "view",
					"type": "function"
				},
				{
					"inputs": [
						{
							"internalType": "address",
							"name": "",
							"type": "address"
						}
					],
					"name": "totalNumberOfSurveysCreatedByResearchers",
					"outputs": [
						{
							"internalType": "uint256",
							"name": "",
							"type": "uint256"
						}
					],
					"stateMutability": "view",
					"type": "function"
				},
				{
					"inputs": [
						{
							"internalType": "address",
							"name": "_walletAddress",
							"type": "address"
						}
					],
					"name": "verifyResearcher",
					"outputs": [],
					"stateMutability": "nonpayable",
					"type": "function"
				}
			],
			"devdoc": {
				"kind": "dev",
				"methods": {},
				"version": 1
			},
			"evm": {
				"assembly": "    /* \"smart-contracts/playground/main/Canvassing.sol\":212:21536  contract Canvassing {... */\n  0x80\n  0x40\n  dup2\n  swap1\n  mstore\n    /* \"smart-contracts/playground/main/Canvassing.sol\":269:353  address canvassingWalletAddress =... */\n  0x00\n  dup1\n  sload\n    /* \"smart-contracts/playground/main/Canvassing.sol\":311:353  0xecE897a85688f2e83a73Fed36b9d1a6efCC99e93 */\n  0xece897a85688f2e83a73fed36b9d1a6efcc99e93\n  not(sub(shl(0xa0, 0x01), 0x01))\n    /* \"smart-contracts/playground/main/Canvassing.sol\":269:353  address canvassingWalletAddress =... */\n  swap2\n  dup3\n  and\n  or\n  swap1\n  swap2\n  sstore\n    /* \"smart-contracts/playground/main/Canvassing.sol\":1870:1932  ERC20 cUSD = ERC20(0x874069Fa1Eb16D44d622F2e0Ca25eeA172369bC1) */\n  0x15\n  dup1\n  sload\n    /* \"smart-contracts/playground/main/Canvassing.sol\":1889:1931  0x874069Fa1Eb16D44d622F2e0Ca25eeA172369bC1 */\n  0x874069fa1eb16d44d622f2e0ca25eea172369bc1\n    /* \"smart-contracts/playground/main/Canvassing.sol\":1870:1932  ERC20 cUSD = ERC20(0x874069Fa1Eb16D44d622F2e0Ca25eeA172369bC1) */\n  swap3\n  and\n  dup3\n  or\n  swap1\n  sstore\n  shl(0xe0, 0x313ce567)\n    /* \"smart-contracts/playground/main/Canvassing.sol\":1971:1986  cUSD.decimals() */\n  dup3\n  mstore\n    /* \"smart-contracts/playground/main/Canvassing.sol\":1889:1931  0x874069Fa1Eb16D44d622F2e0Ca25eeA172369bC1 */\n  swap1\n    /* \"smart-contracts/playground/main/Canvassing.sol\":1971:1984  cUSD.decimals */\n  0x313ce567\n  swap1\n    /* \"smart-contracts/playground/main/Canvassing.sol\":1971:1986  cUSD.decimals() */\n  0x84\n  swap1\n  0x20\n  swap1\n  0x04\n    /* \"smart-contracts/playground/main/Canvassing.sol\":212:21536  contract Canvassing {... */\n  dup2\n    /* \"smart-contracts/playground/main/Canvassing.sol\":1889:1931  0x874069Fa1Eb16D44d622F2e0Ca25eeA172369bC1 */\n  dup7\n    /* \"smart-contracts/playground/main/Canvassing.sol\":1971:1986  cUSD.decimals() */\n  gas\n  staticcall\n  iszero\n  dup1\n  iszero\n  tag_2\n  jumpi\n  returndatasize\n  0x00\n  dup1\n  returndatacopy\n  revert(0x00, returndatasize)\ntag_2:\n  pop\n  pop\n  pop\n  pop\n  mload(0x40)\n  returndatasize\n  not(0x1f)\n  0x1f\n  dup3\n  add\n  and\n  dup3\n  add\n  dup1\n  0x40\n  mstore\n  pop\n  dup2\n  add\n  swap1\n  tag_3\n  swap2\n  swap1\n  tag_4\n  jump\t// in\ntag_3:\n    /* \"smart-contracts/playground/main/Canvassing.sol\":1966:1987  10**(cUSD.decimals()) */\n  tag_5\n  swap1\n    /* \"smart-contracts/playground/main/Canvassing.sol\":1966:1968  10 */\n  0x0a\n    /* \"smart-contracts/playground/main/Canvassing.sol\":1966:1987  10**(cUSD.decimals()) */\n  tag_6\n  jump\t// in\ntag_5:\n    /* \"smart-contracts/playground/main/Canvassing.sol\":1938:1987  uint256 cUSDDecimalPlaces = 10**(cUSD.decimals()) */\n  0x16\n  sstore\n    /* \"smart-contracts/playground/main/Canvassing.sol\":212:21536  contract Canvassing {... */\n  callvalue\n  dup1\n  iszero\n  tag_7\n  jumpi\n  0x00\n  dup1\n  revert\ntag_7:\n  pop\n  jump(tag_12)\n    /* \"#utility.yul\":14:287   */\ntag_4:\n    /* \"#utility.yul\":82:88   */\n  0x00\n    /* \"#utility.yul\":135:137   */\n  0x20\n    /* \"#utility.yul\":123:132   */\n  dup3\n    /* \"#utility.yul\":114:121   */\n  dup5\n    /* \"#utility.yul\":110:133   */\n  sub\n    /* \"#utility.yul\":106:138   */\n  slt\n    /* \"#utility.yul\":103:155   */\n  iszero\n  tag_14\n  jumpi\n    /* \"#utility.yul\":151:152   */\n  0x00\n    /* \"#utility.yul\":148:149   */\n  dup1\n    /* \"#utility.yul\":141:153   */\n  revert\n    /* \"#utility.yul\":103:155   */\ntag_14:\n    /* \"#utility.yul\":183:192   */\n  dup2\n    /* \"#utility.yul\":177:193   */\n  mload\n    /* \"#utility.yul\":233:237   */\n  0xff\n    /* \"#utility.yul\":226:231   */\n  dup2\n    /* \"#utility.yul\":222:238   */\n  and\n    /* \"#utility.yul\":215:220   */\n  dup2\n    /* \"#utility.yul\":212:239   */\n  eq\n    /* \"#utility.yul\":202:257   */\n  tag_15\n  jumpi\n    /* \"#utility.yul\":253:254   */\n  0x00\n    /* \"#utility.yul\":250:251   */\n  dup1\n    /* \"#utility.yul\":243:255   */\n  revert\n    /* \"#utility.yul\":202:257   */\ntag_15:\n    /* \"#utility.yul\":276:281   */\n  swap4\n    /* \"#utility.yul\":14:287   */\n  swap3\n  pop\n  pop\n  pop\n  jump\t// out\n    /* \"#utility.yul\":292:419   */\ntag_9:\n    /* \"#utility.yul\":353:363   */\n  0x4e487b71\n    /* \"#utility.yul\":348:351   */\n  0xe0\n    /* \"#utility.yul\":344:364   */\n  shl\n    /* \"#utility.yul\":341:342   */\n  0x00\n    /* \"#utility.yul\":334:365   */\n  mstore\n    /* \"#utility.yul\":384:388   */\n  0x11\n    /* \"#utility.yul\":381:382   */\n  0x04\n    /* \"#utility.yul\":374:389   */\n  mstore\n    /* \"#utility.yul\":408:412   */\n  0x24\n    /* \"#utility.yul\":405:406   */\n  0x00\n    /* \"#utility.yul\":398:413   */\n  revert\n    /* \"#utility.yul\":424:846   */\ntag_10:\n    /* \"#utility.yul\":513:514   */\n  0x01\n    /* \"#utility.yul\":556:561   */\n  dup2\n    /* \"#utility.yul\":513:514   */\n  dup2\n    /* \"#utility.yul\":570:840   */\ntag_18:\n    /* \"#utility.yul\":591:598   */\n  dup1\n    /* \"#utility.yul\":581:589   */\n  dup6\n    /* \"#utility.yul\":578:599   */\n  gt\n    /* \"#utility.yul\":570:840   */\n  iszero\n  tag_20\n  jumpi\n    /* \"#utility.yul\":650:654   */\n  dup2\n    /* \"#utility.yul\":646:647   */\n  0x00\n    /* \"#utility.yul\":642:648   */\n  not\n    /* \"#utility.yul\":638:655   */\n  div\n    /* \"#utility.yul\":632:636   */\n  dup3\n    /* \"#utility.yul\":629:656   */\n  gt\n    /* \"#utility.yul\":626:679   */\n  iszero\n  tag_22\n  jumpi\n    /* \"#utility.yul\":659:677   */\n  tag_22\n  tag_9\n  jump\t// in\ntag_22:\n    /* \"#utility.yul\":709:716   */\n  dup1\n    /* \"#utility.yul\":699:707   */\n  dup6\n    /* \"#utility.yul\":695:717   */\n  and\n    /* \"#utility.yul\":692:747   */\n  iszero\n  tag_23\n  jumpi\n    /* \"#utility.yul\":729:745   */\n  swap2\n  dup2\n  mul\n  swap2\n    /* \"#utility.yul\":692:747   */\ntag_23:\n    /* \"#utility.yul\":808:830   */\n  swap4\n  dup5\n  shr\n  swap4\n    /* \"#utility.yul\":768:783   */\n  swap1\n  dup1\n  mul\n  swap1\n    /* \"#utility.yul\":570:840   */\n  jump(tag_18)\ntag_20:\n    /* \"#utility.yul\":574:577   */\n  pop\n    /* \"#utility.yul\":424:846   */\n  swap3\n  pop\n  swap3\n  swap1\n  pop\n  jump\t// out\n    /* \"#utility.yul\":851:1657   */\ntag_11:\n    /* \"#utility.yul\":900:905   */\n  0x00\n    /* \"#utility.yul\":930:938   */\n  dup3\n    /* \"#utility.yul\":920:1000   */\n  tag_25\n  jumpi\n  pop\n    /* \"#utility.yul\":971:972   */\n  0x01\n    /* \"#utility.yul\":985:990   */\n  jump(tag_24)\n    /* \"#utility.yul\":920:1000   */\ntag_25:\n    /* \"#utility.yul\":1019:1023   */\n  dup2\n    /* \"#utility.yul\":1009:1085   */\n  tag_26\n  jumpi\n  pop\n    /* \"#utility.yul\":1056:1057   */\n  0x00\n    /* \"#utility.yul\":1070:1075   */\n  jump(tag_24)\n    /* \"#utility.yul\":1009:1085   */\ntag_26:\n    /* \"#utility.yul\":1101:1105   */\n  dup2\n    /* \"#utility.yul\":1119:1120   */\n  0x01\n    /* \"#utility.yul\":1114:1173   */\n  dup2\n  eq\n  tag_28\n  jumpi\n    /* \"#utility.yul\":1187:1188   */\n  0x02\n    /* \"#utility.yul\":1182:1312   */\n  dup2\n  eq\n  tag_29\n  jumpi\n    /* \"#utility.yul\":1094:1312   */\n  jump(tag_27)\n    /* \"#utility.yul\":1114:1173   */\ntag_28:\n    /* \"#utility.yul\":1144:1145   */\n  0x01\n    /* \"#utility.yul\":1135:1145   */\n  swap2\n  pop\n    /* \"#utility.yul\":1158:1163   */\n  pop\n  jump(tag_24)\n    /* \"#utility.yul\":1182:1312   */\ntag_29:\n    /* \"#utility.yul\":1219:1222   */\n  0xff\n    /* \"#utility.yul\":1209:1217   */\n  dup5\n    /* \"#utility.yul\":1206:1223   */\n  gt\n    /* \"#utility.yul\":1203:1246   */\n  iszero\n  tag_31\n  jumpi\n    /* \"#utility.yul\":1226:1244   */\n  tag_31\n  tag_9\n  jump\t// in\ntag_31:\n  pop\n  pop\n    /* \"#utility.yul\":1282:1283   */\n  0x01\n    /* \"#utility.yul\":1268:1284   */\n  dup3\n  shl\n    /* \"#utility.yul\":1297:1302   */\n  jump(tag_24)\n    /* \"#utility.yul\":1094:1312   */\ntag_27:\n  pop\n    /* \"#utility.yul\":1396:1398   */\n  0x20\n    /* \"#utility.yul\":1386:1394   */\n  dup4\n    /* \"#utility.yul\":1383:1399   */\n  lt\n    /* \"#utility.yul\":1377:1380   */\n  0x0133\n    /* \"#utility.yul\":1371:1375   */\n  dup4\n    /* \"#utility.yul\":1368:1381   */\n  lt\n    /* \"#utility.yul\":1364:1400   */\n  and\n    /* \"#utility.yul\":1358:1360   */\n  0x4e\n    /* \"#utility.yul\":1348:1356   */\n  dup5\n    /* \"#utility.yul\":1345:1361   */\n  lt\n    /* \"#utility.yul\":1340:1342   */\n  0x0b\n    /* \"#utility.yul\":1334:1338   */\n  dup5\n    /* \"#utility.yul\":1331:1343   */\n  lt\n    /* \"#utility.yul\":1327:1362   */\n  and\n    /* \"#utility.yul\":1324:1401   */\n  or\n    /* \"#utility.yul\":1321:1480   */\n  iszero\n  tag_32\n  jumpi\n  pop\n    /* \"#utility.yul\":1433:1452   */\n  dup2\n  dup2\n  exp\n    /* \"#utility.yul\":1465:1470   */\n  jump(tag_24)\n    /* \"#utility.yul\":1321:1480   */\ntag_32:\n    /* \"#utility.yul\":1512:1546   */\n  tag_33\n    /* \"#utility.yul\":1537:1545   */\n  dup4\n    /* \"#utility.yul\":1531:1535   */\n  dup4\n    /* \"#utility.yul\":1512:1546   */\n  tag_10\n  jump\t// in\ntag_33:\n    /* \"#utility.yul\":1582:1588   */\n  dup1\n    /* \"#utility.yul\":1578:1579   */\n  0x00\n    /* \"#utility.yul\":1574:1580   */\n  not\n    /* \"#utility.yul\":1570:1589   */\n  div\n    /* \"#utility.yul\":1561:1568   */\n  dup3\n    /* \"#utility.yul\":1558:1590   */\n  gt\n    /* \"#utility.yul\":1555:1613   */\n  iszero\n  tag_35\n  jumpi\n    /* \"#utility.yul\":1593:1611   */\n  tag_35\n  tag_9\n  jump\t// in\ntag_35:\n    /* \"#utility.yul\":1631:1651   */\n  mul\n  swap1\n  pop\n    /* \"#utility.yul\":851:1657   */\ntag_24:\n  swap3\n  swap2\n  pop\n  pop\n  jump\t// out\n    /* \"#utility.yul\":1662:1802   */\ntag_6:\n    /* \"#utility.yul\":1720:1725   */\n  0x00\n    /* \"#utility.yul\":1749:1796   */\n  tag_15\n    /* \"#utility.yul\":1790:1794   */\n  0xff\n    /* \"#utility.yul\":1780:1788   */\n  dup5\n    /* \"#utility.yul\":1776:1795   */\n  and\n    /* \"#utility.yul\":1770:1774   */\n  dup4\n    /* \"#utility.yul\":1749:1796   */\n  tag_11\n  jump\t// in\n    /* \"#utility.yul\":1662:1802   */\ntag_12:\n    /* \"smart-contracts/playground/main/Canvassing.sol\":212:21536  contract Canvassing {... */\n  dataSize(sub_0)\n  dup1\n  dataOffset(sub_0)\n  0x00\n  codecopy\n  0x00\n  return\nstop\n\nsub_0: assembly {\n        /* \"smart-contracts/playground/main/Canvassing.sol\":212:21536  contract Canvassing {... */\n      mstore(0x40, 0x80)\n      callvalue\n      dup1\n      iszero\n      tag_1\n      jumpi\n      0x00\n      dup1\n      revert\n    tag_1:\n      pop\n      jumpi(tag_2, lt(calldatasize, 0x04))\n      shr(0xe0, calldataload(0x00))\n      dup1\n      0x68df3299\n      gt\n      tag_44\n      jumpi\n      dup1\n      0x9a23218f\n      gt\n      tag_45\n      jumpi\n      dup1\n      0xca2e7f9b\n      gt\n      tag_46\n      jumpi\n      dup1\n      0xca2e7f9b\n      eq\n      tag_38\n      jumpi\n      dup1\n      0xcc4903ca\n      eq\n      tag_39\n      jumpi\n      dup1\n      0xd7e93794\n      eq\n      tag_40\n      jumpi\n      dup1\n      0xf31e72e4\n      eq\n      tag_41\n      jumpi\n      dup1\n      0xf692a3bb\n      eq\n      tag_42\n      jumpi\n      dup1\n      0xfb47e9e6\n      eq\n      tag_43\n      jumpi\n      0x00\n      dup1\n      revert\n    tag_46:\n      dup1\n      0x9a23218f\n      eq\n      tag_33\n      jumpi\n      dup1\n      0xa58543fe\n      eq\n      tag_34\n      jumpi\n      dup1\n      0xb3265ecd\n      eq\n      tag_35\n      jumpi\n      dup1\n      0xb9c745b3\n      eq\n      tag_36\n      jumpi\n      dup1\n      0xc0ac4ae4\n      eq\n      tag_37\n      jumpi\n      0x00\n      dup1\n      revert\n    tag_45:\n      dup1\n      0x7a1bc375\n      gt\n      tag_47\n      jumpi\n      dup1\n      0x7a1bc375\n      eq\n      tag_28\n      jumpi\n      dup1\n      0x7e950819\n      eq\n      tag_29\n      jumpi\n      dup1\n      0x8e6da619\n      eq\n      tag_30\n      jumpi\n      dup1\n      0x95ecea1f\n      eq\n      tag_31\n      jumpi\n      dup1\n      0x964f6566\n      eq\n      tag_32\n      jumpi\n      0x00\n      dup1\n      revert\n    tag_47:\n      dup1\n      0x68df3299\n      eq\n      tag_23\n      jumpi\n      dup1\n      0x69bff3fb\n      eq\n      tag_24\n      jumpi\n      dup1\n      0x6b8ac0e7\n      eq\n      tag_25\n      jumpi\n      dup1\n      0x6f5fde11\n      eq\n      tag_26\n      jumpi\n      dup1\n      0x73fd653d\n      eq\n      tag_27\n      jumpi\n      0x00\n      dup1\n      revert\n    tag_44:\n      dup1\n      0x3882db7d\n      gt\n      tag_48\n      jumpi\n      dup1\n      0x44962609\n      gt\n      tag_49\n      jumpi\n      dup1\n      0x44962609\n      eq\n      tag_18\n      jumpi\n      dup1\n      0x4fe1cfad\n      eq\n      tag_19\n      jumpi\n      dup1\n      0x5822bff1\n      eq\n      tag_20\n      jumpi\n      dup1\n      0x5b76074e\n      eq\n      tag_21\n      jumpi\n      dup1\n      0x5fa7a90a\n      eq\n      tag_22\n      jumpi\n      0x00\n      dup1\n      revert\n    tag_49:\n      dup1\n      0x3882db7d\n      eq\n      tag_13\n      jumpi\n      dup1\n      0x392a5822\n      eq\n      tag_14\n      jumpi\n      dup1\n      0x3abb615a\n      eq\n      tag_15\n      jumpi\n      dup1\n      0x3b43b7d0\n      eq\n      tag_16\n      jumpi\n      dup1\n      0x3bdd0ad1\n      eq\n      tag_17\n      jumpi\n      0x00\n      dup1\n      revert\n    tag_48:\n      dup1\n      0x1b6f2485\n      gt\n      tag_50\n      jumpi\n      dup1\n      0x1b6f2485\n      eq\n      tag_8\n      jumpi\n      dup1\n      0x1bd1ebc4\n      eq\n      tag_9\n      jumpi\n      dup1\n      0x2076a35a\n      eq\n      tag_10\n      jumpi\n      dup1\n      0x2394e5dc\n      eq\n      tag_11\n      jumpi\n      dup1\n      0x25f18424\n      eq\n      tag_12\n      jumpi\n      0x00\n      dup1\n      revert\n    tag_50:\n      dup1\n      0x03f16747\n      eq\n      tag_3\n      jumpi\n      dup1\n      0x0478318b\n      eq\n      tag_4\n      jumpi\n      dup1\n      0x07f6646e\n      eq\n      tag_5\n      jumpi\n      dup1\n      0x125bb83d\n      eq\n      tag_6\n      jumpi\n      dup1\n      0x196f7f1e\n      eq\n      tag_7\n      jumpi\n    tag_2:\n      0x00\n      dup1\n      revert\n        /* \"smart-contracts/playground/main/Canvassing.sol\":8476:9400  function getAmountOfFundingOfAnySurveyInWei(... */\n    tag_3:\n      tag_51\n      tag_52\n      calldatasize\n      0x04\n      tag_53\n      jump\t// in\n    tag_52:\n      tag_54\n      jump\t// in\n    tag_51:\n      mload(0x40)\n        /* \"#utility.yul\":413:438   */\n      swap1\n      dup2\n      mstore\n        /* \"#utility.yul\":401:403   */\n      0x20\n        /* \"#utility.yul\":386:404   */\n      add\n        /* \"smart-contracts/playground/main/Canvassing.sol\":8476:9400  function getAmountOfFundingOfAnySurveyInWei(... */\n    tag_55:\n      mload(0x40)\n      dup1\n      swap2\n      sub\n      swap1\n      return\n        /* \"smart-contracts/playground/main/Canvassing.sol\":14527:14711  function getResearcherByWalletAddress(address _walletAddress)... */\n    tag_4:\n      tag_57\n      tag_58\n      calldatasize\n      0x04\n      tag_59\n      jump\t// in\n    tag_58:\n      tag_60\n      jump\t// in\n    tag_57:\n      mload(0x40)\n      tag_55\n      swap2\n      swap1\n      tag_62\n      jump\t// in\n        /* \"smart-contracts/playground/main/Canvassing.sol\":16340:17396  function getSurveysCreatedByResearcher(address _researcherWalletAddress)... */\n    tag_5:\n      tag_63\n      tag_64\n      calldatasize\n      0x04\n      tag_59\n      jump\t// in\n    tag_64:\n      tag_65\n      jump\t// in\n    tag_63:\n      mload(0x40)\n      tag_55\n      swap2\n      swap1\n      tag_67\n      jump\t// in\n        /* \"smart-contracts/playground/main/Canvassing.sol\":1486:1547  mapping(uint256 => Participant[]) public participantsOfSurvey */\n    tag_6:\n      tag_68\n      tag_69\n      calldatasize\n      0x04\n      tag_53\n      jump\t// in\n    tag_69:\n      tag_70\n      jump\t// in\n    tag_68:\n      mload(0x40)\n      tag_55\n      swap9\n      swap8\n      swap7\n      swap6\n      swap5\n      swap4\n      swap3\n      swap2\n      swap1\n      tag_72\n      jump\t// in\n        /* \"smart-contracts/playground/main/Canvassing.sol\":14717:15776  function createResearcher(... */\n    tag_7:\n      tag_73\n      tag_74\n      calldatasize\n      0x04\n      tag_75\n      jump\t// in\n    tag_74:\n      tag_76\n      jump\t// in\n    tag_73:\n      stop\n        /* \"smart-contracts/playground/main/Canvassing.sol\":568:594  Survey[] public allSurveys */\n    tag_8:\n      tag_77\n      tag_78\n      calldatasize\n      0x04\n      tag_79\n      jump\t// in\n    tag_78:\n      tag_80\n      jump\t// in\n    tag_77:\n      mload(0x40)\n      tag_55\n      swap8\n      swap7\n      swap6\n      swap5\n      swap4\n      swap3\n      swap2\n      swap1\n      tag_82\n      jump\t// in\n        /* \"smart-contracts/playground/main/Canvassing.sol\":9406:10112  function getAmountOfEarningPerParticipantForSurveyInWei(uint256 _surveyId)... */\n    tag_9:\n      tag_51\n      tag_84\n      calldatasize\n      0x04\n      tag_79\n      jump\t// in\n    tag_84:\n      tag_85\n      jump\t// in\n        /* \"smart-contracts/playground/main/Canvassing.sol\":6981:8201  function getAllAnswersOfParticipantOfSurvey(... */\n    tag_10:\n      tag_87\n      tag_88\n      calldatasize\n      0x04\n      tag_89\n      jump\t// in\n    tag_88:\n      tag_90\n      jump\t// in\n    tag_87:\n      mload(0x40)\n      tag_55\n      swap2\n      swap1\n      tag_92\n      jump\t// in\n        /* \"smart-contracts/playground/main/Canvassing.sol\":2259:2446  function getParticipantByWalletAddress(address _walletAddress)... */\n    tag_11:\n      tag_93\n      tag_94\n      calldatasize\n      0x04\n      tag_59\n      jump\t// in\n    tag_94:\n      tag_95\n      jump\t// in\n    tag_93:\n      mload(0x40)\n      tag_55\n      swap2\n      swap1\n      tag_97\n      jump\t// in\n        /* \"smart-contracts/playground/main/Canvassing.sol\":5874:6802  function getTotalAmountOfEarningsReceivedByParticipantInWei(... */\n    tag_12:\n      tag_51\n      tag_99\n      calldatasize\n      0x04\n      tag_59\n      jump\t// in\n    tag_99:\n      tag_100\n      jump\t// in\n        /* \"smart-contracts/playground/main/Canvassing.sol\":20911:21186  function getIdsOfLatestSurveysCreatedByResearchers(... */\n    tag_13:\n      tag_51\n      tag_103\n      calldatasize\n      0x04\n      tag_59\n      jump\t// in\n    tag_103:\n      sub(shl(0xa0, 0x01), 0x01)\n        /* \"smart-contracts/playground/main/Canvassing.sol\":21077:21179  idsOfLatestSurveysCreatedByResearchers[... */\n      and\n        /* \"smart-contracts/playground/main/Canvassing.sol\":21039:21046  uint256 */\n      0x00\n        /* \"smart-contracts/playground/main/Canvassing.sol\":21077:21179  idsOfLatestSurveysCreatedByResearchers[... */\n      swap1\n      dup2\n      mstore\n        /* \"smart-contracts/playground/main/Canvassing.sol\":21077:21115  idsOfLatestSurveysCreatedByResearchers */\n      0x0a\n        /* \"smart-contracts/playground/main/Canvassing.sol\":21077:21179  idsOfLatestSurveysCreatedByResearchers[... */\n      0x20\n      mstore\n      0x40\n      swap1\n      keccak256\n      sload\n      swap1\n        /* \"smart-contracts/playground/main/Canvassing.sol\":20911:21186  function getIdsOfLatestSurveysCreatedByResearchers(... */\n      jump\n        /* \"smart-contracts/playground/main/Canvassing.sol\":3738:4760  function getAllEarningsMadeByParticipant(address _walletAddress)... */\n    tag_14:\n      tag_106\n      tag_107\n      calldatasize\n      0x04\n      tag_59\n      jump\t// in\n    tag_107:\n      tag_108\n      jump\t// in\n    tag_106:\n      mload(0x40)\n      tag_55\n      swap2\n      swap1\n      tag_110\n      jump\t// in\n        /* \"smart-contracts/playground/main/Canvassing.sol\":4766:5868  function getAllSurveysTakenByParticipant(address _walletAddress)... */\n    tag_15:\n      tag_63\n      tag_112\n      calldatasize\n      0x04\n      tag_59\n      jump\t// in\n    tag_112:\n      tag_113\n      jump\t// in\n        /* \"smart-contracts/playground/main/Canvassing.sol\":2452:3472  function createParticipant(... */\n    tag_16:\n      tag_73\n      tag_116\n      calldatasize\n      0x04\n      tag_117\n      jump\t// in\n    tag_116:\n      tag_118\n      jump\t// in\n        /* \"smart-contracts/playground/main/Canvassing.sol\":16065:16334  function getTotalAmountFundedByResearchersInWei(... */\n    tag_17:\n      tag_51\n      tag_120\n      calldatasize\n      0x04\n      tag_59\n      jump\t// in\n    tag_120:\n      sub(shl(0xa0, 0x01), 0x01)\n        /* \"smart-contracts/playground/main/Canvassing.sol\":16228:16327  totalAmountFundedByResearchersInWei[... */\n      and\n        /* \"smart-contracts/playground/main/Canvassing.sol\":16190:16197  uint256 */\n      0x00\n        /* \"smart-contracts/playground/main/Canvassing.sol\":16228:16327  totalAmountFundedByResearchersInWei[... */\n      swap1\n      dup2\n      mstore\n        /* \"smart-contracts/playground/main/Canvassing.sol\":16228:16263  totalAmountFundedByResearchersInWei */\n      0x09\n        /* \"smart-contracts/playground/main/Canvassing.sol\":16228:16327  totalAmountFundedByResearchersInWei[... */\n      0x20\n      mstore\n      0x40\n      swap1\n      keccak256\n      sload\n      swap1\n        /* \"smart-contracts/playground/main/Canvassing.sol\":16065:16334  function getTotalAmountFundedByResearchersInWei(... */\n      jump\n        /* \"smart-contracts/playground/main/Canvassing.sol\":10118:10633  function getAmountOfEarningForCanvassingForSurveyPerParticipantInWei(... */\n    tag_18:\n      tag_51\n      tag_124\n      calldatasize\n      0x04\n      tag_53\n      jump\t// in\n    tag_124:\n      tag_125\n      jump\t// in\n        /* \"smart-contracts/playground/main/Canvassing.sol\":15782:16059  function getTotalNumberOfSurveyCreatedByResearcher(... */\n    tag_19:\n      tag_51\n      tag_128\n      calldatasize\n      0x04\n      tag_59\n      jump\t// in\n    tag_128:\n      sub(shl(0xa0, 0x01), 0x01)\n        /* \"smart-contracts/playground/main/Canvassing.sol\":15948:16052  totalNumberOfSurveysCreatedByResearchers[... */\n      and\n        /* \"smart-contracts/playground/main/Canvassing.sol\":15910:15917  uint256 */\n      0x00\n        /* \"smart-contracts/playground/main/Canvassing.sol\":15948:16052  totalNumberOfSurveysCreatedByResearchers[... */\n      swap1\n      dup2\n      mstore\n        /* \"smart-contracts/playground/main/Canvassing.sol\":15948:15988  totalNumberOfSurveysCreatedByResearchers */\n      0x08\n        /* \"smart-contracts/playground/main/Canvassing.sol\":15948:16052  totalNumberOfSurveysCreatedByResearchers[... */\n      0x20\n      mstore\n      0x40\n      swap1\n      keccak256\n      sload\n      swap1\n        /* \"smart-contracts/playground/main/Canvassing.sol\":15782:16059  function getTotalNumberOfSurveyCreatedByResearcher(... */\n      jump\n        /* \"smart-contracts/playground/main/Canvassing.sol\":1113:1188  mapping(address => uint256) public totalNumberOfSurveysCreatedByResearchers */\n    tag_20:\n      tag_51\n      tag_132\n      calldatasize\n      0x04\n      tag_59\n      jump\t// in\n    tag_132:\n      mstore(0x20, 0x08)\n      0x00\n      swap1\n      dup2\n      mstore\n      0x40\n      swap1\n      keccak256\n      sload\n      dup2\n      jump\n        /* \"smart-contracts/playground/main/Canvassing.sol\":508:562  mapping(address => Participant) public allParticipants */\n    tag_21:\n      tag_68\n      tag_136\n      calldatasize\n      0x04\n      tag_59\n      jump\t// in\n    tag_136:\n      tag_137\n      jump\t// in\n        /* \"smart-contracts/playground/main/Canvassing.sol\":1248:1318  mapping(address => uint256) public totalAmountFundedByResearchersInWei */\n    tag_22:\n      tag_51\n      tag_140\n      calldatasize\n      0x04\n      tag_59\n      jump\t// in\n    tag_140:\n      mstore(0x20, 0x09)\n      0x00\n      swap1\n      dup2\n      mstore\n      0x40\n      swap1\n      keccak256\n      sload\n      dup2\n      jump\n        /* \"smart-contracts/playground/main/Canvassing.sol\":18790:20905  function createSurvey(... */\n    tag_23:\n      tag_51\n      tag_144\n      calldatasize\n      0x04\n      tag_145\n      jump\t// in\n    tag_144:\n      tag_146\n      jump\t// in\n        /* \"smart-contracts/playground/main/Canvassing.sol\":716:762  mapping(uint256 => Answer[]) public allAnswers */\n    tag_24:\n      tag_148\n      tag_149\n      calldatasize\n      0x04\n      tag_53\n      jump\t// in\n    tag_149:\n      tag_150\n      jump\t// in\n    tag_148:\n      0x40\n      dup1\n      mload\n        /* \"#utility.yul\":13022:13047   */\n      swap7\n      dup8\n      mstore\n        /* \"#utility.yul\":13078:13080   */\n      0x20\n        /* \"#utility.yul\":13063:13081   */\n      dup8\n      add\n        /* \"#utility.yul\":13056:13090   */\n      swap6\n      swap1\n      swap6\n      mstore\n        /* \"#utility.yul\":13106:13124   */\n      swap4\n      dup6\n      add\n        /* \"#utility.yul\":13099:13133   */\n      swap3\n      swap1\n      swap3\n      mstore\n      sub(shl(0xa0, 0x01), 0x01)\n        /* \"#utility.yul\":13169:13201   */\n      and\n        /* \"#utility.yul\":13164:13166   */\n      0x60\n        /* \"#utility.yul\":13149:13167   */\n      dup5\n      add\n        /* \"#utility.yul\":13142:13202   */\n      mstore\n        /* \"#utility.yul\":13246:13260   */\n      iszero\n        /* \"#utility.yul\":13239:13261   */\n      iszero\n        /* \"#utility.yul\":13233:13236   */\n      0x80\n        /* \"#utility.yul\":13218:13237   */\n      dup4\n      add\n        /* \"#utility.yul\":13211:13262   */\n      mstore\n        /* \"#utility.yul\":13306:13320   */\n      iszero\n        /* \"#utility.yul\":13299:13321   */\n      iszero\n        /* \"#utility.yul\":13189:13192   */\n      0xa0\n        /* \"#utility.yul\":13278:13297   */\n      dup3\n      add\n        /* \"#utility.yul\":13271:13322   */\n      mstore\n        /* \"#utility.yul\":13009:13012   */\n      0xc0\n        /* \"#utility.yul\":12994:13013   */\n      add\n        /* \"smart-contracts/playground/main/Canvassing.sol\":716:762  mapping(uint256 => Answer[]) public allAnswers */\n      tag_55\n        /* \"#utility.yul\":12747:13328   */\n      jump\n        /* \"smart-contracts/playground/main/Canvassing.sol\":12317:14258  function makePayoutAndCreateEarning(... */\n    tag_25:\n      tag_73\n      tag_154\n      calldatasize\n      0x04\n      tag_89\n      jump\t// in\n    tag_154:\n      tag_155\n      jump\t// in\n        /* \"smart-contracts/playground/main/Canvassing.sol\":1994:2253  function checkIfParticipantExists(address _walletAddress)... */\n    tag_26:\n      tag_156\n      tag_157\n      calldatasize\n      0x04\n      tag_59\n      jump\t// in\n    tag_157:\n      tag_158\n      jump\t// in\n    tag_156:\n      mload(0x40)\n        /* \"#utility.yul\":13498:13512   */\n      swap1\n      iszero\n        /* \"#utility.yul\":13491:13513   */\n      iszero\n        /* \"#utility.yul\":13473:13514   */\n      dup2\n      mstore\n        /* \"#utility.yul\":13461:13463   */\n      0x20\n        /* \"#utility.yul\":13446:13464   */\n      add\n        /* \"smart-contracts/playground/main/Canvassing.sol\":1994:2253  function checkIfParticipantExists(address _walletAddress)... */\n      tag_55\n        /* \"#utility.yul\":13333:13520   */\n      jump\n        /* \"smart-contracts/playground/main/Canvassing.sol\":18537:18784  function verifyResearcher(address _walletAddress) public {... */\n    tag_27:\n      tag_73\n      tag_162\n      calldatasize\n      0x04\n      tag_59\n      jump\t// in\n    tag_162:\n      tag_163\n      jump\t// in\n        /* \"smart-contracts/playground/main/Canvassing.sol\":3478:3575  function getAllSurveys() public view returns (Survey[] memory) {... */\n    tag_28:\n      tag_63\n      tag_165\n      jump\t// in\n        /* \"smart-contracts/playground/main/Canvassing.sol\":960:1054  mapping(uint256 => mapping(address => bool))... */\n    tag_29:\n      tag_156\n      tag_168\n      calldatasize\n      0x04\n      tag_89\n      jump\t// in\n    tag_168:\n      0x07\n      0x20\n      swap1\n      dup2\n      mstore\n      0x00\n      swap3\n      dup4\n      mstore\n      0x40\n      dup1\n      dup5\n      keccak256\n      swap1\n      swap2\n      mstore\n      swap1\n      dup3\n      mstore\n      swap1\n      keccak256\n      sload\n      0xff\n      and\n      dup2\n      jump\n        /* \"smart-contracts/playground/main/Canvassing.sol\":1589:1617  Earning[] public allEarnings */\n    tag_30:\n      tag_171\n      tag_172\n      calldatasize\n      0x04\n      tag_79\n      jump\t// in\n    tag_172:\n      tag_173\n      jump\t// in\n    tag_171:\n      0x40\n      dup1\n      mload\n        /* \"#utility.yul\":13778:13803   */\n      swap6\n      dup7\n      mstore\n        /* \"#utility.yul\":13834:13836   */\n      0x20\n        /* \"#utility.yul\":13819:13837   */\n      dup7\n      add\n        /* \"#utility.yul\":13812:13846   */\n      swap5\n      swap1\n      swap5\n      mstore\n      sub(shl(0xa0, 0x01), 0x01)\n        /* \"#utility.yul\":13882:13914   */\n      swap1\n      swap3\n      and\n        /* \"#utility.yul\":13862:13880   */\n      swap3\n      dup5\n      add\n        /* \"#utility.yul\":13855:13915   */\n      swap3\n      swap1\n      swap3\n      mstore\n        /* \"#utility.yul\":13946:13948   */\n      0x60\n        /* \"#utility.yul\":13931:13949   */\n      dup4\n      add\n        /* \"#utility.yul\":13924:13958   */\n      swap2\n      swap1\n      swap2\n      mstore\n        /* \"#utility.yul\":14002:14016   */\n      iszero\n        /* \"#utility.yul\":13995:14017   */\n      iszero\n        /* \"#utility.yul\":13989:13992   */\n      0x80\n        /* \"#utility.yul\":13974:13993   */\n      dup3\n      add\n        /* \"#utility.yul\":13967:14018   */\n      mstore\n        /* \"#utility.yul\":13765:13768   */\n      0xa0\n        /* \"#utility.yul\":13750:13769   */\n      add\n        /* \"smart-contracts/playground/main/Canvassing.sol\":1589:1617  Earning[] public allEarnings */\n      tag_55\n        /* \"#utility.yul\":13525:14024   */\n      jump\n        /* \"smart-contracts/playground/main/Canvassing.sol\":1554:1582  Funding[] public allFundings */\n    tag_31:\n      tag_171\n      tag_177\n      calldatasize\n      0x04\n      tag_79\n      jump\t// in\n    tag_177:\n      tag_178\n      jump\t// in\n        /* \"smart-contracts/playground/main/Canvassing.sol\":21192:21370  function getParticipantsOfSurvey(uint256 _surveyId)... */\n    tag_32:\n      tag_180\n      tag_181\n      calldatasize\n      0x04\n      tag_79\n      jump\t// in\n    tag_181:\n      tag_182\n      jump\t// in\n    tag_180:\n      mload(0x40)\n      tag_55\n      swap2\n      swap1\n      tag_184\n      jump\t// in\n        /* \"smart-contracts/playground/main/Canvassing.sol\":14264:14521  function checkIfResearcherExists(address _walletAddress)... */\n    tag_33:\n      tag_156\n      tag_186\n      calldatasize\n      0x04\n      tag_59\n      jump\t// in\n    tag_186:\n      tag_187\n      jump\t// in\n        /* \"smart-contracts/playground/main/Canvassing.sol\":8207:8470  function checkIfParticipantHasAlreadyParticipatedInSurvey(... */\n    tag_34:\n      tag_156\n      tag_190\n      calldatasize\n      0x04\n      tag_191\n      jump\t// in\n    tag_190:\n        /* \"smart-contracts/playground/main/Canvassing.sol\":8362:8366  bool */\n      0x00\n        /* \"smart-contracts/playground/main/Canvassing.sol\":8397:8436  participationStatusForSurvey[_surveyId] */\n      swap1\n      dup2\n      mstore\n        /* \"smart-contracts/playground/main/Canvassing.sol\":8397:8425  participationStatusForSurvey */\n      0x06\n        /* \"smart-contracts/playground/main/Canvassing.sol\":8397:8436  participationStatusForSurvey[_surveyId] */\n      0x20\n      swap1\n      dup2\n      mstore\n      0x40\n      dup1\n      dup4\n      keccak256\n      sub(shl(0xa0, 0x01), 0x01)\n        /* \"smart-contracts/playground/main/Canvassing.sol\":8397:8463  participationStatusForSurvey[_surveyId][_participantWalletAddress] */\n      swap5\n      swap1\n      swap5\n      and\n      dup4\n      mstore\n      swap3\n      swap1\n      mstore\n      keccak256\n      sload\n      0xff\n      and\n      swap1\n        /* \"smart-contracts/playground/main/Canvassing.sol\":8207:8470  function checkIfParticipantHasAlreadyParticipatedInSurvey(... */\n      jump\n        /* \"smart-contracts/playground/main/Canvassing.sol\":17402:18531  function createFunding(... */\n    tag_35:\n      tag_73\n      tag_195\n      calldatasize\n      0x04\n      tag_196\n      jump\t// in\n    tag_195:\n      tag_197\n      jump\t// in\n        /* \"smart-contracts/playground/main/Canvassing.sol\":798:886  mapping(uint256 => mapping(address => bool))... */\n    tag_36:\n      tag_156\n      tag_199\n      calldatasize\n      0x04\n      tag_89\n      jump\t// in\n    tag_199:\n      0x06\n      0x20\n      swap1\n      dup2\n      mstore\n      0x00\n      swap3\n      dup4\n      mstore\n      0x40\n      dup1\n      dup5\n      keccak256\n      swap1\n      swap2\n      mstore\n      swap1\n      dup3\n      mstore\n      swap1\n      keccak256\n      sload\n      0xff\n      and\n      dup2\n      jump\n        /* \"smart-contracts/playground/main/Canvassing.sol\":3581:3732  function getSurveyById(uint256 _surveyId)... */\n    tag_37:\n      tag_202\n      tag_203\n      calldatasize\n      0x04\n      tag_79\n      jump\t// in\n    tag_203:\n      tag_204\n      jump\t// in\n    tag_202:\n      mload(0x40)\n      tag_55\n      swap2\n      swap1\n      tag_206\n      jump\t// in\n        /* \"smart-contracts/playground/main/Canvassing.sol\":10639:12311  function participateInSurvey(... */\n    tag_38:\n      tag_73\n      tag_208\n      calldatasize\n      0x04\n      tag_209\n      jump\t// in\n    tag_208:\n      tag_210\n      jump\t// in\n        /* \"smart-contracts/playground/main/Canvassing.sol\":21376:21534  function getAnswersOfSurvey(uint256 _surveyId)... */\n    tag_39:\n      tag_87\n      tag_212\n      calldatasize\n      0x04\n      tag_79\n      jump\t// in\n    tag_212:\n      tag_213\n      jump\t// in\n        /* \"smart-contracts/playground/main/Canvassing.sol\":1377:1450  mapping(address => uint256) public idsOfLatestSurveysCreatedByResearchers */\n    tag_40:\n      tag_51\n      tag_216\n      calldatasize\n      0x04\n      tag_59\n      jump\t// in\n    tag_216:\n      mstore(0x20, 0x0a)\n      0x00\n      swap1\n      dup2\n      mstore\n      0x40\n      swap1\n      keccak256\n      sload\n      dup2\n      jump\n        /* \"smart-contracts/playground/main/Canvassing.sol\":6808:6975  function getAllQuestionsOfSurvey(uint256 _surveyId)... */\n    tag_41:\n      tag_219\n      tag_220\n      calldatasize\n      0x04\n      tag_79\n      jump\t// in\n    tag_220:\n      tag_221\n      jump\t// in\n    tag_219:\n      mload(0x40)\n      tag_55\n      swap2\n      swap1\n      tag_223\n      jump\t// in\n        /* \"smart-contracts/playground/main/Canvassing.sol\":404:456  mapping(address => Researcher) public allResearchers */\n    tag_42:\n      tag_224\n      tag_225\n      calldatasize\n      0x04\n      tag_59\n      jump\t// in\n    tag_225:\n      tag_226\n      jump\t// in\n    tag_224:\n      mload(0x40)\n      tag_55\n      swap8\n      swap7\n      swap6\n      swap5\n      swap4\n      swap3\n      swap2\n      swap1\n      tag_228\n      jump\t// in\n        /* \"smart-contracts/playground/main/Canvassing.sol\":630:680  mapping(uint256 => Question[]) public allQuestions */\n    tag_43:\n      tag_229\n      tag_230\n      calldatasize\n      0x04\n      tag_53\n      jump\t// in\n    tag_230:\n      tag_231\n      jump\t// in\n    tag_229:\n      mload(0x40)\n      tag_55\n      swap5\n      swap4\n      swap3\n      swap2\n      swap1\n      tag_233\n      jump\t// in\n        /* \"smart-contracts/playground/main/Canvassing.sol\":8476:9400  function getAmountOfFundingOfAnySurveyInWei(... */\n    tag_54:\n        /* \"smart-contracts/playground/main/Canvassing.sol\":8887:8904  cUSDDecimalPlaces */\n      sload(0x16)\n        /* \"smart-contracts/playground/main/Canvassing.sol\":8628:8635  uint256 */\n      0x00\n      swap1\n      dup2\n      swap1\n        /* \"smart-contracts/playground/main/Canvassing.sol\":8854:8904  _numberOfQuestions *... */\n      tag_235\n      swap1\n        /* \"smart-contracts/playground/main/Canvassing.sol\":8854:8872  _numberOfQuestions */\n      dup6\n        /* \"smart-contracts/playground/main/Canvassing.sol\":8854:8904  _numberOfQuestions *... */\n      tag_236\n      jump\t// in\n    tag_235:\n        /* \"smart-contracts/playground/main/Canvassing.sol\":8817:8905  potentialFundingOfAnySurveyInWei += (_numberOfQuestions *... */\n      tag_237\n      swap1\n      dup3\n      tag_238\n      jump\t// in\n    tag_237:\n      swap1\n      pop\n        /* \"smart-contracts/playground/main/Canvassing.sol\":8962:8989  _targetNumberOfParticipants */\n      dup3\n        /* \"smart-contracts/playground/main/Canvassing.sol\":8993:8994  5 */\n      0x05\n        /* \"smart-contracts/playground/main/Canvassing.sol\":8962:8994  _targetNumberOfParticipants == 5 */\n      sub\n        /* \"smart-contracts/playground/main/Canvassing.sol\":8958:9080  if (_targetNumberOfParticipants == 5) {... */\n      tag_239\n      jumpi\n        /* \"smart-contracts/playground/main/Canvassing.sol\":9051:9068  cUSDDecimalPlaces */\n      sload(0x16)\n        /* \"smart-contracts/playground/main/Canvassing.sol\":9047:9068  2 * cUSDDecimalPlaces */\n      tag_240\n      swap1\n        /* \"smart-contracts/playground/main/Canvassing.sol\":9047:9048  2 */\n      0x02\n        /* \"smart-contracts/playground/main/Canvassing.sol\":9047:9068  2 * cUSDDecimalPlaces */\n      tag_236\n      jump\t// in\n    tag_240:\n        /* \"smart-contracts/playground/main/Canvassing.sol\":9010:9069  potentialFundingOfAnySurveyInWei += (2 * cUSDDecimalPlaces) */\n      tag_241\n      swap1\n      dup3\n      tag_238\n      jump\t// in\n    tag_241:\n      swap1\n      pop\n        /* \"smart-contracts/playground/main/Canvassing.sol\":8958:9080  if (_targetNumberOfParticipants == 5) {... */\n    tag_239:\n        /* \"smart-contracts/playground/main/Canvassing.sol\":9094:9121  _targetNumberOfParticipants */\n      dup3\n        /* \"smart-contracts/playground/main/Canvassing.sol\":9125:9126  7 */\n      0x07\n        /* \"smart-contracts/playground/main/Canvassing.sol\":9094:9126  _targetNumberOfParticipants == 7 */\n      sub\n        /* \"smart-contracts/playground/main/Canvassing.sol\":9090:9212  if (_targetNumberOfParticipants == 7) {... */\n      tag_242\n      jumpi\n        /* \"smart-contracts/playground/main/Canvassing.sol\":9183:9200  cUSDDecimalPlaces */\n      sload(0x16)\n        /* \"smart-contracts/playground/main/Canvassing.sol\":9179:9200  4 * cUSDDecimalPlaces */\n      tag_243\n      swap1\n        /* \"smart-contracts/playground/main/Canvassing.sol\":9179:9180  4 */\n      0x04\n        /* \"smart-contracts/playground/main/Canvassing.sol\":9179:9200  4 * cUSDDecimalPlaces */\n      tag_236\n      jump\t// in\n    tag_243:\n        /* \"smart-contracts/playground/main/Canvassing.sol\":9142:9201  potentialFundingOfAnySurveyInWei += (4 * cUSDDecimalPlaces) */\n      tag_244\n      swap1\n      dup3\n      tag_238\n      jump\t// in\n    tag_244:\n      swap1\n      pop\n        /* \"smart-contracts/playground/main/Canvassing.sol\":9090:9212  if (_targetNumberOfParticipants == 7) {... */\n    tag_242:\n        /* \"smart-contracts/playground/main/Canvassing.sol\":9226:9253  _targetNumberOfParticipants */\n      dup3\n        /* \"smart-contracts/playground/main/Canvassing.sol\":9257:9258  9 */\n      0x09\n        /* \"smart-contracts/playground/main/Canvassing.sol\":9226:9258  _targetNumberOfParticipants == 9 */\n      sub\n        /* \"smart-contracts/playground/main/Canvassing.sol\":9222:9344  if (_targetNumberOfParticipants == 9) {... */\n      tag_245\n      jumpi\n        /* \"smart-contracts/playground/main/Canvassing.sol\":9315:9332  cUSDDecimalPlaces */\n      sload(0x16)\n        /* \"smart-contracts/playground/main/Canvassing.sol\":9311:9332  6 * cUSDDecimalPlaces */\n      tag_246\n      swap1\n        /* \"smart-contracts/playground/main/Canvassing.sol\":9311:9312  6 */\n      0x06\n        /* \"smart-contracts/playground/main/Canvassing.sol\":9311:9332  6 * cUSDDecimalPlaces */\n      tag_236\n      jump\t// in\n    tag_246:\n        /* \"smart-contracts/playground/main/Canvassing.sol\":9274:9333  potentialFundingOfAnySurveyInWei += (6 * cUSDDecimalPlaces) */\n      tag_247\n      swap1\n      dup3\n      tag_238\n      jump\t// in\n    tag_247:\n      swap1\n      pop\n        /* \"smart-contracts/playground/main/Canvassing.sol\":9222:9344  if (_targetNumberOfParticipants == 9) {... */\n    tag_245:\n        /* \"smart-contracts/playground/main/Canvassing.sol\":9361:9393  potentialFundingOfAnySurveyInWei */\n      swap1\n      pop\n        /* \"smart-contracts/playground/main/Canvassing.sol\":8476:9400  function getAmountOfFundingOfAnySurveyInWei(... */\n    tag_234:\n      swap3\n      swap2\n      pop\n      pop\n      jump\t// out\n        /* \"smart-contracts/playground/main/Canvassing.sol\":14527:14711  function getResearcherByWalletAddress(address _walletAddress)... */\n    tag_60:\n        /* \"smart-contracts/playground/main/Canvassing.sol\":14634:14651  Researcher memory */\n      tag_248\n      tag_249\n      jump\t// in\n    tag_248:\n      sub(shl(0xa0, 0x01), 0x01)\n        /* \"smart-contracts/playground/main/Canvassing.sol\":14674:14704  allResearchers[_walletAddress] */\n      dup1\n      dup4\n      and\n      0x00\n      swap1\n      dup2\n      mstore\n        /* \"smart-contracts/playground/main/Canvassing.sol\":14674:14688  allResearchers */\n      0x01\n        /* \"smart-contracts/playground/main/Canvassing.sol\":14674:14704  allResearchers[_walletAddress] */\n      0x20\n      dup2\n      dup2\n      mstore\n      0x40\n      swap3\n      dup4\n      swap1\n      keccak256\n        /* \"smart-contracts/playground/main/Canvassing.sol\":14667:14704  return allResearchers[_walletAddress] */\n      dup4\n      mload\n      0xe0\n      dup2\n      add\n      dup6\n      mstore\n      dup2\n      sload\n      dup2\n      mstore\n      swap3\n      dup2\n      add\n      sload\n      swap1\n      swap5\n      and\n      swap1\n      dup3\n      add\n      mstore\n      0x02\n      dup4\n      add\n      dup1\n      sload\n      swap2\n      swap4\n        /* \"smart-contracts/playground/main/Canvassing.sol\":14674:14704  allResearchers[_walletAddress] */\n      swap3\n        /* \"smart-contracts/playground/main/Canvassing.sol\":14667:14704  return allResearchers[_walletAddress] */\n      dup5\n      add\n      swap2\n      tag_251\n      swap1\n      tag_252\n      jump\t// in\n    tag_251:\n      dup1\n      0x1f\n      add\n      0x20\n      dup1\n      swap2\n      div\n      mul\n      0x20\n      add\n      mload(0x40)\n      swap1\n      dup2\n      add\n      0x40\n      mstore\n      dup1\n      swap3\n      swap2\n      swap1\n      dup2\n      dup2\n      mstore\n      0x20\n      add\n      dup3\n      dup1\n      sload\n      tag_253\n      swap1\n      tag_252\n      jump\t// in\n    tag_253:\n      dup1\n      iszero\n      tag_254\n      jumpi\n      dup1\n      0x1f\n      lt\n      tag_255\n      jumpi\n      0x0100\n      dup1\n      dup4\n      sload\n      div\n      mul\n      dup4\n      mstore\n      swap2\n      0x20\n      add\n      swap2\n      jump(tag_254)\n    tag_255:\n      dup3\n      add\n      swap2\n      swap1\n      0x00\n      mstore\n      keccak256(0x00, 0x20)\n      swap1\n    tag_256:\n      dup2\n      sload\n      dup2\n      mstore\n      swap1\n      0x01\n      add\n      swap1\n      0x20\n      add\n      dup1\n      dup4\n      gt\n      tag_256\n      jumpi\n      dup3\n      swap1\n      sub\n      0x1f\n      and\n      dup3\n      add\n      swap2\n    tag_254:\n      pop\n      pop\n      pop\n      swap2\n      dup4\n      mstore\n      pop\n      pop\n      0x03\n      dup3\n      add\n      sload\n      0x20\n      dup3\n      add\n      mstore\n      0x04\n      swap1\n      swap2\n      add\n      sload\n      0xff\n      dup1\n      dup3\n      and\n      iszero\n      iszero\n      0x40\n      dup5\n      add\n      mstore\n      0x0100\n      dup3\n      div\n      dup2\n      and\n      iszero\n      iszero\n      0x60\n      dup5\n      add\n      mstore\n      0x010000\n      swap1\n      swap2\n      div\n      and\n      iszero\n      iszero\n      0x80\n      swap1\n      swap2\n      add\n      mstore\n      swap3\n        /* \"smart-contracts/playground/main/Canvassing.sol\":14527:14711  function getResearcherByWalletAddress(address _walletAddress)... */\n      swap2\n      pop\n      pop\n      jump\t// out\n        /* \"smart-contracts/playground/main/Canvassing.sol\":16340:17396  function getSurveysCreatedByResearcher(address _researcherWalletAddress)... */\n    tag_65:\n      sub(shl(0xa0, 0x01), 0x01)\n        /* \"smart-contracts/playground/main/Canvassing.sol\":16539:16635  totalNumberOfSurveysCreatedByResearchers[... */\n      dup2\n      and\n        /* \"smart-contracts/playground/main/Canvassing.sol\":16489:16536  uint256 totalNumberOfSurveysCreatedByResearcher */\n      0x00\n        /* \"smart-contracts/playground/main/Canvassing.sol\":16539:16635  totalNumberOfSurveysCreatedByResearchers[... */\n      swap1\n      dup2\n      mstore\n        /* \"smart-contracts/playground/main/Canvassing.sol\":16539:16579  totalNumberOfSurveysCreatedByResearchers */\n      0x08\n        /* \"smart-contracts/playground/main/Canvassing.sol\":16539:16635  totalNumberOfSurveysCreatedByResearchers[... */\n      0x20\n      mstore\n      0x40\n      dup2\n      keccak256\n      sload\n        /* \"smart-contracts/playground/main/Canvassing.sol\":16458:16473  Survey[] memory */\n      0x60\n      swap2\n        /* \"smart-contracts/playground/main/Canvassing.sol\":16539:16635  totalNumberOfSurveysCreatedByResearchers[... */\n      dup2\n      sub(shl(0x40, 0x01), 0x01)\n        /* \"smart-contracts/playground/main/Canvassing.sol\":16694:16769  new Survey[](... */\n      dup2\n      gt\n      iszero\n      tag_259\n      jumpi\n      tag_259\n      tag_260\n      jump\t// in\n    tag_259:\n      mload(0x40)\n      swap1\n      dup1\n      dup3\n      mstore\n      dup1\n      0x20\n      mul\n      0x20\n      add\n      dup3\n      add\n      0x40\n      mstore\n      dup1\n      iszero\n      tag_261\n      jumpi\n      dup2\n      0x20\n      add\n    tag_262:\n      tag_263\n      tag_264\n      jump\t// in\n    tag_263:\n      dup2\n      mstore\n      0x20\n      add\n      swap1\n      0x01\n      swap1\n      sub\n      swap1\n      dup2\n      tag_262\n      jumpi\n      swap1\n      pop\n    tag_261:\n      pop\n        /* \"smart-contracts/playground/main/Canvassing.sol\":16646:16769  Survey[] memory allSurveysCreatedByResearcher = new Survey[](... */\n      swap1\n      pop\n        /* \"smart-contracts/playground/main/Canvassing.sol\":16780:16799  uint256 surveyIndex */\n      0x00\n        /* \"smart-contracts/playground/main/Canvassing.sol\":16819:16835  uint256 surveyId */\n      dup1\n        /* \"smart-contracts/playground/main/Canvassing.sol\":16814:17343  for (uint256 surveyId = 0; surveyId < allSurveys.length; surveyId++) {... */\n    tag_265:\n        /* \"smart-contracts/playground/main/Canvassing.sol\":16852:16862  allSurveys */\n      0x03\n        /* \"smart-contracts/playground/main/Canvassing.sol\":16852:16869  allSurveys.length */\n      sload\n        /* \"smart-contracts/playground/main/Canvassing.sol\":16841:16869  surveyId < allSurveys.length */\n      dup2\n      lt\n        /* \"smart-contracts/playground/main/Canvassing.sol\":16814:17343  for (uint256 surveyId = 0; surveyId < allSurveys.length; surveyId++) {... */\n      iszero\n      tag_266\n      jumpi\n        /* \"smart-contracts/playground/main/Canvassing.sol\":16897:16924  Survey memory runningSurvey */\n      0x00\n        /* \"smart-contracts/playground/main/Canvassing.sol\":16927:16937  allSurveys */\n      0x03\n        /* \"smart-contracts/playground/main/Canvassing.sol\":16938:16946  surveyId */\n      dup3\n        /* \"smart-contracts/playground/main/Canvassing.sol\":16927:16947  allSurveys[surveyId] */\n      dup2\n      sload\n      dup2\n      lt\n      tag_269\n      jumpi\n      tag_269\n      tag_270\n      jump\t// in\n    tag_269:\n      swap1\n      0x00\n      mstore\n      keccak256(0x00, 0x20)\n      swap1\n      0x07\n      mul\n      add\n        /* \"smart-contracts/playground/main/Canvassing.sol\":16897:16947  Survey memory runningSurvey = allSurveys[surveyId] */\n      mload(0x40)\n      dup1\n      0xe0\n      add\n      0x40\n      mstore\n      swap1\n      dup2\n      0x00\n      dup3\n      add\n      sload\n      dup2\n      mstore\n      0x20\n      add\n      0x01\n      dup3\n      add\n      0x00\n      swap1\n      sload\n      swap1\n      0x0100\n      exp\n      swap1\n      div\n      sub(shl(0xa0, 0x01), 0x01)\n      and\n      sub(shl(0xa0, 0x01), 0x01)\n      and\n      sub(shl(0xa0, 0x01), 0x01)\n      and\n      dup2\n      mstore\n      0x20\n      add\n      0x02\n      dup3\n      add\n      dup1\n      sload\n      tag_272\n      swap1\n      tag_252\n      jump\t// in\n    tag_272:\n      dup1\n      0x1f\n      add\n      0x20\n      dup1\n      swap2\n      div\n      mul\n      0x20\n      add\n      mload(0x40)\n      swap1\n      dup2\n      add\n      0x40\n      mstore\n      dup1\n      swap3\n      swap2\n      swap1\n      dup2\n      dup2\n      mstore\n      0x20\n      add\n      dup3\n      dup1\n      sload\n      tag_273\n      swap1\n      tag_252\n      jump\t// in\n    tag_273:\n      dup1\n      iszero\n      tag_274\n      jumpi\n      dup1\n      0x1f\n      lt\n      tag_275\n      jumpi\n      0x0100\n      dup1\n      dup4\n      sload\n      div\n      mul\n      dup4\n      mstore\n      swap2\n      0x20\n      add\n      swap2\n      jump(tag_274)\n    tag_275:\n      dup3\n      add\n      swap2\n      swap1\n      0x00\n      mstore\n      keccak256(0x00, 0x20)\n      swap1\n    tag_276:\n      dup2\n      sload\n      dup2\n      mstore\n      swap1\n      0x01\n      add\n      swap1\n      0x20\n      add\n      dup1\n      dup4\n      gt\n      tag_276\n      jumpi\n      dup3\n      swap1\n      sub\n      0x1f\n      and\n      dup3\n      add\n      swap2\n    tag_274:\n      pop\n      pop\n      pop\n      swap2\n      dup4\n      mstore\n      pop\n      pop\n      0x03\n      dup3\n      add\n      sload\n      0x20\n      dup1\n      dup4\n      add\n      swap2\n      swap1\n      swap2\n      mstore\n      0x04\n      dup4\n      add\n      sload\n      0x40\n      dup4\n      add\n      mstore\n      0x05\n      dup4\n      add\n      sload\n      0x60\n      dup4\n      add\n      mstore\n      0x06\n      swap1\n      swap3\n      add\n      sload\n      0xff\n      and\n      iszero\n      iszero\n      0x80\n      swap1\n      swap2\n      add\n      mstore\n        /* \"smart-contracts/playground/main/Canvassing.sol\":16983:17028  runningSurvey.creatingResearcherWalletAddress */\n      dup2\n      add\n      mload\n        /* \"smart-contracts/playground/main/Canvassing.sol\":16897:16947  Survey memory runningSurvey = allSurveys[surveyId] */\n      swap1\n      swap2\n      pop\n      sub(shl(0xa0, 0x01), 0x01)\n        /* \"smart-contracts/playground/main/Canvassing.sol\":16983:17072  runningSurvey.creatingResearcherWalletAddress ==... */\n      dup1\n      dup10\n      and\n      swap2\n      and\n      sub\n        /* \"smart-contracts/playground/main/Canvassing.sol\":16962:17333  if (... */\n      tag_282\n      jumpi\n        /* \"smart-contracts/playground/main/Canvassing.sol\":17150:17163  runningSurvey */\n      dup1\n        /* \"smart-contracts/playground/main/Canvassing.sol\":17105:17134  allSurveysCreatedByResearcher */\n      dup5\n        /* \"smart-contracts/playground/main/Canvassing.sol\":17135:17146  surveyIndex */\n      dup5\n        /* \"smart-contracts/playground/main/Canvassing.sol\":17105:17147  allSurveysCreatedByResearcher[surveyIndex] */\n      dup2\n      mload\n      dup2\n      lt\n      tag_279\n      jumpi\n      tag_279\n      tag_270\n      jump\t// in\n    tag_279:\n      0x20\n      mul\n      0x20\n      add\n      add\n        /* \"smart-contracts/playground/main/Canvassing.sol\":17105:17163  allSurveysCreatedByResearcher[surveyIndex] = runningSurvey */\n      dup2\n      swap1\n      mstore\n      pop\n        /* \"smart-contracts/playground/main/Canvassing.sol\":17181:17194  surveyIndex++ */\n      dup3\n      dup1\n      tag_280\n      swap1\n      tag_281\n      jump\t// in\n    tag_280:\n      swap4\n      pop\n      pop\n        /* \"smart-contracts/playground/main/Canvassing.sol\":17232:17271  totalNumberOfSurveysCreatedByResearcher */\n      dup5\n        /* \"smart-contracts/playground/main/Canvassing.sol\":17217:17228  surveyIndex */\n      dup4\n        /* \"smart-contracts/playground/main/Canvassing.sol\":17217:17271  surveyIndex == totalNumberOfSurveysCreatedByResearcher */\n      sub\n        /* \"smart-contracts/playground/main/Canvassing.sol\":17213:17319  if (surveyIndex == totalNumberOfSurveysCreatedByResearcher) {... */\n      tag_282\n      jumpi\n        /* \"smart-contracts/playground/main/Canvassing.sol\":17295:17300  break */\n      pop\n      jump(tag_266)\n        /* \"smart-contracts/playground/main/Canvassing.sol\":17213:17319  if (surveyIndex == totalNumberOfSurveysCreatedByResearcher) {... */\n    tag_282:\n      pop\n        /* \"smart-contracts/playground/main/Canvassing.sol\":16871:16881  surveyId++ */\n      dup1\n      tag_283\n      dup2\n      tag_281\n      jump\t// in\n    tag_283:\n      swap2\n      pop\n      pop\n        /* \"smart-contracts/playground/main/Canvassing.sol\":16814:17343  for (uint256 surveyId = 0; surveyId < allSurveys.length; surveyId++) {... */\n      jump(tag_265)\n    tag_266:\n      pop\n        /* \"smart-contracts/playground/main/Canvassing.sol\":17360:17389  allSurveysCreatedByResearcher */\n      swap1\n      swap5\n        /* \"smart-contracts/playground/main/Canvassing.sol\":16340:17396  function getSurveysCreatedByResearcher(address _researcherWalletAddress)... */\n      swap4\n      pop\n      pop\n      pop\n      pop\n      jump\t// out\n        /* \"smart-contracts/playground/main/Canvassing.sol\":1486:1547  mapping(uint256 => Participant[]) public participantsOfSurvey */\n    tag_70:\n      mstore(0x20, 0x0b)\n      dup2\n      0x00\n      mstore\n      keccak256(0x00, 0x40)\n      dup2\n      dup2\n      sload\n      dup2\n      lt\n      tag_284\n      jumpi\n      0x00\n      dup1\n      revert\n    tag_284:\n      0x00\n      swap2\n      dup3\n      mstore\n      0x20\n      swap1\n      swap2\n      keccak256\n      0x07\n      swap1\n      swap2\n      mul\n      add\n      dup1\n      sload\n      0x01\n      dup3\n      add\n      sload\n      0x02\n      dup4\n      add\n      dup1\n      sload\n      swap3\n      swap6\n      pop\n      sub(shl(0xa0, 0x01), 0x01)\n      swap1\n      swap2\n      and\n      swap4\n      pop\n      swap1\n      tag_286\n      swap1\n      tag_252\n      jump\t// in\n    tag_286:\n      dup1\n      0x1f\n      add\n      0x20\n      dup1\n      swap2\n      div\n      mul\n      0x20\n      add\n      mload(0x40)\n      swap1\n      dup2\n      add\n      0x40\n      mstore\n      dup1\n      swap3\n      swap2\n      swap1\n      dup2\n      dup2\n      mstore\n      0x20\n      add\n      dup3\n      dup1\n      sload\n      tag_287\n      swap1\n      tag_252\n      jump\t// in\n    tag_287:\n      dup1\n      iszero\n      tag_288\n      jumpi\n      dup1\n      0x1f\n      lt\n      tag_289\n      jumpi\n      0x0100\n      dup1\n      dup4\n      sload\n      div\n      mul\n      dup4\n      mstore\n      swap2\n      0x20\n      add\n      swap2\n      jump(tag_288)\n    tag_289:\n      dup3\n      add\n      swap2\n      swap1\n      0x00\n      mstore\n      keccak256(0x00, 0x20)\n      swap1\n    tag_290:\n      dup2\n      sload\n      dup2\n      mstore\n      swap1\n      0x01\n      add\n      swap1\n      0x20\n      add\n      dup1\n      dup4\n      gt\n      tag_290\n      jumpi\n      dup3\n      swap1\n      sub\n      0x1f\n      and\n      dup3\n      add\n      swap2\n    tag_288:\n      pop\n      pop\n      pop\n      pop\n      pop\n      swap1\n      dup1\n      0x03\n      add\n      dup1\n      sload\n      tag_291\n      swap1\n      tag_252\n      jump\t// in\n    tag_291:\n      dup1\n      0x1f\n      add\n      0x20\n      dup1\n      swap2\n      div\n      mul\n      0x20\n      add\n      mload(0x40)\n      swap1\n      dup2\n      add\n      0x40\n      mstore\n      dup1\n      swap3\n      swap2\n      swap1\n      dup2\n      dup2\n      mstore\n      0x20\n      add\n      dup3\n      dup1\n      sload\n      tag_292\n      swap1\n      tag_252\n      jump\t// in\n    tag_292:\n      dup1\n      iszero\n      tag_293\n      jumpi\n      dup1\n      0x1f\n      lt\n      tag_294\n      jumpi\n      0x0100\n      dup1\n      dup4\n      sload\n      div\n      mul\n      dup4\n      mstore\n      swap2\n      0x20\n      add\n      swap2\n      jump(tag_293)\n    tag_294:\n      dup3\n      add\n      swap2\n      swap1\n      0x00\n      mstore\n      keccak256(0x00, 0x20)\n      swap1\n    tag_295:\n      dup2\n      sload\n      dup2\n      mstore\n      swap1\n      0x01\n      add\n      swap1\n      0x20\n      add\n      dup1\n      dup4\n      gt\n      tag_295\n      jumpi\n      dup3\n      swap1\n      sub\n      0x1f\n      and\n      dup3\n      add\n      swap2\n    tag_293:\n      pop\n      pop\n      pop\n      pop\n      0x04\n      dup4\n      add\n      sload\n      0x05\n      dup5\n      add\n      sload\n      0x06\n      swap1\n      swap5\n      add\n      sload\n      swap3\n      swap4\n      swap1\n      swap3\n      swap1\n      swap2\n      pop\n      0xff\n      dup1\n      dup3\n      and\n      swap2\n      0x0100\n      swap1\n      div\n      and\n      dup9\n      jump\t// out\n        /* \"smart-contracts/playground/main/Canvassing.sol\":14717:15776  function createResearcher(... */\n    tag_76:\n        /* \"smart-contracts/playground/main/Canvassing.sol\":14893:14912  currentResearcherId */\n      sload(0x0e)\n        /* \"smart-contracts/playground/main/Canvassing.sol\":14923:14954  Researcher memory newResearcher */\n      tag_297\n      tag_249\n      jump\t// in\n    tag_297:\n        /* \"smart-contracts/playground/main/Canvassing.sol\":14964:14998  newResearcher.id = newResearcherId */\n      dup2\n      dup2\n      mstore\n      sub(shl(0xa0, 0x01), 0x01)\n        /* \"smart-contracts/playground/main/Canvassing.sol\":15008:15052  newResearcher.walletAddress = _walletAddress */\n      dup6\n      and\n        /* \"smart-contracts/playground/main/Canvassing.sol\":15008:15035  newResearcher.walletAddress */\n      0x20\n      dup3\n      add\n        /* \"smart-contracts/playground/main/Canvassing.sol\":15008:15052  newResearcher.walletAddress = _walletAddress */\n      mstore\n        /* \"smart-contracts/playground/main/Canvassing.sol\":15062:15084  newResearcher.industry */\n      0x40\n      dup2\n      add\n        /* \"smart-contracts/playground/main/Canvassing.sol\":15062:15096  newResearcher.industry = _industry */\n      dup5\n      swap1\n      mstore\n        /* \"smart-contracts/playground/main/Canvassing.sol\":15106:15139  newResearcher.yearOfIncorporation */\n      0x60\n      dup2\n      add\n        /* \"smart-contracts/playground/main/Canvassing.sol\":15106:15160  newResearcher.yearOfIncorporation = _yearOfCorporation */\n      dup4\n      swap1\n      mstore\n        /* \"smart-contracts/playground/main/Canvassing.sol\":14964:14980  newResearcher.id */\n      0x00\n        /* \"smart-contracts/playground/main/Canvassing.sol\":15170:15194  newResearcher.isVerified */\n      0xa0\n      dup3\n      add\n        /* \"smart-contracts/playground/main/Canvassing.sol\":15170:15202  newResearcher.isVerified = false */\n      mstore\n        /* \"smart-contracts/playground/main/Canvassing.sol\":15274:15314  checkIfParticipantExists(_walletAddress) */\n      tag_298\n        /* \"smart-contracts/playground/main/Canvassing.sol\":15038:15052  _walletAddress */\n      dup6\n        /* \"smart-contracts/playground/main/Canvassing.sol\":15274:15298  checkIfParticipantExists */\n      tag_158\n        /* \"smart-contracts/playground/main/Canvassing.sol\":15274:15314  checkIfParticipantExists(_walletAddress) */\n      jump\t// in\n    tag_298:\n        /* \"smart-contracts/playground/main/Canvassing.sol\":15270:15682  if (checkIfParticipantExists(_walletAddress)) {... */\n      iszero\n      tag_299\n      jumpi\n        /* \"smart-contracts/playground/main/Canvassing.sol\":15330:15384  Participant... */\n      0x00\n        /* \"smart-contracts/playground/main/Canvassing.sol\":15387:15470  getParticipantByWalletAddress(... */\n      tag_300\n        /* \"smart-contracts/playground/main/Canvassing.sol\":15438:15452  _walletAddress */\n      dup7\n        /* \"smart-contracts/playground/main/Canvassing.sol\":15387:15416  getParticipantByWalletAddress */\n      tag_95\n        /* \"smart-contracts/playground/main/Canvassing.sol\":15387:15470  getParticipantByWalletAddress(... */\n      jump\t// in\n    tag_300:\n        /* \"smart-contracts/playground/main/Canvassing.sol\":15550:15554  true */\n      0x01\n        /* \"smart-contracts/playground/main/Canvassing.sol\":15515:15547  existingParticipant.isResearcher */\n      0xc0\n      dup3\n      add\n        /* \"smart-contracts/playground/main/Canvassing.sol\":15515:15554  existingParticipant.isResearcher = true */\n      dup2\n      swap1\n      mstore\n        /* \"smart-contracts/playground/main/Canvassing.sol\":15569:15596  newResearcher.isParticipant */\n      0x80\n      dup5\n      add\n        /* \"smart-contracts/playground/main/Canvassing.sol\":15569:15603  newResearcher.isParticipant = true */\n      dup2\n      swap1\n      mstore\n      sub(shl(0xa0, 0x01), 0x01)\n        /* \"smart-contracts/playground/main/Canvassing.sol\":15618:15649  allParticipants[_walletAddress] */\n      dup9\n      dup2\n      and\n        /* \"smart-contracts/playground/main/Canvassing.sol\":15515:15554  existingParticipant.isResearcher = true */\n      0x00\n        /* \"smart-contracts/playground/main/Canvassing.sol\":15618:15649  allParticipants[_walletAddress] */\n      swap1\n      dup2\n      mstore\n        /* \"smart-contracts/playground/main/Canvassing.sol\":15618:15633  allParticipants */\n      0x02\n        /* \"smart-contracts/playground/main/Canvassing.sol\":15618:15649  allParticipants[_walletAddress] */\n      0x20\n      dup2\n      dup2\n      mstore\n      0x40\n      swap3\n      dup4\n      swap1\n      keccak256\n        /* \"smart-contracts/playground/main/Canvassing.sol\":15618:15671  allParticipants[_walletAddress] = existingParticipant */\n      dup7\n      mload\n      dup2\n      sstore\n      swap1\n      dup7\n      add\n      mload\n      swap5\n      dup2\n      add\n      dup1\n      sload\n      not(sub(shl(0xa0, 0x01), 0x01))\n      and\n      swap6\n      swap1\n      swap5\n      and\n      swap5\n      swap1\n      swap5\n      or\n      swap1\n      swap3\n      sstore\n      dup4\n      add\n      mload\n        /* \"smart-contracts/playground/main/Canvassing.sol\":15515:15547  existingParticipant.isResearcher */\n      swap3\n      swap4\n      pop\n      dup4\n      swap3\n        /* \"smart-contracts/playground/main/Canvassing.sol\":15618:15671  allParticipants[_walletAddress] = existingParticipant */\n      swap1\n      dup3\n      add\n      swap1\n      tag_301\n      swap1\n      dup3\n      tag_302\n      jump\t// in\n    tag_301:\n      pop\n      0x60\n      dup3\n      add\n      mload\n      0x03\n      dup3\n      add\n      swap1\n      tag_303\n      swap1\n      dup3\n      tag_302\n      jump\t// in\n    tag_303:\n      pop\n      0x80\n      dup3\n      add\n      mload\n      0x04\n      dup3\n      add\n      sstore\n      0xa0\n      dup3\n      add\n      mload\n      0x05\n      dup3\n      add\n      sstore\n      0xc0\n      dup3\n      add\n      mload\n      0x06\n      swap1\n      swap2\n      add\n      dup1\n      sload\n      0xe0\n      swap1\n      swap4\n      add\n      mload\n      iszero\n      iszero\n      0x0100\n      mul\n      not(0xff00)\n      swap3\n      iszero\n      iszero\n      swap3\n      swap1\n      swap3\n      and\n      not(0xffff)\n      swap1\n      swap4\n      and\n      swap3\n      swap1\n      swap3\n      or\n      or\n      swap1\n      sstore\n      pop\n        /* \"smart-contracts/playground/main/Canvassing.sol\":15270:15682  if (checkIfParticipantExists(_walletAddress)) {... */\n    tag_299:\n      sub(shl(0xa0, 0x01), 0x01)\n        /* \"smart-contracts/playground/main/Canvassing.sol\":15692:15722  allResearchers[_walletAddress] */\n      dup6\n      dup2\n      and\n      0x00\n      swap1\n      dup2\n      mstore\n        /* \"smart-contracts/playground/main/Canvassing.sol\":15692:15706  allResearchers */\n      0x01\n        /* \"smart-contracts/playground/main/Canvassing.sol\":15692:15722  allResearchers[_walletAddress] */\n      0x20\n      dup2\n      dup2\n      mstore\n      0x40\n      swap3\n      dup4\n      swap1\n      keccak256\n        /* \"smart-contracts/playground/main/Canvassing.sol\":15692:15738  allResearchers[_walletAddress] = newResearcher */\n      dup6\n      mload\n      dup2\n      sstore\n      swap1\n      dup6\n      add\n      mload\n      swap2\n      dup2\n      add\n      dup1\n      sload\n      not(sub(shl(0xa0, 0x01), 0x01))\n      and\n      swap3\n      swap1\n      swap5\n      and\n      swap2\n      swap1\n      swap2\n      or\n      swap1\n      swap3\n      sstore\n      dup3\n      add\n      mload\n      dup3\n      swap2\n        /* \"smart-contracts/playground/main/Canvassing.sol\":15692:15722  allResearchers[_walletAddress] */\n      swap1\n        /* \"smart-contracts/playground/main/Canvassing.sol\":15692:15738  allResearchers[_walletAddress] = newResearcher */\n      0x02\n      dup3\n      add\n      swap1\n      tag_304\n      swap1\n      dup3\n      tag_302\n      jump\t// in\n    tag_304:\n      pop\n      0x60\n      dup3\n      add\n      mload\n      0x03\n      dup3\n      add\n      sstore\n      0x80\n      dup3\n      add\n      mload\n      0x04\n      swap1\n      swap2\n      add\n      dup1\n      sload\n      0xa0\n      dup5\n      add\n      mload\n      0xc0\n      swap1\n      swap5\n      add\n      mload\n      iszero\n      iszero\n      0x010000\n      mul\n      not(0xff0000)\n      swap5\n      iszero\n      iszero\n      0x0100\n      mul\n      not(0xff00)\n      swap5\n      iszero\n      iszero\n      swap5\n      swap1\n      swap5\n      and\n      not(0xffff)\n      swap1\n      swap3\n      and\n      swap2\n      swap1\n      swap2\n      or\n      swap3\n      swap1\n      swap3\n      or\n      swap3\n      swap1\n      swap3\n      and\n      or\n      swap1\n      sstore\n        /* \"smart-contracts/playground/main/Canvassing.sol\":15748:15767  currentResearcherId */\n      0x0e\n        /* \"smart-contracts/playground/main/Canvassing.sol\":15748:15769  currentResearcherId++ */\n      dup1\n      sload\n      swap1\n        /* \"smart-contracts/playground/main/Canvassing.sol\":15692:15738  allResearchers[_walletAddress] = newResearcher */\n      0x00\n        /* \"smart-contracts/playground/main/Canvassing.sol\":15748:15769  currentResearcherId++ */\n      tag_305\n      dup4\n      tag_281\n      jump\t// in\n    tag_305:\n      swap2\n      swap1\n      pop\n      sstore\n      pop\n        /* \"smart-contracts/playground/main/Canvassing.sol\":14857:15776  {... */\n      pop\n      pop\n        /* \"smart-contracts/playground/main/Canvassing.sol\":14717:15776  function createResearcher(... */\n      pop\n      pop\n      pop\n      jump\t// out\n        /* \"smart-contracts/playground/main/Canvassing.sol\":568:594  Survey[] public allSurveys */\n    tag_80:\n      0x03\n      dup2\n      dup2\n      sload\n      dup2\n      lt\n      tag_306\n      jumpi\n      0x00\n      dup1\n      revert\n    tag_306:\n      0x00\n      swap2\n      dup3\n      mstore\n      0x20\n      swap1\n      swap2\n      keccak256\n      0x07\n      swap1\n      swap2\n      mul\n      add\n      dup1\n      sload\n      0x01\n      dup3\n      add\n      sload\n      0x02\n      dup4\n      add\n      dup1\n      sload\n      swap3\n      swap5\n      pop\n      sub(shl(0xa0, 0x01), 0x01)\n      swap1\n      swap2\n      and\n      swap3\n      swap2\n      tag_308\n      swap1\n      tag_252\n      jump\t// in\n    tag_308:\n      dup1\n      0x1f\n      add\n      0x20\n      dup1\n      swap2\n      div\n      mul\n      0x20\n      add\n      mload(0x40)\n      swap1\n      dup2\n      add\n      0x40\n      mstore\n      dup1\n      swap3\n      swap2\n      swap1\n      dup2\n      dup2\n      mstore\n      0x20\n      add\n      dup3\n      dup1\n      sload\n      tag_309\n      swap1\n      tag_252\n      jump\t// in\n    tag_309:\n      dup1\n      iszero\n      tag_310\n      jumpi\n      dup1\n      0x1f\n      lt\n      tag_311\n      jumpi\n      0x0100\n      dup1\n      dup4\n      sload\n      div\n      mul\n      dup4\n      mstore\n      swap2\n      0x20\n      add\n      swap2\n      jump(tag_310)\n    tag_311:\n      dup3\n      add\n      swap2\n      swap1\n      0x00\n      mstore\n      keccak256(0x00, 0x20)\n      swap1\n    tag_312:\n      dup2\n      sload\n      dup2\n      mstore\n      swap1\n      0x01\n      add\n      swap1\n      0x20\n      add\n      dup1\n      dup4\n      gt\n      tag_312\n      jumpi\n      dup3\n      swap1\n      sub\n      0x1f\n      and\n      dup3\n      add\n      swap2\n    tag_310:\n      pop\n      pop\n      pop\n      pop\n      0x03\n      dup4\n      add\n      sload\n      0x04\n      dup5\n      add\n      sload\n      0x05\n      dup6\n      add\n      sload\n      0x06\n      swap1\n      swap6\n      add\n      sload\n      swap4\n      swap5\n      swap2\n      swap4\n      swap1\n      swap3\n      pop\n      0xff\n      and\n      dup8\n      jump\t// out\n        /* \"smart-contracts/playground/main/Canvassing.sol\":9406:10112  function getAmountOfEarningPerParticipantForSurveyInWei(uint256 _surveyId)... */\n    tag_85:\n        /* \"smart-contracts/playground/main/Canvassing.sol\":9526:9533  uint256 */\n      0x00\n        /* \"smart-contracts/playground/main/Canvassing.sol\":9549:9576  Survey memory currentSurvey */\n      dup1\n        /* \"smart-contracts/playground/main/Canvassing.sol\":9579:9589  allSurveys */\n      0x03\n        /* \"smart-contracts/playground/main/Canvassing.sol\":9590:9599  _surveyId */\n      dup4\n        /* \"smart-contracts/playground/main/Canvassing.sol\":9579:9600  allSurveys[_surveyId] */\n      dup2\n      sload\n      dup2\n      lt\n      tag_315\n      jumpi\n      tag_315\n      tag_270\n      jump\t// in\n    tag_315:\n      swap1\n      0x00\n      mstore\n      keccak256(0x00, 0x20)\n      swap1\n      0x07\n      mul\n      add\n        /* \"smart-contracts/playground/main/Canvassing.sol\":9549:9600  Survey memory currentSurvey = allSurveys[_surveyId] */\n      mload(0x40)\n      dup1\n      0xe0\n      add\n      0x40\n      mstore\n      swap1\n      dup2\n      0x00\n      dup3\n      add\n      sload\n      dup2\n      mstore\n      0x20\n      add\n      0x01\n      dup3\n      add\n      0x00\n      swap1\n      sload\n      swap1\n      0x0100\n      exp\n      swap1\n      div\n      sub(shl(0xa0, 0x01), 0x01)\n      and\n      sub(shl(0xa0, 0x01), 0x01)\n      and\n      sub(shl(0xa0, 0x01), 0x01)\n      and\n      dup2\n      mstore\n      0x20\n      add\n      0x02\n      dup3\n      add\n      dup1\n      sload\n      tag_317\n      swap1\n      tag_252\n      jump\t// in\n    tag_317:\n      dup1\n      0x1f\n      add\n      0x20\n      dup1\n      swap2\n      div\n      mul\n      0x20\n      add\n      mload(0x40)\n      swap1\n      dup2\n      add\n      0x40\n      mstore\n      dup1\n      swap3\n      swap2\n      swap1\n      dup2\n      dup2\n      mstore\n      0x20\n      add\n      dup3\n      dup1\n      sload\n      tag_318\n      swap1\n      tag_252\n      jump\t// in\n    tag_318:\n      dup1\n      iszero\n      tag_319\n      jumpi\n      dup1\n      0x1f\n      lt\n      tag_320\n      jumpi\n      0x0100\n      dup1\n      dup4\n      sload\n      div\n      mul\n      dup4\n      mstore\n      swap2\n      0x20\n      add\n      swap2\n      jump(tag_319)\n    tag_320:\n      dup3\n      add\n      swap2\n      swap1\n      0x00\n      mstore\n      keccak256(0x00, 0x20)\n      swap1\n    tag_321:\n      dup2\n      sload\n      dup2\n      mstore\n      swap1\n      0x01\n      add\n      swap1\n      0x20\n      add\n      dup1\n      dup4\n      gt\n      tag_321\n      jumpi\n      dup3\n      swap1\n      sub\n      0x1f\n      and\n      dup3\n      add\n      swap2\n    tag_319:\n      pop\n      pop\n      pop\n      swap2\n      dup4\n      mstore\n      pop\n      pop\n      0x03\n      dup3\n      add\n      sload\n      0x20\n      dup3\n      add\n      mstore\n      0x04\n      dup3\n      add\n      sload\n      0x40\n      dup3\n      add\n      mstore\n      0x05\n      dup1\n      dup4\n      add\n      sload\n      0x60\n      dup4\n      add\n      mstore\n      0x06\n      swap1\n      swap3\n      add\n      sload\n      0xff\n      and\n      iszero\n      iszero\n      0x80\n      swap2\n      dup3\n      add\n      mstore\n        /* \"smart-contracts/playground/main/Canvassing.sol\":9648:9679  currentSurvey.amountFundedInWei */\n      0xa0\n      dup4\n      add\n      mload\n        /* \"smart-contracts/playground/main/Canvassing.sol\":9726:9779  currentSurvey... */\n      swap1\n      dup4\n      add\n      mload\n        /* \"smart-contracts/playground/main/Canvassing.sol\":9549:9600  Survey memory currentSurvey = allSurveys[_surveyId] */\n      swap3\n      swap4\n      pop\n        /* \"smart-contracts/playground/main/Canvassing.sol\":9648:9679  currentSurvey.amountFundedInWei */\n      swap2\n        /* \"smart-contracts/playground/main/Canvassing.sol\":9726:9779  currentSurvey... */\n      swap1\n      0x00\n      swap1\n        /* \"smart-contracts/playground/main/Canvassing.sol\":9892:9894  10 */\n      0x0a\n      swap1\n        /* \"smart-contracts/playground/main/Canvassing.sol\":9842:9888  amountFundedInWeiForSurvey *... */\n      tag_322\n      swap1\n        /* \"smart-contracts/playground/main/Canvassing.sol\":9648:9679  currentSurvey.amountFundedInWei */\n      dup6\n      swap1\n        /* \"smart-contracts/playground/main/Canvassing.sol\":9842:9888  amountFundedInWeiForSurvey *... */\n      tag_236\n      jump\t// in\n    tag_322:\n        /* \"smart-contracts/playground/main/Canvassing.sol\":9841:9894  (amountFundedInWeiForSurvey *... */\n      tag_323\n      swap2\n      swap1\n      tag_324\n      jump\t// in\n    tag_323:\n        /* \"smart-contracts/playground/main/Canvassing.sol\":9790:9894  uint256 participantRevenueSharingPoolAmountInWei = (amountFundedInWeiForSurvey *... */\n      swap1\n      pop\n        /* \"smart-contracts/playground/main/Canvassing.sol\":9905:9956  uint256 amountOfEarningPerParticipantForSurveyInWei */\n      0x00\n        /* \"smart-contracts/playground/main/Canvassing.sol\":9959:10044  participantRevenueSharingPoolAmountInWei /... */\n      tag_325\n        /* \"smart-contracts/playground/main/Canvassing.sol\":10018:10044  targetNumberOfParticipants */\n      dup4\n        /* \"smart-contracts/playground/main/Canvassing.sol\":9790:9894  uint256 participantRevenueSharingPoolAmountInWei = (amountFundedInWeiForSurvey *... */\n      dup4\n        /* \"smart-contracts/playground/main/Canvassing.sol\":9959:10044  participantRevenueSharingPoolAmountInWei /... */\n      tag_324\n      jump\t// in\n    tag_325:\n        /* \"smart-contracts/playground/main/Canvassing.sol\":9905:10044  uint256 amountOfEarningPerParticipantForSurveyInWei = participantRevenueSharingPoolAmountInWei /... */\n      swap8\n        /* \"smart-contracts/playground/main/Canvassing.sol\":9406:10112  function getAmountOfEarningPerParticipantForSurveyInWei(uint256 _surveyId)... */\n      swap7\n      pop\n      pop\n      pop\n      pop\n      pop\n      pop\n      pop\n      jump\t// out\n        /* \"smart-contracts/playground/main/Canvassing.sol\":6981:8201  function getAllAnswersOfParticipantOfSurvey(... */\n    tag_90:\n        /* \"smart-contracts/playground/main/Canvassing.sol\":7122:7137  Answer[] memory */\n      0x60\n        /* \"smart-contracts/playground/main/Canvassing.sol\":7149:7176  Survey memory currentSurvey */\n      0x00\n        /* \"smart-contracts/playground/main/Canvassing.sol\":7179:7189  allSurveys */\n      0x03\n        /* \"smart-contracts/playground/main/Canvassing.sol\":7190:7199  _surveyId */\n      dup5\n        /* \"smart-contracts/playground/main/Canvassing.sol\":7179:7200  allSurveys[_surveyId] */\n      dup2\n      sload\n      dup2\n      lt\n      tag_328\n      jumpi\n      tag_328\n      tag_270\n      jump\t// in\n    tag_328:\n      swap1\n      0x00\n      mstore\n      keccak256(0x00, 0x20)\n      swap1\n      0x07\n      mul\n      add\n        /* \"smart-contracts/playground/main/Canvassing.sol\":7149:7200  Survey memory currentSurvey = allSurveys[_surveyId] */\n      mload(0x40)\n      dup1\n      0xe0\n      add\n      0x40\n      mstore\n      swap1\n      dup2\n      0x00\n      dup3\n      add\n      sload\n      dup2\n      mstore\n      0x20\n      add\n      0x01\n      dup3\n      add\n      0x00\n      swap1\n      sload\n      swap1\n      0x0100\n      exp\n      swap1\n      div\n      sub(shl(0xa0, 0x01), 0x01)\n      and\n      sub(shl(0xa0, 0x01), 0x01)\n      and\n      sub(shl(0xa0, 0x01), 0x01)\n      and\n      dup2\n      mstore\n      0x20\n      add\n      0x02\n      dup3\n      add\n      dup1\n      sload\n      tag_330\n      swap1\n      tag_252\n      jump\t// in\n    tag_330:\n      dup1\n      0x1f\n      add\n      0x20\n      dup1\n      swap2\n      div\n      mul\n      0x20\n      add\n      mload(0x40)\n      swap1\n      dup2\n      add\n      0x40\n      mstore\n      dup1\n      swap3\n      swap2\n      swap1\n      dup2\n      dup2\n      mstore\n      0x20\n      add\n      dup3\n      dup1\n      sload\n      tag_331\n      swap1\n      tag_252\n      jump\t// in\n    tag_331:\n      dup1\n      iszero\n      tag_332\n      jumpi\n      dup1\n      0x1f\n      lt\n      tag_333\n      jumpi\n      0x0100\n      dup1\n      dup4\n      sload\n      div\n      mul\n      dup4\n      mstore\n      swap2\n      0x20\n      add\n      swap2\n      jump(tag_332)\n    tag_333:\n      dup3\n      add\n      swap2\n      swap1\n      0x00\n      mstore\n      keccak256(0x00, 0x20)\n      swap1\n    tag_334:\n      dup2\n      sload\n      dup2\n      mstore\n      swap1\n      0x01\n      add\n      swap1\n      0x20\n      add\n      dup1\n      dup4\n      gt\n      tag_334\n      jumpi\n      dup3\n      swap1\n      sub\n      0x1f\n      and\n      dup3\n      add\n      swap2\n    tag_332:\n      pop\n      pop\n      pop\n      pop\n      pop\n      dup2\n      mstore\n      0x20\n      add\n      0x03\n      dup3\n      add\n      sload\n      dup2\n      mstore\n      0x20\n      add\n      0x04\n      dup3\n      add\n      sload\n      dup2\n      mstore\n      0x20\n      add\n      0x05\n      dup3\n      add\n      sload\n      dup2\n      mstore\n      0x20\n      add\n      0x06\n      dup3\n      add\n      0x00\n      swap1\n      sload\n      swap1\n      0x0100\n      exp\n      swap1\n      div\n      0xff\n      and\n      iszero\n      iszero\n      iszero\n      iszero\n      dup2\n      mstore\n      pop\n      pop\n      swap1\n      pop\n        /* \"smart-contracts/playground/main/Canvassing.sol\":7210:7244  Answer[] memory allAnswersOfSurvey */\n      0x00\n        /* \"smart-contracts/playground/main/Canvassing.sol\":7247:7257  allAnswers */\n      0x05\n        /* \"smart-contracts/playground/main/Canvassing.sol\":7247:7268  allAnswers[_surveyId] */\n      0x00\n        /* \"smart-contracts/playground/main/Canvassing.sol\":7258:7267  _surveyId */\n      dup7\n        /* \"smart-contracts/playground/main/Canvassing.sol\":7247:7268  allAnswers[_surveyId] */\n      dup2\n      mstore\n      0x20\n      add\n      swap1\n      dup2\n      mstore\n      0x20\n      add\n      0x00\n      keccak256\n        /* \"smart-contracts/playground/main/Canvassing.sol\":7210:7268  Answer[] memory allAnswersOfSurvey = allAnswers[_surveyId] */\n      dup1\n      sload\n      dup1\n      0x20\n      mul\n      0x20\n      add\n      mload(0x40)\n      swap1\n      dup2\n      add\n      0x40\n      mstore\n      dup1\n      swap3\n      swap2\n      swap1\n      dup2\n      dup2\n      mstore\n      0x20\n      add\n      0x00\n      swap1\n    tag_335:\n      dup3\n      dup3\n      lt\n      iszero\n      tag_336\n      jumpi\n      0x00\n      dup5\n      dup2\n      mstore\n      0x20\n      swap1\n      dup2\n      swap1\n      keccak256\n      0x40\n      dup1\n      mload\n      0xc0\n      dup2\n      add\n      dup3\n      mstore\n      0x04\n      dup7\n      mul\n      swap1\n      swap3\n      add\n      dup1\n      sload\n      dup4\n      mstore\n      0x01\n      dup1\n      dup3\n      add\n      sload\n      dup5\n      dup7\n      add\n      mstore\n      0x02\n      dup3\n      add\n      sload\n      swap3\n      dup5\n      add\n      swap3\n      swap1\n      swap3\n      mstore\n      0x03\n      add\n      sload\n      sub(shl(0xa0, 0x01), 0x01)\n      dup2\n      and\n      0x60\n      dup5\n      add\n      mstore\n      0xff\n      shl(0xa0, 0x01)\n      dup3\n      div\n      dup2\n      and\n      iszero\n      iszero\n      0x80\n      dup6\n      add\n      mstore\n      shl(0xa8, 0x01)\n      swap1\n      swap2\n      div\n      and\n      iszero\n      iszero\n      0xa0\n      dup4\n      add\n      mstore\n      swap1\n      dup4\n      mstore\n      swap1\n      swap3\n      add\n      swap2\n      add\n      jump(tag_335)\n    tag_336:\n      pop\n      pop\n      pop\n      pop\n        /* \"smart-contracts/playground/main/Canvassing.sol\":7331:7375  currentSurvey... */\n      0x60\n      dup4\n      add\n      mload\n        /* \"smart-contracts/playground/main/Canvassing.sol\":7210:7268  Answer[] memory allAnswersOfSurvey = allAnswers[_surveyId] */\n      swap1\n      swap2\n      pop\n        /* \"smart-contracts/playground/main/Canvassing.sol\":7279:7328  uint256 totalNumberOfAnswersOfParticipantOfSurvey */\n      0x00\n        /* \"smart-contracts/playground/main/Canvassing.sol\":7331:7375  currentSurvey... */\n      dup2\n      sub(shl(0x40, 0x01), 0x01)\n        /* \"smart-contracts/playground/main/Canvassing.sol\":7436:7513  new Answer[](... */\n      dup2\n      gt\n      iszero\n      tag_339\n      jumpi\n      tag_339\n      tag_260\n      jump\t// in\n    tag_339:\n      mload(0x40)\n      swap1\n      dup1\n      dup3\n      mstore\n      dup1\n      0x20\n      mul\n      0x20\n      add\n      dup3\n      add\n      0x40\n      mstore\n      dup1\n      iszero\n      tag_340\n      jumpi\n      dup2\n      0x20\n      add\n    tag_341:\n      tag_342\n      tag_343\n      jump\t// in\n    tag_342:\n      dup2\n      mstore\n      0x20\n      add\n      swap1\n      0x01\n      swap1\n      sub\n      swap1\n      dup2\n      tag_341\n      jumpi\n      swap1\n      pop\n    tag_340:\n      pop\n        /* \"smart-contracts/playground/main/Canvassing.sol\":7386:7513  Answer[] memory allAnswersOfParticipantOfSurvey = new Answer[](... */\n      swap1\n      pop\n        /* \"smart-contracts/playground/main/Canvassing.sol\":7524:7543  uint256 answerIndex */\n      0x00\n        /* \"smart-contracts/playground/main/Canvassing.sol\":7576:7592  uint256 answerId */\n      dup1\n        /* \"smart-contracts/playground/main/Canvassing.sol\":7558:8147  for (... */\n    tag_344:\n        /* \"smart-contracts/playground/main/Canvassing.sol\":7621:7639  allAnswersOfSurvey */\n      dup5\n        /* \"smart-contracts/playground/main/Canvassing.sol\":7621:7646  allAnswersOfSurvey.length */\n      mload\n        /* \"smart-contracts/playground/main/Canvassing.sol\":7610:7618  answerId */\n      dup2\n        /* \"smart-contracts/playground/main/Canvassing.sol\":7610:7646  answerId < allAnswersOfSurvey.length */\n      lt\n        /* \"smart-contracts/playground/main/Canvassing.sol\":7558:8147  for (... */\n      iszero\n      tag_345\n      jumpi\n        /* \"smart-contracts/playground/main/Canvassing.sol\":7695:7722  Answer memory runningAnswer */\n      0x00\n        /* \"smart-contracts/playground/main/Canvassing.sol\":7725:7743  allAnswersOfSurvey */\n      dup6\n        /* \"smart-contracts/playground/main/Canvassing.sol\":7744:7752  answerId */\n      dup3\n        /* \"smart-contracts/playground/main/Canvassing.sol\":7725:7753  allAnswersOfSurvey[answerId] */\n      dup2\n      mload\n      dup2\n      lt\n      tag_348\n      jumpi\n      tag_348\n      tag_270\n      jump\t// in\n    tag_348:\n      0x20\n      mul\n      0x20\n      add\n      add\n      mload\n        /* \"smart-contracts/playground/main/Canvassing.sol\":7695:7753  Answer memory runningAnswer = allAnswersOfSurvey[answerId] */\n      swap1\n      pop\n        /* \"smart-contracts/playground/main/Canvassing.sol\":7847:7872  _participantWalletAddress */\n      dup9\n      sub(shl(0xa0, 0x01), 0x01)\n        /* \"smart-contracts/playground/main/Canvassing.sol\":7789:7872  runningAnswer.participantWalletAddress ==... */\n      and\n        /* \"smart-contracts/playground/main/Canvassing.sol\":7789:7802  runningAnswer */\n      dup2\n        /* \"smart-contracts/playground/main/Canvassing.sol\":7789:7827  runningAnswer.participantWalletAddress */\n      0x60\n      add\n      mload\n      sub(shl(0xa0, 0x01), 0x01)\n        /* \"smart-contracts/playground/main/Canvassing.sol\":7789:7872  runningAnswer.participantWalletAddress ==... */\n      and\n      sub\n        /* \"smart-contracts/playground/main/Canvassing.sol\":7768:8137  if (... */\n      tag_353\n      jumpi\n        /* \"smart-contracts/playground/main/Canvassing.sol\":7952:7965  runningAnswer */\n      dup1\n        /* \"smart-contracts/playground/main/Canvassing.sol\":7905:7936  allAnswersOfParticipantOfSurvey */\n      dup5\n        /* \"smart-contracts/playground/main/Canvassing.sol\":7937:7948  answerIndex */\n      dup5\n        /* \"smart-contracts/playground/main/Canvassing.sol\":7905:7949  allAnswersOfParticipantOfSurvey[answerIndex] */\n      dup2\n      mload\n      dup2\n      lt\n      tag_351\n      jumpi\n      tag_351\n      tag_270\n      jump\t// in\n    tag_351:\n      0x20\n      mul\n      0x20\n      add\n      add\n        /* \"smart-contracts/playground/main/Canvassing.sol\":7905:7965  allAnswersOfParticipantOfSurvey[answerIndex] = runningAnswer */\n      dup2\n      swap1\n      mstore\n      pop\n        /* \"smart-contracts/playground/main/Canvassing.sol\":7983:7996  answerIndex++ */\n      dup3\n      dup1\n      tag_352\n      swap1\n      tag_281\n      jump\t// in\n    tag_352:\n      swap4\n      pop\n      pop\n        /* \"smart-contracts/playground/main/Canvassing.sol\":8034:8075  totalNumberOfAnswersOfParticipantOfSurvey */\n      dup5\n        /* \"smart-contracts/playground/main/Canvassing.sol\":8019:8030  answerIndex */\n      dup4\n        /* \"smart-contracts/playground/main/Canvassing.sol\":8019:8075  answerIndex == totalNumberOfAnswersOfParticipantOfSurvey */\n      sub\n        /* \"smart-contracts/playground/main/Canvassing.sol\":8015:8123  if (answerIndex == totalNumberOfAnswersOfParticipantOfSurvey) {... */\n      tag_353\n      jumpi\n        /* \"smart-contracts/playground/main/Canvassing.sol\":8099:8104  break */\n      pop\n      jump(tag_345)\n        /* \"smart-contracts/playground/main/Canvassing.sol\":8015:8123  if (answerIndex == totalNumberOfAnswersOfParticipantOfSurvey) {... */\n    tag_353:\n      pop\n        /* \"smart-contracts/playground/main/Canvassing.sol\":7660:7670  answerId++ */\n      dup1\n      tag_354\n      dup2\n      tag_281\n      jump\t// in\n    tag_354:\n      swap2\n      pop\n      pop\n        /* \"smart-contracts/playground/main/Canvassing.sol\":7558:8147  for (... */\n      jump(tag_344)\n    tag_345:\n      pop\n        /* \"smart-contracts/playground/main/Canvassing.sol\":8163:8194  allAnswersOfParticipantOfSurvey */\n      swap1\n      swap8\n        /* \"smart-contracts/playground/main/Canvassing.sol\":6981:8201  function getAllAnswersOfParticipantOfSurvey(... */\n      swap7\n      pop\n      pop\n      pop\n      pop\n      pop\n      pop\n      pop\n      jump\t// out\n        /* \"smart-contracts/playground/main/Canvassing.sol\":2259:2446  function getParticipantByWalletAddress(address _walletAddress)... */\n    tag_95:\n        /* \"smart-contracts/playground/main/Canvassing.sol\":2367:2385  Participant memory */\n      tag_355\n      tag_356\n      jump\t// in\n    tag_355:\n      sub(shl(0xa0, 0x01), 0x01)\n        /* \"smart-contracts/playground/main/Canvassing.sol\":2408:2439  allParticipants[_walletAddress] */\n      dup1\n      dup4\n      and\n      0x00\n      swap1\n      dup2\n      mstore\n        /* \"smart-contracts/playground/main/Canvassing.sol\":2408:2423  allParticipants */\n      0x02\n        /* \"smart-contracts/playground/main/Canvassing.sol\":2408:2439  allParticipants[_walletAddress] */\n      0x20\n      dup2\n      dup2\n      mstore\n      0x40\n      swap3\n      dup4\n      swap1\n      keccak256\n        /* \"smart-contracts/playground/main/Canvassing.sol\":2401:2439  return allParticipants[_walletAddress] */\n      dup4\n      mload\n      0x0100\n      dup2\n      add\n      dup6\n      mstore\n      dup2\n      sload\n      dup2\n      mstore\n      0x01\n      dup3\n      add\n      sload\n      swap1\n      swap6\n      and\n      swap2\n      dup6\n      add\n      swap2\n      swap1\n      swap2\n      mstore\n      swap1\n      dup2\n      add\n      dup1\n      sload\n        /* \"smart-contracts/playground/main/Canvassing.sol\":2408:2439  allParticipants[_walletAddress] */\n      swap2\n      swap3\n        /* \"smart-contracts/playground/main/Canvassing.sol\":2401:2439  return allParticipants[_walletAddress] */\n      dup5\n      add\n      swap2\n      tag_358\n      swap1\n      tag_252\n      jump\t// in\n    tag_358:\n      dup1\n      0x1f\n      add\n      0x20\n      dup1\n      swap2\n      div\n      mul\n      0x20\n      add\n      mload(0x40)\n      swap1\n      dup2\n      add\n      0x40\n      mstore\n      dup1\n      swap3\n      swap2\n      swap1\n      dup2\n      dup2\n      mstore\n      0x20\n      add\n      dup3\n      dup1\n      sload\n      tag_359\n      swap1\n      tag_252\n      jump\t// in\n    tag_359:\n      dup1\n      iszero\n      tag_360\n      jumpi\n      dup1\n      0x1f\n      lt\n      tag_361\n      jumpi\n      0x0100\n      dup1\n      dup4\n      sload\n      div\n      mul\n      dup4\n      mstore\n      swap2\n      0x20\n      add\n      swap2\n      jump(tag_360)\n    tag_361:\n      dup3\n      add\n      swap2\n      swap1\n      0x00\n      mstore\n      keccak256(0x00, 0x20)\n      swap1\n    tag_362:\n      dup2\n      sload\n      dup2\n      mstore\n      swap1\n      0x01\n      add\n      swap1\n      0x20\n      add\n      dup1\n      dup4\n      gt\n      tag_362\n      jumpi\n      dup3\n      swap1\n      sub\n      0x1f\n      and\n      dup3\n      add\n      swap2\n    tag_360:\n      pop\n      pop\n      pop\n      pop\n      pop\n      dup2\n      mstore\n      0x20\n      add\n      0x03\n      dup3\n      add\n      dup1\n      sload\n      tag_363\n      swap1\n      tag_252\n      jump\t// in\n    tag_363:\n      dup1\n      0x1f\n      add\n      0x20\n      dup1\n      swap2\n      div\n      mul\n      0x20\n      add\n      mload(0x40)\n      swap1\n      dup2\n      add\n      0x40\n      mstore\n      dup1\n      swap3\n      swap2\n      swap1\n      dup2\n      dup2\n      mstore\n      0x20\n      add\n      dup3\n      dup1\n      sload\n      tag_364\n      swap1\n      tag_252\n      jump\t// in\n    tag_364:\n      dup1\n      iszero\n      tag_365\n      jumpi\n      dup1\n      0x1f\n      lt\n      tag_366\n      jumpi\n      0x0100\n      dup1\n      dup4\n      sload\n      div\n      mul\n      dup4\n      mstore\n      swap2\n      0x20\n      add\n      swap2\n      jump(tag_365)\n    tag_366:\n      dup3\n      add\n      swap2\n      swap1\n      0x00\n      mstore\n      keccak256(0x00, 0x20)\n      swap1\n    tag_367:\n      dup2\n      sload\n      dup2\n      mstore\n      swap1\n      0x01\n      add\n      swap1\n      0x20\n      add\n      dup1\n      dup4\n      gt\n      tag_367\n      jumpi\n      dup3\n      swap1\n      sub\n      0x1f\n      and\n      dup3\n      add\n      swap2\n    tag_365:\n      pop\n      pop\n      pop\n      swap2\n      dup4\n      mstore\n      pop\n      pop\n      0x04\n      dup3\n      add\n      sload\n      0x20\n      dup3\n      add\n      mstore\n      0x05\n      dup3\n      add\n      sload\n      0x40\n      dup3\n      add\n      mstore\n      0x06\n      swap1\n      swap2\n      add\n      sload\n      0xff\n      dup1\n      dup3\n      and\n      iszero\n      iszero\n      0x60\n      dup5\n      add\n      mstore\n      0x0100\n      swap1\n      swap2\n      div\n      and\n      iszero\n      iszero\n      0x80\n      swap1\n      swap2\n      add\n      mstore\n      swap3\n        /* \"smart-contracts/playground/main/Canvassing.sol\":2259:2446  function getParticipantByWalletAddress(address _walletAddress)... */\n      swap2\n      pop\n      pop\n      jump\t// out\n        /* \"smart-contracts/playground/main/Canvassing.sol\":5874:6802  function getTotalAmountOfEarningsReceivedByParticipantInWei(... */\n    tag_100:\n      sub(shl(0xa0, 0x01), 0x01)\n        /* \"smart-contracts/playground/main/Canvassing.sol\":6061:6114  allParticipants[... */\n      dup2\n      and\n        /* \"smart-contracts/playground/main/Canvassing.sol\":5993:6000  uint256 */\n      0x00\n        /* \"smart-contracts/playground/main/Canvassing.sol\":6061:6114  allParticipants[... */\n      swap1\n      dup2\n      mstore\n        /* \"smart-contracts/playground/main/Canvassing.sol\":6061:6076  allParticipants */\n      0x02\n        /* \"smart-contracts/playground/main/Canvassing.sol\":6061:6114  allParticipants[... */\n      0x20\n      mstore\n      0x40\n      dup2\n      keccak256\n        /* \"smart-contracts/playground/main/Canvassing.sol\":6061:6140  allParticipants[... */\n      0x05\n      add\n      sload\n        /* \"smart-contracts/playground/main/Canvassing.sol\":5993:6000  uint256 */\n      dup2\n        /* \"smart-contracts/playground/main/Canvassing.sol\":6061:6140  allParticipants[... */\n      dup2\n      sub(shl(0x40, 0x01), 0x01)\n        /* \"smart-contracts/playground/main/Canvassing.sol\":6199:6274  new Earning[](... */\n      dup2\n      gt\n      iszero\n      tag_370\n      jumpi\n      tag_370\n      tag_260\n      jump\t// in\n    tag_370:\n      mload(0x40)\n      swap1\n      dup1\n      dup3\n      mstore\n      dup1\n      0x20\n      mul\n      0x20\n      add\n      dup3\n      add\n      0x40\n      mstore\n      dup1\n      iszero\n      tag_371\n      jumpi\n      dup2\n      0x20\n      add\n    tag_372:\n      tag_373\n      tag_374\n      jump\t// in\n    tag_373:\n      dup2\n      mstore\n      0x20\n      add\n      swap1\n      0x01\n      swap1\n      sub\n      swap1\n      dup2\n      tag_372\n      jumpi\n      swap1\n      pop\n    tag_371:\n      pop\n        /* \"smart-contracts/playground/main/Canvassing.sol\":6151:6274  Earning[] memory allEarningsMadeByParticipant = new Earning[](... */\n      swap1\n      pop\n        /* \"smart-contracts/playground/main/Canvassing.sol\":6285:6340  uint256 totalAmountOfEarningsReceivedByParticipantInWei */\n      0x00\n        /* \"smart-contracts/playground/main/Canvassing.sol\":6373:6390  uint256 earningId */\n      dup1\n        /* \"smart-contracts/playground/main/Canvassing.sol\":6355:6732  for (... */\n    tag_375:\n        /* \"smart-contracts/playground/main/Canvassing.sol\":6420:6448  allEarningsMadeByParticipant */\n      dup3\n        /* \"smart-contracts/playground/main/Canvassing.sol\":6420:6455  allEarningsMadeByParticipant.length */\n      mload\n        /* \"smart-contracts/playground/main/Canvassing.sol\":6408:6417  earningId */\n      dup2\n        /* \"smart-contracts/playground/main/Canvassing.sol\":6408:6455  earningId < allEarningsMadeByParticipant.length */\n      lt\n        /* \"smart-contracts/playground/main/Canvassing.sol\":6355:6732  for (... */\n      iszero\n      tag_376\n      jumpi\n        /* \"smart-contracts/playground/main/Canvassing.sol\":6505:6534  Earning memory runningEarning */\n      0x00\n        /* \"smart-contracts/playground/main/Canvassing.sol\":6537:6565  allEarningsMadeByParticipant */\n      dup4\n        /* \"smart-contracts/playground/main/Canvassing.sol\":6583:6592  earningId */\n      dup3\n        /* \"smart-contracts/playground/main/Canvassing.sol\":6537:6606  allEarningsMadeByParticipant[... */\n      dup2\n      mload\n      dup2\n      lt\n      tag_379\n      jumpi\n      tag_379\n      tag_270\n      jump\t// in\n    tag_379:\n      0x20\n      mul\n      0x20\n      add\n      add\n      mload\n        /* \"smart-contracts/playground/main/Canvassing.sol\":6505:6606  Earning memory runningEarning = allEarningsMadeByParticipant[... */\n      swap1\n      pop\n        /* \"smart-contracts/playground/main/Canvassing.sol\":6671:6685  runningEarning */\n      dup1\n        /* \"smart-contracts/playground/main/Canvassing.sol\":6671:6721  runningEarning... */\n      0x60\n      add\n      mload\n        /* \"smart-contracts/playground/main/Canvassing.sol\":6620:6721  totalAmountOfEarningsReceivedByParticipantInWei += runningEarning... */\n      dup4\n      tag_380\n      swap2\n      swap1\n      tag_238\n      jump\t// in\n    tag_380:\n      swap3\n      pop\n        /* \"smart-contracts/playground/main/Canvassing.sol\":6491:6732  {... */\n      pop\n        /* \"smart-contracts/playground/main/Canvassing.sol\":6469:6480  earningId++ */\n      dup1\n      dup1\n      tag_381\n      swap1\n      tag_281\n      jump\t// in\n    tag_381:\n      swap2\n      pop\n      pop\n        /* \"smart-contracts/playground/main/Canvassing.sol\":6355:6732  for (... */\n      jump(tag_375)\n    tag_376:\n      pop\n        /* \"smart-contracts/playground/main/Canvassing.sol\":6748:6795  totalAmountOfEarningsReceivedByParticipantInWei */\n      swap5\n        /* \"smart-contracts/playground/main/Canvassing.sol\":5874:6802  function getTotalAmountOfEarningsReceivedByParticipantInWei(... */\n      swap4\n      pop\n      pop\n      pop\n      pop\n      jump\t// out\n        /* \"smart-contracts/playground/main/Canvassing.sol\":3738:4760  function getAllEarningsMadeByParticipant(address _walletAddress)... */\n    tag_108:\n      sub(shl(0xa0, 0x01), 0x01)\n        /* \"smart-contracts/playground/main/Canvassing.sol\":3929:3982  allParticipants[... */\n      dup2\n      and\n        /* \"smart-contracts/playground/main/Canvassing.sol\":3880:3926  uint256 totalNumberOfSurveysTakenByParticipant */\n      0x00\n        /* \"smart-contracts/playground/main/Canvassing.sol\":3929:3982  allParticipants[... */\n      swap1\n      dup2\n      mstore\n        /* \"smart-contracts/playground/main/Canvassing.sol\":3929:3944  allParticipants */\n      0x02\n        /* \"smart-contracts/playground/main/Canvassing.sol\":3929:3982  allParticipants[... */\n      0x20\n      mstore\n      0x40\n      dup2\n      keccak256\n        /* \"smart-contracts/playground/main/Canvassing.sol\":3929:4008  allParticipants[... */\n      0x05\n      add\n      sload\n        /* \"smart-contracts/playground/main/Canvassing.sol\":3848:3864  Earning[] memory */\n      0x60\n      swap2\n        /* \"smart-contracts/playground/main/Canvassing.sol\":3929:4008  allParticipants[... */\n      dup2\n      sub(shl(0x40, 0x01), 0x01)\n        /* \"smart-contracts/playground/main/Canvassing.sol\":4067:4142  new Earning[](... */\n      dup2\n      gt\n      iszero\n      tag_385\n      jumpi\n      tag_385\n      tag_260\n      jump\t// in\n    tag_385:\n      mload(0x40)\n      swap1\n      dup1\n      dup3\n      mstore\n      dup1\n      0x20\n      mul\n      0x20\n      add\n      dup3\n      add\n      0x40\n      mstore\n      dup1\n      iszero\n      tag_386\n      jumpi\n      dup2\n      0x20\n      add\n    tag_387:\n      tag_388\n      tag_374\n      jump\t// in\n    tag_388:\n      dup2\n      mstore\n      0x20\n      add\n      swap1\n      0x01\n      swap1\n      sub\n      swap1\n      dup2\n      tag_387\n      jumpi\n      swap1\n      pop\n    tag_386:\n      pop\n        /* \"smart-contracts/playground/main/Canvassing.sol\":4019:4142  Earning[] memory allEarningsMadeByParticipant = new Earning[](... */\n      swap1\n      pop\n        /* \"smart-contracts/playground/main/Canvassing.sol\":4152:4172  uint256 earningIndex */\n      0x00\n        /* \"smart-contracts/playground/main/Canvassing.sol\":4205:4222  uint256 earningId */\n      dup1\n        /* \"smart-contracts/playground/main/Canvassing.sol\":4187:4708  for (... */\n    tag_389:\n        /* \"smart-contracts/playground/main/Canvassing.sol\":4252:4263  allEarnings */\n      0x0d\n        /* \"smart-contracts/playground/main/Canvassing.sol\":4252:4270  allEarnings.length */\n      sload\n        /* \"smart-contracts/playground/main/Canvassing.sol\":4240:4270  earningId < allEarnings.length */\n      dup2\n      lt\n        /* \"smart-contracts/playground/main/Canvassing.sol\":4187:4708  for (... */\n      iszero\n      tag_266\n      jumpi\n        /* \"smart-contracts/playground/main/Canvassing.sol\":4320:4349  Earning memory runningEarning */\n      0x00\n        /* \"smart-contracts/playground/main/Canvassing.sol\":4352:4363  allEarnings */\n      0x0d\n        /* \"smart-contracts/playground/main/Canvassing.sol\":4364:4373  earningId */\n      dup3\n        /* \"smart-contracts/playground/main/Canvassing.sol\":4352:4374  allEarnings[earningId] */\n      dup2\n      sload\n      dup2\n      lt\n      tag_393\n      jumpi\n      tag_393\n      tag_270\n      jump\t// in\n    tag_393:\n      0x00\n      swap2\n      dup3\n      mstore\n      0x20\n      swap2\n      dup3\n      swap1\n      keccak256\n        /* \"smart-contracts/playground/main/Canvassing.sol\":4320:4374  Earning memory runningEarning = allEarnings[earningId] */\n      0x40\n      dup1\n      mload\n      0xa0\n      dup2\n      add\n      dup3\n      mstore\n        /* \"smart-contracts/playground/main/Canvassing.sol\":4352:4374  allEarnings[earningId] */\n      0x05\n      swap1\n      swap4\n      mul\n      swap1\n      swap2\n      add\n        /* \"smart-contracts/playground/main/Canvassing.sol\":4320:4374  Earning memory runningEarning = allEarnings[earningId] */\n      dup1\n      sload\n      dup4\n      mstore\n      0x01\n      dup2\n      add\n      sload\n      swap4\n      dup4\n      add\n      swap4\n      swap1\n      swap4\n      mstore\n      0x02\n      dup4\n      add\n      sload\n      sub(shl(0xa0, 0x01), 0x01)\n      swap1\n      dup2\n      and\n      swap2\n      dup4\n      add\n      dup3\n      swap1\n      mstore\n      0x03\n      dup5\n      add\n      sload\n      0x60\n      dup5\n      add\n      mstore\n      0x04\n      swap1\n      swap4\n      add\n      sload\n      0xff\n      and\n      iszero\n      iszero\n      0x80\n      dup4\n      add\n      mstore\n      swap1\n      swap3\n      pop\n        /* \"smart-contracts/playground/main/Canvassing.sol\":4393:4448  runningEarning.recipientWalletAddress == _walletAddress */\n      swap1\n      dup9\n      and\n      swap1\n      sub\n        /* \"smart-contracts/playground/main/Canvassing.sol\":4389:4698  if (runningEarning.recipientWalletAddress == _walletAddress) {... */\n      tag_399\n      jumpi\n        /* \"smart-contracts/playground/main/Canvassing.sol\":4513:4527  runningEarning */\n      dup1\n        /* \"smart-contracts/playground/main/Canvassing.sol\":4468:4496  allEarningsMadeByParticipant */\n      dup5\n        /* \"smart-contracts/playground/main/Canvassing.sol\":4497:4509  earningIndex */\n      dup5\n        /* \"smart-contracts/playground/main/Canvassing.sol\":4468:4510  allEarningsMadeByParticipant[earningIndex] */\n      dup2\n      mload\n      dup2\n      lt\n      tag_397\n      jumpi\n      tag_397\n      tag_270\n      jump\t// in\n    tag_397:\n      0x20\n      mul\n      0x20\n      add\n      add\n        /* \"smart-contracts/playground/main/Canvassing.sol\":4468:4527  allEarningsMadeByParticipant[earningIndex] = runningEarning */\n      dup2\n      swap1\n      mstore\n      pop\n        /* \"smart-contracts/playground/main/Canvassing.sol\":4545:4559  earningIndex++ */\n      dup3\n      dup1\n      tag_398\n      swap1\n      tag_281\n      jump\t// in\n    tag_398:\n      swap4\n      pop\n      pop\n        /* \"smart-contracts/playground/main/Canvassing.sol\":4598:4636  totalNumberOfSurveysTakenByParticipant */\n      dup5\n        /* \"smart-contracts/playground/main/Canvassing.sol\":4582:4594  earningIndex */\n      dup4\n        /* \"smart-contracts/playground/main/Canvassing.sol\":4582:4636  earningIndex == totalNumberOfSurveysTakenByParticipant */\n      sub\n        /* \"smart-contracts/playground/main/Canvassing.sol\":4578:4684  if (earningIndex == totalNumberOfSurveysTakenByParticipant) {... */\n      tag_399\n      jumpi\n        /* \"smart-contracts/playground/main/Canvassing.sol\":4660:4665  break */\n      pop\n      jump(tag_266)\n        /* \"smart-contracts/playground/main/Canvassing.sol\":4578:4684  if (earningIndex == totalNumberOfSurveysTakenByParticipant) {... */\n    tag_399:\n      pop\n        /* \"smart-contracts/playground/main/Canvassing.sol\":4284:4295  earningId++ */\n      dup1\n      tag_400\n      dup2\n      tag_281\n      jump\t// in\n    tag_400:\n      swap2\n      pop\n      pop\n        /* \"smart-contracts/playground/main/Canvassing.sol\":4187:4708  for (... */\n      jump(tag_389)\n        /* \"smart-contracts/playground/main/Canvassing.sol\":4766:5868  function getAllSurveysTakenByParticipant(address _walletAddress)... */\n    tag_113:\n        /* \"smart-contracts/playground/main/Canvassing.sol\":4876:4891  Survey[] memory */\n      0x60\n        /* \"smart-contracts/playground/main/Canvassing.sol\":5000:5057  Earning[]... */\n      0x00\n        /* \"smart-contracts/playground/main/Canvassing.sol\":5060:5137  getAllEarningsMadeByParticipant(... */\n      tag_402\n        /* \"smart-contracts/playground/main/Canvassing.sol\":5109:5123  _walletAddress */\n      dup4\n        /* \"smart-contracts/playground/main/Canvassing.sol\":5060:5091  getAllEarningsMadeByParticipant */\n      tag_108\n        /* \"smart-contracts/playground/main/Canvassing.sol\":5060:5137  getAllEarningsMadeByParticipant(... */\n      jump\t// in\n    tag_402:\n        /* \"smart-contracts/playground/main/Canvassing.sol\":5000:5137  Earning[]... */\n      swap1\n      pop\n        /* \"smart-contracts/playground/main/Canvassing.sol\":5148:5192  Survey[] memory allSurveysTakenByParticipant */\n      0x00\n        /* \"smart-contracts/playground/main/Canvassing.sol\":5221:5249  allEarningsMadeByParticipant */\n      dup2\n        /* \"smart-contracts/playground/main/Canvassing.sol\":5221:5256  allEarningsMadeByParticipant.length */\n      mload\n      sub(shl(0x40, 0x01), 0x01)\n        /* \"smart-contracts/playground/main/Canvassing.sol\":5195:5266  new Survey[](... */\n      dup2\n      gt\n      iszero\n      tag_404\n      jumpi\n      tag_404\n      tag_260\n      jump\t// in\n    tag_404:\n      mload(0x40)\n      swap1\n      dup1\n      dup3\n      mstore\n      dup1\n      0x20\n      mul\n      0x20\n      add\n      dup3\n      add\n      0x40\n      mstore\n      dup1\n      iszero\n      tag_405\n      jumpi\n      dup2\n      0x20\n      add\n    tag_406:\n      tag_407\n      tag_264\n      jump\t// in\n    tag_407:\n      dup2\n      mstore\n      0x20\n      add\n      swap1\n      0x01\n      swap1\n      sub\n      swap1\n      dup2\n      tag_406\n      jumpi\n      swap1\n      pop\n    tag_405:\n      pop\n        /* \"smart-contracts/playground/main/Canvassing.sol\":5148:5266  Survey[] memory allSurveysTakenByParticipant = new Survey[](... */\n      swap1\n      pop\n        /* \"smart-contracts/playground/main/Canvassing.sol\":5276:5295  uint256 surveyIndex */\n      0x00\n        /* \"smart-contracts/playground/main/Canvassing.sol\":5421:5438  uint256 earningId */\n      dup1\n        /* \"smart-contracts/playground/main/Canvassing.sol\":5403:5816  for (... */\n    tag_408:\n        /* \"smart-contracts/playground/main/Canvassing.sol\":5468:5496  allEarningsMadeByParticipant */\n      dup4\n        /* \"smart-contracts/playground/main/Canvassing.sol\":5468:5503  allEarningsMadeByParticipant.length */\n      mload\n        /* \"smart-contracts/playground/main/Canvassing.sol\":5456:5465  earningId */\n      dup2\n        /* \"smart-contracts/playground/main/Canvassing.sol\":5456:5503  earningId < allEarningsMadeByParticipant.length */\n      lt\n        /* \"smart-contracts/playground/main/Canvassing.sol\":5403:5816  for (... */\n      iszero\n      tag_266\n      jumpi\n        /* \"smart-contracts/playground/main/Canvassing.sol\":5553:5582  Earning memory runningEarning */\n      0x00\n        /* \"smart-contracts/playground/main/Canvassing.sol\":5585:5613  allEarningsMadeByParticipant */\n      dup5\n        /* \"smart-contracts/playground/main/Canvassing.sol\":5631:5640  earningId */\n      dup3\n        /* \"smart-contracts/playground/main/Canvassing.sol\":5585:5654  allEarningsMadeByParticipant[... */\n      dup2\n      mload\n      dup2\n      lt\n      tag_412\n      jumpi\n      tag_412\n      tag_270\n      jump\t// in\n    tag_412:\n      0x20\n      mul\n      0x20\n      add\n      add\n      mload\n        /* \"smart-contracts/playground/main/Canvassing.sol\":5553:5654  Earning memory runningEarning = allEarningsMadeByParticipant[... */\n      swap1\n      pop\n        /* \"smart-contracts/playground/main/Canvassing.sol\":5713:5723  allSurveys */\n      0x03\n        /* \"smart-contracts/playground/main/Canvassing.sol\":5741:5755  runningEarning */\n      dup2\n        /* \"smart-contracts/playground/main/Canvassing.sol\":5741:5764  runningEarning.surveyId */\n      0x20\n      add\n      mload\n        /* \"smart-contracts/playground/main/Canvassing.sol\":5713:5778  allSurveys[... */\n      dup2\n      sload\n      dup2\n      lt\n      tag_414\n      jumpi\n      tag_414\n      tag_270\n      jump\t// in\n    tag_414:\n      swap1\n      0x00\n      mstore\n      keccak256(0x00, 0x20)\n      swap1\n      0x07\n      mul\n      add\n        /* \"smart-contracts/playground/main/Canvassing.sol\":5669:5778  allSurveysTakenByParticipant[surveyIndex] = allSurveys[... */\n      mload(0x40)\n      dup1\n      0xe0\n      add\n      0x40\n      mstore\n      swap1\n      dup2\n      0x00\n      dup3\n      add\n      sload\n      dup2\n      mstore\n      0x20\n      add\n      0x01\n      dup3\n      add\n      0x00\n      swap1\n      sload\n      swap1\n      0x0100\n      exp\n      swap1\n      div\n      sub(shl(0xa0, 0x01), 0x01)\n      and\n      sub(shl(0xa0, 0x01), 0x01)\n      and\n      sub(shl(0xa0, 0x01), 0x01)\n      and\n      dup2\n      mstore\n      0x20\n      add\n      0x02\n      dup3\n      add\n      dup1\n      sload\n      tag_416\n      swap1\n      tag_252\n      jump\t// in\n    tag_416:\n      dup1\n      0x1f\n      add\n      0x20\n      dup1\n      swap2\n      div\n      mul\n      0x20\n      add\n      mload(0x40)\n      swap1\n      dup2\n      add\n      0x40\n      mstore\n      dup1\n      swap3\n      swap2\n      swap1\n      dup2\n      dup2\n      mstore\n      0x20\n      add\n      dup3\n      dup1\n      sload\n      tag_417\n      swap1\n      tag_252\n      jump\t// in\n    tag_417:\n      dup1\n      iszero\n      tag_418\n      jumpi\n      dup1\n      0x1f\n      lt\n      tag_419\n      jumpi\n      0x0100\n      dup1\n      dup4\n      sload\n      div\n      mul\n      dup4\n      mstore\n      swap2\n      0x20\n      add\n      swap2\n      jump(tag_418)\n    tag_419:\n      dup3\n      add\n      swap2\n      swap1\n      0x00\n      mstore\n      keccak256(0x00, 0x20)\n      swap1\n    tag_420:\n      dup2\n      sload\n      dup2\n      mstore\n      swap1\n      0x01\n      add\n      swap1\n      0x20\n      add\n      dup1\n      dup4\n      gt\n      tag_420\n      jumpi\n      dup3\n      swap1\n      sub\n      0x1f\n      and\n      dup3\n      add\n      swap2\n    tag_418:\n      pop\n      pop\n      pop\n      swap2\n      dup4\n      mstore\n      pop\n      pop\n      0x03\n      dup3\n      add\n      sload\n      0x20\n      dup3\n      add\n      mstore\n      0x04\n      dup3\n      add\n      sload\n      0x40\n      dup3\n      add\n      mstore\n      0x05\n      dup3\n      add\n      sload\n      0x60\n      dup3\n      add\n      mstore\n      0x06\n      swap1\n      swap2\n      add\n      sload\n      0xff\n      and\n      iszero\n      iszero\n      0x80\n      swap1\n      swap2\n      add\n      mstore\n        /* \"smart-contracts/playground/main/Canvassing.sol\":5669:5710  allSurveysTakenByParticipant[surveyIndex] */\n      dup5\n      mload\n        /* \"smart-contracts/playground/main/Canvassing.sol\":5669:5697  allSurveysTakenByParticipant */\n      dup6\n      swap1\n        /* \"smart-contracts/playground/main/Canvassing.sol\":5698:5709  surveyIndex */\n      dup6\n      swap1\n        /* \"smart-contracts/playground/main/Canvassing.sol\":5669:5710  allSurveysTakenByParticipant[surveyIndex] */\n      dup2\n      lt\n      tag_422\n      jumpi\n      tag_422\n      tag_270\n      jump\t// in\n    tag_422:\n      0x20\n      mul\n      0x20\n      add\n      add\n        /* \"smart-contracts/playground/main/Canvassing.sol\":5669:5778  allSurveysTakenByParticipant[surveyIndex] = allSurveys[... */\n      dup2\n      swap1\n      mstore\n      pop\n        /* \"smart-contracts/playground/main/Canvassing.sol\":5792:5805  surveyIndex++ */\n      dup3\n      dup1\n      tag_423\n      swap1\n      tag_281\n      jump\t// in\n    tag_423:\n      swap4\n      pop\n      pop\n        /* \"smart-contracts/playground/main/Canvassing.sol\":5539:5816  {... */\n      pop\n        /* \"smart-contracts/playground/main/Canvassing.sol\":5517:5528  earningId++ */\n      dup1\n      dup1\n      tag_424\n      swap1\n      tag_281\n      jump\t// in\n    tag_424:\n      swap2\n      pop\n      pop\n        /* \"smart-contracts/playground/main/Canvassing.sol\":5403:5816  for (... */\n      jump(tag_408)\n        /* \"smart-contracts/playground/main/Canvassing.sol\":2452:3472  function createParticipant(... */\n    tag_118:\n        /* \"smart-contracts/playground/main/Canvassing.sol\":2654:2674  currentParticipantId */\n      sload(0x0f)\n        /* \"smart-contracts/playground/main/Canvassing.sol\":2685:2718  Participant memory newParticipant */\n      tag_426\n      tag_356\n      jump\t// in\n    tag_426:\n        /* \"smart-contracts/playground/main/Canvassing.sol\":2729:2765  newParticipant.id = newParticipantId */\n      dup2\n      dup2\n      mstore\n      sub(shl(0xa0, 0x01), 0x01)\n        /* \"smart-contracts/playground/main/Canvassing.sol\":2775:2820  newParticipant.walletAddress = _walletAddress */\n      dup7\n      and\n        /* \"smart-contracts/playground/main/Canvassing.sol\":2775:2803  newParticipant.walletAddress */\n      0x20\n      dup3\n      add\n        /* \"smart-contracts/playground/main/Canvassing.sol\":2775:2820  newParticipant.walletAddress = _walletAddress */\n      mstore\n        /* \"smart-contracts/playground/main/Canvassing.sol\":2830:2851  newParticipant.gender */\n      0x40\n      dup2\n      add\n        /* \"smart-contracts/playground/main/Canvassing.sol\":2830:2861  newParticipant.gender = _gender */\n      dup6\n      swap1\n      mstore\n        /* \"smart-contracts/playground/main/Canvassing.sol\":2871:2893  newParticipant.country */\n      0x60\n      dup2\n      add\n        /* \"smart-contracts/playground/main/Canvassing.sol\":2871:2904  newParticipant.country = _country */\n      dup5\n      swap1\n      mstore\n        /* \"smart-contracts/playground/main/Canvassing.sol\":2914:2940  newParticipant.yearOfBirth */\n      0x80\n      dup2\n      add\n        /* \"smart-contracts/playground/main/Canvassing.sol\":2914:2955  newParticipant.yearOfBirth = _yearOfBirth */\n      dup4\n      swap1\n      mstore\n        /* \"smart-contracts/playground/main/Canvassing.sol\":3026:3065  checkIfResearcherExists(_walletAddress) */\n      tag_427\n        /* \"smart-contracts/playground/main/Canvassing.sol\":2806:2820  _walletAddress */\n      dup7\n        /* \"smart-contracts/playground/main/Canvassing.sol\":3026:3049  checkIfResearcherExists */\n      tag_187\n        /* \"smart-contracts/playground/main/Canvassing.sol\":3026:3065  checkIfResearcherExists(_walletAddress) */\n      jump\t// in\n    tag_427:\n        /* \"smart-contracts/playground/main/Canvassing.sol\":3022:3374  if (checkIfResearcherExists(_walletAddress)) {... */\n      iszero\n      tag_428\n      jumpi\n        /* \"smart-contracts/playground/main/Canvassing.sol\":3081:3117  Researcher memory existingResearcher */\n      0x00\n        /* \"smart-contracts/playground/main/Canvassing.sol\":3120:3194  getResearcherByWalletAddress(... */\n      tag_429\n        /* \"smart-contracts/playground/main/Canvassing.sol\":3166:3180  _walletAddress */\n      dup8\n        /* \"smart-contracts/playground/main/Canvassing.sol\":3120:3148  getResearcherByWalletAddress */\n      tag_60\n        /* \"smart-contracts/playground/main/Canvassing.sol\":3120:3194  getResearcherByWalletAddress(... */\n      jump\t// in\n    tag_429:\n        /* \"smart-contracts/playground/main/Canvassing.sol\":3244:3248  true */\n      0x01\n        /* \"smart-contracts/playground/main/Canvassing.sol\":3209:3241  existingResearcher.isParticipant */\n      0x80\n      dup3\n      add\n        /* \"smart-contracts/playground/main/Canvassing.sol\":3209:3248  existingResearcher.isParticipant = true */\n      dup2\n      swap1\n      mstore\n        /* \"smart-contracts/playground/main/Canvassing.sol\":3263:3290  newParticipant.isResearcher */\n      0xc0\n      dup5\n      add\n        /* \"smart-contracts/playground/main/Canvassing.sol\":3263:3297  newParticipant.isResearcher = true */\n      dup2\n      swap1\n      mstore\n      sub(shl(0xa0, 0x01), 0x01)\n        /* \"smart-contracts/playground/main/Canvassing.sol\":3312:3342  allResearchers[_walletAddress] */\n      dup10\n      dup2\n      and\n        /* \"smart-contracts/playground/main/Canvassing.sol\":3209:3248  existingResearcher.isParticipant = true */\n      0x00\n        /* \"smart-contracts/playground/main/Canvassing.sol\":3312:3342  allResearchers[_walletAddress] */\n      swap1\n      dup2\n      mstore\n      0x20\n      dup4\n      dup2\n      mstore\n      0x40\n      swap2\n      dup3\n      swap1\n      keccak256\n        /* \"smart-contracts/playground/main/Canvassing.sol\":3312:3363  allResearchers[_walletAddress] = existingResearcher */\n      dup6\n      mload\n      dup2\n      sstore\n      swap1\n      dup6\n      add\n      mload\n      swap4\n      dup2\n      add\n      dup1\n      sload\n      not(sub(shl(0xa0, 0x01), 0x01))\n      and\n      swap5\n      swap1\n      swap4\n      and\n      swap4\n      swap1\n      swap4\n      or\n      swap1\n      swap2\n      sstore\n      dup3\n      add\n      mload\n        /* \"smart-contracts/playground/main/Canvassing.sol\":3209:3241  existingResearcher.isParticipant */\n      swap2\n      swap3\n      pop\n      dup3\n      swap2\n        /* \"smart-contracts/playground/main/Canvassing.sol\":3312:3363  allResearchers[_walletAddress] = existingResearcher */\n      0x02\n      dup3\n      add\n      swap1\n      tag_430\n      swap1\n      dup3\n      tag_302\n      jump\t// in\n    tag_430:\n      pop\n      0x60\n      dup3\n      add\n      mload\n      0x03\n      dup3\n      add\n      sstore\n      0x80\n      dup3\n      add\n      mload\n      0x04\n      swap1\n      swap2\n      add\n      dup1\n      sload\n      0xa0\n      dup5\n      add\n      mload\n      0xc0\n      swap1\n      swap5\n      add\n      mload\n      iszero\n      iszero\n      0x010000\n      mul\n      not(0xff0000)\n      swap5\n      iszero\n      iszero\n      0x0100\n      mul\n      not(0xff00)\n      swap5\n      iszero\n      iszero\n      swap5\n      swap1\n      swap5\n      and\n      not(0xffff)\n      swap1\n      swap3\n      and\n      swap2\n      swap1\n      swap2\n      or\n      swap3\n      swap1\n      swap3\n      or\n      swap3\n      swap1\n      swap3\n      and\n      or\n      swap1\n      sstore\n      pop\n        /* \"smart-contracts/playground/main/Canvassing.sol\":3022:3374  if (checkIfResearcherExists(_walletAddress)) {... */\n    tag_428:\n      sub(shl(0xa0, 0x01), 0x01)\n        /* \"smart-contracts/playground/main/Canvassing.sol\":3384:3415  allParticipants[_walletAddress] */\n      dup7\n      dup2\n      and\n      0x00\n      swap1\n      dup2\n      mstore\n        /* \"smart-contracts/playground/main/Canvassing.sol\":3384:3399  allParticipants */\n      0x02\n        /* \"smart-contracts/playground/main/Canvassing.sol\":3384:3415  allParticipants[_walletAddress] */\n      0x20\n      dup2\n      dup2\n      mstore\n      0x40\n      swap3\n      dup4\n      swap1\n      keccak256\n        /* \"smart-contracts/playground/main/Canvassing.sol\":3384:3432  allParticipants[_walletAddress] = newParticipant */\n      dup6\n      mload\n      dup2\n      sstore\n      swap1\n      dup6\n      add\n      mload\n      0x01\n      dup3\n      add\n      dup1\n      sload\n      not(sub(shl(0xa0, 0x01), 0x01))\n      and\n      swap2\n      swap1\n      swap6\n      and\n      or\n      swap1\n      swap4\n      sstore\n      swap1\n      dup4\n      add\n      mload\n      dup4\n      swap3\n        /* \"smart-contracts/playground/main/Canvassing.sol\":3384:3415  allParticipants[_walletAddress] */\n      swap2\n        /* \"smart-contracts/playground/main/Canvassing.sol\":3384:3432  allParticipants[_walletAddress] = newParticipant */\n      dup3\n      add\n      swap1\n      tag_431\n      swap1\n      dup3\n      tag_302\n      jump\t// in\n    tag_431:\n      pop\n      0x60\n      dup3\n      add\n      mload\n      0x03\n      dup3\n      add\n      swap1\n      tag_432\n      swap1\n      dup3\n      tag_302\n      jump\t// in\n    tag_432:\n      pop\n      0x80\n      dup3\n      add\n      mload\n      0x04\n      dup3\n      add\n      sstore\n      0xa0\n      dup3\n      add\n      mload\n      0x05\n      dup3\n      add\n      sstore\n      0xc0\n      dup3\n      add\n      mload\n      0x06\n      swap1\n      swap2\n      add\n      dup1\n      sload\n      0xe0\n      swap1\n      swap4\n      add\n      mload\n      iszero\n      iszero\n      0x0100\n      mul\n      not(0xff00)\n      swap3\n      iszero\n      iszero\n      swap3\n      swap1\n      swap3\n      and\n      not(0xffff)\n      swap1\n      swap4\n      and\n      swap3\n      swap1\n      swap3\n      or\n      or\n      swap1\n      sstore\n        /* \"smart-contracts/playground/main/Canvassing.sol\":3443:3463  currentParticipantId */\n      0x0f\n        /* \"smart-contracts/playground/main/Canvassing.sol\":3443:3465  currentParticipantId++ */\n      dup1\n      sload\n      swap1\n      0x00\n      tag_433\n      dup4\n      tag_281\n      jump\t// in\n    tag_433:\n      swap2\n      swap1\n      pop\n      sstore\n      pop\n        /* \"smart-contracts/playground/main/Canvassing.sol\":2617:3472  {... */\n      pop\n      pop\n        /* \"smart-contracts/playground/main/Canvassing.sol\":2452:3472  function createParticipant(... */\n      pop\n      pop\n      pop\n      pop\n      jump\t// out\n        /* \"smart-contracts/playground/main/Canvassing.sol\":10118:10633  function getAmountOfEarningForCanvassingForSurveyPerParticipantInWei(... */\n    tag_125:\n        /* \"smart-contracts/playground/main/Canvassing.sol\":10280:10287  uint256 */\n      0x00\n        /* \"smart-contracts/playground/main/Canvassing.sol\":10299:10326  Survey memory currentSurvey */\n      dup1\n        /* \"smart-contracts/playground/main/Canvassing.sol\":10329:10339  allSurveys */\n      0x03\n        /* \"smart-contracts/playground/main/Canvassing.sol\":10340:10349  _surveyId */\n      dup5\n        /* \"smart-contracts/playground/main/Canvassing.sol\":10329:10350  allSurveys[_surveyId] */\n      dup2\n      sload\n      dup2\n      lt\n      tag_437\n      jumpi\n      tag_437\n      tag_270\n      jump\t// in\n    tag_437:\n      swap1\n      0x00\n      mstore\n      keccak256(0x00, 0x20)\n      swap1\n      0x07\n      mul\n      add\n        /* \"smart-contracts/playground/main/Canvassing.sol\":10299:10350  Survey memory currentSurvey = allSurveys[_surveyId] */\n      mload(0x40)\n      dup1\n      0xe0\n      add\n      0x40\n      mstore\n      swap1\n      dup2\n      0x00\n      dup3\n      add\n      sload\n      dup2\n      mstore\n      0x20\n      add\n      0x01\n      dup3\n      add\n      0x00\n      swap1\n      sload\n      swap1\n      0x0100\n      exp\n      swap1\n      div\n      sub(shl(0xa0, 0x01), 0x01)\n      and\n      sub(shl(0xa0, 0x01), 0x01)\n      and\n      sub(shl(0xa0, 0x01), 0x01)\n      and\n      dup2\n      mstore\n      0x20\n      add\n      0x02\n      dup3\n      add\n      dup1\n      sload\n      tag_439\n      swap1\n      tag_252\n      jump\t// in\n    tag_439:\n      dup1\n      0x1f\n      add\n      0x20\n      dup1\n      swap2\n      div\n      mul\n      0x20\n      add\n      mload(0x40)\n      swap1\n      dup2\n      add\n      0x40\n      mstore\n      dup1\n      swap3\n      swap2\n      swap1\n      dup2\n      dup2\n      mstore\n      0x20\n      add\n      dup3\n      dup1\n      sload\n      tag_440\n      swap1\n      tag_252\n      jump\t// in\n    tag_440:\n      dup1\n      iszero\n      tag_441\n      jumpi\n      dup1\n      0x1f\n      lt\n      tag_442\n      jumpi\n      0x0100\n      dup1\n      dup4\n      sload\n      div\n      mul\n      dup4\n      mstore\n      swap2\n      0x20\n      add\n      swap2\n      jump(tag_441)\n    tag_442:\n      dup3\n      add\n      swap2\n      swap1\n      0x00\n      mstore\n      keccak256(0x00, 0x20)\n      swap1\n    tag_443:\n      dup2\n      sload\n      dup2\n      mstore\n      swap1\n      0x01\n      add\n      swap1\n      0x20\n      add\n      dup1\n      dup4\n      gt\n      tag_443\n      jumpi\n      dup3\n      swap1\n      sub\n      0x1f\n      and\n      dup3\n      add\n      swap2\n    tag_441:\n      pop\n      pop\n      pop\n      swap2\n      dup4\n      mstore\n      pop\n      pop\n      0x03\n      dup3\n      add\n      sload\n      0x20\n      dup3\n      add\n      mstore\n      0x04\n      dup3\n      add\n      sload\n      0x40\n      dup3\n      add\n      mstore\n      0x05\n      dup1\n      dup4\n      add\n      sload\n      0x60\n      dup4\n      add\n      mstore\n      0x06\n      swap1\n      swap3\n      add\n      sload\n      0xff\n      and\n      iszero\n      iszero\n      0x80\n      swap1\n      swap2\n      add\n      mstore\n        /* \"smart-contracts/playground/main/Canvassing.sol\":10397:10428  currentSurvey.amountFundedInWei */\n      0xa0\n      dup3\n      add\n      mload\n        /* \"smart-contracts/playground/main/Canvassing.sol\":10299:10350  Survey memory currentSurvey = allSurveys[_surveyId] */\n      swap2\n      swap3\n      pop\n      0x00\n      swap1\n        /* \"smart-contracts/playground/main/Canvassing.sol\":10547:10568  _numberOfParticipants */\n      dup6\n      swap1\n        /* \"smart-contracts/playground/main/Canvassing.sol\":10541:10543  10 */\n      0x0a\n      swap1\n        /* \"smart-contracts/playground/main/Canvassing.sol\":10491:10537  amountFundedInWeiForSurvey *... */\n      tag_444\n      swap1\n        /* \"smart-contracts/playground/main/Canvassing.sol\":10397:10428  currentSurvey.amountFundedInWei */\n      dup6\n      swap1\n        /* \"smart-contracts/playground/main/Canvassing.sol\":10491:10537  amountFundedInWeiForSurvey *... */\n      tag_236\n      jump\t// in\n    tag_444:\n        /* \"smart-contracts/playground/main/Canvassing.sol\":10490:10543  (amountFundedInWeiForSurvey *... */\n      tag_445\n      swap2\n      swap1\n      tag_324\n      jump\t// in\n    tag_445:\n        /* \"smart-contracts/playground/main/Canvassing.sol\":10489:10568  ((amountFundedInWeiForSurvey *... */\n      tag_446\n      swap2\n      swap1\n      tag_324\n      jump\t// in\n    tag_446:\n        /* \"smart-contracts/playground/main/Canvassing.sol\":10438:10568  uint256 canvassingShareAmountPerParticipantInWei = ((amountFundedInWeiForSurvey *... */\n      swap7\n        /* \"smart-contracts/playground/main/Canvassing.sol\":10118:10633  function getAmountOfEarningForCanvassingForSurveyPerParticipantInWei(... */\n      swap6\n      pop\n      pop\n      pop\n      pop\n      pop\n      pop\n      jump\t// out\n        /* \"smart-contracts/playground/main/Canvassing.sol\":508:562  mapping(address => Participant) public allParticipants */\n    tag_137:\n      0x02\n      0x20\n      dup2\n      swap1\n      mstore\n      0x00\n      swap2\n      dup3\n      mstore\n      0x40\n      swap1\n      swap2\n      keccak256\n      dup1\n      sload\n      0x01\n      dup3\n      add\n      sload\n      swap3\n      dup3\n      add\n      dup1\n      sload\n      swap2\n      swap4\n      sub(shl(0xa0, 0x01), 0x01)\n      and\n      swap3\n      swap2\n      tag_286\n      swap1\n      tag_252\n      jump\t// in\n        /* \"smart-contracts/playground/main/Canvassing.sol\":18790:20905  function createSurvey(... */\n    tag_146:\n        /* \"smart-contracts/playground/main/Canvassing.sol\":19112:19127  currentSurveyId */\n      sload(0x10)\n        /* \"smart-contracts/playground/main/Canvassing.sol\":19071:19078  uint256 */\n      0x00\n      swap1\n        /* \"smart-contracts/playground/main/Canvassing.sol\":19172:19195  Survey memory newSurvey */\n      tag_459\n      tag_264\n      jump\t// in\n    tag_459:\n        /* \"smart-contracts/playground/main/Canvassing.sol\":19205:19231  newSurvey.id = newSurveyId */\n      dup2\n      dup2\n      mstore\n      sub(shl(0xa0, 0x01), 0x01)\n        /* \"smart-contracts/playground/main/Canvassing.sol\":19241:19309  newSurvey.creatingResearcherWalletAddress = _researcherWalletAddress */\n      dup10\n      and\n        /* \"smart-contracts/playground/main/Canvassing.sol\":19241:19282  newSurvey.creatingResearcherWalletAddress */\n      0x20\n      dup3\n      add\n        /* \"smart-contracts/playground/main/Canvassing.sol\":19241:19309  newSurvey.creatingResearcherWalletAddress = _researcherWalletAddress */\n      mstore\n        /* \"smart-contracts/playground/main/Canvassing.sol\":19319:19334  newSurvey.topic */\n      0x40\n      dup2\n      add\n        /* \"smart-contracts/playground/main/Canvassing.sol\":19319:19343  newSurvey.topic = _topic */\n      dup9\n      swap1\n      mstore\n        /* \"smart-contracts/playground/main/Canvassing.sol\":19353:19380  newSurvey.numberOfQuestions */\n      0x60\n      dup2\n      add\n        /* \"smart-contracts/playground/main/Canvassing.sol\":19353:19401  newSurvey.numberOfQuestions = _numberOfQuestions */\n      dup8\n      swap1\n      mstore\n        /* \"smart-contracts/playground/main/Canvassing.sol\":19411:19447  newSurvey.targetNumberOfParticipants */\n      0x80\n      dup2\n      add\n        /* \"smart-contracts/playground/main/Canvassing.sol\":19411:19477  newSurvey.targetNumberOfParticipants = _targetNumberOfParticipants */\n      dup7\n      swap1\n      mstore\n        /* \"smart-contracts/playground/main/Canvassing.sol\":19555:19572  cUSDDecimalPlaces */\n      sload(0x16)\n        /* \"smart-contracts/playground/main/Canvassing.sol\":19518:19572  _amountFundedForSurvey *... */\n      tag_460\n      swap1\n        /* \"smart-contracts/playground/main/Canvassing.sol\":19518:19540  _amountFundedForSurvey */\n      dup6\n        /* \"smart-contracts/playground/main/Canvassing.sol\":19518:19572  _amountFundedForSurvey *... */\n      tag_236\n      jump\t// in\n    tag_460:\n        /* \"smart-contracts/playground/main/Canvassing.sol\":19487:19514  newSurvey.amountFundedInWei */\n      0xa0\n      dup3\n      add\n        /* \"smart-contracts/playground/main/Canvassing.sol\":19487:19573  newSurvey.amountFundedInWei = (_amountFundedForSurvey *... */\n      mstore\n        /* \"smart-contracts/playground/main/Canvassing.sol\":19583:19593  allSurveys */\n      0x03\n        /* \"smart-contracts/playground/main/Canvassing.sol\":19583:19609  allSurveys.push(newSurvey) */\n      dup1\n      sload\n      0x01\n      dup2\n      add\n      dup3\n      sstore\n      0x00\n      swap2\n      swap1\n      swap2\n      mstore\n      dup2\n      mload\n      0xc2575a0e9e593c00f959f8c92f12db2869c3395a3b0502d05e2516446f71f85b\n      0x07\n      swap1\n      swap3\n      mul\n      swap2\n      dup3\n      add\n      swap1\n      dup2\n      sstore\n      0x20\n      dup4\n      add\n      mload\n      0xc2575a0e9e593c00f959f8c92f12db2869c3395a3b0502d05e2516446f71f85c\n      dup4\n      add\n      dup1\n      sload\n      not(sub(shl(0xa0, 0x01), 0x01))\n      and\n      sub(shl(0xa0, 0x01), 0x01)\n      swap1\n      swap3\n      and\n      swap2\n      swap1\n      swap2\n      or\n      swap1\n      sstore\n      0x40\n      dup4\n      add\n      mload\n        /* \"smart-contracts/playground/main/Canvassing.sol\":19487:19514  newSurvey.amountFundedInWei */\n      dup4\n      swap3\n        /* \"smart-contracts/playground/main/Canvassing.sol\":19583:19609  allSurveys.push(newSurvey) */\n      0xc2575a0e9e593c00f959f8c92f12db2869c3395a3b0502d05e2516446f71f85d\n      add\n      swap1\n      tag_462\n      swap1\n      dup3\n      tag_302\n      jump\t// in\n    tag_462:\n      pop\n      0x60\n      dup3\n      add\n      mload\n      0x03\n      dup3\n      add\n      sstore\n      0x80\n      dup3\n      add\n      mload\n      0x04\n      dup3\n      add\n      sstore\n      0xa0\n      dup3\n      add\n      mload\n      0x05\n      dup3\n      add\n      sstore\n      0xc0\n      swap1\n      swap2\n      add\n      mload\n      0x06\n      swap1\n      swap2\n      add\n      dup1\n      sload\n      not(0xff)\n      and\n      swap2\n      iszero\n      iszero\n      swap2\n      swap1\n      swap2\n      or\n      swap1\n      sstore\n        /* \"smart-contracts/playground/main/Canvassing.sol\":19709:19721  newSurvey.id */\n      dup1\n      mload\n      sub(shl(0xa0, 0x01), 0x01)\n        /* \"smart-contracts/playground/main/Canvassing.sol\":19620:19706  idsOfLatestSurveysCreatedByResearchers[... */\n      dup11\n      and\n      0x00\n      swap1\n      dup2\n      mstore\n        /* \"smart-contracts/playground/main/Canvassing.sol\":19620:19658  idsOfLatestSurveysCreatedByResearchers */\n      0x0a\n        /* \"smart-contracts/playground/main/Canvassing.sol\":19620:19706  idsOfLatestSurveysCreatedByResearchers[... */\n      0x20\n      swap1\n      dup2\n      mstore\n      0x40\n      dup1\n      dup4\n      keccak256\n        /* \"smart-contracts/playground/main/Canvassing.sol\":19620:19721  idsOfLatestSurveysCreatedByResearchers[... */\n      swap4\n      swap1\n      swap4\n      sstore\n        /* \"smart-contracts/playground/main/Canvassing.sol\":19788:19828  totalNumberOfSurveysCreatedByResearchers */\n      0x08\n        /* \"smart-contracts/playground/main/Canvassing.sol\":19788:19884  totalNumberOfSurveysCreatedByResearchers[... */\n      swap1\n      mstore\n      swap1\n      dup2\n      keccak256\n      sload\n      swap1\n        /* \"smart-contracts/playground/main/Canvassing.sol\":19951:20017  currentTotalNumberOfSurveysCreatedByResearcher +... */\n      tag_463\n        /* \"smart-contracts/playground/main/Canvassing.sol\":19788:19884  totalNumberOfSurveysCreatedByResearchers[... */\n      dup3\n      0x01\n        /* \"smart-contracts/playground/main/Canvassing.sol\":19951:20017  currentTotalNumberOfSurveysCreatedByResearcher +... */\n      tag_238\n      jump\t// in\n    tag_463:\n      sub(shl(0xa0, 0x01), 0x01)\n        /* \"smart-contracts/playground/main/Canvassing.sol\":20028:20116  totalNumberOfSurveysCreatedByResearchers[... */\n      dup13\n      and\n      0x00\n      swap1\n      dup2\n      mstore\n        /* \"smart-contracts/playground/main/Canvassing.sol\":20028:20068  totalNumberOfSurveysCreatedByResearchers */\n      0x08\n        /* \"smart-contracts/playground/main/Canvassing.sol\":20028:20116  totalNumberOfSurveysCreatedByResearchers[... */\n      0x20\n      mstore\n      0x40\n      dup2\n      keccak256\n        /* \"smart-contracts/playground/main/Canvassing.sol\":20028:20164  totalNumberOfSurveysCreatedByResearchers[... */\n      dup3\n      swap1\n      sstore\n        /* \"smart-contracts/playground/main/Canvassing.sol\":19895:20017  uint256 newestTotalNumberOfSurveysCreatedByResearcher = currentTotalNumberOfSurveysCreatedByResearcher +... */\n      swap1\n      swap2\n      pop\n        /* \"smart-contracts/playground/main/Canvassing.sol\":20239:20790  for (... */\n    tag_464:\n        /* \"smart-contracts/playground/main/Canvassing.sol\":20312:20330  _numberOfQuestions */\n      dup10\n        /* \"smart-contracts/playground/main/Canvassing.sol\":20296:20309  questionIndex */\n      dup2\n        /* \"smart-contracts/playground/main/Canvassing.sol\":20296:20330  questionIndex < _numberOfQuestions */\n      lt\n        /* \"smart-contracts/playground/main/Canvassing.sol\":20239:20790  for (... */\n      iszero\n      tag_465\n      jumpi\n        /* \"smart-contracts/playground/main/Canvassing.sol\":20408:20425  currentQuestionId */\n      sload(0x11)\n      0x40\n      dup1\n      mload\n      0x80\n      dup2\n      add\n      dup3\n      mstore\n      0x00\n      0x20\n      dup3\n      add\n      dup2\n      dup2\n      mstore\n      0x60\n      swap4\n      dup4\n      add\n      dup5\n      swap1\n      mstore\n      swap3\n      dup3\n      add\n      mstore\n        /* \"smart-contracts/playground/main/Canvassing.sol\":20481:20511  newQuestion.id = newQuestionId */\n      dup3\n      dup2\n      mstore\n        /* \"smart-contracts/playground/main/Canvassing.sol\":20548:20560  newSurvey.id */\n      dup7\n      mload\n        /* \"smart-contracts/playground/main/Canvassing.sol\":20525:20560  newQuestion.surveyId = newSurvey.id */\n      swap1\n      swap2\n      mstore\n        /* \"smart-contracts/playground/main/Canvassing.sol\":20597:20630  _questionSentences[questionIndex] */\n      dup10\n      mload\n      dup11\n      swap1\n        /* \"smart-contracts/playground/main/Canvassing.sol\":20616:20629  questionIndex */\n      dup5\n      swap1\n        /* \"smart-contracts/playground/main/Canvassing.sol\":20597:20630  _questionSentences[questionIndex] */\n      dup2\n      lt\n      tag_470\n      jumpi\n      tag_470\n      tag_270\n      jump\t// in\n    tag_470:\n      0x20\n      swap1\n      dup2\n      mul\n      swap2\n      swap1\n      swap2\n      add\n      dup2\n      add\n      mload\n        /* \"smart-contracts/playground/main/Canvassing.sol\":20574:20594  newQuestion.sentence */\n      0x40\n      dup1\n      dup5\n      add\n        /* \"smart-contracts/playground/main/Canvassing.sol\":20574:20630  newQuestion.sentence = _questionSentences[questionIndex] */\n      swap2\n      dup3\n      mstore\n        /* \"smart-contracts/playground/main/Canvassing.sol\":20657:20669  newSurvey.id */\n      dup9\n      mload\n        /* \"smart-contracts/playground/main/Canvassing.sol\":20644:20670  allQuestions[newSurvey.id] */\n      0x00\n      swap1\n      dup2\n      mstore\n        /* \"smart-contracts/playground/main/Canvassing.sol\":20644:20656  allQuestions */\n      0x04\n        /* \"smart-contracts/playground/main/Canvassing.sol\":20644:20670  allQuestions[newSurvey.id] */\n      dup1\n      dup6\n      mstore\n      swap2\n      dup2\n      keccak256\n        /* \"smart-contracts/playground/main/Canvassing.sol\":20644:20688  allQuestions[newSurvey.id].push(newQuestion) */\n      dup1\n      sload\n      0x01\n      dup2\n      dup2\n      add\n      dup4\n      sstore\n      swap2\n      dup4\n      mstore\n      swap2\n      dup6\n      swap1\n      keccak256\n      dup7\n      mload\n      swap3\n      swap1\n      swap4\n      mul\n      swap1\n      swap3\n      add\n      swap1\n      dup2\n      sstore\n      swap3\n      dup5\n      add\n      mload\n      swap1\n      dup4\n      add\n      sstore\n      mload\n        /* \"smart-contracts/playground/main/Canvassing.sol\":20574:20585  newQuestion */\n      dup3\n      swap2\n        /* \"smart-contracts/playground/main/Canvassing.sol\":20644:20688  allQuestions[newSurvey.id].push(newQuestion) */\n      swap1\n      0x02\n      dup3\n      add\n      swap1\n      tag_472\n      swap1\n      dup3\n      tag_302\n      jump\t// in\n    tag_472:\n      pop\n      0x60\n      swap2\n      swap1\n      swap2\n      add\n      mload\n      0x03\n      swap1\n      swap2\n      add\n      dup1\n      sload\n      not(0xff)\n      and\n      swap2\n      iszero\n      iszero\n      swap2\n      swap1\n      swap2\n      or\n      swap1\n      sstore\n        /* \"smart-contracts/playground/main/Canvassing.sol\":20760:20777  currentQuestionId */\n      0x11\n        /* \"smart-contracts/playground/main/Canvassing.sol\":20760:20779  currentQuestionId++ */\n      dup1\n      sload\n      swap1\n      0x00\n      tag_473\n      dup4\n      tag_281\n      jump\t// in\n    tag_473:\n      swap2\n      swap1\n      pop\n      sstore\n      pop\n        /* \"smart-contracts/playground/main/Canvassing.sol\":20370:20790  {... */\n      pop\n      pop\n        /* \"smart-contracts/playground/main/Canvassing.sol\":20344:20359  questionIndex++ */\n      dup1\n      dup1\n      tag_474\n      swap1\n      tag_281\n      jump\t// in\n    tag_474:\n      swap2\n      pop\n      pop\n        /* \"smart-contracts/playground/main/Canvassing.sol\":20239:20790  for (... */\n      jump(tag_464)\n    tag_465:\n      pop\n        /* \"smart-contracts/playground/main/Canvassing.sol\":20851:20866  currentSurveyId */\n      0x10\n        /* \"smart-contracts/playground/main/Canvassing.sol\":20851:20868  currentSurveyId++ */\n      dup1\n      sload\n      swap1\n        /* \"smart-contracts/playground/main/Canvassing.sol\":20851:20866  currentSurveyId */\n      0x00\n        /* \"smart-contracts/playground/main/Canvassing.sol\":20851:20868  currentSurveyId++ */\n      tag_475\n      dup4\n      tag_281\n      jump\t// in\n    tag_475:\n      swap1\n      swap2\n      sstore\n      pop\n      pop\n        /* \"smart-contracts/playground/main/Canvassing.sol\":20886:20898  newSurvey.id */\n      swap2\n      mload\n      swap11\n        /* \"smart-contracts/playground/main/Canvassing.sol\":18790:20905  function createSurvey(... */\n      swap10\n      pop\n      pop\n      pop\n      pop\n      pop\n      pop\n      pop\n      pop\n      pop\n      pop\n      jump\t// out\n        /* \"smart-contracts/playground/main/Canvassing.sol\":716:762  mapping(uint256 => Answer[]) public allAnswers */\n    tag_150:\n      mstore(0x20, 0x05)\n      dup2\n      0x00\n      mstore\n      keccak256(0x00, 0x40)\n      dup2\n      dup2\n      sload\n      dup2\n      lt\n      tag_476\n      jumpi\n      0x00\n      dup1\n      revert\n    tag_476:\n      0x00\n      swap2\n      dup3\n      mstore\n      0x20\n      swap1\n      swap2\n      keccak256\n      0x04\n      swap1\n      swap2\n      mul\n      add\n      dup1\n      sload\n      0x01\n      dup3\n      add\n      sload\n      0x02\n      dup4\n      add\n      sload\n      0x03\n      swap1\n      swap4\n      add\n      sload\n      swap2\n      swap5\n      pop\n      swap3\n      pop\n      sub(shl(0xa0, 0x01), 0x01)\n      dup2\n      and\n      swap1\n      0xff\n      shl(0xa0, 0x01)\n      dup3\n      div\n      dup2\n      and\n      swap2\n      shl(0xa8, 0x01)\n      swap1\n      div\n      and\n      dup7\n      jump\t// out\n        /* \"smart-contracts/playground/main/Canvassing.sol\":12317:14258  function makePayoutAndCreateEarning(... */\n    tag_155:\n        /* \"smart-contracts/playground/main/Canvassing.sol\":12446:12473  Survey memory currentSurvey */\n      0x00\n        /* \"smart-contracts/playground/main/Canvassing.sol\":12476:12486  allSurveys */\n      0x03\n        /* \"smart-contracts/playground/main/Canvassing.sol\":12487:12496  _surveyId */\n      dup4\n        /* \"smart-contracts/playground/main/Canvassing.sol\":12476:12497  allSurveys[_surveyId] */\n      dup2\n      sload\n      dup2\n      lt\n      tag_480\n      jumpi\n      tag_480\n      tag_270\n      jump\t// in\n    tag_480:\n      swap1\n      0x00\n      mstore\n      keccak256(0x00, 0x20)\n      swap1\n      0x07\n      mul\n      add\n        /* \"smart-contracts/playground/main/Canvassing.sol\":12446:12497  Survey memory currentSurvey = allSurveys[_surveyId] */\n      mload(0x40)\n      dup1\n      0xe0\n      add\n      0x40\n      mstore\n      swap1\n      dup2\n      0x00\n      dup3\n      add\n      sload\n      dup2\n      mstore\n      0x20\n      add\n      0x01\n      dup3\n      add\n      0x00\n      swap1\n      sload\n      swap1\n      0x0100\n      exp\n      swap1\n      div\n      sub(shl(0xa0, 0x01), 0x01)\n      and\n      sub(shl(0xa0, 0x01), 0x01)\n      and\n      sub(shl(0xa0, 0x01), 0x01)\n      and\n      dup2\n      mstore\n      0x20\n      add\n      0x02\n      dup3\n      add\n      dup1\n      sload\n      tag_482\n      swap1\n      tag_252\n      jump\t// in\n    tag_482:\n      dup1\n      0x1f\n      add\n      0x20\n      dup1\n      swap2\n      div\n      mul\n      0x20\n      add\n      mload(0x40)\n      swap1\n      dup2\n      add\n      0x40\n      mstore\n      dup1\n      swap3\n      swap2\n      swap1\n      dup2\n      dup2\n      mstore\n      0x20\n      add\n      dup3\n      dup1\n      sload\n      tag_483\n      swap1\n      tag_252\n      jump\t// in\n    tag_483:\n      dup1\n      iszero\n      tag_484\n      jumpi\n      dup1\n      0x1f\n      lt\n      tag_485\n      jumpi\n      0x0100\n      dup1\n      dup4\n      sload\n      div\n      mul\n      dup4\n      mstore\n      swap2\n      0x20\n      add\n      swap2\n      jump(tag_484)\n    tag_485:\n      dup3\n      add\n      swap2\n      swap1\n      0x00\n      mstore\n      keccak256(0x00, 0x20)\n      swap1\n    tag_486:\n      dup2\n      sload\n      dup2\n      mstore\n      swap1\n      0x01\n      add\n      swap1\n      0x20\n      add\n      dup1\n      dup4\n      gt\n      tag_486\n      jumpi\n      dup3\n      swap1\n      sub\n      0x1f\n      and\n      dup3\n      add\n      swap2\n    tag_484:\n      pop\n      pop\n      pop\n      swap2\n      dup4\n      mstore\n      pop\n      pop\n      0x03\n      dup3\n      add\n      sload\n      0x20\n      dup3\n      add\n      mstore\n      0x04\n      dup3\n      add\n      sload\n      0x40\n      dup3\n      add\n      mstore\n      0x05\n      dup3\n      add\n      sload\n      0x60\n      dup3\n      add\n      mstore\n      0x06\n      swap1\n      swap2\n      add\n      sload\n      0xff\n      and\n      iszero\n      iszero\n      0x80\n      swap1\n      swap2\n      add\n      mstore\n      swap1\n      pop\n      0x00\n        /* \"smart-contracts/playground/main/Canvassing.sol\":12595:12682  getAmountOfEarningPerParticipantForSurveyInWei(... */\n      tag_487\n        /* \"smart-contracts/playground/main/Canvassing.sol\":12659:12668  _surveyId */\n      dup5\n        /* \"smart-contracts/playground/main/Canvassing.sol\":12595:12641  getAmountOfEarningPerParticipantForSurveyInWei */\n      tag_85\n        /* \"smart-contracts/playground/main/Canvassing.sol\":12595:12682  getAmountOfEarningPerParticipantForSurveyInWei(... */\n      jump\t// in\n    tag_487:\n        /* \"smart-contracts/playground/main/Canvassing.sol\":12693:12697  cUSD */\n      sload(0x15)\n        /* \"smart-contracts/playground/main/Canvassing.sol\":12693:12804  cUSD.transfer(... */\n      mload(0x40)\n      shl(0xe0, 0xa9059cbb)\n      dup2\n      mstore\n      sub(shl(0xa0, 0x01), 0x01)\n        /* \"#utility.yul\":23152:23184   */\n      dup7\n      dup2\n      and\n        /* \"smart-contracts/playground/main/Canvassing.sol\":12693:12804  cUSD.transfer(... */\n      0x04\n      dup4\n      add\n        /* \"#utility.yul\":23134:23185   */\n      mstore\n        /* \"#utility.yul\":23201:23219   */\n      0x24\n      dup3\n      add\n        /* \"#utility.yul\":23194:23228   */\n      dup5\n      swap1\n      mstore\n        /* \"smart-contracts/playground/main/Canvassing.sol\":12549:12682  uint256 amountToBePaidOutToParticipantInWei = getAmountOfEarningPerParticipantForSurveyInWei(... */\n      swap3\n      swap4\n      pop\n        /* \"smart-contracts/playground/main/Canvassing.sol\":12693:12697  cUSD */\n      swap2\n      and\n      swap1\n        /* \"smart-contracts/playground/main/Canvassing.sol\":12693:12706  cUSD.transfer */\n      0xa9059cbb\n      swap1\n        /* \"#utility.yul\":23107:23125   */\n      0x44\n      add\n        /* \"smart-contracts/playground/main/Canvassing.sol\":12693:12804  cUSD.transfer(... */\n      0x20\n      mload(0x40)\n      dup1\n      dup4\n      sub\n      dup2\n      0x00\n      dup8\n      gas\n      call\n      iszero\n      dup1\n      iszero\n      tag_491\n      jumpi\n      returndatasize\n      0x00\n      dup1\n      returndatacopy\n      revert(0x00, returndatasize)\n    tag_491:\n      pop\n      pop\n      pop\n      pop\n      mload(0x40)\n      returndatasize\n      not(0x1f)\n      0x1f\n      dup3\n      add\n      and\n      dup3\n      add\n      dup1\n      0x40\n      mstore\n      pop\n      dup2\n      add\n      swap1\n      tag_492\n      swap2\n      swap1\n      tag_493\n      jump\t// in\n    tag_492:\n      pop\n        /* \"smart-contracts/playground/main/Canvassing.sol\":12876:12918  uint256 amountToBePaidOutToCanvassingInWei */\n      0x00\n        /* \"smart-contracts/playground/main/Canvassing.sol\":12921:13079  getAmountOfEarningForCanvassingForSurveyPerParticipantInWei(... */\n      tag_494\n        /* \"smart-contracts/playground/main/Canvassing.sol\":12998:13007  _surveyId */\n      dup6\n        /* \"smart-contracts/playground/main/Canvassing.sol\":13025:13038  currentSurvey */\n      dup5\n        /* \"smart-contracts/playground/main/Canvassing.sol\":13025:13065  currentSurvey.targetNumberOfParticipants */\n      0x80\n      add\n      mload\n        /* \"smart-contracts/playground/main/Canvassing.sol\":12921:12980  getAmountOfEarningForCanvassingForSurveyPerParticipantInWei */\n      tag_125\n        /* \"smart-contracts/playground/main/Canvassing.sol\":12921:13079  getAmountOfEarningForCanvassingForSurveyPerParticipantInWei(... */\n      jump\t// in\n    tag_494:\n        /* \"smart-contracts/playground/main/Canvassing.sol\":13090:13094  cUSD */\n      sload(0x15)\n      0x00\n        /* \"smart-contracts/playground/main/Canvassing.sol\":13117:13140  canvassingWalletAddress */\n      sload\n        /* \"smart-contracts/playground/main/Canvassing.sol\":13090:13198  cUSD.transfer(... */\n      mload(0x40)\n      shl(0xe0, 0xa9059cbb)\n      dup2\n      mstore\n      sub(shl(0xa0, 0x01), 0x01)\n        /* \"smart-contracts/playground/main/Canvassing.sol\":13117:13140  canvassingWalletAddress */\n      swap2\n      dup3\n      and\n        /* \"smart-contracts/playground/main/Canvassing.sol\":13090:13198  cUSD.transfer(... */\n      0x04\n      dup3\n      add\n        /* \"#utility.yul\":23134:23185   */\n      mstore\n        /* \"#utility.yul\":23201:23219   */\n      0x24\n      dup2\n      add\n        /* \"#utility.yul\":23194:23228   */\n      dup5\n      swap1\n      mstore\n        /* \"smart-contracts/playground/main/Canvassing.sol\":12876:13079  uint256 amountToBePaidOutToCanvassingInWei = getAmountOfEarningForCanvassingForSurveyPerParticipantInWei(... */\n      swap3\n      swap4\n      pop\n        /* \"smart-contracts/playground/main/Canvassing.sol\":13090:13094  cUSD */\n      and\n      swap1\n        /* \"smart-contracts/playground/main/Canvassing.sol\":13090:13103  cUSD.transfer */\n      0xa9059cbb\n      swap1\n        /* \"#utility.yul\":23107:23125   */\n      0x44\n      add\n        /* \"smart-contracts/playground/main/Canvassing.sol\":13090:13198  cUSD.transfer(... */\n      0x20\n      mload(0x40)\n      dup1\n      dup4\n      sub\n      dup2\n      0x00\n      dup8\n      gas\n      call\n      iszero\n      dup1\n      iszero\n      tag_497\n      jumpi\n      returndatasize\n      0x00\n      dup1\n      returndatacopy\n      revert(0x00, returndatasize)\n    tag_497:\n      pop\n      pop\n      pop\n      pop\n      mload(0x40)\n      returndatasize\n      not(0x1f)\n      0x1f\n      dup3\n      add\n      and\n      dup3\n      add\n      dup1\n      0x40\n      mstore\n      pop\n      dup2\n      add\n      swap1\n      tag_498\n      swap2\n      swap1\n      tag_493\n      jump\t// in\n    tag_498:\n      pop\n        /* \"smart-contracts/playground/main/Canvassing.sol\":13260:13296  Earning memory newParticipantEarning */\n      tag_499\n      tag_374\n      jump\t// in\n    tag_499:\n        /* \"smart-contracts/playground/main/Canvassing.sol\":13333:13349  currentEarningId */\n      0x13\n      dup1\n      sload\n        /* \"smart-contracts/playground/main/Canvassing.sol\":13306:13349  newParticipantEarning.id = currentEarningId */\n      dup3\n      mstore\n        /* \"smart-contracts/playground/main/Canvassing.sol\":13359:13389  newParticipantEarning.surveyId */\n      0x20\n      dup3\n      add\n        /* \"smart-contracts/playground/main/Canvassing.sol\":13359:13401  newParticipantEarning.surveyId = _surveyId */\n      dup8\n      dup2\n      mstore\n      sub(shl(0xa0, 0x01), 0x01)\n        /* \"smart-contracts/playground/main/Canvassing.sol\":13411:13496  newParticipantEarning... */\n      dup8\n      dup2\n      and\n        /* \"smart-contracts/playground/main/Canvassing.sol\":13411:13468  newParticipantEarning... */\n      0x40\n      dup6\n      add\n        /* \"smart-contracts/playground/main/Canvassing.sol\":13411:13496  newParticipantEarning... */\n      swap1\n      dup2\n      mstore\n        /* \"smart-contracts/playground/main/Canvassing.sol\":13506:13559  newParticipantEarning... */\n      0x60\n      dup6\n      add\n        /* \"smart-contracts/playground/main/Canvassing.sol\":13506:13597  newParticipantEarning... */\n      dup8\n      dup2\n      mstore\n        /* \"smart-contracts/playground/main/Canvassing.sol\":13607:13618  allEarnings */\n      0x0d\n        /* \"smart-contracts/playground/main/Canvassing.sol\":13607:13646  allEarnings.push(newParticipantEarning) */\n      dup1\n      sload\n      0x01\n      dup2\n      add\n      dup3\n      sstore\n      0x00\n      swap2\n      dup3\n      mstore\n      dup8\n      mload\n      0xd7b6990105719101dabeb77144f2a3385c8033acd3af97e9423a695e81ad1eb5\n      0x05\n      swap1\n      swap3\n      mul\n      swap2\n      dup3\n      add\n      sstore\n      swap5\n      mload\n      0xd7b6990105719101dabeb77144f2a3385c8033acd3af97e9423a695e81ad1eb6\n      dup7\n      add\n      sstore\n      swap2\n      mload\n      0xd7b6990105719101dabeb77144f2a3385c8033acd3af97e9423a695e81ad1eb7\n      dup6\n      add\n      dup1\n      sload\n      not(sub(shl(0xa0, 0x01), 0x01))\n      and\n      swap2\n      swap1\n      swap5\n      and\n      or\n      swap1\n      swap3\n      sstore\n      swap1\n      mload\n      0xd7b6990105719101dabeb77144f2a3385c8033acd3af97e9423a695e81ad1eb8\n      dup4\n      add\n      sstore\n      0x80\n      dup5\n      add\n      mload\n      0xd7b6990105719101dabeb77144f2a3385c8033acd3af97e9423a695e81ad1eb9\n      swap1\n      swap3\n      add\n      dup1\n      sload\n      not(0xff)\n      and\n      swap3\n      iszero\n      iszero\n      swap3\n      swap1\n      swap3\n      or\n      swap1\n      swap2\n      sstore\n        /* \"smart-contracts/playground/main/Canvassing.sol\":13656:13674  currentEarningId++ */\n      dup2\n      sload\n      swap2\n        /* \"smart-contracts/playground/main/Canvassing.sol\":13333:13349  currentEarningId */\n      swap1\n        /* \"smart-contracts/playground/main/Canvassing.sol\":13656:13674  currentEarningId++ */\n      tag_501\n      dup4\n      tag_281\n      jump\t// in\n    tag_501:\n      swap1\n      swap2\n      sstore\n      pop\n      pop\n        /* \"smart-contracts/playground/main/Canvassing.sol\":13684:13729  payoutStatusOfParticipantForSurvey[_surveyId] */\n      0x00\n      dup7\n      dup2\n      mstore\n        /* \"smart-contracts/playground/main/Canvassing.sol\":13684:13718  payoutStatusOfParticipantForSurvey */\n      0x07\n        /* \"smart-contracts/playground/main/Canvassing.sol\":13684:13729  payoutStatusOfParticipantForSurvey[_surveyId] */\n      0x20\n      swap1\n      dup2\n      mstore\n      0x40\n      dup1\n      dup4\n      keccak256\n      sub(shl(0xa0, 0x01), 0x01)\n        /* \"smart-contracts/playground/main/Canvassing.sol\":13684:13778  payoutStatusOfParticipantForSurvey[_surveyId][... */\n      dup10\n      and\n      dup5\n      mstore\n      swap1\n      swap2\n      mstore\n      swap1\n      keccak256\n        /* \"smart-contracts/playground/main/Canvassing.sol\":13684:13785  payoutStatusOfParticipantForSurvey[_surveyId][... */\n      dup1\n      sload\n      not(0xff)\n      and\n        /* \"smart-contracts/playground/main/Canvassing.sol\":13781:13785  true */\n      0x01\n        /* \"smart-contracts/playground/main/Canvassing.sol\":13684:13785  payoutStatusOfParticipantForSurvey[_surveyId][... */\n      or\n      swap1\n      sstore\n        /* \"smart-contracts/playground/main/Canvassing.sol\":13859:13894  Earning memory newCanvassingEarning */\n      tag_502\n      tag_374\n      jump\t// in\n    tag_502:\n        /* \"smart-contracts/playground/main/Canvassing.sol\":13930:13946  currentEarningId */\n      0x13\n      dup1\n      sload\n        /* \"smart-contracts/playground/main/Canvassing.sol\":13904:13946  newCanvassingEarning.id = currentEarningId */\n      dup3\n      mstore\n        /* \"smart-contracts/playground/main/Canvassing.sol\":13956:13985  newCanvassingEarning.surveyId */\n      0x20\n      dup3\n      add\n        /* \"smart-contracts/playground/main/Canvassing.sol\":13956:13997  newCanvassingEarning.surveyId = _surveyId */\n      dup9\n      dup2\n      mstore\n      0x00\n        /* \"smart-contracts/playground/main/Canvassing.sol\":14053:14076  canvassingWalletAddress */\n      dup1\n      sload\n      sub(shl(0xa0, 0x01), 0x01)\n      swap1\n      dup2\n      and\n        /* \"smart-contracts/playground/main/Canvassing.sol\":14007:14050  newCanvassingEarning.recipientWalletAddress */\n      0x40\n      dup7\n      add\n        /* \"smart-contracts/playground/main/Canvassing.sol\":14007:14076  newCanvassingEarning.recipientWalletAddress = canvassingWalletAddress */\n      swap1\n      dup2\n      mstore\n        /* \"smart-contracts/playground/main/Canvassing.sol\":14086:14138  newCanvassingEarning... */\n      0x60\n      dup7\n      add\n        /* \"smart-contracts/playground/main/Canvassing.sol\":14086:14175  newCanvassingEarning... */\n      dup9\n      dup2\n      mstore\n        /* \"smart-contracts/playground/main/Canvassing.sol\":14185:14196  allEarnings */\n      0x0d\n        /* \"smart-contracts/playground/main/Canvassing.sol\":14185:14223  allEarnings.push(newCanvassingEarning) */\n      dup1\n      sload\n        /* \"smart-contracts/playground/main/Canvassing.sol\":14053:14076  canvassingWalletAddress */\n      0x01\n        /* \"smart-contracts/playground/main/Canvassing.sol\":14185:14223  allEarnings.push(newCanvassingEarning) */\n      dup2\n      add\n      dup3\n      sstore\n      swap1\n      dup6\n      mstore\n      dup8\n      mload\n      0xd7b6990105719101dabeb77144f2a3385c8033acd3af97e9423a695e81ad1eb5\n      0x05\n      swap1\n      swap3\n      mul\n      swap2\n      dup3\n      add\n      sstore\n      swap5\n      mload\n      0xd7b6990105719101dabeb77144f2a3385c8033acd3af97e9423a695e81ad1eb6\n      dup7\n      add\n      sstore\n      swap1\n      mload\n      0xd7b6990105719101dabeb77144f2a3385c8033acd3af97e9423a695e81ad1eb7\n      dup6\n      add\n      dup1\n      sload\n      not(sub(shl(0xa0, 0x01), 0x01))\n      and\n      swap2\n      swap1\n      swap4\n      and\n      or\n      swap1\n      swap2\n      sstore\n      mload\n      0xd7b6990105719101dabeb77144f2a3385c8033acd3af97e9423a695e81ad1eb8\n      dup4\n      add\n      sstore\n      0x80\n      dup5\n      add\n      mload\n      0xd7b6990105719101dabeb77144f2a3385c8033acd3af97e9423a695e81ad1eb9\n      swap1\n      swap3\n      add\n      dup1\n      sload\n      not(0xff)\n      and\n      swap3\n      iszero\n      iszero\n      swap3\n      swap1\n      swap3\n      or\n      swap1\n      swap2\n      sstore\n        /* \"smart-contracts/playground/main/Canvassing.sol\":14233:14251  currentEarningId++ */\n      dup2\n      sload\n      swap2\n        /* \"smart-contracts/playground/main/Canvassing.sol\":13930:13946  currentEarningId */\n      swap1\n        /* \"smart-contracts/playground/main/Canvassing.sol\":14233:14251  currentEarningId++ */\n      tag_504\n      dup4\n      tag_281\n      jump\t// in\n    tag_504:\n      swap2\n      swap1\n      pop\n      sstore\n      pop\n        /* \"smart-contracts/playground/main/Canvassing.sol\":12436:14258  {... */\n      pop\n      pop\n      pop\n      pop\n      pop\n        /* \"smart-contracts/playground/main/Canvassing.sol\":12317:14258  function makePayoutAndCreateEarning(... */\n      pop\n      pop\n      jump\t// out\n        /* \"smart-contracts/playground/main/Canvassing.sol\":1994:2253  function checkIfParticipantExists(address _walletAddress)... */\n    tag_158:\n      sub(shl(0xa0, 0x01), 0x01)\n        /* \"smart-contracts/playground/main/Canvassing.sol\":2136:2199  allParticipants[_walletAddress].walletAddress == _walletAddress */\n      dup1\n      dup3\n      and\n        /* \"smart-contracts/playground/main/Canvassing.sol\":2097:2101  bool */\n      0x00\n        /* \"smart-contracts/playground/main/Canvassing.sol\":2136:2167  allParticipants[_walletAddress] */\n      dup2\n      dup2\n      mstore\n        /* \"smart-contracts/playground/main/Canvassing.sol\":2136:2151  allParticipants */\n      0x02\n        /* \"smart-contracts/playground/main/Canvassing.sol\":2136:2167  allParticipants[_walletAddress] */\n      0x20\n      mstore\n      0x40\n      dup2\n      keccak256\n        /* \"smart-contracts/playground/main/Canvassing.sol\":2136:2181  allParticipants[_walletAddress].walletAddress */\n      0x01\n      add\n      sload\n        /* \"smart-contracts/playground/main/Canvassing.sol\":2097:2101  bool */\n      swap1\n      swap3\n        /* \"smart-contracts/playground/main/Canvassing.sol\":2136:2181  allParticipants[_walletAddress].walletAddress */\n      and\n        /* \"smart-contracts/playground/main/Canvassing.sol\":2136:2199  allParticipants[_walletAddress].walletAddress == _walletAddress */\n      eq\n        /* \"smart-contracts/playground/main/Canvassing.sol\":2136:2246  allParticipants[_walletAddress].walletAddress == _walletAddress... */\n      tag_506\n      jumpi\n        /* \"smart-contracts/playground/main/Canvassing.sol\":2241:2246  false */\n      0x00\n        /* \"smart-contracts/playground/main/Canvassing.sol\":2136:2246  allParticipants[_walletAddress].walletAddress == _walletAddress... */\n      jump(tag_234)\n    tag_506:\n        /* \"smart-contracts/playground/main/Canvassing.sol\":2218:2222  true */\n      0x01\n        /* \"smart-contracts/playground/main/Canvassing.sol\":2117:2246  return... */\n      swap3\n        /* \"smart-contracts/playground/main/Canvassing.sol\":1994:2253  function checkIfParticipantExists(address _walletAddress)... */\n      swap2\n      pop\n      pop\n      jump\t// out\n        /* \"smart-contracts/playground/main/Canvassing.sol\":18537:18784  function verifyResearcher(address _walletAddress) public {... */\n    tag_163:\n      sub(shl(0xa0, 0x01), 0x01)\n        /* \"smart-contracts/playground/main/Canvassing.sol\":18642:18672  allResearchers[_walletAddress] */\n      dup1\n      dup3\n      and\n        /* \"smart-contracts/playground/main/Canvassing.sol\":18604:18639  Researcher memory currentResearcher */\n      0x00\n        /* \"smart-contracts/playground/main/Canvassing.sol\":18642:18672  allResearchers[_walletAddress] */\n      swap1\n      dup2\n      mstore\n        /* \"smart-contracts/playground/main/Canvassing.sol\":18642:18656  allResearchers */\n      0x01\n        /* \"smart-contracts/playground/main/Canvassing.sol\":18642:18672  allResearchers[_walletAddress] */\n      0x20\n      dup2\n      dup2\n      mstore\n      0x40\n      dup1\n      dup5\n      keccak256\n        /* \"smart-contracts/playground/main/Canvassing.sol\":18604:18672  Researcher memory currentResearcher = allResearchers[_walletAddress] */\n      dup2\n      mload\n      0xe0\n      dup2\n      add\n      dup4\n      mstore\n      dup2\n      sload\n      dup2\n      mstore\n      swap4\n      dup2\n      add\n      sload\n      swap1\n      swap6\n      and\n      swap2\n      dup4\n      add\n      swap2\n      swap1\n      swap2\n      mstore\n      0x02\n      dup5\n      add\n      dup1\n      sload\n        /* \"smart-contracts/playground/main/Canvassing.sol\":18604:18639  Researcher memory currentResearcher */\n      swap4\n      swap5\n        /* \"smart-contracts/playground/main/Canvassing.sol\":18604:18672  Researcher memory currentResearcher = allResearchers[_walletAddress] */\n      swap3\n      swap4\n      swap2\n      dup5\n      add\n      swap2\n      tag_509\n      swap1\n      tag_252\n      jump\t// in\n    tag_509:\n      dup1\n      0x1f\n      add\n      0x20\n      dup1\n      swap2\n      div\n      mul\n      0x20\n      add\n      mload(0x40)\n      swap1\n      dup2\n      add\n      0x40\n      mstore\n      dup1\n      swap3\n      swap2\n      swap1\n      dup2\n      dup2\n      mstore\n      0x20\n      add\n      dup3\n      dup1\n      sload\n      tag_510\n      swap1\n      tag_252\n      jump\t// in\n    tag_510:\n      dup1\n      iszero\n      tag_511\n      jumpi\n      dup1\n      0x1f\n      lt\n      tag_512\n      jumpi\n      0x0100\n      dup1\n      dup4\n      sload\n      div\n      mul\n      dup4\n      mstore\n      swap2\n      0x20\n      add\n      swap2\n      jump(tag_511)\n    tag_512:\n      dup3\n      add\n      swap2\n      swap1\n      0x00\n      mstore\n      keccak256(0x00, 0x20)\n      swap1\n    tag_513:\n      dup2\n      sload\n      dup2\n      mstore\n      swap1\n      0x01\n      add\n      swap1\n      0x20\n      add\n      dup1\n      dup4\n      gt\n      tag_513\n      jumpi\n      dup3\n      swap1\n      sub\n      0x1f\n      and\n      dup3\n      add\n      swap2\n    tag_511:\n      pop\n      pop\n      pop\n      swap2\n      dup4\n      mstore\n      pop\n      pop\n      0x03\n      dup3\n      add\n      sload\n      0x20\n      dup1\n      dup4\n      add\n      swap2\n      swap1\n      swap2\n      mstore\n      0x04\n      swap1\n      swap3\n      add\n      sload\n      0xff\n      dup1\n      dup3\n      and\n      iszero\n      iszero\n      0x40\n      dup1\n      dup6\n      add\n      swap2\n      swap1\n      swap2\n      mstore\n      0x0100\n      dup4\n      div\n      dup3\n      and\n      iszero\n      iszero\n      0x60\n      dup6\n      add\n      mstore\n      0x010000\n      swap1\n      swap3\n      div\n      and\n      iszero\n      iszero\n      0x80\n      swap1\n      swap3\n      add\n      swap2\n      swap1\n      swap2\n      mstore\n      0x01\n        /* \"smart-contracts/playground/main/Canvassing.sol\":18682:18710  currentResearcher.isVerified */\n      0xa0\n      dup5\n      add\n        /* \"smart-contracts/playground/main/Canvassing.sol\":18682:18717  currentResearcher.isVerified = true */\n      dup2\n      swap1\n      mstore\n      sub(shl(0xa0, 0x01), 0x01)\n        /* \"smart-contracts/playground/main/Canvassing.sol\":18727:18757  allResearchers[_walletAddress] */\n      dup7\n      dup2\n      and\n      0x00\n      swap1\n      dup2\n      mstore\n      dup3\n      dup6\n      mstore\n      dup4\n      swap1\n      keccak256\n        /* \"smart-contracts/playground/main/Canvassing.sol\":18727:18777  allResearchers[_walletAddress] = currentResearcher */\n      dup6\n      mload\n      dup2\n      sstore\n      swap4\n      dup6\n      add\n      mload\n      swap2\n      dup5\n      add\n      dup1\n      sload\n      not(sub(shl(0xa0, 0x01), 0x01))\n      and\n      swap3\n      swap1\n      swap2\n      and\n      swap2\n      swap1\n      swap2\n      or\n      swap1\n      sstore\n      dup3\n      add\n      mload\n        /* \"smart-contracts/playground/main/Canvassing.sol\":18682:18710  currentResearcher.isVerified */\n      swap2\n      swap3\n      pop\n      dup3\n      swap2\n        /* \"smart-contracts/playground/main/Canvassing.sol\":18604:18672  Researcher memory currentResearcher = allResearchers[_walletAddress] */\n      0x02\n        /* \"smart-contracts/playground/main/Canvassing.sol\":18727:18777  allResearchers[_walletAddress] = currentResearcher */\n      dup3\n      add\n      swap1\n      tag_514\n      swap1\n      dup3\n      tag_302\n      jump\t// in\n    tag_514:\n      pop\n      0x60\n      dup3\n      add\n      mload\n      0x03\n      dup3\n      add\n      sstore\n      0x80\n      dup3\n      add\n      mload\n      0x04\n      swap1\n      swap2\n      add\n      dup1\n      sload\n      0xa0\n      dup5\n      add\n      mload\n      0xc0\n      swap1\n      swap5\n      add\n      mload\n      iszero\n      iszero\n      0x010000\n      mul\n      not(0xff0000)\n      swap5\n      iszero\n      iszero\n      0x0100\n      mul\n      not(0xff00)\n      swap5\n      iszero\n      iszero\n      swap5\n      swap1\n      swap5\n      and\n      not(0xffff)\n      swap1\n      swap3\n      and\n      swap2\n      swap1\n      swap2\n      or\n      swap3\n      swap1\n      swap3\n      or\n      swap3\n      swap1\n      swap3\n      and\n      or\n      swap1\n      sstore\n      pop\n      pop\n        /* \"smart-contracts/playground/main/Canvassing.sol\":18537:18784  function verifyResearcher(address _walletAddress) public {... */\n      jump\t// out\n        /* \"smart-contracts/playground/main/Canvassing.sol\":3478:3575  function getAllSurveys() public view returns (Survey[] memory) {... */\n    tag_165:\n        /* \"smart-contracts/playground/main/Canvassing.sol\":3524:3539  Survey[] memory */\n      0x60\n        /* \"smart-contracts/playground/main/Canvassing.sol\":3558:3568  allSurveys */\n      0x03\n        /* \"smart-contracts/playground/main/Canvassing.sol\":3551:3568  return allSurveys */\n      dup1\n      sload\n      dup1\n      0x20\n      mul\n      0x20\n      add\n      mload(0x40)\n      swap1\n      dup2\n      add\n      0x40\n      mstore\n      dup1\n      swap3\n      swap2\n      swap1\n      dup2\n      dup2\n      mstore\n      0x20\n      add\n      0x00\n      swap1\n    tag_516:\n      dup3\n      dup3\n      lt\n      iszero\n      tag_517\n      jumpi\n      0x00\n      dup5\n      dup2\n      mstore\n      0x20\n      swap1\n      dup2\n      swap1\n      keccak256\n      0x40\n      dup1\n      mload\n      0xe0\n      dup2\n      add\n      dup3\n      mstore\n      0x07\n      dup7\n      mul\n      swap1\n      swap3\n      add\n      dup1\n      sload\n      dup4\n      mstore\n      0x01\n      dup2\n      add\n      sload\n      sub(shl(0xa0, 0x01), 0x01)\n      and\n      swap4\n      dup4\n      add\n      swap4\n      swap1\n      swap4\n      mstore\n      0x02\n      dup4\n      add\n      dup1\n      sload\n      swap3\n      swap4\n      swap3\n      swap2\n      dup5\n      add\n      swap2\n      tag_519\n      swap1\n      tag_252\n      jump\t// in\n    tag_519:\n      dup1\n      0x1f\n      add\n      0x20\n      dup1\n      swap2\n      div\n      mul\n      0x20\n      add\n      mload(0x40)\n      swap1\n      dup2\n      add\n      0x40\n      mstore\n      dup1\n      swap3\n      swap2\n      swap1\n      dup2\n      dup2\n      mstore\n      0x20\n      add\n      dup3\n      dup1\n      sload\n      tag_520\n      swap1\n      tag_252\n      jump\t// in\n    tag_520:\n      dup1\n      iszero\n      tag_521\n      jumpi\n      dup1\n      0x1f\n      lt\n      tag_522\n      jumpi\n      0x0100\n      dup1\n      dup4\n      sload\n      div\n      mul\n      dup4\n      mstore\n      swap2\n      0x20\n      add\n      swap2\n      jump(tag_521)\n    tag_522:\n      dup3\n      add\n      swap2\n      swap1\n      0x00\n      mstore\n      keccak256(0x00, 0x20)\n      swap1\n    tag_523:\n      dup2\n      sload\n      dup2\n      mstore\n      swap1\n      0x01\n      add\n      swap1\n      0x20\n      add\n      dup1\n      dup4\n      gt\n      tag_523\n      jumpi\n      dup3\n      swap1\n      sub\n      0x1f\n      and\n      dup3\n      add\n      swap2\n    tag_521:\n      pop\n      pop\n      pop\n      swap2\n      dup4\n      mstore\n      pop\n      pop\n      0x03\n      dup3\n      add\n      sload\n      0x20\n      dup1\n      dup4\n      add\n      swap2\n      swap1\n      swap2\n      mstore\n      0x04\n      dup4\n      add\n      sload\n      0x40\n      dup4\n      add\n      mstore\n      0x05\n      dup4\n      add\n      sload\n      0x60\n      dup4\n      add\n      mstore\n      0x06\n      swap1\n      swap3\n      add\n      sload\n      0xff\n      and\n      iszero\n      iszero\n      0x80\n      swap1\n      swap2\n      add\n      mstore\n      swap1\n      dup3\n      mstore\n      0x01\n      swap3\n      swap1\n      swap3\n      add\n      swap2\n      add\n      jump(tag_516)\n    tag_517:\n      pop\n      pop\n      pop\n      pop\n      swap1\n      pop\n        /* \"smart-contracts/playground/main/Canvassing.sol\":3478:3575  function getAllSurveys() public view returns (Survey[] memory) {... */\n      swap1\n      jump\t// out\n        /* \"smart-contracts/playground/main/Canvassing.sol\":1589:1617  Earning[] public allEarnings */\n    tag_173:\n      0x0d\n      dup2\n      dup2\n      sload\n      dup2\n      lt\n      tag_524\n      jumpi\n      0x00\n      dup1\n      revert\n    tag_524:\n      0x00\n      swap2\n      dup3\n      mstore\n      0x20\n      swap1\n      swap2\n      keccak256\n      0x05\n      swap1\n      swap2\n      mul\n      add\n      dup1\n      sload\n      0x01\n      dup3\n      add\n      sload\n      0x02\n      dup4\n      add\n      sload\n      0x03\n      dup5\n      add\n      sload\n      0x04\n      swap1\n      swap5\n      add\n      sload\n      swap3\n      swap5\n      pop\n      swap1\n      swap3\n      sub(shl(0xa0, 0x01), 0x01)\n      swap1\n      swap2\n      and\n      swap2\n      0xff\n      and\n      dup6\n      jump\t// out\n        /* \"smart-contracts/playground/main/Canvassing.sol\":1554:1582  Funding[] public allFundings */\n    tag_178:\n      0x0c\n      dup2\n      dup2\n      sload\n      dup2\n      lt\n      tag_524\n      jumpi\n      0x00\n      dup1\n      revert\n        /* \"smart-contracts/playground/main/Canvassing.sol\":21192:21370  function getParticipantsOfSurvey(uint256 _surveyId)... */\n    tag_182:\n        /* \"smart-contracts/playground/main/Canvassing.sol\":21289:21309  Participant[] memory */\n      0x60\n        /* \"smart-contracts/playground/main/Canvassing.sol\":21332:21352  participantsOfSurvey */\n      0x0b\n        /* \"smart-contracts/playground/main/Canvassing.sol\":21332:21363  participantsOfSurvey[_surveyId] */\n      0x00\n        /* \"smart-contracts/playground/main/Canvassing.sol\":21353:21362  _surveyId */\n      dup4\n        /* \"smart-contracts/playground/main/Canvassing.sol\":21332:21363  participantsOfSurvey[_surveyId] */\n      dup2\n      mstore\n      0x20\n      add\n      swap1\n      dup2\n      mstore\n      0x20\n      add\n      0x00\n      keccak256\n        /* \"smart-contracts/playground/main/Canvassing.sol\":21325:21363  return participantsOfSurvey[_surveyId] */\n      dup1\n      sload\n      dup1\n      0x20\n      mul\n      0x20\n      add\n      mload(0x40)\n      swap1\n      dup2\n      add\n      0x40\n      mstore\n      dup1\n      swap3\n      swap2\n      swap1\n      dup2\n      dup2\n      mstore\n      0x20\n      add\n      0x00\n      swap1\n    tag_529:\n      dup3\n      dup3\n      lt\n      iszero\n      tag_530\n      jumpi\n      0x00\n      dup5\n      dup2\n      mstore\n      0x20\n      swap1\n      dup2\n      swap1\n      keccak256\n      0x40\n      dup1\n      mload\n      0x0100\n      dup2\n      add\n      dup3\n      mstore\n      0x07\n      dup7\n      mul\n      swap1\n      swap3\n      add\n      dup1\n      sload\n      dup4\n      mstore\n      0x01\n      dup2\n      add\n      sload\n      sub(shl(0xa0, 0x01), 0x01)\n      and\n      swap4\n      dup4\n      add\n      swap4\n      swap1\n      swap4\n      mstore\n      0x02\n      dup4\n      add\n      dup1\n      sload\n      swap3\n      swap4\n      swap3\n      swap2\n      dup5\n      add\n      swap2\n      tag_532\n      swap1\n      tag_252\n      jump\t// in\n    tag_532:\n      dup1\n      0x1f\n      add\n      0x20\n      dup1\n      swap2\n      div\n      mul\n      0x20\n      add\n      mload(0x40)\n      swap1\n      dup2\n      add\n      0x40\n      mstore\n      dup1\n      swap3\n      swap2\n      swap1\n      dup2\n      dup2\n      mstore\n      0x20\n      add\n      dup3\n      dup1\n      sload\n      tag_533\n      swap1\n      tag_252\n      jump\t// in\n    tag_533:\n      dup1\n      iszero\n      tag_534\n      jumpi\n      dup1\n      0x1f\n      lt\n      tag_535\n      jumpi\n      0x0100\n      dup1\n      dup4\n      sload\n      div\n      mul\n      dup4\n      mstore\n      swap2\n      0x20\n      add\n      swap2\n      jump(tag_534)\n    tag_535:\n      dup3\n      add\n      swap2\n      swap1\n      0x00\n      mstore\n      keccak256(0x00, 0x20)\n      swap1\n    tag_536:\n      dup2\n      sload\n      dup2\n      mstore\n      swap1\n      0x01\n      add\n      swap1\n      0x20\n      add\n      dup1\n      dup4\n      gt\n      tag_536\n      jumpi\n      dup3\n      swap1\n      sub\n      0x1f\n      and\n      dup3\n      add\n      swap2\n    tag_534:\n      pop\n      pop\n      pop\n      pop\n      pop\n      dup2\n      mstore\n      0x20\n      add\n      0x03\n      dup3\n      add\n      dup1\n      sload\n      tag_537\n      swap1\n      tag_252\n      jump\t// in\n    tag_537:\n      dup1\n      0x1f\n      add\n      0x20\n      dup1\n      swap2\n      div\n      mul\n      0x20\n      add\n      mload(0x40)\n      swap1\n      dup2\n      add\n      0x40\n      mstore\n      dup1\n      swap3\n      swap2\n      swap1\n      dup2\n      dup2\n      mstore\n      0x20\n      add\n      dup3\n      dup1\n      sload\n      tag_538\n      swap1\n      tag_252\n      jump\t// in\n    tag_538:\n      dup1\n      iszero\n      tag_539\n      jumpi\n      dup1\n      0x1f\n      lt\n      tag_540\n      jumpi\n      0x0100\n      dup1\n      dup4\n      sload\n      div\n      mul\n      dup4\n      mstore\n      swap2\n      0x20\n      add\n      swap2\n      jump(tag_539)\n    tag_540:\n      dup3\n      add\n      swap2\n      swap1\n      0x00\n      mstore\n      keccak256(0x00, 0x20)\n      swap1\n    tag_541:\n      dup2\n      sload\n      dup2\n      mstore\n      swap1\n      0x01\n      add\n      swap1\n      0x20\n      add\n      dup1\n      dup4\n      gt\n      tag_541\n      jumpi\n      dup3\n      swap1\n      sub\n      0x1f\n      and\n      dup3\n      add\n      swap2\n    tag_539:\n      pop\n      pop\n      pop\n      swap2\n      dup4\n      mstore\n      pop\n      pop\n      0x04\n      dup3\n      add\n      sload\n      0x20\n      dup1\n      dup4\n      add\n      swap2\n      swap1\n      swap2\n      mstore\n      0x05\n      dup4\n      add\n      sload\n      0x40\n      dup4\n      add\n      mstore\n      0x06\n      swap1\n      swap3\n      add\n      sload\n      0xff\n      dup1\n      dup3\n      and\n      iszero\n      iszero\n      0x60\n      dup5\n      add\n      mstore\n      0x0100\n      swap1\n      swap2\n      div\n      and\n      iszero\n      iszero\n      0x80\n      swap1\n      swap2\n      add\n      mstore\n      swap1\n      dup3\n      mstore\n      0x01\n      swap3\n      swap1\n      swap3\n      add\n      swap2\n      add\n      jump(tag_529)\n    tag_530:\n      pop\n      pop\n      pop\n      pop\n      swap1\n      pop\n        /* \"smart-contracts/playground/main/Canvassing.sol\":21192:21370  function getParticipantsOfSurvey(uint256 _surveyId)... */\n      swap2\n      swap1\n      pop\n      jump\t// out\n        /* \"smart-contracts/playground/main/Canvassing.sol\":14264:14521  function checkIfResearcherExists(address _walletAddress)... */\n    tag_187:\n      sub(shl(0xa0, 0x01), 0x01)\n        /* \"smart-contracts/playground/main/Canvassing.sol\":14405:14467  allResearchers[_walletAddress].walletAddress == _walletAddress */\n      dup1\n      dup3\n      and\n        /* \"smart-contracts/playground/main/Canvassing.sol\":14366:14370  bool */\n      0x00\n        /* \"smart-contracts/playground/main/Canvassing.sol\":14405:14435  allResearchers[_walletAddress] */\n      dup2\n      dup2\n      mstore\n        /* \"smart-contracts/playground/main/Canvassing.sol\":14405:14419  allResearchers */\n      0x01\n        /* \"smart-contracts/playground/main/Canvassing.sol\":14405:14435  allResearchers[_walletAddress] */\n      0x20\n      dup2\n      swap1\n      mstore\n      0x40\n      dup3\n      keccak256\n        /* \"smart-contracts/playground/main/Canvassing.sol\":14405:14449  allResearchers[_walletAddress].walletAddress */\n      add\n      sload\n        /* \"smart-contracts/playground/main/Canvassing.sol\":14366:14370  bool */\n      swap1\n      swap3\n        /* \"smart-contracts/playground/main/Canvassing.sol\":14405:14449  allResearchers[_walletAddress].walletAddress */\n      and\n        /* \"smart-contracts/playground/main/Canvassing.sol\":14405:14467  allResearchers[_walletAddress].walletAddress == _walletAddress */\n      eq\n        /* \"smart-contracts/playground/main/Canvassing.sol\":14405:14514  allResearchers[_walletAddress].walletAddress == _walletAddress... */\n      tag_506\n      jumpi\n        /* \"smart-contracts/playground/main/Canvassing.sol\":14509:14514  false */\n      0x00\n        /* \"smart-contracts/playground/main/Canvassing.sol\":14405:14514  allResearchers[_walletAddress].walletAddress == _walletAddress... */\n      jump(tag_234)\n        /* \"smart-contracts/playground/main/Canvassing.sol\":17402:18531  function createFunding(... */\n    tag_197:\n        /* \"smart-contracts/playground/main/Canvassing.sol\":17598:17634  uint256 amountOfFundingOfSurveyInWei */\n      0x00\n        /* \"smart-contracts/playground/main/Canvassing.sol\":17637:17766  getAmountOfFundingOfAnySurveyInWei(... */\n      tag_547\n        /* \"smart-contracts/playground/main/Canvassing.sol\":17689:17707  _numberOfQuestions */\n      dup6\n        /* \"smart-contracts/playground/main/Canvassing.sol\":17725:17752  _targetNumberOfParticipants */\n      dup6\n        /* \"smart-contracts/playground/main/Canvassing.sol\":17637:17671  getAmountOfFundingOfAnySurveyInWei */\n      tag_54\n        /* \"smart-contracts/playground/main/Canvassing.sol\":17637:17766  getAmountOfFundingOfAnySurveyInWei(... */\n      jump\t// in\n    tag_547:\n        /* \"smart-contracts/playground/main/Canvassing.sol\":17800:17816  currentFundingId */\n      sload(0x14)\n      0x40\n      dup1\n      mload\n      0xa0\n      dup2\n      add\n      dup3\n      mstore\n      0x00\n      0x80\n      dup3\n      add\n      dup2\n      dup2\n      mstore\n        /* \"smart-contracts/playground/main/Canvassing.sol\":17863:17891  newFunding.id = newFundingId */\n      dup5\n      dup4\n      mstore\n      0x20\n      dup1\n      dup5\n      add\n        /* \"smart-contracts/playground/main/Canvassing.sol\":17901:17932  newFunding.surveyId = _surveyId */\n      dup11\n      dup2\n      mstore\n      sub(shl(0xa0, 0x01), 0x01)\n        /* \"smart-contracts/playground/main/Canvassing.sol\":17942:18011  newFunding.creatingResearcherWalletAddress = _researcherWalletAddress */\n      dup11\n      dup2\n      and\n      dup7\n      dup9\n      add\n      dup2\n      dup2\n      mstore\n      0x60\n      dup9\n      add\n        /* \"smart-contracts/playground/main/Canvassing.sol\":18021:18080  newFunding.amountFundedInWei = amountOfFundingOfSurveyInWei */\n      dup12\n      dup2\n      mstore\n        /* \"smart-contracts/playground/main/Canvassing.sol\":18091:18102  allFundings */\n      0x0c\n        /* \"smart-contracts/playground/main/Canvassing.sol\":18091:18119  allFundings.push(newFunding) */\n      dup1\n      sload\n      0x01\n      dup2\n      add\n      dup3\n      sstore\n      swap1\n      dup10\n      mstore\n      dup10\n      mload\n      0xdf6966c971051c3d54ec59162606531493a51404a002842f56009d7e5cf4a8c7\n      0x05\n      swap1\n      swap3\n      mul\n      swap2\n      dup3\n      add\n      sstore\n      swap5\n      mload\n      0xdf6966c971051c3d54ec59162606531493a51404a002842f56009d7e5cf4a8c8\n      dup7\n      add\n      sstore\n      swap1\n      mload\n      0xdf6966c971051c3d54ec59162606531493a51404a002842f56009d7e5cf4a8c9\n      dup6\n      add\n      dup1\n      sload\n      not(sub(shl(0xa0, 0x01), 0x01))\n      and\n      swap2\n      swap1\n      swap5\n      and\n      or\n      swap1\n      swap3\n      sstore\n      swap1\n      mload\n      0xdf6966c971051c3d54ec59162606531493a51404a002842f56009d7e5cf4a8ca\n      dup4\n      add\n      sstore\n      swap3\n      mload\n      0xdf6966c971051c3d54ec59162606531493a51404a002842f56009d7e5cf4a8cb\n      swap1\n      swap2\n      add\n      dup1\n      sload\n      not(0xff)\n      and\n      swap2\n      iszero\n      iszero\n      swap2\n      swap1\n      swap2\n      or\n      swap1\n      sstore\n        /* \"smart-contracts/playground/main/Canvassing.sol\":18182:18273  totalAmountFundedByResearchersInWei[... */\n      swap1\n      dup3\n      mstore\n        /* \"smart-contracts/playground/main/Canvassing.sol\":18182:18217  totalAmountFundedByResearchersInWei */\n      0x09\n        /* \"smart-contracts/playground/main/Canvassing.sol\":18182:18273  totalAmountFundedByResearchersInWei[... */\n      swap1\n      mstore\n      swap2\n      swap1\n      swap2\n      keccak256\n      sload\n        /* \"smart-contracts/playground/main/Canvassing.sol\":18021:18080  newFunding.amountFundedInWei = amountOfFundingOfSurveyInWei */\n      swap3\n      swap4\n      pop\n        /* \"smart-contracts/playground/main/Canvassing.sol\":17800:17816  currentFundingId */\n      swap1\n      swap2\n        /* \"smart-contracts/playground/main/Canvassing.sol\":18370:18443  currentTotalAmountFundedByResearcherInWei += amountOfFundingOfSurveyInWei */\n      tag_551\n        /* \"smart-contracts/playground/main/Canvassing.sol\":18021:18080  newFunding.amountFundedInWei = amountOfFundingOfSurveyInWei */\n      dup5\n        /* \"smart-contracts/playground/main/Canvassing.sol\":18182:18273  totalAmountFundedByResearchersInWei[... */\n      dup3\n        /* \"smart-contracts/playground/main/Canvassing.sol\":18370:18443  currentTotalAmountFundedByResearcherInWei += amountOfFundingOfSurveyInWei */\n      tag_238\n      jump\t// in\n    tag_551:\n      sub(shl(0xa0, 0x01), 0x01)\n        /* \"smart-contracts/playground/main/Canvassing.sol\":18284:18367  totalAmountFundedByResearchersInWei[... */\n      dup7\n      and\n      0x00\n      swap1\n      dup2\n      mstore\n        /* \"smart-contracts/playground/main/Canvassing.sol\":18284:18319  totalAmountFundedByResearchersInWei */\n      0x09\n        /* \"smart-contracts/playground/main/Canvassing.sol\":18284:18367  totalAmountFundedByResearchersInWei[... */\n      0x20\n      mstore\n      0x40\n      dup2\n      keccak256\n        /* \"smart-contracts/playground/main/Canvassing.sol\":18284:18443  totalAmountFundedByResearchersInWei[... */\n      dup3\n      swap1\n      sstore\n        /* \"smart-contracts/playground/main/Canvassing.sol\":18506:18522  currentFundingId */\n      0x14\n        /* \"smart-contracts/playground/main/Canvassing.sol\":18506:18524  currentFundingId++ */\n      dup1\n      sload\n        /* \"smart-contracts/playground/main/Canvassing.sol\":18370:18443  currentTotalAmountFundedByResearcherInWei += amountOfFundingOfSurveyInWei */\n      swap3\n      swap4\n      pop\n        /* \"smart-contracts/playground/main/Canvassing.sol\":18506:18522  currentFundingId */\n      swap1\n        /* \"smart-contracts/playground/main/Canvassing.sol\":18506:18524  currentFundingId++ */\n      tag_552\n      dup4\n      tag_281\n      jump\t// in\n    tag_552:\n      swap2\n      swap1\n      pop\n      sstore\n      pop\n        /* \"smart-contracts/playground/main/Canvassing.sol\":17588:18531  {... */\n      pop\n      pop\n      pop\n      pop\n        /* \"smart-contracts/playground/main/Canvassing.sol\":17402:18531  function createFunding(... */\n      pop\n      pop\n      pop\n      pop\n      jump\t// out\n        /* \"smart-contracts/playground/main/Canvassing.sol\":3581:3732  function getSurveyById(uint256 _surveyId)... */\n    tag_204:\n        /* \"smart-contracts/playground/main/Canvassing.sol\":3668:3681  Survey memory */\n      tag_553\n      tag_264\n      jump\t// in\n    tag_553:\n        /* \"smart-contracts/playground/main/Canvassing.sol\":3704:3714  allSurveys */\n      0x03\n        /* \"smart-contracts/playground/main/Canvassing.sol\":3715:3724  _surveyId */\n      dup3\n        /* \"smart-contracts/playground/main/Canvassing.sol\":3704:3725  allSurveys[_surveyId] */\n      dup2\n      sload\n      dup2\n      lt\n      tag_556\n      jumpi\n      tag_556\n      tag_270\n      jump\t// in\n    tag_556:\n      swap1\n      0x00\n      mstore\n      keccak256(0x00, 0x20)\n      swap1\n      0x07\n      mul\n      add\n        /* \"smart-contracts/playground/main/Canvassing.sol\":3697:3725  return allSurveys[_surveyId] */\n      mload(0x40)\n      dup1\n      0xe0\n      add\n      0x40\n      mstore\n      swap1\n      dup2\n      0x00\n      dup3\n      add\n      sload\n      dup2\n      mstore\n      0x20\n      add\n      0x01\n      dup3\n      add\n      0x00\n      swap1\n      sload\n      swap1\n      0x0100\n      exp\n      swap1\n      div\n      sub(shl(0xa0, 0x01), 0x01)\n      and\n      sub(shl(0xa0, 0x01), 0x01)\n      and\n      sub(shl(0xa0, 0x01), 0x01)\n      and\n      dup2\n      mstore\n      0x20\n      add\n      0x02\n      dup3\n      add\n      dup1\n      sload\n      tag_558\n      swap1\n      tag_252\n      jump\t// in\n    tag_558:\n      dup1\n      0x1f\n      add\n      0x20\n      dup1\n      swap2\n      div\n      mul\n      0x20\n      add\n      mload(0x40)\n      swap1\n      dup2\n      add\n      0x40\n      mstore\n      dup1\n      swap3\n      swap2\n      swap1\n      dup2\n      dup2\n      mstore\n      0x20\n      add\n      dup3\n      dup1\n      sload\n      tag_559\n      swap1\n      tag_252\n      jump\t// in\n    tag_559:\n      dup1\n      iszero\n      tag_560\n      jumpi\n      dup1\n      0x1f\n      lt\n      tag_561\n      jumpi\n      0x0100\n      dup1\n      dup4\n      sload\n      div\n      mul\n      dup4\n      mstore\n      swap2\n      0x20\n      add\n      swap2\n      jump(tag_560)\n    tag_561:\n      dup3\n      add\n      swap2\n      swap1\n      0x00\n      mstore\n      keccak256(0x00, 0x20)\n      swap1\n    tag_562:\n      dup2\n      sload\n      dup2\n      mstore\n      swap1\n      0x01\n      add\n      swap1\n      0x20\n      add\n      dup1\n      dup4\n      gt\n      tag_562\n      jumpi\n      dup3\n      swap1\n      sub\n      0x1f\n      and\n      dup3\n      add\n      swap2\n    tag_560:\n      pop\n      pop\n      pop\n      swap2\n      dup4\n      mstore\n      pop\n      pop\n      0x03\n      dup3\n      add\n      sload\n      0x20\n      dup3\n      add\n      mstore\n      0x04\n      dup3\n      add\n      sload\n      0x40\n      dup3\n      add\n      mstore\n      0x05\n      dup3\n      add\n      sload\n      0x60\n      dup3\n      add\n      mstore\n      0x06\n      swap1\n      swap2\n      add\n      sload\n      0xff\n      and\n      iszero\n      iszero\n      0x80\n      swap1\n      swap2\n      add\n      mstore\n      swap3\n        /* \"smart-contracts/playground/main/Canvassing.sol\":3581:3732  function getSurveyById(uint256 _surveyId)... */\n      swap2\n      pop\n      pop\n      jump\t// out\n        /* \"smart-contracts/playground/main/Canvassing.sol\":10639:12311  function participateInSurvey(... */\n    tag_210:\n      sub(shl(0xa0, 0x01), 0x01)\n        /* \"smart-contracts/playground/main/Canvassing.sol\":10838:10902  allParticipants[... */\n      dup1\n      dup4\n      and\n        /* \"smart-contracts/playground/main/Canvassing.sol\":10798:10835  Participant memory currentParticipant */\n      0x00\n        /* \"smart-contracts/playground/main/Canvassing.sol\":10838:10902  allParticipants[... */\n      swap1\n      dup2\n      mstore\n        /* \"smart-contracts/playground/main/Canvassing.sol\":10838:10853  allParticipants */\n      0x02\n        /* \"smart-contracts/playground/main/Canvassing.sol\":10838:10902  allParticipants[... */\n      0x20\n      dup2\n      dup2\n      mstore\n      0x40\n      dup1\n      dup5\n      keccak256\n        /* \"smart-contracts/playground/main/Canvassing.sol\":10798:10902  Participant memory currentParticipant = allParticipants[... */\n      dup2\n      mload\n      0x0100\n      dup2\n      add\n      dup4\n      mstore\n      dup2\n      sload\n      dup2\n      mstore\n      0x01\n      dup3\n      add\n      sload\n      swap1\n      swap7\n      and\n      swap3\n      dup7\n      add\n      swap3\n      swap1\n      swap3\n      mstore\n      swap2\n      dup2\n      add\n      dup1\n      sload\n        /* \"smart-contracts/playground/main/Canvassing.sol\":10798:10835  Participant memory currentParticipant */\n      swap4\n      swap5\n        /* \"smart-contracts/playground/main/Canvassing.sol\":10798:10902  Participant memory currentParticipant = allParticipants[... */\n      swap4\n        /* \"smart-contracts/playground/main/Canvassing.sol\":10838:10902  allParticipants[... */\n      swap2\n      swap3\n        /* \"smart-contracts/playground/main/Canvassing.sol\":10798:10902  Participant memory currentParticipant = allParticipants[... */\n      dup5\n      add\n      swap2\n      tag_564\n      swap1\n      tag_252\n      jump\t// in\n    tag_564:\n      dup1\n      0x1f\n      add\n      0x20\n      dup1\n      swap2\n      div\n      mul\n      0x20\n      add\n      mload(0x40)\n      swap1\n      dup2\n      add\n      0x40\n      mstore\n      dup1\n      swap3\n      swap2\n      swap1\n      dup2\n      dup2\n      mstore\n      0x20\n      add\n      dup3\n      dup1\n      sload\n      tag_565\n      swap1\n      tag_252\n      jump\t// in\n    tag_565:\n      dup1\n      iszero\n      tag_566\n      jumpi\n      dup1\n      0x1f\n      lt\n      tag_567\n      jumpi\n      0x0100\n      dup1\n      dup4\n      sload\n      div\n      mul\n      dup4\n      mstore\n      swap2\n      0x20\n      add\n      swap2\n      jump(tag_566)\n    tag_567:\n      dup3\n      add\n      swap2\n      swap1\n      0x00\n      mstore\n      keccak256(0x00, 0x20)\n      swap1\n    tag_568:\n      dup2\n      sload\n      dup2\n      mstore\n      swap1\n      0x01\n      add\n      swap1\n      0x20\n      add\n      dup1\n      dup4\n      gt\n      tag_568\n      jumpi\n      dup3\n      swap1\n      sub\n      0x1f\n      and\n      dup3\n      add\n      swap2\n    tag_566:\n      pop\n      pop\n      pop\n      pop\n      pop\n      dup2\n      mstore\n      0x20\n      add\n      0x03\n      dup3\n      add\n      dup1\n      sload\n      tag_569\n      swap1\n      tag_252\n      jump\t// in\n    tag_569:\n      dup1\n      0x1f\n      add\n      0x20\n      dup1\n      swap2\n      div\n      mul\n      0x20\n      add\n      mload(0x40)\n      swap1\n      dup2\n      add\n      0x40\n      mstore\n      dup1\n      swap3\n      swap2\n      swap1\n      dup2\n      dup2\n      mstore\n      0x20\n      add\n      dup3\n      dup1\n      sload\n      tag_570\n      swap1\n      tag_252\n      jump\t// in\n    tag_570:\n      dup1\n      iszero\n      tag_571\n      jumpi\n      dup1\n      0x1f\n      lt\n      tag_572\n      jumpi\n      0x0100\n      dup1\n      dup4\n      sload\n      div\n      mul\n      dup4\n      mstore\n      swap2\n      0x20\n      add\n      swap2\n      jump(tag_571)\n    tag_572:\n      dup3\n      add\n      swap2\n      swap1\n      0x00\n      mstore\n      keccak256(0x00, 0x20)\n      swap1\n    tag_573:\n      dup2\n      sload\n      dup2\n      mstore\n      swap1\n      0x01\n      add\n      swap1\n      0x20\n      add\n      dup1\n      dup4\n      gt\n      tag_573\n      jumpi\n      dup3\n      swap1\n      sub\n      0x1f\n      and\n      dup3\n      add\n      swap2\n    tag_571:\n      pop\n      pop\n      pop\n      swap2\n      dup4\n      mstore\n      pop\n      pop\n      0x04\n      dup3\n      add\n      sload\n      0x20\n      dup3\n      add\n      mstore\n      0x05\n      dup3\n      add\n      sload\n      0x40\n      dup3\n      add\n      mstore\n      0x06\n      swap1\n      swap2\n      add\n      sload\n      0xff\n      dup1\n      dup3\n      and\n      iszero\n      iszero\n      0x60\n      dup5\n      add\n      mstore\n      0x0100\n      swap1\n      swap2\n      div\n      and\n      iszero\n      iszero\n      0x80\n      swap1\n      swap2\n      add\n      mstore\n        /* \"smart-contracts/playground/main/Canvassing.sol\":10943:10953  allSurveys */\n      0x03\n        /* \"smart-contracts/playground/main/Canvassing.sol\":10943:10964  allSurveys[_surveyId] */\n      dup1\n      sload\n        /* \"smart-contracts/playground/main/Canvassing.sol\":10798:10902  Participant memory currentParticipant = allParticipants[... */\n      swap2\n      swap3\n      pop\n      0x00\n      swap2\n        /* \"smart-contracts/playground/main/Canvassing.sol\":10954:10963  _surveyId */\n      dup7\n      swap1\n        /* \"smart-contracts/playground/main/Canvassing.sol\":10943:10964  allSurveys[_surveyId] */\n      dup2\n      lt\n      tag_575\n      jumpi\n      tag_575\n      tag_270\n      jump\t// in\n    tag_575:\n      swap1\n      0x00\n      mstore\n      keccak256(0x00, 0x20)\n      swap1\n      0x07\n      mul\n      add\n        /* \"smart-contracts/playground/main/Canvassing.sol\":10913:10964  Survey memory currentSurvey = allSurveys[_surveyId] */\n      mload(0x40)\n      dup1\n      0xe0\n      add\n      0x40\n      mstore\n      swap1\n      dup2\n      0x00\n      dup3\n      add\n      sload\n      dup2\n      mstore\n      0x20\n      add\n      0x01\n      dup3\n      add\n      0x00\n      swap1\n      sload\n      swap1\n      0x0100\n      exp\n      swap1\n      div\n      sub(shl(0xa0, 0x01), 0x01)\n      and\n      sub(shl(0xa0, 0x01), 0x01)\n      and\n      sub(shl(0xa0, 0x01), 0x01)\n      and\n      dup2\n      mstore\n      0x20\n      add\n      0x02\n      dup3\n      add\n      dup1\n      sload\n      tag_577\n      swap1\n      tag_252\n      jump\t// in\n    tag_577:\n      dup1\n      0x1f\n      add\n      0x20\n      dup1\n      swap2\n      div\n      mul\n      0x20\n      add\n      mload(0x40)\n      swap1\n      dup2\n      add\n      0x40\n      mstore\n      dup1\n      swap3\n      swap2\n      swap1\n      dup2\n      dup2\n      mstore\n      0x20\n      add\n      dup3\n      dup1\n      sload\n      tag_578\n      swap1\n      tag_252\n      jump\t// in\n    tag_578:\n      dup1\n      iszero\n      tag_579\n      jumpi\n      dup1\n      0x1f\n      lt\n      tag_580\n      jumpi\n      0x0100\n      dup1\n      dup4\n      sload\n      div\n      mul\n      dup4\n      mstore\n      swap2\n      0x20\n      add\n      swap2\n      jump(tag_579)\n    tag_580:\n      dup3\n      add\n      swap2\n      swap1\n      0x00\n      mstore\n      keccak256(0x00, 0x20)\n      swap1\n    tag_581:\n      dup2\n      sload\n      dup2\n      mstore\n      swap1\n      0x01\n      add\n      swap1\n      0x20\n      add\n      dup1\n      dup4\n      gt\n      tag_581\n      jumpi\n      dup3\n      swap1\n      sub\n      0x1f\n      and\n      dup3\n      add\n      swap2\n    tag_579:\n      pop\n      pop\n      pop\n      swap2\n      dup4\n      mstore\n      pop\n      pop\n      0x03\n      dup3\n      add\n      sload\n      0x20\n      dup3\n      add\n      mstore\n      0x04\n      dup3\n      add\n      sload\n      0x40\n      dup3\n      add\n      mstore\n      0x05\n      dup3\n      add\n      sload\n      0x60\n      dup1\n      dup4\n      add\n      swap2\n      swap1\n      swap2\n      mstore\n      0x06\n      swap1\n      swap3\n      add\n      sload\n      0xff\n      and\n      iszero\n      iszero\n      0x80\n      swap1\n      swap2\n      add\n      mstore\n        /* \"smart-contracts/playground/main/Canvassing.sol\":11009:11040  currentSurvey.numberOfQuestions */\n      dup2\n      add\n      mload\n        /* \"smart-contracts/playground/main/Canvassing.sol\":10913:10964  Survey memory currentSurvey = allSurveys[_surveyId] */\n      swap1\n      swap2\n      pop\n      0x00\n        /* \"smart-contracts/playground/main/Canvassing.sol\":11107:11669  for (... */\n    tag_582:\n        /* \"smart-contracts/playground/main/Canvassing.sol\":11170:11193  numberOfExpectedAnswers */\n      dup2\n        /* \"smart-contracts/playground/main/Canvassing.sol\":11159:11167  answerId */\n      dup2\n        /* \"smart-contracts/playground/main/Canvassing.sol\":11159:11193  answerId < numberOfExpectedAnswers */\n      lt\n        /* \"smart-contracts/playground/main/Canvassing.sol\":11107:11669  for (... */\n      iszero\n      tag_583\n      jumpi\n        /* \"smart-contracts/playground/main/Canvassing.sol\":11242:11265  Answer memory newAnswer */\n      tag_585\n      tag_343\n      jump\t// in\n    tag_585:\n        /* \"smart-contracts/playground/main/Canvassing.sol\":11301:11316  currentAnswerId */\n      sload(0x12)\n        /* \"smart-contracts/playground/main/Canvassing.sol\":11330:11356  newAnswer.id = newAnswerId */\n      dup1\n      dup3\n      mstore\n        /* \"smart-contracts/playground/main/Canvassing.sol\":11370:11390  newAnswer.questionId */\n      0x20\n      dup3\n      add\n        /* \"smart-contracts/playground/main/Canvassing.sol\":11370:11401  newAnswer.questionId = answerId */\n      dup4\n      swap1\n      mstore\n        /* \"smart-contracts/playground/main/Canvassing.sol\":11415:11433  newAnswer.surveyId */\n      0x40\n      dup3\n      add\n        /* \"smart-contracts/playground/main/Canvassing.sol\":11415:11445  newAnswer.surveyId = _surveyId */\n      dup10\n      swap1\n      mstore\n      sub(shl(0xa0, 0x01), 0x01)\n        /* \"smart-contracts/playground/main/Canvassing.sol\":11459:11521  newAnswer.participantWalletAddress = _participantWalletAddress */\n      dup9\n      and\n        /* \"smart-contracts/playground/main/Canvassing.sol\":11459:11493  newAnswer.participantWalletAddress */\n      0x60\n      dup4\n      add\n        /* \"smart-contracts/playground/main/Canvassing.sol\":11459:11521  newAnswer.participantWalletAddress = _participantWalletAddress */\n      mstore\n        /* \"smart-contracts/playground/main/Canvassing.sol\":11553:11576  _answerValues[answerId] */\n      dup7\n      mload\n        /* \"smart-contracts/playground/main/Canvassing.sol\":11553:11566  _answerValues */\n      dup8\n      swap1\n        /* \"smart-contracts/playground/main/Canvassing.sol\":11393:11401  answerId */\n      dup5\n      swap1\n        /* \"smart-contracts/playground/main/Canvassing.sol\":11553:11576  _answerValues[answerId] */\n      dup2\n      lt\n      tag_587\n      jumpi\n      tag_587\n      tag_270\n      jump\t// in\n    tag_587:\n      0x20\n      swap1\n      dup2\n      mul\n      swap2\n      swap1\n      swap2\n      add\n      dup2\n      add\n      mload\n        /* \"smart-contracts/playground/main/Canvassing.sol\":11535:11576  newAnswer.value = _answerValues[answerId] */\n      iszero\n      iszero\n        /* \"smart-contracts/playground/main/Canvassing.sol\":11535:11550  newAnswer.value */\n      0x80\n      dup5\n      add\n        /* \"smart-contracts/playground/main/Canvassing.sol\":11535:11576  newAnswer.value = _answerValues[answerId] */\n      swap1\n      dup2\n      mstore\n        /* \"smart-contracts/playground/main/Canvassing.sol\":11590:11611  allAnswers[_surveyId] */\n      0x00\n      dup12\n      dup2\n      mstore\n        /* \"smart-contracts/playground/main/Canvassing.sol\":11590:11600  allAnswers */\n      0x05\n        /* \"smart-contracts/playground/main/Canvassing.sol\":11590:11611  allAnswers[_surveyId] */\n      dup4\n      mstore\n      0x40\n      dup1\n      dup3\n      keccak256\n        /* \"smart-contracts/playground/main/Canvassing.sol\":11590:11627  allAnswers[_surveyId].push(newAnswer) */\n      dup1\n      sload\n      0x01\n      dup2\n      dup2\n      add\n      dup4\n      sstore\n      swap2\n      dup5\n      mstore\n      dup6\n      dup5\n      keccak256\n      dup9\n      mload\n      0x04\n      swap1\n      swap3\n      mul\n      add\n      swap1\n      dup2\n      sstore\n      swap5\n      dup8\n      add\n      mload\n      swap1\n      dup6\n      add\n      sstore\n      dup6\n      add\n      mload\n      0x02\n      dup5\n      add\n      sstore\n      0x60\n      dup6\n      add\n      mload\n      0x03\n      swap1\n      swap4\n      add\n      dup1\n      sload\n      swap3\n      mload\n      0xa0\n      dup8\n      add\n      mload\n      iszero\n      iszero\n      shl(0xa8, 0x01)\n      mul\n      not(shl(0xa8, 0xff))\n      swap2\n      iszero\n      iszero\n      shl(0xa0, 0x01)\n      mul\n      not(sub(shl(0xa8, 0x01), 0x01))\n      swap1\n      swap6\n      and\n      sub(shl(0xa0, 0x01), 0x01)\n      swap1\n      swap7\n      and\n      swap6\n      swap1\n      swap6\n      or\n      swap4\n      swap1\n      swap4\n      or\n      swap3\n      swap1\n      swap3\n      and\n      swap3\n      swap1\n      swap3\n      or\n      swap1\n      sstore\n        /* \"smart-contracts/playground/main/Canvassing.sol\":11641:11656  currentAnswerId */\n      0x12\n        /* \"smart-contracts/playground/main/Canvassing.sol\":11641:11658  currentAnswerId++ */\n      dup1\n      sload\n      swap2\n      tag_589\n      dup4\n      tag_281\n      jump\t// in\n    tag_589:\n      swap2\n      swap1\n      pop\n      sstore\n      pop\n        /* \"smart-contracts/playground/main/Canvassing.sol\":11228:11669  {... */\n      pop\n      pop\n        /* \"smart-contracts/playground/main/Canvassing.sol\":11207:11217  answerId++ */\n      dup1\n      dup1\n      tag_590\n      swap1\n      tag_281\n      jump\t// in\n    tag_590:\n      swap2\n      pop\n      pop\n        /* \"smart-contracts/playground/main/Canvassing.sol\":11107:11669  for (... */\n      jump(tag_582)\n    tag_583:\n      pop\n        /* \"smart-contracts/playground/main/Canvassing.sol\":11752:11791  participationStatusForSurvey[_surveyId] */\n      0x00\n      dup7\n      dup2\n      mstore\n        /* \"smart-contracts/playground/main/Canvassing.sol\":11752:11780  participationStatusForSurvey */\n      0x06\n        /* \"smart-contracts/playground/main/Canvassing.sol\":11752:11791  participationStatusForSurvey[_surveyId] */\n      0x20\n      swap1\n      dup2\n      mstore\n      0x40\n      dup1\n      dup4\n      keccak256\n      sub(shl(0xa0, 0x01), 0x01)\n        /* \"smart-contracts/playground/main/Canvassing.sol\":11752:11840  participationStatusForSurvey[_surveyId][... */\n      dup10\n      and\n      dup5\n      mstore\n      dup3\n      mstore\n      dup1\n      dup4\n      keccak256\n        /* \"smart-contracts/playground/main/Canvassing.sol\":11752:11847  participationStatusForSurvey[_surveyId][... */\n      dup1\n      sload\n      not(0xff)\n      and\n        /* \"smart-contracts/playground/main/Canvassing.sol\":11843:11847  true */\n      0x01\n        /* \"smart-contracts/playground/main/Canvassing.sol\":11752:11847  participationStatusForSurvey[_surveyId][... */\n      or\n      swap1\n      sstore\n        /* \"smart-contracts/playground/main/Canvassing.sol\":11930:11961  participantsOfSurvey[_surveyId] */\n      dup9\n      dup4\n      mstore\n        /* \"smart-contracts/playground/main/Canvassing.sol\":11930:11950  participantsOfSurvey */\n      0x0b\n        /* \"smart-contracts/playground/main/Canvassing.sol\":11930:11961  participantsOfSurvey[_surveyId] */\n      swap1\n      swap2\n      mstore\n      swap1\n      keccak256\n        /* \"smart-contracts/playground/main/Canvassing.sol\":11980:12036  getParticipantByWalletAddress(_participantWalletAddress) */\n      tag_591\n        /* \"smart-contracts/playground/main/Canvassing.sol\":11805:11830  _participantWalletAddress */\n      dup7\n        /* \"smart-contracts/playground/main/Canvassing.sol\":11980:12009  getParticipantByWalletAddress */\n      tag_95\n        /* \"smart-contracts/playground/main/Canvassing.sol\":11980:12036  getParticipantByWalletAddress(_participantWalletAddress) */\n      jump\t// in\n    tag_591:\n        /* \"smart-contracts/playground/main/Canvassing.sol\":11930:12046  participantsOfSurvey[_surveyId].push(... */\n      dup2\n      sload\n      0x01\n      dup1\n      dup3\n      add\n      dup5\n      sstore\n      0x00\n      swap4\n      dup5\n      mstore\n      0x20\n      swap4\n      dup5\n      swap1\n      keccak256\n      dup4\n      mload\n      0x07\n      swap1\n      swap4\n      mul\n      add\n      swap2\n      dup3\n      sstore\n      swap3\n      dup3\n      add\n      mload\n      swap3\n      dup2\n      add\n      dup1\n      sload\n      not(sub(shl(0xa0, 0x01), 0x01))\n      and\n      sub(shl(0xa0, 0x01), 0x01)\n      swap1\n      swap5\n      and\n      swap4\n      swap1\n      swap4\n      or\n      swap1\n      swap3\n      sstore\n      0x40\n      dup2\n      add\n      mload\n      swap1\n      swap2\n      swap1\n      0x02\n      dup3\n      add\n      swap1\n      tag_593\n      swap1\n      dup3\n      tag_302\n      jump\t// in\n    tag_593:\n      pop\n      0x60\n      dup3\n      add\n      mload\n      0x03\n      dup3\n      add\n      swap1\n      tag_594\n      swap1\n      dup3\n      tag_302\n      jump\t// in\n    tag_594:\n      pop\n      0x80\n      dup3\n      add\n      mload\n      0x04\n      dup3\n      add\n      sstore\n      0xa0\n      dup1\n      dup4\n      add\n      mload\n      0x05\n      dup4\n      add\n      sstore\n      0xc0\n      dup4\n      add\n      mload\n      0x06\n      swap1\n      swap3\n      add\n      dup1\n      sload\n      0xe0\n      swap1\n      swap5\n      add\n      mload\n      iszero\n      iszero\n      0x0100\n      mul\n      not(0xff00)\n      swap4\n      iszero\n      iszero\n      swap4\n      swap1\n      swap4\n      and\n      not(0xffff)\n      swap1\n      swap5\n      and\n      swap4\n      swap1\n      swap4\n      or\n      swap2\n      swap1\n      swap2\n      or\n      swap1\n      swap2\n      sstore\n        /* \"smart-contracts/playground/main/Canvassing.sol\":12144:12188  currentParticipant.totalNumberOfSurveysTaken */\n      dup4\n      add\n        /* \"smart-contracts/playground/main/Canvassing.sol\":12144:12193  currentParticipant.totalNumberOfSurveysTaken += 1 */\n      dup1\n      mload\n        /* \"smart-contracts/playground/main/Canvassing.sol\":11930:12046  participantsOfSurvey[_surveyId].push(... */\n      0x01\n      swap2\n        /* \"smart-contracts/playground/main/Canvassing.sol\":12144:12188  currentParticipant.totalNumberOfSurveysTaken */\n      swap1\n        /* \"smart-contracts/playground/main/Canvassing.sol\":12144:12193  currentParticipant.totalNumberOfSurveysTaken += 1 */\n      tag_595\n      swap1\n        /* \"smart-contracts/playground/main/Canvassing.sol\":11930:12046  participantsOfSurvey[_surveyId].push(... */\n      dup4\n      swap1\n        /* \"smart-contracts/playground/main/Canvassing.sol\":12144:12193  currentParticipant.totalNumberOfSurveysTaken += 1 */\n      tag_238\n      jump\t// in\n    tag_595:\n      swap1\n      mstore\n      pop\n      sub(shl(0xa0, 0x01), 0x01)\n        /* \"smart-contracts/playground/main/Canvassing.sol\":12241:12283  allParticipants[_participantWalletAddress] */\n      dup6\n      dup2\n      and\n      0x00\n      swap1\n      dup2\n      mstore\n        /* \"smart-contracts/playground/main/Canvassing.sol\":12241:12256  allParticipants */\n      0x02\n        /* \"smart-contracts/playground/main/Canvassing.sol\":12241:12283  allParticipants[_participantWalletAddress] */\n      0x20\n      dup2\n      dup2\n      mstore\n      0x40\n      swap3\n      dup4\n      swap1\n      keccak256\n        /* \"smart-contracts/playground/main/Canvassing.sol\":12241:12304  allParticipants[_participantWalletAddress] = currentParticipant */\n      dup8\n      mload\n      dup2\n      sstore\n      swap1\n      dup8\n      add\n      mload\n      0x01\n      dup3\n      add\n      dup1\n      sload\n      not(sub(shl(0xa0, 0x01), 0x01))\n      and\n      swap2\n      swap1\n      swap6\n      and\n      or\n      swap1\n      swap4\n      sstore\n      swap1\n      dup6\n      add\n      mload\n      dup6\n      swap3\n        /* \"smart-contracts/playground/main/Canvassing.sol\":12241:12283  allParticipants[_participantWalletAddress] */\n      swap2\n        /* \"smart-contracts/playground/main/Canvassing.sol\":12241:12304  allParticipants[_participantWalletAddress] = currentParticipant */\n      dup3\n      add\n      swap1\n      tag_596\n      swap1\n      dup3\n      tag_302\n      jump\t// in\n    tag_596:\n      pop\n      0x60\n      dup3\n      add\n      mload\n      0x03\n      dup3\n      add\n      swap1\n      tag_597\n      swap1\n      dup3\n      tag_302\n      jump\t// in\n    tag_597:\n      pop\n      0x80\n      dup3\n      add\n      mload\n      0x04\n      dup3\n      add\n      sstore\n      0xa0\n      dup3\n      add\n      mload\n      0x05\n      dup3\n      add\n      sstore\n      0xc0\n      dup3\n      add\n      mload\n      0x06\n      swap1\n      swap2\n      add\n      dup1\n      sload\n      0xe0\n      swap1\n      swap4\n      add\n      mload\n      iszero\n      iszero\n      0x0100\n      mul\n      not(0xff00)\n      swap3\n      iszero\n      iszero\n      swap3\n      swap1\n      swap3\n      and\n      not(0xffff)\n      swap1\n      swap4\n      and\n      swap3\n      swap1\n      swap3\n      or\n      or\n      swap1\n      sstore\n      pop\n      pop\n      pop\n      pop\n      pop\n      pop\n        /* \"smart-contracts/playground/main/Canvassing.sol\":10639:12311  function participateInSurvey(... */\n      jump\t// out\n        /* \"smart-contracts/playground/main/Canvassing.sol\":21376:21534  function getAnswersOfSurvey(uint256 _surveyId)... */\n    tag_213:\n        /* \"smart-contracts/playground/main/Canvassing.sol\":21468:21483  Answer[] memory */\n      0x60\n        /* \"smart-contracts/playground/main/Canvassing.sol\":21506:21516  allAnswers */\n      0x05\n        /* \"smart-contracts/playground/main/Canvassing.sol\":21506:21527  allAnswers[_surveyId] */\n      0x00\n        /* \"smart-contracts/playground/main/Canvassing.sol\":21517:21526  _surveyId */\n      dup4\n        /* \"smart-contracts/playground/main/Canvassing.sol\":21506:21527  allAnswers[_surveyId] */\n      dup2\n      mstore\n      0x20\n      add\n      swap1\n      dup2\n      mstore\n      0x20\n      add\n      0x00\n      keccak256\n        /* \"smart-contracts/playground/main/Canvassing.sol\":21499:21527  return allAnswers[_surveyId] */\n      dup1\n      sload\n      dup1\n      0x20\n      mul\n      0x20\n      add\n      mload(0x40)\n      swap1\n      dup2\n      add\n      0x40\n      mstore\n      dup1\n      swap3\n      swap2\n      swap1\n      dup2\n      dup2\n      mstore\n      0x20\n      add\n      0x00\n      swap1\n    tag_599:\n      dup3\n      dup3\n      lt\n      iszero\n      tag_530\n      jumpi\n      0x00\n      dup5\n      dup2\n      mstore\n      0x20\n      swap1\n      dup2\n      swap1\n      keccak256\n      0x40\n      dup1\n      mload\n      0xc0\n      dup2\n      add\n      dup3\n      mstore\n      0x04\n      dup7\n      mul\n      swap1\n      swap3\n      add\n      dup1\n      sload\n      dup4\n      mstore\n      0x01\n      dup1\n      dup3\n      add\n      sload\n      dup5\n      dup7\n      add\n      mstore\n      0x02\n      dup3\n      add\n      sload\n      swap3\n      dup5\n      add\n      swap3\n      swap1\n      swap3\n      mstore\n      0x03\n      add\n      sload\n      sub(shl(0xa0, 0x01), 0x01)\n      dup2\n      and\n      0x60\n      dup5\n      add\n      mstore\n      0xff\n      shl(0xa0, 0x01)\n      dup3\n      div\n      dup2\n      and\n      iszero\n      iszero\n      0x80\n      dup6\n      add\n      mstore\n      shl(0xa8, 0x01)\n      swap1\n      swap2\n      div\n      and\n      iszero\n      iszero\n      0xa0\n      dup4\n      add\n      mstore\n      swap1\n      dup4\n      mstore\n      swap1\n      swap3\n      add\n      swap2\n      add\n      jump(tag_599)\n        /* \"smart-contracts/playground/main/Canvassing.sol\":6808:6975  function getAllQuestionsOfSurvey(uint256 _surveyId)... */\n    tag_221:\n        /* \"smart-contracts/playground/main/Canvassing.sol\":6905:6922  Question[] memory */\n      0x60\n        /* \"smart-contracts/playground/main/Canvassing.sol\":6945:6957  allQuestions */\n      0x04\n        /* \"smart-contracts/playground/main/Canvassing.sol\":6945:6968  allQuestions[_surveyId] */\n      0x00\n        /* \"smart-contracts/playground/main/Canvassing.sol\":6958:6967  _surveyId */\n      dup4\n        /* \"smart-contracts/playground/main/Canvassing.sol\":6945:6968  allQuestions[_surveyId] */\n      dup2\n      mstore\n      0x20\n      add\n      swap1\n      dup2\n      mstore\n      0x20\n      add\n      0x00\n      keccak256\n        /* \"smart-contracts/playground/main/Canvassing.sol\":6938:6968  return allQuestions[_surveyId] */\n      dup1\n      sload\n      dup1\n      0x20\n      mul\n      0x20\n      add\n      mload(0x40)\n      swap1\n      dup2\n      add\n      0x40\n      mstore\n      dup1\n      swap3\n      swap2\n      swap1\n      dup2\n      dup2\n      mstore\n      0x20\n      add\n      0x00\n      swap1\n    tag_603:\n      dup3\n      dup3\n      lt\n      iszero\n      tag_530\n      jumpi\n      dup4\n      dup3\n      swap1\n      0x00\n      mstore\n      keccak256(0x00, 0x20)\n      swap1\n      0x04\n      mul\n      add\n      mload(0x40)\n      dup1\n      0x80\n      add\n      0x40\n      mstore\n      swap1\n      dup2\n      0x00\n      dup3\n      add\n      sload\n      dup2\n      mstore\n      0x20\n      add\n      0x01\n      dup3\n      add\n      sload\n      dup2\n      mstore\n      0x20\n      add\n      0x02\n      dup3\n      add\n      dup1\n      sload\n      tag_606\n      swap1\n      tag_252\n      jump\t// in\n    tag_606:\n      dup1\n      0x1f\n      add\n      0x20\n      dup1\n      swap2\n      div\n      mul\n      0x20\n      add\n      mload(0x40)\n      swap1\n      dup2\n      add\n      0x40\n      mstore\n      dup1\n      swap3\n      swap2\n      swap1\n      dup2\n      dup2\n      mstore\n      0x20\n      add\n      dup3\n      dup1\n      sload\n      tag_607\n      swap1\n      tag_252\n      jump\t// in\n    tag_607:\n      dup1\n      iszero\n      tag_608\n      jumpi\n      dup1\n      0x1f\n      lt\n      tag_609\n      jumpi\n      0x0100\n      dup1\n      dup4\n      sload\n      div\n      mul\n      dup4\n      mstore\n      swap2\n      0x20\n      add\n      swap2\n      jump(tag_608)\n    tag_609:\n      dup3\n      add\n      swap2\n      swap1\n      0x00\n      mstore\n      keccak256(0x00, 0x20)\n      swap1\n    tag_610:\n      dup2\n      sload\n      dup2\n      mstore\n      swap1\n      0x01\n      add\n      swap1\n      0x20\n      add\n      dup1\n      dup4\n      gt\n      tag_610\n      jumpi\n      dup3\n      swap1\n      sub\n      0x1f\n      and\n      dup3\n      add\n      swap2\n    tag_608:\n      pop\n      pop\n      pop\n      swap2\n      dup4\n      mstore\n      pop\n      pop\n      0x03\n      swap2\n      swap1\n      swap2\n      add\n      sload\n      0xff\n      and\n      iszero\n      iszero\n      0x20\n      swap2\n      dup3\n      add\n      mstore\n      swap1\n      dup3\n      mstore\n      0x01\n      swap3\n      swap1\n      swap3\n      add\n      swap2\n      add\n      jump(tag_603)\n        /* \"smart-contracts/playground/main/Canvassing.sol\":404:456  mapping(address => Researcher) public allResearchers */\n    tag_226:\n      0x01\n      0x20\n      dup2\n      swap1\n      mstore\n      0x00\n      swap2\n      dup3\n      mstore\n      0x40\n      swap1\n      swap2\n      keccak256\n      dup1\n      sload\n      swap2\n      dup2\n      add\n      sload\n      0x02\n      dup3\n      add\n      dup1\n      sload\n      sub(shl(0xa0, 0x01), 0x01)\n      swap1\n      swap3\n      and\n      swap3\n      swap2\n      tag_611\n      swap1\n      tag_252\n      jump\t// in\n    tag_611:\n      dup1\n      0x1f\n      add\n      0x20\n      dup1\n      swap2\n      div\n      mul\n      0x20\n      add\n      mload(0x40)\n      swap1\n      dup2\n      add\n      0x40\n      mstore\n      dup1\n      swap3\n      swap2\n      swap1\n      dup2\n      dup2\n      mstore\n      0x20\n      add\n      dup3\n      dup1\n      sload\n      tag_612\n      swap1\n      tag_252\n      jump\t// in\n    tag_612:\n      dup1\n      iszero\n      tag_613\n      jumpi\n      dup1\n      0x1f\n      lt\n      tag_614\n      jumpi\n      0x0100\n      dup1\n      dup4\n      sload\n      div\n      mul\n      dup4\n      mstore\n      swap2\n      0x20\n      add\n      swap2\n      jump(tag_613)\n    tag_614:\n      dup3\n      add\n      swap2\n      swap1\n      0x00\n      mstore\n      keccak256(0x00, 0x20)\n      swap1\n    tag_615:\n      dup2\n      sload\n      dup2\n      mstore\n      swap1\n      0x01\n      add\n      swap1\n      0x20\n      add\n      dup1\n      dup4\n      gt\n      tag_615\n      jumpi\n      dup3\n      swap1\n      sub\n      0x1f\n      and\n      dup3\n      add\n      swap2\n    tag_613:\n      pop\n      pop\n      pop\n      pop\n      0x03\n      dup4\n      add\n      sload\n      0x04\n      swap1\n      swap4\n      add\n      sload\n      swap2\n      swap3\n      swap2\n      0xff\n      dup1\n      dup3\n      and\n      swap3\n      pop\n      0x0100\n      dup3\n      div\n      dup2\n      and\n      swap2\n      0x010000\n      swap1\n      div\n      and\n      dup8\n      jump\t// out\n        /* \"smart-contracts/playground/main/Canvassing.sol\":630:680  mapping(uint256 => Question[]) public allQuestions */\n    tag_231:\n      mstore(0x20, 0x04)\n      dup2\n      0x00\n      mstore\n      keccak256(0x00, 0x40)\n      dup2\n      dup2\n      sload\n      dup2\n      lt\n      tag_616\n      jumpi\n      0x00\n      dup1\n      revert\n    tag_616:\n      swap1\n      0x00\n      mstore\n      keccak256(0x00, 0x20)\n      swap1\n      0x04\n      mul\n      add\n      0x00\n      swap2\n      pop\n      swap2\n      pop\n      pop\n      dup1\n      0x00\n      add\n      sload\n      swap1\n      dup1\n      0x01\n      add\n      sload\n      swap1\n      dup1\n      0x02\n      add\n      dup1\n      sload\n      tag_618\n      swap1\n      tag_252\n      jump\t// in\n    tag_618:\n      dup1\n      0x1f\n      add\n      0x20\n      dup1\n      swap2\n      div\n      mul\n      0x20\n      add\n      mload(0x40)\n      swap1\n      dup2\n      add\n      0x40\n      mstore\n      dup1\n      swap3\n      swap2\n      swap1\n      dup2\n      dup2\n      mstore\n      0x20\n      add\n      dup3\n      dup1\n      sload\n      tag_619\n      swap1\n      tag_252\n      jump\t// in\n    tag_619:\n      dup1\n      iszero\n      tag_620\n      jumpi\n      dup1\n      0x1f\n      lt\n      tag_621\n      jumpi\n      0x0100\n      dup1\n      dup4\n      sload\n      div\n      mul\n      dup4\n      mstore\n      swap2\n      0x20\n      add\n      swap2\n      jump(tag_620)\n    tag_621:\n      dup3\n      add\n      swap2\n      swap1\n      0x00\n      mstore\n      keccak256(0x00, 0x20)\n      swap1\n    tag_622:\n      dup2\n      sload\n      dup2\n      mstore\n      swap1\n      0x01\n      add\n      swap1\n      0x20\n      add\n      dup1\n      dup4\n      gt\n      tag_622\n      jumpi\n      dup3\n      swap1\n      sub\n      0x1f\n      and\n      dup3\n      add\n      swap2\n    tag_620:\n      pop\n      pop\n      pop\n      0x03\n      swap1\n      swap4\n      add\n      sload\n      swap2\n      swap3\n      pop\n      pop\n      0xff\n      and\n      dup5\n      jump\t// out\n    tag_249:\n      mload(0x40)\n      dup1\n      0xe0\n      add\n      0x40\n      mstore\n      dup1\n      0x00\n      dup2\n      mstore\n      0x20\n      add\n      and(sub(shl(0xa0, 0x01), 0x01), 0x00)\n      dup2\n      mstore\n      0x20\n      add\n      0x60\n      dup2\n      mstore\n      0x20\n      add\n      0x00\n      dup2\n      mstore\n      0x20\n      add\n      iszero(iszero(0x00))\n      dup2\n      mstore\n      0x20\n      add\n      iszero(iszero(0x00))\n      dup2\n      mstore\n      0x20\n      add\n      iszero(iszero(0x00))\n      dup2\n      mstore\n      pop\n      swap1\n      jump\t// out\n    tag_264:\n      mload(0x40)\n      dup1\n      0xe0\n      add\n      0x40\n      mstore\n      dup1\n      0x00\n      dup2\n      mstore\n      0x20\n      add\n      and(sub(shl(0xa0, 0x01), 0x01), 0x00)\n      dup2\n      mstore\n      0x20\n      add\n      0x60\n      dup2\n      mstore\n      0x20\n      add\n      0x00\n      dup2\n      mstore\n      0x20\n      add\n      0x00\n      dup2\n      mstore\n      0x20\n      add\n      0x00\n      dup2\n      mstore\n      0x20\n      add\n      iszero(iszero(0x00))\n      dup2\n      mstore\n      pop\n      swap1\n      jump\t// out\n    tag_343:\n      mload(0x40)\n      dup1\n      0xc0\n      add\n      0x40\n      mstore\n      dup1\n      0x00\n      dup2\n      mstore\n      0x20\n      add\n      0x00\n      dup2\n      mstore\n      0x20\n      add\n      0x00\n      dup2\n      mstore\n      0x20\n      add\n      and(sub(shl(0xa0, 0x01), 0x01), 0x00)\n      dup2\n      mstore\n      0x20\n      add\n      iszero(iszero(0x00))\n      dup2\n      mstore\n      0x20\n      add\n      iszero(iszero(0x00))\n      dup2\n      mstore\n      pop\n      swap1\n      jump\t// out\n    tag_356:\n      mload(0x40)\n      dup1\n      0x0100\n      add\n      0x40\n      mstore\n      dup1\n      0x00\n      dup2\n      mstore\n      0x20\n      add\n      and(sub(shl(0xa0, 0x01), 0x01), 0x00)\n      dup2\n      mstore\n      0x20\n      add\n      0x60\n      dup2\n      mstore\n      0x20\n      add\n      0x60\n      dup2\n      mstore\n      0x20\n      add\n      0x00\n      dup2\n      mstore\n      0x20\n      add\n      0x00\n      dup2\n      mstore\n      0x20\n      add\n      iszero(iszero(0x00))\n      dup2\n      mstore\n      0x20\n      add\n      iszero(iszero(0x00))\n      dup2\n      mstore\n      pop\n      swap1\n      jump\t// out\n    tag_374:\n      mload(0x40)\n      dup1\n      0xa0\n      add\n      0x40\n      mstore\n      dup1\n      0x00\n      dup2\n      mstore\n      0x20\n      add\n      0x00\n      dup2\n      mstore\n      0x20\n      add\n      and(sub(shl(0xa0, 0x01), 0x01), 0x00)\n      dup2\n      mstore\n      0x20\n      add\n      0x00\n      dup2\n      mstore\n      0x20\n      add\n      iszero(iszero(0x00))\n      dup2\n      mstore\n      pop\n      swap1\n      jump\t// out\n        /* \"#utility.yul\":14:262   */\n    tag_53:\n        /* \"#utility.yul\":82:88   */\n      0x00\n        /* \"#utility.yul\":90:96   */\n      dup1\n        /* \"#utility.yul\":143:145   */\n      0x40\n        /* \"#utility.yul\":131:140   */\n      dup4\n        /* \"#utility.yul\":122:129   */\n      dup6\n        /* \"#utility.yul\":118:141   */\n      sub\n        /* \"#utility.yul\":114:146   */\n      slt\n        /* \"#utility.yul\":111:163   */\n      iszero\n      tag_638\n      jumpi\n        /* \"#utility.yul\":159:160   */\n      0x00\n        /* \"#utility.yul\":156:157   */\n      dup1\n        /* \"#utility.yul\":149:161   */\n      revert\n        /* \"#utility.yul\":111:163   */\n    tag_638:\n      pop\n      pop\n        /* \"#utility.yul\":182:205   */\n      dup1\n      calldataload\n      swap3\n        /* \"#utility.yul\":252:254   */\n      0x20\n        /* \"#utility.yul\":237:255   */\n      swap1\n      swap2\n      add\n        /* \"#utility.yul\":224:256   */\n      calldataload\n      swap2\n      pop\n        /* \"#utility.yul\":14:262   */\n      jump\t// out\n        /* \"#utility.yul\":449:622   */\n    tag_623:\n        /* \"#utility.yul\":517:537   */\n      dup1\n      calldataload\n      sub(shl(0xa0, 0x01), 0x01)\n        /* \"#utility.yul\":566:597   */\n      dup2\n      and\n        /* \"#utility.yul\":556:598   */\n      dup2\n      eq\n        /* \"#utility.yul\":546:616   */\n      tag_641\n      jumpi\n        /* \"#utility.yul\":612:613   */\n      0x00\n        /* \"#utility.yul\":609:610   */\n      dup1\n        /* \"#utility.yul\":602:614   */\n      revert\n        /* \"#utility.yul\":546:616   */\n    tag_641:\n        /* \"#utility.yul\":449:622   */\n      swap2\n      swap1\n      pop\n      jump\t// out\n        /* \"#utility.yul\":627:813   */\n    tag_59:\n        /* \"#utility.yul\":686:692   */\n      0x00\n        /* \"#utility.yul\":739:741   */\n      0x20\n        /* \"#utility.yul\":727:736   */\n      dup3\n        /* \"#utility.yul\":718:725   */\n      dup5\n        /* \"#utility.yul\":714:737   */\n      sub\n        /* \"#utility.yul\":710:742   */\n      slt\n        /* \"#utility.yul\":707:759   */\n      iszero\n      tag_643\n      jumpi\n        /* \"#utility.yul\":755:756   */\n      0x00\n        /* \"#utility.yul\":752:753   */\n      dup1\n        /* \"#utility.yul\":745:757   */\n      revert\n        /* \"#utility.yul\":707:759   */\n    tag_643:\n        /* \"#utility.yul\":778:807   */\n      tag_644\n        /* \"#utility.yul\":797:806   */\n      dup3\n        /* \"#utility.yul\":778:807   */\n      tag_623\n      jump\t// in\n    tag_644:\n        /* \"#utility.yul\":768:807   */\n      swap4\n        /* \"#utility.yul\":627:813   */\n      swap3\n      pop\n      pop\n      pop\n      jump\t// out\n        /* \"#utility.yul\":818:1241   */\n    tag_624:\n        /* \"#utility.yul\":860:863   */\n      0x00\n        /* \"#utility.yul\":898:903   */\n      dup2\n        /* \"#utility.yul\":892:904   */\n      mload\n        /* \"#utility.yul\":925:931   */\n      dup1\n        /* \"#utility.yul\":920:923   */\n      dup5\n        /* \"#utility.yul\":913:932   */\n      mstore\n        /* \"#utility.yul\":950:951   */\n      0x00\n        /* \"#utility.yul\":960:1122   */\n    tag_646:\n        /* \"#utility.yul\":974:980   */\n      dup2\n        /* \"#utility.yul\":971:972   */\n      dup2\n        /* \"#utility.yul\":968:981   */\n      lt\n        /* \"#utility.yul\":960:1122   */\n      iszero\n      tag_648\n      jumpi\n        /* \"#utility.yul\":1036:1040   */\n      0x20\n        /* \"#utility.yul\":1092:1105   */\n      dup2\n      dup6\n      add\n        /* \"#utility.yul\":1088:1110   */\n      dup2\n      add\n        /* \"#utility.yul\":1082:1111   */\n      mload\n        /* \"#utility.yul\":1064:1075   */\n      dup7\n      dup4\n      add\n        /* \"#utility.yul\":1060:1080   */\n      dup3\n      add\n        /* \"#utility.yul\":1053:1112   */\n      mstore\n        /* \"#utility.yul\":989:1001   */\n      add\n        /* \"#utility.yul\":960:1122   */\n      jump(tag_646)\n    tag_648:\n        /* \"#utility.yul\":964:967   */\n      pop\n        /* \"#utility.yul\":1167:1168   */\n      0x00\n        /* \"#utility.yul\":1160:1164   */\n      0x20\n        /* \"#utility.yul\":1151:1157   */\n      dup3\n        /* \"#utility.yul\":1146:1149   */\n      dup7\n        /* \"#utility.yul\":1142:1158   */\n      add\n        /* \"#utility.yul\":1138:1165   */\n      add\n        /* \"#utility.yul\":1131:1169   */\n      mstore\n        /* \"#utility.yul\":1230:1234   */\n      0x20\n        /* \"#utility.yul\":1223:1225   */\n      0x1f\n        /* \"#utility.yul\":1219:1226   */\n      not\n        /* \"#utility.yul\":1214:1216   */\n      0x1f\n        /* \"#utility.yul\":1206:1212   */\n      dup4\n        /* \"#utility.yul\":1202:1217   */\n      add\n        /* \"#utility.yul\":1198:1227   */\n      and\n        /* \"#utility.yul\":1193:1196   */\n      dup6\n        /* \"#utility.yul\":1189:1228   */\n      add\n        /* \"#utility.yul\":1185:1235   */\n      add\n        /* \"#utility.yul\":1178:1235   */\n      swap2\n      pop\n      pop\n        /* \"#utility.yul\":818:1241   */\n      swap3\n      swap2\n      pop\n      pop\n      jump\t// out\n        /* \"#utility.yul\":1342:2153   */\n    tag_62:\n        /* \"#utility.yul\":1527:1529   */\n      0x20\n        /* \"#utility.yul\":1516:1525   */\n      dup2\n        /* \"#utility.yul\":1509:1530   */\n      mstore\n        /* \"#utility.yul\":1572:1578   */\n      dup2\n        /* \"#utility.yul\":1566:1579   */\n      mload\n        /* \"#utility.yul\":1561:1563   */\n      0x20\n        /* \"#utility.yul\":1550:1559   */\n      dup3\n        /* \"#utility.yul\":1546:1564   */\n      add\n        /* \"#utility.yul\":1539:1580   */\n      mstore\n        /* \"#utility.yul\":1661:1662   */\n      0x01\n        /* \"#utility.yul\":1657:1658   */\n      dup1\n        /* \"#utility.yul\":1652:1655   */\n      0xa0\n        /* \"#utility.yul\":1648:1659   */\n      shl\n        /* \"#utility.yul\":1644:1663   */\n      sub\n        /* \"#utility.yul\":1638:1640   */\n      0x20\n        /* \"#utility.yul\":1630:1636   */\n      dup4\n        /* \"#utility.yul\":1626:1641   */\n      add\n        /* \"#utility.yul\":1620:1642   */\n      mload\n        /* \"#utility.yul\":1616:1664   */\n      and\n        /* \"#utility.yul\":1611:1613   */\n      0x40\n        /* \"#utility.yul\":1600:1609   */\n      dup3\n        /* \"#utility.yul\":1596:1614   */\n      add\n        /* \"#utility.yul\":1589:1665   */\n      mstore\n        /* \"#utility.yul\":1490:1494   */\n      0x00\n        /* \"#utility.yul\":1712:1714   */\n      0x40\n        /* \"#utility.yul\":1704:1710   */\n      dup4\n        /* \"#utility.yul\":1700:1715   */\n      add\n        /* \"#utility.yul\":1694:1716   */\n      mload\n        /* \"#utility.yul\":1752:1756   */\n      0xe0\n        /* \"#utility.yul\":1747:1749   */\n      0x60\n        /* \"#utility.yul\":1736:1745   */\n      dup5\n        /* \"#utility.yul\":1732:1750   */\n      add\n        /* \"#utility.yul\":1725:1757   */\n      mstore\n        /* \"#utility.yul\":1780:1832   */\n      tag_651\n        /* \"#utility.yul\":1827:1830   */\n      0x0100\n        /* \"#utility.yul\":1816:1825   */\n      dup5\n        /* \"#utility.yul\":1812:1831   */\n      add\n        /* \"#utility.yul\":1798:1810   */\n      dup3\n        /* \"#utility.yul\":1780:1832   */\n      tag_624\n      jump\t// in\n    tag_651:\n        /* \"#utility.yul\":1766:1832   */\n      swap1\n      pop\n        /* \"#utility.yul\":1887:1889   */\n      0x60\n        /* \"#utility.yul\":1879:1885   */\n      dup5\n        /* \"#utility.yul\":1875:1890   */\n      add\n        /* \"#utility.yul\":1869:1891   */\n      mload\n        /* \"#utility.yul\":1863:1866   */\n      0x80\n        /* \"#utility.yul\":1852:1861   */\n      dup5\n        /* \"#utility.yul\":1848:1867   */\n      add\n        /* \"#utility.yul\":1841:1892   */\n      mstore\n        /* \"#utility.yul\":1961:1964   */\n      0x80\n        /* \"#utility.yul\":1953:1959   */\n      dup5\n        /* \"#utility.yul\":1949:1965   */\n      add\n        /* \"#utility.yul\":1943:1966   */\n      mload\n        /* \"#utility.yul\":1936:1967   */\n      iszero\n        /* \"#utility.yul\":1929:1968   */\n      iszero\n        /* \"#utility.yul\":1923:1926   */\n      0xa0\n        /* \"#utility.yul\":1912:1921   */\n      dup5\n        /* \"#utility.yul\":1908:1927   */\n      add\n        /* \"#utility.yul\":1901:1969   */\n      mstore\n        /* \"#utility.yul\":2038:2041   */\n      0xa0\n        /* \"#utility.yul\":2030:2036   */\n      dup5\n        /* \"#utility.yul\":2026:2042   */\n      add\n        /* \"#utility.yul\":2020:2043   */\n      mload\n        /* \"#utility.yul\":2013:2044   */\n      iszero\n        /* \"#utility.yul\":2006:2045   */\n      iszero\n        /* \"#utility.yul\":2000:2003   */\n      0xc0\n        /* \"#utility.yul\":1989:1998   */\n      dup5\n        /* \"#utility.yul\":1985:2004   */\n      add\n        /* \"#utility.yul\":1978:2046   */\n      mstore\n        /* \"#utility.yul\":2116:2119   */\n      0xc0\n        /* \"#utility.yul\":2108:2114   */\n      dup5\n        /* \"#utility.yul\":2104:2120   */\n      add\n        /* \"#utility.yul\":2098:2121   */\n      mload\n        /* \"#utility.yul\":2091:2122   */\n      iszero\n        /* \"#utility.yul\":2084:2123   */\n      iszero\n        /* \"#utility.yul\":2077:2081   */\n      0xe0\n        /* \"#utility.yul\":2066:2075   */\n      dup5\n        /* \"#utility.yul\":2062:2082   */\n      add\n        /* \"#utility.yul\":2055:2124   */\n      mstore\n        /* \"#utility.yul\":2141:2147   */\n      dup1\n        /* \"#utility.yul\":2133:2147   */\n      swap2\n      pop\n      pop\n        /* \"#utility.yul\":1342:2153   */\n      swap3\n      swap2\n      pop\n      pop\n      jump\t// out\n        /* \"#utility.yul\":2158:2755   */\n    tag_626:\n        /* \"#utility.yul\":2243:2248   */\n      dup1\n        /* \"#utility.yul\":2237:2249   */\n      mload\n        /* \"#utility.yul\":2232:2235   */\n      dup3\n        /* \"#utility.yul\":2225:2250   */\n      mstore\n        /* \"#utility.yul\":2328:2329   */\n      0x01\n        /* \"#utility.yul\":2324:2325   */\n      dup1\n        /* \"#utility.yul\":2319:2322   */\n      0xa0\n        /* \"#utility.yul\":2315:2326   */\n      shl\n        /* \"#utility.yul\":2311:2330   */\n      sub\n        /* \"#utility.yul\":2303:2307   */\n      0x20\n        /* \"#utility.yul\":2296:2301   */\n      dup3\n        /* \"#utility.yul\":2292:2308   */\n      add\n        /* \"#utility.yul\":2286:2309   */\n      mload\n        /* \"#utility.yul\":2282:2331   */\n      and\n        /* \"#utility.yul\":2275:2279   */\n      0x20\n        /* \"#utility.yul\":2270:2273   */\n      dup4\n        /* \"#utility.yul\":2266:2280   */\n      add\n        /* \"#utility.yul\":2259:2332   */\n      mstore\n        /* \"#utility.yul\":2207:2210   */\n      0x00\n        /* \"#utility.yul\":2378:2382   */\n      0x40\n        /* \"#utility.yul\":2371:2376   */\n      dup3\n        /* \"#utility.yul\":2367:2383   */\n      add\n        /* \"#utility.yul\":2361:2384   */\n      mload\n        /* \"#utility.yul\":2416:2420   */\n      0xe0\n        /* \"#utility.yul\":2409:2413   */\n      0x40\n        /* \"#utility.yul\":2404:2407   */\n      dup6\n        /* \"#utility.yul\":2400:2414   */\n      add\n        /* \"#utility.yul\":2393:2421   */\n      mstore\n        /* \"#utility.yul\":2442:2489   */\n      tag_653\n        /* \"#utility.yul\":2483:2487   */\n      0xe0\n        /* \"#utility.yul\":2478:2481   */\n      dup6\n        /* \"#utility.yul\":2474:2488   */\n      add\n        /* \"#utility.yul\":2460:2472   */\n      dup3\n        /* \"#utility.yul\":2442:2489   */\n      tag_624\n      jump\t// in\n    tag_653:\n        /* \"#utility.yul\":2430:2489   */\n      swap1\n      pop\n        /* \"#utility.yul\":2538:2542   */\n      0x60\n        /* \"#utility.yul\":2531:2536   */\n      dup4\n        /* \"#utility.yul\":2527:2543   */\n      add\n        /* \"#utility.yul\":2521:2544   */\n      mload\n        /* \"#utility.yul\":2514:2518   */\n      0x60\n        /* \"#utility.yul\":2509:2512   */\n      dup6\n        /* \"#utility.yul\":2505:2519   */\n      add\n        /* \"#utility.yul\":2498:2545   */\n      mstore\n        /* \"#utility.yul\":2594:2598   */\n      0x80\n        /* \"#utility.yul\":2587:2592   */\n      dup4\n        /* \"#utility.yul\":2583:2599   */\n      add\n        /* \"#utility.yul\":2577:2600   */\n      mload\n        /* \"#utility.yul\":2570:2574   */\n      0x80\n        /* \"#utility.yul\":2565:2568   */\n      dup6\n        /* \"#utility.yul\":2561:2575   */\n      add\n        /* \"#utility.yul\":2554:2601   */\n      mstore\n        /* \"#utility.yul\":2650:2654   */\n      0xa0\n        /* \"#utility.yul\":2643:2648   */\n      dup4\n        /* \"#utility.yul\":2639:2655   */\n      add\n        /* \"#utility.yul\":2633:2656   */\n      mload\n        /* \"#utility.yul\":2626:2630   */\n      0xa0\n        /* \"#utility.yul\":2621:2624   */\n      dup6\n        /* \"#utility.yul\":2617:2631   */\n      add\n        /* \"#utility.yul\":2610:2657   */\n      mstore\n        /* \"#utility.yul\":2720:2724   */\n      0xc0\n        /* \"#utility.yul\":2713:2718   */\n      dup4\n        /* \"#utility.yul\":2709:2725   */\n      add\n        /* \"#utility.yul\":2703:2726   */\n      mload\n        /* \"#utility.yul\":2696:2727   */\n      iszero\n        /* \"#utility.yul\":2689:2728   */\n      iszero\n        /* \"#utility.yul\":2682:2686   */\n      0xc0\n        /* \"#utility.yul\":2677:2680   */\n      dup6\n        /* \"#utility.yul\":2673:2687   */\n      add\n        /* \"#utility.yul\":2666:2729   */\n      mstore\n        /* \"#utility.yul\":2745:2749   */\n      dup1\n        /* \"#utility.yul\":2738:2749   */\n      swap2\n      pop\n      pop\n        /* \"#utility.yul\":2158:2755   */\n      swap3\n      swap2\n      pop\n      pop\n      jump\t// out\n        /* \"#utility.yul\":2760:3598   */\n    tag_67:\n        /* \"#utility.yul\":2950:2954   */\n      0x00\n        /* \"#utility.yul\":2979:2981   */\n      0x20\n        /* \"#utility.yul\":3019:3021   */\n      dup1\n        /* \"#utility.yul\":3008:3017   */\n      dup4\n        /* \"#utility.yul\":3004:3022   */\n      add\n        /* \"#utility.yul\":3049:3051   */\n      dup2\n        /* \"#utility.yul\":3038:3047   */\n      dup5\n        /* \"#utility.yul\":3031:3052   */\n      mstore\n        /* \"#utility.yul\":3072:3078   */\n      dup1\n        /* \"#utility.yul\":3107:3113   */\n      dup6\n        /* \"#utility.yul\":3101:3114   */\n      mload\n        /* \"#utility.yul\":3138:3144   */\n      dup1\n        /* \"#utility.yul\":3130:3136   */\n      dup4\n        /* \"#utility.yul\":3123:3145   */\n      mstore\n        /* \"#utility.yul\":3176:3178   */\n      0x40\n        /* \"#utility.yul\":3165:3174   */\n      dup7\n        /* \"#utility.yul\":3161:3179   */\n      add\n        /* \"#utility.yul\":3154:3179   */\n      swap2\n      pop\n        /* \"#utility.yul\":3238:3240   */\n      0x40\n        /* \"#utility.yul\":3228:3234   */\n      dup2\n        /* \"#utility.yul\":3225:3226   */\n      0x05\n        /* \"#utility.yul\":3221:3235   */\n      shl\n        /* \"#utility.yul\":3210:3219   */\n      dup8\n        /* \"#utility.yul\":3206:3236   */\n      add\n        /* \"#utility.yul\":3202:3241   */\n      add\n        /* \"#utility.yul\":3188:3241   */\n      swap3\n      pop\n        /* \"#utility.yul\":3276:3278   */\n      dup4\n        /* \"#utility.yul\":3268:3274   */\n      dup8\n        /* \"#utility.yul\":3264:3279   */\n      add\n        /* \"#utility.yul\":3297:3298   */\n      0x00\n        /* \"#utility.yul\":3307:3569   */\n    tag_655:\n        /* \"#utility.yul\":3321:3327   */\n      dup3\n        /* \"#utility.yul\":3318:3319   */\n      dup2\n        /* \"#utility.yul\":3315:3328   */\n      lt\n        /* \"#utility.yul\":3307:3569   */\n      iszero\n      tag_657\n      jumpi\n        /* \"#utility.yul\":3414:3416   */\n      0x3f\n        /* \"#utility.yul\":3410:3417   */\n      not\n        /* \"#utility.yul\":3398:3407   */\n      dup9\n        /* \"#utility.yul\":3390:3396   */\n      dup7\n        /* \"#utility.yul\":3386:3408   */\n      sub\n        /* \"#utility.yul\":3382:3418   */\n      add\n        /* \"#utility.yul\":3377:3380   */\n      dup5\n        /* \"#utility.yul\":3370:3419   */\n      mstore\n        /* \"#utility.yul\":3442:3489   */\n      tag_658\n        /* \"#utility.yul\":3482:3488   */\n      dup6\n        /* \"#utility.yul\":3473:3479   */\n      dup4\n        /* \"#utility.yul\":3467:3480   */\n      mload\n        /* \"#utility.yul\":3442:3489   */\n      tag_626\n      jump\t// in\n    tag_658:\n        /* \"#utility.yul\":3432:3489   */\n      swap5\n      pop\n        /* \"#utility.yul\":3547:3559   */\n      swap3\n      dup6\n      add\n      swap3\n        /* \"#utility.yul\":3512:3527   */\n      swap1\n      dup6\n      add\n      swap1\n        /* \"#utility.yul\":3343:3344   */\n      0x01\n        /* \"#utility.yul\":3336:3345   */\n      add\n        /* \"#utility.yul\":3307:3569   */\n      jump(tag_655)\n    tag_657:\n      pop\n        /* \"#utility.yul\":3586:3592   */\n      swap3\n      swap8\n        /* \"#utility.yul\":2760:3598   */\n      swap7\n      pop\n      pop\n      pop\n      pop\n      pop\n      pop\n      pop\n      jump\t// out\n        /* \"#utility.yul\":3603:4484   */\n    tag_72:\n        /* \"#utility.yul\":3960:3985   */\n      dup9\n      dup2\n      mstore\n      sub(shl(0xa0, 0x01), 0x01)\n        /* \"#utility.yul\":4021:4053   */\n      dup9\n      and\n        /* \"#utility.yul\":4016:4018   */\n      0x20\n        /* \"#utility.yul\":4001:4019   */\n      dup3\n      add\n        /* \"#utility.yul\":3994:4054   */\n      mstore\n        /* \"#utility.yul\":3948:3951   */\n      0x0100\n        /* \"#utility.yul\":4085:4087   */\n      0x40\n        /* \"#utility.yul\":4070:4088   */\n      dup3\n      add\n        /* \"#utility.yul\":4063:4093   */\n      dup2\n      swap1\n      mstore\n        /* \"#utility.yul\":3919:3923   */\n      0x00\n      swap1\n        /* \"#utility.yul\":4116:4161   */\n      tag_660\n        /* \"#utility.yul\":4142:4160   */\n      dup4\n      dup3\n      add\n        /* \"#utility.yul\":4134:4140   */\n      dup11\n        /* \"#utility.yul\":4116:4161   */\n      tag_624\n      jump\t// in\n    tag_660:\n        /* \"#utility.yul\":4102:4161   */\n      swap1\n      pop\n        /* \"#utility.yul\":4209:4218   */\n      dup3\n        /* \"#utility.yul\":4201:4207   */\n      dup2\n        /* \"#utility.yul\":4197:4219   */\n      sub\n        /* \"#utility.yul\":4192:4194   */\n      0x60\n        /* \"#utility.yul\":4181:4190   */\n      dup5\n        /* \"#utility.yul\":4177:4195   */\n      add\n        /* \"#utility.yul\":4170:4220   */\n      mstore\n        /* \"#utility.yul\":4237:4270   */\n      tag_661\n        /* \"#utility.yul\":4263:4269   */\n      dup2\n        /* \"#utility.yul\":4255:4261   */\n      dup10\n        /* \"#utility.yul\":4237:4270   */\n      tag_624\n      jump\t// in\n    tag_661:\n        /* \"#utility.yul\":4301:4304   */\n      0x80\n        /* \"#utility.yul\":4286:4305   */\n      dup5\n      add\n        /* \"#utility.yul\":4279:4314   */\n      swap8\n      swap1\n      swap8\n      mstore\n      pop\n      pop\n        /* \"#utility.yul\":4345:4348   */\n      0xa0\n        /* \"#utility.yul\":4330:4349   */\n      dup2\n      add\n        /* \"#utility.yul\":4323:4358   */\n      swap4\n      swap1\n      swap4\n      mstore\n        /* \"#utility.yul\":4402:4416   */\n      swap1\n      iszero\n        /* \"#utility.yul\":4395:4417   */\n      iszero\n        /* \"#utility.yul\":4389:4392   */\n      0xc0\n        /* \"#utility.yul\":4374:4393   */\n      dup4\n      add\n        /* \"#utility.yul\":4367:4418   */\n      mstore\n        /* \"#utility.yul\":4462:4476   */\n      iszero\n        /* \"#utility.yul\":4455:4477   */\n      iszero\n        /* \"#utility.yul\":4449:4452   */\n      0xe0\n        /* \"#utility.yul\":4434:4453   */\n      swap1\n      swap2\n      add\n        /* \"#utility.yul\":4427:4478   */\n      mstore\n        /* \"#utility.yul\":4229:4270   */\n      swap5\n        /* \"#utility.yul\":3603:4484   */\n      swap4\n      pop\n      pop\n      pop\n      pop\n      jump\t// out\n        /* \"#utility.yul\":4489:4616   */\n    tag_260:\n        /* \"#utility.yul\":4550:4560   */\n      0x4e487b71\n        /* \"#utility.yul\":4545:4548   */\n      0xe0\n        /* \"#utility.yul\":4541:4561   */\n      shl\n        /* \"#utility.yul\":4538:4539   */\n      0x00\n        /* \"#utility.yul\":4531:4562   */\n      mstore\n        /* \"#utility.yul\":4581:4585   */\n      0x41\n        /* \"#utility.yul\":4578:4579   */\n      0x04\n        /* \"#utility.yul\":4571:4586   */\n      mstore\n        /* \"#utility.yul\":4605:4609   */\n      0x24\n        /* \"#utility.yul\":4602:4603   */\n      0x00\n        /* \"#utility.yul\":4595:4610   */\n      revert\n        /* \"#utility.yul\":4621:4896   */\n    tag_627:\n        /* \"#utility.yul\":4692:4694   */\n      0x40\n        /* \"#utility.yul\":4686:4695   */\n      mload\n        /* \"#utility.yul\":4757:4759   */\n      0x1f\n        /* \"#utility.yul\":4738:4751   */\n      dup3\n      add\n      not(0x1f)\n        /* \"#utility.yul\":4734:4761   */\n      and\n        /* \"#utility.yul\":4722:4762   */\n      dup2\n      add\n      sub(shl(0x40, 0x01), 0x01)\n        /* \"#utility.yul\":4777:4811   */\n      dup2\n      gt\n        /* \"#utility.yul\":4813:4835   */\n      dup3\n      dup3\n      lt\n        /* \"#utility.yul\":4774:4836   */\n      or\n        /* \"#utility.yul\":4771:4859   */\n      iszero\n      tag_665\n      jumpi\n        /* \"#utility.yul\":4839:4857   */\n      tag_665\n      tag_260\n      jump\t// in\n    tag_665:\n        /* \"#utility.yul\":4875:4877   */\n      0x40\n        /* \"#utility.yul\":4868:4890   */\n      mstore\n        /* \"#utility.yul\":4621:4896   */\n      swap2\n      swap1\n      pop\n      jump\t// out\n        /* \"#utility.yul\":4901:5432   */\n    tag_628:\n        /* \"#utility.yul\":4944:4949   */\n      0x00\n        /* \"#utility.yul\":4997:5000   */\n      dup3\n        /* \"#utility.yul\":4990:4994   */\n      0x1f\n        /* \"#utility.yul\":4982:4988   */\n      dup4\n        /* \"#utility.yul\":4978:4995   */\n      add\n        /* \"#utility.yul\":4974:5001   */\n      slt\n        /* \"#utility.yul\":4964:5019   */\n      tag_667\n      jumpi\n        /* \"#utility.yul\":5015:5016   */\n      0x00\n        /* \"#utility.yul\":5012:5013   */\n      dup1\n        /* \"#utility.yul\":5005:5017   */\n      revert\n        /* \"#utility.yul\":4964:5019   */\n    tag_667:\n        /* \"#utility.yul\":5051:5057   */\n      dup2\n        /* \"#utility.yul\":5038:5058   */\n      calldataload\n      sub(shl(0x40, 0x01), 0x01)\n        /* \"#utility.yul\":5073:5075   */\n      dup2\n        /* \"#utility.yul\":5070:5096   */\n      gt\n        /* \"#utility.yul\":5067:5119   */\n      iszero\n      tag_669\n      jumpi\n        /* \"#utility.yul\":5099:5117   */\n      tag_669\n      tag_260\n      jump\t// in\n    tag_669:\n        /* \"#utility.yul\":5143:5198   */\n      tag_670\n        /* \"#utility.yul\":5186:5188   */\n      0x1f\n        /* \"#utility.yul\":5167:5180   */\n      dup3\n      add\n      not(0x1f)\n        /* \"#utility.yul\":5163:5190   */\n      and\n        /* \"#utility.yul\":5192:5196   */\n      0x20\n        /* \"#utility.yul\":5159:5197   */\n      add\n        /* \"#utility.yul\":5143:5198   */\n      tag_627\n      jump\t// in\n    tag_670:\n        /* \"#utility.yul\":5223:5225   */\n      dup2\n        /* \"#utility.yul\":5214:5221   */\n      dup2\n        /* \"#utility.yul\":5207:5226   */\n      mstore\n        /* \"#utility.yul\":5269:5272   */\n      dup5\n        /* \"#utility.yul\":5262:5266   */\n      0x20\n        /* \"#utility.yul\":5257:5259   */\n      dup4\n        /* \"#utility.yul\":5249:5255   */\n      dup7\n        /* \"#utility.yul\":5245:5260   */\n      add\n        /* \"#utility.yul\":5241:5267   */\n      add\n        /* \"#utility.yul\":5238:5273   */\n      gt\n        /* \"#utility.yul\":5235:5290   */\n      iszero\n      tag_671\n      jumpi\n        /* \"#utility.yul\":5286:5287   */\n      0x00\n        /* \"#utility.yul\":5283:5284   */\n      dup1\n        /* \"#utility.yul\":5276:5288   */\n      revert\n        /* \"#utility.yul\":5235:5290   */\n    tag_671:\n        /* \"#utility.yul\":5351:5353   */\n      dup2\n        /* \"#utility.yul\":5344:5348   */\n      0x20\n        /* \"#utility.yul\":5336:5342   */\n      dup6\n        /* \"#utility.yul\":5332:5349   */\n      add\n        /* \"#utility.yul\":5325:5329   */\n      0x20\n        /* \"#utility.yul\":5316:5323   */\n      dup4\n        /* \"#utility.yul\":5312:5330   */\n      add\n        /* \"#utility.yul\":5299:5354   */\n      calldatacopy\n        /* \"#utility.yul\":5399:5400   */\n      0x00\n        /* \"#utility.yul\":5374:5390   */\n      swap2\n      dup2\n      add\n        /* \"#utility.yul\":5392:5396   */\n      0x20\n        /* \"#utility.yul\":5370:5397   */\n      add\n        /* \"#utility.yul\":5363:5401   */\n      swap2\n      swap1\n      swap2\n      mstore\n        /* \"#utility.yul\":5378:5385   */\n      swap4\n        /* \"#utility.yul\":4901:5432   */\n      swap3\n      pop\n      pop\n      pop\n      jump\t// out\n        /* \"#utility.yul\":5437:5901   */\n    tag_75:\n        /* \"#utility.yul\":5524:5530   */\n      0x00\n        /* \"#utility.yul\":5532:5538   */\n      dup1\n        /* \"#utility.yul\":5540:5546   */\n      0x00\n        /* \"#utility.yul\":5593:5595   */\n      0x60\n        /* \"#utility.yul\":5581:5590   */\n      dup5\n        /* \"#utility.yul\":5572:5579   */\n      dup7\n        /* \"#utility.yul\":5568:5591   */\n      sub\n        /* \"#utility.yul\":5564:5596   */\n      slt\n        /* \"#utility.yul\":5561:5613   */\n      iszero\n      tag_673\n      jumpi\n        /* \"#utility.yul\":5609:5610   */\n      0x00\n        /* \"#utility.yul\":5606:5607   */\n      dup1\n        /* \"#utility.yul\":5599:5611   */\n      revert\n        /* \"#utility.yul\":5561:5613   */\n    tag_673:\n        /* \"#utility.yul\":5632:5661   */\n      tag_674\n        /* \"#utility.yul\":5651:5660   */\n      dup5\n        /* \"#utility.yul\":5632:5661   */\n      tag_623\n      jump\t// in\n    tag_674:\n        /* \"#utility.yul\":5622:5661   */\n      swap3\n      pop\n        /* \"#utility.yul\":5712:5714   */\n      0x20\n        /* \"#utility.yul\":5701:5710   */\n      dup5\n        /* \"#utility.yul\":5697:5715   */\n      add\n        /* \"#utility.yul\":5684:5716   */\n      calldataload\n      sub(shl(0x40, 0x01), 0x01)\n        /* \"#utility.yul\":5731:5737   */\n      dup2\n        /* \"#utility.yul\":5728:5758   */\n      gt\n        /* \"#utility.yul\":5725:5775   */\n      iszero\n      tag_675\n      jumpi\n        /* \"#utility.yul\":5771:5772   */\n      0x00\n        /* \"#utility.yul\":5768:5769   */\n      dup1\n        /* \"#utility.yul\":5761:5773   */\n      revert\n        /* \"#utility.yul\":5725:5775   */\n    tag_675:\n        /* \"#utility.yul\":5794:5844   */\n      tag_676\n        /* \"#utility.yul\":5836:5843   */\n      dup7\n        /* \"#utility.yul\":5827:5833   */\n      dup3\n        /* \"#utility.yul\":5816:5825   */\n      dup8\n        /* \"#utility.yul\":5812:5834   */\n      add\n        /* \"#utility.yul\":5794:5844   */\n      tag_628\n      jump\t// in\n    tag_676:\n        /* \"#utility.yul\":5784:5844   */\n      swap3\n      pop\n      pop\n        /* \"#utility.yul\":5891:5893   */\n      0x40\n        /* \"#utility.yul\":5880:5889   */\n      dup5\n        /* \"#utility.yul\":5876:5894   */\n      add\n        /* \"#utility.yul\":5863:5895   */\n      calldataload\n        /* \"#utility.yul\":5853:5895   */\n      swap1\n      pop\n        /* \"#utility.yul\":5437:5901   */\n      swap3\n      pop\n      swap3\n      pop\n      swap3\n      jump\t// out\n        /* \"#utility.yul\":5906:6086   */\n    tag_79:\n        /* \"#utility.yul\":5965:5971   */\n      0x00\n        /* \"#utility.yul\":6018:6020   */\n      0x20\n        /* \"#utility.yul\":6006:6015   */\n      dup3\n        /* \"#utility.yul\":5997:6004   */\n      dup5\n        /* \"#utility.yul\":5993:6016   */\n      sub\n        /* \"#utility.yul\":5989:6021   */\n      slt\n        /* \"#utility.yul\":5986:6038   */\n      iszero\n      tag_678\n      jumpi\n        /* \"#utility.yul\":6034:6035   */\n      0x00\n        /* \"#utility.yul\":6031:6032   */\n      dup1\n        /* \"#utility.yul\":6024:6036   */\n      revert\n        /* \"#utility.yul\":5986:6038   */\n    tag_678:\n      pop\n        /* \"#utility.yul\":6057:6080   */\n      calldataload\n      swap2\n        /* \"#utility.yul\":5906:6086   */\n      swap1\n      pop\n      jump\t// out\n        /* \"#utility.yul\":6091:6778   */\n    tag_82:\n        /* \"#utility.yul\":6384:6409   */\n      dup8\n      dup2\n      mstore\n      sub(shl(0xa0, 0x01), 0x01)\n        /* \"#utility.yul\":6445:6477   */\n      dup8\n      and\n        /* \"#utility.yul\":6440:6442   */\n      0x20\n        /* \"#utility.yul\":6425:6443   */\n      dup3\n      add\n        /* \"#utility.yul\":6418:6478   */\n      mstore\n        /* \"#utility.yul\":6514:6517   */\n      0xe0\n        /* \"#utility.yul\":6509:6511   */\n      0x40\n        /* \"#utility.yul\":6494:6512   */\n      dup3\n      add\n        /* \"#utility.yul\":6487:6518   */\n      dup2\n      swap1\n      mstore\n      0x00\n      swap1\n        /* \"#utility.yul\":6535:6581   */\n      tag_680\n      swap1\n        /* \"#utility.yul\":6561:6580   */\n      dup4\n      add\n        /* \"#utility.yul\":6553:6559   */\n      dup9\n        /* \"#utility.yul\":6535:6581   */\n      tag_624\n      jump\t// in\n    tag_680:\n        /* \"#utility.yul\":6527:6581   */\n      swap1\n      pop\n        /* \"#utility.yul\":6617:6623   */\n      dup6\n        /* \"#utility.yul\":6612:6614   */\n      0x60\n        /* \"#utility.yul\":6601:6610   */\n      dup4\n        /* \"#utility.yul\":6597:6615   */\n      add\n        /* \"#utility.yul\":6590:6624   */\n      mstore\n        /* \"#utility.yul\":6661:6667   */\n      dup5\n        /* \"#utility.yul\":6655:6658   */\n      0x80\n        /* \"#utility.yul\":6644:6653   */\n      dup4\n        /* \"#utility.yul\":6640:6659   */\n      add\n        /* \"#utility.yul\":6633:6668   */\n      mstore\n        /* \"#utility.yul\":6705:6711   */\n      dup4\n        /* \"#utility.yul\":6699:6702   */\n      0xa0\n        /* \"#utility.yul\":6688:6697   */\n      dup4\n        /* \"#utility.yul\":6684:6703   */\n      add\n        /* \"#utility.yul\":6677:6712   */\n      mstore\n        /* \"#utility.yul\":6763:6769   */\n      dup3\n        /* \"#utility.yul\":6756:6770   */\n      iszero\n        /* \"#utility.yul\":6749:6771   */\n      iszero\n        /* \"#utility.yul\":6743:6746   */\n      0xc0\n        /* \"#utility.yul\":6732:6741   */\n      dup4\n        /* \"#utility.yul\":6728:6747   */\n      add\n        /* \"#utility.yul\":6721:6772   */\n      mstore\n        /* \"#utility.yul\":6091:6778   */\n      swap9\n      swap8\n      pop\n      pop\n      pop\n      pop\n      pop\n      pop\n      pop\n      pop\n      jump\t// out\n        /* \"#utility.yul\":6783:7037   */\n    tag_89:\n        /* \"#utility.yul\":6851:6857   */\n      0x00\n        /* \"#utility.yul\":6859:6865   */\n      dup1\n        /* \"#utility.yul\":6912:6914   */\n      0x40\n        /* \"#utility.yul\":6900:6909   */\n      dup4\n        /* \"#utility.yul\":6891:6898   */\n      dup6\n        /* \"#utility.yul\":6887:6910   */\n      sub\n        /* \"#utility.yul\":6883:6915   */\n      slt\n        /* \"#utility.yul\":6880:6932   */\n      iszero\n      tag_682\n      jumpi\n        /* \"#utility.yul\":6928:6929   */\n      0x00\n        /* \"#utility.yul\":6925:6926   */\n      dup1\n        /* \"#utility.yul\":6918:6930   */\n      revert\n        /* \"#utility.yul\":6880:6932   */\n    tag_682:\n        /* \"#utility.yul\":6964:6973   */\n      dup3\n        /* \"#utility.yul\":6951:6974   */\n      calldataload\n        /* \"#utility.yul\":6941:6974   */\n      swap2\n      pop\n        /* \"#utility.yul\":6993:7031   */\n      tag_683\n        /* \"#utility.yul\":7027:7029   */\n      0x20\n        /* \"#utility.yul\":7016:7025   */\n      dup5\n        /* \"#utility.yul\":7012:7030   */\n      add\n        /* \"#utility.yul\":6993:7031   */\n      tag_623\n      jump\t// in\n    tag_683:\n        /* \"#utility.yul\":6983:7031   */\n      swap1\n      pop\n        /* \"#utility.yul\":6783:7037   */\n      swap3\n      pop\n      swap3\n      swap1\n      pop\n      jump\t// out\n        /* \"#utility.yul\":7042:8181   */\n    tag_92:\n        /* \"#utility.yul\":7261:7263   */\n      0x20\n        /* \"#utility.yul\":7313:7334   */\n      dup1\n      dup3\n      mstore\n        /* \"#utility.yul\":7383:7396   */\n      dup3\n      mload\n        /* \"#utility.yul\":7286:7304   */\n      dup3\n      dup3\n      add\n        /* \"#utility.yul\":7405:7427   */\n      dup2\n      swap1\n      mstore\n        /* \"#utility.yul\":7232:7236   */\n      0x00\n      swap2\n        /* \"#utility.yul\":7261:7263   */\n      swap1\n        /* \"#utility.yul\":7446:7448   */\n      0x40\n      swap1\n        /* \"#utility.yul\":7464:7482   */\n      dup2\n      dup6\n      add\n      swap1\n        /* \"#utility.yul\":7505:7520   */\n      dup7\n      dup5\n      add\n        /* \"#utility.yul\":7232:7236   */\n      dup6\n        /* \"#utility.yul\":7548:8155   */\n    tag_685:\n        /* \"#utility.yul\":7562:7568   */\n      dup3\n        /* \"#utility.yul\":7559:7560   */\n      dup2\n        /* \"#utility.yul\":7556:7569   */\n      lt\n        /* \"#utility.yul\":7548:8155   */\n      iszero\n      tag_687\n      jumpi\n        /* \"#utility.yul\":7621:7634   */\n      dup2\n      mload\n        /* \"#utility.yul\":7659:7668   */\n      dup1\n      mload\n        /* \"#utility.yul\":7647:7669   */\n      dup6\n      mstore\n        /* \"#utility.yul\":7709:7720   */\n      dup7\n      dup2\n      add\n        /* \"#utility.yul\":7703:7721   */\n      mload\n        /* \"#utility.yul\":7689:7701   */\n      dup8\n      dup7\n      add\n        /* \"#utility.yul\":7682:7722   */\n      mstore\n        /* \"#utility.yul\":7762:7773   */\n      dup6\n      dup2\n      add\n        /* \"#utility.yul\":7756:7774   */\n      mload\n        /* \"#utility.yul\":7742:7754   */\n      dup7\n      dup7\n      add\n        /* \"#utility.yul\":7735:7775   */\n      mstore\n        /* \"#utility.yul\":7798:7802   */\n      0x60\n        /* \"#utility.yul\":7846:7857   */\n      dup1\n      dup3\n      add\n        /* \"#utility.yul\":7840:7858   */\n      mload\n      sub(shl(0xa0, 0x01), 0x01)\n        /* \"#utility.yul\":7836:7880   */\n      and\n        /* \"#utility.yul\":7822:7834   */\n      swap1\n      dup7\n      add\n        /* \"#utility.yul\":7815:7881   */\n      mstore\n        /* \"#utility.yul\":7904:7908   */\n      0x80\n        /* \"#utility.yul\":7962:7973   */\n      dup1\n      dup3\n      add\n        /* \"#utility.yul\":7956:7974   */\n      mload\n        /* \"#utility.yul\":7949:7975   */\n      iszero\n        /* \"#utility.yul\":7942:7976   */\n      iszero\n        /* \"#utility.yul\":7928:7940   */\n      swap1\n      dup7\n      add\n        /* \"#utility.yul\":7921:7977   */\n      mstore\n        /* \"#utility.yul\":7868:7871   */\n      0xa0\n        /* \"#utility.yul\":8058:8069   */\n      swap1\n      dup2\n      add\n        /* \"#utility.yul\":8052:8070   */\n      mload\n        /* \"#utility.yul\":8045:8071   */\n      iszero\n        /* \"#utility.yul\":8038:8072   */\n      iszero\n        /* \"#utility.yul\":8024:8036   */\n      swap1\n      dup6\n      add\n        /* \"#utility.yul\":8017:8073   */\n      mstore\n        /* \"#utility.yul\":8102:8106   */\n      0xc0\n        /* \"#utility.yul\":8093:8107   */\n      swap1\n      swap4\n      add\n      swap3\n        /* \"#utility.yul\":8130:8145   */\n      swap1\n      dup6\n      add\n      swap1\n        /* \"#utility.yul\":7877:7878   */\n      0x01\n        /* \"#utility.yul\":7577:7586   */\n      add\n        /* \"#utility.yul\":7548:8155   */\n      jump(tag_685)\n    tag_687:\n      pop\n        /* \"#utility.yul\":8172:8175   */\n      swap2\n      swap8\n        /* \"#utility.yul\":7042:8181   */\n      swap7\n      pop\n      pop\n      pop\n      pop\n      pop\n      pop\n      pop\n      jump\t// out\n        /* \"#utility.yul\":8186:9028   */\n    tag_629:\n        /* \"#utility.yul\":8240:8243   */\n      0x00\n        /* \"#utility.yul\":8268:8274   */\n      0x0100\n        /* \"#utility.yul\":8301:8306   */\n      dup3\n        /* \"#utility.yul\":8295:8307   */\n      mload\n        /* \"#utility.yul\":8290:8293   */\n      dup5\n        /* \"#utility.yul\":8283:8308   */\n      mstore\n        /* \"#utility.yul\":8386:8387   */\n      0x01\n        /* \"#utility.yul\":8382:8383   */\n      dup1\n        /* \"#utility.yul\":8377:8380   */\n      0xa0\n        /* \"#utility.yul\":8373:8384   */\n      shl\n        /* \"#utility.yul\":8369:8388   */\n      sub\n        /* \"#utility.yul\":8361:8365   */\n      0x20\n        /* \"#utility.yul\":8354:8359   */\n      dup5\n        /* \"#utility.yul\":8350:8366   */\n      add\n        /* \"#utility.yul\":8344:8367   */\n      mload\n        /* \"#utility.yul\":8340:8389   */\n      and\n        /* \"#utility.yul\":8333:8337   */\n      0x20\n        /* \"#utility.yul\":8328:8331   */\n      dup6\n        /* \"#utility.yul\":8324:8338   */\n      add\n        /* \"#utility.yul\":8317:8390   */\n      mstore\n        /* \"#utility.yul\":8436:8440   */\n      0x40\n        /* \"#utility.yul\":8429:8434   */\n      dup4\n        /* \"#utility.yul\":8425:8441   */\n      add\n        /* \"#utility.yul\":8419:8442   */\n      mload\n        /* \"#utility.yul\":8474:8476   */\n      dup2\n        /* \"#utility.yul\":8467:8471   */\n      0x40\n        /* \"#utility.yul\":8462:8465   */\n      dup7\n        /* \"#utility.yul\":8458:8472   */\n      add\n        /* \"#utility.yul\":8451:8477   */\n      mstore\n        /* \"#utility.yul\":8498:8543   */\n      tag_689\n        /* \"#utility.yul\":8539:8541   */\n      dup3\n        /* \"#utility.yul\":8534:8537   */\n      dup7\n        /* \"#utility.yul\":8530:8542   */\n      add\n        /* \"#utility.yul\":8516:8528   */\n      dup3\n        /* \"#utility.yul\":8498:8543   */\n      tag_624\n      jump\t// in\n    tag_689:\n        /* \"#utility.yul\":8486:8543   */\n      swap2\n      pop\n      pop\n        /* \"#utility.yul\":8591:8595   */\n      0x60\n        /* \"#utility.yul\":8584:8589   */\n      dup4\n        /* \"#utility.yul\":8580:8596   */\n      add\n        /* \"#utility.yul\":8574:8597   */\n      mload\n        /* \"#utility.yul\":8639:8642   */\n      dup5\n        /* \"#utility.yul\":8633:8637   */\n      dup3\n        /* \"#utility.yul\":8629:8643   */\n      sub\n        /* \"#utility.yul\":8622:8626   */\n      0x60\n        /* \"#utility.yul\":8617:8620   */\n      dup7\n        /* \"#utility.yul\":8613:8627   */\n      add\n        /* \"#utility.yul\":8606:8644   */\n      mstore\n        /* \"#utility.yul\":8667:8706   */\n      tag_690\n        /* \"#utility.yul\":8701:8705   */\n      dup3\n        /* \"#utility.yul\":8685:8699   */\n      dup3\n        /* \"#utility.yul\":8667:8706   */\n      tag_624\n      jump\t// in\n    tag_690:\n        /* \"#utility.yul\":8653:8706   */\n      swap2\n      pop\n      pop\n        /* \"#utility.yul\":8755:8759   */\n      0x80\n        /* \"#utility.yul\":8748:8753   */\n      dup4\n        /* \"#utility.yul\":8744:8760   */\n      add\n        /* \"#utility.yul\":8738:8761   */\n      mload\n        /* \"#utility.yul\":8731:8735   */\n      0x80\n        /* \"#utility.yul\":8726:8729   */\n      dup6\n        /* \"#utility.yul\":8722:8736   */\n      add\n        /* \"#utility.yul\":8715:8762   */\n      mstore\n        /* \"#utility.yul\":8811:8815   */\n      0xa0\n        /* \"#utility.yul\":8804:8809   */\n      dup4\n        /* \"#utility.yul\":8800:8816   */\n      add\n        /* \"#utility.yul\":8794:8817   */\n      mload\n        /* \"#utility.yul\":8787:8791   */\n      0xa0\n        /* \"#utility.yul\":8782:8785   */\n      dup6\n        /* \"#utility.yul\":8778:8792   */\n      add\n        /* \"#utility.yul\":8771:8818   */\n      mstore\n        /* \"#utility.yul\":8881:8885   */\n      0xc0\n        /* \"#utility.yul\":8874:8879   */\n      dup4\n        /* \"#utility.yul\":8870:8886   */\n      add\n        /* \"#utility.yul\":8864:8887   */\n      mload\n        /* \"#utility.yul\":8857:8888   */\n      iszero\n        /* \"#utility.yul\":8850:8889   */\n      iszero\n        /* \"#utility.yul\":8843:8847   */\n      0xc0\n        /* \"#utility.yul\":8838:8841   */\n      dup6\n        /* \"#utility.yul\":8834:8848   */\n      add\n        /* \"#utility.yul\":8827:8890   */\n      mstore\n        /* \"#utility.yul\":8938:8942   */\n      0xe0\n        /* \"#utility.yul\":8931:8936   */\n      dup4\n        /* \"#utility.yul\":8927:8943   */\n      add\n        /* \"#utility.yul\":8921:8944   */\n      mload\n        /* \"#utility.yul\":8953:9000   */\n      tag_691\n        /* \"#utility.yul\":8994:8998   */\n      0xe0\n        /* \"#utility.yul\":8989:8992   */\n      dup7\n        /* \"#utility.yul\":8985:8999   */\n      add\n        /* \"#utility.yul\":8969:8983   */\n      dup3\n        /* \"#utility.yul\":1316:1329   */\n      iszero\n        /* \"#utility.yul\":1309:1330   */\n      iszero\n        /* \"#utility.yul\":1297:1331   */\n      swap1\n      mstore\n        /* \"#utility.yul\":1246:1337   */\n      jump\n        /* \"#utility.yul\":8953:9000   */\n    tag_691:\n      pop\n        /* \"#utility.yul\":9016:9022   */\n      swap4\n        /* \"#utility.yul\":8186:9028   */\n      swap3\n      pop\n      pop\n      pop\n      jump\t// out\n        /* \"#utility.yul\":9033:9303   */\n    tag_97:\n        /* \"#utility.yul\":9220:9222   */\n      0x20\n        /* \"#utility.yul\":9209:9218   */\n      dup2\n        /* \"#utility.yul\":9202:9223   */\n      mstore\n        /* \"#utility.yul\":9183:9187   */\n      0x00\n        /* \"#utility.yul\":9240:9297   */\n      tag_644\n        /* \"#utility.yul\":9293:9295   */\n      0x20\n        /* \"#utility.yul\":9282:9291   */\n      dup4\n        /* \"#utility.yul\":9278:9296   */\n      add\n        /* \"#utility.yul\":9270:9276   */\n      dup5\n        /* \"#utility.yul\":9240:9297   */\n      tag_629\n      jump\t// in\n        /* \"#utility.yul\":9308:10353   */\n    tag_110:\n        /* \"#utility.yul\":9529:9531   */\n      0x20\n        /* \"#utility.yul\":9581:9602   */\n      dup1\n      dup3\n      mstore\n        /* \"#utility.yul\":9651:9664   */\n      dup3\n      mload\n        /* \"#utility.yul\":9554:9572   */\n      dup3\n      dup3\n      add\n        /* \"#utility.yul\":9673:9695   */\n      dup2\n      swap1\n      mstore\n        /* \"#utility.yul\":9500:9504   */\n      0x00\n      swap2\n        /* \"#utility.yul\":9529:9531   */\n      swap1\n        /* \"#utility.yul\":9714:9716   */\n      0x40\n      swap1\n        /* \"#utility.yul\":9732:9750   */\n      dup2\n      dup6\n      add\n      swap1\n        /* \"#utility.yul\":9773:9788   */\n      dup7\n      dup5\n      add\n        /* \"#utility.yul\":9500:9504   */\n      dup6\n        /* \"#utility.yul\":9816:10327   */\n    tag_695:\n        /* \"#utility.yul\":9830:9836   */\n      dup3\n        /* \"#utility.yul\":9827:9828   */\n      dup2\n        /* \"#utility.yul\":9824:9837   */\n      lt\n        /* \"#utility.yul\":9816:10327   */\n      iszero\n      tag_687\n      jumpi\n        /* \"#utility.yul\":9889:9902   */\n      dup2\n      mload\n        /* \"#utility.yul\":9927:9936   */\n      dup1\n      mload\n        /* \"#utility.yul\":9915:9937   */\n      dup6\n      mstore\n        /* \"#utility.yul\":9977:9988   */\n      dup7\n      dup2\n      add\n        /* \"#utility.yul\":9971:9989   */\n      mload\n        /* \"#utility.yul\":9957:9969   */\n      dup8\n      dup7\n      add\n        /* \"#utility.yul\":9950:9990   */\n      mstore\n        /* \"#utility.yul\":10034:10045   */\n      dup6\n      dup2\n      add\n        /* \"#utility.yul\":10028:10046   */\n      mload\n      sub(shl(0xa0, 0x01), 0x01)\n        /* \"#utility.yul\":10024:10068   */\n      and\n        /* \"#utility.yul\":10010:10022   */\n      dup7\n      dup7\n      add\n        /* \"#utility.yul\":10003:10069   */\n      mstore\n        /* \"#utility.yul\":10092:10096   */\n      0x60\n        /* \"#utility.yul\":10136:10147   */\n      dup1\n      dup3\n      add\n        /* \"#utility.yul\":10130:10148   */\n      mload\n        /* \"#utility.yul\":10116:10128   */\n      swap1\n      dup7\n      add\n        /* \"#utility.yul\":10109:10149   */\n      mstore\n        /* \"#utility.yul\":10172:10176   */\n      0x80\n        /* \"#utility.yul\":10230:10241   */\n      swap1\n      dup2\n      add\n        /* \"#utility.yul\":10224:10242   */\n      mload\n        /* \"#utility.yul\":10217:10243   */\n      iszero\n        /* \"#utility.yul\":10210:10244   */\n      iszero\n        /* \"#utility.yul\":10196:10208   */\n      swap1\n      dup6\n      add\n        /* \"#utility.yul\":10189:10245   */\n      mstore\n        /* \"#utility.yul\":10056:10059   */\n      0xa0\n        /* \"#utility.yul\":10265:10279   */\n      swap1\n      swap4\n      add\n      swap3\n        /* \"#utility.yul\":10302:10317   */\n      swap1\n      dup6\n      add\n      swap1\n        /* \"#utility.yul\":10065:10066   */\n      0x01\n        /* \"#utility.yul\":9845:9854   */\n      add\n        /* \"#utility.yul\":9816:10327   */\n      jump(tag_695)\n        /* \"#utility.yul\":10358:11044   */\n    tag_117:\n        /* \"#utility.yul\":10464:10470   */\n      0x00\n        /* \"#utility.yul\":10472:10478   */\n      dup1\n        /* \"#utility.yul\":10480:10486   */\n      0x00\n        /* \"#utility.yul\":10488:10494   */\n      dup1\n        /* \"#utility.yul\":10541:10544   */\n      0x80\n        /* \"#utility.yul\":10529:10538   */\n      dup6\n        /* \"#utility.yul\":10520:10527   */\n      dup8\n        /* \"#utility.yul\":10516:10539   */\n      sub\n        /* \"#utility.yul\":10512:10545   */\n      slt\n        /* \"#utility.yul\":10509:10562   */\n      iszero\n      tag_699\n      jumpi\n        /* \"#utility.yul\":10558:10559   */\n      0x00\n        /* \"#utility.yul\":10555:10556   */\n      dup1\n        /* \"#utility.yul\":10548:10560   */\n      revert\n        /* \"#utility.yul\":10509:10562   */\n    tag_699:\n        /* \"#utility.yul\":10581:10610   */\n      tag_700\n        /* \"#utility.yul\":10600:10609   */\n      dup6\n        /* \"#utility.yul\":10581:10610   */\n      tag_623\n      jump\t// in\n    tag_700:\n        /* \"#utility.yul\":10571:10610   */\n      swap4\n      pop\n        /* \"#utility.yul\":10661:10663   */\n      0x20\n        /* \"#utility.yul\":10650:10659   */\n      dup6\n        /* \"#utility.yul\":10646:10664   */\n      add\n        /* \"#utility.yul\":10633:10665   */\n      calldataload\n      sub(shl(0x40, 0x01), 0x01)\n        /* \"#utility.yul\":10725:10727   */\n      dup1\n        /* \"#utility.yul\":10717:10723   */\n      dup3\n        /* \"#utility.yul\":10714:10728   */\n      gt\n        /* \"#utility.yul\":10711:10745   */\n      iszero\n      tag_701\n      jumpi\n        /* \"#utility.yul\":10741:10742   */\n      0x00\n        /* \"#utility.yul\":10738:10739   */\n      dup1\n        /* \"#utility.yul\":10731:10743   */\n      revert\n        /* \"#utility.yul\":10711:10745   */\n    tag_701:\n        /* \"#utility.yul\":10764:10814   */\n      tag_702\n        /* \"#utility.yul\":10806:10813   */\n      dup9\n        /* \"#utility.yul\":10797:10803   */\n      dup4\n        /* \"#utility.yul\":10786:10795   */\n      dup10\n        /* \"#utility.yul\":10782:10804   */\n      add\n        /* \"#utility.yul\":10764:10814   */\n      tag_628\n      jump\t// in\n    tag_702:\n        /* \"#utility.yul\":10754:10814   */\n      swap5\n      pop\n        /* \"#utility.yul\":10867:10869   */\n      0x40\n        /* \"#utility.yul\":10856:10865   */\n      dup8\n        /* \"#utility.yul\":10852:10870   */\n      add\n        /* \"#utility.yul\":10839:10871   */\n      calldataload\n        /* \"#utility.yul\":10823:10871   */\n      swap2\n      pop\n        /* \"#utility.yul\":10896:10898   */\n      dup1\n        /* \"#utility.yul\":10886:10894   */\n      dup3\n        /* \"#utility.yul\":10883:10899   */\n      gt\n        /* \"#utility.yul\":10880:10916   */\n      iszero\n      tag_703\n      jumpi\n        /* \"#utility.yul\":10912:10913   */\n      0x00\n        /* \"#utility.yul\":10909:10910   */\n      dup1\n        /* \"#utility.yul\":10902:10914   */\n      revert\n        /* \"#utility.yul\":10880:10916   */\n    tag_703:\n      pop\n        /* \"#utility.yul\":10935:10987   */\n      tag_704\n        /* \"#utility.yul\":10979:10986   */\n      dup8\n        /* \"#utility.yul\":10968:10976   */\n      dup3\n        /* \"#utility.yul\":10957:10966   */\n      dup9\n        /* \"#utility.yul\":10953:10977   */\n      add\n        /* \"#utility.yul\":10935:10987   */\n      tag_628\n      jump\t// in\n    tag_704:\n        /* \"#utility.yul\":10358:11044   */\n      swap5\n      swap8\n      swap4\n      swap7\n      pop\n        /* \"#utility.yul\":10925:10987   */\n      swap4\n      swap5\n        /* \"#utility.yul\":11034:11036   */\n      0x60\n        /* \"#utility.yul\":11019:11037   */\n      add\n        /* \"#utility.yul\":11006:11038   */\n      calldataload\n      swap4\n      pop\n      pop\n      pop\n        /* \"#utility.yul\":10358:11044   */\n      jump\t// out\n        /* \"#utility.yul\":11049:11231   */\n    tag_630:\n        /* \"#utility.yul\":11108:11112   */\n      0x00\n      sub(shl(0x40, 0x01), 0x01)\n        /* \"#utility.yul\":11133:11139   */\n      dup3\n        /* \"#utility.yul\":11130:11160   */\n      gt\n        /* \"#utility.yul\":11127:11183   */\n      iszero\n      tag_707\n      jumpi\n        /* \"#utility.yul\":11163:11181   */\n      tag_707\n      tag_260\n      jump\t// in\n    tag_707:\n      pop\n        /* \"#utility.yul\":11208:11209   */\n      0x05\n        /* \"#utility.yul\":11204:11218   */\n      shl\n        /* \"#utility.yul\":11220:11224   */\n      0x20\n        /* \"#utility.yul\":11200:11225   */\n      add\n      swap1\n        /* \"#utility.yul\":11049:11231   */\n      jump\t// out\n        /* \"#utility.yul\":11236:12742   */\n    tag_145:\n        /* \"#utility.yul\":11385:11391   */\n      0x00\n        /* \"#utility.yul\":11393:11399   */\n      dup1\n        /* \"#utility.yul\":11401:11407   */\n      0x00\n        /* \"#utility.yul\":11409:11415   */\n      dup1\n        /* \"#utility.yul\":11417:11423   */\n      0x00\n        /* \"#utility.yul\":11425:11431   */\n      dup1\n        /* \"#utility.yul\":11478:11481   */\n      0xc0\n        /* \"#utility.yul\":11466:11475   */\n      dup8\n        /* \"#utility.yul\":11457:11464   */\n      dup10\n        /* \"#utility.yul\":11453:11476   */\n      sub\n        /* \"#utility.yul\":11449:11482   */\n      slt\n        /* \"#utility.yul\":11446:11499   */\n      iszero\n      tag_709\n      jumpi\n        /* \"#utility.yul\":11495:11496   */\n      0x00\n        /* \"#utility.yul\":11492:11493   */\n      dup1\n        /* \"#utility.yul\":11485:11497   */\n      revert\n        /* \"#utility.yul\":11446:11499   */\n    tag_709:\n        /* \"#utility.yul\":11518:11547   */\n      tag_710\n        /* \"#utility.yul\":11537:11546   */\n      dup8\n        /* \"#utility.yul\":11518:11547   */\n      tag_623\n      jump\t// in\n    tag_710:\n        /* \"#utility.yul\":11508:11547   */\n      swap6\n      pop\n        /* \"#utility.yul\":11566:11568   */\n      0x20\n        /* \"#utility.yul\":11619:11621   */\n      dup1\n        /* \"#utility.yul\":11608:11617   */\n      dup9\n        /* \"#utility.yul\":11604:11622   */\n      add\n        /* \"#utility.yul\":11591:11623   */\n      calldataload\n      sub(shl(0x40, 0x01), 0x01)\n        /* \"#utility.yul\":11683:11685   */\n      dup1\n        /* \"#utility.yul\":11675:11681   */\n      dup3\n        /* \"#utility.yul\":11672:11686   */\n      gt\n        /* \"#utility.yul\":11669:11703   */\n      iszero\n      tag_711\n      jumpi\n        /* \"#utility.yul\":11699:11700   */\n      0x00\n        /* \"#utility.yul\":11696:11697   */\n      dup1\n        /* \"#utility.yul\":11689:11701   */\n      revert\n        /* \"#utility.yul\":11669:11703   */\n    tag_711:\n        /* \"#utility.yul\":11722:11772   */\n      tag_712\n        /* \"#utility.yul\":11764:11771   */\n      dup12\n        /* \"#utility.yul\":11755:11761   */\n      dup4\n        /* \"#utility.yul\":11744:11753   */\n      dup13\n        /* \"#utility.yul\":11740:11762   */\n      add\n        /* \"#utility.yul\":11722:11772   */\n      tag_628\n      jump\t// in\n    tag_712:\n        /* \"#utility.yul\":11712:11772   */\n      swap8\n      pop\n        /* \"#utility.yul\":11819:11821   */\n      0x40\n        /* \"#utility.yul\":11808:11817   */\n      dup11\n        /* \"#utility.yul\":11804:11822   */\n      add\n        /* \"#utility.yul\":11791:11823   */\n      calldataload\n        /* \"#utility.yul\":11781:11823   */\n      swap7\n      pop\n        /* \"#utility.yul\":11870:11872   */\n      0x60\n        /* \"#utility.yul\":11859:11868   */\n      dup11\n        /* \"#utility.yul\":11855:11873   */\n      add\n        /* \"#utility.yul\":11842:11874   */\n      calldataload\n        /* \"#utility.yul\":11832:11874   */\n      swap6\n      pop\n        /* \"#utility.yul\":11927:11930   */\n      0x80\n        /* \"#utility.yul\":11916:11925   */\n      dup11\n        /* \"#utility.yul\":11912:11931   */\n      add\n        /* \"#utility.yul\":11899:11932   */\n      calldataload\n        /* \"#utility.yul\":11883:11932   */\n      swap2\n      pop\n        /* \"#utility.yul\":11957:11959   */\n      dup1\n        /* \"#utility.yul\":11947:11955   */\n      dup3\n        /* \"#utility.yul\":11944:11960   */\n      gt\n        /* \"#utility.yul\":11941:11977   */\n      iszero\n      tag_713\n      jumpi\n        /* \"#utility.yul\":11973:11974   */\n      0x00\n        /* \"#utility.yul\":11970:11971   */\n      dup1\n        /* \"#utility.yul\":11963:11975   */\n      revert\n        /* \"#utility.yul\":11941:11977   */\n    tag_713:\n        /* \"#utility.yul\":12011:12019   */\n      dup2\n        /* \"#utility.yul\":12000:12009   */\n      dup11\n        /* \"#utility.yul\":11996:12020   */\n      add\n        /* \"#utility.yul\":11986:12020   */\n      swap2\n      pop\n        /* \"#utility.yul\":12058:12065   */\n      dup11\n        /* \"#utility.yul\":12051:12055   */\n      0x1f\n        /* \"#utility.yul\":12047:12049   */\n      dup4\n        /* \"#utility.yul\":12043:12056   */\n      add\n        /* \"#utility.yul\":12039:12066   */\n      slt\n        /* \"#utility.yul\":12029:12084   */\n      tag_714\n      jumpi\n        /* \"#utility.yul\":12080:12081   */\n      0x00\n        /* \"#utility.yul\":12077:12078   */\n      dup1\n        /* \"#utility.yul\":12070:12082   */\n      revert\n        /* \"#utility.yul\":12029:12084   */\n    tag_714:\n        /* \"#utility.yul\":12116:12118   */\n      dup2\n        /* \"#utility.yul\":12103:12119   */\n      calldataload\n        /* \"#utility.yul\":12139:12198   */\n      tag_715\n        /* \"#utility.yul\":12155:12197   */\n      tag_716\n        /* \"#utility.yul\":12194:12196   */\n      dup3\n        /* \"#utility.yul\":12155:12197   */\n      tag_630\n      jump\t// in\n    tag_716:\n        /* \"#utility.yul\":12139:12198   */\n      tag_627\n      jump\t// in\n    tag_715:\n        /* \"#utility.yul\":12232:12247   */\n      dup2\n      dup2\n      mstore\n        /* \"#utility.yul\":12314:12315   */\n      0x05\n        /* \"#utility.yul\":12310:12320   */\n      swap2\n      swap1\n      swap2\n      shl\n        /* \"#utility.yul\":12302:12321   */\n      dup4\n      add\n        /* \"#utility.yul\":12298:12326   */\n      dup5\n      add\n      swap1\n        /* \"#utility.yul\":12263:12275   */\n      dup5\n      dup2\n      add\n      swap1\n        /* \"#utility.yul\":12338:12357   */\n      dup14\n      dup4\n      gt\n        /* \"#utility.yul\":12335:12374   */\n      iszero\n      tag_717\n      jumpi\n        /* \"#utility.yul\":12370:12371   */\n      0x00\n        /* \"#utility.yul\":12367:12368   */\n      dup1\n        /* \"#utility.yul\":12360:12372   */\n      revert\n        /* \"#utility.yul\":12335:12374   */\n    tag_717:\n        /* \"#utility.yul\":12402:12404   */\n      dup6\n        /* \"#utility.yul\":12398:12400   */\n      dup6\n        /* \"#utility.yul\":12394:12405   */\n      add\n        /* \"#utility.yul\":12414:12660   */\n    tag_718:\n        /* \"#utility.yul\":12430:12436   */\n      dup4\n        /* \"#utility.yul\":12425:12428   */\n      dup2\n        /* \"#utility.yul\":12422:12437   */\n      lt\n        /* \"#utility.yul\":12414:12660   */\n      iszero\n      tag_720\n      jumpi\n        /* \"#utility.yul\":12509:12511   */\n      dup5\n        /* \"#utility.yul\":12503:12506   */\n      dup2\n        /* \"#utility.yul\":12490:12507   */\n      calldataload\n        /* \"#utility.yul\":12487:12512   */\n      gt\n        /* \"#utility.yul\":12484:12529   */\n      iszero\n      tag_721\n      jumpi\n        /* \"#utility.yul\":12525:12526   */\n      0x00\n        /* \"#utility.yul\":12522:12523   */\n      dup1\n        /* \"#utility.yul\":12515:12527   */\n      revert\n        /* \"#utility.yul\":12484:12529   */\n    tag_721:\n        /* \"#utility.yul\":12554:12617   */\n      tag_722\n        /* \"#utility.yul\":12609:12616   */\n      dup16\n        /* \"#utility.yul\":12604:12606   */\n      dup9\n        /* \"#utility.yul\":12597:12600   */\n      dup4\n        /* \"#utility.yul\":12584:12601   */\n      calldataload\n        /* \"#utility.yul\":12580:12582   */\n      dup10\n        /* \"#utility.yul\":12576:12602   */\n      add\n        /* \"#utility.yul\":12572:12607   */\n      add\n        /* \"#utility.yul\":12554:12617   */\n      tag_628\n      jump\t// in\n    tag_722:\n        /* \"#utility.yul\":12542:12618   */\n      dup4\n      mstore\n        /* \"#utility.yul\":12638:12650   */\n      swap2\n      dup7\n      add\n      swap2\n        /* \"#utility.yul\":12447:12459   */\n      dup7\n      add\n        /* \"#utility.yul\":12414:12660   */\n      jump(tag_718)\n    tag_720:\n        /* \"#utility.yul\":12418:12421   */\n      pop\n        /* \"#utility.yul\":12679:12684   */\n      dup1\n        /* \"#utility.yul\":12669:12684   */\n      swap8\n      pop\n      pop\n      pop\n      pop\n      pop\n      pop\n      pop\n        /* \"#utility.yul\":12731:12734   */\n      0xa0\n        /* \"#utility.yul\":12720:12729   */\n      dup8\n        /* \"#utility.yul\":12716:12735   */\n      add\n        /* \"#utility.yul\":12703:12736   */\n      calldataload\n        /* \"#utility.yul\":12693:12736   */\n      swap1\n      pop\n        /* \"#utility.yul\":11236:12742   */\n      swap3\n      swap6\n      pop\n      swap3\n      swap6\n      pop\n      swap3\n      swap6\n      jump\t// out\n        /* \"#utility.yul\":14029:14882   */\n    tag_184:\n        /* \"#utility.yul\":14229:14233   */\n      0x00\n        /* \"#utility.yul\":14258:14260   */\n      0x20\n        /* \"#utility.yul\":14298:14300   */\n      dup1\n        /* \"#utility.yul\":14287:14296   */\n      dup4\n        /* \"#utility.yul\":14283:14301   */\n      add\n        /* \"#utility.yul\":14328:14330   */\n      dup2\n        /* \"#utility.yul\":14317:14326   */\n      dup5\n        /* \"#utility.yul\":14310:14331   */\n      mstore\n        /* \"#utility.yul\":14351:14357   */\n      dup1\n        /* \"#utility.yul\":14386:14392   */\n      dup6\n        /* \"#utility.yul\":14380:14393   */\n      mload\n        /* \"#utility.yul\":14417:14423   */\n      dup1\n        /* \"#utility.yul\":14409:14415   */\n      dup4\n        /* \"#utility.yul\":14402:14424   */\n      mstore\n        /* \"#utility.yul\":14455:14457   */\n      0x40\n        /* \"#utility.yul\":14444:14453   */\n      dup7\n        /* \"#utility.yul\":14440:14458   */\n      add\n        /* \"#utility.yul\":14433:14458   */\n      swap2\n      pop\n        /* \"#utility.yul\":14517:14519   */\n      0x40\n        /* \"#utility.yul\":14507:14513   */\n      dup2\n        /* \"#utility.yul\":14504:14505   */\n      0x05\n        /* \"#utility.yul\":14500:14514   */\n      shl\n        /* \"#utility.yul\":14489:14498   */\n      dup8\n        /* \"#utility.yul\":14485:14515   */\n      add\n        /* \"#utility.yul\":14481:14520   */\n      add\n        /* \"#utility.yul\":14467:14520   */\n      swap3\n      pop\n        /* \"#utility.yul\":14555:14557   */\n      dup4\n        /* \"#utility.yul\":14547:14553   */\n      dup8\n        /* \"#utility.yul\":14543:14558   */\n      add\n        /* \"#utility.yul\":14576:14577   */\n      0x00\n        /* \"#utility.yul\":14586:14853   */\n    tag_727:\n        /* \"#utility.yul\":14600:14606   */\n      dup3\n        /* \"#utility.yul\":14597:14598   */\n      dup2\n        /* \"#utility.yul\":14594:14607   */\n      lt\n        /* \"#utility.yul\":14586:14853   */\n      iszero\n      tag_657\n      jumpi\n        /* \"#utility.yul\":14693:14695   */\n      0x3f\n        /* \"#utility.yul\":14689:14696   */\n      not\n        /* \"#utility.yul\":14677:14686   */\n      dup9\n        /* \"#utility.yul\":14669:14675   */\n      dup7\n        /* \"#utility.yul\":14665:14687   */\n      sub\n        /* \"#utility.yul\":14661:14697   */\n      add\n        /* \"#utility.yul\":14656:14659   */\n      dup5\n        /* \"#utility.yul\":14649:14698   */\n      mstore\n        /* \"#utility.yul\":14721:14773   */\n      tag_730\n        /* \"#utility.yul\":14766:14772   */\n      dup6\n        /* \"#utility.yul\":14757:14763   */\n      dup4\n        /* \"#utility.yul\":14751:14764   */\n      mload\n        /* \"#utility.yul\":14721:14773   */\n      tag_629\n      jump\t// in\n    tag_730:\n        /* \"#utility.yul\":14711:14773   */\n      swap5\n      pop\n        /* \"#utility.yul\":14831:14843   */\n      swap3\n      dup6\n      add\n      swap3\n        /* \"#utility.yul\":14796:14811   */\n      swap1\n      dup6\n      add\n      swap1\n        /* \"#utility.yul\":14622:14623   */\n      0x01\n        /* \"#utility.yul\":14615:14624   */\n      add\n        /* \"#utility.yul\":14586:14853   */\n      jump(tag_727)\n        /* \"#utility.yul\":14887:15141   */\n    tag_191:\n        /* \"#utility.yul\":14955:14961   */\n      0x00\n        /* \"#utility.yul\":14963:14969   */\n      dup1\n        /* \"#utility.yul\":15016:15018   */\n      0x40\n        /* \"#utility.yul\":15004:15013   */\n      dup4\n        /* \"#utility.yul\":14995:15002   */\n      dup6\n        /* \"#utility.yul\":14991:15014   */\n      sub\n        /* \"#utility.yul\":14987:15019   */\n      slt\n        /* \"#utility.yul\":14984:15036   */\n      iszero\n      tag_732\n      jumpi\n        /* \"#utility.yul\":15032:15033   */\n      0x00\n        /* \"#utility.yul\":15029:15030   */\n      dup1\n        /* \"#utility.yul\":15022:15034   */\n      revert\n        /* \"#utility.yul\":14984:15036   */\n    tag_732:\n        /* \"#utility.yul\":15055:15084   */\n      tag_733\n        /* \"#utility.yul\":15074:15083   */\n      dup4\n        /* \"#utility.yul\":15055:15084   */\n      tag_623\n      jump\t// in\n    tag_733:\n        /* \"#utility.yul\":15045:15084   */\n      swap5\n        /* \"#utility.yul\":15131:15133   */\n      0x20\n        /* \"#utility.yul\":15116:15134   */\n      swap4\n      swap1\n      swap4\n      add\n        /* \"#utility.yul\":15103:15135   */\n      calldataload\n      swap4\n      pop\n      pop\n      pop\n        /* \"#utility.yul\":14887:15141   */\n      jump\t// out\n        /* \"#utility.yul\":15146:15537   */\n    tag_196:\n        /* \"#utility.yul\":15232:15238   */\n      0x00\n        /* \"#utility.yul\":15240:15246   */\n      dup1\n        /* \"#utility.yul\":15248:15254   */\n      0x00\n        /* \"#utility.yul\":15256:15262   */\n      dup1\n        /* \"#utility.yul\":15309:15312   */\n      0x80\n        /* \"#utility.yul\":15297:15306   */\n      dup6\n        /* \"#utility.yul\":15288:15295   */\n      dup8\n        /* \"#utility.yul\":15284:15307   */\n      sub\n        /* \"#utility.yul\":15280:15313   */\n      slt\n        /* \"#utility.yul\":15277:15330   */\n      iszero\n      tag_735\n      jumpi\n        /* \"#utility.yul\":15326:15327   */\n      0x00\n        /* \"#utility.yul\":15323:15324   */\n      dup1\n        /* \"#utility.yul\":15316:15328   */\n      revert\n        /* \"#utility.yul\":15277:15330   */\n    tag_735:\n        /* \"#utility.yul\":15362:15371   */\n      dup5\n        /* \"#utility.yul\":15349:15372   */\n      calldataload\n        /* \"#utility.yul\":15339:15372   */\n      swap4\n      pop\n        /* \"#utility.yul\":15419:15421   */\n      0x20\n        /* \"#utility.yul\":15408:15417   */\n      dup6\n        /* \"#utility.yul\":15404:15422   */\n      add\n        /* \"#utility.yul\":15391:15423   */\n      calldataload\n        /* \"#utility.yul\":15381:15423   */\n      swap3\n      pop\n        /* \"#utility.yul\":15470:15472   */\n      0x40\n        /* \"#utility.yul\":15459:15468   */\n      dup6\n        /* \"#utility.yul\":15455:15473   */\n      add\n        /* \"#utility.yul\":15442:15474   */\n      calldataload\n        /* \"#utility.yul\":15432:15474   */\n      swap2\n      pop\n        /* \"#utility.yul\":15493:15531   */\n      tag_736\n        /* \"#utility.yul\":15527:15529   */\n      0x60\n        /* \"#utility.yul\":15516:15525   */\n      dup7\n        /* \"#utility.yul\":15512:15530   */\n      add\n        /* \"#utility.yul\":15493:15531   */\n      tag_623\n      jump\t// in\n    tag_736:\n        /* \"#utility.yul\":15483:15531   */\n      swap1\n      pop\n        /* \"#utility.yul\":15146:15537   */\n      swap3\n      swap6\n      swap2\n      swap5\n      pop\n      swap3\n      pop\n      jump\t// out\n        /* \"#utility.yul\":15542:15797   */\n    tag_206:\n        /* \"#utility.yul\":15719:15721   */\n      0x20\n        /* \"#utility.yul\":15708:15717   */\n      dup2\n        /* \"#utility.yul\":15701:15722   */\n      mstore\n        /* \"#utility.yul\":15682:15686   */\n      0x00\n        /* \"#utility.yul\":15739:15791   */\n      tag_644\n        /* \"#utility.yul\":15787:15789   */\n      0x20\n        /* \"#utility.yul\":15776:15785   */\n      dup4\n        /* \"#utility.yul\":15772:15790   */\n      add\n        /* \"#utility.yul\":15764:15770   */\n      dup5\n        /* \"#utility.yul\":15739:15791   */\n      tag_626\n      jump\t// in\n        /* \"#utility.yul\":15802:15920   */\n    tag_631:\n        /* \"#utility.yul\":15888:15893   */\n      dup1\n        /* \"#utility.yul\":15881:15894   */\n      iszero\n        /* \"#utility.yul\":15874:15895   */\n      iszero\n        /* \"#utility.yul\":15867:15872   */\n      dup2\n        /* \"#utility.yul\":15864:15896   */\n      eq\n        /* \"#utility.yul\":15854:15914   */\n      tag_740\n      jumpi\n        /* \"#utility.yul\":15910:15911   */\n      0x00\n        /* \"#utility.yul\":15907:15908   */\n      dup1\n        /* \"#utility.yul\":15900:15912   */\n      revert\n        /* \"#utility.yul\":15854:15914   */\n    tag_740:\n        /* \"#utility.yul\":15802:15920   */\n      pop\n      jump\t// out\n        /* \"#utility.yul\":15925:17026   */\n    tag_209:\n        /* \"#utility.yul\":16024:16030   */\n      0x00\n        /* \"#utility.yul\":16032:16038   */\n      dup1\n        /* \"#utility.yul\":16040:16046   */\n      0x00\n        /* \"#utility.yul\":16093:16095   */\n      0x60\n        /* \"#utility.yul\":16081:16090   */\n      dup5\n        /* \"#utility.yul\":16072:16079   */\n      dup7\n        /* \"#utility.yul\":16068:16091   */\n      sub\n        /* \"#utility.yul\":16064:16096   */\n      slt\n        /* \"#utility.yul\":16061:16113   */\n      iszero\n      tag_742\n      jumpi\n        /* \"#utility.yul\":16109:16110   */\n      0x00\n        /* \"#utility.yul\":16106:16107   */\n      dup1\n        /* \"#utility.yul\":16099:16111   */\n      revert\n        /* \"#utility.yul\":16061:16113   */\n    tag_742:\n        /* \"#utility.yul\":16145:16154   */\n      dup4\n        /* \"#utility.yul\":16132:16155   */\n      calldataload\n        /* \"#utility.yul\":16122:16155   */\n      swap3\n      pop\n        /* \"#utility.yul\":16174:16176   */\n      0x20\n        /* \"#utility.yul\":16195:16233   */\n      tag_743\n        /* \"#utility.yul\":16229:16231   */\n      dup2\n        /* \"#utility.yul\":16218:16227   */\n      dup7\n        /* \"#utility.yul\":16214:16232   */\n      add\n        /* \"#utility.yul\":16195:16233   */\n      tag_623\n      jump\t// in\n    tag_743:\n        /* \"#utility.yul\":16185:16233   */\n      swap3\n      pop\n        /* \"#utility.yul\":16284:16286   */\n      0x40\n        /* \"#utility.yul\":16273:16282   */\n      dup6\n        /* \"#utility.yul\":16269:16287   */\n      add\n        /* \"#utility.yul\":16256:16288   */\n      calldataload\n      sub(shl(0x40, 0x01), 0x01)\n        /* \"#utility.yul\":16303:16309   */\n      dup2\n        /* \"#utility.yul\":16300:16330   */\n      gt\n        /* \"#utility.yul\":16297:16347   */\n      iszero\n      tag_744\n      jumpi\n        /* \"#utility.yul\":16343:16344   */\n      0x00\n        /* \"#utility.yul\":16340:16341   */\n      dup1\n        /* \"#utility.yul\":16333:16345   */\n      revert\n        /* \"#utility.yul\":16297:16347   */\n    tag_744:\n        /* \"#utility.yul\":16366:16388   */\n      dup6\n      add\n        /* \"#utility.yul\":16419:16423   */\n      0x1f\n        /* \"#utility.yul\":16411:16424   */\n      dup2\n      add\n        /* \"#utility.yul\":16407:16434   */\n      dup8\n      sgt\n        /* \"#utility.yul\":16397:16452   */\n      tag_745\n      jumpi\n        /* \"#utility.yul\":16448:16449   */\n      0x00\n        /* \"#utility.yul\":16445:16446   */\n      dup1\n        /* \"#utility.yul\":16438:16450   */\n      revert\n        /* \"#utility.yul\":16397:16452   */\n    tag_745:\n        /* \"#utility.yul\":16484:16486   */\n      dup1\n        /* \"#utility.yul\":16471:16487   */\n      calldataload\n        /* \"#utility.yul\":16507:16566   */\n      tag_746\n        /* \"#utility.yul\":16523:16565   */\n      tag_716\n        /* \"#utility.yul\":16562:16564   */\n      dup3\n        /* \"#utility.yul\":16523:16565   */\n      tag_630\n      jump\t// in\n        /* \"#utility.yul\":16507:16566   */\n    tag_746:\n        /* \"#utility.yul\":16600:16615   */\n      dup2\n      dup2\n      mstore\n        /* \"#utility.yul\":16682:16683   */\n      0x05\n        /* \"#utility.yul\":16678:16688   */\n      swap2\n      swap1\n      swap2\n      shl\n        /* \"#utility.yul\":16670:16689   */\n      dup3\n      add\n        /* \"#utility.yul\":16666:16694   */\n      dup4\n      add\n      swap1\n        /* \"#utility.yul\":16631:16643   */\n      dup4\n      dup2\n      add\n      swap1\n        /* \"#utility.yul\":16706:16725   */\n      dup10\n      dup4\n      gt\n        /* \"#utility.yul\":16703:16742   */\n      iszero\n      tag_748\n      jumpi\n        /* \"#utility.yul\":16738:16739   */\n      0x00\n        /* \"#utility.yul\":16735:16736   */\n      dup1\n        /* \"#utility.yul\":16728:16740   */\n      revert\n        /* \"#utility.yul\":16703:16742   */\n    tag_748:\n        /* \"#utility.yul\":16762:16773   */\n      swap3\n      dup5\n      add\n      swap3\n        /* \"#utility.yul\":16782:16996   */\n    tag_749:\n        /* \"#utility.yul\":16798:16804   */\n      dup3\n        /* \"#utility.yul\":16793:16796   */\n      dup5\n        /* \"#utility.yul\":16790:16805   */\n      lt\n        /* \"#utility.yul\":16782:16996   */\n      iszero\n      tag_751\n      jumpi\n        /* \"#utility.yul\":16878:16881   */\n      dup4\n        /* \"#utility.yul\":16865:16882   */\n      calldataload\n        /* \"#utility.yul\":16895:16923   */\n      tag_752\n        /* \"#utility.yul\":16917:16922   */\n      dup2\n        /* \"#utility.yul\":16895:16923   */\n      tag_631\n      jump\t// in\n    tag_752:\n        /* \"#utility.yul\":16936:16954   */\n      dup3\n      mstore\n        /* \"#utility.yul\":16815:16827   */\n      swap3\n      dup5\n      add\n      swap3\n        /* \"#utility.yul\":16974:16986   */\n      swap1\n      dup5\n      add\n      swap1\n        /* \"#utility.yul\":16782:16996   */\n      jump(tag_749)\n    tag_751:\n        /* \"#utility.yul\":17015:17020   */\n      dup1\n        /* \"#utility.yul\":17005:17020   */\n      swap6\n      pop\n      pop\n      pop\n      pop\n      pop\n      pop\n        /* \"#utility.yul\":15925:17026   */\n      swap3\n      pop\n      swap3\n      pop\n      swap3\n      jump\t// out\n        /* \"#utility.yul\":17031:18275   */\n    tag_223:\n        /* \"#utility.yul\":17225:17229   */\n      0x00\n        /* \"#utility.yul\":17254:17256   */\n      0x20\n        /* \"#utility.yul\":17294:17296   */\n      dup1\n        /* \"#utility.yul\":17283:17292   */\n      dup4\n        /* \"#utility.yul\":17279:17297   */\n      add\n        /* \"#utility.yul\":17324:17326   */\n      dup2\n        /* \"#utility.yul\":17313:17322   */\n      dup5\n        /* \"#utility.yul\":17306:17327   */\n      mstore\n        /* \"#utility.yul\":17347:17353   */\n      dup1\n        /* \"#utility.yul\":17382:17388   */\n      dup6\n        /* \"#utility.yul\":17376:17389   */\n      mload\n        /* \"#utility.yul\":17413:17419   */\n      dup1\n        /* \"#utility.yul\":17405:17411   */\n      dup4\n        /* \"#utility.yul\":17398:17420   */\n      mstore\n        /* \"#utility.yul\":17439:17441   */\n      0x40\n        /* \"#utility.yul\":17429:17441   */\n      swap3\n      pop\n        /* \"#utility.yul\":17472:17474   */\n      dup3\n        /* \"#utility.yul\":17461:17470   */\n      dup7\n        /* \"#utility.yul\":17457:17475   */\n      add\n        /* \"#utility.yul\":17450:17475   */\n      swap2\n      pop\n        /* \"#utility.yul\":17534:17536   */\n      dup3\n        /* \"#utility.yul\":17524:17530   */\n      dup2\n        /* \"#utility.yul\":17521:17522   */\n      0x05\n        /* \"#utility.yul\":17517:17531   */\n      shl\n        /* \"#utility.yul\":17506:17515   */\n      dup8\n        /* \"#utility.yul\":17502:17532   */\n      add\n        /* \"#utility.yul\":17498:17537   */\n      add\n        /* \"#utility.yul\":17572:17574   */\n      dup5\n        /* \"#utility.yul\":17564:17570   */\n      dup9\n        /* \"#utility.yul\":17560:17575   */\n      add\n        /* \"#utility.yul\":17593:17594   */\n      0x00\n        /* \"#utility.yul\":17603:18246   */\n    tag_754:\n        /* \"#utility.yul\":17617:17623   */\n      dup4\n        /* \"#utility.yul\":17614:17615   */\n      dup2\n        /* \"#utility.yul\":17611:17624   */\n      lt\n        /* \"#utility.yul\":17603:18246   */\n      iszero\n      tag_756\n      jumpi\n        /* \"#utility.yul\":17710:17712   */\n      0x3f\n        /* \"#utility.yul\":17706:17713   */\n      not\n        /* \"#utility.yul\":17694:17703   */\n      dup10\n        /* \"#utility.yul\":17686:17692   */\n      dup5\n        /* \"#utility.yul\":17682:17704   */\n      sub\n        /* \"#utility.yul\":17678:17714   */\n      add\n        /* \"#utility.yul\":17673:17676   */\n      dup6\n        /* \"#utility.yul\":17666:17715   */\n      mstore\n        /* \"#utility.yul\":17744:17750   */\n      dup2\n        /* \"#utility.yul\":17738:17751   */\n      mload\n        /* \"#utility.yul\":17774:17778   */\n      0x80\n        /* \"#utility.yul\":17812:17814   */\n      dup2\n        /* \"#utility.yul\":17806:17815   */\n      mload\n        /* \"#utility.yul\":17798:17804   */\n      dup6\n        /* \"#utility.yul\":17791:17816   */\n      mstore\n        /* \"#utility.yul\":17867:17869   */\n      dup9\n        /* \"#utility.yul\":17863:17865   */\n      dup3\n        /* \"#utility.yul\":17859:17870   */\n      add\n        /* \"#utility.yul\":17853:17871   */\n      mload\n        /* \"#utility.yul\":17848:17850   */\n      dup10\n        /* \"#utility.yul\":17840:17846   */\n      dup7\n        /* \"#utility.yul\":17836:17851   */\n      add\n        /* \"#utility.yul\":17829:17872   */\n      mstore\n        /* \"#utility.yul\":17919:17921   */\n      dup8\n        /* \"#utility.yul\":17915:17917   */\n      dup3\n        /* \"#utility.yul\":17911:17922   */\n      add\n        /* \"#utility.yul\":17905:17923   */\n      mload\n        /* \"#utility.yul\":17960:17962   */\n      dup2\n        /* \"#utility.yul\":17955:17957   */\n      dup10\n        /* \"#utility.yul\":17947:17953   */\n      dup8\n        /* \"#utility.yul\":17943:17958   */\n      add\n        /* \"#utility.yul\":17936:17963   */\n      mstore\n        /* \"#utility.yul\":17990:18038   */\n      tag_757\n        /* \"#utility.yul\":18034:18036   */\n      dup3\n        /* \"#utility.yul\":18026:18032   */\n      dup8\n        /* \"#utility.yul\":18022:18037   */\n      add\n        /* \"#utility.yul\":18008:18020   */\n      dup3\n        /* \"#utility.yul\":17990:18038   */\n      tag_624\n      jump\t// in\n    tag_757:\n        /* \"#utility.yul\":18061:18065   */\n      0x60\n        /* \"#utility.yul\":18122:18133   */\n      swap4\n      dup5\n      add\n        /* \"#utility.yul\":18116:18134   */\n      mload\n        /* \"#utility.yul\":18109:18135   */\n      iszero\n        /* \"#utility.yul\":18102:18136   */\n      iszero\n        /* \"#utility.yul\":18085:18100   */\n      swap7\n      swap1\n      swap4\n      add\n        /* \"#utility.yul\":18078:18137   */\n      swap6\n      swap1\n      swap6\n      mstore\n      pop\n        /* \"#utility.yul\":18224:18236   */\n      swap5\n      dup8\n      add\n      swap5\n        /* \"#utility.yul\":17976:18038   */\n      swap3\n      pop\n        /* \"#utility.yul\":18189:18204   */\n      swap1\n      dup7\n      add\n      swap1\n        /* \"#utility.yul\":17639:17640   */\n      0x01\n        /* \"#utility.yul\":17632:17641   */\n      add\n        /* \"#utility.yul\":17603:18246   */\n      jump(tag_754)\n    tag_756:\n      pop\n        /* \"#utility.yul\":18263:18269   */\n      swap1\n      swap9\n        /* \"#utility.yul\":17031:18275   */\n      swap8\n      pop\n      pop\n      pop\n      pop\n      pop\n      pop\n      pop\n      pop\n      jump\t// out\n        /* \"#utility.yul\":18280:18987   */\n    tag_228:\n        /* \"#utility.yul\":18561:18586   */\n      dup8\n      dup2\n      mstore\n      sub(shl(0xa0, 0x01), 0x01)\n        /* \"#utility.yul\":18622:18654   */\n      dup8\n      and\n        /* \"#utility.yul\":18617:18619   */\n      0x20\n        /* \"#utility.yul\":18602:18620   */\n      dup3\n      add\n        /* \"#utility.yul\":18595:18655   */\n      mstore\n        /* \"#utility.yul\":18691:18694   */\n      0xe0\n        /* \"#utility.yul\":18686:18688   */\n      0x40\n        /* \"#utility.yul\":18671:18689   */\n      dup3\n      add\n        /* \"#utility.yul\":18664:18695   */\n      dup2\n      swap1\n      mstore\n      0x00\n      swap1\n        /* \"#utility.yul\":18712:18758   */\n      tag_759\n      swap1\n        /* \"#utility.yul\":18738:18757   */\n      dup4\n      add\n        /* \"#utility.yul\":18730:18736   */\n      dup9\n        /* \"#utility.yul\":18712:18758   */\n      tag_624\n      jump\t// in\n    tag_759:\n        /* \"#utility.yul\":18789:18791   */\n      0x60\n        /* \"#utility.yul\":18774:18792   */\n      dup4\n      add\n        /* \"#utility.yul\":18767:18801   */\n      swap7\n      swap1\n      swap7\n      mstore\n      pop\n        /* \"#utility.yul\":18845:18859   */\n      swap3\n      iszero\n        /* \"#utility.yul\":18838:18860   */\n      iszero\n        /* \"#utility.yul\":18832:18835   */\n      0x80\n        /* \"#utility.yul\":18817:18836   */\n      dup5\n      add\n        /* \"#utility.yul\":18810:18861   */\n      mstore\n        /* \"#utility.yul\":18905:18919   */\n      swap1\n      iszero\n        /* \"#utility.yul\":18898:18920   */\n      iszero\n        /* \"#utility.yul\":18892:18895   */\n      0xa0\n        /* \"#utility.yul\":18877:18896   */\n      dup4\n      add\n        /* \"#utility.yul\":18870:18921   */\n      mstore\n        /* \"#utility.yul\":18965:18979   */\n      iszero\n        /* \"#utility.yul\":18958:18980   */\n      iszero\n        /* \"#utility.yul\":18952:18955   */\n      0xc0\n        /* \"#utility.yul\":18937:18956   */\n      swap1\n      swap2\n      add\n        /* \"#utility.yul\":18930:18981   */\n      mstore\n        /* \"#utility.yul\":18704:18758   */\n      swap4\n        /* \"#utility.yul\":18280:18987   */\n      swap3\n      pop\n      pop\n      pop\n      jump\t// out\n        /* \"#utility.yul\":18992:19437   */\n    tag_233:\n        /* \"#utility.yul\":19219:19225   */\n      dup5\n        /* \"#utility.yul\":19208:19217   */\n      dup2\n        /* \"#utility.yul\":19201:19226   */\n      mstore\n        /* \"#utility.yul\":19262:19268   */\n      dup4\n        /* \"#utility.yul\":19257:19259   */\n      0x20\n        /* \"#utility.yul\":19246:19255   */\n      dup3\n        /* \"#utility.yul\":19242:19260   */\n      add\n        /* \"#utility.yul\":19235:19269   */\n      mstore\n        /* \"#utility.yul\":19305:19308   */\n      0x80\n        /* \"#utility.yul\":19300:19302   */\n      0x40\n        /* \"#utility.yul\":19289:19298   */\n      dup3\n        /* \"#utility.yul\":19285:19303   */\n      add\n        /* \"#utility.yul\":19278:19309   */\n      mstore\n        /* \"#utility.yul\":19182:19186   */\n      0x00\n        /* \"#utility.yul\":19326:19372   */\n      tag_761\n        /* \"#utility.yul\":19367:19370   */\n      0x80\n        /* \"#utility.yul\":19356:19365   */\n      dup4\n        /* \"#utility.yul\":19352:19371   */\n      add\n        /* \"#utility.yul\":19344:19350   */\n      dup6\n        /* \"#utility.yul\":19326:19372   */\n      tag_624\n      jump\t// in\n    tag_761:\n        /* \"#utility.yul\":19318:19372   */\n      swap1\n      pop\n        /* \"#utility.yul\":19422:19428   */\n      dup3\n        /* \"#utility.yul\":19415:19429   */\n      iszero\n        /* \"#utility.yul\":19408:19430   */\n      iszero\n        /* \"#utility.yul\":19403:19405   */\n      0x60\n        /* \"#utility.yul\":19392:19401   */\n      dup4\n        /* \"#utility.yul\":19388:19406   */\n      add\n        /* \"#utility.yul\":19381:19431   */\n      mstore\n        /* \"#utility.yul\":18992:19437   */\n      swap6\n      swap5\n      pop\n      pop\n      pop\n      pop\n      pop\n      jump\t// out\n        /* \"#utility.yul\":19442:19569   */\n    tag_632:\n        /* \"#utility.yul\":19503:19513   */\n      0x4e487b71\n        /* \"#utility.yul\":19498:19501   */\n      0xe0\n        /* \"#utility.yul\":19494:19514   */\n      shl\n        /* \"#utility.yul\":19491:19492   */\n      0x00\n        /* \"#utility.yul\":19484:19515   */\n      mstore\n        /* \"#utility.yul\":19534:19538   */\n      0x11\n        /* \"#utility.yul\":19531:19532   */\n      0x04\n        /* \"#utility.yul\":19524:19539   */\n      mstore\n        /* \"#utility.yul\":19558:19562   */\n      0x24\n        /* \"#utility.yul\":19555:19556   */\n      0x00\n        /* \"#utility.yul\":19548:19563   */\n      revert\n        /* \"#utility.yul\":19574:19742   */\n    tag_236:\n        /* \"#utility.yul\":19647:19656   */\n      dup1\n      dup3\n      mul\n        /* \"#utility.yul\":19678:19687   */\n      dup2\n      iszero\n        /* \"#utility.yul\":19695:19710   */\n      dup3\n      dup3\n      div\n        /* \"#utility.yul\":19689:19711   */\n      dup5\n      eq\n        /* \"#utility.yul\":19675:19712   */\n      or\n        /* \"#utility.yul\":19665:19736   */\n      tag_234\n      jumpi\n        /* \"#utility.yul\":19716:19734   */\n      tag_234\n      tag_632\n      jump\t// in\n        /* \"#utility.yul\":19747:19872   */\n    tag_238:\n        /* \"#utility.yul\":19812:19821   */\n      dup1\n      dup3\n      add\n        /* \"#utility.yul\":19833:19843   */\n      dup1\n      dup3\n      gt\n        /* \"#utility.yul\":19830:19866   */\n      iszero\n      tag_234\n      jumpi\n        /* \"#utility.yul\":19846:19864   */\n      tag_234\n      tag_632\n      jump\t// in\n        /* \"#utility.yul\":19877:20257   */\n    tag_252:\n        /* \"#utility.yul\":19956:19957   */\n      0x01\n        /* \"#utility.yul\":19952:19964   */\n      dup2\n      dup2\n      shr\n      swap1\n        /* \"#utility.yul\":19999:20011   */\n      dup3\n      and\n      dup1\n        /* \"#utility.yul\":20020:20081   */\n      tag_770\n      jumpi\n        /* \"#utility.yul\":20074:20078   */\n      0x7f\n        /* \"#utility.yul\":20066:20072   */\n      dup3\n        /* \"#utility.yul\":20062:20079   */\n      and\n        /* \"#utility.yul\":20052:20079   */\n      swap2\n      pop\n        /* \"#utility.yul\":20020:20081   */\n    tag_770:\n        /* \"#utility.yul\":20127:20129   */\n      0x20\n        /* \"#utility.yul\":20119:20125   */\n      dup3\n        /* \"#utility.yul\":20116:20130   */\n      lt\n        /* \"#utility.yul\":20096:20114   */\n      dup2\n        /* \"#utility.yul\":20093:20131   */\n      sub\n        /* \"#utility.yul\":20090:20251   */\n      tag_771\n      jumpi\n        /* \"#utility.yul\":20173:20183   */\n      0x4e487b71\n        /* \"#utility.yul\":20168:20171   */\n      0xe0\n        /* \"#utility.yul\":20164:20184   */\n      shl\n        /* \"#utility.yul\":20161:20162   */\n      0x00\n        /* \"#utility.yul\":20154:20185   */\n      mstore\n        /* \"#utility.yul\":20208:20212   */\n      0x22\n        /* \"#utility.yul\":20205:20206   */\n      0x04\n        /* \"#utility.yul\":20198:20213   */\n      mstore\n        /* \"#utility.yul\":20236:20240   */\n      0x24\n        /* \"#utility.yul\":20233:20234   */\n      0x00\n        /* \"#utility.yul\":20226:20241   */\n      revert\n        /* \"#utility.yul\":20090:20251   */\n    tag_771:\n      pop\n        /* \"#utility.yul\":19877:20257   */\n      swap2\n      swap1\n      pop\n      jump\t// out\n        /* \"#utility.yul\":20262:20389   */\n    tag_270:\n        /* \"#utility.yul\":20323:20333   */\n      0x4e487b71\n        /* \"#utility.yul\":20318:20321   */\n      0xe0\n        /* \"#utility.yul\":20314:20334   */\n      shl\n        /* \"#utility.yul\":20311:20312   */\n      0x00\n        /* \"#utility.yul\":20304:20335   */\n      mstore\n        /* \"#utility.yul\":20354:20358   */\n      0x32\n        /* \"#utility.yul\":20351:20352   */\n      0x04\n        /* \"#utility.yul\":20344:20359   */\n      mstore\n        /* \"#utility.yul\":20378:20382   */\n      0x24\n        /* \"#utility.yul\":20375:20376   */\n      0x00\n        /* \"#utility.yul\":20368:20383   */\n      revert\n        /* \"#utility.yul\":20394:20529   */\n    tag_281:\n        /* \"#utility.yul\":20433:20436   */\n      0x00\n        /* \"#utility.yul\":20454:20471   */\n      0x01\n      dup3\n      add\n        /* \"#utility.yul\":20451:20494   */\n      tag_775\n      jumpi\n        /* \"#utility.yul\":20474:20492   */\n      tag_775\n      tag_632\n      jump\t// in\n    tag_775:\n      pop\n        /* \"#utility.yul\":20521:20522   */\n      0x01\n        /* \"#utility.yul\":20510:20523   */\n      add\n      swap1\n        /* \"#utility.yul\":20394:20529   */\n      jump\t// out\n        /* \"#utility.yul\":20660:21205   */\n    tag_634:\n        /* \"#utility.yul\":20762:20764   */\n      0x1f\n        /* \"#utility.yul\":20757:20760   */\n      dup3\n        /* \"#utility.yul\":20754:20765   */\n      gt\n        /* \"#utility.yul\":20751:21199   */\n      iszero\n      tag_778\n      jumpi\n        /* \"#utility.yul\":20798:20799   */\n      0x00\n        /* \"#utility.yul\":20823:20828   */\n      dup2\n        /* \"#utility.yul\":20819:20821   */\n      dup2\n        /* \"#utility.yul\":20812:20829   */\n      mstore\n        /* \"#utility.yul\":20868:20872   */\n      0x20\n        /* \"#utility.yul\":20864:20866   */\n      dup2\n        /* \"#utility.yul\":20854:20873   */\n      keccak256\n        /* \"#utility.yul\":20938:20940   */\n      0x1f\n        /* \"#utility.yul\":20926:20936   */\n      dup6\n        /* \"#utility.yul\":20922:20941   */\n      add\n        /* \"#utility.yul\":20919:20920   */\n      0x05\n        /* \"#utility.yul\":20915:20942   */\n      shr\n        /* \"#utility.yul\":20909:20913   */\n      dup2\n        /* \"#utility.yul\":20905:20943   */\n      add\n        /* \"#utility.yul\":20974:20978   */\n      0x20\n        /* \"#utility.yul\":20962:20972   */\n      dup7\n        /* \"#utility.yul\":20959:20979   */\n      lt\n        /* \"#utility.yul\":20956:21003   */\n      iszero\n      tag_779\n      jumpi\n      pop\n        /* \"#utility.yul\":20997:21001   */\n      dup1\n        /* \"#utility.yul\":20956:21003   */\n    tag_779:\n        /* \"#utility.yul\":21052:21054   */\n      0x1f\n        /* \"#utility.yul\":21047:21050   */\n      dup6\n        /* \"#utility.yul\":21043:21055   */\n      add\n        /* \"#utility.yul\":21040:21041   */\n      0x05\n        /* \"#utility.yul\":21036:21056   */\n      shr\n        /* \"#utility.yul\":21030:21034   */\n      dup3\n        /* \"#utility.yul\":21026:21057   */\n      add\n        /* \"#utility.yul\":21016:21057   */\n      swap2\n      pop\n        /* \"#utility.yul\":21107:21189   */\n    tag_780:\n        /* \"#utility.yul\":21125:21127   */\n      dup2\n        /* \"#utility.yul\":21118:21123   */\n      dup2\n        /* \"#utility.yul\":21115:21128   */\n      lt\n        /* \"#utility.yul\":21107:21189   */\n      iszero\n      tag_782\n      jumpi\n        /* \"#utility.yul\":21170:21187   */\n      dup3\n      dup2\n      sstore\n        /* \"#utility.yul\":21151:21152   */\n      0x01\n        /* \"#utility.yul\":21140:21153   */\n      add\n        /* \"#utility.yul\":21107:21189   */\n      jump(tag_780)\n    tag_782:\n        /* \"#utility.yul\":21111:21114   */\n      pop\n      pop\n      pop\n        /* \"#utility.yul\":20751:21199   */\n    tag_778:\n        /* \"#utility.yul\":20660:21205   */\n      pop\n      pop\n      pop\n      jump\t// out\n        /* \"#utility.yul\":21381:22733   */\n    tag_302:\n        /* \"#utility.yul\":21507:21510   */\n      dup2\n        /* \"#utility.yul\":21501:21511   */\n      mload\n      sub(shl(0x40, 0x01), 0x01)\n        /* \"#utility.yul\":21526:21532   */\n      dup2\n        /* \"#utility.yul\":21523:21553   */\n      gt\n        /* \"#utility.yul\":21520:21576   */\n      iszero\n      tag_786\n      jumpi\n        /* \"#utility.yul\":21556:21574   */\n      tag_786\n      tag_260\n      jump\t// in\n    tag_786:\n        /* \"#utility.yul\":21585:21682   */\n      tag_787\n        /* \"#utility.yul\":21675:21681   */\n      dup2\n        /* \"#utility.yul\":21635:21673   */\n      tag_788\n        /* \"#utility.yul\":21667:21671   */\n      dup5\n        /* \"#utility.yul\":21661:21672   */\n      sload\n        /* \"#utility.yul\":21635:21673   */\n      tag_252\n      jump\t// in\n    tag_788:\n        /* \"#utility.yul\":21629:21633   */\n      dup5\n        /* \"#utility.yul\":21585:21682   */\n      tag_634\n      jump\t// in\n    tag_787:\n        /* \"#utility.yul\":21737:21741   */\n      0x20\n      dup1\n        /* \"#utility.yul\":21801:21803   */\n      0x1f\n        /* \"#utility.yul\":21790:21804   */\n      dup4\n      gt\n        /* \"#utility.yul\":21818:21819   */\n      0x01\n        /* \"#utility.yul\":21813:22476   */\n      dup2\n      eq\n      tag_790\n      jumpi\n        /* \"#utility.yul\":22520:22521   */\n      0x00\n        /* \"#utility.yul\":22537:22543   */\n      dup5\n        /* \"#utility.yul\":22534:22623   */\n      iszero\n      tag_791\n      jumpi\n      pop\n        /* \"#utility.yul\":22589:22608   */\n      dup6\n      dup4\n      add\n        /* \"#utility.yul\":22583:22609   */\n      mload\n        /* \"#utility.yul\":22534:22623   */\n    tag_791:\n      not(0x00)\n        /* \"#utility.yul\":21338:21339   */\n      0x03\n        /* \"#utility.yul\":21334:21345   */\n      dup7\n      swap1\n      shl\n        /* \"#utility.yul\":21330:21354   */\n      shr\n        /* \"#utility.yul\":21326:21355   */\n      not\n        /* \"#utility.yul\":21316:21356   */\n      and\n        /* \"#utility.yul\":21362:21363   */\n      0x01\n        /* \"#utility.yul\":21358:21369   */\n      dup6\n      swap1\n      shl\n        /* \"#utility.yul\":21313:21370   */\n      or\n        /* \"#utility.yul\":22636:22717   */\n      dup6\n      sstore\n        /* \"#utility.yul\":21783:22727   */\n      jump(tag_782)\n        /* \"#utility.yul\":21813:22476   */\n    tag_790:\n        /* \"#utility.yul\":20607:20608   */\n      0x00\n        /* \"#utility.yul\":20600:20614   */\n      dup6\n      dup2\n      mstore\n        /* \"#utility.yul\":20644:20648   */\n      0x20\n        /* \"#utility.yul\":20631:20649   */\n      dup2\n      keccak256\n      not(0x1f)\n        /* \"#utility.yul\":21849:21869   */\n      dup7\n      and\n      swap2\n        /* \"#utility.yul\":21967:22203   */\n    tag_794:\n        /* \"#utility.yul\":21981:21988   */\n      dup3\n        /* \"#utility.yul\":21978:21979   */\n      dup2\n        /* \"#utility.yul\":21975:21989   */\n      lt\n        /* \"#utility.yul\":21967:22203   */\n      iszero\n      tag_796\n      jumpi\n        /* \"#utility.yul\":22070:22089   */\n      dup9\n      dup7\n      add\n        /* \"#utility.yul\":22064:22090   */\n      mload\n        /* \"#utility.yul\":22049:22091   */\n      dup3\n      sstore\n        /* \"#utility.yul\":22162:22189   */\n      swap5\n      dup5\n      add\n      swap5\n        /* \"#utility.yul\":22130:22131   */\n      0x01\n        /* \"#utility.yul\":22118:22132   */\n      swap1\n      swap2\n      add\n      swap1\n        /* \"#utility.yul\":21997:22016   */\n      dup5\n      add\n        /* \"#utility.yul\":21967:22203   */\n      jump(tag_794)\n    tag_796:\n        /* \"#utility.yul\":21971:21974   */\n      pop\n        /* \"#utility.yul\":22231:22237   */\n      dup6\n        /* \"#utility.yul\":22222:22229   */\n      dup3\n        /* \"#utility.yul\":22219:22238   */\n      lt\n        /* \"#utility.yul\":22216:22417   */\n      iszero\n      tag_797\n      jumpi\n        /* \"#utility.yul\":22292:22311   */\n      dup8\n      dup6\n      add\n        /* \"#utility.yul\":22286:22312   */\n      mload\n      not(0x00)\n        /* \"#utility.yul\":22375:22376   */\n      0x03\n        /* \"#utility.yul\":22371:22385   */\n      dup9\n      swap1\n      shl\n        /* \"#utility.yul\":22387:22390   */\n      0xf8\n        /* \"#utility.yul\":22367:22391   */\n      and\n        /* \"#utility.yul\":22363:22400   */\n      shr\n        /* \"#utility.yul\":22359:22401   */\n      not\n        /* \"#utility.yul\":22344:22402   */\n      and\n        /* \"#utility.yul\":22329:22403   */\n      dup2\n      sstore\n        /* \"#utility.yul\":22216:22417   */\n    tag_797:\n      pop\n      pop\n      pop\n      pop\n      pop\n        /* \"#utility.yul\":22463:22464   */\n      0x01\n        /* \"#utility.yul\":22447:22461   */\n      swap1\n      dup2\n      shl\n        /* \"#utility.yul\":22443:22465   */\n      add\n        /* \"#utility.yul\":22430:22466   */\n      swap1\n      sstore\n      pop\n        /* \"#utility.yul\":21381:22733   */\n      jump\t// out\n        /* \"#utility.yul\":22738:22955   */\n    tag_324:\n        /* \"#utility.yul\":22778:22779   */\n      0x00\n        /* \"#utility.yul\":22804:22805   */\n      dup3\n        /* \"#utility.yul\":22794:22926   */\n      tag_799\n      jumpi\n        /* \"#utility.yul\":22848:22858   */\n      0x4e487b71\n        /* \"#utility.yul\":22843:22846   */\n      0xe0\n        /* \"#utility.yul\":22839:22859   */\n      shl\n        /* \"#utility.yul\":22836:22837   */\n      0x00\n        /* \"#utility.yul\":22829:22860   */\n      mstore\n        /* \"#utility.yul\":22883:22887   */\n      0x12\n        /* \"#utility.yul\":22880:22881   */\n      0x04\n        /* \"#utility.yul\":22873:22888   */\n      mstore\n        /* \"#utility.yul\":22911:22915   */\n      0x24\n        /* \"#utility.yul\":22908:22909   */\n      0x00\n        /* \"#utility.yul\":22901:22916   */\n      revert\n        /* \"#utility.yul\":22794:22926   */\n    tag_799:\n      pop\n        /* \"#utility.yul\":22940:22949   */\n      div\n      swap1\n        /* \"#utility.yul\":22738:22955   */\n      jump\t// out\n        /* \"#utility.yul\":23239:23484   */\n    tag_493:\n        /* \"#utility.yul\":23306:23312   */\n      0x00\n        /* \"#utility.yul\":23359:23361   */\n      0x20\n        /* \"#utility.yul\":23347:23356   */\n      dup3\n        /* \"#utility.yul\":23338:23345   */\n      dup5\n        /* \"#utility.yul\":23334:23357   */\n      sub\n        /* \"#utility.yul\":23330:23362   */\n      slt\n        /* \"#utility.yul\":23327:23379   */\n      iszero\n      tag_802\n      jumpi\n        /* \"#utility.yul\":23375:23376   */\n      0x00\n        /* \"#utility.yul\":23372:23373   */\n      dup1\n        /* \"#utility.yul\":23365:23377   */\n      revert\n        /* \"#utility.yul\":23327:23379   */\n    tag_802:\n        /* \"#utility.yul\":23407:23416   */\n      dup2\n        /* \"#utility.yul\":23401:23417   */\n      mload\n        /* \"#utility.yul\":23426:23454   */\n      tag_245\n        /* \"#utility.yul\":23448:23453   */\n      dup2\n        /* \"#utility.yul\":23426:23454   */\n      tag_631\n      jump\t// in\n\n    auxdata: 0xa26469706673582212202420972d50a030554bb683baffdec99c4d6257e39dabd2b64a0775fccdb711df64736f6c63430008130033\n}\n",
				"bytecode": {
					"linkReferences": {},
					"object": "608060408190526000805473ece897a85688f2e83a73fed36b9d1a6efcc99e936001600160a01b0319918216179091556015805473874069fa1eb16d44d622f2e0ca25eea172369bc192168217905563313ce56760e01b82529063313ce56790608490602090600481865afa1580156200007d573d6000803e3d6000fd5b505050506040513d601f19601f82011682018060405250810190620000a39190620000c7565b620000b090600a62000208565b601655348015620000c057600080fd5b5062000219565b600060208284031215620000da57600080fd5b815160ff81168114620000ec57600080fd5b9392505050565b634e487b7160e01b600052601160045260246000fd5b600181815b808511156200014a5781600019048211156200012e576200012e620000f3565b808516156200013c57918102915b93841c93908002906200010e565b509250929050565b600082620001635750600162000202565b81620001725750600062000202565b81600181146200018b57600281146200019657620001b6565b600191505062000202565b60ff841115620001aa57620001aa620000f3565b50506001821b62000202565b5060208310610133831016604e8410600b8410161715620001db575081810a62000202565b620001e7838362000109565b8060001904821115620001fe57620001fe620000f3565b0290505b92915050565b6000620000ec60ff84168362000152565b61439f80620002296000396000f3fe608060405234801561001057600080fd5b50600436106102535760003560e01c806368df3299116101465780639a23218f116100c3578063ca2e7f9b11610087578063ca2e7f9b146106b6578063cc4903ca146106c9578063d7e93794146106dc578063f31e72e4146106fc578063f692a3bb1461071c578063fb47e9e61461074257600080fd5b80639a23218f1461060a578063a58543fe1461061d578063b3265ecd14610655578063b9c745b314610668578063c0ac4ae41461069657600080fd5b80637a1bc3751161010a5780637a1bc375146105565780637e9508191461055e5780638e6da6191461058c57806395ecea1f146105d7578063964f6566146105ea57600080fd5b806368df3299146104ad57806369bff3fb146104c05780636b8ac0e71461050d5780636f5fde111461052057806373fd653d1461054357600080fd5b80633882db7d116101d45780634496260911610198578063449626091461041e5780634fe1cfad146104315780635822bff11461045a5780635b76074e1461047a5780635fa7a90a1461048d57600080fd5b80633882db7d14610386578063392a5822146103af5780633abb615a146103cf5780633b43b7d0146103e25780633bdd0ad1146103f557600080fd5b80631b6f24851161021b5780631b6f2485146102fa5780631bd1ebc4146103205780632076a35a146103335780632394e5dc1461035357806325f184241461037357600080fd5b806303f16747146102585780630478318b1461027e57806307f6646e1461029e578063125bb83d146102be578063196f7f1e146102e5575b600080fd5b61026b6102663660046137ab565b610765565b6040519081526020015b60405180910390f35b61029161028c3660046137e9565b6107f5565b6040516102759190613851565b6102b16102ac3660046137e9565b610907565b604051610275919061392b565b6102d16102cc3660046137ab565b610b1e565b60405161027598979695949392919061398d565b6102f86102f3366004613aab565b610ca2565b005b61030d610308366004613b01565b610e75565b6040516102759796959493929190613b1a565b61026b61032e366004613b01565b610f5a565b610346610341366004613b6c565b6110c5565b6040516102759190613b98565b6103666103613660046137e9565b6113b3565b6040516102759190613ca7565b61026b6103813660046137e9565b611555565b61026b6103943660046137e9565b6001600160a01b03166000908152600a602052604090205490565b6103c26103bd3660046137e9565b611620565b6040516102759190613cba565b6102b16103dd3660046137e9565b61176b565b6102f86103f0366004613d26565b611966565b61026b6104033660046137e9565b6001600160a01b031660009081526009602052604090205490565b61026b61042c3660046137ab565b611b36565b61026b61043f3660046137e9565b6001600160a01b031660009081526008602052604090205490565b61026b6104683660046137e9565b60086020526000908152604090205481565b6102d16104883660046137e9565b611c98565b61026b61049b3660046137e9565b60096020526000908152604090205481565b61026b6104bb366004613dc4565b611ccb565b6104d36104ce3660046137ab565b611f62565b604080519687526020870195909552938501929092526001600160a01b0316606084015215156080830152151560a082015260c001610275565b6102f861051b366004613b6c565b611fc7565b61053361052e3660046137e9565b6124aa565b6040519015158152602001610275565b6102f86105513660046137e9565b6124de565b6102b16126a2565b61053361056c366004613b6c565b600760209081526000928352604080842090915290825290205460ff1681565b61059f61059a366004613b01565b6127e6565b6040805195865260208601949094526001600160a01b039092169284019290925260608301919091521515608082015260a001610275565b61059f6105e5366004613b01565b612834565b6105fd6105f8366004613b01565b612844565b6040516102759190613eca565b6105336106183660046137e9565b612a34565b61053361062b366004613f1f565b60009081526006602090815260408083206001600160a01b03949094168352929052205460ff1690565b6102f8610663366004613f49565b612a60565b610533610676366004613b6c565b600660209081526000928352604080842090915290825290205460ff1681565b6106a96106a4366004613b01565b612bee565b6040516102759190613f88565b6102f86106c4366004613fac565b612d21565b6103466106d7366004613b01565b6132c5565b61026b6106ea3660046137e9565b600a6020526000908152604090205481565b61070f61070a366004613b01565b61337a565b6040516102759190614061565b61072f61072a3660046137e9565b613499565b60405161027597969594939291906140ef565b6107556107503660046137ab565b613570565b6040516102759493929190614141565b60165460009081906107779085614189565b61078190826141a0565b9050826005036107a657601654610799906002614189565b6107a390826141a0565b90505b826007036107c9576016546107bc906004614189565b6107c690826141a0565b90505b826009036107ec576016546107df906006614189565b6107e990826141a0565b90505b90505b92915050565b6107fd613648565b6001600160a01b03808316600090815260016020818152604092839020835160e081018552815481529281015490941690820152600283018054919392840191610846906141b3565b80601f0160208091040260200160405190810160405280929190818152602001828054610872906141b3565b80156108bf5780601f10610894576101008083540402835291602001916108bf565b820191906000526020600020905b8154815290600101906020018083116108a257829003601f168201915b50505091835250506003820154602082015260049091015460ff8082161515604084015261010082048116151560608401526201000090910416151560809091015292915050565b6001600160a01b038116600090815260086020526040812054606091816001600160401b0381111561093b5761093b6139f6565b60405190808252806020026020018201604052801561097457816020015b610961613694565b8152602001906001900390816109595790505b5090506000805b600354811015610b145760006003828154811061099a5761099a6141ed565b90600052602060002090600702016040518060e0016040529081600082015481526020016001820160009054906101000a90046001600160a01b03166001600160a01b03166001600160a01b031681526020016002820180546109fc906141b3565b80601f0160208091040260200160405190810160405280929190818152602001828054610a28906141b3565b8015610a755780601f10610a4a57610100808354040283529160200191610a75565b820191906000526020600020905b815481529060010190602001808311610a5857829003601f168201915b50505091835250506003820154602080830191909152600483015460408301526005830154606083015260069092015460ff1615156080909101528101519091506001600160a01b03808916911603610b015780848481518110610adb57610adb6141ed565b60200260200101819052508280610af190614203565b935050848303610b015750610b14565b5080610b0c81614203565b91505061097b565b5090949350505050565b600b6020528160005260406000208181548110610b3a57600080fd5b60009182526020909120600790910201805460018201546002830180549295506001600160a01b03909116935090610b71906141b3565b80601f0160208091040260200160405190810160405280929190818152602001828054610b9d906141b3565b8015610bea5780601f10610bbf57610100808354040283529160200191610bea565b820191906000526020600020905b815481529060010190602001808311610bcd57829003601f168201915b505050505090806003018054610bff906141b3565b80601f0160208091040260200160405190810160405280929190818152602001828054610c2b906141b3565b8015610c785780601f10610c4d57610100808354040283529160200191610c78565b820191906000526020600020905b815481529060010190602001808311610c5b57829003601f168201915b50505050600483015460058401546006909401549293909290915060ff8082169161010090041688565b600e54610cad613648565b8181526001600160a01b03851660208201526040810184905260608101839052600060a0820152610cdd856124aa565b15610daf576000610ced866113b3565b600160c08201819052608084018190526001600160a01b03888116600090815260026020818152604092839020865181559086015194810180546001600160a01b0319169590941694909417909255830151929350839290820190610d52908261426b565b5060608201516003820190610d67908261426b565b506080820151600482015560a0820151600582015560c08201516006909101805460e09093015115156101000261ff00199215159290921661ffff1990931692909217179055505b6001600160a01b03858116600090815260016020818152604092839020855181559085015191810180546001600160a01b03191692909416919091179092558201518291906002820190610e03908261426b565b506060820151600382015560808201516004909101805460a084015160c0909401511515620100000262ff0000199415156101000261ff00199415159490941661ffff19909216919091179290921792909216179055600e8054906000610e6983614203565b91905055505050505050565b60038181548110610e8557600080fd5b60009182526020909120600790910201805460018201546002830180549294506001600160a01b039091169291610ebb906141b3565b80601f0160208091040260200160405190810160405280929190818152602001828054610ee7906141b3565b8015610f345780601f10610f0957610100808354040283529160200191610f34565b820191906000526020600020905b815481529060010190602001808311610f1757829003601f168201915b505050506003830154600484015460058501546006909501549394919390925060ff1687565b60008060038381548110610f7057610f706141ed565b90600052602060002090600702016040518060e0016040529081600082015481526020016001820160009054906101000a90046001600160a01b03166001600160a01b03166001600160a01b03168152602001600282018054610fd2906141b3565b80601f0160208091040260200160405190810160405280929190818152602001828054610ffe906141b3565b801561104b5780601f106110205761010080835404028352916020019161104b565b820191906000526020600020905b81548152906001019060200180831161102e57829003601f168201915b50505091835250506003820154602082015260048201546040820152600580830154606083015260069092015460ff16151560809182015260a0830151908301519293509190600090600a906110a2908590614189565b6110ac919061432a565b905060006110ba838361432a565b979650505050505050565b60606000600384815481106110dc576110dc6141ed565b90600052602060002090600702016040518060e0016040529081600082015481526020016001820160009054906101000a90046001600160a01b03166001600160a01b03166001600160a01b0316815260200160028201805461113e906141b3565b80601f016020809104026020016040519081016040528092919081815260200182805461116a906141b3565b80156111b75780601f1061118c576101008083540402835291602001916111b7565b820191906000526020600020905b81548152906001019060200180831161119a57829003601f168201915b505050505081526020016003820154815260200160048201548152602001600582015481526020016006820160009054906101000a900460ff1615151515815250509050600060056000868152602001908152602001600020805480602002602001604051908101604052809291908181526020016000905b828210156112b05760008481526020908190206040805160c081018252600486029092018054835260018082015484860152600282015492840192909252600301546001600160a01b038116606084015260ff600160a01b8204811615156080850152600160a81b90910416151560a08301529083529092019101611230565b5050505060608301519091506000816001600160401b038111156112d6576112d66139f6565b60405190808252806020026020018201604052801561130f57816020015b6112fc6136dc565b8152602001906001900390816112f45790505b5090506000805b84518110156113a6576000858281518110611333576113336141ed565b60200260200101519050886001600160a01b031681606001516001600160a01b031603611393578084848151811061136d5761136d6141ed565b6020026020010181905250828061138390614203565b93505084830361139357506113a6565b508061139e81614203565b915050611316565b5090979650505050505050565b6113bb61371f565b6001600160a01b038083166000908152600260208181526040928390208351610100810185528154815260018201549095169185019190915290810180549192840191611407906141b3565b80601f0160208091040260200160405190810160405280929190818152602001828054611433906141b3565b80156114805780601f1061145557610100808354040283529160200191611480565b820191906000526020600020905b81548152906001019060200180831161146357829003601f168201915b50505050508152602001600382018054611499906141b3565b80601f01602080910402602001604051908101604052809291908181526020018280546114c5906141b3565b80156115125780601f106114e757610100808354040283529160200191611512565b820191906000526020600020905b8154815290600101906020018083116114f557829003601f168201915b5050509183525050600482015460208201526005820154604082015260069091015460ff8082161515606084015261010090910416151560809091015292915050565b6001600160a01b03811660009081526002602052604081206005015481816001600160401b0381111561158a5761158a6139f6565b6040519080825280602002602001820160405280156115c357816020015b6115b0613771565b8152602001906001900390816115a85790505b5090506000805b82518110156116175760008382815181106115e7576115e76141ed565b6020026020010151905080606001518361160191906141a0565b925050808061160f90614203565b9150506115ca565b50949350505050565b6001600160a01b038116600090815260026020526040812060050154606091816001600160401b03811115611657576116576139f6565b60405190808252806020026020018201604052801561169057816020015b61167d613771565b8152602001906001900390816116755790505b5090506000805b600d54811015610b14576000600d82815481106116b6576116b66141ed565b60009182526020918290206040805160a08101825260059093029091018054835260018101549383019390935260028301546001600160a01b039081169183018290526003840154606084015260049093015460ff161515608083015290925090881690036117585780848481518110611732576117326141ed565b6020026020010181905250828061174890614203565b9350508483036117585750610b14565b508061176381614203565b915050611697565b6060600061177883611620565b9050600081516001600160401b03811115611795576117956139f6565b6040519080825280602002602001820160405280156117ce57816020015b6117bb613694565b8152602001906001900390816117b35790505b5090506000805b8351811015610b145760008482815181106117f2576117f26141ed565b602002602001015190506003816020015181548110611813576118136141ed565b90600052602060002090600702016040518060e0016040529081600082015481526020016001820160009054906101000a90046001600160a01b03166001600160a01b03166001600160a01b03168152602001600282018054611875906141b3565b80601f01602080910402602001604051908101604052809291908181526020018280546118a1906141b3565b80156118ee5780601f106118c3576101008083540402835291602001916118ee565b820191906000526020600020905b8154815290600101906020018083116118d157829003601f168201915b505050918352505060038201546020820152600482015460408201526005820154606082015260069091015460ff1615156080909101528451859085908110611939576119396141ed565b6020026020010181905250828061194f90614203565b93505050808061195e90614203565b9150506117d5565b600f5461197161371f565b8181526001600160a01b03861660208201526040810185905260608101849052608081018390526119a186612a34565b15611a6d5760006119b1876107f5565b60016080820181905260c084018190526001600160a01b0389811660009081526020838152604091829020855181559085015193810180546001600160a01b031916949093169390931790915582015191925082916002820190611a15908261426b565b506060820151600382015560808201516004909101805460a084015160c0909401511515620100000262ff0000199415156101000261ff00199415159490941661ffff19909216919091179290921792909216179055505b6001600160a01b0386811660009081526002602081815260409283902085518155908501516001820180546001600160a01b031916919095161790935590830151839291820190611abe908261426b565b5060608201516003820190611ad3908261426b565b506080820151600482015560a0820151600582015560c08201516006909101805460e09093015115156101000261ff00199215159290921661ffff1990931692909217179055600f8054906000611b2983614203565b9190505550505050505050565b60008060038481548110611b4c57611b4c6141ed565b90600052602060002090600702016040518060e0016040529081600082015481526020016001820160009054906101000a90046001600160a01b03166001600160a01b03166001600160a01b03168152602001600282018054611bae906141b3565b80601f0160208091040260200160405190810160405280929190818152602001828054611bda906141b3565b8015611c275780601f10611bfc57610100808354040283529160200191611c27565b820191906000526020600020905b815481529060010190602001808311611c0a57829003601f168201915b50505091835250506003820154602082015260048201546040820152600580830154606083015260069092015460ff16151560809091015260a08201519192506000908590600a90611c7a908590614189565b611c84919061432a565b611c8e919061432a565b9695505050505050565b600260208190526000918252604090912080546001820154928201805491936001600160a01b03169291610b71906141b3565b601054600090611cd9613694565b8181526001600160a01b0389166020820152604081018890526060810187905260808101869052601654611d0d9085614189565b60a08201526003805460018101825560009190915281517fc2575a0e9e593c00f959f8c92f12db2869c3395a3b0502d05e2516446f71f85b600790920291820190815560208301517fc2575a0e9e593c00f959f8c92f12db2869c3395a3b0502d05e2516446f71f85c830180546001600160a01b0319166001600160a01b03909216919091179055604083015183927fc2575a0e9e593c00f959f8c92f12db2869c3395a3b0502d05e2516446f71f85d0190611dc9908261426b565b50606082015160038201556080820151600482015560a0820151600582015560c0909101516006909101805460ff191691151591909117905580516001600160a01b038a166000908152600a6020908152604080832093909355600890529081205490611e378260016141a0565b6001600160a01b038c1660009081526008602052604081208290559091505b89811015611f3c5760115460408051608081018252600060208201818152606093830184905292820152828152865190915289518a9084908110611e9c57611e9c6141ed565b6020908102919091018101516040808401918252885160009081526004808552918120805460018181018355918352918590208651929093029092019081559284015190830155518291906002820190611ef6908261426b565b50606091909101516003909101805460ff191691151591909117905560118054906000611f2283614203565b919050555050508080611f3490614203565b915050611e56565b5060108054906000611f4d83614203565b909155505091519a9950505050505050505050565b60056020528160005260406000208181548110611f7e57600080fd5b6000918252602090912060049091020180546001820154600283015460039093015491945092506001600160a01b0381169060ff600160a01b8204811691600160a81b90041686565b600060038381548110611fdc57611fdc6141ed565b90600052602060002090600702016040518060e0016040529081600082015481526020016001820160009054906101000a90046001600160a01b03166001600160a01b03166001600160a01b0316815260200160028201805461203e906141b3565b80601f016020809104026020016040519081016040528092919081815260200182805461206a906141b3565b80156120b75780601f1061208c576101008083540402835291602001916120b7565b820191906000526020600020905b81548152906001019060200180831161209a57829003601f168201915b505050918352505060038201546020820152600482015460408201526005820154606082015260069091015460ff161515608090910152905060006120fb84610f5a565b60155460405163a9059cbb60e01b81526001600160a01b0386811660048301526024820184905292935091169063a9059cbb906044016020604051808303816000875af1158015612150573d6000803e3d6000fd5b505050506040513d601f19601f82011682018060405250810190612174919061434c565b506000612185858460800151611b36565b60155460005460405163a9059cbb60e01b81526001600160a01b03918216600482015260248101849052929350169063a9059cbb906044016020604051808303816000875af11580156121dc573d6000803e3d6000fd5b505050506040513d601f19601f82011682018060405250810190612200919061434c565b50612209613771565b601380548252602082018781526001600160a01b038781166040850190815260608501878152600d8054600181018255600091825287517fd7b6990105719101dabeb77144f2a3385c8033acd3af97e9423a695e81ad1eb560059092029182015594517fd7b6990105719101dabeb77144f2a3385c8033acd3af97e9423a695e81ad1eb686015591517fd7b6990105719101dabeb77144f2a3385c8033acd3af97e9423a695e81ad1eb7850180546001600160a01b031916919094161790925590517fd7b6990105719101dabeb77144f2a3385c8033acd3af97e9423a695e81ad1eb883015560808401517fd7b6990105719101dabeb77144f2a3385c8033acd3af97e9423a695e81ad1eb9909201805460ff1916921515929092179091558154919061233583614203565b909155505060008681526007602090815260408083206001600160a01b03891684529091529020805460ff1916600117905561236f613771565b60138054825260208201888152600080546001600160a01b039081166040860190815260608601888152600d805460018101825590855287517fd7b6990105719101dabeb77144f2a3385c8033acd3af97e9423a695e81ad1eb560059092029182015594517fd7b6990105719101dabeb77144f2a3385c8033acd3af97e9423a695e81ad1eb686015590517fd7b6990105719101dabeb77144f2a3385c8033acd3af97e9423a695e81ad1eb7850180546001600160a01b0319169190931617909155517fd7b6990105719101dabeb77144f2a3385c8033acd3af97e9423a695e81ad1eb883015560808401517fd7b6990105719101dabeb77144f2a3385c8033acd3af97e9423a695e81ad1eb9909201805460ff1916921515929092179091558154919061249c83614203565b919050555050505050505050565b6001600160a01b03808216600081815260026020526040812060010154909216146124d65760006107ef565b600192915050565b6001600160a01b038082166000908152600160208181526040808420815160e081018352815481529381015490951691830191909152600284018054939492939184019161252b906141b3565b80601f0160208091040260200160405190810160405280929190818152602001828054612557906141b3565b80156125a45780601f10612579576101008083540402835291602001916125a4565b820191906000526020600020905b81548152906001019060200180831161258757829003601f168201915b5050509183525050600382015460208083019190915260049092015460ff8082161515604080850191909152610100830482161515606085015262010000909204161515608090920191909152600160a084018190526001600160a01b038681166000908152828552839020855181559385015191840180546001600160a01b0319169290911691909117905582015191925082916002820190612648908261426b565b506060820151600382015560808201516004909101805460a084015160c0909401511515620100000262ff0000199415156101000261ff00199415159490941661ffff199092169190911792909217929092161790555050565b60606003805480602002602001604051908101604052809291908181526020016000905b828210156127dd5760008481526020908190206040805160e081018252600786029092018054835260018101546001600160a01b03169383019390935260028301805492939291840191612719906141b3565b80601f0160208091040260200160405190810160405280929190818152602001828054612745906141b3565b80156127925780601f1061276757610100808354040283529160200191612792565b820191906000526020600020905b81548152906001019060200180831161277557829003601f168201915b50505091835250506003820154602080830191909152600483015460408301526005830154606083015260069092015460ff16151560809091015290825260019290920191016126c6565b50505050905090565b600d81815481106127f657600080fd5b60009182526020909120600590910201805460018201546002830154600384015460049094015492945090926001600160a01b039091169160ff1685565b600c81815481106127f657600080fd5b6060600b6000838152602001908152602001600020805480602002602001604051908101604052809291908181526020016000905b82821015612a295760008481526020908190206040805161010081018252600786029092018054835260018101546001600160a01b031693830193909352600283018054929392918401916128cd906141b3565b80601f01602080910402602001604051908101604052809291908181526020018280546128f9906141b3565b80156129465780601f1061291b57610100808354040283529160200191612946565b820191906000526020600020905b81548152906001019060200180831161292957829003601f168201915b5050505050815260200160038201805461295f906141b3565b80601f016020809104026020016040519081016040528092919081815260200182805461298b906141b3565b80156129d85780601f106129ad576101008083540402835291602001916129d8565b820191906000526020600020905b8154815290600101906020018083116129bb57829003601f168201915b505050918352505060048201546020808301919091526005830154604083015260069092015460ff808216151560608401526101009091041615156080909101529082526001929092019101612879565b505050509050919050565b6001600160a01b03808216600081815260016020819052604082200154909216146124d65760006107ef565b6000612a6c8585610765565b6014546040805160a08101825260006080820181815284835260208084018a81526001600160a01b038a8116868801818152606088018b8152600c805460018101825590895289517fdf6966c971051c3d54ec59162606531493a51404a002842f56009d7e5cf4a8c760059092029182015594517fdf6966c971051c3d54ec59162606531493a51404a002842f56009d7e5cf4a8c886015590517fdf6966c971051c3d54ec59162606531493a51404a002842f56009d7e5cf4a8c9850180546001600160a01b031916919094161790925590517fdf6966c971051c3d54ec59162606531493a51404a002842f56009d7e5cf4a8ca83015592517fdf6966c971051c3d54ec59162606531493a51404a002842f56009d7e5cf4a8cb909101805460ff19169115159190911790559082526009905291909120549293509091612bb384826141a0565b6001600160a01b03861660009081526009602052604081208290556014805492935090612bdf83614203565b91905055505050505050505050565b612bf6613694565b60038281548110612c0957612c096141ed565b90600052602060002090600702016040518060e0016040529081600082015481526020016001820160009054906101000a90046001600160a01b03166001600160a01b03166001600160a01b03168152602001600282018054612c6b906141b3565b80601f0160208091040260200160405190810160405280929190818152602001828054612c97906141b3565b8015612ce45780601f10612cb957610100808354040283529160200191612ce4565b820191906000526020600020905b815481529060010190602001808311612cc757829003601f168201915b505050918352505060038201546020820152600482015460408201526005820154606082015260069091015460ff16151560809091015292915050565b6001600160a01b0380831660009081526002602081815260408084208151610100810183528154815260018201549096169286019290925291810180549394939192840191612d6f906141b3565b80601f0160208091040260200160405190810160405280929190818152602001828054612d9b906141b3565b8015612de85780601f10612dbd57610100808354040283529160200191612de8565b820191906000526020600020905b815481529060010190602001808311612dcb57829003601f168201915b50505050508152602001600382018054612e01906141b3565b80601f0160208091040260200160405190810160405280929190818152602001828054612e2d906141b3565b8015612e7a5780601f10612e4f57610100808354040283529160200191612e7a565b820191906000526020600020905b815481529060010190602001808311612e5d57829003601f168201915b5050509183525050600482015460208201526005820154604082015260069091015460ff808216151560608401526101009091041615156080909101526003805491925060009186908110612ed157612ed16141ed565b90600052602060002090600702016040518060e0016040529081600082015481526020016001820160009054906101000a90046001600160a01b03166001600160a01b03166001600160a01b03168152602001600282018054612f33906141b3565b80601f0160208091040260200160405190810160405280929190818152602001828054612f5f906141b3565b8015612fac5780601f10612f8157610100808354040283529160200191612fac565b820191906000526020600020905b815481529060010190602001808311612f8f57829003601f168201915b50505091835250506003820154602082015260048201546040820152600582015460608083019190915260069092015460ff16151560809091015281015190915060005b818110156130ff576130006136dc565b60125480825260208201839052604082018990526001600160a01b03881660608301528651879084908110613037576130376141ed565b60209081029190910181015115156080840190815260008b8152600583526040808220805460018181018355918452858420885160049092020190815594870151908501558501516002840155606085015160039093018054925160a08701511515600160a81b0260ff60a81b19911515600160a01b026001600160a81b03199095166001600160a01b0390961695909517939093179290921692909217905560128054916130e583614203565b9190505550505080806130f790614203565b915050612ff0565b5060008681526006602090815260408083206001600160a01b03891684528252808320805460ff19166001179055888352600b9091529020613140866113b3565b815460018082018455600093845260209384902083516007909302019182559282015192810180546001600160a01b0319166001600160a01b03909416939093179092556040810151909190600282019061319b908261426b565b50606082015160038201906131b0908261426b565b506080820151600482015560a080830151600583015560c08301516006909201805460e09094015115156101000261ff00199315159390931661ffff199094169390931791909117909155830180516001919061320e9083906141a0565b9052506001600160a01b0385811660009081526002602081815260409283902087518155908701516001820180546001600160a01b031916919095161790935590850151859291820190613262908261426b565b5060608201516003820190613277908261426b565b506080820151600482015560a0820151600582015560c08201516006909101805460e09093015115156101000261ff00199215159290921661ffff1990931692909217179055505050505050565b606060056000838152602001908152602001600020805480602002602001604051908101604052809291908181526020016000905b82821015612a295760008481526020908190206040805160c081018252600486029092018054835260018082015484860152600282015492840192909252600301546001600160a01b038116606084015260ff600160a01b8204811615156080850152600160a81b90910416151560a083015290835290920191016132fa565b606060046000838152602001908152602001600020805480602002602001604051908101604052809291908181526020016000905b82821015612a29578382906000526020600020906004020160405180608001604052908160008201548152602001600182015481526020016002820180546133f6906141b3565b80601f0160208091040260200160405190810160405280929190818152602001828054613422906141b3565b801561346f5780601f106134445761010080835404028352916020019161346f565b820191906000526020600020905b81548152906001019060200180831161345257829003601f168201915b50505091835250506003919091015460ff16151560209182015290825260019290920191016133af565b60016020819052600091825260409091208054918101546002820180546001600160a01b0390921692916134cc906141b3565b80601f01602080910402602001604051908101604052809291908181526020018280546134f8906141b3565b80156135455780601f1061351a57610100808354040283529160200191613545565b820191906000526020600020905b81548152906001019060200180831161352857829003601f168201915b50505050600383015460049093015491929160ff808216925061010082048116916201000090041687565b6004602052816000526040600020818154811061358c57600080fd5b9060005260206000209060040201600091509150508060000154908060010154908060020180546135bc906141b3565b80601f01602080910402602001604051908101604052809291908181526020018280546135e8906141b3565b80156136355780601f1061360a57610100808354040283529160200191613635565b820191906000526020600020905b81548152906001019060200180831161361857829003601f168201915b5050506003909301549192505060ff1684565b6040518060e001604052806000815260200160006001600160a01b0316815260200160608152602001600081526020016000151581526020016000151581526020016000151581525090565b6040518060e001604052806000815260200160006001600160a01b03168152602001606081526020016000815260200160008152602001600081526020016000151581525090565b6040518060c0016040528060008152602001600081526020016000815260200160006001600160a01b031681526020016000151581526020016000151581525090565b6040518061010001604052806000815260200160006001600160a01b03168152602001606081526020016060815260200160008152602001600081526020016000151581526020016000151581525090565b6040518060a00160405280600081526020016000815260200160006001600160a01b03168152602001600081526020016000151581525090565b600080604083850312156137be57600080fd5b50508035926020909101359150565b80356001600160a01b03811681146137e457600080fd5b919050565b6000602082840312156137fb57600080fd5b613804826137cd565b9392505050565b6000815180845260005b8181101561383157602081850181015186830182015201613815565b506000602082860101526020601f19601f83011685010191505092915050565b602081528151602082015260018060a01b0360208301511660408201526000604083015160e0606084015261388a61010084018261380b565b9050606084015160808401526080840151151560a084015260a0840151151560c084015260c0840151151560e08401528091505092915050565b8051825260018060a01b0360208201511660208301526000604082015160e060408501526138f560e085018261380b565b9050606083015160608501526080830151608085015260a083015160a085015260c0830151151560c08501528091505092915050565b6000602080830181845280855180835260408601915060408160051b870101925083870160005b8281101561398057603f1988860301845261396e8583516138c4565b94509285019290850190600101613952565b5092979650505050505050565b8881526001600160a01b0388166020820152610100604082018190526000906139b88382018a61380b565b905082810360608401526139cc818961380b565b6080840197909752505060a081019390935290151560c0830152151560e090910152949350505050565b634e487b7160e01b600052604160045260246000fd5b604051601f8201601f191681016001600160401b0381118282101715613a3457613a346139f6565b604052919050565b600082601f830112613a4d57600080fd5b81356001600160401b03811115613a6657613a666139f6565b613a79601f8201601f1916602001613a0c565b818152846020838601011115613a8e57600080fd5b816020850160208301376000918101602001919091529392505050565b600080600060608486031215613ac057600080fd5b613ac9846137cd565b925060208401356001600160401b03811115613ae457600080fd5b613af086828701613a3c565b925050604084013590509250925092565b600060208284031215613b1357600080fd5b5035919050565b8781526001600160a01b038716602082015260e060408201819052600090613b449083018861380b565b90508560608301528460808301528360a083015282151560c083015298975050505050505050565b60008060408385031215613b7f57600080fd5b82359150613b8f602084016137cd565b90509250929050565b602080825282518282018190526000919060409081850190868401855b82811015613c1057815180518552868101518786015285810151868601526060808201516001600160a01b03169086015260808082015115159086015260a09081015115159085015260c09093019290850190600101613bb5565b5091979650505050505050565b60006101008251845260018060a01b0360208401511660208501526040830151816040860152613c4f8286018261380b565b91505060608301518482036060860152613c69828261380b565b9150506080830151608085015260a083015160a085015260c0830151151560c085015260e0830151613c9f60e086018215159052565b509392505050565b6020815260006138046020830184613c1d565b602080825282518282018190526000919060409081850190868401855b82811015613c10578151805185528681015187860152858101516001600160a01b0316868601526060808201519086015260809081015115159085015260a09093019290850190600101613cd7565b60008060008060808587031215613d3c57600080fd5b613d45856137cd565b935060208501356001600160401b0380821115613d6157600080fd5b613d6d88838901613a3c565b94506040870135915080821115613d8357600080fd5b50613d9087828801613a3c565b949793965093946060013593505050565b60006001600160401b03821115613dba57613dba6139f6565b5060051b60200190565b60008060008060008060c08789031215613ddd57600080fd5b613de6876137cd565b95506020808801356001600160401b0380821115613e0357600080fd5b613e0f8b838c01613a3c565b975060408a0135965060608a0135955060808a0135915080821115613e3357600080fd5b818a0191508a601f830112613e4757600080fd5b8135613e5a613e5582613da1565b613a0c565b81815260059190911b8301840190848101908d831115613e7957600080fd5b8585015b83811015613eaf578481351115613e9357600080fd5b613ea28f888335890101613a3c565b8352918601918601613e7d565b5080975050505050505060a087013590509295509295509295565b6000602080830181845280855180835260408601915060408160051b870101925083870160005b8281101561398057603f19888603018452613f0d858351613c1d565b94509285019290850190600101613ef1565b60008060408385031215613f3257600080fd5b613f3b836137cd565b946020939093013593505050565b60008060008060808587031215613f5f57600080fd5b843593506020850135925060408501359150613f7d606086016137cd565b905092959194509250565b60208152600061380460208301846138c4565b8015158114613fa957600080fd5b50565b600080600060608486031215613fc157600080fd5b833592506020613fd28186016137cd565b925060408501356001600160401b03811115613fed57600080fd5b8501601f81018713613ffe57600080fd5b803561400c613e5582613da1565b81815260059190911b8201830190838101908983111561402b57600080fd5b928401925b8284101561405257833561404381613f9b565b82529284019290840190614030565b80955050505050509250925092565b60006020808301818452808551808352604092508286019150828160051b87010184880160005b838110156140e157603f19898403018552815160808151855288820151898601528782015181898701526140be8287018261380b565b606093840151151596909301959095525094870194925090860190600101614088565b509098975050505050505050565b8781526001600160a01b038716602082015260e0604082018190526000906141199083018861380b565b606083019690965250921515608084015290151560a0830152151560c0909101529392505050565b848152836020820152608060408201526000614160608083018561380b565b9050821515606083015295945050505050565b634e487b7160e01b600052601160045260246000fd5b80820281158282048414176107ef576107ef614173565b808201808211156107ef576107ef614173565b600181811c908216806141c757607f821691505b6020821081036141e757634e487b7160e01b600052602260045260246000fd5b50919050565b634e487b7160e01b600052603260045260246000fd5b60006001820161421557614215614173565b5060010190565b601f82111561426657600081815260208120601f850160051c810160208610156142435750805b601f850160051c820191505b818110156142625782815560010161424f565b5050505b505050565b81516001600160401b03811115614284576142846139f6565b6142988161429284546141b3565b8461421c565b602080601f8311600181146142cd57600084156142b55750858301515b600019600386901b1c1916600185901b178555614262565b600085815260208120601f198616915b828110156142fc578886015182559484019460019091019084016142dd565b508582101561431a5787850151600019600388901b60f8161c191681555b5050505050600190811b01905550565b60008261434757634e487b7160e01b600052601260045260246000fd5b500490565b60006020828403121561435e57600080fd5b81516107ec81613f9b56fea26469706673582212202420972d50a030554bb683baffdec99c4d6257e39dabd2b64a0775fccdb711df64736f6c63430008130033",
					"opcodes": "PUSH1 0x80 PUSH1 0x40 DUP2 SWAP1 MSTORE PUSH1 0x0 DUP1 SLOAD PUSH20 0xECE897A85688F2E83A73FED36B9D1A6EFCC99E93 PUSH1 0x1 PUSH1 0x1 PUSH1 0xA0 SHL SUB NOT SWAP2 DUP3 AND OR SWAP1 SWAP2 SSTORE PUSH1 0x15 DUP1 SLOAD PUSH20 0x874069FA1EB16D44D622F2E0CA25EEA172369BC1 SWAP3 AND DUP3 OR SWAP1 SSTORE PUSH4 0x313CE567 PUSH1 0xE0 SHL DUP3 MSTORE SWAP1 PUSH4 0x313CE567 SWAP1 PUSH1 0x84 SWAP1 PUSH1 0x20 SWAP1 PUSH1 0x4 DUP2 DUP7 GAS STATICCALL ISZERO DUP1 ISZERO PUSH3 0x7D JUMPI RETURNDATASIZE PUSH1 0x0 DUP1 RETURNDATACOPY RETURNDATASIZE PUSH1 0x0 REVERT JUMPDEST POP POP POP POP PUSH1 0x40 MLOAD RETURNDATASIZE PUSH1 0x1F NOT PUSH1 0x1F DUP3 ADD AND DUP3 ADD DUP1 PUSH1 0x40 MSTORE POP DUP2 ADD SWAP1 PUSH3 0xA3 SWAP2 SWAP1 PUSH3 0xC7 JUMP JUMPDEST PUSH3 0xB0 SWAP1 PUSH1 0xA PUSH3 0x208 JUMP JUMPDEST PUSH1 0x16 SSTORE CALLVALUE DUP1 ISZERO PUSH3 0xC0 JUMPI PUSH1 0x0 DUP1 REVERT JUMPDEST POP PUSH3 0x219 JUMP JUMPDEST PUSH1 0x0 PUSH1 0x20 DUP3 DUP5 SUB SLT ISZERO PUSH3 0xDA JUMPI PUSH1 0x0 DUP1 REVERT JUMPDEST DUP2 MLOAD PUSH1 0xFF DUP2 AND DUP2 EQ PUSH3 0xEC JUMPI PUSH1 0x0 DUP1 REVERT JUMPDEST SWAP4 SWAP3 POP POP POP JUMP JUMPDEST PUSH4 0x4E487B71 PUSH1 0xE0 SHL PUSH1 0x0 MSTORE PUSH1 0x11 PUSH1 0x4 MSTORE PUSH1 0x24 PUSH1 0x0 REVERT JUMPDEST PUSH1 0x1 DUP2 DUP2 JUMPDEST DUP1 DUP6 GT ISZERO PUSH3 0x14A JUMPI DUP2 PUSH1 0x0 NOT DIV DUP3 GT ISZERO PUSH3 0x12E JUMPI PUSH3 0x12E PUSH3 0xF3 JUMP JUMPDEST DUP1 DUP6 AND ISZERO PUSH3 0x13C JUMPI SWAP2 DUP2 MUL SWAP2 JUMPDEST SWAP4 DUP5 SHR SWAP4 SWAP1 DUP1 MUL SWAP1 PUSH3 0x10E JUMP JUMPDEST POP SWAP3 POP SWAP3 SWAP1 POP JUMP JUMPDEST PUSH1 0x0 DUP3 PUSH3 0x163 JUMPI POP PUSH1 0x1 PUSH3 0x202 JUMP JUMPDEST DUP2 PUSH3 0x172 JUMPI POP PUSH1 0x0 PUSH3 0x202 JUMP JUMPDEST DUP2 PUSH1 0x1 DUP2 EQ PUSH3 0x18B JUMPI PUSH1 0x2 DUP2 EQ PUSH3 0x196 JUMPI PUSH3 0x1B6 JUMP JUMPDEST PUSH1 0x1 SWAP2 POP POP PUSH3 0x202 JUMP JUMPDEST PUSH1 0xFF DUP5 GT ISZERO PUSH3 0x1AA JUMPI PUSH3 0x1AA PUSH3 0xF3 JUMP JUMPDEST POP POP PUSH1 0x1 DUP3 SHL PUSH3 0x202 JUMP JUMPDEST POP PUSH1 0x20 DUP4 LT PUSH2 0x133 DUP4 LT AND PUSH1 0x4E DUP5 LT PUSH1 0xB DUP5 LT AND OR ISZERO PUSH3 0x1DB JUMPI POP DUP2 DUP2 EXP PUSH3 0x202 JUMP JUMPDEST PUSH3 0x1E7 DUP4 DUP4 PUSH3 0x109 JUMP JUMPDEST DUP1 PUSH1 0x0 NOT DIV DUP3 GT ISZERO PUSH3 0x1FE JUMPI PUSH3 0x1FE PUSH3 0xF3 JUMP JUMPDEST MUL SWAP1 POP JUMPDEST SWAP3 SWAP2 POP POP JUMP JUMPDEST PUSH1 0x0 PUSH3 0xEC PUSH1 0xFF DUP5 AND DUP4 PUSH3 0x152 JUMP JUMPDEST PUSH2 0x439F DUP1 PUSH3 0x229 PUSH1 0x0 CODECOPY PUSH1 0x0 RETURN INVALID PUSH1 0x80 PUSH1 0x40 MSTORE CALLVALUE DUP1 ISZERO PUSH2 0x10 JUMPI PUSH1 0x0 DUP1 REVERT JUMPDEST POP PUSH1 0x4 CALLDATASIZE LT PUSH2 0x253 JUMPI PUSH1 0x0 CALLDATALOAD PUSH1 0xE0 SHR DUP1 PUSH4 0x68DF3299 GT PUSH2 0x146 JUMPI DUP1 PUSH4 0x9A23218F GT PUSH2 0xC3 JUMPI DUP1 PUSH4 0xCA2E7F9B GT PUSH2 0x87 JUMPI DUP1 PUSH4 0xCA2E7F9B EQ PUSH2 0x6B6 JUMPI DUP1 PUSH4 0xCC4903CA EQ PUSH2 0x6C9 JUMPI DUP1 PUSH4 0xD7E93794 EQ PUSH2 0x6DC JUMPI DUP1 PUSH4 0xF31E72E4 EQ PUSH2 0x6FC JUMPI DUP1 PUSH4 0xF692A3BB EQ PUSH2 0x71C JUMPI DUP1 PUSH4 0xFB47E9E6 EQ PUSH2 0x742 JUMPI PUSH1 0x0 DUP1 REVERT JUMPDEST DUP1 PUSH4 0x9A23218F EQ PUSH2 0x60A JUMPI DUP1 PUSH4 0xA58543FE EQ PUSH2 0x61D JUMPI DUP1 PUSH4 0xB3265ECD EQ PUSH2 0x655 JUMPI DUP1 PUSH4 0xB9C745B3 EQ PUSH2 0x668 JUMPI DUP1 PUSH4 0xC0AC4AE4 EQ PUSH2 0x696 JUMPI PUSH1 0x0 DUP1 REVERT JUMPDEST DUP1 PUSH4 0x7A1BC375 GT PUSH2 0x10A JUMPI DUP1 PUSH4 0x7A1BC375 EQ PUSH2 0x556 JUMPI DUP1 PUSH4 0x7E950819 EQ PUSH2 0x55E JUMPI DUP1 PUSH4 0x8E6DA619 EQ PUSH2 0x58C JUMPI DUP1 PUSH4 0x95ECEA1F EQ PUSH2 0x5D7 JUMPI DUP1 PUSH4 0x964F6566 EQ PUSH2 0x5EA JUMPI PUSH1 0x0 DUP1 REVERT JUMPDEST DUP1 PUSH4 0x68DF3299 EQ PUSH2 0x4AD JUMPI DUP1 PUSH4 0x69BFF3FB EQ PUSH2 0x4C0 JUMPI DUP1 PUSH4 0x6B8AC0E7 EQ PUSH2 0x50D JUMPI DUP1 PUSH4 0x6F5FDE11 EQ PUSH2 0x520 JUMPI DUP1 PUSH4 0x73FD653D EQ PUSH2 0x543 JUMPI PUSH1 0x0 DUP1 REVERT JUMPDEST DUP1 PUSH4 0x3882DB7D GT PUSH2 0x1D4 JUMPI DUP1 PUSH4 0x44962609 GT PUSH2 0x198 JUMPI DUP1 PUSH4 0x44962609 EQ PUSH2 0x41E JUMPI DUP1 PUSH4 0x4FE1CFAD EQ PUSH2 0x431 JUMPI DUP1 PUSH4 0x5822BFF1 EQ PUSH2 0x45A JUMPI DUP1 PUSH4 0x5B76074E EQ PUSH2 0x47A JUMPI DUP1 PUSH4 0x5FA7A90A EQ PUSH2 0x48D JUMPI PUSH1 0x0 DUP1 REVERT JUMPDEST DUP1 PUSH4 0x3882DB7D EQ PUSH2 0x386 JUMPI DUP1 PUSH4 0x392A5822 EQ PUSH2 0x3AF JUMPI DUP1 PUSH4 0x3ABB615A EQ PUSH2 0x3CF JUMPI DUP1 PUSH4 0x3B43B7D0 EQ PUSH2 0x3E2 JUMPI DUP1 PUSH4 0x3BDD0AD1 EQ PUSH2 0x3F5 JUMPI PUSH1 0x0 DUP1 REVERT JUMPDEST DUP1 PUSH4 0x1B6F2485 GT PUSH2 0x21B JUMPI DUP1 PUSH4 0x1B6F2485 EQ PUSH2 0x2FA JUMPI DUP1 PUSH4 0x1BD1EBC4 EQ PUSH2 0x320 JUMPI DUP1 PUSH4 0x2076A35A EQ PUSH2 0x333 JUMPI DUP1 PUSH4 0x2394E5DC EQ PUSH2 0x353 JUMPI DUP1 PUSH4 0x25F18424 EQ PUSH2 0x373 JUMPI PUSH1 0x0 DUP1 REVERT JUMPDEST DUP1 PUSH4 0x3F16747 EQ PUSH2 0x258 JUMPI DUP1 PUSH4 0x478318B EQ PUSH2 0x27E JUMPI DUP1 PUSH4 0x7F6646E EQ PUSH2 0x29E JUMPI DUP1 PUSH4 0x125BB83D EQ PUSH2 0x2BE JUMPI DUP1 PUSH4 0x196F7F1E EQ PUSH2 0x2E5 JUMPI JUMPDEST PUSH1 0x0 DUP1 REVERT JUMPDEST PUSH2 0x26B PUSH2 0x266 CALLDATASIZE PUSH1 0x4 PUSH2 0x37AB JUMP JUMPDEST PUSH2 0x765 JUMP JUMPDEST PUSH1 0x40 MLOAD SWAP1 DUP2 MSTORE PUSH1 0x20 ADD JUMPDEST PUSH1 0x40 MLOAD DUP1 SWAP2 SUB SWAP1 RETURN JUMPDEST PUSH2 0x291 PUSH2 0x28C CALLDATASIZE PUSH1 0x4 PUSH2 0x37E9 JUMP JUMPDEST PUSH2 0x7F5 JUMP JUMPDEST PUSH1 0x40 MLOAD PUSH2 0x275 SWAP2 SWAP1 PUSH2 0x3851 JUMP JUMPDEST PUSH2 0x2B1 PUSH2 0x2AC CALLDATASIZE PUSH1 0x4 PUSH2 0x37E9 JUMP JUMPDEST PUSH2 0x907 JUMP JUMPDEST PUSH1 0x40 MLOAD PUSH2 0x275 SWAP2 SWAP1 PUSH2 0x392B JUMP JUMPDEST PUSH2 0x2D1 PUSH2 0x2CC CALLDATASIZE PUSH1 0x4 PUSH2 0x37AB JUMP JUMPDEST PUSH2 0xB1E JUMP JUMPDEST PUSH1 0x40 MLOAD PUSH2 0x275 SWAP9 SWAP8 SWAP7 SWAP6 SWAP5 SWAP4 SWAP3 SWAP2 SWAP1 PUSH2 0x398D JUMP JUMPDEST PUSH2 0x2F8 PUSH2 0x2F3 CALLDATASIZE PUSH1 0x4 PUSH2 0x3AAB JUMP JUMPDEST PUSH2 0xCA2 JUMP JUMPDEST STOP JUMPDEST PUSH2 0x30D PUSH2 0x308 CALLDATASIZE PUSH1 0x4 PUSH2 0x3B01 JUMP JUMPDEST PUSH2 0xE75 JUMP JUMPDEST PUSH1 0x40 MLOAD PUSH2 0x275 SWAP8 SWAP7 SWAP6 SWAP5 SWAP4 SWAP3 SWAP2 SWAP1 PUSH2 0x3B1A JUMP JUMPDEST PUSH2 0x26B PUSH2 0x32E CALLDATASIZE PUSH1 0x4 PUSH2 0x3B01 JUMP JUMPDEST PUSH2 0xF5A JUMP JUMPDEST PUSH2 0x346 PUSH2 0x341 CALLDATASIZE PUSH1 0x4 PUSH2 0x3B6C JUMP JUMPDEST PUSH2 0x10C5 JUMP JUMPDEST PUSH1 0x40 MLOAD PUSH2 0x275 SWAP2 SWAP1 PUSH2 0x3B98 JUMP JUMPDEST PUSH2 0x366 PUSH2 0x361 CALLDATASIZE PUSH1 0x4 PUSH2 0x37E9 JUMP JUMPDEST PUSH2 0x13B3 JUMP JUMPDEST PUSH1 0x40 MLOAD PUSH2 0x275 SWAP2 SWAP1 PUSH2 0x3CA7 JUMP JUMPDEST PUSH2 0x26B PUSH2 0x381 CALLDATASIZE PUSH1 0x4 PUSH2 0x37E9 JUMP JUMPDEST PUSH2 0x1555 JUMP JUMPDEST PUSH2 0x26B PUSH2 0x394 CALLDATASIZE PUSH1 0x4 PUSH2 0x37E9 JUMP JUMPDEST PUSH1 0x1 PUSH1 0x1 PUSH1 0xA0 SHL SUB AND PUSH1 0x0 SWAP1 DUP2 MSTORE PUSH1 0xA PUSH1 0x20 MSTORE PUSH1 0x40 SWAP1 KECCAK256 SLOAD SWAP1 JUMP JUMPDEST PUSH2 0x3C2 PUSH2 0x3BD CALLDATASIZE PUSH1 0x4 PUSH2 0x37E9 JUMP JUMPDEST PUSH2 0x1620 JUMP JUMPDEST PUSH1 0x40 MLOAD PUSH2 0x275 SWAP2 SWAP1 PUSH2 0x3CBA JUMP JUMPDEST PUSH2 0x2B1 PUSH2 0x3DD CALLDATASIZE PUSH1 0x4 PUSH2 0x37E9 JUMP JUMPDEST PUSH2 0x176B JUMP JUMPDEST PUSH2 0x2F8 PUSH2 0x3F0 CALLDATASIZE PUSH1 0x4 PUSH2 0x3D26 JUMP JUMPDEST PUSH2 0x1966 JUMP JUMPDEST PUSH2 0x26B PUSH2 0x403 CALLDATASIZE PUSH1 0x4 PUSH2 0x37E9 JUMP JUMPDEST PUSH1 0x1 PUSH1 0x1 PUSH1 0xA0 SHL SUB AND PUSH1 0x0 SWAP1 DUP2 MSTORE PUSH1 0x9 PUSH1 0x20 MSTORE PUSH1 0x40 SWAP1 KECCAK256 SLOAD SWAP1 JUMP JUMPDEST PUSH2 0x26B PUSH2 0x42C CALLDATASIZE PUSH1 0x4 PUSH2 0x37AB JUMP JUMPDEST PUSH2 0x1B36 JUMP JUMPDEST PUSH2 0x26B PUSH2 0x43F CALLDATASIZE PUSH1 0x4 PUSH2 0x37E9 JUMP JUMPDEST PUSH1 0x1 PUSH1 0x1 PUSH1 0xA0 SHL SUB AND PUSH1 0x0 SWAP1 DUP2 MSTORE PUSH1 0x8 PUSH1 0x20 MSTORE PUSH1 0x40 SWAP1 KECCAK256 SLOAD SWAP1 JUMP JUMPDEST PUSH2 0x26B PUSH2 0x468 CALLDATASIZE PUSH1 0x4 PUSH2 0x37E9 JUMP JUMPDEST PUSH1 0x8 PUSH1 0x20 MSTORE PUSH1 0x0 SWAP1 DUP2 MSTORE PUSH1 0x40 SWAP1 KECCAK256 SLOAD DUP2 JUMP JUMPDEST PUSH2 0x2D1 PUSH2 0x488 CALLDATASIZE PUSH1 0x4 PUSH2 0x37E9 JUMP JUMPDEST PUSH2 0x1C98 JUMP JUMPDEST PUSH2 0x26B PUSH2 0x49B CALLDATASIZE PUSH1 0x4 PUSH2 0x37E9 JUMP JUMPDEST PUSH1 0x9 PUSH1 0x20 MSTORE PUSH1 0x0 SWAP1 DUP2 MSTORE PUSH1 0x40 SWAP1 KECCAK256 SLOAD DUP2 JUMP JUMPDEST PUSH2 0x26B PUSH2 0x4BB CALLDATASIZE PUSH1 0x4 PUSH2 0x3DC4 JUMP JUMPDEST PUSH2 0x1CCB JUMP JUMPDEST PUSH2 0x4D3 PUSH2 0x4CE CALLDATASIZE PUSH1 0x4 PUSH2 0x37AB JUMP JUMPDEST PUSH2 0x1F62 JUMP JUMPDEST PUSH1 0x40 DUP1 MLOAD SWAP7 DUP8 MSTORE PUSH1 0x20 DUP8 ADD SWAP6 SWAP1 SWAP6 MSTORE SWAP4 DUP6 ADD SWAP3 SWAP1 SWAP3 MSTORE PUSH1 0x1 PUSH1 0x1 PUSH1 0xA0 SHL SUB AND PUSH1 0x60 DUP5 ADD MSTORE ISZERO ISZERO PUSH1 0x80 DUP4 ADD MSTORE ISZERO ISZERO PUSH1 0xA0 DUP3 ADD MSTORE PUSH1 0xC0 ADD PUSH2 0x275 JUMP JUMPDEST PUSH2 0x2F8 PUSH2 0x51B CALLDATASIZE PUSH1 0x4 PUSH2 0x3B6C JUMP JUMPDEST PUSH2 0x1FC7 JUMP JUMPDEST PUSH2 0x533 PUSH2 0x52E CALLDATASIZE PUSH1 0x4 PUSH2 0x37E9 JUMP JUMPDEST PUSH2 0x24AA JUMP JUMPDEST PUSH1 0x40 MLOAD SWAP1 ISZERO ISZERO DUP2 MSTORE PUSH1 0x20 ADD PUSH2 0x275 JUMP JUMPDEST PUSH2 0x2F8 PUSH2 0x551 CALLDATASIZE PUSH1 0x4 PUSH2 0x37E9 JUMP JUMPDEST PUSH2 0x24DE JUMP JUMPDEST PUSH2 0x2B1 PUSH2 0x26A2 JUMP JUMPDEST PUSH2 0x533 PUSH2 0x56C CALLDATASIZE PUSH1 0x4 PUSH2 0x3B6C JUMP JUMPDEST PUSH1 0x7 PUSH1 0x20 SWAP1 DUP2 MSTORE PUSH1 0x0 SWAP3 DUP4 MSTORE PUSH1 0x40 DUP1 DUP5 KECCAK256 SWAP1 SWAP2 MSTORE SWAP1 DUP3 MSTORE SWAP1 KECCAK256 SLOAD PUSH1 0xFF AND DUP2 JUMP JUMPDEST PUSH2 0x59F PUSH2 0x59A CALLDATASIZE PUSH1 0x4 PUSH2 0x3B01 JUMP JUMPDEST PUSH2 0x27E6 JUMP JUMPDEST PUSH1 0x40 DUP1 MLOAD SWAP6 DUP7 MSTORE PUSH1 0x20 DUP7 ADD SWAP5 SWAP1 SWAP5 MSTORE PUSH1 0x1 PUSH1 0x1 PUSH1 0xA0 SHL SUB SWAP1 SWAP3 AND SWAP3 DUP5 ADD SWAP3 SWAP1 SWAP3 MSTORE PUSH1 0x60 DUP4 ADD SWAP2 SWAP1 SWAP2 MSTORE ISZERO ISZERO PUSH1 0x80 DUP3 ADD MSTORE PUSH1 0xA0 ADD PUSH2 0x275 JUMP JUMPDEST PUSH2 0x59F PUSH2 0x5E5 CALLDATASIZE PUSH1 0x4 PUSH2 0x3B01 JUMP JUMPDEST PUSH2 0x2834 JUMP JUMPDEST PUSH2 0x5FD PUSH2 0x5F8 CALLDATASIZE PUSH1 0x4 PUSH2 0x3B01 JUMP JUMPDEST PUSH2 0x2844 JUMP JUMPDEST PUSH1 0x40 MLOAD PUSH2 0x275 SWAP2 SWAP1 PUSH2 0x3ECA JUMP JUMPDEST PUSH2 0x533 PUSH2 0x618 CALLDATASIZE PUSH1 0x4 PUSH2 0x37E9 JUMP JUMPDEST PUSH2 0x2A34 JUMP JUMPDEST PUSH2 0x533 PUSH2 0x62B CALLDATASIZE PUSH1 0x4 PUSH2 0x3F1F JUMP JUMPDEST PUSH1 0x0 SWAP1 DUP2 MSTORE PUSH1 0x6 PUSH1 0x20 SWAP1 DUP2 MSTORE PUSH1 0x40 DUP1 DUP4 KECCAK256 PUSH1 0x1 PUSH1 0x1 PUSH1 0xA0 SHL SUB SWAP5 SWAP1 SWAP5 AND DUP4 MSTORE SWAP3 SWAP1 MSTORE KECCAK256 SLOAD PUSH1 0xFF AND SWAP1 JUMP JUMPDEST PUSH2 0x2F8 PUSH2 0x663 CALLDATASIZE PUSH1 0x4 PUSH2 0x3F49 JUMP JUMPDEST PUSH2 0x2A60 JUMP JUMPDEST PUSH2 0x533 PUSH2 0x676 CALLDATASIZE PUSH1 0x4 PUSH2 0x3B6C JUMP JUMPDEST PUSH1 0x6 PUSH1 0x20 SWAP1 DUP2 MSTORE PUSH1 0x0 SWAP3 DUP4 MSTORE PUSH1 0x40 DUP1 DUP5 KECCAK256 SWAP1 SWAP2 MSTORE SWAP1 DUP3 MSTORE SWAP1 KECCAK256 SLOAD PUSH1 0xFF AND DUP2 JUMP JUMPDEST PUSH2 0x6A9 PUSH2 0x6A4 CALLDATASIZE PUSH1 0x4 PUSH2 0x3B01 JUMP JUMPDEST PUSH2 0x2BEE JUMP JUMPDEST PUSH1 0x40 MLOAD PUSH2 0x275 SWAP2 SWAP1 PUSH2 0x3F88 JUMP JUMPDEST PUSH2 0x2F8 PUSH2 0x6C4 CALLDATASIZE PUSH1 0x4 PUSH2 0x3FAC JUMP JUMPDEST PUSH2 0x2D21 JUMP JUMPDEST PUSH2 0x346 PUSH2 0x6D7 CALLDATASIZE PUSH1 0x4 PUSH2 0x3B01 JUMP JUMPDEST PUSH2 0x32C5 JUMP JUMPDEST PUSH2 0x26B PUSH2 0x6EA CALLDATASIZE PUSH1 0x4 PUSH2 0x37E9 JUMP JUMPDEST PUSH1 0xA PUSH1 0x20 MSTORE PUSH1 0x0 SWAP1 DUP2 MSTORE PUSH1 0x40 SWAP1 KECCAK256 SLOAD DUP2 JUMP JUMPDEST PUSH2 0x70F PUSH2 0x70A CALLDATASIZE PUSH1 0x4 PUSH2 0x3B01 JUMP JUMPDEST PUSH2 0x337A JUMP JUMPDEST PUSH1 0x40 MLOAD PUSH2 0x275 SWAP2 SWAP1 PUSH2 0x4061 JUMP JUMPDEST PUSH2 0x72F PUSH2 0x72A CALLDATASIZE PUSH1 0x4 PUSH2 0x37E9 JUMP JUMPDEST PUSH2 0x3499 JUMP JUMPDEST PUSH1 0x40 MLOAD PUSH2 0x275 SWAP8 SWAP7 SWAP6 SWAP5 SWAP4 SWAP3 SWAP2 SWAP1 PUSH2 0x40EF JUMP JUMPDEST PUSH2 0x755 PUSH2 0x750 CALLDATASIZE PUSH1 0x4 PUSH2 0x37AB JUMP JUMPDEST PUSH2 0x3570 JUMP JUMPDEST PUSH1 0x40 MLOAD PUSH2 0x275 SWAP5 SWAP4 SWAP3 SWAP2 SWAP1 PUSH2 0x4141 JUMP JUMPDEST PUSH1 0x16 SLOAD PUSH1 0x0 SWAP1 DUP2 SWAP1 PUSH2 0x777 SWAP1 DUP6 PUSH2 0x4189 JUMP JUMPDEST PUSH2 0x781 SWAP1 DUP3 PUSH2 0x41A0 JUMP JUMPDEST SWAP1 POP DUP3 PUSH1 0x5 SUB PUSH2 0x7A6 JUMPI PUSH1 0x16 SLOAD PUSH2 0x799 SWAP1 PUSH1 0x2 PUSH2 0x4189 JUMP JUMPDEST PUSH2 0x7A3 SWAP1 DUP3 PUSH2 0x41A0 JUMP JUMPDEST SWAP1 POP JUMPDEST DUP3 PUSH1 0x7 SUB PUSH2 0x7C9 JUMPI PUSH1 0x16 SLOAD PUSH2 0x7BC SWAP1 PUSH1 0x4 PUSH2 0x4189 JUMP JUMPDEST PUSH2 0x7C6 SWAP1 DUP3 PUSH2 0x41A0 JUMP JUMPDEST SWAP1 POP JUMPDEST DUP3 PUSH1 0x9 SUB PUSH2 0x7EC JUMPI PUSH1 0x16 SLOAD PUSH2 0x7DF SWAP1 PUSH1 0x6 PUSH2 0x4189 JUMP JUMPDEST PUSH2 0x7E9 SWAP1 DUP3 PUSH2 0x41A0 JUMP JUMPDEST SWAP1 POP JUMPDEST SWAP1 POP JUMPDEST SWAP3 SWAP2 POP POP JUMP JUMPDEST PUSH2 0x7FD PUSH2 0x3648 JUMP JUMPDEST PUSH1 0x1 PUSH1 0x1 PUSH1 0xA0 SHL SUB DUP1 DUP4 AND PUSH1 0x0 SWAP1 DUP2 MSTORE PUSH1 0x1 PUSH1 0x20 DUP2 DUP2 MSTORE PUSH1 0x40 SWAP3 DUP4 SWAP1 KECCAK256 DUP4 MLOAD PUSH1 0xE0 DUP2 ADD DUP6 MSTORE DUP2 SLOAD DUP2 MSTORE SWAP3 DUP2 ADD SLOAD SWAP1 SWAP5 AND SWAP1 DUP3 ADD MSTORE PUSH1 0x2 DUP4 ADD DUP1 SLOAD SWAP2 SWAP4 SWAP3 DUP5 ADD SWAP2 PUSH2 0x846 SWAP1 PUSH2 0x41B3 JUMP JUMPDEST DUP1 PUSH1 0x1F ADD PUSH1 0x20 DUP1 SWAP2 DIV MUL PUSH1 0x20 ADD PUSH1 0x40 MLOAD SWAP1 DUP2 ADD PUSH1 0x40 MSTORE DUP1 SWAP3 SWAP2 SWAP1 DUP2 DUP2 MSTORE PUSH1 0x20 ADD DUP3 DUP1 SLOAD PUSH2 0x872 SWAP1 PUSH2 0x41B3 JUMP JUMPDEST DUP1 ISZERO PUSH2 0x8BF JUMPI DUP1 PUSH1 0x1F LT PUSH2 0x894 JUMPI PUSH2 0x100 DUP1 DUP4 SLOAD DIV MUL DUP4 MSTORE SWAP2 PUSH1 0x20 ADD SWAP2 PUSH2 0x8BF JUMP JUMPDEST DUP3 ADD SWAP2 SWAP1 PUSH1 0x0 MSTORE PUSH1 0x20 PUSH1 0x0 KECCAK256 SWAP1 JUMPDEST DUP2 SLOAD DUP2 MSTORE SWAP1 PUSH1 0x1 ADD SWAP1 PUSH1 0x20 ADD DUP1 DUP4 GT PUSH2 0x8A2 JUMPI DUP3 SWAP1 SUB PUSH1 0x1F AND DUP3 ADD SWAP2 JUMPDEST POP POP POP SWAP2 DUP4 MSTORE POP POP PUSH1 0x3 DUP3 ADD SLOAD PUSH1 0x20 DUP3 ADD MSTORE PUSH1 0x4 SWAP1 SWAP2 ADD SLOAD PUSH1 0xFF DUP1 DUP3 AND ISZERO ISZERO PUSH1 0x40 DUP5 ADD MSTORE PUSH2 0x100 DUP3 DIV DUP2 AND ISZERO ISZERO PUSH1 0x60 DUP5 ADD MSTORE PUSH3 0x10000 SWAP1 SWAP2 DIV AND ISZERO ISZERO PUSH1 0x80 SWAP1 SWAP2 ADD MSTORE SWAP3 SWAP2 POP POP JUMP JUMPDEST PUSH1 0x1 PUSH1 0x1 PUSH1 0xA0 SHL SUB DUP2 AND PUSH1 0x0 SWAP1 DUP2 MSTORE PUSH1 0x8 PUSH1 0x20 MSTORE PUSH1 0x40 DUP2 KECCAK256 SLOAD PUSH1 0x60 SWAP2 DUP2 PUSH1 0x1 PUSH1 0x1 PUSH1 0x40 SHL SUB DUP2 GT ISZERO PUSH2 0x93B JUMPI PUSH2 0x93B PUSH2 0x39F6 JUMP JUMPDEST PUSH1 0x40 MLOAD SWAP1 DUP1 DUP3 MSTORE DUP1 PUSH1 0x20 MUL PUSH1 0x20 ADD DUP3 ADD PUSH1 0x40 MSTORE DUP1 ISZERO PUSH2 0x974 JUMPI DUP2 PUSH1 0x20 ADD JUMPDEST PUSH2 0x961 PUSH2 0x3694 JUMP JUMPDEST DUP2 MSTORE PUSH1 0x20 ADD SWAP1 PUSH1 0x1 SWAP1 SUB SWAP1 DUP2 PUSH2 0x959 JUMPI SWAP1 POP JUMPDEST POP SWAP1 POP PUSH1 0x0 DUP1 JUMPDEST PUSH1 0x3 SLOAD DUP2 LT ISZERO PUSH2 0xB14 JUMPI PUSH1 0x0 PUSH1 0x3 DUP3 DUP2 SLOAD DUP2 LT PUSH2 0x99A JUMPI PUSH2 0x99A PUSH2 0x41ED JUMP JUMPDEST SWAP1 PUSH1 0x0 MSTORE PUSH1 0x20 PUSH1 0x0 KECCAK256 SWAP1 PUSH1 0x7 MUL ADD PUSH1 0x40 MLOAD DUP1 PUSH1 0xE0 ADD PUSH1 0x40 MSTORE SWAP1 DUP2 PUSH1 0x0 DUP3 ADD SLOAD DUP2 MSTORE PUSH1 0x20 ADD PUSH1 0x1 DUP3 ADD PUSH1 0x0 SWAP1 SLOAD SWAP1 PUSH2 0x100 EXP SWAP1 DIV PUSH1 0x1 PUSH1 0x1 PUSH1 0xA0 SHL SUB AND PUSH1 0x1 PUSH1 0x1 PUSH1 0xA0 SHL SUB AND PUSH1 0x1 PUSH1 0x1 PUSH1 0xA0 SHL SUB AND DUP2 MSTORE PUSH1 0x20 ADD PUSH1 0x2 DUP3 ADD DUP1 SLOAD PUSH2 0x9FC SWAP1 PUSH2 0x41B3 JUMP JUMPDEST DUP1 PUSH1 0x1F ADD PUSH1 0x20 DUP1 SWAP2 DIV MUL PUSH1 0x20 ADD PUSH1 0x40 MLOAD SWAP1 DUP2 ADD PUSH1 0x40 MSTORE DUP1 SWAP3 SWAP2 SWAP1 DUP2 DUP2 MSTORE PUSH1 0x20 ADD DUP3 DUP1 SLOAD PUSH2 0xA28 SWAP1 PUSH2 0x41B3 JUMP JUMPDEST DUP1 ISZERO PUSH2 0xA75 JUMPI DUP1 PUSH1 0x1F LT PUSH2 0xA4A JUMPI PUSH2 0x100 DUP1 DUP4 SLOAD DIV MUL DUP4 MSTORE SWAP2 PUSH1 0x20 ADD SWAP2 PUSH2 0xA75 JUMP JUMPDEST DUP3 ADD SWAP2 SWAP1 PUSH1 0x0 MSTORE PUSH1 0x20 PUSH1 0x0 KECCAK256 SWAP1 JUMPDEST DUP2 SLOAD DUP2 MSTORE SWAP1 PUSH1 0x1 ADD SWAP1 PUSH1 0x20 ADD DUP1 DUP4 GT PUSH2 0xA58 JUMPI DUP3 SWAP1 SUB PUSH1 0x1F AND DUP3 ADD SWAP2 JUMPDEST POP POP POP SWAP2 DUP4 MSTORE POP POP PUSH1 0x3 DUP3 ADD SLOAD PUSH1 0x20 DUP1 DUP4 ADD SWAP2 SWAP1 SWAP2 MSTORE PUSH1 0x4 DUP4 ADD SLOAD PUSH1 0x40 DUP4 ADD MSTORE PUSH1 0x5 DUP4 ADD SLOAD PUSH1 0x60 DUP4 ADD MSTORE PUSH1 0x6 SWAP1 SWAP3 ADD SLOAD PUSH1 0xFF AND ISZERO ISZERO PUSH1 0x80 SWAP1 SWAP2 ADD MSTORE DUP2 ADD MLOAD SWAP1 SWAP2 POP PUSH1 0x1 PUSH1 0x1 PUSH1 0xA0 SHL SUB DUP1 DUP10 AND SWAP2 AND SUB PUSH2 0xB01 JUMPI DUP1 DUP5 DUP5 DUP2 MLOAD DUP2 LT PUSH2 0xADB JUMPI PUSH2 0xADB PUSH2 0x41ED JUMP JUMPDEST PUSH1 0x20 MUL PUSH1 0x20 ADD ADD DUP2 SWAP1 MSTORE POP DUP3 DUP1 PUSH2 0xAF1 SWAP1 PUSH2 0x4203 JUMP JUMPDEST SWAP4 POP POP DUP5 DUP4 SUB PUSH2 0xB01 JUMPI POP PUSH2 0xB14 JUMP JUMPDEST POP DUP1 PUSH2 0xB0C DUP2 PUSH2 0x4203 JUMP JUMPDEST SWAP2 POP POP PUSH2 0x97B JUMP JUMPDEST POP SWAP1 SWAP5 SWAP4 POP POP POP POP JUMP JUMPDEST PUSH1 0xB PUSH1 0x20 MSTORE DUP2 PUSH1 0x0 MSTORE PUSH1 0x40 PUSH1 0x0 KECCAK256 DUP2 DUP2 SLOAD DUP2 LT PUSH2 0xB3A JUMPI PUSH1 0x0 DUP1 REVERT JUMPDEST PUSH1 0x0 SWAP2 DUP3 MSTORE PUSH1 0x20 SWAP1 SWAP2 KECCAK256 PUSH1 0x7 SWAP1 SWAP2 MUL ADD DUP1 SLOAD PUSH1 0x1 DUP3 ADD SLOAD PUSH1 0x2 DUP4 ADD DUP1 SLOAD SWAP3 SWAP6 POP PUSH1 0x1 PUSH1 0x1 PUSH1 0xA0 SHL SUB SWAP1 SWAP2 AND SWAP4 POP SWAP1 PUSH2 0xB71 SWAP1 PUSH2 0x41B3 JUMP JUMPDEST DUP1 PUSH1 0x1F ADD PUSH1 0x20 DUP1 SWAP2 DIV MUL PUSH1 0x20 ADD PUSH1 0x40 MLOAD SWAP1 DUP2 ADD PUSH1 0x40 MSTORE DUP1 SWAP3 SWAP2 SWAP1 DUP2 DUP2 MSTORE PUSH1 0x20 ADD DUP3 DUP1 SLOAD PUSH2 0xB9D SWAP1 PUSH2 0x41B3 JUMP JUMPDEST DUP1 ISZERO PUSH2 0xBEA JUMPI DUP1 PUSH1 0x1F LT PUSH2 0xBBF JUMPI PUSH2 0x100 DUP1 DUP4 SLOAD DIV MUL DUP4 MSTORE SWAP2 PUSH1 0x20 ADD SWAP2 PUSH2 0xBEA JUMP JUMPDEST DUP3 ADD SWAP2 SWAP1 PUSH1 0x0 MSTORE PUSH1 0x20 PUSH1 0x0 KECCAK256 SWAP1 JUMPDEST DUP2 SLOAD DUP2 MSTORE SWAP1 PUSH1 0x1 ADD SWAP1 PUSH1 0x20 ADD DUP1 DUP4 GT PUSH2 0xBCD JUMPI DUP3 SWAP1 SUB PUSH1 0x1F AND DUP3 ADD SWAP2 JUMPDEST POP POP POP POP POP SWAP1 DUP1 PUSH1 0x3 ADD DUP1 SLOAD PUSH2 0xBFF SWAP1 PUSH2 0x41B3 JUMP JUMPDEST DUP1 PUSH1 0x1F ADD PUSH1 0x20 DUP1 SWAP2 DIV MUL PUSH1 0x20 ADD PUSH1 0x40 MLOAD SWAP1 DUP2 ADD PUSH1 0x40 MSTORE DUP1 SWAP3 SWAP2 SWAP1 DUP2 DUP2 MSTORE PUSH1 0x20 ADD DUP3 DUP1 SLOAD PUSH2 0xC2B SWAP1 PUSH2 0x41B3 JUMP JUMPDEST DUP1 ISZERO PUSH2 0xC78 JUMPI DUP1 PUSH1 0x1F LT PUSH2 0xC4D JUMPI PUSH2 0x100 DUP1 DUP4 SLOAD DIV MUL DUP4 MSTORE SWAP2 PUSH1 0x20 ADD SWAP2 PUSH2 0xC78 JUMP JUMPDEST DUP3 ADD SWAP2 SWAP1 PUSH1 0x0 MSTORE PUSH1 0x20 PUSH1 0x0 KECCAK256 SWAP1 JUMPDEST DUP2 SLOAD DUP2 MSTORE SWAP1 PUSH1 0x1 ADD SWAP1 PUSH1 0x20 ADD DUP1 DUP4 GT PUSH2 0xC5B JUMPI DUP3 SWAP1 SUB PUSH1 0x1F AND DUP3 ADD SWAP2 JUMPDEST POP POP POP POP PUSH1 0x4 DUP4 ADD SLOAD PUSH1 0x5 DUP5 ADD SLOAD PUSH1 0x6 SWAP1 SWAP5 ADD SLOAD SWAP3 SWAP4 SWAP1 SWAP3 SWAP1 SWAP2 POP PUSH1 0xFF DUP1 DUP3 AND SWAP2 PUSH2 0x100 SWAP1 DIV AND DUP9 JUMP JUMPDEST PUSH1 0xE SLOAD PUSH2 0xCAD PUSH2 0x3648 JUMP JUMPDEST DUP2 DUP2 MSTORE PUSH1 0x1 PUSH1 0x1 PUSH1 0xA0 SHL SUB DUP6 AND PUSH1 0x20 DUP3 ADD MSTORE PUSH1 0x40 DUP2 ADD DUP5 SWAP1 MSTORE PUSH1 0x60 DUP2 ADD DUP4 SWAP1 MSTORE PUSH1 0x0 PUSH1 0xA0 DUP3 ADD MSTORE PUSH2 0xCDD DUP6 PUSH2 0x24AA JUMP JUMPDEST ISZERO PUSH2 0xDAF JUMPI PUSH1 0x0 PUSH2 0xCED DUP7 PUSH2 0x13B3 JUMP JUMPDEST PUSH1 0x1 PUSH1 0xC0 DUP3 ADD DUP2 SWAP1 MSTORE PUSH1 0x80 DUP5 ADD DUP2 SWAP1 MSTORE PUSH1 0x1 PUSH1 0x1 PUSH1 0xA0 SHL SUB DUP9 DUP2 AND PUSH1 0x0 SWAP1 DUP2 MSTORE PUSH1 0x2 PUSH1 0x20 DUP2 DUP2 MSTORE PUSH1 0x40 SWAP3 DUP4 SWAP1 KECCAK256 DUP7 MLOAD DUP2 SSTORE SWAP1 DUP7 ADD MLOAD SWAP5 DUP2 ADD DUP1 SLOAD PUSH1 0x1 PUSH1 0x1 PUSH1 0xA0 SHL SUB NOT AND SWAP6 SWAP1 SWAP5 AND SWAP5 SWAP1 SWAP5 OR SWAP1 SWAP3 SSTORE DUP4 ADD MLOAD SWAP3 SWAP4 POP DUP4 SWAP3 SWAP1 DUP3 ADD SWAP1 PUSH2 0xD52 SWAP1 DUP3 PUSH2 0x426B JUMP JUMPDEST POP PUSH1 0x60 DUP3 ADD MLOAD PUSH1 0x3 DUP3 ADD SWAP1 PUSH2 0xD67 SWAP1 DUP3 PUSH2 0x426B JUMP JUMPDEST POP PUSH1 0x80 DUP3 ADD MLOAD PUSH1 0x4 DUP3 ADD SSTORE PUSH1 0xA0 DUP3 ADD MLOAD PUSH1 0x5 DUP3 ADD SSTORE PUSH1 0xC0 DUP3 ADD MLOAD PUSH1 0x6 SWAP1 SWAP2 ADD DUP1 SLOAD PUSH1 0xE0 SWAP1 SWAP4 ADD MLOAD ISZERO ISZERO PUSH2 0x100 MUL PUSH2 0xFF00 NOT SWAP3 ISZERO ISZERO SWAP3 SWAP1 SWAP3 AND PUSH2 0xFFFF NOT SWAP1 SWAP4 AND SWAP3 SWAP1 SWAP3 OR OR SWAP1 SSTORE POP JUMPDEST PUSH1 0x1 PUSH1 0x1 PUSH1 0xA0 SHL SUB DUP6 DUP2 AND PUSH1 0x0 SWAP1 DUP2 MSTORE PUSH1 0x1 PUSH1 0x20 DUP2 DUP2 MSTORE PUSH1 0x40 SWAP3 DUP4 SWAP1 KECCAK256 DUP6 MLOAD DUP2 SSTORE SWAP1 DUP6 ADD MLOAD SWAP2 DUP2 ADD DUP1 SLOAD PUSH1 0x1 PUSH1 0x1 PUSH1 0xA0 SHL SUB NOT AND SWAP3 SWAP1 SWAP5 AND SWAP2 SWAP1 SWAP2 OR SWAP1 SWAP3 SSTORE DUP3 ADD MLOAD DUP3 SWAP2 SWAP1 PUSH1 0x2 DUP3 ADD SWAP1 PUSH2 0xE03 SWAP1 DUP3 PUSH2 0x426B JUMP JUMPDEST POP PUSH1 0x60 DUP3 ADD MLOAD PUSH1 0x3 DUP3 ADD SSTORE PUSH1 0x80 DUP3 ADD MLOAD PUSH1 0x4 SWAP1 SWAP2 ADD DUP1 SLOAD PUSH1 0xA0 DUP5 ADD MLOAD PUSH1 0xC0 SWAP1 SWAP5 ADD MLOAD ISZERO ISZERO PUSH3 0x10000 MUL PUSH3 0xFF0000 NOT SWAP5 ISZERO ISZERO PUSH2 0x100 MUL PUSH2 0xFF00 NOT SWAP5 ISZERO ISZERO SWAP5 SWAP1 SWAP5 AND PUSH2 0xFFFF NOT SWAP1 SWAP3 AND SWAP2 SWAP1 SWAP2 OR SWAP3 SWAP1 SWAP3 OR SWAP3 SWAP1 SWAP3 AND OR SWAP1 SSTORE PUSH1 0xE DUP1 SLOAD SWAP1 PUSH1 0x0 PUSH2 0xE69 DUP4 PUSH2 0x4203 JUMP JUMPDEST SWAP2 SWAP1 POP SSTORE POP POP POP POP POP POP JUMP JUMPDEST PUSH1 0x3 DUP2 DUP2 SLOAD DUP2 LT PUSH2 0xE85 JUMPI PUSH1 0x0 DUP1 REVERT JUMPDEST PUSH1 0x0 SWAP2 DUP3 MSTORE PUSH1 0x20 SWAP1 SWAP2 KECCAK256 PUSH1 0x7 SWAP1 SWAP2 MUL ADD DUP1 SLOAD PUSH1 0x1 DUP3 ADD SLOAD PUSH1 0x2 DUP4 ADD DUP1 SLOAD SWAP3 SWAP5 POP PUSH1 0x1 PUSH1 0x1 PUSH1 0xA0 SHL SUB SWAP1 SWAP2 AND SWAP3 SWAP2 PUSH2 0xEBB SWAP1 PUSH2 0x41B3 JUMP JUMPDEST DUP1 PUSH1 0x1F ADD PUSH1 0x20 DUP1 SWAP2 DIV MUL PUSH1 0x20 ADD PUSH1 0x40 MLOAD SWAP1 DUP2 ADD PUSH1 0x40 MSTORE DUP1 SWAP3 SWAP2 SWAP1 DUP2 DUP2 MSTORE PUSH1 0x20 ADD DUP3 DUP1 SLOAD PUSH2 0xEE7 SWAP1 PUSH2 0x41B3 JUMP JUMPDEST DUP1 ISZERO PUSH2 0xF34 JUMPI DUP1 PUSH1 0x1F LT PUSH2 0xF09 JUMPI PUSH2 0x100 DUP1 DUP4 SLOAD DIV MUL DUP4 MSTORE SWAP2 PUSH1 0x20 ADD SWAP2 PUSH2 0xF34 JUMP JUMPDEST DUP3 ADD SWAP2 SWAP1 PUSH1 0x0 MSTORE PUSH1 0x20 PUSH1 0x0 KECCAK256 SWAP1 JUMPDEST DUP2 SLOAD DUP2 MSTORE SWAP1 PUSH1 0x1 ADD SWAP1 PUSH1 0x20 ADD DUP1 DUP4 GT PUSH2 0xF17 JUMPI DUP3 SWAP1 SUB PUSH1 0x1F AND DUP3 ADD SWAP2 JUMPDEST POP POP POP POP PUSH1 0x3 DUP4 ADD SLOAD PUSH1 0x4 DUP5 ADD SLOAD PUSH1 0x5 DUP6 ADD SLOAD PUSH1 0x6 SWAP1 SWAP6 ADD SLOAD SWAP4 SWAP5 SWAP2 SWAP4 SWAP1 SWAP3 POP PUSH1 0xFF AND DUP8 JUMP JUMPDEST PUSH1 0x0 DUP1 PUSH1 0x3 DUP4 DUP2 SLOAD DUP2 LT PUSH2 0xF70 JUMPI PUSH2 0xF70 PUSH2 0x41ED JUMP JUMPDEST SWAP1 PUSH1 0x0 MSTORE PUSH1 0x20 PUSH1 0x0 KECCAK256 SWAP1 PUSH1 0x7 MUL ADD PUSH1 0x40 MLOAD DUP1 PUSH1 0xE0 ADD PUSH1 0x40 MSTORE SWAP1 DUP2 PUSH1 0x0 DUP3 ADD SLOAD DUP2 MSTORE PUSH1 0x20 ADD PUSH1 0x1 DUP3 ADD PUSH1 0x0 SWAP1 SLOAD SWAP1 PUSH2 0x100 EXP SWAP1 DIV PUSH1 0x1 PUSH1 0x1 PUSH1 0xA0 SHL SUB AND PUSH1 0x1 PUSH1 0x1 PUSH1 0xA0 SHL SUB AND PUSH1 0x1 PUSH1 0x1 PUSH1 0xA0 SHL SUB AND DUP2 MSTORE PUSH1 0x20 ADD PUSH1 0x2 DUP3 ADD DUP1 SLOAD PUSH2 0xFD2 SWAP1 PUSH2 0x41B3 JUMP JUMPDEST DUP1 PUSH1 0x1F ADD PUSH1 0x20 DUP1 SWAP2 DIV MUL PUSH1 0x20 ADD PUSH1 0x40 MLOAD SWAP1 DUP2 ADD PUSH1 0x40 MSTORE DUP1 SWAP3 SWAP2 SWAP1 DUP2 DUP2 MSTORE PUSH1 0x20 ADD DUP3 DUP1 SLOAD PUSH2 0xFFE SWAP1 PUSH2 0x41B3 JUMP JUMPDEST DUP1 ISZERO PUSH2 0x104B JUMPI DUP1 PUSH1 0x1F LT PUSH2 0x1020 JUMPI PUSH2 0x100 DUP1 DUP4 SLOAD DIV MUL DUP4 MSTORE SWAP2 PUSH1 0x20 ADD SWAP2 PUSH2 0x104B JUMP JUMPDEST DUP3 ADD SWAP2 SWAP1 PUSH1 0x0 MSTORE PUSH1 0x20 PUSH1 0x0 KECCAK256 SWAP1 JUMPDEST DUP2 SLOAD DUP2 MSTORE SWAP1 PUSH1 0x1 ADD SWAP1 PUSH1 0x20 ADD DUP1 DUP4 GT PUSH2 0x102E JUMPI DUP3 SWAP1 SUB PUSH1 0x1F AND DUP3 ADD SWAP2 JUMPDEST POP POP POP SWAP2 DUP4 MSTORE POP POP PUSH1 0x3 DUP3 ADD SLOAD PUSH1 0x20 DUP3 ADD MSTORE PUSH1 0x4 DUP3 ADD SLOAD PUSH1 0x40 DUP3 ADD MSTORE PUSH1 0x5 DUP1 DUP4 ADD SLOAD PUSH1 0x60 DUP4 ADD MSTORE PUSH1 0x6 SWAP1 SWAP3 ADD SLOAD PUSH1 0xFF AND ISZERO ISZERO PUSH1 0x80 SWAP2 DUP3 ADD MSTORE PUSH1 0xA0 DUP4 ADD MLOAD SWAP1 DUP4 ADD MLOAD SWAP3 SWAP4 POP SWAP2 SWAP1 PUSH1 0x0 SWAP1 PUSH1 0xA SWAP1 PUSH2 0x10A2 SWAP1 DUP6 SWAP1 PUSH2 0x4189 JUMP JUMPDEST PUSH2 0x10AC SWAP2 SWAP1 PUSH2 0x432A JUMP JUMPDEST SWAP1 POP PUSH1 0x0 PUSH2 0x10BA DUP4 DUP4 PUSH2 0x432A JUMP JUMPDEST SWAP8 SWAP7 POP POP POP POP POP POP POP JUMP JUMPDEST PUSH1 0x60 PUSH1 0x0 PUSH1 0x3 DUP5 DUP2 SLOAD DUP2 LT PUSH2 0x10DC JUMPI PUSH2 0x10DC PUSH2 0x41ED JUMP JUMPDEST SWAP1 PUSH1 0x0 MSTORE PUSH1 0x20 PUSH1 0x0 KECCAK256 SWAP1 PUSH1 0x7 MUL ADD PUSH1 0x40 MLOAD DUP1 PUSH1 0xE0 ADD PUSH1 0x40 MSTORE SWAP1 DUP2 PUSH1 0x0 DUP3 ADD SLOAD DUP2 MSTORE PUSH1 0x20 ADD PUSH1 0x1 DUP3 ADD PUSH1 0x0 SWAP1 SLOAD SWAP1 PUSH2 0x100 EXP SWAP1 DIV PUSH1 0x1 PUSH1 0x1 PUSH1 0xA0 SHL SUB AND PUSH1 0x1 PUSH1 0x1 PUSH1 0xA0 SHL SUB AND PUSH1 0x1 PUSH1 0x1 PUSH1 0xA0 SHL SUB AND DUP2 MSTORE PUSH1 0x20 ADD PUSH1 0x2 DUP3 ADD DUP1 SLOAD PUSH2 0x113E SWAP1 PUSH2 0x41B3 JUMP JUMPDEST DUP1 PUSH1 0x1F ADD PUSH1 0x20 DUP1 SWAP2 DIV MUL PUSH1 0x20 ADD PUSH1 0x40 MLOAD SWAP1 DUP2 ADD PUSH1 0x40 MSTORE DUP1 SWAP3 SWAP2 SWAP1 DUP2 DUP2 MSTORE PUSH1 0x20 ADD DUP3 DUP1 SLOAD PUSH2 0x116A SWAP1 PUSH2 0x41B3 JUMP JUMPDEST DUP1 ISZERO PUSH2 0x11B7 JUMPI DUP1 PUSH1 0x1F LT PUSH2 0x118C JUMPI PUSH2 0x100 DUP1 DUP4 SLOAD DIV MUL DUP4 MSTORE SWAP2 PUSH1 0x20 ADD SWAP2 PUSH2 0x11B7 JUMP JUMPDEST DUP3 ADD SWAP2 SWAP1 PUSH1 0x0 MSTORE PUSH1 0x20 PUSH1 0x0 KECCAK256 SWAP1 JUMPDEST DUP2 SLOAD DUP2 MSTORE SWAP1 PUSH1 0x1 ADD SWAP1 PUSH1 0x20 ADD DUP1 DUP4 GT PUSH2 0x119A JUMPI DUP3 SWAP1 SUB PUSH1 0x1F AND DUP3 ADD SWAP2 JUMPDEST POP POP POP POP POP DUP2 MSTORE PUSH1 0x20 ADD PUSH1 0x3 DUP3 ADD SLOAD DUP2 MSTORE PUSH1 0x20 ADD PUSH1 0x4 DUP3 ADD SLOAD DUP2 MSTORE PUSH1 0x20 ADD PUSH1 0x5 DUP3 ADD SLOAD DUP2 MSTORE PUSH1 0x20 ADD PUSH1 0x6 DUP3 ADD PUSH1 0x0 SWAP1 SLOAD SWAP1 PUSH2 0x100 EXP SWAP1 DIV PUSH1 0xFF AND ISZERO ISZERO ISZERO ISZERO DUP2 MSTORE POP POP SWAP1 POP PUSH1 0x0 PUSH1 0x5 PUSH1 0x0 DUP7 DUP2 MSTORE PUSH1 0x20 ADD SWAP1 DUP2 MSTORE PUSH1 0x20 ADD PUSH1 0x0 KECCAK256 DUP1 SLOAD DUP1 PUSH1 0x20 MUL PUSH1 0x20 ADD PUSH1 0x40 MLOAD SWAP1 DUP2 ADD PUSH1 0x40 MSTORE DUP1 SWAP3 SWAP2 SWAP1 DUP2 DUP2 MSTORE PUSH1 0x20 ADD PUSH1 0x0 SWAP1 JUMPDEST DUP3 DUP3 LT ISZERO PUSH2 0x12B0 JUMPI PUSH1 0x0 DUP5 DUP2 MSTORE PUSH1 0x20 SWAP1 DUP2 SWAP1 KECCAK256 PUSH1 0x40 DUP1 MLOAD PUSH1 0xC0 DUP2 ADD DUP3 MSTORE PUSH1 0x4 DUP7 MUL SWAP1 SWAP3 ADD DUP1 SLOAD DUP4 MSTORE PUSH1 0x1 DUP1 DUP3 ADD SLOAD DUP5 DUP7 ADD MSTORE PUSH1 0x2 DUP3 ADD SLOAD SWAP3 DUP5 ADD SWAP3 SWAP1 SWAP3 MSTORE PUSH1 0x3 ADD SLOAD PUSH1 0x1 PUSH1 0x1 PUSH1 0xA0 SHL SUB DUP2 AND PUSH1 0x60 DUP5 ADD MSTORE PUSH1 0xFF PUSH1 0x1 PUSH1 0xA0 SHL DUP3 DIV DUP2 AND ISZERO ISZERO PUSH1 0x80 DUP6 ADD MSTORE PUSH1 0x1 PUSH1 0xA8 SHL SWAP1 SWAP2 DIV AND ISZERO ISZERO PUSH1 0xA0 DUP4 ADD MSTORE SWAP1 DUP4 MSTORE SWAP1 SWAP3 ADD SWAP2 ADD PUSH2 0x1230 JUMP JUMPDEST POP POP POP POP PUSH1 0x60 DUP4 ADD MLOAD SWAP1 SWAP2 POP PUSH1 0x0 DUP2 PUSH1 0x1 PUSH1 0x1 PUSH1 0x40 SHL SUB DUP2 GT ISZERO PUSH2 0x12D6 JUMPI PUSH2 0x12D6 PUSH2 0x39F6 JUMP JUMPDEST PUSH1 0x40 MLOAD SWAP1 DUP1 DUP3 MSTORE DUP1 PUSH1 0x20 MUL PUSH1 0x20 ADD DUP3 ADD PUSH1 0x40 MSTORE DUP1 ISZERO PUSH2 0x130F JUMPI DUP2 PUSH1 0x20 ADD JUMPDEST PUSH2 0x12FC PUSH2 0x36DC JUMP JUMPDEST DUP2 MSTORE PUSH1 0x20 ADD SWAP1 PUSH1 0x1 SWAP1 SUB SWAP1 DUP2 PUSH2 0x12F4 JUMPI SWAP1 POP JUMPDEST POP SWAP1 POP PUSH1 0x0 DUP1 JUMPDEST DUP5 MLOAD DUP2 LT ISZERO PUSH2 0x13A6 JUMPI PUSH1 0x0 DUP6 DUP3 DUP2 MLOAD DUP2 LT PUSH2 0x1333 JUMPI PUSH2 0x1333 PUSH2 0x41ED JUMP JUMPDEST PUSH1 0x20 MUL PUSH1 0x20 ADD ADD MLOAD SWAP1 POP DUP9 PUSH1 0x1 PUSH1 0x1 PUSH1 0xA0 SHL SUB AND DUP2 PUSH1 0x60 ADD MLOAD PUSH1 0x1 PUSH1 0x1 PUSH1 0xA0 SHL SUB AND SUB PUSH2 0x1393 JUMPI DUP1 DUP5 DUP5 DUP2 MLOAD DUP2 LT PUSH2 0x136D JUMPI PUSH2 0x136D PUSH2 0x41ED JUMP JUMPDEST PUSH1 0x20 MUL PUSH1 0x20 ADD ADD DUP2 SWAP1 MSTORE POP DUP3 DUP1 PUSH2 0x1383 SWAP1 PUSH2 0x4203 JUMP JUMPDEST SWAP4 POP POP DUP5 DUP4 SUB PUSH2 0x1393 JUMPI POP PUSH2 0x13A6 JUMP JUMPDEST POP DUP1 PUSH2 0x139E DUP2 PUSH2 0x4203 JUMP JUMPDEST SWAP2 POP POP PUSH2 0x1316 JUMP JUMPDEST POP SWAP1 SWAP8 SWAP7 POP POP POP POP POP POP POP JUMP JUMPDEST PUSH2 0x13BB PUSH2 0x371F JUMP JUMPDEST PUSH1 0x1 PUSH1 0x1 PUSH1 0xA0 SHL SUB DUP1 DUP4 AND PUSH1 0x0 SWAP1 DUP2 MSTORE PUSH1 0x2 PUSH1 0x20 DUP2 DUP2 MSTORE PUSH1 0x40 SWAP3 DUP4 SWAP1 KECCAK256 DUP4 MLOAD PUSH2 0x100 DUP2 ADD DUP6 MSTORE DUP2 SLOAD DUP2 MSTORE PUSH1 0x1 DUP3 ADD SLOAD SWAP1 SWAP6 AND SWAP2 DUP6 ADD SWAP2 SWAP1 SWAP2 MSTORE SWAP1 DUP2 ADD DUP1 SLOAD SWAP2 SWAP3 DUP5 ADD SWAP2 PUSH2 0x1407 SWAP1 PUSH2 0x41B3 JUMP JUMPDEST DUP1 PUSH1 0x1F ADD PUSH1 0x20 DUP1 SWAP2 DIV MUL PUSH1 0x20 ADD PUSH1 0x40 MLOAD SWAP1 DUP2 ADD PUSH1 0x40 MSTORE DUP1 SWAP3 SWAP2 SWAP1 DUP2 DUP2 MSTORE PUSH1 0x20 ADD DUP3 DUP1 SLOAD PUSH2 0x1433 SWAP1 PUSH2 0x41B3 JUMP JUMPDEST DUP1 ISZERO PUSH2 0x1480 JUMPI DUP1 PUSH1 0x1F LT PUSH2 0x1455 JUMPI PUSH2 0x100 DUP1 DUP4 SLOAD DIV MUL DUP4 MSTORE SWAP2 PUSH1 0x20 ADD SWAP2 PUSH2 0x1480 JUMP JUMPDEST DUP3 ADD SWAP2 SWAP1 PUSH1 0x0 MSTORE PUSH1 0x20 PUSH1 0x0 KECCAK256 SWAP1 JUMPDEST DUP2 SLOAD DUP2 MSTORE SWAP1 PUSH1 0x1 ADD SWAP1 PUSH1 0x20 ADD DUP1 DUP4 GT PUSH2 0x1463 JUMPI DUP3 SWAP1 SUB PUSH1 0x1F AND DUP3 ADD SWAP2 JUMPDEST POP POP POP POP POP DUP2 MSTORE PUSH1 0x20 ADD PUSH1 0x3 DUP3 ADD DUP1 SLOAD PUSH2 0x1499 SWAP1 PUSH2 0x41B3 JUMP JUMPDEST DUP1 PUSH1 0x1F ADD PUSH1 0x20 DUP1 SWAP2 DIV MUL PUSH1 0x20 ADD PUSH1 0x40 MLOAD SWAP1 DUP2 ADD PUSH1 0x40 MSTORE DUP1 SWAP3 SWAP2 SWAP1 DUP2 DUP2 MSTORE PUSH1 0x20 ADD DUP3 DUP1 SLOAD PUSH2 0x14C5 SWAP1 PUSH2 0x41B3 JUMP JUMPDEST DUP1 ISZERO PUSH2 0x1512 JUMPI DUP1 PUSH1 0x1F LT PUSH2 0x14E7 JUMPI PUSH2 0x100 DUP1 DUP4 SLOAD DIV MUL DUP4 MSTORE SWAP2 PUSH1 0x20 ADD SWAP2 PUSH2 0x1512 JUMP JUMPDEST DUP3 ADD SWAP2 SWAP1 PUSH1 0x0 MSTORE PUSH1 0x20 PUSH1 0x0 KECCAK256 SWAP1 JUMPDEST DUP2 SLOAD DUP2 MSTORE SWAP1 PUSH1 0x1 ADD SWAP1 PUSH1 0x20 ADD DUP1 DUP4 GT PUSH2 0x14F5 JUMPI DUP3 SWAP1 SUB PUSH1 0x1F AND DUP3 ADD SWAP2 JUMPDEST POP POP POP SWAP2 DUP4 MSTORE POP POP PUSH1 0x4 DUP3 ADD SLOAD PUSH1 0x20 DUP3 ADD MSTORE PUSH1 0x5 DUP3 ADD SLOAD PUSH1 0x40 DUP3 ADD MSTORE PUSH1 0x6 SWAP1 SWAP2 ADD SLOAD PUSH1 0xFF DUP1 DUP3 AND ISZERO ISZERO PUSH1 0x60 DUP5 ADD MSTORE PUSH2 0x100 SWAP1 SWAP2 DIV AND ISZERO ISZERO PUSH1 0x80 SWAP1 SWAP2 ADD MSTORE SWAP3 SWAP2 POP POP JUMP JUMPDEST PUSH1 0x1 PUSH1 0x1 PUSH1 0xA0 SHL SUB DUP2 AND PUSH1 0x0 SWAP1 DUP2 MSTORE PUSH1 0x2 PUSH1 0x20 MSTORE PUSH1 0x40 DUP2 KECCAK256 PUSH1 0x5 ADD SLOAD DUP2 DUP2 PUSH1 0x1 PUSH1 0x1 PUSH1 0x40 SHL SUB DUP2 GT ISZERO PUSH2 0x158A JUMPI PUSH2 0x158A PUSH2 0x39F6 JUMP JUMPDEST PUSH1 0x40 MLOAD SWAP1 DUP1 DUP3 MSTORE DUP1 PUSH1 0x20 MUL PUSH1 0x20 ADD DUP3 ADD PUSH1 0x40 MSTORE DUP1 ISZERO PUSH2 0x15C3 JUMPI DUP2 PUSH1 0x20 ADD JUMPDEST PUSH2 0x15B0 PUSH2 0x3771 JUMP JUMPDEST DUP2 MSTORE PUSH1 0x20 ADD SWAP1 PUSH1 0x1 SWAP1 SUB SWAP1 DUP2 PUSH2 0x15A8 JUMPI SWAP1 POP JUMPDEST POP SWAP1 POP PUSH1 0x0 DUP1 JUMPDEST DUP3 MLOAD DUP2 LT ISZERO PUSH2 0x1617 JUMPI PUSH1 0x0 DUP4 DUP3 DUP2 MLOAD DUP2 LT PUSH2 0x15E7 JUMPI PUSH2 0x15E7 PUSH2 0x41ED JUMP JUMPDEST PUSH1 0x20 MUL PUSH1 0x20 ADD ADD MLOAD SWAP1 POP DUP1 PUSH1 0x60 ADD MLOAD DUP4 PUSH2 0x1601 SWAP2 SWAP1 PUSH2 0x41A0 JUMP JUMPDEST SWAP3 POP POP DUP1 DUP1 PUSH2 0x160F SWAP1 PUSH2 0x4203 JUMP JUMPDEST SWAP2 POP POP PUSH2 0x15CA JUMP JUMPDEST POP SWAP5 SWAP4 POP POP POP POP JUMP JUMPDEST PUSH1 0x1 PUSH1 0x1 PUSH1 0xA0 SHL SUB DUP2 AND PUSH1 0x0 SWAP1 DUP2 MSTORE PUSH1 0x2 PUSH1 0x20 MSTORE PUSH1 0x40 DUP2 KECCAK256 PUSH1 0x5 ADD SLOAD PUSH1 0x60 SWAP2 DUP2 PUSH1 0x1 PUSH1 0x1 PUSH1 0x40 SHL SUB DUP2 GT ISZERO PUSH2 0x1657 JUMPI PUSH2 0x1657 PUSH2 0x39F6 JUMP JUMPDEST PUSH1 0x40 MLOAD SWAP1 DUP1 DUP3 MSTORE DUP1 PUSH1 0x20 MUL PUSH1 0x20 ADD DUP3 ADD PUSH1 0x40 MSTORE DUP1 ISZERO PUSH2 0x1690 JUMPI DUP2 PUSH1 0x20 ADD JUMPDEST PUSH2 0x167D PUSH2 0x3771 JUMP JUMPDEST DUP2 MSTORE PUSH1 0x20 ADD SWAP1 PUSH1 0x1 SWAP1 SUB SWAP1 DUP2 PUSH2 0x1675 JUMPI SWAP1 POP JUMPDEST POP SWAP1 POP PUSH1 0x0 DUP1 JUMPDEST PUSH1 0xD SLOAD DUP2 LT ISZERO PUSH2 0xB14 JUMPI PUSH1 0x0 PUSH1 0xD DUP3 DUP2 SLOAD DUP2 LT PUSH2 0x16B6 JUMPI PUSH2 0x16B6 PUSH2 0x41ED JUMP JUMPDEST PUSH1 0x0 SWAP2 DUP3 MSTORE PUSH1 0x20 SWAP2 DUP3 SWAP1 KECCAK256 PUSH1 0x40 DUP1 MLOAD PUSH1 0xA0 DUP2 ADD DUP3 MSTORE PUSH1 0x5 SWAP1 SWAP4 MUL SWAP1 SWAP2 ADD DUP1 SLOAD DUP4 MSTORE PUSH1 0x1 DUP2 ADD SLOAD SWAP4 DUP4 ADD SWAP4 SWAP1 SWAP4 MSTORE PUSH1 0x2 DUP4 ADD SLOAD PUSH1 0x1 PUSH1 0x1 PUSH1 0xA0 SHL SUB SWAP1 DUP2 AND SWAP2 DUP4 ADD DUP3 SWAP1 MSTORE PUSH1 0x3 DUP5 ADD SLOAD PUSH1 0x60 DUP5 ADD MSTORE PUSH1 0x4 SWAP1 SWAP4 ADD SLOAD PUSH1 0xFF AND ISZERO ISZERO PUSH1 0x80 DUP4 ADD MSTORE SWAP1 SWAP3 POP SWAP1 DUP9 AND SWAP1 SUB PUSH2 0x1758 JUMPI DUP1 DUP5 DUP5 DUP2 MLOAD DUP2 LT PUSH2 0x1732 JUMPI PUSH2 0x1732 PUSH2 0x41ED JUMP JUMPDEST PUSH1 0x20 MUL PUSH1 0x20 ADD ADD DUP2 SWAP1 MSTORE POP DUP3 DUP1 PUSH2 0x1748 SWAP1 PUSH2 0x4203 JUMP JUMPDEST SWAP4 POP POP DUP5 DUP4 SUB PUSH2 0x1758 JUMPI POP PUSH2 0xB14 JUMP JUMPDEST POP DUP1 PUSH2 0x1763 DUP2 PUSH2 0x4203 JUMP JUMPDEST SWAP2 POP POP PUSH2 0x1697 JUMP JUMPDEST PUSH1 0x60 PUSH1 0x0 PUSH2 0x1778 DUP4 PUSH2 0x1620 JUMP JUMPDEST SWAP1 POP PUSH1 0x0 DUP2 MLOAD PUSH1 0x1 PUSH1 0x1 PUSH1 0x40 SHL SUB DUP2 GT ISZERO PUSH2 0x1795 JUMPI PUSH2 0x1795 PUSH2 0x39F6 JUMP JUMPDEST PUSH1 0x40 MLOAD SWAP1 DUP1 DUP3 MSTORE DUP1 PUSH1 0x20 MUL PUSH1 0x20 ADD DUP3 ADD PUSH1 0x40 MSTORE DUP1 ISZERO PUSH2 0x17CE JUMPI DUP2 PUSH1 0x20 ADD JUMPDEST PUSH2 0x17BB PUSH2 0x3694 JUMP JUMPDEST DUP2 MSTORE PUSH1 0x20 ADD SWAP1 PUSH1 0x1 SWAP1 SUB SWAP1 DUP2 PUSH2 0x17B3 JUMPI SWAP1 POP JUMPDEST POP SWAP1 POP PUSH1 0x0 DUP1 JUMPDEST DUP4 MLOAD DUP2 LT ISZERO PUSH2 0xB14 JUMPI PUSH1 0x0 DUP5 DUP3 DUP2 MLOAD DUP2 LT PUSH2 0x17F2 JUMPI PUSH2 0x17F2 PUSH2 0x41ED JUMP JUMPDEST PUSH1 0x20 MUL PUSH1 0x20 ADD ADD MLOAD SWAP1 POP PUSH1 0x3 DUP2 PUSH1 0x20 ADD MLOAD DUP2 SLOAD DUP2 LT PUSH2 0x1813 JUMPI PUSH2 0x1813 PUSH2 0x41ED JUMP JUMPDEST SWAP1 PUSH1 0x0 MSTORE PUSH1 0x20 PUSH1 0x0 KECCAK256 SWAP1 PUSH1 0x7 MUL ADD PUSH1 0x40 MLOAD DUP1 PUSH1 0xE0 ADD PUSH1 0x40 MSTORE SWAP1 DUP2 PUSH1 0x0 DUP3 ADD SLOAD DUP2 MSTORE PUSH1 0x20 ADD PUSH1 0x1 DUP3 ADD PUSH1 0x0 SWAP1 SLOAD SWAP1 PUSH2 0x100 EXP SWAP1 DIV PUSH1 0x1 PUSH1 0x1 PUSH1 0xA0 SHL SUB AND PUSH1 0x1 PUSH1 0x1 PUSH1 0xA0 SHL SUB AND PUSH1 0x1 PUSH1 0x1 PUSH1 0xA0 SHL SUB AND DUP2 MSTORE PUSH1 0x20 ADD PUSH1 0x2 DUP3 ADD DUP1 SLOAD PUSH2 0x1875 SWAP1 PUSH2 0x41B3 JUMP JUMPDEST DUP1 PUSH1 0x1F ADD PUSH1 0x20 DUP1 SWAP2 DIV MUL PUSH1 0x20 ADD PUSH1 0x40 MLOAD SWAP1 DUP2 ADD PUSH1 0x40 MSTORE DUP1 SWAP3 SWAP2 SWAP1 DUP2 DUP2 MSTORE PUSH1 0x20 ADD DUP3 DUP1 SLOAD PUSH2 0x18A1 SWAP1 PUSH2 0x41B3 JUMP JUMPDEST DUP1 ISZERO PUSH2 0x18EE JUMPI DUP1 PUSH1 0x1F LT PUSH2 0x18C3 JUMPI PUSH2 0x100 DUP1 DUP4 SLOAD DIV MUL DUP4 MSTORE SWAP2 PUSH1 0x20 ADD SWAP2 PUSH2 0x18EE JUMP JUMPDEST DUP3 ADD SWAP2 SWAP1 PUSH1 0x0 MSTORE PUSH1 0x20 PUSH1 0x0 KECCAK256 SWAP1 JUMPDEST DUP2 SLOAD DUP2 MSTORE SWAP1 PUSH1 0x1 ADD SWAP1 PUSH1 0x20 ADD DUP1 DUP4 GT PUSH2 0x18D1 JUMPI DUP3 SWAP1 SUB PUSH1 0x1F AND DUP3 ADD SWAP2 JUMPDEST POP POP POP SWAP2 DUP4 MSTORE POP POP PUSH1 0x3 DUP3 ADD SLOAD PUSH1 0x20 DUP3 ADD MSTORE PUSH1 0x4 DUP3 ADD SLOAD PUSH1 0x40 DUP3 ADD MSTORE PUSH1 0x5 DUP3 ADD SLOAD PUSH1 0x60 DUP3 ADD MSTORE PUSH1 0x6 SWAP1 SWAP2 ADD SLOAD PUSH1 0xFF AND ISZERO ISZERO PUSH1 0x80 SWAP1 SWAP2 ADD MSTORE DUP5 MLOAD DUP6 SWAP1 DUP6 SWAP1 DUP2 LT PUSH2 0x1939 JUMPI PUSH2 0x1939 PUSH2 0x41ED JUMP JUMPDEST PUSH1 0x20 MUL PUSH1 0x20 ADD ADD DUP2 SWAP1 MSTORE POP DUP3 DUP1 PUSH2 0x194F SWAP1 PUSH2 0x4203 JUMP JUMPDEST SWAP4 POP POP POP DUP1 DUP1 PUSH2 0x195E SWAP1 PUSH2 0x4203 JUMP JUMPDEST SWAP2 POP POP PUSH2 0x17D5 JUMP JUMPDEST PUSH1 0xF SLOAD PUSH2 0x1971 PUSH2 0x371F JUMP JUMPDEST DUP2 DUP2 MSTORE PUSH1 0x1 PUSH1 0x1 PUSH1 0xA0 SHL SUB DUP7 AND PUSH1 0x20 DUP3 ADD MSTORE PUSH1 0x40 DUP2 ADD DUP6 SWAP1 MSTORE PUSH1 0x60 DUP2 ADD DUP5 SWAP1 MSTORE PUSH1 0x80 DUP2 ADD DUP4 SWAP1 MSTORE PUSH2 0x19A1 DUP7 PUSH2 0x2A34 JUMP JUMPDEST ISZERO PUSH2 0x1A6D JUMPI PUSH1 0x0 PUSH2 0x19B1 DUP8 PUSH2 0x7F5 JUMP JUMPDEST PUSH1 0x1 PUSH1 0x80 DUP3 ADD DUP2 SWAP1 MSTORE PUSH1 0xC0 DUP5 ADD DUP2 SWAP1 MSTORE PUSH1 0x1 PUSH1 0x1 PUSH1 0xA0 SHL SUB DUP10 DUP2 AND PUSH1 0x0 SWAP1 DUP2 MSTORE PUSH1 0x20 DUP4 DUP2 MSTORE PUSH1 0x40 SWAP2 DUP3 SWAP1 KECCAK256 DUP6 MLOAD DUP2 SSTORE SWAP1 DUP6 ADD MLOAD SWAP4 DUP2 ADD DUP1 SLOAD PUSH1 0x1 PUSH1 0x1 PUSH1 0xA0 SHL SUB NOT AND SWAP5 SWAP1 SWAP4 AND SWAP4 SWAP1 SWAP4 OR SWAP1 SWAP2 SSTORE DUP3 ADD MLOAD SWAP2 SWAP3 POP DUP3 SWAP2 PUSH1 0x2 DUP3 ADD SWAP1 PUSH2 0x1A15 SWAP1 DUP3 PUSH2 0x426B JUMP JUMPDEST POP PUSH1 0x60 DUP3 ADD MLOAD PUSH1 0x3 DUP3 ADD SSTORE PUSH1 0x80 DUP3 ADD MLOAD PUSH1 0x4 SWAP1 SWAP2 ADD DUP1 SLOAD PUSH1 0xA0 DUP5 ADD MLOAD PUSH1 0xC0 SWAP1 SWAP5 ADD MLOAD ISZERO ISZERO PUSH3 0x10000 MUL PUSH3 0xFF0000 NOT SWAP5 ISZERO ISZERO PUSH2 0x100 MUL PUSH2 0xFF00 NOT SWAP5 ISZERO ISZERO SWAP5 SWAP1 SWAP5 AND PUSH2 0xFFFF NOT SWAP1 SWAP3 AND SWAP2 SWAP1 SWAP2 OR SWAP3 SWAP1 SWAP3 OR SWAP3 SWAP1 SWAP3 AND OR SWAP1 SSTORE POP JUMPDEST PUSH1 0x1 PUSH1 0x1 PUSH1 0xA0 SHL SUB DUP7 DUP2 AND PUSH1 0x0 SWAP1 DUP2 MSTORE PUSH1 0x2 PUSH1 0x20 DUP2 DUP2 MSTORE PUSH1 0x40 SWAP3 DUP4 SWAP1 KECCAK256 DUP6 MLOAD DUP2 SSTORE SWAP1 DUP6 ADD MLOAD PUSH1 0x1 DUP3 ADD DUP1 SLOAD PUSH1 0x1 PUSH1 0x1 PUSH1 0xA0 SHL SUB NOT AND SWAP2 SWAP1 SWAP6 AND OR SWAP1 SWAP4 SSTORE SWAP1 DUP4 ADD MLOAD DUP4 SWAP3 SWAP2 DUP3 ADD SWAP1 PUSH2 0x1ABE SWAP1 DUP3 PUSH2 0x426B JUMP JUMPDEST POP PUSH1 0x60 DUP3 ADD MLOAD PUSH1 0x3 DUP3 ADD SWAP1 PUSH2 0x1AD3 SWAP1 DUP3 PUSH2 0x426B JUMP JUMPDEST POP PUSH1 0x80 DUP3 ADD MLOAD PUSH1 0x4 DUP3 ADD SSTORE PUSH1 0xA0 DUP3 ADD MLOAD PUSH1 0x5 DUP3 ADD SSTORE PUSH1 0xC0 DUP3 ADD MLOAD PUSH1 0x6 SWAP1 SWAP2 ADD DUP1 SLOAD PUSH1 0xE0 SWAP1 SWAP4 ADD MLOAD ISZERO ISZERO PUSH2 0x100 MUL PUSH2 0xFF00 NOT SWAP3 ISZERO ISZERO SWAP3 SWAP1 SWAP3 AND PUSH2 0xFFFF NOT SWAP1 SWAP4 AND SWAP3 SWAP1 SWAP3 OR OR SWAP1 SSTORE PUSH1 0xF DUP1 SLOAD SWAP1 PUSH1 0x0 PUSH2 0x1B29 DUP4 PUSH2 0x4203 JUMP JUMPDEST SWAP2 SWAP1 POP SSTORE POP POP POP POP POP POP POP JUMP JUMPDEST PUSH1 0x0 DUP1 PUSH1 0x3 DUP5 DUP2 SLOAD DUP2 LT PUSH2 0x1B4C JUMPI PUSH2 0x1B4C PUSH2 0x41ED JUMP JUMPDEST SWAP1 PUSH1 0x0 MSTORE PUSH1 0x20 PUSH1 0x0 KECCAK256 SWAP1 PUSH1 0x7 MUL ADD PUSH1 0x40 MLOAD DUP1 PUSH1 0xE0 ADD PUSH1 0x40 MSTORE SWAP1 DUP2 PUSH1 0x0 DUP3 ADD SLOAD DUP2 MSTORE PUSH1 0x20 ADD PUSH1 0x1 DUP3 ADD PUSH1 0x0 SWAP1 SLOAD SWAP1 PUSH2 0x100 EXP SWAP1 DIV PUSH1 0x1 PUSH1 0x1 PUSH1 0xA0 SHL SUB AND PUSH1 0x1 PUSH1 0x1 PUSH1 0xA0 SHL SUB AND PUSH1 0x1 PUSH1 0x1 PUSH1 0xA0 SHL SUB AND DUP2 MSTORE PUSH1 0x20 ADD PUSH1 0x2 DUP3 ADD DUP1 SLOAD PUSH2 0x1BAE SWAP1 PUSH2 0x41B3 JUMP JUMPDEST DUP1 PUSH1 0x1F ADD PUSH1 0x20 DUP1 SWAP2 DIV MUL PUSH1 0x20 ADD PUSH1 0x40 MLOAD SWAP1 DUP2 ADD PUSH1 0x40 MSTORE DUP1 SWAP3 SWAP2 SWAP1 DUP2 DUP2 MSTORE PUSH1 0x20 ADD DUP3 DUP1 SLOAD PUSH2 0x1BDA SWAP1 PUSH2 0x41B3 JUMP JUMPDEST DUP1 ISZERO PUSH2 0x1C27 JUMPI DUP1 PUSH1 0x1F LT PUSH2 0x1BFC JUMPI PUSH2 0x100 DUP1 DUP4 SLOAD DIV MUL DUP4 MSTORE SWAP2 PUSH1 0x20 ADD SWAP2 PUSH2 0x1C27 JUMP JUMPDEST DUP3 ADD SWAP2 SWAP1 PUSH1 0x0 MSTORE PUSH1 0x20 PUSH1 0x0 KECCAK256 SWAP1 JUMPDEST DUP2 SLOAD DUP2 MSTORE SWAP1 PUSH1 0x1 ADD SWAP1 PUSH1 0x20 ADD DUP1 DUP4 GT PUSH2 0x1C0A JUMPI DUP3 SWAP1 SUB PUSH1 0x1F AND DUP3 ADD SWAP2 JUMPDEST POP POP POP SWAP2 DUP4 MSTORE POP POP PUSH1 0x3 DUP3 ADD SLOAD PUSH1 0x20 DUP3 ADD MSTORE PUSH1 0x4 DUP3 ADD SLOAD PUSH1 0x40 DUP3 ADD MSTORE PUSH1 0x5 DUP1 DUP4 ADD SLOAD PUSH1 0x60 DUP4 ADD MSTORE PUSH1 0x6 SWAP1 SWAP3 ADD SLOAD PUSH1 0xFF AND ISZERO ISZERO PUSH1 0x80 SWAP1 SWAP2 ADD MSTORE PUSH1 0xA0 DUP3 ADD MLOAD SWAP2 SWAP3 POP PUSH1 0x0 SWAP1 DUP6 SWAP1 PUSH1 0xA SWAP1 PUSH2 0x1C7A SWAP1 DUP6 SWAP1 PUSH2 0x4189 JUMP JUMPDEST PUSH2 0x1C84 SWAP2 SWAP1 PUSH2 0x432A JUMP JUMPDEST PUSH2 0x1C8E SWAP2 SWAP1 PUSH2 0x432A JUMP JUMPDEST SWAP7 SWAP6 POP POP POP POP POP POP JUMP JUMPDEST PUSH1 0x2 PUSH1 0x20 DUP2 SWAP1 MSTORE PUSH1 0x0 SWAP2 DUP3 MSTORE PUSH1 0x40 SWAP1 SWAP2 KECCAK256 DUP1 SLOAD PUSH1 0x1 DUP3 ADD SLOAD SWAP3 DUP3 ADD DUP1 SLOAD SWAP2 SWAP4 PUSH1 0x1 PUSH1 0x1 PUSH1 0xA0 SHL SUB AND SWAP3 SWAP2 PUSH2 0xB71 SWAP1 PUSH2 0x41B3 JUMP JUMPDEST PUSH1 0x10 SLOAD PUSH1 0x0 SWAP1 PUSH2 0x1CD9 PUSH2 0x3694 JUMP JUMPDEST DUP2 DUP2 MSTORE PUSH1 0x1 PUSH1 0x1 PUSH1 0xA0 SHL SUB DUP10 AND PUSH1 0x20 DUP3 ADD MSTORE PUSH1 0x40 DUP2 ADD DUP9 SWAP1 MSTORE PUSH1 0x60 DUP2 ADD DUP8 SWAP1 MSTORE PUSH1 0x80 DUP2 ADD DUP7 SWAP1 MSTORE PUSH1 0x16 SLOAD PUSH2 0x1D0D SWAP1 DUP6 PUSH2 0x4189 JUMP JUMPDEST PUSH1 0xA0 DUP3 ADD MSTORE PUSH1 0x3 DUP1 SLOAD PUSH1 0x1 DUP2 ADD DUP3 SSTORE PUSH1 0x0 SWAP2 SWAP1 SWAP2 MSTORE DUP2 MLOAD PUSH32 0xC2575A0E9E593C00F959F8C92F12DB2869C3395A3B0502D05E2516446F71F85B PUSH1 0x7 SWAP1 SWAP3 MUL SWAP2 DUP3 ADD SWAP1 DUP2 SSTORE PUSH1 0x20 DUP4 ADD MLOAD PUSH32 0xC2575A0E9E593C00F959F8C92F12DB2869C3395A3B0502D05E2516446F71F85C DUP4 ADD DUP1 SLOAD PUSH1 0x1 PUSH1 0x1 PUSH1 0xA0 SHL SUB NOT AND PUSH1 0x1 PUSH1 0x1 PUSH1 0xA0 SHL SUB SWAP1 SWAP3 AND SWAP2 SWAP1 SWAP2 OR SWAP1 SSTORE PUSH1 0x40 DUP4 ADD MLOAD DUP4 SWAP3 PUSH32 0xC2575A0E9E593C00F959F8C92F12DB2869C3395A3B0502D05E2516446F71F85D ADD SWAP1 PUSH2 0x1DC9 SWAP1 DUP3 PUSH2 0x426B JUMP JUMPDEST POP PUSH1 0x60 DUP3 ADD MLOAD PUSH1 0x3 DUP3 ADD SSTORE PUSH1 0x80 DUP3 ADD MLOAD PUSH1 0x4 DUP3 ADD SSTORE PUSH1 0xA0 DUP3 ADD MLOAD PUSH1 0x5 DUP3 ADD SSTORE PUSH1 0xC0 SWAP1 SWAP2 ADD MLOAD PUSH1 0x6 SWAP1 SWAP2 ADD DUP1 SLOAD PUSH1 0xFF NOT AND SWAP2 ISZERO ISZERO SWAP2 SWAP1 SWAP2 OR SWAP1 SSTORE DUP1 MLOAD PUSH1 0x1 PUSH1 0x1 PUSH1 0xA0 SHL SUB DUP11 AND PUSH1 0x0 SWAP1 DUP2 MSTORE PUSH1 0xA PUSH1 0x20 SWAP1 DUP2 MSTORE PUSH1 0x40 DUP1 DUP4 KECCAK256 SWAP4 SWAP1 SWAP4 SSTORE PUSH1 0x8 SWAP1 MSTORE SWAP1 DUP2 KECCAK256 SLOAD SWAP1 PUSH2 0x1E37 DUP3 PUSH1 0x1 PUSH2 0x41A0 JUMP JUMPDEST PUSH1 0x1 PUSH1 0x1 PUSH1 0xA0 SHL SUB DUP13 AND PUSH1 0x0 SWAP1 DUP2 MSTORE PUSH1 0x8 PUSH1 0x20 MSTORE PUSH1 0x40 DUP2 KECCAK256 DUP3 SWAP1 SSTORE SWAP1 SWAP2 POP JUMPDEST DUP10 DUP2 LT ISZERO PUSH2 0x1F3C JUMPI PUSH1 0x11 SLOAD PUSH1 0x40 DUP1 MLOAD PUSH1 0x80 DUP2 ADD DUP3 MSTORE PUSH1 0x0 PUSH1 0x20 DUP3 ADD DUP2 DUP2 MSTORE PUSH1 0x60 SWAP4 DUP4 ADD DUP5 SWAP1 MSTORE SWAP3 DUP3 ADD MSTORE DUP3 DUP2 MSTORE DUP7 MLOAD SWAP1 SWAP2 MSTORE DUP10 MLOAD DUP11 SWAP1 DUP5 SWAP1 DUP2 LT PUSH2 0x1E9C JUMPI PUSH2 0x1E9C PUSH2 0x41ED JUMP JUMPDEST PUSH1 0x20 SWAP1 DUP2 MUL SWAP2 SWAP1 SWAP2 ADD DUP2 ADD MLOAD PUSH1 0x40 DUP1 DUP5 ADD SWAP2 DUP3 MSTORE DUP9 MLOAD PUSH1 0x0 SWAP1 DUP2 MSTORE PUSH1 0x4 DUP1 DUP6 MSTORE SWAP2 DUP2 KECCAK256 DUP1 SLOAD PUSH1 0x1 DUP2 DUP2 ADD DUP4 SSTORE SWAP2 DUP4 MSTORE SWAP2 DUP6 SWAP1 KECCAK256 DUP7 MLOAD SWAP3 SWAP1 SWAP4 MUL SWAP1 SWAP3 ADD SWAP1 DUP2 SSTORE SWAP3 DUP5 ADD MLOAD SWAP1 DUP4 ADD SSTORE MLOAD DUP3 SWAP2 SWAP1 PUSH1 0x2 DUP3 ADD SWAP1 PUSH2 0x1EF6 SWAP1 DUP3 PUSH2 0x426B JUMP JUMPDEST POP PUSH1 0x60 SWAP2 SWAP1 SWAP2 ADD MLOAD PUSH1 0x3 SWAP1 SWAP2 ADD DUP1 SLOAD PUSH1 0xFF NOT AND SWAP2 ISZERO ISZERO SWAP2 SWAP1 SWAP2 OR SWAP1 SSTORE PUSH1 0x11 DUP1 SLOAD SWAP1 PUSH1 0x0 PUSH2 0x1F22 DUP4 PUSH2 0x4203 JUMP JUMPDEST SWAP2 SWAP1 POP SSTORE POP POP POP DUP1 DUP1 PUSH2 0x1F34 SWAP1 PUSH2 0x4203 JUMP JUMPDEST SWAP2 POP POP PUSH2 0x1E56 JUMP JUMPDEST POP PUSH1 0x10 DUP1 SLOAD SWAP1 PUSH1 0x0 PUSH2 0x1F4D DUP4 PUSH2 0x4203 JUMP JUMPDEST SWAP1 SWAP2 SSTORE POP POP SWAP2 MLOAD SWAP11 SWAP10 POP POP POP POP POP POP POP POP POP POP JUMP JUMPDEST PUSH1 0x5 PUSH1 0x20 MSTORE DUP2 PUSH1 0x0 MSTORE PUSH1 0x40 PUSH1 0x0 KECCAK256 DUP2 DUP2 SLOAD DUP2 LT PUSH2 0x1F7E JUMPI PUSH1 0x0 DUP1 REVERT JUMPDEST PUSH1 0x0 SWAP2 DUP3 MSTORE PUSH1 0x20 SWAP1 SWAP2 KECCAK256 PUSH1 0x4 SWAP1 SWAP2 MUL ADD DUP1 SLOAD PUSH1 0x1 DUP3 ADD SLOAD PUSH1 0x2 DUP4 ADD SLOAD PUSH1 0x3 SWAP1 SWAP4 ADD SLOAD SWAP2 SWAP5 POP SWAP3 POP PUSH1 0x1 PUSH1 0x1 PUSH1 0xA0 SHL SUB DUP2 AND SWAP1 PUSH1 0xFF PUSH1 0x1 PUSH1 0xA0 SHL DUP3 DIV DUP2 AND SWAP2 PUSH1 0x1 PUSH1 0xA8 SHL SWAP1 DIV AND DUP7 JUMP JUMPDEST PUSH1 0x0 PUSH1 0x3 DUP4 DUP2 SLOAD DUP2 LT PUSH2 0x1FDC JUMPI PUSH2 0x1FDC PUSH2 0x41ED JUMP JUMPDEST SWAP1 PUSH1 0x0 MSTORE PUSH1 0x20 PUSH1 0x0 KECCAK256 SWAP1 PUSH1 0x7 MUL ADD PUSH1 0x40 MLOAD DUP1 PUSH1 0xE0 ADD PUSH1 0x40 MSTORE SWAP1 DUP2 PUSH1 0x0 DUP3 ADD SLOAD DUP2 MSTORE PUSH1 0x20 ADD PUSH1 0x1 DUP3 ADD PUSH1 0x0 SWAP1 SLOAD SWAP1 PUSH2 0x100 EXP SWAP1 DIV PUSH1 0x1 PUSH1 0x1 PUSH1 0xA0 SHL SUB AND PUSH1 0x1 PUSH1 0x1 PUSH1 0xA0 SHL SUB AND PUSH1 0x1 PUSH1 0x1 PUSH1 0xA0 SHL SUB AND DUP2 MSTORE PUSH1 0x20 ADD PUSH1 0x2 DUP3 ADD DUP1 SLOAD PUSH2 0x203E SWAP1 PUSH2 0x41B3 JUMP JUMPDEST DUP1 PUSH1 0x1F ADD PUSH1 0x20 DUP1 SWAP2 DIV MUL PUSH1 0x20 ADD PUSH1 0x40 MLOAD SWAP1 DUP2 ADD PUSH1 0x40 MSTORE DUP1 SWAP3 SWAP2 SWAP1 DUP2 DUP2 MSTORE PUSH1 0x20 ADD DUP3 DUP1 SLOAD PUSH2 0x206A SWAP1 PUSH2 0x41B3 JUMP JUMPDEST DUP1 ISZERO PUSH2 0x20B7 JUMPI DUP1 PUSH1 0x1F LT PUSH2 0x208C JUMPI PUSH2 0x100 DUP1 DUP4 SLOAD DIV MUL DUP4 MSTORE SWAP2 PUSH1 0x20 ADD SWAP2 PUSH2 0x20B7 JUMP JUMPDEST DUP3 ADD SWAP2 SWAP1 PUSH1 0x0 MSTORE PUSH1 0x20 PUSH1 0x0 KECCAK256 SWAP1 JUMPDEST DUP2 SLOAD DUP2 MSTORE SWAP1 PUSH1 0x1 ADD SWAP1 PUSH1 0x20 ADD DUP1 DUP4 GT PUSH2 0x209A JUMPI DUP3 SWAP1 SUB PUSH1 0x1F AND DUP3 ADD SWAP2 JUMPDEST POP POP POP SWAP2 DUP4 MSTORE POP POP PUSH1 0x3 DUP3 ADD SLOAD PUSH1 0x20 DUP3 ADD MSTORE PUSH1 0x4 DUP3 ADD SLOAD PUSH1 0x40 DUP3 ADD MSTORE PUSH1 0x5 DUP3 ADD SLOAD PUSH1 0x60 DUP3 ADD MSTORE PUSH1 0x6 SWAP1 SWAP2 ADD SLOAD PUSH1 0xFF AND ISZERO ISZERO PUSH1 0x80 SWAP1 SWAP2 ADD MSTORE SWAP1 POP PUSH1 0x0 PUSH2 0x20FB DUP5 PUSH2 0xF5A JUMP JUMPDEST PUSH1 0x15 SLOAD PUSH1 0x40 MLOAD PUSH4 0xA9059CBB PUSH1 0xE0 SHL DUP2 MSTORE PUSH1 0x1 PUSH1 0x1 PUSH1 0xA0 SHL SUB DUP7 DUP2 AND PUSH1 0x4 DUP4 ADD MSTORE PUSH1 0x24 DUP3 ADD DUP5 SWAP1 MSTORE SWAP3 SWAP4 POP SWAP2 AND SWAP1 PUSH4 0xA9059CBB SWAP1 PUSH1 0x44 ADD PUSH1 0x20 PUSH1 0x40 MLOAD DUP1 DUP4 SUB DUP2 PUSH1 0x0 DUP8 GAS CALL ISZERO DUP1 ISZERO PUSH2 0x2150 JUMPI RETURNDATASIZE PUSH1 0x0 DUP1 RETURNDATACOPY RETURNDATASIZE PUSH1 0x0 REVERT JUMPDEST POP POP POP POP PUSH1 0x40 MLOAD RETURNDATASIZE PUSH1 0x1F NOT PUSH1 0x1F DUP3 ADD AND DUP3 ADD DUP1 PUSH1 0x40 MSTORE POP DUP2 ADD SWAP1 PUSH2 0x2174 SWAP2 SWAP1 PUSH2 0x434C JUMP JUMPDEST POP PUSH1 0x0 PUSH2 0x2185 DUP6 DUP5 PUSH1 0x80 ADD MLOAD PUSH2 0x1B36 JUMP JUMPDEST PUSH1 0x15 SLOAD PUSH1 0x0 SLOAD PUSH1 0x40 MLOAD PUSH4 0xA9059CBB PUSH1 0xE0 SHL DUP2 MSTORE PUSH1 0x1 PUSH1 0x1 PUSH1 0xA0 SHL SUB SWAP2 DUP3 AND PUSH1 0x4 DUP3 ADD MSTORE PUSH1 0x24 DUP2 ADD DUP5 SWAP1 MSTORE SWAP3 SWAP4 POP AND SWAP1 PUSH4 0xA9059CBB SWAP1 PUSH1 0x44 ADD PUSH1 0x20 PUSH1 0x40 MLOAD DUP1 DUP4 SUB DUP2 PUSH1 0x0 DUP8 GAS CALL ISZERO DUP1 ISZERO PUSH2 0x21DC JUMPI RETURNDATASIZE PUSH1 0x0 DUP1 RETURNDATACOPY RETURNDATASIZE PUSH1 0x0 REVERT JUMPDEST POP POP POP POP PUSH1 0x40 MLOAD RETURNDATASIZE PUSH1 0x1F NOT PUSH1 0x1F DUP3 ADD AND DUP3 ADD DUP1 PUSH1 0x40 MSTORE POP DUP2 ADD SWAP1 PUSH2 0x2200 SWAP2 SWAP1 PUSH2 0x434C JUMP JUMPDEST POP PUSH2 0x2209 PUSH2 0x3771 JUMP JUMPDEST PUSH1 0x13 DUP1 SLOAD DUP3 MSTORE PUSH1 0x20 DUP3 ADD DUP8 DUP2 MSTORE PUSH1 0x1 PUSH1 0x1 PUSH1 0xA0 SHL SUB DUP8 DUP2 AND PUSH1 0x40 DUP6 ADD SWAP1 DUP2 MSTORE PUSH1 0x60 DUP6 ADD DUP8 DUP2 MSTORE PUSH1 0xD DUP1 SLOAD PUSH1 0x1 DUP2 ADD DUP3 SSTORE PUSH1 0x0 SWAP2 DUP3 MSTORE DUP8 MLOAD PUSH32 0xD7B6990105719101DABEB77144F2A3385C8033ACD3AF97E9423A695E81AD1EB5 PUSH1 0x5 SWAP1 SWAP3 MUL SWAP2 DUP3 ADD SSTORE SWAP5 MLOAD PUSH32 0xD7B6990105719101DABEB77144F2A3385C8033ACD3AF97E9423A695E81AD1EB6 DUP7 ADD SSTORE SWAP2 MLOAD PUSH32 0xD7B6990105719101DABEB77144F2A3385C8033ACD3AF97E9423A695E81AD1EB7 DUP6 ADD DUP1 SLOAD PUSH1 0x1 PUSH1 0x1 PUSH1 0xA0 SHL SUB NOT AND SWAP2 SWAP1 SWAP5 AND OR SWAP1 SWAP3 SSTORE SWAP1 MLOAD PUSH32 0xD7B6990105719101DABEB77144F2A3385C8033ACD3AF97E9423A695E81AD1EB8 DUP4 ADD SSTORE PUSH1 0x80 DUP5 ADD MLOAD PUSH32 0xD7B6990105719101DABEB77144F2A3385C8033ACD3AF97E9423A695E81AD1EB9 SWAP1 SWAP3 ADD DUP1 SLOAD PUSH1 0xFF NOT AND SWAP3 ISZERO ISZERO SWAP3 SWAP1 SWAP3 OR SWAP1 SWAP2 SSTORE DUP2 SLOAD SWAP2 SWAP1 PUSH2 0x2335 DUP4 PUSH2 0x4203 JUMP JUMPDEST SWAP1 SWAP2 SSTORE POP POP PUSH1 0x0 DUP7 DUP2 MSTORE PUSH1 0x7 PUSH1 0x20 SWAP1 DUP2 MSTORE PUSH1 0x40 DUP1 DUP4 KECCAK256 PUSH1 0x1 PUSH1 0x1 PUSH1 0xA0 SHL SUB DUP10 AND DUP5 MSTORE SWAP1 SWAP2 MSTORE SWAP1 KECCAK256 DUP1 SLOAD PUSH1 0xFF NOT AND PUSH1 0x1 OR SWAP1 SSTORE PUSH2 0x236F PUSH2 0x3771 JUMP JUMPDEST PUSH1 0x13 DUP1 SLOAD DUP3 MSTORE PUSH1 0x20 DUP3 ADD DUP9 DUP2 MSTORE PUSH1 0x0 DUP1 SLOAD PUSH1 0x1 PUSH1 0x1 PUSH1 0xA0 SHL SUB SWAP1 DUP2 AND PUSH1 0x40 DUP7 ADD SWAP1 DUP2 MSTORE PUSH1 0x60 DUP7 ADD DUP9 DUP2 MSTORE PUSH1 0xD DUP1 SLOAD PUSH1 0x1 DUP2 ADD DUP3 SSTORE SWAP1 DUP6 MSTORE DUP8 MLOAD PUSH32 0xD7B6990105719101DABEB77144F2A3385C8033ACD3AF97E9423A695E81AD1EB5 PUSH1 0x5 SWAP1 SWAP3 MUL SWAP2 DUP3 ADD SSTORE SWAP5 MLOAD PUSH32 0xD7B6990105719101DABEB77144F2A3385C8033ACD3AF97E9423A695E81AD1EB6 DUP7 ADD SSTORE SWAP1 MLOAD PUSH32 0xD7B6990105719101DABEB77144F2A3385C8033ACD3AF97E9423A695E81AD1EB7 DUP6 ADD DUP1 SLOAD PUSH1 0x1 PUSH1 0x1 PUSH1 0xA0 SHL SUB NOT AND SWAP2 SWAP1 SWAP4 AND OR SWAP1 SWAP2 SSTORE MLOAD PUSH32 0xD7B6990105719101DABEB77144F2A3385C8033ACD3AF97E9423A695E81AD1EB8 DUP4 ADD SSTORE PUSH1 0x80 DUP5 ADD MLOAD PUSH32 0xD7B6990105719101DABEB77144F2A3385C8033ACD3AF97E9423A695E81AD1EB9 SWAP1 SWAP3 ADD DUP1 SLOAD PUSH1 0xFF NOT AND SWAP3 ISZERO ISZERO SWAP3 SWAP1 SWAP3 OR SWAP1 SWAP2 SSTORE DUP2 SLOAD SWAP2 SWAP1 PUSH2 0x249C DUP4 PUSH2 0x4203 JUMP JUMPDEST SWAP2 SWAP1 POP SSTORE POP POP POP POP POP POP POP POP JUMP JUMPDEST PUSH1 0x1 PUSH1 0x1 PUSH1 0xA0 SHL SUB DUP1 DUP3 AND PUSH1 0x0 DUP2 DUP2 MSTORE PUSH1 0x2 PUSH1 0x20 MSTORE PUSH1 0x40 DUP2 KECCAK256 PUSH1 0x1 ADD SLOAD SWAP1 SWAP3 AND EQ PUSH2 0x24D6 JUMPI PUSH1 0x0 PUSH2 0x7EF JUMP JUMPDEST PUSH1 0x1 SWAP3 SWAP2 POP POP JUMP JUMPDEST PUSH1 0x1 PUSH1 0x1 PUSH1 0xA0 SHL SUB DUP1 DUP3 AND PUSH1 0x0 SWAP1 DUP2 MSTORE PUSH1 0x1 PUSH1 0x20 DUP2 DUP2 MSTORE PUSH1 0x40 DUP1 DUP5 KECCAK256 DUP2 MLOAD PUSH1 0xE0 DUP2 ADD DUP4 MSTORE DUP2 SLOAD DUP2 MSTORE SWAP4 DUP2 ADD SLOAD SWAP1 SWAP6 AND SWAP2 DUP4 ADD SWAP2 SWAP1 SWAP2 MSTORE PUSH1 0x2 DUP5 ADD DUP1 SLOAD SWAP4 SWAP5 SWAP3 SWAP4 SWAP2 DUP5 ADD SWAP2 PUSH2 0x252B SWAP1 PUSH2 0x41B3 JUMP JUMPDEST DUP1 PUSH1 0x1F ADD PUSH1 0x20 DUP1 SWAP2 DIV MUL PUSH1 0x20 ADD PUSH1 0x40 MLOAD SWAP1 DUP2 ADD PUSH1 0x40 MSTORE DUP1 SWAP3 SWAP2 SWAP1 DUP2 DUP2 MSTORE PUSH1 0x20 ADD DUP3 DUP1 SLOAD PUSH2 0x2557 SWAP1 PUSH2 0x41B3 JUMP JUMPDEST DUP1 ISZERO PUSH2 0x25A4 JUMPI DUP1 PUSH1 0x1F LT PUSH2 0x2579 JUMPI PUSH2 0x100 DUP1 DUP4 SLOAD DIV MUL DUP4 MSTORE SWAP2 PUSH1 0x20 ADD SWAP2 PUSH2 0x25A4 JUMP JUMPDEST DUP3 ADD SWAP2 SWAP1 PUSH1 0x0 MSTORE PUSH1 0x20 PUSH1 0x0 KECCAK256 SWAP1 JUMPDEST DUP2 SLOAD DUP2 MSTORE SWAP1 PUSH1 0x1 ADD SWAP1 PUSH1 0x20 ADD DUP1 DUP4 GT PUSH2 0x2587 JUMPI DUP3 SWAP1 SUB PUSH1 0x1F AND DUP3 ADD SWAP2 JUMPDEST POP POP POP SWAP2 DUP4 MSTORE POP POP PUSH1 0x3 DUP3 ADD SLOAD PUSH1 0x20 DUP1 DUP4 ADD SWAP2 SWAP1 SWAP2 MSTORE PUSH1 0x4 SWAP1 SWAP3 ADD SLOAD PUSH1 0xFF DUP1 DUP3 AND ISZERO ISZERO PUSH1 0x40 DUP1 DUP6 ADD SWAP2 SWAP1 SWAP2 MSTORE PUSH2 0x100 DUP4 DIV DUP3 AND ISZERO ISZERO PUSH1 0x60 DUP6 ADD MSTORE PUSH3 0x10000 SWAP1 SWAP3 DIV AND ISZERO ISZERO PUSH1 0x80 SWAP1 SWAP3 ADD SWAP2 SWAP1 SWAP2 MSTORE PUSH1 0x1 PUSH1 0xA0 DUP5 ADD DUP2 SWAP1 MSTORE PUSH1 0x1 PUSH1 0x1 PUSH1 0xA0 SHL SUB DUP7 DUP2 AND PUSH1 0x0 SWAP1 DUP2 MSTORE DUP3 DUP6 MSTORE DUP4 SWAP1 KECCAK256 DUP6 MLOAD DUP2 SSTORE SWAP4 DUP6 ADD MLOAD SWAP2 DUP5 ADD DUP1 SLOAD PUSH1 0x1 PUSH1 0x1 PUSH1 0xA0 SHL SUB NOT AND SWAP3 SWAP1 SWAP2 AND SWAP2 SWAP1 SWAP2 OR SWAP1 SSTORE DUP3 ADD MLOAD SWAP2 SWAP3 POP DUP3 SWAP2 PUSH1 0x2 DUP3 ADD SWAP1 PUSH2 0x2648 SWAP1 DUP3 PUSH2 0x426B JUMP JUMPDEST POP PUSH1 0x60 DUP3 ADD MLOAD PUSH1 0x3 DUP3 ADD SSTORE PUSH1 0x80 DUP3 ADD MLOAD PUSH1 0x4 SWAP1 SWAP2 ADD DUP1 SLOAD PUSH1 0xA0 DUP5 ADD MLOAD PUSH1 0xC0 SWAP1 SWAP5 ADD MLOAD ISZERO ISZERO PUSH3 0x10000 MUL PUSH3 0xFF0000 NOT SWAP5 ISZERO ISZERO PUSH2 0x100 MUL PUSH2 0xFF00 NOT SWAP5 ISZERO ISZERO SWAP5 SWAP1 SWAP5 AND PUSH2 0xFFFF NOT SWAP1 SWAP3 AND SWAP2 SWAP1 SWAP2 OR SWAP3 SWAP1 SWAP3 OR SWAP3 SWAP1 SWAP3 AND OR SWAP1 SSTORE POP POP JUMP JUMPDEST PUSH1 0x60 PUSH1 0x3 DUP1 SLOAD DUP1 PUSH1 0x20 MUL PUSH1 0x20 ADD PUSH1 0x40 MLOAD SWAP1 DUP2 ADD PUSH1 0x40 MSTORE DUP1 SWAP3 SWAP2 SWAP1 DUP2 DUP2 MSTORE PUSH1 0x20 ADD PUSH1 0x0 SWAP1 JUMPDEST DUP3 DUP3 LT ISZERO PUSH2 0x27DD JUMPI PUSH1 0x0 DUP5 DUP2 MSTORE PUSH1 0x20 SWAP1 DUP2 SWAP1 KECCAK256 PUSH1 0x40 DUP1 MLOAD PUSH1 0xE0 DUP2 ADD DUP3 MSTORE PUSH1 0x7 DUP7 MUL SWAP1 SWAP3 ADD DUP1 SLOAD DUP4 MSTORE PUSH1 0x1 DUP2 ADD SLOAD PUSH1 0x1 PUSH1 0x1 PUSH1 0xA0 SHL SUB AND SWAP4 DUP4 ADD SWAP4 SWAP1 SWAP4 MSTORE PUSH1 0x2 DUP4 ADD DUP1 SLOAD SWAP3 SWAP4 SWAP3 SWAP2 DUP5 ADD SWAP2 PUSH2 0x2719 SWAP1 PUSH2 0x41B3 JUMP JUMPDEST DUP1 PUSH1 0x1F ADD PUSH1 0x20 DUP1 SWAP2 DIV MUL PUSH1 0x20 ADD PUSH1 0x40 MLOAD SWAP1 DUP2 ADD PUSH1 0x40 MSTORE DUP1 SWAP3 SWAP2 SWAP1 DUP2 DUP2 MSTORE PUSH1 0x20 ADD DUP3 DUP1 SLOAD PUSH2 0x2745 SWAP1 PUSH2 0x41B3 JUMP JUMPDEST DUP1 ISZERO PUSH2 0x2792 JUMPI DUP1 PUSH1 0x1F LT PUSH2 0x2767 JUMPI PUSH2 0x100 DUP1 DUP4 SLOAD DIV MUL DUP4 MSTORE SWAP2 PUSH1 0x20 ADD SWAP2 PUSH2 0x2792 JUMP JUMPDEST DUP3 ADD SWAP2 SWAP1 PUSH1 0x0 MSTORE PUSH1 0x20 PUSH1 0x0 KECCAK256 SWAP1 JUMPDEST DUP2 SLOAD DUP2 MSTORE SWAP1 PUSH1 0x1 ADD SWAP1 PUSH1 0x20 ADD DUP1 DUP4 GT PUSH2 0x2775 JUMPI DUP3 SWAP1 SUB PUSH1 0x1F AND DUP3 ADD SWAP2 JUMPDEST POP POP POP SWAP2 DUP4 MSTORE POP POP PUSH1 0x3 DUP3 ADD SLOAD PUSH1 0x20 DUP1 DUP4 ADD SWAP2 SWAP1 SWAP2 MSTORE PUSH1 0x4 DUP4 ADD SLOAD PUSH1 0x40 DUP4 ADD MSTORE PUSH1 0x5 DUP4 ADD SLOAD PUSH1 0x60 DUP4 ADD MSTORE PUSH1 0x6 SWAP1 SWAP3 ADD SLOAD PUSH1 0xFF AND ISZERO ISZERO PUSH1 0x80 SWAP1 SWAP2 ADD MSTORE SWAP1 DUP3 MSTORE PUSH1 0x1 SWAP3 SWAP1 SWAP3 ADD SWAP2 ADD PUSH2 0x26C6 JUMP JUMPDEST POP POP POP POP SWAP1 POP SWAP1 JUMP JUMPDEST PUSH1 0xD DUP2 DUP2 SLOAD DUP2 LT PUSH2 0x27F6 JUMPI PUSH1 0x0 DUP1 REVERT JUMPDEST PUSH1 0x0 SWAP2 DUP3 MSTORE PUSH1 0x20 SWAP1 SWAP2 KECCAK256 PUSH1 0x5 SWAP1 SWAP2 MUL ADD DUP1 SLOAD PUSH1 0x1 DUP3 ADD SLOAD PUSH1 0x2 DUP4 ADD SLOAD PUSH1 0x3 DUP5 ADD SLOAD PUSH1 0x4 SWAP1 SWAP5 ADD SLOAD SWAP3 SWAP5 POP SWAP1 SWAP3 PUSH1 0x1 PUSH1 0x1 PUSH1 0xA0 SHL SUB SWAP1 SWAP2 AND SWAP2 PUSH1 0xFF AND DUP6 JUMP JUMPDEST PUSH1 0xC DUP2 DUP2 SLOAD DUP2 LT PUSH2 0x27F6 JUMPI PUSH1 0x0 DUP1 REVERT JUMPDEST PUSH1 0x60 PUSH1 0xB PUSH1 0x0 DUP4 DUP2 MSTORE PUSH1 0x20 ADD SWAP1 DUP2 MSTORE PUSH1 0x20 ADD PUSH1 0x0 KECCAK256 DUP1 SLOAD DUP1 PUSH1 0x20 MUL PUSH1 0x20 ADD PUSH1 0x40 MLOAD SWAP1 DUP2 ADD PUSH1 0x40 MSTORE DUP1 SWAP3 SWAP2 SWAP1 DUP2 DUP2 MSTORE PUSH1 0x20 ADD PUSH1 0x0 SWAP1 JUMPDEST DUP3 DUP3 LT ISZERO PUSH2 0x2A29 JUMPI PUSH1 0x0 DUP5 DUP2 MSTORE PUSH1 0x20 SWAP1 DUP2 SWAP1 KECCAK256 PUSH1 0x40 DUP1 MLOAD PUSH2 0x100 DUP2 ADD DUP3 MSTORE PUSH1 0x7 DUP7 MUL SWAP1 SWAP3 ADD DUP1 SLOAD DUP4 MSTORE PUSH1 0x1 DUP2 ADD SLOAD PUSH1 0x1 PUSH1 0x1 PUSH1 0xA0 SHL SUB AND SWAP4 DUP4 ADD SWAP4 SWAP1 SWAP4 MSTORE PUSH1 0x2 DUP4 ADD DUP1 SLOAD SWAP3 SWAP4 SWAP3 SWAP2 DUP5 ADD SWAP2 PUSH2 0x28CD SWAP1 PUSH2 0x41B3 JUMP JUMPDEST DUP1 PUSH1 0x1F ADD PUSH1 0x20 DUP1 SWAP2 DIV MUL PUSH1 0x20 ADD PUSH1 0x40 MLOAD SWAP1 DUP2 ADD PUSH1 0x40 MSTORE DUP1 SWAP3 SWAP2 SWAP1 DUP2 DUP2 MSTORE PUSH1 0x20 ADD DUP3 DUP1 SLOAD PUSH2 0x28F9 SWAP1 PUSH2 0x41B3 JUMP JUMPDEST DUP1 ISZERO PUSH2 0x2946 JUMPI DUP1 PUSH1 0x1F LT PUSH2 0x291B JUMPI PUSH2 0x100 DUP1 DUP4 SLOAD DIV MUL DUP4 MSTORE SWAP2 PUSH1 0x20 ADD SWAP2 PUSH2 0x2946 JUMP JUMPDEST DUP3 ADD SWAP2 SWAP1 PUSH1 0x0 MSTORE PUSH1 0x20 PUSH1 0x0 KECCAK256 SWAP1 JUMPDEST DUP2 SLOAD DUP2 MSTORE SWAP1 PUSH1 0x1 ADD SWAP1 PUSH1 0x20 ADD DUP1 DUP4 GT PUSH2 0x2929 JUMPI DUP3 SWAP1 SUB PUSH1 0x1F AND DUP3 ADD SWAP2 JUMPDEST POP POP POP POP POP DUP2 MSTORE PUSH1 0x20 ADD PUSH1 0x3 DUP3 ADD DUP1 SLOAD PUSH2 0x295F SWAP1 PUSH2 0x41B3 JUMP JUMPDEST DUP1 PUSH1 0x1F ADD PUSH1 0x20 DUP1 SWAP2 DIV MUL PUSH1 0x20 ADD PUSH1 0x40 MLOAD SWAP1 DUP2 ADD PUSH1 0x40 MSTORE DUP1 SWAP3 SWAP2 SWAP1 DUP2 DUP2 MSTORE PUSH1 0x20 ADD DUP3 DUP1 SLOAD PUSH2 0x298B SWAP1 PUSH2 0x41B3 JUMP JUMPDEST DUP1 ISZERO PUSH2 0x29D8 JUMPI DUP1 PUSH1 0x1F LT PUSH2 0x29AD JUMPI PUSH2 0x100 DUP1 DUP4 SLOAD DIV MUL DUP4 MSTORE SWAP2 PUSH1 0x20 ADD SWAP2 PUSH2 0x29D8 JUMP JUMPDEST DUP3 ADD SWAP2 SWAP1 PUSH1 0x0 MSTORE PUSH1 0x20 PUSH1 0x0 KECCAK256 SWAP1 JUMPDEST DUP2 SLOAD DUP2 MSTORE SWAP1 PUSH1 0x1 ADD SWAP1 PUSH1 0x20 ADD DUP1 DUP4 GT PUSH2 0x29BB JUMPI DUP3 SWAP1 SUB PUSH1 0x1F AND DUP3 ADD SWAP2 JUMPDEST POP POP POP SWAP2 DUP4 MSTORE POP POP PUSH1 0x4 DUP3 ADD SLOAD PUSH1 0x20 DUP1 DUP4 ADD SWAP2 SWAP1 SWAP2 MSTORE PUSH1 0x5 DUP4 ADD SLOAD PUSH1 0x40 DUP4 ADD MSTORE PUSH1 0x6 SWAP1 SWAP3 ADD SLOAD PUSH1 0xFF DUP1 DUP3 AND ISZERO ISZERO PUSH1 0x60 DUP5 ADD MSTORE PUSH2 0x100 SWAP1 SWAP2 DIV AND ISZERO ISZERO PUSH1 0x80 SWAP1 SWAP2 ADD MSTORE SWAP1 DUP3 MSTORE PUSH1 0x1 SWAP3 SWAP1 SWAP3 ADD SWAP2 ADD PUSH2 0x2879 JUMP JUMPDEST POP POP POP POP SWAP1 POP SWAP2 SWAP1 POP JUMP JUMPDEST PUSH1 0x1 PUSH1 0x1 PUSH1 0xA0 SHL SUB DUP1 DUP3 AND PUSH1 0x0 DUP2 DUP2 MSTORE PUSH1 0x1 PUSH1 0x20 DUP2 SWAP1 MSTORE PUSH1 0x40 DUP3 KECCAK256 ADD SLOAD SWAP1 SWAP3 AND EQ PUSH2 0x24D6 JUMPI PUSH1 0x0 PUSH2 0x7EF JUMP JUMPDEST PUSH1 0x0 PUSH2 0x2A6C DUP6 DUP6 PUSH2 0x765 JUMP JUMPDEST PUSH1 0x14 SLOAD PUSH1 0x40 DUP1 MLOAD PUSH1 0xA0 DUP2 ADD DUP3 MSTORE PUSH1 0x0 PUSH1 0x80 DUP3 ADD DUP2 DUP2 MSTORE DUP5 DUP4 MSTORE PUSH1 0x20 DUP1 DUP5 ADD DUP11 DUP2 MSTORE PUSH1 0x1 PUSH1 0x1 PUSH1 0xA0 SHL SUB DUP11 DUP2 AND DUP7 DUP9 ADD DUP2 DUP2 MSTORE PUSH1 0x60 DUP9 ADD DUP12 DUP2 MSTORE PUSH1 0xC DUP1 SLOAD PUSH1 0x1 DUP2 ADD DUP3 SSTORE SWAP1 DUP10 MSTORE DUP10 MLOAD PUSH32 0xDF6966C971051C3D54EC59162606531493A51404A002842F56009D7E5CF4A8C7 PUSH1 0x5 SWAP1 SWAP3 MUL SWAP2 DUP3 ADD SSTORE SWAP5 MLOAD PUSH32 0xDF6966C971051C3D54EC59162606531493A51404A002842F56009D7E5CF4A8C8 DUP7 ADD SSTORE SWAP1 MLOAD PUSH32 0xDF6966C971051C3D54EC59162606531493A51404A002842F56009D7E5CF4A8C9 DUP6 ADD DUP1 SLOAD PUSH1 0x1 PUSH1 0x1 PUSH1 0xA0 SHL SUB NOT AND SWAP2 SWAP1 SWAP5 AND OR SWAP1 SWAP3 SSTORE SWAP1 MLOAD PUSH32 0xDF6966C971051C3D54EC59162606531493A51404A002842F56009D7E5CF4A8CA DUP4 ADD SSTORE SWAP3 MLOAD PUSH32 0xDF6966C971051C3D54EC59162606531493A51404A002842F56009D7E5CF4A8CB SWAP1 SWAP2 ADD DUP1 SLOAD PUSH1 0xFF NOT AND SWAP2 ISZERO ISZERO SWAP2 SWAP1 SWAP2 OR SWAP1 SSTORE SWAP1 DUP3 MSTORE PUSH1 0x9 SWAP1 MSTORE SWAP2 SWAP1 SWAP2 KECCAK256 SLOAD SWAP3 SWAP4 POP SWAP1 SWAP2 PUSH2 0x2BB3 DUP5 DUP3 PUSH2 0x41A0 JUMP JUMPDEST PUSH1 0x1 PUSH1 0x1 PUSH1 0xA0 SHL SUB DUP7 AND PUSH1 0x0 SWAP1 DUP2 MSTORE PUSH1 0x9 PUSH1 0x20 MSTORE PUSH1 0x40 DUP2 KECCAK256 DUP3 SWAP1 SSTORE PUSH1 0x14 DUP1 SLOAD SWAP3 SWAP4 POP SWAP1 PUSH2 0x2BDF DUP4 PUSH2 0x4203 JUMP JUMPDEST SWAP2 SWAP1 POP SSTORE POP POP POP POP POP POP POP POP POP JUMP JUMPDEST PUSH2 0x2BF6 PUSH2 0x3694 JUMP JUMPDEST PUSH1 0x3 DUP3 DUP2 SLOAD DUP2 LT PUSH2 0x2C09 JUMPI PUSH2 0x2C09 PUSH2 0x41ED JUMP JUMPDEST SWAP1 PUSH1 0x0 MSTORE PUSH1 0x20 PUSH1 0x0 KECCAK256 SWAP1 PUSH1 0x7 MUL ADD PUSH1 0x40 MLOAD DUP1 PUSH1 0xE0 ADD PUSH1 0x40 MSTORE SWAP1 DUP2 PUSH1 0x0 DUP3 ADD SLOAD DUP2 MSTORE PUSH1 0x20 ADD PUSH1 0x1 DUP3 ADD PUSH1 0x0 SWAP1 SLOAD SWAP1 PUSH2 0x100 EXP SWAP1 DIV PUSH1 0x1 PUSH1 0x1 PUSH1 0xA0 SHL SUB AND PUSH1 0x1 PUSH1 0x1 PUSH1 0xA0 SHL SUB AND PUSH1 0x1 PUSH1 0x1 PUSH1 0xA0 SHL SUB AND DUP2 MSTORE PUSH1 0x20 ADD PUSH1 0x2 DUP3 ADD DUP1 SLOAD PUSH2 0x2C6B SWAP1 PUSH2 0x41B3 JUMP JUMPDEST DUP1 PUSH1 0x1F ADD PUSH1 0x20 DUP1 SWAP2 DIV MUL PUSH1 0x20 ADD PUSH1 0x40 MLOAD SWAP1 DUP2 ADD PUSH1 0x40 MSTORE DUP1 SWAP3 SWAP2 SWAP1 DUP2 DUP2 MSTORE PUSH1 0x20 ADD DUP3 DUP1 SLOAD PUSH2 0x2C97 SWAP1 PUSH2 0x41B3 JUMP JUMPDEST DUP1 ISZERO PUSH2 0x2CE4 JUMPI DUP1 PUSH1 0x1F LT PUSH2 0x2CB9 JUMPI PUSH2 0x100 DUP1 DUP4 SLOAD DIV MUL DUP4 MSTORE SWAP2 PUSH1 0x20 ADD SWAP2 PUSH2 0x2CE4 JUMP JUMPDEST DUP3 ADD SWAP2 SWAP1 PUSH1 0x0 MSTORE PUSH1 0x20 PUSH1 0x0 KECCAK256 SWAP1 JUMPDEST DUP2 SLOAD DUP2 MSTORE SWAP1 PUSH1 0x1 ADD SWAP1 PUSH1 0x20 ADD DUP1 DUP4 GT PUSH2 0x2CC7 JUMPI DUP3 SWAP1 SUB PUSH1 0x1F AND DUP3 ADD SWAP2 JUMPDEST POP POP POP SWAP2 DUP4 MSTORE POP POP PUSH1 0x3 DUP3 ADD SLOAD PUSH1 0x20 DUP3 ADD MSTORE PUSH1 0x4 DUP3 ADD SLOAD PUSH1 0x40 DUP3 ADD MSTORE PUSH1 0x5 DUP3 ADD SLOAD PUSH1 0x60 DUP3 ADD MSTORE PUSH1 0x6 SWAP1 SWAP2 ADD SLOAD PUSH1 0xFF AND ISZERO ISZERO PUSH1 0x80 SWAP1 SWAP2 ADD MSTORE SWAP3 SWAP2 POP POP JUMP JUMPDEST PUSH1 0x1 PUSH1 0x1 PUSH1 0xA0 SHL SUB DUP1 DUP4 AND PUSH1 0x0 SWAP1 DUP2 MSTORE PUSH1 0x2 PUSH1 0x20 DUP2 DUP2 MSTORE PUSH1 0x40 DUP1 DUP5 KECCAK256 DUP2 MLOAD PUSH2 0x100 DUP2 ADD DUP4 MSTORE DUP2 SLOAD DUP2 MSTORE PUSH1 0x1 DUP3 ADD SLOAD SWAP1 SWAP7 AND SWAP3 DUP7 ADD SWAP3 SWAP1 SWAP3 MSTORE SWAP2 DUP2 ADD DUP1 SLOAD SWAP4 SWAP5 SWAP4 SWAP2 SWAP3 DUP5 ADD SWAP2 PUSH2 0x2D6F SWAP1 PUSH2 0x41B3 JUMP JUMPDEST DUP1 PUSH1 0x1F ADD PUSH1 0x20 DUP1 SWAP2 DIV MUL PUSH1 0x20 ADD PUSH1 0x40 MLOAD SWAP1 DUP2 ADD PUSH1 0x40 MSTORE DUP1 SWAP3 SWAP2 SWAP1 DUP2 DUP2 MSTORE PUSH1 0x20 ADD DUP3 DUP1 SLOAD PUSH2 0x2D9B SWAP1 PUSH2 0x41B3 JUMP JUMPDEST DUP1 ISZERO PUSH2 0x2DE8 JUMPI DUP1 PUSH1 0x1F LT PUSH2 0x2DBD JUMPI PUSH2 0x100 DUP1 DUP4 SLOAD DIV MUL DUP4 MSTORE SWAP2 PUSH1 0x20 ADD SWAP2 PUSH2 0x2DE8 JUMP JUMPDEST DUP3 ADD SWAP2 SWAP1 PUSH1 0x0 MSTORE PUSH1 0x20 PUSH1 0x0 KECCAK256 SWAP1 JUMPDEST DUP2 SLOAD DUP2 MSTORE SWAP1 PUSH1 0x1 ADD SWAP1 PUSH1 0x20 ADD DUP1 DUP4 GT PUSH2 0x2DCB JUMPI DUP3 SWAP1 SUB PUSH1 0x1F AND DUP3 ADD SWAP2 JUMPDEST POP POP POP POP POP DUP2 MSTORE PUSH1 0x20 ADD PUSH1 0x3 DUP3 ADD DUP1 SLOAD PUSH2 0x2E01 SWAP1 PUSH2 0x41B3 JUMP JUMPDEST DUP1 PUSH1 0x1F ADD PUSH1 0x20 DUP1 SWAP2 DIV MUL PUSH1 0x20 ADD PUSH1 0x40 MLOAD SWAP1 DUP2 ADD PUSH1 0x40 MSTORE DUP1 SWAP3 SWAP2 SWAP1 DUP2 DUP2 MSTORE PUSH1 0x20 ADD DUP3 DUP1 SLOAD PUSH2 0x2E2D SWAP1 PUSH2 0x41B3 JUMP JUMPDEST DUP1 ISZERO PUSH2 0x2E7A JUMPI DUP1 PUSH1 0x1F LT PUSH2 0x2E4F JUMPI PUSH2 0x100 DUP1 DUP4 SLOAD DIV MUL DUP4 MSTORE SWAP2 PUSH1 0x20 ADD SWAP2 PUSH2 0x2E7A JUMP JUMPDEST DUP3 ADD SWAP2 SWAP1 PUSH1 0x0 MSTORE PUSH1 0x20 PUSH1 0x0 KECCAK256 SWAP1 JUMPDEST DUP2 SLOAD DUP2 MSTORE SWAP1 PUSH1 0x1 ADD SWAP1 PUSH1 0x20 ADD DUP1 DUP4 GT PUSH2 0x2E5D JUMPI DUP3 SWAP1 SUB PUSH1 0x1F AND DUP3 ADD SWAP2 JUMPDEST POP POP POP SWAP2 DUP4 MSTORE POP POP PUSH1 0x4 DUP3 ADD SLOAD PUSH1 0x20 DUP3 ADD MSTORE PUSH1 0x5 DUP3 ADD SLOAD PUSH1 0x40 DUP3 ADD MSTORE PUSH1 0x6 SWAP1 SWAP2 ADD SLOAD PUSH1 0xFF DUP1 DUP3 AND ISZERO ISZERO PUSH1 0x60 DUP5 ADD MSTORE PUSH2 0x100 SWAP1 SWAP2 DIV AND ISZERO ISZERO PUSH1 0x80 SWAP1 SWAP2 ADD MSTORE PUSH1 0x3 DUP1 SLOAD SWAP2 SWAP3 POP PUSH1 0x0 SWAP2 DUP7 SWAP1 DUP2 LT PUSH2 0x2ED1 JUMPI PUSH2 0x2ED1 PUSH2 0x41ED JUMP JUMPDEST SWAP1 PUSH1 0x0 MSTORE PUSH1 0x20 PUSH1 0x0 KECCAK256 SWAP1 PUSH1 0x7 MUL ADD PUSH1 0x40 MLOAD DUP1 PUSH1 0xE0 ADD PUSH1 0x40 MSTORE SWAP1 DUP2 PUSH1 0x0 DUP3 ADD SLOAD DUP2 MSTORE PUSH1 0x20 ADD PUSH1 0x1 DUP3 ADD PUSH1 0x0 SWAP1 SLOAD SWAP1 PUSH2 0x100 EXP SWAP1 DIV PUSH1 0x1 PUSH1 0x1 PUSH1 0xA0 SHL SUB AND PUSH1 0x1 PUSH1 0x1 PUSH1 0xA0 SHL SUB AND PUSH1 0x1 PUSH1 0x1 PUSH1 0xA0 SHL SUB AND DUP2 MSTORE PUSH1 0x20 ADD PUSH1 0x2 DUP3 ADD DUP1 SLOAD PUSH2 0x2F33 SWAP1 PUSH2 0x41B3 JUMP JUMPDEST DUP1 PUSH1 0x1F ADD PUSH1 0x20 DUP1 SWAP2 DIV MUL PUSH1 0x20 ADD PUSH1 0x40 MLOAD SWAP1 DUP2 ADD PUSH1 0x40 MSTORE DUP1 SWAP3 SWAP2 SWAP1 DUP2 DUP2 MSTORE PUSH1 0x20 ADD DUP3 DUP1 SLOAD PUSH2 0x2F5F SWAP1 PUSH2 0x41B3 JUMP JUMPDEST DUP1 ISZERO PUSH2 0x2FAC JUMPI DUP1 PUSH1 0x1F LT PUSH2 0x2F81 JUMPI PUSH2 0x100 DUP1 DUP4 SLOAD DIV MUL DUP4 MSTORE SWAP2 PUSH1 0x20 ADD SWAP2 PUSH2 0x2FAC JUMP JUMPDEST DUP3 ADD SWAP2 SWAP1 PUSH1 0x0 MSTORE PUSH1 0x20 PUSH1 0x0 KECCAK256 SWAP1 JUMPDEST DUP2 SLOAD DUP2 MSTORE SWAP1 PUSH1 0x1 ADD SWAP1 PUSH1 0x20 ADD DUP1 DUP4 GT PUSH2 0x2F8F JUMPI DUP3 SWAP1 SUB PUSH1 0x1F AND DUP3 ADD SWAP2 JUMPDEST POP POP POP SWAP2 DUP4 MSTORE POP POP PUSH1 0x3 DUP3 ADD SLOAD PUSH1 0x20 DUP3 ADD MSTORE PUSH1 0x4 DUP3 ADD SLOAD PUSH1 0x40 DUP3 ADD MSTORE PUSH1 0x5 DUP3 ADD SLOAD PUSH1 0x60 DUP1 DUP4 ADD SWAP2 SWAP1 SWAP2 MSTORE PUSH1 0x6 SWAP1 SWAP3 ADD SLOAD PUSH1 0xFF AND ISZERO ISZERO PUSH1 0x80 SWAP1 SWAP2 ADD MSTORE DUP2 ADD MLOAD SWAP1 SWAP2 POP PUSH1 0x0 JUMPDEST DUP2 DUP2 LT ISZERO PUSH2 0x30FF JUMPI PUSH2 0x3000 PUSH2 0x36DC JUMP JUMPDEST PUSH1 0x12 SLOAD DUP1 DUP3 MSTORE PUSH1 0x20 DUP3 ADD DUP4 SWAP1 MSTORE PUSH1 0x40 DUP3 ADD DUP10 SWAP1 MSTORE PUSH1 0x1 PUSH1 0x1 PUSH1 0xA0 SHL SUB DUP9 AND PUSH1 0x60 DUP4 ADD MSTORE DUP7 MLOAD DUP8 SWAP1 DUP5 SWAP1 DUP2 LT PUSH2 0x3037 JUMPI PUSH2 0x3037 PUSH2 0x41ED JUMP JUMPDEST PUSH1 0x20 SWAP1 DUP2 MUL SWAP2 SWAP1 SWAP2 ADD DUP2 ADD MLOAD ISZERO ISZERO PUSH1 0x80 DUP5 ADD SWAP1 DUP2 MSTORE PUSH1 0x0 DUP12 DUP2 MSTORE PUSH1 0x5 DUP4 MSTORE PUSH1 0x40 DUP1 DUP3 KECCAK256 DUP1 SLOAD PUSH1 0x1 DUP2 DUP2 ADD DUP4 SSTORE SWAP2 DUP5 MSTORE DUP6 DUP5 KECCAK256 DUP9 MLOAD PUSH1 0x4 SWAP1 SWAP3 MUL ADD SWAP1 DUP2 SSTORE SWAP5 DUP8 ADD MLOAD SWAP1 DUP6 ADD SSTORE DUP6 ADD MLOAD PUSH1 0x2 DUP5 ADD SSTORE PUSH1 0x60 DUP6 ADD MLOAD PUSH1 0x3 SWAP1 SWAP4 ADD DUP1 SLOAD SWAP3 MLOAD PUSH1 0xA0 DUP8 ADD MLOAD ISZERO ISZERO PUSH1 0x1 PUSH1 0xA8 SHL MUL PUSH1 0xFF PUSH1 0xA8 SHL NOT SWAP2 ISZERO ISZERO PUSH1 0x1 PUSH1 0xA0 SHL MUL PUSH1 0x1 PUSH1 0x1 PUSH1 0xA8 SHL SUB NOT SWAP1 SWAP6 AND PUSH1 0x1 PUSH1 0x1 PUSH1 0xA0 SHL SUB SWAP1 SWAP7 AND SWAP6 SWAP1 SWAP6 OR SWAP4 SWAP1 SWAP4 OR SWAP3 SWAP1 SWAP3 AND SWAP3 SWAP1 SWAP3 OR SWAP1 SSTORE PUSH1 0x12 DUP1 SLOAD SWAP2 PUSH2 0x30E5 DUP4 PUSH2 0x4203 JUMP JUMPDEST SWAP2 SWAP1 POP SSTORE POP POP POP DUP1 DUP1 PUSH2 0x30F7 SWAP1 PUSH2 0x4203 JUMP JUMPDEST SWAP2 POP POP PUSH2 0x2FF0 JUMP JUMPDEST POP PUSH1 0x0 DUP7 DUP2 MSTORE PUSH1 0x6 PUSH1 0x20 SWAP1 DUP2 MSTORE PUSH1 0x40 DUP1 DUP4 KECCAK256 PUSH1 0x1 PUSH1 0x1 PUSH1 0xA0 SHL SUB DUP10 AND DUP5 MSTORE DUP3 MSTORE DUP1 DUP4 KECCAK256 DUP1 SLOAD PUSH1 0xFF NOT AND PUSH1 0x1 OR SWAP1 SSTORE DUP9 DUP4 MSTORE PUSH1 0xB SWAP1 SWAP2 MSTORE SWAP1 KECCAK256 PUSH2 0x3140 DUP7 PUSH2 0x13B3 JUMP JUMPDEST DUP2 SLOAD PUSH1 0x1 DUP1 DUP3 ADD DUP5 SSTORE PUSH1 0x0 SWAP4 DUP5 MSTORE PUSH1 0x20 SWAP4 DUP5 SWAP1 KECCAK256 DUP4 MLOAD PUSH1 0x7 SWAP1 SWAP4 MUL ADD SWAP2 DUP3 SSTORE SWAP3 DUP3 ADD MLOAD SWAP3 DUP2 ADD DUP1 SLOAD PUSH1 0x1 PUSH1 0x1 PUSH1 0xA0 SHL SUB NOT AND PUSH1 0x1 PUSH1 0x1 PUSH1 0xA0 SHL SUB SWAP1 SWAP5 AND SWAP4 SWAP1 SWAP4 OR SWAP1 SWAP3 SSTORE PUSH1 0x40 DUP2 ADD MLOAD SWAP1 SWAP2 SWAP1 PUSH1 0x2 DUP3 ADD SWAP1 PUSH2 0x319B SWAP1 DUP3 PUSH2 0x426B JUMP JUMPDEST POP PUSH1 0x60 DUP3 ADD MLOAD PUSH1 0x3 DUP3 ADD SWAP1 PUSH2 0x31B0 SWAP1 DUP3 PUSH2 0x426B JUMP JUMPDEST POP PUSH1 0x80 DUP3 ADD MLOAD PUSH1 0x4 DUP3 ADD SSTORE PUSH1 0xA0 DUP1 DUP4 ADD MLOAD PUSH1 0x5 DUP4 ADD SSTORE PUSH1 0xC0 DUP4 ADD MLOAD PUSH1 0x6 SWAP1 SWAP3 ADD DUP1 SLOAD PUSH1 0xE0 SWAP1 SWAP5 ADD MLOAD ISZERO ISZERO PUSH2 0x100 MUL PUSH2 0xFF00 NOT SWAP4 ISZERO ISZERO SWAP4 SWAP1 SWAP4 AND PUSH2 0xFFFF NOT SWAP1 SWAP5 AND SWAP4 SWAP1 SWAP4 OR SWAP2 SWAP1 SWAP2 OR SWAP1 SWAP2 SSTORE DUP4 ADD DUP1 MLOAD PUSH1 0x1 SWAP2 SWAP1 PUSH2 0x320E SWAP1 DUP4 SWAP1 PUSH2 0x41A0 JUMP JUMPDEST SWAP1 MSTORE POP PUSH1 0x1 PUSH1 0x1 PUSH1 0xA0 SHL SUB DUP6 DUP2 AND PUSH1 0x0 SWAP1 DUP2 MSTORE PUSH1 0x2 PUSH1 0x20 DUP2 DUP2 MSTORE PUSH1 0x40 SWAP3 DUP4 SWAP1 KECCAK256 DUP8 MLOAD DUP2 SSTORE SWAP1 DUP8 ADD MLOAD PUSH1 0x1 DUP3 ADD DUP1 SLOAD PUSH1 0x1 PUSH1 0x1 PUSH1 0xA0 SHL SUB NOT AND SWAP2 SWAP1 SWAP6 AND OR SWAP1 SWAP4 SSTORE SWAP1 DUP6 ADD MLOAD DUP6 SWAP3 SWAP2 DUP3 ADD SWAP1 PUSH2 0x3262 SWAP1 DUP3 PUSH2 0x426B JUMP JUMPDEST POP PUSH1 0x60 DUP3 ADD MLOAD PUSH1 0x3 DUP3 ADD SWAP1 PUSH2 0x3277 SWAP1 DUP3 PUSH2 0x426B JUMP JUMPDEST POP PUSH1 0x80 DUP3 ADD MLOAD PUSH1 0x4 DUP3 ADD SSTORE PUSH1 0xA0 DUP3 ADD MLOAD PUSH1 0x5 DUP3 ADD SSTORE PUSH1 0xC0 DUP3 ADD MLOAD PUSH1 0x6 SWAP1 SWAP2 ADD DUP1 SLOAD PUSH1 0xE0 SWAP1 SWAP4 ADD MLOAD ISZERO ISZERO PUSH2 0x100 MUL PUSH2 0xFF00 NOT SWAP3 ISZERO ISZERO SWAP3 SWAP1 SWAP3 AND PUSH2 0xFFFF NOT SWAP1 SWAP4 AND SWAP3 SWAP1 SWAP3 OR OR SWAP1 SSTORE POP POP POP POP POP POP JUMP JUMPDEST PUSH1 0x60 PUSH1 0x5 PUSH1 0x0 DUP4 DUP2 MSTORE PUSH1 0x20 ADD SWAP1 DUP2 MSTORE PUSH1 0x20 ADD PUSH1 0x0 KECCAK256 DUP1 SLOAD DUP1 PUSH1 0x20 MUL PUSH1 0x20 ADD PUSH1 0x40 MLOAD SWAP1 DUP2 ADD PUSH1 0x40 MSTORE DUP1 SWAP3 SWAP2 SWAP1 DUP2 DUP2 MSTORE PUSH1 0x20 ADD PUSH1 0x0 SWAP1 JUMPDEST DUP3 DUP3 LT ISZERO PUSH2 0x2A29 JUMPI PUSH1 0x0 DUP5 DUP2 MSTORE PUSH1 0x20 SWAP1 DUP2 SWAP1 KECCAK256 PUSH1 0x40 DUP1 MLOAD PUSH1 0xC0 DUP2 ADD DUP3 MSTORE PUSH1 0x4 DUP7 MUL SWAP1 SWAP3 ADD DUP1 SLOAD DUP4 MSTORE PUSH1 0x1 DUP1 DUP3 ADD SLOAD DUP5 DUP7 ADD MSTORE PUSH1 0x2 DUP3 ADD SLOAD SWAP3 DUP5 ADD SWAP3 SWAP1 SWAP3 MSTORE PUSH1 0x3 ADD SLOAD PUSH1 0x1 PUSH1 0x1 PUSH1 0xA0 SHL SUB DUP2 AND PUSH1 0x60 DUP5 ADD MSTORE PUSH1 0xFF PUSH1 0x1 PUSH1 0xA0 SHL DUP3 DIV DUP2 AND ISZERO ISZERO PUSH1 0x80 DUP6 ADD MSTORE PUSH1 0x1 PUSH1 0xA8 SHL SWAP1 SWAP2 DIV AND ISZERO ISZERO PUSH1 0xA0 DUP4 ADD MSTORE SWAP1 DUP4 MSTORE SWAP1 SWAP3 ADD SWAP2 ADD PUSH2 0x32FA JUMP JUMPDEST PUSH1 0x60 PUSH1 0x4 PUSH1 0x0 DUP4 DUP2 MSTORE PUSH1 0x20 ADD SWAP1 DUP2 MSTORE PUSH1 0x20 ADD PUSH1 0x0 KECCAK256 DUP1 SLOAD DUP1 PUSH1 0x20 MUL PUSH1 0x20 ADD PUSH1 0x40 MLOAD SWAP1 DUP2 ADD PUSH1 0x40 MSTORE DUP1 SWAP3 SWAP2 SWAP1 DUP2 DUP2 MSTORE PUSH1 0x20 ADD PUSH1 0x0 SWAP1 JUMPDEST DUP3 DUP3 LT ISZERO PUSH2 0x2A29 JUMPI DUP4 DUP3 SWAP1 PUSH1 0x0 MSTORE PUSH1 0x20 PUSH1 0x0 KECCAK256 SWAP1 PUSH1 0x4 MUL ADD PUSH1 0x40 MLOAD DUP1 PUSH1 0x80 ADD PUSH1 0x40 MSTORE SWAP1 DUP2 PUSH1 0x0 DUP3 ADD SLOAD DUP2 MSTORE PUSH1 0x20 ADD PUSH1 0x1 DUP3 ADD SLOAD DUP2 MSTORE PUSH1 0x20 ADD PUSH1 0x2 DUP3 ADD DUP1 SLOAD PUSH2 0x33F6 SWAP1 PUSH2 0x41B3 JUMP JUMPDEST DUP1 PUSH1 0x1F ADD PUSH1 0x20 DUP1 SWAP2 DIV MUL PUSH1 0x20 ADD PUSH1 0x40 MLOAD SWAP1 DUP2 ADD PUSH1 0x40 MSTORE DUP1 SWAP3 SWAP2 SWAP1 DUP2 DUP2 MSTORE PUSH1 0x20 ADD DUP3 DUP1 SLOAD PUSH2 0x3422 SWAP1 PUSH2 0x41B3 JUMP JUMPDEST DUP1 ISZERO PUSH2 0x346F JUMPI DUP1 PUSH1 0x1F LT PUSH2 0x3444 JUMPI PUSH2 0x100 DUP1 DUP4 SLOAD DIV MUL DUP4 MSTORE SWAP2 PUSH1 0x20 ADD SWAP2 PUSH2 0x346F JUMP JUMPDEST DUP3 ADD SWAP2 SWAP1 PUSH1 0x0 MSTORE PUSH1 0x20 PUSH1 0x0 KECCAK256 SWAP1 JUMPDEST DUP2 SLOAD DUP2 MSTORE SWAP1 PUSH1 0x1 ADD SWAP1 PUSH1 0x20 ADD DUP1 DUP4 GT PUSH2 0x3452 JUMPI DUP3 SWAP1 SUB PUSH1 0x1F AND DUP3 ADD SWAP2 JUMPDEST POP POP POP SWAP2 DUP4 MSTORE POP POP PUSH1 0x3 SWAP2 SWAP1 SWAP2 ADD SLOAD PUSH1 0xFF AND ISZERO ISZERO PUSH1 0x20 SWAP2 DUP3 ADD MSTORE SWAP1 DUP3 MSTORE PUSH1 0x1 SWAP3 SWAP1 SWAP3 ADD SWAP2 ADD PUSH2 0x33AF JUMP JUMPDEST PUSH1 0x1 PUSH1 0x20 DUP2 SWAP1 MSTORE PUSH1 0x0 SWAP2 DUP3 MSTORE PUSH1 0x40 SWAP1 SWAP2 KECCAK256 DUP1 SLOAD SWAP2 DUP2 ADD SLOAD PUSH1 0x2 DUP3 ADD DUP1 SLOAD PUSH1 0x1 PUSH1 0x1 PUSH1 0xA0 SHL SUB SWAP1 SWAP3 AND SWAP3 SWAP2 PUSH2 0x34CC SWAP1 PUSH2 0x41B3 JUMP JUMPDEST DUP1 PUSH1 0x1F ADD PUSH1 0x20 DUP1 SWAP2 DIV MUL PUSH1 0x20 ADD PUSH1 0x40 MLOAD SWAP1 DUP2 ADD PUSH1 0x40 MSTORE DUP1 SWAP3 SWAP2 SWAP1 DUP2 DUP2 MSTORE PUSH1 0x20 ADD DUP3 DUP1 SLOAD PUSH2 0x34F8 SWAP1 PUSH2 0x41B3 JUMP JUMPDEST DUP1 ISZERO PUSH2 0x3545 JUMPI DUP1 PUSH1 0x1F LT PUSH2 0x351A JUMPI PUSH2 0x100 DUP1 DUP4 SLOAD DIV MUL DUP4 MSTORE SWAP2 PUSH1 0x20 ADD SWAP2 PUSH2 0x3545 JUMP JUMPDEST DUP3 ADD SWAP2 SWAP1 PUSH1 0x0 MSTORE PUSH1 0x20 PUSH1 0x0 KECCAK256 SWAP1 JUMPDEST DUP2 SLOAD DUP2 MSTORE SWAP1 PUSH1 0x1 ADD SWAP1 PUSH1 0x20 ADD DUP1 DUP4 GT PUSH2 0x3528 JUMPI DUP3 SWAP1 SUB PUSH1 0x1F AND DUP3 ADD SWAP2 JUMPDEST POP POP POP POP PUSH1 0x3 DUP4 ADD SLOAD PUSH1 0x4 SWAP1 SWAP4 ADD SLOAD SWAP2 SWAP3 SWAP2 PUSH1 0xFF DUP1 DUP3 AND SWAP3 POP PUSH2 0x100 DUP3 DIV DUP2 AND SWAP2 PUSH3 0x10000 SWAP1 DIV AND DUP8 JUMP JUMPDEST PUSH1 0x4 PUSH1 0x20 MSTORE DUP2 PUSH1 0x0 MSTORE PUSH1 0x40 PUSH1 0x0 KECCAK256 DUP2 DUP2 SLOAD DUP2 LT PUSH2 0x358C JUMPI PUSH1 0x0 DUP1 REVERT JUMPDEST SWAP1 PUSH1 0x0 MSTORE PUSH1 0x20 PUSH1 0x0 KECCAK256 SWAP1 PUSH1 0x4 MUL ADD PUSH1 0x0 SWAP2 POP SWAP2 POP POP DUP1 PUSH1 0x0 ADD SLOAD SWAP1 DUP1 PUSH1 0x1 ADD SLOAD SWAP1 DUP1 PUSH1 0x2 ADD DUP1 SLOAD PUSH2 0x35BC SWAP1 PUSH2 0x41B3 JUMP JUMPDEST DUP1 PUSH1 0x1F ADD PUSH1 0x20 DUP1 SWAP2 DIV MUL PUSH1 0x20 ADD PUSH1 0x40 MLOAD SWAP1 DUP2 ADD PUSH1 0x40 MSTORE DUP1 SWAP3 SWAP2 SWAP1 DUP2 DUP2 MSTORE PUSH1 0x20 ADD DUP3 DUP1 SLOAD PUSH2 0x35E8 SWAP1 PUSH2 0x41B3 JUMP JUMPDEST DUP1 ISZERO PUSH2 0x3635 JUMPI DUP1 PUSH1 0x1F LT PUSH2 0x360A JUMPI PUSH2 0x100 DUP1 DUP4 SLOAD DIV MUL DUP4 MSTORE SWAP2 PUSH1 0x20 ADD SWAP2 PUSH2 0x3635 JUMP JUMPDEST DUP3 ADD SWAP2 SWAP1 PUSH1 0x0 MSTORE PUSH1 0x20 PUSH1 0x0 KECCAK256 SWAP1 JUMPDEST DUP2 SLOAD DUP2 MSTORE SWAP1 PUSH1 0x1 ADD SWAP1 PUSH1 0x20 ADD DUP1 DUP4 GT PUSH2 0x3618 JUMPI DUP3 SWAP1 SUB PUSH1 0x1F AND DUP3 ADD SWAP2 JUMPDEST POP POP POP PUSH1 0x3 SWAP1 SWAP4 ADD SLOAD SWAP2 SWAP3 POP POP PUSH1 0xFF AND DUP5 JUMP JUMPDEST PUSH1 0x40 MLOAD DUP1 PUSH1 0xE0 ADD PUSH1 0x40 MSTORE DUP1 PUSH1 0x0 DUP2 MSTORE PUSH1 0x20 ADD PUSH1 0x0 PUSH1 0x1 PUSH1 0x1 PUSH1 0xA0 SHL SUB AND DUP2 MSTORE PUSH1 0x20 ADD PUSH1 0x60 DUP2 MSTORE PUSH1 0x20 ADD PUSH1 0x0 DUP2 MSTORE PUSH1 0x20 ADD PUSH1 0x0 ISZERO ISZERO DUP2 MSTORE PUSH1 0x20 ADD PUSH1 0x0 ISZERO ISZERO DUP2 MSTORE PUSH1 0x20 ADD PUSH1 0x0 ISZERO ISZERO DUP2 MSTORE POP SWAP1 JUMP JUMPDEST PUSH1 0x40 MLOAD DUP1 PUSH1 0xE0 ADD PUSH1 0x40 MSTORE DUP1 PUSH1 0x0 DUP2 MSTORE PUSH1 0x20 ADD PUSH1 0x0 PUSH1 0x1 PUSH1 0x1 PUSH1 0xA0 SHL SUB AND DUP2 MSTORE PUSH1 0x20 ADD PUSH1 0x60 DUP2 MSTORE PUSH1 0x20 ADD PUSH1 0x0 DUP2 MSTORE PUSH1 0x20 ADD PUSH1 0x0 DUP2 MSTORE PUSH1 0x20 ADD PUSH1 0x0 DUP2 MSTORE PUSH1 0x20 ADD PUSH1 0x0 ISZERO ISZERO DUP2 MSTORE POP SWAP1 JUMP JUMPDEST PUSH1 0x40 MLOAD DUP1 PUSH1 0xC0 ADD PUSH1 0x40 MSTORE DUP1 PUSH1 0x0 DUP2 MSTORE PUSH1 0x20 ADD PUSH1 0x0 DUP2 MSTORE PUSH1 0x20 ADD PUSH1 0x0 DUP2 MSTORE PUSH1 0x20 ADD PUSH1 0x0 PUSH1 0x1 PUSH1 0x1 PUSH1 0xA0 SHL SUB AND DUP2 MSTORE PUSH1 0x20 ADD PUSH1 0x0 ISZERO ISZERO DUP2 MSTORE PUSH1 0x20 ADD PUSH1 0x0 ISZERO ISZERO DUP2 MSTORE POP SWAP1 JUMP JUMPDEST PUSH1 0x40 MLOAD DUP1 PUSH2 0x100 ADD PUSH1 0x40 MSTORE DUP1 PUSH1 0x0 DUP2 MSTORE PUSH1 0x20 ADD PUSH1 0x0 PUSH1 0x1 PUSH1 0x1 PUSH1 0xA0 SHL SUB AND DUP2 MSTORE PUSH1 0x20 ADD PUSH1 0x60 DUP2 MSTORE PUSH1 0x20 ADD PUSH1 0x60 DUP2 MSTORE PUSH1 0x20 ADD PUSH1 0x0 DUP2 MSTORE PUSH1 0x20 ADD PUSH1 0x0 DUP2 MSTORE PUSH1 0x20 ADD PUSH1 0x0 ISZERO ISZERO DUP2 MSTORE PUSH1 0x20 ADD PUSH1 0x0 ISZERO ISZERO DUP2 MSTORE POP SWAP1 JUMP JUMPDEST PUSH1 0x40 MLOAD DUP1 PUSH1 0xA0 ADD PUSH1 0x40 MSTORE DUP1 PUSH1 0x0 DUP2 MSTORE PUSH1 0x20 ADD PUSH1 0x0 DUP2 MSTORE PUSH1 0x20 ADD PUSH1 0x0 PUSH1 0x1 PUSH1 0x1 PUSH1 0xA0 SHL SUB AND DUP2 MSTORE PUSH1 0x20 ADD PUSH1 0x0 DUP2 MSTORE PUSH1 0x20 ADD PUSH1 0x0 ISZERO ISZERO DUP2 MSTORE POP SWAP1 JUMP JUMPDEST PUSH1 0x0 DUP1 PUSH1 0x40 DUP4 DUP6 SUB SLT ISZERO PUSH2 0x37BE JUMPI PUSH1 0x0 DUP1 REVERT JUMPDEST POP POP DUP1 CALLDATALOAD SWAP3 PUSH1 0x20 SWAP1 SWAP2 ADD CALLDATALOAD SWAP2 POP JUMP JUMPDEST DUP1 CALLDATALOAD PUSH1 0x1 PUSH1 0x1 PUSH1 0xA0 SHL SUB DUP2 AND DUP2 EQ PUSH2 0x37E4 JUMPI PUSH1 0x0 DUP1 REVERT JUMPDEST SWAP2 SWAP1 POP JUMP JUMPDEST PUSH1 0x0 PUSH1 0x20 DUP3 DUP5 SUB SLT ISZERO PUSH2 0x37FB JUMPI PUSH1 0x0 DUP1 REVERT JUMPDEST PUSH2 0x3804 DUP3 PUSH2 0x37CD JUMP JUMPDEST SWAP4 SWAP3 POP POP POP JUMP JUMPDEST PUSH1 0x0 DUP2 MLOAD DUP1 DUP5 MSTORE PUSH1 0x0 JUMPDEST DUP2 DUP2 LT ISZERO PUSH2 0x3831 JUMPI PUSH1 0x20 DUP2 DUP6 ADD DUP2 ADD MLOAD DUP7 DUP4 ADD DUP3 ADD MSTORE ADD PUSH2 0x3815 JUMP JUMPDEST POP PUSH1 0x0 PUSH1 0x20 DUP3 DUP7 ADD ADD MSTORE PUSH1 0x20 PUSH1 0x1F NOT PUSH1 0x1F DUP4 ADD AND DUP6 ADD ADD SWAP2 POP POP SWAP3 SWAP2 POP POP JUMP JUMPDEST PUSH1 0x20 DUP2 MSTORE DUP2 MLOAD PUSH1 0x20 DUP3 ADD MSTORE PUSH1 0x1 DUP1 PUSH1 0xA0 SHL SUB PUSH1 0x20 DUP4 ADD MLOAD AND PUSH1 0x40 DUP3 ADD MSTORE PUSH1 0x0 PUSH1 0x40 DUP4 ADD MLOAD PUSH1 0xE0 PUSH1 0x60 DUP5 ADD MSTORE PUSH2 0x388A PUSH2 0x100 DUP5 ADD DUP3 PUSH2 0x380B JUMP JUMPDEST SWAP1 POP PUSH1 0x60 DUP5 ADD MLOAD PUSH1 0x80 DUP5 ADD MSTORE PUSH1 0x80 DUP5 ADD MLOAD ISZERO ISZERO PUSH1 0xA0 DUP5 ADD MSTORE PUSH1 0xA0 DUP5 ADD MLOAD ISZERO ISZERO PUSH1 0xC0 DUP5 ADD MSTORE PUSH1 0xC0 DUP5 ADD MLOAD ISZERO ISZERO PUSH1 0xE0 DUP5 ADD MSTORE DUP1 SWAP2 POP POP SWAP3 SWAP2 POP POP JUMP JUMPDEST DUP1 MLOAD DUP3 MSTORE PUSH1 0x1 DUP1 PUSH1 0xA0 SHL SUB PUSH1 0x20 DUP3 ADD MLOAD AND PUSH1 0x20 DUP4 ADD MSTORE PUSH1 0x0 PUSH1 0x40 DUP3 ADD MLOAD PUSH1 0xE0 PUSH1 0x40 DUP6 ADD MSTORE PUSH2 0x38F5 PUSH1 0xE0 DUP6 ADD DUP3 PUSH2 0x380B JUMP JUMPDEST SWAP1 POP PUSH1 0x60 DUP4 ADD MLOAD PUSH1 0x60 DUP6 ADD MSTORE PUSH1 0x80 DUP4 ADD MLOAD PUSH1 0x80 DUP6 ADD MSTORE PUSH1 0xA0 DUP4 ADD MLOAD PUSH1 0xA0 DUP6 ADD MSTORE PUSH1 0xC0 DUP4 ADD MLOAD ISZERO ISZERO PUSH1 0xC0 DUP6 ADD MSTORE DUP1 SWAP2 POP POP SWAP3 SWAP2 POP POP JUMP JUMPDEST PUSH1 0x0 PUSH1 0x20 DUP1 DUP4 ADD DUP2 DUP5 MSTORE DUP1 DUP6 MLOAD DUP1 DUP4 MSTORE PUSH1 0x40 DUP7 ADD SWAP2 POP PUSH1 0x40 DUP2 PUSH1 0x5 SHL DUP8 ADD ADD SWAP3 POP DUP4 DUP8 ADD PUSH1 0x0 JUMPDEST DUP3 DUP2 LT ISZERO PUSH2 0x3980 JUMPI PUSH1 0x3F NOT DUP9 DUP7 SUB ADD DUP5 MSTORE PUSH2 0x396E DUP6 DUP4 MLOAD PUSH2 0x38C4 JUMP JUMPDEST SWAP5 POP SWAP3 DUP6 ADD SWAP3 SWAP1 DUP6 ADD SWAP1 PUSH1 0x1 ADD PUSH2 0x3952 JUMP JUMPDEST POP SWAP3 SWAP8 SWAP7 POP POP POP POP POP POP POP JUMP JUMPDEST DUP9 DUP2 MSTORE PUSH1 0x1 PUSH1 0x1 PUSH1 0xA0 SHL SUB DUP9 AND PUSH1 0x20 DUP3 ADD MSTORE PUSH2 0x100 PUSH1 0x40 DUP3 ADD DUP2 SWAP1 MSTORE PUSH1 0x0 SWAP1 PUSH2 0x39B8 DUP4 DUP3 ADD DUP11 PUSH2 0x380B JUMP JUMPDEST SWAP1 POP DUP3 DUP2 SUB PUSH1 0x60 DUP5 ADD MSTORE PUSH2 0x39CC DUP2 DUP10 PUSH2 0x380B JUMP JUMPDEST PUSH1 0x80 DUP5 ADD SWAP8 SWAP1 SWAP8 MSTORE POP POP PUSH1 0xA0 DUP2 ADD SWAP4 SWAP1 SWAP4 MSTORE SWAP1 ISZERO ISZERO PUSH1 0xC0 DUP4 ADD MSTORE ISZERO ISZERO PUSH1 0xE0 SWAP1 SWAP2 ADD MSTORE SWAP5 SWAP4 POP POP POP POP JUMP JUMPDEST PUSH4 0x4E487B71 PUSH1 0xE0 SHL PUSH1 0x0 MSTORE PUSH1 0x41 PUSH1 0x4 MSTORE PUSH1 0x24 PUSH1 0x0 REVERT JUMPDEST PUSH1 0x40 MLOAD PUSH1 0x1F DUP3 ADD PUSH1 0x1F NOT AND DUP2 ADD PUSH1 0x1 PUSH1 0x1 PUSH1 0x40 SHL SUB DUP2 GT DUP3 DUP3 LT OR ISZERO PUSH2 0x3A34 JUMPI PUSH2 0x3A34 PUSH2 0x39F6 JUMP JUMPDEST PUSH1 0x40 MSTORE SWAP2 SWAP1 POP JUMP JUMPDEST PUSH1 0x0 DUP3 PUSH1 0x1F DUP4 ADD SLT PUSH2 0x3A4D JUMPI PUSH1 0x0 DUP1 REVERT JUMPDEST DUP2 CALLDATALOAD PUSH1 0x1 PUSH1 0x1 PUSH1 0x40 SHL SUB DUP2 GT ISZERO PUSH2 0x3A66 JUMPI PUSH2 0x3A66 PUSH2 0x39F6 JUMP JUMPDEST PUSH2 0x3A79 PUSH1 0x1F DUP3 ADD PUSH1 0x1F NOT AND PUSH1 0x20 ADD PUSH2 0x3A0C JUMP JUMPDEST DUP2 DUP2 MSTORE DUP5 PUSH1 0x20 DUP4 DUP7 ADD ADD GT ISZERO PUSH2 0x3A8E JUMPI PUSH1 0x0 DUP1 REVERT JUMPDEST DUP2 PUSH1 0x20 DUP6 ADD PUSH1 0x20 DUP4 ADD CALLDATACOPY PUSH1 0x0 SWAP2 DUP2 ADD PUSH1 0x20 ADD SWAP2 SWAP1 SWAP2 MSTORE SWAP4 SWAP3 POP POP POP JUMP JUMPDEST PUSH1 0x0 DUP1 PUSH1 0x0 PUSH1 0x60 DUP5 DUP7 SUB SLT ISZERO PUSH2 0x3AC0 JUMPI PUSH1 0x0 DUP1 REVERT JUMPDEST PUSH2 0x3AC9 DUP5 PUSH2 0x37CD JUMP JUMPDEST SWAP3 POP PUSH1 0x20 DUP5 ADD CALLDATALOAD PUSH1 0x1 PUSH1 0x1 PUSH1 0x40 SHL SUB DUP2 GT ISZERO PUSH2 0x3AE4 JUMPI PUSH1 0x0 DUP1 REVERT JUMPDEST PUSH2 0x3AF0 DUP7 DUP3 DUP8 ADD PUSH2 0x3A3C JUMP JUMPDEST SWAP3 POP POP PUSH1 0x40 DUP5 ADD CALLDATALOAD SWAP1 POP SWAP3 POP SWAP3 POP SWAP3 JUMP JUMPDEST PUSH1 0x0 PUSH1 0x20 DUP3 DUP5 SUB SLT ISZERO PUSH2 0x3B13 JUMPI PUSH1 0x0 DUP1 REVERT JUMPDEST POP CALLDATALOAD SWAP2 SWAP1 POP JUMP JUMPDEST DUP8 DUP2 MSTORE PUSH1 0x1 PUSH1 0x1 PUSH1 0xA0 SHL SUB DUP8 AND PUSH1 0x20 DUP3 ADD MSTORE PUSH1 0xE0 PUSH1 0x40 DUP3 ADD DUP2 SWAP1 MSTORE PUSH1 0x0 SWAP1 PUSH2 0x3B44 SWAP1 DUP4 ADD DUP9 PUSH2 0x380B JUMP JUMPDEST SWAP1 POP DUP6 PUSH1 0x60 DUP4 ADD MSTORE DUP5 PUSH1 0x80 DUP4 ADD MSTORE DUP4 PUSH1 0xA0 DUP4 ADD MSTORE DUP3 ISZERO ISZERO PUSH1 0xC0 DUP4 ADD MSTORE SWAP9 SWAP8 POP POP POP POP POP POP POP POP JUMP JUMPDEST PUSH1 0x0 DUP1 PUSH1 0x40 DUP4 DUP6 SUB SLT ISZERO PUSH2 0x3B7F JUMPI PUSH1 0x0 DUP1 REVERT JUMPDEST DUP3 CALLDATALOAD SWAP2 POP PUSH2 0x3B8F PUSH1 0x20 DUP5 ADD PUSH2 0x37CD JUMP JUMPDEST SWAP1 POP SWAP3 POP SWAP3 SWAP1 POP JUMP JUMPDEST PUSH1 0x20 DUP1 DUP3 MSTORE DUP3 MLOAD DUP3 DUP3 ADD DUP2 SWAP1 MSTORE PUSH1 0x0 SWAP2 SWAP1 PUSH1 0x40 SWAP1 DUP2 DUP6 ADD SWAP1 DUP7 DUP5 ADD DUP6 JUMPDEST DUP3 DUP2 LT ISZERO PUSH2 0x3C10 JUMPI DUP2 MLOAD DUP1 MLOAD DUP6 MSTORE DUP7 DUP2 ADD MLOAD DUP8 DUP7 ADD MSTORE DUP6 DUP2 ADD MLOAD DUP7 DUP7 ADD MSTORE PUSH1 0x60 DUP1 DUP3 ADD MLOAD PUSH1 0x1 PUSH1 0x1 PUSH1 0xA0 SHL SUB AND SWAP1 DUP7 ADD MSTORE PUSH1 0x80 DUP1 DUP3 ADD MLOAD ISZERO ISZERO SWAP1 DUP7 ADD MSTORE PUSH1 0xA0 SWAP1 DUP2 ADD MLOAD ISZERO ISZERO SWAP1 DUP6 ADD MSTORE PUSH1 0xC0 SWAP1 SWAP4 ADD SWAP3 SWAP1 DUP6 ADD SWAP1 PUSH1 0x1 ADD PUSH2 0x3BB5 JUMP JUMPDEST POP SWAP2 SWAP8 SWAP7 POP POP POP POP POP POP POP JUMP JUMPDEST PUSH1 0x0 PUSH2 0x100 DUP3 MLOAD DUP5 MSTORE PUSH1 0x1 DUP1 PUSH1 0xA0 SHL SUB PUSH1 0x20 DUP5 ADD MLOAD AND PUSH1 0x20 DUP6 ADD MSTORE PUSH1 0x40 DUP4 ADD MLOAD DUP2 PUSH1 0x40 DUP7 ADD MSTORE PUSH2 0x3C4F DUP3 DUP7 ADD DUP3 PUSH2 0x380B JUMP JUMPDEST SWAP2 POP POP PUSH1 0x60 DUP4 ADD MLOAD DUP5 DUP3 SUB PUSH1 0x60 DUP7 ADD MSTORE PUSH2 0x3C69 DUP3 DUP3 PUSH2 0x380B JUMP JUMPDEST SWAP2 POP POP PUSH1 0x80 DUP4 ADD MLOAD PUSH1 0x80 DUP6 ADD MSTORE PUSH1 0xA0 DUP4 ADD MLOAD PUSH1 0xA0 DUP6 ADD MSTORE PUSH1 0xC0 DUP4 ADD MLOAD ISZERO ISZERO PUSH1 0xC0 DUP6 ADD MSTORE PUSH1 0xE0 DUP4 ADD MLOAD PUSH2 0x3C9F PUSH1 0xE0 DUP7 ADD DUP3 ISZERO ISZERO SWAP1 MSTORE JUMP JUMPDEST POP SWAP4 SWAP3 POP POP POP JUMP JUMPDEST PUSH1 0x20 DUP2 MSTORE PUSH1 0x0 PUSH2 0x3804 PUSH1 0x20 DUP4 ADD DUP5 PUSH2 0x3C1D JUMP JUMPDEST PUSH1 0x20 DUP1 DUP3 MSTORE DUP3 MLOAD DUP3 DUP3 ADD DUP2 SWAP1 MSTORE PUSH1 0x0 SWAP2 SWAP1 PUSH1 0x40 SWAP1 DUP2 DUP6 ADD SWAP1 DUP7 DUP5 ADD DUP6 JUMPDEST DUP3 DUP2 LT ISZERO PUSH2 0x3C10 JUMPI DUP2 MLOAD DUP1 MLOAD DUP6 MSTORE DUP7 DUP2 ADD MLOAD DUP8 DUP7 ADD MSTORE DUP6 DUP2 ADD MLOAD PUSH1 0x1 PUSH1 0x1 PUSH1 0xA0 SHL SUB AND DUP7 DUP7 ADD MSTORE PUSH1 0x60 DUP1 DUP3 ADD MLOAD SWAP1 DUP7 ADD MSTORE PUSH1 0x80 SWAP1 DUP2 ADD MLOAD ISZERO ISZERO SWAP1 DUP6 ADD MSTORE PUSH1 0xA0 SWAP1 SWAP4 ADD SWAP3 SWAP1 DUP6 ADD SWAP1 PUSH1 0x1 ADD PUSH2 0x3CD7 JUMP JUMPDEST PUSH1 0x0 DUP1 PUSH1 0x0 DUP1 PUSH1 0x80 DUP6 DUP8 SUB SLT ISZERO PUSH2 0x3D3C JUMPI PUSH1 0x0 DUP1 REVERT JUMPDEST PUSH2 0x3D45 DUP6 PUSH2 0x37CD JUMP JUMPDEST SWAP4 POP PUSH1 0x20 DUP6 ADD CALLDATALOAD PUSH1 0x1 PUSH1 0x1 PUSH1 0x40 SHL SUB DUP1 DUP3 GT ISZERO PUSH2 0x3D61 JUMPI PUSH1 0x0 DUP1 REVERT JUMPDEST PUSH2 0x3D6D DUP9 DUP4 DUP10 ADD PUSH2 0x3A3C JUMP JUMPDEST SWAP5 POP PUSH1 0x40 DUP8 ADD CALLDATALOAD SWAP2 POP DUP1 DUP3 GT ISZERO PUSH2 0x3D83 JUMPI PUSH1 0x0 DUP1 REVERT JUMPDEST POP PUSH2 0x3D90 DUP8 DUP3 DUP9 ADD PUSH2 0x3A3C JUMP JUMPDEST SWAP5 SWAP8 SWAP4 SWAP7 POP SWAP4 SWAP5 PUSH1 0x60 ADD CALLDATALOAD SWAP4 POP POP POP JUMP JUMPDEST PUSH1 0x0 PUSH1 0x1 PUSH1 0x1 PUSH1 0x40 SHL SUB DUP3 GT ISZERO PUSH2 0x3DBA JUMPI PUSH2 0x3DBA PUSH2 0x39F6 JUMP JUMPDEST POP PUSH1 0x5 SHL PUSH1 0x20 ADD SWAP1 JUMP JUMPDEST PUSH1 0x0 DUP1 PUSH1 0x0 DUP1 PUSH1 0x0 DUP1 PUSH1 0xC0 DUP8 DUP10 SUB SLT ISZERO PUSH2 0x3DDD JUMPI PUSH1 0x0 DUP1 REVERT JUMPDEST PUSH2 0x3DE6 DUP8 PUSH2 0x37CD JUMP JUMPDEST SWAP6 POP PUSH1 0x20 DUP1 DUP9 ADD CALLDATALOAD PUSH1 0x1 PUSH1 0x1 PUSH1 0x40 SHL SUB DUP1 DUP3 GT ISZERO PUSH2 0x3E03 JUMPI PUSH1 0x0 DUP1 REVERT JUMPDEST PUSH2 0x3E0F DUP12 DUP4 DUP13 ADD PUSH2 0x3A3C JUMP JUMPDEST SWAP8 POP PUSH1 0x40 DUP11 ADD CALLDATALOAD SWAP7 POP PUSH1 0x60 DUP11 ADD CALLDATALOAD SWAP6 POP PUSH1 0x80 DUP11 ADD CALLDATALOAD SWAP2 POP DUP1 DUP3 GT ISZERO PUSH2 0x3E33 JUMPI PUSH1 0x0 DUP1 REVERT JUMPDEST DUP2 DUP11 ADD SWAP2 POP DUP11 PUSH1 0x1F DUP4 ADD SLT PUSH2 0x3E47 JUMPI PUSH1 0x0 DUP1 REVERT JUMPDEST DUP2 CALLDATALOAD PUSH2 0x3E5A PUSH2 0x3E55 DUP3 PUSH2 0x3DA1 JUMP JUMPDEST PUSH2 0x3A0C JUMP JUMPDEST DUP2 DUP2 MSTORE PUSH1 0x5 SWAP2 SWAP1 SWAP2 SHL DUP4 ADD DUP5 ADD SWAP1 DUP5 DUP2 ADD SWAP1 DUP14 DUP4 GT ISZERO PUSH2 0x3E79 JUMPI PUSH1 0x0 DUP1 REVERT JUMPDEST DUP6 DUP6 ADD JUMPDEST DUP4 DUP2 LT ISZERO PUSH2 0x3EAF JUMPI DUP5 DUP2 CALLDATALOAD GT ISZERO PUSH2 0x3E93 JUMPI PUSH1 0x0 DUP1 REVERT JUMPDEST PUSH2 0x3EA2 DUP16 DUP9 DUP4 CALLDATALOAD DUP10 ADD ADD PUSH2 0x3A3C JUMP JUMPDEST DUP4 MSTORE SWAP2 DUP7 ADD SWAP2 DUP7 ADD PUSH2 0x3E7D JUMP JUMPDEST POP DUP1 SWAP8 POP POP POP POP POP POP POP PUSH1 0xA0 DUP8 ADD CALLDATALOAD SWAP1 POP SWAP3 SWAP6 POP SWAP3 SWAP6 POP SWAP3 SWAP6 JUMP JUMPDEST PUSH1 0x0 PUSH1 0x20 DUP1 DUP4 ADD DUP2 DUP5 MSTORE DUP1 DUP6 MLOAD DUP1 DUP4 MSTORE PUSH1 0x40 DUP7 ADD SWAP2 POP PUSH1 0x40 DUP2 PUSH1 0x5 SHL DUP8 ADD ADD SWAP3 POP DUP4 DUP8 ADD PUSH1 0x0 JUMPDEST DUP3 DUP2 LT ISZERO PUSH2 0x3980 JUMPI PUSH1 0x3F NOT DUP9 DUP7 SUB ADD DUP5 MSTORE PUSH2 0x3F0D DUP6 DUP4 MLOAD PUSH2 0x3C1D JUMP JUMPDEST SWAP5 POP SWAP3 DUP6 ADD SWAP3 SWAP1 DUP6 ADD SWAP1 PUSH1 0x1 ADD PUSH2 0x3EF1 JUMP JUMPDEST PUSH1 0x0 DUP1 PUSH1 0x40 DUP4 DUP6 SUB SLT ISZERO PUSH2 0x3F32 JUMPI PUSH1 0x0 DUP1 REVERT JUMPDEST PUSH2 0x3F3B DUP4 PUSH2 0x37CD JUMP JUMPDEST SWAP5 PUSH1 0x20 SWAP4 SWAP1 SWAP4 ADD CALLDATALOAD SWAP4 POP POP POP JUMP JUMPDEST PUSH1 0x0 DUP1 PUSH1 0x0 DUP1 PUSH1 0x80 DUP6 DUP8 SUB SLT ISZERO PUSH2 0x3F5F JUMPI PUSH1 0x0 DUP1 REVERT JUMPDEST DUP5 CALLDATALOAD SWAP4 POP PUSH1 0x20 DUP6 ADD CALLDATALOAD SWAP3 POP PUSH1 0x40 DUP6 ADD CALLDATALOAD SWAP2 POP PUSH2 0x3F7D PUSH1 0x60 DUP7 ADD PUSH2 0x37CD JUMP JUMPDEST SWAP1 POP SWAP3 SWAP6 SWAP2 SWAP5 POP SWAP3 POP JUMP JUMPDEST PUSH1 0x20 DUP2 MSTORE PUSH1 0x0 PUSH2 0x3804 PUSH1 0x20 DUP4 ADD DUP5 PUSH2 0x38C4 JUMP JUMPDEST DUP1 ISZERO ISZERO DUP2 EQ PUSH2 0x3FA9 JUMPI PUSH1 0x0 DUP1 REVERT JUMPDEST POP JUMP JUMPDEST PUSH1 0x0 DUP1 PUSH1 0x0 PUSH1 0x60 DUP5 DUP7 SUB SLT ISZERO PUSH2 0x3FC1 JUMPI PUSH1 0x0 DUP1 REVERT JUMPDEST DUP4 CALLDATALOAD SWAP3 POP PUSH1 0x20 PUSH2 0x3FD2 DUP2 DUP7 ADD PUSH2 0x37CD JUMP JUMPDEST SWAP3 POP PUSH1 0x40 DUP6 ADD CALLDATALOAD PUSH1 0x1 PUSH1 0x1 PUSH1 0x40 SHL SUB DUP2 GT ISZERO PUSH2 0x3FED JUMPI PUSH1 0x0 DUP1 REVERT JUMPDEST DUP6 ADD PUSH1 0x1F DUP2 ADD DUP8 SGT PUSH2 0x3FFE JUMPI PUSH1 0x0 DUP1 REVERT JUMPDEST DUP1 CALLDATALOAD PUSH2 0x400C PUSH2 0x3E55 DUP3 PUSH2 0x3DA1 JUMP JUMPDEST DUP2 DUP2 MSTORE PUSH1 0x5 SWAP2 SWAP1 SWAP2 SHL DUP3 ADD DUP4 ADD SWAP1 DUP4 DUP2 ADD SWAP1 DUP10 DUP4 GT ISZERO PUSH2 0x402B JUMPI PUSH1 0x0 DUP1 REVERT JUMPDEST SWAP3 DUP5 ADD SWAP3 JUMPDEST DUP3 DUP5 LT ISZERO PUSH2 0x4052 JUMPI DUP4 CALLDATALOAD PUSH2 0x4043 DUP2 PUSH2 0x3F9B JUMP JUMPDEST DUP3 MSTORE SWAP3 DUP5 ADD SWAP3 SWAP1 DUP5 ADD SWAP1 PUSH2 0x4030 JUMP JUMPDEST DUP1 SWAP6 POP POP POP POP POP POP SWAP3 POP SWAP3 POP SWAP3 JUMP JUMPDEST PUSH1 0x0 PUSH1 0x20 DUP1 DUP4 ADD DUP2 DUP5 MSTORE DUP1 DUP6 MLOAD DUP1 DUP4 MSTORE PUSH1 0x40 SWAP3 POP DUP3 DUP7 ADD SWAP2 POP DUP3 DUP2 PUSH1 0x5 SHL DUP8 ADD ADD DUP5 DUP9 ADD PUSH1 0x0 JUMPDEST DUP4 DUP2 LT ISZERO PUSH2 0x40E1 JUMPI PUSH1 0x3F NOT DUP10 DUP5 SUB ADD DUP6 MSTORE DUP2 MLOAD PUSH1 0x80 DUP2 MLOAD DUP6 MSTORE DUP9 DUP3 ADD MLOAD DUP10 DUP7 ADD MSTORE DUP8 DUP3 ADD MLOAD DUP2 DUP10 DUP8 ADD MSTORE PUSH2 0x40BE DUP3 DUP8 ADD DUP3 PUSH2 0x380B JUMP JUMPDEST PUSH1 0x60 SWAP4 DUP5 ADD MLOAD ISZERO ISZERO SWAP7 SWAP1 SWAP4 ADD SWAP6 SWAP1 SWAP6 MSTORE POP SWAP5 DUP8 ADD SWAP5 SWAP3 POP SWAP1 DUP7 ADD SWAP1 PUSH1 0x1 ADD PUSH2 0x4088 JUMP JUMPDEST POP SWAP1 SWAP9 SWAP8 POP POP POP POP POP POP POP POP JUMP JUMPDEST DUP8 DUP2 MSTORE PUSH1 0x1 PUSH1 0x1 PUSH1 0xA0 SHL SUB DUP8 AND PUSH1 0x20 DUP3 ADD MSTORE PUSH1 0xE0 PUSH1 0x40 DUP3 ADD DUP2 SWAP1 MSTORE PUSH1 0x0 SWAP1 PUSH2 0x4119 SWAP1 DUP4 ADD DUP9 PUSH2 0x380B JUMP JUMPDEST PUSH1 0x60 DUP4 ADD SWAP7 SWAP1 SWAP7 MSTORE POP SWAP3 ISZERO ISZERO PUSH1 0x80 DUP5 ADD MSTORE SWAP1 ISZERO ISZERO PUSH1 0xA0 DUP4 ADD MSTORE ISZERO ISZERO PUSH1 0xC0 SWAP1 SWAP2 ADD MSTORE SWAP4 SWAP3 POP POP POP JUMP JUMPDEST DUP5 DUP2 MSTORE DUP4 PUSH1 0x20 DUP3 ADD MSTORE PUSH1 0x80 PUSH1 0x40 DUP3 ADD MSTORE PUSH1 0x0 PUSH2 0x4160 PUSH1 0x80 DUP4 ADD DUP6 PUSH2 0x380B JUMP JUMPDEST SWAP1 POP DUP3 ISZERO ISZERO PUSH1 0x60 DUP4 ADD MSTORE SWAP6 SWAP5 POP POP POP POP POP JUMP JUMPDEST PUSH4 0x4E487B71 PUSH1 0xE0 SHL PUSH1 0x0 MSTORE PUSH1 0x11 PUSH1 0x4 MSTORE PUSH1 0x24 PUSH1 0x0 REVERT JUMPDEST DUP1 DUP3 MUL DUP2 ISZERO DUP3 DUP3 DIV DUP5 EQ OR PUSH2 0x7EF JUMPI PUSH2 0x7EF PUSH2 0x4173 JUMP JUMPDEST DUP1 DUP3 ADD DUP1 DUP3 GT ISZERO PUSH2 0x7EF JUMPI PUSH2 0x7EF PUSH2 0x4173 JUMP JUMPDEST PUSH1 0x1 DUP2 DUP2 SHR SWAP1 DUP3 AND DUP1 PUSH2 0x41C7 JUMPI PUSH1 0x7F DUP3 AND SWAP2 POP JUMPDEST PUSH1 0x20 DUP3 LT DUP2 SUB PUSH2 0x41E7 JUMPI PUSH4 0x4E487B71 PUSH1 0xE0 SHL PUSH1 0x0 MSTORE PUSH1 0x22 PUSH1 0x4 MSTORE PUSH1 0x24 PUSH1 0x0 REVERT JUMPDEST POP SWAP2 SWAP1 POP JUMP JUMPDEST PUSH4 0x4E487B71 PUSH1 0xE0 SHL PUSH1 0x0 MSTORE PUSH1 0x32 PUSH1 0x4 MSTORE PUSH1 0x24 PUSH1 0x0 REVERT JUMPDEST PUSH1 0x0 PUSH1 0x1 DUP3 ADD PUSH2 0x4215 JUMPI PUSH2 0x4215 PUSH2 0x4173 JUMP JUMPDEST POP PUSH1 0x1 ADD SWAP1 JUMP JUMPDEST PUSH1 0x1F DUP3 GT ISZERO PUSH2 0x4266 JUMPI PUSH1 0x0 DUP2 DUP2 MSTORE PUSH1 0x20 DUP2 KECCAK256 PUSH1 0x1F DUP6 ADD PUSH1 0x5 SHR DUP2 ADD PUSH1 0x20 DUP7 LT ISZERO PUSH2 0x4243 JUMPI POP DUP1 JUMPDEST PUSH1 0x1F DUP6 ADD PUSH1 0x5 SHR DUP3 ADD SWAP2 POP JUMPDEST DUP2 DUP2 LT ISZERO PUSH2 0x4262 JUMPI DUP3 DUP2 SSTORE PUSH1 0x1 ADD PUSH2 0x424F JUMP JUMPDEST POP POP POP JUMPDEST POP POP POP JUMP JUMPDEST DUP2 MLOAD PUSH1 0x1 PUSH1 0x1 PUSH1 0x40 SHL SUB DUP2 GT ISZERO PUSH2 0x4284 JUMPI PUSH2 0x4284 PUSH2 0x39F6 JUMP JUMPDEST PUSH2 0x4298 DUP2 PUSH2 0x4292 DUP5 SLOAD PUSH2 0x41B3 JUMP JUMPDEST DUP5 PUSH2 0x421C JUMP JUMPDEST PUSH1 0x20 DUP1 PUSH1 0x1F DUP4 GT PUSH1 0x1 DUP2 EQ PUSH2 0x42CD JUMPI PUSH1 0x0 DUP5 ISZERO PUSH2 0x42B5 JUMPI POP DUP6 DUP4 ADD MLOAD JUMPDEST PUSH1 0x0 NOT PUSH1 0x3 DUP7 SWAP1 SHL SHR NOT AND PUSH1 0x1 DUP6 SWAP1 SHL OR DUP6 SSTORE PUSH2 0x4262 JUMP JUMPDEST PUSH1 0x0 DUP6 DUP2 MSTORE PUSH1 0x20 DUP2 KECCAK256 PUSH1 0x1F NOT DUP7 AND SWAP2 JUMPDEST DUP3 DUP2 LT ISZERO PUSH2 0x42FC JUMPI DUP9 DUP7 ADD MLOAD DUP3 SSTORE SWAP5 DUP5 ADD SWAP5 PUSH1 0x1 SWAP1 SWAP2 ADD SWAP1 DUP5 ADD PUSH2 0x42DD JUMP JUMPDEST POP DUP6 DUP3 LT ISZERO PUSH2 0x431A JUMPI DUP8 DUP6 ADD MLOAD PUSH1 0x0 NOT PUSH1 0x3 DUP9 SWAP1 SHL PUSH1 0xF8 AND SHR NOT AND DUP2 SSTORE JUMPDEST POP POP POP POP POP PUSH1 0x1 SWAP1 DUP2 SHL ADD SWAP1 SSTORE POP JUMP JUMPDEST PUSH1 0x0 DUP3 PUSH2 0x4347 JUMPI PUSH4 0x4E487B71 PUSH1 0xE0 SHL PUSH1 0x0 MSTORE PUSH1 0x12 PUSH1 0x4 MSTORE PUSH1 0x24 PUSH1 0x0 REVERT JUMPDEST POP DIV SWAP1 JUMP JUMPDEST PUSH1 0x0 PUSH1 0x20 DUP3 DUP5 SUB SLT ISZERO PUSH2 0x435E JUMPI PUSH1 0x0 DUP1 REVERT JUMPDEST DUP2 MLOAD PUSH2 0x7EC DUP2 PUSH2 0x3F9B JUMP INVALID LOG2 PUSH5 0x6970667358 0x22 SLT KECCAK256 0x24 KECCAK256 SWAP8 0x2D POP LOG0 ADDRESS SSTORE 0x4B 0xB6 DUP4 0xBA SELFDESTRUCT 0xDE 0xC9 SWAP13 0x4D PUSH3 0x57E39D 0xAB 0xD2 0xB6 0x4A SMOD PUSH22 0xFCCDB711DF64736F6C63430008130033000000000000 "
				},
				"gasEstimates": {
					"creation": {
						"codeDepositCost": "3462200",
						"executionCost": "infinite",
						"totalCost": "infinite"
					},
					"external": {
						"allAnswers(uint256,uint256)": "11283",
						"allEarnings(uint256)": "13282",
						"allFundings(uint256)": "13304",
						"allParticipants(address)": "infinite",
						"allQuestions(uint256,uint256)": "infinite",
						"allResearchers(address)": "infinite",
						"allSurveys(uint256)": "infinite",
						"checkIfParticipantExists(address)": "2726",
						"checkIfParticipantHasAlreadyParticipatedInSurvey(address,uint256)": "2712",
						"checkIfResearcherExists(address)": "2662",
						"createFunding(uint256,uint256,uint256,address)": "infinite",
						"createParticipant(address,string,string,uint256)": "infinite",
						"createResearcher(address,string,uint256)": "infinite",
						"createSurvey(address,string,uint256,uint256,string[],uint256)": "infinite",
						"getAllAnswersOfParticipantOfSurvey(uint256,address)": "infinite",
						"getAllEarningsMadeByParticipant(address)": "infinite",
						"getAllQuestionsOfSurvey(uint256)": "infinite",
						"getAllSurveys()": "infinite",
						"getAllSurveysTakenByParticipant(address)": "infinite",
						"getAmountOfEarningForCanvassingForSurveyPerParticipantInWei(uint256,uint256)": "infinite",
						"getAmountOfEarningPerParticipantForSurveyInWei(uint256)": "infinite",
						"getAmountOfFundingOfAnySurveyInWei(uint256,uint256)": "infinite",
						"getAnswersOfSurvey(uint256)": "infinite",
						"getIdsOfLatestSurveysCreatedByResearchers(address)": "2572",
						"getParticipantByWalletAddress(address)": "infinite",
						"getParticipantsOfSurvey(uint256)": "infinite",
						"getResearcherByWalletAddress(address)": "infinite",
						"getSurveyById(uint256)": "infinite",
						"getSurveysCreatedByResearcher(address)": "infinite",
						"getTotalAmountFundedByResearchersInWei(address)": "2660",
						"getTotalAmountOfEarningsReceivedByParticipantInWei(address)": "infinite",
						"getTotalNumberOfSurveyCreatedByResearcher(address)": "2593",
						"idsOfLatestSurveysCreatedByResearchers(address)": "2596",
						"makePayoutAndCreateEarning(uint256,address)": "infinite",
						"participantsOfSurvey(uint256,uint256)": "infinite",
						"participateInSurvey(uint256,address,bool[])": "infinite",
						"participationStatusForSurvey(uint256,address)": "2740",
						"payoutStatusOfParticipantForSurvey(uint256,address)": "2696",
						"totalAmountFundedByResearchersInWei(address)": "2641",
						"totalNumberOfSurveysCreatedByResearchers(address)": "2597",
						"verifyResearcher(address)": "infinite"
					}
				},
				"methodIdentifiers": {
					"allAnswers(uint256,uint256)": "69bff3fb",
					"allEarnings(uint256)": "8e6da619",
					"allFundings(uint256)": "95ecea1f",
					"allParticipants(address)": "5b76074e",
					"allQuestions(uint256,uint256)": "fb47e9e6",
					"allResearchers(address)": "f692a3bb",
					"allSurveys(uint256)": "1b6f2485",
					"checkIfParticipantExists(address)": "6f5fde11",
					"checkIfParticipantHasAlreadyParticipatedInSurvey(address,uint256)": "a58543fe",
					"checkIfResearcherExists(address)": "9a23218f",
					"createFunding(uint256,uint256,uint256,address)": "b3265ecd",
					"createParticipant(address,string,string,uint256)": "3b43b7d0",
					"createResearcher(address,string,uint256)": "196f7f1e",
					"createSurvey(address,string,uint256,uint256,string[],uint256)": "68df3299",
					"getAllAnswersOfParticipantOfSurvey(uint256,address)": "2076a35a",
					"getAllEarningsMadeByParticipant(address)": "392a5822",
					"getAllQuestionsOfSurvey(uint256)": "f31e72e4",
					"getAllSurveys()": "7a1bc375",
					"getAllSurveysTakenByParticipant(address)": "3abb615a",
					"getAmountOfEarningForCanvassingForSurveyPerParticipantInWei(uint256,uint256)": "44962609",
					"getAmountOfEarningPerParticipantForSurveyInWei(uint256)": "1bd1ebc4",
					"getAmountOfFundingOfAnySurveyInWei(uint256,uint256)": "03f16747",
					"getAnswersOfSurvey(uint256)": "cc4903ca",
					"getIdsOfLatestSurveysCreatedByResearchers(address)": "3882db7d",
					"getParticipantByWalletAddress(address)": "2394e5dc",
					"getParticipantsOfSurvey(uint256)": "964f6566",
					"getResearcherByWalletAddress(address)": "0478318b",
					"getSurveyById(uint256)": "c0ac4ae4",
					"getSurveysCreatedByResearcher(address)": "07f6646e",
					"getTotalAmountFundedByResearchersInWei(address)": "3bdd0ad1",
					"getTotalAmountOfEarningsReceivedByParticipantInWei(address)": "25f18424",
					"getTotalNumberOfSurveyCreatedByResearcher(address)": "4fe1cfad",
					"idsOfLatestSurveysCreatedByResearchers(address)": "d7e93794",
					"makePayoutAndCreateEarning(uint256,address)": "6b8ac0e7",
					"participantsOfSurvey(uint256,uint256)": "125bb83d",
					"participateInSurvey(uint256,address,bool[])": "ca2e7f9b",
					"participationStatusForSurvey(uint256,address)": "b9c745b3",
					"payoutStatusOfParticipantForSurvey(uint256,address)": "7e950819",
					"totalAmountFundedByResearchersInWei(address)": "5fa7a90a",
					"totalNumberOfSurveysCreatedByResearchers(address)": "5822bff1",
					"verifyResearcher(address)": "73fd653d"
				}
			},
			"storageLayout": {
				"storage": [
					{
						"astId": 14,
						"contract": "smart-contracts/playground/main/Canvassing.sol:Canvassing",
						"label": "canvassingWalletAddress",
						"offset": 0,
						"slot": "0",
						"type": "t_address"
					},
					{
						"astId": 19,
						"contract": "smart-contracts/playground/main/Canvassing.sol:Canvassing",
						"label": "allResearchers",
						"offset": 0,
						"slot": "1",
						"type": "t_mapping(t_address,t_struct(Researcher)1642_storage)"
					},
					{
						"astId": 24,
						"contract": "smart-contracts/playground/main/Canvassing.sol:Canvassing",
						"label": "allParticipants",
						"offset": 0,
						"slot": "2",
						"type": "t_mapping(t_address,t_struct(Participant)1659_storage)"
					},
					{
						"astId": 28,
						"contract": "smart-contracts/playground/main/Canvassing.sol:Canvassing",
						"label": "allSurveys",
						"offset": 0,
						"slot": "3",
						"type": "t_array(t_struct(Survey)1674_storage)dyn_storage"
					},
					{
						"astId": 34,
						"contract": "smart-contracts/playground/main/Canvassing.sol:Canvassing",
						"label": "allQuestions",
						"offset": 0,
						"slot": "4",
						"type": "t_mapping(t_uint256,t_array(t_struct(Question)1683_storage)dyn_storage)"
					},
					{
						"astId": 40,
						"contract": "smart-contracts/playground/main/Canvassing.sol:Canvassing",
						"label": "allAnswers",
						"offset": 0,
						"slot": "5",
						"type": "t_mapping(t_uint256,t_array(t_struct(Answer)1696_storage)dyn_storage)"
					},
					{
						"astId": 46,
						"contract": "smart-contracts/playground/main/Canvassing.sol:Canvassing",
						"label": "participationStatusForSurvey",
						"offset": 0,
						"slot": "6",
						"type": "t_mapping(t_uint256,t_mapping(t_address,t_bool))"
					},
					{
						"astId": 52,
						"contract": "smart-contracts/playground/main/Canvassing.sol:Canvassing",
						"label": "payoutStatusOfParticipantForSurvey",
						"offset": 0,
						"slot": "7",
						"type": "t_mapping(t_uint256,t_mapping(t_address,t_bool))"
					},
					{
						"astId": 56,
						"contract": "smart-contracts/playground/main/Canvassing.sol:Canvassing",
						"label": "totalNumberOfSurveysCreatedByResearchers",
						"offset": 0,
						"slot": "8",
						"type": "t_mapping(t_address,t_uint256)"
					},
					{
						"astId": 60,
						"contract": "smart-contracts/playground/main/Canvassing.sol:Canvassing",
						"label": "totalAmountFundedByResearchersInWei",
						"offset": 0,
						"slot": "9",
						"type": "t_mapping(t_address,t_uint256)"
					},
					{
						"astId": 64,
						"contract": "smart-contracts/playground/main/Canvassing.sol:Canvassing",
						"label": "idsOfLatestSurveysCreatedByResearchers",
						"offset": 0,
						"slot": "10",
						"type": "t_mapping(t_address,t_uint256)"
					},
					{
						"astId": 70,
						"contract": "smart-contracts/playground/main/Canvassing.sol:Canvassing",
						"label": "participantsOfSurvey",
						"offset": 0,
						"slot": "11",
						"type": "t_mapping(t_uint256,t_array(t_struct(Participant)1659_storage)dyn_storage)"
					},
					{
						"astId": 74,
						"contract": "smart-contracts/playground/main/Canvassing.sol:Canvassing",
						"label": "allFundings",
						"offset": 0,
						"slot": "12",
						"type": "t_array(t_struct(Funding)1718_storage)dyn_storage"
					},
					{
						"astId": 78,
						"contract": "smart-contracts/playground/main/Canvassing.sol:Canvassing",
						"label": "allEarnings",
						"offset": 0,
						"slot": "13",
						"type": "t_array(t_struct(Earning)1707_storage)dyn_storage"
					},
					{
						"astId": 80,
						"contract": "smart-contracts/playground/main/Canvassing.sol:Canvassing",
						"label": "currentResearcherId",
						"offset": 0,
						"slot": "14",
						"type": "t_uint256"
					},
					{
						"astId": 82,
						"contract": "smart-contracts/playground/main/Canvassing.sol:Canvassing",
						"label": "currentParticipantId",
						"offset": 0,
						"slot": "15",
						"type": "t_uint256"
					},
					{
						"astId": 84,
						"contract": "smart-contracts/playground/main/Canvassing.sol:Canvassing",
						"label": "currentSurveyId",
						"offset": 0,
						"slot": "16",
						"type": "t_uint256"
					},
					{
						"astId": 86,
						"contract": "smart-contracts/playground/main/Canvassing.sol:Canvassing",
						"label": "currentQuestionId",
						"offset": 0,
						"slot": "17",
						"type": "t_uint256"
					},
					{
						"astId": 88,
						"contract": "smart-contracts/playground/main/Canvassing.sol:Canvassing",
						"label": "currentAnswerId",
						"offset": 0,
						"slot": "18",
						"type": "t_uint256"
					},
					{
						"astId": 90,
						"contract": "smart-contracts/playground/main/Canvassing.sol:Canvassing",
						"label": "currentEarningId",
						"offset": 0,
						"slot": "19",
						"type": "t_uint256"
					},
					{
						"astId": 92,
						"contract": "smart-contracts/playground/main/Canvassing.sol:Canvassing",
						"label": "currentFundingId",
						"offset": 0,
						"slot": "20",
						"type": "t_uint256"
					},
					{
						"astId": 98,
						"contract": "smart-contracts/playground/main/Canvassing.sol:Canvassing",
						"label": "cUSD",
						"offset": 0,
						"slot": "21",
						"type": "t_contract(ERC20)1625"
					},
					{
						"astId": 106,
						"contract": "smart-contracts/playground/main/Canvassing.sol:Canvassing",
						"label": "cUSDDecimalPlaces",
						"offset": 0,
						"slot": "22",
						"type": "t_uint256"
					}
				],
				"types": {
					"t_address": {
						"encoding": "inplace",
						"label": "address",
						"numberOfBytes": "20"
					},
					"t_array(t_struct(Answer)1696_storage)dyn_storage": {
						"base": "t_struct(Answer)1696_storage",
						"encoding": "dynamic_array",
						"label": "struct Answer[]",
						"numberOfBytes": "32"
					},
					"t_array(t_struct(Earning)1707_storage)dyn_storage": {
						"base": "t_struct(Earning)1707_storage",
						"encoding": "dynamic_array",
						"label": "struct Earning[]",
						"numberOfBytes": "32"
					},
					"t_array(t_struct(Funding)1718_storage)dyn_storage": {
						"base": "t_struct(Funding)1718_storage",
						"encoding": "dynamic_array",
						"label": "struct Funding[]",
						"numberOfBytes": "32"
					},
					"t_array(t_struct(Participant)1659_storage)dyn_storage": {
						"base": "t_struct(Participant)1659_storage",
						"encoding": "dynamic_array",
						"label": "struct Participant[]",
						"numberOfBytes": "32"
					},
					"t_array(t_struct(Question)1683_storage)dyn_storage": {
						"base": "t_struct(Question)1683_storage",
						"encoding": "dynamic_array",
						"label": "struct Question[]",
						"numberOfBytes": "32"
					},
					"t_array(t_struct(Survey)1674_storage)dyn_storage": {
						"base": "t_struct(Survey)1674_storage",
						"encoding": "dynamic_array",
						"label": "struct Survey[]",
						"numberOfBytes": "32"
					},
					"t_bool": {
						"encoding": "inplace",
						"label": "bool",
						"numberOfBytes": "1"
					},
					"t_contract(ERC20)1625": {
						"encoding": "inplace",
						"label": "contract ERC20",
						"numberOfBytes": "20"
					},
					"t_mapping(t_address,t_bool)": {
						"encoding": "mapping",
						"key": "t_address",
						"label": "mapping(address => bool)",
						"numberOfBytes": "32",
						"value": "t_bool"
					},
					"t_mapping(t_address,t_struct(Participant)1659_storage)": {
						"encoding": "mapping",
						"key": "t_address",
						"label": "mapping(address => struct Participant)",
						"numberOfBytes": "32",
						"value": "t_struct(Participant)1659_storage"
					},
					"t_mapping(t_address,t_struct(Researcher)1642_storage)": {
						"encoding": "mapping",
						"key": "t_address",
						"label": "mapping(address => struct Researcher)",
						"numberOfBytes": "32",
						"value": "t_struct(Researcher)1642_storage"
					},
					"t_mapping(t_address,t_uint256)": {
						"encoding": "mapping",
						"key": "t_address",
						"label": "mapping(address => uint256)",
						"numberOfBytes": "32",
						"value": "t_uint256"
					},
					"t_mapping(t_uint256,t_array(t_struct(Answer)1696_storage)dyn_storage)": {
						"encoding": "mapping",
						"key": "t_uint256",
						"label": "mapping(uint256 => struct Answer[])",
						"numberOfBytes": "32",
						"value": "t_array(t_struct(Answer)1696_storage)dyn_storage"
					},
					"t_mapping(t_uint256,t_array(t_struct(Participant)1659_storage)dyn_storage)": {
						"encoding": "mapping",
						"key": "t_uint256",
						"label": "mapping(uint256 => struct Participant[])",
						"numberOfBytes": "32",
						"value": "t_array(t_struct(Participant)1659_storage)dyn_storage"
					},
					"t_mapping(t_uint256,t_array(t_struct(Question)1683_storage)dyn_storage)": {
						"encoding": "mapping",
						"key": "t_uint256",
						"label": "mapping(uint256 => struct Question[])",
						"numberOfBytes": "32",
						"value": "t_array(t_struct(Question)1683_storage)dyn_storage"
					},
					"t_mapping(t_uint256,t_mapping(t_address,t_bool))": {
						"encoding": "mapping",
						"key": "t_uint256",
						"label": "mapping(uint256 => mapping(address => bool))",
						"numberOfBytes": "32",
						"value": "t_mapping(t_address,t_bool)"
					},
					"t_string_storage": {
						"encoding": "bytes",
						"label": "string",
						"numberOfBytes": "32"
					},
					"t_struct(Answer)1696_storage": {
						"encoding": "inplace",
						"label": "struct Answer",
						"members": [
							{
								"astId": 1685,
								"contract": "smart-contracts/playground/main/Canvassing.sol:Canvassing",
								"label": "id",
								"offset": 0,
								"slot": "0",
								"type": "t_uint256"
							},
							{
								"astId": 1687,
								"contract": "smart-contracts/playground/main/Canvassing.sol:Canvassing",
								"label": "questionId",
								"offset": 0,
								"slot": "1",
								"type": "t_uint256"
							},
							{
								"astId": 1689,
								"contract": "smart-contracts/playground/main/Canvassing.sol:Canvassing",
								"label": "surveyId",
								"offset": 0,
								"slot": "2",
								"type": "t_uint256"
							},
							{
								"astId": 1691,
								"contract": "smart-contracts/playground/main/Canvassing.sol:Canvassing",
								"label": "participantWalletAddress",
								"offset": 0,
								"slot": "3",
								"type": "t_address"
							},
							{
								"astId": 1693,
								"contract": "smart-contracts/playground/main/Canvassing.sol:Canvassing",
								"label": "value",
								"offset": 20,
								"slot": "3",
								"type": "t_bool"
							},
							{
								"astId": 1695,
								"contract": "smart-contracts/playground/main/Canvassing.sol:Canvassing",
								"label": "isBlank",
								"offset": 21,
								"slot": "3",
								"type": "t_bool"
							}
						],
						"numberOfBytes": "128"
					},
					"t_struct(Earning)1707_storage": {
						"encoding": "inplace",
						"label": "struct Earning",
						"members": [
							{
								"astId": 1698,
								"contract": "smart-contracts/playground/main/Canvassing.sol:Canvassing",
								"label": "id",
								"offset": 0,
								"slot": "0",
								"type": "t_uint256"
							},
							{
								"astId": 1700,
								"contract": "smart-contracts/playground/main/Canvassing.sol:Canvassing",
								"label": "surveyId",
								"offset": 0,
								"slot": "1",
								"type": "t_uint256"
							},
							{
								"astId": 1702,
								"contract": "smart-contracts/playground/main/Canvassing.sol:Canvassing",
								"label": "recipientWalletAddress",
								"offset": 0,
								"slot": "2",
								"type": "t_address"
							},
							{
								"astId": 1704,
								"contract": "smart-contracts/playground/main/Canvassing.sol:Canvassing",
								"label": "amountPaidOutInWei",
								"offset": 0,
								"slot": "3",
								"type": "t_uint256"
							},
							{
								"astId": 1706,
								"contract": "smart-contracts/playground/main/Canvassing.sol:Canvassing",
								"label": "isBlank",
								"offset": 0,
								"slot": "4",
								"type": "t_bool"
							}
						],
						"numberOfBytes": "160"
					},
					"t_struct(Funding)1718_storage": {
						"encoding": "inplace",
						"label": "struct Funding",
						"members": [
							{
								"astId": 1709,
								"contract": "smart-contracts/playground/main/Canvassing.sol:Canvassing",
								"label": "id",
								"offset": 0,
								"slot": "0",
								"type": "t_uint256"
							},
							{
								"astId": 1711,
								"contract": "smart-contracts/playground/main/Canvassing.sol:Canvassing",
								"label": "surveyId",
								"offset": 0,
								"slot": "1",
								"type": "t_uint256"
							},
							{
								"astId": 1713,
								"contract": "smart-contracts/playground/main/Canvassing.sol:Canvassing",
								"label": "creatingResearcherWalletAddress",
								"offset": 0,
								"slot": "2",
								"type": "t_address"
							},
							{
								"astId": 1715,
								"contract": "smart-contracts/playground/main/Canvassing.sol:Canvassing",
								"label": "amountFundedInWei",
								"offset": 0,
								"slot": "3",
								"type": "t_uint256"
							},
							{
								"astId": 1717,
								"contract": "smart-contracts/playground/main/Canvassing.sol:Canvassing",
								"label": "isBlank",
								"offset": 0,
								"slot": "4",
								"type": "t_bool"
							}
						],
						"numberOfBytes": "160"
					},
					"t_struct(Participant)1659_storage": {
						"encoding": "inplace",
						"label": "struct Participant",
						"members": [
							{
								"astId": 1644,
								"contract": "smart-contracts/playground/main/Canvassing.sol:Canvassing",
								"label": "id",
								"offset": 0,
								"slot": "0",
								"type": "t_uint256"
							},
							{
								"astId": 1646,
								"contract": "smart-contracts/playground/main/Canvassing.sol:Canvassing",
								"label": "walletAddress",
								"offset": 0,
								"slot": "1",
								"type": "t_address"
							},
							{
								"astId": 1648,
								"contract": "smart-contracts/playground/main/Canvassing.sol:Canvassing",
								"label": "gender",
								"offset": 0,
								"slot": "2",
								"type": "t_string_storage"
							},
							{
								"astId": 1650,
								"contract": "smart-contracts/playground/main/Canvassing.sol:Canvassing",
								"label": "country",
								"offset": 0,
								"slot": "3",
								"type": "t_string_storage"
							},
							{
								"astId": 1652,
								"contract": "smart-contracts/playground/main/Canvassing.sol:Canvassing",
								"label": "yearOfBirth",
								"offset": 0,
								"slot": "4",
								"type": "t_uint256"
							},
							{
								"astId": 1654,
								"contract": "smart-contracts/playground/main/Canvassing.sol:Canvassing",
								"label": "totalNumberOfSurveysTaken",
								"offset": 0,
								"slot": "5",
								"type": "t_uint256"
							},
							{
								"astId": 1656,
								"contract": "smart-contracts/playground/main/Canvassing.sol:Canvassing",
								"label": "isResearcher",
								"offset": 0,
								"slot": "6",
								"type": "t_bool"
							},
							{
								"astId": 1658,
								"contract": "smart-contracts/playground/main/Canvassing.sol:Canvassing",
								"label": "isBlank",
								"offset": 1,
								"slot": "6",
								"type": "t_bool"
							}
						],
						"numberOfBytes": "224"
					},
					"t_struct(Question)1683_storage": {
						"encoding": "inplace",
						"label": "struct Question",
						"members": [
							{
								"astId": 1676,
								"contract": "smart-contracts/playground/main/Canvassing.sol:Canvassing",
								"label": "id",
								"offset": 0,
								"slot": "0",
								"type": "t_uint256"
							},
							{
								"astId": 1678,
								"contract": "smart-contracts/playground/main/Canvassing.sol:Canvassing",
								"label": "surveyId",
								"offset": 0,
								"slot": "1",
								"type": "t_uint256"
							},
							{
								"astId": 1680,
								"contract": "smart-contracts/playground/main/Canvassing.sol:Canvassing",
								"label": "sentence",
								"offset": 0,
								"slot": "2",
								"type": "t_string_storage"
							},
							{
								"astId": 1682,
								"contract": "smart-contracts/playground/main/Canvassing.sol:Canvassing",
								"label": "isBlank",
								"offset": 0,
								"slot": "3",
								"type": "t_bool"
							}
						],
						"numberOfBytes": "128"
					},
					"t_struct(Researcher)1642_storage": {
						"encoding": "inplace",
						"label": "struct Researcher",
						"members": [
							{
								"astId": 1629,
								"contract": "smart-contracts/playground/main/Canvassing.sol:Canvassing",
								"label": "id",
								"offset": 0,
								"slot": "0",
								"type": "t_uint256"
							},
							{
								"astId": 1631,
								"contract": "smart-contracts/playground/main/Canvassing.sol:Canvassing",
								"label": "walletAddress",
								"offset": 0,
								"slot": "1",
								"type": "t_address"
							},
							{
								"astId": 1633,
								"contract": "smart-contracts/playground/main/Canvassing.sol:Canvassing",
								"label": "industry",
								"offset": 0,
								"slot": "2",
								"type": "t_string_storage"
							},
							{
								"astId": 1635,
								"contract": "smart-contracts/playground/main/Canvassing.sol:Canvassing",
								"label": "yearOfIncorporation",
								"offset": 0,
								"slot": "3",
								"type": "t_uint256"
							},
							{
								"astId": 1637,
								"contract": "smart-contracts/playground/main/Canvassing.sol:Canvassing",
								"label": "isParticipant",
								"offset": 0,
								"slot": "4",
								"type": "t_bool"
							},
							{
								"astId": 1639,
								"contract": "smart-contracts/playground/main/Canvassing.sol:Canvassing",
								"label": "isVerified",
								"offset": 1,
								"slot": "4",
								"type": "t_bool"
							},
							{
								"astId": 1641,
								"contract": "smart-contracts/playground/main/Canvassing.sol:Canvassing",
								"label": "isBlank",
								"offset": 2,
								"slot": "4",
								"type": "t_bool"
							}
						],
						"numberOfBytes": "160"
					},
					"t_struct(Survey)1674_storage": {
						"encoding": "inplace",
						"label": "struct Survey",
						"members": [
							{
								"astId": 1661,
								"contract": "smart-contracts/playground/main/Canvassing.sol:Canvassing",
								"label": "id",
								"offset": 0,
								"slot": "0",
								"type": "t_uint256"
							},
							{
								"astId": 1663,
								"contract": "smart-contracts/playground/main/Canvassing.sol:Canvassing",
								"label": "creatingResearcherWalletAddress",
								"offset": 0,
								"slot": "1",
								"type": "t_address"
							},
							{
								"astId": 1665,
								"contract": "smart-contracts/playground/main/Canvassing.sol:Canvassing",
								"label": "topic",
								"offset": 0,
								"slot": "2",
								"type": "t_string_storage"
							},
							{
								"astId": 1667,
								"contract": "smart-contracts/playground/main/Canvassing.sol:Canvassing",
								"label": "numberOfQuestions",
								"offset": 0,
								"slot": "3",
								"type": "t_uint256"
							},
							{
								"astId": 1669,
								"contract": "smart-contracts/playground/main/Canvassing.sol:Canvassing",
								"label": "targetNumberOfParticipants",
								"offset": 0,
								"slot": "4",
								"type": "t_uint256"
							},
							{
								"astId": 1671,
								"contract": "smart-contracts/playground/main/Canvassing.sol:Canvassing",
								"label": "amountFundedInWei",
								"offset": 0,
								"slot": "5",
								"type": "t_uint256"
							},
							{
								"astId": 1673,
								"contract": "smart-contracts/playground/main/Canvassing.sol:Canvassing",
								"label": "isBlank",
								"offset": 0,
								"slot": "6",
								"type": "t_bool"
							}
						],
						"numberOfBytes": "224"
					},
					"t_uint256": {
						"encoding": "inplace",
						"label": "uint256",
						"numberOfBytes": "32"
					}
				}
			},
			"userdoc": {
				"kind": "user",
				"methods": {},
				"version": 1
			}
		}
	}
}