{
	"smart-contracts/classroom/main/Canvassing_flattened.sol": {
		"Canvassing": {
			"abi": [
				{
					"inputs": [
						{
							"internalType": "uint256",
							"name": "",
							"type": "uint256"
						},
						{
							"internalType": "uint256",
							"name": "",
							"type": "uint256"
						}
					],
					"name": "allAnswers",
					"outputs": [
						{
							"internalType": "uint256",
							"name": "id",
							"type": "uint256"
						},
						{
							"internalType": "uint256",
							"name": "questionId",
							"type": "uint256"
						},
						{
							"internalType": "uint256",
							"name": "surveyId",
							"type": "uint256"
						},
						{
							"internalType": "address",
							"name": "participantWalletAddress",
							"type": "address"
						},
						{
							"internalType": "bool",
							"name": "value",
							"type": "bool"
						},
						{
							"internalType": "bool",
							"name": "isBlank",
							"type": "bool"
						}
					],
					"stateMutability": "view",
					"type": "function"
				},
				{
					"inputs": [
						{
							"internalType": "uint256",
							"name": "",
							"type": "uint256"
						}
					],
					"name": "allEarnings",
					"outputs": [
						{
							"internalType": "uint256",
							"name": "id",
							"type": "uint256"
						},
						{
							"internalType": "uint256",
							"name": "surveyId",
							"type": "uint256"
						},
						{
							"internalType": "address",
							"name": "recipientWalletAddress",
							"type": "address"
						},
						{
							"internalType": "uint256",
							"name": "amountPaidOutInWei",
							"type": "uint256"
						},
						{
							"internalType": "bool",
							"name": "isBlank",
							"type": "bool"
						}
					],
					"stateMutability": "view",
					"type": "function"
				},
				{
					"inputs": [
						{
							"internalType": "uint256",
							"name": "",
							"type": "uint256"
						}
					],
					"name": "allFundings",
					"outputs": [
						{
							"internalType": "uint256",
							"name": "id",
							"type": "uint256"
						},
						{
							"internalType": "uint256",
							"name": "surveyId",
							"type": "uint256"
						},
						{
							"internalType": "address",
							"name": "creatingResearcherWalletAddress",
							"type": "address"
						},
						{
							"internalType": "uint256",
							"name": "amountFundedInWei",
							"type": "uint256"
						},
						{
							"internalType": "bool",
							"name": "isBlank",
							"type": "bool"
						}
					],
					"stateMutability": "view",
					"type": "function"
				},
				{
					"inputs": [
						{
							"internalType": "address",
							"name": "",
							"type": "address"
						}
					],
					"name": "allParticipants",
					"outputs": [
						{
							"internalType": "uint256",
							"name": "id",
							"type": "uint256"
						},
						{
							"internalType": "address",
							"name": "walletAddress",
							"type": "address"
						},
						{
							"internalType": "string",
							"name": "gender",
							"type": "string"
						},
						{
							"internalType": "string",
							"name": "country",
							"type": "string"
						},
						{
							"internalType": "uint256",
							"name": "yearOfBirth",
							"type": "uint256"
						},
						{
							"internalType": "uint256",
							"name": "totalNumberOfSurveysTaken",
							"type": "uint256"
						},
						{
							"internalType": "bool",
							"name": "isResearcher",
							"type": "bool"
						},
						{
							"internalType": "bool",
							"name": "isBlank",
							"type": "bool"
						}
					],
					"stateMutability": "view",
					"type": "function"
				},
				{
					"inputs": [
						{
							"internalType": "uint256",
							"name": "",
							"type": "uint256"
						},
						{
							"internalType": "uint256",
							"name": "",
							"type": "uint256"
						}
					],
					"name": "allQuestions",
					"outputs": [
						{
							"internalType": "uint256",
							"name": "id",
							"type": "uint256"
						},
						{
							"internalType": "uint256",
							"name": "surveyId",
							"type": "uint256"
						},
						{
							"internalType": "string",
							"name": "sentence",
							"type": "string"
						},
						{
							"internalType": "bool",
							"name": "isBlank",
							"type": "bool"
						}
					],
					"stateMutability": "view",
					"type": "function"
				},
				{
					"inputs": [
						{
							"internalType": "address",
							"name": "",
							"type": "address"
						}
					],
					"name": "allResearchers",
					"outputs": [
						{
							"internalType": "uint256",
							"name": "id",
							"type": "uint256"
						},
						{
							"internalType": "address",
							"name": "walletAddress",
							"type": "address"
						},
						{
							"internalType": "string",
							"name": "industry",
							"type": "string"
						},
						{
							"internalType": "uint256",
							"name": "yearOfIncorporation",
							"type": "uint256"
						},
						{
							"internalType": "bool",
							"name": "isParticipant",
							"type": "bool"
						},
						{
							"internalType": "bool",
							"name": "isVerified",
							"type": "bool"
						},
						{
							"internalType": "bool",
							"name": "isBlank",
							"type": "bool"
						}
					],
					"stateMutability": "view",
					"type": "function"
				},
				{
					"inputs": [
						{
							"internalType": "uint256",
							"name": "",
							"type": "uint256"
						}
					],
					"name": "allSurveys",
					"outputs": [
						{
							"internalType": "uint256",
							"name": "id",
							"type": "uint256"
						},
						{
							"internalType": "address",
							"name": "creatingResearcherWalletAddress",
							"type": "address"
						},
						{
							"internalType": "string",
							"name": "topic",
							"type": "string"
						},
						{
							"internalType": "uint256",
							"name": "numberOfQuestions",
							"type": "uint256"
						},
						{
							"internalType": "uint256",
							"name": "targetNumberOfParticipants",
							"type": "uint256"
						},
						{
							"internalType": "uint256",
							"name": "amountFundedInWei",
							"type": "uint256"
						},
						{
							"internalType": "bool",
							"name": "isBlank",
							"type": "bool"
						}
					],
					"stateMutability": "view",
					"type": "function"
				},
				{
					"inputs": [
						{
							"internalType": "address",
							"name": "_walletAddress",
							"type": "address"
						}
					],
					"name": "checkIfParticipantExists",
					"outputs": [
						{
							"internalType": "bool",
							"name": "",
							"type": "bool"
						}
					],
					"stateMutability": "view",
					"type": "function"
				},
				{
					"inputs": [
						{
							"internalType": "address",
							"name": "_participantWalletAddress",
							"type": "address"
						},
						{
							"internalType": "uint256",
							"name": "_surveyId",
							"type": "uint256"
						}
					],
					"name": "checkIfParticipantHasAlreadyParticipatedInSurvey",
					"outputs": [
						{
							"internalType": "bool",
							"name": "",
							"type": "bool"
						}
					],
					"stateMutability": "view",
					"type": "function"
				},
				{
					"inputs": [
						{
							"internalType": "address",
							"name": "_walletAddress",
							"type": "address"
						}
					],
					"name": "checkIfResearcherExists",
					"outputs": [
						{
							"internalType": "bool",
							"name": "",
							"type": "bool"
						}
					],
					"stateMutability": "view",
					"type": "function"
				},
				{
					"inputs": [
						{
							"internalType": "uint256",
							"name": "_numberOfQuestions",
							"type": "uint256"
						},
						{
							"internalType": "uint256",
							"name": "_targetNumberOfParticipants",
							"type": "uint256"
						},
						{
							"internalType": "uint256",
							"name": "_surveyId",
							"type": "uint256"
						},
						{
							"internalType": "address",
							"name": "_researcherWalletAddress",
							"type": "address"
						}
					],
					"name": "createFunding",
					"outputs": [],
					"stateMutability": "nonpayable",
					"type": "function"
				},
				{
					"inputs": [
						{
							"internalType": "address",
							"name": "_walletAddress",
							"type": "address"
						},
						{
							"internalType": "string",
							"name": "_gender",
							"type": "string"
						},
						{
							"internalType": "string",
							"name": "_country",
							"type": "string"
						},
						{
							"internalType": "uint256",
							"name": "_yearOfBirth",
							"type": "uint256"
						}
					],
					"name": "createParticipant",
					"outputs": [],
					"stateMutability": "nonpayable",
					"type": "function"
				},
				{
					"inputs": [
						{
							"internalType": "address",
							"name": "_walletAddress",
							"type": "address"
						},
						{
							"internalType": "string",
							"name": "_industry",
							"type": "string"
						},
						{
							"internalType": "uint256",
							"name": "_yearOfCorporation",
							"type": "uint256"
						}
					],
					"name": "createResearcher",
					"outputs": [],
					"stateMutability": "nonpayable",
					"type": "function"
				},
				{
					"inputs": [
						{
							"internalType": "address",
							"name": "_researcherWalletAddress",
							"type": "address"
						},
						{
							"internalType": "string",
							"name": "_topic",
							"type": "string"
						},
						{
							"internalType": "uint256",
							"name": "_numberOfQuestions",
							"type": "uint256"
						},
						{
							"internalType": "uint256",
							"name": "_targetNumberOfParticipants",
							"type": "uint256"
						},
						{
							"internalType": "string[]",
							"name": "_questionSentences",
							"type": "string[]"
						},
						{
							"internalType": "uint256",
							"name": "_amountFundedForSurvey",
							"type": "uint256"
						}
					],
					"name": "createSurvey",
					"outputs": [
						{
							"internalType": "uint256",
							"name": "",
							"type": "uint256"
						}
					],
					"stateMutability": "nonpayable",
					"type": "function"
				},
				{
					"inputs": [
						{
							"internalType": "uint256",
							"name": "_surveyId",
							"type": "uint256"
						},
						{
							"internalType": "address",
							"name": "_participantWalletAddress",
							"type": "address"
						}
					],
					"name": "getAllAnswersOfParticipantOfSurvey",
					"outputs": [
						{
							"components": [
								{
									"internalType": "uint256",
									"name": "id",
									"type": "uint256"
								},
								{
									"internalType": "uint256",
									"name": "questionId",
									"type": "uint256"
								},
								{
									"internalType": "uint256",
									"name": "surveyId",
									"type": "uint256"
								},
								{
									"internalType": "address",
									"name": "participantWalletAddress",
									"type": "address"
								},
								{
									"internalType": "bool",
									"name": "value",
									"type": "bool"
								},
								{
									"internalType": "bool",
									"name": "isBlank",
									"type": "bool"
								}
							],
							"internalType": "struct Answer[]",
							"name": "",
							"type": "tuple[]"
						}
					],
					"stateMutability": "view",
					"type": "function"
				},
				{
					"inputs": [
						{
							"internalType": "address",
							"name": "_walletAddress",
							"type": "address"
						}
					],
					"name": "getAllEarningsMadeByParticipant",
					"outputs": [
						{
							"components": [
								{
									"internalType": "uint256",
									"name": "id",
									"type": "uint256"
								},
								{
									"internalType": "uint256",
									"name": "surveyId",
									"type": "uint256"
								},
								{
									"internalType": "address",
									"name": "recipientWalletAddress",
									"type": "address"
								},
								{
									"internalType": "uint256",
									"name": "amountPaidOutInWei",
									"type": "uint256"
								},
								{
									"internalType": "bool",
									"name": "isBlank",
									"type": "bool"
								}
							],
							"internalType": "struct Earning[]",
							"name": "",
							"type": "tuple[]"
						}
					],
					"stateMutability": "view",
					"type": "function"
				},
				{
					"inputs": [
						{
							"internalType": "uint256",
							"name": "_surveyId",
							"type": "uint256"
						}
					],
					"name": "getAllQuestionsOfSurvey",
					"outputs": [
						{
							"components": [
								{
									"internalType": "uint256",
									"name": "id",
									"type": "uint256"
								},
								{
									"internalType": "uint256",
									"name": "surveyId",
									"type": "uint256"
								},
								{
									"internalType": "string",
									"name": "sentence",
									"type": "string"
								},
								{
									"internalType": "bool",
									"name": "isBlank",
									"type": "bool"
								}
							],
							"internalType": "struct Question[]",
							"name": "",
							"type": "tuple[]"
						}
					],
					"stateMutability": "view",
					"type": "function"
				},
				{
					"inputs": [],
					"name": "getAllSurveys",
					"outputs": [
						{
							"components": [
								{
									"internalType": "uint256",
									"name": "id",
									"type": "uint256"
								},
								{
									"internalType": "address",
									"name": "creatingResearcherWalletAddress",
									"type": "address"
								},
								{
									"internalType": "string",
									"name": "topic",
									"type": "string"
								},
								{
									"internalType": "uint256",
									"name": "numberOfQuestions",
									"type": "uint256"
								},
								{
									"internalType": "uint256",
									"name": "targetNumberOfParticipants",
									"type": "uint256"
								},
								{
									"internalType": "uint256",
									"name": "amountFundedInWei",
									"type": "uint256"
								},
								{
									"internalType": "bool",
									"name": "isBlank",
									"type": "bool"
								}
							],
							"internalType": "struct Survey[]",
							"name": "",
							"type": "tuple[]"
						}
					],
					"stateMutability": "view",
					"type": "function"
				},
				{
					"inputs": [
						{
							"internalType": "address",
							"name": "_walletAddress",
							"type": "address"
						}
					],
					"name": "getAllSurveysTakenByParticipant",
					"outputs": [
						{
							"components": [
								{
									"internalType": "uint256",
									"name": "id",
									"type": "uint256"
								},
								{
									"internalType": "address",
									"name": "creatingResearcherWalletAddress",
									"type": "address"
								},
								{
									"internalType": "string",
									"name": "topic",
									"type": "string"
								},
								{
									"internalType": "uint256",
									"name": "numberOfQuestions",
									"type": "uint256"
								},
								{
									"internalType": "uint256",
									"name": "targetNumberOfParticipants",
									"type": "uint256"
								},
								{
									"internalType": "uint256",
									"name": "amountFundedInWei",
									"type": "uint256"
								},
								{
									"internalType": "bool",
									"name": "isBlank",
									"type": "bool"
								}
							],
							"internalType": "struct Survey[]",
							"name": "",
							"type": "tuple[]"
						}
					],
					"stateMutability": "view",
					"type": "function"
				},
				{
					"inputs": [
						{
							"internalType": "uint256",
							"name": "_surveyId",
							"type": "uint256"
						},
						{
							"internalType": "uint256",
							"name": "_numberOfParticipants",
							"type": "uint256"
						}
					],
					"name": "getAmountOfEarningForCanvassingForSurveyPerParticipantInWei",
					"outputs": [
						{
							"internalType": "uint256",
							"name": "",
							"type": "uint256"
						}
					],
					"stateMutability": "view",
					"type": "function"
				},
				{
					"inputs": [
						{
							"internalType": "uint256",
							"name": "_surveyId",
							"type": "uint256"
						}
					],
					"name": "getAmountOfEarningPerParticipantForSurveyInWei",
					"outputs": [
						{
							"internalType": "uint256",
							"name": "",
							"type": "uint256"
						}
					],
					"stateMutability": "view",
					"type": "function"
				},
				{
					"inputs": [
						{
							"internalType": "uint256",
							"name": "_numberOfQuestions",
							"type": "uint256"
						},
						{
							"internalType": "uint256",
							"name": "_targetNumberOfParticipants",
							"type": "uint256"
						}
					],
					"name": "getAmountOfFundingOfAnySurveyInWei",
					"outputs": [
						{
							"internalType": "uint256",
							"name": "",
							"type": "uint256"
						}
					],
					"stateMutability": "view",
					"type": "function"
				},
				{
					"inputs": [
						{
							"internalType": "uint256",
							"name": "_surveyId",
							"type": "uint256"
						}
					],
					"name": "getAnswersOfSurvey",
					"outputs": [
						{
							"components": [
								{
									"internalType": "uint256",
									"name": "id",
									"type": "uint256"
								},
								{
									"internalType": "uint256",
									"name": "questionId",
									"type": "uint256"
								},
								{
									"internalType": "uint256",
									"name": "surveyId",
									"type": "uint256"
								},
								{
									"internalType": "address",
									"name": "participantWalletAddress",
									"type": "address"
								},
								{
									"internalType": "bool",
									"name": "value",
									"type": "bool"
								},
								{
									"internalType": "bool",
									"name": "isBlank",
									"type": "bool"
								}
							],
							"internalType": "struct Answer[]",
							"name": "",
							"type": "tuple[]"
						}
					],
					"stateMutability": "view",
					"type": "function"
				},
				{
					"inputs": [
						{
							"internalType": "address",
							"name": "_creatingResearcherWalletAddress",
							"type": "address"
						}
					],
					"name": "getIdsOfLatestSurveysCreatedByResearchers",
					"outputs": [
						{
							"internalType": "uint256",
							"name": "",
							"type": "uint256"
						}
					],
					"stateMutability": "view",
					"type": "function"
				},
				{
					"inputs": [
						{
							"internalType": "address",
							"name": "_walletAddress",
							"type": "address"
						}
					],
					"name": "getParticipantByWalletAddress",
					"outputs": [
						{
							"components": [
								{
									"internalType": "uint256",
									"name": "id",
									"type": "uint256"
								},
								{
									"internalType": "address",
									"name": "walletAddress",
									"type": "address"
								},
								{
									"internalType": "string",
									"name": "gender",
									"type": "string"
								},
								{
									"internalType": "string",
									"name": "country",
									"type": "string"
								},
								{
									"internalType": "uint256",
									"name": "yearOfBirth",
									"type": "uint256"
								},
								{
									"internalType": "uint256",
									"name": "totalNumberOfSurveysTaken",
									"type": "uint256"
								},
								{
									"internalType": "bool",
									"name": "isResearcher",
									"type": "bool"
								},
								{
									"internalType": "bool",
									"name": "isBlank",
									"type": "bool"
								}
							],
							"internalType": "struct Participant",
							"name": "",
							"type": "tuple"
						}
					],
					"stateMutability": "view",
					"type": "function"
				},
				{
					"inputs": [
						{
							"internalType": "uint256",
							"name": "_surveyId",
							"type": "uint256"
						}
					],
					"name": "getParticipantsOfSurvey",
					"outputs": [
						{
							"components": [
								{
									"internalType": "uint256",
									"name": "id",
									"type": "uint256"
								},
								{
									"internalType": "address",
									"name": "walletAddress",
									"type": "address"
								},
								{
									"internalType": "string",
									"name": "gender",
									"type": "string"
								},
								{
									"internalType": "string",
									"name": "country",
									"type": "string"
								},
								{
									"internalType": "uint256",
									"name": "yearOfBirth",
									"type": "uint256"
								},
								{
									"internalType": "uint256",
									"name": "totalNumberOfSurveysTaken",
									"type": "uint256"
								},
								{
									"internalType": "bool",
									"name": "isResearcher",
									"type": "bool"
								},
								{
									"internalType": "bool",
									"name": "isBlank",
									"type": "bool"
								}
							],
							"internalType": "struct Participant[]",
							"name": "",
							"type": "tuple[]"
						}
					],
					"stateMutability": "view",
					"type": "function"
				},
				{
					"inputs": [
						{
							"internalType": "address",
							"name": "_walletAddress",
							"type": "address"
						}
					],
					"name": "getResearcherByWalletAddress",
					"outputs": [
						{
							"components": [
								{
									"internalType": "uint256",
									"name": "id",
									"type": "uint256"
								},
								{
									"internalType": "address",
									"name": "walletAddress",
									"type": "address"
								},
								{
									"internalType": "string",
									"name": "industry",
									"type": "string"
								},
								{
									"internalType": "uint256",
									"name": "yearOfIncorporation",
									"type": "uint256"
								},
								{
									"internalType": "bool",
									"name": "isParticipant",
									"type": "bool"
								},
								{
									"internalType": "bool",
									"name": "isVerified",
									"type": "bool"
								},
								{
									"internalType": "bool",
									"name": "isBlank",
									"type": "bool"
								}
							],
							"internalType": "struct Researcher",
							"name": "",
							"type": "tuple"
						}
					],
					"stateMutability": "view",
					"type": "function"
				},
				{
					"inputs": [
						{
							"internalType": "uint256",
							"name": "_surveyId",
							"type": "uint256"
						}
					],
					"name": "getSurveyById",
					"outputs": [
						{
							"components": [
								{
									"internalType": "uint256",
									"name": "id",
									"type": "uint256"
								},
								{
									"internalType": "address",
									"name": "creatingResearcherWalletAddress",
									"type": "address"
								},
								{
									"internalType": "string",
									"name": "topic",
									"type": "string"
								},
								{
									"internalType": "uint256",
									"name": "numberOfQuestions",
									"type": "uint256"
								},
								{
									"internalType": "uint256",
									"name": "targetNumberOfParticipants",
									"type": "uint256"
								},
								{
									"internalType": "uint256",
									"name": "amountFundedInWei",
									"type": "uint256"
								},
								{
									"internalType": "bool",
									"name": "isBlank",
									"type": "bool"
								}
							],
							"internalType": "struct Survey",
							"name": "",
							"type": "tuple"
						}
					],
					"stateMutability": "view",
					"type": "function"
				},
				{
					"inputs": [
						{
							"internalType": "address",
							"name": "_researcherWalletAddress",
							"type": "address"
						}
					],
					"name": "getSurveysCreatedByResearcher",
					"outputs": [
						{
							"components": [
								{
									"internalType": "uint256",
									"name": "id",
									"type": "uint256"
								},
								{
									"internalType": "address",
									"name": "creatingResearcherWalletAddress",
									"type": "address"
								},
								{
									"internalType": "string",
									"name": "topic",
									"type": "string"
								},
								{
									"internalType": "uint256",
									"name": "numberOfQuestions",
									"type": "uint256"
								},
								{
									"internalType": "uint256",
									"name": "targetNumberOfParticipants",
									"type": "uint256"
								},
								{
									"internalType": "uint256",
									"name": "amountFundedInWei",
									"type": "uint256"
								},
								{
									"internalType": "bool",
									"name": "isBlank",
									"type": "bool"
								}
							],
							"internalType": "struct Survey[]",
							"name": "",
							"type": "tuple[]"
						}
					],
					"stateMutability": "view",
					"type": "function"
				},
				{
					"inputs": [
						{
							"internalType": "address",
							"name": "_creatingResearcherWalletAddress",
							"type": "address"
						}
					],
					"name": "getTotalAmountFundedByResearchersInWei",
					"outputs": [
						{
							"internalType": "uint256",
							"name": "",
							"type": "uint256"
						}
					],
					"stateMutability": "view",
					"type": "function"
				},
				{
					"inputs": [
						{
							"internalType": "address",
							"name": "_walletAddress",
							"type": "address"
						}
					],
					"name": "getTotalAmountOfEarningsReceivedByParticipantInWei",
					"outputs": [
						{
							"internalType": "uint256",
							"name": "",
							"type": "uint256"
						}
					],
					"stateMutability": "view",
					"type": "function"
				},
				{
					"inputs": [
						{
							"internalType": "address",
							"name": "_creatingResearcherWalletAddress",
							"type": "address"
						}
					],
					"name": "getTotalNumberOfSurveyCreatedByResearcher",
					"outputs": [
						{
							"internalType": "uint256",
							"name": "",
							"type": "uint256"
						}
					],
					"stateMutability": "view",
					"type": "function"
				},
				{
					"inputs": [
						{
							"internalType": "address",
							"name": "",
							"type": "address"
						}
					],
					"name": "idsOfLatestSurveysCreatedByResearchers",
					"outputs": [
						{
							"internalType": "uint256",
							"name": "",
							"type": "uint256"
						}
					],
					"stateMutability": "view",
					"type": "function"
				},
				{
					"inputs": [
						{
							"internalType": "uint256",
							"name": "_surveyId",
							"type": "uint256"
						},
						{
							"internalType": "address",
							"name": "_participantWalletAddress",
							"type": "address"
						}
					],
					"name": "makePayoutAndCreateEarning",
					"outputs": [],
					"stateMutability": "nonpayable",
					"type": "function"
				},
				{
					"inputs": [
						{
							"internalType": "uint256",
							"name": "",
							"type": "uint256"
						},
						{
							"internalType": "uint256",
							"name": "",
							"type": "uint256"
						}
					],
					"name": "participantsOfSurvey",
					"outputs": [
						{
							"internalType": "uint256",
							"name": "id",
							"type": "uint256"
						},
						{
							"internalType": "address",
							"name": "walletAddress",
							"type": "address"
						},
						{
							"internalType": "string",
							"name": "gender",
							"type": "string"
						},
						{
							"internalType": "string",
							"name": "country",
							"type": "string"
						},
						{
							"internalType": "uint256",
							"name": "yearOfBirth",
							"type": "uint256"
						},
						{
							"internalType": "uint256",
							"name": "totalNumberOfSurveysTaken",
							"type": "uint256"
						},
						{
							"internalType": "bool",
							"name": "isResearcher",
							"type": "bool"
						},
						{
							"internalType": "bool",
							"name": "isBlank",
							"type": "bool"
						}
					],
					"stateMutability": "view",
					"type": "function"
				},
				{
					"inputs": [
						{
							"internalType": "uint256",
							"name": "_surveyId",
							"type": "uint256"
						},
						{
							"internalType": "address",
							"name": "_participantWalletAddress",
							"type": "address"
						},
						{
							"internalType": "bool[]",
							"name": "_answerValues",
							"type": "bool[]"
						}
					],
					"name": "participateInSurvey",
					"outputs": [],
					"stateMutability": "nonpayable",
					"type": "function"
				},
				{
					"inputs": [
						{
							"internalType": "uint256",
							"name": "",
							"type": "uint256"
						},
						{
							"internalType": "address",
							"name": "",
							"type": "address"
						}
					],
					"name": "participationStatusForSurvey",
					"outputs": [
						{
							"internalType": "bool",
							"name": "",
							"type": "bool"
						}
					],
					"stateMutability": "view",
					"type": "function"
				},
				{
					"inputs": [
						{
							"internalType": "uint256",
							"name": "",
							"type": "uint256"
						},
						{
							"internalType": "address",
							"name": "",
							"type": "address"
						}
					],
					"name": "payoutStatusOfParticipantForSurvey",
					"outputs": [
						{
							"internalType": "bool",
							"name": "",
							"type": "bool"
						}
					],
					"stateMutability": "view",
					"type": "function"
				},
				{
					"inputs": [
						{
							"internalType": "address",
							"name": "",
							"type": "address"
						}
					],
					"name": "totalAmountFundedByResearchersInWei",
					"outputs": [
						{
							"internalType": "uint256",
							"name": "",
							"type": "uint256"
						}
					],
					"stateMutability": "view",
					"type": "function"
				},
				{
					"inputs": [
						{
							"internalType": "address",
							"name": "",
							"type": "address"
						}
					],
					"name": "totalNumberOfSurveysCreatedByResearchers",
					"outputs": [
						{
							"internalType": "uint256",
							"name": "",
							"type": "uint256"
						}
					],
					"stateMutability": "view",
					"type": "function"
				},
				{
					"inputs": [
						{
							"internalType": "address",
							"name": "_walletAddress",
							"type": "address"
						}
					],
					"name": "verifyResearcher",
					"outputs": [],
					"stateMutability": "nonpayable",
					"type": "function"
				}
			],
			"devdoc": {
				"kind": "dev",
				"methods": {},
				"version": 1
			},
			"evm": {
				"assembly": "    /* \"smart-contracts/classroom/main/Canvassing_flattened.sol\":2884:24208  contract Canvassing {... */\n  0x80\n  0x40\n  dup2\n  swap1\n  mstore\n    /* \"smart-contracts/classroom/main/Canvassing_flattened.sol\":2941:3025  address canvassingWalletAddress =... */\n  0x00\n  dup1\n  sload\n    /* \"smart-contracts/classroom/main/Canvassing_flattened.sol\":2983:3025  0xecE897a85688f2e83a73Fed36b9d1a6efCC99e93 */\n  0xece897a85688f2e83a73fed36b9d1a6efcc99e93\n  not(sub(shl(0xa0, 0x01), 0x01))\n    /* \"smart-contracts/classroom/main/Canvassing_flattened.sol\":2941:3025  address canvassingWalletAddress =... */\n  swap2\n  dup3\n  and\n  or\n  swap1\n  swap2\n  sstore\n    /* \"smart-contracts/classroom/main/Canvassing_flattened.sol\":4542:4604  ERC20 cUSD = ERC20(0x874069Fa1Eb16D44d622F2e0Ca25eeA172369bC1) */\n  0x15\n  dup1\n  sload\n    /* \"smart-contracts/classroom/main/Canvassing_flattened.sol\":4561:4603  0x874069Fa1Eb16D44d622F2e0Ca25eeA172369bC1 */\n  0x874069fa1eb16d44d622f2e0ca25eea172369bc1\n    /* \"smart-contracts/classroom/main/Canvassing_flattened.sol\":4542:4604  ERC20 cUSD = ERC20(0x874069Fa1Eb16D44d622F2e0Ca25eeA172369bC1) */\n  swap3\n  and\n  dup3\n  or\n  swap1\n  sstore\n  shl(0xe0, 0x313ce567)\n    /* \"smart-contracts/classroom/main/Canvassing_flattened.sol\":4643:4658  cUSD.decimals() */\n  dup3\n  mstore\n    /* \"smart-contracts/classroom/main/Canvassing_flattened.sol\":4561:4603  0x874069Fa1Eb16D44d622F2e0Ca25eeA172369bC1 */\n  swap1\n    /* \"smart-contracts/classroom/main/Canvassing_flattened.sol\":4643:4656  cUSD.decimals */\n  0x313ce567\n  swap1\n    /* \"smart-contracts/classroom/main/Canvassing_flattened.sol\":4643:4658  cUSD.decimals() */\n  0x84\n  swap1\n  0x20\n  swap1\n  0x04\n    /* \"smart-contracts/classroom/main/Canvassing_flattened.sol\":2884:24208  contract Canvassing {... */\n  dup2\n    /* \"smart-contracts/classroom/main/Canvassing_flattened.sol\":4561:4603  0x874069Fa1Eb16D44d622F2e0Ca25eeA172369bC1 */\n  dup7\n    /* \"smart-contracts/classroom/main/Canvassing_flattened.sol\":4643:4658  cUSD.decimals() */\n  gas\n  staticcall\n  iszero\n  dup1\n  iszero\n  tag_2\n  jumpi\n  returndatasize\n  0x00\n  dup1\n  returndatacopy\n  revert(0x00, returndatasize)\ntag_2:\n  pop\n  pop\n  pop\n  pop\n  mload(0x40)\n  returndatasize\n  not(0x1f)\n  0x1f\n  dup3\n  add\n  and\n  dup3\n  add\n  dup1\n  0x40\n  mstore\n  pop\n  dup2\n  add\n  swap1\n  tag_3\n  swap2\n  swap1\n  tag_4\n  jump\t// in\ntag_3:\n    /* \"smart-contracts/classroom/main/Canvassing_flattened.sol\":4638:4659  10**(cUSD.decimals()) */\n  tag_5\n  swap1\n    /* \"smart-contracts/classroom/main/Canvassing_flattened.sol\":4638:4640  10 */\n  0x0a\n    /* \"smart-contracts/classroom/main/Canvassing_flattened.sol\":4638:4659  10**(cUSD.decimals()) */\n  tag_6\n  jump\t// in\ntag_5:\n    /* \"smart-contracts/classroom/main/Canvassing_flattened.sol\":4610:4659  uint256 cUSDDecimalPlaces = 10**(cUSD.decimals()) */\n  0x16\n  sstore\n    /* \"smart-contracts/classroom/main/Canvassing_flattened.sol\":2884:24208  contract Canvassing {... */\n  callvalue\n  dup1\n  iszero\n  tag_7\n  jumpi\n  0x00\n  dup1\n  revert\ntag_7:\n  pop\n  jump(tag_12)\n    /* \"#utility.yul\":14:287   */\ntag_4:\n    /* \"#utility.yul\":82:88   */\n  0x00\n    /* \"#utility.yul\":135:137   */\n  0x20\n    /* \"#utility.yul\":123:132   */\n  dup3\n    /* \"#utility.yul\":114:121   */\n  dup5\n    /* \"#utility.yul\":110:133   */\n  sub\n    /* \"#utility.yul\":106:138   */\n  slt\n    /* \"#utility.yul\":103:155   */\n  iszero\n  tag_14\n  jumpi\n    /* \"#utility.yul\":151:152   */\n  0x00\n    /* \"#utility.yul\":148:149   */\n  dup1\n    /* \"#utility.yul\":141:153   */\n  revert\n    /* \"#utility.yul\":103:155   */\ntag_14:\n    /* \"#utility.yul\":183:192   */\n  dup2\n    /* \"#utility.yul\":177:193   */\n  mload\n    /* \"#utility.yul\":233:237   */\n  0xff\n    /* \"#utility.yul\":226:231   */\n  dup2\n    /* \"#utility.yul\":222:238   */\n  and\n    /* \"#utility.yul\":215:220   */\n  dup2\n    /* \"#utility.yul\":212:239   */\n  eq\n    /* \"#utility.yul\":202:257   */\n  tag_15\n  jumpi\n    /* \"#utility.yul\":253:254   */\n  0x00\n    /* \"#utility.yul\":250:251   */\n  dup1\n    /* \"#utility.yul\":243:255   */\n  revert\n    /* \"#utility.yul\":202:257   */\ntag_15:\n    /* \"#utility.yul\":276:281   */\n  swap4\n    /* \"#utility.yul\":14:287   */\n  swap3\n  pop\n  pop\n  pop\n  jump\t// out\n    /* \"#utility.yul\":292:419   */\ntag_9:\n    /* \"#utility.yul\":353:363   */\n  0x4e487b71\n    /* \"#utility.yul\":348:351   */\n  0xe0\n    /* \"#utility.yul\":344:364   */\n  shl\n    /* \"#utility.yul\":341:342   */\n  0x00\n    /* \"#utility.yul\":334:365   */\n  mstore\n    /* \"#utility.yul\":384:388   */\n  0x11\n    /* \"#utility.yul\":381:382   */\n  0x04\n    /* \"#utility.yul\":374:389   */\n  mstore\n    /* \"#utility.yul\":408:412   */\n  0x24\n    /* \"#utility.yul\":405:406   */\n  0x00\n    /* \"#utility.yul\":398:413   */\n  revert\n    /* \"#utility.yul\":424:846   */\ntag_10:\n    /* \"#utility.yul\":513:514   */\n  0x01\n    /* \"#utility.yul\":556:561   */\n  dup2\n    /* \"#utility.yul\":513:514   */\n  dup2\n    /* \"#utility.yul\":570:840   */\ntag_18:\n    /* \"#utility.yul\":591:598   */\n  dup1\n    /* \"#utility.yul\":581:589   */\n  dup6\n    /* \"#utility.yul\":578:599   */\n  gt\n    /* \"#utility.yul\":570:840   */\n  iszero\n  tag_20\n  jumpi\n    /* \"#utility.yul\":650:654   */\n  dup2\n    /* \"#utility.yul\":646:647   */\n  0x00\n    /* \"#utility.yul\":642:648   */\n  not\n    /* \"#utility.yul\":638:655   */\n  div\n    /* \"#utility.yul\":632:636   */\n  dup3\n    /* \"#utility.yul\":629:656   */\n  gt\n    /* \"#utility.yul\":626:679   */\n  iszero\n  tag_22\n  jumpi\n    /* \"#utility.yul\":659:677   */\n  tag_22\n  tag_9\n  jump\t// in\ntag_22:\n    /* \"#utility.yul\":709:716   */\n  dup1\n    /* \"#utility.yul\":699:707   */\n  dup6\n    /* \"#utility.yul\":695:717   */\n  and\n    /* \"#utility.yul\":692:747   */\n  iszero\n  tag_23\n  jumpi\n    /* \"#utility.yul\":729:745   */\n  swap2\n  dup2\n  mul\n  swap2\n    /* \"#utility.yul\":692:747   */\ntag_23:\n    /* \"#utility.yul\":808:830   */\n  swap4\n  dup5\n  shr\n  swap4\n    /* \"#utility.yul\":768:783   */\n  swap1\n  dup1\n  mul\n  swap1\n    /* \"#utility.yul\":570:840   */\n  jump(tag_18)\ntag_20:\n    /* \"#utility.yul\":574:577   */\n  pop\n    /* \"#utility.yul\":424:846   */\n  swap3\n  pop\n  swap3\n  swap1\n  pop\n  jump\t// out\n    /* \"#utility.yul\":851:1657   */\ntag_11:\n    /* \"#utility.yul\":900:905   */\n  0x00\n    /* \"#utility.yul\":930:938   */\n  dup3\n    /* \"#utility.yul\":920:1000   */\n  tag_25\n  jumpi\n  pop\n    /* \"#utility.yul\":971:972   */\n  0x01\n    /* \"#utility.yul\":985:990   */\n  jump(tag_24)\n    /* \"#utility.yul\":920:1000   */\ntag_25:\n    /* \"#utility.yul\":1019:1023   */\n  dup2\n    /* \"#utility.yul\":1009:1085   */\n  tag_26\n  jumpi\n  pop\n    /* \"#utility.yul\":1056:1057   */\n  0x00\n    /* \"#utility.yul\":1070:1075   */\n  jump(tag_24)\n    /* \"#utility.yul\":1009:1085   */\ntag_26:\n    /* \"#utility.yul\":1101:1105   */\n  dup2\n    /* \"#utility.yul\":1119:1120   */\n  0x01\n    /* \"#utility.yul\":1114:1173   */\n  dup2\n  eq\n  tag_28\n  jumpi\n    /* \"#utility.yul\":1187:1188   */\n  0x02\n    /* \"#utility.yul\":1182:1312   */\n  dup2\n  eq\n  tag_29\n  jumpi\n    /* \"#utility.yul\":1094:1312   */\n  jump(tag_27)\n    /* \"#utility.yul\":1114:1173   */\ntag_28:\n    /* \"#utility.yul\":1144:1145   */\n  0x01\n    /* \"#utility.yul\":1135:1145   */\n  swap2\n  pop\n    /* \"#utility.yul\":1158:1163   */\n  pop\n  jump(tag_24)\n    /* \"#utility.yul\":1182:1312   */\ntag_29:\n    /* \"#utility.yul\":1219:1222   */\n  0xff\n    /* \"#utility.yul\":1209:1217   */\n  dup5\n    /* \"#utility.yul\":1206:1223   */\n  gt\n    /* \"#utility.yul\":1203:1246   */\n  iszero\n  tag_31\n  jumpi\n    /* \"#utility.yul\":1226:1244   */\n  tag_31\n  tag_9\n  jump\t// in\ntag_31:\n  pop\n  pop\n    /* \"#utility.yul\":1282:1283   */\n  0x01\n    /* \"#utility.yul\":1268:1284   */\n  dup3\n  shl\n    /* \"#utility.yul\":1297:1302   */\n  jump(tag_24)\n    /* \"#utility.yul\":1094:1312   */\ntag_27:\n  pop\n    /* \"#utility.yul\":1396:1398   */\n  0x20\n    /* \"#utility.yul\":1386:1394   */\n  dup4\n    /* \"#utility.yul\":1383:1399   */\n  lt\n    /* \"#utility.yul\":1377:1380   */\n  0x0133\n    /* \"#utility.yul\":1371:1375   */\n  dup4\n    /* \"#utility.yul\":1368:1381   */\n  lt\n    /* \"#utility.yul\":1364:1400   */\n  and\n    /* \"#utility.yul\":1358:1360   */\n  0x4e\n    /* \"#utility.yul\":1348:1356   */\n  dup5\n    /* \"#utility.yul\":1345:1361   */\n  lt\n    /* \"#utility.yul\":1340:1342   */\n  0x0b\n    /* \"#utility.yul\":1334:1338   */\n  dup5\n    /* \"#utility.yul\":1331:1343   */\n  lt\n    /* \"#utility.yul\":1327:1362   */\n  and\n    /* \"#utility.yul\":1324:1401   */\n  or\n    /* \"#utility.yul\":1321:1480   */\n  iszero\n  tag_32\n  jumpi\n  pop\n    /* \"#utility.yul\":1433:1452   */\n  dup2\n  dup2\n  exp\n    /* \"#utility.yul\":1465:1470   */\n  jump(tag_24)\n    /* \"#utility.yul\":1321:1480   */\ntag_32:\n    /* \"#utility.yul\":1512:1546   */\n  tag_33\n    /* \"#utility.yul\":1537:1545   */\n  dup4\n    /* \"#utility.yul\":1531:1535   */\n  dup4\n    /* \"#utility.yul\":1512:1546   */\n  tag_10\n  jump\t// in\ntag_33:\n    /* \"#utility.yul\":1582:1588   */\n  dup1\n    /* \"#utility.yul\":1578:1579   */\n  0x00\n    /* \"#utility.yul\":1574:1580   */\n  not\n    /* \"#utility.yul\":1570:1589   */\n  div\n    /* \"#utility.yul\":1561:1568   */\n  dup3\n    /* \"#utility.yul\":1558:1590   */\n  gt\n    /* \"#utility.yul\":1555:1613   */\n  iszero\n  tag_35\n  jumpi\n    /* \"#utility.yul\":1593:1611   */\n  tag_35\n  tag_9\n  jump\t// in\ntag_35:\n    /* \"#utility.yul\":1631:1651   */\n  mul\n  swap1\n  pop\n    /* \"#utility.yul\":851:1657   */\ntag_24:\n  swap3\n  swap2\n  pop\n  pop\n  jump\t// out\n    /* \"#utility.yul\":1662:1802   */\ntag_6:\n    /* \"#utility.yul\":1720:1725   */\n  0x00\n    /* \"#utility.yul\":1749:1796   */\n  tag_15\n    /* \"#utility.yul\":1790:1794   */\n  0xff\n    /* \"#utility.yul\":1780:1788   */\n  dup5\n    /* \"#utility.yul\":1776:1795   */\n  and\n    /* \"#utility.yul\":1770:1774   */\n  dup4\n    /* \"#utility.yul\":1749:1796   */\n  tag_11\n  jump\t// in\n    /* \"#utility.yul\":1662:1802   */\ntag_12:\n    /* \"smart-contracts/classroom/main/Canvassing_flattened.sol\":2884:24208  contract Canvassing {... */\n  dataSize(sub_0)\n  dup1\n  dataOffset(sub_0)\n  0x00\n  codecopy\n  0x00\n  return\nstop\n\nsub_0: assembly {\n        /* \"smart-contracts/classroom/main/Canvassing_flattened.sol\":2884:24208  contract Canvassing {... */\n      mstore(0x40, 0x80)\n      callvalue\n      dup1\n      iszero\n      tag_1\n      jumpi\n      0x00\n      dup1\n      revert\n    tag_1:\n      pop\n      jumpi(tag_2, lt(calldatasize, 0x04))\n      shr(0xe0, calldataload(0x00))\n      dup1\n      0x68df3299\n      gt\n      tag_44\n      jumpi\n      dup1\n      0x9a23218f\n      gt\n      tag_45\n      jumpi\n      dup1\n      0xca2e7f9b\n      gt\n      tag_46\n      jumpi\n      dup1\n      0xca2e7f9b\n      eq\n      tag_38\n      jumpi\n      dup1\n      0xcc4903ca\n      eq\n      tag_39\n      jumpi\n      dup1\n      0xd7e93794\n      eq\n      tag_40\n      jumpi\n      dup1\n      0xf31e72e4\n      eq\n      tag_41\n      jumpi\n      dup1\n      0xf692a3bb\n      eq\n      tag_42\n      jumpi\n      dup1\n      0xfb47e9e6\n      eq\n      tag_43\n      jumpi\n      0x00\n      dup1\n      revert\n    tag_46:\n      dup1\n      0x9a23218f\n      eq\n      tag_33\n      jumpi\n      dup1\n      0xa58543fe\n      eq\n      tag_34\n      jumpi\n      dup1\n      0xb3265ecd\n      eq\n      tag_35\n      jumpi\n      dup1\n      0xb9c745b3\n      eq\n      tag_36\n      jumpi\n      dup1\n      0xc0ac4ae4\n      eq\n      tag_37\n      jumpi\n      0x00\n      dup1\n      revert\n    tag_45:\n      dup1\n      0x7a1bc375\n      gt\n      tag_47\n      jumpi\n      dup1\n      0x7a1bc375\n      eq\n      tag_28\n      jumpi\n      dup1\n      0x7e950819\n      eq\n      tag_29\n      jumpi\n      dup1\n      0x8e6da619\n      eq\n      tag_30\n      jumpi\n      dup1\n      0x95ecea1f\n      eq\n      tag_31\n      jumpi\n      dup1\n      0x964f6566\n      eq\n      tag_32\n      jumpi\n      0x00\n      dup1\n      revert\n    tag_47:\n      dup1\n      0x68df3299\n      eq\n      tag_23\n      jumpi\n      dup1\n      0x69bff3fb\n      eq\n      tag_24\n      jumpi\n      dup1\n      0x6b8ac0e7\n      eq\n      tag_25\n      jumpi\n      dup1\n      0x6f5fde11\n      eq\n      tag_26\n      jumpi\n      dup1\n      0x73fd653d\n      eq\n      tag_27\n      jumpi\n      0x00\n      dup1\n      revert\n    tag_44:\n      dup1\n      0x3882db7d\n      gt\n      tag_48\n      jumpi\n      dup1\n      0x44962609\n      gt\n      tag_49\n      jumpi\n      dup1\n      0x44962609\n      eq\n      tag_18\n      jumpi\n      dup1\n      0x4fe1cfad\n      eq\n      tag_19\n      jumpi\n      dup1\n      0x5822bff1\n      eq\n      tag_20\n      jumpi\n      dup1\n      0x5b76074e\n      eq\n      tag_21\n      jumpi\n      dup1\n      0x5fa7a90a\n      eq\n      tag_22\n      jumpi\n      0x00\n      dup1\n      revert\n    tag_49:\n      dup1\n      0x3882db7d\n      eq\n      tag_13\n      jumpi\n      dup1\n      0x392a5822\n      eq\n      tag_14\n      jumpi\n      dup1\n      0x3abb615a\n      eq\n      tag_15\n      jumpi\n      dup1\n      0x3b43b7d0\n      eq\n      tag_16\n      jumpi\n      dup1\n      0x3bdd0ad1\n      eq\n      tag_17\n      jumpi\n      0x00\n      dup1\n      revert\n    tag_48:\n      dup1\n      0x1b6f2485\n      gt\n      tag_50\n      jumpi\n      dup1\n      0x1b6f2485\n      eq\n      tag_8\n      jumpi\n      dup1\n      0x1bd1ebc4\n      eq\n      tag_9\n      jumpi\n      dup1\n      0x2076a35a\n      eq\n      tag_10\n      jumpi\n      dup1\n      0x2394e5dc\n      eq\n      tag_11\n      jumpi\n      dup1\n      0x25f18424\n      eq\n      tag_12\n      jumpi\n      0x00\n      dup1\n      revert\n    tag_50:\n      dup1\n      0x03f16747\n      eq\n      tag_3\n      jumpi\n      dup1\n      0x0478318b\n      eq\n      tag_4\n      jumpi\n      dup1\n      0x07f6646e\n      eq\n      tag_5\n      jumpi\n      dup1\n      0x125bb83d\n      eq\n      tag_6\n      jumpi\n      dup1\n      0x196f7f1e\n      eq\n      tag_7\n      jumpi\n    tag_2:\n      0x00\n      dup1\n      revert\n        /* \"smart-contracts/classroom/main/Canvassing_flattened.sol\":11148:12072  function getAmountOfFundingOfAnySurveyInWei(... */\n    tag_3:\n      tag_51\n      tag_52\n      calldatasize\n      0x04\n      tag_53\n      jump\t// in\n    tag_52:\n      tag_54\n      jump\t// in\n    tag_51:\n      mload(0x40)\n        /* \"#utility.yul\":413:438   */\n      swap1\n      dup2\n      mstore\n        /* \"#utility.yul\":401:403   */\n      0x20\n        /* \"#utility.yul\":386:404   */\n      add\n        /* \"smart-contracts/classroom/main/Canvassing_flattened.sol\":11148:12072  function getAmountOfFundingOfAnySurveyInWei(... */\n    tag_55:\n      mload(0x40)\n      dup1\n      swap2\n      sub\n      swap1\n      return\n        /* \"smart-contracts/classroom/main/Canvassing_flattened.sol\":17199:17383  function getResearcherByWalletAddress(address _walletAddress)... */\n    tag_4:\n      tag_57\n      tag_58\n      calldatasize\n      0x04\n      tag_59\n      jump\t// in\n    tag_58:\n      tag_60\n      jump\t// in\n    tag_57:\n      mload(0x40)\n      tag_55\n      swap2\n      swap1\n      tag_62\n      jump\t// in\n        /* \"smart-contracts/classroom/main/Canvassing_flattened.sol\":19012:20068  function getSurveysCreatedByResearcher(address _researcherWalletAddress)... */\n    tag_5:\n      tag_63\n      tag_64\n      calldatasize\n      0x04\n      tag_59\n      jump\t// in\n    tag_64:\n      tag_65\n      jump\t// in\n    tag_63:\n      mload(0x40)\n      tag_55\n      swap2\n      swap1\n      tag_67\n      jump\t// in\n        /* \"smart-contracts/classroom/main/Canvassing_flattened.sol\":4158:4219  mapping(uint256 => Participant[]) public participantsOfSurvey */\n    tag_6:\n      tag_68\n      tag_69\n      calldatasize\n      0x04\n      tag_53\n      jump\t// in\n    tag_69:\n      tag_70\n      jump\t// in\n    tag_68:\n      mload(0x40)\n      tag_55\n      swap9\n      swap8\n      swap7\n      swap6\n      swap5\n      swap4\n      swap3\n      swap2\n      swap1\n      tag_72\n      jump\t// in\n        /* \"smart-contracts/classroom/main/Canvassing_flattened.sol\":17389:18448  function createResearcher(... */\n    tag_7:\n      tag_73\n      tag_74\n      calldatasize\n      0x04\n      tag_75\n      jump\t// in\n    tag_74:\n      tag_76\n      jump\t// in\n    tag_73:\n      stop\n        /* \"smart-contracts/classroom/main/Canvassing_flattened.sol\":3240:3266  Survey[] public allSurveys */\n    tag_8:\n      tag_77\n      tag_78\n      calldatasize\n      0x04\n      tag_79\n      jump\t// in\n    tag_78:\n      tag_80\n      jump\t// in\n    tag_77:\n      mload(0x40)\n      tag_55\n      swap8\n      swap7\n      swap6\n      swap5\n      swap4\n      swap3\n      swap2\n      swap1\n      tag_82\n      jump\t// in\n        /* \"smart-contracts/classroom/main/Canvassing_flattened.sol\":12078:12784  function getAmountOfEarningPerParticipantForSurveyInWei(uint256 _surveyId)... */\n    tag_9:\n      tag_51\n      tag_84\n      calldatasize\n      0x04\n      tag_79\n      jump\t// in\n    tag_84:\n      tag_85\n      jump\t// in\n        /* \"smart-contracts/classroom/main/Canvassing_flattened.sol\":9653:10873  function getAllAnswersOfParticipantOfSurvey(... */\n    tag_10:\n      tag_87\n      tag_88\n      calldatasize\n      0x04\n      tag_89\n      jump\t// in\n    tag_88:\n      tag_90\n      jump\t// in\n    tag_87:\n      mload(0x40)\n      tag_55\n      swap2\n      swap1\n      tag_92\n      jump\t// in\n        /* \"smart-contracts/classroom/main/Canvassing_flattened.sol\":4931:5118  function getParticipantByWalletAddress(address _walletAddress)... */\n    tag_11:\n      tag_93\n      tag_94\n      calldatasize\n      0x04\n      tag_59\n      jump\t// in\n    tag_94:\n      tag_95\n      jump\t// in\n    tag_93:\n      mload(0x40)\n      tag_55\n      swap2\n      swap1\n      tag_97\n      jump\t// in\n        /* \"smart-contracts/classroom/main/Canvassing_flattened.sol\":8546:9474  function getTotalAmountOfEarningsReceivedByParticipantInWei(... */\n    tag_12:\n      tag_51\n      tag_99\n      calldatasize\n      0x04\n      tag_59\n      jump\t// in\n    tag_99:\n      tag_100\n      jump\t// in\n        /* \"smart-contracts/classroom/main/Canvassing_flattened.sol\":23583:23858  function getIdsOfLatestSurveysCreatedByResearchers(... */\n    tag_13:\n      tag_51\n      tag_103\n      calldatasize\n      0x04\n      tag_59\n      jump\t// in\n    tag_103:\n      sub(shl(0xa0, 0x01), 0x01)\n        /* \"smart-contracts/classroom/main/Canvassing_flattened.sol\":23749:23851  idsOfLatestSurveysCreatedByResearchers[... */\n      and\n        /* \"smart-contracts/classroom/main/Canvassing_flattened.sol\":23711:23718  uint256 */\n      0x00\n        /* \"smart-contracts/classroom/main/Canvassing_flattened.sol\":23749:23851  idsOfLatestSurveysCreatedByResearchers[... */\n      swap1\n      dup2\n      mstore\n        /* \"smart-contracts/classroom/main/Canvassing_flattened.sol\":23749:23787  idsOfLatestSurveysCreatedByResearchers */\n      0x0a\n        /* \"smart-contracts/classroom/main/Canvassing_flattened.sol\":23749:23851  idsOfLatestSurveysCreatedByResearchers[... */\n      0x20\n      mstore\n      0x40\n      swap1\n      keccak256\n      sload\n      swap1\n        /* \"smart-contracts/classroom/main/Canvassing_flattened.sol\":23583:23858  function getIdsOfLatestSurveysCreatedByResearchers(... */\n      jump\n        /* \"smart-contracts/classroom/main/Canvassing_flattened.sol\":6410:7432  function getAllEarningsMadeByParticipant(address _walletAddress)... */\n    tag_14:\n      tag_106\n      tag_107\n      calldatasize\n      0x04\n      tag_59\n      jump\t// in\n    tag_107:\n      tag_108\n      jump\t// in\n    tag_106:\n      mload(0x40)\n      tag_55\n      swap2\n      swap1\n      tag_110\n      jump\t// in\n        /* \"smart-contracts/classroom/main/Canvassing_flattened.sol\":7438:8540  function getAllSurveysTakenByParticipant(address _walletAddress)... */\n    tag_15:\n      tag_63\n      tag_112\n      calldatasize\n      0x04\n      tag_59\n      jump\t// in\n    tag_112:\n      tag_113\n      jump\t// in\n        /* \"smart-contracts/classroom/main/Canvassing_flattened.sol\":5124:6144  function createParticipant(... */\n    tag_16:\n      tag_73\n      tag_116\n      calldatasize\n      0x04\n      tag_117\n      jump\t// in\n    tag_116:\n      tag_118\n      jump\t// in\n        /* \"smart-contracts/classroom/main/Canvassing_flattened.sol\":18737:19006  function getTotalAmountFundedByResearchersInWei(... */\n    tag_17:\n      tag_51\n      tag_120\n      calldatasize\n      0x04\n      tag_59\n      jump\t// in\n    tag_120:\n      sub(shl(0xa0, 0x01), 0x01)\n        /* \"smart-contracts/classroom/main/Canvassing_flattened.sol\":18900:18999  totalAmountFundedByResearchersInWei[... */\n      and\n        /* \"smart-contracts/classroom/main/Canvassing_flattened.sol\":18862:18869  uint256 */\n      0x00\n        /* \"smart-contracts/classroom/main/Canvassing_flattened.sol\":18900:18999  totalAmountFundedByResearchersInWei[... */\n      swap1\n      dup2\n      mstore\n        /* \"smart-contracts/classroom/main/Canvassing_flattened.sol\":18900:18935  totalAmountFundedByResearchersInWei */\n      0x09\n        /* \"smart-contracts/classroom/main/Canvassing_flattened.sol\":18900:18999  totalAmountFundedByResearchersInWei[... */\n      0x20\n      mstore\n      0x40\n      swap1\n      keccak256\n      sload\n      swap1\n        /* \"smart-contracts/classroom/main/Canvassing_flattened.sol\":18737:19006  function getTotalAmountFundedByResearchersInWei(... */\n      jump\n        /* \"smart-contracts/classroom/main/Canvassing_flattened.sol\":12790:13305  function getAmountOfEarningForCanvassingForSurveyPerParticipantInWei(... */\n    tag_18:\n      tag_51\n      tag_124\n      calldatasize\n      0x04\n      tag_53\n      jump\t// in\n    tag_124:\n      tag_125\n      jump\t// in\n        /* \"smart-contracts/classroom/main/Canvassing_flattened.sol\":18454:18731  function getTotalNumberOfSurveyCreatedByResearcher(... */\n    tag_19:\n      tag_51\n      tag_128\n      calldatasize\n      0x04\n      tag_59\n      jump\t// in\n    tag_128:\n      sub(shl(0xa0, 0x01), 0x01)\n        /* \"smart-contracts/classroom/main/Canvassing_flattened.sol\":18620:18724  totalNumberOfSurveysCreatedByResearchers[... */\n      and\n        /* \"smart-contracts/classroom/main/Canvassing_flattened.sol\":18582:18589  uint256 */\n      0x00\n        /* \"smart-contracts/classroom/main/Canvassing_flattened.sol\":18620:18724  totalNumberOfSurveysCreatedByResearchers[... */\n      swap1\n      dup2\n      mstore\n        /* \"smart-contracts/classroom/main/Canvassing_flattened.sol\":18620:18660  totalNumberOfSurveysCreatedByResearchers */\n      0x08\n        /* \"smart-contracts/classroom/main/Canvassing_flattened.sol\":18620:18724  totalNumberOfSurveysCreatedByResearchers[... */\n      0x20\n      mstore\n      0x40\n      swap1\n      keccak256\n      sload\n      swap1\n        /* \"smart-contracts/classroom/main/Canvassing_flattened.sol\":18454:18731  function getTotalNumberOfSurveyCreatedByResearcher(... */\n      jump\n        /* \"smart-contracts/classroom/main/Canvassing_flattened.sol\":3785:3860  mapping(address => uint256) public totalNumberOfSurveysCreatedByResearchers */\n    tag_20:\n      tag_51\n      tag_132\n      calldatasize\n      0x04\n      tag_59\n      jump\t// in\n    tag_132:\n      mstore(0x20, 0x08)\n      0x00\n      swap1\n      dup2\n      mstore\n      0x40\n      swap1\n      keccak256\n      sload\n      dup2\n      jump\n        /* \"smart-contracts/classroom/main/Canvassing_flattened.sol\":3180:3234  mapping(address => Participant) public allParticipants */\n    tag_21:\n      tag_68\n      tag_136\n      calldatasize\n      0x04\n      tag_59\n      jump\t// in\n    tag_136:\n      tag_137\n      jump\t// in\n        /* \"smart-contracts/classroom/main/Canvassing_flattened.sol\":3920:3990  mapping(address => uint256) public totalAmountFundedByResearchersInWei */\n    tag_22:\n      tag_51\n      tag_140\n      calldatasize\n      0x04\n      tag_59\n      jump\t// in\n    tag_140:\n      mstore(0x20, 0x09)\n      0x00\n      swap1\n      dup2\n      mstore\n      0x40\n      swap1\n      keccak256\n      sload\n      dup2\n      jump\n        /* \"smart-contracts/classroom/main/Canvassing_flattened.sol\":21462:23577  function createSurvey(... */\n    tag_23:\n      tag_51\n      tag_144\n      calldatasize\n      0x04\n      tag_145\n      jump\t// in\n    tag_144:\n      tag_146\n      jump\t// in\n        /* \"smart-contracts/classroom/main/Canvassing_flattened.sol\":3388:3434  mapping(uint256 => Answer[]) public allAnswers */\n    tag_24:\n      tag_148\n      tag_149\n      calldatasize\n      0x04\n      tag_53\n      jump\t// in\n    tag_149:\n      tag_150\n      jump\t// in\n    tag_148:\n      0x40\n      dup1\n      mload\n        /* \"#utility.yul\":13002:13027   */\n      swap7\n      dup8\n      mstore\n        /* \"#utility.yul\":13058:13060   */\n      0x20\n        /* \"#utility.yul\":13043:13061   */\n      dup8\n      add\n        /* \"#utility.yul\":13036:13070   */\n      swap6\n      swap1\n      swap6\n      mstore\n        /* \"#utility.yul\":13086:13104   */\n      swap4\n      dup6\n      add\n        /* \"#utility.yul\":13079:13113   */\n      swap3\n      swap1\n      swap3\n      mstore\n      sub(shl(0xa0, 0x01), 0x01)\n        /* \"#utility.yul\":13149:13181   */\n      and\n        /* \"#utility.yul\":13144:13146   */\n      0x60\n        /* \"#utility.yul\":13129:13147   */\n      dup5\n      add\n        /* \"#utility.yul\":13122:13182   */\n      mstore\n        /* \"#utility.yul\":13226:13240   */\n      iszero\n        /* \"#utility.yul\":13219:13241   */\n      iszero\n        /* \"#utility.yul\":13213:13216   */\n      0x80\n        /* \"#utility.yul\":13198:13217   */\n      dup4\n      add\n        /* \"#utility.yul\":13191:13242   */\n      mstore\n        /* \"#utility.yul\":13286:13300   */\n      iszero\n        /* \"#utility.yul\":13279:13301   */\n      iszero\n        /* \"#utility.yul\":13169:13172   */\n      0xa0\n        /* \"#utility.yul\":13258:13277   */\n      dup3\n      add\n        /* \"#utility.yul\":13251:13302   */\n      mstore\n        /* \"#utility.yul\":12989:12992   */\n      0xc0\n        /* \"#utility.yul\":12974:12993   */\n      add\n        /* \"smart-contracts/classroom/main/Canvassing_flattened.sol\":3388:3434  mapping(uint256 => Answer[]) public allAnswers */\n      tag_55\n        /* \"#utility.yul\":12727:13308   */\n      jump\n        /* \"smart-contracts/classroom/main/Canvassing_flattened.sol\":14989:16930  function makePayoutAndCreateEarning(... */\n    tag_25:\n      tag_73\n      tag_154\n      calldatasize\n      0x04\n      tag_89\n      jump\t// in\n    tag_154:\n      tag_155\n      jump\t// in\n        /* \"smart-contracts/classroom/main/Canvassing_flattened.sol\":4666:4925  function checkIfParticipantExists(address _walletAddress)... */\n    tag_26:\n      tag_156\n      tag_157\n      calldatasize\n      0x04\n      tag_59\n      jump\t// in\n    tag_157:\n      tag_158\n      jump\t// in\n    tag_156:\n      mload(0x40)\n        /* \"#utility.yul\":13478:13492   */\n      swap1\n      iszero\n        /* \"#utility.yul\":13471:13493   */\n      iszero\n        /* \"#utility.yul\":13453:13494   */\n      dup2\n      mstore\n        /* \"#utility.yul\":13441:13443   */\n      0x20\n        /* \"#utility.yul\":13426:13444   */\n      add\n        /* \"smart-contracts/classroom/main/Canvassing_flattened.sol\":4666:4925  function checkIfParticipantExists(address _walletAddress)... */\n      tag_55\n        /* \"#utility.yul\":13313:13500   */\n      jump\n        /* \"smart-contracts/classroom/main/Canvassing_flattened.sol\":21209:21456  function verifyResearcher(address _walletAddress) public {... */\n    tag_27:\n      tag_73\n      tag_162\n      calldatasize\n      0x04\n      tag_59\n      jump\t// in\n    tag_162:\n      tag_163\n      jump\t// in\n        /* \"smart-contracts/classroom/main/Canvassing_flattened.sol\":6150:6247  function getAllSurveys() public view returns (Survey[] memory) {... */\n    tag_28:\n      tag_63\n      tag_165\n      jump\t// in\n        /* \"smart-contracts/classroom/main/Canvassing_flattened.sol\":3632:3726  mapping(uint256 => mapping(address => bool))... */\n    tag_29:\n      tag_156\n      tag_168\n      calldatasize\n      0x04\n      tag_89\n      jump\t// in\n    tag_168:\n      0x07\n      0x20\n      swap1\n      dup2\n      mstore\n      0x00\n      swap3\n      dup4\n      mstore\n      0x40\n      dup1\n      dup5\n      keccak256\n      swap1\n      swap2\n      mstore\n      swap1\n      dup3\n      mstore\n      swap1\n      keccak256\n      sload\n      0xff\n      and\n      dup2\n      jump\n        /* \"smart-contracts/classroom/main/Canvassing_flattened.sol\":4261:4289  Earning[] public allEarnings */\n    tag_30:\n      tag_171\n      tag_172\n      calldatasize\n      0x04\n      tag_79\n      jump\t// in\n    tag_172:\n      tag_173\n      jump\t// in\n    tag_171:\n      0x40\n      dup1\n      mload\n        /* \"#utility.yul\":13758:13783   */\n      swap6\n      dup7\n      mstore\n        /* \"#utility.yul\":13814:13816   */\n      0x20\n        /* \"#utility.yul\":13799:13817   */\n      dup7\n      add\n        /* \"#utility.yul\":13792:13826   */\n      swap5\n      swap1\n      swap5\n      mstore\n      sub(shl(0xa0, 0x01), 0x01)\n        /* \"#utility.yul\":13862:13894   */\n      swap1\n      swap3\n      and\n        /* \"#utility.yul\":13842:13860   */\n      swap3\n      dup5\n      add\n        /* \"#utility.yul\":13835:13895   */\n      swap3\n      swap1\n      swap3\n      mstore\n        /* \"#utility.yul\":13926:13928   */\n      0x60\n        /* \"#utility.yul\":13911:13929   */\n      dup4\n      add\n        /* \"#utility.yul\":13904:13938   */\n      swap2\n      swap1\n      swap2\n      mstore\n        /* \"#utility.yul\":13982:13996   */\n      iszero\n        /* \"#utility.yul\":13975:13997   */\n      iszero\n        /* \"#utility.yul\":13969:13972   */\n      0x80\n        /* \"#utility.yul\":13954:13973   */\n      dup3\n      add\n        /* \"#utility.yul\":13947:13998   */\n      mstore\n        /* \"#utility.yul\":13745:13748   */\n      0xa0\n        /* \"#utility.yul\":13730:13749   */\n      add\n        /* \"smart-contracts/classroom/main/Canvassing_flattened.sol\":4261:4289  Earning[] public allEarnings */\n      tag_55\n        /* \"#utility.yul\":13505:14004   */\n      jump\n        /* \"smart-contracts/classroom/main/Canvassing_flattened.sol\":4226:4254  Funding[] public allFundings */\n    tag_31:\n      tag_171\n      tag_177\n      calldatasize\n      0x04\n      tag_79\n      jump\t// in\n    tag_177:\n      tag_178\n      jump\t// in\n        /* \"smart-contracts/classroom/main/Canvassing_flattened.sol\":23864:24042  function getParticipantsOfSurvey(uint256 _surveyId)... */\n    tag_32:\n      tag_180\n      tag_181\n      calldatasize\n      0x04\n      tag_79\n      jump\t// in\n    tag_181:\n      tag_182\n      jump\t// in\n    tag_180:\n      mload(0x40)\n      tag_55\n      swap2\n      swap1\n      tag_184\n      jump\t// in\n        /* \"smart-contracts/classroom/main/Canvassing_flattened.sol\":16936:17193  function checkIfResearcherExists(address _walletAddress)... */\n    tag_33:\n      tag_156\n      tag_186\n      calldatasize\n      0x04\n      tag_59\n      jump\t// in\n    tag_186:\n      tag_187\n      jump\t// in\n        /* \"smart-contracts/classroom/main/Canvassing_flattened.sol\":10879:11142  function checkIfParticipantHasAlreadyParticipatedInSurvey(... */\n    tag_34:\n      tag_156\n      tag_190\n      calldatasize\n      0x04\n      tag_191\n      jump\t// in\n    tag_190:\n        /* \"smart-contracts/classroom/main/Canvassing_flattened.sol\":11034:11038  bool */\n      0x00\n        /* \"smart-contracts/classroom/main/Canvassing_flattened.sol\":11069:11108  participationStatusForSurvey[_surveyId] */\n      swap1\n      dup2\n      mstore\n        /* \"smart-contracts/classroom/main/Canvassing_flattened.sol\":11069:11097  participationStatusForSurvey */\n      0x06\n        /* \"smart-contracts/classroom/main/Canvassing_flattened.sol\":11069:11108  participationStatusForSurvey[_surveyId] */\n      0x20\n      swap1\n      dup2\n      mstore\n      0x40\n      dup1\n      dup4\n      keccak256\n      sub(shl(0xa0, 0x01), 0x01)\n        /* \"smart-contracts/classroom/main/Canvassing_flattened.sol\":11069:11135  participationStatusForSurvey[_surveyId][_participantWalletAddress] */\n      swap5\n      swap1\n      swap5\n      and\n      dup4\n      mstore\n      swap3\n      swap1\n      mstore\n      keccak256\n      sload\n      0xff\n      and\n      swap1\n        /* \"smart-contracts/classroom/main/Canvassing_flattened.sol\":10879:11142  function checkIfParticipantHasAlreadyParticipatedInSurvey(... */\n      jump\n        /* \"smart-contracts/classroom/main/Canvassing_flattened.sol\":20074:21203  function createFunding(... */\n    tag_35:\n      tag_73\n      tag_195\n      calldatasize\n      0x04\n      tag_196\n      jump\t// in\n    tag_195:\n      tag_197\n      jump\t// in\n        /* \"smart-contracts/classroom/main/Canvassing_flattened.sol\":3470:3558  mapping(uint256 => mapping(address => bool))... */\n    tag_36:\n      tag_156\n      tag_199\n      calldatasize\n      0x04\n      tag_89\n      jump\t// in\n    tag_199:\n      0x06\n      0x20\n      swap1\n      dup2\n      mstore\n      0x00\n      swap3\n      dup4\n      mstore\n      0x40\n      dup1\n      dup5\n      keccak256\n      swap1\n      swap2\n      mstore\n      swap1\n      dup3\n      mstore\n      swap1\n      keccak256\n      sload\n      0xff\n      and\n      dup2\n      jump\n        /* \"smart-contracts/classroom/main/Canvassing_flattened.sol\":6253:6404  function getSurveyById(uint256 _surveyId)... */\n    tag_37:\n      tag_202\n      tag_203\n      calldatasize\n      0x04\n      tag_79\n      jump\t// in\n    tag_203:\n      tag_204\n      jump\t// in\n    tag_202:\n      mload(0x40)\n      tag_55\n      swap2\n      swap1\n      tag_206\n      jump\t// in\n        /* \"smart-contracts/classroom/main/Canvassing_flattened.sol\":13311:14983  function participateInSurvey(... */\n    tag_38:\n      tag_73\n      tag_208\n      calldatasize\n      0x04\n      tag_209\n      jump\t// in\n    tag_208:\n      tag_210\n      jump\t// in\n        /* \"smart-contracts/classroom/main/Canvassing_flattened.sol\":24048:24206  function getAnswersOfSurvey(uint256 _surveyId)... */\n    tag_39:\n      tag_87\n      tag_212\n      calldatasize\n      0x04\n      tag_79\n      jump\t// in\n    tag_212:\n      tag_213\n      jump\t// in\n        /* \"smart-contracts/classroom/main/Canvassing_flattened.sol\":4049:4122  mapping(address => uint256) public idsOfLatestSurveysCreatedByResearchers */\n    tag_40:\n      tag_51\n      tag_216\n      calldatasize\n      0x04\n      tag_59\n      jump\t// in\n    tag_216:\n      mstore(0x20, 0x0a)\n      0x00\n      swap1\n      dup2\n      mstore\n      0x40\n      swap1\n      keccak256\n      sload\n      dup2\n      jump\n        /* \"smart-contracts/classroom/main/Canvassing_flattened.sol\":9480:9647  function getAllQuestionsOfSurvey(uint256 _surveyId)... */\n    tag_41:\n      tag_219\n      tag_220\n      calldatasize\n      0x04\n      tag_79\n      jump\t// in\n    tag_220:\n      tag_221\n      jump\t// in\n    tag_219:\n      mload(0x40)\n      tag_55\n      swap2\n      swap1\n      tag_223\n      jump\t// in\n        /* \"smart-contracts/classroom/main/Canvassing_flattened.sol\":3076:3128  mapping(address => Researcher) public allResearchers */\n    tag_42:\n      tag_224\n      tag_225\n      calldatasize\n      0x04\n      tag_59\n      jump\t// in\n    tag_225:\n      tag_226\n      jump\t// in\n    tag_224:\n      mload(0x40)\n      tag_55\n      swap8\n      swap7\n      swap6\n      swap5\n      swap4\n      swap3\n      swap2\n      swap1\n      tag_228\n      jump\t// in\n        /* \"smart-contracts/classroom/main/Canvassing_flattened.sol\":3302:3352  mapping(uint256 => Question[]) public allQuestions */\n    tag_43:\n      tag_229\n      tag_230\n      calldatasize\n      0x04\n      tag_53\n      jump\t// in\n    tag_230:\n      tag_231\n      jump\t// in\n    tag_229:\n      mload(0x40)\n      tag_55\n      swap5\n      swap4\n      swap3\n      swap2\n      swap1\n      tag_233\n      jump\t// in\n        /* \"smart-contracts/classroom/main/Canvassing_flattened.sol\":11148:12072  function getAmountOfFundingOfAnySurveyInWei(... */\n    tag_54:\n        /* \"smart-contracts/classroom/main/Canvassing_flattened.sol\":11559:11576  cUSDDecimalPlaces */\n      sload(0x16)\n        /* \"smart-contracts/classroom/main/Canvassing_flattened.sol\":11300:11307  uint256 */\n      0x00\n      swap1\n      dup2\n      swap1\n        /* \"smart-contracts/classroom/main/Canvassing_flattened.sol\":11526:11576  _numberOfQuestions *... */\n      tag_235\n      swap1\n        /* \"smart-contracts/classroom/main/Canvassing_flattened.sol\":11526:11544  _numberOfQuestions */\n      dup6\n        /* \"smart-contracts/classroom/main/Canvassing_flattened.sol\":11526:11576  _numberOfQuestions *... */\n      tag_236\n      jump\t// in\n    tag_235:\n        /* \"smart-contracts/classroom/main/Canvassing_flattened.sol\":11489:11577  potentialFundingOfAnySurveyInWei += (_numberOfQuestions *... */\n      tag_237\n      swap1\n      dup3\n      tag_238\n      jump\t// in\n    tag_237:\n      swap1\n      pop\n        /* \"smart-contracts/classroom/main/Canvassing_flattened.sol\":11634:11661  _targetNumberOfParticipants */\n      dup3\n        /* \"smart-contracts/classroom/main/Canvassing_flattened.sol\":11665:11666  5 */\n      0x05\n        /* \"smart-contracts/classroom/main/Canvassing_flattened.sol\":11634:11666  _targetNumberOfParticipants == 5 */\n      sub\n        /* \"smart-contracts/classroom/main/Canvassing_flattened.sol\":11630:11752  if (_targetNumberOfParticipants == 5) {... */\n      tag_239\n      jumpi\n        /* \"smart-contracts/classroom/main/Canvassing_flattened.sol\":11723:11740  cUSDDecimalPlaces */\n      sload(0x16)\n        /* \"smart-contracts/classroom/main/Canvassing_flattened.sol\":11719:11740  2 * cUSDDecimalPlaces */\n      tag_240\n      swap1\n        /* \"smart-contracts/classroom/main/Canvassing_flattened.sol\":11719:11720  2 */\n      0x02\n        /* \"smart-contracts/classroom/main/Canvassing_flattened.sol\":11719:11740  2 * cUSDDecimalPlaces */\n      tag_236\n      jump\t// in\n    tag_240:\n        /* \"smart-contracts/classroom/main/Canvassing_flattened.sol\":11682:11741  potentialFundingOfAnySurveyInWei += (2 * cUSDDecimalPlaces) */\n      tag_241\n      swap1\n      dup3\n      tag_238\n      jump\t// in\n    tag_241:\n      swap1\n      pop\n        /* \"smart-contracts/classroom/main/Canvassing_flattened.sol\":11630:11752  if (_targetNumberOfParticipants == 5) {... */\n    tag_239:\n        /* \"smart-contracts/classroom/main/Canvassing_flattened.sol\":11766:11793  _targetNumberOfParticipants */\n      dup3\n        /* \"smart-contracts/classroom/main/Canvassing_flattened.sol\":11797:11798  7 */\n      0x07\n        /* \"smart-contracts/classroom/main/Canvassing_flattened.sol\":11766:11798  _targetNumberOfParticipants == 7 */\n      sub\n        /* \"smart-contracts/classroom/main/Canvassing_flattened.sol\":11762:11884  if (_targetNumberOfParticipants == 7) {... */\n      tag_242\n      jumpi\n        /* \"smart-contracts/classroom/main/Canvassing_flattened.sol\":11855:11872  cUSDDecimalPlaces */\n      sload(0x16)\n        /* \"smart-contracts/classroom/main/Canvassing_flattened.sol\":11851:11872  4 * cUSDDecimalPlaces */\n      tag_243\n      swap1\n        /* \"smart-contracts/classroom/main/Canvassing_flattened.sol\":11851:11852  4 */\n      0x04\n        /* \"smart-contracts/classroom/main/Canvassing_flattened.sol\":11851:11872  4 * cUSDDecimalPlaces */\n      tag_236\n      jump\t// in\n    tag_243:\n        /* \"smart-contracts/classroom/main/Canvassing_flattened.sol\":11814:11873  potentialFundingOfAnySurveyInWei += (4 * cUSDDecimalPlaces) */\n      tag_244\n      swap1\n      dup3\n      tag_238\n      jump\t// in\n    tag_244:\n      swap1\n      pop\n        /* \"smart-contracts/classroom/main/Canvassing_flattened.sol\":11762:11884  if (_targetNumberOfParticipants == 7) {... */\n    tag_242:\n        /* \"smart-contracts/classroom/main/Canvassing_flattened.sol\":11898:11925  _targetNumberOfParticipants */\n      dup3\n        /* \"smart-contracts/classroom/main/Canvassing_flattened.sol\":11929:11930  9 */\n      0x09\n        /* \"smart-contracts/classroom/main/Canvassing_flattened.sol\":11898:11930  _targetNumberOfParticipants == 9 */\n      sub\n        /* \"smart-contracts/classroom/main/Canvassing_flattened.sol\":11894:12016  if (_targetNumberOfParticipants == 9) {... */\n      tag_245\n      jumpi\n        /* \"smart-contracts/classroom/main/Canvassing_flattened.sol\":11987:12004  cUSDDecimalPlaces */\n      sload(0x16)\n        /* \"smart-contracts/classroom/main/Canvassing_flattened.sol\":11983:12004  6 * cUSDDecimalPlaces */\n      tag_246\n      swap1\n        /* \"smart-contracts/classroom/main/Canvassing_flattened.sol\":11983:11984  6 */\n      0x06\n        /* \"smart-contracts/classroom/main/Canvassing_flattened.sol\":11983:12004  6 * cUSDDecimalPlaces */\n      tag_236\n      jump\t// in\n    tag_246:\n        /* \"smart-contracts/classroom/main/Canvassing_flattened.sol\":11946:12005  potentialFundingOfAnySurveyInWei += (6 * cUSDDecimalPlaces) */\n      tag_247\n      swap1\n      dup3\n      tag_238\n      jump\t// in\n    tag_247:\n      swap1\n      pop\n        /* \"smart-contracts/classroom/main/Canvassing_flattened.sol\":11894:12016  if (_targetNumberOfParticipants == 9) {... */\n    tag_245:\n        /* \"smart-contracts/classroom/main/Canvassing_flattened.sol\":12033:12065  potentialFundingOfAnySurveyInWei */\n      swap1\n      pop\n        /* \"smart-contracts/classroom/main/Canvassing_flattened.sol\":11148:12072  function getAmountOfFundingOfAnySurveyInWei(... */\n    tag_234:\n      swap3\n      swap2\n      pop\n      pop\n      jump\t// out\n        /* \"smart-contracts/classroom/main/Canvassing_flattened.sol\":17199:17383  function getResearcherByWalletAddress(address _walletAddress)... */\n    tag_60:\n        /* \"smart-contracts/classroom/main/Canvassing_flattened.sol\":17306:17323  Researcher memory */\n      tag_248\n      tag_249\n      jump\t// in\n    tag_248:\n      sub(shl(0xa0, 0x01), 0x01)\n        /* \"smart-contracts/classroom/main/Canvassing_flattened.sol\":17346:17376  allResearchers[_walletAddress] */\n      dup1\n      dup4\n      and\n      0x00\n      swap1\n      dup2\n      mstore\n        /* \"smart-contracts/classroom/main/Canvassing_flattened.sol\":17346:17360  allResearchers */\n      0x01\n        /* \"smart-contracts/classroom/main/Canvassing_flattened.sol\":17346:17376  allResearchers[_walletAddress] */\n      0x20\n      dup2\n      dup2\n      mstore\n      0x40\n      swap3\n      dup4\n      swap1\n      keccak256\n        /* \"smart-contracts/classroom/main/Canvassing_flattened.sol\":17339:17376  return allResearchers[_walletAddress] */\n      dup4\n      mload\n      0xe0\n      dup2\n      add\n      dup6\n      mstore\n      dup2\n      sload\n      dup2\n      mstore\n      swap3\n      dup2\n      add\n      sload\n      swap1\n      swap5\n      and\n      swap1\n      dup3\n      add\n      mstore\n      0x02\n      dup4\n      add\n      dup1\n      sload\n      swap2\n      swap4\n        /* \"smart-contracts/classroom/main/Canvassing_flattened.sol\":17346:17376  allResearchers[_walletAddress] */\n      swap3\n        /* \"smart-contracts/classroom/main/Canvassing_flattened.sol\":17339:17376  return allResearchers[_walletAddress] */\n      dup5\n      add\n      swap2\n      tag_251\n      swap1\n      tag_252\n      jump\t// in\n    tag_251:\n      dup1\n      0x1f\n      add\n      0x20\n      dup1\n      swap2\n      div\n      mul\n      0x20\n      add\n      mload(0x40)\n      swap1\n      dup2\n      add\n      0x40\n      mstore\n      dup1\n      swap3\n      swap2\n      swap1\n      dup2\n      dup2\n      mstore\n      0x20\n      add\n      dup3\n      dup1\n      sload\n      tag_253\n      swap1\n      tag_252\n      jump\t// in\n    tag_253:\n      dup1\n      iszero\n      tag_254\n      jumpi\n      dup1\n      0x1f\n      lt\n      tag_255\n      jumpi\n      0x0100\n      dup1\n      dup4\n      sload\n      div\n      mul\n      dup4\n      mstore\n      swap2\n      0x20\n      add\n      swap2\n      jump(tag_254)\n    tag_255:\n      dup3\n      add\n      swap2\n      swap1\n      0x00\n      mstore\n      keccak256(0x00, 0x20)\n      swap1\n    tag_256:\n      dup2\n      sload\n      dup2\n      mstore\n      swap1\n      0x01\n      add\n      swap1\n      0x20\n      add\n      dup1\n      dup4\n      gt\n      tag_256\n      jumpi\n      dup3\n      swap1\n      sub\n      0x1f\n      and\n      dup3\n      add\n      swap2\n    tag_254:\n      pop\n      pop\n      pop\n      swap2\n      dup4\n      mstore\n      pop\n      pop\n      0x03\n      dup3\n      add\n      sload\n      0x20\n      dup3\n      add\n      mstore\n      0x04\n      swap1\n      swap2\n      add\n      sload\n      0xff\n      dup1\n      dup3\n      and\n      iszero\n      iszero\n      0x40\n      dup5\n      add\n      mstore\n      0x0100\n      dup3\n      div\n      dup2\n      and\n      iszero\n      iszero\n      0x60\n      dup5\n      add\n      mstore\n      0x010000\n      swap1\n      swap2\n      div\n      and\n      iszero\n      iszero\n      0x80\n      swap1\n      swap2\n      add\n      mstore\n      swap3\n        /* \"smart-contracts/classroom/main/Canvassing_flattened.sol\":17199:17383  function getResearcherByWalletAddress(address _walletAddress)... */\n      swap2\n      pop\n      pop\n      jump\t// out\n        /* \"smart-contracts/classroom/main/Canvassing_flattened.sol\":19012:20068  function getSurveysCreatedByResearcher(address _researcherWalletAddress)... */\n    tag_65:\n      sub(shl(0xa0, 0x01), 0x01)\n        /* \"smart-contracts/classroom/main/Canvassing_flattened.sol\":19211:19307  totalNumberOfSurveysCreatedByResearchers[... */\n      dup2\n      and\n        /* \"smart-contracts/classroom/main/Canvassing_flattened.sol\":19161:19208  uint256 totalNumberOfSurveysCreatedByResearcher */\n      0x00\n        /* \"smart-contracts/classroom/main/Canvassing_flattened.sol\":19211:19307  totalNumberOfSurveysCreatedByResearchers[... */\n      swap1\n      dup2\n      mstore\n        /* \"smart-contracts/classroom/main/Canvassing_flattened.sol\":19211:19251  totalNumberOfSurveysCreatedByResearchers */\n      0x08\n        /* \"smart-contracts/classroom/main/Canvassing_flattened.sol\":19211:19307  totalNumberOfSurveysCreatedByResearchers[... */\n      0x20\n      mstore\n      0x40\n      dup2\n      keccak256\n      sload\n        /* \"smart-contracts/classroom/main/Canvassing_flattened.sol\":19130:19145  Survey[] memory */\n      0x60\n      swap2\n        /* \"smart-contracts/classroom/main/Canvassing_flattened.sol\":19211:19307  totalNumberOfSurveysCreatedByResearchers[... */\n      dup2\n      sub(shl(0x40, 0x01), 0x01)\n        /* \"smart-contracts/classroom/main/Canvassing_flattened.sol\":19366:19441  new Survey[](... */\n      dup2\n      gt\n      iszero\n      tag_259\n      jumpi\n      tag_259\n      tag_260\n      jump\t// in\n    tag_259:\n      mload(0x40)\n      swap1\n      dup1\n      dup3\n      mstore\n      dup1\n      0x20\n      mul\n      0x20\n      add\n      dup3\n      add\n      0x40\n      mstore\n      dup1\n      iszero\n      tag_261\n      jumpi\n      dup2\n      0x20\n      add\n    tag_262:\n      tag_263\n      tag_264\n      jump\t// in\n    tag_263:\n      dup2\n      mstore\n      0x20\n      add\n      swap1\n      0x01\n      swap1\n      sub\n      swap1\n      dup2\n      tag_262\n      jumpi\n      swap1\n      pop\n    tag_261:\n      pop\n        /* \"smart-contracts/classroom/main/Canvassing_flattened.sol\":19318:19441  Survey[] memory allSurveysCreatedByResearcher = new Survey[](... */\n      swap1\n      pop\n        /* \"smart-contracts/classroom/main/Canvassing_flattened.sol\":19452:19471  uint256 surveyIndex */\n      0x00\n        /* \"smart-contracts/classroom/main/Canvassing_flattened.sol\":19491:19507  uint256 surveyId */\n      dup1\n        /* \"smart-contracts/classroom/main/Canvassing_flattened.sol\":19486:20015  for (uint256 surveyId = 0; surveyId < allSurveys.length; surveyId++) {... */\n    tag_265:\n        /* \"smart-contracts/classroom/main/Canvassing_flattened.sol\":19524:19534  allSurveys */\n      0x03\n        /* \"smart-contracts/classroom/main/Canvassing_flattened.sol\":19524:19541  allSurveys.length */\n      sload\n        /* \"smart-contracts/classroom/main/Canvassing_flattened.sol\":19513:19541  surveyId < allSurveys.length */\n      dup2\n      lt\n        /* \"smart-contracts/classroom/main/Canvassing_flattened.sol\":19486:20015  for (uint256 surveyId = 0; surveyId < allSurveys.length; surveyId++) {... */\n      iszero\n      tag_266\n      jumpi\n        /* \"smart-contracts/classroom/main/Canvassing_flattened.sol\":19569:19596  Survey memory runningSurvey */\n      0x00\n        /* \"smart-contracts/classroom/main/Canvassing_flattened.sol\":19599:19609  allSurveys */\n      0x03\n        /* \"smart-contracts/classroom/main/Canvassing_flattened.sol\":19610:19618  surveyId */\n      dup3\n        /* \"smart-contracts/classroom/main/Canvassing_flattened.sol\":19599:19619  allSurveys[surveyId] */\n      dup2\n      sload\n      dup2\n      lt\n      tag_269\n      jumpi\n      tag_269\n      tag_270\n      jump\t// in\n    tag_269:\n      swap1\n      0x00\n      mstore\n      keccak256(0x00, 0x20)\n      swap1\n      0x07\n      mul\n      add\n        /* \"smart-contracts/classroom/main/Canvassing_flattened.sol\":19569:19619  Survey memory runningSurvey = allSurveys[surveyId] */\n      mload(0x40)\n      dup1\n      0xe0\n      add\n      0x40\n      mstore\n      swap1\n      dup2\n      0x00\n      dup3\n      add\n      sload\n      dup2\n      mstore\n      0x20\n      add\n      0x01\n      dup3\n      add\n      0x00\n      swap1\n      sload\n      swap1\n      0x0100\n      exp\n      swap1\n      div\n      sub(shl(0xa0, 0x01), 0x01)\n      and\n      sub(shl(0xa0, 0x01), 0x01)\n      and\n      sub(shl(0xa0, 0x01), 0x01)\n      and\n      dup2\n      mstore\n      0x20\n      add\n      0x02\n      dup3\n      add\n      dup1\n      sload\n      tag_272\n      swap1\n      tag_252\n      jump\t// in\n    tag_272:\n      dup1\n      0x1f\n      add\n      0x20\n      dup1\n      swap2\n      div\n      mul\n      0x20\n      add\n      mload(0x40)\n      swap1\n      dup2\n      add\n      0x40\n      mstore\n      dup1\n      swap3\n      swap2\n      swap1\n      dup2\n      dup2\n      mstore\n      0x20\n      add\n      dup3\n      dup1\n      sload\n      tag_273\n      swap1\n      tag_252\n      jump\t// in\n    tag_273:\n      dup1\n      iszero\n      tag_274\n      jumpi\n      dup1\n      0x1f\n      lt\n      tag_275\n      jumpi\n      0x0100\n      dup1\n      dup4\n      sload\n      div\n      mul\n      dup4\n      mstore\n      swap2\n      0x20\n      add\n      swap2\n      jump(tag_274)\n    tag_275:\n      dup3\n      add\n      swap2\n      swap1\n      0x00\n      mstore\n      keccak256(0x00, 0x20)\n      swap1\n    tag_276:\n      dup2\n      sload\n      dup2\n      mstore\n      swap1\n      0x01\n      add\n      swap1\n      0x20\n      add\n      dup1\n      dup4\n      gt\n      tag_276\n      jumpi\n      dup3\n      swap1\n      sub\n      0x1f\n      and\n      dup3\n      add\n      swap2\n    tag_274:\n      pop\n      pop\n      pop\n      swap2\n      dup4\n      mstore\n      pop\n      pop\n      0x03\n      dup3\n      add\n      sload\n      0x20\n      dup1\n      dup4\n      add\n      swap2\n      swap1\n      swap2\n      mstore\n      0x04\n      dup4\n      add\n      sload\n      0x40\n      dup4\n      add\n      mstore\n      0x05\n      dup4\n      add\n      sload\n      0x60\n      dup4\n      add\n      mstore\n      0x06\n      swap1\n      swap3\n      add\n      sload\n      0xff\n      and\n      iszero\n      iszero\n      0x80\n      swap1\n      swap2\n      add\n      mstore\n        /* \"smart-contracts/classroom/main/Canvassing_flattened.sol\":19655:19700  runningSurvey.creatingResearcherWalletAddress */\n      dup2\n      add\n      mload\n        /* \"smart-contracts/classroom/main/Canvassing_flattened.sol\":19569:19619  Survey memory runningSurvey = allSurveys[surveyId] */\n      swap1\n      swap2\n      pop\n      sub(shl(0xa0, 0x01), 0x01)\n        /* \"smart-contracts/classroom/main/Canvassing_flattened.sol\":19655:19744  runningSurvey.creatingResearcherWalletAddress ==... */\n      dup1\n      dup10\n      and\n      swap2\n      and\n      sub\n        /* \"smart-contracts/classroom/main/Canvassing_flattened.sol\":19634:20005  if (... */\n      tag_282\n      jumpi\n        /* \"smart-contracts/classroom/main/Canvassing_flattened.sol\":19822:19835  runningSurvey */\n      dup1\n        /* \"smart-contracts/classroom/main/Canvassing_flattened.sol\":19777:19806  allSurveysCreatedByResearcher */\n      dup5\n        /* \"smart-contracts/classroom/main/Canvassing_flattened.sol\":19807:19818  surveyIndex */\n      dup5\n        /* \"smart-contracts/classroom/main/Canvassing_flattened.sol\":19777:19819  allSurveysCreatedByResearcher[surveyIndex] */\n      dup2\n      mload\n      dup2\n      lt\n      tag_279\n      jumpi\n      tag_279\n      tag_270\n      jump\t// in\n    tag_279:\n      0x20\n      mul\n      0x20\n      add\n      add\n        /* \"smart-contracts/classroom/main/Canvassing_flattened.sol\":19777:19835  allSurveysCreatedByResearcher[surveyIndex] = runningSurvey */\n      dup2\n      swap1\n      mstore\n      pop\n        /* \"smart-contracts/classroom/main/Canvassing_flattened.sol\":19853:19866  surveyIndex++ */\n      dup3\n      dup1\n      tag_280\n      swap1\n      tag_281\n      jump\t// in\n    tag_280:\n      swap4\n      pop\n      pop\n        /* \"smart-contracts/classroom/main/Canvassing_flattened.sol\":19904:19943  totalNumberOfSurveysCreatedByResearcher */\n      dup5\n        /* \"smart-contracts/classroom/main/Canvassing_flattened.sol\":19889:19900  surveyIndex */\n      dup4\n        /* \"smart-contracts/classroom/main/Canvassing_flattened.sol\":19889:19943  surveyIndex == totalNumberOfSurveysCreatedByResearcher */\n      sub\n        /* \"smart-contracts/classroom/main/Canvassing_flattened.sol\":19885:19991  if (surveyIndex == totalNumberOfSurveysCreatedByResearcher) {... */\n      tag_282\n      jumpi\n        /* \"smart-contracts/classroom/main/Canvassing_flattened.sol\":19967:19972  break */\n      pop\n      jump(tag_266)\n        /* \"smart-contracts/classroom/main/Canvassing_flattened.sol\":19885:19991  if (surveyIndex == totalNumberOfSurveysCreatedByResearcher) {... */\n    tag_282:\n      pop\n        /* \"smart-contracts/classroom/main/Canvassing_flattened.sol\":19543:19553  surveyId++ */\n      dup1\n      tag_283\n      dup2\n      tag_281\n      jump\t// in\n    tag_283:\n      swap2\n      pop\n      pop\n        /* \"smart-contracts/classroom/main/Canvassing_flattened.sol\":19486:20015  for (uint256 surveyId = 0; surveyId < allSurveys.length; surveyId++) {... */\n      jump(tag_265)\n    tag_266:\n      pop\n        /* \"smart-contracts/classroom/main/Canvassing_flattened.sol\":20032:20061  allSurveysCreatedByResearcher */\n      swap1\n      swap5\n        /* \"smart-contracts/classroom/main/Canvassing_flattened.sol\":19012:20068  function getSurveysCreatedByResearcher(address _researcherWalletAddress)... */\n      swap4\n      pop\n      pop\n      pop\n      pop\n      jump\t// out\n        /* \"smart-contracts/classroom/main/Canvassing_flattened.sol\":4158:4219  mapping(uint256 => Participant[]) public participantsOfSurvey */\n    tag_70:\n      mstore(0x20, 0x0b)\n      dup2\n      0x00\n      mstore\n      keccak256(0x00, 0x40)\n      dup2\n      dup2\n      sload\n      dup2\n      lt\n      tag_284\n      jumpi\n      0x00\n      dup1\n      revert\n    tag_284:\n      0x00\n      swap2\n      dup3\n      mstore\n      0x20\n      swap1\n      swap2\n      keccak256\n      0x07\n      swap1\n      swap2\n      mul\n      add\n      dup1\n      sload\n      0x01\n      dup3\n      add\n      sload\n      0x02\n      dup4\n      add\n      dup1\n      sload\n      swap3\n      swap6\n      pop\n      sub(shl(0xa0, 0x01), 0x01)\n      swap1\n      swap2\n      and\n      swap4\n      pop\n      swap1\n      tag_286\n      swap1\n      tag_252\n      jump\t// in\n    tag_286:\n      dup1\n      0x1f\n      add\n      0x20\n      dup1\n      swap2\n      div\n      mul\n      0x20\n      add\n      mload(0x40)\n      swap1\n      dup2\n      add\n      0x40\n      mstore\n      dup1\n      swap3\n      swap2\n      swap1\n      dup2\n      dup2\n      mstore\n      0x20\n      add\n      dup3\n      dup1\n      sload\n      tag_287\n      swap1\n      tag_252\n      jump\t// in\n    tag_287:\n      dup1\n      iszero\n      tag_288\n      jumpi\n      dup1\n      0x1f\n      lt\n      tag_289\n      jumpi\n      0x0100\n      dup1\n      dup4\n      sload\n      div\n      mul\n      dup4\n      mstore\n      swap2\n      0x20\n      add\n      swap2\n      jump(tag_288)\n    tag_289:\n      dup3\n      add\n      swap2\n      swap1\n      0x00\n      mstore\n      keccak256(0x00, 0x20)\n      swap1\n    tag_290:\n      dup2\n      sload\n      dup2\n      mstore\n      swap1\n      0x01\n      add\n      swap1\n      0x20\n      add\n      dup1\n      dup4\n      gt\n      tag_290\n      jumpi\n      dup3\n      swap1\n      sub\n      0x1f\n      and\n      dup3\n      add\n      swap2\n    tag_288:\n      pop\n      pop\n      pop\n      pop\n      pop\n      swap1\n      dup1\n      0x03\n      add\n      dup1\n      sload\n      tag_291\n      swap1\n      tag_252\n      jump\t// in\n    tag_291:\n      dup1\n      0x1f\n      add\n      0x20\n      dup1\n      swap2\n      div\n      mul\n      0x20\n      add\n      mload(0x40)\n      swap1\n      dup2\n      add\n      0x40\n      mstore\n      dup1\n      swap3\n      swap2\n      swap1\n      dup2\n      dup2\n      mstore\n      0x20\n      add\n      dup3\n      dup1\n      sload\n      tag_292\n      swap1\n      tag_252\n      jump\t// in\n    tag_292:\n      dup1\n      iszero\n      tag_293\n      jumpi\n      dup1\n      0x1f\n      lt\n      tag_294\n      jumpi\n      0x0100\n      dup1\n      dup4\n      sload\n      div\n      mul\n      dup4\n      mstore\n      swap2\n      0x20\n      add\n      swap2\n      jump(tag_293)\n    tag_294:\n      dup3\n      add\n      swap2\n      swap1\n      0x00\n      mstore\n      keccak256(0x00, 0x20)\n      swap1\n    tag_295:\n      dup2\n      sload\n      dup2\n      mstore\n      swap1\n      0x01\n      add\n      swap1\n      0x20\n      add\n      dup1\n      dup4\n      gt\n      tag_295\n      jumpi\n      dup3\n      swap1\n      sub\n      0x1f\n      and\n      dup3\n      add\n      swap2\n    tag_293:\n      pop\n      pop\n      pop\n      pop\n      0x04\n      dup4\n      add\n      sload\n      0x05\n      dup5\n      add\n      sload\n      0x06\n      swap1\n      swap5\n      add\n      sload\n      swap3\n      swap4\n      swap1\n      swap3\n      swap1\n      swap2\n      pop\n      0xff\n      dup1\n      dup3\n      and\n      swap2\n      0x0100\n      swap1\n      div\n      and\n      dup9\n      jump\t// out\n        /* \"smart-contracts/classroom/main/Canvassing_flattened.sol\":17389:18448  function createResearcher(... */\n    tag_76:\n        /* \"smart-contracts/classroom/main/Canvassing_flattened.sol\":17565:17584  currentResearcherId */\n      sload(0x0e)\n        /* \"smart-contracts/classroom/main/Canvassing_flattened.sol\":17595:17626  Researcher memory newResearcher */\n      tag_297\n      tag_249\n      jump\t// in\n    tag_297:\n        /* \"smart-contracts/classroom/main/Canvassing_flattened.sol\":17636:17670  newResearcher.id = newResearcherId */\n      dup2\n      dup2\n      mstore\n      sub(shl(0xa0, 0x01), 0x01)\n        /* \"smart-contracts/classroom/main/Canvassing_flattened.sol\":17680:17724  newResearcher.walletAddress = _walletAddress */\n      dup6\n      and\n        /* \"smart-contracts/classroom/main/Canvassing_flattened.sol\":17680:17707  newResearcher.walletAddress */\n      0x20\n      dup3\n      add\n        /* \"smart-contracts/classroom/main/Canvassing_flattened.sol\":17680:17724  newResearcher.walletAddress = _walletAddress */\n      mstore\n        /* \"smart-contracts/classroom/main/Canvassing_flattened.sol\":17734:17756  newResearcher.industry */\n      0x40\n      dup2\n      add\n        /* \"smart-contracts/classroom/main/Canvassing_flattened.sol\":17734:17768  newResearcher.industry = _industry */\n      dup5\n      swap1\n      mstore\n        /* \"smart-contracts/classroom/main/Canvassing_flattened.sol\":17778:17811  newResearcher.yearOfIncorporation */\n      0x60\n      dup2\n      add\n        /* \"smart-contracts/classroom/main/Canvassing_flattened.sol\":17778:17832  newResearcher.yearOfIncorporation = _yearOfCorporation */\n      dup4\n      swap1\n      mstore\n        /* \"smart-contracts/classroom/main/Canvassing_flattened.sol\":17636:17652  newResearcher.id */\n      0x00\n        /* \"smart-contracts/classroom/main/Canvassing_flattened.sol\":17842:17866  newResearcher.isVerified */\n      0xa0\n      dup3\n      add\n        /* \"smart-contracts/classroom/main/Canvassing_flattened.sol\":17842:17874  newResearcher.isVerified = false */\n      mstore\n        /* \"smart-contracts/classroom/main/Canvassing_flattened.sol\":17946:17986  checkIfParticipantExists(_walletAddress) */\n      tag_298\n        /* \"smart-contracts/classroom/main/Canvassing_flattened.sol\":17710:17724  _walletAddress */\n      dup6\n        /* \"smart-contracts/classroom/main/Canvassing_flattened.sol\":17946:17970  checkIfParticipantExists */\n      tag_158\n        /* \"smart-contracts/classroom/main/Canvassing_flattened.sol\":17946:17986  checkIfParticipantExists(_walletAddress) */\n      jump\t// in\n    tag_298:\n        /* \"smart-contracts/classroom/main/Canvassing_flattened.sol\":17942:18354  if (checkIfParticipantExists(_walletAddress)) {... */\n      iszero\n      tag_299\n      jumpi\n        /* \"smart-contracts/classroom/main/Canvassing_flattened.sol\":18002:18056  Participant... */\n      0x00\n        /* \"smart-contracts/classroom/main/Canvassing_flattened.sol\":18059:18142  getParticipantByWalletAddress(... */\n      tag_300\n        /* \"smart-contracts/classroom/main/Canvassing_flattened.sol\":18110:18124  _walletAddress */\n      dup7\n        /* \"smart-contracts/classroom/main/Canvassing_flattened.sol\":18059:18088  getParticipantByWalletAddress */\n      tag_95\n        /* \"smart-contracts/classroom/main/Canvassing_flattened.sol\":18059:18142  getParticipantByWalletAddress(... */\n      jump\t// in\n    tag_300:\n        /* \"smart-contracts/classroom/main/Canvassing_flattened.sol\":18222:18226  true */\n      0x01\n        /* \"smart-contracts/classroom/main/Canvassing_flattened.sol\":18187:18219  existingParticipant.isResearcher */\n      0xc0\n      dup3\n      add\n        /* \"smart-contracts/classroom/main/Canvassing_flattened.sol\":18187:18226  existingParticipant.isResearcher = true */\n      dup2\n      swap1\n      mstore\n        /* \"smart-contracts/classroom/main/Canvassing_flattened.sol\":18241:18268  newResearcher.isParticipant */\n      0x80\n      dup5\n      add\n        /* \"smart-contracts/classroom/main/Canvassing_flattened.sol\":18241:18275  newResearcher.isParticipant = true */\n      dup2\n      swap1\n      mstore\n      sub(shl(0xa0, 0x01), 0x01)\n        /* \"smart-contracts/classroom/main/Canvassing_flattened.sol\":18290:18321  allParticipants[_walletAddress] */\n      dup9\n      dup2\n      and\n        /* \"smart-contracts/classroom/main/Canvassing_flattened.sol\":18187:18226  existingParticipant.isResearcher = true */\n      0x00\n        /* \"smart-contracts/classroom/main/Canvassing_flattened.sol\":18290:18321  allParticipants[_walletAddress] */\n      swap1\n      dup2\n      mstore\n        /* \"smart-contracts/classroom/main/Canvassing_flattened.sol\":18290:18305  allParticipants */\n      0x02\n        /* \"smart-contracts/classroom/main/Canvassing_flattened.sol\":18290:18321  allParticipants[_walletAddress] */\n      0x20\n      dup2\n      dup2\n      mstore\n      0x40\n      swap3\n      dup4\n      swap1\n      keccak256\n        /* \"smart-contracts/classroom/main/Canvassing_flattened.sol\":18290:18343  allParticipants[_walletAddress] = existingParticipant */\n      dup7\n      mload\n      dup2\n      sstore\n      swap1\n      dup7\n      add\n      mload\n      swap5\n      dup2\n      add\n      dup1\n      sload\n      not(sub(shl(0xa0, 0x01), 0x01))\n      and\n      swap6\n      swap1\n      swap5\n      and\n      swap5\n      swap1\n      swap5\n      or\n      swap1\n      swap3\n      sstore\n      dup4\n      add\n      mload\n        /* \"smart-contracts/classroom/main/Canvassing_flattened.sol\":18187:18219  existingParticipant.isResearcher */\n      swap3\n      swap4\n      pop\n      dup4\n      swap3\n        /* \"smart-contracts/classroom/main/Canvassing_flattened.sol\":18290:18343  allParticipants[_walletAddress] = existingParticipant */\n      swap1\n      dup3\n      add\n      swap1\n      tag_301\n      swap1\n      dup3\n      tag_302\n      jump\t// in\n    tag_301:\n      pop\n      0x60\n      dup3\n      add\n      mload\n      0x03\n      dup3\n      add\n      swap1\n      tag_303\n      swap1\n      dup3\n      tag_302\n      jump\t// in\n    tag_303:\n      pop\n      0x80\n      dup3\n      add\n      mload\n      0x04\n      dup3\n      add\n      sstore\n      0xa0\n      dup3\n      add\n      mload\n      0x05\n      dup3\n      add\n      sstore\n      0xc0\n      dup3\n      add\n      mload\n      0x06\n      swap1\n      swap2\n      add\n      dup1\n      sload\n      0xe0\n      swap1\n      swap4\n      add\n      mload\n      iszero\n      iszero\n      0x0100\n      mul\n      not(0xff00)\n      swap3\n      iszero\n      iszero\n      swap3\n      swap1\n      swap3\n      and\n      not(0xffff)\n      swap1\n      swap4\n      and\n      swap3\n      swap1\n      swap3\n      or\n      or\n      swap1\n      sstore\n      pop\n        /* \"smart-contracts/classroom/main/Canvassing_flattened.sol\":17942:18354  if (checkIfParticipantExists(_walletAddress)) {... */\n    tag_299:\n      sub(shl(0xa0, 0x01), 0x01)\n        /* \"smart-contracts/classroom/main/Canvassing_flattened.sol\":18364:18394  allResearchers[_walletAddress] */\n      dup6\n      dup2\n      and\n      0x00\n      swap1\n      dup2\n      mstore\n        /* \"smart-contracts/classroom/main/Canvassing_flattened.sol\":18364:18378  allResearchers */\n      0x01\n        /* \"smart-contracts/classroom/main/Canvassing_flattened.sol\":18364:18394  allResearchers[_walletAddress] */\n      0x20\n      dup2\n      dup2\n      mstore\n      0x40\n      swap3\n      dup4\n      swap1\n      keccak256\n        /* \"smart-contracts/classroom/main/Canvassing_flattened.sol\":18364:18410  allResearchers[_walletAddress] = newResearcher */\n      dup6\n      mload\n      dup2\n      sstore\n      swap1\n      dup6\n      add\n      mload\n      swap2\n      dup2\n      add\n      dup1\n      sload\n      not(sub(shl(0xa0, 0x01), 0x01))\n      and\n      swap3\n      swap1\n      swap5\n      and\n      swap2\n      swap1\n      swap2\n      or\n      swap1\n      swap3\n      sstore\n      dup3\n      add\n      mload\n      dup3\n      swap2\n        /* \"smart-contracts/classroom/main/Canvassing_flattened.sol\":18364:18394  allResearchers[_walletAddress] */\n      swap1\n        /* \"smart-contracts/classroom/main/Canvassing_flattened.sol\":18364:18410  allResearchers[_walletAddress] = newResearcher */\n      0x02\n      dup3\n      add\n      swap1\n      tag_304\n      swap1\n      dup3\n      tag_302\n      jump\t// in\n    tag_304:\n      pop\n      0x60\n      dup3\n      add\n      mload\n      0x03\n      dup3\n      add\n      sstore\n      0x80\n      dup3\n      add\n      mload\n      0x04\n      swap1\n      swap2\n      add\n      dup1\n      sload\n      0xa0\n      dup5\n      add\n      mload\n      0xc0\n      swap1\n      swap5\n      add\n      mload\n      iszero\n      iszero\n      0x010000\n      mul\n      not(0xff0000)\n      swap5\n      iszero\n      iszero\n      0x0100\n      mul\n      not(0xff00)\n      swap5\n      iszero\n      iszero\n      swap5\n      swap1\n      swap5\n      and\n      not(0xffff)\n      swap1\n      swap3\n      and\n      swap2\n      swap1\n      swap2\n      or\n      swap3\n      swap1\n      swap3\n      or\n      swap3\n      swap1\n      swap3\n      and\n      or\n      swap1\n      sstore\n        /* \"smart-contracts/classroom/main/Canvassing_flattened.sol\":18420:18439  currentResearcherId */\n      0x0e\n        /* \"smart-contracts/classroom/main/Canvassing_flattened.sol\":18420:18441  currentResearcherId++ */\n      dup1\n      sload\n      swap1\n        /* \"smart-contracts/classroom/main/Canvassing_flattened.sol\":18364:18410  allResearchers[_walletAddress] = newResearcher */\n      0x00\n        /* \"smart-contracts/classroom/main/Canvassing_flattened.sol\":18420:18441  currentResearcherId++ */\n      tag_305\n      dup4\n      tag_281\n      jump\t// in\n    tag_305:\n      swap2\n      swap1\n      pop\n      sstore\n      pop\n        /* \"smart-contracts/classroom/main/Canvassing_flattened.sol\":17529:18448  {... */\n      pop\n      pop\n        /* \"smart-contracts/classroom/main/Canvassing_flattened.sol\":17389:18448  function createResearcher(... */\n      pop\n      pop\n      pop\n      jump\t// out\n        /* \"smart-contracts/classroom/main/Canvassing_flattened.sol\":3240:3266  Survey[] public allSurveys */\n    tag_80:\n      0x03\n      dup2\n      dup2\n      sload\n      dup2\n      lt\n      tag_306\n      jumpi\n      0x00\n      dup1\n      revert\n    tag_306:\n      0x00\n      swap2\n      dup3\n      mstore\n      0x20\n      swap1\n      swap2\n      keccak256\n      0x07\n      swap1\n      swap2\n      mul\n      add\n      dup1\n      sload\n      0x01\n      dup3\n      add\n      sload\n      0x02\n      dup4\n      add\n      dup1\n      sload\n      swap3\n      swap5\n      pop\n      sub(shl(0xa0, 0x01), 0x01)\n      swap1\n      swap2\n      and\n      swap3\n      swap2\n      tag_308\n      swap1\n      tag_252\n      jump\t// in\n    tag_308:\n      dup1\n      0x1f\n      add\n      0x20\n      dup1\n      swap2\n      div\n      mul\n      0x20\n      add\n      mload(0x40)\n      swap1\n      dup2\n      add\n      0x40\n      mstore\n      dup1\n      swap3\n      swap2\n      swap1\n      dup2\n      dup2\n      mstore\n      0x20\n      add\n      dup3\n      dup1\n      sload\n      tag_309\n      swap1\n      tag_252\n      jump\t// in\n    tag_309:\n      dup1\n      iszero\n      tag_310\n      jumpi\n      dup1\n      0x1f\n      lt\n      tag_311\n      jumpi\n      0x0100\n      dup1\n      dup4\n      sload\n      div\n      mul\n      dup4\n      mstore\n      swap2\n      0x20\n      add\n      swap2\n      jump(tag_310)\n    tag_311:\n      dup3\n      add\n      swap2\n      swap1\n      0x00\n      mstore\n      keccak256(0x00, 0x20)\n      swap1\n    tag_312:\n      dup2\n      sload\n      dup2\n      mstore\n      swap1\n      0x01\n      add\n      swap1\n      0x20\n      add\n      dup1\n      dup4\n      gt\n      tag_312\n      jumpi\n      dup3\n      swap1\n      sub\n      0x1f\n      and\n      dup3\n      add\n      swap2\n    tag_310:\n      pop\n      pop\n      pop\n      pop\n      0x03\n      dup4\n      add\n      sload\n      0x04\n      dup5\n      add\n      sload\n      0x05\n      dup6\n      add\n      sload\n      0x06\n      swap1\n      swap6\n      add\n      sload\n      swap4\n      swap5\n      swap2\n      swap4\n      swap1\n      swap3\n      pop\n      0xff\n      and\n      dup8\n      jump\t// out\n        /* \"smart-contracts/classroom/main/Canvassing_flattened.sol\":12078:12784  function getAmountOfEarningPerParticipantForSurveyInWei(uint256 _surveyId)... */\n    tag_85:\n        /* \"smart-contracts/classroom/main/Canvassing_flattened.sol\":12198:12205  uint256 */\n      0x00\n        /* \"smart-contracts/classroom/main/Canvassing_flattened.sol\":12221:12248  Survey memory currentSurvey */\n      dup1\n        /* \"smart-contracts/classroom/main/Canvassing_flattened.sol\":12251:12261  allSurveys */\n      0x03\n        /* \"smart-contracts/classroom/main/Canvassing_flattened.sol\":12262:12271  _surveyId */\n      dup4\n        /* \"smart-contracts/classroom/main/Canvassing_flattened.sol\":12251:12272  allSurveys[_surveyId] */\n      dup2\n      sload\n      dup2\n      lt\n      tag_315\n      jumpi\n      tag_315\n      tag_270\n      jump\t// in\n    tag_315:\n      swap1\n      0x00\n      mstore\n      keccak256(0x00, 0x20)\n      swap1\n      0x07\n      mul\n      add\n        /* \"smart-contracts/classroom/main/Canvassing_flattened.sol\":12221:12272  Survey memory currentSurvey = allSurveys[_surveyId] */\n      mload(0x40)\n      dup1\n      0xe0\n      add\n      0x40\n      mstore\n      swap1\n      dup2\n      0x00\n      dup3\n      add\n      sload\n      dup2\n      mstore\n      0x20\n      add\n      0x01\n      dup3\n      add\n      0x00\n      swap1\n      sload\n      swap1\n      0x0100\n      exp\n      swap1\n      div\n      sub(shl(0xa0, 0x01), 0x01)\n      and\n      sub(shl(0xa0, 0x01), 0x01)\n      and\n      sub(shl(0xa0, 0x01), 0x01)\n      and\n      dup2\n      mstore\n      0x20\n      add\n      0x02\n      dup3\n      add\n      dup1\n      sload\n      tag_317\n      swap1\n      tag_252\n      jump\t// in\n    tag_317:\n      dup1\n      0x1f\n      add\n      0x20\n      dup1\n      swap2\n      div\n      mul\n      0x20\n      add\n      mload(0x40)\n      swap1\n      dup2\n      add\n      0x40\n      mstore\n      dup1\n      swap3\n      swap2\n      swap1\n      dup2\n      dup2\n      mstore\n      0x20\n      add\n      dup3\n      dup1\n      sload\n      tag_318\n      swap1\n      tag_252\n      jump\t// in\n    tag_318:\n      dup1\n      iszero\n      tag_319\n      jumpi\n      dup1\n      0x1f\n      lt\n      tag_320\n      jumpi\n      0x0100\n      dup1\n      dup4\n      sload\n      div\n      mul\n      dup4\n      mstore\n      swap2\n      0x20\n      add\n      swap2\n      jump(tag_319)\n    tag_320:\n      dup3\n      add\n      swap2\n      swap1\n      0x00\n      mstore\n      keccak256(0x00, 0x20)\n      swap1\n    tag_321:\n      dup2\n      sload\n      dup2\n      mstore\n      swap1\n      0x01\n      add\n      swap1\n      0x20\n      add\n      dup1\n      dup4\n      gt\n      tag_321\n      jumpi\n      dup3\n      swap1\n      sub\n      0x1f\n      and\n      dup3\n      add\n      swap2\n    tag_319:\n      pop\n      pop\n      pop\n      swap2\n      dup4\n      mstore\n      pop\n      pop\n      0x03\n      dup3\n      add\n      sload\n      0x20\n      dup3\n      add\n      mstore\n      0x04\n      dup3\n      add\n      sload\n      0x40\n      dup3\n      add\n      mstore\n      0x05\n      dup1\n      dup4\n      add\n      sload\n      0x60\n      dup4\n      add\n      mstore\n      0x06\n      swap1\n      swap3\n      add\n      sload\n      0xff\n      and\n      iszero\n      iszero\n      0x80\n      swap2\n      dup3\n      add\n      mstore\n        /* \"smart-contracts/classroom/main/Canvassing_flattened.sol\":12320:12351  currentSurvey.amountFundedInWei */\n      0xa0\n      dup4\n      add\n      mload\n        /* \"smart-contracts/classroom/main/Canvassing_flattened.sol\":12398:12451  currentSurvey... */\n      swap1\n      dup4\n      add\n      mload\n        /* \"smart-contracts/classroom/main/Canvassing_flattened.sol\":12221:12272  Survey memory currentSurvey = allSurveys[_surveyId] */\n      swap3\n      swap4\n      pop\n        /* \"smart-contracts/classroom/main/Canvassing_flattened.sol\":12320:12351  currentSurvey.amountFundedInWei */\n      swap2\n        /* \"smart-contracts/classroom/main/Canvassing_flattened.sol\":12398:12451  currentSurvey... */\n      swap1\n      0x00\n      swap1\n        /* \"smart-contracts/classroom/main/Canvassing_flattened.sol\":12564:12566  10 */\n      0x0a\n      swap1\n        /* \"smart-contracts/classroom/main/Canvassing_flattened.sol\":12514:12560  amountFundedInWeiForSurvey *... */\n      tag_322\n      swap1\n        /* \"smart-contracts/classroom/main/Canvassing_flattened.sol\":12320:12351  currentSurvey.amountFundedInWei */\n      dup6\n      swap1\n        /* \"smart-contracts/classroom/main/Canvassing_flattened.sol\":12514:12560  amountFundedInWeiForSurvey *... */\n      tag_236\n      jump\t// in\n    tag_322:\n        /* \"smart-contracts/classroom/main/Canvassing_flattened.sol\":12513:12566  (amountFundedInWeiForSurvey *... */\n      tag_323\n      swap2\n      swap1\n      tag_324\n      jump\t// in\n    tag_323:\n        /* \"smart-contracts/classroom/main/Canvassing_flattened.sol\":12462:12566  uint256 participantRevenueSharingPoolAmountInWei = (amountFundedInWeiForSurvey *... */\n      swap1\n      pop\n        /* \"smart-contracts/classroom/main/Canvassing_flattened.sol\":12577:12628  uint256 amountOfEarningPerParticipantForSurveyInWei */\n      0x00\n        /* \"smart-contracts/classroom/main/Canvassing_flattened.sol\":12631:12716  participantRevenueSharingPoolAmountInWei /... */\n      tag_325\n        /* \"smart-contracts/classroom/main/Canvassing_flattened.sol\":12690:12716  targetNumberOfParticipants */\n      dup4\n        /* \"smart-contracts/classroom/main/Canvassing_flattened.sol\":12462:12566  uint256 participantRevenueSharingPoolAmountInWei = (amountFundedInWeiForSurvey *... */\n      dup4\n        /* \"smart-contracts/classroom/main/Canvassing_flattened.sol\":12631:12716  participantRevenueSharingPoolAmountInWei /... */\n      tag_324\n      jump\t// in\n    tag_325:\n        /* \"smart-contracts/classroom/main/Canvassing_flattened.sol\":12577:12716  uint256 amountOfEarningPerParticipantForSurveyInWei = participantRevenueSharingPoolAmountInWei /... */\n      swap8\n        /* \"smart-contracts/classroom/main/Canvassing_flattened.sol\":12078:12784  function getAmountOfEarningPerParticipantForSurveyInWei(uint256 _surveyId)... */\n      swap7\n      pop\n      pop\n      pop\n      pop\n      pop\n      pop\n      pop\n      jump\t// out\n        /* \"smart-contracts/classroom/main/Canvassing_flattened.sol\":9653:10873  function getAllAnswersOfParticipantOfSurvey(... */\n    tag_90:\n        /* \"smart-contracts/classroom/main/Canvassing_flattened.sol\":9794:9809  Answer[] memory */\n      0x60\n        /* \"smart-contracts/classroom/main/Canvassing_flattened.sol\":9821:9848  Survey memory currentSurvey */\n      0x00\n        /* \"smart-contracts/classroom/main/Canvassing_flattened.sol\":9851:9861  allSurveys */\n      0x03\n        /* \"smart-contracts/classroom/main/Canvassing_flattened.sol\":9862:9871  _surveyId */\n      dup5\n        /* \"smart-contracts/classroom/main/Canvassing_flattened.sol\":9851:9872  allSurveys[_surveyId] */\n      dup2\n      sload\n      dup2\n      lt\n      tag_328\n      jumpi\n      tag_328\n      tag_270\n      jump\t// in\n    tag_328:\n      swap1\n      0x00\n      mstore\n      keccak256(0x00, 0x20)\n      swap1\n      0x07\n      mul\n      add\n        /* \"smart-contracts/classroom/main/Canvassing_flattened.sol\":9821:9872  Survey memory currentSurvey = allSurveys[_surveyId] */\n      mload(0x40)\n      dup1\n      0xe0\n      add\n      0x40\n      mstore\n      swap1\n      dup2\n      0x00\n      dup3\n      add\n      sload\n      dup2\n      mstore\n      0x20\n      add\n      0x01\n      dup3\n      add\n      0x00\n      swap1\n      sload\n      swap1\n      0x0100\n      exp\n      swap1\n      div\n      sub(shl(0xa0, 0x01), 0x01)\n      and\n      sub(shl(0xa0, 0x01), 0x01)\n      and\n      sub(shl(0xa0, 0x01), 0x01)\n      and\n      dup2\n      mstore\n      0x20\n      add\n      0x02\n      dup3\n      add\n      dup1\n      sload\n      tag_330\n      swap1\n      tag_252\n      jump\t// in\n    tag_330:\n      dup1\n      0x1f\n      add\n      0x20\n      dup1\n      swap2\n      div\n      mul\n      0x20\n      add\n      mload(0x40)\n      swap1\n      dup2\n      add\n      0x40\n      mstore\n      dup1\n      swap3\n      swap2\n      swap1\n      dup2\n      dup2\n      mstore\n      0x20\n      add\n      dup3\n      dup1\n      sload\n      tag_331\n      swap1\n      tag_252\n      jump\t// in\n    tag_331:\n      dup1\n      iszero\n      tag_332\n      jumpi\n      dup1\n      0x1f\n      lt\n      tag_333\n      jumpi\n      0x0100\n      dup1\n      dup4\n      sload\n      div\n      mul\n      dup4\n      mstore\n      swap2\n      0x20\n      add\n      swap2\n      jump(tag_332)\n    tag_333:\n      dup3\n      add\n      swap2\n      swap1\n      0x00\n      mstore\n      keccak256(0x00, 0x20)\n      swap1\n    tag_334:\n      dup2\n      sload\n      dup2\n      mstore\n      swap1\n      0x01\n      add\n      swap1\n      0x20\n      add\n      dup1\n      dup4\n      gt\n      tag_334\n      jumpi\n      dup3\n      swap1\n      sub\n      0x1f\n      and\n      dup3\n      add\n      swap2\n    tag_332:\n      pop\n      pop\n      pop\n      pop\n      pop\n      dup2\n      mstore\n      0x20\n      add\n      0x03\n      dup3\n      add\n      sload\n      dup2\n      mstore\n      0x20\n      add\n      0x04\n      dup3\n      add\n      sload\n      dup2\n      mstore\n      0x20\n      add\n      0x05\n      dup3\n      add\n      sload\n      dup2\n      mstore\n      0x20\n      add\n      0x06\n      dup3\n      add\n      0x00\n      swap1\n      sload\n      swap1\n      0x0100\n      exp\n      swap1\n      div\n      0xff\n      and\n      iszero\n      iszero\n      iszero\n      iszero\n      dup2\n      mstore\n      pop\n      pop\n      swap1\n      pop\n        /* \"smart-contracts/classroom/main/Canvassing_flattened.sol\":9882:9916  Answer[] memory allAnswersOfSurvey */\n      0x00\n        /* \"smart-contracts/classroom/main/Canvassing_flattened.sol\":9919:9929  allAnswers */\n      0x05\n        /* \"smart-contracts/classroom/main/Canvassing_flattened.sol\":9919:9940  allAnswers[_surveyId] */\n      0x00\n        /* \"smart-contracts/classroom/main/Canvassing_flattened.sol\":9930:9939  _surveyId */\n      dup7\n        /* \"smart-contracts/classroom/main/Canvassing_flattened.sol\":9919:9940  allAnswers[_surveyId] */\n      dup2\n      mstore\n      0x20\n      add\n      swap1\n      dup2\n      mstore\n      0x20\n      add\n      0x00\n      keccak256\n        /* \"smart-contracts/classroom/main/Canvassing_flattened.sol\":9882:9940  Answer[] memory allAnswersOfSurvey = allAnswers[_surveyId] */\n      dup1\n      sload\n      dup1\n      0x20\n      mul\n      0x20\n      add\n      mload(0x40)\n      swap1\n      dup2\n      add\n      0x40\n      mstore\n      dup1\n      swap3\n      swap2\n      swap1\n      dup2\n      dup2\n      mstore\n      0x20\n      add\n      0x00\n      swap1\n    tag_335:\n      dup3\n      dup3\n      lt\n      iszero\n      tag_336\n      jumpi\n      0x00\n      dup5\n      dup2\n      mstore\n      0x20\n      swap1\n      dup2\n      swap1\n      keccak256\n      0x40\n      dup1\n      mload\n      0xc0\n      dup2\n      add\n      dup3\n      mstore\n      0x04\n      dup7\n      mul\n      swap1\n      swap3\n      add\n      dup1\n      sload\n      dup4\n      mstore\n      0x01\n      dup1\n      dup3\n      add\n      sload\n      dup5\n      dup7\n      add\n      mstore\n      0x02\n      dup3\n      add\n      sload\n      swap3\n      dup5\n      add\n      swap3\n      swap1\n      swap3\n      mstore\n      0x03\n      add\n      sload\n      sub(shl(0xa0, 0x01), 0x01)\n      dup2\n      and\n      0x60\n      dup5\n      add\n      mstore\n      0xff\n      shl(0xa0, 0x01)\n      dup3\n      div\n      dup2\n      and\n      iszero\n      iszero\n      0x80\n      dup6\n      add\n      mstore\n      shl(0xa8, 0x01)\n      swap1\n      swap2\n      div\n      and\n      iszero\n      iszero\n      0xa0\n      dup4\n      add\n      mstore\n      swap1\n      dup4\n      mstore\n      swap1\n      swap3\n      add\n      swap2\n      add\n      jump(tag_335)\n    tag_336:\n      pop\n      pop\n      pop\n      pop\n        /* \"smart-contracts/classroom/main/Canvassing_flattened.sol\":10003:10047  currentSurvey... */\n      0x60\n      dup4\n      add\n      mload\n        /* \"smart-contracts/classroom/main/Canvassing_flattened.sol\":9882:9940  Answer[] memory allAnswersOfSurvey = allAnswers[_surveyId] */\n      swap1\n      swap2\n      pop\n        /* \"smart-contracts/classroom/main/Canvassing_flattened.sol\":9951:10000  uint256 totalNumberOfAnswersOfParticipantOfSurvey */\n      0x00\n        /* \"smart-contracts/classroom/main/Canvassing_flattened.sol\":10003:10047  currentSurvey... */\n      dup2\n      sub(shl(0x40, 0x01), 0x01)\n        /* \"smart-contracts/classroom/main/Canvassing_flattened.sol\":10108:10185  new Answer[](... */\n      dup2\n      gt\n      iszero\n      tag_339\n      jumpi\n      tag_339\n      tag_260\n      jump\t// in\n    tag_339:\n      mload(0x40)\n      swap1\n      dup1\n      dup3\n      mstore\n      dup1\n      0x20\n      mul\n      0x20\n      add\n      dup3\n      add\n      0x40\n      mstore\n      dup1\n      iszero\n      tag_340\n      jumpi\n      dup2\n      0x20\n      add\n    tag_341:\n      tag_342\n      tag_343\n      jump\t// in\n    tag_342:\n      dup2\n      mstore\n      0x20\n      add\n      swap1\n      0x01\n      swap1\n      sub\n      swap1\n      dup2\n      tag_341\n      jumpi\n      swap1\n      pop\n    tag_340:\n      pop\n        /* \"smart-contracts/classroom/main/Canvassing_flattened.sol\":10058:10185  Answer[] memory allAnswersOfParticipantOfSurvey = new Answer[](... */\n      swap1\n      pop\n        /* \"smart-contracts/classroom/main/Canvassing_flattened.sol\":10196:10215  uint256 answerIndex */\n      0x00\n        /* \"smart-contracts/classroom/main/Canvassing_flattened.sol\":10248:10264  uint256 answerId */\n      dup1\n        /* \"smart-contracts/classroom/main/Canvassing_flattened.sol\":10230:10819  for (... */\n    tag_344:\n        /* \"smart-contracts/classroom/main/Canvassing_flattened.sol\":10293:10311  allAnswersOfSurvey */\n      dup5\n        /* \"smart-contracts/classroom/main/Canvassing_flattened.sol\":10293:10318  allAnswersOfSurvey.length */\n      mload\n        /* \"smart-contracts/classroom/main/Canvassing_flattened.sol\":10282:10290  answerId */\n      dup2\n        /* \"smart-contracts/classroom/main/Canvassing_flattened.sol\":10282:10318  answerId < allAnswersOfSurvey.length */\n      lt\n        /* \"smart-contracts/classroom/main/Canvassing_flattened.sol\":10230:10819  for (... */\n      iszero\n      tag_345\n      jumpi\n        /* \"smart-contracts/classroom/main/Canvassing_flattened.sol\":10367:10394  Answer memory runningAnswer */\n      0x00\n        /* \"smart-contracts/classroom/main/Canvassing_flattened.sol\":10397:10415  allAnswersOfSurvey */\n      dup6\n        /* \"smart-contracts/classroom/main/Canvassing_flattened.sol\":10416:10424  answerId */\n      dup3\n        /* \"smart-contracts/classroom/main/Canvassing_flattened.sol\":10397:10425  allAnswersOfSurvey[answerId] */\n      dup2\n      mload\n      dup2\n      lt\n      tag_348\n      jumpi\n      tag_348\n      tag_270\n      jump\t// in\n    tag_348:\n      0x20\n      mul\n      0x20\n      add\n      add\n      mload\n        /* \"smart-contracts/classroom/main/Canvassing_flattened.sol\":10367:10425  Answer memory runningAnswer = allAnswersOfSurvey[answerId] */\n      swap1\n      pop\n        /* \"smart-contracts/classroom/main/Canvassing_flattened.sol\":10519:10544  _participantWalletAddress */\n      dup9\n      sub(shl(0xa0, 0x01), 0x01)\n        /* \"smart-contracts/classroom/main/Canvassing_flattened.sol\":10461:10544  runningAnswer.participantWalletAddress ==... */\n      and\n        /* \"smart-contracts/classroom/main/Canvassing_flattened.sol\":10461:10474  runningAnswer */\n      dup2\n        /* \"smart-contracts/classroom/main/Canvassing_flattened.sol\":10461:10499  runningAnswer.participantWalletAddress */\n      0x60\n      add\n      mload\n      sub(shl(0xa0, 0x01), 0x01)\n        /* \"smart-contracts/classroom/main/Canvassing_flattened.sol\":10461:10544  runningAnswer.participantWalletAddress ==... */\n      and\n      sub\n        /* \"smart-contracts/classroom/main/Canvassing_flattened.sol\":10440:10809  if (... */\n      tag_353\n      jumpi\n        /* \"smart-contracts/classroom/main/Canvassing_flattened.sol\":10624:10637  runningAnswer */\n      dup1\n        /* \"smart-contracts/classroom/main/Canvassing_flattened.sol\":10577:10608  allAnswersOfParticipantOfSurvey */\n      dup5\n        /* \"smart-contracts/classroom/main/Canvassing_flattened.sol\":10609:10620  answerIndex */\n      dup5\n        /* \"smart-contracts/classroom/main/Canvassing_flattened.sol\":10577:10621  allAnswersOfParticipantOfSurvey[answerIndex] */\n      dup2\n      mload\n      dup2\n      lt\n      tag_351\n      jumpi\n      tag_351\n      tag_270\n      jump\t// in\n    tag_351:\n      0x20\n      mul\n      0x20\n      add\n      add\n        /* \"smart-contracts/classroom/main/Canvassing_flattened.sol\":10577:10637  allAnswersOfParticipantOfSurvey[answerIndex] = runningAnswer */\n      dup2\n      swap1\n      mstore\n      pop\n        /* \"smart-contracts/classroom/main/Canvassing_flattened.sol\":10655:10668  answerIndex++ */\n      dup3\n      dup1\n      tag_352\n      swap1\n      tag_281\n      jump\t// in\n    tag_352:\n      swap4\n      pop\n      pop\n        /* \"smart-contracts/classroom/main/Canvassing_flattened.sol\":10706:10747  totalNumberOfAnswersOfParticipantOfSurvey */\n      dup5\n        /* \"smart-contracts/classroom/main/Canvassing_flattened.sol\":10691:10702  answerIndex */\n      dup4\n        /* \"smart-contracts/classroom/main/Canvassing_flattened.sol\":10691:10747  answerIndex == totalNumberOfAnswersOfParticipantOfSurvey */\n      sub\n        /* \"smart-contracts/classroom/main/Canvassing_flattened.sol\":10687:10795  if (answerIndex == totalNumberOfAnswersOfParticipantOfSurvey) {... */\n      tag_353\n      jumpi\n        /* \"smart-contracts/classroom/main/Canvassing_flattened.sol\":10771:10776  break */\n      pop\n      jump(tag_345)\n        /* \"smart-contracts/classroom/main/Canvassing_flattened.sol\":10687:10795  if (answerIndex == totalNumberOfAnswersOfParticipantOfSurvey) {... */\n    tag_353:\n      pop\n        /* \"smart-contracts/classroom/main/Canvassing_flattened.sol\":10332:10342  answerId++ */\n      dup1\n      tag_354\n      dup2\n      tag_281\n      jump\t// in\n    tag_354:\n      swap2\n      pop\n      pop\n        /* \"smart-contracts/classroom/main/Canvassing_flattened.sol\":10230:10819  for (... */\n      jump(tag_344)\n    tag_345:\n      pop\n        /* \"smart-contracts/classroom/main/Canvassing_flattened.sol\":10835:10866  allAnswersOfParticipantOfSurvey */\n      swap1\n      swap8\n        /* \"smart-contracts/classroom/main/Canvassing_flattened.sol\":9653:10873  function getAllAnswersOfParticipantOfSurvey(... */\n      swap7\n      pop\n      pop\n      pop\n      pop\n      pop\n      pop\n      pop\n      jump\t// out\n        /* \"smart-contracts/classroom/main/Canvassing_flattened.sol\":4931:5118  function getParticipantByWalletAddress(address _walletAddress)... */\n    tag_95:\n        /* \"smart-contracts/classroom/main/Canvassing_flattened.sol\":5039:5057  Participant memory */\n      tag_355\n      tag_356\n      jump\t// in\n    tag_355:\n      sub(shl(0xa0, 0x01), 0x01)\n        /* \"smart-contracts/classroom/main/Canvassing_flattened.sol\":5080:5111  allParticipants[_walletAddress] */\n      dup1\n      dup4\n      and\n      0x00\n      swap1\n      dup2\n      mstore\n        /* \"smart-contracts/classroom/main/Canvassing_flattened.sol\":5080:5095  allParticipants */\n      0x02\n        /* \"smart-contracts/classroom/main/Canvassing_flattened.sol\":5080:5111  allParticipants[_walletAddress] */\n      0x20\n      dup2\n      dup2\n      mstore\n      0x40\n      swap3\n      dup4\n      swap1\n      keccak256\n        /* \"smart-contracts/classroom/main/Canvassing_flattened.sol\":5073:5111  return allParticipants[_walletAddress] */\n      dup4\n      mload\n      0x0100\n      dup2\n      add\n      dup6\n      mstore\n      dup2\n      sload\n      dup2\n      mstore\n      0x01\n      dup3\n      add\n      sload\n      swap1\n      swap6\n      and\n      swap2\n      dup6\n      add\n      swap2\n      swap1\n      swap2\n      mstore\n      swap1\n      dup2\n      add\n      dup1\n      sload\n        /* \"smart-contracts/classroom/main/Canvassing_flattened.sol\":5080:5111  allParticipants[_walletAddress] */\n      swap2\n      swap3\n        /* \"smart-contracts/classroom/main/Canvassing_flattened.sol\":5073:5111  return allParticipants[_walletAddress] */\n      dup5\n      add\n      swap2\n      tag_358\n      swap1\n      tag_252\n      jump\t// in\n    tag_358:\n      dup1\n      0x1f\n      add\n      0x20\n      dup1\n      swap2\n      div\n      mul\n      0x20\n      add\n      mload(0x40)\n      swap1\n      dup2\n      add\n      0x40\n      mstore\n      dup1\n      swap3\n      swap2\n      swap1\n      dup2\n      dup2\n      mstore\n      0x20\n      add\n      dup3\n      dup1\n      sload\n      tag_359\n      swap1\n      tag_252\n      jump\t// in\n    tag_359:\n      dup1\n      iszero\n      tag_360\n      jumpi\n      dup1\n      0x1f\n      lt\n      tag_361\n      jumpi\n      0x0100\n      dup1\n      dup4\n      sload\n      div\n      mul\n      dup4\n      mstore\n      swap2\n      0x20\n      add\n      swap2\n      jump(tag_360)\n    tag_361:\n      dup3\n      add\n      swap2\n      swap1\n      0x00\n      mstore\n      keccak256(0x00, 0x20)\n      swap1\n    tag_362:\n      dup2\n      sload\n      dup2\n      mstore\n      swap1\n      0x01\n      add\n      swap1\n      0x20\n      add\n      dup1\n      dup4\n      gt\n      tag_362\n      jumpi\n      dup3\n      swap1\n      sub\n      0x1f\n      and\n      dup3\n      add\n      swap2\n    tag_360:\n      pop\n      pop\n      pop\n      pop\n      pop\n      dup2\n      mstore\n      0x20\n      add\n      0x03\n      dup3\n      add\n      dup1\n      sload\n      tag_363\n      swap1\n      tag_252\n      jump\t// in\n    tag_363:\n      dup1\n      0x1f\n      add\n      0x20\n      dup1\n      swap2\n      div\n      mul\n      0x20\n      add\n      mload(0x40)\n      swap1\n      dup2\n      add\n      0x40\n      mstore\n      dup1\n      swap3\n      swap2\n      swap1\n      dup2\n      dup2\n      mstore\n      0x20\n      add\n      dup3\n      dup1\n      sload\n      tag_364\n      swap1\n      tag_252\n      jump\t// in\n    tag_364:\n      dup1\n      iszero\n      tag_365\n      jumpi\n      dup1\n      0x1f\n      lt\n      tag_366\n      jumpi\n      0x0100\n      dup1\n      dup4\n      sload\n      div\n      mul\n      dup4\n      mstore\n      swap2\n      0x20\n      add\n      swap2\n      jump(tag_365)\n    tag_366:\n      dup3\n      add\n      swap2\n      swap1\n      0x00\n      mstore\n      keccak256(0x00, 0x20)\n      swap1\n    tag_367:\n      dup2\n      sload\n      dup2\n      mstore\n      swap1\n      0x01\n      add\n      swap1\n      0x20\n      add\n      dup1\n      dup4\n      gt\n      tag_367\n      jumpi\n      dup3\n      swap1\n      sub\n      0x1f\n      and\n      dup3\n      add\n      swap2\n    tag_365:\n      pop\n      pop\n      pop\n      swap2\n      dup4\n      mstore\n      pop\n      pop\n      0x04\n      dup3\n      add\n      sload\n      0x20\n      dup3\n      add\n      mstore\n      0x05\n      dup3\n      add\n      sload\n      0x40\n      dup3\n      add\n      mstore\n      0x06\n      swap1\n      swap2\n      add\n      sload\n      0xff\n      dup1\n      dup3\n      and\n      iszero\n      iszero\n      0x60\n      dup5\n      add\n      mstore\n      0x0100\n      swap1\n      swap2\n      div\n      and\n      iszero\n      iszero\n      0x80\n      swap1\n      swap2\n      add\n      mstore\n      swap3\n        /* \"smart-contracts/classroom/main/Canvassing_flattened.sol\":4931:5118  function getParticipantByWalletAddress(address _walletAddress)... */\n      swap2\n      pop\n      pop\n      jump\t// out\n        /* \"smart-contracts/classroom/main/Canvassing_flattened.sol\":8546:9474  function getTotalAmountOfEarningsReceivedByParticipantInWei(... */\n    tag_100:\n      sub(shl(0xa0, 0x01), 0x01)\n        /* \"smart-contracts/classroom/main/Canvassing_flattened.sol\":8733:8786  allParticipants[... */\n      dup2\n      and\n        /* \"smart-contracts/classroom/main/Canvassing_flattened.sol\":8665:8672  uint256 */\n      0x00\n        /* \"smart-contracts/classroom/main/Canvassing_flattened.sol\":8733:8786  allParticipants[... */\n      swap1\n      dup2\n      mstore\n        /* \"smart-contracts/classroom/main/Canvassing_flattened.sol\":8733:8748  allParticipants */\n      0x02\n        /* \"smart-contracts/classroom/main/Canvassing_flattened.sol\":8733:8786  allParticipants[... */\n      0x20\n      mstore\n      0x40\n      dup2\n      keccak256\n        /* \"smart-contracts/classroom/main/Canvassing_flattened.sol\":8733:8812  allParticipants[... */\n      0x05\n      add\n      sload\n        /* \"smart-contracts/classroom/main/Canvassing_flattened.sol\":8665:8672  uint256 */\n      dup2\n        /* \"smart-contracts/classroom/main/Canvassing_flattened.sol\":8733:8812  allParticipants[... */\n      dup2\n      sub(shl(0x40, 0x01), 0x01)\n        /* \"smart-contracts/classroom/main/Canvassing_flattened.sol\":8871:8946  new Earning[](... */\n      dup2\n      gt\n      iszero\n      tag_370\n      jumpi\n      tag_370\n      tag_260\n      jump\t// in\n    tag_370:\n      mload(0x40)\n      swap1\n      dup1\n      dup3\n      mstore\n      dup1\n      0x20\n      mul\n      0x20\n      add\n      dup3\n      add\n      0x40\n      mstore\n      dup1\n      iszero\n      tag_371\n      jumpi\n      dup2\n      0x20\n      add\n    tag_372:\n      tag_373\n      tag_374\n      jump\t// in\n    tag_373:\n      dup2\n      mstore\n      0x20\n      add\n      swap1\n      0x01\n      swap1\n      sub\n      swap1\n      dup2\n      tag_372\n      jumpi\n      swap1\n      pop\n    tag_371:\n      pop\n        /* \"smart-contracts/classroom/main/Canvassing_flattened.sol\":8823:8946  Earning[] memory allEarningsMadeByParticipant = new Earning[](... */\n      swap1\n      pop\n        /* \"smart-contracts/classroom/main/Canvassing_flattened.sol\":8957:9012  uint256 totalAmountOfEarningsReceivedByParticipantInWei */\n      0x00\n        /* \"smart-contracts/classroom/main/Canvassing_flattened.sol\":9045:9062  uint256 earningId */\n      dup1\n        /* \"smart-contracts/classroom/main/Canvassing_flattened.sol\":9027:9404  for (... */\n    tag_375:\n        /* \"smart-contracts/classroom/main/Canvassing_flattened.sol\":9092:9120  allEarningsMadeByParticipant */\n      dup3\n        /* \"smart-contracts/classroom/main/Canvassing_flattened.sol\":9092:9127  allEarningsMadeByParticipant.length */\n      mload\n        /* \"smart-contracts/classroom/main/Canvassing_flattened.sol\":9080:9089  earningId */\n      dup2\n        /* \"smart-contracts/classroom/main/Canvassing_flattened.sol\":9080:9127  earningId < allEarningsMadeByParticipant.length */\n      lt\n        /* \"smart-contracts/classroom/main/Canvassing_flattened.sol\":9027:9404  for (... */\n      iszero\n      tag_376\n      jumpi\n        /* \"smart-contracts/classroom/main/Canvassing_flattened.sol\":9177:9206  Earning memory runningEarning */\n      0x00\n        /* \"smart-contracts/classroom/main/Canvassing_flattened.sol\":9209:9237  allEarningsMadeByParticipant */\n      dup4\n        /* \"smart-contracts/classroom/main/Canvassing_flattened.sol\":9255:9264  earningId */\n      dup3\n        /* \"smart-contracts/classroom/main/Canvassing_flattened.sol\":9209:9278  allEarningsMadeByParticipant[... */\n      dup2\n      mload\n      dup2\n      lt\n      tag_379\n      jumpi\n      tag_379\n      tag_270\n      jump\t// in\n    tag_379:\n      0x20\n      mul\n      0x20\n      add\n      add\n      mload\n        /* \"smart-contracts/classroom/main/Canvassing_flattened.sol\":9177:9278  Earning memory runningEarning = allEarningsMadeByParticipant[... */\n      swap1\n      pop\n        /* \"smart-contracts/classroom/main/Canvassing_flattened.sol\":9343:9357  runningEarning */\n      dup1\n        /* \"smart-contracts/classroom/main/Canvassing_flattened.sol\":9343:9393  runningEarning... */\n      0x60\n      add\n      mload\n        /* \"smart-contracts/classroom/main/Canvassing_flattened.sol\":9292:9393  totalAmountOfEarningsReceivedByParticipantInWei += runningEarning... */\n      dup4\n      tag_380\n      swap2\n      swap1\n      tag_238\n      jump\t// in\n    tag_380:\n      swap3\n      pop\n        /* \"smart-contracts/classroom/main/Canvassing_flattened.sol\":9163:9404  {... */\n      pop\n        /* \"smart-contracts/classroom/main/Canvassing_flattened.sol\":9141:9152  earningId++ */\n      dup1\n      dup1\n      tag_381\n      swap1\n      tag_281\n      jump\t// in\n    tag_381:\n      swap2\n      pop\n      pop\n        /* \"smart-contracts/classroom/main/Canvassing_flattened.sol\":9027:9404  for (... */\n      jump(tag_375)\n    tag_376:\n      pop\n        /* \"smart-contracts/classroom/main/Canvassing_flattened.sol\":9420:9467  totalAmountOfEarningsReceivedByParticipantInWei */\n      swap5\n        /* \"smart-contracts/classroom/main/Canvassing_flattened.sol\":8546:9474  function getTotalAmountOfEarningsReceivedByParticipantInWei(... */\n      swap4\n      pop\n      pop\n      pop\n      pop\n      jump\t// out\n        /* \"smart-contracts/classroom/main/Canvassing_flattened.sol\":6410:7432  function getAllEarningsMadeByParticipant(address _walletAddress)... */\n    tag_108:\n      sub(shl(0xa0, 0x01), 0x01)\n        /* \"smart-contracts/classroom/main/Canvassing_flattened.sol\":6601:6654  allParticipants[... */\n      dup2\n      and\n        /* \"smart-contracts/classroom/main/Canvassing_flattened.sol\":6552:6598  uint256 totalNumberOfSurveysTakenByParticipant */\n      0x00\n        /* \"smart-contracts/classroom/main/Canvassing_flattened.sol\":6601:6654  allParticipants[... */\n      swap1\n      dup2\n      mstore\n        /* \"smart-contracts/classroom/main/Canvassing_flattened.sol\":6601:6616  allParticipants */\n      0x02\n        /* \"smart-contracts/classroom/main/Canvassing_flattened.sol\":6601:6654  allParticipants[... */\n      0x20\n      mstore\n      0x40\n      dup2\n      keccak256\n        /* \"smart-contracts/classroom/main/Canvassing_flattened.sol\":6601:6680  allParticipants[... */\n      0x05\n      add\n      sload\n        /* \"smart-contracts/classroom/main/Canvassing_flattened.sol\":6520:6536  Earning[] memory */\n      0x60\n      swap2\n        /* \"smart-contracts/classroom/main/Canvassing_flattened.sol\":6601:6680  allParticipants[... */\n      dup2\n      sub(shl(0x40, 0x01), 0x01)\n        /* \"smart-contracts/classroom/main/Canvassing_flattened.sol\":6739:6814  new Earning[](... */\n      dup2\n      gt\n      iszero\n      tag_385\n      jumpi\n      tag_385\n      tag_260\n      jump\t// in\n    tag_385:\n      mload(0x40)\n      swap1\n      dup1\n      dup3\n      mstore\n      dup1\n      0x20\n      mul\n      0x20\n      add\n      dup3\n      add\n      0x40\n      mstore\n      dup1\n      iszero\n      tag_386\n      jumpi\n      dup2\n      0x20\n      add\n    tag_387:\n      tag_388\n      tag_374\n      jump\t// in\n    tag_388:\n      dup2\n      mstore\n      0x20\n      add\n      swap1\n      0x01\n      swap1\n      sub\n      swap1\n      dup2\n      tag_387\n      jumpi\n      swap1\n      pop\n    tag_386:\n      pop\n        /* \"smart-contracts/classroom/main/Canvassing_flattened.sol\":6691:6814  Earning[] memory allEarningsMadeByParticipant = new Earning[](... */\n      swap1\n      pop\n        /* \"smart-contracts/classroom/main/Canvassing_flattened.sol\":6824:6844  uint256 earningIndex */\n      0x00\n        /* \"smart-contracts/classroom/main/Canvassing_flattened.sol\":6877:6894  uint256 earningId */\n      dup1\n        /* \"smart-contracts/classroom/main/Canvassing_flattened.sol\":6859:7380  for (... */\n    tag_389:\n        /* \"smart-contracts/classroom/main/Canvassing_flattened.sol\":6924:6935  allEarnings */\n      0x0d\n        /* \"smart-contracts/classroom/main/Canvassing_flattened.sol\":6924:6942  allEarnings.length */\n      sload\n        /* \"smart-contracts/classroom/main/Canvassing_flattened.sol\":6912:6942  earningId < allEarnings.length */\n      dup2\n      lt\n        /* \"smart-contracts/classroom/main/Canvassing_flattened.sol\":6859:7380  for (... */\n      iszero\n      tag_266\n      jumpi\n        /* \"smart-contracts/classroom/main/Canvassing_flattened.sol\":6992:7021  Earning memory runningEarning */\n      0x00\n        /* \"smart-contracts/classroom/main/Canvassing_flattened.sol\":7024:7035  allEarnings */\n      0x0d\n        /* \"smart-contracts/classroom/main/Canvassing_flattened.sol\":7036:7045  earningId */\n      dup3\n        /* \"smart-contracts/classroom/main/Canvassing_flattened.sol\":7024:7046  allEarnings[earningId] */\n      dup2\n      sload\n      dup2\n      lt\n      tag_393\n      jumpi\n      tag_393\n      tag_270\n      jump\t// in\n    tag_393:\n      0x00\n      swap2\n      dup3\n      mstore\n      0x20\n      swap2\n      dup3\n      swap1\n      keccak256\n        /* \"smart-contracts/classroom/main/Canvassing_flattened.sol\":6992:7046  Earning memory runningEarning = allEarnings[earningId] */\n      0x40\n      dup1\n      mload\n      0xa0\n      dup2\n      add\n      dup3\n      mstore\n        /* \"smart-contracts/classroom/main/Canvassing_flattened.sol\":7024:7046  allEarnings[earningId] */\n      0x05\n      swap1\n      swap4\n      mul\n      swap1\n      swap2\n      add\n        /* \"smart-contracts/classroom/main/Canvassing_flattened.sol\":6992:7046  Earning memory runningEarning = allEarnings[earningId] */\n      dup1\n      sload\n      dup4\n      mstore\n      0x01\n      dup2\n      add\n      sload\n      swap4\n      dup4\n      add\n      swap4\n      swap1\n      swap4\n      mstore\n      0x02\n      dup4\n      add\n      sload\n      sub(shl(0xa0, 0x01), 0x01)\n      swap1\n      dup2\n      and\n      swap2\n      dup4\n      add\n      dup3\n      swap1\n      mstore\n      0x03\n      dup5\n      add\n      sload\n      0x60\n      dup5\n      add\n      mstore\n      0x04\n      swap1\n      swap4\n      add\n      sload\n      0xff\n      and\n      iszero\n      iszero\n      0x80\n      dup4\n      add\n      mstore\n      swap1\n      swap3\n      pop\n        /* \"smart-contracts/classroom/main/Canvassing_flattened.sol\":7065:7120  runningEarning.recipientWalletAddress == _walletAddress */\n      swap1\n      dup9\n      and\n      swap1\n      sub\n        /* \"smart-contracts/classroom/main/Canvassing_flattened.sol\":7061:7370  if (runningEarning.recipientWalletAddress == _walletAddress) {... */\n      tag_399\n      jumpi\n        /* \"smart-contracts/classroom/main/Canvassing_flattened.sol\":7185:7199  runningEarning */\n      dup1\n        /* \"smart-contracts/classroom/main/Canvassing_flattened.sol\":7140:7168  allEarningsMadeByParticipant */\n      dup5\n        /* \"smart-contracts/classroom/main/Canvassing_flattened.sol\":7169:7181  earningIndex */\n      dup5\n        /* \"smart-contracts/classroom/main/Canvassing_flattened.sol\":7140:7182  allEarningsMadeByParticipant[earningIndex] */\n      dup2\n      mload\n      dup2\n      lt\n      tag_397\n      jumpi\n      tag_397\n      tag_270\n      jump\t// in\n    tag_397:\n      0x20\n      mul\n      0x20\n      add\n      add\n        /* \"smart-contracts/classroom/main/Canvassing_flattened.sol\":7140:7199  allEarningsMadeByParticipant[earningIndex] = runningEarning */\n      dup2\n      swap1\n      mstore\n      pop\n        /* \"smart-contracts/classroom/main/Canvassing_flattened.sol\":7217:7231  earningIndex++ */\n      dup3\n      dup1\n      tag_398\n      swap1\n      tag_281\n      jump\t// in\n    tag_398:\n      swap4\n      pop\n      pop\n        /* \"smart-contracts/classroom/main/Canvassing_flattened.sol\":7270:7308  totalNumberOfSurveysTakenByParticipant */\n      dup5\n        /* \"smart-contracts/classroom/main/Canvassing_flattened.sol\":7254:7266  earningIndex */\n      dup4\n        /* \"smart-contracts/classroom/main/Canvassing_flattened.sol\":7254:7308  earningIndex == totalNumberOfSurveysTakenByParticipant */\n      sub\n        /* \"smart-contracts/classroom/main/Canvassing_flattened.sol\":7250:7356  if (earningIndex == totalNumberOfSurveysTakenByParticipant) {... */\n      tag_399\n      jumpi\n        /* \"smart-contracts/classroom/main/Canvassing_flattened.sol\":7332:7337  break */\n      pop\n      jump(tag_266)\n        /* \"smart-contracts/classroom/main/Canvassing_flattened.sol\":7250:7356  if (earningIndex == totalNumberOfSurveysTakenByParticipant) {... */\n    tag_399:\n      pop\n        /* \"smart-contracts/classroom/main/Canvassing_flattened.sol\":6956:6967  earningId++ */\n      dup1\n      tag_400\n      dup2\n      tag_281\n      jump\t// in\n    tag_400:\n      swap2\n      pop\n      pop\n        /* \"smart-contracts/classroom/main/Canvassing_flattened.sol\":6859:7380  for (... */\n      jump(tag_389)\n        /* \"smart-contracts/classroom/main/Canvassing_flattened.sol\":7438:8540  function getAllSurveysTakenByParticipant(address _walletAddress)... */\n    tag_113:\n        /* \"smart-contracts/classroom/main/Canvassing_flattened.sol\":7548:7563  Survey[] memory */\n      0x60\n        /* \"smart-contracts/classroom/main/Canvassing_flattened.sol\":7672:7729  Earning[]... */\n      0x00\n        /* \"smart-contracts/classroom/main/Canvassing_flattened.sol\":7732:7809  getAllEarningsMadeByParticipant(... */\n      tag_402\n        /* \"smart-contracts/classroom/main/Canvassing_flattened.sol\":7781:7795  _walletAddress */\n      dup4\n        /* \"smart-contracts/classroom/main/Canvassing_flattened.sol\":7732:7763  getAllEarningsMadeByParticipant */\n      tag_108\n        /* \"smart-contracts/classroom/main/Canvassing_flattened.sol\":7732:7809  getAllEarningsMadeByParticipant(... */\n      jump\t// in\n    tag_402:\n        /* \"smart-contracts/classroom/main/Canvassing_flattened.sol\":7672:7809  Earning[]... */\n      swap1\n      pop\n        /* \"smart-contracts/classroom/main/Canvassing_flattened.sol\":7820:7864  Survey[] memory allSurveysTakenByParticipant */\n      0x00\n        /* \"smart-contracts/classroom/main/Canvassing_flattened.sol\":7893:7921  allEarningsMadeByParticipant */\n      dup2\n        /* \"smart-contracts/classroom/main/Canvassing_flattened.sol\":7893:7928  allEarningsMadeByParticipant.length */\n      mload\n      sub(shl(0x40, 0x01), 0x01)\n        /* \"smart-contracts/classroom/main/Canvassing_flattened.sol\":7867:7938  new Survey[](... */\n      dup2\n      gt\n      iszero\n      tag_404\n      jumpi\n      tag_404\n      tag_260\n      jump\t// in\n    tag_404:\n      mload(0x40)\n      swap1\n      dup1\n      dup3\n      mstore\n      dup1\n      0x20\n      mul\n      0x20\n      add\n      dup3\n      add\n      0x40\n      mstore\n      dup1\n      iszero\n      tag_405\n      jumpi\n      dup2\n      0x20\n      add\n    tag_406:\n      tag_407\n      tag_264\n      jump\t// in\n    tag_407:\n      dup2\n      mstore\n      0x20\n      add\n      swap1\n      0x01\n      swap1\n      sub\n      swap1\n      dup2\n      tag_406\n      jumpi\n      swap1\n      pop\n    tag_405:\n      pop\n        /* \"smart-contracts/classroom/main/Canvassing_flattened.sol\":7820:7938  Survey[] memory allSurveysTakenByParticipant = new Survey[](... */\n      swap1\n      pop\n        /* \"smart-contracts/classroom/main/Canvassing_flattened.sol\":7948:7967  uint256 surveyIndex */\n      0x00\n        /* \"smart-contracts/classroom/main/Canvassing_flattened.sol\":8093:8110  uint256 earningId */\n      dup1\n        /* \"smart-contracts/classroom/main/Canvassing_flattened.sol\":8075:8488  for (... */\n    tag_408:\n        /* \"smart-contracts/classroom/main/Canvassing_flattened.sol\":8140:8168  allEarningsMadeByParticipant */\n      dup4\n        /* \"smart-contracts/classroom/main/Canvassing_flattened.sol\":8140:8175  allEarningsMadeByParticipant.length */\n      mload\n        /* \"smart-contracts/classroom/main/Canvassing_flattened.sol\":8128:8137  earningId */\n      dup2\n        /* \"smart-contracts/classroom/main/Canvassing_flattened.sol\":8128:8175  earningId < allEarningsMadeByParticipant.length */\n      lt\n        /* \"smart-contracts/classroom/main/Canvassing_flattened.sol\":8075:8488  for (... */\n      iszero\n      tag_266\n      jumpi\n        /* \"smart-contracts/classroom/main/Canvassing_flattened.sol\":8225:8254  Earning memory runningEarning */\n      0x00\n        /* \"smart-contracts/classroom/main/Canvassing_flattened.sol\":8257:8285  allEarningsMadeByParticipant */\n      dup5\n        /* \"smart-contracts/classroom/main/Canvassing_flattened.sol\":8303:8312  earningId */\n      dup3\n        /* \"smart-contracts/classroom/main/Canvassing_flattened.sol\":8257:8326  allEarningsMadeByParticipant[... */\n      dup2\n      mload\n      dup2\n      lt\n      tag_412\n      jumpi\n      tag_412\n      tag_270\n      jump\t// in\n    tag_412:\n      0x20\n      mul\n      0x20\n      add\n      add\n      mload\n        /* \"smart-contracts/classroom/main/Canvassing_flattened.sol\":8225:8326  Earning memory runningEarning = allEarningsMadeByParticipant[... */\n      swap1\n      pop\n        /* \"smart-contracts/classroom/main/Canvassing_flattened.sol\":8385:8395  allSurveys */\n      0x03\n        /* \"smart-contracts/classroom/main/Canvassing_flattened.sol\":8413:8427  runningEarning */\n      dup2\n        /* \"smart-contracts/classroom/main/Canvassing_flattened.sol\":8413:8436  runningEarning.surveyId */\n      0x20\n      add\n      mload\n        /* \"smart-contracts/classroom/main/Canvassing_flattened.sol\":8385:8450  allSurveys[... */\n      dup2\n      sload\n      dup2\n      lt\n      tag_414\n      jumpi\n      tag_414\n      tag_270\n      jump\t// in\n    tag_414:\n      swap1\n      0x00\n      mstore\n      keccak256(0x00, 0x20)\n      swap1\n      0x07\n      mul\n      add\n        /* \"smart-contracts/classroom/main/Canvassing_flattened.sol\":8341:8450  allSurveysTakenByParticipant[surveyIndex] = allSurveys[... */\n      mload(0x40)\n      dup1\n      0xe0\n      add\n      0x40\n      mstore\n      swap1\n      dup2\n      0x00\n      dup3\n      add\n      sload\n      dup2\n      mstore\n      0x20\n      add\n      0x01\n      dup3\n      add\n      0x00\n      swap1\n      sload\n      swap1\n      0x0100\n      exp\n      swap1\n      div\n      sub(shl(0xa0, 0x01), 0x01)\n      and\n      sub(shl(0xa0, 0x01), 0x01)\n      and\n      sub(shl(0xa0, 0x01), 0x01)\n      and\n      dup2\n      mstore\n      0x20\n      add\n      0x02\n      dup3\n      add\n      dup1\n      sload\n      tag_416\n      swap1\n      tag_252\n      jump\t// in\n    tag_416:\n      dup1\n      0x1f\n      add\n      0x20\n      dup1\n      swap2\n      div\n      mul\n      0x20\n      add\n      mload(0x40)\n      swap1\n      dup2\n      add\n      0x40\n      mstore\n      dup1\n      swap3\n      swap2\n      swap1\n      dup2\n      dup2\n      mstore\n      0x20\n      add\n      dup3\n      dup1\n      sload\n      tag_417\n      swap1\n      tag_252\n      jump\t// in\n    tag_417:\n      dup1\n      iszero\n      tag_418\n      jumpi\n      dup1\n      0x1f\n      lt\n      tag_419\n      jumpi\n      0x0100\n      dup1\n      dup4\n      sload\n      div\n      mul\n      dup4\n      mstore\n      swap2\n      0x20\n      add\n      swap2\n      jump(tag_418)\n    tag_419:\n      dup3\n      add\n      swap2\n      swap1\n      0x00\n      mstore\n      keccak256(0x00, 0x20)\n      swap1\n    tag_420:\n      dup2\n      sload\n      dup2\n      mstore\n      swap1\n      0x01\n      add\n      swap1\n      0x20\n      add\n      dup1\n      dup4\n      gt\n      tag_420\n      jumpi\n      dup3\n      swap1\n      sub\n      0x1f\n      and\n      dup3\n      add\n      swap2\n    tag_418:\n      pop\n      pop\n      pop\n      swap2\n      dup4\n      mstore\n      pop\n      pop\n      0x03\n      dup3\n      add\n      sload\n      0x20\n      dup3\n      add\n      mstore\n      0x04\n      dup3\n      add\n      sload\n      0x40\n      dup3\n      add\n      mstore\n      0x05\n      dup3\n      add\n      sload\n      0x60\n      dup3\n      add\n      mstore\n      0x06\n      swap1\n      swap2\n      add\n      sload\n      0xff\n      and\n      iszero\n      iszero\n      0x80\n      swap1\n      swap2\n      add\n      mstore\n        /* \"smart-contracts/classroom/main/Canvassing_flattened.sol\":8341:8382  allSurveysTakenByParticipant[surveyIndex] */\n      dup5\n      mload\n        /* \"smart-contracts/classroom/main/Canvassing_flattened.sol\":8341:8369  allSurveysTakenByParticipant */\n      dup6\n      swap1\n        /* \"smart-contracts/classroom/main/Canvassing_flattened.sol\":8370:8381  surveyIndex */\n      dup6\n      swap1\n        /* \"smart-contracts/classroom/main/Canvassing_flattened.sol\":8341:8382  allSurveysTakenByParticipant[surveyIndex] */\n      dup2\n      lt\n      tag_422\n      jumpi\n      tag_422\n      tag_270\n      jump\t// in\n    tag_422:\n      0x20\n      mul\n      0x20\n      add\n      add\n        /* \"smart-contracts/classroom/main/Canvassing_flattened.sol\":8341:8450  allSurveysTakenByParticipant[surveyIndex] = allSurveys[... */\n      dup2\n      swap1\n      mstore\n      pop\n        /* \"smart-contracts/classroom/main/Canvassing_flattened.sol\":8464:8477  surveyIndex++ */\n      dup3\n      dup1\n      tag_423\n      swap1\n      tag_281\n      jump\t// in\n    tag_423:\n      swap4\n      pop\n      pop\n        /* \"smart-contracts/classroom/main/Canvassing_flattened.sol\":8211:8488  {... */\n      pop\n        /* \"smart-contracts/classroom/main/Canvassing_flattened.sol\":8189:8200  earningId++ */\n      dup1\n      dup1\n      tag_424\n      swap1\n      tag_281\n      jump\t// in\n    tag_424:\n      swap2\n      pop\n      pop\n        /* \"smart-contracts/classroom/main/Canvassing_flattened.sol\":8075:8488  for (... */\n      jump(tag_408)\n        /* \"smart-contracts/classroom/main/Canvassing_flattened.sol\":5124:6144  function createParticipant(... */\n    tag_118:\n        /* \"smart-contracts/classroom/main/Canvassing_flattened.sol\":5326:5346  currentParticipantId */\n      sload(0x0f)\n        /* \"smart-contracts/classroom/main/Canvassing_flattened.sol\":5357:5390  Participant memory newParticipant */\n      tag_426\n      tag_356\n      jump\t// in\n    tag_426:\n        /* \"smart-contracts/classroom/main/Canvassing_flattened.sol\":5401:5437  newParticipant.id = newParticipantId */\n      dup2\n      dup2\n      mstore\n      sub(shl(0xa0, 0x01), 0x01)\n        /* \"smart-contracts/classroom/main/Canvassing_flattened.sol\":5447:5492  newParticipant.walletAddress = _walletAddress */\n      dup7\n      and\n        /* \"smart-contracts/classroom/main/Canvassing_flattened.sol\":5447:5475  newParticipant.walletAddress */\n      0x20\n      dup3\n      add\n        /* \"smart-contracts/classroom/main/Canvassing_flattened.sol\":5447:5492  newParticipant.walletAddress = _walletAddress */\n      mstore\n        /* \"smart-contracts/classroom/main/Canvassing_flattened.sol\":5502:5523  newParticipant.gender */\n      0x40\n      dup2\n      add\n        /* \"smart-contracts/classroom/main/Canvassing_flattened.sol\":5502:5533  newParticipant.gender = _gender */\n      dup6\n      swap1\n      mstore\n        /* \"smart-contracts/classroom/main/Canvassing_flattened.sol\":5543:5565  newParticipant.country */\n      0x60\n      dup2\n      add\n        /* \"smart-contracts/classroom/main/Canvassing_flattened.sol\":5543:5576  newParticipant.country = _country */\n      dup5\n      swap1\n      mstore\n        /* \"smart-contracts/classroom/main/Canvassing_flattened.sol\":5586:5612  newParticipant.yearOfBirth */\n      0x80\n      dup2\n      add\n        /* \"smart-contracts/classroom/main/Canvassing_flattened.sol\":5586:5627  newParticipant.yearOfBirth = _yearOfBirth */\n      dup4\n      swap1\n      mstore\n        /* \"smart-contracts/classroom/main/Canvassing_flattened.sol\":5698:5737  checkIfResearcherExists(_walletAddress) */\n      tag_427\n        /* \"smart-contracts/classroom/main/Canvassing_flattened.sol\":5478:5492  _walletAddress */\n      dup7\n        /* \"smart-contracts/classroom/main/Canvassing_flattened.sol\":5698:5721  checkIfResearcherExists */\n      tag_187\n        /* \"smart-contracts/classroom/main/Canvassing_flattened.sol\":5698:5737  checkIfResearcherExists(_walletAddress) */\n      jump\t// in\n    tag_427:\n        /* \"smart-contracts/classroom/main/Canvassing_flattened.sol\":5694:6046  if (checkIfResearcherExists(_walletAddress)) {... */\n      iszero\n      tag_428\n      jumpi\n        /* \"smart-contracts/classroom/main/Canvassing_flattened.sol\":5753:5789  Researcher memory existingResearcher */\n      0x00\n        /* \"smart-contracts/classroom/main/Canvassing_flattened.sol\":5792:5866  getResearcherByWalletAddress(... */\n      tag_429\n        /* \"smart-contracts/classroom/main/Canvassing_flattened.sol\":5838:5852  _walletAddress */\n      dup8\n        /* \"smart-contracts/classroom/main/Canvassing_flattened.sol\":5792:5820  getResearcherByWalletAddress */\n      tag_60\n        /* \"smart-contracts/classroom/main/Canvassing_flattened.sol\":5792:5866  getResearcherByWalletAddress(... */\n      jump\t// in\n    tag_429:\n        /* \"smart-contracts/classroom/main/Canvassing_flattened.sol\":5916:5920  true */\n      0x01\n        /* \"smart-contracts/classroom/main/Canvassing_flattened.sol\":5881:5913  existingResearcher.isParticipant */\n      0x80\n      dup3\n      add\n        /* \"smart-contracts/classroom/main/Canvassing_flattened.sol\":5881:5920  existingResearcher.isParticipant = true */\n      dup2\n      swap1\n      mstore\n        /* \"smart-contracts/classroom/main/Canvassing_flattened.sol\":5935:5962  newParticipant.isResearcher */\n      0xc0\n      dup5\n      add\n        /* \"smart-contracts/classroom/main/Canvassing_flattened.sol\":5935:5969  newParticipant.isResearcher = true */\n      dup2\n      swap1\n      mstore\n      sub(shl(0xa0, 0x01), 0x01)\n        /* \"smart-contracts/classroom/main/Canvassing_flattened.sol\":5984:6014  allResearchers[_walletAddress] */\n      dup10\n      dup2\n      and\n        /* \"smart-contracts/classroom/main/Canvassing_flattened.sol\":5881:5920  existingResearcher.isParticipant = true */\n      0x00\n        /* \"smart-contracts/classroom/main/Canvassing_flattened.sol\":5984:6014  allResearchers[_walletAddress] */\n      swap1\n      dup2\n      mstore\n      0x20\n      dup4\n      dup2\n      mstore\n      0x40\n      swap2\n      dup3\n      swap1\n      keccak256\n        /* \"smart-contracts/classroom/main/Canvassing_flattened.sol\":5984:6035  allResearchers[_walletAddress] = existingResearcher */\n      dup6\n      mload\n      dup2\n      sstore\n      swap1\n      dup6\n      add\n      mload\n      swap4\n      dup2\n      add\n      dup1\n      sload\n      not(sub(shl(0xa0, 0x01), 0x01))\n      and\n      swap5\n      swap1\n      swap4\n      and\n      swap4\n      swap1\n      swap4\n      or\n      swap1\n      swap2\n      sstore\n      dup3\n      add\n      mload\n        /* \"smart-contracts/classroom/main/Canvassing_flattened.sol\":5881:5913  existingResearcher.isParticipant */\n      swap2\n      swap3\n      pop\n      dup3\n      swap2\n        /* \"smart-contracts/classroom/main/Canvassing_flattened.sol\":5984:6035  allResearchers[_walletAddress] = existingResearcher */\n      0x02\n      dup3\n      add\n      swap1\n      tag_430\n      swap1\n      dup3\n      tag_302\n      jump\t// in\n    tag_430:\n      pop\n      0x60\n      dup3\n      add\n      mload\n      0x03\n      dup3\n      add\n      sstore\n      0x80\n      dup3\n      add\n      mload\n      0x04\n      swap1\n      swap2\n      add\n      dup1\n      sload\n      0xa0\n      dup5\n      add\n      mload\n      0xc0\n      swap1\n      swap5\n      add\n      mload\n      iszero\n      iszero\n      0x010000\n      mul\n      not(0xff0000)\n      swap5\n      iszero\n      iszero\n      0x0100\n      mul\n      not(0xff00)\n      swap5\n      iszero\n      iszero\n      swap5\n      swap1\n      swap5\n      and\n      not(0xffff)\n      swap1\n      swap3\n      and\n      swap2\n      swap1\n      swap2\n      or\n      swap3\n      swap1\n      swap3\n      or\n      swap3\n      swap1\n      swap3\n      and\n      or\n      swap1\n      sstore\n      pop\n        /* \"smart-contracts/classroom/main/Canvassing_flattened.sol\":5694:6046  if (checkIfResearcherExists(_walletAddress)) {... */\n    tag_428:\n      sub(shl(0xa0, 0x01), 0x01)\n        /* \"smart-contracts/classroom/main/Canvassing_flattened.sol\":6056:6087  allParticipants[_walletAddress] */\n      dup7\n      dup2\n      and\n      0x00\n      swap1\n      dup2\n      mstore\n        /* \"smart-contracts/classroom/main/Canvassing_flattened.sol\":6056:6071  allParticipants */\n      0x02\n        /* \"smart-contracts/classroom/main/Canvassing_flattened.sol\":6056:6087  allParticipants[_walletAddress] */\n      0x20\n      dup2\n      dup2\n      mstore\n      0x40\n      swap3\n      dup4\n      swap1\n      keccak256\n        /* \"smart-contracts/classroom/main/Canvassing_flattened.sol\":6056:6104  allParticipants[_walletAddress] = newParticipant */\n      dup6\n      mload\n      dup2\n      sstore\n      swap1\n      dup6\n      add\n      mload\n      0x01\n      dup3\n      add\n      dup1\n      sload\n      not(sub(shl(0xa0, 0x01), 0x01))\n      and\n      swap2\n      swap1\n      swap6\n      and\n      or\n      swap1\n      swap4\n      sstore\n      swap1\n      dup4\n      add\n      mload\n      dup4\n      swap3\n        /* \"smart-contracts/classroom/main/Canvassing_flattened.sol\":6056:6087  allParticipants[_walletAddress] */\n      swap2\n        /* \"smart-contracts/classroom/main/Canvassing_flattened.sol\":6056:6104  allParticipants[_walletAddress] = newParticipant */\n      dup3\n      add\n      swap1\n      tag_431\n      swap1\n      dup3\n      tag_302\n      jump\t// in\n    tag_431:\n      pop\n      0x60\n      dup3\n      add\n      mload\n      0x03\n      dup3\n      add\n      swap1\n      tag_432\n      swap1\n      dup3\n      tag_302\n      jump\t// in\n    tag_432:\n      pop\n      0x80\n      dup3\n      add\n      mload\n      0x04\n      dup3\n      add\n      sstore\n      0xa0\n      dup3\n      add\n      mload\n      0x05\n      dup3\n      add\n      sstore\n      0xc0\n      dup3\n      add\n      mload\n      0x06\n      swap1\n      swap2\n      add\n      dup1\n      sload\n      0xe0\n      swap1\n      swap4\n      add\n      mload\n      iszero\n      iszero\n      0x0100\n      mul\n      not(0xff00)\n      swap3\n      iszero\n      iszero\n      swap3\n      swap1\n      swap3\n      and\n      not(0xffff)\n      swap1\n      swap4\n      and\n      swap3\n      swap1\n      swap3\n      or\n      or\n      swap1\n      sstore\n        /* \"smart-contracts/classroom/main/Canvassing_flattened.sol\":6115:6135  currentParticipantId */\n      0x0f\n        /* \"smart-contracts/classroom/main/Canvassing_flattened.sol\":6115:6137  currentParticipantId++ */\n      dup1\n      sload\n      swap1\n      0x00\n      tag_433\n      dup4\n      tag_281\n      jump\t// in\n    tag_433:\n      swap2\n      swap1\n      pop\n      sstore\n      pop\n        /* \"smart-contracts/classroom/main/Canvassing_flattened.sol\":5289:6144  {... */\n      pop\n      pop\n        /* \"smart-contracts/classroom/main/Canvassing_flattened.sol\":5124:6144  function createParticipant(... */\n      pop\n      pop\n      pop\n      pop\n      jump\t// out\n        /* \"smart-contracts/classroom/main/Canvassing_flattened.sol\":12790:13305  function getAmountOfEarningForCanvassingForSurveyPerParticipantInWei(... */\n    tag_125:\n        /* \"smart-contracts/classroom/main/Canvassing_flattened.sol\":12952:12959  uint256 */\n      0x00\n        /* \"smart-contracts/classroom/main/Canvassing_flattened.sol\":12971:12998  Survey memory currentSurvey */\n      dup1\n        /* \"smart-contracts/classroom/main/Canvassing_flattened.sol\":13001:13011  allSurveys */\n      0x03\n        /* \"smart-contracts/classroom/main/Canvassing_flattened.sol\":13012:13021  _surveyId */\n      dup5\n        /* \"smart-contracts/classroom/main/Canvassing_flattened.sol\":13001:13022  allSurveys[_surveyId] */\n      dup2\n      sload\n      dup2\n      lt\n      tag_437\n      jumpi\n      tag_437\n      tag_270\n      jump\t// in\n    tag_437:\n      swap1\n      0x00\n      mstore\n      keccak256(0x00, 0x20)\n      swap1\n      0x07\n      mul\n      add\n        /* \"smart-contracts/classroom/main/Canvassing_flattened.sol\":12971:13022  Survey memory currentSurvey = allSurveys[_surveyId] */\n      mload(0x40)\n      dup1\n      0xe0\n      add\n      0x40\n      mstore\n      swap1\n      dup2\n      0x00\n      dup3\n      add\n      sload\n      dup2\n      mstore\n      0x20\n      add\n      0x01\n      dup3\n      add\n      0x00\n      swap1\n      sload\n      swap1\n      0x0100\n      exp\n      swap1\n      div\n      sub(shl(0xa0, 0x01), 0x01)\n      and\n      sub(shl(0xa0, 0x01), 0x01)\n      and\n      sub(shl(0xa0, 0x01), 0x01)\n      and\n      dup2\n      mstore\n      0x20\n      add\n      0x02\n      dup3\n      add\n      dup1\n      sload\n      tag_439\n      swap1\n      tag_252\n      jump\t// in\n    tag_439:\n      dup1\n      0x1f\n      add\n      0x20\n      dup1\n      swap2\n      div\n      mul\n      0x20\n      add\n      mload(0x40)\n      swap1\n      dup2\n      add\n      0x40\n      mstore\n      dup1\n      swap3\n      swap2\n      swap1\n      dup2\n      dup2\n      mstore\n      0x20\n      add\n      dup3\n      dup1\n      sload\n      tag_440\n      swap1\n      tag_252\n      jump\t// in\n    tag_440:\n      dup1\n      iszero\n      tag_441\n      jumpi\n      dup1\n      0x1f\n      lt\n      tag_442\n      jumpi\n      0x0100\n      dup1\n      dup4\n      sload\n      div\n      mul\n      dup4\n      mstore\n      swap2\n      0x20\n      add\n      swap2\n      jump(tag_441)\n    tag_442:\n      dup3\n      add\n      swap2\n      swap1\n      0x00\n      mstore\n      keccak256(0x00, 0x20)\n      swap1\n    tag_443:\n      dup2\n      sload\n      dup2\n      mstore\n      swap1\n      0x01\n      add\n      swap1\n      0x20\n      add\n      dup1\n      dup4\n      gt\n      tag_443\n      jumpi\n      dup3\n      swap1\n      sub\n      0x1f\n      and\n      dup3\n      add\n      swap2\n    tag_441:\n      pop\n      pop\n      pop\n      swap2\n      dup4\n      mstore\n      pop\n      pop\n      0x03\n      dup3\n      add\n      sload\n      0x20\n      dup3\n      add\n      mstore\n      0x04\n      dup3\n      add\n      sload\n      0x40\n      dup3\n      add\n      mstore\n      0x05\n      dup1\n      dup4\n      add\n      sload\n      0x60\n      dup4\n      add\n      mstore\n      0x06\n      swap1\n      swap3\n      add\n      sload\n      0xff\n      and\n      iszero\n      iszero\n      0x80\n      swap1\n      swap2\n      add\n      mstore\n        /* \"smart-contracts/classroom/main/Canvassing_flattened.sol\":13069:13100  currentSurvey.amountFundedInWei */\n      0xa0\n      dup3\n      add\n      mload\n        /* \"smart-contracts/classroom/main/Canvassing_flattened.sol\":12971:13022  Survey memory currentSurvey = allSurveys[_surveyId] */\n      swap2\n      swap3\n      pop\n      0x00\n      swap1\n        /* \"smart-contracts/classroom/main/Canvassing_flattened.sol\":13219:13240  _numberOfParticipants */\n      dup6\n      swap1\n        /* \"smart-contracts/classroom/main/Canvassing_flattened.sol\":13213:13215  10 */\n      0x0a\n      swap1\n        /* \"smart-contracts/classroom/main/Canvassing_flattened.sol\":13163:13209  amountFundedInWeiForSurvey *... */\n      tag_444\n      swap1\n        /* \"smart-contracts/classroom/main/Canvassing_flattened.sol\":13069:13100  currentSurvey.amountFundedInWei */\n      dup6\n      swap1\n        /* \"smart-contracts/classroom/main/Canvassing_flattened.sol\":13163:13209  amountFundedInWeiForSurvey *... */\n      tag_236\n      jump\t// in\n    tag_444:\n        /* \"smart-contracts/classroom/main/Canvassing_flattened.sol\":13162:13215  (amountFundedInWeiForSurvey *... */\n      tag_445\n      swap2\n      swap1\n      tag_324\n      jump\t// in\n    tag_445:\n        /* \"smart-contracts/classroom/main/Canvassing_flattened.sol\":13161:13240  ((amountFundedInWeiForSurvey *... */\n      tag_446\n      swap2\n      swap1\n      tag_324\n      jump\t// in\n    tag_446:\n        /* \"smart-contracts/classroom/main/Canvassing_flattened.sol\":13110:13240  uint256 canvassingShareAmountPerParticipantInWei = ((amountFundedInWeiForSurvey *... */\n      swap7\n        /* \"smart-contracts/classroom/main/Canvassing_flattened.sol\":12790:13305  function getAmountOfEarningForCanvassingForSurveyPerParticipantInWei(... */\n      swap6\n      pop\n      pop\n      pop\n      pop\n      pop\n      pop\n      jump\t// out\n        /* \"smart-contracts/classroom/main/Canvassing_flattened.sol\":3180:3234  mapping(address => Participant) public allParticipants */\n    tag_137:\n      0x02\n      0x20\n      dup2\n      swap1\n      mstore\n      0x00\n      swap2\n      dup3\n      mstore\n      0x40\n      swap1\n      swap2\n      keccak256\n      dup1\n      sload\n      0x01\n      dup3\n      add\n      sload\n      swap3\n      dup3\n      add\n      dup1\n      sload\n      swap2\n      swap4\n      sub(shl(0xa0, 0x01), 0x01)\n      and\n      swap3\n      swap2\n      tag_286\n      swap1\n      tag_252\n      jump\t// in\n        /* \"smart-contracts/classroom/main/Canvassing_flattened.sol\":21462:23577  function createSurvey(... */\n    tag_146:\n        /* \"smart-contracts/classroom/main/Canvassing_flattened.sol\":21784:21799  currentSurveyId */\n      sload(0x10)\n        /* \"smart-contracts/classroom/main/Canvassing_flattened.sol\":21743:21750  uint256 */\n      0x00\n      swap1\n        /* \"smart-contracts/classroom/main/Canvassing_flattened.sol\":21844:21867  Survey memory newSurvey */\n      tag_459\n      tag_264\n      jump\t// in\n    tag_459:\n        /* \"smart-contracts/classroom/main/Canvassing_flattened.sol\":21877:21903  newSurvey.id = newSurveyId */\n      dup2\n      dup2\n      mstore\n      sub(shl(0xa0, 0x01), 0x01)\n        /* \"smart-contracts/classroom/main/Canvassing_flattened.sol\":21913:21981  newSurvey.creatingResearcherWalletAddress = _researcherWalletAddress */\n      dup10\n      and\n        /* \"smart-contracts/classroom/main/Canvassing_flattened.sol\":21913:21954  newSurvey.creatingResearcherWalletAddress */\n      0x20\n      dup3\n      add\n        /* \"smart-contracts/classroom/main/Canvassing_flattened.sol\":21913:21981  newSurvey.creatingResearcherWalletAddress = _researcherWalletAddress */\n      mstore\n        /* \"smart-contracts/classroom/main/Canvassing_flattened.sol\":21991:22006  newSurvey.topic */\n      0x40\n      dup2\n      add\n        /* \"smart-contracts/classroom/main/Canvassing_flattened.sol\":21991:22015  newSurvey.topic = _topic */\n      dup9\n      swap1\n      mstore\n        /* \"smart-contracts/classroom/main/Canvassing_flattened.sol\":22025:22052  newSurvey.numberOfQuestions */\n      0x60\n      dup2\n      add\n        /* \"smart-contracts/classroom/main/Canvassing_flattened.sol\":22025:22073  newSurvey.numberOfQuestions = _numberOfQuestions */\n      dup8\n      swap1\n      mstore\n        /* \"smart-contracts/classroom/main/Canvassing_flattened.sol\":22083:22119  newSurvey.targetNumberOfParticipants */\n      0x80\n      dup2\n      add\n        /* \"smart-contracts/classroom/main/Canvassing_flattened.sol\":22083:22149  newSurvey.targetNumberOfParticipants = _targetNumberOfParticipants */\n      dup7\n      swap1\n      mstore\n        /* \"smart-contracts/classroom/main/Canvassing_flattened.sol\":22227:22244  cUSDDecimalPlaces */\n      sload(0x16)\n        /* \"smart-contracts/classroom/main/Canvassing_flattened.sol\":22190:22244  _amountFundedForSurvey *... */\n      tag_460\n      swap1\n        /* \"smart-contracts/classroom/main/Canvassing_flattened.sol\":22190:22212  _amountFundedForSurvey */\n      dup6\n        /* \"smart-contracts/classroom/main/Canvassing_flattened.sol\":22190:22244  _amountFundedForSurvey *... */\n      tag_236\n      jump\t// in\n    tag_460:\n        /* \"smart-contracts/classroom/main/Canvassing_flattened.sol\":22159:22186  newSurvey.amountFundedInWei */\n      0xa0\n      dup3\n      add\n        /* \"smart-contracts/classroom/main/Canvassing_flattened.sol\":22159:22245  newSurvey.amountFundedInWei = (_amountFundedForSurvey *... */\n      mstore\n        /* \"smart-contracts/classroom/main/Canvassing_flattened.sol\":22255:22265  allSurveys */\n      0x03\n        /* \"smart-contracts/classroom/main/Canvassing_flattened.sol\":22255:22281  allSurveys.push(newSurvey) */\n      dup1\n      sload\n      0x01\n      dup2\n      add\n      dup3\n      sstore\n      0x00\n      swap2\n      swap1\n      swap2\n      mstore\n      dup2\n      mload\n      0xc2575a0e9e593c00f959f8c92f12db2869c3395a3b0502d05e2516446f71f85b\n      0x07\n      swap1\n      swap3\n      mul\n      swap2\n      dup3\n      add\n      swap1\n      dup2\n      sstore\n      0x20\n      dup4\n      add\n      mload\n      0xc2575a0e9e593c00f959f8c92f12db2869c3395a3b0502d05e2516446f71f85c\n      dup4\n      add\n      dup1\n      sload\n      not(sub(shl(0xa0, 0x01), 0x01))\n      and\n      sub(shl(0xa0, 0x01), 0x01)\n      swap1\n      swap3\n      and\n      swap2\n      swap1\n      swap2\n      or\n      swap1\n      sstore\n      0x40\n      dup4\n      add\n      mload\n        /* \"smart-contracts/classroom/main/Canvassing_flattened.sol\":22159:22186  newSurvey.amountFundedInWei */\n      dup4\n      swap3\n        /* \"smart-contracts/classroom/main/Canvassing_flattened.sol\":22255:22281  allSurveys.push(newSurvey) */\n      0xc2575a0e9e593c00f959f8c92f12db2869c3395a3b0502d05e2516446f71f85d\n      add\n      swap1\n      tag_462\n      swap1\n      dup3\n      tag_302\n      jump\t// in\n    tag_462:\n      pop\n      0x60\n      dup3\n      add\n      mload\n      0x03\n      dup3\n      add\n      sstore\n      0x80\n      dup3\n      add\n      mload\n      0x04\n      dup3\n      add\n      sstore\n      0xa0\n      dup3\n      add\n      mload\n      0x05\n      dup3\n      add\n      sstore\n      0xc0\n      swap1\n      swap2\n      add\n      mload\n      0x06\n      swap1\n      swap2\n      add\n      dup1\n      sload\n      not(0xff)\n      and\n      swap2\n      iszero\n      iszero\n      swap2\n      swap1\n      swap2\n      or\n      swap1\n      sstore\n        /* \"smart-contracts/classroom/main/Canvassing_flattened.sol\":22381:22393  newSurvey.id */\n      dup1\n      mload\n      sub(shl(0xa0, 0x01), 0x01)\n        /* \"smart-contracts/classroom/main/Canvassing_flattened.sol\":22292:22378  idsOfLatestSurveysCreatedByResearchers[... */\n      dup11\n      and\n      0x00\n      swap1\n      dup2\n      mstore\n        /* \"smart-contracts/classroom/main/Canvassing_flattened.sol\":22292:22330  idsOfLatestSurveysCreatedByResearchers */\n      0x0a\n        /* \"smart-contracts/classroom/main/Canvassing_flattened.sol\":22292:22378  idsOfLatestSurveysCreatedByResearchers[... */\n      0x20\n      swap1\n      dup2\n      mstore\n      0x40\n      dup1\n      dup4\n      keccak256\n        /* \"smart-contracts/classroom/main/Canvassing_flattened.sol\":22292:22393  idsOfLatestSurveysCreatedByResearchers[... */\n      swap4\n      swap1\n      swap4\n      sstore\n        /* \"smart-contracts/classroom/main/Canvassing_flattened.sol\":22460:22500  totalNumberOfSurveysCreatedByResearchers */\n      0x08\n        /* \"smart-contracts/classroom/main/Canvassing_flattened.sol\":22460:22556  totalNumberOfSurveysCreatedByResearchers[... */\n      swap1\n      mstore\n      swap1\n      dup2\n      keccak256\n      sload\n      swap1\n        /* \"smart-contracts/classroom/main/Canvassing_flattened.sol\":22623:22689  currentTotalNumberOfSurveysCreatedByResearcher +... */\n      tag_463\n        /* \"smart-contracts/classroom/main/Canvassing_flattened.sol\":22460:22556  totalNumberOfSurveysCreatedByResearchers[... */\n      dup3\n      0x01\n        /* \"smart-contracts/classroom/main/Canvassing_flattened.sol\":22623:22689  currentTotalNumberOfSurveysCreatedByResearcher +... */\n      tag_238\n      jump\t// in\n    tag_463:\n      sub(shl(0xa0, 0x01), 0x01)\n        /* \"smart-contracts/classroom/main/Canvassing_flattened.sol\":22700:22788  totalNumberOfSurveysCreatedByResearchers[... */\n      dup13\n      and\n      0x00\n      swap1\n      dup2\n      mstore\n        /* \"smart-contracts/classroom/main/Canvassing_flattened.sol\":22700:22740  totalNumberOfSurveysCreatedByResearchers */\n      0x08\n        /* \"smart-contracts/classroom/main/Canvassing_flattened.sol\":22700:22788  totalNumberOfSurveysCreatedByResearchers[... */\n      0x20\n      mstore\n      0x40\n      dup2\n      keccak256\n        /* \"smart-contracts/classroom/main/Canvassing_flattened.sol\":22700:22836  totalNumberOfSurveysCreatedByResearchers[... */\n      dup3\n      swap1\n      sstore\n        /* \"smart-contracts/classroom/main/Canvassing_flattened.sol\":22567:22689  uint256 newestTotalNumberOfSurveysCreatedByResearcher = currentTotalNumberOfSurveysCreatedByResearcher +... */\n      swap1\n      swap2\n      pop\n        /* \"smart-contracts/classroom/main/Canvassing_flattened.sol\":22911:23462  for (... */\n    tag_464:\n        /* \"smart-contracts/classroom/main/Canvassing_flattened.sol\":22984:23002  _numberOfQuestions */\n      dup10\n        /* \"smart-contracts/classroom/main/Canvassing_flattened.sol\":22968:22981  questionIndex */\n      dup2\n        /* \"smart-contracts/classroom/main/Canvassing_flattened.sol\":22968:23002  questionIndex < _numberOfQuestions */\n      lt\n        /* \"smart-contracts/classroom/main/Canvassing_flattened.sol\":22911:23462  for (... */\n      iszero\n      tag_465\n      jumpi\n        /* \"smart-contracts/classroom/main/Canvassing_flattened.sol\":23080:23097  currentQuestionId */\n      sload(0x11)\n      0x40\n      dup1\n      mload\n      0x80\n      dup2\n      add\n      dup3\n      mstore\n      0x00\n      0x20\n      dup3\n      add\n      dup2\n      dup2\n      mstore\n      0x60\n      swap4\n      dup4\n      add\n      dup5\n      swap1\n      mstore\n      swap3\n      dup3\n      add\n      mstore\n        /* \"smart-contracts/classroom/main/Canvassing_flattened.sol\":23153:23183  newQuestion.id = newQuestionId */\n      dup3\n      dup2\n      mstore\n        /* \"smart-contracts/classroom/main/Canvassing_flattened.sol\":23220:23232  newSurvey.id */\n      dup7\n      mload\n        /* \"smart-contracts/classroom/main/Canvassing_flattened.sol\":23197:23232  newQuestion.surveyId = newSurvey.id */\n      swap1\n      swap2\n      mstore\n        /* \"smart-contracts/classroom/main/Canvassing_flattened.sol\":23269:23302  _questionSentences[questionIndex] */\n      dup10\n      mload\n      dup11\n      swap1\n        /* \"smart-contracts/classroom/main/Canvassing_flattened.sol\":23288:23301  questionIndex */\n      dup5\n      swap1\n        /* \"smart-contracts/classroom/main/Canvassing_flattened.sol\":23269:23302  _questionSentences[questionIndex] */\n      dup2\n      lt\n      tag_470\n      jumpi\n      tag_470\n      tag_270\n      jump\t// in\n    tag_470:\n      0x20\n      swap1\n      dup2\n      mul\n      swap2\n      swap1\n      swap2\n      add\n      dup2\n      add\n      mload\n        /* \"smart-contracts/classroom/main/Canvassing_flattened.sol\":23246:23266  newQuestion.sentence */\n      0x40\n      dup1\n      dup5\n      add\n        /* \"smart-contracts/classroom/main/Canvassing_flattened.sol\":23246:23302  newQuestion.sentence = _questionSentences[questionIndex] */\n      swap2\n      dup3\n      mstore\n        /* \"smart-contracts/classroom/main/Canvassing_flattened.sol\":23329:23341  newSurvey.id */\n      dup9\n      mload\n        /* \"smart-contracts/classroom/main/Canvassing_flattened.sol\":23316:23342  allQuestions[newSurvey.id] */\n      0x00\n      swap1\n      dup2\n      mstore\n        /* \"smart-contracts/classroom/main/Canvassing_flattened.sol\":23316:23328  allQuestions */\n      0x04\n        /* \"smart-contracts/classroom/main/Canvassing_flattened.sol\":23316:23342  allQuestions[newSurvey.id] */\n      dup1\n      dup6\n      mstore\n      swap2\n      dup2\n      keccak256\n        /* \"smart-contracts/classroom/main/Canvassing_flattened.sol\":23316:23360  allQuestions[newSurvey.id].push(newQuestion) */\n      dup1\n      sload\n      0x01\n      dup2\n      dup2\n      add\n      dup4\n      sstore\n      swap2\n      dup4\n      mstore\n      swap2\n      dup6\n      swap1\n      keccak256\n      dup7\n      mload\n      swap3\n      swap1\n      swap4\n      mul\n      swap1\n      swap3\n      add\n      swap1\n      dup2\n      sstore\n      swap3\n      dup5\n      add\n      mload\n      swap1\n      dup4\n      add\n      sstore\n      mload\n        /* \"smart-contracts/classroom/main/Canvassing_flattened.sol\":23246:23257  newQuestion */\n      dup3\n      swap2\n        /* \"smart-contracts/classroom/main/Canvassing_flattened.sol\":23316:23360  allQuestions[newSurvey.id].push(newQuestion) */\n      swap1\n      0x02\n      dup3\n      add\n      swap1\n      tag_472\n      swap1\n      dup3\n      tag_302\n      jump\t// in\n    tag_472:\n      pop\n      0x60\n      swap2\n      swap1\n      swap2\n      add\n      mload\n      0x03\n      swap1\n      swap2\n      add\n      dup1\n      sload\n      not(0xff)\n      and\n      swap2\n      iszero\n      iszero\n      swap2\n      swap1\n      swap2\n      or\n      swap1\n      sstore\n        /* \"smart-contracts/classroom/main/Canvassing_flattened.sol\":23432:23449  currentQuestionId */\n      0x11\n        /* \"smart-contracts/classroom/main/Canvassing_flattened.sol\":23432:23451  currentQuestionId++ */\n      dup1\n      sload\n      swap1\n      0x00\n      tag_473\n      dup4\n      tag_281\n      jump\t// in\n    tag_473:\n      swap2\n      swap1\n      pop\n      sstore\n      pop\n        /* \"smart-contracts/classroom/main/Canvassing_flattened.sol\":23042:23462  {... */\n      pop\n      pop\n        /* \"smart-contracts/classroom/main/Canvassing_flattened.sol\":23016:23031  questionIndex++ */\n      dup1\n      dup1\n      tag_474\n      swap1\n      tag_281\n      jump\t// in\n    tag_474:\n      swap2\n      pop\n      pop\n        /* \"smart-contracts/classroom/main/Canvassing_flattened.sol\":22911:23462  for (... */\n      jump(tag_464)\n    tag_465:\n      pop\n        /* \"smart-contracts/classroom/main/Canvassing_flattened.sol\":23523:23538  currentSurveyId */\n      0x10\n        /* \"smart-contracts/classroom/main/Canvassing_flattened.sol\":23523:23540  currentSurveyId++ */\n      dup1\n      sload\n      swap1\n        /* \"smart-contracts/classroom/main/Canvassing_flattened.sol\":23523:23538  currentSurveyId */\n      0x00\n        /* \"smart-contracts/classroom/main/Canvassing_flattened.sol\":23523:23540  currentSurveyId++ */\n      tag_475\n      dup4\n      tag_281\n      jump\t// in\n    tag_475:\n      swap1\n      swap2\n      sstore\n      pop\n      pop\n        /* \"smart-contracts/classroom/main/Canvassing_flattened.sol\":23558:23570  newSurvey.id */\n      swap2\n      mload\n      swap11\n        /* \"smart-contracts/classroom/main/Canvassing_flattened.sol\":21462:23577  function createSurvey(... */\n      swap10\n      pop\n      pop\n      pop\n      pop\n      pop\n      pop\n      pop\n      pop\n      pop\n      pop\n      jump\t// out\n        /* \"smart-contracts/classroom/main/Canvassing_flattened.sol\":3388:3434  mapping(uint256 => Answer[]) public allAnswers */\n    tag_150:\n      mstore(0x20, 0x05)\n      dup2\n      0x00\n      mstore\n      keccak256(0x00, 0x40)\n      dup2\n      dup2\n      sload\n      dup2\n      lt\n      tag_476\n      jumpi\n      0x00\n      dup1\n      revert\n    tag_476:\n      0x00\n      swap2\n      dup3\n      mstore\n      0x20\n      swap1\n      swap2\n      keccak256\n      0x04\n      swap1\n      swap2\n      mul\n      add\n      dup1\n      sload\n      0x01\n      dup3\n      add\n      sload\n      0x02\n      dup4\n      add\n      sload\n      0x03\n      swap1\n      swap4\n      add\n      sload\n      swap2\n      swap5\n      pop\n      swap3\n      pop\n      sub(shl(0xa0, 0x01), 0x01)\n      dup2\n      and\n      swap1\n      0xff\n      shl(0xa0, 0x01)\n      dup3\n      div\n      dup2\n      and\n      swap2\n      shl(0xa8, 0x01)\n      swap1\n      div\n      and\n      dup7\n      jump\t// out\n        /* \"smart-contracts/classroom/main/Canvassing_flattened.sol\":14989:16930  function makePayoutAndCreateEarning(... */\n    tag_155:\n        /* \"smart-contracts/classroom/main/Canvassing_flattened.sol\":15118:15145  Survey memory currentSurvey */\n      0x00\n        /* \"smart-contracts/classroom/main/Canvassing_flattened.sol\":15148:15158  allSurveys */\n      0x03\n        /* \"smart-contracts/classroom/main/Canvassing_flattened.sol\":15159:15168  _surveyId */\n      dup4\n        /* \"smart-contracts/classroom/main/Canvassing_flattened.sol\":15148:15169  allSurveys[_surveyId] */\n      dup2\n      sload\n      dup2\n      lt\n      tag_480\n      jumpi\n      tag_480\n      tag_270\n      jump\t// in\n    tag_480:\n      swap1\n      0x00\n      mstore\n      keccak256(0x00, 0x20)\n      swap1\n      0x07\n      mul\n      add\n        /* \"smart-contracts/classroom/main/Canvassing_flattened.sol\":15118:15169  Survey memory currentSurvey = allSurveys[_surveyId] */\n      mload(0x40)\n      dup1\n      0xe0\n      add\n      0x40\n      mstore\n      swap1\n      dup2\n      0x00\n      dup3\n      add\n      sload\n      dup2\n      mstore\n      0x20\n      add\n      0x01\n      dup3\n      add\n      0x00\n      swap1\n      sload\n      swap1\n      0x0100\n      exp\n      swap1\n      div\n      sub(shl(0xa0, 0x01), 0x01)\n      and\n      sub(shl(0xa0, 0x01), 0x01)\n      and\n      sub(shl(0xa0, 0x01), 0x01)\n      and\n      dup2\n      mstore\n      0x20\n      add\n      0x02\n      dup3\n      add\n      dup1\n      sload\n      tag_482\n      swap1\n      tag_252\n      jump\t// in\n    tag_482:\n      dup1\n      0x1f\n      add\n      0x20\n      dup1\n      swap2\n      div\n      mul\n      0x20\n      add\n      mload(0x40)\n      swap1\n      dup2\n      add\n      0x40\n      mstore\n      dup1\n      swap3\n      swap2\n      swap1\n      dup2\n      dup2\n      mstore\n      0x20\n      add\n      dup3\n      dup1\n      sload\n      tag_483\n      swap1\n      tag_252\n      jump\t// in\n    tag_483:\n      dup1\n      iszero\n      tag_484\n      jumpi\n      dup1\n      0x1f\n      lt\n      tag_485\n      jumpi\n      0x0100\n      dup1\n      dup4\n      sload\n      div\n      mul\n      dup4\n      mstore\n      swap2\n      0x20\n      add\n      swap2\n      jump(tag_484)\n    tag_485:\n      dup3\n      add\n      swap2\n      swap1\n      0x00\n      mstore\n      keccak256(0x00, 0x20)\n      swap1\n    tag_486:\n      dup2\n      sload\n      dup2\n      mstore\n      swap1\n      0x01\n      add\n      swap1\n      0x20\n      add\n      dup1\n      dup4\n      gt\n      tag_486\n      jumpi\n      dup3\n      swap1\n      sub\n      0x1f\n      and\n      dup3\n      add\n      swap2\n    tag_484:\n      pop\n      pop\n      pop\n      swap2\n      dup4\n      mstore\n      pop\n      pop\n      0x03\n      dup3\n      add\n      sload\n      0x20\n      dup3\n      add\n      mstore\n      0x04\n      dup3\n      add\n      sload\n      0x40\n      dup3\n      add\n      mstore\n      0x05\n      dup3\n      add\n      sload\n      0x60\n      dup3\n      add\n      mstore\n      0x06\n      swap1\n      swap2\n      add\n      sload\n      0xff\n      and\n      iszero\n      iszero\n      0x80\n      swap1\n      swap2\n      add\n      mstore\n      swap1\n      pop\n      0x00\n        /* \"smart-contracts/classroom/main/Canvassing_flattened.sol\":15267:15354  getAmountOfEarningPerParticipantForSurveyInWei(... */\n      tag_487\n        /* \"smart-contracts/classroom/main/Canvassing_flattened.sol\":15331:15340  _surveyId */\n      dup5\n        /* \"smart-contracts/classroom/main/Canvassing_flattened.sol\":15267:15313  getAmountOfEarningPerParticipantForSurveyInWei */\n      tag_85\n        /* \"smart-contracts/classroom/main/Canvassing_flattened.sol\":15267:15354  getAmountOfEarningPerParticipantForSurveyInWei(... */\n      jump\t// in\n    tag_487:\n        /* \"smart-contracts/classroom/main/Canvassing_flattened.sol\":15365:15369  cUSD */\n      sload(0x15)\n        /* \"smart-contracts/classroom/main/Canvassing_flattened.sol\":15365:15476  cUSD.transfer(... */\n      mload(0x40)\n      shl(0xe0, 0xa9059cbb)\n      dup2\n      mstore\n      sub(shl(0xa0, 0x01), 0x01)\n        /* \"#utility.yul\":23120:23152   */\n      dup7\n      dup2\n      and\n        /* \"smart-contracts/classroom/main/Canvassing_flattened.sol\":15365:15476  cUSD.transfer(... */\n      0x04\n      dup4\n      add\n        /* \"#utility.yul\":23102:23153   */\n      mstore\n        /* \"#utility.yul\":23169:23187   */\n      0x24\n      dup3\n      add\n        /* \"#utility.yul\":23162:23196   */\n      dup5\n      swap1\n      mstore\n        /* \"smart-contracts/classroom/main/Canvassing_flattened.sol\":15221:15354  uint256 amountToBePaidOutToParticipantInWei = getAmountOfEarningPerParticipantForSurveyInWei(... */\n      swap3\n      swap4\n      pop\n        /* \"smart-contracts/classroom/main/Canvassing_flattened.sol\":15365:15369  cUSD */\n      swap2\n      and\n      swap1\n        /* \"smart-contracts/classroom/main/Canvassing_flattened.sol\":15365:15378  cUSD.transfer */\n      0xa9059cbb\n      swap1\n        /* \"#utility.yul\":23075:23093   */\n      0x44\n      add\n        /* \"smart-contracts/classroom/main/Canvassing_flattened.sol\":15365:15476  cUSD.transfer(... */\n      0x20\n      mload(0x40)\n      dup1\n      dup4\n      sub\n      dup2\n      0x00\n      dup8\n      gas\n      call\n      iszero\n      dup1\n      iszero\n      tag_491\n      jumpi\n      returndatasize\n      0x00\n      dup1\n      returndatacopy\n      revert(0x00, returndatasize)\n    tag_491:\n      pop\n      pop\n      pop\n      pop\n      mload(0x40)\n      returndatasize\n      not(0x1f)\n      0x1f\n      dup3\n      add\n      and\n      dup3\n      add\n      dup1\n      0x40\n      mstore\n      pop\n      dup2\n      add\n      swap1\n      tag_492\n      swap2\n      swap1\n      tag_493\n      jump\t// in\n    tag_492:\n      pop\n        /* \"smart-contracts/classroom/main/Canvassing_flattened.sol\":15548:15590  uint256 amountToBePaidOutToCanvassingInWei */\n      0x00\n        /* \"smart-contracts/classroom/main/Canvassing_flattened.sol\":15593:15751  getAmountOfEarningForCanvassingForSurveyPerParticipantInWei(... */\n      tag_494\n        /* \"smart-contracts/classroom/main/Canvassing_flattened.sol\":15670:15679  _surveyId */\n      dup6\n        /* \"smart-contracts/classroom/main/Canvassing_flattened.sol\":15697:15710  currentSurvey */\n      dup5\n        /* \"smart-contracts/classroom/main/Canvassing_flattened.sol\":15697:15737  currentSurvey.targetNumberOfParticipants */\n      0x80\n      add\n      mload\n        /* \"smart-contracts/classroom/main/Canvassing_flattened.sol\":15593:15652  getAmountOfEarningForCanvassingForSurveyPerParticipantInWei */\n      tag_125\n        /* \"smart-contracts/classroom/main/Canvassing_flattened.sol\":15593:15751  getAmountOfEarningForCanvassingForSurveyPerParticipantInWei(... */\n      jump\t// in\n    tag_494:\n        /* \"smart-contracts/classroom/main/Canvassing_flattened.sol\":15762:15766  cUSD */\n      sload(0x15)\n      0x00\n        /* \"smart-contracts/classroom/main/Canvassing_flattened.sol\":15789:15812  canvassingWalletAddress */\n      sload\n        /* \"smart-contracts/classroom/main/Canvassing_flattened.sol\":15762:15870  cUSD.transfer(... */\n      mload(0x40)\n      shl(0xe0, 0xa9059cbb)\n      dup2\n      mstore\n      sub(shl(0xa0, 0x01), 0x01)\n        /* \"smart-contracts/classroom/main/Canvassing_flattened.sol\":15789:15812  canvassingWalletAddress */\n      swap2\n      dup3\n      and\n        /* \"smart-contracts/classroom/main/Canvassing_flattened.sol\":15762:15870  cUSD.transfer(... */\n      0x04\n      dup3\n      add\n        /* \"#utility.yul\":23102:23153   */\n      mstore\n        /* \"#utility.yul\":23169:23187   */\n      0x24\n      dup2\n      add\n        /* \"#utility.yul\":23162:23196   */\n      dup5\n      swap1\n      mstore\n        /* \"smart-contracts/classroom/main/Canvassing_flattened.sol\":15548:15751  uint256 amountToBePaidOutToCanvassingInWei = getAmountOfEarningForCanvassingForSurveyPerParticipantInWei(... */\n      swap3\n      swap4\n      pop\n        /* \"smart-contracts/classroom/main/Canvassing_flattened.sol\":15762:15766  cUSD */\n      and\n      swap1\n        /* \"smart-contracts/classroom/main/Canvassing_flattened.sol\":15762:15775  cUSD.transfer */\n      0xa9059cbb\n      swap1\n        /* \"#utility.yul\":23075:23093   */\n      0x44\n      add\n        /* \"smart-contracts/classroom/main/Canvassing_flattened.sol\":15762:15870  cUSD.transfer(... */\n      0x20\n      mload(0x40)\n      dup1\n      dup4\n      sub\n      dup2\n      0x00\n      dup8\n      gas\n      call\n      iszero\n      dup1\n      iszero\n      tag_497\n      jumpi\n      returndatasize\n      0x00\n      dup1\n      returndatacopy\n      revert(0x00, returndatasize)\n    tag_497:\n      pop\n      pop\n      pop\n      pop\n      mload(0x40)\n      returndatasize\n      not(0x1f)\n      0x1f\n      dup3\n      add\n      and\n      dup3\n      add\n      dup1\n      0x40\n      mstore\n      pop\n      dup2\n      add\n      swap1\n      tag_498\n      swap2\n      swap1\n      tag_493\n      jump\t// in\n    tag_498:\n      pop\n        /* \"smart-contracts/classroom/main/Canvassing_flattened.sol\":15932:15968  Earning memory newParticipantEarning */\n      tag_499\n      tag_374\n      jump\t// in\n    tag_499:\n        /* \"smart-contracts/classroom/main/Canvassing_flattened.sol\":16005:16021  currentEarningId */\n      0x13\n      dup1\n      sload\n        /* \"smart-contracts/classroom/main/Canvassing_flattened.sol\":15978:16021  newParticipantEarning.id = currentEarningId */\n      dup3\n      mstore\n        /* \"smart-contracts/classroom/main/Canvassing_flattened.sol\":16031:16061  newParticipantEarning.surveyId */\n      0x20\n      dup3\n      add\n        /* \"smart-contracts/classroom/main/Canvassing_flattened.sol\":16031:16073  newParticipantEarning.surveyId = _surveyId */\n      dup8\n      dup2\n      mstore\n      sub(shl(0xa0, 0x01), 0x01)\n        /* \"smart-contracts/classroom/main/Canvassing_flattened.sol\":16083:16168  newParticipantEarning... */\n      dup8\n      dup2\n      and\n        /* \"smart-contracts/classroom/main/Canvassing_flattened.sol\":16083:16140  newParticipantEarning... */\n      0x40\n      dup6\n      add\n        /* \"smart-contracts/classroom/main/Canvassing_flattened.sol\":16083:16168  newParticipantEarning... */\n      swap1\n      dup2\n      mstore\n        /* \"smart-contracts/classroom/main/Canvassing_flattened.sol\":16178:16231  newParticipantEarning... */\n      0x60\n      dup6\n      add\n        /* \"smart-contracts/classroom/main/Canvassing_flattened.sol\":16178:16269  newParticipantEarning... */\n      dup8\n      dup2\n      mstore\n        /* \"smart-contracts/classroom/main/Canvassing_flattened.sol\":16279:16290  allEarnings */\n      0x0d\n        /* \"smart-contracts/classroom/main/Canvassing_flattened.sol\":16279:16318  allEarnings.push(newParticipantEarning) */\n      dup1\n      sload\n      0x01\n      dup2\n      add\n      dup3\n      sstore\n      0x00\n      swap2\n      dup3\n      mstore\n      dup8\n      mload\n      0xd7b6990105719101dabeb77144f2a3385c8033acd3af97e9423a695e81ad1eb5\n      0x05\n      swap1\n      swap3\n      mul\n      swap2\n      dup3\n      add\n      sstore\n      swap5\n      mload\n      0xd7b6990105719101dabeb77144f2a3385c8033acd3af97e9423a695e81ad1eb6\n      dup7\n      add\n      sstore\n      swap2\n      mload\n      0xd7b6990105719101dabeb77144f2a3385c8033acd3af97e9423a695e81ad1eb7\n      dup6\n      add\n      dup1\n      sload\n      not(sub(shl(0xa0, 0x01), 0x01))\n      and\n      swap2\n      swap1\n      swap5\n      and\n      or\n      swap1\n      swap3\n      sstore\n      swap1\n      mload\n      0xd7b6990105719101dabeb77144f2a3385c8033acd3af97e9423a695e81ad1eb8\n      dup4\n      add\n      sstore\n      0x80\n      dup5\n      add\n      mload\n      0xd7b6990105719101dabeb77144f2a3385c8033acd3af97e9423a695e81ad1eb9\n      swap1\n      swap3\n      add\n      dup1\n      sload\n      not(0xff)\n      and\n      swap3\n      iszero\n      iszero\n      swap3\n      swap1\n      swap3\n      or\n      swap1\n      swap2\n      sstore\n        /* \"smart-contracts/classroom/main/Canvassing_flattened.sol\":16328:16346  currentEarningId++ */\n      dup2\n      sload\n      swap2\n        /* \"smart-contracts/classroom/main/Canvassing_flattened.sol\":16005:16021  currentEarningId */\n      swap1\n        /* \"smart-contracts/classroom/main/Canvassing_flattened.sol\":16328:16346  currentEarningId++ */\n      tag_501\n      dup4\n      tag_281\n      jump\t// in\n    tag_501:\n      swap1\n      swap2\n      sstore\n      pop\n      pop\n        /* \"smart-contracts/classroom/main/Canvassing_flattened.sol\":16356:16401  payoutStatusOfParticipantForSurvey[_surveyId] */\n      0x00\n      dup7\n      dup2\n      mstore\n        /* \"smart-contracts/classroom/main/Canvassing_flattened.sol\":16356:16390  payoutStatusOfParticipantForSurvey */\n      0x07\n        /* \"smart-contracts/classroom/main/Canvassing_flattened.sol\":16356:16401  payoutStatusOfParticipantForSurvey[_surveyId] */\n      0x20\n      swap1\n      dup2\n      mstore\n      0x40\n      dup1\n      dup4\n      keccak256\n      sub(shl(0xa0, 0x01), 0x01)\n        /* \"smart-contracts/classroom/main/Canvassing_flattened.sol\":16356:16450  payoutStatusOfParticipantForSurvey[_surveyId][... */\n      dup10\n      and\n      dup5\n      mstore\n      swap1\n      swap2\n      mstore\n      swap1\n      keccak256\n        /* \"smart-contracts/classroom/main/Canvassing_flattened.sol\":16356:16457  payoutStatusOfParticipantForSurvey[_surveyId][... */\n      dup1\n      sload\n      not(0xff)\n      and\n        /* \"smart-contracts/classroom/main/Canvassing_flattened.sol\":16453:16457  true */\n      0x01\n        /* \"smart-contracts/classroom/main/Canvassing_flattened.sol\":16356:16457  payoutStatusOfParticipantForSurvey[_surveyId][... */\n      or\n      swap1\n      sstore\n        /* \"smart-contracts/classroom/main/Canvassing_flattened.sol\":16531:16566  Earning memory newCanvassingEarning */\n      tag_502\n      tag_374\n      jump\t// in\n    tag_502:\n        /* \"smart-contracts/classroom/main/Canvassing_flattened.sol\":16602:16618  currentEarningId */\n      0x13\n      dup1\n      sload\n        /* \"smart-contracts/classroom/main/Canvassing_flattened.sol\":16576:16618  newCanvassingEarning.id = currentEarningId */\n      dup3\n      mstore\n        /* \"smart-contracts/classroom/main/Canvassing_flattened.sol\":16628:16657  newCanvassingEarning.surveyId */\n      0x20\n      dup3\n      add\n        /* \"smart-contracts/classroom/main/Canvassing_flattened.sol\":16628:16669  newCanvassingEarning.surveyId = _surveyId */\n      dup9\n      dup2\n      mstore\n      0x00\n        /* \"smart-contracts/classroom/main/Canvassing_flattened.sol\":16725:16748  canvassingWalletAddress */\n      dup1\n      sload\n      sub(shl(0xa0, 0x01), 0x01)\n      swap1\n      dup2\n      and\n        /* \"smart-contracts/classroom/main/Canvassing_flattened.sol\":16679:16722  newCanvassingEarning.recipientWalletAddress */\n      0x40\n      dup7\n      add\n        /* \"smart-contracts/classroom/main/Canvassing_flattened.sol\":16679:16748  newCanvassingEarning.recipientWalletAddress = canvassingWalletAddress */\n      swap1\n      dup2\n      mstore\n        /* \"smart-contracts/classroom/main/Canvassing_flattened.sol\":16758:16810  newCanvassingEarning... */\n      0x60\n      dup7\n      add\n        /* \"smart-contracts/classroom/main/Canvassing_flattened.sol\":16758:16847  newCanvassingEarning... */\n      dup9\n      dup2\n      mstore\n        /* \"smart-contracts/classroom/main/Canvassing_flattened.sol\":16857:16868  allEarnings */\n      0x0d\n        /* \"smart-contracts/classroom/main/Canvassing_flattened.sol\":16857:16895  allEarnings.push(newCanvassingEarning) */\n      dup1\n      sload\n        /* \"smart-contracts/classroom/main/Canvassing_flattened.sol\":16725:16748  canvassingWalletAddress */\n      0x01\n        /* \"smart-contracts/classroom/main/Canvassing_flattened.sol\":16857:16895  allEarnings.push(newCanvassingEarning) */\n      dup2\n      add\n      dup3\n      sstore\n      swap1\n      dup6\n      mstore\n      dup8\n      mload\n      0xd7b6990105719101dabeb77144f2a3385c8033acd3af97e9423a695e81ad1eb5\n      0x05\n      swap1\n      swap3\n      mul\n      swap2\n      dup3\n      add\n      sstore\n      swap5\n      mload\n      0xd7b6990105719101dabeb77144f2a3385c8033acd3af97e9423a695e81ad1eb6\n      dup7\n      add\n      sstore\n      swap1\n      mload\n      0xd7b6990105719101dabeb77144f2a3385c8033acd3af97e9423a695e81ad1eb7\n      dup6\n      add\n      dup1\n      sload\n      not(sub(shl(0xa0, 0x01), 0x01))\n      and\n      swap2\n      swap1\n      swap4\n      and\n      or\n      swap1\n      swap2\n      sstore\n      mload\n      0xd7b6990105719101dabeb77144f2a3385c8033acd3af97e9423a695e81ad1eb8\n      dup4\n      add\n      sstore\n      0x80\n      dup5\n      add\n      mload\n      0xd7b6990105719101dabeb77144f2a3385c8033acd3af97e9423a695e81ad1eb9\n      swap1\n      swap3\n      add\n      dup1\n      sload\n      not(0xff)\n      and\n      swap3\n      iszero\n      iszero\n      swap3\n      swap1\n      swap3\n      or\n      swap1\n      swap2\n      sstore\n        /* \"smart-contracts/classroom/main/Canvassing_flattened.sol\":16905:16923  currentEarningId++ */\n      dup2\n      sload\n      swap2\n        /* \"smart-contracts/classroom/main/Canvassing_flattened.sol\":16602:16618  currentEarningId */\n      swap1\n        /* \"smart-contracts/classroom/main/Canvassing_flattened.sol\":16905:16923  currentEarningId++ */\n      tag_504\n      dup4\n      tag_281\n      jump\t// in\n    tag_504:\n      swap2\n      swap1\n      pop\n      sstore\n      pop\n        /* \"smart-contracts/classroom/main/Canvassing_flattened.sol\":15108:16930  {... */\n      pop\n      pop\n      pop\n      pop\n      pop\n        /* \"smart-contracts/classroom/main/Canvassing_flattened.sol\":14989:16930  function makePayoutAndCreateEarning(... */\n      pop\n      pop\n      jump\t// out\n        /* \"smart-contracts/classroom/main/Canvassing_flattened.sol\":4666:4925  function checkIfParticipantExists(address _walletAddress)... */\n    tag_158:\n      sub(shl(0xa0, 0x01), 0x01)\n        /* \"smart-contracts/classroom/main/Canvassing_flattened.sol\":4808:4871  allParticipants[_walletAddress].walletAddress == _walletAddress */\n      dup1\n      dup3\n      and\n        /* \"smart-contracts/classroom/main/Canvassing_flattened.sol\":4769:4773  bool */\n      0x00\n        /* \"smart-contracts/classroom/main/Canvassing_flattened.sol\":4808:4839  allParticipants[_walletAddress] */\n      dup2\n      dup2\n      mstore\n        /* \"smart-contracts/classroom/main/Canvassing_flattened.sol\":4808:4823  allParticipants */\n      0x02\n        /* \"smart-contracts/classroom/main/Canvassing_flattened.sol\":4808:4839  allParticipants[_walletAddress] */\n      0x20\n      mstore\n      0x40\n      dup2\n      keccak256\n        /* \"smart-contracts/classroom/main/Canvassing_flattened.sol\":4808:4853  allParticipants[_walletAddress].walletAddress */\n      0x01\n      add\n      sload\n        /* \"smart-contracts/classroom/main/Canvassing_flattened.sol\":4769:4773  bool */\n      swap1\n      swap3\n        /* \"smart-contracts/classroom/main/Canvassing_flattened.sol\":4808:4853  allParticipants[_walletAddress].walletAddress */\n      and\n        /* \"smart-contracts/classroom/main/Canvassing_flattened.sol\":4808:4871  allParticipants[_walletAddress].walletAddress == _walletAddress */\n      eq\n        /* \"smart-contracts/classroom/main/Canvassing_flattened.sol\":4808:4918  allParticipants[_walletAddress].walletAddress == _walletAddress... */\n      tag_506\n      jumpi\n        /* \"smart-contracts/classroom/main/Canvassing_flattened.sol\":4913:4918  false */\n      0x00\n        /* \"smart-contracts/classroom/main/Canvassing_flattened.sol\":4808:4918  allParticipants[_walletAddress].walletAddress == _walletAddress... */\n      jump(tag_234)\n    tag_506:\n        /* \"smart-contracts/classroom/main/Canvassing_flattened.sol\":4890:4894  true */\n      0x01\n        /* \"smart-contracts/classroom/main/Canvassing_flattened.sol\":4789:4918  return... */\n      swap3\n        /* \"smart-contracts/classroom/main/Canvassing_flattened.sol\":4666:4925  function checkIfParticipantExists(address _walletAddress)... */\n      swap2\n      pop\n      pop\n      jump\t// out\n        /* \"smart-contracts/classroom/main/Canvassing_flattened.sol\":21209:21456  function verifyResearcher(address _walletAddress) public {... */\n    tag_163:\n      sub(shl(0xa0, 0x01), 0x01)\n        /* \"smart-contracts/classroom/main/Canvassing_flattened.sol\":21314:21344  allResearchers[_walletAddress] */\n      dup1\n      dup3\n      and\n        /* \"smart-contracts/classroom/main/Canvassing_flattened.sol\":21276:21311  Researcher memory currentResearcher */\n      0x00\n        /* \"smart-contracts/classroom/main/Canvassing_flattened.sol\":21314:21344  allResearchers[_walletAddress] */\n      swap1\n      dup2\n      mstore\n        /* \"smart-contracts/classroom/main/Canvassing_flattened.sol\":21314:21328  allResearchers */\n      0x01\n        /* \"smart-contracts/classroom/main/Canvassing_flattened.sol\":21314:21344  allResearchers[_walletAddress] */\n      0x20\n      dup2\n      dup2\n      mstore\n      0x40\n      dup1\n      dup5\n      keccak256\n        /* \"smart-contracts/classroom/main/Canvassing_flattened.sol\":21276:21344  Researcher memory currentResearcher = allResearchers[_walletAddress] */\n      dup2\n      mload\n      0xe0\n      dup2\n      add\n      dup4\n      mstore\n      dup2\n      sload\n      dup2\n      mstore\n      swap4\n      dup2\n      add\n      sload\n      swap1\n      swap6\n      and\n      swap2\n      dup4\n      add\n      swap2\n      swap1\n      swap2\n      mstore\n      0x02\n      dup5\n      add\n      dup1\n      sload\n        /* \"smart-contracts/classroom/main/Canvassing_flattened.sol\":21276:21311  Researcher memory currentResearcher */\n      swap4\n      swap5\n        /* \"smart-contracts/classroom/main/Canvassing_flattened.sol\":21276:21344  Researcher memory currentResearcher = allResearchers[_walletAddress] */\n      swap3\n      swap4\n      swap2\n      dup5\n      add\n      swap2\n      tag_509\n      swap1\n      tag_252\n      jump\t// in\n    tag_509:\n      dup1\n      0x1f\n      add\n      0x20\n      dup1\n      swap2\n      div\n      mul\n      0x20\n      add\n      mload(0x40)\n      swap1\n      dup2\n      add\n      0x40\n      mstore\n      dup1\n      swap3\n      swap2\n      swap1\n      dup2\n      dup2\n      mstore\n      0x20\n      add\n      dup3\n      dup1\n      sload\n      tag_510\n      swap1\n      tag_252\n      jump\t// in\n    tag_510:\n      dup1\n      iszero\n      tag_511\n      jumpi\n      dup1\n      0x1f\n      lt\n      tag_512\n      jumpi\n      0x0100\n      dup1\n      dup4\n      sload\n      div\n      mul\n      dup4\n      mstore\n      swap2\n      0x20\n      add\n      swap2\n      jump(tag_511)\n    tag_512:\n      dup3\n      add\n      swap2\n      swap1\n      0x00\n      mstore\n      keccak256(0x00, 0x20)\n      swap1\n    tag_513:\n      dup2\n      sload\n      dup2\n      mstore\n      swap1\n      0x01\n      add\n      swap1\n      0x20\n      add\n      dup1\n      dup4\n      gt\n      tag_513\n      jumpi\n      dup3\n      swap1\n      sub\n      0x1f\n      and\n      dup3\n      add\n      swap2\n    tag_511:\n      pop\n      pop\n      pop\n      swap2\n      dup4\n      mstore\n      pop\n      pop\n      0x03\n      dup3\n      add\n      sload\n      0x20\n      dup1\n      dup4\n      add\n      swap2\n      swap1\n      swap2\n      mstore\n      0x04\n      swap1\n      swap3\n      add\n      sload\n      0xff\n      dup1\n      dup3\n      and\n      iszero\n      iszero\n      0x40\n      dup1\n      dup6\n      add\n      swap2\n      swap1\n      swap2\n      mstore\n      0x0100\n      dup4\n      div\n      dup3\n      and\n      iszero\n      iszero\n      0x60\n      dup6\n      add\n      mstore\n      0x010000\n      swap1\n      swap3\n      div\n      and\n      iszero\n      iszero\n      0x80\n      swap1\n      swap3\n      add\n      swap2\n      swap1\n      swap2\n      mstore\n      0x01\n        /* \"smart-contracts/classroom/main/Canvassing_flattened.sol\":21354:21382  currentResearcher.isVerified */\n      0xa0\n      dup5\n      add\n        /* \"smart-contracts/classroom/main/Canvassing_flattened.sol\":21354:21389  currentResearcher.isVerified = true */\n      dup2\n      swap1\n      mstore\n      sub(shl(0xa0, 0x01), 0x01)\n        /* \"smart-contracts/classroom/main/Canvassing_flattened.sol\":21399:21429  allResearchers[_walletAddress] */\n      dup7\n      dup2\n      and\n      0x00\n      swap1\n      dup2\n      mstore\n      dup3\n      dup6\n      mstore\n      dup4\n      swap1\n      keccak256\n        /* \"smart-contracts/classroom/main/Canvassing_flattened.sol\":21399:21449  allResearchers[_walletAddress] = currentResearcher */\n      dup6\n      mload\n      dup2\n      sstore\n      swap4\n      dup6\n      add\n      mload\n      swap2\n      dup5\n      add\n      dup1\n      sload\n      not(sub(shl(0xa0, 0x01), 0x01))\n      and\n      swap3\n      swap1\n      swap2\n      and\n      swap2\n      swap1\n      swap2\n      or\n      swap1\n      sstore\n      dup3\n      add\n      mload\n        /* \"smart-contracts/classroom/main/Canvassing_flattened.sol\":21354:21382  currentResearcher.isVerified */\n      swap2\n      swap3\n      pop\n      dup3\n      swap2\n        /* \"smart-contracts/classroom/main/Canvassing_flattened.sol\":21276:21344  Researcher memory currentResearcher = allResearchers[_walletAddress] */\n      0x02\n        /* \"smart-contracts/classroom/main/Canvassing_flattened.sol\":21399:21449  allResearchers[_walletAddress] = currentResearcher */\n      dup3\n      add\n      swap1\n      tag_514\n      swap1\n      dup3\n      tag_302\n      jump\t// in\n    tag_514:\n      pop\n      0x60\n      dup3\n      add\n      mload\n      0x03\n      dup3\n      add\n      sstore\n      0x80\n      dup3\n      add\n      mload\n      0x04\n      swap1\n      swap2\n      add\n      dup1\n      sload\n      0xa0\n      dup5\n      add\n      mload\n      0xc0\n      swap1\n      swap5\n      add\n      mload\n      iszero\n      iszero\n      0x010000\n      mul\n      not(0xff0000)\n      swap5\n      iszero\n      iszero\n      0x0100\n      mul\n      not(0xff00)\n      swap5\n      iszero\n      iszero\n      swap5\n      swap1\n      swap5\n      and\n      not(0xffff)\n      swap1\n      swap3\n      and\n      swap2\n      swap1\n      swap2\n      or\n      swap3\n      swap1\n      swap3\n      or\n      swap3\n      swap1\n      swap3\n      and\n      or\n      swap1\n      sstore\n      pop\n      pop\n        /* \"smart-contracts/classroom/main/Canvassing_flattened.sol\":21209:21456  function verifyResearcher(address _walletAddress) public {... */\n      jump\t// out\n        /* \"smart-contracts/classroom/main/Canvassing_flattened.sol\":6150:6247  function getAllSurveys() public view returns (Survey[] memory) {... */\n    tag_165:\n        /* \"smart-contracts/classroom/main/Canvassing_flattened.sol\":6196:6211  Survey[] memory */\n      0x60\n        /* \"smart-contracts/classroom/main/Canvassing_flattened.sol\":6230:6240  allSurveys */\n      0x03\n        /* \"smart-contracts/classroom/main/Canvassing_flattened.sol\":6223:6240  return allSurveys */\n      dup1\n      sload\n      dup1\n      0x20\n      mul\n      0x20\n      add\n      mload(0x40)\n      swap1\n      dup2\n      add\n      0x40\n      mstore\n      dup1\n      swap3\n      swap2\n      swap1\n      dup2\n      dup2\n      mstore\n      0x20\n      add\n      0x00\n      swap1\n    tag_516:\n      dup3\n      dup3\n      lt\n      iszero\n      tag_517\n      jumpi\n      0x00\n      dup5\n      dup2\n      mstore\n      0x20\n      swap1\n      dup2\n      swap1\n      keccak256\n      0x40\n      dup1\n      mload\n      0xe0\n      dup2\n      add\n      dup3\n      mstore\n      0x07\n      dup7\n      mul\n      swap1\n      swap3\n      add\n      dup1\n      sload\n      dup4\n      mstore\n      0x01\n      dup2\n      add\n      sload\n      sub(shl(0xa0, 0x01), 0x01)\n      and\n      swap4\n      dup4\n      add\n      swap4\n      swap1\n      swap4\n      mstore\n      0x02\n      dup4\n      add\n      dup1\n      sload\n      swap3\n      swap4\n      swap3\n      swap2\n      dup5\n      add\n      swap2\n      tag_519\n      swap1\n      tag_252\n      jump\t// in\n    tag_519:\n      dup1\n      0x1f\n      add\n      0x20\n      dup1\n      swap2\n      div\n      mul\n      0x20\n      add\n      mload(0x40)\n      swap1\n      dup2\n      add\n      0x40\n      mstore\n      dup1\n      swap3\n      swap2\n      swap1\n      dup2\n      dup2\n      mstore\n      0x20\n      add\n      dup3\n      dup1\n      sload\n      tag_520\n      swap1\n      tag_252\n      jump\t// in\n    tag_520:\n      dup1\n      iszero\n      tag_521\n      jumpi\n      dup1\n      0x1f\n      lt\n      tag_522\n      jumpi\n      0x0100\n      dup1\n      dup4\n      sload\n      div\n      mul\n      dup4\n      mstore\n      swap2\n      0x20\n      add\n      swap2\n      jump(tag_521)\n    tag_522:\n      dup3\n      add\n      swap2\n      swap1\n      0x00\n      mstore\n      keccak256(0x00, 0x20)\n      swap1\n    tag_523:\n      dup2\n      sload\n      dup2\n      mstore\n      swap1\n      0x01\n      add\n      swap1\n      0x20\n      add\n      dup1\n      dup4\n      gt\n      tag_523\n      jumpi\n      dup3\n      swap1\n      sub\n      0x1f\n      and\n      dup3\n      add\n      swap2\n    tag_521:\n      pop\n      pop\n      pop\n      swap2\n      dup4\n      mstore\n      pop\n      pop\n      0x03\n      dup3\n      add\n      sload\n      0x20\n      dup1\n      dup4\n      add\n      swap2\n      swap1\n      swap2\n      mstore\n      0x04\n      dup4\n      add\n      sload\n      0x40\n      dup4\n      add\n      mstore\n      0x05\n      dup4\n      add\n      sload\n      0x60\n      dup4\n      add\n      mstore\n      0x06\n      swap1\n      swap3\n      add\n      sload\n      0xff\n      and\n      iszero\n      iszero\n      0x80\n      swap1\n      swap2\n      add\n      mstore\n      swap1\n      dup3\n      mstore\n      0x01\n      swap3\n      swap1\n      swap3\n      add\n      swap2\n      add\n      jump(tag_516)\n    tag_517:\n      pop\n      pop\n      pop\n      pop\n      swap1\n      pop\n        /* \"smart-contracts/classroom/main/Canvassing_flattened.sol\":6150:6247  function getAllSurveys() public view returns (Survey[] memory) {... */\n      swap1\n      jump\t// out\n        /* \"smart-contracts/classroom/main/Canvassing_flattened.sol\":4261:4289  Earning[] public allEarnings */\n    tag_173:\n      0x0d\n      dup2\n      dup2\n      sload\n      dup2\n      lt\n      tag_524\n      jumpi\n      0x00\n      dup1\n      revert\n    tag_524:\n      0x00\n      swap2\n      dup3\n      mstore\n      0x20\n      swap1\n      swap2\n      keccak256\n      0x05\n      swap1\n      swap2\n      mul\n      add\n      dup1\n      sload\n      0x01\n      dup3\n      add\n      sload\n      0x02\n      dup4\n      add\n      sload\n      0x03\n      dup5\n      add\n      sload\n      0x04\n      swap1\n      swap5\n      add\n      sload\n      swap3\n      swap5\n      pop\n      swap1\n      swap3\n      sub(shl(0xa0, 0x01), 0x01)\n      swap1\n      swap2\n      and\n      swap2\n      0xff\n      and\n      dup6\n      jump\t// out\n        /* \"smart-contracts/classroom/main/Canvassing_flattened.sol\":4226:4254  Funding[] public allFundings */\n    tag_178:\n      0x0c\n      dup2\n      dup2\n      sload\n      dup2\n      lt\n      tag_524\n      jumpi\n      0x00\n      dup1\n      revert\n        /* \"smart-contracts/classroom/main/Canvassing_flattened.sol\":23864:24042  function getParticipantsOfSurvey(uint256 _surveyId)... */\n    tag_182:\n        /* \"smart-contracts/classroom/main/Canvassing_flattened.sol\":23961:23981  Participant[] memory */\n      0x60\n        /* \"smart-contracts/classroom/main/Canvassing_flattened.sol\":24004:24024  participantsOfSurvey */\n      0x0b\n        /* \"smart-contracts/classroom/main/Canvassing_flattened.sol\":24004:24035  participantsOfSurvey[_surveyId] */\n      0x00\n        /* \"smart-contracts/classroom/main/Canvassing_flattened.sol\":24025:24034  _surveyId */\n      dup4\n        /* \"smart-contracts/classroom/main/Canvassing_flattened.sol\":24004:24035  participantsOfSurvey[_surveyId] */\n      dup2\n      mstore\n      0x20\n      add\n      swap1\n      dup2\n      mstore\n      0x20\n      add\n      0x00\n      keccak256\n        /* \"smart-contracts/classroom/main/Canvassing_flattened.sol\":23997:24035  return participantsOfSurvey[_surveyId] */\n      dup1\n      sload\n      dup1\n      0x20\n      mul\n      0x20\n      add\n      mload(0x40)\n      swap1\n      dup2\n      add\n      0x40\n      mstore\n      dup1\n      swap3\n      swap2\n      swap1\n      dup2\n      dup2\n      mstore\n      0x20\n      add\n      0x00\n      swap1\n    tag_529:\n      dup3\n      dup3\n      lt\n      iszero\n      tag_530\n      jumpi\n      0x00\n      dup5\n      dup2\n      mstore\n      0x20\n      swap1\n      dup2\n      swap1\n      keccak256\n      0x40\n      dup1\n      mload\n      0x0100\n      dup2\n      add\n      dup3\n      mstore\n      0x07\n      dup7\n      mul\n      swap1\n      swap3\n      add\n      dup1\n      sload\n      dup4\n      mstore\n      0x01\n      dup2\n      add\n      sload\n      sub(shl(0xa0, 0x01), 0x01)\n      and\n      swap4\n      dup4\n      add\n      swap4\n      swap1\n      swap4\n      mstore\n      0x02\n      dup4\n      add\n      dup1\n      sload\n      swap3\n      swap4\n      swap3\n      swap2\n      dup5\n      add\n      swap2\n      tag_532\n      swap1\n      tag_252\n      jump\t// in\n    tag_532:\n      dup1\n      0x1f\n      add\n      0x20\n      dup1\n      swap2\n      div\n      mul\n      0x20\n      add\n      mload(0x40)\n      swap1\n      dup2\n      add\n      0x40\n      mstore\n      dup1\n      swap3\n      swap2\n      swap1\n      dup2\n      dup2\n      mstore\n      0x20\n      add\n      dup3\n      dup1\n      sload\n      tag_533\n      swap1\n      tag_252\n      jump\t// in\n    tag_533:\n      dup1\n      iszero\n      tag_534\n      jumpi\n      dup1\n      0x1f\n      lt\n      tag_535\n      jumpi\n      0x0100\n      dup1\n      dup4\n      sload\n      div\n      mul\n      dup4\n      mstore\n      swap2\n      0x20\n      add\n      swap2\n      jump(tag_534)\n    tag_535:\n      dup3\n      add\n      swap2\n      swap1\n      0x00\n      mstore\n      keccak256(0x00, 0x20)\n      swap1\n    tag_536:\n      dup2\n      sload\n      dup2\n      mstore\n      swap1\n      0x01\n      add\n      swap1\n      0x20\n      add\n      dup1\n      dup4\n      gt\n      tag_536\n      jumpi\n      dup3\n      swap1\n      sub\n      0x1f\n      and\n      dup3\n      add\n      swap2\n    tag_534:\n      pop\n      pop\n      pop\n      pop\n      pop\n      dup2\n      mstore\n      0x20\n      add\n      0x03\n      dup3\n      add\n      dup1\n      sload\n      tag_537\n      swap1\n      tag_252\n      jump\t// in\n    tag_537:\n      dup1\n      0x1f\n      add\n      0x20\n      dup1\n      swap2\n      div\n      mul\n      0x20\n      add\n      mload(0x40)\n      swap1\n      dup2\n      add\n      0x40\n      mstore\n      dup1\n      swap3\n      swap2\n      swap1\n      dup2\n      dup2\n      mstore\n      0x20\n      add\n      dup3\n      dup1\n      sload\n      tag_538\n      swap1\n      tag_252\n      jump\t// in\n    tag_538:\n      dup1\n      iszero\n      tag_539\n      jumpi\n      dup1\n      0x1f\n      lt\n      tag_540\n      jumpi\n      0x0100\n      dup1\n      dup4\n      sload\n      div\n      mul\n      dup4\n      mstore\n      swap2\n      0x20\n      add\n      swap2\n      jump(tag_539)\n    tag_540:\n      dup3\n      add\n      swap2\n      swap1\n      0x00\n      mstore\n      keccak256(0x00, 0x20)\n      swap1\n    tag_541:\n      dup2\n      sload\n      dup2\n      mstore\n      swap1\n      0x01\n      add\n      swap1\n      0x20\n      add\n      dup1\n      dup4\n      gt\n      tag_541\n      jumpi\n      dup3\n      swap1\n      sub\n      0x1f\n      and\n      dup3\n      add\n      swap2\n    tag_539:\n      pop\n      pop\n      pop\n      swap2\n      dup4\n      mstore\n      pop\n      pop\n      0x04\n      dup3\n      add\n      sload\n      0x20\n      dup1\n      dup4\n      add\n      swap2\n      swap1\n      swap2\n      mstore\n      0x05\n      dup4\n      add\n      sload\n      0x40\n      dup4\n      add\n      mstore\n      0x06\n      swap1\n      swap3\n      add\n      sload\n      0xff\n      dup1\n      dup3\n      and\n      iszero\n      iszero\n      0x60\n      dup5\n      add\n      mstore\n      0x0100\n      swap1\n      swap2\n      div\n      and\n      iszero\n      iszero\n      0x80\n      swap1\n      swap2\n      add\n      mstore\n      swap1\n      dup3\n      mstore\n      0x01\n      swap3\n      swap1\n      swap3\n      add\n      swap2\n      add\n      jump(tag_529)\n    tag_530:\n      pop\n      pop\n      pop\n      pop\n      swap1\n      pop\n        /* \"smart-contracts/classroom/main/Canvassing_flattened.sol\":23864:24042  function getParticipantsOfSurvey(uint256 _surveyId)... */\n      swap2\n      swap1\n      pop\n      jump\t// out\n        /* \"smart-contracts/classroom/main/Canvassing_flattened.sol\":16936:17193  function checkIfResearcherExists(address _walletAddress)... */\n    tag_187:\n      sub(shl(0xa0, 0x01), 0x01)\n        /* \"smart-contracts/classroom/main/Canvassing_flattened.sol\":17077:17139  allResearchers[_walletAddress].walletAddress == _walletAddress */\n      dup1\n      dup3\n      and\n        /* \"smart-contracts/classroom/main/Canvassing_flattened.sol\":17038:17042  bool */\n      0x00\n        /* \"smart-contracts/classroom/main/Canvassing_flattened.sol\":17077:17107  allResearchers[_walletAddress] */\n      dup2\n      dup2\n      mstore\n        /* \"smart-contracts/classroom/main/Canvassing_flattened.sol\":17077:17091  allResearchers */\n      0x01\n        /* \"smart-contracts/classroom/main/Canvassing_flattened.sol\":17077:17107  allResearchers[_walletAddress] */\n      0x20\n      dup2\n      swap1\n      mstore\n      0x40\n      dup3\n      keccak256\n        /* \"smart-contracts/classroom/main/Canvassing_flattened.sol\":17077:17121  allResearchers[_walletAddress].walletAddress */\n      add\n      sload\n        /* \"smart-contracts/classroom/main/Canvassing_flattened.sol\":17038:17042  bool */\n      swap1\n      swap3\n        /* \"smart-contracts/classroom/main/Canvassing_flattened.sol\":17077:17121  allResearchers[_walletAddress].walletAddress */\n      and\n        /* \"smart-contracts/classroom/main/Canvassing_flattened.sol\":17077:17139  allResearchers[_walletAddress].walletAddress == _walletAddress */\n      eq\n        /* \"smart-contracts/classroom/main/Canvassing_flattened.sol\":17077:17186  allResearchers[_walletAddress].walletAddress == _walletAddress... */\n      tag_506\n      jumpi\n        /* \"smart-contracts/classroom/main/Canvassing_flattened.sol\":17181:17186  false */\n      0x00\n        /* \"smart-contracts/classroom/main/Canvassing_flattened.sol\":17077:17186  allResearchers[_walletAddress].walletAddress == _walletAddress... */\n      jump(tag_234)\n        /* \"smart-contracts/classroom/main/Canvassing_flattened.sol\":20074:21203  function createFunding(... */\n    tag_197:\n        /* \"smart-contracts/classroom/main/Canvassing_flattened.sol\":20270:20306  uint256 amountOfFundingOfSurveyInWei */\n      0x00\n        /* \"smart-contracts/classroom/main/Canvassing_flattened.sol\":20309:20438  getAmountOfFundingOfAnySurveyInWei(... */\n      tag_547\n        /* \"smart-contracts/classroom/main/Canvassing_flattened.sol\":20361:20379  _numberOfQuestions */\n      dup6\n        /* \"smart-contracts/classroom/main/Canvassing_flattened.sol\":20397:20424  _targetNumberOfParticipants */\n      dup6\n        /* \"smart-contracts/classroom/main/Canvassing_flattened.sol\":20309:20343  getAmountOfFundingOfAnySurveyInWei */\n      tag_54\n        /* \"smart-contracts/classroom/main/Canvassing_flattened.sol\":20309:20438  getAmountOfFundingOfAnySurveyInWei(... */\n      jump\t// in\n    tag_547:\n        /* \"smart-contracts/classroom/main/Canvassing_flattened.sol\":20472:20488  currentFundingId */\n      sload(0x14)\n      0x40\n      dup1\n      mload\n      0xa0\n      dup2\n      add\n      dup3\n      mstore\n      0x00\n      0x80\n      dup3\n      add\n      dup2\n      dup2\n      mstore\n        /* \"smart-contracts/classroom/main/Canvassing_flattened.sol\":20535:20563  newFunding.id = newFundingId */\n      dup5\n      dup4\n      mstore\n      0x20\n      dup1\n      dup5\n      add\n        /* \"smart-contracts/classroom/main/Canvassing_flattened.sol\":20573:20604  newFunding.surveyId = _surveyId */\n      dup11\n      dup2\n      mstore\n      sub(shl(0xa0, 0x01), 0x01)\n        /* \"smart-contracts/classroom/main/Canvassing_flattened.sol\":20614:20683  newFunding.creatingResearcherWalletAddress = _researcherWalletAddress */\n      dup11\n      dup2\n      and\n      dup7\n      dup9\n      add\n      dup2\n      dup2\n      mstore\n      0x60\n      dup9\n      add\n        /* \"smart-contracts/classroom/main/Canvassing_flattened.sol\":20693:20752  newFunding.amountFundedInWei = amountOfFundingOfSurveyInWei */\n      dup12\n      dup2\n      mstore\n        /* \"smart-contracts/classroom/main/Canvassing_flattened.sol\":20763:20774  allFundings */\n      0x0c\n        /* \"smart-contracts/classroom/main/Canvassing_flattened.sol\":20763:20791  allFundings.push(newFunding) */\n      dup1\n      sload\n      0x01\n      dup2\n      add\n      dup3\n      sstore\n      swap1\n      dup10\n      mstore\n      dup10\n      mload\n      0xdf6966c971051c3d54ec59162606531493a51404a002842f56009d7e5cf4a8c7\n      0x05\n      swap1\n      swap3\n      mul\n      swap2\n      dup3\n      add\n      sstore\n      swap5\n      mload\n      0xdf6966c971051c3d54ec59162606531493a51404a002842f56009d7e5cf4a8c8\n      dup7\n      add\n      sstore\n      swap1\n      mload\n      0xdf6966c971051c3d54ec59162606531493a51404a002842f56009d7e5cf4a8c9\n      dup6\n      add\n      dup1\n      sload\n      not(sub(shl(0xa0, 0x01), 0x01))\n      and\n      swap2\n      swap1\n      swap5\n      and\n      or\n      swap1\n      swap3\n      sstore\n      swap1\n      mload\n      0xdf6966c971051c3d54ec59162606531493a51404a002842f56009d7e5cf4a8ca\n      dup4\n      add\n      sstore\n      swap3\n      mload\n      0xdf6966c971051c3d54ec59162606531493a51404a002842f56009d7e5cf4a8cb\n      swap1\n      swap2\n      add\n      dup1\n      sload\n      not(0xff)\n      and\n      swap2\n      iszero\n      iszero\n      swap2\n      swap1\n      swap2\n      or\n      swap1\n      sstore\n        /* \"smart-contracts/classroom/main/Canvassing_flattened.sol\":20854:20945  totalAmountFundedByResearchersInWei[... */\n      swap1\n      dup3\n      mstore\n        /* \"smart-contracts/classroom/main/Canvassing_flattened.sol\":20854:20889  totalAmountFundedByResearchersInWei */\n      0x09\n        /* \"smart-contracts/classroom/main/Canvassing_flattened.sol\":20854:20945  totalAmountFundedByResearchersInWei[... */\n      swap1\n      mstore\n      swap2\n      swap1\n      swap2\n      keccak256\n      sload\n        /* \"smart-contracts/classroom/main/Canvassing_flattened.sol\":20693:20752  newFunding.amountFundedInWei = amountOfFundingOfSurveyInWei */\n      swap3\n      swap4\n      pop\n        /* \"smart-contracts/classroom/main/Canvassing_flattened.sol\":20472:20488  currentFundingId */\n      swap1\n      swap2\n        /* \"smart-contracts/classroom/main/Canvassing_flattened.sol\":21042:21115  currentTotalAmountFundedByResearcherInWei += amountOfFundingOfSurveyInWei */\n      tag_551\n        /* \"smart-contracts/classroom/main/Canvassing_flattened.sol\":20693:20752  newFunding.amountFundedInWei = amountOfFundingOfSurveyInWei */\n      dup5\n        /* \"smart-contracts/classroom/main/Canvassing_flattened.sol\":20854:20945  totalAmountFundedByResearchersInWei[... */\n      dup3\n        /* \"smart-contracts/classroom/main/Canvassing_flattened.sol\":21042:21115  currentTotalAmountFundedByResearcherInWei += amountOfFundingOfSurveyInWei */\n      tag_238\n      jump\t// in\n    tag_551:\n      sub(shl(0xa0, 0x01), 0x01)\n        /* \"smart-contracts/classroom/main/Canvassing_flattened.sol\":20956:21039  totalAmountFundedByResearchersInWei[... */\n      dup7\n      and\n      0x00\n      swap1\n      dup2\n      mstore\n        /* \"smart-contracts/classroom/main/Canvassing_flattened.sol\":20956:20991  totalAmountFundedByResearchersInWei */\n      0x09\n        /* \"smart-contracts/classroom/main/Canvassing_flattened.sol\":20956:21039  totalAmountFundedByResearchersInWei[... */\n      0x20\n      mstore\n      0x40\n      dup2\n      keccak256\n        /* \"smart-contracts/classroom/main/Canvassing_flattened.sol\":20956:21115  totalAmountFundedByResearchersInWei[... */\n      dup3\n      swap1\n      sstore\n        /* \"smart-contracts/classroom/main/Canvassing_flattened.sol\":21178:21194  currentFundingId */\n      0x14\n        /* \"smart-contracts/classroom/main/Canvassing_flattened.sol\":21178:21196  currentFundingId++ */\n      dup1\n      sload\n        /* \"smart-contracts/classroom/main/Canvassing_flattened.sol\":21042:21115  currentTotalAmountFundedByResearcherInWei += amountOfFundingOfSurveyInWei */\n      swap3\n      swap4\n      pop\n        /* \"smart-contracts/classroom/main/Canvassing_flattened.sol\":21178:21194  currentFundingId */\n      swap1\n        /* \"smart-contracts/classroom/main/Canvassing_flattened.sol\":21178:21196  currentFundingId++ */\n      tag_552\n      dup4\n      tag_281\n      jump\t// in\n    tag_552:\n      swap2\n      swap1\n      pop\n      sstore\n      pop\n        /* \"smart-contracts/classroom/main/Canvassing_flattened.sol\":20260:21203  {... */\n      pop\n      pop\n      pop\n      pop\n        /* \"smart-contracts/classroom/main/Canvassing_flattened.sol\":20074:21203  function createFunding(... */\n      pop\n      pop\n      pop\n      pop\n      jump\t// out\n        /* \"smart-contracts/classroom/main/Canvassing_flattened.sol\":6253:6404  function getSurveyById(uint256 _surveyId)... */\n    tag_204:\n        /* \"smart-contracts/classroom/main/Canvassing_flattened.sol\":6340:6353  Survey memory */\n      tag_553\n      tag_264\n      jump\t// in\n    tag_553:\n        /* \"smart-contracts/classroom/main/Canvassing_flattened.sol\":6376:6386  allSurveys */\n      0x03\n        /* \"smart-contracts/classroom/main/Canvassing_flattened.sol\":6387:6396  _surveyId */\n      dup3\n        /* \"smart-contracts/classroom/main/Canvassing_flattened.sol\":6376:6397  allSurveys[_surveyId] */\n      dup2\n      sload\n      dup2\n      lt\n      tag_556\n      jumpi\n      tag_556\n      tag_270\n      jump\t// in\n    tag_556:\n      swap1\n      0x00\n      mstore\n      keccak256(0x00, 0x20)\n      swap1\n      0x07\n      mul\n      add\n        /* \"smart-contracts/classroom/main/Canvassing_flattened.sol\":6369:6397  return allSurveys[_surveyId] */\n      mload(0x40)\n      dup1\n      0xe0\n      add\n      0x40\n      mstore\n      swap1\n      dup2\n      0x00\n      dup3\n      add\n      sload\n      dup2\n      mstore\n      0x20\n      add\n      0x01\n      dup3\n      add\n      0x00\n      swap1\n      sload\n      swap1\n      0x0100\n      exp\n      swap1\n      div\n      sub(shl(0xa0, 0x01), 0x01)\n      and\n      sub(shl(0xa0, 0x01), 0x01)\n      and\n      sub(shl(0xa0, 0x01), 0x01)\n      and\n      dup2\n      mstore\n      0x20\n      add\n      0x02\n      dup3\n      add\n      dup1\n      sload\n      tag_558\n      swap1\n      tag_252\n      jump\t// in\n    tag_558:\n      dup1\n      0x1f\n      add\n      0x20\n      dup1\n      swap2\n      div\n      mul\n      0x20\n      add\n      mload(0x40)\n      swap1\n      dup2\n      add\n      0x40\n      mstore\n      dup1\n      swap3\n      swap2\n      swap1\n      dup2\n      dup2\n      mstore\n      0x20\n      add\n      dup3\n      dup1\n      sload\n      tag_559\n      swap1\n      tag_252\n      jump\t// in\n    tag_559:\n      dup1\n      iszero\n      tag_560\n      jumpi\n      dup1\n      0x1f\n      lt\n      tag_561\n      jumpi\n      0x0100\n      dup1\n      dup4\n      sload\n      div\n      mul\n      dup4\n      mstore\n      swap2\n      0x20\n      add\n      swap2\n      jump(tag_560)\n    tag_561:\n      dup3\n      add\n      swap2\n      swap1\n      0x00\n      mstore\n      keccak256(0x00, 0x20)\n      swap1\n    tag_562:\n      dup2\n      sload\n      dup2\n      mstore\n      swap1\n      0x01\n      add\n      swap1\n      0x20\n      add\n      dup1\n      dup4\n      gt\n      tag_562\n      jumpi\n      dup3\n      swap1\n      sub\n      0x1f\n      and\n      dup3\n      add\n      swap2\n    tag_560:\n      pop\n      pop\n      pop\n      swap2\n      dup4\n      mstore\n      pop\n      pop\n      0x03\n      dup3\n      add\n      sload\n      0x20\n      dup3\n      add\n      mstore\n      0x04\n      dup3\n      add\n      sload\n      0x40\n      dup3\n      add\n      mstore\n      0x05\n      dup3\n      add\n      sload\n      0x60\n      dup3\n      add\n      mstore\n      0x06\n      swap1\n      swap2\n      add\n      sload\n      0xff\n      and\n      iszero\n      iszero\n      0x80\n      swap1\n      swap2\n      add\n      mstore\n      swap3\n        /* \"smart-contracts/classroom/main/Canvassing_flattened.sol\":6253:6404  function getSurveyById(uint256 _surveyId)... */\n      swap2\n      pop\n      pop\n      jump\t// out\n        /* \"smart-contracts/classroom/main/Canvassing_flattened.sol\":13311:14983  function participateInSurvey(... */\n    tag_210:\n      sub(shl(0xa0, 0x01), 0x01)\n        /* \"smart-contracts/classroom/main/Canvassing_flattened.sol\":13510:13574  allParticipants[... */\n      dup1\n      dup4\n      and\n        /* \"smart-contracts/classroom/main/Canvassing_flattened.sol\":13470:13507  Participant memory currentParticipant */\n      0x00\n        /* \"smart-contracts/classroom/main/Canvassing_flattened.sol\":13510:13574  allParticipants[... */\n      swap1\n      dup2\n      mstore\n        /* \"smart-contracts/classroom/main/Canvassing_flattened.sol\":13510:13525  allParticipants */\n      0x02\n        /* \"smart-contracts/classroom/main/Canvassing_flattened.sol\":13510:13574  allParticipants[... */\n      0x20\n      dup2\n      dup2\n      mstore\n      0x40\n      dup1\n      dup5\n      keccak256\n        /* \"smart-contracts/classroom/main/Canvassing_flattened.sol\":13470:13574  Participant memory currentParticipant = allParticipants[... */\n      dup2\n      mload\n      0x0100\n      dup2\n      add\n      dup4\n      mstore\n      dup2\n      sload\n      dup2\n      mstore\n      0x01\n      dup3\n      add\n      sload\n      swap1\n      swap7\n      and\n      swap3\n      dup7\n      add\n      swap3\n      swap1\n      swap3\n      mstore\n      swap2\n      dup2\n      add\n      dup1\n      sload\n        /* \"smart-contracts/classroom/main/Canvassing_flattened.sol\":13470:13507  Participant memory currentParticipant */\n      swap4\n      swap5\n        /* \"smart-contracts/classroom/main/Canvassing_flattened.sol\":13470:13574  Participant memory currentParticipant = allParticipants[... */\n      swap4\n        /* \"smart-contracts/classroom/main/Canvassing_flattened.sol\":13510:13574  allParticipants[... */\n      swap2\n      swap3\n        /* \"smart-contracts/classroom/main/Canvassing_flattened.sol\":13470:13574  Participant memory currentParticipant = allParticipants[... */\n      dup5\n      add\n      swap2\n      tag_564\n      swap1\n      tag_252\n      jump\t// in\n    tag_564:\n      dup1\n      0x1f\n      add\n      0x20\n      dup1\n      swap2\n      div\n      mul\n      0x20\n      add\n      mload(0x40)\n      swap1\n      dup2\n      add\n      0x40\n      mstore\n      dup1\n      swap3\n      swap2\n      swap1\n      dup2\n      dup2\n      mstore\n      0x20\n      add\n      dup3\n      dup1\n      sload\n      tag_565\n      swap1\n      tag_252\n      jump\t// in\n    tag_565:\n      dup1\n      iszero\n      tag_566\n      jumpi\n      dup1\n      0x1f\n      lt\n      tag_567\n      jumpi\n      0x0100\n      dup1\n      dup4\n      sload\n      div\n      mul\n      dup4\n      mstore\n      swap2\n      0x20\n      add\n      swap2\n      jump(tag_566)\n    tag_567:\n      dup3\n      add\n      swap2\n      swap1\n      0x00\n      mstore\n      keccak256(0x00, 0x20)\n      swap1\n    tag_568:\n      dup2\n      sload\n      dup2\n      mstore\n      swap1\n      0x01\n      add\n      swap1\n      0x20\n      add\n      dup1\n      dup4\n      gt\n      tag_568\n      jumpi\n      dup3\n      swap1\n      sub\n      0x1f\n      and\n      dup3\n      add\n      swap2\n    tag_566:\n      pop\n      pop\n      pop\n      pop\n      pop\n      dup2\n      mstore\n      0x20\n      add\n      0x03\n      dup3\n      add\n      dup1\n      sload\n      tag_569\n      swap1\n      tag_252\n      jump\t// in\n    tag_569:\n      dup1\n      0x1f\n      add\n      0x20\n      dup1\n      swap2\n      div\n      mul\n      0x20\n      add\n      mload(0x40)\n      swap1\n      dup2\n      add\n      0x40\n      mstore\n      dup1\n      swap3\n      swap2\n      swap1\n      dup2\n      dup2\n      mstore\n      0x20\n      add\n      dup3\n      dup1\n      sload\n      tag_570\n      swap1\n      tag_252\n      jump\t// in\n    tag_570:\n      dup1\n      iszero\n      tag_571\n      jumpi\n      dup1\n      0x1f\n      lt\n      tag_572\n      jumpi\n      0x0100\n      dup1\n      dup4\n      sload\n      div\n      mul\n      dup4\n      mstore\n      swap2\n      0x20\n      add\n      swap2\n      jump(tag_571)\n    tag_572:\n      dup3\n      add\n      swap2\n      swap1\n      0x00\n      mstore\n      keccak256(0x00, 0x20)\n      swap1\n    tag_573:\n      dup2\n      sload\n      dup2\n      mstore\n      swap1\n      0x01\n      add\n      swap1\n      0x20\n      add\n      dup1\n      dup4\n      gt\n      tag_573\n      jumpi\n      dup3\n      swap1\n      sub\n      0x1f\n      and\n      dup3\n      add\n      swap2\n    tag_571:\n      pop\n      pop\n      pop\n      swap2\n      dup4\n      mstore\n      pop\n      pop\n      0x04\n      dup3\n      add\n      sload\n      0x20\n      dup3\n      add\n      mstore\n      0x05\n      dup3\n      add\n      sload\n      0x40\n      dup3\n      add\n      mstore\n      0x06\n      swap1\n      swap2\n      add\n      sload\n      0xff\n      dup1\n      dup3\n      and\n      iszero\n      iszero\n      0x60\n      dup5\n      add\n      mstore\n      0x0100\n      swap1\n      swap2\n      div\n      and\n      iszero\n      iszero\n      0x80\n      swap1\n      swap2\n      add\n      mstore\n        /* \"smart-contracts/classroom/main/Canvassing_flattened.sol\":13615:13625  allSurveys */\n      0x03\n        /* \"smart-contracts/classroom/main/Canvassing_flattened.sol\":13615:13636  allSurveys[_surveyId] */\n      dup1\n      sload\n        /* \"smart-contracts/classroom/main/Canvassing_flattened.sol\":13470:13574  Participant memory currentParticipant = allParticipants[... */\n      swap2\n      swap3\n      pop\n      0x00\n      swap2\n        /* \"smart-contracts/classroom/main/Canvassing_flattened.sol\":13626:13635  _surveyId */\n      dup7\n      swap1\n        /* \"smart-contracts/classroom/main/Canvassing_flattened.sol\":13615:13636  allSurveys[_surveyId] */\n      dup2\n      lt\n      tag_575\n      jumpi\n      tag_575\n      tag_270\n      jump\t// in\n    tag_575:\n      swap1\n      0x00\n      mstore\n      keccak256(0x00, 0x20)\n      swap1\n      0x07\n      mul\n      add\n        /* \"smart-contracts/classroom/main/Canvassing_flattened.sol\":13585:13636  Survey memory currentSurvey = allSurveys[_surveyId] */\n      mload(0x40)\n      dup1\n      0xe0\n      add\n      0x40\n      mstore\n      swap1\n      dup2\n      0x00\n      dup3\n      add\n      sload\n      dup2\n      mstore\n      0x20\n      add\n      0x01\n      dup3\n      add\n      0x00\n      swap1\n      sload\n      swap1\n      0x0100\n      exp\n      swap1\n      div\n      sub(shl(0xa0, 0x01), 0x01)\n      and\n      sub(shl(0xa0, 0x01), 0x01)\n      and\n      sub(shl(0xa0, 0x01), 0x01)\n      and\n      dup2\n      mstore\n      0x20\n      add\n      0x02\n      dup3\n      add\n      dup1\n      sload\n      tag_577\n      swap1\n      tag_252\n      jump\t// in\n    tag_577:\n      dup1\n      0x1f\n      add\n      0x20\n      dup1\n      swap2\n      div\n      mul\n      0x20\n      add\n      mload(0x40)\n      swap1\n      dup2\n      add\n      0x40\n      mstore\n      dup1\n      swap3\n      swap2\n      swap1\n      dup2\n      dup2\n      mstore\n      0x20\n      add\n      dup3\n      dup1\n      sload\n      tag_578\n      swap1\n      tag_252\n      jump\t// in\n    tag_578:\n      dup1\n      iszero\n      tag_579\n      jumpi\n      dup1\n      0x1f\n      lt\n      tag_580\n      jumpi\n      0x0100\n      dup1\n      dup4\n      sload\n      div\n      mul\n      dup4\n      mstore\n      swap2\n      0x20\n      add\n      swap2\n      jump(tag_579)\n    tag_580:\n      dup3\n      add\n      swap2\n      swap1\n      0x00\n      mstore\n      keccak256(0x00, 0x20)\n      swap1\n    tag_581:\n      dup2\n      sload\n      dup2\n      mstore\n      swap1\n      0x01\n      add\n      swap1\n      0x20\n      add\n      dup1\n      dup4\n      gt\n      tag_581\n      jumpi\n      dup3\n      swap1\n      sub\n      0x1f\n      and\n      dup3\n      add\n      swap2\n    tag_579:\n      pop\n      pop\n      pop\n      swap2\n      dup4\n      mstore\n      pop\n      pop\n      0x03\n      dup3\n      add\n      sload\n      0x20\n      dup3\n      add\n      mstore\n      0x04\n      dup3\n      add\n      sload\n      0x40\n      dup3\n      add\n      mstore\n      0x05\n      dup3\n      add\n      sload\n      0x60\n      dup1\n      dup4\n      add\n      swap2\n      swap1\n      swap2\n      mstore\n      0x06\n      swap1\n      swap3\n      add\n      sload\n      0xff\n      and\n      iszero\n      iszero\n      0x80\n      swap1\n      swap2\n      add\n      mstore\n        /* \"smart-contracts/classroom/main/Canvassing_flattened.sol\":13681:13712  currentSurvey.numberOfQuestions */\n      dup2\n      add\n      mload\n        /* \"smart-contracts/classroom/main/Canvassing_flattened.sol\":13585:13636  Survey memory currentSurvey = allSurveys[_surveyId] */\n      swap1\n      swap2\n      pop\n      0x00\n        /* \"smart-contracts/classroom/main/Canvassing_flattened.sol\":13779:14341  for (... */\n    tag_582:\n        /* \"smart-contracts/classroom/main/Canvassing_flattened.sol\":13842:13865  numberOfExpectedAnswers */\n      dup2\n        /* \"smart-contracts/classroom/main/Canvassing_flattened.sol\":13831:13839  answerId */\n      dup2\n        /* \"smart-contracts/classroom/main/Canvassing_flattened.sol\":13831:13865  answerId < numberOfExpectedAnswers */\n      lt\n        /* \"smart-contracts/classroom/main/Canvassing_flattened.sol\":13779:14341  for (... */\n      iszero\n      tag_583\n      jumpi\n        /* \"smart-contracts/classroom/main/Canvassing_flattened.sol\":13914:13937  Answer memory newAnswer */\n      tag_585\n      tag_343\n      jump\t// in\n    tag_585:\n        /* \"smart-contracts/classroom/main/Canvassing_flattened.sol\":13973:13988  currentAnswerId */\n      sload(0x12)\n        /* \"smart-contracts/classroom/main/Canvassing_flattened.sol\":14002:14028  newAnswer.id = newAnswerId */\n      dup1\n      dup3\n      mstore\n        /* \"smart-contracts/classroom/main/Canvassing_flattened.sol\":14042:14062  newAnswer.questionId */\n      0x20\n      dup3\n      add\n        /* \"smart-contracts/classroom/main/Canvassing_flattened.sol\":14042:14073  newAnswer.questionId = answerId */\n      dup4\n      swap1\n      mstore\n        /* \"smart-contracts/classroom/main/Canvassing_flattened.sol\":14087:14105  newAnswer.surveyId */\n      0x40\n      dup3\n      add\n        /* \"smart-contracts/classroom/main/Canvassing_flattened.sol\":14087:14117  newAnswer.surveyId = _surveyId */\n      dup10\n      swap1\n      mstore\n      sub(shl(0xa0, 0x01), 0x01)\n        /* \"smart-contracts/classroom/main/Canvassing_flattened.sol\":14131:14193  newAnswer.participantWalletAddress = _participantWalletAddress */\n      dup9\n      and\n        /* \"smart-contracts/classroom/main/Canvassing_flattened.sol\":14131:14165  newAnswer.participantWalletAddress */\n      0x60\n      dup4\n      add\n        /* \"smart-contracts/classroom/main/Canvassing_flattened.sol\":14131:14193  newAnswer.participantWalletAddress = _participantWalletAddress */\n      mstore\n        /* \"smart-contracts/classroom/main/Canvassing_flattened.sol\":14225:14248  _answerValues[answerId] */\n      dup7\n      mload\n        /* \"smart-contracts/classroom/main/Canvassing_flattened.sol\":14225:14238  _answerValues */\n      dup8\n      swap1\n        /* \"smart-contracts/classroom/main/Canvassing_flattened.sol\":14065:14073  answerId */\n      dup5\n      swap1\n        /* \"smart-contracts/classroom/main/Canvassing_flattened.sol\":14225:14248  _answerValues[answerId] */\n      dup2\n      lt\n      tag_587\n      jumpi\n      tag_587\n      tag_270\n      jump\t// in\n    tag_587:\n      0x20\n      swap1\n      dup2\n      mul\n      swap2\n      swap1\n      swap2\n      add\n      dup2\n      add\n      mload\n        /* \"smart-contracts/classroom/main/Canvassing_flattened.sol\":14207:14248  newAnswer.value = _answerValues[answerId] */\n      iszero\n      iszero\n        /* \"smart-contracts/classroom/main/Canvassing_flattened.sol\":14207:14222  newAnswer.value */\n      0x80\n      dup5\n      add\n        /* \"smart-contracts/classroom/main/Canvassing_flattened.sol\":14207:14248  newAnswer.value = _answerValues[answerId] */\n      swap1\n      dup2\n      mstore\n        /* \"smart-contracts/classroom/main/Canvassing_flattened.sol\":14262:14283  allAnswers[_surveyId] */\n      0x00\n      dup12\n      dup2\n      mstore\n        /* \"smart-contracts/classroom/main/Canvassing_flattened.sol\":14262:14272  allAnswers */\n      0x05\n        /* \"smart-contracts/classroom/main/Canvassing_flattened.sol\":14262:14283  allAnswers[_surveyId] */\n      dup4\n      mstore\n      0x40\n      dup1\n      dup3\n      keccak256\n        /* \"smart-contracts/classroom/main/Canvassing_flattened.sol\":14262:14299  allAnswers[_surveyId].push(newAnswer) */\n      dup1\n      sload\n      0x01\n      dup2\n      dup2\n      add\n      dup4\n      sstore\n      swap2\n      dup5\n      mstore\n      dup6\n      dup5\n      keccak256\n      dup9\n      mload\n      0x04\n      swap1\n      swap3\n      mul\n      add\n      swap1\n      dup2\n      sstore\n      swap5\n      dup8\n      add\n      mload\n      swap1\n      dup6\n      add\n      sstore\n      dup6\n      add\n      mload\n      0x02\n      dup5\n      add\n      sstore\n      0x60\n      dup6\n      add\n      mload\n      0x03\n      swap1\n      swap4\n      add\n      dup1\n      sload\n      swap3\n      mload\n      0xa0\n      dup8\n      add\n      mload\n      iszero\n      iszero\n      shl(0xa8, 0x01)\n      mul\n      not(shl(0xa8, 0xff))\n      swap2\n      iszero\n      iszero\n      shl(0xa0, 0x01)\n      mul\n      not(sub(shl(0xa8, 0x01), 0x01))\n      swap1\n      swap6\n      and\n      sub(shl(0xa0, 0x01), 0x01)\n      swap1\n      swap7\n      and\n      swap6\n      swap1\n      swap6\n      or\n      swap4\n      swap1\n      swap4\n      or\n      swap3\n      swap1\n      swap3\n      and\n      swap3\n      swap1\n      swap3\n      or\n      swap1\n      sstore\n        /* \"smart-contracts/classroom/main/Canvassing_flattened.sol\":14313:14328  currentAnswerId */\n      0x12\n        /* \"smart-contracts/classroom/main/Canvassing_flattened.sol\":14313:14330  currentAnswerId++ */\n      dup1\n      sload\n      swap2\n      tag_589\n      dup4\n      tag_281\n      jump\t// in\n    tag_589:\n      swap2\n      swap1\n      pop\n      sstore\n      pop\n        /* \"smart-contracts/classroom/main/Canvassing_flattened.sol\":13900:14341  {... */\n      pop\n      pop\n        /* \"smart-contracts/classroom/main/Canvassing_flattened.sol\":13879:13889  answerId++ */\n      dup1\n      dup1\n      tag_590\n      swap1\n      tag_281\n      jump\t// in\n    tag_590:\n      swap2\n      pop\n      pop\n        /* \"smart-contracts/classroom/main/Canvassing_flattened.sol\":13779:14341  for (... */\n      jump(tag_582)\n    tag_583:\n      pop\n        /* \"smart-contracts/classroom/main/Canvassing_flattened.sol\":14424:14463  participationStatusForSurvey[_surveyId] */\n      0x00\n      dup7\n      dup2\n      mstore\n        /* \"smart-contracts/classroom/main/Canvassing_flattened.sol\":14424:14452  participationStatusForSurvey */\n      0x06\n        /* \"smart-contracts/classroom/main/Canvassing_flattened.sol\":14424:14463  participationStatusForSurvey[_surveyId] */\n      0x20\n      swap1\n      dup2\n      mstore\n      0x40\n      dup1\n      dup4\n      keccak256\n      sub(shl(0xa0, 0x01), 0x01)\n        /* \"smart-contracts/classroom/main/Canvassing_flattened.sol\":14424:14512  participationStatusForSurvey[_surveyId][... */\n      dup10\n      and\n      dup5\n      mstore\n      dup3\n      mstore\n      dup1\n      dup4\n      keccak256\n        /* \"smart-contracts/classroom/main/Canvassing_flattened.sol\":14424:14519  participationStatusForSurvey[_surveyId][... */\n      dup1\n      sload\n      not(0xff)\n      and\n        /* \"smart-contracts/classroom/main/Canvassing_flattened.sol\":14515:14519  true */\n      0x01\n        /* \"smart-contracts/classroom/main/Canvassing_flattened.sol\":14424:14519  participationStatusForSurvey[_surveyId][... */\n      or\n      swap1\n      sstore\n        /* \"smart-contracts/classroom/main/Canvassing_flattened.sol\":14602:14633  participantsOfSurvey[_surveyId] */\n      dup9\n      dup4\n      mstore\n        /* \"smart-contracts/classroom/main/Canvassing_flattened.sol\":14602:14622  participantsOfSurvey */\n      0x0b\n        /* \"smart-contracts/classroom/main/Canvassing_flattened.sol\":14602:14633  participantsOfSurvey[_surveyId] */\n      swap1\n      swap2\n      mstore\n      swap1\n      keccak256\n        /* \"smart-contracts/classroom/main/Canvassing_flattened.sol\":14652:14708  getParticipantByWalletAddress(_participantWalletAddress) */\n      tag_591\n        /* \"smart-contracts/classroom/main/Canvassing_flattened.sol\":14477:14502  _participantWalletAddress */\n      dup7\n        /* \"smart-contracts/classroom/main/Canvassing_flattened.sol\":14652:14681  getParticipantByWalletAddress */\n      tag_95\n        /* \"smart-contracts/classroom/main/Canvassing_flattened.sol\":14652:14708  getParticipantByWalletAddress(_participantWalletAddress) */\n      jump\t// in\n    tag_591:\n        /* \"smart-contracts/classroom/main/Canvassing_flattened.sol\":14602:14718  participantsOfSurvey[_surveyId].push(... */\n      dup2\n      sload\n      0x01\n      dup1\n      dup3\n      add\n      dup5\n      sstore\n      0x00\n      swap4\n      dup5\n      mstore\n      0x20\n      swap4\n      dup5\n      swap1\n      keccak256\n      dup4\n      mload\n      0x07\n      swap1\n      swap4\n      mul\n      add\n      swap2\n      dup3\n      sstore\n      swap3\n      dup3\n      add\n      mload\n      swap3\n      dup2\n      add\n      dup1\n      sload\n      not(sub(shl(0xa0, 0x01), 0x01))\n      and\n      sub(shl(0xa0, 0x01), 0x01)\n      swap1\n      swap5\n      and\n      swap4\n      swap1\n      swap4\n      or\n      swap1\n      swap3\n      sstore\n      0x40\n      dup2\n      add\n      mload\n      swap1\n      swap2\n      swap1\n      0x02\n      dup3\n      add\n      swap1\n      tag_593\n      swap1\n      dup3\n      tag_302\n      jump\t// in\n    tag_593:\n      pop\n      0x60\n      dup3\n      add\n      mload\n      0x03\n      dup3\n      add\n      swap1\n      tag_594\n      swap1\n      dup3\n      tag_302\n      jump\t// in\n    tag_594:\n      pop\n      0x80\n      dup3\n      add\n      mload\n      0x04\n      dup3\n      add\n      sstore\n      0xa0\n      dup1\n      dup4\n      add\n      mload\n      0x05\n      dup4\n      add\n      sstore\n      0xc0\n      dup4\n      add\n      mload\n      0x06\n      swap1\n      swap3\n      add\n      dup1\n      sload\n      0xe0\n      swap1\n      swap5\n      add\n      mload\n      iszero\n      iszero\n      0x0100\n      mul\n      not(0xff00)\n      swap4\n      iszero\n      iszero\n      swap4\n      swap1\n      swap4\n      and\n      not(0xffff)\n      swap1\n      swap5\n      and\n      swap4\n      swap1\n      swap4\n      or\n      swap2\n      swap1\n      swap2\n      or\n      swap1\n      swap2\n      sstore\n        /* \"smart-contracts/classroom/main/Canvassing_flattened.sol\":14816:14860  currentParticipant.totalNumberOfSurveysTaken */\n      dup4\n      add\n        /* \"smart-contracts/classroom/main/Canvassing_flattened.sol\":14816:14865  currentParticipant.totalNumberOfSurveysTaken += 1 */\n      dup1\n      mload\n        /* \"smart-contracts/classroom/main/Canvassing_flattened.sol\":14602:14718  participantsOfSurvey[_surveyId].push(... */\n      0x01\n      swap2\n        /* \"smart-contracts/classroom/main/Canvassing_flattened.sol\":14816:14860  currentParticipant.totalNumberOfSurveysTaken */\n      swap1\n        /* \"smart-contracts/classroom/main/Canvassing_flattened.sol\":14816:14865  currentParticipant.totalNumberOfSurveysTaken += 1 */\n      tag_595\n      swap1\n        /* \"smart-contracts/classroom/main/Canvassing_flattened.sol\":14602:14718  participantsOfSurvey[_surveyId].push(... */\n      dup4\n      swap1\n        /* \"smart-contracts/classroom/main/Canvassing_flattened.sol\":14816:14865  currentParticipant.totalNumberOfSurveysTaken += 1 */\n      tag_238\n      jump\t// in\n    tag_595:\n      swap1\n      mstore\n      pop\n      sub(shl(0xa0, 0x01), 0x01)\n        /* \"smart-contracts/classroom/main/Canvassing_flattened.sol\":14913:14955  allParticipants[_participantWalletAddress] */\n      dup6\n      dup2\n      and\n      0x00\n      swap1\n      dup2\n      mstore\n        /* \"smart-contracts/classroom/main/Canvassing_flattened.sol\":14913:14928  allParticipants */\n      0x02\n        /* \"smart-contracts/classroom/main/Canvassing_flattened.sol\":14913:14955  allParticipants[_participantWalletAddress] */\n      0x20\n      dup2\n      dup2\n      mstore\n      0x40\n      swap3\n      dup4\n      swap1\n      keccak256\n        /* \"smart-contracts/classroom/main/Canvassing_flattened.sol\":14913:14976  allParticipants[_participantWalletAddress] = currentParticipant */\n      dup8\n      mload\n      dup2\n      sstore\n      swap1\n      dup8\n      add\n      mload\n      0x01\n      dup3\n      add\n      dup1\n      sload\n      not(sub(shl(0xa0, 0x01), 0x01))\n      and\n      swap2\n      swap1\n      swap6\n      and\n      or\n      swap1\n      swap4\n      sstore\n      swap1\n      dup6\n      add\n      mload\n      dup6\n      swap3\n        /* \"smart-contracts/classroom/main/Canvassing_flattened.sol\":14913:14955  allParticipants[_participantWalletAddress] */\n      swap2\n        /* \"smart-contracts/classroom/main/Canvassing_flattened.sol\":14913:14976  allParticipants[_participantWalletAddress] = currentParticipant */\n      dup3\n      add\n      swap1\n      tag_596\n      swap1\n      dup3\n      tag_302\n      jump\t// in\n    tag_596:\n      pop\n      0x60\n      dup3\n      add\n      mload\n      0x03\n      dup3\n      add\n      swap1\n      tag_597\n      swap1\n      dup3\n      tag_302\n      jump\t// in\n    tag_597:\n      pop\n      0x80\n      dup3\n      add\n      mload\n      0x04\n      dup3\n      add\n      sstore\n      0xa0\n      dup3\n      add\n      mload\n      0x05\n      dup3\n      add\n      sstore\n      0xc0\n      dup3\n      add\n      mload\n      0x06\n      swap1\n      swap2\n      add\n      dup1\n      sload\n      0xe0\n      swap1\n      swap4\n      add\n      mload\n      iszero\n      iszero\n      0x0100\n      mul\n      not(0xff00)\n      swap3\n      iszero\n      iszero\n      swap3\n      swap1\n      swap3\n      and\n      not(0xffff)\n      swap1\n      swap4\n      and\n      swap3\n      swap1\n      swap3\n      or\n      or\n      swap1\n      sstore\n      pop\n      pop\n      pop\n      pop\n      pop\n      pop\n        /* \"smart-contracts/classroom/main/Canvassing_flattened.sol\":13311:14983  function participateInSurvey(... */\n      jump\t// out\n        /* \"smart-contracts/classroom/main/Canvassing_flattened.sol\":24048:24206  function getAnswersOfSurvey(uint256 _surveyId)... */\n    tag_213:\n        /* \"smart-contracts/classroom/main/Canvassing_flattened.sol\":24140:24155  Answer[] memory */\n      0x60\n        /* \"smart-contracts/classroom/main/Canvassing_flattened.sol\":24178:24188  allAnswers */\n      0x05\n        /* \"smart-contracts/classroom/main/Canvassing_flattened.sol\":24178:24199  allAnswers[_surveyId] */\n      0x00\n        /* \"smart-contracts/classroom/main/Canvassing_flattened.sol\":24189:24198  _surveyId */\n      dup4\n        /* \"smart-contracts/classroom/main/Canvassing_flattened.sol\":24178:24199  allAnswers[_surveyId] */\n      dup2\n      mstore\n      0x20\n      add\n      swap1\n      dup2\n      mstore\n      0x20\n      add\n      0x00\n      keccak256\n        /* \"smart-contracts/classroom/main/Canvassing_flattened.sol\":24171:24199  return allAnswers[_surveyId] */\n      dup1\n      sload\n      dup1\n      0x20\n      mul\n      0x20\n      add\n      mload(0x40)\n      swap1\n      dup2\n      add\n      0x40\n      mstore\n      dup1\n      swap3\n      swap2\n      swap1\n      dup2\n      dup2\n      mstore\n      0x20\n      add\n      0x00\n      swap1\n    tag_599:\n      dup3\n      dup3\n      lt\n      iszero\n      tag_530\n      jumpi\n      0x00\n      dup5\n      dup2\n      mstore\n      0x20\n      swap1\n      dup2\n      swap1\n      keccak256\n      0x40\n      dup1\n      mload\n      0xc0\n      dup2\n      add\n      dup3\n      mstore\n      0x04\n      dup7\n      mul\n      swap1\n      swap3\n      add\n      dup1\n      sload\n      dup4\n      mstore\n      0x01\n      dup1\n      dup3\n      add\n      sload\n      dup5\n      dup7\n      add\n      mstore\n      0x02\n      dup3\n      add\n      sload\n      swap3\n      dup5\n      add\n      swap3\n      swap1\n      swap3\n      mstore\n      0x03\n      add\n      sload\n      sub(shl(0xa0, 0x01), 0x01)\n      dup2\n      and\n      0x60\n      dup5\n      add\n      mstore\n      0xff\n      shl(0xa0, 0x01)\n      dup3\n      div\n      dup2\n      and\n      iszero\n      iszero\n      0x80\n      dup6\n      add\n      mstore\n      shl(0xa8, 0x01)\n      swap1\n      swap2\n      div\n      and\n      iszero\n      iszero\n      0xa0\n      dup4\n      add\n      mstore\n      swap1\n      dup4\n      mstore\n      swap1\n      swap3\n      add\n      swap2\n      add\n      jump(tag_599)\n        /* \"smart-contracts/classroom/main/Canvassing_flattened.sol\":9480:9647  function getAllQuestionsOfSurvey(uint256 _surveyId)... */\n    tag_221:\n        /* \"smart-contracts/classroom/main/Canvassing_flattened.sol\":9577:9594  Question[] memory */\n      0x60\n        /* \"smart-contracts/classroom/main/Canvassing_flattened.sol\":9617:9629  allQuestions */\n      0x04\n        /* \"smart-contracts/classroom/main/Canvassing_flattened.sol\":9617:9640  allQuestions[_surveyId] */\n      0x00\n        /* \"smart-contracts/classroom/main/Canvassing_flattened.sol\":9630:9639  _surveyId */\n      dup4\n        /* \"smart-contracts/classroom/main/Canvassing_flattened.sol\":9617:9640  allQuestions[_surveyId] */\n      dup2\n      mstore\n      0x20\n      add\n      swap1\n      dup2\n      mstore\n      0x20\n      add\n      0x00\n      keccak256\n        /* \"smart-contracts/classroom/main/Canvassing_flattened.sol\":9610:9640  return allQuestions[_surveyId] */\n      dup1\n      sload\n      dup1\n      0x20\n      mul\n      0x20\n      add\n      mload(0x40)\n      swap1\n      dup2\n      add\n      0x40\n      mstore\n      dup1\n      swap3\n      swap2\n      swap1\n      dup2\n      dup2\n      mstore\n      0x20\n      add\n      0x00\n      swap1\n    tag_603:\n      dup3\n      dup3\n      lt\n      iszero\n      tag_530\n      jumpi\n      dup4\n      dup3\n      swap1\n      0x00\n      mstore\n      keccak256(0x00, 0x20)\n      swap1\n      0x04\n      mul\n      add\n      mload(0x40)\n      dup1\n      0x80\n      add\n      0x40\n      mstore\n      swap1\n      dup2\n      0x00\n      dup3\n      add\n      sload\n      dup2\n      mstore\n      0x20\n      add\n      0x01\n      dup3\n      add\n      sload\n      dup2\n      mstore\n      0x20\n      add\n      0x02\n      dup3\n      add\n      dup1\n      sload\n      tag_606\n      swap1\n      tag_252\n      jump\t// in\n    tag_606:\n      dup1\n      0x1f\n      add\n      0x20\n      dup1\n      swap2\n      div\n      mul\n      0x20\n      add\n      mload(0x40)\n      swap1\n      dup2\n      add\n      0x40\n      mstore\n      dup1\n      swap3\n      swap2\n      swap1\n      dup2\n      dup2\n      mstore\n      0x20\n      add\n      dup3\n      dup1\n      sload\n      tag_607\n      swap1\n      tag_252\n      jump\t// in\n    tag_607:\n      dup1\n      iszero\n      tag_608\n      jumpi\n      dup1\n      0x1f\n      lt\n      tag_609\n      jumpi\n      0x0100\n      dup1\n      dup4\n      sload\n      div\n      mul\n      dup4\n      mstore\n      swap2\n      0x20\n      add\n      swap2\n      jump(tag_608)\n    tag_609:\n      dup3\n      add\n      swap2\n      swap1\n      0x00\n      mstore\n      keccak256(0x00, 0x20)\n      swap1\n    tag_610:\n      dup2\n      sload\n      dup2\n      mstore\n      swap1\n      0x01\n      add\n      swap1\n      0x20\n      add\n      dup1\n      dup4\n      gt\n      tag_610\n      jumpi\n      dup3\n      swap1\n      sub\n      0x1f\n      and\n      dup3\n      add\n      swap2\n    tag_608:\n      pop\n      pop\n      pop\n      swap2\n      dup4\n      mstore\n      pop\n      pop\n      0x03\n      swap2\n      swap1\n      swap2\n      add\n      sload\n      0xff\n      and\n      iszero\n      iszero\n      0x20\n      swap2\n      dup3\n      add\n      mstore\n      swap1\n      dup3\n      mstore\n      0x01\n      swap3\n      swap1\n      swap3\n      add\n      swap2\n      add\n      jump(tag_603)\n        /* \"smart-contracts/classroom/main/Canvassing_flattened.sol\":3076:3128  mapping(address => Researcher) public allResearchers */\n    tag_226:\n      0x01\n      0x20\n      dup2\n      swap1\n      mstore\n      0x00\n      swap2\n      dup3\n      mstore\n      0x40\n      swap1\n      swap2\n      keccak256\n      dup1\n      sload\n      swap2\n      dup2\n      add\n      sload\n      0x02\n      dup3\n      add\n      dup1\n      sload\n      sub(shl(0xa0, 0x01), 0x01)\n      swap1\n      swap3\n      and\n      swap3\n      swap2\n      tag_611\n      swap1\n      tag_252\n      jump\t// in\n    tag_611:\n      dup1\n      0x1f\n      add\n      0x20\n      dup1\n      swap2\n      div\n      mul\n      0x20\n      add\n      mload(0x40)\n      swap1\n      dup2\n      add\n      0x40\n      mstore\n      dup1\n      swap3\n      swap2\n      swap1\n      dup2\n      dup2\n      mstore\n      0x20\n      add\n      dup3\n      dup1\n      sload\n      tag_612\n      swap1\n      tag_252\n      jump\t// in\n    tag_612:\n      dup1\n      iszero\n      tag_613\n      jumpi\n      dup1\n      0x1f\n      lt\n      tag_614\n      jumpi\n      0x0100\n      dup1\n      dup4\n      sload\n      div\n      mul\n      dup4\n      mstore\n      swap2\n      0x20\n      add\n      swap2\n      jump(tag_613)\n    tag_614:\n      dup3\n      add\n      swap2\n      swap1\n      0x00\n      mstore\n      keccak256(0x00, 0x20)\n      swap1\n    tag_615:\n      dup2\n      sload\n      dup2\n      mstore\n      swap1\n      0x01\n      add\n      swap1\n      0x20\n      add\n      dup1\n      dup4\n      gt\n      tag_615\n      jumpi\n      dup3\n      swap1\n      sub\n      0x1f\n      and\n      dup3\n      add\n      swap2\n    tag_613:\n      pop\n      pop\n      pop\n      pop\n      0x03\n      dup4\n      add\n      sload\n      0x04\n      swap1\n      swap4\n      add\n      sload\n      swap2\n      swap3\n      swap2\n      0xff\n      dup1\n      dup3\n      and\n      swap3\n      pop\n      0x0100\n      dup3\n      div\n      dup2\n      and\n      swap2\n      0x010000\n      swap1\n      div\n      and\n      dup8\n      jump\t// out\n        /* \"smart-contracts/classroom/main/Canvassing_flattened.sol\":3302:3352  mapping(uint256 => Question[]) public allQuestions */\n    tag_231:\n      mstore(0x20, 0x04)\n      dup2\n      0x00\n      mstore\n      keccak256(0x00, 0x40)\n      dup2\n      dup2\n      sload\n      dup2\n      lt\n      tag_616\n      jumpi\n      0x00\n      dup1\n      revert\n    tag_616:\n      swap1\n      0x00\n      mstore\n      keccak256(0x00, 0x20)\n      swap1\n      0x04\n      mul\n      add\n      0x00\n      swap2\n      pop\n      swap2\n      pop\n      pop\n      dup1\n      0x00\n      add\n      sload\n      swap1\n      dup1\n      0x01\n      add\n      sload\n      swap1\n      dup1\n      0x02\n      add\n      dup1\n      sload\n      tag_618\n      swap1\n      tag_252\n      jump\t// in\n    tag_618:\n      dup1\n      0x1f\n      add\n      0x20\n      dup1\n      swap2\n      div\n      mul\n      0x20\n      add\n      mload(0x40)\n      swap1\n      dup2\n      add\n      0x40\n      mstore\n      dup1\n      swap3\n      swap2\n      swap1\n      dup2\n      dup2\n      mstore\n      0x20\n      add\n      dup3\n      dup1\n      sload\n      tag_619\n      swap1\n      tag_252\n      jump\t// in\n    tag_619:\n      dup1\n      iszero\n      tag_620\n      jumpi\n      dup1\n      0x1f\n      lt\n      tag_621\n      jumpi\n      0x0100\n      dup1\n      dup4\n      sload\n      div\n      mul\n      dup4\n      mstore\n      swap2\n      0x20\n      add\n      swap2\n      jump(tag_620)\n    tag_621:\n      dup3\n      add\n      swap2\n      swap1\n      0x00\n      mstore\n      keccak256(0x00, 0x20)\n      swap1\n    tag_622:\n      dup2\n      sload\n      dup2\n      mstore\n      swap1\n      0x01\n      add\n      swap1\n      0x20\n      add\n      dup1\n      dup4\n      gt\n      tag_622\n      jumpi\n      dup3\n      swap1\n      sub\n      0x1f\n      and\n      dup3\n      add\n      swap2\n    tag_620:\n      pop\n      pop\n      pop\n      0x03\n      swap1\n      swap4\n      add\n      sload\n      swap2\n      swap3\n      pop\n      pop\n      0xff\n      and\n      dup5\n      jump\t// out\n    tag_249:\n      mload(0x40)\n      dup1\n      0xe0\n      add\n      0x40\n      mstore\n      dup1\n      0x00\n      dup2\n      mstore\n      0x20\n      add\n      and(sub(shl(0xa0, 0x01), 0x01), 0x00)\n      dup2\n      mstore\n      0x20\n      add\n      0x60\n      dup2\n      mstore\n      0x20\n      add\n      0x00\n      dup2\n      mstore\n      0x20\n      add\n      iszero(iszero(0x00))\n      dup2\n      mstore\n      0x20\n      add\n      iszero(iszero(0x00))\n      dup2\n      mstore\n      0x20\n      add\n      iszero(iszero(0x00))\n      dup2\n      mstore\n      pop\n      swap1\n      jump\t// out\n    tag_264:\n      mload(0x40)\n      dup1\n      0xe0\n      add\n      0x40\n      mstore\n      dup1\n      0x00\n      dup2\n      mstore\n      0x20\n      add\n      and(sub(shl(0xa0, 0x01), 0x01), 0x00)\n      dup2\n      mstore\n      0x20\n      add\n      0x60\n      dup2\n      mstore\n      0x20\n      add\n      0x00\n      dup2\n      mstore\n      0x20\n      add\n      0x00\n      dup2\n      mstore\n      0x20\n      add\n      0x00\n      dup2\n      mstore\n      0x20\n      add\n      iszero(iszero(0x00))\n      dup2\n      mstore\n      pop\n      swap1\n      jump\t// out\n    tag_343:\n      mload(0x40)\n      dup1\n      0xc0\n      add\n      0x40\n      mstore\n      dup1\n      0x00\n      dup2\n      mstore\n      0x20\n      add\n      0x00\n      dup2\n      mstore\n      0x20\n      add\n      0x00\n      dup2\n      mstore\n      0x20\n      add\n      and(sub(shl(0xa0, 0x01), 0x01), 0x00)\n      dup2\n      mstore\n      0x20\n      add\n      iszero(iszero(0x00))\n      dup2\n      mstore\n      0x20\n      add\n      iszero(iszero(0x00))\n      dup2\n      mstore\n      pop\n      swap1\n      jump\t// out\n    tag_356:\n      mload(0x40)\n      dup1\n      0x0100\n      add\n      0x40\n      mstore\n      dup1\n      0x00\n      dup2\n      mstore\n      0x20\n      add\n      and(sub(shl(0xa0, 0x01), 0x01), 0x00)\n      dup2\n      mstore\n      0x20\n      add\n      0x60\n      dup2\n      mstore\n      0x20\n      add\n      0x60\n      dup2\n      mstore\n      0x20\n      add\n      0x00\n      dup2\n      mstore\n      0x20\n      add\n      0x00\n      dup2\n      mstore\n      0x20\n      add\n      iszero(iszero(0x00))\n      dup2\n      mstore\n      0x20\n      add\n      iszero(iszero(0x00))\n      dup2\n      mstore\n      pop\n      swap1\n      jump\t// out\n    tag_374:\n      mload(0x40)\n      dup1\n      0xa0\n      add\n      0x40\n      mstore\n      dup1\n      0x00\n      dup2\n      mstore\n      0x20\n      add\n      0x00\n      dup2\n      mstore\n      0x20\n      add\n      and(sub(shl(0xa0, 0x01), 0x01), 0x00)\n      dup2\n      mstore\n      0x20\n      add\n      0x00\n      dup2\n      mstore\n      0x20\n      add\n      iszero(iszero(0x00))\n      dup2\n      mstore\n      pop\n      swap1\n      jump\t// out\n        /* \"#utility.yul\":14:262   */\n    tag_53:\n        /* \"#utility.yul\":82:88   */\n      0x00\n        /* \"#utility.yul\":90:96   */\n      dup1\n        /* \"#utility.yul\":143:145   */\n      0x40\n        /* \"#utility.yul\":131:140   */\n      dup4\n        /* \"#utility.yul\":122:129   */\n      dup6\n        /* \"#utility.yul\":118:141   */\n      sub\n        /* \"#utility.yul\":114:146   */\n      slt\n        /* \"#utility.yul\":111:163   */\n      iszero\n      tag_638\n      jumpi\n        /* \"#utility.yul\":159:160   */\n      0x00\n        /* \"#utility.yul\":156:157   */\n      dup1\n        /* \"#utility.yul\":149:161   */\n      revert\n        /* \"#utility.yul\":111:163   */\n    tag_638:\n      pop\n      pop\n        /* \"#utility.yul\":182:205   */\n      dup1\n      calldataload\n      swap3\n        /* \"#utility.yul\":252:254   */\n      0x20\n        /* \"#utility.yul\":237:255   */\n      swap1\n      swap2\n      add\n        /* \"#utility.yul\":224:256   */\n      calldataload\n      swap2\n      pop\n        /* \"#utility.yul\":14:262   */\n      jump\t// out\n        /* \"#utility.yul\":449:622   */\n    tag_623:\n        /* \"#utility.yul\":517:537   */\n      dup1\n      calldataload\n      sub(shl(0xa0, 0x01), 0x01)\n        /* \"#utility.yul\":566:597   */\n      dup2\n      and\n        /* \"#utility.yul\":556:598   */\n      dup2\n      eq\n        /* \"#utility.yul\":546:616   */\n      tag_641\n      jumpi\n        /* \"#utility.yul\":612:613   */\n      0x00\n        /* \"#utility.yul\":609:610   */\n      dup1\n        /* \"#utility.yul\":602:614   */\n      revert\n        /* \"#utility.yul\":546:616   */\n    tag_641:\n        /* \"#utility.yul\":449:622   */\n      swap2\n      swap1\n      pop\n      jump\t// out\n        /* \"#utility.yul\":627:813   */\n    tag_59:\n        /* \"#utility.yul\":686:692   */\n      0x00\n        /* \"#utility.yul\":739:741   */\n      0x20\n        /* \"#utility.yul\":727:736   */\n      dup3\n        /* \"#utility.yul\":718:725   */\n      dup5\n        /* \"#utility.yul\":714:737   */\n      sub\n        /* \"#utility.yul\":710:742   */\n      slt\n        /* \"#utility.yul\":707:759   */\n      iszero\n      tag_643\n      jumpi\n        /* \"#utility.yul\":755:756   */\n      0x00\n        /* \"#utility.yul\":752:753   */\n      dup1\n        /* \"#utility.yul\":745:757   */\n      revert\n        /* \"#utility.yul\":707:759   */\n    tag_643:\n        /* \"#utility.yul\":778:807   */\n      tag_644\n        /* \"#utility.yul\":797:806   */\n      dup3\n        /* \"#utility.yul\":778:807   */\n      tag_623\n      jump\t// in\n    tag_644:\n        /* \"#utility.yul\":768:807   */\n      swap4\n        /* \"#utility.yul\":627:813   */\n      swap3\n      pop\n      pop\n      pop\n      jump\t// out\n        /* \"#utility.yul\":818:1241   */\n    tag_624:\n        /* \"#utility.yul\":860:863   */\n      0x00\n        /* \"#utility.yul\":898:903   */\n      dup2\n        /* \"#utility.yul\":892:904   */\n      mload\n        /* \"#utility.yul\":925:931   */\n      dup1\n        /* \"#utility.yul\":920:923   */\n      dup5\n        /* \"#utility.yul\":913:932   */\n      mstore\n        /* \"#utility.yul\":950:951   */\n      0x00\n        /* \"#utility.yul\":960:1122   */\n    tag_646:\n        /* \"#utility.yul\":974:980   */\n      dup2\n        /* \"#utility.yul\":971:972   */\n      dup2\n        /* \"#utility.yul\":968:981   */\n      lt\n        /* \"#utility.yul\":960:1122   */\n      iszero\n      tag_648\n      jumpi\n        /* \"#utility.yul\":1036:1040   */\n      0x20\n        /* \"#utility.yul\":1092:1105   */\n      dup2\n      dup6\n      add\n        /* \"#utility.yul\":1088:1110   */\n      dup2\n      add\n        /* \"#utility.yul\":1082:1111   */\n      mload\n        /* \"#utility.yul\":1064:1075   */\n      dup7\n      dup4\n      add\n        /* \"#utility.yul\":1060:1080   */\n      dup3\n      add\n        /* \"#utility.yul\":1053:1112   */\n      mstore\n        /* \"#utility.yul\":989:1001   */\n      add\n        /* \"#utility.yul\":960:1122   */\n      jump(tag_646)\n    tag_648:\n        /* \"#utility.yul\":964:967   */\n      pop\n        /* \"#utility.yul\":1167:1168   */\n      0x00\n        /* \"#utility.yul\":1160:1164   */\n      0x20\n        /* \"#utility.yul\":1151:1157   */\n      dup3\n        /* \"#utility.yul\":1146:1149   */\n      dup7\n        /* \"#utility.yul\":1142:1158   */\n      add\n        /* \"#utility.yul\":1138:1165   */\n      add\n        /* \"#utility.yul\":1131:1169   */\n      mstore\n        /* \"#utility.yul\":1230:1234   */\n      0x20\n        /* \"#utility.yul\":1223:1225   */\n      0x1f\n        /* \"#utility.yul\":1219:1226   */\n      not\n        /* \"#utility.yul\":1214:1216   */\n      0x1f\n        /* \"#utility.yul\":1206:1212   */\n      dup4\n        /* \"#utility.yul\":1202:1217   */\n      add\n        /* \"#utility.yul\":1198:1227   */\n      and\n        /* \"#utility.yul\":1193:1196   */\n      dup6\n        /* \"#utility.yul\":1189:1228   */\n      add\n        /* \"#utility.yul\":1185:1235   */\n      add\n        /* \"#utility.yul\":1178:1235   */\n      swap2\n      pop\n      pop\n        /* \"#utility.yul\":818:1241   */\n      swap3\n      swap2\n      pop\n      pop\n      jump\t// out\n        /* \"#utility.yul\":1342:2149   */\n    tag_62:\n        /* \"#utility.yul\":1523:1525   */\n      0x20\n        /* \"#utility.yul\":1512:1521   */\n      dup2\n        /* \"#utility.yul\":1505:1526   */\n      mstore\n        /* \"#utility.yul\":1568:1574   */\n      dup2\n        /* \"#utility.yul\":1562:1575   */\n      mload\n        /* \"#utility.yul\":1557:1559   */\n      0x20\n        /* \"#utility.yul\":1546:1555   */\n      dup3\n        /* \"#utility.yul\":1542:1560   */\n      add\n        /* \"#utility.yul\":1535:1576   */\n      mstore\n        /* \"#utility.yul\":1657:1658   */\n      0x01\n        /* \"#utility.yul\":1653:1654   */\n      dup1\n        /* \"#utility.yul\":1648:1651   */\n      0xa0\n        /* \"#utility.yul\":1644:1655   */\n      shl\n        /* \"#utility.yul\":1640:1659   */\n      sub\n        /* \"#utility.yul\":1634:1636   */\n      0x20\n        /* \"#utility.yul\":1626:1632   */\n      dup4\n        /* \"#utility.yul\":1622:1637   */\n      add\n        /* \"#utility.yul\":1616:1638   */\n      mload\n        /* \"#utility.yul\":1612:1660   */\n      and\n        /* \"#utility.yul\":1607:1609   */\n      0x40\n        /* \"#utility.yul\":1596:1605   */\n      dup3\n        /* \"#utility.yul\":1592:1610   */\n      add\n        /* \"#utility.yul\":1585:1661   */\n      mstore\n        /* \"#utility.yul\":1486:1490   */\n      0x00\n        /* \"#utility.yul\":1708:1710   */\n      0x40\n        /* \"#utility.yul\":1700:1706   */\n      dup4\n        /* \"#utility.yul\":1696:1711   */\n      add\n        /* \"#utility.yul\":1690:1712   */\n      mload\n        /* \"#utility.yul\":1748:1752   */\n      0xe0\n        /* \"#utility.yul\":1743:1745   */\n      0x60\n        /* \"#utility.yul\":1732:1741   */\n      dup5\n        /* \"#utility.yul\":1728:1746   */\n      add\n        /* \"#utility.yul\":1721:1753   */\n      mstore\n        /* \"#utility.yul\":1776:1828   */\n      tag_651\n        /* \"#utility.yul\":1823:1826   */\n      0x0100\n        /* \"#utility.yul\":1812:1821   */\n      dup5\n        /* \"#utility.yul\":1808:1827   */\n      add\n        /* \"#utility.yul\":1794:1806   */\n      dup3\n        /* \"#utility.yul\":1776:1828   */\n      tag_624\n      jump\t// in\n    tag_651:\n        /* \"#utility.yul\":1762:1828   */\n      swap1\n      pop\n        /* \"#utility.yul\":1883:1885   */\n      0x60\n        /* \"#utility.yul\":1875:1881   */\n      dup5\n        /* \"#utility.yul\":1871:1886   */\n      add\n        /* \"#utility.yul\":1865:1887   */\n      mload\n        /* \"#utility.yul\":1859:1862   */\n      0x80\n        /* \"#utility.yul\":1848:1857   */\n      dup5\n        /* \"#utility.yul\":1844:1863   */\n      add\n        /* \"#utility.yul\":1837:1888   */\n      mstore\n        /* \"#utility.yul\":1957:1960   */\n      0x80\n        /* \"#utility.yul\":1949:1955   */\n      dup5\n        /* \"#utility.yul\":1945:1961   */\n      add\n        /* \"#utility.yul\":1939:1962   */\n      mload\n        /* \"#utility.yul\":1932:1963   */\n      iszero\n        /* \"#utility.yul\":1925:1964   */\n      iszero\n        /* \"#utility.yul\":1919:1922   */\n      0xa0\n        /* \"#utility.yul\":1908:1917   */\n      dup5\n        /* \"#utility.yul\":1904:1923   */\n      add\n        /* \"#utility.yul\":1897:1965   */\n      mstore\n        /* \"#utility.yul\":2034:2037   */\n      0xa0\n        /* \"#utility.yul\":2026:2032   */\n      dup5\n        /* \"#utility.yul\":2022:2038   */\n      add\n        /* \"#utility.yul\":2016:2039   */\n      mload\n        /* \"#utility.yul\":2009:2040   */\n      iszero\n        /* \"#utility.yul\":2002:2041   */\n      iszero\n        /* \"#utility.yul\":1996:1999   */\n      0xc0\n        /* \"#utility.yul\":1985:1994   */\n      dup5\n        /* \"#utility.yul\":1981:2000   */\n      add\n        /* \"#utility.yul\":1974:2042   */\n      mstore\n        /* \"#utility.yul\":2112:2115   */\n      0xc0\n        /* \"#utility.yul\":2104:2110   */\n      dup5\n        /* \"#utility.yul\":2100:2116   */\n      add\n        /* \"#utility.yul\":2094:2117   */\n      mload\n        /* \"#utility.yul\":2087:2118   */\n      iszero\n        /* \"#utility.yul\":2080:2119   */\n      iszero\n        /* \"#utility.yul\":2073:2077   */\n      0xe0\n        /* \"#utility.yul\":2062:2071   */\n      dup5\n        /* \"#utility.yul\":2058:2078   */\n      add\n        /* \"#utility.yul\":2051:2120   */\n      mstore\n        /* \"#utility.yul\":2137:2143   */\n      dup1\n        /* \"#utility.yul\":2129:2143   */\n      swap2\n      pop\n      pop\n        /* \"#utility.yul\":1342:2149   */\n      swap3\n      swap2\n      pop\n      pop\n      jump\t// out\n        /* \"#utility.yul\":2154:2751   */\n    tag_626:\n        /* \"#utility.yul\":2239:2244   */\n      dup1\n        /* \"#utility.yul\":2233:2245   */\n      mload\n        /* \"#utility.yul\":2228:2231   */\n      dup3\n        /* \"#utility.yul\":2221:2246   */\n      mstore\n        /* \"#utility.yul\":2324:2325   */\n      0x01\n        /* \"#utility.yul\":2320:2321   */\n      dup1\n        /* \"#utility.yul\":2315:2318   */\n      0xa0\n        /* \"#utility.yul\":2311:2322   */\n      shl\n        /* \"#utility.yul\":2307:2326   */\n      sub\n        /* \"#utility.yul\":2299:2303   */\n      0x20\n        /* \"#utility.yul\":2292:2297   */\n      dup3\n        /* \"#utility.yul\":2288:2304   */\n      add\n        /* \"#utility.yul\":2282:2305   */\n      mload\n        /* \"#utility.yul\":2278:2327   */\n      and\n        /* \"#utility.yul\":2271:2275   */\n      0x20\n        /* \"#utility.yul\":2266:2269   */\n      dup4\n        /* \"#utility.yul\":2262:2276   */\n      add\n        /* \"#utility.yul\":2255:2328   */\n      mstore\n        /* \"#utility.yul\":2203:2206   */\n      0x00\n        /* \"#utility.yul\":2374:2378   */\n      0x40\n        /* \"#utility.yul\":2367:2372   */\n      dup3\n        /* \"#utility.yul\":2363:2379   */\n      add\n        /* \"#utility.yul\":2357:2380   */\n      mload\n        /* \"#utility.yul\":2412:2416   */\n      0xe0\n        /* \"#utility.yul\":2405:2409   */\n      0x40\n        /* \"#utility.yul\":2400:2403   */\n      dup6\n        /* \"#utility.yul\":2396:2410   */\n      add\n        /* \"#utility.yul\":2389:2417   */\n      mstore\n        /* \"#utility.yul\":2438:2485   */\n      tag_653\n        /* \"#utility.yul\":2479:2483   */\n      0xe0\n        /* \"#utility.yul\":2474:2477   */\n      dup6\n        /* \"#utility.yul\":2470:2484   */\n      add\n        /* \"#utility.yul\":2456:2468   */\n      dup3\n        /* \"#utility.yul\":2438:2485   */\n      tag_624\n      jump\t// in\n    tag_653:\n        /* \"#utility.yul\":2426:2485   */\n      swap1\n      pop\n        /* \"#utility.yul\":2534:2538   */\n      0x60\n        /* \"#utility.yul\":2527:2532   */\n      dup4\n        /* \"#utility.yul\":2523:2539   */\n      add\n        /* \"#utility.yul\":2517:2540   */\n      mload\n        /* \"#utility.yul\":2510:2514   */\n      0x60\n        /* \"#utility.yul\":2505:2508   */\n      dup6\n        /* \"#utility.yul\":2501:2515   */\n      add\n        /* \"#utility.yul\":2494:2541   */\n      mstore\n        /* \"#utility.yul\":2590:2594   */\n      0x80\n        /* \"#utility.yul\":2583:2588   */\n      dup4\n        /* \"#utility.yul\":2579:2595   */\n      add\n        /* \"#utility.yul\":2573:2596   */\n      mload\n        /* \"#utility.yul\":2566:2570   */\n      0x80\n        /* \"#utility.yul\":2561:2564   */\n      dup6\n        /* \"#utility.yul\":2557:2571   */\n      add\n        /* \"#utility.yul\":2550:2597   */\n      mstore\n        /* \"#utility.yul\":2646:2650   */\n      0xa0\n        /* \"#utility.yul\":2639:2644   */\n      dup4\n        /* \"#utility.yul\":2635:2651   */\n      add\n        /* \"#utility.yul\":2629:2652   */\n      mload\n        /* \"#utility.yul\":2622:2626   */\n      0xa0\n        /* \"#utility.yul\":2617:2620   */\n      dup6\n        /* \"#utility.yul\":2613:2627   */\n      add\n        /* \"#utility.yul\":2606:2653   */\n      mstore\n        /* \"#utility.yul\":2716:2720   */\n      0xc0\n        /* \"#utility.yul\":2709:2714   */\n      dup4\n        /* \"#utility.yul\":2705:2721   */\n      add\n        /* \"#utility.yul\":2699:2722   */\n      mload\n        /* \"#utility.yul\":2692:2723   */\n      iszero\n        /* \"#utility.yul\":2685:2724   */\n      iszero\n        /* \"#utility.yul\":2678:2682   */\n      0xc0\n        /* \"#utility.yul\":2673:2676   */\n      dup6\n        /* \"#utility.yul\":2669:2683   */\n      add\n        /* \"#utility.yul\":2662:2725   */\n      mstore\n        /* \"#utility.yul\":2741:2745   */\n      dup1\n        /* \"#utility.yul\":2734:2745   */\n      swap2\n      pop\n      pop\n        /* \"#utility.yul\":2154:2751   */\n      swap3\n      swap2\n      pop\n      pop\n      jump\t// out\n        /* \"#utility.yul\":2756:3590   */\n    tag_67:\n        /* \"#utility.yul\":2942:2946   */\n      0x00\n        /* \"#utility.yul\":2971:2973   */\n      0x20\n        /* \"#utility.yul\":3011:3013   */\n      dup1\n        /* \"#utility.yul\":3000:3009   */\n      dup4\n        /* \"#utility.yul\":2996:3014   */\n      add\n        /* \"#utility.yul\":3041:3043   */\n      dup2\n        /* \"#utility.yul\":3030:3039   */\n      dup5\n        /* \"#utility.yul\":3023:3044   */\n      mstore\n        /* \"#utility.yul\":3064:3070   */\n      dup1\n        /* \"#utility.yul\":3099:3105   */\n      dup6\n        /* \"#utility.yul\":3093:3106   */\n      mload\n        /* \"#utility.yul\":3130:3136   */\n      dup1\n        /* \"#utility.yul\":3122:3128   */\n      dup4\n        /* \"#utility.yul\":3115:3137   */\n      mstore\n        /* \"#utility.yul\":3168:3170   */\n      0x40\n        /* \"#utility.yul\":3157:3166   */\n      dup7\n        /* \"#utility.yul\":3153:3171   */\n      add\n        /* \"#utility.yul\":3146:3171   */\n      swap2\n      pop\n        /* \"#utility.yul\":3230:3232   */\n      0x40\n        /* \"#utility.yul\":3220:3226   */\n      dup2\n        /* \"#utility.yul\":3217:3218   */\n      0x05\n        /* \"#utility.yul\":3213:3227   */\n      shl\n        /* \"#utility.yul\":3202:3211   */\n      dup8\n        /* \"#utility.yul\":3198:3228   */\n      add\n        /* \"#utility.yul\":3194:3233   */\n      add\n        /* \"#utility.yul\":3180:3233   */\n      swap3\n      pop\n        /* \"#utility.yul\":3268:3270   */\n      dup4\n        /* \"#utility.yul\":3260:3266   */\n      dup8\n        /* \"#utility.yul\":3256:3271   */\n      add\n        /* \"#utility.yul\":3289:3290   */\n      0x00\n        /* \"#utility.yul\":3299:3561   */\n    tag_655:\n        /* \"#utility.yul\":3313:3319   */\n      dup3\n        /* \"#utility.yul\":3310:3311   */\n      dup2\n        /* \"#utility.yul\":3307:3320   */\n      lt\n        /* \"#utility.yul\":3299:3561   */\n      iszero\n      tag_657\n      jumpi\n        /* \"#utility.yul\":3406:3408   */\n      0x3f\n        /* \"#utility.yul\":3402:3409   */\n      not\n        /* \"#utility.yul\":3390:3399   */\n      dup9\n        /* \"#utility.yul\":3382:3388   */\n      dup7\n        /* \"#utility.yul\":3378:3400   */\n      sub\n        /* \"#utility.yul\":3374:3410   */\n      add\n        /* \"#utility.yul\":3369:3372   */\n      dup5\n        /* \"#utility.yul\":3362:3411   */\n      mstore\n        /* \"#utility.yul\":3434:3481   */\n      tag_658\n        /* \"#utility.yul\":3474:3480   */\n      dup6\n        /* \"#utility.yul\":3465:3471   */\n      dup4\n        /* \"#utility.yul\":3459:3472   */\n      mload\n        /* \"#utility.yul\":3434:3481   */\n      tag_626\n      jump\t// in\n    tag_658:\n        /* \"#utility.yul\":3424:3481   */\n      swap5\n      pop\n        /* \"#utility.yul\":3539:3551   */\n      swap3\n      dup6\n      add\n      swap3\n        /* \"#utility.yul\":3504:3519   */\n      swap1\n      dup6\n      add\n      swap1\n        /* \"#utility.yul\":3335:3336   */\n      0x01\n        /* \"#utility.yul\":3328:3337   */\n      add\n        /* \"#utility.yul\":3299:3561   */\n      jump(tag_655)\n    tag_657:\n      pop\n        /* \"#utility.yul\":3578:3584   */\n      swap3\n      swap8\n        /* \"#utility.yul\":2756:3590   */\n      swap7\n      pop\n      pop\n      pop\n      pop\n      pop\n      pop\n      pop\n      jump\t// out\n        /* \"#utility.yul\":3595:4476   */\n    tag_72:\n        /* \"#utility.yul\":3952:3977   */\n      dup9\n      dup2\n      mstore\n      sub(shl(0xa0, 0x01), 0x01)\n        /* \"#utility.yul\":4013:4045   */\n      dup9\n      and\n        /* \"#utility.yul\":4008:4010   */\n      0x20\n        /* \"#utility.yul\":3993:4011   */\n      dup3\n      add\n        /* \"#utility.yul\":3986:4046   */\n      mstore\n        /* \"#utility.yul\":3940:3943   */\n      0x0100\n        /* \"#utility.yul\":4077:4079   */\n      0x40\n        /* \"#utility.yul\":4062:4080   */\n      dup3\n      add\n        /* \"#utility.yul\":4055:4085   */\n      dup2\n      swap1\n      mstore\n        /* \"#utility.yul\":3911:3915   */\n      0x00\n      swap1\n        /* \"#utility.yul\":4108:4153   */\n      tag_660\n        /* \"#utility.yul\":4134:4152   */\n      dup4\n      dup3\n      add\n        /* \"#utility.yul\":4126:4132   */\n      dup11\n        /* \"#utility.yul\":4108:4153   */\n      tag_624\n      jump\t// in\n    tag_660:\n        /* \"#utility.yul\":4094:4153   */\n      swap1\n      pop\n        /* \"#utility.yul\":4201:4210   */\n      dup3\n        /* \"#utility.yul\":4193:4199   */\n      dup2\n        /* \"#utility.yul\":4189:4211   */\n      sub\n        /* \"#utility.yul\":4184:4186   */\n      0x60\n        /* \"#utility.yul\":4173:4182   */\n      dup5\n        /* \"#utility.yul\":4169:4187   */\n      add\n        /* \"#utility.yul\":4162:4212   */\n      mstore\n        /* \"#utility.yul\":4229:4262   */\n      tag_661\n        /* \"#utility.yul\":4255:4261   */\n      dup2\n        /* \"#utility.yul\":4247:4253   */\n      dup10\n        /* \"#utility.yul\":4229:4262   */\n      tag_624\n      jump\t// in\n    tag_661:\n        /* \"#utility.yul\":4293:4296   */\n      0x80\n        /* \"#utility.yul\":4278:4297   */\n      dup5\n      add\n        /* \"#utility.yul\":4271:4306   */\n      swap8\n      swap1\n      swap8\n      mstore\n      pop\n      pop\n        /* \"#utility.yul\":4337:4340   */\n      0xa0\n        /* \"#utility.yul\":4322:4341   */\n      dup2\n      add\n        /* \"#utility.yul\":4315:4350   */\n      swap4\n      swap1\n      swap4\n      mstore\n        /* \"#utility.yul\":4394:4408   */\n      swap1\n      iszero\n        /* \"#utility.yul\":4387:4409   */\n      iszero\n        /* \"#utility.yul\":4381:4384   */\n      0xc0\n        /* \"#utility.yul\":4366:4385   */\n      dup4\n      add\n        /* \"#utility.yul\":4359:4410   */\n      mstore\n        /* \"#utility.yul\":4454:4468   */\n      iszero\n        /* \"#utility.yul\":4447:4469   */\n      iszero\n        /* \"#utility.yul\":4441:4444   */\n      0xe0\n        /* \"#utility.yul\":4426:4445   */\n      swap1\n      swap2\n      add\n        /* \"#utility.yul\":4419:4470   */\n      mstore\n        /* \"#utility.yul\":4221:4262   */\n      swap5\n        /* \"#utility.yul\":3595:4476   */\n      swap4\n      pop\n      pop\n      pop\n      pop\n      jump\t// out\n        /* \"#utility.yul\":4481:4608   */\n    tag_260:\n        /* \"#utility.yul\":4542:4552   */\n      0x4e487b71\n        /* \"#utility.yul\":4537:4540   */\n      0xe0\n        /* \"#utility.yul\":4533:4553   */\n      shl\n        /* \"#utility.yul\":4530:4531   */\n      0x00\n        /* \"#utility.yul\":4523:4554   */\n      mstore\n        /* \"#utility.yul\":4573:4577   */\n      0x41\n        /* \"#utility.yul\":4570:4571   */\n      0x04\n        /* \"#utility.yul\":4563:4578   */\n      mstore\n        /* \"#utility.yul\":4597:4601   */\n      0x24\n        /* \"#utility.yul\":4594:4595   */\n      0x00\n        /* \"#utility.yul\":4587:4602   */\n      revert\n        /* \"#utility.yul\":4613:4888   */\n    tag_627:\n        /* \"#utility.yul\":4684:4686   */\n      0x40\n        /* \"#utility.yul\":4678:4687   */\n      mload\n        /* \"#utility.yul\":4749:4751   */\n      0x1f\n        /* \"#utility.yul\":4730:4743   */\n      dup3\n      add\n      not(0x1f)\n        /* \"#utility.yul\":4726:4753   */\n      and\n        /* \"#utility.yul\":4714:4754   */\n      dup2\n      add\n      sub(shl(0x40, 0x01), 0x01)\n        /* \"#utility.yul\":4769:4803   */\n      dup2\n      gt\n        /* \"#utility.yul\":4805:4827   */\n      dup3\n      dup3\n      lt\n        /* \"#utility.yul\":4766:4828   */\n      or\n        /* \"#utility.yul\":4763:4851   */\n      iszero\n      tag_665\n      jumpi\n        /* \"#utility.yul\":4831:4849   */\n      tag_665\n      tag_260\n      jump\t// in\n    tag_665:\n        /* \"#utility.yul\":4867:4869   */\n      0x40\n        /* \"#utility.yul\":4860:4882   */\n      mstore\n        /* \"#utility.yul\":4613:4888   */\n      swap2\n      swap1\n      pop\n      jump\t// out\n        /* \"#utility.yul\":4893:5424   */\n    tag_628:\n        /* \"#utility.yul\":4936:4941   */\n      0x00\n        /* \"#utility.yul\":4989:4992   */\n      dup3\n        /* \"#utility.yul\":4982:4986   */\n      0x1f\n        /* \"#utility.yul\":4974:4980   */\n      dup4\n        /* \"#utility.yul\":4970:4987   */\n      add\n        /* \"#utility.yul\":4966:4993   */\n      slt\n        /* \"#utility.yul\":4956:5011   */\n      tag_667\n      jumpi\n        /* \"#utility.yul\":5007:5008   */\n      0x00\n        /* \"#utility.yul\":5004:5005   */\n      dup1\n        /* \"#utility.yul\":4997:5009   */\n      revert\n        /* \"#utility.yul\":4956:5011   */\n    tag_667:\n        /* \"#utility.yul\":5043:5049   */\n      dup2\n        /* \"#utility.yul\":5030:5050   */\n      calldataload\n      sub(shl(0x40, 0x01), 0x01)\n        /* \"#utility.yul\":5065:5067   */\n      dup2\n        /* \"#utility.yul\":5062:5088   */\n      gt\n        /* \"#utility.yul\":5059:5111   */\n      iszero\n      tag_669\n      jumpi\n        /* \"#utility.yul\":5091:5109   */\n      tag_669\n      tag_260\n      jump\t// in\n    tag_669:\n        /* \"#utility.yul\":5135:5190   */\n      tag_670\n        /* \"#utility.yul\":5178:5180   */\n      0x1f\n        /* \"#utility.yul\":5159:5172   */\n      dup3\n      add\n      not(0x1f)\n        /* \"#utility.yul\":5155:5182   */\n      and\n        /* \"#utility.yul\":5184:5188   */\n      0x20\n        /* \"#utility.yul\":5151:5189   */\n      add\n        /* \"#utility.yul\":5135:5190   */\n      tag_627\n      jump\t// in\n    tag_670:\n        /* \"#utility.yul\":5215:5217   */\n      dup2\n        /* \"#utility.yul\":5206:5213   */\n      dup2\n        /* \"#utility.yul\":5199:5218   */\n      mstore\n        /* \"#utility.yul\":5261:5264   */\n      dup5\n        /* \"#utility.yul\":5254:5258   */\n      0x20\n        /* \"#utility.yul\":5249:5251   */\n      dup4\n        /* \"#utility.yul\":5241:5247   */\n      dup7\n        /* \"#utility.yul\":5237:5252   */\n      add\n        /* \"#utility.yul\":5233:5259   */\n      add\n        /* \"#utility.yul\":5230:5265   */\n      gt\n        /* \"#utility.yul\":5227:5282   */\n      iszero\n      tag_671\n      jumpi\n        /* \"#utility.yul\":5278:5279   */\n      0x00\n        /* \"#utility.yul\":5275:5276   */\n      dup1\n        /* \"#utility.yul\":5268:5280   */\n      revert\n        /* \"#utility.yul\":5227:5282   */\n    tag_671:\n        /* \"#utility.yul\":5343:5345   */\n      dup2\n        /* \"#utility.yul\":5336:5340   */\n      0x20\n        /* \"#utility.yul\":5328:5334   */\n      dup6\n        /* \"#utility.yul\":5324:5341   */\n      add\n        /* \"#utility.yul\":5317:5321   */\n      0x20\n        /* \"#utility.yul\":5308:5315   */\n      dup4\n        /* \"#utility.yul\":5304:5322   */\n      add\n        /* \"#utility.yul\":5291:5346   */\n      calldatacopy\n        /* \"#utility.yul\":5391:5392   */\n      0x00\n        /* \"#utility.yul\":5366:5382   */\n      swap2\n      dup2\n      add\n        /* \"#utility.yul\":5384:5388   */\n      0x20\n        /* \"#utility.yul\":5362:5389   */\n      add\n        /* \"#utility.yul\":5355:5393   */\n      swap2\n      swap1\n      swap2\n      mstore\n        /* \"#utility.yul\":5370:5377   */\n      swap4\n        /* \"#utility.yul\":4893:5424   */\n      swap3\n      pop\n      pop\n      pop\n      jump\t// out\n        /* \"#utility.yul\":5429:5893   */\n    tag_75:\n        /* \"#utility.yul\":5516:5522   */\n      0x00\n        /* \"#utility.yul\":5524:5530   */\n      dup1\n        /* \"#utility.yul\":5532:5538   */\n      0x00\n        /* \"#utility.yul\":5585:5587   */\n      0x60\n        /* \"#utility.yul\":5573:5582   */\n      dup5\n        /* \"#utility.yul\":5564:5571   */\n      dup7\n        /* \"#utility.yul\":5560:5583   */\n      sub\n        /* \"#utility.yul\":5556:5588   */\n      slt\n        /* \"#utility.yul\":5553:5605   */\n      iszero\n      tag_673\n      jumpi\n        /* \"#utility.yul\":5601:5602   */\n      0x00\n        /* \"#utility.yul\":5598:5599   */\n      dup1\n        /* \"#utility.yul\":5591:5603   */\n      revert\n        /* \"#utility.yul\":5553:5605   */\n    tag_673:\n        /* \"#utility.yul\":5624:5653   */\n      tag_674\n        /* \"#utility.yul\":5643:5652   */\n      dup5\n        /* \"#utility.yul\":5624:5653   */\n      tag_623\n      jump\t// in\n    tag_674:\n        /* \"#utility.yul\":5614:5653   */\n      swap3\n      pop\n        /* \"#utility.yul\":5704:5706   */\n      0x20\n        /* \"#utility.yul\":5693:5702   */\n      dup5\n        /* \"#utility.yul\":5689:5707   */\n      add\n        /* \"#utility.yul\":5676:5708   */\n      calldataload\n      sub(shl(0x40, 0x01), 0x01)\n        /* \"#utility.yul\":5723:5729   */\n      dup2\n        /* \"#utility.yul\":5720:5750   */\n      gt\n        /* \"#utility.yul\":5717:5767   */\n      iszero\n      tag_675\n      jumpi\n        /* \"#utility.yul\":5763:5764   */\n      0x00\n        /* \"#utility.yul\":5760:5761   */\n      dup1\n        /* \"#utility.yul\":5753:5765   */\n      revert\n        /* \"#utility.yul\":5717:5767   */\n    tag_675:\n        /* \"#utility.yul\":5786:5836   */\n      tag_676\n        /* \"#utility.yul\":5828:5835   */\n      dup7\n        /* \"#utility.yul\":5819:5825   */\n      dup3\n        /* \"#utility.yul\":5808:5817   */\n      dup8\n        /* \"#utility.yul\":5804:5826   */\n      add\n        /* \"#utility.yul\":5786:5836   */\n      tag_628\n      jump\t// in\n    tag_676:\n        /* \"#utility.yul\":5776:5836   */\n      swap3\n      pop\n      pop\n        /* \"#utility.yul\":5883:5885   */\n      0x40\n        /* \"#utility.yul\":5872:5881   */\n      dup5\n        /* \"#utility.yul\":5868:5886   */\n      add\n        /* \"#utility.yul\":5855:5887   */\n      calldataload\n        /* \"#utility.yul\":5845:5887   */\n      swap1\n      pop\n        /* \"#utility.yul\":5429:5893   */\n      swap3\n      pop\n      swap3\n      pop\n      swap3\n      jump\t// out\n        /* \"#utility.yul\":5898:6078   */\n    tag_79:\n        /* \"#utility.yul\":5957:5963   */\n      0x00\n        /* \"#utility.yul\":6010:6012   */\n      0x20\n        /* \"#utility.yul\":5998:6007   */\n      dup3\n        /* \"#utility.yul\":5989:5996   */\n      dup5\n        /* \"#utility.yul\":5985:6008   */\n      sub\n        /* \"#utility.yul\":5981:6013   */\n      slt\n        /* \"#utility.yul\":5978:6030   */\n      iszero\n      tag_678\n      jumpi\n        /* \"#utility.yul\":6026:6027   */\n      0x00\n        /* \"#utility.yul\":6023:6024   */\n      dup1\n        /* \"#utility.yul\":6016:6028   */\n      revert\n        /* \"#utility.yul\":5978:6030   */\n    tag_678:\n      pop\n        /* \"#utility.yul\":6049:6072   */\n      calldataload\n      swap2\n        /* \"#utility.yul\":5898:6078   */\n      swap1\n      pop\n      jump\t// out\n        /* \"#utility.yul\":6083:6770   */\n    tag_82:\n        /* \"#utility.yul\":6376:6401   */\n      dup8\n      dup2\n      mstore\n      sub(shl(0xa0, 0x01), 0x01)\n        /* \"#utility.yul\":6437:6469   */\n      dup8\n      and\n        /* \"#utility.yul\":6432:6434   */\n      0x20\n        /* \"#utility.yul\":6417:6435   */\n      dup3\n      add\n        /* \"#utility.yul\":6410:6470   */\n      mstore\n        /* \"#utility.yul\":6506:6509   */\n      0xe0\n        /* \"#utility.yul\":6501:6503   */\n      0x40\n        /* \"#utility.yul\":6486:6504   */\n      dup3\n      add\n        /* \"#utility.yul\":6479:6510   */\n      dup2\n      swap1\n      mstore\n      0x00\n      swap1\n        /* \"#utility.yul\":6527:6573   */\n      tag_680\n      swap1\n        /* \"#utility.yul\":6553:6572   */\n      dup4\n      add\n        /* \"#utility.yul\":6545:6551   */\n      dup9\n        /* \"#utility.yul\":6527:6573   */\n      tag_624\n      jump\t// in\n    tag_680:\n        /* \"#utility.yul\":6519:6573   */\n      swap1\n      pop\n        /* \"#utility.yul\":6609:6615   */\n      dup6\n        /* \"#utility.yul\":6604:6606   */\n      0x60\n        /* \"#utility.yul\":6593:6602   */\n      dup4\n        /* \"#utility.yul\":6589:6607   */\n      add\n        /* \"#utility.yul\":6582:6616   */\n      mstore\n        /* \"#utility.yul\":6653:6659   */\n      dup5\n        /* \"#utility.yul\":6647:6650   */\n      0x80\n        /* \"#utility.yul\":6636:6645   */\n      dup4\n        /* \"#utility.yul\":6632:6651   */\n      add\n        /* \"#utility.yul\":6625:6660   */\n      mstore\n        /* \"#utility.yul\":6697:6703   */\n      dup4\n        /* \"#utility.yul\":6691:6694   */\n      0xa0\n        /* \"#utility.yul\":6680:6689   */\n      dup4\n        /* \"#utility.yul\":6676:6695   */\n      add\n        /* \"#utility.yul\":6669:6704   */\n      mstore\n        /* \"#utility.yul\":6755:6761   */\n      dup3\n        /* \"#utility.yul\":6748:6762   */\n      iszero\n        /* \"#utility.yul\":6741:6763   */\n      iszero\n        /* \"#utility.yul\":6735:6738   */\n      0xc0\n        /* \"#utility.yul\":6724:6733   */\n      dup4\n        /* \"#utility.yul\":6720:6739   */\n      add\n        /* \"#utility.yul\":6713:6764   */\n      mstore\n        /* \"#utility.yul\":6083:6770   */\n      swap9\n      swap8\n      pop\n      pop\n      pop\n      pop\n      pop\n      pop\n      pop\n      pop\n      jump\t// out\n        /* \"#utility.yul\":6775:7029   */\n    tag_89:\n        /* \"#utility.yul\":6843:6849   */\n      0x00\n        /* \"#utility.yul\":6851:6857   */\n      dup1\n        /* \"#utility.yul\":6904:6906   */\n      0x40\n        /* \"#utility.yul\":6892:6901   */\n      dup4\n        /* \"#utility.yul\":6883:6890   */\n      dup6\n        /* \"#utility.yul\":6879:6902   */\n      sub\n        /* \"#utility.yul\":6875:6907   */\n      slt\n        /* \"#utility.yul\":6872:6924   */\n      iszero\n      tag_682\n      jumpi\n        /* \"#utility.yul\":6920:6921   */\n      0x00\n        /* \"#utility.yul\":6917:6918   */\n      dup1\n        /* \"#utility.yul\":6910:6922   */\n      revert\n        /* \"#utility.yul\":6872:6924   */\n    tag_682:\n        /* \"#utility.yul\":6956:6965   */\n      dup3\n        /* \"#utility.yul\":6943:6966   */\n      calldataload\n        /* \"#utility.yul\":6933:6966   */\n      swap2\n      pop\n        /* \"#utility.yul\":6985:7023   */\n      tag_683\n        /* \"#utility.yul\":7019:7021   */\n      0x20\n        /* \"#utility.yul\":7008:7017   */\n      dup5\n        /* \"#utility.yul\":7004:7022   */\n      add\n        /* \"#utility.yul\":6985:7023   */\n      tag_623\n      jump\t// in\n    tag_683:\n        /* \"#utility.yul\":6975:7023   */\n      swap1\n      pop\n        /* \"#utility.yul\":6775:7029   */\n      swap3\n      pop\n      swap3\n      swap1\n      pop\n      jump\t// out\n        /* \"#utility.yul\":7034:8169   */\n    tag_92:\n        /* \"#utility.yul\":7249:7251   */\n      0x20\n        /* \"#utility.yul\":7301:7322   */\n      dup1\n      dup3\n      mstore\n        /* \"#utility.yul\":7371:7384   */\n      dup3\n      mload\n        /* \"#utility.yul\":7274:7292   */\n      dup3\n      dup3\n      add\n        /* \"#utility.yul\":7393:7415   */\n      dup2\n      swap1\n      mstore\n        /* \"#utility.yul\":7220:7224   */\n      0x00\n      swap2\n        /* \"#utility.yul\":7249:7251   */\n      swap1\n        /* \"#utility.yul\":7434:7436   */\n      0x40\n      swap1\n        /* \"#utility.yul\":7452:7470   */\n      dup2\n      dup6\n      add\n      swap1\n        /* \"#utility.yul\":7493:7508   */\n      dup7\n      dup5\n      add\n        /* \"#utility.yul\":7220:7224   */\n      dup6\n        /* \"#utility.yul\":7536:8143   */\n    tag_685:\n        /* \"#utility.yul\":7550:7556   */\n      dup3\n        /* \"#utility.yul\":7547:7548   */\n      dup2\n        /* \"#utility.yul\":7544:7557   */\n      lt\n        /* \"#utility.yul\":7536:8143   */\n      iszero\n      tag_687\n      jumpi\n        /* \"#utility.yul\":7609:7622   */\n      dup2\n      mload\n        /* \"#utility.yul\":7647:7656   */\n      dup1\n      mload\n        /* \"#utility.yul\":7635:7657   */\n      dup6\n      mstore\n        /* \"#utility.yul\":7697:7708   */\n      dup7\n      dup2\n      add\n        /* \"#utility.yul\":7691:7709   */\n      mload\n        /* \"#utility.yul\":7677:7689   */\n      dup8\n      dup7\n      add\n        /* \"#utility.yul\":7670:7710   */\n      mstore\n        /* \"#utility.yul\":7750:7761   */\n      dup6\n      dup2\n      add\n        /* \"#utility.yul\":7744:7762   */\n      mload\n        /* \"#utility.yul\":7730:7742   */\n      dup7\n      dup7\n      add\n        /* \"#utility.yul\":7723:7763   */\n      mstore\n        /* \"#utility.yul\":7786:7790   */\n      0x60\n        /* \"#utility.yul\":7834:7845   */\n      dup1\n      dup3\n      add\n        /* \"#utility.yul\":7828:7846   */\n      mload\n      sub(shl(0xa0, 0x01), 0x01)\n        /* \"#utility.yul\":7824:7868   */\n      and\n        /* \"#utility.yul\":7810:7822   */\n      swap1\n      dup7\n      add\n        /* \"#utility.yul\":7803:7869   */\n      mstore\n        /* \"#utility.yul\":7892:7896   */\n      0x80\n        /* \"#utility.yul\":7950:7961   */\n      dup1\n      dup3\n      add\n        /* \"#utility.yul\":7944:7962   */\n      mload\n        /* \"#utility.yul\":7937:7963   */\n      iszero\n        /* \"#utility.yul\":7930:7964   */\n      iszero\n        /* \"#utility.yul\":7916:7928   */\n      swap1\n      dup7\n      add\n        /* \"#utility.yul\":7909:7965   */\n      mstore\n        /* \"#utility.yul\":7856:7859   */\n      0xa0\n        /* \"#utility.yul\":8046:8057   */\n      swap1\n      dup2\n      add\n        /* \"#utility.yul\":8040:8058   */\n      mload\n        /* \"#utility.yul\":8033:8059   */\n      iszero\n        /* \"#utility.yul\":8026:8060   */\n      iszero\n        /* \"#utility.yul\":8012:8024   */\n      swap1\n      dup6\n      add\n        /* \"#utility.yul\":8005:8061   */\n      mstore\n        /* \"#utility.yul\":8090:8094   */\n      0xc0\n        /* \"#utility.yul\":8081:8095   */\n      swap1\n      swap4\n      add\n      swap3\n        /* \"#utility.yul\":8118:8133   */\n      swap1\n      dup6\n      add\n      swap1\n        /* \"#utility.yul\":7865:7866   */\n      0x01\n        /* \"#utility.yul\":7565:7574   */\n      add\n        /* \"#utility.yul\":7536:8143   */\n      jump(tag_685)\n    tag_687:\n      pop\n        /* \"#utility.yul\":8160:8163   */\n      swap2\n      swap8\n        /* \"#utility.yul\":7034:8169   */\n      swap7\n      pop\n      pop\n      pop\n      pop\n      pop\n      pop\n      pop\n      jump\t// out\n        /* \"#utility.yul\":8174:9016   */\n    tag_629:\n        /* \"#utility.yul\":8228:8231   */\n      0x00\n        /* \"#utility.yul\":8256:8262   */\n      0x0100\n        /* \"#utility.yul\":8289:8294   */\n      dup3\n        /* \"#utility.yul\":8283:8295   */\n      mload\n        /* \"#utility.yul\":8278:8281   */\n      dup5\n        /* \"#utility.yul\":8271:8296   */\n      mstore\n        /* \"#utility.yul\":8374:8375   */\n      0x01\n        /* \"#utility.yul\":8370:8371   */\n      dup1\n        /* \"#utility.yul\":8365:8368   */\n      0xa0\n        /* \"#utility.yul\":8361:8372   */\n      shl\n        /* \"#utility.yul\":8357:8376   */\n      sub\n        /* \"#utility.yul\":8349:8353   */\n      0x20\n        /* \"#utility.yul\":8342:8347   */\n      dup5\n        /* \"#utility.yul\":8338:8354   */\n      add\n        /* \"#utility.yul\":8332:8355   */\n      mload\n        /* \"#utility.yul\":8328:8377   */\n      and\n        /* \"#utility.yul\":8321:8325   */\n      0x20\n        /* \"#utility.yul\":8316:8319   */\n      dup6\n        /* \"#utility.yul\":8312:8326   */\n      add\n        /* \"#utility.yul\":8305:8378   */\n      mstore\n        /* \"#utility.yul\":8424:8428   */\n      0x40\n        /* \"#utility.yul\":8417:8422   */\n      dup4\n        /* \"#utility.yul\":8413:8429   */\n      add\n        /* \"#utility.yul\":8407:8430   */\n      mload\n        /* \"#utility.yul\":8462:8464   */\n      dup2\n        /* \"#utility.yul\":8455:8459   */\n      0x40\n        /* \"#utility.yul\":8450:8453   */\n      dup7\n        /* \"#utility.yul\":8446:8460   */\n      add\n        /* \"#utility.yul\":8439:8465   */\n      mstore\n        /* \"#utility.yul\":8486:8531   */\n      tag_689\n        /* \"#utility.yul\":8527:8529   */\n      dup3\n        /* \"#utility.yul\":8522:8525   */\n      dup7\n        /* \"#utility.yul\":8518:8530   */\n      add\n        /* \"#utility.yul\":8504:8516   */\n      dup3\n        /* \"#utility.yul\":8486:8531   */\n      tag_624\n      jump\t// in\n    tag_689:\n        /* \"#utility.yul\":8474:8531   */\n      swap2\n      pop\n      pop\n        /* \"#utility.yul\":8579:8583   */\n      0x60\n        /* \"#utility.yul\":8572:8577   */\n      dup4\n        /* \"#utility.yul\":8568:8584   */\n      add\n        /* \"#utility.yul\":8562:8585   */\n      mload\n        /* \"#utility.yul\":8627:8630   */\n      dup5\n        /* \"#utility.yul\":8621:8625   */\n      dup3\n        /* \"#utility.yul\":8617:8631   */\n      sub\n        /* \"#utility.yul\":8610:8614   */\n      0x60\n        /* \"#utility.yul\":8605:8608   */\n      dup7\n        /* \"#utility.yul\":8601:8615   */\n      add\n        /* \"#utility.yul\":8594:8632   */\n      mstore\n        /* \"#utility.yul\":8655:8694   */\n      tag_690\n        /* \"#utility.yul\":8689:8693   */\n      dup3\n        /* \"#utility.yul\":8673:8687   */\n      dup3\n        /* \"#utility.yul\":8655:8694   */\n      tag_624\n      jump\t// in\n    tag_690:\n        /* \"#utility.yul\":8641:8694   */\n      swap2\n      pop\n      pop\n        /* \"#utility.yul\":8743:8747   */\n      0x80\n        /* \"#utility.yul\":8736:8741   */\n      dup4\n        /* \"#utility.yul\":8732:8748   */\n      add\n        /* \"#utility.yul\":8726:8749   */\n      mload\n        /* \"#utility.yul\":8719:8723   */\n      0x80\n        /* \"#utility.yul\":8714:8717   */\n      dup6\n        /* \"#utility.yul\":8710:8724   */\n      add\n        /* \"#utility.yul\":8703:8750   */\n      mstore\n        /* \"#utility.yul\":8799:8803   */\n      0xa0\n        /* \"#utility.yul\":8792:8797   */\n      dup4\n        /* \"#utility.yul\":8788:8804   */\n      add\n        /* \"#utility.yul\":8782:8805   */\n      mload\n        /* \"#utility.yul\":8775:8779   */\n      0xa0\n        /* \"#utility.yul\":8770:8773   */\n      dup6\n        /* \"#utility.yul\":8766:8780   */\n      add\n        /* \"#utility.yul\":8759:8806   */\n      mstore\n        /* \"#utility.yul\":8869:8873   */\n      0xc0\n        /* \"#utility.yul\":8862:8867   */\n      dup4\n        /* \"#utility.yul\":8858:8874   */\n      add\n        /* \"#utility.yul\":8852:8875   */\n      mload\n        /* \"#utility.yul\":8845:8876   */\n      iszero\n        /* \"#utility.yul\":8838:8877   */\n      iszero\n        /* \"#utility.yul\":8831:8835   */\n      0xc0\n        /* \"#utility.yul\":8826:8829   */\n      dup6\n        /* \"#utility.yul\":8822:8836   */\n      add\n        /* \"#utility.yul\":8815:8878   */\n      mstore\n        /* \"#utility.yul\":8926:8930   */\n      0xe0\n        /* \"#utility.yul\":8919:8924   */\n      dup4\n        /* \"#utility.yul\":8915:8931   */\n      add\n        /* \"#utility.yul\":8909:8932   */\n      mload\n        /* \"#utility.yul\":8941:8988   */\n      tag_691\n        /* \"#utility.yul\":8982:8986   */\n      0xe0\n        /* \"#utility.yul\":8977:8980   */\n      dup7\n        /* \"#utility.yul\":8973:8987   */\n      add\n        /* \"#utility.yul\":8957:8971   */\n      dup3\n        /* \"#utility.yul\":1316:1329   */\n      iszero\n        /* \"#utility.yul\":1309:1330   */\n      iszero\n        /* \"#utility.yul\":1297:1331   */\n      swap1\n      mstore\n        /* \"#utility.yul\":1246:1337   */\n      jump\n        /* \"#utility.yul\":8941:8988   */\n    tag_691:\n      pop\n        /* \"#utility.yul\":9004:9010   */\n      swap4\n        /* \"#utility.yul\":8174:9016   */\n      swap3\n      pop\n      pop\n      pop\n      jump\t// out\n        /* \"#utility.yul\":9021:9287   */\n    tag_97:\n        /* \"#utility.yul\":9204:9206   */\n      0x20\n        /* \"#utility.yul\":9193:9202   */\n      dup2\n        /* \"#utility.yul\":9186:9207   */\n      mstore\n        /* \"#utility.yul\":9167:9171   */\n      0x00\n        /* \"#utility.yul\":9224:9281   */\n      tag_644\n        /* \"#utility.yul\":9277:9279   */\n      0x20\n        /* \"#utility.yul\":9266:9275   */\n      dup4\n        /* \"#utility.yul\":9262:9280   */\n      add\n        /* \"#utility.yul\":9254:9260   */\n      dup5\n        /* \"#utility.yul\":9224:9281   */\n      tag_629\n      jump\t// in\n        /* \"#utility.yul\":9292:10333   */\n    tag_110:\n        /* \"#utility.yul\":9509:9511   */\n      0x20\n        /* \"#utility.yul\":9561:9582   */\n      dup1\n      dup3\n      mstore\n        /* \"#utility.yul\":9631:9644   */\n      dup3\n      mload\n        /* \"#utility.yul\":9534:9552   */\n      dup3\n      dup3\n      add\n        /* \"#utility.yul\":9653:9675   */\n      dup2\n      swap1\n      mstore\n        /* \"#utility.yul\":9480:9484   */\n      0x00\n      swap2\n        /* \"#utility.yul\":9509:9511   */\n      swap1\n        /* \"#utility.yul\":9694:9696   */\n      0x40\n      swap1\n        /* \"#utility.yul\":9712:9730   */\n      dup2\n      dup6\n      add\n      swap1\n        /* \"#utility.yul\":9753:9768   */\n      dup7\n      dup5\n      add\n        /* \"#utility.yul\":9480:9484   */\n      dup6\n        /* \"#utility.yul\":9796:10307   */\n    tag_695:\n        /* \"#utility.yul\":9810:9816   */\n      dup3\n        /* \"#utility.yul\":9807:9808   */\n      dup2\n        /* \"#utility.yul\":9804:9817   */\n      lt\n        /* \"#utility.yul\":9796:10307   */\n      iszero\n      tag_687\n      jumpi\n        /* \"#utility.yul\":9869:9882   */\n      dup2\n      mload\n        /* \"#utility.yul\":9907:9916   */\n      dup1\n      mload\n        /* \"#utility.yul\":9895:9917   */\n      dup6\n      mstore\n        /* \"#utility.yul\":9957:9968   */\n      dup7\n      dup2\n      add\n        /* \"#utility.yul\":9951:9969   */\n      mload\n        /* \"#utility.yul\":9937:9949   */\n      dup8\n      dup7\n      add\n        /* \"#utility.yul\":9930:9970   */\n      mstore\n        /* \"#utility.yul\":10014:10025   */\n      dup6\n      dup2\n      add\n        /* \"#utility.yul\":10008:10026   */\n      mload\n      sub(shl(0xa0, 0x01), 0x01)\n        /* \"#utility.yul\":10004:10048   */\n      and\n        /* \"#utility.yul\":9990:10002   */\n      dup7\n      dup7\n      add\n        /* \"#utility.yul\":9983:10049   */\n      mstore\n        /* \"#utility.yul\":10072:10076   */\n      0x60\n        /* \"#utility.yul\":10116:10127   */\n      dup1\n      dup3\n      add\n        /* \"#utility.yul\":10110:10128   */\n      mload\n        /* \"#utility.yul\":10096:10108   */\n      swap1\n      dup7\n      add\n        /* \"#utility.yul\":10089:10129   */\n      mstore\n        /* \"#utility.yul\":10152:10156   */\n      0x80\n        /* \"#utility.yul\":10210:10221   */\n      swap1\n      dup2\n      add\n        /* \"#utility.yul\":10204:10222   */\n      mload\n        /* \"#utility.yul\":10197:10223   */\n      iszero\n        /* \"#utility.yul\":10190:10224   */\n      iszero\n        /* \"#utility.yul\":10176:10188   */\n      swap1\n      dup6\n      add\n        /* \"#utility.yul\":10169:10225   */\n      mstore\n        /* \"#utility.yul\":10036:10039   */\n      0xa0\n        /* \"#utility.yul\":10245:10259   */\n      swap1\n      swap4\n      add\n      swap3\n        /* \"#utility.yul\":10282:10297   */\n      swap1\n      dup6\n      add\n      swap1\n        /* \"#utility.yul\":10045:10046   */\n      0x01\n        /* \"#utility.yul\":9825:9834   */\n      add\n        /* \"#utility.yul\":9796:10307   */\n      jump(tag_695)\n        /* \"#utility.yul\":10338:11024   */\n    tag_117:\n        /* \"#utility.yul\":10444:10450   */\n      0x00\n        /* \"#utility.yul\":10452:10458   */\n      dup1\n        /* \"#utility.yul\":10460:10466   */\n      0x00\n        /* \"#utility.yul\":10468:10474   */\n      dup1\n        /* \"#utility.yul\":10521:10524   */\n      0x80\n        /* \"#utility.yul\":10509:10518   */\n      dup6\n        /* \"#utility.yul\":10500:10507   */\n      dup8\n        /* \"#utility.yul\":10496:10519   */\n      sub\n        /* \"#utility.yul\":10492:10525   */\n      slt\n        /* \"#utility.yul\":10489:10542   */\n      iszero\n      tag_699\n      jumpi\n        /* \"#utility.yul\":10538:10539   */\n      0x00\n        /* \"#utility.yul\":10535:10536   */\n      dup1\n        /* \"#utility.yul\":10528:10540   */\n      revert\n        /* \"#utility.yul\":10489:10542   */\n    tag_699:\n        /* \"#utility.yul\":10561:10590   */\n      tag_700\n        /* \"#utility.yul\":10580:10589   */\n      dup6\n        /* \"#utility.yul\":10561:10590   */\n      tag_623\n      jump\t// in\n    tag_700:\n        /* \"#utility.yul\":10551:10590   */\n      swap4\n      pop\n        /* \"#utility.yul\":10641:10643   */\n      0x20\n        /* \"#utility.yul\":10630:10639   */\n      dup6\n        /* \"#utility.yul\":10626:10644   */\n      add\n        /* \"#utility.yul\":10613:10645   */\n      calldataload\n      sub(shl(0x40, 0x01), 0x01)\n        /* \"#utility.yul\":10705:10707   */\n      dup1\n        /* \"#utility.yul\":10697:10703   */\n      dup3\n        /* \"#utility.yul\":10694:10708   */\n      gt\n        /* \"#utility.yul\":10691:10725   */\n      iszero\n      tag_701\n      jumpi\n        /* \"#utility.yul\":10721:10722   */\n      0x00\n        /* \"#utility.yul\":10718:10719   */\n      dup1\n        /* \"#utility.yul\":10711:10723   */\n      revert\n        /* \"#utility.yul\":10691:10725   */\n    tag_701:\n        /* \"#utility.yul\":10744:10794   */\n      tag_702\n        /* \"#utility.yul\":10786:10793   */\n      dup9\n        /* \"#utility.yul\":10777:10783   */\n      dup4\n        /* \"#utility.yul\":10766:10775   */\n      dup10\n        /* \"#utility.yul\":10762:10784   */\n      add\n        /* \"#utility.yul\":10744:10794   */\n      tag_628\n      jump\t// in\n    tag_702:\n        /* \"#utility.yul\":10734:10794   */\n      swap5\n      pop\n        /* \"#utility.yul\":10847:10849   */\n      0x40\n        /* \"#utility.yul\":10836:10845   */\n      dup8\n        /* \"#utility.yul\":10832:10850   */\n      add\n        /* \"#utility.yul\":10819:10851   */\n      calldataload\n        /* \"#utility.yul\":10803:10851   */\n      swap2\n      pop\n        /* \"#utility.yul\":10876:10878   */\n      dup1\n        /* \"#utility.yul\":10866:10874   */\n      dup3\n        /* \"#utility.yul\":10863:10879   */\n      gt\n        /* \"#utility.yul\":10860:10896   */\n      iszero\n      tag_703\n      jumpi\n        /* \"#utility.yul\":10892:10893   */\n      0x00\n        /* \"#utility.yul\":10889:10890   */\n      dup1\n        /* \"#utility.yul\":10882:10894   */\n      revert\n        /* \"#utility.yul\":10860:10896   */\n    tag_703:\n      pop\n        /* \"#utility.yul\":10915:10967   */\n      tag_704\n        /* \"#utility.yul\":10959:10966   */\n      dup8\n        /* \"#utility.yul\":10948:10956   */\n      dup3\n        /* \"#utility.yul\":10937:10946   */\n      dup9\n        /* \"#utility.yul\":10933:10957   */\n      add\n        /* \"#utility.yul\":10915:10967   */\n      tag_628\n      jump\t// in\n    tag_704:\n        /* \"#utility.yul\":10338:11024   */\n      swap5\n      swap8\n      swap4\n      swap7\n      pop\n        /* \"#utility.yul\":10905:10967   */\n      swap4\n      swap5\n        /* \"#utility.yul\":11014:11016   */\n      0x60\n        /* \"#utility.yul\":10999:11017   */\n      add\n        /* \"#utility.yul\":10986:11018   */\n      calldataload\n      swap4\n      pop\n      pop\n      pop\n        /* \"#utility.yul\":10338:11024   */\n      jump\t// out\n        /* \"#utility.yul\":11029:11211   */\n    tag_630:\n        /* \"#utility.yul\":11088:11092   */\n      0x00\n      sub(shl(0x40, 0x01), 0x01)\n        /* \"#utility.yul\":11113:11119   */\n      dup3\n        /* \"#utility.yul\":11110:11140   */\n      gt\n        /* \"#utility.yul\":11107:11163   */\n      iszero\n      tag_707\n      jumpi\n        /* \"#utility.yul\":11143:11161   */\n      tag_707\n      tag_260\n      jump\t// in\n    tag_707:\n      pop\n        /* \"#utility.yul\":11188:11189   */\n      0x05\n        /* \"#utility.yul\":11184:11198   */\n      shl\n        /* \"#utility.yul\":11200:11204   */\n      0x20\n        /* \"#utility.yul\":11180:11205   */\n      add\n      swap1\n        /* \"#utility.yul\":11029:11211   */\n      jump\t// out\n        /* \"#utility.yul\":11216:12722   */\n    tag_145:\n        /* \"#utility.yul\":11365:11371   */\n      0x00\n        /* \"#utility.yul\":11373:11379   */\n      dup1\n        /* \"#utility.yul\":11381:11387   */\n      0x00\n        /* \"#utility.yul\":11389:11395   */\n      dup1\n        /* \"#utility.yul\":11397:11403   */\n      0x00\n        /* \"#utility.yul\":11405:11411   */\n      dup1\n        /* \"#utility.yul\":11458:11461   */\n      0xc0\n        /* \"#utility.yul\":11446:11455   */\n      dup8\n        /* \"#utility.yul\":11437:11444   */\n      dup10\n        /* \"#utility.yul\":11433:11456   */\n      sub\n        /* \"#utility.yul\":11429:11462   */\n      slt\n        /* \"#utility.yul\":11426:11479   */\n      iszero\n      tag_709\n      jumpi\n        /* \"#utility.yul\":11475:11476   */\n      0x00\n        /* \"#utility.yul\":11472:11473   */\n      dup1\n        /* \"#utility.yul\":11465:11477   */\n      revert\n        /* \"#utility.yul\":11426:11479   */\n    tag_709:\n        /* \"#utility.yul\":11498:11527   */\n      tag_710\n        /* \"#utility.yul\":11517:11526   */\n      dup8\n        /* \"#utility.yul\":11498:11527   */\n      tag_623\n      jump\t// in\n    tag_710:\n        /* \"#utility.yul\":11488:11527   */\n      swap6\n      pop\n        /* \"#utility.yul\":11546:11548   */\n      0x20\n        /* \"#utility.yul\":11599:11601   */\n      dup1\n        /* \"#utility.yul\":11588:11597   */\n      dup9\n        /* \"#utility.yul\":11584:11602   */\n      add\n        /* \"#utility.yul\":11571:11603   */\n      calldataload\n      sub(shl(0x40, 0x01), 0x01)\n        /* \"#utility.yul\":11663:11665   */\n      dup1\n        /* \"#utility.yul\":11655:11661   */\n      dup3\n        /* \"#utility.yul\":11652:11666   */\n      gt\n        /* \"#utility.yul\":11649:11683   */\n      iszero\n      tag_711\n      jumpi\n        /* \"#utility.yul\":11679:11680   */\n      0x00\n        /* \"#utility.yul\":11676:11677   */\n      dup1\n        /* \"#utility.yul\":11669:11681   */\n      revert\n        /* \"#utility.yul\":11649:11683   */\n    tag_711:\n        /* \"#utility.yul\":11702:11752   */\n      tag_712\n        /* \"#utility.yul\":11744:11751   */\n      dup12\n        /* \"#utility.yul\":11735:11741   */\n      dup4\n        /* \"#utility.yul\":11724:11733   */\n      dup13\n        /* \"#utility.yul\":11720:11742   */\n      add\n        /* \"#utility.yul\":11702:11752   */\n      tag_628\n      jump\t// in\n    tag_712:\n        /* \"#utility.yul\":11692:11752   */\n      swap8\n      pop\n        /* \"#utility.yul\":11799:11801   */\n      0x40\n        /* \"#utility.yul\":11788:11797   */\n      dup11\n        /* \"#utility.yul\":11784:11802   */\n      add\n        /* \"#utility.yul\":11771:11803   */\n      calldataload\n        /* \"#utility.yul\":11761:11803   */\n      swap7\n      pop\n        /* \"#utility.yul\":11850:11852   */\n      0x60\n        /* \"#utility.yul\":11839:11848   */\n      dup11\n        /* \"#utility.yul\":11835:11853   */\n      add\n        /* \"#utility.yul\":11822:11854   */\n      calldataload\n        /* \"#utility.yul\":11812:11854   */\n      swap6\n      pop\n        /* \"#utility.yul\":11907:11910   */\n      0x80\n        /* \"#utility.yul\":11896:11905   */\n      dup11\n        /* \"#utility.yul\":11892:11911   */\n      add\n        /* \"#utility.yul\":11879:11912   */\n      calldataload\n        /* \"#utility.yul\":11863:11912   */\n      swap2\n      pop\n        /* \"#utility.yul\":11937:11939   */\n      dup1\n        /* \"#utility.yul\":11927:11935   */\n      dup3\n        /* \"#utility.yul\":11924:11940   */\n      gt\n        /* \"#utility.yul\":11921:11957   */\n      iszero\n      tag_713\n      jumpi\n        /* \"#utility.yul\":11953:11954   */\n      0x00\n        /* \"#utility.yul\":11950:11951   */\n      dup1\n        /* \"#utility.yul\":11943:11955   */\n      revert\n        /* \"#utility.yul\":11921:11957   */\n    tag_713:\n        /* \"#utility.yul\":11991:11999   */\n      dup2\n        /* \"#utility.yul\":11980:11989   */\n      dup11\n        /* \"#utility.yul\":11976:12000   */\n      add\n        /* \"#utility.yul\":11966:12000   */\n      swap2\n      pop\n        /* \"#utility.yul\":12038:12045   */\n      dup11\n        /* \"#utility.yul\":12031:12035   */\n      0x1f\n        /* \"#utility.yul\":12027:12029   */\n      dup4\n        /* \"#utility.yul\":12023:12036   */\n      add\n        /* \"#utility.yul\":12019:12046   */\n      slt\n        /* \"#utility.yul\":12009:12064   */\n      tag_714\n      jumpi\n        /* \"#utility.yul\":12060:12061   */\n      0x00\n        /* \"#utility.yul\":12057:12058   */\n      dup1\n        /* \"#utility.yul\":12050:12062   */\n      revert\n        /* \"#utility.yul\":12009:12064   */\n    tag_714:\n        /* \"#utility.yul\":12096:12098   */\n      dup2\n        /* \"#utility.yul\":12083:12099   */\n      calldataload\n        /* \"#utility.yul\":12119:12178   */\n      tag_715\n        /* \"#utility.yul\":12135:12177   */\n      tag_716\n        /* \"#utility.yul\":12174:12176   */\n      dup3\n        /* \"#utility.yul\":12135:12177   */\n      tag_630\n      jump\t// in\n    tag_716:\n        /* \"#utility.yul\":12119:12178   */\n      tag_627\n      jump\t// in\n    tag_715:\n        /* \"#utility.yul\":12212:12227   */\n      dup2\n      dup2\n      mstore\n        /* \"#utility.yul\":12294:12295   */\n      0x05\n        /* \"#utility.yul\":12290:12300   */\n      swap2\n      swap1\n      swap2\n      shl\n        /* \"#utility.yul\":12282:12301   */\n      dup4\n      add\n        /* \"#utility.yul\":12278:12306   */\n      dup5\n      add\n      swap1\n        /* \"#utility.yul\":12243:12255   */\n      dup5\n      dup2\n      add\n      swap1\n        /* \"#utility.yul\":12318:12337   */\n      dup14\n      dup4\n      gt\n        /* \"#utility.yul\":12315:12354   */\n      iszero\n      tag_717\n      jumpi\n        /* \"#utility.yul\":12350:12351   */\n      0x00\n        /* \"#utility.yul\":12347:12348   */\n      dup1\n        /* \"#utility.yul\":12340:12352   */\n      revert\n        /* \"#utility.yul\":12315:12354   */\n    tag_717:\n        /* \"#utility.yul\":12382:12384   */\n      dup6\n        /* \"#utility.yul\":12378:12380   */\n      dup6\n        /* \"#utility.yul\":12374:12385   */\n      add\n        /* \"#utility.yul\":12394:12640   */\n    tag_718:\n        /* \"#utility.yul\":12410:12416   */\n      dup4\n        /* \"#utility.yul\":12405:12408   */\n      dup2\n        /* \"#utility.yul\":12402:12417   */\n      lt\n        /* \"#utility.yul\":12394:12640   */\n      iszero\n      tag_720\n      jumpi\n        /* \"#utility.yul\":12489:12491   */\n      dup5\n        /* \"#utility.yul\":12483:12486   */\n      dup2\n        /* \"#utility.yul\":12470:12487   */\n      calldataload\n        /* \"#utility.yul\":12467:12492   */\n      gt\n        /* \"#utility.yul\":12464:12509   */\n      iszero\n      tag_721\n      jumpi\n        /* \"#utility.yul\":12505:12506   */\n      0x00\n        /* \"#utility.yul\":12502:12503   */\n      dup1\n        /* \"#utility.yul\":12495:12507   */\n      revert\n        /* \"#utility.yul\":12464:12509   */\n    tag_721:\n        /* \"#utility.yul\":12534:12597   */\n      tag_722\n        /* \"#utility.yul\":12589:12596   */\n      dup16\n        /* \"#utility.yul\":12584:12586   */\n      dup9\n        /* \"#utility.yul\":12577:12580   */\n      dup4\n        /* \"#utility.yul\":12564:12581   */\n      calldataload\n        /* \"#utility.yul\":12560:12562   */\n      dup10\n        /* \"#utility.yul\":12556:12582   */\n      add\n        /* \"#utility.yul\":12552:12587   */\n      add\n        /* \"#utility.yul\":12534:12597   */\n      tag_628\n      jump\t// in\n    tag_722:\n        /* \"#utility.yul\":12522:12598   */\n      dup4\n      mstore\n        /* \"#utility.yul\":12618:12630   */\n      swap2\n      dup7\n      add\n      swap2\n        /* \"#utility.yul\":12427:12439   */\n      dup7\n      add\n        /* \"#utility.yul\":12394:12640   */\n      jump(tag_718)\n    tag_720:\n        /* \"#utility.yul\":12398:12401   */\n      pop\n        /* \"#utility.yul\":12659:12664   */\n      dup1\n        /* \"#utility.yul\":12649:12664   */\n      swap8\n      pop\n      pop\n      pop\n      pop\n      pop\n      pop\n      pop\n        /* \"#utility.yul\":12711:12714   */\n      0xa0\n        /* \"#utility.yul\":12700:12709   */\n      dup8\n        /* \"#utility.yul\":12696:12715   */\n      add\n        /* \"#utility.yul\":12683:12716   */\n      calldataload\n        /* \"#utility.yul\":12673:12716   */\n      swap1\n      pop\n        /* \"#utility.yul\":11216:12722   */\n      swap3\n      swap6\n      pop\n      swap3\n      swap6\n      pop\n      swap3\n      swap6\n      jump\t// out\n        /* \"#utility.yul\":14009:14858   */\n    tag_184:\n        /* \"#utility.yul\":14205:14209   */\n      0x00\n        /* \"#utility.yul\":14234:14236   */\n      0x20\n        /* \"#utility.yul\":14274:14276   */\n      dup1\n        /* \"#utility.yul\":14263:14272   */\n      dup4\n        /* \"#utility.yul\":14259:14277   */\n      add\n        /* \"#utility.yul\":14304:14306   */\n      dup2\n        /* \"#utility.yul\":14293:14302   */\n      dup5\n        /* \"#utility.yul\":14286:14307   */\n      mstore\n        /* \"#utility.yul\":14327:14333   */\n      dup1\n        /* \"#utility.yul\":14362:14368   */\n      dup6\n        /* \"#utility.yul\":14356:14369   */\n      mload\n        /* \"#utility.yul\":14393:14399   */\n      dup1\n        /* \"#utility.yul\":14385:14391   */\n      dup4\n        /* \"#utility.yul\":14378:14400   */\n      mstore\n        /* \"#utility.yul\":14431:14433   */\n      0x40\n        /* \"#utility.yul\":14420:14429   */\n      dup7\n        /* \"#utility.yul\":14416:14434   */\n      add\n        /* \"#utility.yul\":14409:14434   */\n      swap2\n      pop\n        /* \"#utility.yul\":14493:14495   */\n      0x40\n        /* \"#utility.yul\":14483:14489   */\n      dup2\n        /* \"#utility.yul\":14480:14481   */\n      0x05\n        /* \"#utility.yul\":14476:14490   */\n      shl\n        /* \"#utility.yul\":14465:14474   */\n      dup8\n        /* \"#utility.yul\":14461:14491   */\n      add\n        /* \"#utility.yul\":14457:14496   */\n      add\n        /* \"#utility.yul\":14443:14496   */\n      swap3\n      pop\n        /* \"#utility.yul\":14531:14533   */\n      dup4\n        /* \"#utility.yul\":14523:14529   */\n      dup8\n        /* \"#utility.yul\":14519:14534   */\n      add\n        /* \"#utility.yul\":14552:14553   */\n      0x00\n        /* \"#utility.yul\":14562:14829   */\n    tag_727:\n        /* \"#utility.yul\":14576:14582   */\n      dup3\n        /* \"#utility.yul\":14573:14574   */\n      dup2\n        /* \"#utility.yul\":14570:14583   */\n      lt\n        /* \"#utility.yul\":14562:14829   */\n      iszero\n      tag_657\n      jumpi\n        /* \"#utility.yul\":14669:14671   */\n      0x3f\n        /* \"#utility.yul\":14665:14672   */\n      not\n        /* \"#utility.yul\":14653:14662   */\n      dup9\n        /* \"#utility.yul\":14645:14651   */\n      dup7\n        /* \"#utility.yul\":14641:14663   */\n      sub\n        /* \"#utility.yul\":14637:14673   */\n      add\n        /* \"#utility.yul\":14632:14635   */\n      dup5\n        /* \"#utility.yul\":14625:14674   */\n      mstore\n        /* \"#utility.yul\":14697:14749   */\n      tag_730\n        /* \"#utility.yul\":14742:14748   */\n      dup6\n        /* \"#utility.yul\":14733:14739   */\n      dup4\n        /* \"#utility.yul\":14727:14740   */\n      mload\n        /* \"#utility.yul\":14697:14749   */\n      tag_629\n      jump\t// in\n    tag_730:\n        /* \"#utility.yul\":14687:14749   */\n      swap5\n      pop\n        /* \"#utility.yul\":14807:14819   */\n      swap3\n      dup6\n      add\n      swap3\n        /* \"#utility.yul\":14772:14787   */\n      swap1\n      dup6\n      add\n      swap1\n        /* \"#utility.yul\":14598:14599   */\n      0x01\n        /* \"#utility.yul\":14591:14600   */\n      add\n        /* \"#utility.yul\":14562:14829   */\n      jump(tag_727)\n        /* \"#utility.yul\":14863:15117   */\n    tag_191:\n        /* \"#utility.yul\":14931:14937   */\n      0x00\n        /* \"#utility.yul\":14939:14945   */\n      dup1\n        /* \"#utility.yul\":14992:14994   */\n      0x40\n        /* \"#utility.yul\":14980:14989   */\n      dup4\n        /* \"#utility.yul\":14971:14978   */\n      dup6\n        /* \"#utility.yul\":14967:14990   */\n      sub\n        /* \"#utility.yul\":14963:14995   */\n      slt\n        /* \"#utility.yul\":14960:15012   */\n      iszero\n      tag_732\n      jumpi\n        /* \"#utility.yul\":15008:15009   */\n      0x00\n        /* \"#utility.yul\":15005:15006   */\n      dup1\n        /* \"#utility.yul\":14998:15010   */\n      revert\n        /* \"#utility.yul\":14960:15012   */\n    tag_732:\n        /* \"#utility.yul\":15031:15060   */\n      tag_733\n        /* \"#utility.yul\":15050:15059   */\n      dup4\n        /* \"#utility.yul\":15031:15060   */\n      tag_623\n      jump\t// in\n    tag_733:\n        /* \"#utility.yul\":15021:15060   */\n      swap5\n        /* \"#utility.yul\":15107:15109   */\n      0x20\n        /* \"#utility.yul\":15092:15110   */\n      swap4\n      swap1\n      swap4\n      add\n        /* \"#utility.yul\":15079:15111   */\n      calldataload\n      swap4\n      pop\n      pop\n      pop\n        /* \"#utility.yul\":14863:15117   */\n      jump\t// out\n        /* \"#utility.yul\":15122:15513   */\n    tag_196:\n        /* \"#utility.yul\":15208:15214   */\n      0x00\n        /* \"#utility.yul\":15216:15222   */\n      dup1\n        /* \"#utility.yul\":15224:15230   */\n      0x00\n        /* \"#utility.yul\":15232:15238   */\n      dup1\n        /* \"#utility.yul\":15285:15288   */\n      0x80\n        /* \"#utility.yul\":15273:15282   */\n      dup6\n        /* \"#utility.yul\":15264:15271   */\n      dup8\n        /* \"#utility.yul\":15260:15283   */\n      sub\n        /* \"#utility.yul\":15256:15289   */\n      slt\n        /* \"#utility.yul\":15253:15306   */\n      iszero\n      tag_735\n      jumpi\n        /* \"#utility.yul\":15302:15303   */\n      0x00\n        /* \"#utility.yul\":15299:15300   */\n      dup1\n        /* \"#utility.yul\":15292:15304   */\n      revert\n        /* \"#utility.yul\":15253:15306   */\n    tag_735:\n        /* \"#utility.yul\":15338:15347   */\n      dup5\n        /* \"#utility.yul\":15325:15348   */\n      calldataload\n        /* \"#utility.yul\":15315:15348   */\n      swap4\n      pop\n        /* \"#utility.yul\":15395:15397   */\n      0x20\n        /* \"#utility.yul\":15384:15393   */\n      dup6\n        /* \"#utility.yul\":15380:15398   */\n      add\n        /* \"#utility.yul\":15367:15399   */\n      calldataload\n        /* \"#utility.yul\":15357:15399   */\n      swap3\n      pop\n        /* \"#utility.yul\":15446:15448   */\n      0x40\n        /* \"#utility.yul\":15435:15444   */\n      dup6\n        /* \"#utility.yul\":15431:15449   */\n      add\n        /* \"#utility.yul\":15418:15450   */\n      calldataload\n        /* \"#utility.yul\":15408:15450   */\n      swap2\n      pop\n        /* \"#utility.yul\":15469:15507   */\n      tag_736\n        /* \"#utility.yul\":15503:15505   */\n      0x60\n        /* \"#utility.yul\":15492:15501   */\n      dup7\n        /* \"#utility.yul\":15488:15506   */\n      add\n        /* \"#utility.yul\":15469:15507   */\n      tag_623\n      jump\t// in\n    tag_736:\n        /* \"#utility.yul\":15459:15507   */\n      swap1\n      pop\n        /* \"#utility.yul\":15122:15513   */\n      swap3\n      swap6\n      swap2\n      swap5\n      pop\n      swap3\n      pop\n      jump\t// out\n        /* \"#utility.yul\":15518:15769   */\n    tag_206:\n        /* \"#utility.yul\":15691:15693   */\n      0x20\n        /* \"#utility.yul\":15680:15689   */\n      dup2\n        /* \"#utility.yul\":15673:15694   */\n      mstore\n        /* \"#utility.yul\":15654:15658   */\n      0x00\n        /* \"#utility.yul\":15711:15763   */\n      tag_644\n        /* \"#utility.yul\":15759:15761   */\n      0x20\n        /* \"#utility.yul\":15748:15757   */\n      dup4\n        /* \"#utility.yul\":15744:15762   */\n      add\n        /* \"#utility.yul\":15736:15742   */\n      dup5\n        /* \"#utility.yul\":15711:15763   */\n      tag_626\n      jump\t// in\n        /* \"#utility.yul\":15774:15892   */\n    tag_631:\n        /* \"#utility.yul\":15860:15865   */\n      dup1\n        /* \"#utility.yul\":15853:15866   */\n      iszero\n        /* \"#utility.yul\":15846:15867   */\n      iszero\n        /* \"#utility.yul\":15839:15844   */\n      dup2\n        /* \"#utility.yul\":15836:15868   */\n      eq\n        /* \"#utility.yul\":15826:15886   */\n      tag_740\n      jumpi\n        /* \"#utility.yul\":15882:15883   */\n      0x00\n        /* \"#utility.yul\":15879:15880   */\n      dup1\n        /* \"#utility.yul\":15872:15884   */\n      revert\n        /* \"#utility.yul\":15826:15886   */\n    tag_740:\n        /* \"#utility.yul\":15774:15892   */\n      pop\n      jump\t// out\n        /* \"#utility.yul\":15897:16998   */\n    tag_209:\n        /* \"#utility.yul\":15996:16002   */\n      0x00\n        /* \"#utility.yul\":16004:16010   */\n      dup1\n        /* \"#utility.yul\":16012:16018   */\n      0x00\n        /* \"#utility.yul\":16065:16067   */\n      0x60\n        /* \"#utility.yul\":16053:16062   */\n      dup5\n        /* \"#utility.yul\":16044:16051   */\n      dup7\n        /* \"#utility.yul\":16040:16063   */\n      sub\n        /* \"#utility.yul\":16036:16068   */\n      slt\n        /* \"#utility.yul\":16033:16085   */\n      iszero\n      tag_742\n      jumpi\n        /* \"#utility.yul\":16081:16082   */\n      0x00\n        /* \"#utility.yul\":16078:16079   */\n      dup1\n        /* \"#utility.yul\":16071:16083   */\n      revert\n        /* \"#utility.yul\":16033:16085   */\n    tag_742:\n        /* \"#utility.yul\":16117:16126   */\n      dup4\n        /* \"#utility.yul\":16104:16127   */\n      calldataload\n        /* \"#utility.yul\":16094:16127   */\n      swap3\n      pop\n        /* \"#utility.yul\":16146:16148   */\n      0x20\n        /* \"#utility.yul\":16167:16205   */\n      tag_743\n        /* \"#utility.yul\":16201:16203   */\n      dup2\n        /* \"#utility.yul\":16190:16199   */\n      dup7\n        /* \"#utility.yul\":16186:16204   */\n      add\n        /* \"#utility.yul\":16167:16205   */\n      tag_623\n      jump\t// in\n    tag_743:\n        /* \"#utility.yul\":16157:16205   */\n      swap3\n      pop\n        /* \"#utility.yul\":16256:16258   */\n      0x40\n        /* \"#utility.yul\":16245:16254   */\n      dup6\n        /* \"#utility.yul\":16241:16259   */\n      add\n        /* \"#utility.yul\":16228:16260   */\n      calldataload\n      sub(shl(0x40, 0x01), 0x01)\n        /* \"#utility.yul\":16275:16281   */\n      dup2\n        /* \"#utility.yul\":16272:16302   */\n      gt\n        /* \"#utility.yul\":16269:16319   */\n      iszero\n      tag_744\n      jumpi\n        /* \"#utility.yul\":16315:16316   */\n      0x00\n        /* \"#utility.yul\":16312:16313   */\n      dup1\n        /* \"#utility.yul\":16305:16317   */\n      revert\n        /* \"#utility.yul\":16269:16319   */\n    tag_744:\n        /* \"#utility.yul\":16338:16360   */\n      dup6\n      add\n        /* \"#utility.yul\":16391:16395   */\n      0x1f\n        /* \"#utility.yul\":16383:16396   */\n      dup2\n      add\n        /* \"#utility.yul\":16379:16406   */\n      dup8\n      sgt\n        /* \"#utility.yul\":16369:16424   */\n      tag_745\n      jumpi\n        /* \"#utility.yul\":16420:16421   */\n      0x00\n        /* \"#utility.yul\":16417:16418   */\n      dup1\n        /* \"#utility.yul\":16410:16422   */\n      revert\n        /* \"#utility.yul\":16369:16424   */\n    tag_745:\n        /* \"#utility.yul\":16456:16458   */\n      dup1\n        /* \"#utility.yul\":16443:16459   */\n      calldataload\n        /* \"#utility.yul\":16479:16538   */\n      tag_746\n        /* \"#utility.yul\":16495:16537   */\n      tag_716\n        /* \"#utility.yul\":16534:16536   */\n      dup3\n        /* \"#utility.yul\":16495:16537   */\n      tag_630\n      jump\t// in\n        /* \"#utility.yul\":16479:16538   */\n    tag_746:\n        /* \"#utility.yul\":16572:16587   */\n      dup2\n      dup2\n      mstore\n        /* \"#utility.yul\":16654:16655   */\n      0x05\n        /* \"#utility.yul\":16650:16660   */\n      swap2\n      swap1\n      swap2\n      shl\n        /* \"#utility.yul\":16642:16661   */\n      dup3\n      add\n        /* \"#utility.yul\":16638:16666   */\n      dup4\n      add\n      swap1\n        /* \"#utility.yul\":16603:16615   */\n      dup4\n      dup2\n      add\n      swap1\n        /* \"#utility.yul\":16678:16697   */\n      dup10\n      dup4\n      gt\n        /* \"#utility.yul\":16675:16714   */\n      iszero\n      tag_748\n      jumpi\n        /* \"#utility.yul\":16710:16711   */\n      0x00\n        /* \"#utility.yul\":16707:16708   */\n      dup1\n        /* \"#utility.yul\":16700:16712   */\n      revert\n        /* \"#utility.yul\":16675:16714   */\n    tag_748:\n        /* \"#utility.yul\":16734:16745   */\n      swap3\n      dup5\n      add\n      swap3\n        /* \"#utility.yul\":16754:16968   */\n    tag_749:\n        /* \"#utility.yul\":16770:16776   */\n      dup3\n        /* \"#utility.yul\":16765:16768   */\n      dup5\n        /* \"#utility.yul\":16762:16777   */\n      lt\n        /* \"#utility.yul\":16754:16968   */\n      iszero\n      tag_751\n      jumpi\n        /* \"#utility.yul\":16850:16853   */\n      dup4\n        /* \"#utility.yul\":16837:16854   */\n      calldataload\n        /* \"#utility.yul\":16867:16895   */\n      tag_752\n        /* \"#utility.yul\":16889:16894   */\n      dup2\n        /* \"#utility.yul\":16867:16895   */\n      tag_631\n      jump\t// in\n    tag_752:\n        /* \"#utility.yul\":16908:16926   */\n      dup3\n      mstore\n        /* \"#utility.yul\":16787:16799   */\n      swap3\n      dup5\n      add\n      swap3\n        /* \"#utility.yul\":16946:16958   */\n      swap1\n      dup5\n      add\n      swap1\n        /* \"#utility.yul\":16754:16968   */\n      jump(tag_749)\n    tag_751:\n        /* \"#utility.yul\":16987:16992   */\n      dup1\n        /* \"#utility.yul\":16977:16992   */\n      swap6\n      pop\n      pop\n      pop\n      pop\n      pop\n      pop\n        /* \"#utility.yul\":15897:16998   */\n      swap3\n      pop\n      swap3\n      pop\n      swap3\n      jump\t// out\n        /* \"#utility.yul\":17003:18243   */\n    tag_223:\n        /* \"#utility.yul\":17193:17197   */\n      0x00\n        /* \"#utility.yul\":17222:17224   */\n      0x20\n        /* \"#utility.yul\":17262:17264   */\n      dup1\n        /* \"#utility.yul\":17251:17260   */\n      dup4\n        /* \"#utility.yul\":17247:17265   */\n      add\n        /* \"#utility.yul\":17292:17294   */\n      dup2\n        /* \"#utility.yul\":17281:17290   */\n      dup5\n        /* \"#utility.yul\":17274:17295   */\n      mstore\n        /* \"#utility.yul\":17315:17321   */\n      dup1\n        /* \"#utility.yul\":17350:17356   */\n      dup6\n        /* \"#utility.yul\":17344:17357   */\n      mload\n        /* \"#utility.yul\":17381:17387   */\n      dup1\n        /* \"#utility.yul\":17373:17379   */\n      dup4\n        /* \"#utility.yul\":17366:17388   */\n      mstore\n        /* \"#utility.yul\":17407:17409   */\n      0x40\n        /* \"#utility.yul\":17397:17409   */\n      swap3\n      pop\n        /* \"#utility.yul\":17440:17442   */\n      dup3\n        /* \"#utility.yul\":17429:17438   */\n      dup7\n        /* \"#utility.yul\":17425:17443   */\n      add\n        /* \"#utility.yul\":17418:17443   */\n      swap2\n      pop\n        /* \"#utility.yul\":17502:17504   */\n      dup3\n        /* \"#utility.yul\":17492:17498   */\n      dup2\n        /* \"#utility.yul\":17489:17490   */\n      0x05\n        /* \"#utility.yul\":17485:17499   */\n      shl\n        /* \"#utility.yul\":17474:17483   */\n      dup8\n        /* \"#utility.yul\":17470:17500   */\n      add\n        /* \"#utility.yul\":17466:17505   */\n      add\n        /* \"#utility.yul\":17540:17542   */\n      dup5\n        /* \"#utility.yul\":17532:17538   */\n      dup9\n        /* \"#utility.yul\":17528:17543   */\n      add\n        /* \"#utility.yul\":17561:17562   */\n      0x00\n        /* \"#utility.yul\":17571:18214   */\n    tag_754:\n        /* \"#utility.yul\":17585:17591   */\n      dup4\n        /* \"#utility.yul\":17582:17583   */\n      dup2\n        /* \"#utility.yul\":17579:17592   */\n      lt\n        /* \"#utility.yul\":17571:18214   */\n      iszero\n      tag_756\n      jumpi\n        /* \"#utility.yul\":17678:17680   */\n      0x3f\n        /* \"#utility.yul\":17674:17681   */\n      not\n        /* \"#utility.yul\":17662:17671   */\n      dup10\n        /* \"#utility.yul\":17654:17660   */\n      dup5\n        /* \"#utility.yul\":17650:17672   */\n      sub\n        /* \"#utility.yul\":17646:17682   */\n      add\n        /* \"#utility.yul\":17641:17644   */\n      dup6\n        /* \"#utility.yul\":17634:17683   */\n      mstore\n        /* \"#utility.yul\":17712:17718   */\n      dup2\n        /* \"#utility.yul\":17706:17719   */\n      mload\n        /* \"#utility.yul\":17742:17746   */\n      0x80\n        /* \"#utility.yul\":17780:17782   */\n      dup2\n        /* \"#utility.yul\":17774:17783   */\n      mload\n        /* \"#utility.yul\":17766:17772   */\n      dup6\n        /* \"#utility.yul\":17759:17784   */\n      mstore\n        /* \"#utility.yul\":17835:17837   */\n      dup9\n        /* \"#utility.yul\":17831:17833   */\n      dup3\n        /* \"#utility.yul\":17827:17838   */\n      add\n        /* \"#utility.yul\":17821:17839   */\n      mload\n        /* \"#utility.yul\":17816:17818   */\n      dup10\n        /* \"#utility.yul\":17808:17814   */\n      dup7\n        /* \"#utility.yul\":17804:17819   */\n      add\n        /* \"#utility.yul\":17797:17840   */\n      mstore\n        /* \"#utility.yul\":17887:17889   */\n      dup8\n        /* \"#utility.yul\":17883:17885   */\n      dup3\n        /* \"#utility.yul\":17879:17890   */\n      add\n        /* \"#utility.yul\":17873:17891   */\n      mload\n        /* \"#utility.yul\":17928:17930   */\n      dup2\n        /* \"#utility.yul\":17923:17925   */\n      dup10\n        /* \"#utility.yul\":17915:17921   */\n      dup8\n        /* \"#utility.yul\":17911:17926   */\n      add\n        /* \"#utility.yul\":17904:17931   */\n      mstore\n        /* \"#utility.yul\":17958:18006   */\n      tag_757\n        /* \"#utility.yul\":18002:18004   */\n      dup3\n        /* \"#utility.yul\":17994:18000   */\n      dup8\n        /* \"#utility.yul\":17990:18005   */\n      add\n        /* \"#utility.yul\":17976:17988   */\n      dup3\n        /* \"#utility.yul\":17958:18006   */\n      tag_624\n      jump\t// in\n    tag_757:\n        /* \"#utility.yul\":18029:18033   */\n      0x60\n        /* \"#utility.yul\":18090:18101   */\n      swap4\n      dup5\n      add\n        /* \"#utility.yul\":18084:18102   */\n      mload\n        /* \"#utility.yul\":18077:18103   */\n      iszero\n        /* \"#utility.yul\":18070:18104   */\n      iszero\n        /* \"#utility.yul\":18053:18068   */\n      swap7\n      swap1\n      swap4\n      add\n        /* \"#utility.yul\":18046:18105   */\n      swap6\n      swap1\n      swap6\n      mstore\n      pop\n        /* \"#utility.yul\":18192:18204   */\n      swap5\n      dup8\n      add\n      swap5\n        /* \"#utility.yul\":17944:18006   */\n      swap3\n      pop\n        /* \"#utility.yul\":18157:18172   */\n      swap1\n      dup7\n      add\n      swap1\n        /* \"#utility.yul\":17607:17608   */\n      0x01\n        /* \"#utility.yul\":17600:17609   */\n      add\n        /* \"#utility.yul\":17571:18214   */\n      jump(tag_754)\n    tag_756:\n      pop\n        /* \"#utility.yul\":18231:18237   */\n      swap1\n      swap9\n        /* \"#utility.yul\":17003:18243   */\n      swap8\n      pop\n      pop\n      pop\n      pop\n      pop\n      pop\n      pop\n      pop\n      jump\t// out\n        /* \"#utility.yul\":18248:18955   */\n    tag_228:\n        /* \"#utility.yul\":18529:18554   */\n      dup8\n      dup2\n      mstore\n      sub(shl(0xa0, 0x01), 0x01)\n        /* \"#utility.yul\":18590:18622   */\n      dup8\n      and\n        /* \"#utility.yul\":18585:18587   */\n      0x20\n        /* \"#utility.yul\":18570:18588   */\n      dup3\n      add\n        /* \"#utility.yul\":18563:18623   */\n      mstore\n        /* \"#utility.yul\":18659:18662   */\n      0xe0\n        /* \"#utility.yul\":18654:18656   */\n      0x40\n        /* \"#utility.yul\":18639:18657   */\n      dup3\n      add\n        /* \"#utility.yul\":18632:18663   */\n      dup2\n      swap1\n      mstore\n      0x00\n      swap1\n        /* \"#utility.yul\":18680:18726   */\n      tag_759\n      swap1\n        /* \"#utility.yul\":18706:18725   */\n      dup4\n      add\n        /* \"#utility.yul\":18698:18704   */\n      dup9\n        /* \"#utility.yul\":18680:18726   */\n      tag_624\n      jump\t// in\n    tag_759:\n        /* \"#utility.yul\":18757:18759   */\n      0x60\n        /* \"#utility.yul\":18742:18760   */\n      dup4\n      add\n        /* \"#utility.yul\":18735:18769   */\n      swap7\n      swap1\n      swap7\n      mstore\n      pop\n        /* \"#utility.yul\":18813:18827   */\n      swap3\n      iszero\n        /* \"#utility.yul\":18806:18828   */\n      iszero\n        /* \"#utility.yul\":18800:18803   */\n      0x80\n        /* \"#utility.yul\":18785:18804   */\n      dup5\n      add\n        /* \"#utility.yul\":18778:18829   */\n      mstore\n        /* \"#utility.yul\":18873:18887   */\n      swap1\n      iszero\n        /* \"#utility.yul\":18866:18888   */\n      iszero\n        /* \"#utility.yul\":18860:18863   */\n      0xa0\n        /* \"#utility.yul\":18845:18864   */\n      dup4\n      add\n        /* \"#utility.yul\":18838:18889   */\n      mstore\n        /* \"#utility.yul\":18933:18947   */\n      iszero\n        /* \"#utility.yul\":18926:18948   */\n      iszero\n        /* \"#utility.yul\":18920:18923   */\n      0xc0\n        /* \"#utility.yul\":18905:18924   */\n      swap1\n      swap2\n      add\n        /* \"#utility.yul\":18898:18949   */\n      mstore\n        /* \"#utility.yul\":18672:18726   */\n      swap4\n        /* \"#utility.yul\":18248:18955   */\n      swap3\n      pop\n      pop\n      pop\n      jump\t// out\n        /* \"#utility.yul\":18960:19405   */\n    tag_233:\n        /* \"#utility.yul\":19187:19193   */\n      dup5\n        /* \"#utility.yul\":19176:19185   */\n      dup2\n        /* \"#utility.yul\":19169:19194   */\n      mstore\n        /* \"#utility.yul\":19230:19236   */\n      dup4\n        /* \"#utility.yul\":19225:19227   */\n      0x20\n        /* \"#utility.yul\":19214:19223   */\n      dup3\n        /* \"#utility.yul\":19210:19228   */\n      add\n        /* \"#utility.yul\":19203:19237   */\n      mstore\n        /* \"#utility.yul\":19273:19276   */\n      0x80\n        /* \"#utility.yul\":19268:19270   */\n      0x40\n        /* \"#utility.yul\":19257:19266   */\n      dup3\n        /* \"#utility.yul\":19253:19271   */\n      add\n        /* \"#utility.yul\":19246:19277   */\n      mstore\n        /* \"#utility.yul\":19150:19154   */\n      0x00\n        /* \"#utility.yul\":19294:19340   */\n      tag_761\n        /* \"#utility.yul\":19335:19338   */\n      0x80\n        /* \"#utility.yul\":19324:19333   */\n      dup4\n        /* \"#utility.yul\":19320:19339   */\n      add\n        /* \"#utility.yul\":19312:19318   */\n      dup6\n        /* \"#utility.yul\":19294:19340   */\n      tag_624\n      jump\t// in\n    tag_761:\n        /* \"#utility.yul\":19286:19340   */\n      swap1\n      pop\n        /* \"#utility.yul\":19390:19396   */\n      dup3\n        /* \"#utility.yul\":19383:19397   */\n      iszero\n        /* \"#utility.yul\":19376:19398   */\n      iszero\n        /* \"#utility.yul\":19371:19373   */\n      0x60\n        /* \"#utility.yul\":19360:19369   */\n      dup4\n        /* \"#utility.yul\":19356:19374   */\n      add\n        /* \"#utility.yul\":19349:19399   */\n      mstore\n        /* \"#utility.yul\":18960:19405   */\n      swap6\n      swap5\n      pop\n      pop\n      pop\n      pop\n      pop\n      jump\t// out\n        /* \"#utility.yul\":19410:19537   */\n    tag_632:\n        /* \"#utility.yul\":19471:19481   */\n      0x4e487b71\n        /* \"#utility.yul\":19466:19469   */\n      0xe0\n        /* \"#utility.yul\":19462:19482   */\n      shl\n        /* \"#utility.yul\":19459:19460   */\n      0x00\n        /* \"#utility.yul\":19452:19483   */\n      mstore\n        /* \"#utility.yul\":19502:19506   */\n      0x11\n        /* \"#utility.yul\":19499:19500   */\n      0x04\n        /* \"#utility.yul\":19492:19507   */\n      mstore\n        /* \"#utility.yul\":19526:19530   */\n      0x24\n        /* \"#utility.yul\":19523:19524   */\n      0x00\n        /* \"#utility.yul\":19516:19531   */\n      revert\n        /* \"#utility.yul\":19542:19710   */\n    tag_236:\n        /* \"#utility.yul\":19615:19624   */\n      dup1\n      dup3\n      mul\n        /* \"#utility.yul\":19646:19655   */\n      dup2\n      iszero\n        /* \"#utility.yul\":19663:19678   */\n      dup3\n      dup3\n      div\n        /* \"#utility.yul\":19657:19679   */\n      dup5\n      eq\n        /* \"#utility.yul\":19643:19680   */\n      or\n        /* \"#utility.yul\":19633:19704   */\n      tag_234\n      jumpi\n        /* \"#utility.yul\":19684:19702   */\n      tag_234\n      tag_632\n      jump\t// in\n        /* \"#utility.yul\":19715:19840   */\n    tag_238:\n        /* \"#utility.yul\":19780:19789   */\n      dup1\n      dup3\n      add\n        /* \"#utility.yul\":19801:19811   */\n      dup1\n      dup3\n      gt\n        /* \"#utility.yul\":19798:19834   */\n      iszero\n      tag_234\n      jumpi\n        /* \"#utility.yul\":19814:19832   */\n      tag_234\n      tag_632\n      jump\t// in\n        /* \"#utility.yul\":19845:20225   */\n    tag_252:\n        /* \"#utility.yul\":19924:19925   */\n      0x01\n        /* \"#utility.yul\":19920:19932   */\n      dup2\n      dup2\n      shr\n      swap1\n        /* \"#utility.yul\":19967:19979   */\n      dup3\n      and\n      dup1\n        /* \"#utility.yul\":19988:20049   */\n      tag_770\n      jumpi\n        /* \"#utility.yul\":20042:20046   */\n      0x7f\n        /* \"#utility.yul\":20034:20040   */\n      dup3\n        /* \"#utility.yul\":20030:20047   */\n      and\n        /* \"#utility.yul\":20020:20047   */\n      swap2\n      pop\n        /* \"#utility.yul\":19988:20049   */\n    tag_770:\n        /* \"#utility.yul\":20095:20097   */\n      0x20\n        /* \"#utility.yul\":20087:20093   */\n      dup3\n        /* \"#utility.yul\":20084:20098   */\n      lt\n        /* \"#utility.yul\":20064:20082   */\n      dup2\n        /* \"#utility.yul\":20061:20099   */\n      sub\n        /* \"#utility.yul\":20058:20219   */\n      tag_771\n      jumpi\n        /* \"#utility.yul\":20141:20151   */\n      0x4e487b71\n        /* \"#utility.yul\":20136:20139   */\n      0xe0\n        /* \"#utility.yul\":20132:20152   */\n      shl\n        /* \"#utility.yul\":20129:20130   */\n      0x00\n        /* \"#utility.yul\":20122:20153   */\n      mstore\n        /* \"#utility.yul\":20176:20180   */\n      0x22\n        /* \"#utility.yul\":20173:20174   */\n      0x04\n        /* \"#utility.yul\":20166:20181   */\n      mstore\n        /* \"#utility.yul\":20204:20208   */\n      0x24\n        /* \"#utility.yul\":20201:20202   */\n      0x00\n        /* \"#utility.yul\":20194:20209   */\n      revert\n        /* \"#utility.yul\":20058:20219   */\n    tag_771:\n      pop\n        /* \"#utility.yul\":19845:20225   */\n      swap2\n      swap1\n      pop\n      jump\t// out\n        /* \"#utility.yul\":20230:20357   */\n    tag_270:\n        /* \"#utility.yul\":20291:20301   */\n      0x4e487b71\n        /* \"#utility.yul\":20286:20289   */\n      0xe0\n        /* \"#utility.yul\":20282:20302   */\n      shl\n        /* \"#utility.yul\":20279:20280   */\n      0x00\n        /* \"#utility.yul\":20272:20303   */\n      mstore\n        /* \"#utility.yul\":20322:20326   */\n      0x32\n        /* \"#utility.yul\":20319:20320   */\n      0x04\n        /* \"#utility.yul\":20312:20327   */\n      mstore\n        /* \"#utility.yul\":20346:20350   */\n      0x24\n        /* \"#utility.yul\":20343:20344   */\n      0x00\n        /* \"#utility.yul\":20336:20351   */\n      revert\n        /* \"#utility.yul\":20362:20497   */\n    tag_281:\n        /* \"#utility.yul\":20401:20404   */\n      0x00\n        /* \"#utility.yul\":20422:20439   */\n      0x01\n      dup3\n      add\n        /* \"#utility.yul\":20419:20462   */\n      tag_775\n      jumpi\n        /* \"#utility.yul\":20442:20460   */\n      tag_775\n      tag_632\n      jump\t// in\n    tag_775:\n      pop\n        /* \"#utility.yul\":20489:20490   */\n      0x01\n        /* \"#utility.yul\":20478:20491   */\n      add\n      swap1\n        /* \"#utility.yul\":20362:20497   */\n      jump\t// out\n        /* \"#utility.yul\":20628:21173   */\n    tag_634:\n        /* \"#utility.yul\":20730:20732   */\n      0x1f\n        /* \"#utility.yul\":20725:20728   */\n      dup3\n        /* \"#utility.yul\":20722:20733   */\n      gt\n        /* \"#utility.yul\":20719:21167   */\n      iszero\n      tag_778\n      jumpi\n        /* \"#utility.yul\":20766:20767   */\n      0x00\n        /* \"#utility.yul\":20791:20796   */\n      dup2\n        /* \"#utility.yul\":20787:20789   */\n      dup2\n        /* \"#utility.yul\":20780:20797   */\n      mstore\n        /* \"#utility.yul\":20836:20840   */\n      0x20\n        /* \"#utility.yul\":20832:20834   */\n      dup2\n        /* \"#utility.yul\":20822:20841   */\n      keccak256\n        /* \"#utility.yul\":20906:20908   */\n      0x1f\n        /* \"#utility.yul\":20894:20904   */\n      dup6\n        /* \"#utility.yul\":20890:20909   */\n      add\n        /* \"#utility.yul\":20887:20888   */\n      0x05\n        /* \"#utility.yul\":20883:20910   */\n      shr\n        /* \"#utility.yul\":20877:20881   */\n      dup2\n        /* \"#utility.yul\":20873:20911   */\n      add\n        /* \"#utility.yul\":20942:20946   */\n      0x20\n        /* \"#utility.yul\":20930:20940   */\n      dup7\n        /* \"#utility.yul\":20927:20947   */\n      lt\n        /* \"#utility.yul\":20924:20971   */\n      iszero\n      tag_779\n      jumpi\n      pop\n        /* \"#utility.yul\":20965:20969   */\n      dup1\n        /* \"#utility.yul\":20924:20971   */\n    tag_779:\n        /* \"#utility.yul\":21020:21022   */\n      0x1f\n        /* \"#utility.yul\":21015:21018   */\n      dup6\n        /* \"#utility.yul\":21011:21023   */\n      add\n        /* \"#utility.yul\":21008:21009   */\n      0x05\n        /* \"#utility.yul\":21004:21024   */\n      shr\n        /* \"#utility.yul\":20998:21002   */\n      dup3\n        /* \"#utility.yul\":20994:21025   */\n      add\n        /* \"#utility.yul\":20984:21025   */\n      swap2\n      pop\n        /* \"#utility.yul\":21075:21157   */\n    tag_780:\n        /* \"#utility.yul\":21093:21095   */\n      dup2\n        /* \"#utility.yul\":21086:21091   */\n      dup2\n        /* \"#utility.yul\":21083:21096   */\n      lt\n        /* \"#utility.yul\":21075:21157   */\n      iszero\n      tag_782\n      jumpi\n        /* \"#utility.yul\":21138:21155   */\n      dup3\n      dup2\n      sstore\n        /* \"#utility.yul\":21119:21120   */\n      0x01\n        /* \"#utility.yul\":21108:21121   */\n      add\n        /* \"#utility.yul\":21075:21157   */\n      jump(tag_780)\n    tag_782:\n        /* \"#utility.yul\":21079:21082   */\n      pop\n      pop\n      pop\n        /* \"#utility.yul\":20719:21167   */\n    tag_778:\n        /* \"#utility.yul\":20628:21173   */\n      pop\n      pop\n      pop\n      jump\t// out\n        /* \"#utility.yul\":21349:22701   */\n    tag_302:\n        /* \"#utility.yul\":21475:21478   */\n      dup2\n        /* \"#utility.yul\":21469:21479   */\n      mload\n      sub(shl(0x40, 0x01), 0x01)\n        /* \"#utility.yul\":21494:21500   */\n      dup2\n        /* \"#utility.yul\":21491:21521   */\n      gt\n        /* \"#utility.yul\":21488:21544   */\n      iszero\n      tag_786\n      jumpi\n        /* \"#utility.yul\":21524:21542   */\n      tag_786\n      tag_260\n      jump\t// in\n    tag_786:\n        /* \"#utility.yul\":21553:21650   */\n      tag_787\n        /* \"#utility.yul\":21643:21649   */\n      dup2\n        /* \"#utility.yul\":21603:21641   */\n      tag_788\n        /* \"#utility.yul\":21635:21639   */\n      dup5\n        /* \"#utility.yul\":21629:21640   */\n      sload\n        /* \"#utility.yul\":21603:21641   */\n      tag_252\n      jump\t// in\n    tag_788:\n        /* \"#utility.yul\":21597:21601   */\n      dup5\n        /* \"#utility.yul\":21553:21650   */\n      tag_634\n      jump\t// in\n    tag_787:\n        /* \"#utility.yul\":21705:21709   */\n      0x20\n      dup1\n        /* \"#utility.yul\":21769:21771   */\n      0x1f\n        /* \"#utility.yul\":21758:21772   */\n      dup4\n      gt\n        /* \"#utility.yul\":21786:21787   */\n      0x01\n        /* \"#utility.yul\":21781:22444   */\n      dup2\n      eq\n      tag_790\n      jumpi\n        /* \"#utility.yul\":22488:22489   */\n      0x00\n        /* \"#utility.yul\":22505:22511   */\n      dup5\n        /* \"#utility.yul\":22502:22591   */\n      iszero\n      tag_791\n      jumpi\n      pop\n        /* \"#utility.yul\":22557:22576   */\n      dup6\n      dup4\n      add\n        /* \"#utility.yul\":22551:22577   */\n      mload\n        /* \"#utility.yul\":22502:22591   */\n    tag_791:\n      not(0x00)\n        /* \"#utility.yul\":21306:21307   */\n      0x03\n        /* \"#utility.yul\":21302:21313   */\n      dup7\n      swap1\n      shl\n        /* \"#utility.yul\":21298:21322   */\n      shr\n        /* \"#utility.yul\":21294:21323   */\n      not\n        /* \"#utility.yul\":21284:21324   */\n      and\n        /* \"#utility.yul\":21330:21331   */\n      0x01\n        /* \"#utility.yul\":21326:21337   */\n      dup6\n      swap1\n      shl\n        /* \"#utility.yul\":21281:21338   */\n      or\n        /* \"#utility.yul\":22604:22685   */\n      dup6\n      sstore\n        /* \"#utility.yul\":21751:22695   */\n      jump(tag_782)\n        /* \"#utility.yul\":21781:22444   */\n    tag_790:\n        /* \"#utility.yul\":20575:20576   */\n      0x00\n        /* \"#utility.yul\":20568:20582   */\n      dup6\n      dup2\n      mstore\n        /* \"#utility.yul\":20612:20616   */\n      0x20\n        /* \"#utility.yul\":20599:20617   */\n      dup2\n      keccak256\n      not(0x1f)\n        /* \"#utility.yul\":21817:21837   */\n      dup7\n      and\n      swap2\n        /* \"#utility.yul\":21935:22171   */\n    tag_794:\n        /* \"#utility.yul\":21949:21956   */\n      dup3\n        /* \"#utility.yul\":21946:21947   */\n      dup2\n        /* \"#utility.yul\":21943:21957   */\n      lt\n        /* \"#utility.yul\":21935:22171   */\n      iszero\n      tag_796\n      jumpi\n        /* \"#utility.yul\":22038:22057   */\n      dup9\n      dup7\n      add\n        /* \"#utility.yul\":22032:22058   */\n      mload\n        /* \"#utility.yul\":22017:22059   */\n      dup3\n      sstore\n        /* \"#utility.yul\":22130:22157   */\n      swap5\n      dup5\n      add\n      swap5\n        /* \"#utility.yul\":22098:22099   */\n      0x01\n        /* \"#utility.yul\":22086:22100   */\n      swap1\n      swap2\n      add\n      swap1\n        /* \"#utility.yul\":21965:21984   */\n      dup5\n      add\n        /* \"#utility.yul\":21935:22171   */\n      jump(tag_794)\n    tag_796:\n        /* \"#utility.yul\":21939:21942   */\n      pop\n        /* \"#utility.yul\":22199:22205   */\n      dup6\n        /* \"#utility.yul\":22190:22197   */\n      dup3\n        /* \"#utility.yul\":22187:22206   */\n      lt\n        /* \"#utility.yul\":22184:22385   */\n      iszero\n      tag_797\n      jumpi\n        /* \"#utility.yul\":22260:22279   */\n      dup8\n      dup6\n      add\n        /* \"#utility.yul\":22254:22280   */\n      mload\n      not(0x00)\n        /* \"#utility.yul\":22343:22344   */\n      0x03\n        /* \"#utility.yul\":22339:22353   */\n      dup9\n      swap1\n      shl\n        /* \"#utility.yul\":22355:22358   */\n      0xf8\n        /* \"#utility.yul\":22335:22359   */\n      and\n        /* \"#utility.yul\":22331:22368   */\n      shr\n        /* \"#utility.yul\":22327:22369   */\n      not\n        /* \"#utility.yul\":22312:22370   */\n      and\n        /* \"#utility.yul\":22297:22371   */\n      dup2\n      sstore\n        /* \"#utility.yul\":22184:22385   */\n    tag_797:\n      pop\n      pop\n      pop\n      pop\n      pop\n        /* \"#utility.yul\":22431:22432   */\n      0x01\n        /* \"#utility.yul\":22415:22429   */\n      swap1\n      dup2\n      shl\n        /* \"#utility.yul\":22411:22433   */\n      add\n        /* \"#utility.yul\":22398:22434   */\n      swap1\n      sstore\n      pop\n        /* \"#utility.yul\":21349:22701   */\n      jump\t// out\n        /* \"#utility.yul\":22706:22923   */\n    tag_324:\n        /* \"#utility.yul\":22746:22747   */\n      0x00\n        /* \"#utility.yul\":22772:22773   */\n      dup3\n        /* \"#utility.yul\":22762:22894   */\n      tag_799\n      jumpi\n        /* \"#utility.yul\":22816:22826   */\n      0x4e487b71\n        /* \"#utility.yul\":22811:22814   */\n      0xe0\n        /* \"#utility.yul\":22807:22827   */\n      shl\n        /* \"#utility.yul\":22804:22805   */\n      0x00\n        /* \"#utility.yul\":22797:22828   */\n      mstore\n        /* \"#utility.yul\":22851:22855   */\n      0x12\n        /* \"#utility.yul\":22848:22849   */\n      0x04\n        /* \"#utility.yul\":22841:22856   */\n      mstore\n        /* \"#utility.yul\":22879:22883   */\n      0x24\n        /* \"#utility.yul\":22876:22877   */\n      0x00\n        /* \"#utility.yul\":22869:22884   */\n      revert\n        /* \"#utility.yul\":22762:22894   */\n    tag_799:\n      pop\n        /* \"#utility.yul\":22908:22917   */\n      div\n      swap1\n        /* \"#utility.yul\":22706:22923   */\n      jump\t// out\n        /* \"#utility.yul\":23207:23452   */\n    tag_493:\n        /* \"#utility.yul\":23274:23280   */\n      0x00\n        /* \"#utility.yul\":23327:23329   */\n      0x20\n        /* \"#utility.yul\":23315:23324   */\n      dup3\n        /* \"#utility.yul\":23306:23313   */\n      dup5\n        /* \"#utility.yul\":23302:23325   */\n      sub\n        /* \"#utility.yul\":23298:23330   */\n      slt\n        /* \"#utility.yul\":23295:23347   */\n      iszero\n      tag_802\n      jumpi\n        /* \"#utility.yul\":23343:23344   */\n      0x00\n        /* \"#utility.yul\":23340:23341   */\n      dup1\n        /* \"#utility.yul\":23333:23345   */\n      revert\n        /* \"#utility.yul\":23295:23347   */\n    tag_802:\n        /* \"#utility.yul\":23375:23384   */\n      dup2\n        /* \"#utility.yul\":23369:23385   */\n      mload\n        /* \"#utility.yul\":23394:23422   */\n      tag_245\n        /* \"#utility.yul\":23416:23421   */\n      dup2\n        /* \"#utility.yul\":23394:23422   */\n      tag_631\n      jump\t// in\n\n    auxdata: 0xa264697066735822122079f0102324507817ff5ddf70b1ec833f8abc06ff884f593efd663a61b4e4765f64736f6c63430008130033\n}\n",
				"bytecode": {
					"linkReferences": {},
					"object": "608060408190526000805473ece897a85688f2e83a73fed36b9d1a6efcc99e936001600160a01b0319918216179091556015805473874069fa1eb16d44d622f2e0ca25eea172369bc192168217905563313ce56760e01b82529063313ce56790608490602090600481865afa1580156200007d573d6000803e3d6000fd5b505050506040513d601f19601f82011682018060405250810190620000a39190620000c7565b620000b090600a62000208565b601655348015620000c057600080fd5b5062000219565b600060208284031215620000da57600080fd5b815160ff81168114620000ec57600080fd5b9392505050565b634e487b7160e01b600052601160045260246000fd5b600181815b808511156200014a5781600019048211156200012e576200012e620000f3565b808516156200013c57918102915b93841c93908002906200010e565b509250929050565b600082620001635750600162000202565b81620001725750600062000202565b81600181146200018b57600281146200019657620001b6565b600191505062000202565b60ff841115620001aa57620001aa620000f3565b50506001821b62000202565b5060208310610133831016604e8410600b8410161715620001db575081810a62000202565b620001e7838362000109565b8060001904821115620001fe57620001fe620000f3565b0290505b92915050565b6000620000ec60ff84168362000152565b61439f80620002296000396000f3fe608060405234801561001057600080fd5b50600436106102535760003560e01c806368df3299116101465780639a23218f116100c3578063ca2e7f9b11610087578063ca2e7f9b146106b6578063cc4903ca146106c9578063d7e93794146106dc578063f31e72e4146106fc578063f692a3bb1461071c578063fb47e9e61461074257600080fd5b80639a23218f1461060a578063a58543fe1461061d578063b3265ecd14610655578063b9c745b314610668578063c0ac4ae41461069657600080fd5b80637a1bc3751161010a5780637a1bc375146105565780637e9508191461055e5780638e6da6191461058c57806395ecea1f146105d7578063964f6566146105ea57600080fd5b806368df3299146104ad57806369bff3fb146104c05780636b8ac0e71461050d5780636f5fde111461052057806373fd653d1461054357600080fd5b80633882db7d116101d45780634496260911610198578063449626091461041e5780634fe1cfad146104315780635822bff11461045a5780635b76074e1461047a5780635fa7a90a1461048d57600080fd5b80633882db7d14610386578063392a5822146103af5780633abb615a146103cf5780633b43b7d0146103e25780633bdd0ad1146103f557600080fd5b80631b6f24851161021b5780631b6f2485146102fa5780631bd1ebc4146103205780632076a35a146103335780632394e5dc1461035357806325f184241461037357600080fd5b806303f16747146102585780630478318b1461027e57806307f6646e1461029e578063125bb83d146102be578063196f7f1e146102e5575b600080fd5b61026b6102663660046137ab565b610765565b6040519081526020015b60405180910390f35b61029161028c3660046137e9565b6107f5565b6040516102759190613851565b6102b16102ac3660046137e9565b610907565b604051610275919061392b565b6102d16102cc3660046137ab565b610b1e565b60405161027598979695949392919061398d565b6102f86102f3366004613aab565b610ca2565b005b61030d610308366004613b01565b610e75565b6040516102759796959493929190613b1a565b61026b61032e366004613b01565b610f5a565b610346610341366004613b6c565b6110c5565b6040516102759190613b98565b6103666103613660046137e9565b6113b3565b6040516102759190613ca7565b61026b6103813660046137e9565b611555565b61026b6103943660046137e9565b6001600160a01b03166000908152600a602052604090205490565b6103c26103bd3660046137e9565b611620565b6040516102759190613cba565b6102b16103dd3660046137e9565b61176b565b6102f86103f0366004613d26565b611966565b61026b6104033660046137e9565b6001600160a01b031660009081526009602052604090205490565b61026b61042c3660046137ab565b611b36565b61026b61043f3660046137e9565b6001600160a01b031660009081526008602052604090205490565b61026b6104683660046137e9565b60086020526000908152604090205481565b6102d16104883660046137e9565b611c98565b61026b61049b3660046137e9565b60096020526000908152604090205481565b61026b6104bb366004613dc4565b611ccb565b6104d36104ce3660046137ab565b611f62565b604080519687526020870195909552938501929092526001600160a01b0316606084015215156080830152151560a082015260c001610275565b6102f861051b366004613b6c565b611fc7565b61053361052e3660046137e9565b6124aa565b6040519015158152602001610275565b6102f86105513660046137e9565b6124de565b6102b16126a2565b61053361056c366004613b6c565b600760209081526000928352604080842090915290825290205460ff1681565b61059f61059a366004613b01565b6127e6565b6040805195865260208601949094526001600160a01b039092169284019290925260608301919091521515608082015260a001610275565b61059f6105e5366004613b01565b612834565b6105fd6105f8366004613b01565b612844565b6040516102759190613eca565b6105336106183660046137e9565b612a34565b61053361062b366004613f1f565b60009081526006602090815260408083206001600160a01b03949094168352929052205460ff1690565b6102f8610663366004613f49565b612a60565b610533610676366004613b6c565b600660209081526000928352604080842090915290825290205460ff1681565b6106a96106a4366004613b01565b612bee565b6040516102759190613f88565b6102f86106c4366004613fac565b612d21565b6103466106d7366004613b01565b6132c5565b61026b6106ea3660046137e9565b600a6020526000908152604090205481565b61070f61070a366004613b01565b61337a565b6040516102759190614061565b61072f61072a3660046137e9565b613499565b60405161027597969594939291906140ef565b6107556107503660046137ab565b613570565b6040516102759493929190614141565b60165460009081906107779085614189565b61078190826141a0565b9050826005036107a657601654610799906002614189565b6107a390826141a0565b90505b826007036107c9576016546107bc906004614189565b6107c690826141a0565b90505b826009036107ec576016546107df906006614189565b6107e990826141a0565b90505b90505b92915050565b6107fd613648565b6001600160a01b03808316600090815260016020818152604092839020835160e081018552815481529281015490941690820152600283018054919392840191610846906141b3565b80601f0160208091040260200160405190810160405280929190818152602001828054610872906141b3565b80156108bf5780601f10610894576101008083540402835291602001916108bf565b820191906000526020600020905b8154815290600101906020018083116108a257829003601f168201915b50505091835250506003820154602082015260049091015460ff8082161515604084015261010082048116151560608401526201000090910416151560809091015292915050565b6001600160a01b038116600090815260086020526040812054606091816001600160401b0381111561093b5761093b6139f6565b60405190808252806020026020018201604052801561097457816020015b610961613694565b8152602001906001900390816109595790505b5090506000805b600354811015610b145760006003828154811061099a5761099a6141ed565b90600052602060002090600702016040518060e0016040529081600082015481526020016001820160009054906101000a90046001600160a01b03166001600160a01b03166001600160a01b031681526020016002820180546109fc906141b3565b80601f0160208091040260200160405190810160405280929190818152602001828054610a28906141b3565b8015610a755780601f10610a4a57610100808354040283529160200191610a75565b820191906000526020600020905b815481529060010190602001808311610a5857829003601f168201915b50505091835250506003820154602080830191909152600483015460408301526005830154606083015260069092015460ff1615156080909101528101519091506001600160a01b03808916911603610b015780848481518110610adb57610adb6141ed565b60200260200101819052508280610af190614203565b935050848303610b015750610b14565b5080610b0c81614203565b91505061097b565b5090949350505050565b600b6020528160005260406000208181548110610b3a57600080fd5b60009182526020909120600790910201805460018201546002830180549295506001600160a01b03909116935090610b71906141b3565b80601f0160208091040260200160405190810160405280929190818152602001828054610b9d906141b3565b8015610bea5780601f10610bbf57610100808354040283529160200191610bea565b820191906000526020600020905b815481529060010190602001808311610bcd57829003601f168201915b505050505090806003018054610bff906141b3565b80601f0160208091040260200160405190810160405280929190818152602001828054610c2b906141b3565b8015610c785780601f10610c4d57610100808354040283529160200191610c78565b820191906000526020600020905b815481529060010190602001808311610c5b57829003601f168201915b50505050600483015460058401546006909401549293909290915060ff8082169161010090041688565b600e54610cad613648565b8181526001600160a01b03851660208201526040810184905260608101839052600060a0820152610cdd856124aa565b15610daf576000610ced866113b3565b600160c08201819052608084018190526001600160a01b03888116600090815260026020818152604092839020865181559086015194810180546001600160a01b0319169590941694909417909255830151929350839290820190610d52908261426b565b5060608201516003820190610d67908261426b565b506080820151600482015560a0820151600582015560c08201516006909101805460e09093015115156101000261ff00199215159290921661ffff1990931692909217179055505b6001600160a01b03858116600090815260016020818152604092839020855181559085015191810180546001600160a01b03191692909416919091179092558201518291906002820190610e03908261426b565b506060820151600382015560808201516004909101805460a084015160c0909401511515620100000262ff0000199415156101000261ff00199415159490941661ffff19909216919091179290921792909216179055600e8054906000610e6983614203565b91905055505050505050565b60038181548110610e8557600080fd5b60009182526020909120600790910201805460018201546002830180549294506001600160a01b039091169291610ebb906141b3565b80601f0160208091040260200160405190810160405280929190818152602001828054610ee7906141b3565b8015610f345780601f10610f0957610100808354040283529160200191610f34565b820191906000526020600020905b815481529060010190602001808311610f1757829003601f168201915b505050506003830154600484015460058501546006909501549394919390925060ff1687565b60008060038381548110610f7057610f706141ed565b90600052602060002090600702016040518060e0016040529081600082015481526020016001820160009054906101000a90046001600160a01b03166001600160a01b03166001600160a01b03168152602001600282018054610fd2906141b3565b80601f0160208091040260200160405190810160405280929190818152602001828054610ffe906141b3565b801561104b5780601f106110205761010080835404028352916020019161104b565b820191906000526020600020905b81548152906001019060200180831161102e57829003601f168201915b50505091835250506003820154602082015260048201546040820152600580830154606083015260069092015460ff16151560809182015260a0830151908301519293509190600090600a906110a2908590614189565b6110ac919061432a565b905060006110ba838361432a565b979650505050505050565b60606000600384815481106110dc576110dc6141ed565b90600052602060002090600702016040518060e0016040529081600082015481526020016001820160009054906101000a90046001600160a01b03166001600160a01b03166001600160a01b0316815260200160028201805461113e906141b3565b80601f016020809104026020016040519081016040528092919081815260200182805461116a906141b3565b80156111b75780601f1061118c576101008083540402835291602001916111b7565b820191906000526020600020905b81548152906001019060200180831161119a57829003601f168201915b505050505081526020016003820154815260200160048201548152602001600582015481526020016006820160009054906101000a900460ff1615151515815250509050600060056000868152602001908152602001600020805480602002602001604051908101604052809291908181526020016000905b828210156112b05760008481526020908190206040805160c081018252600486029092018054835260018082015484860152600282015492840192909252600301546001600160a01b038116606084015260ff600160a01b8204811615156080850152600160a81b90910416151560a08301529083529092019101611230565b5050505060608301519091506000816001600160401b038111156112d6576112d66139f6565b60405190808252806020026020018201604052801561130f57816020015b6112fc6136dc565b8152602001906001900390816112f45790505b5090506000805b84518110156113a6576000858281518110611333576113336141ed565b60200260200101519050886001600160a01b031681606001516001600160a01b031603611393578084848151811061136d5761136d6141ed565b6020026020010181905250828061138390614203565b93505084830361139357506113a6565b508061139e81614203565b915050611316565b5090979650505050505050565b6113bb61371f565b6001600160a01b038083166000908152600260208181526040928390208351610100810185528154815260018201549095169185019190915290810180549192840191611407906141b3565b80601f0160208091040260200160405190810160405280929190818152602001828054611433906141b3565b80156114805780601f1061145557610100808354040283529160200191611480565b820191906000526020600020905b81548152906001019060200180831161146357829003601f168201915b50505050508152602001600382018054611499906141b3565b80601f01602080910402602001604051908101604052809291908181526020018280546114c5906141b3565b80156115125780601f106114e757610100808354040283529160200191611512565b820191906000526020600020905b8154815290600101906020018083116114f557829003601f168201915b5050509183525050600482015460208201526005820154604082015260069091015460ff8082161515606084015261010090910416151560809091015292915050565b6001600160a01b03811660009081526002602052604081206005015481816001600160401b0381111561158a5761158a6139f6565b6040519080825280602002602001820160405280156115c357816020015b6115b0613771565b8152602001906001900390816115a85790505b5090506000805b82518110156116175760008382815181106115e7576115e76141ed565b6020026020010151905080606001518361160191906141a0565b925050808061160f90614203565b9150506115ca565b50949350505050565b6001600160a01b038116600090815260026020526040812060050154606091816001600160401b03811115611657576116576139f6565b60405190808252806020026020018201604052801561169057816020015b61167d613771565b8152602001906001900390816116755790505b5090506000805b600d54811015610b14576000600d82815481106116b6576116b66141ed565b60009182526020918290206040805160a08101825260059093029091018054835260018101549383019390935260028301546001600160a01b039081169183018290526003840154606084015260049093015460ff161515608083015290925090881690036117585780848481518110611732576117326141ed565b6020026020010181905250828061174890614203565b9350508483036117585750610b14565b508061176381614203565b915050611697565b6060600061177883611620565b9050600081516001600160401b03811115611795576117956139f6565b6040519080825280602002602001820160405280156117ce57816020015b6117bb613694565b8152602001906001900390816117b35790505b5090506000805b8351811015610b145760008482815181106117f2576117f26141ed565b602002602001015190506003816020015181548110611813576118136141ed565b90600052602060002090600702016040518060e0016040529081600082015481526020016001820160009054906101000a90046001600160a01b03166001600160a01b03166001600160a01b03168152602001600282018054611875906141b3565b80601f01602080910402602001604051908101604052809291908181526020018280546118a1906141b3565b80156118ee5780601f106118c3576101008083540402835291602001916118ee565b820191906000526020600020905b8154815290600101906020018083116118d157829003601f168201915b505050918352505060038201546020820152600482015460408201526005820154606082015260069091015460ff1615156080909101528451859085908110611939576119396141ed565b6020026020010181905250828061194f90614203565b93505050808061195e90614203565b9150506117d5565b600f5461197161371f565b8181526001600160a01b03861660208201526040810185905260608101849052608081018390526119a186612a34565b15611a6d5760006119b1876107f5565b60016080820181905260c084018190526001600160a01b0389811660009081526020838152604091829020855181559085015193810180546001600160a01b031916949093169390931790915582015191925082916002820190611a15908261426b565b506060820151600382015560808201516004909101805460a084015160c0909401511515620100000262ff0000199415156101000261ff00199415159490941661ffff19909216919091179290921792909216179055505b6001600160a01b0386811660009081526002602081815260409283902085518155908501516001820180546001600160a01b031916919095161790935590830151839291820190611abe908261426b565b5060608201516003820190611ad3908261426b565b506080820151600482015560a0820151600582015560c08201516006909101805460e09093015115156101000261ff00199215159290921661ffff1990931692909217179055600f8054906000611b2983614203565b9190505550505050505050565b60008060038481548110611b4c57611b4c6141ed565b90600052602060002090600702016040518060e0016040529081600082015481526020016001820160009054906101000a90046001600160a01b03166001600160a01b03166001600160a01b03168152602001600282018054611bae906141b3565b80601f0160208091040260200160405190810160405280929190818152602001828054611bda906141b3565b8015611c275780601f10611bfc57610100808354040283529160200191611c27565b820191906000526020600020905b815481529060010190602001808311611c0a57829003601f168201915b50505091835250506003820154602082015260048201546040820152600580830154606083015260069092015460ff16151560809091015260a08201519192506000908590600a90611c7a908590614189565b611c84919061432a565b611c8e919061432a565b9695505050505050565b600260208190526000918252604090912080546001820154928201805491936001600160a01b03169291610b71906141b3565b601054600090611cd9613694565b8181526001600160a01b0389166020820152604081018890526060810187905260808101869052601654611d0d9085614189565b60a08201526003805460018101825560009190915281517fc2575a0e9e593c00f959f8c92f12db2869c3395a3b0502d05e2516446f71f85b600790920291820190815560208301517fc2575a0e9e593c00f959f8c92f12db2869c3395a3b0502d05e2516446f71f85c830180546001600160a01b0319166001600160a01b03909216919091179055604083015183927fc2575a0e9e593c00f959f8c92f12db2869c3395a3b0502d05e2516446f71f85d0190611dc9908261426b565b50606082015160038201556080820151600482015560a0820151600582015560c0909101516006909101805460ff191691151591909117905580516001600160a01b038a166000908152600a6020908152604080832093909355600890529081205490611e378260016141a0565b6001600160a01b038c1660009081526008602052604081208290559091505b89811015611f3c5760115460408051608081018252600060208201818152606093830184905292820152828152865190915289518a9084908110611e9c57611e9c6141ed565b6020908102919091018101516040808401918252885160009081526004808552918120805460018181018355918352918590208651929093029092019081559284015190830155518291906002820190611ef6908261426b565b50606091909101516003909101805460ff191691151591909117905560118054906000611f2283614203565b919050555050508080611f3490614203565b915050611e56565b5060108054906000611f4d83614203565b909155505091519a9950505050505050505050565b60056020528160005260406000208181548110611f7e57600080fd5b6000918252602090912060049091020180546001820154600283015460039093015491945092506001600160a01b0381169060ff600160a01b8204811691600160a81b90041686565b600060038381548110611fdc57611fdc6141ed565b90600052602060002090600702016040518060e0016040529081600082015481526020016001820160009054906101000a90046001600160a01b03166001600160a01b03166001600160a01b0316815260200160028201805461203e906141b3565b80601f016020809104026020016040519081016040528092919081815260200182805461206a906141b3565b80156120b75780601f1061208c576101008083540402835291602001916120b7565b820191906000526020600020905b81548152906001019060200180831161209a57829003601f168201915b505050918352505060038201546020820152600482015460408201526005820154606082015260069091015460ff161515608090910152905060006120fb84610f5a565b60155460405163a9059cbb60e01b81526001600160a01b0386811660048301526024820184905292935091169063a9059cbb906044016020604051808303816000875af1158015612150573d6000803e3d6000fd5b505050506040513d601f19601f82011682018060405250810190612174919061434c565b506000612185858460800151611b36565b60155460005460405163a9059cbb60e01b81526001600160a01b03918216600482015260248101849052929350169063a9059cbb906044016020604051808303816000875af11580156121dc573d6000803e3d6000fd5b505050506040513d601f19601f82011682018060405250810190612200919061434c565b50612209613771565b601380548252602082018781526001600160a01b038781166040850190815260608501878152600d8054600181018255600091825287517fd7b6990105719101dabeb77144f2a3385c8033acd3af97e9423a695e81ad1eb560059092029182015594517fd7b6990105719101dabeb77144f2a3385c8033acd3af97e9423a695e81ad1eb686015591517fd7b6990105719101dabeb77144f2a3385c8033acd3af97e9423a695e81ad1eb7850180546001600160a01b031916919094161790925590517fd7b6990105719101dabeb77144f2a3385c8033acd3af97e9423a695e81ad1eb883015560808401517fd7b6990105719101dabeb77144f2a3385c8033acd3af97e9423a695e81ad1eb9909201805460ff1916921515929092179091558154919061233583614203565b909155505060008681526007602090815260408083206001600160a01b03891684529091529020805460ff1916600117905561236f613771565b60138054825260208201888152600080546001600160a01b039081166040860190815260608601888152600d805460018101825590855287517fd7b6990105719101dabeb77144f2a3385c8033acd3af97e9423a695e81ad1eb560059092029182015594517fd7b6990105719101dabeb77144f2a3385c8033acd3af97e9423a695e81ad1eb686015590517fd7b6990105719101dabeb77144f2a3385c8033acd3af97e9423a695e81ad1eb7850180546001600160a01b0319169190931617909155517fd7b6990105719101dabeb77144f2a3385c8033acd3af97e9423a695e81ad1eb883015560808401517fd7b6990105719101dabeb77144f2a3385c8033acd3af97e9423a695e81ad1eb9909201805460ff1916921515929092179091558154919061249c83614203565b919050555050505050505050565b6001600160a01b03808216600081815260026020526040812060010154909216146124d65760006107ef565b600192915050565b6001600160a01b038082166000908152600160208181526040808420815160e081018352815481529381015490951691830191909152600284018054939492939184019161252b906141b3565b80601f0160208091040260200160405190810160405280929190818152602001828054612557906141b3565b80156125a45780601f10612579576101008083540402835291602001916125a4565b820191906000526020600020905b81548152906001019060200180831161258757829003601f168201915b5050509183525050600382015460208083019190915260049092015460ff8082161515604080850191909152610100830482161515606085015262010000909204161515608090920191909152600160a084018190526001600160a01b038681166000908152828552839020855181559385015191840180546001600160a01b0319169290911691909117905582015191925082916002820190612648908261426b565b506060820151600382015560808201516004909101805460a084015160c0909401511515620100000262ff0000199415156101000261ff00199415159490941661ffff199092169190911792909217929092161790555050565b60606003805480602002602001604051908101604052809291908181526020016000905b828210156127dd5760008481526020908190206040805160e081018252600786029092018054835260018101546001600160a01b03169383019390935260028301805492939291840191612719906141b3565b80601f0160208091040260200160405190810160405280929190818152602001828054612745906141b3565b80156127925780601f1061276757610100808354040283529160200191612792565b820191906000526020600020905b81548152906001019060200180831161277557829003601f168201915b50505091835250506003820154602080830191909152600483015460408301526005830154606083015260069092015460ff16151560809091015290825260019290920191016126c6565b50505050905090565b600d81815481106127f657600080fd5b60009182526020909120600590910201805460018201546002830154600384015460049094015492945090926001600160a01b039091169160ff1685565b600c81815481106127f657600080fd5b6060600b6000838152602001908152602001600020805480602002602001604051908101604052809291908181526020016000905b82821015612a295760008481526020908190206040805161010081018252600786029092018054835260018101546001600160a01b031693830193909352600283018054929392918401916128cd906141b3565b80601f01602080910402602001604051908101604052809291908181526020018280546128f9906141b3565b80156129465780601f1061291b57610100808354040283529160200191612946565b820191906000526020600020905b81548152906001019060200180831161292957829003601f168201915b5050505050815260200160038201805461295f906141b3565b80601f016020809104026020016040519081016040528092919081815260200182805461298b906141b3565b80156129d85780601f106129ad576101008083540402835291602001916129d8565b820191906000526020600020905b8154815290600101906020018083116129bb57829003601f168201915b505050918352505060048201546020808301919091526005830154604083015260069092015460ff808216151560608401526101009091041615156080909101529082526001929092019101612879565b505050509050919050565b6001600160a01b03808216600081815260016020819052604082200154909216146124d65760006107ef565b6000612a6c8585610765565b6014546040805160a08101825260006080820181815284835260208084018a81526001600160a01b038a8116868801818152606088018b8152600c805460018101825590895289517fdf6966c971051c3d54ec59162606531493a51404a002842f56009d7e5cf4a8c760059092029182015594517fdf6966c971051c3d54ec59162606531493a51404a002842f56009d7e5cf4a8c886015590517fdf6966c971051c3d54ec59162606531493a51404a002842f56009d7e5cf4a8c9850180546001600160a01b031916919094161790925590517fdf6966c971051c3d54ec59162606531493a51404a002842f56009d7e5cf4a8ca83015592517fdf6966c971051c3d54ec59162606531493a51404a002842f56009d7e5cf4a8cb909101805460ff19169115159190911790559082526009905291909120549293509091612bb384826141a0565b6001600160a01b03861660009081526009602052604081208290556014805492935090612bdf83614203565b91905055505050505050505050565b612bf6613694565b60038281548110612c0957612c096141ed565b90600052602060002090600702016040518060e0016040529081600082015481526020016001820160009054906101000a90046001600160a01b03166001600160a01b03166001600160a01b03168152602001600282018054612c6b906141b3565b80601f0160208091040260200160405190810160405280929190818152602001828054612c97906141b3565b8015612ce45780601f10612cb957610100808354040283529160200191612ce4565b820191906000526020600020905b815481529060010190602001808311612cc757829003601f168201915b505050918352505060038201546020820152600482015460408201526005820154606082015260069091015460ff16151560809091015292915050565b6001600160a01b0380831660009081526002602081815260408084208151610100810183528154815260018201549096169286019290925291810180549394939192840191612d6f906141b3565b80601f0160208091040260200160405190810160405280929190818152602001828054612d9b906141b3565b8015612de85780601f10612dbd57610100808354040283529160200191612de8565b820191906000526020600020905b815481529060010190602001808311612dcb57829003601f168201915b50505050508152602001600382018054612e01906141b3565b80601f0160208091040260200160405190810160405280929190818152602001828054612e2d906141b3565b8015612e7a5780601f10612e4f57610100808354040283529160200191612e7a565b820191906000526020600020905b815481529060010190602001808311612e5d57829003601f168201915b5050509183525050600482015460208201526005820154604082015260069091015460ff808216151560608401526101009091041615156080909101526003805491925060009186908110612ed157612ed16141ed565b90600052602060002090600702016040518060e0016040529081600082015481526020016001820160009054906101000a90046001600160a01b03166001600160a01b03166001600160a01b03168152602001600282018054612f33906141b3565b80601f0160208091040260200160405190810160405280929190818152602001828054612f5f906141b3565b8015612fac5780601f10612f8157610100808354040283529160200191612fac565b820191906000526020600020905b815481529060010190602001808311612f8f57829003601f168201915b50505091835250506003820154602082015260048201546040820152600582015460608083019190915260069092015460ff16151560809091015281015190915060005b818110156130ff576130006136dc565b60125480825260208201839052604082018990526001600160a01b03881660608301528651879084908110613037576130376141ed565b60209081029190910181015115156080840190815260008b8152600583526040808220805460018181018355918452858420885160049092020190815594870151908501558501516002840155606085015160039093018054925160a08701511515600160a81b0260ff60a81b19911515600160a01b026001600160a81b03199095166001600160a01b0390961695909517939093179290921692909217905560128054916130e583614203565b9190505550505080806130f790614203565b915050612ff0565b5060008681526006602090815260408083206001600160a01b03891684528252808320805460ff19166001179055888352600b9091529020613140866113b3565b815460018082018455600093845260209384902083516007909302019182559282015192810180546001600160a01b0319166001600160a01b03909416939093179092556040810151909190600282019061319b908261426b565b50606082015160038201906131b0908261426b565b506080820151600482015560a080830151600583015560c08301516006909201805460e09094015115156101000261ff00199315159390931661ffff199094169390931791909117909155830180516001919061320e9083906141a0565b9052506001600160a01b0385811660009081526002602081815260409283902087518155908701516001820180546001600160a01b031916919095161790935590850151859291820190613262908261426b565b5060608201516003820190613277908261426b565b506080820151600482015560a0820151600582015560c08201516006909101805460e09093015115156101000261ff00199215159290921661ffff1990931692909217179055505050505050565b606060056000838152602001908152602001600020805480602002602001604051908101604052809291908181526020016000905b82821015612a295760008481526020908190206040805160c081018252600486029092018054835260018082015484860152600282015492840192909252600301546001600160a01b038116606084015260ff600160a01b8204811615156080850152600160a81b90910416151560a083015290835290920191016132fa565b606060046000838152602001908152602001600020805480602002602001604051908101604052809291908181526020016000905b82821015612a29578382906000526020600020906004020160405180608001604052908160008201548152602001600182015481526020016002820180546133f6906141b3565b80601f0160208091040260200160405190810160405280929190818152602001828054613422906141b3565b801561346f5780601f106134445761010080835404028352916020019161346f565b820191906000526020600020905b81548152906001019060200180831161345257829003601f168201915b50505091835250506003919091015460ff16151560209182015290825260019290920191016133af565b60016020819052600091825260409091208054918101546002820180546001600160a01b0390921692916134cc906141b3565b80601f01602080910402602001604051908101604052809291908181526020018280546134f8906141b3565b80156135455780601f1061351a57610100808354040283529160200191613545565b820191906000526020600020905b81548152906001019060200180831161352857829003601f168201915b50505050600383015460049093015491929160ff808216925061010082048116916201000090041687565b6004602052816000526040600020818154811061358c57600080fd5b9060005260206000209060040201600091509150508060000154908060010154908060020180546135bc906141b3565b80601f01602080910402602001604051908101604052809291908181526020018280546135e8906141b3565b80156136355780601f1061360a57610100808354040283529160200191613635565b820191906000526020600020905b81548152906001019060200180831161361857829003601f168201915b5050506003909301549192505060ff1684565b6040518060e001604052806000815260200160006001600160a01b0316815260200160608152602001600081526020016000151581526020016000151581526020016000151581525090565b6040518060e001604052806000815260200160006001600160a01b03168152602001606081526020016000815260200160008152602001600081526020016000151581525090565b6040518060c0016040528060008152602001600081526020016000815260200160006001600160a01b031681526020016000151581526020016000151581525090565b6040518061010001604052806000815260200160006001600160a01b03168152602001606081526020016060815260200160008152602001600081526020016000151581526020016000151581525090565b6040518060a00160405280600081526020016000815260200160006001600160a01b03168152602001600081526020016000151581525090565b600080604083850312156137be57600080fd5b50508035926020909101359150565b80356001600160a01b03811681146137e457600080fd5b919050565b6000602082840312156137fb57600080fd5b613804826137cd565b9392505050565b6000815180845260005b8181101561383157602081850181015186830182015201613815565b506000602082860101526020601f19601f83011685010191505092915050565b602081528151602082015260018060a01b0360208301511660408201526000604083015160e0606084015261388a61010084018261380b565b9050606084015160808401526080840151151560a084015260a0840151151560c084015260c0840151151560e08401528091505092915050565b8051825260018060a01b0360208201511660208301526000604082015160e060408501526138f560e085018261380b565b9050606083015160608501526080830151608085015260a083015160a085015260c0830151151560c08501528091505092915050565b6000602080830181845280855180835260408601915060408160051b870101925083870160005b8281101561398057603f1988860301845261396e8583516138c4565b94509285019290850190600101613952565b5092979650505050505050565b8881526001600160a01b0388166020820152610100604082018190526000906139b88382018a61380b565b905082810360608401526139cc818961380b565b6080840197909752505060a081019390935290151560c0830152151560e090910152949350505050565b634e487b7160e01b600052604160045260246000fd5b604051601f8201601f191681016001600160401b0381118282101715613a3457613a346139f6565b604052919050565b600082601f830112613a4d57600080fd5b81356001600160401b03811115613a6657613a666139f6565b613a79601f8201601f1916602001613a0c565b818152846020838601011115613a8e57600080fd5b816020850160208301376000918101602001919091529392505050565b600080600060608486031215613ac057600080fd5b613ac9846137cd565b925060208401356001600160401b03811115613ae457600080fd5b613af086828701613a3c565b925050604084013590509250925092565b600060208284031215613b1357600080fd5b5035919050565b8781526001600160a01b038716602082015260e060408201819052600090613b449083018861380b565b90508560608301528460808301528360a083015282151560c083015298975050505050505050565b60008060408385031215613b7f57600080fd5b82359150613b8f602084016137cd565b90509250929050565b602080825282518282018190526000919060409081850190868401855b82811015613c1057815180518552868101518786015285810151868601526060808201516001600160a01b03169086015260808082015115159086015260a09081015115159085015260c09093019290850190600101613bb5565b5091979650505050505050565b60006101008251845260018060a01b0360208401511660208501526040830151816040860152613c4f8286018261380b565b91505060608301518482036060860152613c69828261380b565b9150506080830151608085015260a083015160a085015260c0830151151560c085015260e0830151613c9f60e086018215159052565b509392505050565b6020815260006138046020830184613c1d565b602080825282518282018190526000919060409081850190868401855b82811015613c10578151805185528681015187860152858101516001600160a01b0316868601526060808201519086015260809081015115159085015260a09093019290850190600101613cd7565b60008060008060808587031215613d3c57600080fd5b613d45856137cd565b935060208501356001600160401b0380821115613d6157600080fd5b613d6d88838901613a3c565b94506040870135915080821115613d8357600080fd5b50613d9087828801613a3c565b949793965093946060013593505050565b60006001600160401b03821115613dba57613dba6139f6565b5060051b60200190565b60008060008060008060c08789031215613ddd57600080fd5b613de6876137cd565b95506020808801356001600160401b0380821115613e0357600080fd5b613e0f8b838c01613a3c565b975060408a0135965060608a0135955060808a0135915080821115613e3357600080fd5b818a0191508a601f830112613e4757600080fd5b8135613e5a613e5582613da1565b613a0c565b81815260059190911b8301840190848101908d831115613e7957600080fd5b8585015b83811015613eaf578481351115613e9357600080fd5b613ea28f888335890101613a3c565b8352918601918601613e7d565b5080975050505050505060a087013590509295509295509295565b6000602080830181845280855180835260408601915060408160051b870101925083870160005b8281101561398057603f19888603018452613f0d858351613c1d565b94509285019290850190600101613ef1565b60008060408385031215613f3257600080fd5b613f3b836137cd565b946020939093013593505050565b60008060008060808587031215613f5f57600080fd5b843593506020850135925060408501359150613f7d606086016137cd565b905092959194509250565b60208152600061380460208301846138c4565b8015158114613fa957600080fd5b50565b600080600060608486031215613fc157600080fd5b833592506020613fd28186016137cd565b925060408501356001600160401b03811115613fed57600080fd5b8501601f81018713613ffe57600080fd5b803561400c613e5582613da1565b81815260059190911b8201830190838101908983111561402b57600080fd5b928401925b8284101561405257833561404381613f9b565b82529284019290840190614030565b80955050505050509250925092565b60006020808301818452808551808352604092508286019150828160051b87010184880160005b838110156140e157603f19898403018552815160808151855288820151898601528782015181898701526140be8287018261380b565b606093840151151596909301959095525094870194925090860190600101614088565b509098975050505050505050565b8781526001600160a01b038716602082015260e0604082018190526000906141199083018861380b565b606083019690965250921515608084015290151560a0830152151560c0909101529392505050565b848152836020820152608060408201526000614160608083018561380b565b9050821515606083015295945050505050565b634e487b7160e01b600052601160045260246000fd5b80820281158282048414176107ef576107ef614173565b808201808211156107ef576107ef614173565b600181811c908216806141c757607f821691505b6020821081036141e757634e487b7160e01b600052602260045260246000fd5b50919050565b634e487b7160e01b600052603260045260246000fd5b60006001820161421557614215614173565b5060010190565b601f82111561426657600081815260208120601f850160051c810160208610156142435750805b601f850160051c820191505b818110156142625782815560010161424f565b5050505b505050565b81516001600160401b03811115614284576142846139f6565b6142988161429284546141b3565b8461421c565b602080601f8311600181146142cd57600084156142b55750858301515b600019600386901b1c1916600185901b178555614262565b600085815260208120601f198616915b828110156142fc578886015182559484019460019091019084016142dd565b508582101561431a5787850151600019600388901b60f8161c191681555b5050505050600190811b01905550565b60008261434757634e487b7160e01b600052601260045260246000fd5b500490565b60006020828403121561435e57600080fd5b81516107ec81613f9b56fea264697066735822122079f0102324507817ff5ddf70b1ec833f8abc06ff884f593efd663a61b4e4765f64736f6c63430008130033",
					"opcodes": "PUSH1 0x80 PUSH1 0x40 DUP2 SWAP1 MSTORE PUSH1 0x0 DUP1 SLOAD PUSH20 0xECE897A85688F2E83A73FED36B9D1A6EFCC99E93 PUSH1 0x1 PUSH1 0x1 PUSH1 0xA0 SHL SUB NOT SWAP2 DUP3 AND OR SWAP1 SWAP2 SSTORE PUSH1 0x15 DUP1 SLOAD PUSH20 0x874069FA1EB16D44D622F2E0CA25EEA172369BC1 SWAP3 AND DUP3 OR SWAP1 SSTORE PUSH4 0x313CE567 PUSH1 0xE0 SHL DUP3 MSTORE SWAP1 PUSH4 0x313CE567 SWAP1 PUSH1 0x84 SWAP1 PUSH1 0x20 SWAP1 PUSH1 0x4 DUP2 DUP7 GAS STATICCALL ISZERO DUP1 ISZERO PUSH3 0x7D JUMPI RETURNDATASIZE PUSH1 0x0 DUP1 RETURNDATACOPY RETURNDATASIZE PUSH1 0x0 REVERT JUMPDEST POP POP POP POP PUSH1 0x40 MLOAD RETURNDATASIZE PUSH1 0x1F NOT PUSH1 0x1F DUP3 ADD AND DUP3 ADD DUP1 PUSH1 0x40 MSTORE POP DUP2 ADD SWAP1 PUSH3 0xA3 SWAP2 SWAP1 PUSH3 0xC7 JUMP JUMPDEST PUSH3 0xB0 SWAP1 PUSH1 0xA PUSH3 0x208 JUMP JUMPDEST PUSH1 0x16 SSTORE CALLVALUE DUP1 ISZERO PUSH3 0xC0 JUMPI PUSH1 0x0 DUP1 REVERT JUMPDEST POP PUSH3 0x219 JUMP JUMPDEST PUSH1 0x0 PUSH1 0x20 DUP3 DUP5 SUB SLT ISZERO PUSH3 0xDA JUMPI PUSH1 0x0 DUP1 REVERT JUMPDEST DUP2 MLOAD PUSH1 0xFF DUP2 AND DUP2 EQ PUSH3 0xEC JUMPI PUSH1 0x0 DUP1 REVERT JUMPDEST SWAP4 SWAP3 POP POP POP JUMP JUMPDEST PUSH4 0x4E487B71 PUSH1 0xE0 SHL PUSH1 0x0 MSTORE PUSH1 0x11 PUSH1 0x4 MSTORE PUSH1 0x24 PUSH1 0x0 REVERT JUMPDEST PUSH1 0x1 DUP2 DUP2 JUMPDEST DUP1 DUP6 GT ISZERO PUSH3 0x14A JUMPI DUP2 PUSH1 0x0 NOT DIV DUP3 GT ISZERO PUSH3 0x12E JUMPI PUSH3 0x12E PUSH3 0xF3 JUMP JUMPDEST DUP1 DUP6 AND ISZERO PUSH3 0x13C JUMPI SWAP2 DUP2 MUL SWAP2 JUMPDEST SWAP4 DUP5 SHR SWAP4 SWAP1 DUP1 MUL SWAP1 PUSH3 0x10E JUMP JUMPDEST POP SWAP3 POP SWAP3 SWAP1 POP JUMP JUMPDEST PUSH1 0x0 DUP3 PUSH3 0x163 JUMPI POP PUSH1 0x1 PUSH3 0x202 JUMP JUMPDEST DUP2 PUSH3 0x172 JUMPI POP PUSH1 0x0 PUSH3 0x202 JUMP JUMPDEST DUP2 PUSH1 0x1 DUP2 EQ PUSH3 0x18B JUMPI PUSH1 0x2 DUP2 EQ PUSH3 0x196 JUMPI PUSH3 0x1B6 JUMP JUMPDEST PUSH1 0x1 SWAP2 POP POP PUSH3 0x202 JUMP JUMPDEST PUSH1 0xFF DUP5 GT ISZERO PUSH3 0x1AA JUMPI PUSH3 0x1AA PUSH3 0xF3 JUMP JUMPDEST POP POP PUSH1 0x1 DUP3 SHL PUSH3 0x202 JUMP JUMPDEST POP PUSH1 0x20 DUP4 LT PUSH2 0x133 DUP4 LT AND PUSH1 0x4E DUP5 LT PUSH1 0xB DUP5 LT AND OR ISZERO PUSH3 0x1DB JUMPI POP DUP2 DUP2 EXP PUSH3 0x202 JUMP JUMPDEST PUSH3 0x1E7 DUP4 DUP4 PUSH3 0x109 JUMP JUMPDEST DUP1 PUSH1 0x0 NOT DIV DUP3 GT ISZERO PUSH3 0x1FE JUMPI PUSH3 0x1FE PUSH3 0xF3 JUMP JUMPDEST MUL SWAP1 POP JUMPDEST SWAP3 SWAP2 POP POP JUMP JUMPDEST PUSH1 0x0 PUSH3 0xEC PUSH1 0xFF DUP5 AND DUP4 PUSH3 0x152 JUMP JUMPDEST PUSH2 0x439F DUP1 PUSH3 0x229 PUSH1 0x0 CODECOPY PUSH1 0x0 RETURN INVALID PUSH1 0x80 PUSH1 0x40 MSTORE CALLVALUE DUP1 ISZERO PUSH2 0x10 JUMPI PUSH1 0x0 DUP1 REVERT JUMPDEST POP PUSH1 0x4 CALLDATASIZE LT PUSH2 0x253 JUMPI PUSH1 0x0 CALLDATALOAD PUSH1 0xE0 SHR DUP1 PUSH4 0x68DF3299 GT PUSH2 0x146 JUMPI DUP1 PUSH4 0x9A23218F GT PUSH2 0xC3 JUMPI DUP1 PUSH4 0xCA2E7F9B GT PUSH2 0x87 JUMPI DUP1 PUSH4 0xCA2E7F9B EQ PUSH2 0x6B6 JUMPI DUP1 PUSH4 0xCC4903CA EQ PUSH2 0x6C9 JUMPI DUP1 PUSH4 0xD7E93794 EQ PUSH2 0x6DC JUMPI DUP1 PUSH4 0xF31E72E4 EQ PUSH2 0x6FC JUMPI DUP1 PUSH4 0xF692A3BB EQ PUSH2 0x71C JUMPI DUP1 PUSH4 0xFB47E9E6 EQ PUSH2 0x742 JUMPI PUSH1 0x0 DUP1 REVERT JUMPDEST DUP1 PUSH4 0x9A23218F EQ PUSH2 0x60A JUMPI DUP1 PUSH4 0xA58543FE EQ PUSH2 0x61D JUMPI DUP1 PUSH4 0xB3265ECD EQ PUSH2 0x655 JUMPI DUP1 PUSH4 0xB9C745B3 EQ PUSH2 0x668 JUMPI DUP1 PUSH4 0xC0AC4AE4 EQ PUSH2 0x696 JUMPI PUSH1 0x0 DUP1 REVERT JUMPDEST DUP1 PUSH4 0x7A1BC375 GT PUSH2 0x10A JUMPI DUP1 PUSH4 0x7A1BC375 EQ PUSH2 0x556 JUMPI DUP1 PUSH4 0x7E950819 EQ PUSH2 0x55E JUMPI DUP1 PUSH4 0x8E6DA619 EQ PUSH2 0x58C JUMPI DUP1 PUSH4 0x95ECEA1F EQ PUSH2 0x5D7 JUMPI DUP1 PUSH4 0x964F6566 EQ PUSH2 0x5EA JUMPI PUSH1 0x0 DUP1 REVERT JUMPDEST DUP1 PUSH4 0x68DF3299 EQ PUSH2 0x4AD JUMPI DUP1 PUSH4 0x69BFF3FB EQ PUSH2 0x4C0 JUMPI DUP1 PUSH4 0x6B8AC0E7 EQ PUSH2 0x50D JUMPI DUP1 PUSH4 0x6F5FDE11 EQ PUSH2 0x520 JUMPI DUP1 PUSH4 0x73FD653D EQ PUSH2 0x543 JUMPI PUSH1 0x0 DUP1 REVERT JUMPDEST DUP1 PUSH4 0x3882DB7D GT PUSH2 0x1D4 JUMPI DUP1 PUSH4 0x44962609 GT PUSH2 0x198 JUMPI DUP1 PUSH4 0x44962609 EQ PUSH2 0x41E JUMPI DUP1 PUSH4 0x4FE1CFAD EQ PUSH2 0x431 JUMPI DUP1 PUSH4 0x5822BFF1 EQ PUSH2 0x45A JUMPI DUP1 PUSH4 0x5B76074E EQ PUSH2 0x47A JUMPI DUP1 PUSH4 0x5FA7A90A EQ PUSH2 0x48D JUMPI PUSH1 0x0 DUP1 REVERT JUMPDEST DUP1 PUSH4 0x3882DB7D EQ PUSH2 0x386 JUMPI DUP1 PUSH4 0x392A5822 EQ PUSH2 0x3AF JUMPI DUP1 PUSH4 0x3ABB615A EQ PUSH2 0x3CF JUMPI DUP1 PUSH4 0x3B43B7D0 EQ PUSH2 0x3E2 JUMPI DUP1 PUSH4 0x3BDD0AD1 EQ PUSH2 0x3F5 JUMPI PUSH1 0x0 DUP1 REVERT JUMPDEST DUP1 PUSH4 0x1B6F2485 GT PUSH2 0x21B JUMPI DUP1 PUSH4 0x1B6F2485 EQ PUSH2 0x2FA JUMPI DUP1 PUSH4 0x1BD1EBC4 EQ PUSH2 0x320 JUMPI DUP1 PUSH4 0x2076A35A EQ PUSH2 0x333 JUMPI DUP1 PUSH4 0x2394E5DC EQ PUSH2 0x353 JUMPI DUP1 PUSH4 0x25F18424 EQ PUSH2 0x373 JUMPI PUSH1 0x0 DUP1 REVERT JUMPDEST DUP1 PUSH4 0x3F16747 EQ PUSH2 0x258 JUMPI DUP1 PUSH4 0x478318B EQ PUSH2 0x27E JUMPI DUP1 PUSH4 0x7F6646E EQ PUSH2 0x29E JUMPI DUP1 PUSH4 0x125BB83D EQ PUSH2 0x2BE JUMPI DUP1 PUSH4 0x196F7F1E EQ PUSH2 0x2E5 JUMPI JUMPDEST PUSH1 0x0 DUP1 REVERT JUMPDEST PUSH2 0x26B PUSH2 0x266 CALLDATASIZE PUSH1 0x4 PUSH2 0x37AB JUMP JUMPDEST PUSH2 0x765 JUMP JUMPDEST PUSH1 0x40 MLOAD SWAP1 DUP2 MSTORE PUSH1 0x20 ADD JUMPDEST PUSH1 0x40 MLOAD DUP1 SWAP2 SUB SWAP1 RETURN JUMPDEST PUSH2 0x291 PUSH2 0x28C CALLDATASIZE PUSH1 0x4 PUSH2 0x37E9 JUMP JUMPDEST PUSH2 0x7F5 JUMP JUMPDEST PUSH1 0x40 MLOAD PUSH2 0x275 SWAP2 SWAP1 PUSH2 0x3851 JUMP JUMPDEST PUSH2 0x2B1 PUSH2 0x2AC CALLDATASIZE PUSH1 0x4 PUSH2 0x37E9 JUMP JUMPDEST PUSH2 0x907 JUMP JUMPDEST PUSH1 0x40 MLOAD PUSH2 0x275 SWAP2 SWAP1 PUSH2 0x392B JUMP JUMPDEST PUSH2 0x2D1 PUSH2 0x2CC CALLDATASIZE PUSH1 0x4 PUSH2 0x37AB JUMP JUMPDEST PUSH2 0xB1E JUMP JUMPDEST PUSH1 0x40 MLOAD PUSH2 0x275 SWAP9 SWAP8 SWAP7 SWAP6 SWAP5 SWAP4 SWAP3 SWAP2 SWAP1 PUSH2 0x398D JUMP JUMPDEST PUSH2 0x2F8 PUSH2 0x2F3 CALLDATASIZE PUSH1 0x4 PUSH2 0x3AAB JUMP JUMPDEST PUSH2 0xCA2 JUMP JUMPDEST STOP JUMPDEST PUSH2 0x30D PUSH2 0x308 CALLDATASIZE PUSH1 0x4 PUSH2 0x3B01 JUMP JUMPDEST PUSH2 0xE75 JUMP JUMPDEST PUSH1 0x40 MLOAD PUSH2 0x275 SWAP8 SWAP7 SWAP6 SWAP5 SWAP4 SWAP3 SWAP2 SWAP1 PUSH2 0x3B1A JUMP JUMPDEST PUSH2 0x26B PUSH2 0x32E CALLDATASIZE PUSH1 0x4 PUSH2 0x3B01 JUMP JUMPDEST PUSH2 0xF5A JUMP JUMPDEST PUSH2 0x346 PUSH2 0x341 CALLDATASIZE PUSH1 0x4 PUSH2 0x3B6C JUMP JUMPDEST PUSH2 0x10C5 JUMP JUMPDEST PUSH1 0x40 MLOAD PUSH2 0x275 SWAP2 SWAP1 PUSH2 0x3B98 JUMP JUMPDEST PUSH2 0x366 PUSH2 0x361 CALLDATASIZE PUSH1 0x4 PUSH2 0x37E9 JUMP JUMPDEST PUSH2 0x13B3 JUMP JUMPDEST PUSH1 0x40 MLOAD PUSH2 0x275 SWAP2 SWAP1 PUSH2 0x3CA7 JUMP JUMPDEST PUSH2 0x26B PUSH2 0x381 CALLDATASIZE PUSH1 0x4 PUSH2 0x37E9 JUMP JUMPDEST PUSH2 0x1555 JUMP JUMPDEST PUSH2 0x26B PUSH2 0x394 CALLDATASIZE PUSH1 0x4 PUSH2 0x37E9 JUMP JUMPDEST PUSH1 0x1 PUSH1 0x1 PUSH1 0xA0 SHL SUB AND PUSH1 0x0 SWAP1 DUP2 MSTORE PUSH1 0xA PUSH1 0x20 MSTORE PUSH1 0x40 SWAP1 KECCAK256 SLOAD SWAP1 JUMP JUMPDEST PUSH2 0x3C2 PUSH2 0x3BD CALLDATASIZE PUSH1 0x4 PUSH2 0x37E9 JUMP JUMPDEST PUSH2 0x1620 JUMP JUMPDEST PUSH1 0x40 MLOAD PUSH2 0x275 SWAP2 SWAP1 PUSH2 0x3CBA JUMP JUMPDEST PUSH2 0x2B1 PUSH2 0x3DD CALLDATASIZE PUSH1 0x4 PUSH2 0x37E9 JUMP JUMPDEST PUSH2 0x176B JUMP JUMPDEST PUSH2 0x2F8 PUSH2 0x3F0 CALLDATASIZE PUSH1 0x4 PUSH2 0x3D26 JUMP JUMPDEST PUSH2 0x1966 JUMP JUMPDEST PUSH2 0x26B PUSH2 0x403 CALLDATASIZE PUSH1 0x4 PUSH2 0x37E9 JUMP JUMPDEST PUSH1 0x1 PUSH1 0x1 PUSH1 0xA0 SHL SUB AND PUSH1 0x0 SWAP1 DUP2 MSTORE PUSH1 0x9 PUSH1 0x20 MSTORE PUSH1 0x40 SWAP1 KECCAK256 SLOAD SWAP1 JUMP JUMPDEST PUSH2 0x26B PUSH2 0x42C CALLDATASIZE PUSH1 0x4 PUSH2 0x37AB JUMP JUMPDEST PUSH2 0x1B36 JUMP JUMPDEST PUSH2 0x26B PUSH2 0x43F CALLDATASIZE PUSH1 0x4 PUSH2 0x37E9 JUMP JUMPDEST PUSH1 0x1 PUSH1 0x1 PUSH1 0xA0 SHL SUB AND PUSH1 0x0 SWAP1 DUP2 MSTORE PUSH1 0x8 PUSH1 0x20 MSTORE PUSH1 0x40 SWAP1 KECCAK256 SLOAD SWAP1 JUMP JUMPDEST PUSH2 0x26B PUSH2 0x468 CALLDATASIZE PUSH1 0x4 PUSH2 0x37E9 JUMP JUMPDEST PUSH1 0x8 PUSH1 0x20 MSTORE PUSH1 0x0 SWAP1 DUP2 MSTORE PUSH1 0x40 SWAP1 KECCAK256 SLOAD DUP2 JUMP JUMPDEST PUSH2 0x2D1 PUSH2 0x488 CALLDATASIZE PUSH1 0x4 PUSH2 0x37E9 JUMP JUMPDEST PUSH2 0x1C98 JUMP JUMPDEST PUSH2 0x26B PUSH2 0x49B CALLDATASIZE PUSH1 0x4 PUSH2 0x37E9 JUMP JUMPDEST PUSH1 0x9 PUSH1 0x20 MSTORE PUSH1 0x0 SWAP1 DUP2 MSTORE PUSH1 0x40 SWAP1 KECCAK256 SLOAD DUP2 JUMP JUMPDEST PUSH2 0x26B PUSH2 0x4BB CALLDATASIZE PUSH1 0x4 PUSH2 0x3DC4 JUMP JUMPDEST PUSH2 0x1CCB JUMP JUMPDEST PUSH2 0x4D3 PUSH2 0x4CE CALLDATASIZE PUSH1 0x4 PUSH2 0x37AB JUMP JUMPDEST PUSH2 0x1F62 JUMP JUMPDEST PUSH1 0x40 DUP1 MLOAD SWAP7 DUP8 MSTORE PUSH1 0x20 DUP8 ADD SWAP6 SWAP1 SWAP6 MSTORE SWAP4 DUP6 ADD SWAP3 SWAP1 SWAP3 MSTORE PUSH1 0x1 PUSH1 0x1 PUSH1 0xA0 SHL SUB AND PUSH1 0x60 DUP5 ADD MSTORE ISZERO ISZERO PUSH1 0x80 DUP4 ADD MSTORE ISZERO ISZERO PUSH1 0xA0 DUP3 ADD MSTORE PUSH1 0xC0 ADD PUSH2 0x275 JUMP JUMPDEST PUSH2 0x2F8 PUSH2 0x51B CALLDATASIZE PUSH1 0x4 PUSH2 0x3B6C JUMP JUMPDEST PUSH2 0x1FC7 JUMP JUMPDEST PUSH2 0x533 PUSH2 0x52E CALLDATASIZE PUSH1 0x4 PUSH2 0x37E9 JUMP JUMPDEST PUSH2 0x24AA JUMP JUMPDEST PUSH1 0x40 MLOAD SWAP1 ISZERO ISZERO DUP2 MSTORE PUSH1 0x20 ADD PUSH2 0x275 JUMP JUMPDEST PUSH2 0x2F8 PUSH2 0x551 CALLDATASIZE PUSH1 0x4 PUSH2 0x37E9 JUMP JUMPDEST PUSH2 0x24DE JUMP JUMPDEST PUSH2 0x2B1 PUSH2 0x26A2 JUMP JUMPDEST PUSH2 0x533 PUSH2 0x56C CALLDATASIZE PUSH1 0x4 PUSH2 0x3B6C JUMP JUMPDEST PUSH1 0x7 PUSH1 0x20 SWAP1 DUP2 MSTORE PUSH1 0x0 SWAP3 DUP4 MSTORE PUSH1 0x40 DUP1 DUP5 KECCAK256 SWAP1 SWAP2 MSTORE SWAP1 DUP3 MSTORE SWAP1 KECCAK256 SLOAD PUSH1 0xFF AND DUP2 JUMP JUMPDEST PUSH2 0x59F PUSH2 0x59A CALLDATASIZE PUSH1 0x4 PUSH2 0x3B01 JUMP JUMPDEST PUSH2 0x27E6 JUMP JUMPDEST PUSH1 0x40 DUP1 MLOAD SWAP6 DUP7 MSTORE PUSH1 0x20 DUP7 ADD SWAP5 SWAP1 SWAP5 MSTORE PUSH1 0x1 PUSH1 0x1 PUSH1 0xA0 SHL SUB SWAP1 SWAP3 AND SWAP3 DUP5 ADD SWAP3 SWAP1 SWAP3 MSTORE PUSH1 0x60 DUP4 ADD SWAP2 SWAP1 SWAP2 MSTORE ISZERO ISZERO PUSH1 0x80 DUP3 ADD MSTORE PUSH1 0xA0 ADD PUSH2 0x275 JUMP JUMPDEST PUSH2 0x59F PUSH2 0x5E5 CALLDATASIZE PUSH1 0x4 PUSH2 0x3B01 JUMP JUMPDEST PUSH2 0x2834 JUMP JUMPDEST PUSH2 0x5FD PUSH2 0x5F8 CALLDATASIZE PUSH1 0x4 PUSH2 0x3B01 JUMP JUMPDEST PUSH2 0x2844 JUMP JUMPDEST PUSH1 0x40 MLOAD PUSH2 0x275 SWAP2 SWAP1 PUSH2 0x3ECA JUMP JUMPDEST PUSH2 0x533 PUSH2 0x618 CALLDATASIZE PUSH1 0x4 PUSH2 0x37E9 JUMP JUMPDEST PUSH2 0x2A34 JUMP JUMPDEST PUSH2 0x533 PUSH2 0x62B CALLDATASIZE PUSH1 0x4 PUSH2 0x3F1F JUMP JUMPDEST PUSH1 0x0 SWAP1 DUP2 MSTORE PUSH1 0x6 PUSH1 0x20 SWAP1 DUP2 MSTORE PUSH1 0x40 DUP1 DUP4 KECCAK256 PUSH1 0x1 PUSH1 0x1 PUSH1 0xA0 SHL SUB SWAP5 SWAP1 SWAP5 AND DUP4 MSTORE SWAP3 SWAP1 MSTORE KECCAK256 SLOAD PUSH1 0xFF AND SWAP1 JUMP JUMPDEST PUSH2 0x2F8 PUSH2 0x663 CALLDATASIZE PUSH1 0x4 PUSH2 0x3F49 JUMP JUMPDEST PUSH2 0x2A60 JUMP JUMPDEST PUSH2 0x533 PUSH2 0x676 CALLDATASIZE PUSH1 0x4 PUSH2 0x3B6C JUMP JUMPDEST PUSH1 0x6 PUSH1 0x20 SWAP1 DUP2 MSTORE PUSH1 0x0 SWAP3 DUP4 MSTORE PUSH1 0x40 DUP1 DUP5 KECCAK256 SWAP1 SWAP2 MSTORE SWAP1 DUP3 MSTORE SWAP1 KECCAK256 SLOAD PUSH1 0xFF AND DUP2 JUMP JUMPDEST PUSH2 0x6A9 PUSH2 0x6A4 CALLDATASIZE PUSH1 0x4 PUSH2 0x3B01 JUMP JUMPDEST PUSH2 0x2BEE JUMP JUMPDEST PUSH1 0x40 MLOAD PUSH2 0x275 SWAP2 SWAP1 PUSH2 0x3F88 JUMP JUMPDEST PUSH2 0x2F8 PUSH2 0x6C4 CALLDATASIZE PUSH1 0x4 PUSH2 0x3FAC JUMP JUMPDEST PUSH2 0x2D21 JUMP JUMPDEST PUSH2 0x346 PUSH2 0x6D7 CALLDATASIZE PUSH1 0x4 PUSH2 0x3B01 JUMP JUMPDEST PUSH2 0x32C5 JUMP JUMPDEST PUSH2 0x26B PUSH2 0x6EA CALLDATASIZE PUSH1 0x4 PUSH2 0x37E9 JUMP JUMPDEST PUSH1 0xA PUSH1 0x20 MSTORE PUSH1 0x0 SWAP1 DUP2 MSTORE PUSH1 0x40 SWAP1 KECCAK256 SLOAD DUP2 JUMP JUMPDEST PUSH2 0x70F PUSH2 0x70A CALLDATASIZE PUSH1 0x4 PUSH2 0x3B01 JUMP JUMPDEST PUSH2 0x337A JUMP JUMPDEST PUSH1 0x40 MLOAD PUSH2 0x275 SWAP2 SWAP1 PUSH2 0x4061 JUMP JUMPDEST PUSH2 0x72F PUSH2 0x72A CALLDATASIZE PUSH1 0x4 PUSH2 0x37E9 JUMP JUMPDEST PUSH2 0x3499 JUMP JUMPDEST PUSH1 0x40 MLOAD PUSH2 0x275 SWAP8 SWAP7 SWAP6 SWAP5 SWAP4 SWAP3 SWAP2 SWAP1 PUSH2 0x40EF JUMP JUMPDEST PUSH2 0x755 PUSH2 0x750 CALLDATASIZE PUSH1 0x4 PUSH2 0x37AB JUMP JUMPDEST PUSH2 0x3570 JUMP JUMPDEST PUSH1 0x40 MLOAD PUSH2 0x275 SWAP5 SWAP4 SWAP3 SWAP2 SWAP1 PUSH2 0x4141 JUMP JUMPDEST PUSH1 0x16 SLOAD PUSH1 0x0 SWAP1 DUP2 SWAP1 PUSH2 0x777 SWAP1 DUP6 PUSH2 0x4189 JUMP JUMPDEST PUSH2 0x781 SWAP1 DUP3 PUSH2 0x41A0 JUMP JUMPDEST SWAP1 POP DUP3 PUSH1 0x5 SUB PUSH2 0x7A6 JUMPI PUSH1 0x16 SLOAD PUSH2 0x799 SWAP1 PUSH1 0x2 PUSH2 0x4189 JUMP JUMPDEST PUSH2 0x7A3 SWAP1 DUP3 PUSH2 0x41A0 JUMP JUMPDEST SWAP1 POP JUMPDEST DUP3 PUSH1 0x7 SUB PUSH2 0x7C9 JUMPI PUSH1 0x16 SLOAD PUSH2 0x7BC SWAP1 PUSH1 0x4 PUSH2 0x4189 JUMP JUMPDEST PUSH2 0x7C6 SWAP1 DUP3 PUSH2 0x41A0 JUMP JUMPDEST SWAP1 POP JUMPDEST DUP3 PUSH1 0x9 SUB PUSH2 0x7EC JUMPI PUSH1 0x16 SLOAD PUSH2 0x7DF SWAP1 PUSH1 0x6 PUSH2 0x4189 JUMP JUMPDEST PUSH2 0x7E9 SWAP1 DUP3 PUSH2 0x41A0 JUMP JUMPDEST SWAP1 POP JUMPDEST SWAP1 POP JUMPDEST SWAP3 SWAP2 POP POP JUMP JUMPDEST PUSH2 0x7FD PUSH2 0x3648 JUMP JUMPDEST PUSH1 0x1 PUSH1 0x1 PUSH1 0xA0 SHL SUB DUP1 DUP4 AND PUSH1 0x0 SWAP1 DUP2 MSTORE PUSH1 0x1 PUSH1 0x20 DUP2 DUP2 MSTORE PUSH1 0x40 SWAP3 DUP4 SWAP1 KECCAK256 DUP4 MLOAD PUSH1 0xE0 DUP2 ADD DUP6 MSTORE DUP2 SLOAD DUP2 MSTORE SWAP3 DUP2 ADD SLOAD SWAP1 SWAP5 AND SWAP1 DUP3 ADD MSTORE PUSH1 0x2 DUP4 ADD DUP1 SLOAD SWAP2 SWAP4 SWAP3 DUP5 ADD SWAP2 PUSH2 0x846 SWAP1 PUSH2 0x41B3 JUMP JUMPDEST DUP1 PUSH1 0x1F ADD PUSH1 0x20 DUP1 SWAP2 DIV MUL PUSH1 0x20 ADD PUSH1 0x40 MLOAD SWAP1 DUP2 ADD PUSH1 0x40 MSTORE DUP1 SWAP3 SWAP2 SWAP1 DUP2 DUP2 MSTORE PUSH1 0x20 ADD DUP3 DUP1 SLOAD PUSH2 0x872 SWAP1 PUSH2 0x41B3 JUMP JUMPDEST DUP1 ISZERO PUSH2 0x8BF JUMPI DUP1 PUSH1 0x1F LT PUSH2 0x894 JUMPI PUSH2 0x100 DUP1 DUP4 SLOAD DIV MUL DUP4 MSTORE SWAP2 PUSH1 0x20 ADD SWAP2 PUSH2 0x8BF JUMP JUMPDEST DUP3 ADD SWAP2 SWAP1 PUSH1 0x0 MSTORE PUSH1 0x20 PUSH1 0x0 KECCAK256 SWAP1 JUMPDEST DUP2 SLOAD DUP2 MSTORE SWAP1 PUSH1 0x1 ADD SWAP1 PUSH1 0x20 ADD DUP1 DUP4 GT PUSH2 0x8A2 JUMPI DUP3 SWAP1 SUB PUSH1 0x1F AND DUP3 ADD SWAP2 JUMPDEST POP POP POP SWAP2 DUP4 MSTORE POP POP PUSH1 0x3 DUP3 ADD SLOAD PUSH1 0x20 DUP3 ADD MSTORE PUSH1 0x4 SWAP1 SWAP2 ADD SLOAD PUSH1 0xFF DUP1 DUP3 AND ISZERO ISZERO PUSH1 0x40 DUP5 ADD MSTORE PUSH2 0x100 DUP3 DIV DUP2 AND ISZERO ISZERO PUSH1 0x60 DUP5 ADD MSTORE PUSH3 0x10000 SWAP1 SWAP2 DIV AND ISZERO ISZERO PUSH1 0x80 SWAP1 SWAP2 ADD MSTORE SWAP3 SWAP2 POP POP JUMP JUMPDEST PUSH1 0x1 PUSH1 0x1 PUSH1 0xA0 SHL SUB DUP2 AND PUSH1 0x0 SWAP1 DUP2 MSTORE PUSH1 0x8 PUSH1 0x20 MSTORE PUSH1 0x40 DUP2 KECCAK256 SLOAD PUSH1 0x60 SWAP2 DUP2 PUSH1 0x1 PUSH1 0x1 PUSH1 0x40 SHL SUB DUP2 GT ISZERO PUSH2 0x93B JUMPI PUSH2 0x93B PUSH2 0x39F6 JUMP JUMPDEST PUSH1 0x40 MLOAD SWAP1 DUP1 DUP3 MSTORE DUP1 PUSH1 0x20 MUL PUSH1 0x20 ADD DUP3 ADD PUSH1 0x40 MSTORE DUP1 ISZERO PUSH2 0x974 JUMPI DUP2 PUSH1 0x20 ADD JUMPDEST PUSH2 0x961 PUSH2 0x3694 JUMP JUMPDEST DUP2 MSTORE PUSH1 0x20 ADD SWAP1 PUSH1 0x1 SWAP1 SUB SWAP1 DUP2 PUSH2 0x959 JUMPI SWAP1 POP JUMPDEST POP SWAP1 POP PUSH1 0x0 DUP1 JUMPDEST PUSH1 0x3 SLOAD DUP2 LT ISZERO PUSH2 0xB14 JUMPI PUSH1 0x0 PUSH1 0x3 DUP3 DUP2 SLOAD DUP2 LT PUSH2 0x99A JUMPI PUSH2 0x99A PUSH2 0x41ED JUMP JUMPDEST SWAP1 PUSH1 0x0 MSTORE PUSH1 0x20 PUSH1 0x0 KECCAK256 SWAP1 PUSH1 0x7 MUL ADD PUSH1 0x40 MLOAD DUP1 PUSH1 0xE0 ADD PUSH1 0x40 MSTORE SWAP1 DUP2 PUSH1 0x0 DUP3 ADD SLOAD DUP2 MSTORE PUSH1 0x20 ADD PUSH1 0x1 DUP3 ADD PUSH1 0x0 SWAP1 SLOAD SWAP1 PUSH2 0x100 EXP SWAP1 DIV PUSH1 0x1 PUSH1 0x1 PUSH1 0xA0 SHL SUB AND PUSH1 0x1 PUSH1 0x1 PUSH1 0xA0 SHL SUB AND PUSH1 0x1 PUSH1 0x1 PUSH1 0xA0 SHL SUB AND DUP2 MSTORE PUSH1 0x20 ADD PUSH1 0x2 DUP3 ADD DUP1 SLOAD PUSH2 0x9FC SWAP1 PUSH2 0x41B3 JUMP JUMPDEST DUP1 PUSH1 0x1F ADD PUSH1 0x20 DUP1 SWAP2 DIV MUL PUSH1 0x20 ADD PUSH1 0x40 MLOAD SWAP1 DUP2 ADD PUSH1 0x40 MSTORE DUP1 SWAP3 SWAP2 SWAP1 DUP2 DUP2 MSTORE PUSH1 0x20 ADD DUP3 DUP1 SLOAD PUSH2 0xA28 SWAP1 PUSH2 0x41B3 JUMP JUMPDEST DUP1 ISZERO PUSH2 0xA75 JUMPI DUP1 PUSH1 0x1F LT PUSH2 0xA4A JUMPI PUSH2 0x100 DUP1 DUP4 SLOAD DIV MUL DUP4 MSTORE SWAP2 PUSH1 0x20 ADD SWAP2 PUSH2 0xA75 JUMP JUMPDEST DUP3 ADD SWAP2 SWAP1 PUSH1 0x0 MSTORE PUSH1 0x20 PUSH1 0x0 KECCAK256 SWAP1 JUMPDEST DUP2 SLOAD DUP2 MSTORE SWAP1 PUSH1 0x1 ADD SWAP1 PUSH1 0x20 ADD DUP1 DUP4 GT PUSH2 0xA58 JUMPI DUP3 SWAP1 SUB PUSH1 0x1F AND DUP3 ADD SWAP2 JUMPDEST POP POP POP SWAP2 DUP4 MSTORE POP POP PUSH1 0x3 DUP3 ADD SLOAD PUSH1 0x20 DUP1 DUP4 ADD SWAP2 SWAP1 SWAP2 MSTORE PUSH1 0x4 DUP4 ADD SLOAD PUSH1 0x40 DUP4 ADD MSTORE PUSH1 0x5 DUP4 ADD SLOAD PUSH1 0x60 DUP4 ADD MSTORE PUSH1 0x6 SWAP1 SWAP3 ADD SLOAD PUSH1 0xFF AND ISZERO ISZERO PUSH1 0x80 SWAP1 SWAP2 ADD MSTORE DUP2 ADD MLOAD SWAP1 SWAP2 POP PUSH1 0x1 PUSH1 0x1 PUSH1 0xA0 SHL SUB DUP1 DUP10 AND SWAP2 AND SUB PUSH2 0xB01 JUMPI DUP1 DUP5 DUP5 DUP2 MLOAD DUP2 LT PUSH2 0xADB JUMPI PUSH2 0xADB PUSH2 0x41ED JUMP JUMPDEST PUSH1 0x20 MUL PUSH1 0x20 ADD ADD DUP2 SWAP1 MSTORE POP DUP3 DUP1 PUSH2 0xAF1 SWAP1 PUSH2 0x4203 JUMP JUMPDEST SWAP4 POP POP DUP5 DUP4 SUB PUSH2 0xB01 JUMPI POP PUSH2 0xB14 JUMP JUMPDEST POP DUP1 PUSH2 0xB0C DUP2 PUSH2 0x4203 JUMP JUMPDEST SWAP2 POP POP PUSH2 0x97B JUMP JUMPDEST POP SWAP1 SWAP5 SWAP4 POP POP POP POP JUMP JUMPDEST PUSH1 0xB PUSH1 0x20 MSTORE DUP2 PUSH1 0x0 MSTORE PUSH1 0x40 PUSH1 0x0 KECCAK256 DUP2 DUP2 SLOAD DUP2 LT PUSH2 0xB3A JUMPI PUSH1 0x0 DUP1 REVERT JUMPDEST PUSH1 0x0 SWAP2 DUP3 MSTORE PUSH1 0x20 SWAP1 SWAP2 KECCAK256 PUSH1 0x7 SWAP1 SWAP2 MUL ADD DUP1 SLOAD PUSH1 0x1 DUP3 ADD SLOAD PUSH1 0x2 DUP4 ADD DUP1 SLOAD SWAP3 SWAP6 POP PUSH1 0x1 PUSH1 0x1 PUSH1 0xA0 SHL SUB SWAP1 SWAP2 AND SWAP4 POP SWAP1 PUSH2 0xB71 SWAP1 PUSH2 0x41B3 JUMP JUMPDEST DUP1 PUSH1 0x1F ADD PUSH1 0x20 DUP1 SWAP2 DIV MUL PUSH1 0x20 ADD PUSH1 0x40 MLOAD SWAP1 DUP2 ADD PUSH1 0x40 MSTORE DUP1 SWAP3 SWAP2 SWAP1 DUP2 DUP2 MSTORE PUSH1 0x20 ADD DUP3 DUP1 SLOAD PUSH2 0xB9D SWAP1 PUSH2 0x41B3 JUMP JUMPDEST DUP1 ISZERO PUSH2 0xBEA JUMPI DUP1 PUSH1 0x1F LT PUSH2 0xBBF JUMPI PUSH2 0x100 DUP1 DUP4 SLOAD DIV MUL DUP4 MSTORE SWAP2 PUSH1 0x20 ADD SWAP2 PUSH2 0xBEA JUMP JUMPDEST DUP3 ADD SWAP2 SWAP1 PUSH1 0x0 MSTORE PUSH1 0x20 PUSH1 0x0 KECCAK256 SWAP1 JUMPDEST DUP2 SLOAD DUP2 MSTORE SWAP1 PUSH1 0x1 ADD SWAP1 PUSH1 0x20 ADD DUP1 DUP4 GT PUSH2 0xBCD JUMPI DUP3 SWAP1 SUB PUSH1 0x1F AND DUP3 ADD SWAP2 JUMPDEST POP POP POP POP POP SWAP1 DUP1 PUSH1 0x3 ADD DUP1 SLOAD PUSH2 0xBFF SWAP1 PUSH2 0x41B3 JUMP JUMPDEST DUP1 PUSH1 0x1F ADD PUSH1 0x20 DUP1 SWAP2 DIV MUL PUSH1 0x20 ADD PUSH1 0x40 MLOAD SWAP1 DUP2 ADD PUSH1 0x40 MSTORE DUP1 SWAP3 SWAP2 SWAP1 DUP2 DUP2 MSTORE PUSH1 0x20 ADD DUP3 DUP1 SLOAD PUSH2 0xC2B SWAP1 PUSH2 0x41B3 JUMP JUMPDEST DUP1 ISZERO PUSH2 0xC78 JUMPI DUP1 PUSH1 0x1F LT PUSH2 0xC4D JUMPI PUSH2 0x100 DUP1 DUP4 SLOAD DIV MUL DUP4 MSTORE SWAP2 PUSH1 0x20 ADD SWAP2 PUSH2 0xC78 JUMP JUMPDEST DUP3 ADD SWAP2 SWAP1 PUSH1 0x0 MSTORE PUSH1 0x20 PUSH1 0x0 KECCAK256 SWAP1 JUMPDEST DUP2 SLOAD DUP2 MSTORE SWAP1 PUSH1 0x1 ADD SWAP1 PUSH1 0x20 ADD DUP1 DUP4 GT PUSH2 0xC5B JUMPI DUP3 SWAP1 SUB PUSH1 0x1F AND DUP3 ADD SWAP2 JUMPDEST POP POP POP POP PUSH1 0x4 DUP4 ADD SLOAD PUSH1 0x5 DUP5 ADD SLOAD PUSH1 0x6 SWAP1 SWAP5 ADD SLOAD SWAP3 SWAP4 SWAP1 SWAP3 SWAP1 SWAP2 POP PUSH1 0xFF DUP1 DUP3 AND SWAP2 PUSH2 0x100 SWAP1 DIV AND DUP9 JUMP JUMPDEST PUSH1 0xE SLOAD PUSH2 0xCAD PUSH2 0x3648 JUMP JUMPDEST DUP2 DUP2 MSTORE PUSH1 0x1 PUSH1 0x1 PUSH1 0xA0 SHL SUB DUP6 AND PUSH1 0x20 DUP3 ADD MSTORE PUSH1 0x40 DUP2 ADD DUP5 SWAP1 MSTORE PUSH1 0x60 DUP2 ADD DUP4 SWAP1 MSTORE PUSH1 0x0 PUSH1 0xA0 DUP3 ADD MSTORE PUSH2 0xCDD DUP6 PUSH2 0x24AA JUMP JUMPDEST ISZERO PUSH2 0xDAF JUMPI PUSH1 0x0 PUSH2 0xCED DUP7 PUSH2 0x13B3 JUMP JUMPDEST PUSH1 0x1 PUSH1 0xC0 DUP3 ADD DUP2 SWAP1 MSTORE PUSH1 0x80 DUP5 ADD DUP2 SWAP1 MSTORE PUSH1 0x1 PUSH1 0x1 PUSH1 0xA0 SHL SUB DUP9 DUP2 AND PUSH1 0x0 SWAP1 DUP2 MSTORE PUSH1 0x2 PUSH1 0x20 DUP2 DUP2 MSTORE PUSH1 0x40 SWAP3 DUP4 SWAP1 KECCAK256 DUP7 MLOAD DUP2 SSTORE SWAP1 DUP7 ADD MLOAD SWAP5 DUP2 ADD DUP1 SLOAD PUSH1 0x1 PUSH1 0x1 PUSH1 0xA0 SHL SUB NOT AND SWAP6 SWAP1 SWAP5 AND SWAP5 SWAP1 SWAP5 OR SWAP1 SWAP3 SSTORE DUP4 ADD MLOAD SWAP3 SWAP4 POP DUP4 SWAP3 SWAP1 DUP3 ADD SWAP1 PUSH2 0xD52 SWAP1 DUP3 PUSH2 0x426B JUMP JUMPDEST POP PUSH1 0x60 DUP3 ADD MLOAD PUSH1 0x3 DUP3 ADD SWAP1 PUSH2 0xD67 SWAP1 DUP3 PUSH2 0x426B JUMP JUMPDEST POP PUSH1 0x80 DUP3 ADD MLOAD PUSH1 0x4 DUP3 ADD SSTORE PUSH1 0xA0 DUP3 ADD MLOAD PUSH1 0x5 DUP3 ADD SSTORE PUSH1 0xC0 DUP3 ADD MLOAD PUSH1 0x6 SWAP1 SWAP2 ADD DUP1 SLOAD PUSH1 0xE0 SWAP1 SWAP4 ADD MLOAD ISZERO ISZERO PUSH2 0x100 MUL PUSH2 0xFF00 NOT SWAP3 ISZERO ISZERO SWAP3 SWAP1 SWAP3 AND PUSH2 0xFFFF NOT SWAP1 SWAP4 AND SWAP3 SWAP1 SWAP3 OR OR SWAP1 SSTORE POP JUMPDEST PUSH1 0x1 PUSH1 0x1 PUSH1 0xA0 SHL SUB DUP6 DUP2 AND PUSH1 0x0 SWAP1 DUP2 MSTORE PUSH1 0x1 PUSH1 0x20 DUP2 DUP2 MSTORE PUSH1 0x40 SWAP3 DUP4 SWAP1 KECCAK256 DUP6 MLOAD DUP2 SSTORE SWAP1 DUP6 ADD MLOAD SWAP2 DUP2 ADD DUP1 SLOAD PUSH1 0x1 PUSH1 0x1 PUSH1 0xA0 SHL SUB NOT AND SWAP3 SWAP1 SWAP5 AND SWAP2 SWAP1 SWAP2 OR SWAP1 SWAP3 SSTORE DUP3 ADD MLOAD DUP3 SWAP2 SWAP1 PUSH1 0x2 DUP3 ADD SWAP1 PUSH2 0xE03 SWAP1 DUP3 PUSH2 0x426B JUMP JUMPDEST POP PUSH1 0x60 DUP3 ADD MLOAD PUSH1 0x3 DUP3 ADD SSTORE PUSH1 0x80 DUP3 ADD MLOAD PUSH1 0x4 SWAP1 SWAP2 ADD DUP1 SLOAD PUSH1 0xA0 DUP5 ADD MLOAD PUSH1 0xC0 SWAP1 SWAP5 ADD MLOAD ISZERO ISZERO PUSH3 0x10000 MUL PUSH3 0xFF0000 NOT SWAP5 ISZERO ISZERO PUSH2 0x100 MUL PUSH2 0xFF00 NOT SWAP5 ISZERO ISZERO SWAP5 SWAP1 SWAP5 AND PUSH2 0xFFFF NOT SWAP1 SWAP3 AND SWAP2 SWAP1 SWAP2 OR SWAP3 SWAP1 SWAP3 OR SWAP3 SWAP1 SWAP3 AND OR SWAP1 SSTORE PUSH1 0xE DUP1 SLOAD SWAP1 PUSH1 0x0 PUSH2 0xE69 DUP4 PUSH2 0x4203 JUMP JUMPDEST SWAP2 SWAP1 POP SSTORE POP POP POP POP POP POP JUMP JUMPDEST PUSH1 0x3 DUP2 DUP2 SLOAD DUP2 LT PUSH2 0xE85 JUMPI PUSH1 0x0 DUP1 REVERT JUMPDEST PUSH1 0x0 SWAP2 DUP3 MSTORE PUSH1 0x20 SWAP1 SWAP2 KECCAK256 PUSH1 0x7 SWAP1 SWAP2 MUL ADD DUP1 SLOAD PUSH1 0x1 DUP3 ADD SLOAD PUSH1 0x2 DUP4 ADD DUP1 SLOAD SWAP3 SWAP5 POP PUSH1 0x1 PUSH1 0x1 PUSH1 0xA0 SHL SUB SWAP1 SWAP2 AND SWAP3 SWAP2 PUSH2 0xEBB SWAP1 PUSH2 0x41B3 JUMP JUMPDEST DUP1 PUSH1 0x1F ADD PUSH1 0x20 DUP1 SWAP2 DIV MUL PUSH1 0x20 ADD PUSH1 0x40 MLOAD SWAP1 DUP2 ADD PUSH1 0x40 MSTORE DUP1 SWAP3 SWAP2 SWAP1 DUP2 DUP2 MSTORE PUSH1 0x20 ADD DUP3 DUP1 SLOAD PUSH2 0xEE7 SWAP1 PUSH2 0x41B3 JUMP JUMPDEST DUP1 ISZERO PUSH2 0xF34 JUMPI DUP1 PUSH1 0x1F LT PUSH2 0xF09 JUMPI PUSH2 0x100 DUP1 DUP4 SLOAD DIV MUL DUP4 MSTORE SWAP2 PUSH1 0x20 ADD SWAP2 PUSH2 0xF34 JUMP JUMPDEST DUP3 ADD SWAP2 SWAP1 PUSH1 0x0 MSTORE PUSH1 0x20 PUSH1 0x0 KECCAK256 SWAP1 JUMPDEST DUP2 SLOAD DUP2 MSTORE SWAP1 PUSH1 0x1 ADD SWAP1 PUSH1 0x20 ADD DUP1 DUP4 GT PUSH2 0xF17 JUMPI DUP3 SWAP1 SUB PUSH1 0x1F AND DUP3 ADD SWAP2 JUMPDEST POP POP POP POP PUSH1 0x3 DUP4 ADD SLOAD PUSH1 0x4 DUP5 ADD SLOAD PUSH1 0x5 DUP6 ADD SLOAD PUSH1 0x6 SWAP1 SWAP6 ADD SLOAD SWAP4 SWAP5 SWAP2 SWAP4 SWAP1 SWAP3 POP PUSH1 0xFF AND DUP8 JUMP JUMPDEST PUSH1 0x0 DUP1 PUSH1 0x3 DUP4 DUP2 SLOAD DUP2 LT PUSH2 0xF70 JUMPI PUSH2 0xF70 PUSH2 0x41ED JUMP JUMPDEST SWAP1 PUSH1 0x0 MSTORE PUSH1 0x20 PUSH1 0x0 KECCAK256 SWAP1 PUSH1 0x7 MUL ADD PUSH1 0x40 MLOAD DUP1 PUSH1 0xE0 ADD PUSH1 0x40 MSTORE SWAP1 DUP2 PUSH1 0x0 DUP3 ADD SLOAD DUP2 MSTORE PUSH1 0x20 ADD PUSH1 0x1 DUP3 ADD PUSH1 0x0 SWAP1 SLOAD SWAP1 PUSH2 0x100 EXP SWAP1 DIV PUSH1 0x1 PUSH1 0x1 PUSH1 0xA0 SHL SUB AND PUSH1 0x1 PUSH1 0x1 PUSH1 0xA0 SHL SUB AND PUSH1 0x1 PUSH1 0x1 PUSH1 0xA0 SHL SUB AND DUP2 MSTORE PUSH1 0x20 ADD PUSH1 0x2 DUP3 ADD DUP1 SLOAD PUSH2 0xFD2 SWAP1 PUSH2 0x41B3 JUMP JUMPDEST DUP1 PUSH1 0x1F ADD PUSH1 0x20 DUP1 SWAP2 DIV MUL PUSH1 0x20 ADD PUSH1 0x40 MLOAD SWAP1 DUP2 ADD PUSH1 0x40 MSTORE DUP1 SWAP3 SWAP2 SWAP1 DUP2 DUP2 MSTORE PUSH1 0x20 ADD DUP3 DUP1 SLOAD PUSH2 0xFFE SWAP1 PUSH2 0x41B3 JUMP JUMPDEST DUP1 ISZERO PUSH2 0x104B JUMPI DUP1 PUSH1 0x1F LT PUSH2 0x1020 JUMPI PUSH2 0x100 DUP1 DUP4 SLOAD DIV MUL DUP4 MSTORE SWAP2 PUSH1 0x20 ADD SWAP2 PUSH2 0x104B JUMP JUMPDEST DUP3 ADD SWAP2 SWAP1 PUSH1 0x0 MSTORE PUSH1 0x20 PUSH1 0x0 KECCAK256 SWAP1 JUMPDEST DUP2 SLOAD DUP2 MSTORE SWAP1 PUSH1 0x1 ADD SWAP1 PUSH1 0x20 ADD DUP1 DUP4 GT PUSH2 0x102E JUMPI DUP3 SWAP1 SUB PUSH1 0x1F AND DUP3 ADD SWAP2 JUMPDEST POP POP POP SWAP2 DUP4 MSTORE POP POP PUSH1 0x3 DUP3 ADD SLOAD PUSH1 0x20 DUP3 ADD MSTORE PUSH1 0x4 DUP3 ADD SLOAD PUSH1 0x40 DUP3 ADD MSTORE PUSH1 0x5 DUP1 DUP4 ADD SLOAD PUSH1 0x60 DUP4 ADD MSTORE PUSH1 0x6 SWAP1 SWAP3 ADD SLOAD PUSH1 0xFF AND ISZERO ISZERO PUSH1 0x80 SWAP2 DUP3 ADD MSTORE PUSH1 0xA0 DUP4 ADD MLOAD SWAP1 DUP4 ADD MLOAD SWAP3 SWAP4 POP SWAP2 SWAP1 PUSH1 0x0 SWAP1 PUSH1 0xA SWAP1 PUSH2 0x10A2 SWAP1 DUP6 SWAP1 PUSH2 0x4189 JUMP JUMPDEST PUSH2 0x10AC SWAP2 SWAP1 PUSH2 0x432A JUMP JUMPDEST SWAP1 POP PUSH1 0x0 PUSH2 0x10BA DUP4 DUP4 PUSH2 0x432A JUMP JUMPDEST SWAP8 SWAP7 POP POP POP POP POP POP POP JUMP JUMPDEST PUSH1 0x60 PUSH1 0x0 PUSH1 0x3 DUP5 DUP2 SLOAD DUP2 LT PUSH2 0x10DC JUMPI PUSH2 0x10DC PUSH2 0x41ED JUMP JUMPDEST SWAP1 PUSH1 0x0 MSTORE PUSH1 0x20 PUSH1 0x0 KECCAK256 SWAP1 PUSH1 0x7 MUL ADD PUSH1 0x40 MLOAD DUP1 PUSH1 0xE0 ADD PUSH1 0x40 MSTORE SWAP1 DUP2 PUSH1 0x0 DUP3 ADD SLOAD DUP2 MSTORE PUSH1 0x20 ADD PUSH1 0x1 DUP3 ADD PUSH1 0x0 SWAP1 SLOAD SWAP1 PUSH2 0x100 EXP SWAP1 DIV PUSH1 0x1 PUSH1 0x1 PUSH1 0xA0 SHL SUB AND PUSH1 0x1 PUSH1 0x1 PUSH1 0xA0 SHL SUB AND PUSH1 0x1 PUSH1 0x1 PUSH1 0xA0 SHL SUB AND DUP2 MSTORE PUSH1 0x20 ADD PUSH1 0x2 DUP3 ADD DUP1 SLOAD PUSH2 0x113E SWAP1 PUSH2 0x41B3 JUMP JUMPDEST DUP1 PUSH1 0x1F ADD PUSH1 0x20 DUP1 SWAP2 DIV MUL PUSH1 0x20 ADD PUSH1 0x40 MLOAD SWAP1 DUP2 ADD PUSH1 0x40 MSTORE DUP1 SWAP3 SWAP2 SWAP1 DUP2 DUP2 MSTORE PUSH1 0x20 ADD DUP3 DUP1 SLOAD PUSH2 0x116A SWAP1 PUSH2 0x41B3 JUMP JUMPDEST DUP1 ISZERO PUSH2 0x11B7 JUMPI DUP1 PUSH1 0x1F LT PUSH2 0x118C JUMPI PUSH2 0x100 DUP1 DUP4 SLOAD DIV MUL DUP4 MSTORE SWAP2 PUSH1 0x20 ADD SWAP2 PUSH2 0x11B7 JUMP JUMPDEST DUP3 ADD SWAP2 SWAP1 PUSH1 0x0 MSTORE PUSH1 0x20 PUSH1 0x0 KECCAK256 SWAP1 JUMPDEST DUP2 SLOAD DUP2 MSTORE SWAP1 PUSH1 0x1 ADD SWAP1 PUSH1 0x20 ADD DUP1 DUP4 GT PUSH2 0x119A JUMPI DUP3 SWAP1 SUB PUSH1 0x1F AND DUP3 ADD SWAP2 JUMPDEST POP POP POP POP POP DUP2 MSTORE PUSH1 0x20 ADD PUSH1 0x3 DUP3 ADD SLOAD DUP2 MSTORE PUSH1 0x20 ADD PUSH1 0x4 DUP3 ADD SLOAD DUP2 MSTORE PUSH1 0x20 ADD PUSH1 0x5 DUP3 ADD SLOAD DUP2 MSTORE PUSH1 0x20 ADD PUSH1 0x6 DUP3 ADD PUSH1 0x0 SWAP1 SLOAD SWAP1 PUSH2 0x100 EXP SWAP1 DIV PUSH1 0xFF AND ISZERO ISZERO ISZERO ISZERO DUP2 MSTORE POP POP SWAP1 POP PUSH1 0x0 PUSH1 0x5 PUSH1 0x0 DUP7 DUP2 MSTORE PUSH1 0x20 ADD SWAP1 DUP2 MSTORE PUSH1 0x20 ADD PUSH1 0x0 KECCAK256 DUP1 SLOAD DUP1 PUSH1 0x20 MUL PUSH1 0x20 ADD PUSH1 0x40 MLOAD SWAP1 DUP2 ADD PUSH1 0x40 MSTORE DUP1 SWAP3 SWAP2 SWAP1 DUP2 DUP2 MSTORE PUSH1 0x20 ADD PUSH1 0x0 SWAP1 JUMPDEST DUP3 DUP3 LT ISZERO PUSH2 0x12B0 JUMPI PUSH1 0x0 DUP5 DUP2 MSTORE PUSH1 0x20 SWAP1 DUP2 SWAP1 KECCAK256 PUSH1 0x40 DUP1 MLOAD PUSH1 0xC0 DUP2 ADD DUP3 MSTORE PUSH1 0x4 DUP7 MUL SWAP1 SWAP3 ADD DUP1 SLOAD DUP4 MSTORE PUSH1 0x1 DUP1 DUP3 ADD SLOAD DUP5 DUP7 ADD MSTORE PUSH1 0x2 DUP3 ADD SLOAD SWAP3 DUP5 ADD SWAP3 SWAP1 SWAP3 MSTORE PUSH1 0x3 ADD SLOAD PUSH1 0x1 PUSH1 0x1 PUSH1 0xA0 SHL SUB DUP2 AND PUSH1 0x60 DUP5 ADD MSTORE PUSH1 0xFF PUSH1 0x1 PUSH1 0xA0 SHL DUP3 DIV DUP2 AND ISZERO ISZERO PUSH1 0x80 DUP6 ADD MSTORE PUSH1 0x1 PUSH1 0xA8 SHL SWAP1 SWAP2 DIV AND ISZERO ISZERO PUSH1 0xA0 DUP4 ADD MSTORE SWAP1 DUP4 MSTORE SWAP1 SWAP3 ADD SWAP2 ADD PUSH2 0x1230 JUMP JUMPDEST POP POP POP POP PUSH1 0x60 DUP4 ADD MLOAD SWAP1 SWAP2 POP PUSH1 0x0 DUP2 PUSH1 0x1 PUSH1 0x1 PUSH1 0x40 SHL SUB DUP2 GT ISZERO PUSH2 0x12D6 JUMPI PUSH2 0x12D6 PUSH2 0x39F6 JUMP JUMPDEST PUSH1 0x40 MLOAD SWAP1 DUP1 DUP3 MSTORE DUP1 PUSH1 0x20 MUL PUSH1 0x20 ADD DUP3 ADD PUSH1 0x40 MSTORE DUP1 ISZERO PUSH2 0x130F JUMPI DUP2 PUSH1 0x20 ADD JUMPDEST PUSH2 0x12FC PUSH2 0x36DC JUMP JUMPDEST DUP2 MSTORE PUSH1 0x20 ADD SWAP1 PUSH1 0x1 SWAP1 SUB SWAP1 DUP2 PUSH2 0x12F4 JUMPI SWAP1 POP JUMPDEST POP SWAP1 POP PUSH1 0x0 DUP1 JUMPDEST DUP5 MLOAD DUP2 LT ISZERO PUSH2 0x13A6 JUMPI PUSH1 0x0 DUP6 DUP3 DUP2 MLOAD DUP2 LT PUSH2 0x1333 JUMPI PUSH2 0x1333 PUSH2 0x41ED JUMP JUMPDEST PUSH1 0x20 MUL PUSH1 0x20 ADD ADD MLOAD SWAP1 POP DUP9 PUSH1 0x1 PUSH1 0x1 PUSH1 0xA0 SHL SUB AND DUP2 PUSH1 0x60 ADD MLOAD PUSH1 0x1 PUSH1 0x1 PUSH1 0xA0 SHL SUB AND SUB PUSH2 0x1393 JUMPI DUP1 DUP5 DUP5 DUP2 MLOAD DUP2 LT PUSH2 0x136D JUMPI PUSH2 0x136D PUSH2 0x41ED JUMP JUMPDEST PUSH1 0x20 MUL PUSH1 0x20 ADD ADD DUP2 SWAP1 MSTORE POP DUP3 DUP1 PUSH2 0x1383 SWAP1 PUSH2 0x4203 JUMP JUMPDEST SWAP4 POP POP DUP5 DUP4 SUB PUSH2 0x1393 JUMPI POP PUSH2 0x13A6 JUMP JUMPDEST POP DUP1 PUSH2 0x139E DUP2 PUSH2 0x4203 JUMP JUMPDEST SWAP2 POP POP PUSH2 0x1316 JUMP JUMPDEST POP SWAP1 SWAP8 SWAP7 POP POP POP POP POP POP POP JUMP JUMPDEST PUSH2 0x13BB PUSH2 0x371F JUMP JUMPDEST PUSH1 0x1 PUSH1 0x1 PUSH1 0xA0 SHL SUB DUP1 DUP4 AND PUSH1 0x0 SWAP1 DUP2 MSTORE PUSH1 0x2 PUSH1 0x20 DUP2 DUP2 MSTORE PUSH1 0x40 SWAP3 DUP4 SWAP1 KECCAK256 DUP4 MLOAD PUSH2 0x100 DUP2 ADD DUP6 MSTORE DUP2 SLOAD DUP2 MSTORE PUSH1 0x1 DUP3 ADD SLOAD SWAP1 SWAP6 AND SWAP2 DUP6 ADD SWAP2 SWAP1 SWAP2 MSTORE SWAP1 DUP2 ADD DUP1 SLOAD SWAP2 SWAP3 DUP5 ADD SWAP2 PUSH2 0x1407 SWAP1 PUSH2 0x41B3 JUMP JUMPDEST DUP1 PUSH1 0x1F ADD PUSH1 0x20 DUP1 SWAP2 DIV MUL PUSH1 0x20 ADD PUSH1 0x40 MLOAD SWAP1 DUP2 ADD PUSH1 0x40 MSTORE DUP1 SWAP3 SWAP2 SWAP1 DUP2 DUP2 MSTORE PUSH1 0x20 ADD DUP3 DUP1 SLOAD PUSH2 0x1433 SWAP1 PUSH2 0x41B3 JUMP JUMPDEST DUP1 ISZERO PUSH2 0x1480 JUMPI DUP1 PUSH1 0x1F LT PUSH2 0x1455 JUMPI PUSH2 0x100 DUP1 DUP4 SLOAD DIV MUL DUP4 MSTORE SWAP2 PUSH1 0x20 ADD SWAP2 PUSH2 0x1480 JUMP JUMPDEST DUP3 ADD SWAP2 SWAP1 PUSH1 0x0 MSTORE PUSH1 0x20 PUSH1 0x0 KECCAK256 SWAP1 JUMPDEST DUP2 SLOAD DUP2 MSTORE SWAP1 PUSH1 0x1 ADD SWAP1 PUSH1 0x20 ADD DUP1 DUP4 GT PUSH2 0x1463 JUMPI DUP3 SWAP1 SUB PUSH1 0x1F AND DUP3 ADD SWAP2 JUMPDEST POP POP POP POP POP DUP2 MSTORE PUSH1 0x20 ADD PUSH1 0x3 DUP3 ADD DUP1 SLOAD PUSH2 0x1499 SWAP1 PUSH2 0x41B3 JUMP JUMPDEST DUP1 PUSH1 0x1F ADD PUSH1 0x20 DUP1 SWAP2 DIV MUL PUSH1 0x20 ADD PUSH1 0x40 MLOAD SWAP1 DUP2 ADD PUSH1 0x40 MSTORE DUP1 SWAP3 SWAP2 SWAP1 DUP2 DUP2 MSTORE PUSH1 0x20 ADD DUP3 DUP1 SLOAD PUSH2 0x14C5 SWAP1 PUSH2 0x41B3 JUMP JUMPDEST DUP1 ISZERO PUSH2 0x1512 JUMPI DUP1 PUSH1 0x1F LT PUSH2 0x14E7 JUMPI PUSH2 0x100 DUP1 DUP4 SLOAD DIV MUL DUP4 MSTORE SWAP2 PUSH1 0x20 ADD SWAP2 PUSH2 0x1512 JUMP JUMPDEST DUP3 ADD SWAP2 SWAP1 PUSH1 0x0 MSTORE PUSH1 0x20 PUSH1 0x0 KECCAK256 SWAP1 JUMPDEST DUP2 SLOAD DUP2 MSTORE SWAP1 PUSH1 0x1 ADD SWAP1 PUSH1 0x20 ADD DUP1 DUP4 GT PUSH2 0x14F5 JUMPI DUP3 SWAP1 SUB PUSH1 0x1F AND DUP3 ADD SWAP2 JUMPDEST POP POP POP SWAP2 DUP4 MSTORE POP POP PUSH1 0x4 DUP3 ADD SLOAD PUSH1 0x20 DUP3 ADD MSTORE PUSH1 0x5 DUP3 ADD SLOAD PUSH1 0x40 DUP3 ADD MSTORE PUSH1 0x6 SWAP1 SWAP2 ADD SLOAD PUSH1 0xFF DUP1 DUP3 AND ISZERO ISZERO PUSH1 0x60 DUP5 ADD MSTORE PUSH2 0x100 SWAP1 SWAP2 DIV AND ISZERO ISZERO PUSH1 0x80 SWAP1 SWAP2 ADD MSTORE SWAP3 SWAP2 POP POP JUMP JUMPDEST PUSH1 0x1 PUSH1 0x1 PUSH1 0xA0 SHL SUB DUP2 AND PUSH1 0x0 SWAP1 DUP2 MSTORE PUSH1 0x2 PUSH1 0x20 MSTORE PUSH1 0x40 DUP2 KECCAK256 PUSH1 0x5 ADD SLOAD DUP2 DUP2 PUSH1 0x1 PUSH1 0x1 PUSH1 0x40 SHL SUB DUP2 GT ISZERO PUSH2 0x158A JUMPI PUSH2 0x158A PUSH2 0x39F6 JUMP JUMPDEST PUSH1 0x40 MLOAD SWAP1 DUP1 DUP3 MSTORE DUP1 PUSH1 0x20 MUL PUSH1 0x20 ADD DUP3 ADD PUSH1 0x40 MSTORE DUP1 ISZERO PUSH2 0x15C3 JUMPI DUP2 PUSH1 0x20 ADD JUMPDEST PUSH2 0x15B0 PUSH2 0x3771 JUMP JUMPDEST DUP2 MSTORE PUSH1 0x20 ADD SWAP1 PUSH1 0x1 SWAP1 SUB SWAP1 DUP2 PUSH2 0x15A8 JUMPI SWAP1 POP JUMPDEST POP SWAP1 POP PUSH1 0x0 DUP1 JUMPDEST DUP3 MLOAD DUP2 LT ISZERO PUSH2 0x1617 JUMPI PUSH1 0x0 DUP4 DUP3 DUP2 MLOAD DUP2 LT PUSH2 0x15E7 JUMPI PUSH2 0x15E7 PUSH2 0x41ED JUMP JUMPDEST PUSH1 0x20 MUL PUSH1 0x20 ADD ADD MLOAD SWAP1 POP DUP1 PUSH1 0x60 ADD MLOAD DUP4 PUSH2 0x1601 SWAP2 SWAP1 PUSH2 0x41A0 JUMP JUMPDEST SWAP3 POP POP DUP1 DUP1 PUSH2 0x160F SWAP1 PUSH2 0x4203 JUMP JUMPDEST SWAP2 POP POP PUSH2 0x15CA JUMP JUMPDEST POP SWAP5 SWAP4 POP POP POP POP JUMP JUMPDEST PUSH1 0x1 PUSH1 0x1 PUSH1 0xA0 SHL SUB DUP2 AND PUSH1 0x0 SWAP1 DUP2 MSTORE PUSH1 0x2 PUSH1 0x20 MSTORE PUSH1 0x40 DUP2 KECCAK256 PUSH1 0x5 ADD SLOAD PUSH1 0x60 SWAP2 DUP2 PUSH1 0x1 PUSH1 0x1 PUSH1 0x40 SHL SUB DUP2 GT ISZERO PUSH2 0x1657 JUMPI PUSH2 0x1657 PUSH2 0x39F6 JUMP JUMPDEST PUSH1 0x40 MLOAD SWAP1 DUP1 DUP3 MSTORE DUP1 PUSH1 0x20 MUL PUSH1 0x20 ADD DUP3 ADD PUSH1 0x40 MSTORE DUP1 ISZERO PUSH2 0x1690 JUMPI DUP2 PUSH1 0x20 ADD JUMPDEST PUSH2 0x167D PUSH2 0x3771 JUMP JUMPDEST DUP2 MSTORE PUSH1 0x20 ADD SWAP1 PUSH1 0x1 SWAP1 SUB SWAP1 DUP2 PUSH2 0x1675 JUMPI SWAP1 POP JUMPDEST POP SWAP1 POP PUSH1 0x0 DUP1 JUMPDEST PUSH1 0xD SLOAD DUP2 LT ISZERO PUSH2 0xB14 JUMPI PUSH1 0x0 PUSH1 0xD DUP3 DUP2 SLOAD DUP2 LT PUSH2 0x16B6 JUMPI PUSH2 0x16B6 PUSH2 0x41ED JUMP JUMPDEST PUSH1 0x0 SWAP2 DUP3 MSTORE PUSH1 0x20 SWAP2 DUP3 SWAP1 KECCAK256 PUSH1 0x40 DUP1 MLOAD PUSH1 0xA0 DUP2 ADD DUP3 MSTORE PUSH1 0x5 SWAP1 SWAP4 MUL SWAP1 SWAP2 ADD DUP1 SLOAD DUP4 MSTORE PUSH1 0x1 DUP2 ADD SLOAD SWAP4 DUP4 ADD SWAP4 SWAP1 SWAP4 MSTORE PUSH1 0x2 DUP4 ADD SLOAD PUSH1 0x1 PUSH1 0x1 PUSH1 0xA0 SHL SUB SWAP1 DUP2 AND SWAP2 DUP4 ADD DUP3 SWAP1 MSTORE PUSH1 0x3 DUP5 ADD SLOAD PUSH1 0x60 DUP5 ADD MSTORE PUSH1 0x4 SWAP1 SWAP4 ADD SLOAD PUSH1 0xFF AND ISZERO ISZERO PUSH1 0x80 DUP4 ADD MSTORE SWAP1 SWAP3 POP SWAP1 DUP9 AND SWAP1 SUB PUSH2 0x1758 JUMPI DUP1 DUP5 DUP5 DUP2 MLOAD DUP2 LT PUSH2 0x1732 JUMPI PUSH2 0x1732 PUSH2 0x41ED JUMP JUMPDEST PUSH1 0x20 MUL PUSH1 0x20 ADD ADD DUP2 SWAP1 MSTORE POP DUP3 DUP1 PUSH2 0x1748 SWAP1 PUSH2 0x4203 JUMP JUMPDEST SWAP4 POP POP DUP5 DUP4 SUB PUSH2 0x1758 JUMPI POP PUSH2 0xB14 JUMP JUMPDEST POP DUP1 PUSH2 0x1763 DUP2 PUSH2 0x4203 JUMP JUMPDEST SWAP2 POP POP PUSH2 0x1697 JUMP JUMPDEST PUSH1 0x60 PUSH1 0x0 PUSH2 0x1778 DUP4 PUSH2 0x1620 JUMP JUMPDEST SWAP1 POP PUSH1 0x0 DUP2 MLOAD PUSH1 0x1 PUSH1 0x1 PUSH1 0x40 SHL SUB DUP2 GT ISZERO PUSH2 0x1795 JUMPI PUSH2 0x1795 PUSH2 0x39F6 JUMP JUMPDEST PUSH1 0x40 MLOAD SWAP1 DUP1 DUP3 MSTORE DUP1 PUSH1 0x20 MUL PUSH1 0x20 ADD DUP3 ADD PUSH1 0x40 MSTORE DUP1 ISZERO PUSH2 0x17CE JUMPI DUP2 PUSH1 0x20 ADD JUMPDEST PUSH2 0x17BB PUSH2 0x3694 JUMP JUMPDEST DUP2 MSTORE PUSH1 0x20 ADD SWAP1 PUSH1 0x1 SWAP1 SUB SWAP1 DUP2 PUSH2 0x17B3 JUMPI SWAP1 POP JUMPDEST POP SWAP1 POP PUSH1 0x0 DUP1 JUMPDEST DUP4 MLOAD DUP2 LT ISZERO PUSH2 0xB14 JUMPI PUSH1 0x0 DUP5 DUP3 DUP2 MLOAD DUP2 LT PUSH2 0x17F2 JUMPI PUSH2 0x17F2 PUSH2 0x41ED JUMP JUMPDEST PUSH1 0x20 MUL PUSH1 0x20 ADD ADD MLOAD SWAP1 POP PUSH1 0x3 DUP2 PUSH1 0x20 ADD MLOAD DUP2 SLOAD DUP2 LT PUSH2 0x1813 JUMPI PUSH2 0x1813 PUSH2 0x41ED JUMP JUMPDEST SWAP1 PUSH1 0x0 MSTORE PUSH1 0x20 PUSH1 0x0 KECCAK256 SWAP1 PUSH1 0x7 MUL ADD PUSH1 0x40 MLOAD DUP1 PUSH1 0xE0 ADD PUSH1 0x40 MSTORE SWAP1 DUP2 PUSH1 0x0 DUP3 ADD SLOAD DUP2 MSTORE PUSH1 0x20 ADD PUSH1 0x1 DUP3 ADD PUSH1 0x0 SWAP1 SLOAD SWAP1 PUSH2 0x100 EXP SWAP1 DIV PUSH1 0x1 PUSH1 0x1 PUSH1 0xA0 SHL SUB AND PUSH1 0x1 PUSH1 0x1 PUSH1 0xA0 SHL SUB AND PUSH1 0x1 PUSH1 0x1 PUSH1 0xA0 SHL SUB AND DUP2 MSTORE PUSH1 0x20 ADD PUSH1 0x2 DUP3 ADD DUP1 SLOAD PUSH2 0x1875 SWAP1 PUSH2 0x41B3 JUMP JUMPDEST DUP1 PUSH1 0x1F ADD PUSH1 0x20 DUP1 SWAP2 DIV MUL PUSH1 0x20 ADD PUSH1 0x40 MLOAD SWAP1 DUP2 ADD PUSH1 0x40 MSTORE DUP1 SWAP3 SWAP2 SWAP1 DUP2 DUP2 MSTORE PUSH1 0x20 ADD DUP3 DUP1 SLOAD PUSH2 0x18A1 SWAP1 PUSH2 0x41B3 JUMP JUMPDEST DUP1 ISZERO PUSH2 0x18EE JUMPI DUP1 PUSH1 0x1F LT PUSH2 0x18C3 JUMPI PUSH2 0x100 DUP1 DUP4 SLOAD DIV MUL DUP4 MSTORE SWAP2 PUSH1 0x20 ADD SWAP2 PUSH2 0x18EE JUMP JUMPDEST DUP3 ADD SWAP2 SWAP1 PUSH1 0x0 MSTORE PUSH1 0x20 PUSH1 0x0 KECCAK256 SWAP1 JUMPDEST DUP2 SLOAD DUP2 MSTORE SWAP1 PUSH1 0x1 ADD SWAP1 PUSH1 0x20 ADD DUP1 DUP4 GT PUSH2 0x18D1 JUMPI DUP3 SWAP1 SUB PUSH1 0x1F AND DUP3 ADD SWAP2 JUMPDEST POP POP POP SWAP2 DUP4 MSTORE POP POP PUSH1 0x3 DUP3 ADD SLOAD PUSH1 0x20 DUP3 ADD MSTORE PUSH1 0x4 DUP3 ADD SLOAD PUSH1 0x40 DUP3 ADD MSTORE PUSH1 0x5 DUP3 ADD SLOAD PUSH1 0x60 DUP3 ADD MSTORE PUSH1 0x6 SWAP1 SWAP2 ADD SLOAD PUSH1 0xFF AND ISZERO ISZERO PUSH1 0x80 SWAP1 SWAP2 ADD MSTORE DUP5 MLOAD DUP6 SWAP1 DUP6 SWAP1 DUP2 LT PUSH2 0x1939 JUMPI PUSH2 0x1939 PUSH2 0x41ED JUMP JUMPDEST PUSH1 0x20 MUL PUSH1 0x20 ADD ADD DUP2 SWAP1 MSTORE POP DUP3 DUP1 PUSH2 0x194F SWAP1 PUSH2 0x4203 JUMP JUMPDEST SWAP4 POP POP POP DUP1 DUP1 PUSH2 0x195E SWAP1 PUSH2 0x4203 JUMP JUMPDEST SWAP2 POP POP PUSH2 0x17D5 JUMP JUMPDEST PUSH1 0xF SLOAD PUSH2 0x1971 PUSH2 0x371F JUMP JUMPDEST DUP2 DUP2 MSTORE PUSH1 0x1 PUSH1 0x1 PUSH1 0xA0 SHL SUB DUP7 AND PUSH1 0x20 DUP3 ADD MSTORE PUSH1 0x40 DUP2 ADD DUP6 SWAP1 MSTORE PUSH1 0x60 DUP2 ADD DUP5 SWAP1 MSTORE PUSH1 0x80 DUP2 ADD DUP4 SWAP1 MSTORE PUSH2 0x19A1 DUP7 PUSH2 0x2A34 JUMP JUMPDEST ISZERO PUSH2 0x1A6D JUMPI PUSH1 0x0 PUSH2 0x19B1 DUP8 PUSH2 0x7F5 JUMP JUMPDEST PUSH1 0x1 PUSH1 0x80 DUP3 ADD DUP2 SWAP1 MSTORE PUSH1 0xC0 DUP5 ADD DUP2 SWAP1 MSTORE PUSH1 0x1 PUSH1 0x1 PUSH1 0xA0 SHL SUB DUP10 DUP2 AND PUSH1 0x0 SWAP1 DUP2 MSTORE PUSH1 0x20 DUP4 DUP2 MSTORE PUSH1 0x40 SWAP2 DUP3 SWAP1 KECCAK256 DUP6 MLOAD DUP2 SSTORE SWAP1 DUP6 ADD MLOAD SWAP4 DUP2 ADD DUP1 SLOAD PUSH1 0x1 PUSH1 0x1 PUSH1 0xA0 SHL SUB NOT AND SWAP5 SWAP1 SWAP4 AND SWAP4 SWAP1 SWAP4 OR SWAP1 SWAP2 SSTORE DUP3 ADD MLOAD SWAP2 SWAP3 POP DUP3 SWAP2 PUSH1 0x2 DUP3 ADD SWAP1 PUSH2 0x1A15 SWAP1 DUP3 PUSH2 0x426B JUMP JUMPDEST POP PUSH1 0x60 DUP3 ADD MLOAD PUSH1 0x3 DUP3 ADD SSTORE PUSH1 0x80 DUP3 ADD MLOAD PUSH1 0x4 SWAP1 SWAP2 ADD DUP1 SLOAD PUSH1 0xA0 DUP5 ADD MLOAD PUSH1 0xC0 SWAP1 SWAP5 ADD MLOAD ISZERO ISZERO PUSH3 0x10000 MUL PUSH3 0xFF0000 NOT SWAP5 ISZERO ISZERO PUSH2 0x100 MUL PUSH2 0xFF00 NOT SWAP5 ISZERO ISZERO SWAP5 SWAP1 SWAP5 AND PUSH2 0xFFFF NOT SWAP1 SWAP3 AND SWAP2 SWAP1 SWAP2 OR SWAP3 SWAP1 SWAP3 OR SWAP3 SWAP1 SWAP3 AND OR SWAP1 SSTORE POP JUMPDEST PUSH1 0x1 PUSH1 0x1 PUSH1 0xA0 SHL SUB DUP7 DUP2 AND PUSH1 0x0 SWAP1 DUP2 MSTORE PUSH1 0x2 PUSH1 0x20 DUP2 DUP2 MSTORE PUSH1 0x40 SWAP3 DUP4 SWAP1 KECCAK256 DUP6 MLOAD DUP2 SSTORE SWAP1 DUP6 ADD MLOAD PUSH1 0x1 DUP3 ADD DUP1 SLOAD PUSH1 0x1 PUSH1 0x1 PUSH1 0xA0 SHL SUB NOT AND SWAP2 SWAP1 SWAP6 AND OR SWAP1 SWAP4 SSTORE SWAP1 DUP4 ADD MLOAD DUP4 SWAP3 SWAP2 DUP3 ADD SWAP1 PUSH2 0x1ABE SWAP1 DUP3 PUSH2 0x426B JUMP JUMPDEST POP PUSH1 0x60 DUP3 ADD MLOAD PUSH1 0x3 DUP3 ADD SWAP1 PUSH2 0x1AD3 SWAP1 DUP3 PUSH2 0x426B JUMP JUMPDEST POP PUSH1 0x80 DUP3 ADD MLOAD PUSH1 0x4 DUP3 ADD SSTORE PUSH1 0xA0 DUP3 ADD MLOAD PUSH1 0x5 DUP3 ADD SSTORE PUSH1 0xC0 DUP3 ADD MLOAD PUSH1 0x6 SWAP1 SWAP2 ADD DUP1 SLOAD PUSH1 0xE0 SWAP1 SWAP4 ADD MLOAD ISZERO ISZERO PUSH2 0x100 MUL PUSH2 0xFF00 NOT SWAP3 ISZERO ISZERO SWAP3 SWAP1 SWAP3 AND PUSH2 0xFFFF NOT SWAP1 SWAP4 AND SWAP3 SWAP1 SWAP3 OR OR SWAP1 SSTORE PUSH1 0xF DUP1 SLOAD SWAP1 PUSH1 0x0 PUSH2 0x1B29 DUP4 PUSH2 0x4203 JUMP JUMPDEST SWAP2 SWAP1 POP SSTORE POP POP POP POP POP POP POP JUMP JUMPDEST PUSH1 0x0 DUP1 PUSH1 0x3 DUP5 DUP2 SLOAD DUP2 LT PUSH2 0x1B4C JUMPI PUSH2 0x1B4C PUSH2 0x41ED JUMP JUMPDEST SWAP1 PUSH1 0x0 MSTORE PUSH1 0x20 PUSH1 0x0 KECCAK256 SWAP1 PUSH1 0x7 MUL ADD PUSH1 0x40 MLOAD DUP1 PUSH1 0xE0 ADD PUSH1 0x40 MSTORE SWAP1 DUP2 PUSH1 0x0 DUP3 ADD SLOAD DUP2 MSTORE PUSH1 0x20 ADD PUSH1 0x1 DUP3 ADD PUSH1 0x0 SWAP1 SLOAD SWAP1 PUSH2 0x100 EXP SWAP1 DIV PUSH1 0x1 PUSH1 0x1 PUSH1 0xA0 SHL SUB AND PUSH1 0x1 PUSH1 0x1 PUSH1 0xA0 SHL SUB AND PUSH1 0x1 PUSH1 0x1 PUSH1 0xA0 SHL SUB AND DUP2 MSTORE PUSH1 0x20 ADD PUSH1 0x2 DUP3 ADD DUP1 SLOAD PUSH2 0x1BAE SWAP1 PUSH2 0x41B3 JUMP JUMPDEST DUP1 PUSH1 0x1F ADD PUSH1 0x20 DUP1 SWAP2 DIV MUL PUSH1 0x20 ADD PUSH1 0x40 MLOAD SWAP1 DUP2 ADD PUSH1 0x40 MSTORE DUP1 SWAP3 SWAP2 SWAP1 DUP2 DUP2 MSTORE PUSH1 0x20 ADD DUP3 DUP1 SLOAD PUSH2 0x1BDA SWAP1 PUSH2 0x41B3 JUMP JUMPDEST DUP1 ISZERO PUSH2 0x1C27 JUMPI DUP1 PUSH1 0x1F LT PUSH2 0x1BFC JUMPI PUSH2 0x100 DUP1 DUP4 SLOAD DIV MUL DUP4 MSTORE SWAP2 PUSH1 0x20 ADD SWAP2 PUSH2 0x1C27 JUMP JUMPDEST DUP3 ADD SWAP2 SWAP1 PUSH1 0x0 MSTORE PUSH1 0x20 PUSH1 0x0 KECCAK256 SWAP1 JUMPDEST DUP2 SLOAD DUP2 MSTORE SWAP1 PUSH1 0x1 ADD SWAP1 PUSH1 0x20 ADD DUP1 DUP4 GT PUSH2 0x1C0A JUMPI DUP3 SWAP1 SUB PUSH1 0x1F AND DUP3 ADD SWAP2 JUMPDEST POP POP POP SWAP2 DUP4 MSTORE POP POP PUSH1 0x3 DUP3 ADD SLOAD PUSH1 0x20 DUP3 ADD MSTORE PUSH1 0x4 DUP3 ADD SLOAD PUSH1 0x40 DUP3 ADD MSTORE PUSH1 0x5 DUP1 DUP4 ADD SLOAD PUSH1 0x60 DUP4 ADD MSTORE PUSH1 0x6 SWAP1 SWAP3 ADD SLOAD PUSH1 0xFF AND ISZERO ISZERO PUSH1 0x80 SWAP1 SWAP2 ADD MSTORE PUSH1 0xA0 DUP3 ADD MLOAD SWAP2 SWAP3 POP PUSH1 0x0 SWAP1 DUP6 SWAP1 PUSH1 0xA SWAP1 PUSH2 0x1C7A SWAP1 DUP6 SWAP1 PUSH2 0x4189 JUMP JUMPDEST PUSH2 0x1C84 SWAP2 SWAP1 PUSH2 0x432A JUMP JUMPDEST PUSH2 0x1C8E SWAP2 SWAP1 PUSH2 0x432A JUMP JUMPDEST SWAP7 SWAP6 POP POP POP POP POP POP JUMP JUMPDEST PUSH1 0x2 PUSH1 0x20 DUP2 SWAP1 MSTORE PUSH1 0x0 SWAP2 DUP3 MSTORE PUSH1 0x40 SWAP1 SWAP2 KECCAK256 DUP1 SLOAD PUSH1 0x1 DUP3 ADD SLOAD SWAP3 DUP3 ADD DUP1 SLOAD SWAP2 SWAP4 PUSH1 0x1 PUSH1 0x1 PUSH1 0xA0 SHL SUB AND SWAP3 SWAP2 PUSH2 0xB71 SWAP1 PUSH2 0x41B3 JUMP JUMPDEST PUSH1 0x10 SLOAD PUSH1 0x0 SWAP1 PUSH2 0x1CD9 PUSH2 0x3694 JUMP JUMPDEST DUP2 DUP2 MSTORE PUSH1 0x1 PUSH1 0x1 PUSH1 0xA0 SHL SUB DUP10 AND PUSH1 0x20 DUP3 ADD MSTORE PUSH1 0x40 DUP2 ADD DUP9 SWAP1 MSTORE PUSH1 0x60 DUP2 ADD DUP8 SWAP1 MSTORE PUSH1 0x80 DUP2 ADD DUP7 SWAP1 MSTORE PUSH1 0x16 SLOAD PUSH2 0x1D0D SWAP1 DUP6 PUSH2 0x4189 JUMP JUMPDEST PUSH1 0xA0 DUP3 ADD MSTORE PUSH1 0x3 DUP1 SLOAD PUSH1 0x1 DUP2 ADD DUP3 SSTORE PUSH1 0x0 SWAP2 SWAP1 SWAP2 MSTORE DUP2 MLOAD PUSH32 0xC2575A0E9E593C00F959F8C92F12DB2869C3395A3B0502D05E2516446F71F85B PUSH1 0x7 SWAP1 SWAP3 MUL SWAP2 DUP3 ADD SWAP1 DUP2 SSTORE PUSH1 0x20 DUP4 ADD MLOAD PUSH32 0xC2575A0E9E593C00F959F8C92F12DB2869C3395A3B0502D05E2516446F71F85C DUP4 ADD DUP1 SLOAD PUSH1 0x1 PUSH1 0x1 PUSH1 0xA0 SHL SUB NOT AND PUSH1 0x1 PUSH1 0x1 PUSH1 0xA0 SHL SUB SWAP1 SWAP3 AND SWAP2 SWAP1 SWAP2 OR SWAP1 SSTORE PUSH1 0x40 DUP4 ADD MLOAD DUP4 SWAP3 PUSH32 0xC2575A0E9E593C00F959F8C92F12DB2869C3395A3B0502D05E2516446F71F85D ADD SWAP1 PUSH2 0x1DC9 SWAP1 DUP3 PUSH2 0x426B JUMP JUMPDEST POP PUSH1 0x60 DUP3 ADD MLOAD PUSH1 0x3 DUP3 ADD SSTORE PUSH1 0x80 DUP3 ADD MLOAD PUSH1 0x4 DUP3 ADD SSTORE PUSH1 0xA0 DUP3 ADD MLOAD PUSH1 0x5 DUP3 ADD SSTORE PUSH1 0xC0 SWAP1 SWAP2 ADD MLOAD PUSH1 0x6 SWAP1 SWAP2 ADD DUP1 SLOAD PUSH1 0xFF NOT AND SWAP2 ISZERO ISZERO SWAP2 SWAP1 SWAP2 OR SWAP1 SSTORE DUP1 MLOAD PUSH1 0x1 PUSH1 0x1 PUSH1 0xA0 SHL SUB DUP11 AND PUSH1 0x0 SWAP1 DUP2 MSTORE PUSH1 0xA PUSH1 0x20 SWAP1 DUP2 MSTORE PUSH1 0x40 DUP1 DUP4 KECCAK256 SWAP4 SWAP1 SWAP4 SSTORE PUSH1 0x8 SWAP1 MSTORE SWAP1 DUP2 KECCAK256 SLOAD SWAP1 PUSH2 0x1E37 DUP3 PUSH1 0x1 PUSH2 0x41A0 JUMP JUMPDEST PUSH1 0x1 PUSH1 0x1 PUSH1 0xA0 SHL SUB DUP13 AND PUSH1 0x0 SWAP1 DUP2 MSTORE PUSH1 0x8 PUSH1 0x20 MSTORE PUSH1 0x40 DUP2 KECCAK256 DUP3 SWAP1 SSTORE SWAP1 SWAP2 POP JUMPDEST DUP10 DUP2 LT ISZERO PUSH2 0x1F3C JUMPI PUSH1 0x11 SLOAD PUSH1 0x40 DUP1 MLOAD PUSH1 0x80 DUP2 ADD DUP3 MSTORE PUSH1 0x0 PUSH1 0x20 DUP3 ADD DUP2 DUP2 MSTORE PUSH1 0x60 SWAP4 DUP4 ADD DUP5 SWAP1 MSTORE SWAP3 DUP3 ADD MSTORE DUP3 DUP2 MSTORE DUP7 MLOAD SWAP1 SWAP2 MSTORE DUP10 MLOAD DUP11 SWAP1 DUP5 SWAP1 DUP2 LT PUSH2 0x1E9C JUMPI PUSH2 0x1E9C PUSH2 0x41ED JUMP JUMPDEST PUSH1 0x20 SWAP1 DUP2 MUL SWAP2 SWAP1 SWAP2 ADD DUP2 ADD MLOAD PUSH1 0x40 DUP1 DUP5 ADD SWAP2 DUP3 MSTORE DUP9 MLOAD PUSH1 0x0 SWAP1 DUP2 MSTORE PUSH1 0x4 DUP1 DUP6 MSTORE SWAP2 DUP2 KECCAK256 DUP1 SLOAD PUSH1 0x1 DUP2 DUP2 ADD DUP4 SSTORE SWAP2 DUP4 MSTORE SWAP2 DUP6 SWAP1 KECCAK256 DUP7 MLOAD SWAP3 SWAP1 SWAP4 MUL SWAP1 SWAP3 ADD SWAP1 DUP2 SSTORE SWAP3 DUP5 ADD MLOAD SWAP1 DUP4 ADD SSTORE MLOAD DUP3 SWAP2 SWAP1 PUSH1 0x2 DUP3 ADD SWAP1 PUSH2 0x1EF6 SWAP1 DUP3 PUSH2 0x426B JUMP JUMPDEST POP PUSH1 0x60 SWAP2 SWAP1 SWAP2 ADD MLOAD PUSH1 0x3 SWAP1 SWAP2 ADD DUP1 SLOAD PUSH1 0xFF NOT AND SWAP2 ISZERO ISZERO SWAP2 SWAP1 SWAP2 OR SWAP1 SSTORE PUSH1 0x11 DUP1 SLOAD SWAP1 PUSH1 0x0 PUSH2 0x1F22 DUP4 PUSH2 0x4203 JUMP JUMPDEST SWAP2 SWAP1 POP SSTORE POP POP POP DUP1 DUP1 PUSH2 0x1F34 SWAP1 PUSH2 0x4203 JUMP JUMPDEST SWAP2 POP POP PUSH2 0x1E56 JUMP JUMPDEST POP PUSH1 0x10 DUP1 SLOAD SWAP1 PUSH1 0x0 PUSH2 0x1F4D DUP4 PUSH2 0x4203 JUMP JUMPDEST SWAP1 SWAP2 SSTORE POP POP SWAP2 MLOAD SWAP11 SWAP10 POP POP POP POP POP POP POP POP POP POP JUMP JUMPDEST PUSH1 0x5 PUSH1 0x20 MSTORE DUP2 PUSH1 0x0 MSTORE PUSH1 0x40 PUSH1 0x0 KECCAK256 DUP2 DUP2 SLOAD DUP2 LT PUSH2 0x1F7E JUMPI PUSH1 0x0 DUP1 REVERT JUMPDEST PUSH1 0x0 SWAP2 DUP3 MSTORE PUSH1 0x20 SWAP1 SWAP2 KECCAK256 PUSH1 0x4 SWAP1 SWAP2 MUL ADD DUP1 SLOAD PUSH1 0x1 DUP3 ADD SLOAD PUSH1 0x2 DUP4 ADD SLOAD PUSH1 0x3 SWAP1 SWAP4 ADD SLOAD SWAP2 SWAP5 POP SWAP3 POP PUSH1 0x1 PUSH1 0x1 PUSH1 0xA0 SHL SUB DUP2 AND SWAP1 PUSH1 0xFF PUSH1 0x1 PUSH1 0xA0 SHL DUP3 DIV DUP2 AND SWAP2 PUSH1 0x1 PUSH1 0xA8 SHL SWAP1 DIV AND DUP7 JUMP JUMPDEST PUSH1 0x0 PUSH1 0x3 DUP4 DUP2 SLOAD DUP2 LT PUSH2 0x1FDC JUMPI PUSH2 0x1FDC PUSH2 0x41ED JUMP JUMPDEST SWAP1 PUSH1 0x0 MSTORE PUSH1 0x20 PUSH1 0x0 KECCAK256 SWAP1 PUSH1 0x7 MUL ADD PUSH1 0x40 MLOAD DUP1 PUSH1 0xE0 ADD PUSH1 0x40 MSTORE SWAP1 DUP2 PUSH1 0x0 DUP3 ADD SLOAD DUP2 MSTORE PUSH1 0x20 ADD PUSH1 0x1 DUP3 ADD PUSH1 0x0 SWAP1 SLOAD SWAP1 PUSH2 0x100 EXP SWAP1 DIV PUSH1 0x1 PUSH1 0x1 PUSH1 0xA0 SHL SUB AND PUSH1 0x1 PUSH1 0x1 PUSH1 0xA0 SHL SUB AND PUSH1 0x1 PUSH1 0x1 PUSH1 0xA0 SHL SUB AND DUP2 MSTORE PUSH1 0x20 ADD PUSH1 0x2 DUP3 ADD DUP1 SLOAD PUSH2 0x203E SWAP1 PUSH2 0x41B3 JUMP JUMPDEST DUP1 PUSH1 0x1F ADD PUSH1 0x20 DUP1 SWAP2 DIV MUL PUSH1 0x20 ADD PUSH1 0x40 MLOAD SWAP1 DUP2 ADD PUSH1 0x40 MSTORE DUP1 SWAP3 SWAP2 SWAP1 DUP2 DUP2 MSTORE PUSH1 0x20 ADD DUP3 DUP1 SLOAD PUSH2 0x206A SWAP1 PUSH2 0x41B3 JUMP JUMPDEST DUP1 ISZERO PUSH2 0x20B7 JUMPI DUP1 PUSH1 0x1F LT PUSH2 0x208C JUMPI PUSH2 0x100 DUP1 DUP4 SLOAD DIV MUL DUP4 MSTORE SWAP2 PUSH1 0x20 ADD SWAP2 PUSH2 0x20B7 JUMP JUMPDEST DUP3 ADD SWAP2 SWAP1 PUSH1 0x0 MSTORE PUSH1 0x20 PUSH1 0x0 KECCAK256 SWAP1 JUMPDEST DUP2 SLOAD DUP2 MSTORE SWAP1 PUSH1 0x1 ADD SWAP1 PUSH1 0x20 ADD DUP1 DUP4 GT PUSH2 0x209A JUMPI DUP3 SWAP1 SUB PUSH1 0x1F AND DUP3 ADD SWAP2 JUMPDEST POP POP POP SWAP2 DUP4 MSTORE POP POP PUSH1 0x3 DUP3 ADD SLOAD PUSH1 0x20 DUP3 ADD MSTORE PUSH1 0x4 DUP3 ADD SLOAD PUSH1 0x40 DUP3 ADD MSTORE PUSH1 0x5 DUP3 ADD SLOAD PUSH1 0x60 DUP3 ADD MSTORE PUSH1 0x6 SWAP1 SWAP2 ADD SLOAD PUSH1 0xFF AND ISZERO ISZERO PUSH1 0x80 SWAP1 SWAP2 ADD MSTORE SWAP1 POP PUSH1 0x0 PUSH2 0x20FB DUP5 PUSH2 0xF5A JUMP JUMPDEST PUSH1 0x15 SLOAD PUSH1 0x40 MLOAD PUSH4 0xA9059CBB PUSH1 0xE0 SHL DUP2 MSTORE PUSH1 0x1 PUSH1 0x1 PUSH1 0xA0 SHL SUB DUP7 DUP2 AND PUSH1 0x4 DUP4 ADD MSTORE PUSH1 0x24 DUP3 ADD DUP5 SWAP1 MSTORE SWAP3 SWAP4 POP SWAP2 AND SWAP1 PUSH4 0xA9059CBB SWAP1 PUSH1 0x44 ADD PUSH1 0x20 PUSH1 0x40 MLOAD DUP1 DUP4 SUB DUP2 PUSH1 0x0 DUP8 GAS CALL ISZERO DUP1 ISZERO PUSH2 0x2150 JUMPI RETURNDATASIZE PUSH1 0x0 DUP1 RETURNDATACOPY RETURNDATASIZE PUSH1 0x0 REVERT JUMPDEST POP POP POP POP PUSH1 0x40 MLOAD RETURNDATASIZE PUSH1 0x1F NOT PUSH1 0x1F DUP3 ADD AND DUP3 ADD DUP1 PUSH1 0x40 MSTORE POP DUP2 ADD SWAP1 PUSH2 0x2174 SWAP2 SWAP1 PUSH2 0x434C JUMP JUMPDEST POP PUSH1 0x0 PUSH2 0x2185 DUP6 DUP5 PUSH1 0x80 ADD MLOAD PUSH2 0x1B36 JUMP JUMPDEST PUSH1 0x15 SLOAD PUSH1 0x0 SLOAD PUSH1 0x40 MLOAD PUSH4 0xA9059CBB PUSH1 0xE0 SHL DUP2 MSTORE PUSH1 0x1 PUSH1 0x1 PUSH1 0xA0 SHL SUB SWAP2 DUP3 AND PUSH1 0x4 DUP3 ADD MSTORE PUSH1 0x24 DUP2 ADD DUP5 SWAP1 MSTORE SWAP3 SWAP4 POP AND SWAP1 PUSH4 0xA9059CBB SWAP1 PUSH1 0x44 ADD PUSH1 0x20 PUSH1 0x40 MLOAD DUP1 DUP4 SUB DUP2 PUSH1 0x0 DUP8 GAS CALL ISZERO DUP1 ISZERO PUSH2 0x21DC JUMPI RETURNDATASIZE PUSH1 0x0 DUP1 RETURNDATACOPY RETURNDATASIZE PUSH1 0x0 REVERT JUMPDEST POP POP POP POP PUSH1 0x40 MLOAD RETURNDATASIZE PUSH1 0x1F NOT PUSH1 0x1F DUP3 ADD AND DUP3 ADD DUP1 PUSH1 0x40 MSTORE POP DUP2 ADD SWAP1 PUSH2 0x2200 SWAP2 SWAP1 PUSH2 0x434C JUMP JUMPDEST POP PUSH2 0x2209 PUSH2 0x3771 JUMP JUMPDEST PUSH1 0x13 DUP1 SLOAD DUP3 MSTORE PUSH1 0x20 DUP3 ADD DUP8 DUP2 MSTORE PUSH1 0x1 PUSH1 0x1 PUSH1 0xA0 SHL SUB DUP8 DUP2 AND PUSH1 0x40 DUP6 ADD SWAP1 DUP2 MSTORE PUSH1 0x60 DUP6 ADD DUP8 DUP2 MSTORE PUSH1 0xD DUP1 SLOAD PUSH1 0x1 DUP2 ADD DUP3 SSTORE PUSH1 0x0 SWAP2 DUP3 MSTORE DUP8 MLOAD PUSH32 0xD7B6990105719101DABEB77144F2A3385C8033ACD3AF97E9423A695E81AD1EB5 PUSH1 0x5 SWAP1 SWAP3 MUL SWAP2 DUP3 ADD SSTORE SWAP5 MLOAD PUSH32 0xD7B6990105719101DABEB77144F2A3385C8033ACD3AF97E9423A695E81AD1EB6 DUP7 ADD SSTORE SWAP2 MLOAD PUSH32 0xD7B6990105719101DABEB77144F2A3385C8033ACD3AF97E9423A695E81AD1EB7 DUP6 ADD DUP1 SLOAD PUSH1 0x1 PUSH1 0x1 PUSH1 0xA0 SHL SUB NOT AND SWAP2 SWAP1 SWAP5 AND OR SWAP1 SWAP3 SSTORE SWAP1 MLOAD PUSH32 0xD7B6990105719101DABEB77144F2A3385C8033ACD3AF97E9423A695E81AD1EB8 DUP4 ADD SSTORE PUSH1 0x80 DUP5 ADD MLOAD PUSH32 0xD7B6990105719101DABEB77144F2A3385C8033ACD3AF97E9423A695E81AD1EB9 SWAP1 SWAP3 ADD DUP1 SLOAD PUSH1 0xFF NOT AND SWAP3 ISZERO ISZERO SWAP3 SWAP1 SWAP3 OR SWAP1 SWAP2 SSTORE DUP2 SLOAD SWAP2 SWAP1 PUSH2 0x2335 DUP4 PUSH2 0x4203 JUMP JUMPDEST SWAP1 SWAP2 SSTORE POP POP PUSH1 0x0 DUP7 DUP2 MSTORE PUSH1 0x7 PUSH1 0x20 SWAP1 DUP2 MSTORE PUSH1 0x40 DUP1 DUP4 KECCAK256 PUSH1 0x1 PUSH1 0x1 PUSH1 0xA0 SHL SUB DUP10 AND DUP5 MSTORE SWAP1 SWAP2 MSTORE SWAP1 KECCAK256 DUP1 SLOAD PUSH1 0xFF NOT AND PUSH1 0x1 OR SWAP1 SSTORE PUSH2 0x236F PUSH2 0x3771 JUMP JUMPDEST PUSH1 0x13 DUP1 SLOAD DUP3 MSTORE PUSH1 0x20 DUP3 ADD DUP9 DUP2 MSTORE PUSH1 0x0 DUP1 SLOAD PUSH1 0x1 PUSH1 0x1 PUSH1 0xA0 SHL SUB SWAP1 DUP2 AND PUSH1 0x40 DUP7 ADD SWAP1 DUP2 MSTORE PUSH1 0x60 DUP7 ADD DUP9 DUP2 MSTORE PUSH1 0xD DUP1 SLOAD PUSH1 0x1 DUP2 ADD DUP3 SSTORE SWAP1 DUP6 MSTORE DUP8 MLOAD PUSH32 0xD7B6990105719101DABEB77144F2A3385C8033ACD3AF97E9423A695E81AD1EB5 PUSH1 0x5 SWAP1 SWAP3 MUL SWAP2 DUP3 ADD SSTORE SWAP5 MLOAD PUSH32 0xD7B6990105719101DABEB77144F2A3385C8033ACD3AF97E9423A695E81AD1EB6 DUP7 ADD SSTORE SWAP1 MLOAD PUSH32 0xD7B6990105719101DABEB77144F2A3385C8033ACD3AF97E9423A695E81AD1EB7 DUP6 ADD DUP1 SLOAD PUSH1 0x1 PUSH1 0x1 PUSH1 0xA0 SHL SUB NOT AND SWAP2 SWAP1 SWAP4 AND OR SWAP1 SWAP2 SSTORE MLOAD PUSH32 0xD7B6990105719101DABEB77144F2A3385C8033ACD3AF97E9423A695E81AD1EB8 DUP4 ADD SSTORE PUSH1 0x80 DUP5 ADD MLOAD PUSH32 0xD7B6990105719101DABEB77144F2A3385C8033ACD3AF97E9423A695E81AD1EB9 SWAP1 SWAP3 ADD DUP1 SLOAD PUSH1 0xFF NOT AND SWAP3 ISZERO ISZERO SWAP3 SWAP1 SWAP3 OR SWAP1 SWAP2 SSTORE DUP2 SLOAD SWAP2 SWAP1 PUSH2 0x249C DUP4 PUSH2 0x4203 JUMP JUMPDEST SWAP2 SWAP1 POP SSTORE POP POP POP POP POP POP POP POP JUMP JUMPDEST PUSH1 0x1 PUSH1 0x1 PUSH1 0xA0 SHL SUB DUP1 DUP3 AND PUSH1 0x0 DUP2 DUP2 MSTORE PUSH1 0x2 PUSH1 0x20 MSTORE PUSH1 0x40 DUP2 KECCAK256 PUSH1 0x1 ADD SLOAD SWAP1 SWAP3 AND EQ PUSH2 0x24D6 JUMPI PUSH1 0x0 PUSH2 0x7EF JUMP JUMPDEST PUSH1 0x1 SWAP3 SWAP2 POP POP JUMP JUMPDEST PUSH1 0x1 PUSH1 0x1 PUSH1 0xA0 SHL SUB DUP1 DUP3 AND PUSH1 0x0 SWAP1 DUP2 MSTORE PUSH1 0x1 PUSH1 0x20 DUP2 DUP2 MSTORE PUSH1 0x40 DUP1 DUP5 KECCAK256 DUP2 MLOAD PUSH1 0xE0 DUP2 ADD DUP4 MSTORE DUP2 SLOAD DUP2 MSTORE SWAP4 DUP2 ADD SLOAD SWAP1 SWAP6 AND SWAP2 DUP4 ADD SWAP2 SWAP1 SWAP2 MSTORE PUSH1 0x2 DUP5 ADD DUP1 SLOAD SWAP4 SWAP5 SWAP3 SWAP4 SWAP2 DUP5 ADD SWAP2 PUSH2 0x252B SWAP1 PUSH2 0x41B3 JUMP JUMPDEST DUP1 PUSH1 0x1F ADD PUSH1 0x20 DUP1 SWAP2 DIV MUL PUSH1 0x20 ADD PUSH1 0x40 MLOAD SWAP1 DUP2 ADD PUSH1 0x40 MSTORE DUP1 SWAP3 SWAP2 SWAP1 DUP2 DUP2 MSTORE PUSH1 0x20 ADD DUP3 DUP1 SLOAD PUSH2 0x2557 SWAP1 PUSH2 0x41B3 JUMP JUMPDEST DUP1 ISZERO PUSH2 0x25A4 JUMPI DUP1 PUSH1 0x1F LT PUSH2 0x2579 JUMPI PUSH2 0x100 DUP1 DUP4 SLOAD DIV MUL DUP4 MSTORE SWAP2 PUSH1 0x20 ADD SWAP2 PUSH2 0x25A4 JUMP JUMPDEST DUP3 ADD SWAP2 SWAP1 PUSH1 0x0 MSTORE PUSH1 0x20 PUSH1 0x0 KECCAK256 SWAP1 JUMPDEST DUP2 SLOAD DUP2 MSTORE SWAP1 PUSH1 0x1 ADD SWAP1 PUSH1 0x20 ADD DUP1 DUP4 GT PUSH2 0x2587 JUMPI DUP3 SWAP1 SUB PUSH1 0x1F AND DUP3 ADD SWAP2 JUMPDEST POP POP POP SWAP2 DUP4 MSTORE POP POP PUSH1 0x3 DUP3 ADD SLOAD PUSH1 0x20 DUP1 DUP4 ADD SWAP2 SWAP1 SWAP2 MSTORE PUSH1 0x4 SWAP1 SWAP3 ADD SLOAD PUSH1 0xFF DUP1 DUP3 AND ISZERO ISZERO PUSH1 0x40 DUP1 DUP6 ADD SWAP2 SWAP1 SWAP2 MSTORE PUSH2 0x100 DUP4 DIV DUP3 AND ISZERO ISZERO PUSH1 0x60 DUP6 ADD MSTORE PUSH3 0x10000 SWAP1 SWAP3 DIV AND ISZERO ISZERO PUSH1 0x80 SWAP1 SWAP3 ADD SWAP2 SWAP1 SWAP2 MSTORE PUSH1 0x1 PUSH1 0xA0 DUP5 ADD DUP2 SWAP1 MSTORE PUSH1 0x1 PUSH1 0x1 PUSH1 0xA0 SHL SUB DUP7 DUP2 AND PUSH1 0x0 SWAP1 DUP2 MSTORE DUP3 DUP6 MSTORE DUP4 SWAP1 KECCAK256 DUP6 MLOAD DUP2 SSTORE SWAP4 DUP6 ADD MLOAD SWAP2 DUP5 ADD DUP1 SLOAD PUSH1 0x1 PUSH1 0x1 PUSH1 0xA0 SHL SUB NOT AND SWAP3 SWAP1 SWAP2 AND SWAP2 SWAP1 SWAP2 OR SWAP1 SSTORE DUP3 ADD MLOAD SWAP2 SWAP3 POP DUP3 SWAP2 PUSH1 0x2 DUP3 ADD SWAP1 PUSH2 0x2648 SWAP1 DUP3 PUSH2 0x426B JUMP JUMPDEST POP PUSH1 0x60 DUP3 ADD MLOAD PUSH1 0x3 DUP3 ADD SSTORE PUSH1 0x80 DUP3 ADD MLOAD PUSH1 0x4 SWAP1 SWAP2 ADD DUP1 SLOAD PUSH1 0xA0 DUP5 ADD MLOAD PUSH1 0xC0 SWAP1 SWAP5 ADD MLOAD ISZERO ISZERO PUSH3 0x10000 MUL PUSH3 0xFF0000 NOT SWAP5 ISZERO ISZERO PUSH2 0x100 MUL PUSH2 0xFF00 NOT SWAP5 ISZERO ISZERO SWAP5 SWAP1 SWAP5 AND PUSH2 0xFFFF NOT SWAP1 SWAP3 AND SWAP2 SWAP1 SWAP2 OR SWAP3 SWAP1 SWAP3 OR SWAP3 SWAP1 SWAP3 AND OR SWAP1 SSTORE POP POP JUMP JUMPDEST PUSH1 0x60 PUSH1 0x3 DUP1 SLOAD DUP1 PUSH1 0x20 MUL PUSH1 0x20 ADD PUSH1 0x40 MLOAD SWAP1 DUP2 ADD PUSH1 0x40 MSTORE DUP1 SWAP3 SWAP2 SWAP1 DUP2 DUP2 MSTORE PUSH1 0x20 ADD PUSH1 0x0 SWAP1 JUMPDEST DUP3 DUP3 LT ISZERO PUSH2 0x27DD JUMPI PUSH1 0x0 DUP5 DUP2 MSTORE PUSH1 0x20 SWAP1 DUP2 SWAP1 KECCAK256 PUSH1 0x40 DUP1 MLOAD PUSH1 0xE0 DUP2 ADD DUP3 MSTORE PUSH1 0x7 DUP7 MUL SWAP1 SWAP3 ADD DUP1 SLOAD DUP4 MSTORE PUSH1 0x1 DUP2 ADD SLOAD PUSH1 0x1 PUSH1 0x1 PUSH1 0xA0 SHL SUB AND SWAP4 DUP4 ADD SWAP4 SWAP1 SWAP4 MSTORE PUSH1 0x2 DUP4 ADD DUP1 SLOAD SWAP3 SWAP4 SWAP3 SWAP2 DUP5 ADD SWAP2 PUSH2 0x2719 SWAP1 PUSH2 0x41B3 JUMP JUMPDEST DUP1 PUSH1 0x1F ADD PUSH1 0x20 DUP1 SWAP2 DIV MUL PUSH1 0x20 ADD PUSH1 0x40 MLOAD SWAP1 DUP2 ADD PUSH1 0x40 MSTORE DUP1 SWAP3 SWAP2 SWAP1 DUP2 DUP2 MSTORE PUSH1 0x20 ADD DUP3 DUP1 SLOAD PUSH2 0x2745 SWAP1 PUSH2 0x41B3 JUMP JUMPDEST DUP1 ISZERO PUSH2 0x2792 JUMPI DUP1 PUSH1 0x1F LT PUSH2 0x2767 JUMPI PUSH2 0x100 DUP1 DUP4 SLOAD DIV MUL DUP4 MSTORE SWAP2 PUSH1 0x20 ADD SWAP2 PUSH2 0x2792 JUMP JUMPDEST DUP3 ADD SWAP2 SWAP1 PUSH1 0x0 MSTORE PUSH1 0x20 PUSH1 0x0 KECCAK256 SWAP1 JUMPDEST DUP2 SLOAD DUP2 MSTORE SWAP1 PUSH1 0x1 ADD SWAP1 PUSH1 0x20 ADD DUP1 DUP4 GT PUSH2 0x2775 JUMPI DUP3 SWAP1 SUB PUSH1 0x1F AND DUP3 ADD SWAP2 JUMPDEST POP POP POP SWAP2 DUP4 MSTORE POP POP PUSH1 0x3 DUP3 ADD SLOAD PUSH1 0x20 DUP1 DUP4 ADD SWAP2 SWAP1 SWAP2 MSTORE PUSH1 0x4 DUP4 ADD SLOAD PUSH1 0x40 DUP4 ADD MSTORE PUSH1 0x5 DUP4 ADD SLOAD PUSH1 0x60 DUP4 ADD MSTORE PUSH1 0x6 SWAP1 SWAP3 ADD SLOAD PUSH1 0xFF AND ISZERO ISZERO PUSH1 0x80 SWAP1 SWAP2 ADD MSTORE SWAP1 DUP3 MSTORE PUSH1 0x1 SWAP3 SWAP1 SWAP3 ADD SWAP2 ADD PUSH2 0x26C6 JUMP JUMPDEST POP POP POP POP SWAP1 POP SWAP1 JUMP JUMPDEST PUSH1 0xD DUP2 DUP2 SLOAD DUP2 LT PUSH2 0x27F6 JUMPI PUSH1 0x0 DUP1 REVERT JUMPDEST PUSH1 0x0 SWAP2 DUP3 MSTORE PUSH1 0x20 SWAP1 SWAP2 KECCAK256 PUSH1 0x5 SWAP1 SWAP2 MUL ADD DUP1 SLOAD PUSH1 0x1 DUP3 ADD SLOAD PUSH1 0x2 DUP4 ADD SLOAD PUSH1 0x3 DUP5 ADD SLOAD PUSH1 0x4 SWAP1 SWAP5 ADD SLOAD SWAP3 SWAP5 POP SWAP1 SWAP3 PUSH1 0x1 PUSH1 0x1 PUSH1 0xA0 SHL SUB SWAP1 SWAP2 AND SWAP2 PUSH1 0xFF AND DUP6 JUMP JUMPDEST PUSH1 0xC DUP2 DUP2 SLOAD DUP2 LT PUSH2 0x27F6 JUMPI PUSH1 0x0 DUP1 REVERT JUMPDEST PUSH1 0x60 PUSH1 0xB PUSH1 0x0 DUP4 DUP2 MSTORE PUSH1 0x20 ADD SWAP1 DUP2 MSTORE PUSH1 0x20 ADD PUSH1 0x0 KECCAK256 DUP1 SLOAD DUP1 PUSH1 0x20 MUL PUSH1 0x20 ADD PUSH1 0x40 MLOAD SWAP1 DUP2 ADD PUSH1 0x40 MSTORE DUP1 SWAP3 SWAP2 SWAP1 DUP2 DUP2 MSTORE PUSH1 0x20 ADD PUSH1 0x0 SWAP1 JUMPDEST DUP3 DUP3 LT ISZERO PUSH2 0x2A29 JUMPI PUSH1 0x0 DUP5 DUP2 MSTORE PUSH1 0x20 SWAP1 DUP2 SWAP1 KECCAK256 PUSH1 0x40 DUP1 MLOAD PUSH2 0x100 DUP2 ADD DUP3 MSTORE PUSH1 0x7 DUP7 MUL SWAP1 SWAP3 ADD DUP1 SLOAD DUP4 MSTORE PUSH1 0x1 DUP2 ADD SLOAD PUSH1 0x1 PUSH1 0x1 PUSH1 0xA0 SHL SUB AND SWAP4 DUP4 ADD SWAP4 SWAP1 SWAP4 MSTORE PUSH1 0x2 DUP4 ADD DUP1 SLOAD SWAP3 SWAP4 SWAP3 SWAP2 DUP5 ADD SWAP2 PUSH2 0x28CD SWAP1 PUSH2 0x41B3 JUMP JUMPDEST DUP1 PUSH1 0x1F ADD PUSH1 0x20 DUP1 SWAP2 DIV MUL PUSH1 0x20 ADD PUSH1 0x40 MLOAD SWAP1 DUP2 ADD PUSH1 0x40 MSTORE DUP1 SWAP3 SWAP2 SWAP1 DUP2 DUP2 MSTORE PUSH1 0x20 ADD DUP3 DUP1 SLOAD PUSH2 0x28F9 SWAP1 PUSH2 0x41B3 JUMP JUMPDEST DUP1 ISZERO PUSH2 0x2946 JUMPI DUP1 PUSH1 0x1F LT PUSH2 0x291B JUMPI PUSH2 0x100 DUP1 DUP4 SLOAD DIV MUL DUP4 MSTORE SWAP2 PUSH1 0x20 ADD SWAP2 PUSH2 0x2946 JUMP JUMPDEST DUP3 ADD SWAP2 SWAP1 PUSH1 0x0 MSTORE PUSH1 0x20 PUSH1 0x0 KECCAK256 SWAP1 JUMPDEST DUP2 SLOAD DUP2 MSTORE SWAP1 PUSH1 0x1 ADD SWAP1 PUSH1 0x20 ADD DUP1 DUP4 GT PUSH2 0x2929 JUMPI DUP3 SWAP1 SUB PUSH1 0x1F AND DUP3 ADD SWAP2 JUMPDEST POP POP POP POP POP DUP2 MSTORE PUSH1 0x20 ADD PUSH1 0x3 DUP3 ADD DUP1 SLOAD PUSH2 0x295F SWAP1 PUSH2 0x41B3 JUMP JUMPDEST DUP1 PUSH1 0x1F ADD PUSH1 0x20 DUP1 SWAP2 DIV MUL PUSH1 0x20 ADD PUSH1 0x40 MLOAD SWAP1 DUP2 ADD PUSH1 0x40 MSTORE DUP1 SWAP3 SWAP2 SWAP1 DUP2 DUP2 MSTORE PUSH1 0x20 ADD DUP3 DUP1 SLOAD PUSH2 0x298B SWAP1 PUSH2 0x41B3 JUMP JUMPDEST DUP1 ISZERO PUSH2 0x29D8 JUMPI DUP1 PUSH1 0x1F LT PUSH2 0x29AD JUMPI PUSH2 0x100 DUP1 DUP4 SLOAD DIV MUL DUP4 MSTORE SWAP2 PUSH1 0x20 ADD SWAP2 PUSH2 0x29D8 JUMP JUMPDEST DUP3 ADD SWAP2 SWAP1 PUSH1 0x0 MSTORE PUSH1 0x20 PUSH1 0x0 KECCAK256 SWAP1 JUMPDEST DUP2 SLOAD DUP2 MSTORE SWAP1 PUSH1 0x1 ADD SWAP1 PUSH1 0x20 ADD DUP1 DUP4 GT PUSH2 0x29BB JUMPI DUP3 SWAP1 SUB PUSH1 0x1F AND DUP3 ADD SWAP2 JUMPDEST POP POP POP SWAP2 DUP4 MSTORE POP POP PUSH1 0x4 DUP3 ADD SLOAD PUSH1 0x20 DUP1 DUP4 ADD SWAP2 SWAP1 SWAP2 MSTORE PUSH1 0x5 DUP4 ADD SLOAD PUSH1 0x40 DUP4 ADD MSTORE PUSH1 0x6 SWAP1 SWAP3 ADD SLOAD PUSH1 0xFF DUP1 DUP3 AND ISZERO ISZERO PUSH1 0x60 DUP5 ADD MSTORE PUSH2 0x100 SWAP1 SWAP2 DIV AND ISZERO ISZERO PUSH1 0x80 SWAP1 SWAP2 ADD MSTORE SWAP1 DUP3 MSTORE PUSH1 0x1 SWAP3 SWAP1 SWAP3 ADD SWAP2 ADD PUSH2 0x2879 JUMP JUMPDEST POP POP POP POP SWAP1 POP SWAP2 SWAP1 POP JUMP JUMPDEST PUSH1 0x1 PUSH1 0x1 PUSH1 0xA0 SHL SUB DUP1 DUP3 AND PUSH1 0x0 DUP2 DUP2 MSTORE PUSH1 0x1 PUSH1 0x20 DUP2 SWAP1 MSTORE PUSH1 0x40 DUP3 KECCAK256 ADD SLOAD SWAP1 SWAP3 AND EQ PUSH2 0x24D6 JUMPI PUSH1 0x0 PUSH2 0x7EF JUMP JUMPDEST PUSH1 0x0 PUSH2 0x2A6C DUP6 DUP6 PUSH2 0x765 JUMP JUMPDEST PUSH1 0x14 SLOAD PUSH1 0x40 DUP1 MLOAD PUSH1 0xA0 DUP2 ADD DUP3 MSTORE PUSH1 0x0 PUSH1 0x80 DUP3 ADD DUP2 DUP2 MSTORE DUP5 DUP4 MSTORE PUSH1 0x20 DUP1 DUP5 ADD DUP11 DUP2 MSTORE PUSH1 0x1 PUSH1 0x1 PUSH1 0xA0 SHL SUB DUP11 DUP2 AND DUP7 DUP9 ADD DUP2 DUP2 MSTORE PUSH1 0x60 DUP9 ADD DUP12 DUP2 MSTORE PUSH1 0xC DUP1 SLOAD PUSH1 0x1 DUP2 ADD DUP3 SSTORE SWAP1 DUP10 MSTORE DUP10 MLOAD PUSH32 0xDF6966C971051C3D54EC59162606531493A51404A002842F56009D7E5CF4A8C7 PUSH1 0x5 SWAP1 SWAP3 MUL SWAP2 DUP3 ADD SSTORE SWAP5 MLOAD PUSH32 0xDF6966C971051C3D54EC59162606531493A51404A002842F56009D7E5CF4A8C8 DUP7 ADD SSTORE SWAP1 MLOAD PUSH32 0xDF6966C971051C3D54EC59162606531493A51404A002842F56009D7E5CF4A8C9 DUP6 ADD DUP1 SLOAD PUSH1 0x1 PUSH1 0x1 PUSH1 0xA0 SHL SUB NOT AND SWAP2 SWAP1 SWAP5 AND OR SWAP1 SWAP3 SSTORE SWAP1 MLOAD PUSH32 0xDF6966C971051C3D54EC59162606531493A51404A002842F56009D7E5CF4A8CA DUP4 ADD SSTORE SWAP3 MLOAD PUSH32 0xDF6966C971051C3D54EC59162606531493A51404A002842F56009D7E5CF4A8CB SWAP1 SWAP2 ADD DUP1 SLOAD PUSH1 0xFF NOT AND SWAP2 ISZERO ISZERO SWAP2 SWAP1 SWAP2 OR SWAP1 SSTORE SWAP1 DUP3 MSTORE PUSH1 0x9 SWAP1 MSTORE SWAP2 SWAP1 SWAP2 KECCAK256 SLOAD SWAP3 SWAP4 POP SWAP1 SWAP2 PUSH2 0x2BB3 DUP5 DUP3 PUSH2 0x41A0 JUMP JUMPDEST PUSH1 0x1 PUSH1 0x1 PUSH1 0xA0 SHL SUB DUP7 AND PUSH1 0x0 SWAP1 DUP2 MSTORE PUSH1 0x9 PUSH1 0x20 MSTORE PUSH1 0x40 DUP2 KECCAK256 DUP3 SWAP1 SSTORE PUSH1 0x14 DUP1 SLOAD SWAP3 SWAP4 POP SWAP1 PUSH2 0x2BDF DUP4 PUSH2 0x4203 JUMP JUMPDEST SWAP2 SWAP1 POP SSTORE POP POP POP POP POP POP POP POP POP JUMP JUMPDEST PUSH2 0x2BF6 PUSH2 0x3694 JUMP JUMPDEST PUSH1 0x3 DUP3 DUP2 SLOAD DUP2 LT PUSH2 0x2C09 JUMPI PUSH2 0x2C09 PUSH2 0x41ED JUMP JUMPDEST SWAP1 PUSH1 0x0 MSTORE PUSH1 0x20 PUSH1 0x0 KECCAK256 SWAP1 PUSH1 0x7 MUL ADD PUSH1 0x40 MLOAD DUP1 PUSH1 0xE0 ADD PUSH1 0x40 MSTORE SWAP1 DUP2 PUSH1 0x0 DUP3 ADD SLOAD DUP2 MSTORE PUSH1 0x20 ADD PUSH1 0x1 DUP3 ADD PUSH1 0x0 SWAP1 SLOAD SWAP1 PUSH2 0x100 EXP SWAP1 DIV PUSH1 0x1 PUSH1 0x1 PUSH1 0xA0 SHL SUB AND PUSH1 0x1 PUSH1 0x1 PUSH1 0xA0 SHL SUB AND PUSH1 0x1 PUSH1 0x1 PUSH1 0xA0 SHL SUB AND DUP2 MSTORE PUSH1 0x20 ADD PUSH1 0x2 DUP3 ADD DUP1 SLOAD PUSH2 0x2C6B SWAP1 PUSH2 0x41B3 JUMP JUMPDEST DUP1 PUSH1 0x1F ADD PUSH1 0x20 DUP1 SWAP2 DIV MUL PUSH1 0x20 ADD PUSH1 0x40 MLOAD SWAP1 DUP2 ADD PUSH1 0x40 MSTORE DUP1 SWAP3 SWAP2 SWAP1 DUP2 DUP2 MSTORE PUSH1 0x20 ADD DUP3 DUP1 SLOAD PUSH2 0x2C97 SWAP1 PUSH2 0x41B3 JUMP JUMPDEST DUP1 ISZERO PUSH2 0x2CE4 JUMPI DUP1 PUSH1 0x1F LT PUSH2 0x2CB9 JUMPI PUSH2 0x100 DUP1 DUP4 SLOAD DIV MUL DUP4 MSTORE SWAP2 PUSH1 0x20 ADD SWAP2 PUSH2 0x2CE4 JUMP JUMPDEST DUP3 ADD SWAP2 SWAP1 PUSH1 0x0 MSTORE PUSH1 0x20 PUSH1 0x0 KECCAK256 SWAP1 JUMPDEST DUP2 SLOAD DUP2 MSTORE SWAP1 PUSH1 0x1 ADD SWAP1 PUSH1 0x20 ADD DUP1 DUP4 GT PUSH2 0x2CC7 JUMPI DUP3 SWAP1 SUB PUSH1 0x1F AND DUP3 ADD SWAP2 JUMPDEST POP POP POP SWAP2 DUP4 MSTORE POP POP PUSH1 0x3 DUP3 ADD SLOAD PUSH1 0x20 DUP3 ADD MSTORE PUSH1 0x4 DUP3 ADD SLOAD PUSH1 0x40 DUP3 ADD MSTORE PUSH1 0x5 DUP3 ADD SLOAD PUSH1 0x60 DUP3 ADD MSTORE PUSH1 0x6 SWAP1 SWAP2 ADD SLOAD PUSH1 0xFF AND ISZERO ISZERO PUSH1 0x80 SWAP1 SWAP2 ADD MSTORE SWAP3 SWAP2 POP POP JUMP JUMPDEST PUSH1 0x1 PUSH1 0x1 PUSH1 0xA0 SHL SUB DUP1 DUP4 AND PUSH1 0x0 SWAP1 DUP2 MSTORE PUSH1 0x2 PUSH1 0x20 DUP2 DUP2 MSTORE PUSH1 0x40 DUP1 DUP5 KECCAK256 DUP2 MLOAD PUSH2 0x100 DUP2 ADD DUP4 MSTORE DUP2 SLOAD DUP2 MSTORE PUSH1 0x1 DUP3 ADD SLOAD SWAP1 SWAP7 AND SWAP3 DUP7 ADD SWAP3 SWAP1 SWAP3 MSTORE SWAP2 DUP2 ADD DUP1 SLOAD SWAP4 SWAP5 SWAP4 SWAP2 SWAP3 DUP5 ADD SWAP2 PUSH2 0x2D6F SWAP1 PUSH2 0x41B3 JUMP JUMPDEST DUP1 PUSH1 0x1F ADD PUSH1 0x20 DUP1 SWAP2 DIV MUL PUSH1 0x20 ADD PUSH1 0x40 MLOAD SWAP1 DUP2 ADD PUSH1 0x40 MSTORE DUP1 SWAP3 SWAP2 SWAP1 DUP2 DUP2 MSTORE PUSH1 0x20 ADD DUP3 DUP1 SLOAD PUSH2 0x2D9B SWAP1 PUSH2 0x41B3 JUMP JUMPDEST DUP1 ISZERO PUSH2 0x2DE8 JUMPI DUP1 PUSH1 0x1F LT PUSH2 0x2DBD JUMPI PUSH2 0x100 DUP1 DUP4 SLOAD DIV MUL DUP4 MSTORE SWAP2 PUSH1 0x20 ADD SWAP2 PUSH2 0x2DE8 JUMP JUMPDEST DUP3 ADD SWAP2 SWAP1 PUSH1 0x0 MSTORE PUSH1 0x20 PUSH1 0x0 KECCAK256 SWAP1 JUMPDEST DUP2 SLOAD DUP2 MSTORE SWAP1 PUSH1 0x1 ADD SWAP1 PUSH1 0x20 ADD DUP1 DUP4 GT PUSH2 0x2DCB JUMPI DUP3 SWAP1 SUB PUSH1 0x1F AND DUP3 ADD SWAP2 JUMPDEST POP POP POP POP POP DUP2 MSTORE PUSH1 0x20 ADD PUSH1 0x3 DUP3 ADD DUP1 SLOAD PUSH2 0x2E01 SWAP1 PUSH2 0x41B3 JUMP JUMPDEST DUP1 PUSH1 0x1F ADD PUSH1 0x20 DUP1 SWAP2 DIV MUL PUSH1 0x20 ADD PUSH1 0x40 MLOAD SWAP1 DUP2 ADD PUSH1 0x40 MSTORE DUP1 SWAP3 SWAP2 SWAP1 DUP2 DUP2 MSTORE PUSH1 0x20 ADD DUP3 DUP1 SLOAD PUSH2 0x2E2D SWAP1 PUSH2 0x41B3 JUMP JUMPDEST DUP1 ISZERO PUSH2 0x2E7A JUMPI DUP1 PUSH1 0x1F LT PUSH2 0x2E4F JUMPI PUSH2 0x100 DUP1 DUP4 SLOAD DIV MUL DUP4 MSTORE SWAP2 PUSH1 0x20 ADD SWAP2 PUSH2 0x2E7A JUMP JUMPDEST DUP3 ADD SWAP2 SWAP1 PUSH1 0x0 MSTORE PUSH1 0x20 PUSH1 0x0 KECCAK256 SWAP1 JUMPDEST DUP2 SLOAD DUP2 MSTORE SWAP1 PUSH1 0x1 ADD SWAP1 PUSH1 0x20 ADD DUP1 DUP4 GT PUSH2 0x2E5D JUMPI DUP3 SWAP1 SUB PUSH1 0x1F AND DUP3 ADD SWAP2 JUMPDEST POP POP POP SWAP2 DUP4 MSTORE POP POP PUSH1 0x4 DUP3 ADD SLOAD PUSH1 0x20 DUP3 ADD MSTORE PUSH1 0x5 DUP3 ADD SLOAD PUSH1 0x40 DUP3 ADD MSTORE PUSH1 0x6 SWAP1 SWAP2 ADD SLOAD PUSH1 0xFF DUP1 DUP3 AND ISZERO ISZERO PUSH1 0x60 DUP5 ADD MSTORE PUSH2 0x100 SWAP1 SWAP2 DIV AND ISZERO ISZERO PUSH1 0x80 SWAP1 SWAP2 ADD MSTORE PUSH1 0x3 DUP1 SLOAD SWAP2 SWAP3 POP PUSH1 0x0 SWAP2 DUP7 SWAP1 DUP2 LT PUSH2 0x2ED1 JUMPI PUSH2 0x2ED1 PUSH2 0x41ED JUMP JUMPDEST SWAP1 PUSH1 0x0 MSTORE PUSH1 0x20 PUSH1 0x0 KECCAK256 SWAP1 PUSH1 0x7 MUL ADD PUSH1 0x40 MLOAD DUP1 PUSH1 0xE0 ADD PUSH1 0x40 MSTORE SWAP1 DUP2 PUSH1 0x0 DUP3 ADD SLOAD DUP2 MSTORE PUSH1 0x20 ADD PUSH1 0x1 DUP3 ADD PUSH1 0x0 SWAP1 SLOAD SWAP1 PUSH2 0x100 EXP SWAP1 DIV PUSH1 0x1 PUSH1 0x1 PUSH1 0xA0 SHL SUB AND PUSH1 0x1 PUSH1 0x1 PUSH1 0xA0 SHL SUB AND PUSH1 0x1 PUSH1 0x1 PUSH1 0xA0 SHL SUB AND DUP2 MSTORE PUSH1 0x20 ADD PUSH1 0x2 DUP3 ADD DUP1 SLOAD PUSH2 0x2F33 SWAP1 PUSH2 0x41B3 JUMP JUMPDEST DUP1 PUSH1 0x1F ADD PUSH1 0x20 DUP1 SWAP2 DIV MUL PUSH1 0x20 ADD PUSH1 0x40 MLOAD SWAP1 DUP2 ADD PUSH1 0x40 MSTORE DUP1 SWAP3 SWAP2 SWAP1 DUP2 DUP2 MSTORE PUSH1 0x20 ADD DUP3 DUP1 SLOAD PUSH2 0x2F5F SWAP1 PUSH2 0x41B3 JUMP JUMPDEST DUP1 ISZERO PUSH2 0x2FAC JUMPI DUP1 PUSH1 0x1F LT PUSH2 0x2F81 JUMPI PUSH2 0x100 DUP1 DUP4 SLOAD DIV MUL DUP4 MSTORE SWAP2 PUSH1 0x20 ADD SWAP2 PUSH2 0x2FAC JUMP JUMPDEST DUP3 ADD SWAP2 SWAP1 PUSH1 0x0 MSTORE PUSH1 0x20 PUSH1 0x0 KECCAK256 SWAP1 JUMPDEST DUP2 SLOAD DUP2 MSTORE SWAP1 PUSH1 0x1 ADD SWAP1 PUSH1 0x20 ADD DUP1 DUP4 GT PUSH2 0x2F8F JUMPI DUP3 SWAP1 SUB PUSH1 0x1F AND DUP3 ADD SWAP2 JUMPDEST POP POP POP SWAP2 DUP4 MSTORE POP POP PUSH1 0x3 DUP3 ADD SLOAD PUSH1 0x20 DUP3 ADD MSTORE PUSH1 0x4 DUP3 ADD SLOAD PUSH1 0x40 DUP3 ADD MSTORE PUSH1 0x5 DUP3 ADD SLOAD PUSH1 0x60 DUP1 DUP4 ADD SWAP2 SWAP1 SWAP2 MSTORE PUSH1 0x6 SWAP1 SWAP3 ADD SLOAD PUSH1 0xFF AND ISZERO ISZERO PUSH1 0x80 SWAP1 SWAP2 ADD MSTORE DUP2 ADD MLOAD SWAP1 SWAP2 POP PUSH1 0x0 JUMPDEST DUP2 DUP2 LT ISZERO PUSH2 0x30FF JUMPI PUSH2 0x3000 PUSH2 0x36DC JUMP JUMPDEST PUSH1 0x12 SLOAD DUP1 DUP3 MSTORE PUSH1 0x20 DUP3 ADD DUP4 SWAP1 MSTORE PUSH1 0x40 DUP3 ADD DUP10 SWAP1 MSTORE PUSH1 0x1 PUSH1 0x1 PUSH1 0xA0 SHL SUB DUP9 AND PUSH1 0x60 DUP4 ADD MSTORE DUP7 MLOAD DUP8 SWAP1 DUP5 SWAP1 DUP2 LT PUSH2 0x3037 JUMPI PUSH2 0x3037 PUSH2 0x41ED JUMP JUMPDEST PUSH1 0x20 SWAP1 DUP2 MUL SWAP2 SWAP1 SWAP2 ADD DUP2 ADD MLOAD ISZERO ISZERO PUSH1 0x80 DUP5 ADD SWAP1 DUP2 MSTORE PUSH1 0x0 DUP12 DUP2 MSTORE PUSH1 0x5 DUP4 MSTORE PUSH1 0x40 DUP1 DUP3 KECCAK256 DUP1 SLOAD PUSH1 0x1 DUP2 DUP2 ADD DUP4 SSTORE SWAP2 DUP5 MSTORE DUP6 DUP5 KECCAK256 DUP9 MLOAD PUSH1 0x4 SWAP1 SWAP3 MUL ADD SWAP1 DUP2 SSTORE SWAP5 DUP8 ADD MLOAD SWAP1 DUP6 ADD SSTORE DUP6 ADD MLOAD PUSH1 0x2 DUP5 ADD SSTORE PUSH1 0x60 DUP6 ADD MLOAD PUSH1 0x3 SWAP1 SWAP4 ADD DUP1 SLOAD SWAP3 MLOAD PUSH1 0xA0 DUP8 ADD MLOAD ISZERO ISZERO PUSH1 0x1 PUSH1 0xA8 SHL MUL PUSH1 0xFF PUSH1 0xA8 SHL NOT SWAP2 ISZERO ISZERO PUSH1 0x1 PUSH1 0xA0 SHL MUL PUSH1 0x1 PUSH1 0x1 PUSH1 0xA8 SHL SUB NOT SWAP1 SWAP6 AND PUSH1 0x1 PUSH1 0x1 PUSH1 0xA0 SHL SUB SWAP1 SWAP7 AND SWAP6 SWAP1 SWAP6 OR SWAP4 SWAP1 SWAP4 OR SWAP3 SWAP1 SWAP3 AND SWAP3 SWAP1 SWAP3 OR SWAP1 SSTORE PUSH1 0x12 DUP1 SLOAD SWAP2 PUSH2 0x30E5 DUP4 PUSH2 0x4203 JUMP JUMPDEST SWAP2 SWAP1 POP SSTORE POP POP POP DUP1 DUP1 PUSH2 0x30F7 SWAP1 PUSH2 0x4203 JUMP JUMPDEST SWAP2 POP POP PUSH2 0x2FF0 JUMP JUMPDEST POP PUSH1 0x0 DUP7 DUP2 MSTORE PUSH1 0x6 PUSH1 0x20 SWAP1 DUP2 MSTORE PUSH1 0x40 DUP1 DUP4 KECCAK256 PUSH1 0x1 PUSH1 0x1 PUSH1 0xA0 SHL SUB DUP10 AND DUP5 MSTORE DUP3 MSTORE DUP1 DUP4 KECCAK256 DUP1 SLOAD PUSH1 0xFF NOT AND PUSH1 0x1 OR SWAP1 SSTORE DUP9 DUP4 MSTORE PUSH1 0xB SWAP1 SWAP2 MSTORE SWAP1 KECCAK256 PUSH2 0x3140 DUP7 PUSH2 0x13B3 JUMP JUMPDEST DUP2 SLOAD PUSH1 0x1 DUP1 DUP3 ADD DUP5 SSTORE PUSH1 0x0 SWAP4 DUP5 MSTORE PUSH1 0x20 SWAP4 DUP5 SWAP1 KECCAK256 DUP4 MLOAD PUSH1 0x7 SWAP1 SWAP4 MUL ADD SWAP2 DUP3 SSTORE SWAP3 DUP3 ADD MLOAD SWAP3 DUP2 ADD DUP1 SLOAD PUSH1 0x1 PUSH1 0x1 PUSH1 0xA0 SHL SUB NOT AND PUSH1 0x1 PUSH1 0x1 PUSH1 0xA0 SHL SUB SWAP1 SWAP5 AND SWAP4 SWAP1 SWAP4 OR SWAP1 SWAP3 SSTORE PUSH1 0x40 DUP2 ADD MLOAD SWAP1 SWAP2 SWAP1 PUSH1 0x2 DUP3 ADD SWAP1 PUSH2 0x319B SWAP1 DUP3 PUSH2 0x426B JUMP JUMPDEST POP PUSH1 0x60 DUP3 ADD MLOAD PUSH1 0x3 DUP3 ADD SWAP1 PUSH2 0x31B0 SWAP1 DUP3 PUSH2 0x426B JUMP JUMPDEST POP PUSH1 0x80 DUP3 ADD MLOAD PUSH1 0x4 DUP3 ADD SSTORE PUSH1 0xA0 DUP1 DUP4 ADD MLOAD PUSH1 0x5 DUP4 ADD SSTORE PUSH1 0xC0 DUP4 ADD MLOAD PUSH1 0x6 SWAP1 SWAP3 ADD DUP1 SLOAD PUSH1 0xE0 SWAP1 SWAP5 ADD MLOAD ISZERO ISZERO PUSH2 0x100 MUL PUSH2 0xFF00 NOT SWAP4 ISZERO ISZERO SWAP4 SWAP1 SWAP4 AND PUSH2 0xFFFF NOT SWAP1 SWAP5 AND SWAP4 SWAP1 SWAP4 OR SWAP2 SWAP1 SWAP2 OR SWAP1 SWAP2 SSTORE DUP4 ADD DUP1 MLOAD PUSH1 0x1 SWAP2 SWAP1 PUSH2 0x320E SWAP1 DUP4 SWAP1 PUSH2 0x41A0 JUMP JUMPDEST SWAP1 MSTORE POP PUSH1 0x1 PUSH1 0x1 PUSH1 0xA0 SHL SUB DUP6 DUP2 AND PUSH1 0x0 SWAP1 DUP2 MSTORE PUSH1 0x2 PUSH1 0x20 DUP2 DUP2 MSTORE PUSH1 0x40 SWAP3 DUP4 SWAP1 KECCAK256 DUP8 MLOAD DUP2 SSTORE SWAP1 DUP8 ADD MLOAD PUSH1 0x1 DUP3 ADD DUP1 SLOAD PUSH1 0x1 PUSH1 0x1 PUSH1 0xA0 SHL SUB NOT AND SWAP2 SWAP1 SWAP6 AND OR SWAP1 SWAP4 SSTORE SWAP1 DUP6 ADD MLOAD DUP6 SWAP3 SWAP2 DUP3 ADD SWAP1 PUSH2 0x3262 SWAP1 DUP3 PUSH2 0x426B JUMP JUMPDEST POP PUSH1 0x60 DUP3 ADD MLOAD PUSH1 0x3 DUP3 ADD SWAP1 PUSH2 0x3277 SWAP1 DUP3 PUSH2 0x426B JUMP JUMPDEST POP PUSH1 0x80 DUP3 ADD MLOAD PUSH1 0x4 DUP3 ADD SSTORE PUSH1 0xA0 DUP3 ADD MLOAD PUSH1 0x5 DUP3 ADD SSTORE PUSH1 0xC0 DUP3 ADD MLOAD PUSH1 0x6 SWAP1 SWAP2 ADD DUP1 SLOAD PUSH1 0xE0 SWAP1 SWAP4 ADD MLOAD ISZERO ISZERO PUSH2 0x100 MUL PUSH2 0xFF00 NOT SWAP3 ISZERO ISZERO SWAP3 SWAP1 SWAP3 AND PUSH2 0xFFFF NOT SWAP1 SWAP4 AND SWAP3 SWAP1 SWAP3 OR OR SWAP1 SSTORE POP POP POP POP POP POP JUMP JUMPDEST PUSH1 0x60 PUSH1 0x5 PUSH1 0x0 DUP4 DUP2 MSTORE PUSH1 0x20 ADD SWAP1 DUP2 MSTORE PUSH1 0x20 ADD PUSH1 0x0 KECCAK256 DUP1 SLOAD DUP1 PUSH1 0x20 MUL PUSH1 0x20 ADD PUSH1 0x40 MLOAD SWAP1 DUP2 ADD PUSH1 0x40 MSTORE DUP1 SWAP3 SWAP2 SWAP1 DUP2 DUP2 MSTORE PUSH1 0x20 ADD PUSH1 0x0 SWAP1 JUMPDEST DUP3 DUP3 LT ISZERO PUSH2 0x2A29 JUMPI PUSH1 0x0 DUP5 DUP2 MSTORE PUSH1 0x20 SWAP1 DUP2 SWAP1 KECCAK256 PUSH1 0x40 DUP1 MLOAD PUSH1 0xC0 DUP2 ADD DUP3 MSTORE PUSH1 0x4 DUP7 MUL SWAP1 SWAP3 ADD DUP1 SLOAD DUP4 MSTORE PUSH1 0x1 DUP1 DUP3 ADD SLOAD DUP5 DUP7 ADD MSTORE PUSH1 0x2 DUP3 ADD SLOAD SWAP3 DUP5 ADD SWAP3 SWAP1 SWAP3 MSTORE PUSH1 0x3 ADD SLOAD PUSH1 0x1 PUSH1 0x1 PUSH1 0xA0 SHL SUB DUP2 AND PUSH1 0x60 DUP5 ADD MSTORE PUSH1 0xFF PUSH1 0x1 PUSH1 0xA0 SHL DUP3 DIV DUP2 AND ISZERO ISZERO PUSH1 0x80 DUP6 ADD MSTORE PUSH1 0x1 PUSH1 0xA8 SHL SWAP1 SWAP2 DIV AND ISZERO ISZERO PUSH1 0xA0 DUP4 ADD MSTORE SWAP1 DUP4 MSTORE SWAP1 SWAP3 ADD SWAP2 ADD PUSH2 0x32FA JUMP JUMPDEST PUSH1 0x60 PUSH1 0x4 PUSH1 0x0 DUP4 DUP2 MSTORE PUSH1 0x20 ADD SWAP1 DUP2 MSTORE PUSH1 0x20 ADD PUSH1 0x0 KECCAK256 DUP1 SLOAD DUP1 PUSH1 0x20 MUL PUSH1 0x20 ADD PUSH1 0x40 MLOAD SWAP1 DUP2 ADD PUSH1 0x40 MSTORE DUP1 SWAP3 SWAP2 SWAP1 DUP2 DUP2 MSTORE PUSH1 0x20 ADD PUSH1 0x0 SWAP1 JUMPDEST DUP3 DUP3 LT ISZERO PUSH2 0x2A29 JUMPI DUP4 DUP3 SWAP1 PUSH1 0x0 MSTORE PUSH1 0x20 PUSH1 0x0 KECCAK256 SWAP1 PUSH1 0x4 MUL ADD PUSH1 0x40 MLOAD DUP1 PUSH1 0x80 ADD PUSH1 0x40 MSTORE SWAP1 DUP2 PUSH1 0x0 DUP3 ADD SLOAD DUP2 MSTORE PUSH1 0x20 ADD PUSH1 0x1 DUP3 ADD SLOAD DUP2 MSTORE PUSH1 0x20 ADD PUSH1 0x2 DUP3 ADD DUP1 SLOAD PUSH2 0x33F6 SWAP1 PUSH2 0x41B3 JUMP JUMPDEST DUP1 PUSH1 0x1F ADD PUSH1 0x20 DUP1 SWAP2 DIV MUL PUSH1 0x20 ADD PUSH1 0x40 MLOAD SWAP1 DUP2 ADD PUSH1 0x40 MSTORE DUP1 SWAP3 SWAP2 SWAP1 DUP2 DUP2 MSTORE PUSH1 0x20 ADD DUP3 DUP1 SLOAD PUSH2 0x3422 SWAP1 PUSH2 0x41B3 JUMP JUMPDEST DUP1 ISZERO PUSH2 0x346F JUMPI DUP1 PUSH1 0x1F LT PUSH2 0x3444 JUMPI PUSH2 0x100 DUP1 DUP4 SLOAD DIV MUL DUP4 MSTORE SWAP2 PUSH1 0x20 ADD SWAP2 PUSH2 0x346F JUMP JUMPDEST DUP3 ADD SWAP2 SWAP1 PUSH1 0x0 MSTORE PUSH1 0x20 PUSH1 0x0 KECCAK256 SWAP1 JUMPDEST DUP2 SLOAD DUP2 MSTORE SWAP1 PUSH1 0x1 ADD SWAP1 PUSH1 0x20 ADD DUP1 DUP4 GT PUSH2 0x3452 JUMPI DUP3 SWAP1 SUB PUSH1 0x1F AND DUP3 ADD SWAP2 JUMPDEST POP POP POP SWAP2 DUP4 MSTORE POP POP PUSH1 0x3 SWAP2 SWAP1 SWAP2 ADD SLOAD PUSH1 0xFF AND ISZERO ISZERO PUSH1 0x20 SWAP2 DUP3 ADD MSTORE SWAP1 DUP3 MSTORE PUSH1 0x1 SWAP3 SWAP1 SWAP3 ADD SWAP2 ADD PUSH2 0x33AF JUMP JUMPDEST PUSH1 0x1 PUSH1 0x20 DUP2 SWAP1 MSTORE PUSH1 0x0 SWAP2 DUP3 MSTORE PUSH1 0x40 SWAP1 SWAP2 KECCAK256 DUP1 SLOAD SWAP2 DUP2 ADD SLOAD PUSH1 0x2 DUP3 ADD DUP1 SLOAD PUSH1 0x1 PUSH1 0x1 PUSH1 0xA0 SHL SUB SWAP1 SWAP3 AND SWAP3 SWAP2 PUSH2 0x34CC SWAP1 PUSH2 0x41B3 JUMP JUMPDEST DUP1 PUSH1 0x1F ADD PUSH1 0x20 DUP1 SWAP2 DIV MUL PUSH1 0x20 ADD PUSH1 0x40 MLOAD SWAP1 DUP2 ADD PUSH1 0x40 MSTORE DUP1 SWAP3 SWAP2 SWAP1 DUP2 DUP2 MSTORE PUSH1 0x20 ADD DUP3 DUP1 SLOAD PUSH2 0x34F8 SWAP1 PUSH2 0x41B3 JUMP JUMPDEST DUP1 ISZERO PUSH2 0x3545 JUMPI DUP1 PUSH1 0x1F LT PUSH2 0x351A JUMPI PUSH2 0x100 DUP1 DUP4 SLOAD DIV MUL DUP4 MSTORE SWAP2 PUSH1 0x20 ADD SWAP2 PUSH2 0x3545 JUMP JUMPDEST DUP3 ADD SWAP2 SWAP1 PUSH1 0x0 MSTORE PUSH1 0x20 PUSH1 0x0 KECCAK256 SWAP1 JUMPDEST DUP2 SLOAD DUP2 MSTORE SWAP1 PUSH1 0x1 ADD SWAP1 PUSH1 0x20 ADD DUP1 DUP4 GT PUSH2 0x3528 JUMPI DUP3 SWAP1 SUB PUSH1 0x1F AND DUP3 ADD SWAP2 JUMPDEST POP POP POP POP PUSH1 0x3 DUP4 ADD SLOAD PUSH1 0x4 SWAP1 SWAP4 ADD SLOAD SWAP2 SWAP3 SWAP2 PUSH1 0xFF DUP1 DUP3 AND SWAP3 POP PUSH2 0x100 DUP3 DIV DUP2 AND SWAP2 PUSH3 0x10000 SWAP1 DIV AND DUP8 JUMP JUMPDEST PUSH1 0x4 PUSH1 0x20 MSTORE DUP2 PUSH1 0x0 MSTORE PUSH1 0x40 PUSH1 0x0 KECCAK256 DUP2 DUP2 SLOAD DUP2 LT PUSH2 0x358C JUMPI PUSH1 0x0 DUP1 REVERT JUMPDEST SWAP1 PUSH1 0x0 MSTORE PUSH1 0x20 PUSH1 0x0 KECCAK256 SWAP1 PUSH1 0x4 MUL ADD PUSH1 0x0 SWAP2 POP SWAP2 POP POP DUP1 PUSH1 0x0 ADD SLOAD SWAP1 DUP1 PUSH1 0x1 ADD SLOAD SWAP1 DUP1 PUSH1 0x2 ADD DUP1 SLOAD PUSH2 0x35BC SWAP1 PUSH2 0x41B3 JUMP JUMPDEST DUP1 PUSH1 0x1F ADD PUSH1 0x20 DUP1 SWAP2 DIV MUL PUSH1 0x20 ADD PUSH1 0x40 MLOAD SWAP1 DUP2 ADD PUSH1 0x40 MSTORE DUP1 SWAP3 SWAP2 SWAP1 DUP2 DUP2 MSTORE PUSH1 0x20 ADD DUP3 DUP1 SLOAD PUSH2 0x35E8 SWAP1 PUSH2 0x41B3 JUMP JUMPDEST DUP1 ISZERO PUSH2 0x3635 JUMPI DUP1 PUSH1 0x1F LT PUSH2 0x360A JUMPI PUSH2 0x100 DUP1 DUP4 SLOAD DIV MUL DUP4 MSTORE SWAP2 PUSH1 0x20 ADD SWAP2 PUSH2 0x3635 JUMP JUMPDEST DUP3 ADD SWAP2 SWAP1 PUSH1 0x0 MSTORE PUSH1 0x20 PUSH1 0x0 KECCAK256 SWAP1 JUMPDEST DUP2 SLOAD DUP2 MSTORE SWAP1 PUSH1 0x1 ADD SWAP1 PUSH1 0x20 ADD DUP1 DUP4 GT PUSH2 0x3618 JUMPI DUP3 SWAP1 SUB PUSH1 0x1F AND DUP3 ADD SWAP2 JUMPDEST POP POP POP PUSH1 0x3 SWAP1 SWAP4 ADD SLOAD SWAP2 SWAP3 POP POP PUSH1 0xFF AND DUP5 JUMP JUMPDEST PUSH1 0x40 MLOAD DUP1 PUSH1 0xE0 ADD PUSH1 0x40 MSTORE DUP1 PUSH1 0x0 DUP2 MSTORE PUSH1 0x20 ADD PUSH1 0x0 PUSH1 0x1 PUSH1 0x1 PUSH1 0xA0 SHL SUB AND DUP2 MSTORE PUSH1 0x20 ADD PUSH1 0x60 DUP2 MSTORE PUSH1 0x20 ADD PUSH1 0x0 DUP2 MSTORE PUSH1 0x20 ADD PUSH1 0x0 ISZERO ISZERO DUP2 MSTORE PUSH1 0x20 ADD PUSH1 0x0 ISZERO ISZERO DUP2 MSTORE PUSH1 0x20 ADD PUSH1 0x0 ISZERO ISZERO DUP2 MSTORE POP SWAP1 JUMP JUMPDEST PUSH1 0x40 MLOAD DUP1 PUSH1 0xE0 ADD PUSH1 0x40 MSTORE DUP1 PUSH1 0x0 DUP2 MSTORE PUSH1 0x20 ADD PUSH1 0x0 PUSH1 0x1 PUSH1 0x1 PUSH1 0xA0 SHL SUB AND DUP2 MSTORE PUSH1 0x20 ADD PUSH1 0x60 DUP2 MSTORE PUSH1 0x20 ADD PUSH1 0x0 DUP2 MSTORE PUSH1 0x20 ADD PUSH1 0x0 DUP2 MSTORE PUSH1 0x20 ADD PUSH1 0x0 DUP2 MSTORE PUSH1 0x20 ADD PUSH1 0x0 ISZERO ISZERO DUP2 MSTORE POP SWAP1 JUMP JUMPDEST PUSH1 0x40 MLOAD DUP1 PUSH1 0xC0 ADD PUSH1 0x40 MSTORE DUP1 PUSH1 0x0 DUP2 MSTORE PUSH1 0x20 ADD PUSH1 0x0 DUP2 MSTORE PUSH1 0x20 ADD PUSH1 0x0 DUP2 MSTORE PUSH1 0x20 ADD PUSH1 0x0 PUSH1 0x1 PUSH1 0x1 PUSH1 0xA0 SHL SUB AND DUP2 MSTORE PUSH1 0x20 ADD PUSH1 0x0 ISZERO ISZERO DUP2 MSTORE PUSH1 0x20 ADD PUSH1 0x0 ISZERO ISZERO DUP2 MSTORE POP SWAP1 JUMP JUMPDEST PUSH1 0x40 MLOAD DUP1 PUSH2 0x100 ADD PUSH1 0x40 MSTORE DUP1 PUSH1 0x0 DUP2 MSTORE PUSH1 0x20 ADD PUSH1 0x0 PUSH1 0x1 PUSH1 0x1 PUSH1 0xA0 SHL SUB AND DUP2 MSTORE PUSH1 0x20 ADD PUSH1 0x60 DUP2 MSTORE PUSH1 0x20 ADD PUSH1 0x60 DUP2 MSTORE PUSH1 0x20 ADD PUSH1 0x0 DUP2 MSTORE PUSH1 0x20 ADD PUSH1 0x0 DUP2 MSTORE PUSH1 0x20 ADD PUSH1 0x0 ISZERO ISZERO DUP2 MSTORE PUSH1 0x20 ADD PUSH1 0x0 ISZERO ISZERO DUP2 MSTORE POP SWAP1 JUMP JUMPDEST PUSH1 0x40 MLOAD DUP1 PUSH1 0xA0 ADD PUSH1 0x40 MSTORE DUP1 PUSH1 0x0 DUP2 MSTORE PUSH1 0x20 ADD PUSH1 0x0 DUP2 MSTORE PUSH1 0x20 ADD PUSH1 0x0 PUSH1 0x1 PUSH1 0x1 PUSH1 0xA0 SHL SUB AND DUP2 MSTORE PUSH1 0x20 ADD PUSH1 0x0 DUP2 MSTORE PUSH1 0x20 ADD PUSH1 0x0 ISZERO ISZERO DUP2 MSTORE POP SWAP1 JUMP JUMPDEST PUSH1 0x0 DUP1 PUSH1 0x40 DUP4 DUP6 SUB SLT ISZERO PUSH2 0x37BE JUMPI PUSH1 0x0 DUP1 REVERT JUMPDEST POP POP DUP1 CALLDATALOAD SWAP3 PUSH1 0x20 SWAP1 SWAP2 ADD CALLDATALOAD SWAP2 POP JUMP JUMPDEST DUP1 CALLDATALOAD PUSH1 0x1 PUSH1 0x1 PUSH1 0xA0 SHL SUB DUP2 AND DUP2 EQ PUSH2 0x37E4 JUMPI PUSH1 0x0 DUP1 REVERT JUMPDEST SWAP2 SWAP1 POP JUMP JUMPDEST PUSH1 0x0 PUSH1 0x20 DUP3 DUP5 SUB SLT ISZERO PUSH2 0x37FB JUMPI PUSH1 0x0 DUP1 REVERT JUMPDEST PUSH2 0x3804 DUP3 PUSH2 0x37CD JUMP JUMPDEST SWAP4 SWAP3 POP POP POP JUMP JUMPDEST PUSH1 0x0 DUP2 MLOAD DUP1 DUP5 MSTORE PUSH1 0x0 JUMPDEST DUP2 DUP2 LT ISZERO PUSH2 0x3831 JUMPI PUSH1 0x20 DUP2 DUP6 ADD DUP2 ADD MLOAD DUP7 DUP4 ADD DUP3 ADD MSTORE ADD PUSH2 0x3815 JUMP JUMPDEST POP PUSH1 0x0 PUSH1 0x20 DUP3 DUP7 ADD ADD MSTORE PUSH1 0x20 PUSH1 0x1F NOT PUSH1 0x1F DUP4 ADD AND DUP6 ADD ADD SWAP2 POP POP SWAP3 SWAP2 POP POP JUMP JUMPDEST PUSH1 0x20 DUP2 MSTORE DUP2 MLOAD PUSH1 0x20 DUP3 ADD MSTORE PUSH1 0x1 DUP1 PUSH1 0xA0 SHL SUB PUSH1 0x20 DUP4 ADD MLOAD AND PUSH1 0x40 DUP3 ADD MSTORE PUSH1 0x0 PUSH1 0x40 DUP4 ADD MLOAD PUSH1 0xE0 PUSH1 0x60 DUP5 ADD MSTORE PUSH2 0x388A PUSH2 0x100 DUP5 ADD DUP3 PUSH2 0x380B JUMP JUMPDEST SWAP1 POP PUSH1 0x60 DUP5 ADD MLOAD PUSH1 0x80 DUP5 ADD MSTORE PUSH1 0x80 DUP5 ADD MLOAD ISZERO ISZERO PUSH1 0xA0 DUP5 ADD MSTORE PUSH1 0xA0 DUP5 ADD MLOAD ISZERO ISZERO PUSH1 0xC0 DUP5 ADD MSTORE PUSH1 0xC0 DUP5 ADD MLOAD ISZERO ISZERO PUSH1 0xE0 DUP5 ADD MSTORE DUP1 SWAP2 POP POP SWAP3 SWAP2 POP POP JUMP JUMPDEST DUP1 MLOAD DUP3 MSTORE PUSH1 0x1 DUP1 PUSH1 0xA0 SHL SUB PUSH1 0x20 DUP3 ADD MLOAD AND PUSH1 0x20 DUP4 ADD MSTORE PUSH1 0x0 PUSH1 0x40 DUP3 ADD MLOAD PUSH1 0xE0 PUSH1 0x40 DUP6 ADD MSTORE PUSH2 0x38F5 PUSH1 0xE0 DUP6 ADD DUP3 PUSH2 0x380B JUMP JUMPDEST SWAP1 POP PUSH1 0x60 DUP4 ADD MLOAD PUSH1 0x60 DUP6 ADD MSTORE PUSH1 0x80 DUP4 ADD MLOAD PUSH1 0x80 DUP6 ADD MSTORE PUSH1 0xA0 DUP4 ADD MLOAD PUSH1 0xA0 DUP6 ADD MSTORE PUSH1 0xC0 DUP4 ADD MLOAD ISZERO ISZERO PUSH1 0xC0 DUP6 ADD MSTORE DUP1 SWAP2 POP POP SWAP3 SWAP2 POP POP JUMP JUMPDEST PUSH1 0x0 PUSH1 0x20 DUP1 DUP4 ADD DUP2 DUP5 MSTORE DUP1 DUP6 MLOAD DUP1 DUP4 MSTORE PUSH1 0x40 DUP7 ADD SWAP2 POP PUSH1 0x40 DUP2 PUSH1 0x5 SHL DUP8 ADD ADD SWAP3 POP DUP4 DUP8 ADD PUSH1 0x0 JUMPDEST DUP3 DUP2 LT ISZERO PUSH2 0x3980 JUMPI PUSH1 0x3F NOT DUP9 DUP7 SUB ADD DUP5 MSTORE PUSH2 0x396E DUP6 DUP4 MLOAD PUSH2 0x38C4 JUMP JUMPDEST SWAP5 POP SWAP3 DUP6 ADD SWAP3 SWAP1 DUP6 ADD SWAP1 PUSH1 0x1 ADD PUSH2 0x3952 JUMP JUMPDEST POP SWAP3 SWAP8 SWAP7 POP POP POP POP POP POP POP JUMP JUMPDEST DUP9 DUP2 MSTORE PUSH1 0x1 PUSH1 0x1 PUSH1 0xA0 SHL SUB DUP9 AND PUSH1 0x20 DUP3 ADD MSTORE PUSH2 0x100 PUSH1 0x40 DUP3 ADD DUP2 SWAP1 MSTORE PUSH1 0x0 SWAP1 PUSH2 0x39B8 DUP4 DUP3 ADD DUP11 PUSH2 0x380B JUMP JUMPDEST SWAP1 POP DUP3 DUP2 SUB PUSH1 0x60 DUP5 ADD MSTORE PUSH2 0x39CC DUP2 DUP10 PUSH2 0x380B JUMP JUMPDEST PUSH1 0x80 DUP5 ADD SWAP8 SWAP1 SWAP8 MSTORE POP POP PUSH1 0xA0 DUP2 ADD SWAP4 SWAP1 SWAP4 MSTORE SWAP1 ISZERO ISZERO PUSH1 0xC0 DUP4 ADD MSTORE ISZERO ISZERO PUSH1 0xE0 SWAP1 SWAP2 ADD MSTORE SWAP5 SWAP4 POP POP POP POP JUMP JUMPDEST PUSH4 0x4E487B71 PUSH1 0xE0 SHL PUSH1 0x0 MSTORE PUSH1 0x41 PUSH1 0x4 MSTORE PUSH1 0x24 PUSH1 0x0 REVERT JUMPDEST PUSH1 0x40 MLOAD PUSH1 0x1F DUP3 ADD PUSH1 0x1F NOT AND DUP2 ADD PUSH1 0x1 PUSH1 0x1 PUSH1 0x40 SHL SUB DUP2 GT DUP3 DUP3 LT OR ISZERO PUSH2 0x3A34 JUMPI PUSH2 0x3A34 PUSH2 0x39F6 JUMP JUMPDEST PUSH1 0x40 MSTORE SWAP2 SWAP1 POP JUMP JUMPDEST PUSH1 0x0 DUP3 PUSH1 0x1F DUP4 ADD SLT PUSH2 0x3A4D JUMPI PUSH1 0x0 DUP1 REVERT JUMPDEST DUP2 CALLDATALOAD PUSH1 0x1 PUSH1 0x1 PUSH1 0x40 SHL SUB DUP2 GT ISZERO PUSH2 0x3A66 JUMPI PUSH2 0x3A66 PUSH2 0x39F6 JUMP JUMPDEST PUSH2 0x3A79 PUSH1 0x1F DUP3 ADD PUSH1 0x1F NOT AND PUSH1 0x20 ADD PUSH2 0x3A0C JUMP JUMPDEST DUP2 DUP2 MSTORE DUP5 PUSH1 0x20 DUP4 DUP7 ADD ADD GT ISZERO PUSH2 0x3A8E JUMPI PUSH1 0x0 DUP1 REVERT JUMPDEST DUP2 PUSH1 0x20 DUP6 ADD PUSH1 0x20 DUP4 ADD CALLDATACOPY PUSH1 0x0 SWAP2 DUP2 ADD PUSH1 0x20 ADD SWAP2 SWAP1 SWAP2 MSTORE SWAP4 SWAP3 POP POP POP JUMP JUMPDEST PUSH1 0x0 DUP1 PUSH1 0x0 PUSH1 0x60 DUP5 DUP7 SUB SLT ISZERO PUSH2 0x3AC0 JUMPI PUSH1 0x0 DUP1 REVERT JUMPDEST PUSH2 0x3AC9 DUP5 PUSH2 0x37CD JUMP JUMPDEST SWAP3 POP PUSH1 0x20 DUP5 ADD CALLDATALOAD PUSH1 0x1 PUSH1 0x1 PUSH1 0x40 SHL SUB DUP2 GT ISZERO PUSH2 0x3AE4 JUMPI PUSH1 0x0 DUP1 REVERT JUMPDEST PUSH2 0x3AF0 DUP7 DUP3 DUP8 ADD PUSH2 0x3A3C JUMP JUMPDEST SWAP3 POP POP PUSH1 0x40 DUP5 ADD CALLDATALOAD SWAP1 POP SWAP3 POP SWAP3 POP SWAP3 JUMP JUMPDEST PUSH1 0x0 PUSH1 0x20 DUP3 DUP5 SUB SLT ISZERO PUSH2 0x3B13 JUMPI PUSH1 0x0 DUP1 REVERT JUMPDEST POP CALLDATALOAD SWAP2 SWAP1 POP JUMP JUMPDEST DUP8 DUP2 MSTORE PUSH1 0x1 PUSH1 0x1 PUSH1 0xA0 SHL SUB DUP8 AND PUSH1 0x20 DUP3 ADD MSTORE PUSH1 0xE0 PUSH1 0x40 DUP3 ADD DUP2 SWAP1 MSTORE PUSH1 0x0 SWAP1 PUSH2 0x3B44 SWAP1 DUP4 ADD DUP9 PUSH2 0x380B JUMP JUMPDEST SWAP1 POP DUP6 PUSH1 0x60 DUP4 ADD MSTORE DUP5 PUSH1 0x80 DUP4 ADD MSTORE DUP4 PUSH1 0xA0 DUP4 ADD MSTORE DUP3 ISZERO ISZERO PUSH1 0xC0 DUP4 ADD MSTORE SWAP9 SWAP8 POP POP POP POP POP POP POP POP JUMP JUMPDEST PUSH1 0x0 DUP1 PUSH1 0x40 DUP4 DUP6 SUB SLT ISZERO PUSH2 0x3B7F JUMPI PUSH1 0x0 DUP1 REVERT JUMPDEST DUP3 CALLDATALOAD SWAP2 POP PUSH2 0x3B8F PUSH1 0x20 DUP5 ADD PUSH2 0x37CD JUMP JUMPDEST SWAP1 POP SWAP3 POP SWAP3 SWAP1 POP JUMP JUMPDEST PUSH1 0x20 DUP1 DUP3 MSTORE DUP3 MLOAD DUP3 DUP3 ADD DUP2 SWAP1 MSTORE PUSH1 0x0 SWAP2 SWAP1 PUSH1 0x40 SWAP1 DUP2 DUP6 ADD SWAP1 DUP7 DUP5 ADD DUP6 JUMPDEST DUP3 DUP2 LT ISZERO PUSH2 0x3C10 JUMPI DUP2 MLOAD DUP1 MLOAD DUP6 MSTORE DUP7 DUP2 ADD MLOAD DUP8 DUP7 ADD MSTORE DUP6 DUP2 ADD MLOAD DUP7 DUP7 ADD MSTORE PUSH1 0x60 DUP1 DUP3 ADD MLOAD PUSH1 0x1 PUSH1 0x1 PUSH1 0xA0 SHL SUB AND SWAP1 DUP7 ADD MSTORE PUSH1 0x80 DUP1 DUP3 ADD MLOAD ISZERO ISZERO SWAP1 DUP7 ADD MSTORE PUSH1 0xA0 SWAP1 DUP2 ADD MLOAD ISZERO ISZERO SWAP1 DUP6 ADD MSTORE PUSH1 0xC0 SWAP1 SWAP4 ADD SWAP3 SWAP1 DUP6 ADD SWAP1 PUSH1 0x1 ADD PUSH2 0x3BB5 JUMP JUMPDEST POP SWAP2 SWAP8 SWAP7 POP POP POP POP POP POP POP JUMP JUMPDEST PUSH1 0x0 PUSH2 0x100 DUP3 MLOAD DUP5 MSTORE PUSH1 0x1 DUP1 PUSH1 0xA0 SHL SUB PUSH1 0x20 DUP5 ADD MLOAD AND PUSH1 0x20 DUP6 ADD MSTORE PUSH1 0x40 DUP4 ADD MLOAD DUP2 PUSH1 0x40 DUP7 ADD MSTORE PUSH2 0x3C4F DUP3 DUP7 ADD DUP3 PUSH2 0x380B JUMP JUMPDEST SWAP2 POP POP PUSH1 0x60 DUP4 ADD MLOAD DUP5 DUP3 SUB PUSH1 0x60 DUP7 ADD MSTORE PUSH2 0x3C69 DUP3 DUP3 PUSH2 0x380B JUMP JUMPDEST SWAP2 POP POP PUSH1 0x80 DUP4 ADD MLOAD PUSH1 0x80 DUP6 ADD MSTORE PUSH1 0xA0 DUP4 ADD MLOAD PUSH1 0xA0 DUP6 ADD MSTORE PUSH1 0xC0 DUP4 ADD MLOAD ISZERO ISZERO PUSH1 0xC0 DUP6 ADD MSTORE PUSH1 0xE0 DUP4 ADD MLOAD PUSH2 0x3C9F PUSH1 0xE0 DUP7 ADD DUP3 ISZERO ISZERO SWAP1 MSTORE JUMP JUMPDEST POP SWAP4 SWAP3 POP POP POP JUMP JUMPDEST PUSH1 0x20 DUP2 MSTORE PUSH1 0x0 PUSH2 0x3804 PUSH1 0x20 DUP4 ADD DUP5 PUSH2 0x3C1D JUMP JUMPDEST PUSH1 0x20 DUP1 DUP3 MSTORE DUP3 MLOAD DUP3 DUP3 ADD DUP2 SWAP1 MSTORE PUSH1 0x0 SWAP2 SWAP1 PUSH1 0x40 SWAP1 DUP2 DUP6 ADD SWAP1 DUP7 DUP5 ADD DUP6 JUMPDEST DUP3 DUP2 LT ISZERO PUSH2 0x3C10 JUMPI DUP2 MLOAD DUP1 MLOAD DUP6 MSTORE DUP7 DUP2 ADD MLOAD DUP8 DUP7 ADD MSTORE DUP6 DUP2 ADD MLOAD PUSH1 0x1 PUSH1 0x1 PUSH1 0xA0 SHL SUB AND DUP7 DUP7 ADD MSTORE PUSH1 0x60 DUP1 DUP3 ADD MLOAD SWAP1 DUP7 ADD MSTORE PUSH1 0x80 SWAP1 DUP2 ADD MLOAD ISZERO ISZERO SWAP1 DUP6 ADD MSTORE PUSH1 0xA0 SWAP1 SWAP4 ADD SWAP3 SWAP1 DUP6 ADD SWAP1 PUSH1 0x1 ADD PUSH2 0x3CD7 JUMP JUMPDEST PUSH1 0x0 DUP1 PUSH1 0x0 DUP1 PUSH1 0x80 DUP6 DUP8 SUB SLT ISZERO PUSH2 0x3D3C JUMPI PUSH1 0x0 DUP1 REVERT JUMPDEST PUSH2 0x3D45 DUP6 PUSH2 0x37CD JUMP JUMPDEST SWAP4 POP PUSH1 0x20 DUP6 ADD CALLDATALOAD PUSH1 0x1 PUSH1 0x1 PUSH1 0x40 SHL SUB DUP1 DUP3 GT ISZERO PUSH2 0x3D61 JUMPI PUSH1 0x0 DUP1 REVERT JUMPDEST PUSH2 0x3D6D DUP9 DUP4 DUP10 ADD PUSH2 0x3A3C JUMP JUMPDEST SWAP5 POP PUSH1 0x40 DUP8 ADD CALLDATALOAD SWAP2 POP DUP1 DUP3 GT ISZERO PUSH2 0x3D83 JUMPI PUSH1 0x0 DUP1 REVERT JUMPDEST POP PUSH2 0x3D90 DUP8 DUP3 DUP9 ADD PUSH2 0x3A3C JUMP JUMPDEST SWAP5 SWAP8 SWAP4 SWAP7 POP SWAP4 SWAP5 PUSH1 0x60 ADD CALLDATALOAD SWAP4 POP POP POP JUMP JUMPDEST PUSH1 0x0 PUSH1 0x1 PUSH1 0x1 PUSH1 0x40 SHL SUB DUP3 GT ISZERO PUSH2 0x3DBA JUMPI PUSH2 0x3DBA PUSH2 0x39F6 JUMP JUMPDEST POP PUSH1 0x5 SHL PUSH1 0x20 ADD SWAP1 JUMP JUMPDEST PUSH1 0x0 DUP1 PUSH1 0x0 DUP1 PUSH1 0x0 DUP1 PUSH1 0xC0 DUP8 DUP10 SUB SLT ISZERO PUSH2 0x3DDD JUMPI PUSH1 0x0 DUP1 REVERT JUMPDEST PUSH2 0x3DE6 DUP8 PUSH2 0x37CD JUMP JUMPDEST SWAP6 POP PUSH1 0x20 DUP1 DUP9 ADD CALLDATALOAD PUSH1 0x1 PUSH1 0x1 PUSH1 0x40 SHL SUB DUP1 DUP3 GT ISZERO PUSH2 0x3E03 JUMPI PUSH1 0x0 DUP1 REVERT JUMPDEST PUSH2 0x3E0F DUP12 DUP4 DUP13 ADD PUSH2 0x3A3C JUMP JUMPDEST SWAP8 POP PUSH1 0x40 DUP11 ADD CALLDATALOAD SWAP7 POP PUSH1 0x60 DUP11 ADD CALLDATALOAD SWAP6 POP PUSH1 0x80 DUP11 ADD CALLDATALOAD SWAP2 POP DUP1 DUP3 GT ISZERO PUSH2 0x3E33 JUMPI PUSH1 0x0 DUP1 REVERT JUMPDEST DUP2 DUP11 ADD SWAP2 POP DUP11 PUSH1 0x1F DUP4 ADD SLT PUSH2 0x3E47 JUMPI PUSH1 0x0 DUP1 REVERT JUMPDEST DUP2 CALLDATALOAD PUSH2 0x3E5A PUSH2 0x3E55 DUP3 PUSH2 0x3DA1 JUMP JUMPDEST PUSH2 0x3A0C JUMP JUMPDEST DUP2 DUP2 MSTORE PUSH1 0x5 SWAP2 SWAP1 SWAP2 SHL DUP4 ADD DUP5 ADD SWAP1 DUP5 DUP2 ADD SWAP1 DUP14 DUP4 GT ISZERO PUSH2 0x3E79 JUMPI PUSH1 0x0 DUP1 REVERT JUMPDEST DUP6 DUP6 ADD JUMPDEST DUP4 DUP2 LT ISZERO PUSH2 0x3EAF JUMPI DUP5 DUP2 CALLDATALOAD GT ISZERO PUSH2 0x3E93 JUMPI PUSH1 0x0 DUP1 REVERT JUMPDEST PUSH2 0x3EA2 DUP16 DUP9 DUP4 CALLDATALOAD DUP10 ADD ADD PUSH2 0x3A3C JUMP JUMPDEST DUP4 MSTORE SWAP2 DUP7 ADD SWAP2 DUP7 ADD PUSH2 0x3E7D JUMP JUMPDEST POP DUP1 SWAP8 POP POP POP POP POP POP POP PUSH1 0xA0 DUP8 ADD CALLDATALOAD SWAP1 POP SWAP3 SWAP6 POP SWAP3 SWAP6 POP SWAP3 SWAP6 JUMP JUMPDEST PUSH1 0x0 PUSH1 0x20 DUP1 DUP4 ADD DUP2 DUP5 MSTORE DUP1 DUP6 MLOAD DUP1 DUP4 MSTORE PUSH1 0x40 DUP7 ADD SWAP2 POP PUSH1 0x40 DUP2 PUSH1 0x5 SHL DUP8 ADD ADD SWAP3 POP DUP4 DUP8 ADD PUSH1 0x0 JUMPDEST DUP3 DUP2 LT ISZERO PUSH2 0x3980 JUMPI PUSH1 0x3F NOT DUP9 DUP7 SUB ADD DUP5 MSTORE PUSH2 0x3F0D DUP6 DUP4 MLOAD PUSH2 0x3C1D JUMP JUMPDEST SWAP5 POP SWAP3 DUP6 ADD SWAP3 SWAP1 DUP6 ADD SWAP1 PUSH1 0x1 ADD PUSH2 0x3EF1 JUMP JUMPDEST PUSH1 0x0 DUP1 PUSH1 0x40 DUP4 DUP6 SUB SLT ISZERO PUSH2 0x3F32 JUMPI PUSH1 0x0 DUP1 REVERT JUMPDEST PUSH2 0x3F3B DUP4 PUSH2 0x37CD JUMP JUMPDEST SWAP5 PUSH1 0x20 SWAP4 SWAP1 SWAP4 ADD CALLDATALOAD SWAP4 POP POP POP JUMP JUMPDEST PUSH1 0x0 DUP1 PUSH1 0x0 DUP1 PUSH1 0x80 DUP6 DUP8 SUB SLT ISZERO PUSH2 0x3F5F JUMPI PUSH1 0x0 DUP1 REVERT JUMPDEST DUP5 CALLDATALOAD SWAP4 POP PUSH1 0x20 DUP6 ADD CALLDATALOAD SWAP3 POP PUSH1 0x40 DUP6 ADD CALLDATALOAD SWAP2 POP PUSH2 0x3F7D PUSH1 0x60 DUP7 ADD PUSH2 0x37CD JUMP JUMPDEST SWAP1 POP SWAP3 SWAP6 SWAP2 SWAP5 POP SWAP3 POP JUMP JUMPDEST PUSH1 0x20 DUP2 MSTORE PUSH1 0x0 PUSH2 0x3804 PUSH1 0x20 DUP4 ADD DUP5 PUSH2 0x38C4 JUMP JUMPDEST DUP1 ISZERO ISZERO DUP2 EQ PUSH2 0x3FA9 JUMPI PUSH1 0x0 DUP1 REVERT JUMPDEST POP JUMP JUMPDEST PUSH1 0x0 DUP1 PUSH1 0x0 PUSH1 0x60 DUP5 DUP7 SUB SLT ISZERO PUSH2 0x3FC1 JUMPI PUSH1 0x0 DUP1 REVERT JUMPDEST DUP4 CALLDATALOAD SWAP3 POP PUSH1 0x20 PUSH2 0x3FD2 DUP2 DUP7 ADD PUSH2 0x37CD JUMP JUMPDEST SWAP3 POP PUSH1 0x40 DUP6 ADD CALLDATALOAD PUSH1 0x1 PUSH1 0x1 PUSH1 0x40 SHL SUB DUP2 GT ISZERO PUSH2 0x3FED JUMPI PUSH1 0x0 DUP1 REVERT JUMPDEST DUP6 ADD PUSH1 0x1F DUP2 ADD DUP8 SGT PUSH2 0x3FFE JUMPI PUSH1 0x0 DUP1 REVERT JUMPDEST DUP1 CALLDATALOAD PUSH2 0x400C PUSH2 0x3E55 DUP3 PUSH2 0x3DA1 JUMP JUMPDEST DUP2 DUP2 MSTORE PUSH1 0x5 SWAP2 SWAP1 SWAP2 SHL DUP3 ADD DUP4 ADD SWAP1 DUP4 DUP2 ADD SWAP1 DUP10 DUP4 GT ISZERO PUSH2 0x402B JUMPI PUSH1 0x0 DUP1 REVERT JUMPDEST SWAP3 DUP5 ADD SWAP3 JUMPDEST DUP3 DUP5 LT ISZERO PUSH2 0x4052 JUMPI DUP4 CALLDATALOAD PUSH2 0x4043 DUP2 PUSH2 0x3F9B JUMP JUMPDEST DUP3 MSTORE SWAP3 DUP5 ADD SWAP3 SWAP1 DUP5 ADD SWAP1 PUSH2 0x4030 JUMP JUMPDEST DUP1 SWAP6 POP POP POP POP POP POP SWAP3 POP SWAP3 POP SWAP3 JUMP JUMPDEST PUSH1 0x0 PUSH1 0x20 DUP1 DUP4 ADD DUP2 DUP5 MSTORE DUP1 DUP6 MLOAD DUP1 DUP4 MSTORE PUSH1 0x40 SWAP3 POP DUP3 DUP7 ADD SWAP2 POP DUP3 DUP2 PUSH1 0x5 SHL DUP8 ADD ADD DUP5 DUP9 ADD PUSH1 0x0 JUMPDEST DUP4 DUP2 LT ISZERO PUSH2 0x40E1 JUMPI PUSH1 0x3F NOT DUP10 DUP5 SUB ADD DUP6 MSTORE DUP2 MLOAD PUSH1 0x80 DUP2 MLOAD DUP6 MSTORE DUP9 DUP3 ADD MLOAD DUP10 DUP7 ADD MSTORE DUP8 DUP3 ADD MLOAD DUP2 DUP10 DUP8 ADD MSTORE PUSH2 0x40BE DUP3 DUP8 ADD DUP3 PUSH2 0x380B JUMP JUMPDEST PUSH1 0x60 SWAP4 DUP5 ADD MLOAD ISZERO ISZERO SWAP7 SWAP1 SWAP4 ADD SWAP6 SWAP1 SWAP6 MSTORE POP SWAP5 DUP8 ADD SWAP5 SWAP3 POP SWAP1 DUP7 ADD SWAP1 PUSH1 0x1 ADD PUSH2 0x4088 JUMP JUMPDEST POP SWAP1 SWAP9 SWAP8 POP POP POP POP POP POP POP POP JUMP JUMPDEST DUP8 DUP2 MSTORE PUSH1 0x1 PUSH1 0x1 PUSH1 0xA0 SHL SUB DUP8 AND PUSH1 0x20 DUP3 ADD MSTORE PUSH1 0xE0 PUSH1 0x40 DUP3 ADD DUP2 SWAP1 MSTORE PUSH1 0x0 SWAP1 PUSH2 0x4119 SWAP1 DUP4 ADD DUP9 PUSH2 0x380B JUMP JUMPDEST PUSH1 0x60 DUP4 ADD SWAP7 SWAP1 SWAP7 MSTORE POP SWAP3 ISZERO ISZERO PUSH1 0x80 DUP5 ADD MSTORE SWAP1 ISZERO ISZERO PUSH1 0xA0 DUP4 ADD MSTORE ISZERO ISZERO PUSH1 0xC0 SWAP1 SWAP2 ADD MSTORE SWAP4 SWAP3 POP POP POP JUMP JUMPDEST DUP5 DUP2 MSTORE DUP4 PUSH1 0x20 DUP3 ADD MSTORE PUSH1 0x80 PUSH1 0x40 DUP3 ADD MSTORE PUSH1 0x0 PUSH2 0x4160 PUSH1 0x80 DUP4 ADD DUP6 PUSH2 0x380B JUMP JUMPDEST SWAP1 POP DUP3 ISZERO ISZERO PUSH1 0x60 DUP4 ADD MSTORE SWAP6 SWAP5 POP POP POP POP POP JUMP JUMPDEST PUSH4 0x4E487B71 PUSH1 0xE0 SHL PUSH1 0x0 MSTORE PUSH1 0x11 PUSH1 0x4 MSTORE PUSH1 0x24 PUSH1 0x0 REVERT JUMPDEST DUP1 DUP3 MUL DUP2 ISZERO DUP3 DUP3 DIV DUP5 EQ OR PUSH2 0x7EF JUMPI PUSH2 0x7EF PUSH2 0x4173 JUMP JUMPDEST DUP1 DUP3 ADD DUP1 DUP3 GT ISZERO PUSH2 0x7EF JUMPI PUSH2 0x7EF PUSH2 0x4173 JUMP JUMPDEST PUSH1 0x1 DUP2 DUP2 SHR SWAP1 DUP3 AND DUP1 PUSH2 0x41C7 JUMPI PUSH1 0x7F DUP3 AND SWAP2 POP JUMPDEST PUSH1 0x20 DUP3 LT DUP2 SUB PUSH2 0x41E7 JUMPI PUSH4 0x4E487B71 PUSH1 0xE0 SHL PUSH1 0x0 MSTORE PUSH1 0x22 PUSH1 0x4 MSTORE PUSH1 0x24 PUSH1 0x0 REVERT JUMPDEST POP SWAP2 SWAP1 POP JUMP JUMPDEST PUSH4 0x4E487B71 PUSH1 0xE0 SHL PUSH1 0x0 MSTORE PUSH1 0x32 PUSH1 0x4 MSTORE PUSH1 0x24 PUSH1 0x0 REVERT JUMPDEST PUSH1 0x0 PUSH1 0x1 DUP3 ADD PUSH2 0x4215 JUMPI PUSH2 0x4215 PUSH2 0x4173 JUMP JUMPDEST POP PUSH1 0x1 ADD SWAP1 JUMP JUMPDEST PUSH1 0x1F DUP3 GT ISZERO PUSH2 0x4266 JUMPI PUSH1 0x0 DUP2 DUP2 MSTORE PUSH1 0x20 DUP2 KECCAK256 PUSH1 0x1F DUP6 ADD PUSH1 0x5 SHR DUP2 ADD PUSH1 0x20 DUP7 LT ISZERO PUSH2 0x4243 JUMPI POP DUP1 JUMPDEST PUSH1 0x1F DUP6 ADD PUSH1 0x5 SHR DUP3 ADD SWAP2 POP JUMPDEST DUP2 DUP2 LT ISZERO PUSH2 0x4262 JUMPI DUP3 DUP2 SSTORE PUSH1 0x1 ADD PUSH2 0x424F JUMP JUMPDEST POP POP POP JUMPDEST POP POP POP JUMP JUMPDEST DUP2 MLOAD PUSH1 0x1 PUSH1 0x1 PUSH1 0x40 SHL SUB DUP2 GT ISZERO PUSH2 0x4284 JUMPI PUSH2 0x4284 PUSH2 0x39F6 JUMP JUMPDEST PUSH2 0x4298 DUP2 PUSH2 0x4292 DUP5 SLOAD PUSH2 0x41B3 JUMP JUMPDEST DUP5 PUSH2 0x421C JUMP JUMPDEST PUSH1 0x20 DUP1 PUSH1 0x1F DUP4 GT PUSH1 0x1 DUP2 EQ PUSH2 0x42CD JUMPI PUSH1 0x0 DUP5 ISZERO PUSH2 0x42B5 JUMPI POP DUP6 DUP4 ADD MLOAD JUMPDEST PUSH1 0x0 NOT PUSH1 0x3 DUP7 SWAP1 SHL SHR NOT AND PUSH1 0x1 DUP6 SWAP1 SHL OR DUP6 SSTORE PUSH2 0x4262 JUMP JUMPDEST PUSH1 0x0 DUP6 DUP2 MSTORE PUSH1 0x20 DUP2 KECCAK256 PUSH1 0x1F NOT DUP7 AND SWAP2 JUMPDEST DUP3 DUP2 LT ISZERO PUSH2 0x42FC JUMPI DUP9 DUP7 ADD MLOAD DUP3 SSTORE SWAP5 DUP5 ADD SWAP5 PUSH1 0x1 SWAP1 SWAP2 ADD SWAP1 DUP5 ADD PUSH2 0x42DD JUMP JUMPDEST POP DUP6 DUP3 LT ISZERO PUSH2 0x431A JUMPI DUP8 DUP6 ADD MLOAD PUSH1 0x0 NOT PUSH1 0x3 DUP9 SWAP1 SHL PUSH1 0xF8 AND SHR NOT AND DUP2 SSTORE JUMPDEST POP POP POP POP POP PUSH1 0x1 SWAP1 DUP2 SHL ADD SWAP1 SSTORE POP JUMP JUMPDEST PUSH1 0x0 DUP3 PUSH2 0x4347 JUMPI PUSH4 0x4E487B71 PUSH1 0xE0 SHL PUSH1 0x0 MSTORE PUSH1 0x12 PUSH1 0x4 MSTORE PUSH1 0x24 PUSH1 0x0 REVERT JUMPDEST POP DIV SWAP1 JUMP JUMPDEST PUSH1 0x0 PUSH1 0x20 DUP3 DUP5 SUB SLT ISZERO PUSH2 0x435E JUMPI PUSH1 0x0 DUP1 REVERT JUMPDEST DUP2 MLOAD PUSH2 0x7EC DUP2 PUSH2 0x3F9B JUMP INVALID LOG2 PUSH5 0x6970667358 0x22 SLT KECCAK256 PUSH26 0xF0102324507817FF5DDF70B1EC833F8ABC06FF884F593EFD663A PUSH2 0xB4E4 PUSH23 0x5F64736F6C634300081300330000000000000000000000 "
				},
				"gasEstimates": {
					"creation": {
						"codeDepositCost": "3462200",
						"executionCost": "infinite",
						"totalCost": "infinite"
					},
					"external": {
						"allAnswers(uint256,uint256)": "11283",
						"allEarnings(uint256)": "13282",
						"allFundings(uint256)": "13304",
						"allParticipants(address)": "infinite",
						"allQuestions(uint256,uint256)": "infinite",
						"allResearchers(address)": "infinite",
						"allSurveys(uint256)": "infinite",
						"checkIfParticipantExists(address)": "2726",
						"checkIfParticipantHasAlreadyParticipatedInSurvey(address,uint256)": "2712",
						"checkIfResearcherExists(address)": "2662",
						"createFunding(uint256,uint256,uint256,address)": "infinite",
						"createParticipant(address,string,string,uint256)": "infinite",
						"createResearcher(address,string,uint256)": "infinite",
						"createSurvey(address,string,uint256,uint256,string[],uint256)": "infinite",
						"getAllAnswersOfParticipantOfSurvey(uint256,address)": "infinite",
						"getAllEarningsMadeByParticipant(address)": "infinite",
						"getAllQuestionsOfSurvey(uint256)": "infinite",
						"getAllSurveys()": "infinite",
						"getAllSurveysTakenByParticipant(address)": "infinite",
						"getAmountOfEarningForCanvassingForSurveyPerParticipantInWei(uint256,uint256)": "infinite",
						"getAmountOfEarningPerParticipantForSurveyInWei(uint256)": "infinite",
						"getAmountOfFundingOfAnySurveyInWei(uint256,uint256)": "infinite",
						"getAnswersOfSurvey(uint256)": "infinite",
						"getIdsOfLatestSurveysCreatedByResearchers(address)": "2572",
						"getParticipantByWalletAddress(address)": "infinite",
						"getParticipantsOfSurvey(uint256)": "infinite",
						"getResearcherByWalletAddress(address)": "infinite",
						"getSurveyById(uint256)": "infinite",
						"getSurveysCreatedByResearcher(address)": "infinite",
						"getTotalAmountFundedByResearchersInWei(address)": "2660",
						"getTotalAmountOfEarningsReceivedByParticipantInWei(address)": "infinite",
						"getTotalNumberOfSurveyCreatedByResearcher(address)": "2593",
						"idsOfLatestSurveysCreatedByResearchers(address)": "2596",
						"makePayoutAndCreateEarning(uint256,address)": "infinite",
						"participantsOfSurvey(uint256,uint256)": "infinite",
						"participateInSurvey(uint256,address,bool[])": "infinite",
						"participationStatusForSurvey(uint256,address)": "2740",
						"payoutStatusOfParticipantForSurvey(uint256,address)": "2696",
						"totalAmountFundedByResearchersInWei(address)": "2641",
						"totalNumberOfSurveysCreatedByResearchers(address)": "2597",
						"verifyResearcher(address)": "infinite"
					}
				},
				"methodIdentifiers": {
					"allAnswers(uint256,uint256)": "69bff3fb",
					"allEarnings(uint256)": "8e6da619",
					"allFundings(uint256)": "95ecea1f",
					"allParticipants(address)": "5b76074e",
					"allQuestions(uint256,uint256)": "fb47e9e6",
					"allResearchers(address)": "f692a3bb",
					"allSurveys(uint256)": "1b6f2485",
					"checkIfParticipantExists(address)": "6f5fde11",
					"checkIfParticipantHasAlreadyParticipatedInSurvey(address,uint256)": "a58543fe",
					"checkIfResearcherExists(address)": "9a23218f",
					"createFunding(uint256,uint256,uint256,address)": "b3265ecd",
					"createParticipant(address,string,string,uint256)": "3b43b7d0",
					"createResearcher(address,string,uint256)": "196f7f1e",
					"createSurvey(address,string,uint256,uint256,string[],uint256)": "68df3299",
					"getAllAnswersOfParticipantOfSurvey(uint256,address)": "2076a35a",
					"getAllEarningsMadeByParticipant(address)": "392a5822",
					"getAllQuestionsOfSurvey(uint256)": "f31e72e4",
					"getAllSurveys()": "7a1bc375",
					"getAllSurveysTakenByParticipant(address)": "3abb615a",
					"getAmountOfEarningForCanvassingForSurveyPerParticipantInWei(uint256,uint256)": "44962609",
					"getAmountOfEarningPerParticipantForSurveyInWei(uint256)": "1bd1ebc4",
					"getAmountOfFundingOfAnySurveyInWei(uint256,uint256)": "03f16747",
					"getAnswersOfSurvey(uint256)": "cc4903ca",
					"getIdsOfLatestSurveysCreatedByResearchers(address)": "3882db7d",
					"getParticipantByWalletAddress(address)": "2394e5dc",
					"getParticipantsOfSurvey(uint256)": "964f6566",
					"getResearcherByWalletAddress(address)": "0478318b",
					"getSurveyById(uint256)": "c0ac4ae4",
					"getSurveysCreatedByResearcher(address)": "07f6646e",
					"getTotalAmountFundedByResearchersInWei(address)": "3bdd0ad1",
					"getTotalAmountOfEarningsReceivedByParticipantInWei(address)": "25f18424",
					"getTotalNumberOfSurveyCreatedByResearcher(address)": "4fe1cfad",
					"idsOfLatestSurveysCreatedByResearchers(address)": "d7e93794",
					"makePayoutAndCreateEarning(uint256,address)": "6b8ac0e7",
					"participantsOfSurvey(uint256,uint256)": "125bb83d",
					"participateInSurvey(uint256,address,bool[])": "ca2e7f9b",
					"participationStatusForSurvey(uint256,address)": "b9c745b3",
					"payoutStatusOfParticipantForSurvey(uint256,address)": "7e950819",
					"totalAmountFundedByResearchersInWei(address)": "5fa7a90a",
					"totalNumberOfSurveysCreatedByResearchers(address)": "5822bff1",
					"verifyResearcher(address)": "73fd653d"
				}
			},
			"storageLayout": {
				"storage": [
					{
						"astId": 247,
						"contract": "smart-contracts/classroom/main/Canvassing_flattened.sol:Canvassing",
						"label": "canvassingWalletAddress",
						"offset": 0,
						"slot": "0",
						"type": "t_address"
					},
					{
						"astId": 252,
						"contract": "smart-contracts/classroom/main/Canvassing_flattened.sol:Canvassing",
						"label": "allResearchers",
						"offset": 0,
						"slot": "1",
						"type": "t_mapping(t_address,t_struct(Researcher)16_storage)"
					},
					{
						"astId": 257,
						"contract": "smart-contracts/classroom/main/Canvassing_flattened.sol:Canvassing",
						"label": "allParticipants",
						"offset": 0,
						"slot": "2",
						"type": "t_mapping(t_address,t_struct(Participant)33_storage)"
					},
					{
						"astId": 261,
						"contract": "smart-contracts/classroom/main/Canvassing_flattened.sol:Canvassing",
						"label": "allSurveys",
						"offset": 0,
						"slot": "3",
						"type": "t_array(t_struct(Survey)48_storage)dyn_storage"
					},
					{
						"astId": 267,
						"contract": "smart-contracts/classroom/main/Canvassing_flattened.sol:Canvassing",
						"label": "allQuestions",
						"offset": 0,
						"slot": "4",
						"type": "t_mapping(t_uint256,t_array(t_struct(Question)57_storage)dyn_storage)"
					},
					{
						"astId": 273,
						"contract": "smart-contracts/classroom/main/Canvassing_flattened.sol:Canvassing",
						"label": "allAnswers",
						"offset": 0,
						"slot": "5",
						"type": "t_mapping(t_uint256,t_array(t_struct(Answer)70_storage)dyn_storage)"
					},
					{
						"astId": 279,
						"contract": "smart-contracts/classroom/main/Canvassing_flattened.sol:Canvassing",
						"label": "participationStatusForSurvey",
						"offset": 0,
						"slot": "6",
						"type": "t_mapping(t_uint256,t_mapping(t_address,t_bool))"
					},
					{
						"astId": 285,
						"contract": "smart-contracts/classroom/main/Canvassing_flattened.sol:Canvassing",
						"label": "payoutStatusOfParticipantForSurvey",
						"offset": 0,
						"slot": "7",
						"type": "t_mapping(t_uint256,t_mapping(t_address,t_bool))"
					},
					{
						"astId": 289,
						"contract": "smart-contracts/classroom/main/Canvassing_flattened.sol:Canvassing",
						"label": "totalNumberOfSurveysCreatedByResearchers",
						"offset": 0,
						"slot": "8",
						"type": "t_mapping(t_address,t_uint256)"
					},
					{
						"astId": 293,
						"contract": "smart-contracts/classroom/main/Canvassing_flattened.sol:Canvassing",
						"label": "totalAmountFundedByResearchersInWei",
						"offset": 0,
						"slot": "9",
						"type": "t_mapping(t_address,t_uint256)"
					},
					{
						"astId": 297,
						"contract": "smart-contracts/classroom/main/Canvassing_flattened.sol:Canvassing",
						"label": "idsOfLatestSurveysCreatedByResearchers",
						"offset": 0,
						"slot": "10",
						"type": "t_mapping(t_address,t_uint256)"
					},
					{
						"astId": 303,
						"contract": "smart-contracts/classroom/main/Canvassing_flattened.sol:Canvassing",
						"label": "participantsOfSurvey",
						"offset": 0,
						"slot": "11",
						"type": "t_mapping(t_uint256,t_array(t_struct(Participant)33_storage)dyn_storage)"
					},
					{
						"astId": 307,
						"contract": "smart-contracts/classroom/main/Canvassing_flattened.sol:Canvassing",
						"label": "allFundings",
						"offset": 0,
						"slot": "12",
						"type": "t_array(t_struct(Funding)92_storage)dyn_storage"
					},
					{
						"astId": 311,
						"contract": "smart-contracts/classroom/main/Canvassing_flattened.sol:Canvassing",
						"label": "allEarnings",
						"offset": 0,
						"slot": "13",
						"type": "t_array(t_struct(Earning)81_storage)dyn_storage"
					},
					{
						"astId": 313,
						"contract": "smart-contracts/classroom/main/Canvassing_flattened.sol:Canvassing",
						"label": "currentResearcherId",
						"offset": 0,
						"slot": "14",
						"type": "t_uint256"
					},
					{
						"astId": 315,
						"contract": "smart-contracts/classroom/main/Canvassing_flattened.sol:Canvassing",
						"label": "currentParticipantId",
						"offset": 0,
						"slot": "15",
						"type": "t_uint256"
					},
					{
						"astId": 317,
						"contract": "smart-contracts/classroom/main/Canvassing_flattened.sol:Canvassing",
						"label": "currentSurveyId",
						"offset": 0,
						"slot": "16",
						"type": "t_uint256"
					},
					{
						"astId": 319,
						"contract": "smart-contracts/classroom/main/Canvassing_flattened.sol:Canvassing",
						"label": "currentQuestionId",
						"offset": 0,
						"slot": "17",
						"type": "t_uint256"
					},
					{
						"astId": 321,
						"contract": "smart-contracts/classroom/main/Canvassing_flattened.sol:Canvassing",
						"label": "currentAnswerId",
						"offset": 0,
						"slot": "18",
						"type": "t_uint256"
					},
					{
						"astId": 323,
						"contract": "smart-contracts/classroom/main/Canvassing_flattened.sol:Canvassing",
						"label": "currentEarningId",
						"offset": 0,
						"slot": "19",
						"type": "t_uint256"
					},
					{
						"astId": 325,
						"contract": "smart-contracts/classroom/main/Canvassing_flattened.sol:Canvassing",
						"label": "currentFundingId",
						"offset": 0,
						"slot": "20",
						"type": "t_uint256"
					},
					{
						"astId": 331,
						"contract": "smart-contracts/classroom/main/Canvassing_flattened.sol:Canvassing",
						"label": "cUSD",
						"offset": 0,
						"slot": "21",
						"type": "t_contract(ERC20)243"
					},
					{
						"astId": 339,
						"contract": "smart-contracts/classroom/main/Canvassing_flattened.sol:Canvassing",
						"label": "cUSDDecimalPlaces",
						"offset": 0,
						"slot": "22",
						"type": "t_uint256"
					}
				],
				"types": {
					"t_address": {
						"encoding": "inplace",
						"label": "address",
						"numberOfBytes": "20"
					},
					"t_array(t_struct(Answer)70_storage)dyn_storage": {
						"base": "t_struct(Answer)70_storage",
						"encoding": "dynamic_array",
						"label": "struct Answer[]",
						"numberOfBytes": "32"
					},
					"t_array(t_struct(Earning)81_storage)dyn_storage": {
						"base": "t_struct(Earning)81_storage",
						"encoding": "dynamic_array",
						"label": "struct Earning[]",
						"numberOfBytes": "32"
					},
					"t_array(t_struct(Funding)92_storage)dyn_storage": {
						"base": "t_struct(Funding)92_storage",
						"encoding": "dynamic_array",
						"label": "struct Funding[]",
						"numberOfBytes": "32"
					},
					"t_array(t_struct(Participant)33_storage)dyn_storage": {
						"base": "t_struct(Participant)33_storage",
						"encoding": "dynamic_array",
						"label": "struct Participant[]",
						"numberOfBytes": "32"
					},
					"t_array(t_struct(Question)57_storage)dyn_storage": {
						"base": "t_struct(Question)57_storage",
						"encoding": "dynamic_array",
						"label": "struct Question[]",
						"numberOfBytes": "32"
					},
					"t_array(t_struct(Survey)48_storage)dyn_storage": {
						"base": "t_struct(Survey)48_storage",
						"encoding": "dynamic_array",
						"label": "struct Survey[]",
						"numberOfBytes": "32"
					},
					"t_bool": {
						"encoding": "inplace",
						"label": "bool",
						"numberOfBytes": "1"
					},
					"t_contract(ERC20)243": {
						"encoding": "inplace",
						"label": "contract ERC20",
						"numberOfBytes": "20"
					},
					"t_mapping(t_address,t_bool)": {
						"encoding": "mapping",
						"key": "t_address",
						"label": "mapping(address => bool)",
						"numberOfBytes": "32",
						"value": "t_bool"
					},
					"t_mapping(t_address,t_struct(Participant)33_storage)": {
						"encoding": "mapping",
						"key": "t_address",
						"label": "mapping(address => struct Participant)",
						"numberOfBytes": "32",
						"value": "t_struct(Participant)33_storage"
					},
					"t_mapping(t_address,t_struct(Researcher)16_storage)": {
						"encoding": "mapping",
						"key": "t_address",
						"label": "mapping(address => struct Researcher)",
						"numberOfBytes": "32",
						"value": "t_struct(Researcher)16_storage"
					},
					"t_mapping(t_address,t_uint256)": {
						"encoding": "mapping",
						"key": "t_address",
						"label": "mapping(address => uint256)",
						"numberOfBytes": "32",
						"value": "t_uint256"
					},
					"t_mapping(t_uint256,t_array(t_struct(Answer)70_storage)dyn_storage)": {
						"encoding": "mapping",
						"key": "t_uint256",
						"label": "mapping(uint256 => struct Answer[])",
						"numberOfBytes": "32",
						"value": "t_array(t_struct(Answer)70_storage)dyn_storage"
					},
					"t_mapping(t_uint256,t_array(t_struct(Participant)33_storage)dyn_storage)": {
						"encoding": "mapping",
						"key": "t_uint256",
						"label": "mapping(uint256 => struct Participant[])",
						"numberOfBytes": "32",
						"value": "t_array(t_struct(Participant)33_storage)dyn_storage"
					},
					"t_mapping(t_uint256,t_array(t_struct(Question)57_storage)dyn_storage)": {
						"encoding": "mapping",
						"key": "t_uint256",
						"label": "mapping(uint256 => struct Question[])",
						"numberOfBytes": "32",
						"value": "t_array(t_struct(Question)57_storage)dyn_storage"
					},
					"t_mapping(t_uint256,t_mapping(t_address,t_bool))": {
						"encoding": "mapping",
						"key": "t_uint256",
						"label": "mapping(uint256 => mapping(address => bool))",
						"numberOfBytes": "32",
						"value": "t_mapping(t_address,t_bool)"
					},
					"t_string_storage": {
						"encoding": "bytes",
						"label": "string",
						"numberOfBytes": "32"
					},
					"t_struct(Answer)70_storage": {
						"encoding": "inplace",
						"label": "struct Answer",
						"members": [
							{
								"astId": 59,
								"contract": "smart-contracts/classroom/main/Canvassing_flattened.sol:Canvassing",
								"label": "id",
								"offset": 0,
								"slot": "0",
								"type": "t_uint256"
							},
							{
								"astId": 61,
								"contract": "smart-contracts/classroom/main/Canvassing_flattened.sol:Canvassing",
								"label": "questionId",
								"offset": 0,
								"slot": "1",
								"type": "t_uint256"
							},
							{
								"astId": 63,
								"contract": "smart-contracts/classroom/main/Canvassing_flattened.sol:Canvassing",
								"label": "surveyId",
								"offset": 0,
								"slot": "2",
								"type": "t_uint256"
							},
							{
								"astId": 65,
								"contract": "smart-contracts/classroom/main/Canvassing_flattened.sol:Canvassing",
								"label": "participantWalletAddress",
								"offset": 0,
								"slot": "3",
								"type": "t_address"
							},
							{
								"astId": 67,
								"contract": "smart-contracts/classroom/main/Canvassing_flattened.sol:Canvassing",
								"label": "value",
								"offset": 20,
								"slot": "3",
								"type": "t_bool"
							},
							{
								"astId": 69,
								"contract": "smart-contracts/classroom/main/Canvassing_flattened.sol:Canvassing",
								"label": "isBlank",
								"offset": 21,
								"slot": "3",
								"type": "t_bool"
							}
						],
						"numberOfBytes": "128"
					},
					"t_struct(Earning)81_storage": {
						"encoding": "inplace",
						"label": "struct Earning",
						"members": [
							{
								"astId": 72,
								"contract": "smart-contracts/classroom/main/Canvassing_flattened.sol:Canvassing",
								"label": "id",
								"offset": 0,
								"slot": "0",
								"type": "t_uint256"
							},
							{
								"astId": 74,
								"contract": "smart-contracts/classroom/main/Canvassing_flattened.sol:Canvassing",
								"label": "surveyId",
								"offset": 0,
								"slot": "1",
								"type": "t_uint256"
							},
							{
								"astId": 76,
								"contract": "smart-contracts/classroom/main/Canvassing_flattened.sol:Canvassing",
								"label": "recipientWalletAddress",
								"offset": 0,
								"slot": "2",
								"type": "t_address"
							},
							{
								"astId": 78,
								"contract": "smart-contracts/classroom/main/Canvassing_flattened.sol:Canvassing",
								"label": "amountPaidOutInWei",
								"offset": 0,
								"slot": "3",
								"type": "t_uint256"
							},
							{
								"astId": 80,
								"contract": "smart-contracts/classroom/main/Canvassing_flattened.sol:Canvassing",
								"label": "isBlank",
								"offset": 0,
								"slot": "4",
								"type": "t_bool"
							}
						],
						"numberOfBytes": "160"
					},
					"t_struct(Funding)92_storage": {
						"encoding": "inplace",
						"label": "struct Funding",
						"members": [
							{
								"astId": 83,
								"contract": "smart-contracts/classroom/main/Canvassing_flattened.sol:Canvassing",
								"label": "id",
								"offset": 0,
								"slot": "0",
								"type": "t_uint256"
							},
							{
								"astId": 85,
								"contract": "smart-contracts/classroom/main/Canvassing_flattened.sol:Canvassing",
								"label": "surveyId",
								"offset": 0,
								"slot": "1",
								"type": "t_uint256"
							},
							{
								"astId": 87,
								"contract": "smart-contracts/classroom/main/Canvassing_flattened.sol:Canvassing",
								"label": "creatingResearcherWalletAddress",
								"offset": 0,
								"slot": "2",
								"type": "t_address"
							},
							{
								"astId": 89,
								"contract": "smart-contracts/classroom/main/Canvassing_flattened.sol:Canvassing",
								"label": "amountFundedInWei",
								"offset": 0,
								"slot": "3",
								"type": "t_uint256"
							},
							{
								"astId": 91,
								"contract": "smart-contracts/classroom/main/Canvassing_flattened.sol:Canvassing",
								"label": "isBlank",
								"offset": 0,
								"slot": "4",
								"type": "t_bool"
							}
						],
						"numberOfBytes": "160"
					},
					"t_struct(Participant)33_storage": {
						"encoding": "inplace",
						"label": "struct Participant",
						"members": [
							{
								"astId": 18,
								"contract": "smart-contracts/classroom/main/Canvassing_flattened.sol:Canvassing",
								"label": "id",
								"offset": 0,
								"slot": "0",
								"type": "t_uint256"
							},
							{
								"astId": 20,
								"contract": "smart-contracts/classroom/main/Canvassing_flattened.sol:Canvassing",
								"label": "walletAddress",
								"offset": 0,
								"slot": "1",
								"type": "t_address"
							},
							{
								"astId": 22,
								"contract": "smart-contracts/classroom/main/Canvassing_flattened.sol:Canvassing",
								"label": "gender",
								"offset": 0,
								"slot": "2",
								"type": "t_string_storage"
							},
							{
								"astId": 24,
								"contract": "smart-contracts/classroom/main/Canvassing_flattened.sol:Canvassing",
								"label": "country",
								"offset": 0,
								"slot": "3",
								"type": "t_string_storage"
							},
							{
								"astId": 26,
								"contract": "smart-contracts/classroom/main/Canvassing_flattened.sol:Canvassing",
								"label": "yearOfBirth",
								"offset": 0,
								"slot": "4",
								"type": "t_uint256"
							},
							{
								"astId": 28,
								"contract": "smart-contracts/classroom/main/Canvassing_flattened.sol:Canvassing",
								"label": "totalNumberOfSurveysTaken",
								"offset": 0,
								"slot": "5",
								"type": "t_uint256"
							},
							{
								"astId": 30,
								"contract": "smart-contracts/classroom/main/Canvassing_flattened.sol:Canvassing",
								"label": "isResearcher",
								"offset": 0,
								"slot": "6",
								"type": "t_bool"
							},
							{
								"astId": 32,
								"contract": "smart-contracts/classroom/main/Canvassing_flattened.sol:Canvassing",
								"label": "isBlank",
								"offset": 1,
								"slot": "6",
								"type": "t_bool"
							}
						],
						"numberOfBytes": "224"
					},
					"t_struct(Question)57_storage": {
						"encoding": "inplace",
						"label": "struct Question",
						"members": [
							{
								"astId": 50,
								"contract": "smart-contracts/classroom/main/Canvassing_flattened.sol:Canvassing",
								"label": "id",
								"offset": 0,
								"slot": "0",
								"type": "t_uint256"
							},
							{
								"astId": 52,
								"contract": "smart-contracts/classroom/main/Canvassing_flattened.sol:Canvassing",
								"label": "surveyId",
								"offset": 0,
								"slot": "1",
								"type": "t_uint256"
							},
							{
								"astId": 54,
								"contract": "smart-contracts/classroom/main/Canvassing_flattened.sol:Canvassing",
								"label": "sentence",
								"offset": 0,
								"slot": "2",
								"type": "t_string_storage"
							},
							{
								"astId": 56,
								"contract": "smart-contracts/classroom/main/Canvassing_flattened.sol:Canvassing",
								"label": "isBlank",
								"offset": 0,
								"slot": "3",
								"type": "t_bool"
							}
						],
						"numberOfBytes": "128"
					},
					"t_struct(Researcher)16_storage": {
						"encoding": "inplace",
						"label": "struct Researcher",
						"members": [
							{
								"astId": 3,
								"contract": "smart-contracts/classroom/main/Canvassing_flattened.sol:Canvassing",
								"label": "id",
								"offset": 0,
								"slot": "0",
								"type": "t_uint256"
							},
							{
								"astId": 5,
								"contract": "smart-contracts/classroom/main/Canvassing_flattened.sol:Canvassing",
								"label": "walletAddress",
								"offset": 0,
								"slot": "1",
								"type": "t_address"
							},
							{
								"astId": 7,
								"contract": "smart-contracts/classroom/main/Canvassing_flattened.sol:Canvassing",
								"label": "industry",
								"offset": 0,
								"slot": "2",
								"type": "t_string_storage"
							},
							{
								"astId": 9,
								"contract": "smart-contracts/classroom/main/Canvassing_flattened.sol:Canvassing",
								"label": "yearOfIncorporation",
								"offset": 0,
								"slot": "3",
								"type": "t_uint256"
							},
							{
								"astId": 11,
								"contract": "smart-contracts/classroom/main/Canvassing_flattened.sol:Canvassing",
								"label": "isParticipant",
								"offset": 0,
								"slot": "4",
								"type": "t_bool"
							},
							{
								"astId": 13,
								"contract": "smart-contracts/classroom/main/Canvassing_flattened.sol:Canvassing",
								"label": "isVerified",
								"offset": 1,
								"slot": "4",
								"type": "t_bool"
							},
							{
								"astId": 15,
								"contract": "smart-contracts/classroom/main/Canvassing_flattened.sol:Canvassing",
								"label": "isBlank",
								"offset": 2,
								"slot": "4",
								"type": "t_bool"
							}
						],
						"numberOfBytes": "160"
					},
					"t_struct(Survey)48_storage": {
						"encoding": "inplace",
						"label": "struct Survey",
						"members": [
							{
								"astId": 35,
								"contract": "smart-contracts/classroom/main/Canvassing_flattened.sol:Canvassing",
								"label": "id",
								"offset": 0,
								"slot": "0",
								"type": "t_uint256"
							},
							{
								"astId": 37,
								"contract": "smart-contracts/classroom/main/Canvassing_flattened.sol:Canvassing",
								"label": "creatingResearcherWalletAddress",
								"offset": 0,
								"slot": "1",
								"type": "t_address"
							},
							{
								"astId": 39,
								"contract": "smart-contracts/classroom/main/Canvassing_flattened.sol:Canvassing",
								"label": "topic",
								"offset": 0,
								"slot": "2",
								"type": "t_string_storage"
							},
							{
								"astId": 41,
								"contract": "smart-contracts/classroom/main/Canvassing_flattened.sol:Canvassing",
								"label": "numberOfQuestions",
								"offset": 0,
								"slot": "3",
								"type": "t_uint256"
							},
							{
								"astId": 43,
								"contract": "smart-contracts/classroom/main/Canvassing_flattened.sol:Canvassing",
								"label": "targetNumberOfParticipants",
								"offset": 0,
								"slot": "4",
								"type": "t_uint256"
							},
							{
								"astId": 45,
								"contract": "smart-contracts/classroom/main/Canvassing_flattened.sol:Canvassing",
								"label": "amountFundedInWei",
								"offset": 0,
								"slot": "5",
								"type": "t_uint256"
							},
							{
								"astId": 47,
								"contract": "smart-contracts/classroom/main/Canvassing_flattened.sol:Canvassing",
								"label": "isBlank",
								"offset": 0,
								"slot": "6",
								"type": "t_bool"
							}
						],
						"numberOfBytes": "224"
					},
					"t_uint256": {
						"encoding": "inplace",
						"label": "uint256",
						"numberOfBytes": "32"
					}
				}
			},
			"userdoc": {
				"kind": "user",
				"methods": {},
				"version": 1
			}
		}
	}
}