{
	"smart-contracts/classroom/main/Canvassing.sol": {
		"Canvassing": {
			"abi": [
				{
					"inputs": [
						{
							"internalType": "uint256",
							"name": "",
							"type": "uint256"
						},
						{
							"internalType": "uint256",
							"name": "",
							"type": "uint256"
						}
					],
					"name": "allAnswers",
					"outputs": [
						{
							"internalType": "uint256",
							"name": "id",
							"type": "uint256"
						},
						{
							"internalType": "uint256",
							"name": "questionId",
							"type": "uint256"
						},
						{
							"internalType": "uint256",
							"name": "surveyId",
							"type": "uint256"
						},
						{
							"internalType": "address",
							"name": "participantWalletAddress",
							"type": "address"
						},
						{
							"internalType": "bool",
							"name": "value",
							"type": "bool"
						},
						{
							"internalType": "bool",
							"name": "isBlank",
							"type": "bool"
						}
					],
					"stateMutability": "view",
					"type": "function"
				},
				{
					"inputs": [
						{
							"internalType": "uint256",
							"name": "",
							"type": "uint256"
						}
					],
					"name": "allEarnings",
					"outputs": [
						{
							"internalType": "uint256",
							"name": "id",
							"type": "uint256"
						},
						{
							"internalType": "uint256",
							"name": "surveyId",
							"type": "uint256"
						},
						{
							"internalType": "address",
							"name": "recipientWalletAddress",
							"type": "address"
						},
						{
							"internalType": "uint256",
							"name": "amountPaidOutInWei",
							"type": "uint256"
						},
						{
							"internalType": "bool",
							"name": "isBlank",
							"type": "bool"
						}
					],
					"stateMutability": "view",
					"type": "function"
				},
				{
					"inputs": [
						{
							"internalType": "uint256",
							"name": "",
							"type": "uint256"
						}
					],
					"name": "allFundings",
					"outputs": [
						{
							"internalType": "uint256",
							"name": "id",
							"type": "uint256"
						},
						{
							"internalType": "uint256",
							"name": "surveyId",
							"type": "uint256"
						},
						{
							"internalType": "address",
							"name": "creatingResearcherWalletAddress",
							"type": "address"
						},
						{
							"internalType": "uint256",
							"name": "amountFundedInWei",
							"type": "uint256"
						},
						{
							"internalType": "bool",
							"name": "isBlank",
							"type": "bool"
						}
					],
					"stateMutability": "view",
					"type": "function"
				},
				{
					"inputs": [
						{
							"internalType": "address",
							"name": "",
							"type": "address"
						}
					],
					"name": "allParticipants",
					"outputs": [
						{
							"internalType": "uint256",
							"name": "id",
							"type": "uint256"
						},
						{
							"internalType": "address",
							"name": "walletAddress",
							"type": "address"
						},
						{
							"internalType": "string",
							"name": "gender",
							"type": "string"
						},
						{
							"internalType": "string",
							"name": "country",
							"type": "string"
						},
						{
							"internalType": "uint256",
							"name": "yearOfBirth",
							"type": "uint256"
						},
						{
							"internalType": "uint256",
							"name": "totalNumberOfSurveysTaken",
							"type": "uint256"
						},
						{
							"internalType": "bool",
							"name": "isResearcher",
							"type": "bool"
						},
						{
							"internalType": "bool",
							"name": "isBlank",
							"type": "bool"
						}
					],
					"stateMutability": "view",
					"type": "function"
				},
				{
					"inputs": [
						{
							"internalType": "uint256",
							"name": "",
							"type": "uint256"
						},
						{
							"internalType": "uint256",
							"name": "",
							"type": "uint256"
						}
					],
					"name": "allQuestions",
					"outputs": [
						{
							"internalType": "uint256",
							"name": "id",
							"type": "uint256"
						},
						{
							"internalType": "uint256",
							"name": "surveyId",
							"type": "uint256"
						},
						{
							"internalType": "string",
							"name": "sentence",
							"type": "string"
						},
						{
							"internalType": "bool",
							"name": "isBlank",
							"type": "bool"
						}
					],
					"stateMutability": "view",
					"type": "function"
				},
				{
					"inputs": [
						{
							"internalType": "address",
							"name": "",
							"type": "address"
						}
					],
					"name": "allResearchers",
					"outputs": [
						{
							"internalType": "uint256",
							"name": "id",
							"type": "uint256"
						},
						{
							"internalType": "address",
							"name": "walletAddress",
							"type": "address"
						},
						{
							"internalType": "string",
							"name": "industry",
							"type": "string"
						},
						{
							"internalType": "string",
							"name": "numberOfEmployees",
							"type": "string"
						},
						{
							"internalType": "string",
							"name": "yearsInOperation",
							"type": "string"
						},
						{
							"internalType": "bool",
							"name": "isParticipant",
							"type": "bool"
						},
						{
							"internalType": "bool",
							"name": "isVerified",
							"type": "bool"
						},
						{
							"internalType": "bool",
							"name": "isBlank",
							"type": "bool"
						}
					],
					"stateMutability": "view",
					"type": "function"
				},
				{
					"inputs": [
						{
							"internalType": "uint256",
							"name": "",
							"type": "uint256"
						}
					],
					"name": "allSurveys",
					"outputs": [
						{
							"internalType": "uint256",
							"name": "id",
							"type": "uint256"
						},
						{
							"internalType": "address",
							"name": "creatingResearcherWalletAddress",
							"type": "address"
						},
						{
							"internalType": "string",
							"name": "topic",
							"type": "string"
						},
						{
							"internalType": "uint256",
							"name": "numberOfQuestions",
							"type": "uint256"
						},
						{
							"internalType": "uint256",
							"name": "targetNumberOfParticipants",
							"type": "uint256"
						},
						{
							"internalType": "uint256",
							"name": "amountFundedInWei",
							"type": "uint256"
						},
						{
							"internalType": "bool",
							"name": "isBlank",
							"type": "bool"
						}
					],
					"stateMutability": "view",
					"type": "function"
				},
				{
					"inputs": [
						{
							"internalType": "address",
							"name": "_walletAddress",
							"type": "address"
						}
					],
					"name": "checkIfParticipantExists",
					"outputs": [
						{
							"internalType": "bool",
							"name": "",
							"type": "bool"
						}
					],
					"stateMutability": "view",
					"type": "function"
				},
				{
					"inputs": [
						{
							"internalType": "address",
							"name": "_participantWalletAddress",
							"type": "address"
						},
						{
							"internalType": "uint256",
							"name": "_surveyId",
							"type": "uint256"
						}
					],
					"name": "checkIfParticipantHasAlreadyParticipatedInSurvey",
					"outputs": [
						{
							"internalType": "bool",
							"name": "",
							"type": "bool"
						}
					],
					"stateMutability": "view",
					"type": "function"
				},
				{
					"inputs": [
						{
							"internalType": "address",
							"name": "_walletAddress",
							"type": "address"
						}
					],
					"name": "checkIfResearcherExists",
					"outputs": [
						{
							"internalType": "bool",
							"name": "",
							"type": "bool"
						}
					],
					"stateMutability": "view",
					"type": "function"
				},
				{
					"inputs": [
						{
							"internalType": "uint256",
							"name": "_numberOfQuestions",
							"type": "uint256"
						},
						{
							"internalType": "uint256",
							"name": "_targetNumberOfParticipants",
							"type": "uint256"
						},
						{
							"internalType": "uint256",
							"name": "_surveyId",
							"type": "uint256"
						},
						{
							"internalType": "address",
							"name": "_researcherWalletAddress",
							"type": "address"
						}
					],
					"name": "createFunding",
					"outputs": [],
					"stateMutability": "nonpayable",
					"type": "function"
				},
				{
					"inputs": [
						{
							"internalType": "address",
							"name": "_walletAddress",
							"type": "address"
						},
						{
							"internalType": "string",
							"name": "_gender",
							"type": "string"
						},
						{
							"internalType": "string",
							"name": "_country",
							"type": "string"
						},
						{
							"internalType": "uint256",
							"name": "_yearOfBirth",
							"type": "uint256"
						}
					],
					"name": "createParticipant",
					"outputs": [],
					"stateMutability": "nonpayable",
					"type": "function"
				},
				{
					"inputs": [
						{
							"internalType": "address",
							"name": "_walletAddress",
							"type": "address"
						},
						{
							"internalType": "string",
							"name": "_industry",
							"type": "string"
						},
						{
							"internalType": "string",
							"name": "_numberOfEmployees",
							"type": "string"
						},
						{
							"internalType": "string",
							"name": "_yearsInOperation",
							"type": "string"
						}
					],
					"name": "createResearcher",
					"outputs": [],
					"stateMutability": "nonpayable",
					"type": "function"
				},
				{
					"inputs": [
						{
							"internalType": "address",
							"name": "_researcherWalletAddress",
							"type": "address"
						},
						{
							"internalType": "string",
							"name": "_topic",
							"type": "string"
						},
						{
							"internalType": "uint256",
							"name": "_numberOfQuestions",
							"type": "uint256"
						},
						{
							"internalType": "uint256",
							"name": "_targetNumberOfParticipants",
							"type": "uint256"
						},
						{
							"internalType": "string[]",
							"name": "_questionSentences",
							"type": "string[]"
						},
						{
							"internalType": "uint256",
							"name": "_amountFundedForSurvey",
							"type": "uint256"
						}
					],
					"name": "createSurvey",
					"outputs": [
						{
							"internalType": "uint256",
							"name": "",
							"type": "uint256"
						}
					],
					"stateMutability": "nonpayable",
					"type": "function"
				},
				{
					"inputs": [
						{
							"internalType": "uint256",
							"name": "_surveyId",
							"type": "uint256"
						},
						{
							"internalType": "address",
							"name": "_participantWalletAddress",
							"type": "address"
						}
					],
					"name": "getAllAnswersOfParticipantOfSurvey",
					"outputs": [
						{
							"components": [
								{
									"internalType": "uint256",
									"name": "id",
									"type": "uint256"
								},
								{
									"internalType": "uint256",
									"name": "questionId",
									"type": "uint256"
								},
								{
									"internalType": "uint256",
									"name": "surveyId",
									"type": "uint256"
								},
								{
									"internalType": "address",
									"name": "participantWalletAddress",
									"type": "address"
								},
								{
									"internalType": "bool",
									"name": "value",
									"type": "bool"
								},
								{
									"internalType": "bool",
									"name": "isBlank",
									"type": "bool"
								}
							],
							"internalType": "struct Answer[]",
							"name": "",
							"type": "tuple[]"
						}
					],
					"stateMutability": "view",
					"type": "function"
				},
				{
					"inputs": [
						{
							"internalType": "address",
							"name": "_walletAddress",
							"type": "address"
						}
					],
					"name": "getAllEarningsMadeByParticipant",
					"outputs": [
						{
							"components": [
								{
									"internalType": "uint256",
									"name": "id",
									"type": "uint256"
								},
								{
									"internalType": "uint256",
									"name": "surveyId",
									"type": "uint256"
								},
								{
									"internalType": "address",
									"name": "recipientWalletAddress",
									"type": "address"
								},
								{
									"internalType": "uint256",
									"name": "amountPaidOutInWei",
									"type": "uint256"
								},
								{
									"internalType": "bool",
									"name": "isBlank",
									"type": "bool"
								}
							],
							"internalType": "struct Earning[]",
							"name": "",
							"type": "tuple[]"
						}
					],
					"stateMutability": "view",
					"type": "function"
				},
				{
					"inputs": [
						{
							"internalType": "uint256",
							"name": "_surveyId",
							"type": "uint256"
						}
					],
					"name": "getAllQuestionsOfSurvey",
					"outputs": [
						{
							"components": [
								{
									"internalType": "uint256",
									"name": "id",
									"type": "uint256"
								},
								{
									"internalType": "uint256",
									"name": "surveyId",
									"type": "uint256"
								},
								{
									"internalType": "string",
									"name": "sentence",
									"type": "string"
								},
								{
									"internalType": "bool",
									"name": "isBlank",
									"type": "bool"
								}
							],
							"internalType": "struct Question[]",
							"name": "",
							"type": "tuple[]"
						}
					],
					"stateMutability": "view",
					"type": "function"
				},
				{
					"inputs": [],
					"name": "getAllSurveys",
					"outputs": [
						{
							"components": [
								{
									"internalType": "uint256",
									"name": "id",
									"type": "uint256"
								},
								{
									"internalType": "address",
									"name": "creatingResearcherWalletAddress",
									"type": "address"
								},
								{
									"internalType": "string",
									"name": "topic",
									"type": "string"
								},
								{
									"internalType": "uint256",
									"name": "numberOfQuestions",
									"type": "uint256"
								},
								{
									"internalType": "uint256",
									"name": "targetNumberOfParticipants",
									"type": "uint256"
								},
								{
									"internalType": "uint256",
									"name": "amountFundedInWei",
									"type": "uint256"
								},
								{
									"internalType": "bool",
									"name": "isBlank",
									"type": "bool"
								}
							],
							"internalType": "struct Survey[]",
							"name": "",
							"type": "tuple[]"
						}
					],
					"stateMutability": "view",
					"type": "function"
				},
				{
					"inputs": [
						{
							"internalType": "address",
							"name": "_walletAddress",
							"type": "address"
						}
					],
					"name": "getAllSurveysTakenByParticipant",
					"outputs": [
						{
							"components": [
								{
									"internalType": "uint256",
									"name": "id",
									"type": "uint256"
								},
								{
									"internalType": "address",
									"name": "creatingResearcherWalletAddress",
									"type": "address"
								},
								{
									"internalType": "string",
									"name": "topic",
									"type": "string"
								},
								{
									"internalType": "uint256",
									"name": "numberOfQuestions",
									"type": "uint256"
								},
								{
									"internalType": "uint256",
									"name": "targetNumberOfParticipants",
									"type": "uint256"
								},
								{
									"internalType": "uint256",
									"name": "amountFundedInWei",
									"type": "uint256"
								},
								{
									"internalType": "bool",
									"name": "isBlank",
									"type": "bool"
								}
							],
							"internalType": "struct Survey[]",
							"name": "",
							"type": "tuple[]"
						}
					],
					"stateMutability": "view",
					"type": "function"
				},
				{
					"inputs": [
						{
							"internalType": "uint256",
							"name": "_surveyId",
							"type": "uint256"
						},
						{
							"internalType": "uint256",
							"name": "_numberOfParticipants",
							"type": "uint256"
						}
					],
					"name": "getAmountOfEarningForCanvassingForSurveyPerParticipantInWei",
					"outputs": [
						{
							"internalType": "uint256",
							"name": "",
							"type": "uint256"
						}
					],
					"stateMutability": "view",
					"type": "function"
				},
				{
					"inputs": [
						{
							"internalType": "uint256",
							"name": "_surveyId",
							"type": "uint256"
						}
					],
					"name": "getAmountOfEarningPerParticipantForSurveyInWei",
					"outputs": [
						{
							"internalType": "uint256",
							"name": "",
							"type": "uint256"
						}
					],
					"stateMutability": "view",
					"type": "function"
				},
				{
					"inputs": [
						{
							"internalType": "uint256",
							"name": "_numberOfQuestions",
							"type": "uint256"
						},
						{
							"internalType": "uint256",
							"name": "_targetNumberOfParticipants",
							"type": "uint256"
						}
					],
					"name": "getAmountOfFundingOfAnySurveyInWei",
					"outputs": [
						{
							"internalType": "uint256",
							"name": "",
							"type": "uint256"
						}
					],
					"stateMutability": "view",
					"type": "function"
				},
				{
					"inputs": [
						{
							"internalType": "uint256",
							"name": "_surveyId",
							"type": "uint256"
						}
					],
					"name": "getAnswersOfSurvey",
					"outputs": [
						{
							"components": [
								{
									"internalType": "uint256",
									"name": "id",
									"type": "uint256"
								},
								{
									"internalType": "uint256",
									"name": "questionId",
									"type": "uint256"
								},
								{
									"internalType": "uint256",
									"name": "surveyId",
									"type": "uint256"
								},
								{
									"internalType": "address",
									"name": "participantWalletAddress",
									"type": "address"
								},
								{
									"internalType": "bool",
									"name": "value",
									"type": "bool"
								},
								{
									"internalType": "bool",
									"name": "isBlank",
									"type": "bool"
								}
							],
							"internalType": "struct Answer[]",
							"name": "",
							"type": "tuple[]"
						}
					],
					"stateMutability": "view",
					"type": "function"
				},
				{
					"inputs": [
						{
							"internalType": "address",
							"name": "_creatingResearcherWalletAddress",
							"type": "address"
						}
					],
					"name": "getIdsOfLatestSurveysCreatedByResearchers",
					"outputs": [
						{
							"internalType": "uint256",
							"name": "",
							"type": "uint256"
						}
					],
					"stateMutability": "view",
					"type": "function"
				},
				{
					"inputs": [
						{
							"internalType": "address",
							"name": "_walletAddress",
							"type": "address"
						}
					],
					"name": "getParticipantByWalletAddress",
					"outputs": [
						{
							"components": [
								{
									"internalType": "uint256",
									"name": "id",
									"type": "uint256"
								},
								{
									"internalType": "address",
									"name": "walletAddress",
									"type": "address"
								},
								{
									"internalType": "string",
									"name": "gender",
									"type": "string"
								},
								{
									"internalType": "string",
									"name": "country",
									"type": "string"
								},
								{
									"internalType": "uint256",
									"name": "yearOfBirth",
									"type": "uint256"
								},
								{
									"internalType": "uint256",
									"name": "totalNumberOfSurveysTaken",
									"type": "uint256"
								},
								{
									"internalType": "bool",
									"name": "isResearcher",
									"type": "bool"
								},
								{
									"internalType": "bool",
									"name": "isBlank",
									"type": "bool"
								}
							],
							"internalType": "struct Participant",
							"name": "",
							"type": "tuple"
						}
					],
					"stateMutability": "view",
					"type": "function"
				},
				{
					"inputs": [
						{
							"internalType": "uint256",
							"name": "_surveyId",
							"type": "uint256"
						}
					],
					"name": "getParticipantsOfSurvey",
					"outputs": [
						{
							"components": [
								{
									"internalType": "uint256",
									"name": "id",
									"type": "uint256"
								},
								{
									"internalType": "address",
									"name": "walletAddress",
									"type": "address"
								},
								{
									"internalType": "string",
									"name": "gender",
									"type": "string"
								},
								{
									"internalType": "string",
									"name": "country",
									"type": "string"
								},
								{
									"internalType": "uint256",
									"name": "yearOfBirth",
									"type": "uint256"
								},
								{
									"internalType": "uint256",
									"name": "totalNumberOfSurveysTaken",
									"type": "uint256"
								},
								{
									"internalType": "bool",
									"name": "isResearcher",
									"type": "bool"
								},
								{
									"internalType": "bool",
									"name": "isBlank",
									"type": "bool"
								}
							],
							"internalType": "struct Participant[]",
							"name": "",
							"type": "tuple[]"
						}
					],
					"stateMutability": "view",
					"type": "function"
				},
				{
					"inputs": [
						{
							"internalType": "uint256",
							"name": "_surveyId",
							"type": "uint256"
						}
					],
					"name": "getQuestionsOfSurvey",
					"outputs": [
						{
							"components": [
								{
									"internalType": "uint256",
									"name": "id",
									"type": "uint256"
								},
								{
									"internalType": "uint256",
									"name": "surveyId",
									"type": "uint256"
								},
								{
									"internalType": "string",
									"name": "sentence",
									"type": "string"
								},
								{
									"internalType": "bool",
									"name": "isBlank",
									"type": "bool"
								}
							],
							"internalType": "struct Question[]",
							"name": "",
							"type": "tuple[]"
						}
					],
					"stateMutability": "view",
					"type": "function"
				},
				{
					"inputs": [
						{
							"internalType": "address",
							"name": "_walletAddress",
							"type": "address"
						}
					],
					"name": "getResearcherByWalletAddress",
					"outputs": [
						{
							"components": [
								{
									"internalType": "uint256",
									"name": "id",
									"type": "uint256"
								},
								{
									"internalType": "address",
									"name": "walletAddress",
									"type": "address"
								},
								{
									"internalType": "string",
									"name": "industry",
									"type": "string"
								},
								{
									"internalType": "string",
									"name": "numberOfEmployees",
									"type": "string"
								},
								{
									"internalType": "string",
									"name": "yearsInOperation",
									"type": "string"
								},
								{
									"internalType": "bool",
									"name": "isParticipant",
									"type": "bool"
								},
								{
									"internalType": "bool",
									"name": "isVerified",
									"type": "bool"
								},
								{
									"internalType": "bool",
									"name": "isBlank",
									"type": "bool"
								}
							],
							"internalType": "struct Researcher",
							"name": "",
							"type": "tuple"
						}
					],
					"stateMutability": "view",
					"type": "function"
				},
				{
					"inputs": [
						{
							"internalType": "uint256",
							"name": "_surveyId",
							"type": "uint256"
						}
					],
					"name": "getSurveyById",
					"outputs": [
						{
							"components": [
								{
									"internalType": "uint256",
									"name": "id",
									"type": "uint256"
								},
								{
									"internalType": "address",
									"name": "creatingResearcherWalletAddress",
									"type": "address"
								},
								{
									"internalType": "string",
									"name": "topic",
									"type": "string"
								},
								{
									"internalType": "uint256",
									"name": "numberOfQuestions",
									"type": "uint256"
								},
								{
									"internalType": "uint256",
									"name": "targetNumberOfParticipants",
									"type": "uint256"
								},
								{
									"internalType": "uint256",
									"name": "amountFundedInWei",
									"type": "uint256"
								},
								{
									"internalType": "bool",
									"name": "isBlank",
									"type": "bool"
								}
							],
							"internalType": "struct Survey",
							"name": "",
							"type": "tuple"
						}
					],
					"stateMutability": "view",
					"type": "function"
				},
				{
					"inputs": [
						{
							"internalType": "address",
							"name": "_researcherWalletAddress",
							"type": "address"
						}
					],
					"name": "getSurveysCreatedByResearcher",
					"outputs": [
						{
							"components": [
								{
									"internalType": "uint256",
									"name": "id",
									"type": "uint256"
								},
								{
									"internalType": "address",
									"name": "creatingResearcherWalletAddress",
									"type": "address"
								},
								{
									"internalType": "string",
									"name": "topic",
									"type": "string"
								},
								{
									"internalType": "uint256",
									"name": "numberOfQuestions",
									"type": "uint256"
								},
								{
									"internalType": "uint256",
									"name": "targetNumberOfParticipants",
									"type": "uint256"
								},
								{
									"internalType": "uint256",
									"name": "amountFundedInWei",
									"type": "uint256"
								},
								{
									"internalType": "bool",
									"name": "isBlank",
									"type": "bool"
								}
							],
							"internalType": "struct Survey[]",
							"name": "",
							"type": "tuple[]"
						}
					],
					"stateMutability": "view",
					"type": "function"
				},
				{
					"inputs": [
						{
							"internalType": "address",
							"name": "_creatingResearcherWalletAddress",
							"type": "address"
						}
					],
					"name": "getTotalAmountFundedByResearcherInWei",
					"outputs": [
						{
							"internalType": "uint256",
							"name": "",
							"type": "uint256"
						}
					],
					"stateMutability": "view",
					"type": "function"
				},
				{
					"inputs": [
						{
							"internalType": "address",
							"name": "_walletAddress",
							"type": "address"
						}
					],
					"name": "getTotalAmountOfEarningsReceivedByParticipantInWei",
					"outputs": [
						{
							"internalType": "uint256",
							"name": "",
							"type": "uint256"
						}
					],
					"stateMutability": "view",
					"type": "function"
				},
				{
					"inputs": [
						{
							"internalType": "address",
							"name": "_creatingResearcherWalletAddress",
							"type": "address"
						}
					],
					"name": "getTotalNumberOfSurveyCreatedByResearcher",
					"outputs": [
						{
							"internalType": "uint256",
							"name": "",
							"type": "uint256"
						}
					],
					"stateMutability": "view",
					"type": "function"
				},
				{
					"inputs": [
						{
							"internalType": "address",
							"name": "",
							"type": "address"
						}
					],
					"name": "idsOfLatestSurveysCreatedByResearchers",
					"outputs": [
						{
							"internalType": "uint256",
							"name": "",
							"type": "uint256"
						}
					],
					"stateMutability": "view",
					"type": "function"
				},
				{
					"inputs": [
						{
							"internalType": "uint256",
							"name": "_surveyId",
							"type": "uint256"
						},
						{
							"internalType": "address",
							"name": "_participantWalletAddress",
							"type": "address"
						}
					],
					"name": "makePayoutAndCreateEarning",
					"outputs": [],
					"stateMutability": "nonpayable",
					"type": "function"
				},
				{
					"inputs": [
						{
							"internalType": "uint256",
							"name": "",
							"type": "uint256"
						},
						{
							"internalType": "uint256",
							"name": "",
							"type": "uint256"
						}
					],
					"name": "participantsOfSurvey",
					"outputs": [
						{
							"internalType": "uint256",
							"name": "id",
							"type": "uint256"
						},
						{
							"internalType": "address",
							"name": "walletAddress",
							"type": "address"
						},
						{
							"internalType": "string",
							"name": "gender",
							"type": "string"
						},
						{
							"internalType": "string",
							"name": "country",
							"type": "string"
						},
						{
							"internalType": "uint256",
							"name": "yearOfBirth",
							"type": "uint256"
						},
						{
							"internalType": "uint256",
							"name": "totalNumberOfSurveysTaken",
							"type": "uint256"
						},
						{
							"internalType": "bool",
							"name": "isResearcher",
							"type": "bool"
						},
						{
							"internalType": "bool",
							"name": "isBlank",
							"type": "bool"
						}
					],
					"stateMutability": "view",
					"type": "function"
				},
				{
					"inputs": [
						{
							"internalType": "uint256",
							"name": "_surveyId",
							"type": "uint256"
						},
						{
							"internalType": "address",
							"name": "_participantWalletAddress",
							"type": "address"
						},
						{
							"internalType": "bool[]",
							"name": "_answerValues",
							"type": "bool[]"
						}
					],
					"name": "participateInSurvey",
					"outputs": [],
					"stateMutability": "nonpayable",
					"type": "function"
				},
				{
					"inputs": [
						{
							"internalType": "uint256",
							"name": "",
							"type": "uint256"
						},
						{
							"internalType": "address",
							"name": "",
							"type": "address"
						}
					],
					"name": "participationStatusForSurvey",
					"outputs": [
						{
							"internalType": "bool",
							"name": "",
							"type": "bool"
						}
					],
					"stateMutability": "view",
					"type": "function"
				},
				{
					"inputs": [
						{
							"internalType": "uint256",
							"name": "",
							"type": "uint256"
						},
						{
							"internalType": "address",
							"name": "",
							"type": "address"
						}
					],
					"name": "payoutStatusOfParticipantForSurvey",
					"outputs": [
						{
							"internalType": "bool",
							"name": "",
							"type": "bool"
						}
					],
					"stateMutability": "view",
					"type": "function"
				},
				{
					"inputs": [
						{
							"internalType": "address",
							"name": "",
							"type": "address"
						}
					],
					"name": "totalAmountFundedByResearchersInWei",
					"outputs": [
						{
							"internalType": "uint256",
							"name": "",
							"type": "uint256"
						}
					],
					"stateMutability": "view",
					"type": "function"
				},
				{
					"inputs": [
						{
							"internalType": "address",
							"name": "",
							"type": "address"
						}
					],
					"name": "totalNumberOfSurveysCreatedByResearchers",
					"outputs": [
						{
							"internalType": "uint256",
							"name": "",
							"type": "uint256"
						}
					],
					"stateMutability": "view",
					"type": "function"
				},
				{
					"inputs": [
						{
							"internalType": "address",
							"name": "_walletAddress",
							"type": "address"
						}
					],
					"name": "verifyResearcher",
					"outputs": [],
					"stateMutability": "nonpayable",
					"type": "function"
				}
			],
			"devdoc": {
				"kind": "dev",
				"methods": {},
				"version": 1
			},
			"evm": {
				"assembly": "    /* \"smart-contracts/classroom/main/Canvassing.sol\":212:21810  contract Canvassing {... */\n  0x80\n  0x40\n  dup2\n  swap1\n  mstore\n    /* \"smart-contracts/classroom/main/Canvassing.sol\":269:353  address canvassingWalletAddress =... */\n  0x00\n  dup1\n  sload\n    /* \"smart-contracts/classroom/main/Canvassing.sol\":311:353  0xecE897a85688f2e83a73Fed36b9d1a6efCC99e93 */\n  0xece897a85688f2e83a73fed36b9d1a6efcc99e93\n  not(sub(shl(0xa0, 0x01), 0x01))\n    /* \"smart-contracts/classroom/main/Canvassing.sol\":269:353  address canvassingWalletAddress =... */\n  swap2\n  dup3\n  and\n  or\n  swap1\n  swap2\n  sstore\n    /* \"smart-contracts/classroom/main/Canvassing.sol\":1870:1932  ERC20 cUSD = ERC20(0x874069Fa1Eb16D44d622F2e0Ca25eeA172369bC1) */\n  0x15\n  dup1\n  sload\n    /* \"smart-contracts/classroom/main/Canvassing.sol\":1889:1931  0x874069Fa1Eb16D44d622F2e0Ca25eeA172369bC1 */\n  0x874069fa1eb16d44d622f2e0ca25eea172369bc1\n    /* \"smart-contracts/classroom/main/Canvassing.sol\":1870:1932  ERC20 cUSD = ERC20(0x874069Fa1Eb16D44d622F2e0Ca25eeA172369bC1) */\n  swap3\n  and\n  dup3\n  or\n  swap1\n  sstore\n  shl(0xe0, 0x313ce567)\n    /* \"smart-contracts/classroom/main/Canvassing.sol\":1971:1986  cUSD.decimals() */\n  dup3\n  mstore\n    /* \"smart-contracts/classroom/main/Canvassing.sol\":1889:1931  0x874069Fa1Eb16D44d622F2e0Ca25eeA172369bC1 */\n  swap1\n    /* \"smart-contracts/classroom/main/Canvassing.sol\":1971:1984  cUSD.decimals */\n  0x313ce567\n  swap1\n    /* \"smart-contracts/classroom/main/Canvassing.sol\":1971:1986  cUSD.decimals() */\n  0x84\n  swap1\n  0x20\n  swap1\n  0x04\n    /* \"smart-contracts/classroom/main/Canvassing.sol\":212:21810  contract Canvassing {... */\n  dup2\n    /* \"smart-contracts/classroom/main/Canvassing.sol\":1889:1931  0x874069Fa1Eb16D44d622F2e0Ca25eeA172369bC1 */\n  dup7\n    /* \"smart-contracts/classroom/main/Canvassing.sol\":1971:1986  cUSD.decimals() */\n  gas\n  staticcall\n  iszero\n  dup1\n  iszero\n  tag_2\n  jumpi\n  returndatasize\n  0x00\n  dup1\n  returndatacopy\n  revert(0x00, returndatasize)\ntag_2:\n  pop\n  pop\n  pop\n  pop\n  mload(0x40)\n  returndatasize\n  not(0x1f)\n  0x1f\n  dup3\n  add\n  and\n  dup3\n  add\n  dup1\n  0x40\n  mstore\n  pop\n  dup2\n  add\n  swap1\n  tag_3\n  swap2\n  swap1\n  tag_4\n  jump\t// in\ntag_3:\n    /* \"smart-contracts/classroom/main/Canvassing.sol\":1966:1987  10**(cUSD.decimals()) */\n  tag_5\n  swap1\n    /* \"smart-contracts/classroom/main/Canvassing.sol\":1966:1968  10 */\n  0x0a\n    /* \"smart-contracts/classroom/main/Canvassing.sol\":1966:1987  10**(cUSD.decimals()) */\n  tag_6\n  jump\t// in\ntag_5:\n    /* \"smart-contracts/classroom/main/Canvassing.sol\":1938:1987  uint256 cUSDDecimalPlaces = 10**(cUSD.decimals()) */\n  0x16\n  sstore\n    /* \"smart-contracts/classroom/main/Canvassing.sol\":212:21810  contract Canvassing {... */\n  callvalue\n  dup1\n  iszero\n  tag_7\n  jumpi\n  0x00\n  dup1\n  revert\ntag_7:\n  pop\n  jump(tag_12)\n    /* \"#utility.yul\":14:287   */\ntag_4:\n    /* \"#utility.yul\":82:88   */\n  0x00\n    /* \"#utility.yul\":135:137   */\n  0x20\n    /* \"#utility.yul\":123:132   */\n  dup3\n    /* \"#utility.yul\":114:121   */\n  dup5\n    /* \"#utility.yul\":110:133   */\n  sub\n    /* \"#utility.yul\":106:138   */\n  slt\n    /* \"#utility.yul\":103:155   */\n  iszero\n  tag_14\n  jumpi\n    /* \"#utility.yul\":151:152   */\n  0x00\n    /* \"#utility.yul\":148:149   */\n  dup1\n    /* \"#utility.yul\":141:153   */\n  revert\n    /* \"#utility.yul\":103:155   */\ntag_14:\n    /* \"#utility.yul\":183:192   */\n  dup2\n    /* \"#utility.yul\":177:193   */\n  mload\n    /* \"#utility.yul\":233:237   */\n  0xff\n    /* \"#utility.yul\":226:231   */\n  dup2\n    /* \"#utility.yul\":222:238   */\n  and\n    /* \"#utility.yul\":215:220   */\n  dup2\n    /* \"#utility.yul\":212:239   */\n  eq\n    /* \"#utility.yul\":202:257   */\n  tag_15\n  jumpi\n    /* \"#utility.yul\":253:254   */\n  0x00\n    /* \"#utility.yul\":250:251   */\n  dup1\n    /* \"#utility.yul\":243:255   */\n  revert\n    /* \"#utility.yul\":202:257   */\ntag_15:\n    /* \"#utility.yul\":276:281   */\n  swap4\n    /* \"#utility.yul\":14:287   */\n  swap3\n  pop\n  pop\n  pop\n  jump\t// out\n    /* \"#utility.yul\":292:419   */\ntag_9:\n    /* \"#utility.yul\":353:363   */\n  0x4e487b71\n    /* \"#utility.yul\":348:351   */\n  0xe0\n    /* \"#utility.yul\":344:364   */\n  shl\n    /* \"#utility.yul\":341:342   */\n  0x00\n    /* \"#utility.yul\":334:365   */\n  mstore\n    /* \"#utility.yul\":384:388   */\n  0x11\n    /* \"#utility.yul\":381:382   */\n  0x04\n    /* \"#utility.yul\":374:389   */\n  mstore\n    /* \"#utility.yul\":408:412   */\n  0x24\n    /* \"#utility.yul\":405:406   */\n  0x00\n    /* \"#utility.yul\":398:413   */\n  revert\n    /* \"#utility.yul\":424:846   */\ntag_10:\n    /* \"#utility.yul\":513:514   */\n  0x01\n    /* \"#utility.yul\":556:561   */\n  dup2\n    /* \"#utility.yul\":513:514   */\n  dup2\n    /* \"#utility.yul\":570:840   */\ntag_18:\n    /* \"#utility.yul\":591:598   */\n  dup1\n    /* \"#utility.yul\":581:589   */\n  dup6\n    /* \"#utility.yul\":578:599   */\n  gt\n    /* \"#utility.yul\":570:840   */\n  iszero\n  tag_20\n  jumpi\n    /* \"#utility.yul\":650:654   */\n  dup2\n    /* \"#utility.yul\":646:647   */\n  0x00\n    /* \"#utility.yul\":642:648   */\n  not\n    /* \"#utility.yul\":638:655   */\n  div\n    /* \"#utility.yul\":632:636   */\n  dup3\n    /* \"#utility.yul\":629:656   */\n  gt\n    /* \"#utility.yul\":626:679   */\n  iszero\n  tag_22\n  jumpi\n    /* \"#utility.yul\":659:677   */\n  tag_22\n  tag_9\n  jump\t// in\ntag_22:\n    /* \"#utility.yul\":709:716   */\n  dup1\n    /* \"#utility.yul\":699:707   */\n  dup6\n    /* \"#utility.yul\":695:717   */\n  and\n    /* \"#utility.yul\":692:747   */\n  iszero\n  tag_23\n  jumpi\n    /* \"#utility.yul\":729:745   */\n  swap2\n  dup2\n  mul\n  swap2\n    /* \"#utility.yul\":692:747   */\ntag_23:\n    /* \"#utility.yul\":808:830   */\n  swap4\n  dup5\n  shr\n  swap4\n    /* \"#utility.yul\":768:783   */\n  swap1\n  dup1\n  mul\n  swap1\n    /* \"#utility.yul\":570:840   */\n  jump(tag_18)\ntag_20:\n    /* \"#utility.yul\":574:577   */\n  pop\n    /* \"#utility.yul\":424:846   */\n  swap3\n  pop\n  swap3\n  swap1\n  pop\n  jump\t// out\n    /* \"#utility.yul\":851:1657   */\ntag_11:\n    /* \"#utility.yul\":900:905   */\n  0x00\n    /* \"#utility.yul\":930:938   */\n  dup3\n    /* \"#utility.yul\":920:1000   */\n  tag_25\n  jumpi\n  pop\n    /* \"#utility.yul\":971:972   */\n  0x01\n    /* \"#utility.yul\":985:990   */\n  jump(tag_24)\n    /* \"#utility.yul\":920:1000   */\ntag_25:\n    /* \"#utility.yul\":1019:1023   */\n  dup2\n    /* \"#utility.yul\":1009:1085   */\n  tag_26\n  jumpi\n  pop\n    /* \"#utility.yul\":1056:1057   */\n  0x00\n    /* \"#utility.yul\":1070:1075   */\n  jump(tag_24)\n    /* \"#utility.yul\":1009:1085   */\ntag_26:\n    /* \"#utility.yul\":1101:1105   */\n  dup2\n    /* \"#utility.yul\":1119:1120   */\n  0x01\n    /* \"#utility.yul\":1114:1173   */\n  dup2\n  eq\n  tag_28\n  jumpi\n    /* \"#utility.yul\":1187:1188   */\n  0x02\n    /* \"#utility.yul\":1182:1312   */\n  dup2\n  eq\n  tag_29\n  jumpi\n    /* \"#utility.yul\":1094:1312   */\n  jump(tag_27)\n    /* \"#utility.yul\":1114:1173   */\ntag_28:\n    /* \"#utility.yul\":1144:1145   */\n  0x01\n    /* \"#utility.yul\":1135:1145   */\n  swap2\n  pop\n    /* \"#utility.yul\":1158:1163   */\n  pop\n  jump(tag_24)\n    /* \"#utility.yul\":1182:1312   */\ntag_29:\n    /* \"#utility.yul\":1219:1222   */\n  0xff\n    /* \"#utility.yul\":1209:1217   */\n  dup5\n    /* \"#utility.yul\":1206:1223   */\n  gt\n    /* \"#utility.yul\":1203:1246   */\n  iszero\n  tag_31\n  jumpi\n    /* \"#utility.yul\":1226:1244   */\n  tag_31\n  tag_9\n  jump\t// in\ntag_31:\n  pop\n  pop\n    /* \"#utility.yul\":1282:1283   */\n  0x01\n    /* \"#utility.yul\":1268:1284   */\n  dup3\n  shl\n    /* \"#utility.yul\":1297:1302   */\n  jump(tag_24)\n    /* \"#utility.yul\":1094:1312   */\ntag_27:\n  pop\n    /* \"#utility.yul\":1396:1398   */\n  0x20\n    /* \"#utility.yul\":1386:1394   */\n  dup4\n    /* \"#utility.yul\":1383:1399   */\n  lt\n    /* \"#utility.yul\":1377:1380   */\n  0x0133\n    /* \"#utility.yul\":1371:1375   */\n  dup4\n    /* \"#utility.yul\":1368:1381   */\n  lt\n    /* \"#utility.yul\":1364:1400   */\n  and\n    /* \"#utility.yul\":1358:1360   */\n  0x4e\n    /* \"#utility.yul\":1348:1356   */\n  dup5\n    /* \"#utility.yul\":1345:1361   */\n  lt\n    /* \"#utility.yul\":1340:1342   */\n  0x0b\n    /* \"#utility.yul\":1334:1338   */\n  dup5\n    /* \"#utility.yul\":1331:1343   */\n  lt\n    /* \"#utility.yul\":1327:1362   */\n  and\n    /* \"#utility.yul\":1324:1401   */\n  or\n    /* \"#utility.yul\":1321:1480   */\n  iszero\n  tag_32\n  jumpi\n  pop\n    /* \"#utility.yul\":1433:1452   */\n  dup2\n  dup2\n  exp\n    /* \"#utility.yul\":1465:1470   */\n  jump(tag_24)\n    /* \"#utility.yul\":1321:1480   */\ntag_32:\n    /* \"#utility.yul\":1512:1546   */\n  tag_33\n    /* \"#utility.yul\":1537:1545   */\n  dup4\n    /* \"#utility.yul\":1531:1535   */\n  dup4\n    /* \"#utility.yul\":1512:1546   */\n  tag_10\n  jump\t// in\ntag_33:\n    /* \"#utility.yul\":1582:1588   */\n  dup1\n    /* \"#utility.yul\":1578:1579   */\n  0x00\n    /* \"#utility.yul\":1574:1580   */\n  not\n    /* \"#utility.yul\":1570:1589   */\n  div\n    /* \"#utility.yul\":1561:1568   */\n  dup3\n    /* \"#utility.yul\":1558:1590   */\n  gt\n    /* \"#utility.yul\":1555:1613   */\n  iszero\n  tag_35\n  jumpi\n    /* \"#utility.yul\":1593:1611   */\n  tag_35\n  tag_9\n  jump\t// in\ntag_35:\n    /* \"#utility.yul\":1631:1651   */\n  mul\n  swap1\n  pop\n    /* \"#utility.yul\":851:1657   */\ntag_24:\n  swap3\n  swap2\n  pop\n  pop\n  jump\t// out\n    /* \"#utility.yul\":1662:1802   */\ntag_6:\n    /* \"#utility.yul\":1720:1725   */\n  0x00\n    /* \"#utility.yul\":1749:1796   */\n  tag_15\n    /* \"#utility.yul\":1790:1794   */\n  0xff\n    /* \"#utility.yul\":1780:1788   */\n  dup5\n    /* \"#utility.yul\":1776:1795   */\n  and\n    /* \"#utility.yul\":1770:1774   */\n  dup4\n    /* \"#utility.yul\":1749:1796   */\n  tag_11\n  jump\t// in\n    /* \"#utility.yul\":1662:1802   */\ntag_12:\n    /* \"smart-contracts/classroom/main/Canvassing.sol\":212:21810  contract Canvassing {... */\n  dataSize(sub_0)\n  dup1\n  dataOffset(sub_0)\n  0x00\n  codecopy\n  0x00\n  return\nstop\n\nsub_0: assembly {\n        /* \"smart-contracts/classroom/main/Canvassing.sol\":212:21810  contract Canvassing {... */\n      mstore(0x40, 0x80)\n      callvalue\n      dup1\n      iszero\n      tag_1\n      jumpi\n      0x00\n      dup1\n      revert\n    tag_1:\n      pop\n      jumpi(tag_2, lt(calldatasize, 0x04))\n      shr(0xe0, calldataload(0x00))\n      dup1\n      0x6b8ac0e7\n      gt\n      tag_45\n      jumpi\n      dup1\n      0xa58543fe\n      gt\n      tag_46\n      jumpi\n      dup1\n      0xcc4903ca\n      gt\n      tag_47\n      jumpi\n      dup1\n      0xcc4903ca\n      eq\n      tag_39\n      jumpi\n      dup1\n      0xd7e93794\n      eq\n      tag_40\n      jumpi\n      dup1\n      0xd8cb6290\n      eq\n      tag_41\n      jumpi\n      dup1\n      0xf31e72e4\n      eq\n      tag_42\n      jumpi\n      dup1\n      0xf692a3bb\n      eq\n      tag_43\n      jumpi\n      dup1\n      0xfb47e9e6\n      eq\n      tag_44\n      jumpi\n      0x00\n      dup1\n      revert\n    tag_47:\n      dup1\n      0xa58543fe\n      eq\n      tag_34\n      jumpi\n      dup1\n      0xb3265ecd\n      eq\n      tag_35\n      jumpi\n      dup1\n      0xb9c745b3\n      eq\n      tag_36\n      jumpi\n      dup1\n      0xc0ac4ae4\n      eq\n      tag_37\n      jumpi\n      dup1\n      0xca2e7f9b\n      eq\n      tag_38\n      jumpi\n      0x00\n      dup1\n      revert\n    tag_46:\n      dup1\n      0x7e950819\n      gt\n      tag_48\n      jumpi\n      dup1\n      0x7e950819\n      eq\n      tag_29\n      jumpi\n      dup1\n      0x8e6da619\n      eq\n      tag_30\n      jumpi\n      dup1\n      0x95ecea1f\n      eq\n      tag_31\n      jumpi\n      dup1\n      0x964f6566\n      eq\n      tag_32\n      jumpi\n      dup1\n      0x9a23218f\n      eq\n      tag_33\n      jumpi\n      0x00\n      dup1\n      revert\n    tag_48:\n      dup1\n      0x6b8ac0e7\n      eq\n      tag_24\n      jumpi\n      dup1\n      0x6f5fde11\n      eq\n      tag_25\n      jumpi\n      dup1\n      0x73fd653d\n      eq\n      tag_26\n      jumpi\n      dup1\n      0x79252d97\n      eq\n      tag_27\n      jumpi\n      dup1\n      0x7a1bc375\n      eq\n      tag_28\n      jumpi\n      0x00\n      dup1\n      revert\n    tag_45:\n      dup1\n      0x392a5822\n      gt\n      tag_49\n      jumpi\n      dup1\n      0x4fe1cfad\n      gt\n      tag_50\n      jumpi\n      dup1\n      0x4fe1cfad\n      eq\n      tag_18\n      jumpi\n      dup1\n      0x5822bff1\n      eq\n      tag_19\n      jumpi\n      dup1\n      0x5b76074e\n      eq\n      tag_20\n      jumpi\n      dup1\n      0x5fa7a90a\n      eq\n      tag_21\n      jumpi\n      dup1\n      0x68df3299\n      eq\n      tag_22\n      jumpi\n      dup1\n      0x69bff3fb\n      eq\n      tag_23\n      jumpi\n      0x00\n      dup1\n      revert\n    tag_50:\n      dup1\n      0x392a5822\n      eq\n      tag_13\n      jumpi\n      dup1\n      0x3abb615a\n      eq\n      tag_14\n      jumpi\n      dup1\n      0x3b43b7d0\n      eq\n      tag_15\n      jumpi\n      dup1\n      0x40ca213d\n      eq\n      tag_16\n      jumpi\n      dup1\n      0x44962609\n      eq\n      tag_17\n      jumpi\n      0x00\n      dup1\n      revert\n    tag_49:\n      dup1\n      0x1bd1ebc4\n      gt\n      tag_51\n      jumpi\n      dup1\n      0x1bd1ebc4\n      eq\n      tag_8\n      jumpi\n      dup1\n      0x2076a35a\n      eq\n      tag_9\n      jumpi\n      dup1\n      0x2394e5dc\n      eq\n      tag_10\n      jumpi\n      dup1\n      0x25f18424\n      eq\n      tag_11\n      jumpi\n      dup1\n      0x3882db7d\n      eq\n      tag_12\n      jumpi\n      0x00\n      dup1\n      revert\n    tag_51:\n      dup1\n      0x03f16747\n      eq\n      tag_3\n      jumpi\n      dup1\n      0x0478318b\n      eq\n      tag_4\n      jumpi\n      dup1\n      0x07f6646e\n      eq\n      tag_5\n      jumpi\n      dup1\n      0x125bb83d\n      eq\n      tag_6\n      jumpi\n      dup1\n      0x1b6f2485\n      eq\n      tag_7\n      jumpi\n    tag_2:\n      0x00\n      dup1\n      revert\n        /* \"smart-contracts/classroom/main/Canvassing.sol\":8476:9400  function getAmountOfFundingOfAnySurveyInWei(... */\n    tag_3:\n      tag_52\n      tag_53\n      calldatasize\n      0x04\n      tag_54\n      jump\t// in\n    tag_53:\n      tag_55\n      jump\t// in\n    tag_52:\n      mload(0x40)\n        /* \"#utility.yul\":413:438   */\n      swap1\n      dup2\n      mstore\n        /* \"#utility.yul\":401:403   */\n      0x20\n        /* \"#utility.yul\":386:404   */\n      add\n        /* \"smart-contracts/classroom/main/Canvassing.sol\":8476:9400  function getAmountOfFundingOfAnySurveyInWei(... */\n    tag_56:\n      mload(0x40)\n      dup1\n      swap2\n      sub\n      swap1\n      return\n        /* \"smart-contracts/classroom/main/Canvassing.sol\":14527:14711  function getResearcherByWalletAddress(address _walletAddress)... */\n    tag_4:\n      tag_58\n      tag_59\n      calldatasize\n      0x04\n      tag_60\n      jump\t// in\n    tag_59:\n      tag_61\n      jump\t// in\n    tag_58:\n      mload(0x40)\n      tag_56\n      swap2\n      swap1\n      tag_63\n      jump\t// in\n        /* \"smart-contracts/classroom/main/Canvassing.sol\":16444:17500  function getSurveysCreatedByResearcher(address _researcherWalletAddress)... */\n    tag_5:\n      tag_64\n      tag_65\n      calldatasize\n      0x04\n      tag_60\n      jump\t// in\n    tag_65:\n      tag_66\n      jump\t// in\n    tag_64:\n      mload(0x40)\n      tag_56\n      swap2\n      swap1\n      tag_68\n      jump\t// in\n        /* \"smart-contracts/classroom/main/Canvassing.sol\":1486:1547  mapping(uint256 => Participant[]) public participantsOfSurvey */\n    tag_6:\n      tag_69\n      tag_70\n      calldatasize\n      0x04\n      tag_54\n      jump\t// in\n    tag_70:\n      tag_71\n      jump\t// in\n    tag_69:\n      mload(0x40)\n      tag_56\n      swap9\n      swap8\n      swap7\n      swap6\n      swap5\n      swap4\n      swap3\n      swap2\n      swap1\n      tag_73\n      jump\t// in\n        /* \"smart-contracts/classroom/main/Canvassing.sol\":568:594  Survey[] public allSurveys */\n    tag_7:\n      tag_74\n      tag_75\n      calldatasize\n      0x04\n      tag_76\n      jump\t// in\n    tag_75:\n      tag_77\n      jump\t// in\n    tag_74:\n      mload(0x40)\n      tag_56\n      swap8\n      swap7\n      swap6\n      swap5\n      swap4\n      swap3\n      swap2\n      swap1\n      tag_79\n      jump\t// in\n        /* \"smart-contracts/classroom/main/Canvassing.sol\":9406:10112  function getAmountOfEarningPerParticipantForSurveyInWei(uint256 _surveyId)... */\n    tag_8:\n      tag_52\n      tag_81\n      calldatasize\n      0x04\n      tag_76\n      jump\t// in\n    tag_81:\n      tag_82\n      jump\t// in\n        /* \"smart-contracts/classroom/main/Canvassing.sol\":6981:8201  function getAllAnswersOfParticipantOfSurvey(... */\n    tag_9:\n      tag_84\n      tag_85\n      calldatasize\n      0x04\n      tag_86\n      jump\t// in\n    tag_85:\n      tag_87\n      jump\t// in\n    tag_84:\n      mload(0x40)\n      tag_56\n      swap2\n      swap1\n      tag_89\n      jump\t// in\n        /* \"smart-contracts/classroom/main/Canvassing.sol\":2259:2446  function getParticipantByWalletAddress(address _walletAddress)... */\n    tag_10:\n      tag_90\n      tag_91\n      calldatasize\n      0x04\n      tag_60\n      jump\t// in\n    tag_91:\n      tag_92\n      jump\t// in\n    tag_90:\n      mload(0x40)\n      tag_56\n      swap2\n      swap1\n      tag_94\n      jump\t// in\n        /* \"smart-contracts/classroom/main/Canvassing.sol\":5874:6802  function getTotalAmountOfEarningsReceivedByParticipantInWei(... */\n    tag_11:\n      tag_52\n      tag_96\n      calldatasize\n      0x04\n      tag_60\n      jump\t// in\n    tag_96:\n      tag_97\n      jump\t// in\n        /* \"smart-contracts/classroom/main/Canvassing.sol\":21015:21290  function getIdsOfLatestSurveysCreatedByResearchers(... */\n    tag_12:\n      tag_52\n      tag_100\n      calldatasize\n      0x04\n      tag_60\n      jump\t// in\n    tag_100:\n      sub(shl(0xa0, 0x01), 0x01)\n        /* \"smart-contracts/classroom/main/Canvassing.sol\":21181:21283  idsOfLatestSurveysCreatedByResearchers[... */\n      and\n        /* \"smart-contracts/classroom/main/Canvassing.sol\":21143:21150  uint256 */\n      0x00\n        /* \"smart-contracts/classroom/main/Canvassing.sol\":21181:21283  idsOfLatestSurveysCreatedByResearchers[... */\n      swap1\n      dup2\n      mstore\n        /* \"smart-contracts/classroom/main/Canvassing.sol\":21181:21219  idsOfLatestSurveysCreatedByResearchers */\n      0x0a\n        /* \"smart-contracts/classroom/main/Canvassing.sol\":21181:21283  idsOfLatestSurveysCreatedByResearchers[... */\n      0x20\n      mstore\n      0x40\n      swap1\n      keccak256\n      sload\n      swap1\n        /* \"smart-contracts/classroom/main/Canvassing.sol\":21015:21290  function getIdsOfLatestSurveysCreatedByResearchers(... */\n      jump\n        /* \"smart-contracts/classroom/main/Canvassing.sol\":3738:4760  function getAllEarningsMadeByParticipant(address _walletAddress)... */\n    tag_13:\n      tag_103\n      tag_104\n      calldatasize\n      0x04\n      tag_60\n      jump\t// in\n    tag_104:\n      tag_105\n      jump\t// in\n    tag_103:\n      mload(0x40)\n      tag_56\n      swap2\n      swap1\n      tag_107\n      jump\t// in\n        /* \"smart-contracts/classroom/main/Canvassing.sol\":4766:5868  function getAllSurveysTakenByParticipant(address _walletAddress)... */\n    tag_14:\n      tag_64\n      tag_109\n      calldatasize\n      0x04\n      tag_60\n      jump\t// in\n    tag_109:\n      tag_110\n      jump\t// in\n        /* \"smart-contracts/classroom/main/Canvassing.sol\":2452:3472  function createParticipant(... */\n    tag_15:\n      tag_112\n      tag_113\n      calldatasize\n      0x04\n      tag_114\n      jump\t// in\n    tag_113:\n      tag_115\n      jump\t// in\n    tag_112:\n      stop\n        /* \"smart-contracts/classroom/main/Canvassing.sol\":14717:15881  function createResearcher(... */\n    tag_16:\n      tag_112\n      tag_117\n      calldatasize\n      0x04\n      tag_118\n      jump\t// in\n    tag_117:\n      tag_119\n      jump\t// in\n        /* \"smart-contracts/classroom/main/Canvassing.sol\":10118:10633  function getAmountOfEarningForCanvassingForSurveyPerParticipantInWei(... */\n    tag_17:\n      tag_52\n      tag_121\n      calldatasize\n      0x04\n      tag_54\n      jump\t// in\n    tag_121:\n      tag_122\n      jump\t// in\n        /* \"smart-contracts/classroom/main/Canvassing.sol\":15887:16164  function getTotalNumberOfSurveyCreatedByResearcher(... */\n    tag_18:\n      tag_52\n      tag_125\n      calldatasize\n      0x04\n      tag_60\n      jump\t// in\n    tag_125:\n      sub(shl(0xa0, 0x01), 0x01)\n        /* \"smart-contracts/classroom/main/Canvassing.sol\":16053:16157  totalNumberOfSurveysCreatedByResearchers[... */\n      and\n        /* \"smart-contracts/classroom/main/Canvassing.sol\":16015:16022  uint256 */\n      0x00\n        /* \"smart-contracts/classroom/main/Canvassing.sol\":16053:16157  totalNumberOfSurveysCreatedByResearchers[... */\n      swap1\n      dup2\n      mstore\n        /* \"smart-contracts/classroom/main/Canvassing.sol\":16053:16093  totalNumberOfSurveysCreatedByResearchers */\n      0x08\n        /* \"smart-contracts/classroom/main/Canvassing.sol\":16053:16157  totalNumberOfSurveysCreatedByResearchers[... */\n      0x20\n      mstore\n      0x40\n      swap1\n      keccak256\n      sload\n      swap1\n        /* \"smart-contracts/classroom/main/Canvassing.sol\":15887:16164  function getTotalNumberOfSurveyCreatedByResearcher(... */\n      jump\n        /* \"smart-contracts/classroom/main/Canvassing.sol\":1113:1188  mapping(address => uint256) public totalNumberOfSurveysCreatedByResearchers */\n    tag_19:\n      tag_52\n      tag_129\n      calldatasize\n      0x04\n      tag_60\n      jump\t// in\n    tag_129:\n      mstore(0x20, 0x08)\n      0x00\n      swap1\n      dup2\n      mstore\n      0x40\n      swap1\n      keccak256\n      sload\n      dup2\n      jump\n        /* \"smart-contracts/classroom/main/Canvassing.sol\":508:562  mapping(address => Participant) public allParticipants */\n    tag_20:\n      tag_69\n      tag_133\n      calldatasize\n      0x04\n      tag_60\n      jump\t// in\n    tag_133:\n      tag_134\n      jump\t// in\n        /* \"smart-contracts/classroom/main/Canvassing.sol\":1248:1318  mapping(address => uint256) public totalAmountFundedByResearchersInWei */\n    tag_21:\n      tag_52\n      tag_137\n      calldatasize\n      0x04\n      tag_60\n      jump\t// in\n    tag_137:\n      mstore(0x20, 0x09)\n      0x00\n      swap1\n      dup2\n      mstore\n      0x40\n      swap1\n      keccak256\n      sload\n      dup2\n      jump\n        /* \"smart-contracts/classroom/main/Canvassing.sol\":18894:21009  function createSurvey(... */\n    tag_22:\n      tag_52\n      tag_141\n      calldatasize\n      0x04\n      tag_142\n      jump\t// in\n    tag_141:\n      tag_143\n      jump\t// in\n        /* \"smart-contracts/classroom/main/Canvassing.sol\":716:762  mapping(uint256 => Answer[]) public allAnswers */\n    tag_23:\n      tag_145\n      tag_146\n      calldatasize\n      0x04\n      tag_54\n      jump\t// in\n    tag_146:\n      tag_147\n      jump\t// in\n    tag_145:\n      0x40\n      dup1\n      mload\n        /* \"#utility.yul\":13990:14015   */\n      swap7\n      dup8\n      mstore\n        /* \"#utility.yul\":14046:14048   */\n      0x20\n        /* \"#utility.yul\":14031:14049   */\n      dup8\n      add\n        /* \"#utility.yul\":14024:14058   */\n      swap6\n      swap1\n      swap6\n      mstore\n        /* \"#utility.yul\":14074:14092   */\n      swap4\n      dup6\n      add\n        /* \"#utility.yul\":14067:14101   */\n      swap3\n      swap1\n      swap3\n      mstore\n      sub(shl(0xa0, 0x01), 0x01)\n        /* \"#utility.yul\":14137:14169   */\n      and\n        /* \"#utility.yul\":14132:14134   */\n      0x60\n        /* \"#utility.yul\":14117:14135   */\n      dup5\n      add\n        /* \"#utility.yul\":14110:14170   */\n      mstore\n        /* \"#utility.yul\":14214:14228   */\n      iszero\n        /* \"#utility.yul\":14207:14229   */\n      iszero\n        /* \"#utility.yul\":14201:14204   */\n      0x80\n        /* \"#utility.yul\":14186:14205   */\n      dup4\n      add\n        /* \"#utility.yul\":14179:14230   */\n      mstore\n        /* \"#utility.yul\":14274:14288   */\n      iszero\n        /* \"#utility.yul\":14267:14289   */\n      iszero\n        /* \"#utility.yul\":14157:14160   */\n      0xa0\n        /* \"#utility.yul\":14246:14265   */\n      dup3\n      add\n        /* \"#utility.yul\":14239:14290   */\n      mstore\n        /* \"#utility.yul\":13977:13980   */\n      0xc0\n        /* \"#utility.yul\":13962:13981   */\n      add\n        /* \"smart-contracts/classroom/main/Canvassing.sol\":716:762  mapping(uint256 => Answer[]) public allAnswers */\n      tag_56\n        /* \"#utility.yul\":13715:14296   */\n      jump\n        /* \"smart-contracts/classroom/main/Canvassing.sol\":12317:14258  function makePayoutAndCreateEarning(... */\n    tag_24:\n      tag_112\n      tag_151\n      calldatasize\n      0x04\n      tag_86\n      jump\t// in\n    tag_151:\n      tag_152\n      jump\t// in\n        /* \"smart-contracts/classroom/main/Canvassing.sol\":1994:2253  function checkIfParticipantExists(address _walletAddress)... */\n    tag_25:\n      tag_153\n      tag_154\n      calldatasize\n      0x04\n      tag_60\n      jump\t// in\n    tag_154:\n      tag_155\n      jump\t// in\n    tag_153:\n      mload(0x40)\n        /* \"#utility.yul\":14466:14480   */\n      swap1\n      iszero\n        /* \"#utility.yul\":14459:14481   */\n      iszero\n        /* \"#utility.yul\":14441:14482   */\n      dup2\n      mstore\n        /* \"#utility.yul\":14429:14431   */\n      0x20\n        /* \"#utility.yul\":14414:14432   */\n      add\n        /* \"smart-contracts/classroom/main/Canvassing.sol\":1994:2253  function checkIfParticipantExists(address _walletAddress)... */\n      tag_56\n        /* \"#utility.yul\":14301:14488   */\n      jump\n        /* \"smart-contracts/classroom/main/Canvassing.sol\":18641:18888  function verifyResearcher(address _walletAddress) public {... */\n    tag_26:\n      tag_112\n      tag_159\n      calldatasize\n      0x04\n      tag_60\n      jump\t// in\n    tag_159:\n      tag_160\n      jump\t// in\n        /* \"smart-contracts/classroom/main/Canvassing.sol\":16170:16438  function getTotalAmountFundedByResearcherInWei(... */\n    tag_27:\n      tag_52\n      tag_162\n      calldatasize\n      0x04\n      tag_60\n      jump\t// in\n    tag_162:\n      sub(shl(0xa0, 0x01), 0x01)\n        /* \"smart-contracts/classroom/main/Canvassing.sol\":16332:16431  totalAmountFundedByResearchersInWei[... */\n      and\n        /* \"smart-contracts/classroom/main/Canvassing.sol\":16294:16301  uint256 */\n      0x00\n        /* \"smart-contracts/classroom/main/Canvassing.sol\":16332:16431  totalAmountFundedByResearchersInWei[... */\n      swap1\n      dup2\n      mstore\n        /* \"smart-contracts/classroom/main/Canvassing.sol\":16332:16367  totalAmountFundedByResearchersInWei */\n      0x09\n        /* \"smart-contracts/classroom/main/Canvassing.sol\":16332:16431  totalAmountFundedByResearchersInWei[... */\n      0x20\n      mstore\n      0x40\n      swap1\n      keccak256\n      sload\n      swap1\n        /* \"smart-contracts/classroom/main/Canvassing.sol\":16170:16438  function getTotalAmountFundedByResearcherInWei(... */\n      jump\n        /* \"smart-contracts/classroom/main/Canvassing.sol\":3478:3575  function getAllSurveys() public view returns (Survey[] memory) {... */\n    tag_28:\n      tag_64\n      tag_166\n      jump\t// in\n        /* \"smart-contracts/classroom/main/Canvassing.sol\":960:1054  mapping(uint256 => mapping(address => bool))... */\n    tag_29:\n      tag_153\n      tag_169\n      calldatasize\n      0x04\n      tag_86\n      jump\t// in\n    tag_169:\n      0x07\n      0x20\n      swap1\n      dup2\n      mstore\n      0x00\n      swap3\n      dup4\n      mstore\n      0x40\n      dup1\n      dup5\n      keccak256\n      swap1\n      swap2\n      mstore\n      swap1\n      dup3\n      mstore\n      swap1\n      keccak256\n      sload\n      0xff\n      and\n      dup2\n      jump\n        /* \"smart-contracts/classroom/main/Canvassing.sol\":1589:1617  Earning[] public allEarnings */\n    tag_30:\n      tag_172\n      tag_173\n      calldatasize\n      0x04\n      tag_76\n      jump\t// in\n    tag_173:\n      tag_174\n      jump\t// in\n    tag_172:\n      0x40\n      dup1\n      mload\n        /* \"#utility.yul\":14746:14771   */\n      swap6\n      dup7\n      mstore\n        /* \"#utility.yul\":14802:14804   */\n      0x20\n        /* \"#utility.yul\":14787:14805   */\n      dup7\n      add\n        /* \"#utility.yul\":14780:14814   */\n      swap5\n      swap1\n      swap5\n      mstore\n      sub(shl(0xa0, 0x01), 0x01)\n        /* \"#utility.yul\":14850:14882   */\n      swap1\n      swap3\n      and\n        /* \"#utility.yul\":14830:14848   */\n      swap3\n      dup5\n      add\n        /* \"#utility.yul\":14823:14883   */\n      swap3\n      swap1\n      swap3\n      mstore\n        /* \"#utility.yul\":14914:14916   */\n      0x60\n        /* \"#utility.yul\":14899:14917   */\n      dup4\n      add\n        /* \"#utility.yul\":14892:14926   */\n      swap2\n      swap1\n      swap2\n      mstore\n        /* \"#utility.yul\":14970:14984   */\n      iszero\n        /* \"#utility.yul\":14963:14985   */\n      iszero\n        /* \"#utility.yul\":14957:14960   */\n      0x80\n        /* \"#utility.yul\":14942:14961   */\n      dup3\n      add\n        /* \"#utility.yul\":14935:14986   */\n      mstore\n        /* \"#utility.yul\":14733:14736   */\n      0xa0\n        /* \"#utility.yul\":14718:14737   */\n      add\n        /* \"smart-contracts/classroom/main/Canvassing.sol\":1589:1617  Earning[] public allEarnings */\n      tag_56\n        /* \"#utility.yul\":14493:14992   */\n      jump\n        /* \"smart-contracts/classroom/main/Canvassing.sol\":1554:1582  Funding[] public allFundings */\n    tag_31:\n      tag_172\n      tag_178\n      calldatasize\n      0x04\n      tag_76\n      jump\t// in\n    tag_178:\n      tag_179\n      jump\t// in\n        /* \"smart-contracts/classroom/main/Canvassing.sol\":21296:21474  function getParticipantsOfSurvey(uint256 _surveyId)... */\n    tag_32:\n      tag_181\n      tag_182\n      calldatasize\n      0x04\n      tag_76\n      jump\t// in\n    tag_182:\n      tag_183\n      jump\t// in\n    tag_181:\n      mload(0x40)\n      tag_56\n      swap2\n      swap1\n      tag_185\n      jump\t// in\n        /* \"smart-contracts/classroom/main/Canvassing.sol\":14264:14521  function checkIfResearcherExists(address _walletAddress)... */\n    tag_33:\n      tag_153\n      tag_187\n      calldatasize\n      0x04\n      tag_60\n      jump\t// in\n    tag_187:\n      tag_188\n      jump\t// in\n        /* \"smart-contracts/classroom/main/Canvassing.sol\":8207:8470  function checkIfParticipantHasAlreadyParticipatedInSurvey(... */\n    tag_34:\n      tag_153\n      tag_191\n      calldatasize\n      0x04\n      tag_192\n      jump\t// in\n    tag_191:\n        /* \"smart-contracts/classroom/main/Canvassing.sol\":8362:8366  bool */\n      0x00\n        /* \"smart-contracts/classroom/main/Canvassing.sol\":8397:8436  participationStatusForSurvey[_surveyId] */\n      swap1\n      dup2\n      mstore\n        /* \"smart-contracts/classroom/main/Canvassing.sol\":8397:8425  participationStatusForSurvey */\n      0x06\n        /* \"smart-contracts/classroom/main/Canvassing.sol\":8397:8436  participationStatusForSurvey[_surveyId] */\n      0x20\n      swap1\n      dup2\n      mstore\n      0x40\n      dup1\n      dup4\n      keccak256\n      sub(shl(0xa0, 0x01), 0x01)\n        /* \"smart-contracts/classroom/main/Canvassing.sol\":8397:8463  participationStatusForSurvey[_surveyId][_participantWalletAddress] */\n      swap5\n      swap1\n      swap5\n      and\n      dup4\n      mstore\n      swap3\n      swap1\n      mstore\n      keccak256\n      sload\n      0xff\n      and\n      swap1\n        /* \"smart-contracts/classroom/main/Canvassing.sol\":8207:8470  function checkIfParticipantHasAlreadyParticipatedInSurvey(... */\n      jump\n        /* \"smart-contracts/classroom/main/Canvassing.sol\":17506:18635  function createFunding(... */\n    tag_35:\n      tag_112\n      tag_196\n      calldatasize\n      0x04\n      tag_197\n      jump\t// in\n    tag_196:\n      tag_198\n      jump\t// in\n        /* \"smart-contracts/classroom/main/Canvassing.sol\":798:886  mapping(uint256 => mapping(address => bool))... */\n    tag_36:\n      tag_153\n      tag_200\n      calldatasize\n      0x04\n      tag_86\n      jump\t// in\n    tag_200:\n      0x06\n      0x20\n      swap1\n      dup2\n      mstore\n      0x00\n      swap3\n      dup4\n      mstore\n      0x40\n      dup1\n      dup5\n      keccak256\n      swap1\n      swap2\n      mstore\n      swap1\n      dup3\n      mstore\n      swap1\n      keccak256\n      sload\n      0xff\n      and\n      dup2\n      jump\n        /* \"smart-contracts/classroom/main/Canvassing.sol\":3581:3732  function getSurveyById(uint256 _surveyId)... */\n    tag_37:\n      tag_203\n      tag_204\n      calldatasize\n      0x04\n      tag_76\n      jump\t// in\n    tag_204:\n      tag_205\n      jump\t// in\n    tag_203:\n      mload(0x40)\n      tag_56\n      swap2\n      swap1\n      tag_207\n      jump\t// in\n        /* \"smart-contracts/classroom/main/Canvassing.sol\":10639:12311  function participateInSurvey(... */\n    tag_38:\n      tag_112\n      tag_209\n      calldatasize\n      0x04\n      tag_210\n      jump\t// in\n    tag_209:\n      tag_211\n      jump\t// in\n        /* \"smart-contracts/classroom/main/Canvassing.sol\":21650:21808  function getAnswersOfSurvey(uint256 _surveyId)... */\n    tag_39:\n      tag_84\n      tag_213\n      calldatasize\n      0x04\n      tag_76\n      jump\t// in\n    tag_213:\n      tag_214\n      jump\t// in\n        /* \"smart-contracts/classroom/main/Canvassing.sol\":1377:1450  mapping(address => uint256) public idsOfLatestSurveysCreatedByResearchers */\n    tag_40:\n      tag_52\n      tag_217\n      calldatasize\n      0x04\n      tag_60\n      jump\t// in\n    tag_217:\n      mstore(0x20, 0x0a)\n      0x00\n      swap1\n      dup2\n      mstore\n      0x40\n      swap1\n      keccak256\n      sload\n      dup2\n      jump\n        /* \"smart-contracts/classroom/main/Canvassing.sol\":21480:21644  function getQuestionsOfSurvey(uint256 _surveyId)... */\n    tag_41:\n      tag_220\n      tag_221\n      calldatasize\n      0x04\n      tag_76\n      jump\t// in\n    tag_221:\n      tag_222\n      jump\t// in\n    tag_220:\n      mload(0x40)\n      tag_56\n      swap2\n      swap1\n      tag_224\n      jump\t// in\n        /* \"smart-contracts/classroom/main/Canvassing.sol\":6808:6975  function getAllQuestionsOfSurvey(uint256 _surveyId)... */\n    tag_42:\n      tag_220\n      tag_226\n      calldatasize\n      0x04\n      tag_76\n      jump\t// in\n    tag_226:\n      tag_227\n      jump\t// in\n        /* \"smart-contracts/classroom/main/Canvassing.sol\":404:456  mapping(address => Researcher) public allResearchers */\n    tag_43:\n      tag_229\n      tag_230\n      calldatasize\n      0x04\n      tag_60\n      jump\t// in\n    tag_230:\n      tag_231\n      jump\t// in\n    tag_229:\n      mload(0x40)\n      tag_56\n      swap9\n      swap8\n      swap7\n      swap6\n      swap5\n      swap4\n      swap3\n      swap2\n      swap1\n      tag_233\n      jump\t// in\n        /* \"smart-contracts/classroom/main/Canvassing.sol\":630:680  mapping(uint256 => Question[]) public allQuestions */\n    tag_44:\n      tag_234\n      tag_235\n      calldatasize\n      0x04\n      tag_54\n      jump\t// in\n    tag_235:\n      tag_236\n      jump\t// in\n    tag_234:\n      mload(0x40)\n      tag_56\n      swap5\n      swap4\n      swap3\n      swap2\n      swap1\n      tag_238\n      jump\t// in\n        /* \"smart-contracts/classroom/main/Canvassing.sol\":8476:9400  function getAmountOfFundingOfAnySurveyInWei(... */\n    tag_55:\n        /* \"smart-contracts/classroom/main/Canvassing.sol\":8887:8904  cUSDDecimalPlaces */\n      sload(0x16)\n        /* \"smart-contracts/classroom/main/Canvassing.sol\":8628:8635  uint256 */\n      0x00\n      swap1\n      dup2\n      swap1\n        /* \"smart-contracts/classroom/main/Canvassing.sol\":8854:8904  _numberOfQuestions *... */\n      tag_240\n      swap1\n        /* \"smart-contracts/classroom/main/Canvassing.sol\":8854:8872  _numberOfQuestions */\n      dup6\n        /* \"smart-contracts/classroom/main/Canvassing.sol\":8854:8904  _numberOfQuestions *... */\n      tag_241\n      jump\t// in\n    tag_240:\n        /* \"smart-contracts/classroom/main/Canvassing.sol\":8817:8905  potentialFundingOfAnySurveyInWei += (_numberOfQuestions *... */\n      tag_242\n      swap1\n      dup3\n      tag_243\n      jump\t// in\n    tag_242:\n      swap1\n      pop\n        /* \"smart-contracts/classroom/main/Canvassing.sol\":8962:8989  _targetNumberOfParticipants */\n      dup3\n        /* \"smart-contracts/classroom/main/Canvassing.sol\":8993:8994  5 */\n      0x05\n        /* \"smart-contracts/classroom/main/Canvassing.sol\":8962:8994  _targetNumberOfParticipants == 5 */\n      sub\n        /* \"smart-contracts/classroom/main/Canvassing.sol\":8958:9080  if (_targetNumberOfParticipants == 5) {... */\n      tag_244\n      jumpi\n        /* \"smart-contracts/classroom/main/Canvassing.sol\":9051:9068  cUSDDecimalPlaces */\n      sload(0x16)\n        /* \"smart-contracts/classroom/main/Canvassing.sol\":9047:9068  2 * cUSDDecimalPlaces */\n      tag_245\n      swap1\n        /* \"smart-contracts/classroom/main/Canvassing.sol\":9047:9048  2 */\n      0x02\n        /* \"smart-contracts/classroom/main/Canvassing.sol\":9047:9068  2 * cUSDDecimalPlaces */\n      tag_241\n      jump\t// in\n    tag_245:\n        /* \"smart-contracts/classroom/main/Canvassing.sol\":9010:9069  potentialFundingOfAnySurveyInWei += (2 * cUSDDecimalPlaces) */\n      tag_246\n      swap1\n      dup3\n      tag_243\n      jump\t// in\n    tag_246:\n      swap1\n      pop\n        /* \"smart-contracts/classroom/main/Canvassing.sol\":8958:9080  if (_targetNumberOfParticipants == 5) {... */\n    tag_244:\n        /* \"smart-contracts/classroom/main/Canvassing.sol\":9094:9121  _targetNumberOfParticipants */\n      dup3\n        /* \"smart-contracts/classroom/main/Canvassing.sol\":9125:9126  7 */\n      0x07\n        /* \"smart-contracts/classroom/main/Canvassing.sol\":9094:9126  _targetNumberOfParticipants == 7 */\n      sub\n        /* \"smart-contracts/classroom/main/Canvassing.sol\":9090:9212  if (_targetNumberOfParticipants == 7) {... */\n      tag_247\n      jumpi\n        /* \"smart-contracts/classroom/main/Canvassing.sol\":9183:9200  cUSDDecimalPlaces */\n      sload(0x16)\n        /* \"smart-contracts/classroom/main/Canvassing.sol\":9179:9200  4 * cUSDDecimalPlaces */\n      tag_248\n      swap1\n        /* \"smart-contracts/classroom/main/Canvassing.sol\":9179:9180  4 */\n      0x04\n        /* \"smart-contracts/classroom/main/Canvassing.sol\":9179:9200  4 * cUSDDecimalPlaces */\n      tag_241\n      jump\t// in\n    tag_248:\n        /* \"smart-contracts/classroom/main/Canvassing.sol\":9142:9201  potentialFundingOfAnySurveyInWei += (4 * cUSDDecimalPlaces) */\n      tag_249\n      swap1\n      dup3\n      tag_243\n      jump\t// in\n    tag_249:\n      swap1\n      pop\n        /* \"smart-contracts/classroom/main/Canvassing.sol\":9090:9212  if (_targetNumberOfParticipants == 7) {... */\n    tag_247:\n        /* \"smart-contracts/classroom/main/Canvassing.sol\":9226:9253  _targetNumberOfParticipants */\n      dup3\n        /* \"smart-contracts/classroom/main/Canvassing.sol\":9257:9258  9 */\n      0x09\n        /* \"smart-contracts/classroom/main/Canvassing.sol\":9226:9258  _targetNumberOfParticipants == 9 */\n      sub\n        /* \"smart-contracts/classroom/main/Canvassing.sol\":9222:9344  if (_targetNumberOfParticipants == 9) {... */\n      tag_250\n      jumpi\n        /* \"smart-contracts/classroom/main/Canvassing.sol\":9315:9332  cUSDDecimalPlaces */\n      sload(0x16)\n        /* \"smart-contracts/classroom/main/Canvassing.sol\":9311:9332  6 * cUSDDecimalPlaces */\n      tag_251\n      swap1\n        /* \"smart-contracts/classroom/main/Canvassing.sol\":9311:9312  6 */\n      0x06\n        /* \"smart-contracts/classroom/main/Canvassing.sol\":9311:9332  6 * cUSDDecimalPlaces */\n      tag_241\n      jump\t// in\n    tag_251:\n        /* \"smart-contracts/classroom/main/Canvassing.sol\":9274:9333  potentialFundingOfAnySurveyInWei += (6 * cUSDDecimalPlaces) */\n      tag_252\n      swap1\n      dup3\n      tag_243\n      jump\t// in\n    tag_252:\n      swap1\n      pop\n        /* \"smart-contracts/classroom/main/Canvassing.sol\":9222:9344  if (_targetNumberOfParticipants == 9) {... */\n    tag_250:\n        /* \"smart-contracts/classroom/main/Canvassing.sol\":9361:9393  potentialFundingOfAnySurveyInWei */\n      swap1\n      pop\n        /* \"smart-contracts/classroom/main/Canvassing.sol\":8476:9400  function getAmountOfFundingOfAnySurveyInWei(... */\n    tag_239:\n      swap3\n      swap2\n      pop\n      pop\n      jump\t// out\n        /* \"smart-contracts/classroom/main/Canvassing.sol\":14527:14711  function getResearcherByWalletAddress(address _walletAddress)... */\n    tag_61:\n        /* \"smart-contracts/classroom/main/Canvassing.sol\":14634:14651  Researcher memory */\n      tag_253\n      tag_254\n      jump\t// in\n    tag_253:\n      sub(shl(0xa0, 0x01), 0x01)\n        /* \"smart-contracts/classroom/main/Canvassing.sol\":14674:14704  allResearchers[_walletAddress] */\n      dup1\n      dup4\n      and\n      0x00\n      swap1\n      dup2\n      mstore\n        /* \"smart-contracts/classroom/main/Canvassing.sol\":14674:14688  allResearchers */\n      0x01\n        /* \"smart-contracts/classroom/main/Canvassing.sol\":14674:14704  allResearchers[_walletAddress] */\n      0x20\n      dup2\n      dup2\n      mstore\n      0x40\n      swap3\n      dup4\n      swap1\n      keccak256\n        /* \"smart-contracts/classroom/main/Canvassing.sol\":14667:14704  return allResearchers[_walletAddress] */\n      dup4\n      mload\n      0x0100\n      dup2\n      add\n      dup6\n      mstore\n      dup2\n      sload\n      dup2\n      mstore\n      swap3\n      dup2\n      add\n      sload\n      swap1\n      swap5\n      and\n      swap1\n      dup3\n      add\n      mstore\n      0x02\n      dup4\n      add\n      dup1\n      sload\n      swap2\n      swap4\n        /* \"smart-contracts/classroom/main/Canvassing.sol\":14674:14704  allResearchers[_walletAddress] */\n      swap3\n        /* \"smart-contracts/classroom/main/Canvassing.sol\":14667:14704  return allResearchers[_walletAddress] */\n      dup5\n      add\n      swap2\n      tag_256\n      swap1\n      tag_257\n      jump\t// in\n    tag_256:\n      dup1\n      0x1f\n      add\n      0x20\n      dup1\n      swap2\n      div\n      mul\n      0x20\n      add\n      mload(0x40)\n      swap1\n      dup2\n      add\n      0x40\n      mstore\n      dup1\n      swap3\n      swap2\n      swap1\n      dup2\n      dup2\n      mstore\n      0x20\n      add\n      dup3\n      dup1\n      sload\n      tag_258\n      swap1\n      tag_257\n      jump\t// in\n    tag_258:\n      dup1\n      iszero\n      tag_259\n      jumpi\n      dup1\n      0x1f\n      lt\n      tag_260\n      jumpi\n      0x0100\n      dup1\n      dup4\n      sload\n      div\n      mul\n      dup4\n      mstore\n      swap2\n      0x20\n      add\n      swap2\n      jump(tag_259)\n    tag_260:\n      dup3\n      add\n      swap2\n      swap1\n      0x00\n      mstore\n      keccak256(0x00, 0x20)\n      swap1\n    tag_261:\n      dup2\n      sload\n      dup2\n      mstore\n      swap1\n      0x01\n      add\n      swap1\n      0x20\n      add\n      dup1\n      dup4\n      gt\n      tag_261\n      jumpi\n      dup3\n      swap1\n      sub\n      0x1f\n      and\n      dup3\n      add\n      swap2\n    tag_259:\n      pop\n      pop\n      pop\n      pop\n      pop\n      dup2\n      mstore\n      0x20\n      add\n      0x03\n      dup3\n      add\n      dup1\n      sload\n      tag_262\n      swap1\n      tag_257\n      jump\t// in\n    tag_262:\n      dup1\n      0x1f\n      add\n      0x20\n      dup1\n      swap2\n      div\n      mul\n      0x20\n      add\n      mload(0x40)\n      swap1\n      dup2\n      add\n      0x40\n      mstore\n      dup1\n      swap3\n      swap2\n      swap1\n      dup2\n      dup2\n      mstore\n      0x20\n      add\n      dup3\n      dup1\n      sload\n      tag_263\n      swap1\n      tag_257\n      jump\t// in\n    tag_263:\n      dup1\n      iszero\n      tag_264\n      jumpi\n      dup1\n      0x1f\n      lt\n      tag_265\n      jumpi\n      0x0100\n      dup1\n      dup4\n      sload\n      div\n      mul\n      dup4\n      mstore\n      swap2\n      0x20\n      add\n      swap2\n      jump(tag_264)\n    tag_265:\n      dup3\n      add\n      swap2\n      swap1\n      0x00\n      mstore\n      keccak256(0x00, 0x20)\n      swap1\n    tag_266:\n      dup2\n      sload\n      dup2\n      mstore\n      swap1\n      0x01\n      add\n      swap1\n      0x20\n      add\n      dup1\n      dup4\n      gt\n      tag_266\n      jumpi\n      dup3\n      swap1\n      sub\n      0x1f\n      and\n      dup3\n      add\n      swap2\n    tag_264:\n      pop\n      pop\n      pop\n      pop\n      pop\n      dup2\n      mstore\n      0x20\n      add\n      0x04\n      dup3\n      add\n      dup1\n      sload\n      tag_267\n      swap1\n      tag_257\n      jump\t// in\n    tag_267:\n      dup1\n      0x1f\n      add\n      0x20\n      dup1\n      swap2\n      div\n      mul\n      0x20\n      add\n      mload(0x40)\n      swap1\n      dup2\n      add\n      0x40\n      mstore\n      dup1\n      swap3\n      swap2\n      swap1\n      dup2\n      dup2\n      mstore\n      0x20\n      add\n      dup3\n      dup1\n      sload\n      tag_268\n      swap1\n      tag_257\n      jump\t// in\n    tag_268:\n      dup1\n      iszero\n      tag_269\n      jumpi\n      dup1\n      0x1f\n      lt\n      tag_270\n      jumpi\n      0x0100\n      dup1\n      dup4\n      sload\n      div\n      mul\n      dup4\n      mstore\n      swap2\n      0x20\n      add\n      swap2\n      jump(tag_269)\n    tag_270:\n      dup3\n      add\n      swap2\n      swap1\n      0x00\n      mstore\n      keccak256(0x00, 0x20)\n      swap1\n    tag_271:\n      dup2\n      sload\n      dup2\n      mstore\n      swap1\n      0x01\n      add\n      swap1\n      0x20\n      add\n      dup1\n      dup4\n      gt\n      tag_271\n      jumpi\n      dup3\n      swap1\n      sub\n      0x1f\n      and\n      dup3\n      add\n      swap2\n    tag_269:\n      pop\n      pop\n      pop\n      swap2\n      dup4\n      mstore\n      pop\n      pop\n      0x05\n      swap2\n      swap1\n      swap2\n      add\n      sload\n      0xff\n      dup1\n      dup3\n      and\n      iszero\n      iszero\n      0x20\n      dup5\n      add\n      mstore\n      0x0100\n      dup3\n      div\n      dup2\n      and\n      iszero\n      iszero\n      0x40\n      dup5\n      add\n      mstore\n      0x010000\n      swap1\n      swap2\n      div\n      and\n      iszero\n      iszero\n      0x60\n      swap1\n      swap2\n      add\n      mstore\n      swap3\n        /* \"smart-contracts/classroom/main/Canvassing.sol\":14527:14711  function getResearcherByWalletAddress(address _walletAddress)... */\n      swap2\n      pop\n      pop\n      jump\t// out\n        /* \"smart-contracts/classroom/main/Canvassing.sol\":16444:17500  function getSurveysCreatedByResearcher(address _researcherWalletAddress)... */\n    tag_66:\n      sub(shl(0xa0, 0x01), 0x01)\n        /* \"smart-contracts/classroom/main/Canvassing.sol\":16643:16739  totalNumberOfSurveysCreatedByResearchers[... */\n      dup2\n      and\n        /* \"smart-contracts/classroom/main/Canvassing.sol\":16593:16640  uint256 totalNumberOfSurveysCreatedByResearcher */\n      0x00\n        /* \"smart-contracts/classroom/main/Canvassing.sol\":16643:16739  totalNumberOfSurveysCreatedByResearchers[... */\n      swap1\n      dup2\n      mstore\n        /* \"smart-contracts/classroom/main/Canvassing.sol\":16643:16683  totalNumberOfSurveysCreatedByResearchers */\n      0x08\n        /* \"smart-contracts/classroom/main/Canvassing.sol\":16643:16739  totalNumberOfSurveysCreatedByResearchers[... */\n      0x20\n      mstore\n      0x40\n      dup2\n      keccak256\n      sload\n        /* \"smart-contracts/classroom/main/Canvassing.sol\":16562:16577  Survey[] memory */\n      0x60\n      swap2\n        /* \"smart-contracts/classroom/main/Canvassing.sol\":16643:16739  totalNumberOfSurveysCreatedByResearchers[... */\n      dup2\n      sub(shl(0x40, 0x01), 0x01)\n        /* \"smart-contracts/classroom/main/Canvassing.sol\":16798:16873  new Survey[](... */\n      dup2\n      gt\n      iszero\n      tag_274\n      jumpi\n      tag_274\n      tag_275\n      jump\t// in\n    tag_274:\n      mload(0x40)\n      swap1\n      dup1\n      dup3\n      mstore\n      dup1\n      0x20\n      mul\n      0x20\n      add\n      dup3\n      add\n      0x40\n      mstore\n      dup1\n      iszero\n      tag_276\n      jumpi\n      dup2\n      0x20\n      add\n    tag_277:\n      tag_278\n      tag_279\n      jump\t// in\n    tag_278:\n      dup2\n      mstore\n      0x20\n      add\n      swap1\n      0x01\n      swap1\n      sub\n      swap1\n      dup2\n      tag_277\n      jumpi\n      swap1\n      pop\n    tag_276:\n      pop\n        /* \"smart-contracts/classroom/main/Canvassing.sol\":16750:16873  Survey[] memory allSurveysCreatedByResearcher = new Survey[](... */\n      swap1\n      pop\n        /* \"smart-contracts/classroom/main/Canvassing.sol\":16884:16903  uint256 surveyIndex */\n      0x00\n        /* \"smart-contracts/classroom/main/Canvassing.sol\":16923:16939  uint256 surveyId */\n      dup1\n        /* \"smart-contracts/classroom/main/Canvassing.sol\":16918:17447  for (uint256 surveyId = 0; surveyId < allSurveys.length; surveyId++) {... */\n    tag_280:\n        /* \"smart-contracts/classroom/main/Canvassing.sol\":16956:16966  allSurveys */\n      0x03\n        /* \"smart-contracts/classroom/main/Canvassing.sol\":16956:16973  allSurveys.length */\n      sload\n        /* \"smart-contracts/classroom/main/Canvassing.sol\":16945:16973  surveyId < allSurveys.length */\n      dup2\n      lt\n        /* \"smart-contracts/classroom/main/Canvassing.sol\":16918:17447  for (uint256 surveyId = 0; surveyId < allSurveys.length; surveyId++) {... */\n      iszero\n      tag_281\n      jumpi\n        /* \"smart-contracts/classroom/main/Canvassing.sol\":17001:17028  Survey memory runningSurvey */\n      0x00\n        /* \"smart-contracts/classroom/main/Canvassing.sol\":17031:17041  allSurveys */\n      0x03\n        /* \"smart-contracts/classroom/main/Canvassing.sol\":17042:17050  surveyId */\n      dup3\n        /* \"smart-contracts/classroom/main/Canvassing.sol\":17031:17051  allSurveys[surveyId] */\n      dup2\n      sload\n      dup2\n      lt\n      tag_284\n      jumpi\n      tag_284\n      tag_285\n      jump\t// in\n    tag_284:\n      swap1\n      0x00\n      mstore\n      keccak256(0x00, 0x20)\n      swap1\n      0x07\n      mul\n      add\n        /* \"smart-contracts/classroom/main/Canvassing.sol\":17001:17051  Survey memory runningSurvey = allSurveys[surveyId] */\n      mload(0x40)\n      dup1\n      0xe0\n      add\n      0x40\n      mstore\n      swap1\n      dup2\n      0x00\n      dup3\n      add\n      sload\n      dup2\n      mstore\n      0x20\n      add\n      0x01\n      dup3\n      add\n      0x00\n      swap1\n      sload\n      swap1\n      0x0100\n      exp\n      swap1\n      div\n      sub(shl(0xa0, 0x01), 0x01)\n      and\n      sub(shl(0xa0, 0x01), 0x01)\n      and\n      sub(shl(0xa0, 0x01), 0x01)\n      and\n      dup2\n      mstore\n      0x20\n      add\n      0x02\n      dup3\n      add\n      dup1\n      sload\n      tag_287\n      swap1\n      tag_257\n      jump\t// in\n    tag_287:\n      dup1\n      0x1f\n      add\n      0x20\n      dup1\n      swap2\n      div\n      mul\n      0x20\n      add\n      mload(0x40)\n      swap1\n      dup2\n      add\n      0x40\n      mstore\n      dup1\n      swap3\n      swap2\n      swap1\n      dup2\n      dup2\n      mstore\n      0x20\n      add\n      dup3\n      dup1\n      sload\n      tag_288\n      swap1\n      tag_257\n      jump\t// in\n    tag_288:\n      dup1\n      iszero\n      tag_289\n      jumpi\n      dup1\n      0x1f\n      lt\n      tag_290\n      jumpi\n      0x0100\n      dup1\n      dup4\n      sload\n      div\n      mul\n      dup4\n      mstore\n      swap2\n      0x20\n      add\n      swap2\n      jump(tag_289)\n    tag_290:\n      dup3\n      add\n      swap2\n      swap1\n      0x00\n      mstore\n      keccak256(0x00, 0x20)\n      swap1\n    tag_291:\n      dup2\n      sload\n      dup2\n      mstore\n      swap1\n      0x01\n      add\n      swap1\n      0x20\n      add\n      dup1\n      dup4\n      gt\n      tag_291\n      jumpi\n      dup3\n      swap1\n      sub\n      0x1f\n      and\n      dup3\n      add\n      swap2\n    tag_289:\n      pop\n      pop\n      pop\n      swap2\n      dup4\n      mstore\n      pop\n      pop\n      0x03\n      dup3\n      add\n      sload\n      0x20\n      dup1\n      dup4\n      add\n      swap2\n      swap1\n      swap2\n      mstore\n      0x04\n      dup4\n      add\n      sload\n      0x40\n      dup4\n      add\n      mstore\n      0x05\n      dup4\n      add\n      sload\n      0x60\n      dup4\n      add\n      mstore\n      0x06\n      swap1\n      swap3\n      add\n      sload\n      0xff\n      and\n      iszero\n      iszero\n      0x80\n      swap1\n      swap2\n      add\n      mstore\n        /* \"smart-contracts/classroom/main/Canvassing.sol\":17087:17132  runningSurvey.creatingResearcherWalletAddress */\n      dup2\n      add\n      mload\n        /* \"smart-contracts/classroom/main/Canvassing.sol\":17001:17051  Survey memory runningSurvey = allSurveys[surveyId] */\n      swap1\n      swap2\n      pop\n      sub(shl(0xa0, 0x01), 0x01)\n        /* \"smart-contracts/classroom/main/Canvassing.sol\":17087:17176  runningSurvey.creatingResearcherWalletAddress ==... */\n      dup1\n      dup10\n      and\n      swap2\n      and\n      sub\n        /* \"smart-contracts/classroom/main/Canvassing.sol\":17066:17437  if (... */\n      tag_297\n      jumpi\n        /* \"smart-contracts/classroom/main/Canvassing.sol\":17254:17267  runningSurvey */\n      dup1\n        /* \"smart-contracts/classroom/main/Canvassing.sol\":17209:17238  allSurveysCreatedByResearcher */\n      dup5\n        /* \"smart-contracts/classroom/main/Canvassing.sol\":17239:17250  surveyIndex */\n      dup5\n        /* \"smart-contracts/classroom/main/Canvassing.sol\":17209:17251  allSurveysCreatedByResearcher[surveyIndex] */\n      dup2\n      mload\n      dup2\n      lt\n      tag_294\n      jumpi\n      tag_294\n      tag_285\n      jump\t// in\n    tag_294:\n      0x20\n      mul\n      0x20\n      add\n      add\n        /* \"smart-contracts/classroom/main/Canvassing.sol\":17209:17267  allSurveysCreatedByResearcher[surveyIndex] = runningSurvey */\n      dup2\n      swap1\n      mstore\n      pop\n        /* \"smart-contracts/classroom/main/Canvassing.sol\":17285:17298  surveyIndex++ */\n      dup3\n      dup1\n      tag_295\n      swap1\n      tag_296\n      jump\t// in\n    tag_295:\n      swap4\n      pop\n      pop\n        /* \"smart-contracts/classroom/main/Canvassing.sol\":17336:17375  totalNumberOfSurveysCreatedByResearcher */\n      dup5\n        /* \"smart-contracts/classroom/main/Canvassing.sol\":17321:17332  surveyIndex */\n      dup4\n        /* \"smart-contracts/classroom/main/Canvassing.sol\":17321:17375  surveyIndex == totalNumberOfSurveysCreatedByResearcher */\n      sub\n        /* \"smart-contracts/classroom/main/Canvassing.sol\":17317:17423  if (surveyIndex == totalNumberOfSurveysCreatedByResearcher) {... */\n      tag_297\n      jumpi\n        /* \"smart-contracts/classroom/main/Canvassing.sol\":17399:17404  break */\n      pop\n      jump(tag_281)\n        /* \"smart-contracts/classroom/main/Canvassing.sol\":17317:17423  if (surveyIndex == totalNumberOfSurveysCreatedByResearcher) {... */\n    tag_297:\n      pop\n        /* \"smart-contracts/classroom/main/Canvassing.sol\":16975:16985  surveyId++ */\n      dup1\n      tag_298\n      dup2\n      tag_296\n      jump\t// in\n    tag_298:\n      swap2\n      pop\n      pop\n        /* \"smart-contracts/classroom/main/Canvassing.sol\":16918:17447  for (uint256 surveyId = 0; surveyId < allSurveys.length; surveyId++) {... */\n      jump(tag_280)\n    tag_281:\n      pop\n        /* \"smart-contracts/classroom/main/Canvassing.sol\":17464:17493  allSurveysCreatedByResearcher */\n      swap1\n      swap5\n        /* \"smart-contracts/classroom/main/Canvassing.sol\":16444:17500  function getSurveysCreatedByResearcher(address _researcherWalletAddress)... */\n      swap4\n      pop\n      pop\n      pop\n      pop\n      jump\t// out\n        /* \"smart-contracts/classroom/main/Canvassing.sol\":1486:1547  mapping(uint256 => Participant[]) public participantsOfSurvey */\n    tag_71:\n      mstore(0x20, 0x0b)\n      dup2\n      0x00\n      mstore\n      keccak256(0x00, 0x40)\n      dup2\n      dup2\n      sload\n      dup2\n      lt\n      tag_299\n      jumpi\n      0x00\n      dup1\n      revert\n    tag_299:\n      0x00\n      swap2\n      dup3\n      mstore\n      0x20\n      swap1\n      swap2\n      keccak256\n      0x07\n      swap1\n      swap2\n      mul\n      add\n      dup1\n      sload\n      0x01\n      dup3\n      add\n      sload\n      0x02\n      dup4\n      add\n      dup1\n      sload\n      swap3\n      swap6\n      pop\n      sub(shl(0xa0, 0x01), 0x01)\n      swap1\n      swap2\n      and\n      swap4\n      pop\n      swap1\n      tag_301\n      swap1\n      tag_257\n      jump\t// in\n    tag_301:\n      dup1\n      0x1f\n      add\n      0x20\n      dup1\n      swap2\n      div\n      mul\n      0x20\n      add\n      mload(0x40)\n      swap1\n      dup2\n      add\n      0x40\n      mstore\n      dup1\n      swap3\n      swap2\n      swap1\n      dup2\n      dup2\n      mstore\n      0x20\n      add\n      dup3\n      dup1\n      sload\n      tag_302\n      swap1\n      tag_257\n      jump\t// in\n    tag_302:\n      dup1\n      iszero\n      tag_303\n      jumpi\n      dup1\n      0x1f\n      lt\n      tag_304\n      jumpi\n      0x0100\n      dup1\n      dup4\n      sload\n      div\n      mul\n      dup4\n      mstore\n      swap2\n      0x20\n      add\n      swap2\n      jump(tag_303)\n    tag_304:\n      dup3\n      add\n      swap2\n      swap1\n      0x00\n      mstore\n      keccak256(0x00, 0x20)\n      swap1\n    tag_305:\n      dup2\n      sload\n      dup2\n      mstore\n      swap1\n      0x01\n      add\n      swap1\n      0x20\n      add\n      dup1\n      dup4\n      gt\n      tag_305\n      jumpi\n      dup3\n      swap1\n      sub\n      0x1f\n      and\n      dup3\n      add\n      swap2\n    tag_303:\n      pop\n      pop\n      pop\n      pop\n      pop\n      swap1\n      dup1\n      0x03\n      add\n      dup1\n      sload\n      tag_306\n      swap1\n      tag_257\n      jump\t// in\n    tag_306:\n      dup1\n      0x1f\n      add\n      0x20\n      dup1\n      swap2\n      div\n      mul\n      0x20\n      add\n      mload(0x40)\n      swap1\n      dup2\n      add\n      0x40\n      mstore\n      dup1\n      swap3\n      swap2\n      swap1\n      dup2\n      dup2\n      mstore\n      0x20\n      add\n      dup3\n      dup1\n      sload\n      tag_307\n      swap1\n      tag_257\n      jump\t// in\n    tag_307:\n      dup1\n      iszero\n      tag_308\n      jumpi\n      dup1\n      0x1f\n      lt\n      tag_309\n      jumpi\n      0x0100\n      dup1\n      dup4\n      sload\n      div\n      mul\n      dup4\n      mstore\n      swap2\n      0x20\n      add\n      swap2\n      jump(tag_308)\n    tag_309:\n      dup3\n      add\n      swap2\n      swap1\n      0x00\n      mstore\n      keccak256(0x00, 0x20)\n      swap1\n    tag_310:\n      dup2\n      sload\n      dup2\n      mstore\n      swap1\n      0x01\n      add\n      swap1\n      0x20\n      add\n      dup1\n      dup4\n      gt\n      tag_310\n      jumpi\n      dup3\n      swap1\n      sub\n      0x1f\n      and\n      dup3\n      add\n      swap2\n    tag_308:\n      pop\n      pop\n      pop\n      pop\n      0x04\n      dup4\n      add\n      sload\n      0x05\n      dup5\n      add\n      sload\n      0x06\n      swap1\n      swap5\n      add\n      sload\n      swap3\n      swap4\n      swap1\n      swap3\n      swap1\n      swap2\n      pop\n      0xff\n      dup1\n      dup3\n      and\n      swap2\n      0x0100\n      swap1\n      div\n      and\n      dup9\n      jump\t// out\n        /* \"smart-contracts/classroom/main/Canvassing.sol\":568:594  Survey[] public allSurveys */\n    tag_77:\n      0x03\n      dup2\n      dup2\n      sload\n      dup2\n      lt\n      tag_311\n      jumpi\n      0x00\n      dup1\n      revert\n    tag_311:\n      0x00\n      swap2\n      dup3\n      mstore\n      0x20\n      swap1\n      swap2\n      keccak256\n      0x07\n      swap1\n      swap2\n      mul\n      add\n      dup1\n      sload\n      0x01\n      dup3\n      add\n      sload\n      0x02\n      dup4\n      add\n      dup1\n      sload\n      swap3\n      swap5\n      pop\n      sub(shl(0xa0, 0x01), 0x01)\n      swap1\n      swap2\n      and\n      swap3\n      swap2\n      tag_313\n      swap1\n      tag_257\n      jump\t// in\n    tag_313:\n      dup1\n      0x1f\n      add\n      0x20\n      dup1\n      swap2\n      div\n      mul\n      0x20\n      add\n      mload(0x40)\n      swap1\n      dup2\n      add\n      0x40\n      mstore\n      dup1\n      swap3\n      swap2\n      swap1\n      dup2\n      dup2\n      mstore\n      0x20\n      add\n      dup3\n      dup1\n      sload\n      tag_314\n      swap1\n      tag_257\n      jump\t// in\n    tag_314:\n      dup1\n      iszero\n      tag_315\n      jumpi\n      dup1\n      0x1f\n      lt\n      tag_316\n      jumpi\n      0x0100\n      dup1\n      dup4\n      sload\n      div\n      mul\n      dup4\n      mstore\n      swap2\n      0x20\n      add\n      swap2\n      jump(tag_315)\n    tag_316:\n      dup3\n      add\n      swap2\n      swap1\n      0x00\n      mstore\n      keccak256(0x00, 0x20)\n      swap1\n    tag_317:\n      dup2\n      sload\n      dup2\n      mstore\n      swap1\n      0x01\n      add\n      swap1\n      0x20\n      add\n      dup1\n      dup4\n      gt\n      tag_317\n      jumpi\n      dup3\n      swap1\n      sub\n      0x1f\n      and\n      dup3\n      add\n      swap2\n    tag_315:\n      pop\n      pop\n      pop\n      pop\n      0x03\n      dup4\n      add\n      sload\n      0x04\n      dup5\n      add\n      sload\n      0x05\n      dup6\n      add\n      sload\n      0x06\n      swap1\n      swap6\n      add\n      sload\n      swap4\n      swap5\n      swap2\n      swap4\n      swap1\n      swap3\n      pop\n      0xff\n      and\n      dup8\n      jump\t// out\n        /* \"smart-contracts/classroom/main/Canvassing.sol\":9406:10112  function getAmountOfEarningPerParticipantForSurveyInWei(uint256 _surveyId)... */\n    tag_82:\n        /* \"smart-contracts/classroom/main/Canvassing.sol\":9526:9533  uint256 */\n      0x00\n        /* \"smart-contracts/classroom/main/Canvassing.sol\":9549:9576  Survey memory currentSurvey */\n      dup1\n        /* \"smart-contracts/classroom/main/Canvassing.sol\":9579:9589  allSurveys */\n      0x03\n        /* \"smart-contracts/classroom/main/Canvassing.sol\":9590:9599  _surveyId */\n      dup4\n        /* \"smart-contracts/classroom/main/Canvassing.sol\":9579:9600  allSurveys[_surveyId] */\n      dup2\n      sload\n      dup2\n      lt\n      tag_320\n      jumpi\n      tag_320\n      tag_285\n      jump\t// in\n    tag_320:\n      swap1\n      0x00\n      mstore\n      keccak256(0x00, 0x20)\n      swap1\n      0x07\n      mul\n      add\n        /* \"smart-contracts/classroom/main/Canvassing.sol\":9549:9600  Survey memory currentSurvey = allSurveys[_surveyId] */\n      mload(0x40)\n      dup1\n      0xe0\n      add\n      0x40\n      mstore\n      swap1\n      dup2\n      0x00\n      dup3\n      add\n      sload\n      dup2\n      mstore\n      0x20\n      add\n      0x01\n      dup3\n      add\n      0x00\n      swap1\n      sload\n      swap1\n      0x0100\n      exp\n      swap1\n      div\n      sub(shl(0xa0, 0x01), 0x01)\n      and\n      sub(shl(0xa0, 0x01), 0x01)\n      and\n      sub(shl(0xa0, 0x01), 0x01)\n      and\n      dup2\n      mstore\n      0x20\n      add\n      0x02\n      dup3\n      add\n      dup1\n      sload\n      tag_322\n      swap1\n      tag_257\n      jump\t// in\n    tag_322:\n      dup1\n      0x1f\n      add\n      0x20\n      dup1\n      swap2\n      div\n      mul\n      0x20\n      add\n      mload(0x40)\n      swap1\n      dup2\n      add\n      0x40\n      mstore\n      dup1\n      swap3\n      swap2\n      swap1\n      dup2\n      dup2\n      mstore\n      0x20\n      add\n      dup3\n      dup1\n      sload\n      tag_323\n      swap1\n      tag_257\n      jump\t// in\n    tag_323:\n      dup1\n      iszero\n      tag_324\n      jumpi\n      dup1\n      0x1f\n      lt\n      tag_325\n      jumpi\n      0x0100\n      dup1\n      dup4\n      sload\n      div\n      mul\n      dup4\n      mstore\n      swap2\n      0x20\n      add\n      swap2\n      jump(tag_324)\n    tag_325:\n      dup3\n      add\n      swap2\n      swap1\n      0x00\n      mstore\n      keccak256(0x00, 0x20)\n      swap1\n    tag_326:\n      dup2\n      sload\n      dup2\n      mstore\n      swap1\n      0x01\n      add\n      swap1\n      0x20\n      add\n      dup1\n      dup4\n      gt\n      tag_326\n      jumpi\n      dup3\n      swap1\n      sub\n      0x1f\n      and\n      dup3\n      add\n      swap2\n    tag_324:\n      pop\n      pop\n      pop\n      swap2\n      dup4\n      mstore\n      pop\n      pop\n      0x03\n      dup3\n      add\n      sload\n      0x20\n      dup3\n      add\n      mstore\n      0x04\n      dup3\n      add\n      sload\n      0x40\n      dup3\n      add\n      mstore\n      0x05\n      dup1\n      dup4\n      add\n      sload\n      0x60\n      dup4\n      add\n      mstore\n      0x06\n      swap1\n      swap3\n      add\n      sload\n      0xff\n      and\n      iszero\n      iszero\n      0x80\n      swap2\n      dup3\n      add\n      mstore\n        /* \"smart-contracts/classroom/main/Canvassing.sol\":9648:9679  currentSurvey.amountFundedInWei */\n      0xa0\n      dup4\n      add\n      mload\n        /* \"smart-contracts/classroom/main/Canvassing.sol\":9726:9779  currentSurvey... */\n      swap1\n      dup4\n      add\n      mload\n        /* \"smart-contracts/classroom/main/Canvassing.sol\":9549:9600  Survey memory currentSurvey = allSurveys[_surveyId] */\n      swap3\n      swap4\n      pop\n        /* \"smart-contracts/classroom/main/Canvassing.sol\":9648:9679  currentSurvey.amountFundedInWei */\n      swap2\n        /* \"smart-contracts/classroom/main/Canvassing.sol\":9726:9779  currentSurvey... */\n      swap1\n      0x00\n      swap1\n        /* \"smart-contracts/classroom/main/Canvassing.sol\":9892:9894  10 */\n      0x0a\n      swap1\n        /* \"smart-contracts/classroom/main/Canvassing.sol\":9842:9888  amountFundedInWeiForSurvey *... */\n      tag_327\n      swap1\n        /* \"smart-contracts/classroom/main/Canvassing.sol\":9648:9679  currentSurvey.amountFundedInWei */\n      dup6\n      swap1\n        /* \"smart-contracts/classroom/main/Canvassing.sol\":9842:9888  amountFundedInWeiForSurvey *... */\n      tag_241\n      jump\t// in\n    tag_327:\n        /* \"smart-contracts/classroom/main/Canvassing.sol\":9841:9894  (amountFundedInWeiForSurvey *... */\n      tag_328\n      swap2\n      swap1\n      tag_329\n      jump\t// in\n    tag_328:\n        /* \"smart-contracts/classroom/main/Canvassing.sol\":9790:9894  uint256 participantRevenueSharingPoolAmountInWei = (amountFundedInWeiForSurvey *... */\n      swap1\n      pop\n        /* \"smart-contracts/classroom/main/Canvassing.sol\":9905:9956  uint256 amountOfEarningPerParticipantForSurveyInWei */\n      0x00\n        /* \"smart-contracts/classroom/main/Canvassing.sol\":9959:10044  participantRevenueSharingPoolAmountInWei /... */\n      tag_330\n        /* \"smart-contracts/classroom/main/Canvassing.sol\":10018:10044  targetNumberOfParticipants */\n      dup4\n        /* \"smart-contracts/classroom/main/Canvassing.sol\":9790:9894  uint256 participantRevenueSharingPoolAmountInWei = (amountFundedInWeiForSurvey *... */\n      dup4\n        /* \"smart-contracts/classroom/main/Canvassing.sol\":9959:10044  participantRevenueSharingPoolAmountInWei /... */\n      tag_329\n      jump\t// in\n    tag_330:\n        /* \"smart-contracts/classroom/main/Canvassing.sol\":9905:10044  uint256 amountOfEarningPerParticipantForSurveyInWei = participantRevenueSharingPoolAmountInWei /... */\n      swap8\n        /* \"smart-contracts/classroom/main/Canvassing.sol\":9406:10112  function getAmountOfEarningPerParticipantForSurveyInWei(uint256 _surveyId)... */\n      swap7\n      pop\n      pop\n      pop\n      pop\n      pop\n      pop\n      pop\n      jump\t// out\n        /* \"smart-contracts/classroom/main/Canvassing.sol\":6981:8201  function getAllAnswersOfParticipantOfSurvey(... */\n    tag_87:\n        /* \"smart-contracts/classroom/main/Canvassing.sol\":7122:7137  Answer[] memory */\n      0x60\n        /* \"smart-contracts/classroom/main/Canvassing.sol\":7149:7176  Survey memory currentSurvey */\n      0x00\n        /* \"smart-contracts/classroom/main/Canvassing.sol\":7179:7189  allSurveys */\n      0x03\n        /* \"smart-contracts/classroom/main/Canvassing.sol\":7190:7199  _surveyId */\n      dup5\n        /* \"smart-contracts/classroom/main/Canvassing.sol\":7179:7200  allSurveys[_surveyId] */\n      dup2\n      sload\n      dup2\n      lt\n      tag_333\n      jumpi\n      tag_333\n      tag_285\n      jump\t// in\n    tag_333:\n      swap1\n      0x00\n      mstore\n      keccak256(0x00, 0x20)\n      swap1\n      0x07\n      mul\n      add\n        /* \"smart-contracts/classroom/main/Canvassing.sol\":7149:7200  Survey memory currentSurvey = allSurveys[_surveyId] */\n      mload(0x40)\n      dup1\n      0xe0\n      add\n      0x40\n      mstore\n      swap1\n      dup2\n      0x00\n      dup3\n      add\n      sload\n      dup2\n      mstore\n      0x20\n      add\n      0x01\n      dup3\n      add\n      0x00\n      swap1\n      sload\n      swap1\n      0x0100\n      exp\n      swap1\n      div\n      sub(shl(0xa0, 0x01), 0x01)\n      and\n      sub(shl(0xa0, 0x01), 0x01)\n      and\n      sub(shl(0xa0, 0x01), 0x01)\n      and\n      dup2\n      mstore\n      0x20\n      add\n      0x02\n      dup3\n      add\n      dup1\n      sload\n      tag_335\n      swap1\n      tag_257\n      jump\t// in\n    tag_335:\n      dup1\n      0x1f\n      add\n      0x20\n      dup1\n      swap2\n      div\n      mul\n      0x20\n      add\n      mload(0x40)\n      swap1\n      dup2\n      add\n      0x40\n      mstore\n      dup1\n      swap3\n      swap2\n      swap1\n      dup2\n      dup2\n      mstore\n      0x20\n      add\n      dup3\n      dup1\n      sload\n      tag_336\n      swap1\n      tag_257\n      jump\t// in\n    tag_336:\n      dup1\n      iszero\n      tag_337\n      jumpi\n      dup1\n      0x1f\n      lt\n      tag_338\n      jumpi\n      0x0100\n      dup1\n      dup4\n      sload\n      div\n      mul\n      dup4\n      mstore\n      swap2\n      0x20\n      add\n      swap2\n      jump(tag_337)\n    tag_338:\n      dup3\n      add\n      swap2\n      swap1\n      0x00\n      mstore\n      keccak256(0x00, 0x20)\n      swap1\n    tag_339:\n      dup2\n      sload\n      dup2\n      mstore\n      swap1\n      0x01\n      add\n      swap1\n      0x20\n      add\n      dup1\n      dup4\n      gt\n      tag_339\n      jumpi\n      dup3\n      swap1\n      sub\n      0x1f\n      and\n      dup3\n      add\n      swap2\n    tag_337:\n      pop\n      pop\n      pop\n      pop\n      pop\n      dup2\n      mstore\n      0x20\n      add\n      0x03\n      dup3\n      add\n      sload\n      dup2\n      mstore\n      0x20\n      add\n      0x04\n      dup3\n      add\n      sload\n      dup2\n      mstore\n      0x20\n      add\n      0x05\n      dup3\n      add\n      sload\n      dup2\n      mstore\n      0x20\n      add\n      0x06\n      dup3\n      add\n      0x00\n      swap1\n      sload\n      swap1\n      0x0100\n      exp\n      swap1\n      div\n      0xff\n      and\n      iszero\n      iszero\n      iszero\n      iszero\n      dup2\n      mstore\n      pop\n      pop\n      swap1\n      pop\n        /* \"smart-contracts/classroom/main/Canvassing.sol\":7210:7244  Answer[] memory allAnswersOfSurvey */\n      0x00\n        /* \"smart-contracts/classroom/main/Canvassing.sol\":7247:7257  allAnswers */\n      0x05\n        /* \"smart-contracts/classroom/main/Canvassing.sol\":7247:7268  allAnswers[_surveyId] */\n      0x00\n        /* \"smart-contracts/classroom/main/Canvassing.sol\":7258:7267  _surveyId */\n      dup7\n        /* \"smart-contracts/classroom/main/Canvassing.sol\":7247:7268  allAnswers[_surveyId] */\n      dup2\n      mstore\n      0x20\n      add\n      swap1\n      dup2\n      mstore\n      0x20\n      add\n      0x00\n      keccak256\n        /* \"smart-contracts/classroom/main/Canvassing.sol\":7210:7268  Answer[] memory allAnswersOfSurvey = allAnswers[_surveyId] */\n      dup1\n      sload\n      dup1\n      0x20\n      mul\n      0x20\n      add\n      mload(0x40)\n      swap1\n      dup2\n      add\n      0x40\n      mstore\n      dup1\n      swap3\n      swap2\n      swap1\n      dup2\n      dup2\n      mstore\n      0x20\n      add\n      0x00\n      swap1\n    tag_340:\n      dup3\n      dup3\n      lt\n      iszero\n      tag_341\n      jumpi\n      0x00\n      dup5\n      dup2\n      mstore\n      0x20\n      swap1\n      dup2\n      swap1\n      keccak256\n      0x40\n      dup1\n      mload\n      0xc0\n      dup2\n      add\n      dup3\n      mstore\n      0x04\n      dup7\n      mul\n      swap1\n      swap3\n      add\n      dup1\n      sload\n      dup4\n      mstore\n      0x01\n      dup1\n      dup3\n      add\n      sload\n      dup5\n      dup7\n      add\n      mstore\n      0x02\n      dup3\n      add\n      sload\n      swap3\n      dup5\n      add\n      swap3\n      swap1\n      swap3\n      mstore\n      0x03\n      add\n      sload\n      sub(shl(0xa0, 0x01), 0x01)\n      dup2\n      and\n      0x60\n      dup5\n      add\n      mstore\n      0xff\n      shl(0xa0, 0x01)\n      dup3\n      div\n      dup2\n      and\n      iszero\n      iszero\n      0x80\n      dup6\n      add\n      mstore\n      shl(0xa8, 0x01)\n      swap1\n      swap2\n      div\n      and\n      iszero\n      iszero\n      0xa0\n      dup4\n      add\n      mstore\n      swap1\n      dup4\n      mstore\n      swap1\n      swap3\n      add\n      swap2\n      add\n      jump(tag_340)\n    tag_341:\n      pop\n      pop\n      pop\n      pop\n        /* \"smart-contracts/classroom/main/Canvassing.sol\":7331:7375  currentSurvey... */\n      0x60\n      dup4\n      add\n      mload\n        /* \"smart-contracts/classroom/main/Canvassing.sol\":7210:7268  Answer[] memory allAnswersOfSurvey = allAnswers[_surveyId] */\n      swap1\n      swap2\n      pop\n        /* \"smart-contracts/classroom/main/Canvassing.sol\":7279:7328  uint256 totalNumberOfAnswersOfParticipantOfSurvey */\n      0x00\n        /* \"smart-contracts/classroom/main/Canvassing.sol\":7331:7375  currentSurvey... */\n      dup2\n      sub(shl(0x40, 0x01), 0x01)\n        /* \"smart-contracts/classroom/main/Canvassing.sol\":7436:7513  new Answer[](... */\n      dup2\n      gt\n      iszero\n      tag_344\n      jumpi\n      tag_344\n      tag_275\n      jump\t// in\n    tag_344:\n      mload(0x40)\n      swap1\n      dup1\n      dup3\n      mstore\n      dup1\n      0x20\n      mul\n      0x20\n      add\n      dup3\n      add\n      0x40\n      mstore\n      dup1\n      iszero\n      tag_345\n      jumpi\n      dup2\n      0x20\n      add\n    tag_346:\n      tag_347\n      tag_348\n      jump\t// in\n    tag_347:\n      dup2\n      mstore\n      0x20\n      add\n      swap1\n      0x01\n      swap1\n      sub\n      swap1\n      dup2\n      tag_346\n      jumpi\n      swap1\n      pop\n    tag_345:\n      pop\n        /* \"smart-contracts/classroom/main/Canvassing.sol\":7386:7513  Answer[] memory allAnswersOfParticipantOfSurvey = new Answer[](... */\n      swap1\n      pop\n        /* \"smart-contracts/classroom/main/Canvassing.sol\":7524:7543  uint256 answerIndex */\n      0x00\n        /* \"smart-contracts/classroom/main/Canvassing.sol\":7576:7592  uint256 answerId */\n      dup1\n        /* \"smart-contracts/classroom/main/Canvassing.sol\":7558:8147  for (... */\n    tag_349:\n        /* \"smart-contracts/classroom/main/Canvassing.sol\":7621:7639  allAnswersOfSurvey */\n      dup5\n        /* \"smart-contracts/classroom/main/Canvassing.sol\":7621:7646  allAnswersOfSurvey.length */\n      mload\n        /* \"smart-contracts/classroom/main/Canvassing.sol\":7610:7618  answerId */\n      dup2\n        /* \"smart-contracts/classroom/main/Canvassing.sol\":7610:7646  answerId < allAnswersOfSurvey.length */\n      lt\n        /* \"smart-contracts/classroom/main/Canvassing.sol\":7558:8147  for (... */\n      iszero\n      tag_350\n      jumpi\n        /* \"smart-contracts/classroom/main/Canvassing.sol\":7695:7722  Answer memory runningAnswer */\n      0x00\n        /* \"smart-contracts/classroom/main/Canvassing.sol\":7725:7743  allAnswersOfSurvey */\n      dup6\n        /* \"smart-contracts/classroom/main/Canvassing.sol\":7744:7752  answerId */\n      dup3\n        /* \"smart-contracts/classroom/main/Canvassing.sol\":7725:7753  allAnswersOfSurvey[answerId] */\n      dup2\n      mload\n      dup2\n      lt\n      tag_353\n      jumpi\n      tag_353\n      tag_285\n      jump\t// in\n    tag_353:\n      0x20\n      mul\n      0x20\n      add\n      add\n      mload\n        /* \"smart-contracts/classroom/main/Canvassing.sol\":7695:7753  Answer memory runningAnswer = allAnswersOfSurvey[answerId] */\n      swap1\n      pop\n        /* \"smart-contracts/classroom/main/Canvassing.sol\":7847:7872  _participantWalletAddress */\n      dup9\n      sub(shl(0xa0, 0x01), 0x01)\n        /* \"smart-contracts/classroom/main/Canvassing.sol\":7789:7872  runningAnswer.participantWalletAddress ==... */\n      and\n        /* \"smart-contracts/classroom/main/Canvassing.sol\":7789:7802  runningAnswer */\n      dup2\n        /* \"smart-contracts/classroom/main/Canvassing.sol\":7789:7827  runningAnswer.participantWalletAddress */\n      0x60\n      add\n      mload\n      sub(shl(0xa0, 0x01), 0x01)\n        /* \"smart-contracts/classroom/main/Canvassing.sol\":7789:7872  runningAnswer.participantWalletAddress ==... */\n      and\n      sub\n        /* \"smart-contracts/classroom/main/Canvassing.sol\":7768:8137  if (... */\n      tag_358\n      jumpi\n        /* \"smart-contracts/classroom/main/Canvassing.sol\":7952:7965  runningAnswer */\n      dup1\n        /* \"smart-contracts/classroom/main/Canvassing.sol\":7905:7936  allAnswersOfParticipantOfSurvey */\n      dup5\n        /* \"smart-contracts/classroom/main/Canvassing.sol\":7937:7948  answerIndex */\n      dup5\n        /* \"smart-contracts/classroom/main/Canvassing.sol\":7905:7949  allAnswersOfParticipantOfSurvey[answerIndex] */\n      dup2\n      mload\n      dup2\n      lt\n      tag_356\n      jumpi\n      tag_356\n      tag_285\n      jump\t// in\n    tag_356:\n      0x20\n      mul\n      0x20\n      add\n      add\n        /* \"smart-contracts/classroom/main/Canvassing.sol\":7905:7965  allAnswersOfParticipantOfSurvey[answerIndex] = runningAnswer */\n      dup2\n      swap1\n      mstore\n      pop\n        /* \"smart-contracts/classroom/main/Canvassing.sol\":7983:7996  answerIndex++ */\n      dup3\n      dup1\n      tag_357\n      swap1\n      tag_296\n      jump\t// in\n    tag_357:\n      swap4\n      pop\n      pop\n        /* \"smart-contracts/classroom/main/Canvassing.sol\":8034:8075  totalNumberOfAnswersOfParticipantOfSurvey */\n      dup5\n        /* \"smart-contracts/classroom/main/Canvassing.sol\":8019:8030  answerIndex */\n      dup4\n        /* \"smart-contracts/classroom/main/Canvassing.sol\":8019:8075  answerIndex == totalNumberOfAnswersOfParticipantOfSurvey */\n      sub\n        /* \"smart-contracts/classroom/main/Canvassing.sol\":8015:8123  if (answerIndex == totalNumberOfAnswersOfParticipantOfSurvey) {... */\n      tag_358\n      jumpi\n        /* \"smart-contracts/classroom/main/Canvassing.sol\":8099:8104  break */\n      pop\n      jump(tag_350)\n        /* \"smart-contracts/classroom/main/Canvassing.sol\":8015:8123  if (answerIndex == totalNumberOfAnswersOfParticipantOfSurvey) {... */\n    tag_358:\n      pop\n        /* \"smart-contracts/classroom/main/Canvassing.sol\":7660:7670  answerId++ */\n      dup1\n      tag_359\n      dup2\n      tag_296\n      jump\t// in\n    tag_359:\n      swap2\n      pop\n      pop\n        /* \"smart-contracts/classroom/main/Canvassing.sol\":7558:8147  for (... */\n      jump(tag_349)\n    tag_350:\n      pop\n        /* \"smart-contracts/classroom/main/Canvassing.sol\":8163:8194  allAnswersOfParticipantOfSurvey */\n      swap1\n      swap8\n        /* \"smart-contracts/classroom/main/Canvassing.sol\":6981:8201  function getAllAnswersOfParticipantOfSurvey(... */\n      swap7\n      pop\n      pop\n      pop\n      pop\n      pop\n      pop\n      pop\n      jump\t// out\n        /* \"smart-contracts/classroom/main/Canvassing.sol\":2259:2446  function getParticipantByWalletAddress(address _walletAddress)... */\n    tag_92:\n        /* \"smart-contracts/classroom/main/Canvassing.sol\":2367:2385  Participant memory */\n      tag_360\n      tag_361\n      jump\t// in\n    tag_360:\n      sub(shl(0xa0, 0x01), 0x01)\n        /* \"smart-contracts/classroom/main/Canvassing.sol\":2408:2439  allParticipants[_walletAddress] */\n      dup1\n      dup4\n      and\n      0x00\n      swap1\n      dup2\n      mstore\n        /* \"smart-contracts/classroom/main/Canvassing.sol\":2408:2423  allParticipants */\n      0x02\n        /* \"smart-contracts/classroom/main/Canvassing.sol\":2408:2439  allParticipants[_walletAddress] */\n      0x20\n      dup2\n      dup2\n      mstore\n      0x40\n      swap3\n      dup4\n      swap1\n      keccak256\n        /* \"smart-contracts/classroom/main/Canvassing.sol\":2401:2439  return allParticipants[_walletAddress] */\n      dup4\n      mload\n      0x0100\n      dup2\n      add\n      dup6\n      mstore\n      dup2\n      sload\n      dup2\n      mstore\n      0x01\n      dup3\n      add\n      sload\n      swap1\n      swap6\n      and\n      swap2\n      dup6\n      add\n      swap2\n      swap1\n      swap2\n      mstore\n      swap1\n      dup2\n      add\n      dup1\n      sload\n        /* \"smart-contracts/classroom/main/Canvassing.sol\":2408:2439  allParticipants[_walletAddress] */\n      swap2\n      swap3\n        /* \"smart-contracts/classroom/main/Canvassing.sol\":2401:2439  return allParticipants[_walletAddress] */\n      dup5\n      add\n      swap2\n      tag_363\n      swap1\n      tag_257\n      jump\t// in\n    tag_363:\n      dup1\n      0x1f\n      add\n      0x20\n      dup1\n      swap2\n      div\n      mul\n      0x20\n      add\n      mload(0x40)\n      swap1\n      dup2\n      add\n      0x40\n      mstore\n      dup1\n      swap3\n      swap2\n      swap1\n      dup2\n      dup2\n      mstore\n      0x20\n      add\n      dup3\n      dup1\n      sload\n      tag_364\n      swap1\n      tag_257\n      jump\t// in\n    tag_364:\n      dup1\n      iszero\n      tag_365\n      jumpi\n      dup1\n      0x1f\n      lt\n      tag_366\n      jumpi\n      0x0100\n      dup1\n      dup4\n      sload\n      div\n      mul\n      dup4\n      mstore\n      swap2\n      0x20\n      add\n      swap2\n      jump(tag_365)\n    tag_366:\n      dup3\n      add\n      swap2\n      swap1\n      0x00\n      mstore\n      keccak256(0x00, 0x20)\n      swap1\n    tag_367:\n      dup2\n      sload\n      dup2\n      mstore\n      swap1\n      0x01\n      add\n      swap1\n      0x20\n      add\n      dup1\n      dup4\n      gt\n      tag_367\n      jumpi\n      dup3\n      swap1\n      sub\n      0x1f\n      and\n      dup3\n      add\n      swap2\n    tag_365:\n      pop\n      pop\n      pop\n      pop\n      pop\n      dup2\n      mstore\n      0x20\n      add\n      0x03\n      dup3\n      add\n      dup1\n      sload\n      tag_368\n      swap1\n      tag_257\n      jump\t// in\n    tag_368:\n      dup1\n      0x1f\n      add\n      0x20\n      dup1\n      swap2\n      div\n      mul\n      0x20\n      add\n      mload(0x40)\n      swap1\n      dup2\n      add\n      0x40\n      mstore\n      dup1\n      swap3\n      swap2\n      swap1\n      dup2\n      dup2\n      mstore\n      0x20\n      add\n      dup3\n      dup1\n      sload\n      tag_369\n      swap1\n      tag_257\n      jump\t// in\n    tag_369:\n      dup1\n      iszero\n      tag_370\n      jumpi\n      dup1\n      0x1f\n      lt\n      tag_371\n      jumpi\n      0x0100\n      dup1\n      dup4\n      sload\n      div\n      mul\n      dup4\n      mstore\n      swap2\n      0x20\n      add\n      swap2\n      jump(tag_370)\n    tag_371:\n      dup3\n      add\n      swap2\n      swap1\n      0x00\n      mstore\n      keccak256(0x00, 0x20)\n      swap1\n    tag_372:\n      dup2\n      sload\n      dup2\n      mstore\n      swap1\n      0x01\n      add\n      swap1\n      0x20\n      add\n      dup1\n      dup4\n      gt\n      tag_372\n      jumpi\n      dup3\n      swap1\n      sub\n      0x1f\n      and\n      dup3\n      add\n      swap2\n    tag_370:\n      pop\n      pop\n      pop\n      swap2\n      dup4\n      mstore\n      pop\n      pop\n      0x04\n      dup3\n      add\n      sload\n      0x20\n      dup3\n      add\n      mstore\n      0x05\n      dup3\n      add\n      sload\n      0x40\n      dup3\n      add\n      mstore\n      0x06\n      swap1\n      swap2\n      add\n      sload\n      0xff\n      dup1\n      dup3\n      and\n      iszero\n      iszero\n      0x60\n      dup5\n      add\n      mstore\n      0x0100\n      swap1\n      swap2\n      div\n      and\n      iszero\n      iszero\n      0x80\n      swap1\n      swap2\n      add\n      mstore\n      swap3\n        /* \"smart-contracts/classroom/main/Canvassing.sol\":2259:2446  function getParticipantByWalletAddress(address _walletAddress)... */\n      swap2\n      pop\n      pop\n      jump\t// out\n        /* \"smart-contracts/classroom/main/Canvassing.sol\":5874:6802  function getTotalAmountOfEarningsReceivedByParticipantInWei(... */\n    tag_97:\n      sub(shl(0xa0, 0x01), 0x01)\n        /* \"smart-contracts/classroom/main/Canvassing.sol\":6061:6114  allParticipants[... */\n      dup2\n      and\n        /* \"smart-contracts/classroom/main/Canvassing.sol\":5993:6000  uint256 */\n      0x00\n        /* \"smart-contracts/classroom/main/Canvassing.sol\":6061:6114  allParticipants[... */\n      swap1\n      dup2\n      mstore\n        /* \"smart-contracts/classroom/main/Canvassing.sol\":6061:6076  allParticipants */\n      0x02\n        /* \"smart-contracts/classroom/main/Canvassing.sol\":6061:6114  allParticipants[... */\n      0x20\n      mstore\n      0x40\n      dup2\n      keccak256\n        /* \"smart-contracts/classroom/main/Canvassing.sol\":6061:6140  allParticipants[... */\n      0x05\n      add\n      sload\n        /* \"smart-contracts/classroom/main/Canvassing.sol\":5993:6000  uint256 */\n      dup2\n        /* \"smart-contracts/classroom/main/Canvassing.sol\":6061:6140  allParticipants[... */\n      dup2\n      sub(shl(0x40, 0x01), 0x01)\n        /* \"smart-contracts/classroom/main/Canvassing.sol\":6199:6274  new Earning[](... */\n      dup2\n      gt\n      iszero\n      tag_375\n      jumpi\n      tag_375\n      tag_275\n      jump\t// in\n    tag_375:\n      mload(0x40)\n      swap1\n      dup1\n      dup3\n      mstore\n      dup1\n      0x20\n      mul\n      0x20\n      add\n      dup3\n      add\n      0x40\n      mstore\n      dup1\n      iszero\n      tag_376\n      jumpi\n      dup2\n      0x20\n      add\n    tag_377:\n      tag_378\n      tag_379\n      jump\t// in\n    tag_378:\n      dup2\n      mstore\n      0x20\n      add\n      swap1\n      0x01\n      swap1\n      sub\n      swap1\n      dup2\n      tag_377\n      jumpi\n      swap1\n      pop\n    tag_376:\n      pop\n        /* \"smart-contracts/classroom/main/Canvassing.sol\":6151:6274  Earning[] memory allEarningsMadeByParticipant = new Earning[](... */\n      swap1\n      pop\n        /* \"smart-contracts/classroom/main/Canvassing.sol\":6285:6340  uint256 totalAmountOfEarningsReceivedByParticipantInWei */\n      0x00\n        /* \"smart-contracts/classroom/main/Canvassing.sol\":6373:6390  uint256 earningId */\n      dup1\n        /* \"smart-contracts/classroom/main/Canvassing.sol\":6355:6732  for (... */\n    tag_380:\n        /* \"smart-contracts/classroom/main/Canvassing.sol\":6420:6448  allEarningsMadeByParticipant */\n      dup3\n        /* \"smart-contracts/classroom/main/Canvassing.sol\":6420:6455  allEarningsMadeByParticipant.length */\n      mload\n        /* \"smart-contracts/classroom/main/Canvassing.sol\":6408:6417  earningId */\n      dup2\n        /* \"smart-contracts/classroom/main/Canvassing.sol\":6408:6455  earningId < allEarningsMadeByParticipant.length */\n      lt\n        /* \"smart-contracts/classroom/main/Canvassing.sol\":6355:6732  for (... */\n      iszero\n      tag_381\n      jumpi\n        /* \"smart-contracts/classroom/main/Canvassing.sol\":6505:6534  Earning memory runningEarning */\n      0x00\n        /* \"smart-contracts/classroom/main/Canvassing.sol\":6537:6565  allEarningsMadeByParticipant */\n      dup4\n        /* \"smart-contracts/classroom/main/Canvassing.sol\":6583:6592  earningId */\n      dup3\n        /* \"smart-contracts/classroom/main/Canvassing.sol\":6537:6606  allEarningsMadeByParticipant[... */\n      dup2\n      mload\n      dup2\n      lt\n      tag_384\n      jumpi\n      tag_384\n      tag_285\n      jump\t// in\n    tag_384:\n      0x20\n      mul\n      0x20\n      add\n      add\n      mload\n        /* \"smart-contracts/classroom/main/Canvassing.sol\":6505:6606  Earning memory runningEarning = allEarningsMadeByParticipant[... */\n      swap1\n      pop\n        /* \"smart-contracts/classroom/main/Canvassing.sol\":6671:6685  runningEarning */\n      dup1\n        /* \"smart-contracts/classroom/main/Canvassing.sol\":6671:6721  runningEarning... */\n      0x60\n      add\n      mload\n        /* \"smart-contracts/classroom/main/Canvassing.sol\":6620:6721  totalAmountOfEarningsReceivedByParticipantInWei += runningEarning... */\n      dup4\n      tag_385\n      swap2\n      swap1\n      tag_243\n      jump\t// in\n    tag_385:\n      swap3\n      pop\n        /* \"smart-contracts/classroom/main/Canvassing.sol\":6491:6732  {... */\n      pop\n        /* \"smart-contracts/classroom/main/Canvassing.sol\":6469:6480  earningId++ */\n      dup1\n      dup1\n      tag_386\n      swap1\n      tag_296\n      jump\t// in\n    tag_386:\n      swap2\n      pop\n      pop\n        /* \"smart-contracts/classroom/main/Canvassing.sol\":6355:6732  for (... */\n      jump(tag_380)\n    tag_381:\n      pop\n        /* \"smart-contracts/classroom/main/Canvassing.sol\":6748:6795  totalAmountOfEarningsReceivedByParticipantInWei */\n      swap5\n        /* \"smart-contracts/classroom/main/Canvassing.sol\":5874:6802  function getTotalAmountOfEarningsReceivedByParticipantInWei(... */\n      swap4\n      pop\n      pop\n      pop\n      pop\n      jump\t// out\n        /* \"smart-contracts/classroom/main/Canvassing.sol\":3738:4760  function getAllEarningsMadeByParticipant(address _walletAddress)... */\n    tag_105:\n      sub(shl(0xa0, 0x01), 0x01)\n        /* \"smart-contracts/classroom/main/Canvassing.sol\":3929:3982  allParticipants[... */\n      dup2\n      and\n        /* \"smart-contracts/classroom/main/Canvassing.sol\":3880:3926  uint256 totalNumberOfSurveysTakenByParticipant */\n      0x00\n        /* \"smart-contracts/classroom/main/Canvassing.sol\":3929:3982  allParticipants[... */\n      swap1\n      dup2\n      mstore\n        /* \"smart-contracts/classroom/main/Canvassing.sol\":3929:3944  allParticipants */\n      0x02\n        /* \"smart-contracts/classroom/main/Canvassing.sol\":3929:3982  allParticipants[... */\n      0x20\n      mstore\n      0x40\n      dup2\n      keccak256\n        /* \"smart-contracts/classroom/main/Canvassing.sol\":3929:4008  allParticipants[... */\n      0x05\n      add\n      sload\n        /* \"smart-contracts/classroom/main/Canvassing.sol\":3848:3864  Earning[] memory */\n      0x60\n      swap2\n        /* \"smart-contracts/classroom/main/Canvassing.sol\":3929:4008  allParticipants[... */\n      dup2\n      sub(shl(0x40, 0x01), 0x01)\n        /* \"smart-contracts/classroom/main/Canvassing.sol\":4067:4142  new Earning[](... */\n      dup2\n      gt\n      iszero\n      tag_390\n      jumpi\n      tag_390\n      tag_275\n      jump\t// in\n    tag_390:\n      mload(0x40)\n      swap1\n      dup1\n      dup3\n      mstore\n      dup1\n      0x20\n      mul\n      0x20\n      add\n      dup3\n      add\n      0x40\n      mstore\n      dup1\n      iszero\n      tag_391\n      jumpi\n      dup2\n      0x20\n      add\n    tag_392:\n      tag_393\n      tag_379\n      jump\t// in\n    tag_393:\n      dup2\n      mstore\n      0x20\n      add\n      swap1\n      0x01\n      swap1\n      sub\n      swap1\n      dup2\n      tag_392\n      jumpi\n      swap1\n      pop\n    tag_391:\n      pop\n        /* \"smart-contracts/classroom/main/Canvassing.sol\":4019:4142  Earning[] memory allEarningsMadeByParticipant = new Earning[](... */\n      swap1\n      pop\n        /* \"smart-contracts/classroom/main/Canvassing.sol\":4152:4172  uint256 earningIndex */\n      0x00\n        /* \"smart-contracts/classroom/main/Canvassing.sol\":4205:4222  uint256 earningId */\n      dup1\n        /* \"smart-contracts/classroom/main/Canvassing.sol\":4187:4708  for (... */\n    tag_394:\n        /* \"smart-contracts/classroom/main/Canvassing.sol\":4252:4263  allEarnings */\n      0x0d\n        /* \"smart-contracts/classroom/main/Canvassing.sol\":4252:4270  allEarnings.length */\n      sload\n        /* \"smart-contracts/classroom/main/Canvassing.sol\":4240:4270  earningId < allEarnings.length */\n      dup2\n      lt\n        /* \"smart-contracts/classroom/main/Canvassing.sol\":4187:4708  for (... */\n      iszero\n      tag_281\n      jumpi\n        /* \"smart-contracts/classroom/main/Canvassing.sol\":4320:4349  Earning memory runningEarning */\n      0x00\n        /* \"smart-contracts/classroom/main/Canvassing.sol\":4352:4363  allEarnings */\n      0x0d\n        /* \"smart-contracts/classroom/main/Canvassing.sol\":4364:4373  earningId */\n      dup3\n        /* \"smart-contracts/classroom/main/Canvassing.sol\":4352:4374  allEarnings[earningId] */\n      dup2\n      sload\n      dup2\n      lt\n      tag_398\n      jumpi\n      tag_398\n      tag_285\n      jump\t// in\n    tag_398:\n      0x00\n      swap2\n      dup3\n      mstore\n      0x20\n      swap2\n      dup3\n      swap1\n      keccak256\n        /* \"smart-contracts/classroom/main/Canvassing.sol\":4320:4374  Earning memory runningEarning = allEarnings[earningId] */\n      0x40\n      dup1\n      mload\n      0xa0\n      dup2\n      add\n      dup3\n      mstore\n        /* \"smart-contracts/classroom/main/Canvassing.sol\":4352:4374  allEarnings[earningId] */\n      0x05\n      swap1\n      swap4\n      mul\n      swap1\n      swap2\n      add\n        /* \"smart-contracts/classroom/main/Canvassing.sol\":4320:4374  Earning memory runningEarning = allEarnings[earningId] */\n      dup1\n      sload\n      dup4\n      mstore\n      0x01\n      dup2\n      add\n      sload\n      swap4\n      dup4\n      add\n      swap4\n      swap1\n      swap4\n      mstore\n      0x02\n      dup4\n      add\n      sload\n      sub(shl(0xa0, 0x01), 0x01)\n      swap1\n      dup2\n      and\n      swap2\n      dup4\n      add\n      dup3\n      swap1\n      mstore\n      0x03\n      dup5\n      add\n      sload\n      0x60\n      dup5\n      add\n      mstore\n      0x04\n      swap1\n      swap4\n      add\n      sload\n      0xff\n      and\n      iszero\n      iszero\n      0x80\n      dup4\n      add\n      mstore\n      swap1\n      swap3\n      pop\n        /* \"smart-contracts/classroom/main/Canvassing.sol\":4393:4448  runningEarning.recipientWalletAddress == _walletAddress */\n      swap1\n      dup9\n      and\n      swap1\n      sub\n        /* \"smart-contracts/classroom/main/Canvassing.sol\":4389:4698  if (runningEarning.recipientWalletAddress == _walletAddress) {... */\n      tag_404\n      jumpi\n        /* \"smart-contracts/classroom/main/Canvassing.sol\":4513:4527  runningEarning */\n      dup1\n        /* \"smart-contracts/classroom/main/Canvassing.sol\":4468:4496  allEarningsMadeByParticipant */\n      dup5\n        /* \"smart-contracts/classroom/main/Canvassing.sol\":4497:4509  earningIndex */\n      dup5\n        /* \"smart-contracts/classroom/main/Canvassing.sol\":4468:4510  allEarningsMadeByParticipant[earningIndex] */\n      dup2\n      mload\n      dup2\n      lt\n      tag_402\n      jumpi\n      tag_402\n      tag_285\n      jump\t// in\n    tag_402:\n      0x20\n      mul\n      0x20\n      add\n      add\n        /* \"smart-contracts/classroom/main/Canvassing.sol\":4468:4527  allEarningsMadeByParticipant[earningIndex] = runningEarning */\n      dup2\n      swap1\n      mstore\n      pop\n        /* \"smart-contracts/classroom/main/Canvassing.sol\":4545:4559  earningIndex++ */\n      dup3\n      dup1\n      tag_403\n      swap1\n      tag_296\n      jump\t// in\n    tag_403:\n      swap4\n      pop\n      pop\n        /* \"smart-contracts/classroom/main/Canvassing.sol\":4598:4636  totalNumberOfSurveysTakenByParticipant */\n      dup5\n        /* \"smart-contracts/classroom/main/Canvassing.sol\":4582:4594  earningIndex */\n      dup4\n        /* \"smart-contracts/classroom/main/Canvassing.sol\":4582:4636  earningIndex == totalNumberOfSurveysTakenByParticipant */\n      sub\n        /* \"smart-contracts/classroom/main/Canvassing.sol\":4578:4684  if (earningIndex == totalNumberOfSurveysTakenByParticipant) {... */\n      tag_404\n      jumpi\n        /* \"smart-contracts/classroom/main/Canvassing.sol\":4660:4665  break */\n      pop\n      jump(tag_281)\n        /* \"smart-contracts/classroom/main/Canvassing.sol\":4578:4684  if (earningIndex == totalNumberOfSurveysTakenByParticipant) {... */\n    tag_404:\n      pop\n        /* \"smart-contracts/classroom/main/Canvassing.sol\":4284:4295  earningId++ */\n      dup1\n      tag_405\n      dup2\n      tag_296\n      jump\t// in\n    tag_405:\n      swap2\n      pop\n      pop\n        /* \"smart-contracts/classroom/main/Canvassing.sol\":4187:4708  for (... */\n      jump(tag_394)\n        /* \"smart-contracts/classroom/main/Canvassing.sol\":4766:5868  function getAllSurveysTakenByParticipant(address _walletAddress)... */\n    tag_110:\n        /* \"smart-contracts/classroom/main/Canvassing.sol\":4876:4891  Survey[] memory */\n      0x60\n        /* \"smart-contracts/classroom/main/Canvassing.sol\":5000:5057  Earning[]... */\n      0x00\n        /* \"smart-contracts/classroom/main/Canvassing.sol\":5060:5137  getAllEarningsMadeByParticipant(... */\n      tag_407\n        /* \"smart-contracts/classroom/main/Canvassing.sol\":5109:5123  _walletAddress */\n      dup4\n        /* \"smart-contracts/classroom/main/Canvassing.sol\":5060:5091  getAllEarningsMadeByParticipant */\n      tag_105\n        /* \"smart-contracts/classroom/main/Canvassing.sol\":5060:5137  getAllEarningsMadeByParticipant(... */\n      jump\t// in\n    tag_407:\n        /* \"smart-contracts/classroom/main/Canvassing.sol\":5000:5137  Earning[]... */\n      swap1\n      pop\n        /* \"smart-contracts/classroom/main/Canvassing.sol\":5148:5192  Survey[] memory allSurveysTakenByParticipant */\n      0x00\n        /* \"smart-contracts/classroom/main/Canvassing.sol\":5221:5249  allEarningsMadeByParticipant */\n      dup2\n        /* \"smart-contracts/classroom/main/Canvassing.sol\":5221:5256  allEarningsMadeByParticipant.length */\n      mload\n      sub(shl(0x40, 0x01), 0x01)\n        /* \"smart-contracts/classroom/main/Canvassing.sol\":5195:5266  new Survey[](... */\n      dup2\n      gt\n      iszero\n      tag_409\n      jumpi\n      tag_409\n      tag_275\n      jump\t// in\n    tag_409:\n      mload(0x40)\n      swap1\n      dup1\n      dup3\n      mstore\n      dup1\n      0x20\n      mul\n      0x20\n      add\n      dup3\n      add\n      0x40\n      mstore\n      dup1\n      iszero\n      tag_410\n      jumpi\n      dup2\n      0x20\n      add\n    tag_411:\n      tag_412\n      tag_279\n      jump\t// in\n    tag_412:\n      dup2\n      mstore\n      0x20\n      add\n      swap1\n      0x01\n      swap1\n      sub\n      swap1\n      dup2\n      tag_411\n      jumpi\n      swap1\n      pop\n    tag_410:\n      pop\n        /* \"smart-contracts/classroom/main/Canvassing.sol\":5148:5266  Survey[] memory allSurveysTakenByParticipant = new Survey[](... */\n      swap1\n      pop\n        /* \"smart-contracts/classroom/main/Canvassing.sol\":5276:5295  uint256 surveyIndex */\n      0x00\n        /* \"smart-contracts/classroom/main/Canvassing.sol\":5421:5438  uint256 earningId */\n      dup1\n        /* \"smart-contracts/classroom/main/Canvassing.sol\":5403:5816  for (... */\n    tag_413:\n        /* \"smart-contracts/classroom/main/Canvassing.sol\":5468:5496  allEarningsMadeByParticipant */\n      dup4\n        /* \"smart-contracts/classroom/main/Canvassing.sol\":5468:5503  allEarningsMadeByParticipant.length */\n      mload\n        /* \"smart-contracts/classroom/main/Canvassing.sol\":5456:5465  earningId */\n      dup2\n        /* \"smart-contracts/classroom/main/Canvassing.sol\":5456:5503  earningId < allEarningsMadeByParticipant.length */\n      lt\n        /* \"smart-contracts/classroom/main/Canvassing.sol\":5403:5816  for (... */\n      iszero\n      tag_281\n      jumpi\n        /* \"smart-contracts/classroom/main/Canvassing.sol\":5553:5582  Earning memory runningEarning */\n      0x00\n        /* \"smart-contracts/classroom/main/Canvassing.sol\":5585:5613  allEarningsMadeByParticipant */\n      dup5\n        /* \"smart-contracts/classroom/main/Canvassing.sol\":5631:5640  earningId */\n      dup3\n        /* \"smart-contracts/classroom/main/Canvassing.sol\":5585:5654  allEarningsMadeByParticipant[... */\n      dup2\n      mload\n      dup2\n      lt\n      tag_417\n      jumpi\n      tag_417\n      tag_285\n      jump\t// in\n    tag_417:\n      0x20\n      mul\n      0x20\n      add\n      add\n      mload\n        /* \"smart-contracts/classroom/main/Canvassing.sol\":5553:5654  Earning memory runningEarning = allEarningsMadeByParticipant[... */\n      swap1\n      pop\n        /* \"smart-contracts/classroom/main/Canvassing.sol\":5713:5723  allSurveys */\n      0x03\n        /* \"smart-contracts/classroom/main/Canvassing.sol\":5741:5755  runningEarning */\n      dup2\n        /* \"smart-contracts/classroom/main/Canvassing.sol\":5741:5764  runningEarning.surveyId */\n      0x20\n      add\n      mload\n        /* \"smart-contracts/classroom/main/Canvassing.sol\":5713:5778  allSurveys[... */\n      dup2\n      sload\n      dup2\n      lt\n      tag_419\n      jumpi\n      tag_419\n      tag_285\n      jump\t// in\n    tag_419:\n      swap1\n      0x00\n      mstore\n      keccak256(0x00, 0x20)\n      swap1\n      0x07\n      mul\n      add\n        /* \"smart-contracts/classroom/main/Canvassing.sol\":5669:5778  allSurveysTakenByParticipant[surveyIndex] = allSurveys[... */\n      mload(0x40)\n      dup1\n      0xe0\n      add\n      0x40\n      mstore\n      swap1\n      dup2\n      0x00\n      dup3\n      add\n      sload\n      dup2\n      mstore\n      0x20\n      add\n      0x01\n      dup3\n      add\n      0x00\n      swap1\n      sload\n      swap1\n      0x0100\n      exp\n      swap1\n      div\n      sub(shl(0xa0, 0x01), 0x01)\n      and\n      sub(shl(0xa0, 0x01), 0x01)\n      and\n      sub(shl(0xa0, 0x01), 0x01)\n      and\n      dup2\n      mstore\n      0x20\n      add\n      0x02\n      dup3\n      add\n      dup1\n      sload\n      tag_421\n      swap1\n      tag_257\n      jump\t// in\n    tag_421:\n      dup1\n      0x1f\n      add\n      0x20\n      dup1\n      swap2\n      div\n      mul\n      0x20\n      add\n      mload(0x40)\n      swap1\n      dup2\n      add\n      0x40\n      mstore\n      dup1\n      swap3\n      swap2\n      swap1\n      dup2\n      dup2\n      mstore\n      0x20\n      add\n      dup3\n      dup1\n      sload\n      tag_422\n      swap1\n      tag_257\n      jump\t// in\n    tag_422:\n      dup1\n      iszero\n      tag_423\n      jumpi\n      dup1\n      0x1f\n      lt\n      tag_424\n      jumpi\n      0x0100\n      dup1\n      dup4\n      sload\n      div\n      mul\n      dup4\n      mstore\n      swap2\n      0x20\n      add\n      swap2\n      jump(tag_423)\n    tag_424:\n      dup3\n      add\n      swap2\n      swap1\n      0x00\n      mstore\n      keccak256(0x00, 0x20)\n      swap1\n    tag_425:\n      dup2\n      sload\n      dup2\n      mstore\n      swap1\n      0x01\n      add\n      swap1\n      0x20\n      add\n      dup1\n      dup4\n      gt\n      tag_425\n      jumpi\n      dup3\n      swap1\n      sub\n      0x1f\n      and\n      dup3\n      add\n      swap2\n    tag_423:\n      pop\n      pop\n      pop\n      swap2\n      dup4\n      mstore\n      pop\n      pop\n      0x03\n      dup3\n      add\n      sload\n      0x20\n      dup3\n      add\n      mstore\n      0x04\n      dup3\n      add\n      sload\n      0x40\n      dup3\n      add\n      mstore\n      0x05\n      dup3\n      add\n      sload\n      0x60\n      dup3\n      add\n      mstore\n      0x06\n      swap1\n      swap2\n      add\n      sload\n      0xff\n      and\n      iszero\n      iszero\n      0x80\n      swap1\n      swap2\n      add\n      mstore\n        /* \"smart-contracts/classroom/main/Canvassing.sol\":5669:5710  allSurveysTakenByParticipant[surveyIndex] */\n      dup5\n      mload\n        /* \"smart-contracts/classroom/main/Canvassing.sol\":5669:5697  allSurveysTakenByParticipant */\n      dup6\n      swap1\n        /* \"smart-contracts/classroom/main/Canvassing.sol\":5698:5709  surveyIndex */\n      dup6\n      swap1\n        /* \"smart-contracts/classroom/main/Canvassing.sol\":5669:5710  allSurveysTakenByParticipant[surveyIndex] */\n      dup2\n      lt\n      tag_427\n      jumpi\n      tag_427\n      tag_285\n      jump\t// in\n    tag_427:\n      0x20\n      mul\n      0x20\n      add\n      add\n        /* \"smart-contracts/classroom/main/Canvassing.sol\":5669:5778  allSurveysTakenByParticipant[surveyIndex] = allSurveys[... */\n      dup2\n      swap1\n      mstore\n      pop\n        /* \"smart-contracts/classroom/main/Canvassing.sol\":5792:5805  surveyIndex++ */\n      dup3\n      dup1\n      tag_428\n      swap1\n      tag_296\n      jump\t// in\n    tag_428:\n      swap4\n      pop\n      pop\n        /* \"smart-contracts/classroom/main/Canvassing.sol\":5539:5816  {... */\n      pop\n        /* \"smart-contracts/classroom/main/Canvassing.sol\":5517:5528  earningId++ */\n      dup1\n      dup1\n      tag_429\n      swap1\n      tag_296\n      jump\t// in\n    tag_429:\n      swap2\n      pop\n      pop\n        /* \"smart-contracts/classroom/main/Canvassing.sol\":5403:5816  for (... */\n      jump(tag_413)\n        /* \"smart-contracts/classroom/main/Canvassing.sol\":2452:3472  function createParticipant(... */\n    tag_115:\n        /* \"smart-contracts/classroom/main/Canvassing.sol\":2654:2674  currentParticipantId */\n      sload(0x0f)\n        /* \"smart-contracts/classroom/main/Canvassing.sol\":2685:2718  Participant memory newParticipant */\n      tag_431\n      tag_361\n      jump\t// in\n    tag_431:\n        /* \"smart-contracts/classroom/main/Canvassing.sol\":2729:2765  newParticipant.id = newParticipantId */\n      dup2\n      dup2\n      mstore\n      sub(shl(0xa0, 0x01), 0x01)\n        /* \"smart-contracts/classroom/main/Canvassing.sol\":2775:2820  newParticipant.walletAddress = _walletAddress */\n      dup7\n      and\n        /* \"smart-contracts/classroom/main/Canvassing.sol\":2775:2803  newParticipant.walletAddress */\n      0x20\n      dup3\n      add\n        /* \"smart-contracts/classroom/main/Canvassing.sol\":2775:2820  newParticipant.walletAddress = _walletAddress */\n      mstore\n        /* \"smart-contracts/classroom/main/Canvassing.sol\":2830:2851  newParticipant.gender */\n      0x40\n      dup2\n      add\n        /* \"smart-contracts/classroom/main/Canvassing.sol\":2830:2861  newParticipant.gender = _gender */\n      dup6\n      swap1\n      mstore\n        /* \"smart-contracts/classroom/main/Canvassing.sol\":2871:2893  newParticipant.country */\n      0x60\n      dup2\n      add\n        /* \"smart-contracts/classroom/main/Canvassing.sol\":2871:2904  newParticipant.country = _country */\n      dup5\n      swap1\n      mstore\n        /* \"smart-contracts/classroom/main/Canvassing.sol\":2914:2940  newParticipant.yearOfBirth */\n      0x80\n      dup2\n      add\n        /* \"smart-contracts/classroom/main/Canvassing.sol\":2914:2955  newParticipant.yearOfBirth = _yearOfBirth */\n      dup4\n      swap1\n      mstore\n        /* \"smart-contracts/classroom/main/Canvassing.sol\":3026:3065  checkIfResearcherExists(_walletAddress) */\n      tag_432\n        /* \"smart-contracts/classroom/main/Canvassing.sol\":2806:2820  _walletAddress */\n      dup7\n        /* \"smart-contracts/classroom/main/Canvassing.sol\":3026:3049  checkIfResearcherExists */\n      tag_188\n        /* \"smart-contracts/classroom/main/Canvassing.sol\":3026:3065  checkIfResearcherExists(_walletAddress) */\n      jump\t// in\n    tag_432:\n        /* \"smart-contracts/classroom/main/Canvassing.sol\":3022:3374  if (checkIfResearcherExists(_walletAddress)) {... */\n      iszero\n      tag_433\n      jumpi\n        /* \"smart-contracts/classroom/main/Canvassing.sol\":3081:3117  Researcher memory existingResearcher */\n      0x00\n        /* \"smart-contracts/classroom/main/Canvassing.sol\":3120:3194  getResearcherByWalletAddress(... */\n      tag_434\n        /* \"smart-contracts/classroom/main/Canvassing.sol\":3166:3180  _walletAddress */\n      dup8\n        /* \"smart-contracts/classroom/main/Canvassing.sol\":3120:3148  getResearcherByWalletAddress */\n      tag_61\n        /* \"smart-contracts/classroom/main/Canvassing.sol\":3120:3194  getResearcherByWalletAddress(... */\n      jump\t// in\n    tag_434:\n        /* \"smart-contracts/classroom/main/Canvassing.sol\":3244:3248  true */\n      0x01\n        /* \"smart-contracts/classroom/main/Canvassing.sol\":3209:3241  existingResearcher.isParticipant */\n      0xa0\n      dup3\n      add\n        /* \"smart-contracts/classroom/main/Canvassing.sol\":3209:3248  existingResearcher.isParticipant = true */\n      dup2\n      swap1\n      mstore\n        /* \"smart-contracts/classroom/main/Canvassing.sol\":3263:3290  newParticipant.isResearcher */\n      0xc0\n      dup5\n      add\n        /* \"smart-contracts/classroom/main/Canvassing.sol\":3263:3297  newParticipant.isResearcher = true */\n      dup2\n      swap1\n      mstore\n      sub(shl(0xa0, 0x01), 0x01)\n        /* \"smart-contracts/classroom/main/Canvassing.sol\":3312:3342  allResearchers[_walletAddress] */\n      dup10\n      dup2\n      and\n        /* \"smart-contracts/classroom/main/Canvassing.sol\":3209:3248  existingResearcher.isParticipant = true */\n      0x00\n        /* \"smart-contracts/classroom/main/Canvassing.sol\":3312:3342  allResearchers[_walletAddress] */\n      swap1\n      dup2\n      mstore\n      0x20\n      dup4\n      dup2\n      mstore\n      0x40\n      swap2\n      dup3\n      swap1\n      keccak256\n        /* \"smart-contracts/classroom/main/Canvassing.sol\":3312:3363  allResearchers[_walletAddress] = existingResearcher */\n      dup6\n      mload\n      dup2\n      sstore\n      swap1\n      dup6\n      add\n      mload\n      swap4\n      dup2\n      add\n      dup1\n      sload\n      not(sub(shl(0xa0, 0x01), 0x01))\n      and\n      swap5\n      swap1\n      swap4\n      and\n      swap4\n      swap1\n      swap4\n      or\n      swap1\n      swap2\n      sstore\n      dup3\n      add\n      mload\n        /* \"smart-contracts/classroom/main/Canvassing.sol\":3209:3241  existingResearcher.isParticipant */\n      swap2\n      swap3\n      pop\n      dup3\n      swap2\n        /* \"smart-contracts/classroom/main/Canvassing.sol\":3312:3363  allResearchers[_walletAddress] = existingResearcher */\n      0x02\n      dup3\n      add\n      swap1\n      tag_435\n      swap1\n      dup3\n      tag_436\n      jump\t// in\n    tag_435:\n      pop\n      0x60\n      dup3\n      add\n      mload\n      0x03\n      dup3\n      add\n      swap1\n      tag_437\n      swap1\n      dup3\n      tag_436\n      jump\t// in\n    tag_437:\n      pop\n      0x80\n      dup3\n      add\n      mload\n      0x04\n      dup3\n      add\n      swap1\n      tag_438\n      swap1\n      dup3\n      tag_436\n      jump\t// in\n    tag_438:\n      pop\n      0xa0\n      dup3\n      add\n      mload\n      0x05\n      swap1\n      swap2\n      add\n      dup1\n      sload\n      0xc0\n      dup5\n      add\n      mload\n      0xe0\n      swap1\n      swap5\n      add\n      mload\n      iszero\n      iszero\n      0x010000\n      mul\n      not(0xff0000)\n      swap5\n      iszero\n      iszero\n      0x0100\n      mul\n      not(0xff00)\n      swap5\n      iszero\n      iszero\n      swap5\n      swap1\n      swap5\n      and\n      not(0xffff)\n      swap1\n      swap3\n      and\n      swap2\n      swap1\n      swap2\n      or\n      swap3\n      swap1\n      swap3\n      or\n      swap3\n      swap1\n      swap3\n      and\n      or\n      swap1\n      sstore\n      pop\n        /* \"smart-contracts/classroom/main/Canvassing.sol\":3022:3374  if (checkIfResearcherExists(_walletAddress)) {... */\n    tag_433:\n      sub(shl(0xa0, 0x01), 0x01)\n        /* \"smart-contracts/classroom/main/Canvassing.sol\":3384:3415  allParticipants[_walletAddress] */\n      dup7\n      dup2\n      and\n      0x00\n      swap1\n      dup2\n      mstore\n        /* \"smart-contracts/classroom/main/Canvassing.sol\":3384:3399  allParticipants */\n      0x02\n        /* \"smart-contracts/classroom/main/Canvassing.sol\":3384:3415  allParticipants[_walletAddress] */\n      0x20\n      dup2\n      dup2\n      mstore\n      0x40\n      swap3\n      dup4\n      swap1\n      keccak256\n        /* \"smart-contracts/classroom/main/Canvassing.sol\":3384:3432  allParticipants[_walletAddress] = newParticipant */\n      dup6\n      mload\n      dup2\n      sstore\n      swap1\n      dup6\n      add\n      mload\n      0x01\n      dup3\n      add\n      dup1\n      sload\n      not(sub(shl(0xa0, 0x01), 0x01))\n      and\n      swap2\n      swap1\n      swap6\n      and\n      or\n      swap1\n      swap4\n      sstore\n      swap1\n      dup4\n      add\n      mload\n      dup4\n      swap3\n        /* \"smart-contracts/classroom/main/Canvassing.sol\":3384:3415  allParticipants[_walletAddress] */\n      swap2\n        /* \"smart-contracts/classroom/main/Canvassing.sol\":3384:3432  allParticipants[_walletAddress] = newParticipant */\n      dup3\n      add\n      swap1\n      tag_439\n      swap1\n      dup3\n      tag_436\n      jump\t// in\n    tag_439:\n      pop\n      0x60\n      dup3\n      add\n      mload\n      0x03\n      dup3\n      add\n      swap1\n      tag_440\n      swap1\n      dup3\n      tag_436\n      jump\t// in\n    tag_440:\n      pop\n      0x80\n      dup3\n      add\n      mload\n      0x04\n      dup3\n      add\n      sstore\n      0xa0\n      dup3\n      add\n      mload\n      0x05\n      dup3\n      add\n      sstore\n      0xc0\n      dup3\n      add\n      mload\n      0x06\n      swap1\n      swap2\n      add\n      dup1\n      sload\n      0xe0\n      swap1\n      swap4\n      add\n      mload\n      iszero\n      iszero\n      0x0100\n      mul\n      not(0xff00)\n      swap3\n      iszero\n      iszero\n      swap3\n      swap1\n      swap3\n      and\n      not(0xffff)\n      swap1\n      swap4\n      and\n      swap3\n      swap1\n      swap3\n      or\n      or\n      swap1\n      sstore\n        /* \"smart-contracts/classroom/main/Canvassing.sol\":3443:3463  currentParticipantId */\n      0x0f\n        /* \"smart-contracts/classroom/main/Canvassing.sol\":3443:3465  currentParticipantId++ */\n      dup1\n      sload\n      swap1\n      0x00\n      tag_441\n      dup4\n      tag_296\n      jump\t// in\n    tag_441:\n      swap2\n      swap1\n      pop\n      sstore\n      pop\n        /* \"smart-contracts/classroom/main/Canvassing.sol\":2617:3472  {... */\n      pop\n      pop\n        /* \"smart-contracts/classroom/main/Canvassing.sol\":2452:3472  function createParticipant(... */\n      pop\n      pop\n      pop\n      pop\n      jump\t// out\n        /* \"smart-contracts/classroom/main/Canvassing.sol\":14717:15881  function createResearcher(... */\n    tag_119:\n        /* \"smart-contracts/classroom/main/Canvassing.sol\":14940:14959  currentResearcherId */\n      sload(0x0e)\n        /* \"smart-contracts/classroom/main/Canvassing.sol\":14970:15001  Researcher memory newResearcher */\n      tag_443\n      tag_254\n      jump\t// in\n    tag_443:\n        /* \"smart-contracts/classroom/main/Canvassing.sol\":15011:15045  newResearcher.id = newResearcherId */\n      dup2\n      dup2\n      mstore\n      sub(shl(0xa0, 0x01), 0x01)\n        /* \"smart-contracts/classroom/main/Canvassing.sol\":15055:15099  newResearcher.walletAddress = _walletAddress */\n      dup7\n      and\n        /* \"smart-contracts/classroom/main/Canvassing.sol\":15055:15082  newResearcher.walletAddress */\n      0x20\n      dup3\n      add\n        /* \"smart-contracts/classroom/main/Canvassing.sol\":15055:15099  newResearcher.walletAddress = _walletAddress */\n      mstore\n        /* \"smart-contracts/classroom/main/Canvassing.sol\":15109:15131  newResearcher.industry */\n      0x40\n      dup2\n      add\n        /* \"smart-contracts/classroom/main/Canvassing.sol\":15109:15143  newResearcher.industry = _industry */\n      dup6\n      swap1\n      mstore\n        /* \"smart-contracts/classroom/main/Canvassing.sol\":15153:15184  newResearcher.numberOfEmployees */\n      0x60\n      dup2\n      add\n        /* \"smart-contracts/classroom/main/Canvassing.sol\":15153:15205  newResearcher.numberOfEmployees = _numberOfEmployees */\n      dup5\n      swap1\n      mstore\n        /* \"smart-contracts/classroom/main/Canvassing.sol\":15215:15245  newResearcher.yearsInOperation */\n      0x80\n      dup2\n      add\n        /* \"smart-contracts/classroom/main/Canvassing.sol\":15215:15265  newResearcher.yearsInOperation = _yearsInOperation */\n      dup4\n      swap1\n      mstore\n        /* \"smart-contracts/classroom/main/Canvassing.sol\":15011:15027  newResearcher.id */\n      0x00\n        /* \"smart-contracts/classroom/main/Canvassing.sol\":15275:15299  newResearcher.isVerified */\n      0xc0\n      dup3\n      add\n        /* \"smart-contracts/classroom/main/Canvassing.sol\":15275:15307  newResearcher.isVerified = false */\n      mstore\n        /* \"smart-contracts/classroom/main/Canvassing.sol\":15379:15419  checkIfParticipantExists(_walletAddress) */\n      tag_444\n        /* \"smart-contracts/classroom/main/Canvassing.sol\":15085:15099  _walletAddress */\n      dup7\n        /* \"smart-contracts/classroom/main/Canvassing.sol\":15379:15403  checkIfParticipantExists */\n      tag_155\n        /* \"smart-contracts/classroom/main/Canvassing.sol\":15379:15419  checkIfParticipantExists(_walletAddress) */\n      jump\t// in\n    tag_444:\n        /* \"smart-contracts/classroom/main/Canvassing.sol\":15375:15787  if (checkIfParticipantExists(_walletAddress)) {... */\n      iszero\n      tag_445\n      jumpi\n        /* \"smart-contracts/classroom/main/Canvassing.sol\":15435:15489  Participant... */\n      0x00\n        /* \"smart-contracts/classroom/main/Canvassing.sol\":15492:15575  getParticipantByWalletAddress(... */\n      tag_446\n        /* \"smart-contracts/classroom/main/Canvassing.sol\":15543:15557  _walletAddress */\n      dup8\n        /* \"smart-contracts/classroom/main/Canvassing.sol\":15492:15521  getParticipantByWalletAddress */\n      tag_92\n        /* \"smart-contracts/classroom/main/Canvassing.sol\":15492:15575  getParticipantByWalletAddress(... */\n      jump\t// in\n    tag_446:\n        /* \"smart-contracts/classroom/main/Canvassing.sol\":15655:15659  true */\n      0x01\n        /* \"smart-contracts/classroom/main/Canvassing.sol\":15620:15652  existingParticipant.isResearcher */\n      0xc0\n      dup3\n      add\n        /* \"smart-contracts/classroom/main/Canvassing.sol\":15620:15659  existingParticipant.isResearcher = true */\n      dup2\n      swap1\n      mstore\n        /* \"smart-contracts/classroom/main/Canvassing.sol\":15674:15701  newResearcher.isParticipant */\n      0xa0\n      dup5\n      add\n        /* \"smart-contracts/classroom/main/Canvassing.sol\":15674:15708  newResearcher.isParticipant = true */\n      dup2\n      swap1\n      mstore\n      sub(shl(0xa0, 0x01), 0x01)\n        /* \"smart-contracts/classroom/main/Canvassing.sol\":15723:15754  allParticipants[_walletAddress] */\n      dup10\n      dup2\n      and\n        /* \"smart-contracts/classroom/main/Canvassing.sol\":15620:15659  existingParticipant.isResearcher = true */\n      0x00\n        /* \"smart-contracts/classroom/main/Canvassing.sol\":15723:15754  allParticipants[_walletAddress] */\n      swap1\n      dup2\n      mstore\n        /* \"smart-contracts/classroom/main/Canvassing.sol\":15723:15738  allParticipants */\n      0x02\n      0x20\n        /* \"smart-contracts/classroom/main/Canvassing.sol\":15723:15754  allParticipants[_walletAddress] */\n      dup2\n      dup2\n      mstore\n      0x40\n      swap3\n      dup4\n      swap1\n      keccak256\n        /* \"smart-contracts/classroom/main/Canvassing.sol\":15723:15776  allParticipants[_walletAddress] = existingParticipant */\n      dup7\n      mload\n      dup2\n      sstore\n      swap1\n      dup7\n      add\n      mload\n      swap5\n      dup2\n      add\n      dup1\n      sload\n      not(sub(shl(0xa0, 0x01), 0x01))\n      and\n      swap6\n      swap1\n      swap5\n      and\n      swap5\n      swap1\n      swap5\n      or\n      swap1\n      swap3\n      sstore\n      dup4\n      add\n      mload\n        /* \"smart-contracts/classroom/main/Canvassing.sol\":15620:15652  existingParticipant.isResearcher */\n      swap3\n      swap4\n      pop\n      dup4\n      swap3\n        /* \"smart-contracts/classroom/main/Canvassing.sol\":15723:15776  allParticipants[_walletAddress] = existingParticipant */\n      swap1\n      dup3\n      add\n      swap1\n      tag_447\n      swap1\n      dup3\n      tag_436\n      jump\t// in\n    tag_447:\n      pop\n      0x60\n      dup3\n      add\n      mload\n      0x03\n      dup3\n      add\n      swap1\n      tag_448\n      swap1\n      dup3\n      tag_436\n      jump\t// in\n    tag_448:\n      pop\n      0x80\n      dup3\n      add\n      mload\n      0x04\n      dup3\n      add\n      sstore\n      0xa0\n      dup3\n      add\n      mload\n      0x05\n      dup3\n      add\n      sstore\n      0xc0\n      dup3\n      add\n      mload\n      0x06\n      swap1\n      swap2\n      add\n      dup1\n      sload\n      0xe0\n      swap1\n      swap4\n      add\n      mload\n      iszero\n      iszero\n      0x0100\n      mul\n      not(0xff00)\n      swap3\n      iszero\n      iszero\n      swap3\n      swap1\n      swap3\n      and\n      not(0xffff)\n      swap1\n      swap4\n      and\n      swap3\n      swap1\n      swap3\n      or\n      or\n      swap1\n      sstore\n      pop\n        /* \"smart-contracts/classroom/main/Canvassing.sol\":15375:15787  if (checkIfParticipantExists(_walletAddress)) {... */\n    tag_445:\n      sub(shl(0xa0, 0x01), 0x01)\n        /* \"smart-contracts/classroom/main/Canvassing.sol\":15797:15827  allResearchers[_walletAddress] */\n      dup7\n      dup2\n      and\n      0x00\n      swap1\n      dup2\n      mstore\n        /* \"smart-contracts/classroom/main/Canvassing.sol\":15797:15811  allResearchers */\n      0x01\n        /* \"smart-contracts/classroom/main/Canvassing.sol\":15797:15827  allResearchers[_walletAddress] */\n      0x20\n      dup2\n      dup2\n      mstore\n      0x40\n      swap3\n      dup4\n      swap1\n      keccak256\n        /* \"smart-contracts/classroom/main/Canvassing.sol\":15797:15843  allResearchers[_walletAddress] = newResearcher */\n      dup6\n      mload\n      dup2\n      sstore\n      swap1\n      dup6\n      add\n      mload\n      swap2\n      dup2\n      add\n      dup1\n      sload\n      not(sub(shl(0xa0, 0x01), 0x01))\n      and\n      swap3\n      swap1\n      swap5\n      and\n      swap2\n      swap1\n      swap2\n      or\n      swap1\n      swap3\n      sstore\n      dup3\n      add\n      mload\n      dup3\n      swap2\n        /* \"smart-contracts/classroom/main/Canvassing.sol\":15797:15827  allResearchers[_walletAddress] */\n      swap1\n        /* \"smart-contracts/classroom/main/Canvassing.sol\":15797:15843  allResearchers[_walletAddress] = newResearcher */\n      0x02\n      dup3\n      add\n      swap1\n      tag_449\n      swap1\n      dup3\n      tag_436\n      jump\t// in\n    tag_449:\n      pop\n      0x60\n      dup3\n      add\n      mload\n      0x03\n      dup3\n      add\n      swap1\n      tag_450\n      swap1\n      dup3\n      tag_436\n      jump\t// in\n    tag_450:\n      pop\n      0x80\n      dup3\n      add\n      mload\n      0x04\n      dup3\n      add\n      swap1\n      tag_451\n      swap1\n      dup3\n      tag_436\n      jump\t// in\n    tag_451:\n      pop\n      0xa0\n      dup3\n      add\n      mload\n      0x05\n      swap1\n      swap2\n      add\n      dup1\n      sload\n      0xc0\n      dup5\n      add\n      mload\n      0xe0\n      swap1\n      swap5\n      add\n      mload\n      iszero\n      iszero\n      0x010000\n      mul\n      not(0xff0000)\n      swap5\n      iszero\n      iszero\n      0x0100\n      mul\n      not(0xff00)\n      swap5\n      iszero\n      iszero\n      swap5\n      swap1\n      swap5\n      and\n      not(0xffff)\n      swap1\n      swap3\n      and\n      swap2\n      swap1\n      swap2\n      or\n      swap3\n      swap1\n      swap3\n      or\n      swap3\n      swap1\n      swap3\n      and\n      or\n      swap1\n      sstore\n        /* \"smart-contracts/classroom/main/Canvassing.sol\":15853:15872  currentResearcherId */\n      0x0e\n        /* \"smart-contracts/classroom/main/Canvassing.sol\":15853:15874  currentResearcherId++ */\n      dup1\n      sload\n      swap1\n        /* \"smart-contracts/classroom/main/Canvassing.sol\":15797:15843  allResearchers[_walletAddress] = newResearcher */\n      0x00\n        /* \"smart-contracts/classroom/main/Canvassing.sol\":15853:15874  currentResearcherId++ */\n      tag_441\n      dup4\n      tag_296\n      jump\t// in\n        /* \"smart-contracts/classroom/main/Canvassing.sol\":10118:10633  function getAmountOfEarningForCanvassingForSurveyPerParticipantInWei(... */\n    tag_122:\n        /* \"smart-contracts/classroom/main/Canvassing.sol\":10280:10287  uint256 */\n      0x00\n        /* \"smart-contracts/classroom/main/Canvassing.sol\":10299:10326  Survey memory currentSurvey */\n      dup1\n        /* \"smart-contracts/classroom/main/Canvassing.sol\":10329:10339  allSurveys */\n      0x03\n        /* \"smart-contracts/classroom/main/Canvassing.sol\":10340:10349  _surveyId */\n      dup5\n        /* \"smart-contracts/classroom/main/Canvassing.sol\":10329:10350  allSurveys[_surveyId] */\n      dup2\n      sload\n      dup2\n      lt\n      tag_455\n      jumpi\n      tag_455\n      tag_285\n      jump\t// in\n    tag_455:\n      swap1\n      0x00\n      mstore\n      keccak256(0x00, 0x20)\n      swap1\n      0x07\n      mul\n      add\n        /* \"smart-contracts/classroom/main/Canvassing.sol\":10299:10350  Survey memory currentSurvey = allSurveys[_surveyId] */\n      mload(0x40)\n      dup1\n      0xe0\n      add\n      0x40\n      mstore\n      swap1\n      dup2\n      0x00\n      dup3\n      add\n      sload\n      dup2\n      mstore\n      0x20\n      add\n      0x01\n      dup3\n      add\n      0x00\n      swap1\n      sload\n      swap1\n      0x0100\n      exp\n      swap1\n      div\n      sub(shl(0xa0, 0x01), 0x01)\n      and\n      sub(shl(0xa0, 0x01), 0x01)\n      and\n      sub(shl(0xa0, 0x01), 0x01)\n      and\n      dup2\n      mstore\n      0x20\n      add\n      0x02\n      dup3\n      add\n      dup1\n      sload\n      tag_457\n      swap1\n      tag_257\n      jump\t// in\n    tag_457:\n      dup1\n      0x1f\n      add\n      0x20\n      dup1\n      swap2\n      div\n      mul\n      0x20\n      add\n      mload(0x40)\n      swap1\n      dup2\n      add\n      0x40\n      mstore\n      dup1\n      swap3\n      swap2\n      swap1\n      dup2\n      dup2\n      mstore\n      0x20\n      add\n      dup3\n      dup1\n      sload\n      tag_458\n      swap1\n      tag_257\n      jump\t// in\n    tag_458:\n      dup1\n      iszero\n      tag_459\n      jumpi\n      dup1\n      0x1f\n      lt\n      tag_460\n      jumpi\n      0x0100\n      dup1\n      dup4\n      sload\n      div\n      mul\n      dup4\n      mstore\n      swap2\n      0x20\n      add\n      swap2\n      jump(tag_459)\n    tag_460:\n      dup3\n      add\n      swap2\n      swap1\n      0x00\n      mstore\n      keccak256(0x00, 0x20)\n      swap1\n    tag_461:\n      dup2\n      sload\n      dup2\n      mstore\n      swap1\n      0x01\n      add\n      swap1\n      0x20\n      add\n      dup1\n      dup4\n      gt\n      tag_461\n      jumpi\n      dup3\n      swap1\n      sub\n      0x1f\n      and\n      dup3\n      add\n      swap2\n    tag_459:\n      pop\n      pop\n      pop\n      swap2\n      dup4\n      mstore\n      pop\n      pop\n      0x03\n      dup3\n      add\n      sload\n      0x20\n      dup3\n      add\n      mstore\n      0x04\n      dup3\n      add\n      sload\n      0x40\n      dup3\n      add\n      mstore\n      0x05\n      dup1\n      dup4\n      add\n      sload\n      0x60\n      dup4\n      add\n      mstore\n      0x06\n      swap1\n      swap3\n      add\n      sload\n      0xff\n      and\n      iszero\n      iszero\n      0x80\n      swap1\n      swap2\n      add\n      mstore\n        /* \"smart-contracts/classroom/main/Canvassing.sol\":10397:10428  currentSurvey.amountFundedInWei */\n      0xa0\n      dup3\n      add\n      mload\n        /* \"smart-contracts/classroom/main/Canvassing.sol\":10299:10350  Survey memory currentSurvey = allSurveys[_surveyId] */\n      swap2\n      swap3\n      pop\n      0x00\n      swap1\n        /* \"smart-contracts/classroom/main/Canvassing.sol\":10547:10568  _numberOfParticipants */\n      dup6\n      swap1\n        /* \"smart-contracts/classroom/main/Canvassing.sol\":10541:10543  10 */\n      0x0a\n      swap1\n        /* \"smart-contracts/classroom/main/Canvassing.sol\":10491:10537  amountFundedInWeiForSurvey *... */\n      tag_462\n      swap1\n        /* \"smart-contracts/classroom/main/Canvassing.sol\":10397:10428  currentSurvey.amountFundedInWei */\n      dup6\n      swap1\n        /* \"smart-contracts/classroom/main/Canvassing.sol\":10491:10537  amountFundedInWeiForSurvey *... */\n      tag_241\n      jump\t// in\n    tag_462:\n        /* \"smart-contracts/classroom/main/Canvassing.sol\":10490:10543  (amountFundedInWeiForSurvey *... */\n      tag_463\n      swap2\n      swap1\n      tag_329\n      jump\t// in\n    tag_463:\n        /* \"smart-contracts/classroom/main/Canvassing.sol\":10489:10568  ((amountFundedInWeiForSurvey *... */\n      tag_464\n      swap2\n      swap1\n      tag_329\n      jump\t// in\n    tag_464:\n        /* \"smart-contracts/classroom/main/Canvassing.sol\":10438:10568  uint256 canvassingShareAmountPerParticipantInWei = ((amountFundedInWeiForSurvey *... */\n      swap7\n        /* \"smart-contracts/classroom/main/Canvassing.sol\":10118:10633  function getAmountOfEarningForCanvassingForSurveyPerParticipantInWei(... */\n      swap6\n      pop\n      pop\n      pop\n      pop\n      pop\n      pop\n      jump\t// out\n        /* \"smart-contracts/classroom/main/Canvassing.sol\":508:562  mapping(address => Participant) public allParticipants */\n    tag_134:\n      0x02\n      0x20\n      dup2\n      swap1\n      mstore\n      0x00\n      swap2\n      dup3\n      mstore\n      0x40\n      swap1\n      swap2\n      keccak256\n      dup1\n      sload\n      0x01\n      dup3\n      add\n      sload\n      swap3\n      dup3\n      add\n      dup1\n      sload\n      swap2\n      swap4\n      sub(shl(0xa0, 0x01), 0x01)\n      and\n      swap3\n      swap2\n      tag_301\n      swap1\n      tag_257\n      jump\t// in\n        /* \"smart-contracts/classroom/main/Canvassing.sol\":18894:21009  function createSurvey(... */\n    tag_143:\n        /* \"smart-contracts/classroom/main/Canvassing.sol\":19216:19231  currentSurveyId */\n      sload(0x10)\n        /* \"smart-contracts/classroom/main/Canvassing.sol\":19175:19182  uint256 */\n      0x00\n      swap1\n        /* \"smart-contracts/classroom/main/Canvassing.sol\":19276:19299  Survey memory newSurvey */\n      tag_477\n      tag_279\n      jump\t// in\n    tag_477:\n        /* \"smart-contracts/classroom/main/Canvassing.sol\":19309:19335  newSurvey.id = newSurveyId */\n      dup2\n      dup2\n      mstore\n      sub(shl(0xa0, 0x01), 0x01)\n        /* \"smart-contracts/classroom/main/Canvassing.sol\":19345:19413  newSurvey.creatingResearcherWalletAddress = _researcherWalletAddress */\n      dup10\n      and\n        /* \"smart-contracts/classroom/main/Canvassing.sol\":19345:19386  newSurvey.creatingResearcherWalletAddress */\n      0x20\n      dup3\n      add\n        /* \"smart-contracts/classroom/main/Canvassing.sol\":19345:19413  newSurvey.creatingResearcherWalletAddress = _researcherWalletAddress */\n      mstore\n        /* \"smart-contracts/classroom/main/Canvassing.sol\":19423:19438  newSurvey.topic */\n      0x40\n      dup2\n      add\n        /* \"smart-contracts/classroom/main/Canvassing.sol\":19423:19447  newSurvey.topic = _topic */\n      dup9\n      swap1\n      mstore\n        /* \"smart-contracts/classroom/main/Canvassing.sol\":19457:19484  newSurvey.numberOfQuestions */\n      0x60\n      dup2\n      add\n        /* \"smart-contracts/classroom/main/Canvassing.sol\":19457:19505  newSurvey.numberOfQuestions = _numberOfQuestions */\n      dup8\n      swap1\n      mstore\n        /* \"smart-contracts/classroom/main/Canvassing.sol\":19515:19551  newSurvey.targetNumberOfParticipants */\n      0x80\n      dup2\n      add\n        /* \"smart-contracts/classroom/main/Canvassing.sol\":19515:19581  newSurvey.targetNumberOfParticipants = _targetNumberOfParticipants */\n      dup7\n      swap1\n      mstore\n        /* \"smart-contracts/classroom/main/Canvassing.sol\":19659:19676  cUSDDecimalPlaces */\n      sload(0x16)\n        /* \"smart-contracts/classroom/main/Canvassing.sol\":19622:19676  _amountFundedForSurvey *... */\n      tag_478\n      swap1\n        /* \"smart-contracts/classroom/main/Canvassing.sol\":19622:19644  _amountFundedForSurvey */\n      dup6\n        /* \"smart-contracts/classroom/main/Canvassing.sol\":19622:19676  _amountFundedForSurvey *... */\n      tag_241\n      jump\t// in\n    tag_478:\n        /* \"smart-contracts/classroom/main/Canvassing.sol\":19591:19618  newSurvey.amountFundedInWei */\n      0xa0\n      dup3\n      add\n        /* \"smart-contracts/classroom/main/Canvassing.sol\":19591:19677  newSurvey.amountFundedInWei = (_amountFundedForSurvey *... */\n      mstore\n        /* \"smart-contracts/classroom/main/Canvassing.sol\":19687:19697  allSurveys */\n      0x03\n        /* \"smart-contracts/classroom/main/Canvassing.sol\":19687:19713  allSurveys.push(newSurvey) */\n      dup1\n      sload\n      0x01\n      dup2\n      add\n      dup3\n      sstore\n      0x00\n      swap2\n      swap1\n      swap2\n      mstore\n      dup2\n      mload\n      0xc2575a0e9e593c00f959f8c92f12db2869c3395a3b0502d05e2516446f71f85b\n      0x07\n      swap1\n      swap3\n      mul\n      swap2\n      dup3\n      add\n      swap1\n      dup2\n      sstore\n      0x20\n      dup4\n      add\n      mload\n      0xc2575a0e9e593c00f959f8c92f12db2869c3395a3b0502d05e2516446f71f85c\n      dup4\n      add\n      dup1\n      sload\n      not(sub(shl(0xa0, 0x01), 0x01))\n      and\n      sub(shl(0xa0, 0x01), 0x01)\n      swap1\n      swap3\n      and\n      swap2\n      swap1\n      swap2\n      or\n      swap1\n      sstore\n      0x40\n      dup4\n      add\n      mload\n        /* \"smart-contracts/classroom/main/Canvassing.sol\":19591:19618  newSurvey.amountFundedInWei */\n      dup4\n      swap3\n        /* \"smart-contracts/classroom/main/Canvassing.sol\":19687:19713  allSurveys.push(newSurvey) */\n      0xc2575a0e9e593c00f959f8c92f12db2869c3395a3b0502d05e2516446f71f85d\n      add\n      swap1\n      tag_480\n      swap1\n      dup3\n      tag_436\n      jump\t// in\n    tag_480:\n      pop\n      0x60\n      dup3\n      add\n      mload\n      0x03\n      dup3\n      add\n      sstore\n      0x80\n      dup3\n      add\n      mload\n      0x04\n      dup3\n      add\n      sstore\n      0xa0\n      dup3\n      add\n      mload\n      0x05\n      dup3\n      add\n      sstore\n      0xc0\n      swap1\n      swap2\n      add\n      mload\n      0x06\n      swap1\n      swap2\n      add\n      dup1\n      sload\n      not(0xff)\n      and\n      swap2\n      iszero\n      iszero\n      swap2\n      swap1\n      swap2\n      or\n      swap1\n      sstore\n        /* \"smart-contracts/classroom/main/Canvassing.sol\":19813:19825  newSurvey.id */\n      dup1\n      mload\n      sub(shl(0xa0, 0x01), 0x01)\n        /* \"smart-contracts/classroom/main/Canvassing.sol\":19724:19810  idsOfLatestSurveysCreatedByResearchers[... */\n      dup11\n      and\n      0x00\n      swap1\n      dup2\n      mstore\n        /* \"smart-contracts/classroom/main/Canvassing.sol\":19724:19762  idsOfLatestSurveysCreatedByResearchers */\n      0x0a\n        /* \"smart-contracts/classroom/main/Canvassing.sol\":19724:19810  idsOfLatestSurveysCreatedByResearchers[... */\n      0x20\n      swap1\n      dup2\n      mstore\n      0x40\n      dup1\n      dup4\n      keccak256\n        /* \"smart-contracts/classroom/main/Canvassing.sol\":19724:19825  idsOfLatestSurveysCreatedByResearchers[... */\n      swap4\n      swap1\n      swap4\n      sstore\n        /* \"smart-contracts/classroom/main/Canvassing.sol\":19892:19932  totalNumberOfSurveysCreatedByResearchers */\n      0x08\n        /* \"smart-contracts/classroom/main/Canvassing.sol\":19892:19988  totalNumberOfSurveysCreatedByResearchers[... */\n      swap1\n      mstore\n      swap1\n      dup2\n      keccak256\n      sload\n      swap1\n        /* \"smart-contracts/classroom/main/Canvassing.sol\":20055:20121  currentTotalNumberOfSurveysCreatedByResearcher +... */\n      tag_481\n        /* \"smart-contracts/classroom/main/Canvassing.sol\":19892:19988  totalNumberOfSurveysCreatedByResearchers[... */\n      dup3\n      0x01\n        /* \"smart-contracts/classroom/main/Canvassing.sol\":20055:20121  currentTotalNumberOfSurveysCreatedByResearcher +... */\n      tag_243\n      jump\t// in\n    tag_481:\n      sub(shl(0xa0, 0x01), 0x01)\n        /* \"smart-contracts/classroom/main/Canvassing.sol\":20132:20220  totalNumberOfSurveysCreatedByResearchers[... */\n      dup13\n      and\n      0x00\n      swap1\n      dup2\n      mstore\n        /* \"smart-contracts/classroom/main/Canvassing.sol\":20132:20172  totalNumberOfSurveysCreatedByResearchers */\n      0x08\n        /* \"smart-contracts/classroom/main/Canvassing.sol\":20132:20220  totalNumberOfSurveysCreatedByResearchers[... */\n      0x20\n      mstore\n      0x40\n      dup2\n      keccak256\n        /* \"smart-contracts/classroom/main/Canvassing.sol\":20132:20268  totalNumberOfSurveysCreatedByResearchers[... */\n      dup3\n      swap1\n      sstore\n        /* \"smart-contracts/classroom/main/Canvassing.sol\":19999:20121  uint256 newestTotalNumberOfSurveysCreatedByResearcher = currentTotalNumberOfSurveysCreatedByResearcher +... */\n      swap1\n      swap2\n      pop\n        /* \"smart-contracts/classroom/main/Canvassing.sol\":20343:20894  for (... */\n    tag_482:\n        /* \"smart-contracts/classroom/main/Canvassing.sol\":20416:20434  _numberOfQuestions */\n      dup10\n        /* \"smart-contracts/classroom/main/Canvassing.sol\":20400:20413  questionIndex */\n      dup2\n        /* \"smart-contracts/classroom/main/Canvassing.sol\":20400:20434  questionIndex < _numberOfQuestions */\n      lt\n        /* \"smart-contracts/classroom/main/Canvassing.sol\":20343:20894  for (... */\n      iszero\n      tag_483\n      jumpi\n        /* \"smart-contracts/classroom/main/Canvassing.sol\":20512:20529  currentQuestionId */\n      sload(0x11)\n      0x40\n      dup1\n      mload\n      0x80\n      dup2\n      add\n      dup3\n      mstore\n      0x00\n      0x20\n      dup3\n      add\n      dup2\n      dup2\n      mstore\n      0x60\n      swap4\n      dup4\n      add\n      dup5\n      swap1\n      mstore\n      swap3\n      dup3\n      add\n      mstore\n        /* \"smart-contracts/classroom/main/Canvassing.sol\":20585:20615  newQuestion.id = newQuestionId */\n      dup3\n      dup2\n      mstore\n        /* \"smart-contracts/classroom/main/Canvassing.sol\":20652:20664  newSurvey.id */\n      dup7\n      mload\n        /* \"smart-contracts/classroom/main/Canvassing.sol\":20629:20664  newQuestion.surveyId = newSurvey.id */\n      swap1\n      swap2\n      mstore\n        /* \"smart-contracts/classroom/main/Canvassing.sol\":20701:20734  _questionSentences[questionIndex] */\n      dup10\n      mload\n      dup11\n      swap1\n        /* \"smart-contracts/classroom/main/Canvassing.sol\":20720:20733  questionIndex */\n      dup5\n      swap1\n        /* \"smart-contracts/classroom/main/Canvassing.sol\":20701:20734  _questionSentences[questionIndex] */\n      dup2\n      lt\n      tag_488\n      jumpi\n      tag_488\n      tag_285\n      jump\t// in\n    tag_488:\n      0x20\n      swap1\n      dup2\n      mul\n      swap2\n      swap1\n      swap2\n      add\n      dup2\n      add\n      mload\n        /* \"smart-contracts/classroom/main/Canvassing.sol\":20678:20698  newQuestion.sentence */\n      0x40\n      dup1\n      dup5\n      add\n        /* \"smart-contracts/classroom/main/Canvassing.sol\":20678:20734  newQuestion.sentence = _questionSentences[questionIndex] */\n      swap2\n      dup3\n      mstore\n        /* \"smart-contracts/classroom/main/Canvassing.sol\":20761:20773  newSurvey.id */\n      dup9\n      mload\n        /* \"smart-contracts/classroom/main/Canvassing.sol\":20748:20774  allQuestions[newSurvey.id] */\n      0x00\n      swap1\n      dup2\n      mstore\n        /* \"smart-contracts/classroom/main/Canvassing.sol\":20748:20760  allQuestions */\n      0x04\n        /* \"smart-contracts/classroom/main/Canvassing.sol\":20748:20774  allQuestions[newSurvey.id] */\n      dup1\n      dup6\n      mstore\n      swap2\n      dup2\n      keccak256\n        /* \"smart-contracts/classroom/main/Canvassing.sol\":20748:20792  allQuestions[newSurvey.id].push(newQuestion) */\n      dup1\n      sload\n      0x01\n      dup2\n      dup2\n      add\n      dup4\n      sstore\n      swap2\n      dup4\n      mstore\n      swap2\n      dup6\n      swap1\n      keccak256\n      dup7\n      mload\n      swap3\n      swap1\n      swap4\n      mul\n      swap1\n      swap3\n      add\n      swap1\n      dup2\n      sstore\n      swap3\n      dup5\n      add\n      mload\n      swap1\n      dup4\n      add\n      sstore\n      mload\n        /* \"smart-contracts/classroom/main/Canvassing.sol\":20678:20689  newQuestion */\n      dup3\n      swap2\n        /* \"smart-contracts/classroom/main/Canvassing.sol\":20748:20792  allQuestions[newSurvey.id].push(newQuestion) */\n      swap1\n      0x02\n      dup3\n      add\n      swap1\n      tag_490\n      swap1\n      dup3\n      tag_436\n      jump\t// in\n    tag_490:\n      pop\n      0x60\n      swap2\n      swap1\n      swap2\n      add\n      mload\n      0x03\n      swap1\n      swap2\n      add\n      dup1\n      sload\n      not(0xff)\n      and\n      swap2\n      iszero\n      iszero\n      swap2\n      swap1\n      swap2\n      or\n      swap1\n      sstore\n        /* \"smart-contracts/classroom/main/Canvassing.sol\":20864:20881  currentQuestionId */\n      0x11\n        /* \"smart-contracts/classroom/main/Canvassing.sol\":20864:20883  currentQuestionId++ */\n      dup1\n      sload\n      swap1\n      0x00\n      tag_491\n      dup4\n      tag_296\n      jump\t// in\n    tag_491:\n      swap2\n      swap1\n      pop\n      sstore\n      pop\n        /* \"smart-contracts/classroom/main/Canvassing.sol\":20474:20894  {... */\n      pop\n      pop\n        /* \"smart-contracts/classroom/main/Canvassing.sol\":20448:20463  questionIndex++ */\n      dup1\n      dup1\n      tag_492\n      swap1\n      tag_296\n      jump\t// in\n    tag_492:\n      swap2\n      pop\n      pop\n        /* \"smart-contracts/classroom/main/Canvassing.sol\":20343:20894  for (... */\n      jump(tag_482)\n    tag_483:\n      pop\n        /* \"smart-contracts/classroom/main/Canvassing.sol\":20955:20970  currentSurveyId */\n      0x10\n        /* \"smart-contracts/classroom/main/Canvassing.sol\":20955:20972  currentSurveyId++ */\n      dup1\n      sload\n      swap1\n        /* \"smart-contracts/classroom/main/Canvassing.sol\":20955:20970  currentSurveyId */\n      0x00\n        /* \"smart-contracts/classroom/main/Canvassing.sol\":20955:20972  currentSurveyId++ */\n      tag_493\n      dup4\n      tag_296\n      jump\t// in\n    tag_493:\n      swap1\n      swap2\n      sstore\n      pop\n      pop\n        /* \"smart-contracts/classroom/main/Canvassing.sol\":20990:21002  newSurvey.id */\n      swap2\n      mload\n      swap11\n        /* \"smart-contracts/classroom/main/Canvassing.sol\":18894:21009  function createSurvey(... */\n      swap10\n      pop\n      pop\n      pop\n      pop\n      pop\n      pop\n      pop\n      pop\n      pop\n      pop\n      jump\t// out\n        /* \"smart-contracts/classroom/main/Canvassing.sol\":716:762  mapping(uint256 => Answer[]) public allAnswers */\n    tag_147:\n      mstore(0x20, 0x05)\n      dup2\n      0x00\n      mstore\n      keccak256(0x00, 0x40)\n      dup2\n      dup2\n      sload\n      dup2\n      lt\n      tag_494\n      jumpi\n      0x00\n      dup1\n      revert\n    tag_494:\n      0x00\n      swap2\n      dup3\n      mstore\n      0x20\n      swap1\n      swap2\n      keccak256\n      0x04\n      swap1\n      swap2\n      mul\n      add\n      dup1\n      sload\n      0x01\n      dup3\n      add\n      sload\n      0x02\n      dup4\n      add\n      sload\n      0x03\n      swap1\n      swap4\n      add\n      sload\n      swap2\n      swap5\n      pop\n      swap3\n      pop\n      sub(shl(0xa0, 0x01), 0x01)\n      dup2\n      and\n      swap1\n      0xff\n      shl(0xa0, 0x01)\n      dup3\n      div\n      dup2\n      and\n      swap2\n      shl(0xa8, 0x01)\n      swap1\n      div\n      and\n      dup7\n      jump\t// out\n        /* \"smart-contracts/classroom/main/Canvassing.sol\":12317:14258  function makePayoutAndCreateEarning(... */\n    tag_152:\n        /* \"smart-contracts/classroom/main/Canvassing.sol\":12446:12473  Survey memory currentSurvey */\n      0x00\n        /* \"smart-contracts/classroom/main/Canvassing.sol\":12476:12486  allSurveys */\n      0x03\n        /* \"smart-contracts/classroom/main/Canvassing.sol\":12487:12496  _surveyId */\n      dup4\n        /* \"smart-contracts/classroom/main/Canvassing.sol\":12476:12497  allSurveys[_surveyId] */\n      dup2\n      sload\n      dup2\n      lt\n      tag_498\n      jumpi\n      tag_498\n      tag_285\n      jump\t// in\n    tag_498:\n      swap1\n      0x00\n      mstore\n      keccak256(0x00, 0x20)\n      swap1\n      0x07\n      mul\n      add\n        /* \"smart-contracts/classroom/main/Canvassing.sol\":12446:12497  Survey memory currentSurvey = allSurveys[_surveyId] */\n      mload(0x40)\n      dup1\n      0xe0\n      add\n      0x40\n      mstore\n      swap1\n      dup2\n      0x00\n      dup3\n      add\n      sload\n      dup2\n      mstore\n      0x20\n      add\n      0x01\n      dup3\n      add\n      0x00\n      swap1\n      sload\n      swap1\n      0x0100\n      exp\n      swap1\n      div\n      sub(shl(0xa0, 0x01), 0x01)\n      and\n      sub(shl(0xa0, 0x01), 0x01)\n      and\n      sub(shl(0xa0, 0x01), 0x01)\n      and\n      dup2\n      mstore\n      0x20\n      add\n      0x02\n      dup3\n      add\n      dup1\n      sload\n      tag_500\n      swap1\n      tag_257\n      jump\t// in\n    tag_500:\n      dup1\n      0x1f\n      add\n      0x20\n      dup1\n      swap2\n      div\n      mul\n      0x20\n      add\n      mload(0x40)\n      swap1\n      dup2\n      add\n      0x40\n      mstore\n      dup1\n      swap3\n      swap2\n      swap1\n      dup2\n      dup2\n      mstore\n      0x20\n      add\n      dup3\n      dup1\n      sload\n      tag_501\n      swap1\n      tag_257\n      jump\t// in\n    tag_501:\n      dup1\n      iszero\n      tag_502\n      jumpi\n      dup1\n      0x1f\n      lt\n      tag_503\n      jumpi\n      0x0100\n      dup1\n      dup4\n      sload\n      div\n      mul\n      dup4\n      mstore\n      swap2\n      0x20\n      add\n      swap2\n      jump(tag_502)\n    tag_503:\n      dup3\n      add\n      swap2\n      swap1\n      0x00\n      mstore\n      keccak256(0x00, 0x20)\n      swap1\n    tag_504:\n      dup2\n      sload\n      dup2\n      mstore\n      swap1\n      0x01\n      add\n      swap1\n      0x20\n      add\n      dup1\n      dup4\n      gt\n      tag_504\n      jumpi\n      dup3\n      swap1\n      sub\n      0x1f\n      and\n      dup3\n      add\n      swap2\n    tag_502:\n      pop\n      pop\n      pop\n      swap2\n      dup4\n      mstore\n      pop\n      pop\n      0x03\n      dup3\n      add\n      sload\n      0x20\n      dup3\n      add\n      mstore\n      0x04\n      dup3\n      add\n      sload\n      0x40\n      dup3\n      add\n      mstore\n      0x05\n      dup3\n      add\n      sload\n      0x60\n      dup3\n      add\n      mstore\n      0x06\n      swap1\n      swap2\n      add\n      sload\n      0xff\n      and\n      iszero\n      iszero\n      0x80\n      swap1\n      swap2\n      add\n      mstore\n      swap1\n      pop\n      0x00\n        /* \"smart-contracts/classroom/main/Canvassing.sol\":12595:12682  getAmountOfEarningPerParticipantForSurveyInWei(... */\n      tag_505\n        /* \"smart-contracts/classroom/main/Canvassing.sol\":12659:12668  _surveyId */\n      dup5\n        /* \"smart-contracts/classroom/main/Canvassing.sol\":12595:12641  getAmountOfEarningPerParticipantForSurveyInWei */\n      tag_82\n        /* \"smart-contracts/classroom/main/Canvassing.sol\":12595:12682  getAmountOfEarningPerParticipantForSurveyInWei(... */\n      jump\t// in\n    tag_505:\n        /* \"smart-contracts/classroom/main/Canvassing.sol\":12693:12697  cUSD */\n      sload(0x15)\n        /* \"smart-contracts/classroom/main/Canvassing.sol\":12693:12804  cUSD.transfer(... */\n      mload(0x40)\n      shl(0xe0, 0xa9059cbb)\n      dup2\n      mstore\n      sub(shl(0xa0, 0x01), 0x01)\n        /* \"#utility.yul\":24396:24428   */\n      dup7\n      dup2\n      and\n        /* \"smart-contracts/classroom/main/Canvassing.sol\":12693:12804  cUSD.transfer(... */\n      0x04\n      dup4\n      add\n        /* \"#utility.yul\":24378:24429   */\n      mstore\n        /* \"#utility.yul\":24445:24463   */\n      0x24\n      dup3\n      add\n        /* \"#utility.yul\":24438:24472   */\n      dup5\n      swap1\n      mstore\n        /* \"smart-contracts/classroom/main/Canvassing.sol\":12549:12682  uint256 amountToBePaidOutToParticipantInWei = getAmountOfEarningPerParticipantForSurveyInWei(... */\n      swap3\n      swap4\n      pop\n        /* \"smart-contracts/classroom/main/Canvassing.sol\":12693:12697  cUSD */\n      swap2\n      and\n      swap1\n        /* \"smart-contracts/classroom/main/Canvassing.sol\":12693:12706  cUSD.transfer */\n      0xa9059cbb\n      swap1\n        /* \"#utility.yul\":24351:24369   */\n      0x44\n      add\n        /* \"smart-contracts/classroom/main/Canvassing.sol\":12693:12804  cUSD.transfer(... */\n      0x20\n      mload(0x40)\n      dup1\n      dup4\n      sub\n      dup2\n      0x00\n      dup8\n      gas\n      call\n      iszero\n      dup1\n      iszero\n      tag_509\n      jumpi\n      returndatasize\n      0x00\n      dup1\n      returndatacopy\n      revert(0x00, returndatasize)\n    tag_509:\n      pop\n      pop\n      pop\n      pop\n      mload(0x40)\n      returndatasize\n      not(0x1f)\n      0x1f\n      dup3\n      add\n      and\n      dup3\n      add\n      dup1\n      0x40\n      mstore\n      pop\n      dup2\n      add\n      swap1\n      tag_510\n      swap2\n      swap1\n      tag_511\n      jump\t// in\n    tag_510:\n      pop\n        /* \"smart-contracts/classroom/main/Canvassing.sol\":12876:12918  uint256 amountToBePaidOutToCanvassingInWei */\n      0x00\n        /* \"smart-contracts/classroom/main/Canvassing.sol\":12921:13079  getAmountOfEarningForCanvassingForSurveyPerParticipantInWei(... */\n      tag_512\n        /* \"smart-contracts/classroom/main/Canvassing.sol\":12998:13007  _surveyId */\n      dup6\n        /* \"smart-contracts/classroom/main/Canvassing.sol\":13025:13038  currentSurvey */\n      dup5\n        /* \"smart-contracts/classroom/main/Canvassing.sol\":13025:13065  currentSurvey.targetNumberOfParticipants */\n      0x80\n      add\n      mload\n        /* \"smart-contracts/classroom/main/Canvassing.sol\":12921:12980  getAmountOfEarningForCanvassingForSurveyPerParticipantInWei */\n      tag_122\n        /* \"smart-contracts/classroom/main/Canvassing.sol\":12921:13079  getAmountOfEarningForCanvassingForSurveyPerParticipantInWei(... */\n      jump\t// in\n    tag_512:\n        /* \"smart-contracts/classroom/main/Canvassing.sol\":13090:13094  cUSD */\n      sload(0x15)\n      0x00\n        /* \"smart-contracts/classroom/main/Canvassing.sol\":13117:13140  canvassingWalletAddress */\n      sload\n        /* \"smart-contracts/classroom/main/Canvassing.sol\":13090:13198  cUSD.transfer(... */\n      mload(0x40)\n      shl(0xe0, 0xa9059cbb)\n      dup2\n      mstore\n      sub(shl(0xa0, 0x01), 0x01)\n        /* \"smart-contracts/classroom/main/Canvassing.sol\":13117:13140  canvassingWalletAddress */\n      swap2\n      dup3\n      and\n        /* \"smart-contracts/classroom/main/Canvassing.sol\":13090:13198  cUSD.transfer(... */\n      0x04\n      dup3\n      add\n        /* \"#utility.yul\":24378:24429   */\n      mstore\n        /* \"#utility.yul\":24445:24463   */\n      0x24\n      dup2\n      add\n        /* \"#utility.yul\":24438:24472   */\n      dup5\n      swap1\n      mstore\n        /* \"smart-contracts/classroom/main/Canvassing.sol\":12876:13079  uint256 amountToBePaidOutToCanvassingInWei = getAmountOfEarningForCanvassingForSurveyPerParticipantInWei(... */\n      swap3\n      swap4\n      pop\n        /* \"smart-contracts/classroom/main/Canvassing.sol\":13090:13094  cUSD */\n      and\n      swap1\n        /* \"smart-contracts/classroom/main/Canvassing.sol\":13090:13103  cUSD.transfer */\n      0xa9059cbb\n      swap1\n        /* \"#utility.yul\":24351:24369   */\n      0x44\n      add\n        /* \"smart-contracts/classroom/main/Canvassing.sol\":13090:13198  cUSD.transfer(... */\n      0x20\n      mload(0x40)\n      dup1\n      dup4\n      sub\n      dup2\n      0x00\n      dup8\n      gas\n      call\n      iszero\n      dup1\n      iszero\n      tag_515\n      jumpi\n      returndatasize\n      0x00\n      dup1\n      returndatacopy\n      revert(0x00, returndatasize)\n    tag_515:\n      pop\n      pop\n      pop\n      pop\n      mload(0x40)\n      returndatasize\n      not(0x1f)\n      0x1f\n      dup3\n      add\n      and\n      dup3\n      add\n      dup1\n      0x40\n      mstore\n      pop\n      dup2\n      add\n      swap1\n      tag_516\n      swap2\n      swap1\n      tag_511\n      jump\t// in\n    tag_516:\n      pop\n        /* \"smart-contracts/classroom/main/Canvassing.sol\":13260:13296  Earning memory newParticipantEarning */\n      tag_517\n      tag_379\n      jump\t// in\n    tag_517:\n        /* \"smart-contracts/classroom/main/Canvassing.sol\":13333:13349  currentEarningId */\n      0x13\n      dup1\n      sload\n        /* \"smart-contracts/classroom/main/Canvassing.sol\":13306:13349  newParticipantEarning.id = currentEarningId */\n      dup3\n      mstore\n        /* \"smart-contracts/classroom/main/Canvassing.sol\":13359:13389  newParticipantEarning.surveyId */\n      0x20\n      dup3\n      add\n        /* \"smart-contracts/classroom/main/Canvassing.sol\":13359:13401  newParticipantEarning.surveyId = _surveyId */\n      dup8\n      dup2\n      mstore\n      sub(shl(0xa0, 0x01), 0x01)\n        /* \"smart-contracts/classroom/main/Canvassing.sol\":13411:13496  newParticipantEarning... */\n      dup8\n      dup2\n      and\n        /* \"smart-contracts/classroom/main/Canvassing.sol\":13411:13468  newParticipantEarning... */\n      0x40\n      dup6\n      add\n        /* \"smart-contracts/classroom/main/Canvassing.sol\":13411:13496  newParticipantEarning... */\n      swap1\n      dup2\n      mstore\n        /* \"smart-contracts/classroom/main/Canvassing.sol\":13506:13559  newParticipantEarning... */\n      0x60\n      dup6\n      add\n        /* \"smart-contracts/classroom/main/Canvassing.sol\":13506:13597  newParticipantEarning... */\n      dup8\n      dup2\n      mstore\n        /* \"smart-contracts/classroom/main/Canvassing.sol\":13607:13618  allEarnings */\n      0x0d\n        /* \"smart-contracts/classroom/main/Canvassing.sol\":13607:13646  allEarnings.push(newParticipantEarning) */\n      dup1\n      sload\n      0x01\n      dup2\n      add\n      dup3\n      sstore\n      0x00\n      swap2\n      dup3\n      mstore\n      dup8\n      mload\n      0xd7b6990105719101dabeb77144f2a3385c8033acd3af97e9423a695e81ad1eb5\n      0x05\n      swap1\n      swap3\n      mul\n      swap2\n      dup3\n      add\n      sstore\n      swap5\n      mload\n      0xd7b6990105719101dabeb77144f2a3385c8033acd3af97e9423a695e81ad1eb6\n      dup7\n      add\n      sstore\n      swap2\n      mload\n      0xd7b6990105719101dabeb77144f2a3385c8033acd3af97e9423a695e81ad1eb7\n      dup6\n      add\n      dup1\n      sload\n      not(sub(shl(0xa0, 0x01), 0x01))\n      and\n      swap2\n      swap1\n      swap5\n      and\n      or\n      swap1\n      swap3\n      sstore\n      swap1\n      mload\n      0xd7b6990105719101dabeb77144f2a3385c8033acd3af97e9423a695e81ad1eb8\n      dup4\n      add\n      sstore\n      0x80\n      dup5\n      add\n      mload\n      0xd7b6990105719101dabeb77144f2a3385c8033acd3af97e9423a695e81ad1eb9\n      swap1\n      swap3\n      add\n      dup1\n      sload\n      not(0xff)\n      and\n      swap3\n      iszero\n      iszero\n      swap3\n      swap1\n      swap3\n      or\n      swap1\n      swap2\n      sstore\n        /* \"smart-contracts/classroom/main/Canvassing.sol\":13656:13674  currentEarningId++ */\n      dup2\n      sload\n      swap2\n        /* \"smart-contracts/classroom/main/Canvassing.sol\":13333:13349  currentEarningId */\n      swap1\n        /* \"smart-contracts/classroom/main/Canvassing.sol\":13656:13674  currentEarningId++ */\n      tag_519\n      dup4\n      tag_296\n      jump\t// in\n    tag_519:\n      swap1\n      swap2\n      sstore\n      pop\n      pop\n        /* \"smart-contracts/classroom/main/Canvassing.sol\":13684:13729  payoutStatusOfParticipantForSurvey[_surveyId] */\n      0x00\n      dup7\n      dup2\n      mstore\n        /* \"smart-contracts/classroom/main/Canvassing.sol\":13684:13718  payoutStatusOfParticipantForSurvey */\n      0x07\n        /* \"smart-contracts/classroom/main/Canvassing.sol\":13684:13729  payoutStatusOfParticipantForSurvey[_surveyId] */\n      0x20\n      swap1\n      dup2\n      mstore\n      0x40\n      dup1\n      dup4\n      keccak256\n      sub(shl(0xa0, 0x01), 0x01)\n        /* \"smart-contracts/classroom/main/Canvassing.sol\":13684:13778  payoutStatusOfParticipantForSurvey[_surveyId][... */\n      dup10\n      and\n      dup5\n      mstore\n      swap1\n      swap2\n      mstore\n      swap1\n      keccak256\n        /* \"smart-contracts/classroom/main/Canvassing.sol\":13684:13785  payoutStatusOfParticipantForSurvey[_surveyId][... */\n      dup1\n      sload\n      not(0xff)\n      and\n        /* \"smart-contracts/classroom/main/Canvassing.sol\":13781:13785  true */\n      0x01\n        /* \"smart-contracts/classroom/main/Canvassing.sol\":13684:13785  payoutStatusOfParticipantForSurvey[_surveyId][... */\n      or\n      swap1\n      sstore\n        /* \"smart-contracts/classroom/main/Canvassing.sol\":13859:13894  Earning memory newCanvassingEarning */\n      tag_520\n      tag_379\n      jump\t// in\n    tag_520:\n        /* \"smart-contracts/classroom/main/Canvassing.sol\":13930:13946  currentEarningId */\n      0x13\n      dup1\n      sload\n        /* \"smart-contracts/classroom/main/Canvassing.sol\":13904:13946  newCanvassingEarning.id = currentEarningId */\n      dup3\n      mstore\n        /* \"smart-contracts/classroom/main/Canvassing.sol\":13956:13985  newCanvassingEarning.surveyId */\n      0x20\n      dup3\n      add\n        /* \"smart-contracts/classroom/main/Canvassing.sol\":13956:13997  newCanvassingEarning.surveyId = _surveyId */\n      dup9\n      dup2\n      mstore\n      0x00\n        /* \"smart-contracts/classroom/main/Canvassing.sol\":14053:14076  canvassingWalletAddress */\n      dup1\n      sload\n      sub(shl(0xa0, 0x01), 0x01)\n      swap1\n      dup2\n      and\n        /* \"smart-contracts/classroom/main/Canvassing.sol\":14007:14050  newCanvassingEarning.recipientWalletAddress */\n      0x40\n      dup7\n      add\n        /* \"smart-contracts/classroom/main/Canvassing.sol\":14007:14076  newCanvassingEarning.recipientWalletAddress = canvassingWalletAddress */\n      swap1\n      dup2\n      mstore\n        /* \"smart-contracts/classroom/main/Canvassing.sol\":14086:14138  newCanvassingEarning... */\n      0x60\n      dup7\n      add\n        /* \"smart-contracts/classroom/main/Canvassing.sol\":14086:14175  newCanvassingEarning... */\n      dup9\n      dup2\n      mstore\n        /* \"smart-contracts/classroom/main/Canvassing.sol\":14185:14196  allEarnings */\n      0x0d\n        /* \"smart-contracts/classroom/main/Canvassing.sol\":14185:14223  allEarnings.push(newCanvassingEarning) */\n      dup1\n      sload\n        /* \"smart-contracts/classroom/main/Canvassing.sol\":14053:14076  canvassingWalletAddress */\n      0x01\n        /* \"smart-contracts/classroom/main/Canvassing.sol\":14185:14223  allEarnings.push(newCanvassingEarning) */\n      dup2\n      add\n      dup3\n      sstore\n      swap1\n      dup6\n      mstore\n      dup8\n      mload\n      0xd7b6990105719101dabeb77144f2a3385c8033acd3af97e9423a695e81ad1eb5\n      0x05\n      swap1\n      swap3\n      mul\n      swap2\n      dup3\n      add\n      sstore\n      swap5\n      mload\n      0xd7b6990105719101dabeb77144f2a3385c8033acd3af97e9423a695e81ad1eb6\n      dup7\n      add\n      sstore\n      swap1\n      mload\n      0xd7b6990105719101dabeb77144f2a3385c8033acd3af97e9423a695e81ad1eb7\n      dup6\n      add\n      dup1\n      sload\n      not(sub(shl(0xa0, 0x01), 0x01))\n      and\n      swap2\n      swap1\n      swap4\n      and\n      or\n      swap1\n      swap2\n      sstore\n      mload\n      0xd7b6990105719101dabeb77144f2a3385c8033acd3af97e9423a695e81ad1eb8\n      dup4\n      add\n      sstore\n      0x80\n      dup5\n      add\n      mload\n      0xd7b6990105719101dabeb77144f2a3385c8033acd3af97e9423a695e81ad1eb9\n      swap1\n      swap3\n      add\n      dup1\n      sload\n      not(0xff)\n      and\n      swap3\n      iszero\n      iszero\n      swap3\n      swap1\n      swap3\n      or\n      swap1\n      swap2\n      sstore\n        /* \"smart-contracts/classroom/main/Canvassing.sol\":14233:14251  currentEarningId++ */\n      dup2\n      sload\n      swap2\n        /* \"smart-contracts/classroom/main/Canvassing.sol\":13930:13946  currentEarningId */\n      swap1\n        /* \"smart-contracts/classroom/main/Canvassing.sol\":14233:14251  currentEarningId++ */\n      tag_522\n      dup4\n      tag_296\n      jump\t// in\n    tag_522:\n      swap2\n      swap1\n      pop\n      sstore\n      pop\n        /* \"smart-contracts/classroom/main/Canvassing.sol\":12436:14258  {... */\n      pop\n      pop\n      pop\n      pop\n      pop\n        /* \"smart-contracts/classroom/main/Canvassing.sol\":12317:14258  function makePayoutAndCreateEarning(... */\n      pop\n      pop\n      jump\t// out\n        /* \"smart-contracts/classroom/main/Canvassing.sol\":1994:2253  function checkIfParticipantExists(address _walletAddress)... */\n    tag_155:\n      sub(shl(0xa0, 0x01), 0x01)\n        /* \"smart-contracts/classroom/main/Canvassing.sol\":2136:2199  allParticipants[_walletAddress].walletAddress == _walletAddress */\n      dup1\n      dup3\n      and\n        /* \"smart-contracts/classroom/main/Canvassing.sol\":2097:2101  bool */\n      0x00\n        /* \"smart-contracts/classroom/main/Canvassing.sol\":2136:2167  allParticipants[_walletAddress] */\n      dup2\n      dup2\n      mstore\n        /* \"smart-contracts/classroom/main/Canvassing.sol\":2136:2151  allParticipants */\n      0x02\n        /* \"smart-contracts/classroom/main/Canvassing.sol\":2136:2167  allParticipants[_walletAddress] */\n      0x20\n      mstore\n      0x40\n      dup2\n      keccak256\n        /* \"smart-contracts/classroom/main/Canvassing.sol\":2136:2181  allParticipants[_walletAddress].walletAddress */\n      0x01\n      add\n      sload\n        /* \"smart-contracts/classroom/main/Canvassing.sol\":2097:2101  bool */\n      swap1\n      swap3\n        /* \"smart-contracts/classroom/main/Canvassing.sol\":2136:2181  allParticipants[_walletAddress].walletAddress */\n      and\n        /* \"smart-contracts/classroom/main/Canvassing.sol\":2136:2199  allParticipants[_walletAddress].walletAddress == _walletAddress */\n      eq\n        /* \"smart-contracts/classroom/main/Canvassing.sol\":2136:2246  allParticipants[_walletAddress].walletAddress == _walletAddress... */\n      tag_524\n      jumpi\n        /* \"smart-contracts/classroom/main/Canvassing.sol\":2241:2246  false */\n      0x00\n        /* \"smart-contracts/classroom/main/Canvassing.sol\":2136:2246  allParticipants[_walletAddress].walletAddress == _walletAddress... */\n      jump(tag_239)\n    tag_524:\n        /* \"smart-contracts/classroom/main/Canvassing.sol\":2218:2222  true */\n      0x01\n        /* \"smart-contracts/classroom/main/Canvassing.sol\":2117:2246  return... */\n      swap3\n        /* \"smart-contracts/classroom/main/Canvassing.sol\":1994:2253  function checkIfParticipantExists(address _walletAddress)... */\n      swap2\n      pop\n      pop\n      jump\t// out\n        /* \"smart-contracts/classroom/main/Canvassing.sol\":18641:18888  function verifyResearcher(address _walletAddress) public {... */\n    tag_160:\n      sub(shl(0xa0, 0x01), 0x01)\n        /* \"smart-contracts/classroom/main/Canvassing.sol\":18746:18776  allResearchers[_walletAddress] */\n      dup1\n      dup3\n      and\n        /* \"smart-contracts/classroom/main/Canvassing.sol\":18708:18743  Researcher memory currentResearcher */\n      0x00\n        /* \"smart-contracts/classroom/main/Canvassing.sol\":18746:18776  allResearchers[_walletAddress] */\n      swap1\n      dup2\n      mstore\n        /* \"smart-contracts/classroom/main/Canvassing.sol\":18746:18760  allResearchers */\n      0x01\n        /* \"smart-contracts/classroom/main/Canvassing.sol\":18746:18776  allResearchers[_walletAddress] */\n      0x20\n      dup2\n      dup2\n      mstore\n      0x40\n      dup1\n      dup5\n      keccak256\n        /* \"smart-contracts/classroom/main/Canvassing.sol\":18708:18776  Researcher memory currentResearcher = allResearchers[_walletAddress] */\n      dup2\n      mload\n      0x0100\n      dup2\n      add\n      dup4\n      mstore\n      dup2\n      sload\n      dup2\n      mstore\n      swap4\n      dup2\n      add\n      sload\n      swap1\n      swap6\n      and\n      swap2\n      dup4\n      add\n      swap2\n      swap1\n      swap2\n      mstore\n      0x02\n      dup5\n      add\n      dup1\n      sload\n        /* \"smart-contracts/classroom/main/Canvassing.sol\":18708:18743  Researcher memory currentResearcher */\n      swap4\n      swap5\n        /* \"smart-contracts/classroom/main/Canvassing.sol\":18708:18776  Researcher memory currentResearcher = allResearchers[_walletAddress] */\n      swap3\n      swap4\n      swap2\n      dup5\n      add\n      swap2\n      tag_527\n      swap1\n      tag_257\n      jump\t// in\n    tag_527:\n      dup1\n      0x1f\n      add\n      0x20\n      dup1\n      swap2\n      div\n      mul\n      0x20\n      add\n      mload(0x40)\n      swap1\n      dup2\n      add\n      0x40\n      mstore\n      dup1\n      swap3\n      swap2\n      swap1\n      dup2\n      dup2\n      mstore\n      0x20\n      add\n      dup3\n      dup1\n      sload\n      tag_528\n      swap1\n      tag_257\n      jump\t// in\n    tag_528:\n      dup1\n      iszero\n      tag_529\n      jumpi\n      dup1\n      0x1f\n      lt\n      tag_530\n      jumpi\n      0x0100\n      dup1\n      dup4\n      sload\n      div\n      mul\n      dup4\n      mstore\n      swap2\n      0x20\n      add\n      swap2\n      jump(tag_529)\n    tag_530:\n      dup3\n      add\n      swap2\n      swap1\n      0x00\n      mstore\n      keccak256(0x00, 0x20)\n      swap1\n    tag_531:\n      dup2\n      sload\n      dup2\n      mstore\n      swap1\n      0x01\n      add\n      swap1\n      0x20\n      add\n      dup1\n      dup4\n      gt\n      tag_531\n      jumpi\n      dup3\n      swap1\n      sub\n      0x1f\n      and\n      dup3\n      add\n      swap2\n    tag_529:\n      pop\n      pop\n      pop\n      pop\n      pop\n      dup2\n      mstore\n      0x20\n      add\n      0x03\n      dup3\n      add\n      dup1\n      sload\n      tag_532\n      swap1\n      tag_257\n      jump\t// in\n    tag_532:\n      dup1\n      0x1f\n      add\n      0x20\n      dup1\n      swap2\n      div\n      mul\n      0x20\n      add\n      mload(0x40)\n      swap1\n      dup2\n      add\n      0x40\n      mstore\n      dup1\n      swap3\n      swap2\n      swap1\n      dup2\n      dup2\n      mstore\n      0x20\n      add\n      dup3\n      dup1\n      sload\n      tag_533\n      swap1\n      tag_257\n      jump\t// in\n    tag_533:\n      dup1\n      iszero\n      tag_534\n      jumpi\n      dup1\n      0x1f\n      lt\n      tag_535\n      jumpi\n      0x0100\n      dup1\n      dup4\n      sload\n      div\n      mul\n      dup4\n      mstore\n      swap2\n      0x20\n      add\n      swap2\n      jump(tag_534)\n    tag_535:\n      dup3\n      add\n      swap2\n      swap1\n      0x00\n      mstore\n      keccak256(0x00, 0x20)\n      swap1\n    tag_536:\n      dup2\n      sload\n      dup2\n      mstore\n      swap1\n      0x01\n      add\n      swap1\n      0x20\n      add\n      dup1\n      dup4\n      gt\n      tag_536\n      jumpi\n      dup3\n      swap1\n      sub\n      0x1f\n      and\n      dup3\n      add\n      swap2\n    tag_534:\n      pop\n      pop\n      pop\n      pop\n      pop\n      dup2\n      mstore\n      0x20\n      add\n      0x04\n      dup3\n      add\n      dup1\n      sload\n      tag_537\n      swap1\n      tag_257\n      jump\t// in\n    tag_537:\n      dup1\n      0x1f\n      add\n      0x20\n      dup1\n      swap2\n      div\n      mul\n      0x20\n      add\n      mload(0x40)\n      swap1\n      dup2\n      add\n      0x40\n      mstore\n      dup1\n      swap3\n      swap2\n      swap1\n      dup2\n      dup2\n      mstore\n      0x20\n      add\n      dup3\n      dup1\n      sload\n      tag_538\n      swap1\n      tag_257\n      jump\t// in\n    tag_538:\n      dup1\n      iszero\n      tag_539\n      jumpi\n      dup1\n      0x1f\n      lt\n      tag_540\n      jumpi\n      0x0100\n      dup1\n      dup4\n      sload\n      div\n      mul\n      dup4\n      mstore\n      swap2\n      0x20\n      add\n      swap2\n      jump(tag_539)\n    tag_540:\n      dup3\n      add\n      swap2\n      swap1\n      0x00\n      mstore\n      keccak256(0x00, 0x20)\n      swap1\n    tag_541:\n      dup2\n      sload\n      dup2\n      mstore\n      swap1\n      0x01\n      add\n      swap1\n      0x20\n      add\n      dup1\n      dup4\n      gt\n      tag_541\n      jumpi\n      dup3\n      swap1\n      sub\n      0x1f\n      and\n      dup3\n      add\n      swap2\n    tag_539:\n      pop\n      pop\n      pop\n      swap2\n      dup4\n      mstore\n      pop\n      pop\n      0x05\n      swap2\n      swap1\n      swap2\n      add\n      sload\n      0xff\n      dup1\n      dup3\n      and\n      iszero\n      iszero\n      0x20\n      dup1\n      dup6\n      add\n      swap2\n      swap1\n      swap2\n      mstore\n      0x0100\n      dup4\n      div\n      dup3\n      and\n      iszero\n      iszero\n      0x40\n      dup1\n      dup7\n      add\n      swap2\n      swap1\n      swap2\n      mstore\n      0x010000\n      swap1\n      swap4\n      div\n      swap1\n      swap2\n      and\n      iszero\n      iszero\n      0x60\n      swap1\n      swap4\n      add\n      swap3\n      swap1\n      swap3\n      mstore\n      0x01\n        /* \"smart-contracts/classroom/main/Canvassing.sol\":18786:18814  currentResearcher.isVerified */\n      0xc0\n      dup5\n      add\n        /* \"smart-contracts/classroom/main/Canvassing.sol\":18786:18821  currentResearcher.isVerified = true */\n      dup2\n      swap1\n      mstore\n      sub(shl(0xa0, 0x01), 0x01)\n        /* \"smart-contracts/classroom/main/Canvassing.sol\":18831:18861  allResearchers[_walletAddress] */\n      dup7\n      dup2\n      and\n      0x00\n      swap1\n      dup2\n      mstore\n      dup3\n      dup6\n      mstore\n      dup4\n      swap1\n      keccak256\n        /* \"smart-contracts/classroom/main/Canvassing.sol\":18831:18881  allResearchers[_walletAddress] = currentResearcher */\n      dup6\n      mload\n      dup2\n      sstore\n      swap4\n      dup6\n      add\n      mload\n      swap2\n      dup5\n      add\n      dup1\n      sload\n      not(sub(shl(0xa0, 0x01), 0x01))\n      and\n      swap3\n      swap1\n      swap2\n      and\n      swap2\n      swap1\n      swap2\n      or\n      swap1\n      sstore\n      dup3\n      add\n      mload\n        /* \"smart-contracts/classroom/main/Canvassing.sol\":18786:18814  currentResearcher.isVerified */\n      swap2\n      swap3\n      pop\n      dup3\n      swap2\n        /* \"smart-contracts/classroom/main/Canvassing.sol\":18708:18776  Researcher memory currentResearcher = allResearchers[_walletAddress] */\n      0x02\n        /* \"smart-contracts/classroom/main/Canvassing.sol\":18831:18881  allResearchers[_walletAddress] = currentResearcher */\n      dup3\n      add\n      swap1\n      tag_542\n      swap1\n      dup3\n      tag_436\n      jump\t// in\n    tag_542:\n      pop\n      0x60\n      dup3\n      add\n      mload\n      0x03\n      dup3\n      add\n      swap1\n      tag_543\n      swap1\n      dup3\n      tag_436\n      jump\t// in\n    tag_543:\n      pop\n      0x80\n      dup3\n      add\n      mload\n      0x04\n      dup3\n      add\n      swap1\n      tag_544\n      swap1\n      dup3\n      tag_436\n      jump\t// in\n    tag_544:\n      pop\n      0xa0\n      dup3\n      add\n      mload\n      0x05\n      swap1\n      swap2\n      add\n      dup1\n      sload\n      0xc0\n      dup5\n      add\n      mload\n      0xe0\n      swap1\n      swap5\n      add\n      mload\n      iszero\n      iszero\n      0x010000\n      mul\n      not(0xff0000)\n      swap5\n      iszero\n      iszero\n      0x0100\n      mul\n      not(0xff00)\n      swap5\n      iszero\n      iszero\n      swap5\n      swap1\n      swap5\n      and\n      not(0xffff)\n      swap1\n      swap3\n      and\n      swap2\n      swap1\n      swap2\n      or\n      swap3\n      swap1\n      swap3\n      or\n      swap3\n      swap1\n      swap3\n      and\n      or\n      swap1\n      sstore\n      pop\n      pop\n        /* \"smart-contracts/classroom/main/Canvassing.sol\":18641:18888  function verifyResearcher(address _walletAddress) public {... */\n      jump\t// out\n        /* \"smart-contracts/classroom/main/Canvassing.sol\":3478:3575  function getAllSurveys() public view returns (Survey[] memory) {... */\n    tag_166:\n        /* \"smart-contracts/classroom/main/Canvassing.sol\":3524:3539  Survey[] memory */\n      0x60\n        /* \"smart-contracts/classroom/main/Canvassing.sol\":3558:3568  allSurveys */\n      0x03\n        /* \"smart-contracts/classroom/main/Canvassing.sol\":3551:3568  return allSurveys */\n      dup1\n      sload\n      dup1\n      0x20\n      mul\n      0x20\n      add\n      mload(0x40)\n      swap1\n      dup2\n      add\n      0x40\n      mstore\n      dup1\n      swap3\n      swap2\n      swap1\n      dup2\n      dup2\n      mstore\n      0x20\n      add\n      0x00\n      swap1\n    tag_547:\n      dup3\n      dup3\n      lt\n      iszero\n      tag_548\n      jumpi\n      0x00\n      dup5\n      dup2\n      mstore\n      0x20\n      swap1\n      dup2\n      swap1\n      keccak256\n      0x40\n      dup1\n      mload\n      0xe0\n      dup2\n      add\n      dup3\n      mstore\n      0x07\n      dup7\n      mul\n      swap1\n      swap3\n      add\n      dup1\n      sload\n      dup4\n      mstore\n      0x01\n      dup2\n      add\n      sload\n      sub(shl(0xa0, 0x01), 0x01)\n      and\n      swap4\n      dup4\n      add\n      swap4\n      swap1\n      swap4\n      mstore\n      0x02\n      dup4\n      add\n      dup1\n      sload\n      swap3\n      swap4\n      swap3\n      swap2\n      dup5\n      add\n      swap2\n      tag_550\n      swap1\n      tag_257\n      jump\t// in\n    tag_550:\n      dup1\n      0x1f\n      add\n      0x20\n      dup1\n      swap2\n      div\n      mul\n      0x20\n      add\n      mload(0x40)\n      swap1\n      dup2\n      add\n      0x40\n      mstore\n      dup1\n      swap3\n      swap2\n      swap1\n      dup2\n      dup2\n      mstore\n      0x20\n      add\n      dup3\n      dup1\n      sload\n      tag_551\n      swap1\n      tag_257\n      jump\t// in\n    tag_551:\n      dup1\n      iszero\n      tag_552\n      jumpi\n      dup1\n      0x1f\n      lt\n      tag_553\n      jumpi\n      0x0100\n      dup1\n      dup4\n      sload\n      div\n      mul\n      dup4\n      mstore\n      swap2\n      0x20\n      add\n      swap2\n      jump(tag_552)\n    tag_553:\n      dup3\n      add\n      swap2\n      swap1\n      0x00\n      mstore\n      keccak256(0x00, 0x20)\n      swap1\n    tag_554:\n      dup2\n      sload\n      dup2\n      mstore\n      swap1\n      0x01\n      add\n      swap1\n      0x20\n      add\n      dup1\n      dup4\n      gt\n      tag_554\n      jumpi\n      dup3\n      swap1\n      sub\n      0x1f\n      and\n      dup3\n      add\n      swap2\n    tag_552:\n      pop\n      pop\n      pop\n      swap2\n      dup4\n      mstore\n      pop\n      pop\n      0x03\n      dup3\n      add\n      sload\n      0x20\n      dup1\n      dup4\n      add\n      swap2\n      swap1\n      swap2\n      mstore\n      0x04\n      dup4\n      add\n      sload\n      0x40\n      dup4\n      add\n      mstore\n      0x05\n      dup4\n      add\n      sload\n      0x60\n      dup4\n      add\n      mstore\n      0x06\n      swap1\n      swap3\n      add\n      sload\n      0xff\n      and\n      iszero\n      iszero\n      0x80\n      swap1\n      swap2\n      add\n      mstore\n      swap1\n      dup3\n      mstore\n      0x01\n      swap3\n      swap1\n      swap3\n      add\n      swap2\n      add\n      jump(tag_547)\n    tag_548:\n      pop\n      pop\n      pop\n      pop\n      swap1\n      pop\n        /* \"smart-contracts/classroom/main/Canvassing.sol\":3478:3575  function getAllSurveys() public view returns (Survey[] memory) {... */\n      swap1\n      jump\t// out\n        /* \"smart-contracts/classroom/main/Canvassing.sol\":1589:1617  Earning[] public allEarnings */\n    tag_174:\n      0x0d\n      dup2\n      dup2\n      sload\n      dup2\n      lt\n      tag_555\n      jumpi\n      0x00\n      dup1\n      revert\n    tag_555:\n      0x00\n      swap2\n      dup3\n      mstore\n      0x20\n      swap1\n      swap2\n      keccak256\n      0x05\n      swap1\n      swap2\n      mul\n      add\n      dup1\n      sload\n      0x01\n      dup3\n      add\n      sload\n      0x02\n      dup4\n      add\n      sload\n      0x03\n      dup5\n      add\n      sload\n      0x04\n      swap1\n      swap5\n      add\n      sload\n      swap3\n      swap5\n      pop\n      swap1\n      swap3\n      sub(shl(0xa0, 0x01), 0x01)\n      swap1\n      swap2\n      and\n      swap2\n      0xff\n      and\n      dup6\n      jump\t// out\n        /* \"smart-contracts/classroom/main/Canvassing.sol\":1554:1582  Funding[] public allFundings */\n    tag_179:\n      0x0c\n      dup2\n      dup2\n      sload\n      dup2\n      lt\n      tag_555\n      jumpi\n      0x00\n      dup1\n      revert\n        /* \"smart-contracts/classroom/main/Canvassing.sol\":21296:21474  function getParticipantsOfSurvey(uint256 _surveyId)... */\n    tag_183:\n        /* \"smart-contracts/classroom/main/Canvassing.sol\":21393:21413  Participant[] memory */\n      0x60\n        /* \"smart-contracts/classroom/main/Canvassing.sol\":21436:21456  participantsOfSurvey */\n      0x0b\n        /* \"smart-contracts/classroom/main/Canvassing.sol\":21436:21467  participantsOfSurvey[_surveyId] */\n      0x00\n        /* \"smart-contracts/classroom/main/Canvassing.sol\":21457:21466  _surveyId */\n      dup4\n        /* \"smart-contracts/classroom/main/Canvassing.sol\":21436:21467  participantsOfSurvey[_surveyId] */\n      dup2\n      mstore\n      0x20\n      add\n      swap1\n      dup2\n      mstore\n      0x20\n      add\n      0x00\n      keccak256\n        /* \"smart-contracts/classroom/main/Canvassing.sol\":21429:21467  return participantsOfSurvey[_surveyId] */\n      dup1\n      sload\n      dup1\n      0x20\n      mul\n      0x20\n      add\n      mload(0x40)\n      swap1\n      dup2\n      add\n      0x40\n      mstore\n      dup1\n      swap3\n      swap2\n      swap1\n      dup2\n      dup2\n      mstore\n      0x20\n      add\n      0x00\n      swap1\n    tag_560:\n      dup3\n      dup3\n      lt\n      iszero\n      tag_561\n      jumpi\n      0x00\n      dup5\n      dup2\n      mstore\n      0x20\n      swap1\n      dup2\n      swap1\n      keccak256\n      0x40\n      dup1\n      mload\n      0x0100\n      dup2\n      add\n      dup3\n      mstore\n      0x07\n      dup7\n      mul\n      swap1\n      swap3\n      add\n      dup1\n      sload\n      dup4\n      mstore\n      0x01\n      dup2\n      add\n      sload\n      sub(shl(0xa0, 0x01), 0x01)\n      and\n      swap4\n      dup4\n      add\n      swap4\n      swap1\n      swap4\n      mstore\n      0x02\n      dup4\n      add\n      dup1\n      sload\n      swap3\n      swap4\n      swap3\n      swap2\n      dup5\n      add\n      swap2\n      tag_563\n      swap1\n      tag_257\n      jump\t// in\n    tag_563:\n      dup1\n      0x1f\n      add\n      0x20\n      dup1\n      swap2\n      div\n      mul\n      0x20\n      add\n      mload(0x40)\n      swap1\n      dup2\n      add\n      0x40\n      mstore\n      dup1\n      swap3\n      swap2\n      swap1\n      dup2\n      dup2\n      mstore\n      0x20\n      add\n      dup3\n      dup1\n      sload\n      tag_564\n      swap1\n      tag_257\n      jump\t// in\n    tag_564:\n      dup1\n      iszero\n      tag_565\n      jumpi\n      dup1\n      0x1f\n      lt\n      tag_566\n      jumpi\n      0x0100\n      dup1\n      dup4\n      sload\n      div\n      mul\n      dup4\n      mstore\n      swap2\n      0x20\n      add\n      swap2\n      jump(tag_565)\n    tag_566:\n      dup3\n      add\n      swap2\n      swap1\n      0x00\n      mstore\n      keccak256(0x00, 0x20)\n      swap1\n    tag_567:\n      dup2\n      sload\n      dup2\n      mstore\n      swap1\n      0x01\n      add\n      swap1\n      0x20\n      add\n      dup1\n      dup4\n      gt\n      tag_567\n      jumpi\n      dup3\n      swap1\n      sub\n      0x1f\n      and\n      dup3\n      add\n      swap2\n    tag_565:\n      pop\n      pop\n      pop\n      pop\n      pop\n      dup2\n      mstore\n      0x20\n      add\n      0x03\n      dup3\n      add\n      dup1\n      sload\n      tag_568\n      swap1\n      tag_257\n      jump\t// in\n    tag_568:\n      dup1\n      0x1f\n      add\n      0x20\n      dup1\n      swap2\n      div\n      mul\n      0x20\n      add\n      mload(0x40)\n      swap1\n      dup2\n      add\n      0x40\n      mstore\n      dup1\n      swap3\n      swap2\n      swap1\n      dup2\n      dup2\n      mstore\n      0x20\n      add\n      dup3\n      dup1\n      sload\n      tag_569\n      swap1\n      tag_257\n      jump\t// in\n    tag_569:\n      dup1\n      iszero\n      tag_570\n      jumpi\n      dup1\n      0x1f\n      lt\n      tag_571\n      jumpi\n      0x0100\n      dup1\n      dup4\n      sload\n      div\n      mul\n      dup4\n      mstore\n      swap2\n      0x20\n      add\n      swap2\n      jump(tag_570)\n    tag_571:\n      dup3\n      add\n      swap2\n      swap1\n      0x00\n      mstore\n      keccak256(0x00, 0x20)\n      swap1\n    tag_572:\n      dup2\n      sload\n      dup2\n      mstore\n      swap1\n      0x01\n      add\n      swap1\n      0x20\n      add\n      dup1\n      dup4\n      gt\n      tag_572\n      jumpi\n      dup3\n      swap1\n      sub\n      0x1f\n      and\n      dup3\n      add\n      swap2\n    tag_570:\n      pop\n      pop\n      pop\n      swap2\n      dup4\n      mstore\n      pop\n      pop\n      0x04\n      dup3\n      add\n      sload\n      0x20\n      dup1\n      dup4\n      add\n      swap2\n      swap1\n      swap2\n      mstore\n      0x05\n      dup4\n      add\n      sload\n      0x40\n      dup4\n      add\n      mstore\n      0x06\n      swap1\n      swap3\n      add\n      sload\n      0xff\n      dup1\n      dup3\n      and\n      iszero\n      iszero\n      0x60\n      dup5\n      add\n      mstore\n      0x0100\n      swap1\n      swap2\n      div\n      and\n      iszero\n      iszero\n      0x80\n      swap1\n      swap2\n      add\n      mstore\n      swap1\n      dup3\n      mstore\n      0x01\n      swap3\n      swap1\n      swap3\n      add\n      swap2\n      add\n      jump(tag_560)\n    tag_561:\n      pop\n      pop\n      pop\n      pop\n      swap1\n      pop\n        /* \"smart-contracts/classroom/main/Canvassing.sol\":21296:21474  function getParticipantsOfSurvey(uint256 _surveyId)... */\n      swap2\n      swap1\n      pop\n      jump\t// out\n        /* \"smart-contracts/classroom/main/Canvassing.sol\":14264:14521  function checkIfResearcherExists(address _walletAddress)... */\n    tag_188:\n      sub(shl(0xa0, 0x01), 0x01)\n        /* \"smart-contracts/classroom/main/Canvassing.sol\":14405:14467  allResearchers[_walletAddress].walletAddress == _walletAddress */\n      dup1\n      dup3\n      and\n        /* \"smart-contracts/classroom/main/Canvassing.sol\":14366:14370  bool */\n      0x00\n        /* \"smart-contracts/classroom/main/Canvassing.sol\":14405:14435  allResearchers[_walletAddress] */\n      dup2\n      dup2\n      mstore\n        /* \"smart-contracts/classroom/main/Canvassing.sol\":14405:14419  allResearchers */\n      0x01\n        /* \"smart-contracts/classroom/main/Canvassing.sol\":14405:14435  allResearchers[_walletAddress] */\n      0x20\n      dup2\n      swap1\n      mstore\n      0x40\n      dup3\n      keccak256\n        /* \"smart-contracts/classroom/main/Canvassing.sol\":14405:14449  allResearchers[_walletAddress].walletAddress */\n      add\n      sload\n        /* \"smart-contracts/classroom/main/Canvassing.sol\":14366:14370  bool */\n      swap1\n      swap3\n        /* \"smart-contracts/classroom/main/Canvassing.sol\":14405:14449  allResearchers[_walletAddress].walletAddress */\n      and\n        /* \"smart-contracts/classroom/main/Canvassing.sol\":14405:14467  allResearchers[_walletAddress].walletAddress == _walletAddress */\n      eq\n        /* \"smart-contracts/classroom/main/Canvassing.sol\":14405:14514  allResearchers[_walletAddress].walletAddress == _walletAddress... */\n      tag_524\n      jumpi\n        /* \"smart-contracts/classroom/main/Canvassing.sol\":14509:14514  false */\n      0x00\n        /* \"smart-contracts/classroom/main/Canvassing.sol\":14405:14514  allResearchers[_walletAddress].walletAddress == _walletAddress... */\n      jump(tag_239)\n        /* \"smart-contracts/classroom/main/Canvassing.sol\":17506:18635  function createFunding(... */\n    tag_198:\n        /* \"smart-contracts/classroom/main/Canvassing.sol\":17702:17738  uint256 amountOfFundingOfSurveyInWei */\n      0x00\n        /* \"smart-contracts/classroom/main/Canvassing.sol\":17741:17870  getAmountOfFundingOfAnySurveyInWei(... */\n      tag_578\n        /* \"smart-contracts/classroom/main/Canvassing.sol\":17793:17811  _numberOfQuestions */\n      dup6\n        /* \"smart-contracts/classroom/main/Canvassing.sol\":17829:17856  _targetNumberOfParticipants */\n      dup6\n        /* \"smart-contracts/classroom/main/Canvassing.sol\":17741:17775  getAmountOfFundingOfAnySurveyInWei */\n      tag_55\n        /* \"smart-contracts/classroom/main/Canvassing.sol\":17741:17870  getAmountOfFundingOfAnySurveyInWei(... */\n      jump\t// in\n    tag_578:\n        /* \"smart-contracts/classroom/main/Canvassing.sol\":17904:17920  currentFundingId */\n      sload(0x14)\n      0x40\n      dup1\n      mload\n      0xa0\n      dup2\n      add\n      dup3\n      mstore\n      0x00\n      0x80\n      dup3\n      add\n      dup2\n      dup2\n      mstore\n        /* \"smart-contracts/classroom/main/Canvassing.sol\":17967:17995  newFunding.id = newFundingId */\n      dup5\n      dup4\n      mstore\n      0x20\n      dup1\n      dup5\n      add\n        /* \"smart-contracts/classroom/main/Canvassing.sol\":18005:18036  newFunding.surveyId = _surveyId */\n      dup11\n      dup2\n      mstore\n      sub(shl(0xa0, 0x01), 0x01)\n        /* \"smart-contracts/classroom/main/Canvassing.sol\":18046:18115  newFunding.creatingResearcherWalletAddress = _researcherWalletAddress */\n      dup11\n      dup2\n      and\n      dup7\n      dup9\n      add\n      dup2\n      dup2\n      mstore\n      0x60\n      dup9\n      add\n        /* \"smart-contracts/classroom/main/Canvassing.sol\":18125:18184  newFunding.amountFundedInWei = amountOfFundingOfSurveyInWei */\n      dup12\n      dup2\n      mstore\n        /* \"smart-contracts/classroom/main/Canvassing.sol\":18195:18206  allFundings */\n      0x0c\n        /* \"smart-contracts/classroom/main/Canvassing.sol\":18195:18223  allFundings.push(newFunding) */\n      dup1\n      sload\n      0x01\n      dup2\n      add\n      dup3\n      sstore\n      swap1\n      dup10\n      mstore\n      dup10\n      mload\n      0xdf6966c971051c3d54ec59162606531493a51404a002842f56009d7e5cf4a8c7\n      0x05\n      swap1\n      swap3\n      mul\n      swap2\n      dup3\n      add\n      sstore\n      swap5\n      mload\n      0xdf6966c971051c3d54ec59162606531493a51404a002842f56009d7e5cf4a8c8\n      dup7\n      add\n      sstore\n      swap1\n      mload\n      0xdf6966c971051c3d54ec59162606531493a51404a002842f56009d7e5cf4a8c9\n      dup6\n      add\n      dup1\n      sload\n      not(sub(shl(0xa0, 0x01), 0x01))\n      and\n      swap2\n      swap1\n      swap5\n      and\n      or\n      swap1\n      swap3\n      sstore\n      swap1\n      mload\n      0xdf6966c971051c3d54ec59162606531493a51404a002842f56009d7e5cf4a8ca\n      dup4\n      add\n      sstore\n      swap3\n      mload\n      0xdf6966c971051c3d54ec59162606531493a51404a002842f56009d7e5cf4a8cb\n      swap1\n      swap2\n      add\n      dup1\n      sload\n      not(0xff)\n      and\n      swap2\n      iszero\n      iszero\n      swap2\n      swap1\n      swap2\n      or\n      swap1\n      sstore\n        /* \"smart-contracts/classroom/main/Canvassing.sol\":18286:18377  totalAmountFundedByResearchersInWei[... */\n      swap1\n      dup3\n      mstore\n        /* \"smart-contracts/classroom/main/Canvassing.sol\":18286:18321  totalAmountFundedByResearchersInWei */\n      0x09\n        /* \"smart-contracts/classroom/main/Canvassing.sol\":18286:18377  totalAmountFundedByResearchersInWei[... */\n      swap1\n      mstore\n      swap2\n      swap1\n      swap2\n      keccak256\n      sload\n        /* \"smart-contracts/classroom/main/Canvassing.sol\":18125:18184  newFunding.amountFundedInWei = amountOfFundingOfSurveyInWei */\n      swap3\n      swap4\n      pop\n        /* \"smart-contracts/classroom/main/Canvassing.sol\":17904:17920  currentFundingId */\n      swap1\n      swap2\n        /* \"smart-contracts/classroom/main/Canvassing.sol\":18474:18547  currentTotalAmountFundedByResearcherInWei += amountOfFundingOfSurveyInWei */\n      tag_582\n        /* \"smart-contracts/classroom/main/Canvassing.sol\":18125:18184  newFunding.amountFundedInWei = amountOfFundingOfSurveyInWei */\n      dup5\n        /* \"smart-contracts/classroom/main/Canvassing.sol\":18286:18377  totalAmountFundedByResearchersInWei[... */\n      dup3\n        /* \"smart-contracts/classroom/main/Canvassing.sol\":18474:18547  currentTotalAmountFundedByResearcherInWei += amountOfFundingOfSurveyInWei */\n      tag_243\n      jump\t// in\n    tag_582:\n      sub(shl(0xa0, 0x01), 0x01)\n        /* \"smart-contracts/classroom/main/Canvassing.sol\":18388:18471  totalAmountFundedByResearchersInWei[... */\n      dup7\n      and\n      0x00\n      swap1\n      dup2\n      mstore\n        /* \"smart-contracts/classroom/main/Canvassing.sol\":18388:18423  totalAmountFundedByResearchersInWei */\n      0x09\n        /* \"smart-contracts/classroom/main/Canvassing.sol\":18388:18471  totalAmountFundedByResearchersInWei[... */\n      0x20\n      mstore\n      0x40\n      dup2\n      keccak256\n        /* \"smart-contracts/classroom/main/Canvassing.sol\":18388:18547  totalAmountFundedByResearchersInWei[... */\n      dup3\n      swap1\n      sstore\n        /* \"smart-contracts/classroom/main/Canvassing.sol\":18610:18626  currentFundingId */\n      0x14\n        /* \"smart-contracts/classroom/main/Canvassing.sol\":18610:18628  currentFundingId++ */\n      dup1\n      sload\n        /* \"smart-contracts/classroom/main/Canvassing.sol\":18474:18547  currentTotalAmountFundedByResearcherInWei += amountOfFundingOfSurveyInWei */\n      swap3\n      swap4\n      pop\n        /* \"smart-contracts/classroom/main/Canvassing.sol\":18610:18626  currentFundingId */\n      swap1\n        /* \"smart-contracts/classroom/main/Canvassing.sol\":18610:18628  currentFundingId++ */\n      tag_583\n      dup4\n      tag_296\n      jump\t// in\n    tag_583:\n      swap2\n      swap1\n      pop\n      sstore\n      pop\n        /* \"smart-contracts/classroom/main/Canvassing.sol\":17692:18635  {... */\n      pop\n      pop\n      pop\n      pop\n        /* \"smart-contracts/classroom/main/Canvassing.sol\":17506:18635  function createFunding(... */\n      pop\n      pop\n      pop\n      pop\n      jump\t// out\n        /* \"smart-contracts/classroom/main/Canvassing.sol\":3581:3732  function getSurveyById(uint256 _surveyId)... */\n    tag_205:\n        /* \"smart-contracts/classroom/main/Canvassing.sol\":3668:3681  Survey memory */\n      tag_584\n      tag_279\n      jump\t// in\n    tag_584:\n        /* \"smart-contracts/classroom/main/Canvassing.sol\":3704:3714  allSurveys */\n      0x03\n        /* \"smart-contracts/classroom/main/Canvassing.sol\":3715:3724  _surveyId */\n      dup3\n        /* \"smart-contracts/classroom/main/Canvassing.sol\":3704:3725  allSurveys[_surveyId] */\n      dup2\n      sload\n      dup2\n      lt\n      tag_587\n      jumpi\n      tag_587\n      tag_285\n      jump\t// in\n    tag_587:\n      swap1\n      0x00\n      mstore\n      keccak256(0x00, 0x20)\n      swap1\n      0x07\n      mul\n      add\n        /* \"smart-contracts/classroom/main/Canvassing.sol\":3697:3725  return allSurveys[_surveyId] */\n      mload(0x40)\n      dup1\n      0xe0\n      add\n      0x40\n      mstore\n      swap1\n      dup2\n      0x00\n      dup3\n      add\n      sload\n      dup2\n      mstore\n      0x20\n      add\n      0x01\n      dup3\n      add\n      0x00\n      swap1\n      sload\n      swap1\n      0x0100\n      exp\n      swap1\n      div\n      sub(shl(0xa0, 0x01), 0x01)\n      and\n      sub(shl(0xa0, 0x01), 0x01)\n      and\n      sub(shl(0xa0, 0x01), 0x01)\n      and\n      dup2\n      mstore\n      0x20\n      add\n      0x02\n      dup3\n      add\n      dup1\n      sload\n      tag_589\n      swap1\n      tag_257\n      jump\t// in\n    tag_589:\n      dup1\n      0x1f\n      add\n      0x20\n      dup1\n      swap2\n      div\n      mul\n      0x20\n      add\n      mload(0x40)\n      swap1\n      dup2\n      add\n      0x40\n      mstore\n      dup1\n      swap3\n      swap2\n      swap1\n      dup2\n      dup2\n      mstore\n      0x20\n      add\n      dup3\n      dup1\n      sload\n      tag_590\n      swap1\n      tag_257\n      jump\t// in\n    tag_590:\n      dup1\n      iszero\n      tag_591\n      jumpi\n      dup1\n      0x1f\n      lt\n      tag_592\n      jumpi\n      0x0100\n      dup1\n      dup4\n      sload\n      div\n      mul\n      dup4\n      mstore\n      swap2\n      0x20\n      add\n      swap2\n      jump(tag_591)\n    tag_592:\n      dup3\n      add\n      swap2\n      swap1\n      0x00\n      mstore\n      keccak256(0x00, 0x20)\n      swap1\n    tag_593:\n      dup2\n      sload\n      dup2\n      mstore\n      swap1\n      0x01\n      add\n      swap1\n      0x20\n      add\n      dup1\n      dup4\n      gt\n      tag_593\n      jumpi\n      dup3\n      swap1\n      sub\n      0x1f\n      and\n      dup3\n      add\n      swap2\n    tag_591:\n      pop\n      pop\n      pop\n      swap2\n      dup4\n      mstore\n      pop\n      pop\n      0x03\n      dup3\n      add\n      sload\n      0x20\n      dup3\n      add\n      mstore\n      0x04\n      dup3\n      add\n      sload\n      0x40\n      dup3\n      add\n      mstore\n      0x05\n      dup3\n      add\n      sload\n      0x60\n      dup3\n      add\n      mstore\n      0x06\n      swap1\n      swap2\n      add\n      sload\n      0xff\n      and\n      iszero\n      iszero\n      0x80\n      swap1\n      swap2\n      add\n      mstore\n      swap3\n        /* \"smart-contracts/classroom/main/Canvassing.sol\":3581:3732  function getSurveyById(uint256 _surveyId)... */\n      swap2\n      pop\n      pop\n      jump\t// out\n        /* \"smart-contracts/classroom/main/Canvassing.sol\":10639:12311  function participateInSurvey(... */\n    tag_211:\n      sub(shl(0xa0, 0x01), 0x01)\n        /* \"smart-contracts/classroom/main/Canvassing.sol\":10838:10902  allParticipants[... */\n      dup1\n      dup4\n      and\n        /* \"smart-contracts/classroom/main/Canvassing.sol\":10798:10835  Participant memory currentParticipant */\n      0x00\n        /* \"smart-contracts/classroom/main/Canvassing.sol\":10838:10902  allParticipants[... */\n      swap1\n      dup2\n      mstore\n        /* \"smart-contracts/classroom/main/Canvassing.sol\":10838:10853  allParticipants */\n      0x02\n        /* \"smart-contracts/classroom/main/Canvassing.sol\":10838:10902  allParticipants[... */\n      0x20\n      dup2\n      dup2\n      mstore\n      0x40\n      dup1\n      dup5\n      keccak256\n        /* \"smart-contracts/classroom/main/Canvassing.sol\":10798:10902  Participant memory currentParticipant = allParticipants[... */\n      dup2\n      mload\n      0x0100\n      dup2\n      add\n      dup4\n      mstore\n      dup2\n      sload\n      dup2\n      mstore\n      0x01\n      dup3\n      add\n      sload\n      swap1\n      swap7\n      and\n      swap3\n      dup7\n      add\n      swap3\n      swap1\n      swap3\n      mstore\n      swap2\n      dup2\n      add\n      dup1\n      sload\n        /* \"smart-contracts/classroom/main/Canvassing.sol\":10798:10835  Participant memory currentParticipant */\n      swap4\n      swap5\n        /* \"smart-contracts/classroom/main/Canvassing.sol\":10798:10902  Participant memory currentParticipant = allParticipants[... */\n      swap4\n        /* \"smart-contracts/classroom/main/Canvassing.sol\":10838:10902  allParticipants[... */\n      swap2\n      swap3\n        /* \"smart-contracts/classroom/main/Canvassing.sol\":10798:10902  Participant memory currentParticipant = allParticipants[... */\n      dup5\n      add\n      swap2\n      tag_595\n      swap1\n      tag_257\n      jump\t// in\n    tag_595:\n      dup1\n      0x1f\n      add\n      0x20\n      dup1\n      swap2\n      div\n      mul\n      0x20\n      add\n      mload(0x40)\n      swap1\n      dup2\n      add\n      0x40\n      mstore\n      dup1\n      swap3\n      swap2\n      swap1\n      dup2\n      dup2\n      mstore\n      0x20\n      add\n      dup3\n      dup1\n      sload\n      tag_596\n      swap1\n      tag_257\n      jump\t// in\n    tag_596:\n      dup1\n      iszero\n      tag_597\n      jumpi\n      dup1\n      0x1f\n      lt\n      tag_598\n      jumpi\n      0x0100\n      dup1\n      dup4\n      sload\n      div\n      mul\n      dup4\n      mstore\n      swap2\n      0x20\n      add\n      swap2\n      jump(tag_597)\n    tag_598:\n      dup3\n      add\n      swap2\n      swap1\n      0x00\n      mstore\n      keccak256(0x00, 0x20)\n      swap1\n    tag_599:\n      dup2\n      sload\n      dup2\n      mstore\n      swap1\n      0x01\n      add\n      swap1\n      0x20\n      add\n      dup1\n      dup4\n      gt\n      tag_599\n      jumpi\n      dup3\n      swap1\n      sub\n      0x1f\n      and\n      dup3\n      add\n      swap2\n    tag_597:\n      pop\n      pop\n      pop\n      pop\n      pop\n      dup2\n      mstore\n      0x20\n      add\n      0x03\n      dup3\n      add\n      dup1\n      sload\n      tag_600\n      swap1\n      tag_257\n      jump\t// in\n    tag_600:\n      dup1\n      0x1f\n      add\n      0x20\n      dup1\n      swap2\n      div\n      mul\n      0x20\n      add\n      mload(0x40)\n      swap1\n      dup2\n      add\n      0x40\n      mstore\n      dup1\n      swap3\n      swap2\n      swap1\n      dup2\n      dup2\n      mstore\n      0x20\n      add\n      dup3\n      dup1\n      sload\n      tag_601\n      swap1\n      tag_257\n      jump\t// in\n    tag_601:\n      dup1\n      iszero\n      tag_602\n      jumpi\n      dup1\n      0x1f\n      lt\n      tag_603\n      jumpi\n      0x0100\n      dup1\n      dup4\n      sload\n      div\n      mul\n      dup4\n      mstore\n      swap2\n      0x20\n      add\n      swap2\n      jump(tag_602)\n    tag_603:\n      dup3\n      add\n      swap2\n      swap1\n      0x00\n      mstore\n      keccak256(0x00, 0x20)\n      swap1\n    tag_604:\n      dup2\n      sload\n      dup2\n      mstore\n      swap1\n      0x01\n      add\n      swap1\n      0x20\n      add\n      dup1\n      dup4\n      gt\n      tag_604\n      jumpi\n      dup3\n      swap1\n      sub\n      0x1f\n      and\n      dup3\n      add\n      swap2\n    tag_602:\n      pop\n      pop\n      pop\n      swap2\n      dup4\n      mstore\n      pop\n      pop\n      0x04\n      dup3\n      add\n      sload\n      0x20\n      dup3\n      add\n      mstore\n      0x05\n      dup3\n      add\n      sload\n      0x40\n      dup3\n      add\n      mstore\n      0x06\n      swap1\n      swap2\n      add\n      sload\n      0xff\n      dup1\n      dup3\n      and\n      iszero\n      iszero\n      0x60\n      dup5\n      add\n      mstore\n      0x0100\n      swap1\n      swap2\n      div\n      and\n      iszero\n      iszero\n      0x80\n      swap1\n      swap2\n      add\n      mstore\n        /* \"smart-contracts/classroom/main/Canvassing.sol\":10943:10953  allSurveys */\n      0x03\n        /* \"smart-contracts/classroom/main/Canvassing.sol\":10943:10964  allSurveys[_surveyId] */\n      dup1\n      sload\n        /* \"smart-contracts/classroom/main/Canvassing.sol\":10798:10902  Participant memory currentParticipant = allParticipants[... */\n      swap2\n      swap3\n      pop\n      0x00\n      swap2\n        /* \"smart-contracts/classroom/main/Canvassing.sol\":10954:10963  _surveyId */\n      dup7\n      swap1\n        /* \"smart-contracts/classroom/main/Canvassing.sol\":10943:10964  allSurveys[_surveyId] */\n      dup2\n      lt\n      tag_606\n      jumpi\n      tag_606\n      tag_285\n      jump\t// in\n    tag_606:\n      swap1\n      0x00\n      mstore\n      keccak256(0x00, 0x20)\n      swap1\n      0x07\n      mul\n      add\n        /* \"smart-contracts/classroom/main/Canvassing.sol\":10913:10964  Survey memory currentSurvey = allSurveys[_surveyId] */\n      mload(0x40)\n      dup1\n      0xe0\n      add\n      0x40\n      mstore\n      swap1\n      dup2\n      0x00\n      dup3\n      add\n      sload\n      dup2\n      mstore\n      0x20\n      add\n      0x01\n      dup3\n      add\n      0x00\n      swap1\n      sload\n      swap1\n      0x0100\n      exp\n      swap1\n      div\n      sub(shl(0xa0, 0x01), 0x01)\n      and\n      sub(shl(0xa0, 0x01), 0x01)\n      and\n      sub(shl(0xa0, 0x01), 0x01)\n      and\n      dup2\n      mstore\n      0x20\n      add\n      0x02\n      dup3\n      add\n      dup1\n      sload\n      tag_608\n      swap1\n      tag_257\n      jump\t// in\n    tag_608:\n      dup1\n      0x1f\n      add\n      0x20\n      dup1\n      swap2\n      div\n      mul\n      0x20\n      add\n      mload(0x40)\n      swap1\n      dup2\n      add\n      0x40\n      mstore\n      dup1\n      swap3\n      swap2\n      swap1\n      dup2\n      dup2\n      mstore\n      0x20\n      add\n      dup3\n      dup1\n      sload\n      tag_609\n      swap1\n      tag_257\n      jump\t// in\n    tag_609:\n      dup1\n      iszero\n      tag_610\n      jumpi\n      dup1\n      0x1f\n      lt\n      tag_611\n      jumpi\n      0x0100\n      dup1\n      dup4\n      sload\n      div\n      mul\n      dup4\n      mstore\n      swap2\n      0x20\n      add\n      swap2\n      jump(tag_610)\n    tag_611:\n      dup3\n      add\n      swap2\n      swap1\n      0x00\n      mstore\n      keccak256(0x00, 0x20)\n      swap1\n    tag_612:\n      dup2\n      sload\n      dup2\n      mstore\n      swap1\n      0x01\n      add\n      swap1\n      0x20\n      add\n      dup1\n      dup4\n      gt\n      tag_612\n      jumpi\n      dup3\n      swap1\n      sub\n      0x1f\n      and\n      dup3\n      add\n      swap2\n    tag_610:\n      pop\n      pop\n      pop\n      swap2\n      dup4\n      mstore\n      pop\n      pop\n      0x03\n      dup3\n      add\n      sload\n      0x20\n      dup3\n      add\n      mstore\n      0x04\n      dup3\n      add\n      sload\n      0x40\n      dup3\n      add\n      mstore\n      0x05\n      dup3\n      add\n      sload\n      0x60\n      dup1\n      dup4\n      add\n      swap2\n      swap1\n      swap2\n      mstore\n      0x06\n      swap1\n      swap3\n      add\n      sload\n      0xff\n      and\n      iszero\n      iszero\n      0x80\n      swap1\n      swap2\n      add\n      mstore\n        /* \"smart-contracts/classroom/main/Canvassing.sol\":11009:11040  currentSurvey.numberOfQuestions */\n      dup2\n      add\n      mload\n        /* \"smart-contracts/classroom/main/Canvassing.sol\":10913:10964  Survey memory currentSurvey = allSurveys[_surveyId] */\n      swap1\n      swap2\n      pop\n      0x00\n        /* \"smart-contracts/classroom/main/Canvassing.sol\":11107:11669  for (... */\n    tag_613:\n        /* \"smart-contracts/classroom/main/Canvassing.sol\":11170:11193  numberOfExpectedAnswers */\n      dup2\n        /* \"smart-contracts/classroom/main/Canvassing.sol\":11159:11167  answerId */\n      dup2\n        /* \"smart-contracts/classroom/main/Canvassing.sol\":11159:11193  answerId < numberOfExpectedAnswers */\n      lt\n        /* \"smart-contracts/classroom/main/Canvassing.sol\":11107:11669  for (... */\n      iszero\n      tag_614\n      jumpi\n        /* \"smart-contracts/classroom/main/Canvassing.sol\":11242:11265  Answer memory newAnswer */\n      tag_616\n      tag_348\n      jump\t// in\n    tag_616:\n        /* \"smart-contracts/classroom/main/Canvassing.sol\":11301:11316  currentAnswerId */\n      sload(0x12)\n        /* \"smart-contracts/classroom/main/Canvassing.sol\":11330:11356  newAnswer.id = newAnswerId */\n      dup1\n      dup3\n      mstore\n        /* \"smart-contracts/classroom/main/Canvassing.sol\":11370:11390  newAnswer.questionId */\n      0x20\n      dup3\n      add\n        /* \"smart-contracts/classroom/main/Canvassing.sol\":11370:11401  newAnswer.questionId = answerId */\n      dup4\n      swap1\n      mstore\n        /* \"smart-contracts/classroom/main/Canvassing.sol\":11415:11433  newAnswer.surveyId */\n      0x40\n      dup3\n      add\n        /* \"smart-contracts/classroom/main/Canvassing.sol\":11415:11445  newAnswer.surveyId = _surveyId */\n      dup10\n      swap1\n      mstore\n      sub(shl(0xa0, 0x01), 0x01)\n        /* \"smart-contracts/classroom/main/Canvassing.sol\":11459:11521  newAnswer.participantWalletAddress = _participantWalletAddress */\n      dup9\n      and\n        /* \"smart-contracts/classroom/main/Canvassing.sol\":11459:11493  newAnswer.participantWalletAddress */\n      0x60\n      dup4\n      add\n        /* \"smart-contracts/classroom/main/Canvassing.sol\":11459:11521  newAnswer.participantWalletAddress = _participantWalletAddress */\n      mstore\n        /* \"smart-contracts/classroom/main/Canvassing.sol\":11553:11576  _answerValues[answerId] */\n      dup7\n      mload\n        /* \"smart-contracts/classroom/main/Canvassing.sol\":11553:11566  _answerValues */\n      dup8\n      swap1\n        /* \"smart-contracts/classroom/main/Canvassing.sol\":11393:11401  answerId */\n      dup5\n      swap1\n        /* \"smart-contracts/classroom/main/Canvassing.sol\":11553:11576  _answerValues[answerId] */\n      dup2\n      lt\n      tag_618\n      jumpi\n      tag_618\n      tag_285\n      jump\t// in\n    tag_618:\n      0x20\n      swap1\n      dup2\n      mul\n      swap2\n      swap1\n      swap2\n      add\n      dup2\n      add\n      mload\n        /* \"smart-contracts/classroom/main/Canvassing.sol\":11535:11576  newAnswer.value = _answerValues[answerId] */\n      iszero\n      iszero\n        /* \"smart-contracts/classroom/main/Canvassing.sol\":11535:11550  newAnswer.value */\n      0x80\n      dup5\n      add\n        /* \"smart-contracts/classroom/main/Canvassing.sol\":11535:11576  newAnswer.value = _answerValues[answerId] */\n      swap1\n      dup2\n      mstore\n        /* \"smart-contracts/classroom/main/Canvassing.sol\":11590:11611  allAnswers[_surveyId] */\n      0x00\n      dup12\n      dup2\n      mstore\n        /* \"smart-contracts/classroom/main/Canvassing.sol\":11590:11600  allAnswers */\n      0x05\n        /* \"smart-contracts/classroom/main/Canvassing.sol\":11590:11611  allAnswers[_surveyId] */\n      dup4\n      mstore\n      0x40\n      dup1\n      dup3\n      keccak256\n        /* \"smart-contracts/classroom/main/Canvassing.sol\":11590:11627  allAnswers[_surveyId].push(newAnswer) */\n      dup1\n      sload\n      0x01\n      dup2\n      dup2\n      add\n      dup4\n      sstore\n      swap2\n      dup5\n      mstore\n      dup6\n      dup5\n      keccak256\n      dup9\n      mload\n      0x04\n      swap1\n      swap3\n      mul\n      add\n      swap1\n      dup2\n      sstore\n      swap5\n      dup8\n      add\n      mload\n      swap1\n      dup6\n      add\n      sstore\n      dup6\n      add\n      mload\n      0x02\n      dup5\n      add\n      sstore\n      0x60\n      dup6\n      add\n      mload\n      0x03\n      swap1\n      swap4\n      add\n      dup1\n      sload\n      swap3\n      mload\n      0xa0\n      dup8\n      add\n      mload\n      iszero\n      iszero\n      shl(0xa8, 0x01)\n      mul\n      not(shl(0xa8, 0xff))\n      swap2\n      iszero\n      iszero\n      shl(0xa0, 0x01)\n      mul\n      not(sub(shl(0xa8, 0x01), 0x01))\n      swap1\n      swap6\n      and\n      sub(shl(0xa0, 0x01), 0x01)\n      swap1\n      swap7\n      and\n      swap6\n      swap1\n      swap6\n      or\n      swap4\n      swap1\n      swap4\n      or\n      swap3\n      swap1\n      swap3\n      and\n      swap3\n      swap1\n      swap3\n      or\n      swap1\n      sstore\n        /* \"smart-contracts/classroom/main/Canvassing.sol\":11641:11656  currentAnswerId */\n      0x12\n        /* \"smart-contracts/classroom/main/Canvassing.sol\":11641:11658  currentAnswerId++ */\n      dup1\n      sload\n      swap2\n      tag_620\n      dup4\n      tag_296\n      jump\t// in\n    tag_620:\n      swap2\n      swap1\n      pop\n      sstore\n      pop\n        /* \"smart-contracts/classroom/main/Canvassing.sol\":11228:11669  {... */\n      pop\n      pop\n        /* \"smart-contracts/classroom/main/Canvassing.sol\":11207:11217  answerId++ */\n      dup1\n      dup1\n      tag_621\n      swap1\n      tag_296\n      jump\t// in\n    tag_621:\n      swap2\n      pop\n      pop\n        /* \"smart-contracts/classroom/main/Canvassing.sol\":11107:11669  for (... */\n      jump(tag_613)\n    tag_614:\n      pop\n        /* \"smart-contracts/classroom/main/Canvassing.sol\":11752:11791  participationStatusForSurvey[_surveyId] */\n      0x00\n      dup7\n      dup2\n      mstore\n        /* \"smart-contracts/classroom/main/Canvassing.sol\":11752:11780  participationStatusForSurvey */\n      0x06\n        /* \"smart-contracts/classroom/main/Canvassing.sol\":11752:11791  participationStatusForSurvey[_surveyId] */\n      0x20\n      swap1\n      dup2\n      mstore\n      0x40\n      dup1\n      dup4\n      keccak256\n      sub(shl(0xa0, 0x01), 0x01)\n        /* \"smart-contracts/classroom/main/Canvassing.sol\":11752:11840  participationStatusForSurvey[_surveyId][... */\n      dup10\n      and\n      dup5\n      mstore\n      dup3\n      mstore\n      dup1\n      dup4\n      keccak256\n        /* \"smart-contracts/classroom/main/Canvassing.sol\":11752:11847  participationStatusForSurvey[_surveyId][... */\n      dup1\n      sload\n      not(0xff)\n      and\n        /* \"smart-contracts/classroom/main/Canvassing.sol\":11843:11847  true */\n      0x01\n        /* \"smart-contracts/classroom/main/Canvassing.sol\":11752:11847  participationStatusForSurvey[_surveyId][... */\n      or\n      swap1\n      sstore\n        /* \"smart-contracts/classroom/main/Canvassing.sol\":11930:11961  participantsOfSurvey[_surveyId] */\n      dup9\n      dup4\n      mstore\n        /* \"smart-contracts/classroom/main/Canvassing.sol\":11930:11950  participantsOfSurvey */\n      0x0b\n        /* \"smart-contracts/classroom/main/Canvassing.sol\":11930:11961  participantsOfSurvey[_surveyId] */\n      swap1\n      swap2\n      mstore\n      swap1\n      keccak256\n        /* \"smart-contracts/classroom/main/Canvassing.sol\":11980:12036  getParticipantByWalletAddress(_participantWalletAddress) */\n      tag_622\n        /* \"smart-contracts/classroom/main/Canvassing.sol\":11805:11830  _participantWalletAddress */\n      dup7\n        /* \"smart-contracts/classroom/main/Canvassing.sol\":11980:12009  getParticipantByWalletAddress */\n      tag_92\n        /* \"smart-contracts/classroom/main/Canvassing.sol\":11980:12036  getParticipantByWalletAddress(_participantWalletAddress) */\n      jump\t// in\n    tag_622:\n        /* \"smart-contracts/classroom/main/Canvassing.sol\":11930:12046  participantsOfSurvey[_surveyId].push(... */\n      dup2\n      sload\n      0x01\n      dup1\n      dup3\n      add\n      dup5\n      sstore\n      0x00\n      swap4\n      dup5\n      mstore\n      0x20\n      swap4\n      dup5\n      swap1\n      keccak256\n      dup4\n      mload\n      0x07\n      swap1\n      swap4\n      mul\n      add\n      swap2\n      dup3\n      sstore\n      swap3\n      dup3\n      add\n      mload\n      swap3\n      dup2\n      add\n      dup1\n      sload\n      not(sub(shl(0xa0, 0x01), 0x01))\n      and\n      sub(shl(0xa0, 0x01), 0x01)\n      swap1\n      swap5\n      and\n      swap4\n      swap1\n      swap4\n      or\n      swap1\n      swap3\n      sstore\n      0x40\n      dup2\n      add\n      mload\n      swap1\n      swap2\n      swap1\n      0x02\n      dup3\n      add\n      swap1\n      tag_624\n      swap1\n      dup3\n      tag_436\n      jump\t// in\n    tag_624:\n      pop\n      0x60\n      dup3\n      add\n      mload\n      0x03\n      dup3\n      add\n      swap1\n      tag_625\n      swap1\n      dup3\n      tag_436\n      jump\t// in\n    tag_625:\n      pop\n      0x80\n      dup3\n      add\n      mload\n      0x04\n      dup3\n      add\n      sstore\n      0xa0\n      dup1\n      dup4\n      add\n      mload\n      0x05\n      dup4\n      add\n      sstore\n      0xc0\n      dup4\n      add\n      mload\n      0x06\n      swap1\n      swap3\n      add\n      dup1\n      sload\n      0xe0\n      swap1\n      swap5\n      add\n      mload\n      iszero\n      iszero\n      0x0100\n      mul\n      not(0xff00)\n      swap4\n      iszero\n      iszero\n      swap4\n      swap1\n      swap4\n      and\n      not(0xffff)\n      swap1\n      swap5\n      and\n      swap4\n      swap1\n      swap4\n      or\n      swap2\n      swap1\n      swap2\n      or\n      swap1\n      swap2\n      sstore\n        /* \"smart-contracts/classroom/main/Canvassing.sol\":12144:12188  currentParticipant.totalNumberOfSurveysTaken */\n      dup4\n      add\n        /* \"smart-contracts/classroom/main/Canvassing.sol\":12144:12193  currentParticipant.totalNumberOfSurveysTaken += 1 */\n      dup1\n      mload\n        /* \"smart-contracts/classroom/main/Canvassing.sol\":11930:12046  participantsOfSurvey[_surveyId].push(... */\n      0x01\n      swap2\n        /* \"smart-contracts/classroom/main/Canvassing.sol\":12144:12188  currentParticipant.totalNumberOfSurveysTaken */\n      swap1\n        /* \"smart-contracts/classroom/main/Canvassing.sol\":12144:12193  currentParticipant.totalNumberOfSurveysTaken += 1 */\n      tag_626\n      swap1\n        /* \"smart-contracts/classroom/main/Canvassing.sol\":11930:12046  participantsOfSurvey[_surveyId].push(... */\n      dup4\n      swap1\n        /* \"smart-contracts/classroom/main/Canvassing.sol\":12144:12193  currentParticipant.totalNumberOfSurveysTaken += 1 */\n      tag_243\n      jump\t// in\n    tag_626:\n      swap1\n      mstore\n      pop\n      sub(shl(0xa0, 0x01), 0x01)\n        /* \"smart-contracts/classroom/main/Canvassing.sol\":12241:12283  allParticipants[_participantWalletAddress] */\n      dup6\n      dup2\n      and\n      0x00\n      swap1\n      dup2\n      mstore\n        /* \"smart-contracts/classroom/main/Canvassing.sol\":12241:12256  allParticipants */\n      0x02\n        /* \"smart-contracts/classroom/main/Canvassing.sol\":12241:12283  allParticipants[_participantWalletAddress] */\n      0x20\n      dup2\n      dup2\n      mstore\n      0x40\n      swap3\n      dup4\n      swap1\n      keccak256\n        /* \"smart-contracts/classroom/main/Canvassing.sol\":12241:12304  allParticipants[_participantWalletAddress] = currentParticipant */\n      dup8\n      mload\n      dup2\n      sstore\n      swap1\n      dup8\n      add\n      mload\n      0x01\n      dup3\n      add\n      dup1\n      sload\n      not(sub(shl(0xa0, 0x01), 0x01))\n      and\n      swap2\n      swap1\n      swap6\n      and\n      or\n      swap1\n      swap4\n      sstore\n      swap1\n      dup6\n      add\n      mload\n      dup6\n      swap3\n        /* \"smart-contracts/classroom/main/Canvassing.sol\":12241:12283  allParticipants[_participantWalletAddress] */\n      swap2\n        /* \"smart-contracts/classroom/main/Canvassing.sol\":12241:12304  allParticipants[_participantWalletAddress] = currentParticipant */\n      dup3\n      add\n      swap1\n      tag_627\n      swap1\n      dup3\n      tag_436\n      jump\t// in\n    tag_627:\n      pop\n      0x60\n      dup3\n      add\n      mload\n      0x03\n      dup3\n      add\n      swap1\n      tag_628\n      swap1\n      dup3\n      tag_436\n      jump\t// in\n    tag_628:\n      pop\n      0x80\n      dup3\n      add\n      mload\n      0x04\n      dup3\n      add\n      sstore\n      0xa0\n      dup3\n      add\n      mload\n      0x05\n      dup3\n      add\n      sstore\n      0xc0\n      dup3\n      add\n      mload\n      0x06\n      swap1\n      swap2\n      add\n      dup1\n      sload\n      0xe0\n      swap1\n      swap4\n      add\n      mload\n      iszero\n      iszero\n      0x0100\n      mul\n      not(0xff00)\n      swap3\n      iszero\n      iszero\n      swap3\n      swap1\n      swap3\n      and\n      not(0xffff)\n      swap1\n      swap4\n      and\n      swap3\n      swap1\n      swap3\n      or\n      or\n      swap1\n      sstore\n      pop\n      pop\n      pop\n      pop\n      pop\n      pop\n        /* \"smart-contracts/classroom/main/Canvassing.sol\":10639:12311  function participateInSurvey(... */\n      jump\t// out\n        /* \"smart-contracts/classroom/main/Canvassing.sol\":21650:21808  function getAnswersOfSurvey(uint256 _surveyId)... */\n    tag_214:\n        /* \"smart-contracts/classroom/main/Canvassing.sol\":21742:21757  Answer[] memory */\n      0x60\n        /* \"smart-contracts/classroom/main/Canvassing.sol\":21780:21790  allAnswers */\n      0x05\n        /* \"smart-contracts/classroom/main/Canvassing.sol\":21780:21801  allAnswers[_surveyId] */\n      0x00\n        /* \"smart-contracts/classroom/main/Canvassing.sol\":21791:21800  _surveyId */\n      dup4\n        /* \"smart-contracts/classroom/main/Canvassing.sol\":21780:21801  allAnswers[_surveyId] */\n      dup2\n      mstore\n      0x20\n      add\n      swap1\n      dup2\n      mstore\n      0x20\n      add\n      0x00\n      keccak256\n        /* \"smart-contracts/classroom/main/Canvassing.sol\":21773:21801  return allAnswers[_surveyId] */\n      dup1\n      sload\n      dup1\n      0x20\n      mul\n      0x20\n      add\n      mload(0x40)\n      swap1\n      dup2\n      add\n      0x40\n      mstore\n      dup1\n      swap3\n      swap2\n      swap1\n      dup2\n      dup2\n      mstore\n      0x20\n      add\n      0x00\n      swap1\n    tag_630:\n      dup3\n      dup3\n      lt\n      iszero\n      tag_561\n      jumpi\n      0x00\n      dup5\n      dup2\n      mstore\n      0x20\n      swap1\n      dup2\n      swap1\n      keccak256\n      0x40\n      dup1\n      mload\n      0xc0\n      dup2\n      add\n      dup3\n      mstore\n      0x04\n      dup7\n      mul\n      swap1\n      swap3\n      add\n      dup1\n      sload\n      dup4\n      mstore\n      0x01\n      dup1\n      dup3\n      add\n      sload\n      dup5\n      dup7\n      add\n      mstore\n      0x02\n      dup3\n      add\n      sload\n      swap3\n      dup5\n      add\n      swap3\n      swap1\n      swap3\n      mstore\n      0x03\n      add\n      sload\n      sub(shl(0xa0, 0x01), 0x01)\n      dup2\n      and\n      0x60\n      dup5\n      add\n      mstore\n      0xff\n      shl(0xa0, 0x01)\n      dup3\n      div\n      dup2\n      and\n      iszero\n      iszero\n      0x80\n      dup6\n      add\n      mstore\n      shl(0xa8, 0x01)\n      swap1\n      swap2\n      div\n      and\n      iszero\n      iszero\n      0xa0\n      dup4\n      add\n      mstore\n      swap1\n      dup4\n      mstore\n      swap1\n      swap3\n      add\n      swap2\n      add\n      jump(tag_630)\n        /* \"smart-contracts/classroom/main/Canvassing.sol\":21480:21644  function getQuestionsOfSurvey(uint256 _surveyId)... */\n    tag_222:\n        /* \"smart-contracts/classroom/main/Canvassing.sol\":21574:21591  Question[] memory */\n      0x60\n        /* \"smart-contracts/classroom/main/Canvassing.sol\":21614:21626  allQuestions */\n      0x04\n        /* \"smart-contracts/classroom/main/Canvassing.sol\":21614:21637  allQuestions[_surveyId] */\n      0x00\n        /* \"smart-contracts/classroom/main/Canvassing.sol\":21627:21636  _surveyId */\n      dup4\n        /* \"smart-contracts/classroom/main/Canvassing.sol\":21614:21637  allQuestions[_surveyId] */\n      dup2\n      mstore\n      0x20\n      add\n      swap1\n      dup2\n      mstore\n      0x20\n      add\n      0x00\n      keccak256\n        /* \"smart-contracts/classroom/main/Canvassing.sol\":21607:21637  return allQuestions[_surveyId] */\n      dup1\n      sload\n      dup1\n      0x20\n      mul\n      0x20\n      add\n      mload(0x40)\n      swap1\n      dup2\n      add\n      0x40\n      mstore\n      dup1\n      swap3\n      swap2\n      swap1\n      dup2\n      dup2\n      mstore\n      0x20\n      add\n      0x00\n      swap1\n    tag_634:\n      dup3\n      dup3\n      lt\n      iszero\n      tag_561\n      jumpi\n      dup4\n      dup3\n      swap1\n      0x00\n      mstore\n      keccak256(0x00, 0x20)\n      swap1\n      0x04\n      mul\n      add\n      mload(0x40)\n      dup1\n      0x80\n      add\n      0x40\n      mstore\n      swap1\n      dup2\n      0x00\n      dup3\n      add\n      sload\n      dup2\n      mstore\n      0x20\n      add\n      0x01\n      dup3\n      add\n      sload\n      dup2\n      mstore\n      0x20\n      add\n      0x02\n      dup3\n      add\n      dup1\n      sload\n      tag_637\n      swap1\n      tag_257\n      jump\t// in\n    tag_637:\n      dup1\n      0x1f\n      add\n      0x20\n      dup1\n      swap2\n      div\n      mul\n      0x20\n      add\n      mload(0x40)\n      swap1\n      dup2\n      add\n      0x40\n      mstore\n      dup1\n      swap3\n      swap2\n      swap1\n      dup2\n      dup2\n      mstore\n      0x20\n      add\n      dup3\n      dup1\n      sload\n      tag_638\n      swap1\n      tag_257\n      jump\t// in\n    tag_638:\n      dup1\n      iszero\n      tag_639\n      jumpi\n      dup1\n      0x1f\n      lt\n      tag_640\n      jumpi\n      0x0100\n      dup1\n      dup4\n      sload\n      div\n      mul\n      dup4\n      mstore\n      swap2\n      0x20\n      add\n      swap2\n      jump(tag_639)\n    tag_640:\n      dup3\n      add\n      swap2\n      swap1\n      0x00\n      mstore\n      keccak256(0x00, 0x20)\n      swap1\n    tag_641:\n      dup2\n      sload\n      dup2\n      mstore\n      swap1\n      0x01\n      add\n      swap1\n      0x20\n      add\n      dup1\n      dup4\n      gt\n      tag_641\n      jumpi\n      dup3\n      swap1\n      sub\n      0x1f\n      and\n      dup3\n      add\n      swap2\n    tag_639:\n      pop\n      pop\n      pop\n      swap2\n      dup4\n      mstore\n      pop\n      pop\n      0x03\n      swap2\n      swap1\n      swap2\n      add\n      sload\n      0xff\n      and\n      iszero\n      iszero\n      0x20\n      swap2\n      dup3\n      add\n      mstore\n      swap1\n      dup3\n      mstore\n      0x01\n      swap3\n      swap1\n      swap3\n      add\n      swap2\n      add\n      jump(tag_634)\n        /* \"smart-contracts/classroom/main/Canvassing.sol\":6808:6975  function getAllQuestionsOfSurvey(uint256 _surveyId)... */\n    tag_227:\n        /* \"smart-contracts/classroom/main/Canvassing.sol\":6905:6922  Question[] memory */\n      0x60\n        /* \"smart-contracts/classroom/main/Canvassing.sol\":6945:6957  allQuestions */\n      0x04\n        /* \"smart-contracts/classroom/main/Canvassing.sol\":6945:6968  allQuestions[_surveyId] */\n      0x00\n        /* \"smart-contracts/classroom/main/Canvassing.sol\":6958:6967  _surveyId */\n      dup4\n        /* \"smart-contracts/classroom/main/Canvassing.sol\":6945:6968  allQuestions[_surveyId] */\n      dup2\n      mstore\n      0x20\n      add\n      swap1\n      dup2\n      mstore\n      0x20\n      add\n      0x00\n      keccak256\n        /* \"smart-contracts/classroom/main/Canvassing.sol\":6938:6968  return allQuestions[_surveyId] */\n      dup1\n      sload\n      dup1\n      0x20\n      mul\n      0x20\n      add\n      mload(0x40)\n      swap1\n      dup2\n      add\n      0x40\n      mstore\n      dup1\n      swap3\n      swap2\n      swap1\n      dup2\n      dup2\n      mstore\n      0x20\n      add\n      0x00\n      swap1\n    tag_643:\n      dup3\n      dup3\n      lt\n      iszero\n      tag_561\n      jumpi\n      dup4\n      dup3\n      swap1\n      0x00\n      mstore\n      keccak256(0x00, 0x20)\n      swap1\n      0x04\n      mul\n      add\n      mload(0x40)\n      dup1\n      0x80\n      add\n      0x40\n      mstore\n      swap1\n      dup2\n      0x00\n      dup3\n      add\n      sload\n      dup2\n      mstore\n      0x20\n      add\n      0x01\n      dup3\n      add\n      sload\n      dup2\n      mstore\n      0x20\n      add\n      0x02\n      dup3\n      add\n      dup1\n      sload\n      tag_646\n      swap1\n      tag_257\n      jump\t// in\n    tag_646:\n      dup1\n      0x1f\n      add\n      0x20\n      dup1\n      swap2\n      div\n      mul\n      0x20\n      add\n      mload(0x40)\n      swap1\n      dup2\n      add\n      0x40\n      mstore\n      dup1\n      swap3\n      swap2\n      swap1\n      dup2\n      dup2\n      mstore\n      0x20\n      add\n      dup3\n      dup1\n      sload\n      tag_647\n      swap1\n      tag_257\n      jump\t// in\n    tag_647:\n      dup1\n      iszero\n      tag_648\n      jumpi\n      dup1\n      0x1f\n      lt\n      tag_649\n      jumpi\n      0x0100\n      dup1\n      dup4\n      sload\n      div\n      mul\n      dup4\n      mstore\n      swap2\n      0x20\n      add\n      swap2\n      jump(tag_648)\n    tag_649:\n      dup3\n      add\n      swap2\n      swap1\n      0x00\n      mstore\n      keccak256(0x00, 0x20)\n      swap1\n    tag_650:\n      dup2\n      sload\n      dup2\n      mstore\n      swap1\n      0x01\n      add\n      swap1\n      0x20\n      add\n      dup1\n      dup4\n      gt\n      tag_650\n      jumpi\n      dup3\n      swap1\n      sub\n      0x1f\n      and\n      dup3\n      add\n      swap2\n    tag_648:\n      pop\n      pop\n      pop\n      swap2\n      dup4\n      mstore\n      pop\n      pop\n      0x03\n      swap2\n      swap1\n      swap2\n      add\n      sload\n      0xff\n      and\n      iszero\n      iszero\n      0x20\n      swap2\n      dup3\n      add\n      mstore\n      swap1\n      dup3\n      mstore\n      0x01\n      swap3\n      swap1\n      swap3\n      add\n      swap2\n      add\n      jump(tag_643)\n        /* \"smart-contracts/classroom/main/Canvassing.sol\":404:456  mapping(address => Researcher) public allResearchers */\n    tag_231:\n      0x01\n      0x20\n      dup2\n      swap1\n      mstore\n      0x00\n      swap2\n      dup3\n      mstore\n      0x40\n      swap1\n      swap2\n      keccak256\n      dup1\n      sload\n      swap2\n      dup2\n      add\n      sload\n      0x02\n      dup3\n      add\n      dup1\n      sload\n      sub(shl(0xa0, 0x01), 0x01)\n      swap1\n      swap3\n      and\n      swap3\n      swap2\n      tag_651\n      swap1\n      tag_257\n      jump\t// in\n    tag_651:\n      dup1\n      0x1f\n      add\n      0x20\n      dup1\n      swap2\n      div\n      mul\n      0x20\n      add\n      mload(0x40)\n      swap1\n      dup2\n      add\n      0x40\n      mstore\n      dup1\n      swap3\n      swap2\n      swap1\n      dup2\n      dup2\n      mstore\n      0x20\n      add\n      dup3\n      dup1\n      sload\n      tag_652\n      swap1\n      tag_257\n      jump\t// in\n    tag_652:\n      dup1\n      iszero\n      tag_653\n      jumpi\n      dup1\n      0x1f\n      lt\n      tag_654\n      jumpi\n      0x0100\n      dup1\n      dup4\n      sload\n      div\n      mul\n      dup4\n      mstore\n      swap2\n      0x20\n      add\n      swap2\n      jump(tag_653)\n    tag_654:\n      dup3\n      add\n      swap2\n      swap1\n      0x00\n      mstore\n      keccak256(0x00, 0x20)\n      swap1\n    tag_655:\n      dup2\n      sload\n      dup2\n      mstore\n      swap1\n      0x01\n      add\n      swap1\n      0x20\n      add\n      dup1\n      dup4\n      gt\n      tag_655\n      jumpi\n      dup3\n      swap1\n      sub\n      0x1f\n      and\n      dup3\n      add\n      swap2\n    tag_653:\n      pop\n      pop\n      pop\n      pop\n      pop\n      swap1\n      dup1\n      0x03\n      add\n      dup1\n      sload\n      tag_656\n      swap1\n      tag_257\n      jump\t// in\n    tag_656:\n      dup1\n      0x1f\n      add\n      0x20\n      dup1\n      swap2\n      div\n      mul\n      0x20\n      add\n      mload(0x40)\n      swap1\n      dup2\n      add\n      0x40\n      mstore\n      dup1\n      swap3\n      swap2\n      swap1\n      dup2\n      dup2\n      mstore\n      0x20\n      add\n      dup3\n      dup1\n      sload\n      tag_657\n      swap1\n      tag_257\n      jump\t// in\n    tag_657:\n      dup1\n      iszero\n      tag_658\n      jumpi\n      dup1\n      0x1f\n      lt\n      tag_659\n      jumpi\n      0x0100\n      dup1\n      dup4\n      sload\n      div\n      mul\n      dup4\n      mstore\n      swap2\n      0x20\n      add\n      swap2\n      jump(tag_658)\n    tag_659:\n      dup3\n      add\n      swap2\n      swap1\n      0x00\n      mstore\n      keccak256(0x00, 0x20)\n      swap1\n    tag_660:\n      dup2\n      sload\n      dup2\n      mstore\n      swap1\n      0x01\n      add\n      swap1\n      0x20\n      add\n      dup1\n      dup4\n      gt\n      tag_660\n      jumpi\n      dup3\n      swap1\n      sub\n      0x1f\n      and\n      dup3\n      add\n      swap2\n    tag_658:\n      pop\n      pop\n      pop\n      pop\n      pop\n      swap1\n      dup1\n      0x04\n      add\n      dup1\n      sload\n      tag_661\n      swap1\n      tag_257\n      jump\t// in\n    tag_661:\n      dup1\n      0x1f\n      add\n      0x20\n      dup1\n      swap2\n      div\n      mul\n      0x20\n      add\n      mload(0x40)\n      swap1\n      dup2\n      add\n      0x40\n      mstore\n      dup1\n      swap3\n      swap2\n      swap1\n      dup2\n      dup2\n      mstore\n      0x20\n      add\n      dup3\n      dup1\n      sload\n      tag_662\n      swap1\n      tag_257\n      jump\t// in\n    tag_662:\n      dup1\n      iszero\n      tag_663\n      jumpi\n      dup1\n      0x1f\n      lt\n      tag_664\n      jumpi\n      0x0100\n      dup1\n      dup4\n      sload\n      div\n      mul\n      dup4\n      mstore\n      swap2\n      0x20\n      add\n      swap2\n      jump(tag_663)\n    tag_664:\n      dup3\n      add\n      swap2\n      swap1\n      0x00\n      mstore\n      keccak256(0x00, 0x20)\n      swap1\n    tag_665:\n      dup2\n      sload\n      dup2\n      mstore\n      swap1\n      0x01\n      add\n      swap1\n      0x20\n      add\n      dup1\n      dup4\n      gt\n      tag_665\n      jumpi\n      dup3\n      swap1\n      sub\n      0x1f\n      and\n      dup3\n      add\n      swap2\n    tag_663:\n      pop\n      pop\n      pop\n      0x05\n      swap1\n      swap4\n      add\n      sload\n      swap2\n      swap3\n      pop\n      pop\n      0xff\n      dup1\n      dup3\n      and\n      swap2\n      0x0100\n      dup2\n      div\n      dup3\n      and\n      swap2\n      0x010000\n      swap1\n      swap2\n      div\n      and\n      dup9\n      jump\t// out\n        /* \"smart-contracts/classroom/main/Canvassing.sol\":630:680  mapping(uint256 => Question[]) public allQuestions */\n    tag_236:\n      mstore(0x20, 0x04)\n      dup2\n      0x00\n      mstore\n      keccak256(0x00, 0x40)\n      dup2\n      dup2\n      sload\n      dup2\n      lt\n      tag_666\n      jumpi\n      0x00\n      dup1\n      revert\n    tag_666:\n      swap1\n      0x00\n      mstore\n      keccak256(0x00, 0x20)\n      swap1\n      0x04\n      mul\n      add\n      0x00\n      swap2\n      pop\n      swap2\n      pop\n      pop\n      dup1\n      0x00\n      add\n      sload\n      swap1\n      dup1\n      0x01\n      add\n      sload\n      swap1\n      dup1\n      0x02\n      add\n      dup1\n      sload\n      tag_668\n      swap1\n      tag_257\n      jump\t// in\n    tag_668:\n      dup1\n      0x1f\n      add\n      0x20\n      dup1\n      swap2\n      div\n      mul\n      0x20\n      add\n      mload(0x40)\n      swap1\n      dup2\n      add\n      0x40\n      mstore\n      dup1\n      swap3\n      swap2\n      swap1\n      dup2\n      dup2\n      mstore\n      0x20\n      add\n      dup3\n      dup1\n      sload\n      tag_669\n      swap1\n      tag_257\n      jump\t// in\n    tag_669:\n      dup1\n      iszero\n      tag_670\n      jumpi\n      dup1\n      0x1f\n      lt\n      tag_671\n      jumpi\n      0x0100\n      dup1\n      dup4\n      sload\n      div\n      mul\n      dup4\n      mstore\n      swap2\n      0x20\n      add\n      swap2\n      jump(tag_670)\n    tag_671:\n      dup3\n      add\n      swap2\n      swap1\n      0x00\n      mstore\n      keccak256(0x00, 0x20)\n      swap1\n    tag_672:\n      dup2\n      sload\n      dup2\n      mstore\n      swap1\n      0x01\n      add\n      swap1\n      0x20\n      add\n      dup1\n      dup4\n      gt\n      tag_672\n      jumpi\n      dup3\n      swap1\n      sub\n      0x1f\n      and\n      dup3\n      add\n      swap2\n    tag_670:\n      pop\n      pop\n      pop\n      0x03\n      swap1\n      swap4\n      add\n      sload\n      swap2\n      swap3\n      pop\n      pop\n      0xff\n      and\n      dup5\n      jump\t// out\n    tag_254:\n      mload(0x40)\n      dup1\n      0x0100\n      add\n      0x40\n      mstore\n      dup1\n      0x00\n      dup2\n      mstore\n      0x20\n      add\n      and(sub(shl(0xa0, 0x01), 0x01), 0x00)\n      dup2\n      mstore\n      0x20\n      add\n      0x60\n      dup2\n      mstore\n      0x20\n      add\n      0x60\n      dup2\n      mstore\n      0x20\n      add\n      0x60\n      dup2\n      mstore\n      0x20\n      add\n      iszero(iszero(0x00))\n      dup2\n      mstore\n      0x20\n      add\n      iszero(iszero(0x00))\n      dup2\n      mstore\n      0x20\n      add\n      iszero(iszero(0x00))\n      dup2\n      mstore\n      pop\n      swap1\n      jump\t// out\n    tag_279:\n      mload(0x40)\n      dup1\n      0xe0\n      add\n      0x40\n      mstore\n      dup1\n      0x00\n      dup2\n      mstore\n      0x20\n      add\n      and(sub(shl(0xa0, 0x01), 0x01), 0x00)\n      dup2\n      mstore\n      0x20\n      add\n      0x60\n      dup2\n      mstore\n      0x20\n      add\n      0x00\n      dup2\n      mstore\n      0x20\n      add\n      0x00\n      dup2\n      mstore\n      0x20\n      add\n      0x00\n      dup2\n      mstore\n      0x20\n      add\n      iszero(iszero(0x00))\n      dup2\n      mstore\n      pop\n      swap1\n      jump\t// out\n    tag_348:\n      mload(0x40)\n      dup1\n      0xc0\n      add\n      0x40\n      mstore\n      dup1\n      0x00\n      dup2\n      mstore\n      0x20\n      add\n      0x00\n      dup2\n      mstore\n      0x20\n      add\n      0x00\n      dup2\n      mstore\n      0x20\n      add\n      and(sub(shl(0xa0, 0x01), 0x01), 0x00)\n      dup2\n      mstore\n      0x20\n      add\n      iszero(iszero(0x00))\n      dup2\n      mstore\n      0x20\n      add\n      iszero(iszero(0x00))\n      dup2\n      mstore\n      pop\n      swap1\n      jump\t// out\n    tag_361:\n      mload(0x40)\n      dup1\n      0x0100\n      add\n      0x40\n      mstore\n      dup1\n      0x00\n      dup2\n      mstore\n      0x20\n      add\n      and(sub(shl(0xa0, 0x01), 0x01), 0x00)\n      dup2\n      mstore\n      0x20\n      add\n      0x60\n      dup2\n      mstore\n      0x20\n      add\n      0x60\n      dup2\n      mstore\n      0x20\n      add\n      0x00\n      dup2\n      mstore\n      0x20\n      add\n      0x00\n      dup2\n      mstore\n      0x20\n      add\n      iszero(iszero(0x00))\n      dup2\n      mstore\n      0x20\n      add\n      iszero(iszero(0x00))\n      dup2\n      mstore\n      pop\n      swap1\n      jump\t// out\n    tag_379:\n      mload(0x40)\n      dup1\n      0xa0\n      add\n      0x40\n      mstore\n      dup1\n      0x00\n      dup2\n      mstore\n      0x20\n      add\n      0x00\n      dup2\n      mstore\n      0x20\n      add\n      and(sub(shl(0xa0, 0x01), 0x01), 0x00)\n      dup2\n      mstore\n      0x20\n      add\n      0x00\n      dup2\n      mstore\n      0x20\n      add\n      iszero(iszero(0x00))\n      dup2\n      mstore\n      pop\n      swap1\n      jump\t// out\n        /* \"#utility.yul\":14:262   */\n    tag_54:\n        /* \"#utility.yul\":82:88   */\n      0x00\n        /* \"#utility.yul\":90:96   */\n      dup1\n        /* \"#utility.yul\":143:145   */\n      0x40\n        /* \"#utility.yul\":131:140   */\n      dup4\n        /* \"#utility.yul\":122:129   */\n      dup6\n        /* \"#utility.yul\":118:141   */\n      sub\n        /* \"#utility.yul\":114:146   */\n      slt\n        /* \"#utility.yul\":111:163   */\n      iszero\n      tag_689\n      jumpi\n        /* \"#utility.yul\":159:160   */\n      0x00\n        /* \"#utility.yul\":156:157   */\n      dup1\n        /* \"#utility.yul\":149:161   */\n      revert\n        /* \"#utility.yul\":111:163   */\n    tag_689:\n      pop\n      pop\n        /* \"#utility.yul\":182:205   */\n      dup1\n      calldataload\n      swap3\n        /* \"#utility.yul\":252:254   */\n      0x20\n        /* \"#utility.yul\":237:255   */\n      swap1\n      swap2\n      add\n        /* \"#utility.yul\":224:256   */\n      calldataload\n      swap2\n      pop\n        /* \"#utility.yul\":14:262   */\n      jump\t// out\n        /* \"#utility.yul\":449:622   */\n    tag_673:\n        /* \"#utility.yul\":517:537   */\n      dup1\n      calldataload\n      sub(shl(0xa0, 0x01), 0x01)\n        /* \"#utility.yul\":566:597   */\n      dup2\n      and\n        /* \"#utility.yul\":556:598   */\n      dup2\n      eq\n        /* \"#utility.yul\":546:616   */\n      tag_692\n      jumpi\n        /* \"#utility.yul\":612:613   */\n      0x00\n        /* \"#utility.yul\":609:610   */\n      dup1\n        /* \"#utility.yul\":602:614   */\n      revert\n        /* \"#utility.yul\":546:616   */\n    tag_692:\n        /* \"#utility.yul\":449:622   */\n      swap2\n      swap1\n      pop\n      jump\t// out\n        /* \"#utility.yul\":627:813   */\n    tag_60:\n        /* \"#utility.yul\":686:692   */\n      0x00\n        /* \"#utility.yul\":739:741   */\n      0x20\n        /* \"#utility.yul\":727:736   */\n      dup3\n        /* \"#utility.yul\":718:725   */\n      dup5\n        /* \"#utility.yul\":714:737   */\n      sub\n        /* \"#utility.yul\":710:742   */\n      slt\n        /* \"#utility.yul\":707:759   */\n      iszero\n      tag_694\n      jumpi\n        /* \"#utility.yul\":755:756   */\n      0x00\n        /* \"#utility.yul\":752:753   */\n      dup1\n        /* \"#utility.yul\":745:757   */\n      revert\n        /* \"#utility.yul\":707:759   */\n    tag_694:\n        /* \"#utility.yul\":778:807   */\n      tag_695\n        /* \"#utility.yul\":797:806   */\n      dup3\n        /* \"#utility.yul\":778:807   */\n      tag_673\n      jump\t// in\n    tag_695:\n        /* \"#utility.yul\":768:807   */\n      swap4\n        /* \"#utility.yul\":627:813   */\n      swap3\n      pop\n      pop\n      pop\n      jump\t// out\n        /* \"#utility.yul\":927:1350   */\n    tag_675:\n        /* \"#utility.yul\":969:972   */\n      0x00\n        /* \"#utility.yul\":1007:1012   */\n      dup2\n        /* \"#utility.yul\":1001:1013   */\n      mload\n        /* \"#utility.yul\":1034:1040   */\n      dup1\n        /* \"#utility.yul\":1029:1032   */\n      dup5\n        /* \"#utility.yul\":1022:1041   */\n      mstore\n        /* \"#utility.yul\":1059:1060   */\n      0x00\n        /* \"#utility.yul\":1069:1231   */\n    tag_698:\n        /* \"#utility.yul\":1083:1089   */\n      dup2\n        /* \"#utility.yul\":1080:1081   */\n      dup2\n        /* \"#utility.yul\":1077:1090   */\n      lt\n        /* \"#utility.yul\":1069:1231   */\n      iszero\n      tag_700\n      jumpi\n        /* \"#utility.yul\":1145:1149   */\n      0x20\n        /* \"#utility.yul\":1201:1214   */\n      dup2\n      dup6\n      add\n        /* \"#utility.yul\":1197:1219   */\n      dup2\n      add\n        /* \"#utility.yul\":1191:1220   */\n      mload\n        /* \"#utility.yul\":1173:1184   */\n      dup7\n      dup4\n      add\n        /* \"#utility.yul\":1169:1189   */\n      dup3\n      add\n        /* \"#utility.yul\":1162:1221   */\n      mstore\n        /* \"#utility.yul\":1098:1110   */\n      add\n        /* \"#utility.yul\":1069:1231   */\n      jump(tag_698)\n    tag_700:\n        /* \"#utility.yul\":1073:1076   */\n      pop\n        /* \"#utility.yul\":1276:1277   */\n      0x00\n        /* \"#utility.yul\":1269:1273   */\n      0x20\n        /* \"#utility.yul\":1260:1266   */\n      dup3\n        /* \"#utility.yul\":1255:1258   */\n      dup7\n        /* \"#utility.yul\":1251:1267   */\n      add\n        /* \"#utility.yul\":1247:1274   */\n      add\n        /* \"#utility.yul\":1240:1278   */\n      mstore\n        /* \"#utility.yul\":1339:1343   */\n      0x20\n        /* \"#utility.yul\":1332:1334   */\n      0x1f\n        /* \"#utility.yul\":1328:1335   */\n      not\n        /* \"#utility.yul\":1323:1325   */\n      0x1f\n        /* \"#utility.yul\":1315:1321   */\n      dup4\n        /* \"#utility.yul\":1311:1326   */\n      add\n        /* \"#utility.yul\":1307:1336   */\n      and\n        /* \"#utility.yul\":1302:1305   */\n      dup6\n        /* \"#utility.yul\":1298:1337   */\n      add\n        /* \"#utility.yul\":1294:1344   */\n      add\n        /* \"#utility.yul\":1287:1344   */\n      swap2\n      pop\n      pop\n        /* \"#utility.yul\":927:1350   */\n      swap3\n      swap2\n      pop\n      pop\n      jump\t// out\n        /* \"#utility.yul\":1451:2767   */\n    tag_63:\n        /* \"#utility.yul\":1636:1638   */\n      0x20\n        /* \"#utility.yul\":1625:1634   */\n      dup2\n        /* \"#utility.yul\":1618:1639   */\n      mstore\n        /* \"#utility.yul\":1681:1687   */\n      dup2\n        /* \"#utility.yul\":1675:1688   */\n      mload\n        /* \"#utility.yul\":1670:1672   */\n      0x20\n        /* \"#utility.yul\":1659:1668   */\n      dup3\n        /* \"#utility.yul\":1655:1673   */\n      add\n        /* \"#utility.yul\":1648:1689   */\n      mstore\n        /* \"#utility.yul\":1599:1603   */\n      0x00\n        /* \"#utility.yul\":1736:1738   */\n      0x20\n        /* \"#utility.yul\":1728:1734   */\n      dup4\n        /* \"#utility.yul\":1724:1739   */\n      add\n        /* \"#utility.yul\":1718:1740   */\n      mload\n        /* \"#utility.yul\":1749:1801   */\n      tag_703\n        /* \"#utility.yul\":1797:1799   */\n      0x40\n        /* \"#utility.yul\":1786:1795   */\n      dup5\n        /* \"#utility.yul\":1782:1800   */\n      add\n        /* \"#utility.yul\":1768:1780   */\n      dup3\n      sub(shl(0xa0, 0x01), 0x01)\n        /* \"#utility.yul\":884:915   */\n      and\n        /* \"#utility.yul\":872:916   */\n      swap1\n      mstore\n        /* \"#utility.yul\":818:922   */\n      jump\n        /* \"#utility.yul\":1749:1801   */\n    tag_703:\n      pop\n        /* \"#utility.yul\":1850:1852   */\n      0x40\n        /* \"#utility.yul\":1842:1848   */\n      dup4\n        /* \"#utility.yul\":1838:1853   */\n      add\n        /* \"#utility.yul\":1832:1854   */\n      mload\n        /* \"#utility.yul\":1873:1879   */\n      0x0100\n        /* \"#utility.yul\":1915:1917   */\n      dup1\n        /* \"#utility.yul\":1910:1912   */\n      0x60\n        /* \"#utility.yul\":1899:1908   */\n      dup6\n        /* \"#utility.yul\":1895:1913   */\n      add\n        /* \"#utility.yul\":1888:1918   */\n      mstore\n        /* \"#utility.yul\":1941:1995   */\n      tag_704\n        /* \"#utility.yul\":1990:1993   */\n      0x0120\n        /* \"#utility.yul\":1979:1988   */\n      dup6\n        /* \"#utility.yul\":1975:1994   */\n      add\n        /* \"#utility.yul\":1959:1973   */\n      dup4\n        /* \"#utility.yul\":1941:1995   */\n      tag_675\n      jump\t// in\n    tag_704:\n        /* \"#utility.yul\":1927:1995   */\n      swap2\n      pop\n        /* \"#utility.yul\":2044:2046   */\n      0x60\n        /* \"#utility.yul\":2036:2042   */\n      dup6\n        /* \"#utility.yul\":2032:2047   */\n      add\n        /* \"#utility.yul\":2026:2048   */\n      mload\n        /* \"#utility.yul\":2071:2073   */\n      0x1f\n        /* \"#utility.yul\":2067:2074   */\n      not\n        /* \"#utility.yul\":2139:2141   */\n      dup1\n        /* \"#utility.yul\":2127:2136   */\n      dup7\n        /* \"#utility.yul\":2119:2125   */\n      dup6\n        /* \"#utility.yul\":2115:2137   */\n      sub\n        /* \"#utility.yul\":2111:2142   */\n      add\n        /* \"#utility.yul\":2105:2108   */\n      0x80\n        /* \"#utility.yul\":2094:2103   */\n      dup8\n        /* \"#utility.yul\":2090:2109   */\n      add\n        /* \"#utility.yul\":2083:2143   */\n      mstore\n        /* \"#utility.yul\":2166:2207   */\n      tag_705\n        /* \"#utility.yul\":2200:2206   */\n      dup5\n        /* \"#utility.yul\":2184:2198   */\n      dup4\n        /* \"#utility.yul\":2166:2207   */\n      tag_675\n      jump\t// in\n    tag_705:\n        /* \"#utility.yul\":2152:2207   */\n      swap4\n      pop\n        /* \"#utility.yul\":2256:2259   */\n      0x80\n        /* \"#utility.yul\":2248:2254   */\n      dup8\n        /* \"#utility.yul\":2244:2260   */\n      add\n        /* \"#utility.yul\":2238:2261   */\n      mload\n        /* \"#utility.yul\":2216:2261   */\n      swap2\n      pop\n        /* \"#utility.yul\":2326:2328   */\n      dup1\n        /* \"#utility.yul\":2314:2323   */\n      dup7\n        /* \"#utility.yul\":2306:2312   */\n      dup6\n        /* \"#utility.yul\":2302:2324   */\n      sub\n        /* \"#utility.yul\":2298:2329   */\n      add\n        /* \"#utility.yul\":2292:2295   */\n      0xa0\n        /* \"#utility.yul\":2281:2290   */\n      dup8\n        /* \"#utility.yul\":2277:2296   */\n      add\n        /* \"#utility.yul\":2270:2330   */\n      mstore\n      pop\n        /* \"#utility.yul\":2353:2394   */\n      tag_706\n        /* \"#utility.yul\":2387:2393   */\n      dup4\n        /* \"#utility.yul\":2371:2385   */\n      dup3\n        /* \"#utility.yul\":2353:2394   */\n      tag_675\n      jump\t// in\n    tag_706:\n        /* \"#utility.yul\":2339:2394   */\n      swap3\n      pop\n      pop\n        /* \"#utility.yul\":2443:2446   */\n      0xa0\n        /* \"#utility.yul\":2435:2441   */\n      dup6\n        /* \"#utility.yul\":2431:2447   */\n      add\n        /* \"#utility.yul\":2425:2448   */\n      mload\n        /* \"#utility.yul\":2457:2509   */\n      tag_707\n        /* \"#utility.yul\":2504:2507   */\n      0xc0\n        /* \"#utility.yul\":2493:2502   */\n      dup7\n        /* \"#utility.yul\":2489:2508   */\n      add\n        /* \"#utility.yul\":2473:2487   */\n      dup3\n        /* \"#utility.yul\":1425:1438   */\n      iszero\n        /* \"#utility.yul\":1418:1439   */\n      iszero\n        /* \"#utility.yul\":1406:1440   */\n      swap1\n      mstore\n        /* \"#utility.yul\":1355:1446   */\n      jump\n        /* \"#utility.yul\":2457:2509   */\n    tag_707:\n      pop\n        /* \"#utility.yul\":2558:2561   */\n      0xc0\n        /* \"#utility.yul\":2546:2562   */\n      dup6\n      add\n        /* \"#utility.yul\":2540:2563   */\n      mload\n        /* \"#utility.yul\":1425:1438   */\n      dup1\n      iszero\n        /* \"#utility.yul\":1418:1439   */\n      iszero\n        /* \"#utility.yul\":2619:2622   */\n      0xe0\n        /* \"#utility.yul\":2604:2623   */\n      dup7\n      add\n        /* \"#utility.yul\":1406:1440   */\n      mstore\n      pop\n        /* \"#utility.yul\":2673:2676   */\n      0xe0\n        /* \"#utility.yul\":2661:2677   */\n      dup6\n      add\n        /* \"#utility.yul\":2655:2678   */\n      mload\n        /* \"#utility.yul\":1425:1438   */\n      dup1\n      iszero\n        /* \"#utility.yul\":1418:1439   */\n      iszero\n        /* \"#utility.yul\":2719:2737   */\n      dup6\n      dup4\n      add\n        /* \"#utility.yul\":1406:1440   */\n      mstore\n        /* \"#utility.yul\":2687:2738   */\n      tag_281\n        /* \"#utility.yul\":1355:1446   */\n      jump\n        /* \"#utility.yul\":2772:3369   */\n    tag_677:\n        /* \"#utility.yul\":2857:2862   */\n      dup1\n        /* \"#utility.yul\":2851:2863   */\n      mload\n        /* \"#utility.yul\":2846:2849   */\n      dup3\n        /* \"#utility.yul\":2839:2864   */\n      mstore\n        /* \"#utility.yul\":2942:2943   */\n      0x01\n        /* \"#utility.yul\":2938:2939   */\n      dup1\n        /* \"#utility.yul\":2933:2936   */\n      0xa0\n        /* \"#utility.yul\":2929:2940   */\n      shl\n        /* \"#utility.yul\":2925:2944   */\n      sub\n        /* \"#utility.yul\":2917:2921   */\n      0x20\n        /* \"#utility.yul\":2910:2915   */\n      dup3\n        /* \"#utility.yul\":2906:2922   */\n      add\n        /* \"#utility.yul\":2900:2923   */\n      mload\n        /* \"#utility.yul\":2896:2945   */\n      and\n        /* \"#utility.yul\":2889:2893   */\n      0x20\n        /* \"#utility.yul\":2884:2887   */\n      dup4\n        /* \"#utility.yul\":2880:2894   */\n      add\n        /* \"#utility.yul\":2873:2946   */\n      mstore\n        /* \"#utility.yul\":2821:2824   */\n      0x00\n        /* \"#utility.yul\":2992:2996   */\n      0x40\n        /* \"#utility.yul\":2985:2990   */\n      dup3\n        /* \"#utility.yul\":2981:2997   */\n      add\n        /* \"#utility.yul\":2975:2998   */\n      mload\n        /* \"#utility.yul\":3030:3034   */\n      0xe0\n        /* \"#utility.yul\":3023:3027   */\n      0x40\n        /* \"#utility.yul\":3018:3021   */\n      dup6\n        /* \"#utility.yul\":3014:3028   */\n      add\n        /* \"#utility.yul\":3007:3035   */\n      mstore\n        /* \"#utility.yul\":3056:3103   */\n      tag_711\n        /* \"#utility.yul\":3097:3101   */\n      0xe0\n        /* \"#utility.yul\":3092:3095   */\n      dup6\n        /* \"#utility.yul\":3088:3102   */\n      add\n        /* \"#utility.yul\":3074:3086   */\n      dup3\n        /* \"#utility.yul\":3056:3103   */\n      tag_675\n      jump\t// in\n    tag_711:\n        /* \"#utility.yul\":3044:3103   */\n      swap1\n      pop\n        /* \"#utility.yul\":3152:3156   */\n      0x60\n        /* \"#utility.yul\":3145:3150   */\n      dup4\n        /* \"#utility.yul\":3141:3157   */\n      add\n        /* \"#utility.yul\":3135:3158   */\n      mload\n        /* \"#utility.yul\":3128:3132   */\n      0x60\n        /* \"#utility.yul\":3123:3126   */\n      dup6\n        /* \"#utility.yul\":3119:3133   */\n      add\n        /* \"#utility.yul\":3112:3159   */\n      mstore\n        /* \"#utility.yul\":3208:3212   */\n      0x80\n        /* \"#utility.yul\":3201:3206   */\n      dup4\n        /* \"#utility.yul\":3197:3213   */\n      add\n        /* \"#utility.yul\":3191:3214   */\n      mload\n        /* \"#utility.yul\":3184:3188   */\n      0x80\n        /* \"#utility.yul\":3179:3182   */\n      dup6\n        /* \"#utility.yul\":3175:3189   */\n      add\n        /* \"#utility.yul\":3168:3215   */\n      mstore\n        /* \"#utility.yul\":3264:3268   */\n      0xa0\n        /* \"#utility.yul\":3257:3262   */\n      dup4\n        /* \"#utility.yul\":3253:3269   */\n      add\n        /* \"#utility.yul\":3247:3270   */\n      mload\n        /* \"#utility.yul\":3240:3244   */\n      0xa0\n        /* \"#utility.yul\":3235:3238   */\n      dup6\n        /* \"#utility.yul\":3231:3245   */\n      add\n        /* \"#utility.yul\":3224:3271   */\n      mstore\n        /* \"#utility.yul\":3334:3338   */\n      0xc0\n        /* \"#utility.yul\":3327:3332   */\n      dup4\n        /* \"#utility.yul\":3323:3339   */\n      add\n        /* \"#utility.yul\":3317:3340   */\n      mload\n        /* \"#utility.yul\":3310:3341   */\n      iszero\n        /* \"#utility.yul\":3303:3342   */\n      iszero\n        /* \"#utility.yul\":3296:3300   */\n      0xc0\n        /* \"#utility.yul\":3291:3294   */\n      dup6\n        /* \"#utility.yul\":3287:3301   */\n      add\n        /* \"#utility.yul\":3280:3343   */\n      mstore\n        /* \"#utility.yul\":3359:3363   */\n      dup1\n        /* \"#utility.yul\":3352:3363   */\n      swap2\n      pop\n      pop\n        /* \"#utility.yul\":2772:3369   */\n      swap3\n      swap2\n      pop\n      pop\n      jump\t// out\n        /* \"#utility.yul\":3374:4212   */\n    tag_68:\n        /* \"#utility.yul\":3564:3568   */\n      0x00\n        /* \"#utility.yul\":3593:3595   */\n      0x20\n        /* \"#utility.yul\":3633:3635   */\n      dup1\n        /* \"#utility.yul\":3622:3631   */\n      dup4\n        /* \"#utility.yul\":3618:3636   */\n      add\n        /* \"#utility.yul\":3663:3665   */\n      dup2\n        /* \"#utility.yul\":3652:3661   */\n      dup5\n        /* \"#utility.yul\":3645:3666   */\n      mstore\n        /* \"#utility.yul\":3686:3692   */\n      dup1\n        /* \"#utility.yul\":3721:3727   */\n      dup6\n        /* \"#utility.yul\":3715:3728   */\n      mload\n        /* \"#utility.yul\":3752:3758   */\n      dup1\n        /* \"#utility.yul\":3744:3750   */\n      dup4\n        /* \"#utility.yul\":3737:3759   */\n      mstore\n        /* \"#utility.yul\":3790:3792   */\n      0x40\n        /* \"#utility.yul\":3779:3788   */\n      dup7\n        /* \"#utility.yul\":3775:3793   */\n      add\n        /* \"#utility.yul\":3768:3793   */\n      swap2\n      pop\n        /* \"#utility.yul\":3852:3854   */\n      0x40\n        /* \"#utility.yul\":3842:3848   */\n      dup2\n        /* \"#utility.yul\":3839:3840   */\n      0x05\n        /* \"#utility.yul\":3835:3849   */\n      shl\n        /* \"#utility.yul\":3824:3833   */\n      dup8\n        /* \"#utility.yul\":3820:3850   */\n      add\n        /* \"#utility.yul\":3816:3855   */\n      add\n        /* \"#utility.yul\":3802:3855   */\n      swap3\n      pop\n        /* \"#utility.yul\":3890:3892   */\n      dup4\n        /* \"#utility.yul\":3882:3888   */\n      dup8\n        /* \"#utility.yul\":3878:3893   */\n      add\n        /* \"#utility.yul\":3911:3912   */\n      0x00\n        /* \"#utility.yul\":3921:4183   */\n    tag_713:\n        /* \"#utility.yul\":3935:3941   */\n      dup3\n        /* \"#utility.yul\":3932:3933   */\n      dup2\n        /* \"#utility.yul\":3929:3942   */\n      lt\n        /* \"#utility.yul\":3921:4183   */\n      iszero\n      tag_715\n      jumpi\n        /* \"#utility.yul\":4028:4030   */\n      0x3f\n        /* \"#utility.yul\":4024:4031   */\n      not\n        /* \"#utility.yul\":4012:4021   */\n      dup9\n        /* \"#utility.yul\":4004:4010   */\n      dup7\n        /* \"#utility.yul\":4000:4022   */\n      sub\n        /* \"#utility.yul\":3996:4032   */\n      add\n        /* \"#utility.yul\":3991:3994   */\n      dup5\n        /* \"#utility.yul\":3984:4033   */\n      mstore\n        /* \"#utility.yul\":4056:4103   */\n      tag_716\n        /* \"#utility.yul\":4096:4102   */\n      dup6\n        /* \"#utility.yul\":4087:4093   */\n      dup4\n        /* \"#utility.yul\":4081:4094   */\n      mload\n        /* \"#utility.yul\":4056:4103   */\n      tag_677\n      jump\t// in\n    tag_716:\n        /* \"#utility.yul\":4046:4103   */\n      swap5\n      pop\n        /* \"#utility.yul\":4161:4173   */\n      swap3\n      dup6\n      add\n      swap3\n        /* \"#utility.yul\":4126:4141   */\n      swap1\n      dup6\n      add\n      swap1\n        /* \"#utility.yul\":3957:3958   */\n      0x01\n        /* \"#utility.yul\":3950:3959   */\n      add\n        /* \"#utility.yul\":3921:4183   */\n      jump(tag_713)\n    tag_715:\n      pop\n        /* \"#utility.yul\":4200:4206   */\n      swap3\n      swap8\n        /* \"#utility.yul\":3374:4212   */\n      swap7\n      pop\n      pop\n      pop\n      pop\n      pop\n      pop\n      pop\n      jump\t// out\n        /* \"#utility.yul\":4217:5098   */\n    tag_73:\n        /* \"#utility.yul\":4574:4599   */\n      dup9\n      dup2\n      mstore\n      sub(shl(0xa0, 0x01), 0x01)\n        /* \"#utility.yul\":4635:4667   */\n      dup9\n      and\n        /* \"#utility.yul\":4630:4632   */\n      0x20\n        /* \"#utility.yul\":4615:4633   */\n      dup3\n      add\n        /* \"#utility.yul\":4608:4668   */\n      mstore\n        /* \"#utility.yul\":4562:4565   */\n      0x0100\n        /* \"#utility.yul\":4699:4701   */\n      0x40\n        /* \"#utility.yul\":4684:4702   */\n      dup3\n      add\n        /* \"#utility.yul\":4677:4707   */\n      dup2\n      swap1\n      mstore\n        /* \"#utility.yul\":4533:4537   */\n      0x00\n      swap1\n        /* \"#utility.yul\":4730:4775   */\n      tag_718\n        /* \"#utility.yul\":4756:4774   */\n      dup4\n      dup3\n      add\n        /* \"#utility.yul\":4748:4754   */\n      dup11\n        /* \"#utility.yul\":4730:4775   */\n      tag_675\n      jump\t// in\n    tag_718:\n        /* \"#utility.yul\":4716:4775   */\n      swap1\n      pop\n        /* \"#utility.yul\":4823:4832   */\n      dup3\n        /* \"#utility.yul\":4815:4821   */\n      dup2\n        /* \"#utility.yul\":4811:4833   */\n      sub\n        /* \"#utility.yul\":4806:4808   */\n      0x60\n        /* \"#utility.yul\":4795:4804   */\n      dup5\n        /* \"#utility.yul\":4791:4809   */\n      add\n        /* \"#utility.yul\":4784:4834   */\n      mstore\n        /* \"#utility.yul\":4851:4884   */\n      tag_719\n        /* \"#utility.yul\":4877:4883   */\n      dup2\n        /* \"#utility.yul\":4869:4875   */\n      dup10\n        /* \"#utility.yul\":4851:4884   */\n      tag_675\n      jump\t// in\n    tag_719:\n        /* \"#utility.yul\":4915:4918   */\n      0x80\n        /* \"#utility.yul\":4900:4919   */\n      dup5\n      add\n        /* \"#utility.yul\":4893:4928   */\n      swap8\n      swap1\n      swap8\n      mstore\n      pop\n      pop\n        /* \"#utility.yul\":4959:4962   */\n      0xa0\n        /* \"#utility.yul\":4944:4963   */\n      dup2\n      add\n        /* \"#utility.yul\":4937:4972   */\n      swap4\n      swap1\n      swap4\n      mstore\n        /* \"#utility.yul\":5016:5030   */\n      swap1\n      iszero\n        /* \"#utility.yul\":5009:5031   */\n      iszero\n        /* \"#utility.yul\":5003:5006   */\n      0xc0\n        /* \"#utility.yul\":4988:5007   */\n      dup4\n      add\n        /* \"#utility.yul\":4981:5032   */\n      mstore\n        /* \"#utility.yul\":5076:5090   */\n      iszero\n        /* \"#utility.yul\":5069:5091   */\n      iszero\n        /* \"#utility.yul\":5063:5066   */\n      0xe0\n        /* \"#utility.yul\":5048:5067   */\n      swap1\n      swap2\n      add\n        /* \"#utility.yul\":5041:5092   */\n      mstore\n        /* \"#utility.yul\":4843:4884   */\n      swap5\n        /* \"#utility.yul\":4217:5098   */\n      swap4\n      pop\n      pop\n      pop\n      pop\n      jump\t// out\n        /* \"#utility.yul\":5103:5283   */\n    tag_76:\n        /* \"#utility.yul\":5162:5168   */\n      0x00\n        /* \"#utility.yul\":5215:5217   */\n      0x20\n        /* \"#utility.yul\":5203:5212   */\n      dup3\n        /* \"#utility.yul\":5194:5201   */\n      dup5\n        /* \"#utility.yul\":5190:5213   */\n      sub\n        /* \"#utility.yul\":5186:5218   */\n      slt\n        /* \"#utility.yul\":5183:5235   */\n      iszero\n      tag_721\n      jumpi\n        /* \"#utility.yul\":5231:5232   */\n      0x00\n        /* \"#utility.yul\":5228:5229   */\n      dup1\n        /* \"#utility.yul\":5221:5233   */\n      revert\n        /* \"#utility.yul\":5183:5235   */\n    tag_721:\n      pop\n        /* \"#utility.yul\":5254:5277   */\n      calldataload\n      swap2\n        /* \"#utility.yul\":5103:5283   */\n      swap1\n      pop\n      jump\t// out\n        /* \"#utility.yul\":5288:5975   */\n    tag_79:\n        /* \"#utility.yul\":5581:5606   */\n      dup8\n      dup2\n      mstore\n      sub(shl(0xa0, 0x01), 0x01)\n        /* \"#utility.yul\":5642:5674   */\n      dup8\n      and\n        /* \"#utility.yul\":5637:5639   */\n      0x20\n        /* \"#utility.yul\":5622:5640   */\n      dup3\n      add\n        /* \"#utility.yul\":5615:5675   */\n      mstore\n        /* \"#utility.yul\":5711:5714   */\n      0xe0\n        /* \"#utility.yul\":5706:5708   */\n      0x40\n        /* \"#utility.yul\":5691:5709   */\n      dup3\n      add\n        /* \"#utility.yul\":5684:5715   */\n      dup2\n      swap1\n      mstore\n      0x00\n      swap1\n        /* \"#utility.yul\":5732:5778   */\n      tag_723\n      swap1\n        /* \"#utility.yul\":5758:5777   */\n      dup4\n      add\n        /* \"#utility.yul\":5750:5756   */\n      dup9\n        /* \"#utility.yul\":5732:5778   */\n      tag_675\n      jump\t// in\n    tag_723:\n        /* \"#utility.yul\":5724:5778   */\n      swap1\n      pop\n        /* \"#utility.yul\":5814:5820   */\n      dup6\n        /* \"#utility.yul\":5809:5811   */\n      0x60\n        /* \"#utility.yul\":5798:5807   */\n      dup4\n        /* \"#utility.yul\":5794:5812   */\n      add\n        /* \"#utility.yul\":5787:5821   */\n      mstore\n        /* \"#utility.yul\":5858:5864   */\n      dup5\n        /* \"#utility.yul\":5852:5855   */\n      0x80\n        /* \"#utility.yul\":5841:5850   */\n      dup4\n        /* \"#utility.yul\":5837:5856   */\n      add\n        /* \"#utility.yul\":5830:5865   */\n      mstore\n        /* \"#utility.yul\":5902:5908   */\n      dup4\n        /* \"#utility.yul\":5896:5899   */\n      0xa0\n        /* \"#utility.yul\":5885:5894   */\n      dup4\n        /* \"#utility.yul\":5881:5900   */\n      add\n        /* \"#utility.yul\":5874:5909   */\n      mstore\n        /* \"#utility.yul\":5960:5966   */\n      dup3\n        /* \"#utility.yul\":5953:5967   */\n      iszero\n        /* \"#utility.yul\":5946:5968   */\n      iszero\n        /* \"#utility.yul\":5940:5943   */\n      0xc0\n        /* \"#utility.yul\":5929:5938   */\n      dup4\n        /* \"#utility.yul\":5925:5944   */\n      add\n        /* \"#utility.yul\":5918:5969   */\n      mstore\n        /* \"#utility.yul\":5288:5975   */\n      swap9\n      swap8\n      pop\n      pop\n      pop\n      pop\n      pop\n      pop\n      pop\n      pop\n      jump\t// out\n        /* \"#utility.yul\":5980:6234   */\n    tag_86:\n        /* \"#utility.yul\":6048:6054   */\n      0x00\n        /* \"#utility.yul\":6056:6062   */\n      dup1\n        /* \"#utility.yul\":6109:6111   */\n      0x40\n        /* \"#utility.yul\":6097:6106   */\n      dup4\n        /* \"#utility.yul\":6088:6095   */\n      dup6\n        /* \"#utility.yul\":6084:6107   */\n      sub\n        /* \"#utility.yul\":6080:6112   */\n      slt\n        /* \"#utility.yul\":6077:6129   */\n      iszero\n      tag_725\n      jumpi\n        /* \"#utility.yul\":6125:6126   */\n      0x00\n        /* \"#utility.yul\":6122:6123   */\n      dup1\n        /* \"#utility.yul\":6115:6127   */\n      revert\n        /* \"#utility.yul\":6077:6129   */\n    tag_725:\n        /* \"#utility.yul\":6161:6170   */\n      dup3\n        /* \"#utility.yul\":6148:6171   */\n      calldataload\n        /* \"#utility.yul\":6138:6171   */\n      swap2\n      pop\n        /* \"#utility.yul\":6190:6228   */\n      tag_726\n        /* \"#utility.yul\":6224:6226   */\n      0x20\n        /* \"#utility.yul\":6213:6222   */\n      dup5\n        /* \"#utility.yul\":6209:6227   */\n      add\n        /* \"#utility.yul\":6190:6228   */\n      tag_673\n      jump\t// in\n    tag_726:\n        /* \"#utility.yul\":6180:6228   */\n      swap1\n      pop\n        /* \"#utility.yul\":5980:6234   */\n      swap3\n      pop\n      swap3\n      swap1\n      pop\n      jump\t// out\n        /* \"#utility.yul\":6239:7378   */\n    tag_89:\n        /* \"#utility.yul\":6458:6460   */\n      0x20\n        /* \"#utility.yul\":6510:6531   */\n      dup1\n      dup3\n      mstore\n        /* \"#utility.yul\":6580:6593   */\n      dup3\n      mload\n        /* \"#utility.yul\":6483:6501   */\n      dup3\n      dup3\n      add\n        /* \"#utility.yul\":6602:6624   */\n      dup2\n      swap1\n      mstore\n        /* \"#utility.yul\":6429:6433   */\n      0x00\n      swap2\n        /* \"#utility.yul\":6458:6460   */\n      swap1\n        /* \"#utility.yul\":6643:6645   */\n      0x40\n      swap1\n        /* \"#utility.yul\":6661:6679   */\n      dup2\n      dup6\n      add\n      swap1\n        /* \"#utility.yul\":6702:6717   */\n      dup7\n      dup5\n      add\n        /* \"#utility.yul\":6429:6433   */\n      dup6\n        /* \"#utility.yul\":6745:7352   */\n    tag_728:\n        /* \"#utility.yul\":6759:6765   */\n      dup3\n        /* \"#utility.yul\":6756:6757   */\n      dup2\n        /* \"#utility.yul\":6753:6766   */\n      lt\n        /* \"#utility.yul\":6745:7352   */\n      iszero\n      tag_730\n      jumpi\n        /* \"#utility.yul\":6818:6831   */\n      dup2\n      mload\n        /* \"#utility.yul\":6856:6865   */\n      dup1\n      mload\n        /* \"#utility.yul\":6844:6866   */\n      dup6\n      mstore\n        /* \"#utility.yul\":6906:6917   */\n      dup7\n      dup2\n      add\n        /* \"#utility.yul\":6900:6918   */\n      mload\n        /* \"#utility.yul\":6886:6898   */\n      dup8\n      dup7\n      add\n        /* \"#utility.yul\":6879:6919   */\n      mstore\n        /* \"#utility.yul\":6959:6970   */\n      dup6\n      dup2\n      add\n        /* \"#utility.yul\":6953:6971   */\n      mload\n        /* \"#utility.yul\":6939:6951   */\n      dup7\n      dup7\n      add\n        /* \"#utility.yul\":6932:6972   */\n      mstore\n        /* \"#utility.yul\":6995:6999   */\n      0x60\n        /* \"#utility.yul\":7043:7054   */\n      dup1\n      dup3\n      add\n        /* \"#utility.yul\":7037:7055   */\n      mload\n      sub(shl(0xa0, 0x01), 0x01)\n        /* \"#utility.yul\":7033:7077   */\n      and\n        /* \"#utility.yul\":7019:7031   */\n      swap1\n      dup7\n      add\n        /* \"#utility.yul\":7012:7078   */\n      mstore\n        /* \"#utility.yul\":7101:7105   */\n      0x80\n        /* \"#utility.yul\":7159:7170   */\n      dup1\n      dup3\n      add\n        /* \"#utility.yul\":7153:7171   */\n      mload\n        /* \"#utility.yul\":7146:7172   */\n      iszero\n        /* \"#utility.yul\":7139:7173   */\n      iszero\n        /* \"#utility.yul\":7125:7137   */\n      swap1\n      dup7\n      add\n        /* \"#utility.yul\":7118:7174   */\n      mstore\n        /* \"#utility.yul\":7065:7068   */\n      0xa0\n        /* \"#utility.yul\":7255:7266   */\n      swap1\n      dup2\n      add\n        /* \"#utility.yul\":7249:7267   */\n      mload\n        /* \"#utility.yul\":7242:7268   */\n      iszero\n        /* \"#utility.yul\":7235:7269   */\n      iszero\n        /* \"#utility.yul\":7221:7233   */\n      swap1\n      dup6\n      add\n        /* \"#utility.yul\":7214:7270   */\n      mstore\n        /* \"#utility.yul\":7299:7303   */\n      0xc0\n        /* \"#utility.yul\":7290:7304   */\n      swap1\n      swap4\n      add\n      swap3\n        /* \"#utility.yul\":7327:7342   */\n      swap1\n      dup6\n      add\n      swap1\n        /* \"#utility.yul\":7074:7075   */\n      0x01\n        /* \"#utility.yul\":6774:6783   */\n      add\n        /* \"#utility.yul\":6745:7352   */\n      jump(tag_728)\n    tag_730:\n      pop\n        /* \"#utility.yul\":7369:7372   */\n      swap2\n      swap8\n        /* \"#utility.yul\":6239:7378   */\n      swap7\n      pop\n      pop\n      pop\n      pop\n      pop\n      pop\n      pop\n      jump\t// out\n        /* \"#utility.yul\":7383:8225   */\n    tag_678:\n        /* \"#utility.yul\":7437:7440   */\n      0x00\n        /* \"#utility.yul\":7465:7471   */\n      0x0100\n        /* \"#utility.yul\":7498:7503   */\n      dup3\n        /* \"#utility.yul\":7492:7504   */\n      mload\n        /* \"#utility.yul\":7487:7490   */\n      dup5\n        /* \"#utility.yul\":7480:7505   */\n      mstore\n        /* \"#utility.yul\":7583:7584   */\n      0x01\n        /* \"#utility.yul\":7579:7580   */\n      dup1\n        /* \"#utility.yul\":7574:7577   */\n      0xa0\n        /* \"#utility.yul\":7570:7581   */\n      shl\n        /* \"#utility.yul\":7566:7585   */\n      sub\n        /* \"#utility.yul\":7558:7562   */\n      0x20\n        /* \"#utility.yul\":7551:7556   */\n      dup5\n        /* \"#utility.yul\":7547:7563   */\n      add\n        /* \"#utility.yul\":7541:7564   */\n      mload\n        /* \"#utility.yul\":7537:7586   */\n      and\n        /* \"#utility.yul\":7530:7534   */\n      0x20\n        /* \"#utility.yul\":7525:7528   */\n      dup6\n        /* \"#utility.yul\":7521:7535   */\n      add\n        /* \"#utility.yul\":7514:7587   */\n      mstore\n        /* \"#utility.yul\":7633:7637   */\n      0x40\n        /* \"#utility.yul\":7626:7631   */\n      dup4\n        /* \"#utility.yul\":7622:7638   */\n      add\n        /* \"#utility.yul\":7616:7639   */\n      mload\n        /* \"#utility.yul\":7671:7673   */\n      dup2\n        /* \"#utility.yul\":7664:7668   */\n      0x40\n        /* \"#utility.yul\":7659:7662   */\n      dup7\n        /* \"#utility.yul\":7655:7669   */\n      add\n        /* \"#utility.yul\":7648:7674   */\n      mstore\n        /* \"#utility.yul\":7695:7740   */\n      tag_732\n        /* \"#utility.yul\":7736:7738   */\n      dup3\n        /* \"#utility.yul\":7731:7734   */\n      dup7\n        /* \"#utility.yul\":7727:7739   */\n      add\n        /* \"#utility.yul\":7713:7725   */\n      dup3\n        /* \"#utility.yul\":7695:7740   */\n      tag_675\n      jump\t// in\n    tag_732:\n        /* \"#utility.yul\":7683:7740   */\n      swap2\n      pop\n      pop\n        /* \"#utility.yul\":7788:7792   */\n      0x60\n        /* \"#utility.yul\":7781:7786   */\n      dup4\n        /* \"#utility.yul\":7777:7793   */\n      add\n        /* \"#utility.yul\":7771:7794   */\n      mload\n        /* \"#utility.yul\":7836:7839   */\n      dup5\n        /* \"#utility.yul\":7830:7834   */\n      dup3\n        /* \"#utility.yul\":7826:7840   */\n      sub\n        /* \"#utility.yul\":7819:7823   */\n      0x60\n        /* \"#utility.yul\":7814:7817   */\n      dup7\n        /* \"#utility.yul\":7810:7824   */\n      add\n        /* \"#utility.yul\":7803:7841   */\n      mstore\n        /* \"#utility.yul\":7864:7903   */\n      tag_733\n        /* \"#utility.yul\":7898:7902   */\n      dup3\n        /* \"#utility.yul\":7882:7896   */\n      dup3\n        /* \"#utility.yul\":7864:7903   */\n      tag_675\n      jump\t// in\n    tag_733:\n        /* \"#utility.yul\":7850:7903   */\n      swap2\n      pop\n      pop\n        /* \"#utility.yul\":7952:7956   */\n      0x80\n        /* \"#utility.yul\":7945:7950   */\n      dup4\n        /* \"#utility.yul\":7941:7957   */\n      add\n        /* \"#utility.yul\":7935:7958   */\n      mload\n        /* \"#utility.yul\":7928:7932   */\n      0x80\n        /* \"#utility.yul\":7923:7926   */\n      dup6\n        /* \"#utility.yul\":7919:7933   */\n      add\n        /* \"#utility.yul\":7912:7959   */\n      mstore\n        /* \"#utility.yul\":8008:8012   */\n      0xa0\n        /* \"#utility.yul\":8001:8006   */\n      dup4\n        /* \"#utility.yul\":7997:8013   */\n      add\n        /* \"#utility.yul\":7991:8014   */\n      mload\n        /* \"#utility.yul\":7984:7988   */\n      0xa0\n        /* \"#utility.yul\":7979:7982   */\n      dup6\n        /* \"#utility.yul\":7975:7989   */\n      add\n        /* \"#utility.yul\":7968:8015   */\n      mstore\n        /* \"#utility.yul\":8078:8082   */\n      0xc0\n        /* \"#utility.yul\":8071:8076   */\n      dup4\n        /* \"#utility.yul\":8067:8083   */\n      add\n        /* \"#utility.yul\":8061:8084   */\n      mload\n        /* \"#utility.yul\":8054:8085   */\n      iszero\n        /* \"#utility.yul\":8047:8086   */\n      iszero\n        /* \"#utility.yul\":8040:8044   */\n      0xc0\n        /* \"#utility.yul\":8035:8038   */\n      dup6\n        /* \"#utility.yul\":8031:8045   */\n      add\n        /* \"#utility.yul\":8024:8087   */\n      mstore\n        /* \"#utility.yul\":8135:8139   */\n      0xe0\n        /* \"#utility.yul\":8128:8133   */\n      dup4\n        /* \"#utility.yul\":8124:8140   */\n      add\n        /* \"#utility.yul\":8118:8141   */\n      mload\n        /* \"#utility.yul\":8150:8197   */\n      tag_734\n        /* \"#utility.yul\":8191:8195   */\n      0xe0\n        /* \"#utility.yul\":8186:8189   */\n      dup7\n        /* \"#utility.yul\":8182:8196   */\n      add\n        /* \"#utility.yul\":8166:8180   */\n      dup3\n        /* \"#utility.yul\":1425:1438   */\n      iszero\n        /* \"#utility.yul\":1418:1439   */\n      iszero\n        /* \"#utility.yul\":1406:1440   */\n      swap1\n      mstore\n        /* \"#utility.yul\":1355:1446   */\n      jump\n        /* \"#utility.yul\":8150:8197   */\n    tag_734:\n      pop\n        /* \"#utility.yul\":8213:8219   */\n      swap4\n        /* \"#utility.yul\":7383:8225   */\n      swap3\n      pop\n      pop\n      pop\n      jump\t// out\n        /* \"#utility.yul\":8230:8500   */\n    tag_94:\n        /* \"#utility.yul\":8417:8419   */\n      0x20\n        /* \"#utility.yul\":8406:8415   */\n      dup2\n        /* \"#utility.yul\":8399:8420   */\n      mstore\n        /* \"#utility.yul\":8380:8384   */\n      0x00\n        /* \"#utility.yul\":8437:8494   */\n      tag_695\n        /* \"#utility.yul\":8490:8492   */\n      0x20\n        /* \"#utility.yul\":8479:8488   */\n      dup4\n        /* \"#utility.yul\":8475:8493   */\n      add\n        /* \"#utility.yul\":8467:8473   */\n      dup5\n        /* \"#utility.yul\":8437:8494   */\n      tag_678\n      jump\t// in\n        /* \"#utility.yul\":8505:9550   */\n    tag_107:\n        /* \"#utility.yul\":8726:8728   */\n      0x20\n        /* \"#utility.yul\":8778:8799   */\n      dup1\n      dup3\n      mstore\n        /* \"#utility.yul\":8848:8861   */\n      dup3\n      mload\n        /* \"#utility.yul\":8751:8769   */\n      dup3\n      dup3\n      add\n        /* \"#utility.yul\":8870:8892   */\n      dup2\n      swap1\n      mstore\n        /* \"#utility.yul\":8697:8701   */\n      0x00\n      swap2\n        /* \"#utility.yul\":8726:8728   */\n      swap1\n        /* \"#utility.yul\":8911:8913   */\n      0x40\n      swap1\n        /* \"#utility.yul\":8929:8947   */\n      dup2\n      dup6\n      add\n      swap1\n        /* \"#utility.yul\":8970:8985   */\n      dup7\n      dup5\n      add\n        /* \"#utility.yul\":8697:8701   */\n      dup6\n        /* \"#utility.yul\":9013:9524   */\n    tag_738:\n        /* \"#utility.yul\":9027:9033   */\n      dup3\n        /* \"#utility.yul\":9024:9025   */\n      dup2\n        /* \"#utility.yul\":9021:9034   */\n      lt\n        /* \"#utility.yul\":9013:9524   */\n      iszero\n      tag_730\n      jumpi\n        /* \"#utility.yul\":9086:9099   */\n      dup2\n      mload\n        /* \"#utility.yul\":9124:9133   */\n      dup1\n      mload\n        /* \"#utility.yul\":9112:9134   */\n      dup6\n      mstore\n        /* \"#utility.yul\":9174:9185   */\n      dup7\n      dup2\n      add\n        /* \"#utility.yul\":9168:9186   */\n      mload\n        /* \"#utility.yul\":9154:9166   */\n      dup8\n      dup7\n      add\n        /* \"#utility.yul\":9147:9187   */\n      mstore\n        /* \"#utility.yul\":9231:9242   */\n      dup6\n      dup2\n      add\n        /* \"#utility.yul\":9225:9243   */\n      mload\n      sub(shl(0xa0, 0x01), 0x01)\n        /* \"#utility.yul\":9221:9265   */\n      and\n        /* \"#utility.yul\":9207:9219   */\n      dup7\n      dup7\n      add\n        /* \"#utility.yul\":9200:9266   */\n      mstore\n        /* \"#utility.yul\":9289:9293   */\n      0x60\n        /* \"#utility.yul\":9333:9344   */\n      dup1\n      dup3\n      add\n        /* \"#utility.yul\":9327:9345   */\n      mload\n        /* \"#utility.yul\":9313:9325   */\n      swap1\n      dup7\n      add\n        /* \"#utility.yul\":9306:9346   */\n      mstore\n        /* \"#utility.yul\":9369:9373   */\n      0x80\n        /* \"#utility.yul\":9427:9438   */\n      swap1\n      dup2\n      add\n        /* \"#utility.yul\":9421:9439   */\n      mload\n        /* \"#utility.yul\":9414:9440   */\n      iszero\n        /* \"#utility.yul\":9407:9441   */\n      iszero\n        /* \"#utility.yul\":9393:9405   */\n      swap1\n      dup6\n      add\n        /* \"#utility.yul\":9386:9442   */\n      mstore\n        /* \"#utility.yul\":9253:9256   */\n      0xa0\n        /* \"#utility.yul\":9462:9476   */\n      swap1\n      swap4\n      add\n      swap3\n        /* \"#utility.yul\":9499:9514   */\n      swap1\n      dup6\n      add\n      swap1\n        /* \"#utility.yul\":9262:9263   */\n      0x01\n        /* \"#utility.yul\":9042:9051   */\n      add\n        /* \"#utility.yul\":9013:9524   */\n      jump(tag_738)\n        /* \"#utility.yul\":9555:9682   */\n    tag_275:\n        /* \"#utility.yul\":9616:9626   */\n      0x4e487b71\n        /* \"#utility.yul\":9611:9614   */\n      0xe0\n        /* \"#utility.yul\":9607:9627   */\n      shl\n        /* \"#utility.yul\":9604:9605   */\n      0x00\n        /* \"#utility.yul\":9597:9628   */\n      mstore\n        /* \"#utility.yul\":9647:9651   */\n      0x41\n        /* \"#utility.yul\":9644:9645   */\n      0x04\n        /* \"#utility.yul\":9637:9652   */\n      mstore\n        /* \"#utility.yul\":9671:9675   */\n      0x24\n        /* \"#utility.yul\":9668:9669   */\n      0x00\n        /* \"#utility.yul\":9661:9676   */\n      revert\n        /* \"#utility.yul\":9687:9962   */\n    tag_679:\n        /* \"#utility.yul\":9758:9760   */\n      0x40\n        /* \"#utility.yul\":9752:9761   */\n      mload\n        /* \"#utility.yul\":9823:9825   */\n      0x1f\n        /* \"#utility.yul\":9804:9817   */\n      dup3\n      add\n      not(0x1f)\n        /* \"#utility.yul\":9800:9827   */\n      and\n        /* \"#utility.yul\":9788:9828   */\n      dup2\n      add\n      sub(shl(0x40, 0x01), 0x01)\n        /* \"#utility.yul\":9843:9877   */\n      dup2\n      gt\n        /* \"#utility.yul\":9879:9901   */\n      dup3\n      dup3\n      lt\n        /* \"#utility.yul\":9840:9902   */\n      or\n        /* \"#utility.yul\":9837:9925   */\n      iszero\n      tag_744\n      jumpi\n        /* \"#utility.yul\":9905:9923   */\n      tag_744\n      tag_275\n      jump\t// in\n    tag_744:\n        /* \"#utility.yul\":9941:9943   */\n      0x40\n        /* \"#utility.yul\":9934:9956   */\n      mstore\n        /* \"#utility.yul\":9687:9962   */\n      swap2\n      swap1\n      pop\n      jump\t// out\n        /* \"#utility.yul\":9967:10498   */\n    tag_680:\n        /* \"#utility.yul\":10010:10015   */\n      0x00\n        /* \"#utility.yul\":10063:10066   */\n      dup3\n        /* \"#utility.yul\":10056:10060   */\n      0x1f\n        /* \"#utility.yul\":10048:10054   */\n      dup4\n        /* \"#utility.yul\":10044:10061   */\n      add\n        /* \"#utility.yul\":10040:10067   */\n      slt\n        /* \"#utility.yul\":10030:10085   */\n      tag_746\n      jumpi\n        /* \"#utility.yul\":10081:10082   */\n      0x00\n        /* \"#utility.yul\":10078:10079   */\n      dup1\n        /* \"#utility.yul\":10071:10083   */\n      revert\n        /* \"#utility.yul\":10030:10085   */\n    tag_746:\n        /* \"#utility.yul\":10117:10123   */\n      dup2\n        /* \"#utility.yul\":10104:10124   */\n      calldataload\n      sub(shl(0x40, 0x01), 0x01)\n        /* \"#utility.yul\":10139:10141   */\n      dup2\n        /* \"#utility.yul\":10136:10162   */\n      gt\n        /* \"#utility.yul\":10133:10185   */\n      iszero\n      tag_748\n      jumpi\n        /* \"#utility.yul\":10165:10183   */\n      tag_748\n      tag_275\n      jump\t// in\n    tag_748:\n        /* \"#utility.yul\":10209:10264   */\n      tag_749\n        /* \"#utility.yul\":10252:10254   */\n      0x1f\n        /* \"#utility.yul\":10233:10246   */\n      dup3\n      add\n      not(0x1f)\n        /* \"#utility.yul\":10229:10256   */\n      and\n        /* \"#utility.yul\":10258:10262   */\n      0x20\n        /* \"#utility.yul\":10225:10263   */\n      add\n        /* \"#utility.yul\":10209:10264   */\n      tag_679\n      jump\t// in\n    tag_749:\n        /* \"#utility.yul\":10289:10291   */\n      dup2\n        /* \"#utility.yul\":10280:10287   */\n      dup2\n        /* \"#utility.yul\":10273:10292   */\n      mstore\n        /* \"#utility.yul\":10335:10338   */\n      dup5\n        /* \"#utility.yul\":10328:10332   */\n      0x20\n        /* \"#utility.yul\":10323:10325   */\n      dup4\n        /* \"#utility.yul\":10315:10321   */\n      dup7\n        /* \"#utility.yul\":10311:10326   */\n      add\n        /* \"#utility.yul\":10307:10333   */\n      add\n        /* \"#utility.yul\":10304:10339   */\n      gt\n        /* \"#utility.yul\":10301:10356   */\n      iszero\n      tag_750\n      jumpi\n        /* \"#utility.yul\":10352:10353   */\n      0x00\n        /* \"#utility.yul\":10349:10350   */\n      dup1\n        /* \"#utility.yul\":10342:10354   */\n      revert\n        /* \"#utility.yul\":10301:10356   */\n    tag_750:\n        /* \"#utility.yul\":10417:10419   */\n      dup2\n        /* \"#utility.yul\":10410:10414   */\n      0x20\n        /* \"#utility.yul\":10402:10408   */\n      dup6\n        /* \"#utility.yul\":10398:10415   */\n      add\n        /* \"#utility.yul\":10391:10395   */\n      0x20\n        /* \"#utility.yul\":10382:10389   */\n      dup4\n        /* \"#utility.yul\":10378:10396   */\n      add\n        /* \"#utility.yul\":10365:10420   */\n      calldatacopy\n        /* \"#utility.yul\":10465:10466   */\n      0x00\n        /* \"#utility.yul\":10440:10456   */\n      swap2\n      dup2\n      add\n        /* \"#utility.yul\":10458:10462   */\n      0x20\n        /* \"#utility.yul\":10436:10463   */\n      add\n        /* \"#utility.yul\":10429:10467   */\n      swap2\n      swap1\n      swap2\n      mstore\n        /* \"#utility.yul\":10444:10451   */\n      swap4\n        /* \"#utility.yul\":9967:10498   */\n      swap3\n      pop\n      pop\n      pop\n      jump\t// out\n        /* \"#utility.yul\":10503:11189   */\n    tag_114:\n        /* \"#utility.yul\":10609:10615   */\n      0x00\n        /* \"#utility.yul\":10617:10623   */\n      dup1\n        /* \"#utility.yul\":10625:10631   */\n      0x00\n        /* \"#utility.yul\":10633:10639   */\n      dup1\n        /* \"#utility.yul\":10686:10689   */\n      0x80\n        /* \"#utility.yul\":10674:10683   */\n      dup6\n        /* \"#utility.yul\":10665:10672   */\n      dup8\n        /* \"#utility.yul\":10661:10684   */\n      sub\n        /* \"#utility.yul\":10657:10690   */\n      slt\n        /* \"#utility.yul\":10654:10707   */\n      iszero\n      tag_752\n      jumpi\n        /* \"#utility.yul\":10703:10704   */\n      0x00\n        /* \"#utility.yul\":10700:10701   */\n      dup1\n        /* \"#utility.yul\":10693:10705   */\n      revert\n        /* \"#utility.yul\":10654:10707   */\n    tag_752:\n        /* \"#utility.yul\":10726:10755   */\n      tag_753\n        /* \"#utility.yul\":10745:10754   */\n      dup6\n        /* \"#utility.yul\":10726:10755   */\n      tag_673\n      jump\t// in\n    tag_753:\n        /* \"#utility.yul\":10716:10755   */\n      swap4\n      pop\n        /* \"#utility.yul\":10806:10808   */\n      0x20\n        /* \"#utility.yul\":10795:10804   */\n      dup6\n        /* \"#utility.yul\":10791:10809   */\n      add\n        /* \"#utility.yul\":10778:10810   */\n      calldataload\n      sub(shl(0x40, 0x01), 0x01)\n        /* \"#utility.yul\":10870:10872   */\n      dup1\n        /* \"#utility.yul\":10862:10868   */\n      dup3\n        /* \"#utility.yul\":10859:10873   */\n      gt\n        /* \"#utility.yul\":10856:10890   */\n      iszero\n      tag_754\n      jumpi\n        /* \"#utility.yul\":10886:10887   */\n      0x00\n        /* \"#utility.yul\":10883:10884   */\n      dup1\n        /* \"#utility.yul\":10876:10888   */\n      revert\n        /* \"#utility.yul\":10856:10890   */\n    tag_754:\n        /* \"#utility.yul\":10909:10959   */\n      tag_755\n        /* \"#utility.yul\":10951:10958   */\n      dup9\n        /* \"#utility.yul\":10942:10948   */\n      dup4\n        /* \"#utility.yul\":10931:10940   */\n      dup10\n        /* \"#utility.yul\":10927:10949   */\n      add\n        /* \"#utility.yul\":10909:10959   */\n      tag_680\n      jump\t// in\n    tag_755:\n        /* \"#utility.yul\":10899:10959   */\n      swap5\n      pop\n        /* \"#utility.yul\":11012:11014   */\n      0x40\n        /* \"#utility.yul\":11001:11010   */\n      dup8\n        /* \"#utility.yul\":10997:11015   */\n      add\n        /* \"#utility.yul\":10984:11016   */\n      calldataload\n        /* \"#utility.yul\":10968:11016   */\n      swap2\n      pop\n        /* \"#utility.yul\":11041:11043   */\n      dup1\n        /* \"#utility.yul\":11031:11039   */\n      dup3\n        /* \"#utility.yul\":11028:11044   */\n      gt\n        /* \"#utility.yul\":11025:11061   */\n      iszero\n      tag_756\n      jumpi\n        /* \"#utility.yul\":11057:11058   */\n      0x00\n        /* \"#utility.yul\":11054:11055   */\n      dup1\n        /* \"#utility.yul\":11047:11059   */\n      revert\n        /* \"#utility.yul\":11025:11061   */\n    tag_756:\n      pop\n        /* \"#utility.yul\":11080:11132   */\n      tag_757\n        /* \"#utility.yul\":11124:11131   */\n      dup8\n        /* \"#utility.yul\":11113:11121   */\n      dup3\n        /* \"#utility.yul\":11102:11111   */\n      dup9\n        /* \"#utility.yul\":11098:11122   */\n      add\n        /* \"#utility.yul\":11080:11132   */\n      tag_680\n      jump\t// in\n    tag_757:\n        /* \"#utility.yul\":10503:11189   */\n      swap5\n      swap8\n      swap4\n      swap7\n      pop\n        /* \"#utility.yul\":11070:11132   */\n      swap4\n      swap5\n        /* \"#utility.yul\":11179:11181   */\n      0x60\n        /* \"#utility.yul\":11164:11182   */\n      add\n        /* \"#utility.yul\":11151:11183   */\n      calldataload\n      swap4\n      pop\n      pop\n      pop\n        /* \"#utility.yul\":10503:11189   */\n      jump\t// out\n        /* \"#utility.yul\":11194:12012   */\n    tag_118:\n        /* \"#utility.yul\":11310:11316   */\n      0x00\n        /* \"#utility.yul\":11318:11324   */\n      dup1\n        /* \"#utility.yul\":11326:11332   */\n      0x00\n        /* \"#utility.yul\":11334:11340   */\n      dup1\n        /* \"#utility.yul\":11387:11390   */\n      0x80\n        /* \"#utility.yul\":11375:11384   */\n      dup6\n        /* \"#utility.yul\":11366:11373   */\n      dup8\n        /* \"#utility.yul\":11362:11385   */\n      sub\n        /* \"#utility.yul\":11358:11391   */\n      slt\n        /* \"#utility.yul\":11355:11408   */\n      iszero\n      tag_759\n      jumpi\n        /* \"#utility.yul\":11404:11405   */\n      0x00\n        /* \"#utility.yul\":11401:11402   */\n      dup1\n        /* \"#utility.yul\":11394:11406   */\n      revert\n        /* \"#utility.yul\":11355:11408   */\n    tag_759:\n        /* \"#utility.yul\":11427:11456   */\n      tag_760\n        /* \"#utility.yul\":11446:11455   */\n      dup6\n        /* \"#utility.yul\":11427:11456   */\n      tag_673\n      jump\t// in\n    tag_760:\n        /* \"#utility.yul\":11417:11456   */\n      swap4\n      pop\n        /* \"#utility.yul\":11507:11509   */\n      0x20\n        /* \"#utility.yul\":11496:11505   */\n      dup6\n        /* \"#utility.yul\":11492:11510   */\n      add\n        /* \"#utility.yul\":11479:11511   */\n      calldataload\n      sub(shl(0x40, 0x01), 0x01)\n        /* \"#utility.yul\":11571:11573   */\n      dup1\n        /* \"#utility.yul\":11563:11569   */\n      dup3\n        /* \"#utility.yul\":11560:11574   */\n      gt\n        /* \"#utility.yul\":11557:11591   */\n      iszero\n      tag_761\n      jumpi\n        /* \"#utility.yul\":11587:11588   */\n      0x00\n        /* \"#utility.yul\":11584:11585   */\n      dup1\n        /* \"#utility.yul\":11577:11589   */\n      revert\n        /* \"#utility.yul\":11557:11591   */\n    tag_761:\n        /* \"#utility.yul\":11610:11660   */\n      tag_762\n        /* \"#utility.yul\":11652:11659   */\n      dup9\n        /* \"#utility.yul\":11643:11649   */\n      dup4\n        /* \"#utility.yul\":11632:11641   */\n      dup10\n        /* \"#utility.yul\":11628:11650   */\n      add\n        /* \"#utility.yul\":11610:11660   */\n      tag_680\n      jump\t// in\n    tag_762:\n        /* \"#utility.yul\":11600:11660   */\n      swap5\n      pop\n        /* \"#utility.yul\":11713:11715   */\n      0x40\n        /* \"#utility.yul\":11702:11711   */\n      dup8\n        /* \"#utility.yul\":11698:11716   */\n      add\n        /* \"#utility.yul\":11685:11717   */\n      calldataload\n        /* \"#utility.yul\":11669:11717   */\n      swap2\n      pop\n        /* \"#utility.yul\":11742:11744   */\n      dup1\n        /* \"#utility.yul\":11732:11740   */\n      dup3\n        /* \"#utility.yul\":11729:11745   */\n      gt\n        /* \"#utility.yul\":11726:11762   */\n      iszero\n      tag_763\n      jumpi\n        /* \"#utility.yul\":11758:11759   */\n      0x00\n        /* \"#utility.yul\":11755:11756   */\n      dup1\n        /* \"#utility.yul\":11748:11760   */\n      revert\n        /* \"#utility.yul\":11726:11762   */\n    tag_763:\n        /* \"#utility.yul\":11781:11833   */\n      tag_764\n        /* \"#utility.yul\":11825:11832   */\n      dup9\n        /* \"#utility.yul\":11814:11822   */\n      dup4\n        /* \"#utility.yul\":11803:11812   */\n      dup10\n        /* \"#utility.yul\":11799:11823   */\n      add\n        /* \"#utility.yul\":11781:11833   */\n      tag_680\n      jump\t// in\n    tag_764:\n        /* \"#utility.yul\":11771:11833   */\n      swap4\n      pop\n        /* \"#utility.yul\":11886:11888   */\n      0x60\n        /* \"#utility.yul\":11875:11884   */\n      dup8\n        /* \"#utility.yul\":11871:11889   */\n      add\n        /* \"#utility.yul\":11858:11890   */\n      calldataload\n        /* \"#utility.yul\":11842:11890   */\n      swap2\n      pop\n        /* \"#utility.yul\":11915:11917   */\n      dup1\n        /* \"#utility.yul\":11905:11913   */\n      dup3\n        /* \"#utility.yul\":11902:11918   */\n      gt\n        /* \"#utility.yul\":11899:11935   */\n      iszero\n      tag_765\n      jumpi\n        /* \"#utility.yul\":11931:11932   */\n      0x00\n        /* \"#utility.yul\":11928:11929   */\n      dup1\n        /* \"#utility.yul\":11921:11933   */\n      revert\n        /* \"#utility.yul\":11899:11935   */\n    tag_765:\n      pop\n        /* \"#utility.yul\":11954:12006   */\n      tag_766\n        /* \"#utility.yul\":11998:12005   */\n      dup8\n        /* \"#utility.yul\":11987:11995   */\n      dup3\n        /* \"#utility.yul\":11976:11985   */\n      dup9\n        /* \"#utility.yul\":11972:11996   */\n      add\n        /* \"#utility.yul\":11954:12006   */\n      tag_680\n      jump\t// in\n    tag_766:\n        /* \"#utility.yul\":11944:12006   */\n      swap2\n      pop\n      pop\n        /* \"#utility.yul\":11194:12012   */\n      swap3\n      swap6\n      swap2\n      swap5\n      pop\n      swap3\n      pop\n      jump\t// out\n        /* \"#utility.yul\":12017:12199   */\n    tag_681:\n        /* \"#utility.yul\":12076:12080   */\n      0x00\n      sub(shl(0x40, 0x01), 0x01)\n        /* \"#utility.yul\":12101:12107   */\n      dup3\n        /* \"#utility.yul\":12098:12128   */\n      gt\n        /* \"#utility.yul\":12095:12151   */\n      iszero\n      tag_769\n      jumpi\n        /* \"#utility.yul\":12131:12149   */\n      tag_769\n      tag_275\n      jump\t// in\n    tag_769:\n      pop\n        /* \"#utility.yul\":12176:12177   */\n      0x05\n        /* \"#utility.yul\":12172:12186   */\n      shl\n        /* \"#utility.yul\":12188:12192   */\n      0x20\n        /* \"#utility.yul\":12168:12193   */\n      add\n      swap1\n        /* \"#utility.yul\":12017:12199   */\n      jump\t// out\n        /* \"#utility.yul\":12204:13710   */\n    tag_142:\n        /* \"#utility.yul\":12353:12359   */\n      0x00\n        /* \"#utility.yul\":12361:12367   */\n      dup1\n        /* \"#utility.yul\":12369:12375   */\n      0x00\n        /* \"#utility.yul\":12377:12383   */\n      dup1\n        /* \"#utility.yul\":12385:12391   */\n      0x00\n        /* \"#utility.yul\":12393:12399   */\n      dup1\n        /* \"#utility.yul\":12446:12449   */\n      0xc0\n        /* \"#utility.yul\":12434:12443   */\n      dup8\n        /* \"#utility.yul\":12425:12432   */\n      dup10\n        /* \"#utility.yul\":12421:12444   */\n      sub\n        /* \"#utility.yul\":12417:12450   */\n      slt\n        /* \"#utility.yul\":12414:12467   */\n      iszero\n      tag_771\n      jumpi\n        /* \"#utility.yul\":12463:12464   */\n      0x00\n        /* \"#utility.yul\":12460:12461   */\n      dup1\n        /* \"#utility.yul\":12453:12465   */\n      revert\n        /* \"#utility.yul\":12414:12467   */\n    tag_771:\n        /* \"#utility.yul\":12486:12515   */\n      tag_772\n        /* \"#utility.yul\":12505:12514   */\n      dup8\n        /* \"#utility.yul\":12486:12515   */\n      tag_673\n      jump\t// in\n    tag_772:\n        /* \"#utility.yul\":12476:12515   */\n      swap6\n      pop\n        /* \"#utility.yul\":12534:12536   */\n      0x20\n        /* \"#utility.yul\":12587:12589   */\n      dup1\n        /* \"#utility.yul\":12576:12585   */\n      dup9\n        /* \"#utility.yul\":12572:12590   */\n      add\n        /* \"#utility.yul\":12559:12591   */\n      calldataload\n      sub(shl(0x40, 0x01), 0x01)\n        /* \"#utility.yul\":12651:12653   */\n      dup1\n        /* \"#utility.yul\":12643:12649   */\n      dup3\n        /* \"#utility.yul\":12640:12654   */\n      gt\n        /* \"#utility.yul\":12637:12671   */\n      iszero\n      tag_773\n      jumpi\n        /* \"#utility.yul\":12667:12668   */\n      0x00\n        /* \"#utility.yul\":12664:12665   */\n      dup1\n        /* \"#utility.yul\":12657:12669   */\n      revert\n        /* \"#utility.yul\":12637:12671   */\n    tag_773:\n        /* \"#utility.yul\":12690:12740   */\n      tag_774\n        /* \"#utility.yul\":12732:12739   */\n      dup12\n        /* \"#utility.yul\":12723:12729   */\n      dup4\n        /* \"#utility.yul\":12712:12721   */\n      dup13\n        /* \"#utility.yul\":12708:12730   */\n      add\n        /* \"#utility.yul\":12690:12740   */\n      tag_680\n      jump\t// in\n    tag_774:\n        /* \"#utility.yul\":12680:12740   */\n      swap8\n      pop\n        /* \"#utility.yul\":12787:12789   */\n      0x40\n        /* \"#utility.yul\":12776:12785   */\n      dup11\n        /* \"#utility.yul\":12772:12790   */\n      add\n        /* \"#utility.yul\":12759:12791   */\n      calldataload\n        /* \"#utility.yul\":12749:12791   */\n      swap7\n      pop\n        /* \"#utility.yul\":12838:12840   */\n      0x60\n        /* \"#utility.yul\":12827:12836   */\n      dup11\n        /* \"#utility.yul\":12823:12841   */\n      add\n        /* \"#utility.yul\":12810:12842   */\n      calldataload\n        /* \"#utility.yul\":12800:12842   */\n      swap6\n      pop\n        /* \"#utility.yul\":12895:12898   */\n      0x80\n        /* \"#utility.yul\":12884:12893   */\n      dup11\n        /* \"#utility.yul\":12880:12899   */\n      add\n        /* \"#utility.yul\":12867:12900   */\n      calldataload\n        /* \"#utility.yul\":12851:12900   */\n      swap2\n      pop\n        /* \"#utility.yul\":12925:12927   */\n      dup1\n        /* \"#utility.yul\":12915:12923   */\n      dup3\n        /* \"#utility.yul\":12912:12928   */\n      gt\n        /* \"#utility.yul\":12909:12945   */\n      iszero\n      tag_775\n      jumpi\n        /* \"#utility.yul\":12941:12942   */\n      0x00\n        /* \"#utility.yul\":12938:12939   */\n      dup1\n        /* \"#utility.yul\":12931:12943   */\n      revert\n        /* \"#utility.yul\":12909:12945   */\n    tag_775:\n        /* \"#utility.yul\":12979:12987   */\n      dup2\n        /* \"#utility.yul\":12968:12977   */\n      dup11\n        /* \"#utility.yul\":12964:12988   */\n      add\n        /* \"#utility.yul\":12954:12988   */\n      swap2\n      pop\n        /* \"#utility.yul\":13026:13033   */\n      dup11\n        /* \"#utility.yul\":13019:13023   */\n      0x1f\n        /* \"#utility.yul\":13015:13017   */\n      dup4\n        /* \"#utility.yul\":13011:13024   */\n      add\n        /* \"#utility.yul\":13007:13034   */\n      slt\n        /* \"#utility.yul\":12997:13052   */\n      tag_776\n      jumpi\n        /* \"#utility.yul\":13048:13049   */\n      0x00\n        /* \"#utility.yul\":13045:13046   */\n      dup1\n        /* \"#utility.yul\":13038:13050   */\n      revert\n        /* \"#utility.yul\":12997:13052   */\n    tag_776:\n        /* \"#utility.yul\":13084:13086   */\n      dup2\n        /* \"#utility.yul\":13071:13087   */\n      calldataload\n        /* \"#utility.yul\":13107:13166   */\n      tag_777\n        /* \"#utility.yul\":13123:13165   */\n      tag_778\n        /* \"#utility.yul\":13162:13164   */\n      dup3\n        /* \"#utility.yul\":13123:13165   */\n      tag_681\n      jump\t// in\n    tag_778:\n        /* \"#utility.yul\":13107:13166   */\n      tag_679\n      jump\t// in\n    tag_777:\n        /* \"#utility.yul\":13200:13215   */\n      dup2\n      dup2\n      mstore\n        /* \"#utility.yul\":13282:13283   */\n      0x05\n        /* \"#utility.yul\":13278:13288   */\n      swap2\n      swap1\n      swap2\n      shl\n        /* \"#utility.yul\":13270:13289   */\n      dup4\n      add\n        /* \"#utility.yul\":13266:13294   */\n      dup5\n      add\n      swap1\n        /* \"#utility.yul\":13231:13243   */\n      dup5\n      dup2\n      add\n      swap1\n        /* \"#utility.yul\":13306:13325   */\n      dup14\n      dup4\n      gt\n        /* \"#utility.yul\":13303:13342   */\n      iszero\n      tag_779\n      jumpi\n        /* \"#utility.yul\":13338:13339   */\n      0x00\n        /* \"#utility.yul\":13335:13336   */\n      dup1\n        /* \"#utility.yul\":13328:13340   */\n      revert\n        /* \"#utility.yul\":13303:13342   */\n    tag_779:\n        /* \"#utility.yul\":13370:13372   */\n      dup6\n        /* \"#utility.yul\":13366:13368   */\n      dup6\n        /* \"#utility.yul\":13362:13373   */\n      add\n        /* \"#utility.yul\":13382:13628   */\n    tag_780:\n        /* \"#utility.yul\":13398:13404   */\n      dup4\n        /* \"#utility.yul\":13393:13396   */\n      dup2\n        /* \"#utility.yul\":13390:13405   */\n      lt\n        /* \"#utility.yul\":13382:13628   */\n      iszero\n      tag_782\n      jumpi\n        /* \"#utility.yul\":13477:13479   */\n      dup5\n        /* \"#utility.yul\":13471:13474   */\n      dup2\n        /* \"#utility.yul\":13458:13475   */\n      calldataload\n        /* \"#utility.yul\":13455:13480   */\n      gt\n        /* \"#utility.yul\":13452:13497   */\n      iszero\n      tag_783\n      jumpi\n        /* \"#utility.yul\":13493:13494   */\n      0x00\n        /* \"#utility.yul\":13490:13491   */\n      dup1\n        /* \"#utility.yul\":13483:13495   */\n      revert\n        /* \"#utility.yul\":13452:13497   */\n    tag_783:\n        /* \"#utility.yul\":13522:13585   */\n      tag_784\n        /* \"#utility.yul\":13577:13584   */\n      dup16\n        /* \"#utility.yul\":13572:13574   */\n      dup9\n        /* \"#utility.yul\":13565:13568   */\n      dup4\n        /* \"#utility.yul\":13552:13569   */\n      calldataload\n        /* \"#utility.yul\":13548:13550   */\n      dup10\n        /* \"#utility.yul\":13544:13570   */\n      add\n        /* \"#utility.yul\":13540:13575   */\n      add\n        /* \"#utility.yul\":13522:13585   */\n      tag_680\n      jump\t// in\n    tag_784:\n        /* \"#utility.yul\":13510:13586   */\n      dup4\n      mstore\n        /* \"#utility.yul\":13606:13618   */\n      swap2\n      dup7\n      add\n      swap2\n        /* \"#utility.yul\":13415:13427   */\n      dup7\n      add\n        /* \"#utility.yul\":13382:13628   */\n      jump(tag_780)\n    tag_782:\n        /* \"#utility.yul\":13386:13389   */\n      pop\n        /* \"#utility.yul\":13647:13652   */\n      dup1\n        /* \"#utility.yul\":13637:13652   */\n      swap8\n      pop\n      pop\n      pop\n      pop\n      pop\n      pop\n      pop\n        /* \"#utility.yul\":13699:13702   */\n      0xa0\n        /* \"#utility.yul\":13688:13697   */\n      dup8\n        /* \"#utility.yul\":13684:13703   */\n      add\n        /* \"#utility.yul\":13671:13704   */\n      calldataload\n        /* \"#utility.yul\":13661:13704   */\n      swap1\n      pop\n        /* \"#utility.yul\":12204:13710   */\n      swap3\n      swap6\n      pop\n      swap3\n      swap6\n      pop\n      swap3\n      swap6\n      jump\t// out\n        /* \"#utility.yul\":14997:15850   */\n    tag_185:\n        /* \"#utility.yul\":15197:15201   */\n      0x00\n        /* \"#utility.yul\":15226:15228   */\n      0x20\n        /* \"#utility.yul\":15266:15268   */\n      dup1\n        /* \"#utility.yul\":15255:15264   */\n      dup4\n        /* \"#utility.yul\":15251:15269   */\n      add\n        /* \"#utility.yul\":15296:15298   */\n      dup2\n        /* \"#utility.yul\":15285:15294   */\n      dup5\n        /* \"#utility.yul\":15278:15299   */\n      mstore\n        /* \"#utility.yul\":15319:15325   */\n      dup1\n        /* \"#utility.yul\":15354:15360   */\n      dup6\n        /* \"#utility.yul\":15348:15361   */\n      mload\n        /* \"#utility.yul\":15385:15391   */\n      dup1\n        /* \"#utility.yul\":15377:15383   */\n      dup4\n        /* \"#utility.yul\":15370:15392   */\n      mstore\n        /* \"#utility.yul\":15423:15425   */\n      0x40\n        /* \"#utility.yul\":15412:15421   */\n      dup7\n        /* \"#utility.yul\":15408:15426   */\n      add\n        /* \"#utility.yul\":15401:15426   */\n      swap2\n      pop\n        /* \"#utility.yul\":15485:15487   */\n      0x40\n        /* \"#utility.yul\":15475:15481   */\n      dup2\n        /* \"#utility.yul\":15472:15473   */\n      0x05\n        /* \"#utility.yul\":15468:15482   */\n      shl\n        /* \"#utility.yul\":15457:15466   */\n      dup8\n        /* \"#utility.yul\":15453:15483   */\n      add\n        /* \"#utility.yul\":15449:15488   */\n      add\n        /* \"#utility.yul\":15435:15488   */\n      swap3\n      pop\n        /* \"#utility.yul\":15523:15525   */\n      dup4\n        /* \"#utility.yul\":15515:15521   */\n      dup8\n        /* \"#utility.yul\":15511:15526   */\n      add\n        /* \"#utility.yul\":15544:15545   */\n      0x00\n        /* \"#utility.yul\":15554:15821   */\n    tag_789:\n        /* \"#utility.yul\":15568:15574   */\n      dup3\n        /* \"#utility.yul\":15565:15566   */\n      dup2\n        /* \"#utility.yul\":15562:15575   */\n      lt\n        /* \"#utility.yul\":15554:15821   */\n      iszero\n      tag_715\n      jumpi\n        /* \"#utility.yul\":15661:15663   */\n      0x3f\n        /* \"#utility.yul\":15657:15664   */\n      not\n        /* \"#utility.yul\":15645:15654   */\n      dup9\n        /* \"#utility.yul\":15637:15643   */\n      dup7\n        /* \"#utility.yul\":15633:15655   */\n      sub\n        /* \"#utility.yul\":15629:15665   */\n      add\n        /* \"#utility.yul\":15624:15627   */\n      dup5\n        /* \"#utility.yul\":15617:15666   */\n      mstore\n        /* \"#utility.yul\":15689:15741   */\n      tag_792\n        /* \"#utility.yul\":15734:15740   */\n      dup6\n        /* \"#utility.yul\":15725:15731   */\n      dup4\n        /* \"#utility.yul\":15719:15732   */\n      mload\n        /* \"#utility.yul\":15689:15741   */\n      tag_678\n      jump\t// in\n    tag_792:\n        /* \"#utility.yul\":15679:15741   */\n      swap5\n      pop\n        /* \"#utility.yul\":15799:15811   */\n      swap3\n      dup6\n      add\n      swap3\n        /* \"#utility.yul\":15764:15779   */\n      swap1\n      dup6\n      add\n      swap1\n        /* \"#utility.yul\":15590:15591   */\n      0x01\n        /* \"#utility.yul\":15583:15592   */\n      add\n        /* \"#utility.yul\":15554:15821   */\n      jump(tag_789)\n        /* \"#utility.yul\":15855:16109   */\n    tag_192:\n        /* \"#utility.yul\":15923:15929   */\n      0x00\n        /* \"#utility.yul\":15931:15937   */\n      dup1\n        /* \"#utility.yul\":15984:15986   */\n      0x40\n        /* \"#utility.yul\":15972:15981   */\n      dup4\n        /* \"#utility.yul\":15963:15970   */\n      dup6\n        /* \"#utility.yul\":15959:15982   */\n      sub\n        /* \"#utility.yul\":15955:15987   */\n      slt\n        /* \"#utility.yul\":15952:16004   */\n      iszero\n      tag_794\n      jumpi\n        /* \"#utility.yul\":16000:16001   */\n      0x00\n        /* \"#utility.yul\":15997:15998   */\n      dup1\n        /* \"#utility.yul\":15990:16002   */\n      revert\n        /* \"#utility.yul\":15952:16004   */\n    tag_794:\n        /* \"#utility.yul\":16023:16052   */\n      tag_795\n        /* \"#utility.yul\":16042:16051   */\n      dup4\n        /* \"#utility.yul\":16023:16052   */\n      tag_673\n      jump\t// in\n    tag_795:\n        /* \"#utility.yul\":16013:16052   */\n      swap5\n        /* \"#utility.yul\":16099:16101   */\n      0x20\n        /* \"#utility.yul\":16084:16102   */\n      swap4\n      swap1\n      swap4\n      add\n        /* \"#utility.yul\":16071:16103   */\n      calldataload\n      swap4\n      pop\n      pop\n      pop\n        /* \"#utility.yul\":15855:16109   */\n      jump\t// out\n        /* \"#utility.yul\":16114:16505   */\n    tag_197:\n        /* \"#utility.yul\":16200:16206   */\n      0x00\n        /* \"#utility.yul\":16208:16214   */\n      dup1\n        /* \"#utility.yul\":16216:16222   */\n      0x00\n        /* \"#utility.yul\":16224:16230   */\n      dup1\n        /* \"#utility.yul\":16277:16280   */\n      0x80\n        /* \"#utility.yul\":16265:16274   */\n      dup6\n        /* \"#utility.yul\":16256:16263   */\n      dup8\n        /* \"#utility.yul\":16252:16275   */\n      sub\n        /* \"#utility.yul\":16248:16281   */\n      slt\n        /* \"#utility.yul\":16245:16298   */\n      iszero\n      tag_797\n      jumpi\n        /* \"#utility.yul\":16294:16295   */\n      0x00\n        /* \"#utility.yul\":16291:16292   */\n      dup1\n        /* \"#utility.yul\":16284:16296   */\n      revert\n        /* \"#utility.yul\":16245:16298   */\n    tag_797:\n        /* \"#utility.yul\":16330:16339   */\n      dup5\n        /* \"#utility.yul\":16317:16340   */\n      calldataload\n        /* \"#utility.yul\":16307:16340   */\n      swap4\n      pop\n        /* \"#utility.yul\":16387:16389   */\n      0x20\n        /* \"#utility.yul\":16376:16385   */\n      dup6\n        /* \"#utility.yul\":16372:16390   */\n      add\n        /* \"#utility.yul\":16359:16391   */\n      calldataload\n        /* \"#utility.yul\":16349:16391   */\n      swap3\n      pop\n        /* \"#utility.yul\":16438:16440   */\n      0x40\n        /* \"#utility.yul\":16427:16436   */\n      dup6\n        /* \"#utility.yul\":16423:16441   */\n      add\n        /* \"#utility.yul\":16410:16442   */\n      calldataload\n        /* \"#utility.yul\":16400:16442   */\n      swap2\n      pop\n        /* \"#utility.yul\":16461:16499   */\n      tag_798\n        /* \"#utility.yul\":16495:16497   */\n      0x60\n        /* \"#utility.yul\":16484:16493   */\n      dup7\n        /* \"#utility.yul\":16480:16498   */\n      add\n        /* \"#utility.yul\":16461:16499   */\n      tag_673\n      jump\t// in\n    tag_798:\n        /* \"#utility.yul\":16451:16499   */\n      swap1\n      pop\n        /* \"#utility.yul\":16114:16505   */\n      swap3\n      swap6\n      swap2\n      swap5\n      pop\n      swap3\n      pop\n      jump\t// out\n        /* \"#utility.yul\":16510:16765   */\n    tag_207:\n        /* \"#utility.yul\":16687:16689   */\n      0x20\n        /* \"#utility.yul\":16676:16685   */\n      dup2\n        /* \"#utility.yul\":16669:16690   */\n      mstore\n        /* \"#utility.yul\":16650:16654   */\n      0x00\n        /* \"#utility.yul\":16707:16759   */\n      tag_695\n        /* \"#utility.yul\":16755:16757   */\n      0x20\n        /* \"#utility.yul\":16744:16753   */\n      dup4\n        /* \"#utility.yul\":16740:16758   */\n      add\n        /* \"#utility.yul\":16732:16738   */\n      dup5\n        /* \"#utility.yul\":16707:16759   */\n      tag_677\n      jump\t// in\n        /* \"#utility.yul\":16770:16888   */\n    tag_682:\n        /* \"#utility.yul\":16856:16861   */\n      dup1\n        /* \"#utility.yul\":16849:16862   */\n      iszero\n        /* \"#utility.yul\":16842:16863   */\n      iszero\n        /* \"#utility.yul\":16835:16840   */\n      dup2\n        /* \"#utility.yul\":16832:16864   */\n      eq\n        /* \"#utility.yul\":16822:16882   */\n      tag_802\n      jumpi\n        /* \"#utility.yul\":16878:16879   */\n      0x00\n        /* \"#utility.yul\":16875:16876   */\n      dup1\n        /* \"#utility.yul\":16868:16880   */\n      revert\n        /* \"#utility.yul\":16822:16882   */\n    tag_802:\n        /* \"#utility.yul\":16770:16888   */\n      pop\n      jump\t// out\n        /* \"#utility.yul\":16893:17994   */\n    tag_210:\n        /* \"#utility.yul\":16992:16998   */\n      0x00\n        /* \"#utility.yul\":17000:17006   */\n      dup1\n        /* \"#utility.yul\":17008:17014   */\n      0x00\n        /* \"#utility.yul\":17061:17063   */\n      0x60\n        /* \"#utility.yul\":17049:17058   */\n      dup5\n        /* \"#utility.yul\":17040:17047   */\n      dup7\n        /* \"#utility.yul\":17036:17059   */\n      sub\n        /* \"#utility.yul\":17032:17064   */\n      slt\n        /* \"#utility.yul\":17029:17081   */\n      iszero\n      tag_804\n      jumpi\n        /* \"#utility.yul\":17077:17078   */\n      0x00\n        /* \"#utility.yul\":17074:17075   */\n      dup1\n        /* \"#utility.yul\":17067:17079   */\n      revert\n        /* \"#utility.yul\":17029:17081   */\n    tag_804:\n        /* \"#utility.yul\":17113:17122   */\n      dup4\n        /* \"#utility.yul\":17100:17123   */\n      calldataload\n        /* \"#utility.yul\":17090:17123   */\n      swap3\n      pop\n        /* \"#utility.yul\":17142:17144   */\n      0x20\n        /* \"#utility.yul\":17163:17201   */\n      tag_805\n        /* \"#utility.yul\":17197:17199   */\n      dup2\n        /* \"#utility.yul\":17186:17195   */\n      dup7\n        /* \"#utility.yul\":17182:17200   */\n      add\n        /* \"#utility.yul\":17163:17201   */\n      tag_673\n      jump\t// in\n    tag_805:\n        /* \"#utility.yul\":17153:17201   */\n      swap3\n      pop\n        /* \"#utility.yul\":17252:17254   */\n      0x40\n        /* \"#utility.yul\":17241:17250   */\n      dup6\n        /* \"#utility.yul\":17237:17255   */\n      add\n        /* \"#utility.yul\":17224:17256   */\n      calldataload\n      sub(shl(0x40, 0x01), 0x01)\n        /* \"#utility.yul\":17271:17277   */\n      dup2\n        /* \"#utility.yul\":17268:17298   */\n      gt\n        /* \"#utility.yul\":17265:17315   */\n      iszero\n      tag_806\n      jumpi\n        /* \"#utility.yul\":17311:17312   */\n      0x00\n        /* \"#utility.yul\":17308:17309   */\n      dup1\n        /* \"#utility.yul\":17301:17313   */\n      revert\n        /* \"#utility.yul\":17265:17315   */\n    tag_806:\n        /* \"#utility.yul\":17334:17356   */\n      dup6\n      add\n        /* \"#utility.yul\":17387:17391   */\n      0x1f\n        /* \"#utility.yul\":17379:17392   */\n      dup2\n      add\n        /* \"#utility.yul\":17375:17402   */\n      dup8\n      sgt\n        /* \"#utility.yul\":17365:17420   */\n      tag_807\n      jumpi\n        /* \"#utility.yul\":17416:17417   */\n      0x00\n        /* \"#utility.yul\":17413:17414   */\n      dup1\n        /* \"#utility.yul\":17406:17418   */\n      revert\n        /* \"#utility.yul\":17365:17420   */\n    tag_807:\n        /* \"#utility.yul\":17452:17454   */\n      dup1\n        /* \"#utility.yul\":17439:17455   */\n      calldataload\n        /* \"#utility.yul\":17475:17534   */\n      tag_808\n        /* \"#utility.yul\":17491:17533   */\n      tag_778\n        /* \"#utility.yul\":17530:17532   */\n      dup3\n        /* \"#utility.yul\":17491:17533   */\n      tag_681\n      jump\t// in\n        /* \"#utility.yul\":17475:17534   */\n    tag_808:\n        /* \"#utility.yul\":17568:17583   */\n      dup2\n      dup2\n      mstore\n        /* \"#utility.yul\":17650:17651   */\n      0x05\n        /* \"#utility.yul\":17646:17656   */\n      swap2\n      swap1\n      swap2\n      shl\n        /* \"#utility.yul\":17638:17657   */\n      dup3\n      add\n        /* \"#utility.yul\":17634:17662   */\n      dup4\n      add\n      swap1\n        /* \"#utility.yul\":17599:17611   */\n      dup4\n      dup2\n      add\n      swap1\n        /* \"#utility.yul\":17674:17693   */\n      dup10\n      dup4\n      gt\n        /* \"#utility.yul\":17671:17710   */\n      iszero\n      tag_810\n      jumpi\n        /* \"#utility.yul\":17706:17707   */\n      0x00\n        /* \"#utility.yul\":17703:17704   */\n      dup1\n        /* \"#utility.yul\":17696:17708   */\n      revert\n        /* \"#utility.yul\":17671:17710   */\n    tag_810:\n        /* \"#utility.yul\":17730:17741   */\n      swap3\n      dup5\n      add\n      swap3\n        /* \"#utility.yul\":17750:17964   */\n    tag_811:\n        /* \"#utility.yul\":17766:17772   */\n      dup3\n        /* \"#utility.yul\":17761:17764   */\n      dup5\n        /* \"#utility.yul\":17758:17773   */\n      lt\n        /* \"#utility.yul\":17750:17964   */\n      iszero\n      tag_813\n      jumpi\n        /* \"#utility.yul\":17846:17849   */\n      dup4\n        /* \"#utility.yul\":17833:17850   */\n      calldataload\n        /* \"#utility.yul\":17863:17891   */\n      tag_814\n        /* \"#utility.yul\":17885:17890   */\n      dup2\n        /* \"#utility.yul\":17863:17891   */\n      tag_682\n      jump\t// in\n    tag_814:\n        /* \"#utility.yul\":17904:17922   */\n      dup3\n      mstore\n        /* \"#utility.yul\":17783:17795   */\n      swap3\n      dup5\n      add\n      swap3\n        /* \"#utility.yul\":17942:17954   */\n      swap1\n      dup5\n      add\n      swap1\n        /* \"#utility.yul\":17750:17964   */\n      jump(tag_811)\n    tag_813:\n        /* \"#utility.yul\":17983:17988   */\n      dup1\n        /* \"#utility.yul\":17973:17988   */\n      swap6\n      pop\n      pop\n      pop\n      pop\n      pop\n      pop\n        /* \"#utility.yul\":16893:17994   */\n      swap3\n      pop\n      swap3\n      pop\n      swap3\n      jump\t// out\n        /* \"#utility.yul\":17999:19243   */\n    tag_224:\n        /* \"#utility.yul\":18193:18197   */\n      0x00\n        /* \"#utility.yul\":18222:18224   */\n      0x20\n        /* \"#utility.yul\":18262:18264   */\n      dup1\n        /* \"#utility.yul\":18251:18260   */\n      dup4\n        /* \"#utility.yul\":18247:18265   */\n      add\n        /* \"#utility.yul\":18292:18294   */\n      dup2\n        /* \"#utility.yul\":18281:18290   */\n      dup5\n        /* \"#utility.yul\":18274:18295   */\n      mstore\n        /* \"#utility.yul\":18315:18321   */\n      dup1\n        /* \"#utility.yul\":18350:18356   */\n      dup6\n        /* \"#utility.yul\":18344:18357   */\n      mload\n        /* \"#utility.yul\":18381:18387   */\n      dup1\n        /* \"#utility.yul\":18373:18379   */\n      dup4\n        /* \"#utility.yul\":18366:18388   */\n      mstore\n        /* \"#utility.yul\":18407:18409   */\n      0x40\n        /* \"#utility.yul\":18397:18409   */\n      swap3\n      pop\n        /* \"#utility.yul\":18440:18442   */\n      dup3\n        /* \"#utility.yul\":18429:18438   */\n      dup7\n        /* \"#utility.yul\":18425:18443   */\n      add\n        /* \"#utility.yul\":18418:18443   */\n      swap2\n      pop\n        /* \"#utility.yul\":18502:18504   */\n      dup3\n        /* \"#utility.yul\":18492:18498   */\n      dup2\n        /* \"#utility.yul\":18489:18490   */\n      0x05\n        /* \"#utility.yul\":18485:18499   */\n      shl\n        /* \"#utility.yul\":18474:18483   */\n      dup8\n        /* \"#utility.yul\":18470:18500   */\n      add\n        /* \"#utility.yul\":18466:18505   */\n      add\n        /* \"#utility.yul\":18540:18542   */\n      dup5\n        /* \"#utility.yul\":18532:18538   */\n      dup9\n        /* \"#utility.yul\":18528:18543   */\n      add\n        /* \"#utility.yul\":18561:18562   */\n      0x00\n        /* \"#utility.yul\":18571:19214   */\n    tag_816:\n        /* \"#utility.yul\":18585:18591   */\n      dup4\n        /* \"#utility.yul\":18582:18583   */\n      dup2\n        /* \"#utility.yul\":18579:18592   */\n      lt\n        /* \"#utility.yul\":18571:19214   */\n      iszero\n      tag_818\n      jumpi\n        /* \"#utility.yul\":18678:18680   */\n      0x3f\n        /* \"#utility.yul\":18674:18681   */\n      not\n        /* \"#utility.yul\":18662:18671   */\n      dup10\n        /* \"#utility.yul\":18654:18660   */\n      dup5\n        /* \"#utility.yul\":18650:18672   */\n      sub\n        /* \"#utility.yul\":18646:18682   */\n      add\n        /* \"#utility.yul\":18641:18644   */\n      dup6\n        /* \"#utility.yul\":18634:18683   */\n      mstore\n        /* \"#utility.yul\":18712:18718   */\n      dup2\n        /* \"#utility.yul\":18706:18719   */\n      mload\n        /* \"#utility.yul\":18742:18746   */\n      0x80\n        /* \"#utility.yul\":18780:18782   */\n      dup2\n        /* \"#utility.yul\":18774:18783   */\n      mload\n        /* \"#utility.yul\":18766:18772   */\n      dup6\n        /* \"#utility.yul\":18759:18784   */\n      mstore\n        /* \"#utility.yul\":18835:18837   */\n      dup9\n        /* \"#utility.yul\":18831:18833   */\n      dup3\n        /* \"#utility.yul\":18827:18838   */\n      add\n        /* \"#utility.yul\":18821:18839   */\n      mload\n        /* \"#utility.yul\":18816:18818   */\n      dup10\n        /* \"#utility.yul\":18808:18814   */\n      dup7\n        /* \"#utility.yul\":18804:18819   */\n      add\n        /* \"#utility.yul\":18797:18840   */\n      mstore\n        /* \"#utility.yul\":18887:18889   */\n      dup8\n        /* \"#utility.yul\":18883:18885   */\n      dup3\n        /* \"#utility.yul\":18879:18890   */\n      add\n        /* \"#utility.yul\":18873:18891   */\n      mload\n        /* \"#utility.yul\":18928:18930   */\n      dup2\n        /* \"#utility.yul\":18923:18925   */\n      dup10\n        /* \"#utility.yul\":18915:18921   */\n      dup8\n        /* \"#utility.yul\":18911:18926   */\n      add\n        /* \"#utility.yul\":18904:18931   */\n      mstore\n        /* \"#utility.yul\":18958:19006   */\n      tag_819\n        /* \"#utility.yul\":19002:19004   */\n      dup3\n        /* \"#utility.yul\":18994:19000   */\n      dup8\n        /* \"#utility.yul\":18990:19005   */\n      add\n        /* \"#utility.yul\":18976:18988   */\n      dup3\n        /* \"#utility.yul\":18958:19006   */\n      tag_675\n      jump\t// in\n    tag_819:\n        /* \"#utility.yul\":19029:19033   */\n      0x60\n        /* \"#utility.yul\":19090:19101   */\n      swap4\n      dup5\n      add\n        /* \"#utility.yul\":19084:19102   */\n      mload\n        /* \"#utility.yul\":19077:19103   */\n      iszero\n        /* \"#utility.yul\":19070:19104   */\n      iszero\n        /* \"#utility.yul\":19053:19068   */\n      swap7\n      swap1\n      swap4\n      add\n        /* \"#utility.yul\":19046:19105   */\n      swap6\n      swap1\n      swap6\n      mstore\n      pop\n        /* \"#utility.yul\":19192:19204   */\n      swap5\n      dup8\n      add\n      swap5\n        /* \"#utility.yul\":18944:19006   */\n      swap3\n      pop\n        /* \"#utility.yul\":19157:19172   */\n      swap1\n      dup7\n      add\n      swap1\n        /* \"#utility.yul\":18607:18608   */\n      0x01\n        /* \"#utility.yul\":18600:18609   */\n      add\n        /* \"#utility.yul\":18571:19214   */\n      jump(tag_816)\n    tag_818:\n      pop\n        /* \"#utility.yul\":19231:19237   */\n      swap1\n      swap9\n        /* \"#utility.yul\":17999:19243   */\n      swap8\n      pop\n      pop\n      pop\n      pop\n      pop\n      pop\n      pop\n      pop\n      jump\t// out\n        /* \"#utility.yul\":19248:20231   */\n    tag_233:\n        /* \"#utility.yul\":19619:19644   */\n      dup9\n      dup2\n      mstore\n      sub(shl(0xa0, 0x01), 0x01)\n        /* \"#utility.yul\":19680:19712   */\n      dup9\n      and\n        /* \"#utility.yul\":19675:19677   */\n      0x20\n        /* \"#utility.yul\":19660:19678   */\n      dup3\n      add\n        /* \"#utility.yul\":19653:19713   */\n      mstore\n        /* \"#utility.yul\":19607:19610   */\n      0x0100\n        /* \"#utility.yul\":19744:19746   */\n      0x40\n        /* \"#utility.yul\":19729:19747   */\n      dup3\n      add\n        /* \"#utility.yul\":19722:19752   */\n      dup2\n      swap1\n      mstore\n        /* \"#utility.yul\":19578:19582   */\n      0x00\n      swap1\n        /* \"#utility.yul\":19775:19820   */\n      tag_821\n        /* \"#utility.yul\":19801:19819   */\n      dup4\n      dup3\n      add\n        /* \"#utility.yul\":19793:19799   */\n      dup11\n        /* \"#utility.yul\":19775:19820   */\n      tag_675\n      jump\t// in\n    tag_821:\n        /* \"#utility.yul\":19761:19820   */\n      swap1\n      pop\n        /* \"#utility.yul\":19868:19877   */\n      dup3\n        /* \"#utility.yul\":19860:19866   */\n      dup2\n        /* \"#utility.yul\":19856:19878   */\n      sub\n        /* \"#utility.yul\":19851:19853   */\n      0x60\n        /* \"#utility.yul\":19840:19849   */\n      dup5\n        /* \"#utility.yul\":19836:19854   */\n      add\n        /* \"#utility.yul\":19829:19879   */\n      mstore\n        /* \"#utility.yul\":19902:19935   */\n      tag_822\n        /* \"#utility.yul\":19928:19934   */\n      dup2\n        /* \"#utility.yul\":19920:19926   */\n      dup10\n        /* \"#utility.yul\":19902:19935   */\n      tag_675\n      jump\t// in\n    tag_822:\n        /* \"#utility.yul\":19888:19935   */\n      swap1\n      pop\n        /* \"#utility.yul\":19984:19993   */\n      dup3\n        /* \"#utility.yul\":19976:19982   */\n      dup2\n        /* \"#utility.yul\":19972:19994   */\n      sub\n        /* \"#utility.yul\":19966:19969   */\n      0x80\n        /* \"#utility.yul\":19955:19964   */\n      dup5\n        /* \"#utility.yul\":19951:19970   */\n      add\n        /* \"#utility.yul\":19944:19995   */\n      mstore\n        /* \"#utility.yul\":20012:20045   */\n      tag_823\n        /* \"#utility.yul\":20038:20044   */\n      dup2\n        /* \"#utility.yul\":20030:20036   */\n      dup9\n        /* \"#utility.yul\":20012:20045   */\n      tag_675\n      jump\t// in\n    tag_823:\n        /* \"#utility.yul\":20089:20103   */\n      swap6\n      iszero\n        /* \"#utility.yul\":20082:20104   */\n      iszero\n        /* \"#utility.yul\":20076:20079   */\n      0xa0\n        /* \"#utility.yul\":20061:20080   */\n      dup5\n      add\n        /* \"#utility.yul\":20054:20105   */\n      mstore\n      pop\n      pop\n        /* \"#utility.yul\":20149:20163   */\n      swap2\n      iszero\n        /* \"#utility.yul\":20142:20164   */\n      iszero\n        /* \"#utility.yul\":20136:20139   */\n      0xc0\n        /* \"#utility.yul\":20121:20140   */\n      dup4\n      add\n        /* \"#utility.yul\":20114:20165   */\n      mstore\n        /* \"#utility.yul\":20209:20223   */\n      iszero\n        /* \"#utility.yul\":20202:20224   */\n      iszero\n        /* \"#utility.yul\":20196:20199   */\n      0xe0\n        /* \"#utility.yul\":20181:20200   */\n      swap1\n      swap2\n      add\n        /* \"#utility.yul\":20174:20225   */\n      mstore\n        /* \"#utility.yul\":20004:20045   */\n      swap6\n        /* \"#utility.yul\":19248:20231   */\n      swap5\n      pop\n      pop\n      pop\n      pop\n      pop\n      jump\t// out\n        /* \"#utility.yul\":20236:20681   */\n    tag_238:\n        /* \"#utility.yul\":20463:20469   */\n      dup5\n        /* \"#utility.yul\":20452:20461   */\n      dup2\n        /* \"#utility.yul\":20445:20470   */\n      mstore\n        /* \"#utility.yul\":20506:20512   */\n      dup4\n        /* \"#utility.yul\":20501:20503   */\n      0x20\n        /* \"#utility.yul\":20490:20499   */\n      dup3\n        /* \"#utility.yul\":20486:20504   */\n      add\n        /* \"#utility.yul\":20479:20513   */\n      mstore\n        /* \"#utility.yul\":20549:20552   */\n      0x80\n        /* \"#utility.yul\":20544:20546   */\n      0x40\n        /* \"#utility.yul\":20533:20542   */\n      dup3\n        /* \"#utility.yul\":20529:20547   */\n      add\n        /* \"#utility.yul\":20522:20553   */\n      mstore\n        /* \"#utility.yul\":20426:20430   */\n      0x00\n        /* \"#utility.yul\":20570:20616   */\n      tag_825\n        /* \"#utility.yul\":20611:20614   */\n      0x80\n        /* \"#utility.yul\":20600:20609   */\n      dup4\n        /* \"#utility.yul\":20596:20615   */\n      add\n        /* \"#utility.yul\":20588:20594   */\n      dup6\n        /* \"#utility.yul\":20570:20616   */\n      tag_675\n      jump\t// in\n    tag_825:\n        /* \"#utility.yul\":20562:20616   */\n      swap1\n      pop\n        /* \"#utility.yul\":20666:20672   */\n      dup3\n        /* \"#utility.yul\":20659:20673   */\n      iszero\n        /* \"#utility.yul\":20652:20674   */\n      iszero\n        /* \"#utility.yul\":20647:20649   */\n      0x60\n        /* \"#utility.yul\":20636:20645   */\n      dup4\n        /* \"#utility.yul\":20632:20650   */\n      add\n        /* \"#utility.yul\":20625:20675   */\n      mstore\n        /* \"#utility.yul\":20236:20681   */\n      swap6\n      swap5\n      pop\n      pop\n      pop\n      pop\n      pop\n      jump\t// out\n        /* \"#utility.yul\":20686:20813   */\n    tag_683:\n        /* \"#utility.yul\":20747:20757   */\n      0x4e487b71\n        /* \"#utility.yul\":20742:20745   */\n      0xe0\n        /* \"#utility.yul\":20738:20758   */\n      shl\n        /* \"#utility.yul\":20735:20736   */\n      0x00\n        /* \"#utility.yul\":20728:20759   */\n      mstore\n        /* \"#utility.yul\":20778:20782   */\n      0x11\n        /* \"#utility.yul\":20775:20776   */\n      0x04\n        /* \"#utility.yul\":20768:20783   */\n      mstore\n        /* \"#utility.yul\":20802:20806   */\n      0x24\n        /* \"#utility.yul\":20799:20800   */\n      0x00\n        /* \"#utility.yul\":20792:20807   */\n      revert\n        /* \"#utility.yul\":20818:20986   */\n    tag_241:\n        /* \"#utility.yul\":20891:20900   */\n      dup1\n      dup3\n      mul\n        /* \"#utility.yul\":20922:20931   */\n      dup2\n      iszero\n        /* \"#utility.yul\":20939:20954   */\n      dup3\n      dup3\n      div\n        /* \"#utility.yul\":20933:20955   */\n      dup5\n      eq\n        /* \"#utility.yul\":20919:20956   */\n      or\n        /* \"#utility.yul\":20909:20980   */\n      tag_239\n      jumpi\n        /* \"#utility.yul\":20960:20978   */\n      tag_239\n      tag_683\n      jump\t// in\n        /* \"#utility.yul\":20991:21116   */\n    tag_243:\n        /* \"#utility.yul\":21056:21065   */\n      dup1\n      dup3\n      add\n        /* \"#utility.yul\":21077:21087   */\n      dup1\n      dup3\n      gt\n        /* \"#utility.yul\":21074:21110   */\n      iszero\n      tag_239\n      jumpi\n        /* \"#utility.yul\":21090:21108   */\n      tag_239\n      tag_683\n      jump\t// in\n        /* \"#utility.yul\":21121:21501   */\n    tag_257:\n        /* \"#utility.yul\":21200:21201   */\n      0x01\n        /* \"#utility.yul\":21196:21208   */\n      dup2\n      dup2\n      shr\n      swap1\n        /* \"#utility.yul\":21243:21255   */\n      dup3\n      and\n      dup1\n        /* \"#utility.yul\":21264:21325   */\n      tag_834\n      jumpi\n        /* \"#utility.yul\":21318:21322   */\n      0x7f\n        /* \"#utility.yul\":21310:21316   */\n      dup3\n        /* \"#utility.yul\":21306:21323   */\n      and\n        /* \"#utility.yul\":21296:21323   */\n      swap2\n      pop\n        /* \"#utility.yul\":21264:21325   */\n    tag_834:\n        /* \"#utility.yul\":21371:21373   */\n      0x20\n        /* \"#utility.yul\":21363:21369   */\n      dup3\n        /* \"#utility.yul\":21360:21374   */\n      lt\n        /* \"#utility.yul\":21340:21358   */\n      dup2\n        /* \"#utility.yul\":21337:21375   */\n      sub\n        /* \"#utility.yul\":21334:21495   */\n      tag_835\n      jumpi\n        /* \"#utility.yul\":21417:21427   */\n      0x4e487b71\n        /* \"#utility.yul\":21412:21415   */\n      0xe0\n        /* \"#utility.yul\":21408:21428   */\n      shl\n        /* \"#utility.yul\":21405:21406   */\n      0x00\n        /* \"#utility.yul\":21398:21429   */\n      mstore\n        /* \"#utility.yul\":21452:21456   */\n      0x22\n        /* \"#utility.yul\":21449:21450   */\n      0x04\n        /* \"#utility.yul\":21442:21457   */\n      mstore\n        /* \"#utility.yul\":21480:21484   */\n      0x24\n        /* \"#utility.yul\":21477:21478   */\n      0x00\n        /* \"#utility.yul\":21470:21485   */\n      revert\n        /* \"#utility.yul\":21334:21495   */\n    tag_835:\n      pop\n        /* \"#utility.yul\":21121:21501   */\n      swap2\n      swap1\n      pop\n      jump\t// out\n        /* \"#utility.yul\":21506:21633   */\n    tag_285:\n        /* \"#utility.yul\":21567:21577   */\n      0x4e487b71\n        /* \"#utility.yul\":21562:21565   */\n      0xe0\n        /* \"#utility.yul\":21558:21578   */\n      shl\n        /* \"#utility.yul\":21555:21556   */\n      0x00\n        /* \"#utility.yul\":21548:21579   */\n      mstore\n        /* \"#utility.yul\":21598:21602   */\n      0x32\n        /* \"#utility.yul\":21595:21596   */\n      0x04\n        /* \"#utility.yul\":21588:21603   */\n      mstore\n        /* \"#utility.yul\":21622:21626   */\n      0x24\n        /* \"#utility.yul\":21619:21620   */\n      0x00\n        /* \"#utility.yul\":21612:21627   */\n      revert\n        /* \"#utility.yul\":21638:21773   */\n    tag_296:\n        /* \"#utility.yul\":21677:21680   */\n      0x00\n        /* \"#utility.yul\":21698:21715   */\n      0x01\n      dup3\n      add\n        /* \"#utility.yul\":21695:21738   */\n      tag_839\n      jumpi\n        /* \"#utility.yul\":21718:21736   */\n      tag_839\n      tag_683\n      jump\t// in\n    tag_839:\n      pop\n        /* \"#utility.yul\":21765:21766   */\n      0x01\n        /* \"#utility.yul\":21754:21767   */\n      add\n      swap1\n        /* \"#utility.yul\":21638:21773   */\n      jump\t// out\n        /* \"#utility.yul\":21778:21995   */\n    tag_329:\n        /* \"#utility.yul\":21818:21819   */\n      0x00\n        /* \"#utility.yul\":21844:21845   */\n      dup3\n        /* \"#utility.yul\":21834:21966   */\n      tag_841\n      jumpi\n        /* \"#utility.yul\":21888:21898   */\n      0x4e487b71\n        /* \"#utility.yul\":21883:21886   */\n      0xe0\n        /* \"#utility.yul\":21879:21899   */\n      shl\n        /* \"#utility.yul\":21876:21877   */\n      0x00\n        /* \"#utility.yul\":21869:21900   */\n      mstore\n        /* \"#utility.yul\":21923:21927   */\n      0x12\n        /* \"#utility.yul\":21920:21921   */\n      0x04\n        /* \"#utility.yul\":21913:21928   */\n      mstore\n        /* \"#utility.yul\":21951:21955   */\n      0x24\n        /* \"#utility.yul\":21948:21949   */\n      0x00\n        /* \"#utility.yul\":21941:21956   */\n      revert\n        /* \"#utility.yul\":21834:21966   */\n    tag_841:\n      pop\n        /* \"#utility.yul\":21980:21989   */\n      div\n      swap1\n        /* \"#utility.yul\":21778:21995   */\n      jump\t// out\n        /* \"#utility.yul\":22126:22671   */\n    tag_685:\n        /* \"#utility.yul\":22228:22230   */\n      0x1f\n        /* \"#utility.yul\":22223:22226   */\n      dup3\n        /* \"#utility.yul\":22220:22231   */\n      gt\n        /* \"#utility.yul\":22217:22665   */\n      iszero\n      tag_844\n      jumpi\n        /* \"#utility.yul\":22264:22265   */\n      0x00\n        /* \"#utility.yul\":22289:22294   */\n      dup2\n        /* \"#utility.yul\":22285:22287   */\n      dup2\n        /* \"#utility.yul\":22278:22295   */\n      mstore\n        /* \"#utility.yul\":22334:22338   */\n      0x20\n        /* \"#utility.yul\":22330:22332   */\n      dup2\n        /* \"#utility.yul\":22320:22339   */\n      keccak256\n        /* \"#utility.yul\":22404:22406   */\n      0x1f\n        /* \"#utility.yul\":22392:22402   */\n      dup6\n        /* \"#utility.yul\":22388:22407   */\n      add\n        /* \"#utility.yul\":22385:22386   */\n      0x05\n        /* \"#utility.yul\":22381:22408   */\n      shr\n        /* \"#utility.yul\":22375:22379   */\n      dup2\n        /* \"#utility.yul\":22371:22409   */\n      add\n        /* \"#utility.yul\":22440:22444   */\n      0x20\n        /* \"#utility.yul\":22428:22438   */\n      dup7\n        /* \"#utility.yul\":22425:22445   */\n      lt\n        /* \"#utility.yul\":22422:22469   */\n      iszero\n      tag_845\n      jumpi\n      pop\n        /* \"#utility.yul\":22463:22467   */\n      dup1\n        /* \"#utility.yul\":22422:22469   */\n    tag_845:\n        /* \"#utility.yul\":22518:22520   */\n      0x1f\n        /* \"#utility.yul\":22513:22516   */\n      dup6\n        /* \"#utility.yul\":22509:22521   */\n      add\n        /* \"#utility.yul\":22506:22507   */\n      0x05\n        /* \"#utility.yul\":22502:22522   */\n      shr\n        /* \"#utility.yul\":22496:22500   */\n      dup3\n        /* \"#utility.yul\":22492:22523   */\n      add\n        /* \"#utility.yul\":22482:22523   */\n      swap2\n      pop\n        /* \"#utility.yul\":22573:22655   */\n    tag_846:\n        /* \"#utility.yul\":22591:22593   */\n      dup2\n        /* \"#utility.yul\":22584:22589   */\n      dup2\n        /* \"#utility.yul\":22581:22594   */\n      lt\n        /* \"#utility.yul\":22573:22655   */\n      iszero\n      tag_848\n      jumpi\n        /* \"#utility.yul\":22636:22653   */\n      dup3\n      dup2\n      sstore\n        /* \"#utility.yul\":22617:22618   */\n      0x01\n        /* \"#utility.yul\":22606:22619   */\n      add\n        /* \"#utility.yul\":22573:22655   */\n      jump(tag_846)\n    tag_848:\n        /* \"#utility.yul\":22577:22580   */\n      pop\n      pop\n      pop\n        /* \"#utility.yul\":22217:22665   */\n    tag_844:\n        /* \"#utility.yul\":22126:22671   */\n      pop\n      pop\n      pop\n      jump\t// out\n        /* \"#utility.yul\":22847:24199   */\n    tag_436:\n        /* \"#utility.yul\":22973:22976   */\n      dup2\n        /* \"#utility.yul\":22967:22977   */\n      mload\n      sub(shl(0x40, 0x01), 0x01)\n        /* \"#utility.yul\":22992:22998   */\n      dup2\n        /* \"#utility.yul\":22989:23019   */\n      gt\n        /* \"#utility.yul\":22986:23042   */\n      iszero\n      tag_852\n      jumpi\n        /* \"#utility.yul\":23022:23040   */\n      tag_852\n      tag_275\n      jump\t// in\n    tag_852:\n        /* \"#utility.yul\":23051:23148   */\n      tag_853\n        /* \"#utility.yul\":23141:23147   */\n      dup2\n        /* \"#utility.yul\":23101:23139   */\n      tag_854\n        /* \"#utility.yul\":23133:23137   */\n      dup5\n        /* \"#utility.yul\":23127:23138   */\n      sload\n        /* \"#utility.yul\":23101:23139   */\n      tag_257\n      jump\t// in\n    tag_854:\n        /* \"#utility.yul\":23095:23099   */\n      dup5\n        /* \"#utility.yul\":23051:23148   */\n      tag_685\n      jump\t// in\n    tag_853:\n        /* \"#utility.yul\":23203:23207   */\n      0x20\n      dup1\n        /* \"#utility.yul\":23267:23269   */\n      0x1f\n        /* \"#utility.yul\":23256:23270   */\n      dup4\n      gt\n        /* \"#utility.yul\":23284:23285   */\n      0x01\n        /* \"#utility.yul\":23279:23942   */\n      dup2\n      eq\n      tag_856\n      jumpi\n        /* \"#utility.yul\":23986:23987   */\n      0x00\n        /* \"#utility.yul\":24003:24009   */\n      dup5\n        /* \"#utility.yul\":24000:24089   */\n      iszero\n      tag_857\n      jumpi\n      pop\n        /* \"#utility.yul\":24055:24074   */\n      dup6\n      dup4\n      add\n        /* \"#utility.yul\":24049:24075   */\n      mload\n        /* \"#utility.yul\":24000:24089   */\n    tag_857:\n      not(0x00)\n        /* \"#utility.yul\":22804:22805   */\n      0x03\n        /* \"#utility.yul\":22800:22811   */\n      dup7\n      swap1\n      shl\n        /* \"#utility.yul\":22796:22820   */\n      shr\n        /* \"#utility.yul\":22792:22821   */\n      not\n        /* \"#utility.yul\":22782:22822   */\n      and\n        /* \"#utility.yul\":22828:22829   */\n      0x01\n        /* \"#utility.yul\":22824:22835   */\n      dup6\n      swap1\n      shl\n        /* \"#utility.yul\":22779:22836   */\n      or\n        /* \"#utility.yul\":24102:24183   */\n      dup6\n      sstore\n        /* \"#utility.yul\":23249:24193   */\n      jump(tag_848)\n        /* \"#utility.yul\":23279:23942   */\n    tag_856:\n        /* \"#utility.yul\":22073:22074   */\n      0x00\n        /* \"#utility.yul\":22066:22080   */\n      dup6\n      dup2\n      mstore\n        /* \"#utility.yul\":22110:22114   */\n      0x20\n        /* \"#utility.yul\":22097:22115   */\n      dup2\n      keccak256\n      not(0x1f)\n        /* \"#utility.yul\":23315:23335   */\n      dup7\n      and\n      swap2\n        /* \"#utility.yul\":23433:23669   */\n    tag_860:\n        /* \"#utility.yul\":23447:23454   */\n      dup3\n        /* \"#utility.yul\":23444:23445   */\n      dup2\n        /* \"#utility.yul\":23441:23455   */\n      lt\n        /* \"#utility.yul\":23433:23669   */\n      iszero\n      tag_862\n      jumpi\n        /* \"#utility.yul\":23536:23555   */\n      dup9\n      dup7\n      add\n        /* \"#utility.yul\":23530:23556   */\n      mload\n        /* \"#utility.yul\":23515:23557   */\n      dup3\n      sstore\n        /* \"#utility.yul\":23628:23655   */\n      swap5\n      dup5\n      add\n      swap5\n        /* \"#utility.yul\":23596:23597   */\n      0x01\n        /* \"#utility.yul\":23584:23598   */\n      swap1\n      swap2\n      add\n      swap1\n        /* \"#utility.yul\":23463:23482   */\n      dup5\n      add\n        /* \"#utility.yul\":23433:23669   */\n      jump(tag_860)\n    tag_862:\n        /* \"#utility.yul\":23437:23440   */\n      pop\n        /* \"#utility.yul\":23697:23703   */\n      dup6\n        /* \"#utility.yul\":23688:23695   */\n      dup3\n        /* \"#utility.yul\":23685:23704   */\n      lt\n        /* \"#utility.yul\":23682:23883   */\n      iszero\n      tag_863\n      jumpi\n        /* \"#utility.yul\":23758:23777   */\n      dup8\n      dup6\n      add\n        /* \"#utility.yul\":23752:23778   */\n      mload\n      not(0x00)\n        /* \"#utility.yul\":23841:23842   */\n      0x03\n        /* \"#utility.yul\":23837:23851   */\n      dup9\n      swap1\n      shl\n        /* \"#utility.yul\":23853:23856   */\n      0xf8\n        /* \"#utility.yul\":23833:23857   */\n      and\n        /* \"#utility.yul\":23829:23866   */\n      shr\n        /* \"#utility.yul\":23825:23867   */\n      not\n        /* \"#utility.yul\":23810:23868   */\n      and\n        /* \"#utility.yul\":23795:23869   */\n      dup2\n      sstore\n        /* \"#utility.yul\":23682:23883   */\n    tag_863:\n      pop\n      pop\n      pop\n      pop\n      pop\n        /* \"#utility.yul\":23929:23930   */\n      0x01\n        /* \"#utility.yul\":23913:23927   */\n      swap1\n      dup2\n      shl\n        /* \"#utility.yul\":23909:23931   */\n      add\n        /* \"#utility.yul\":23896:23932   */\n      swap1\n      sstore\n      pop\n        /* \"#utility.yul\":22847:24199   */\n      jump\t// out\n        /* \"#utility.yul\":24483:24728   */\n    tag_511:\n        /* \"#utility.yul\":24550:24556   */\n      0x00\n        /* \"#utility.yul\":24603:24605   */\n      0x20\n        /* \"#utility.yul\":24591:24600   */\n      dup3\n        /* \"#utility.yul\":24582:24589   */\n      dup5\n        /* \"#utility.yul\":24578:24601   */\n      sub\n        /* \"#utility.yul\":24574:24606   */\n      slt\n        /* \"#utility.yul\":24571:24623   */\n      iszero\n      tag_866\n      jumpi\n        /* \"#utility.yul\":24619:24620   */\n      0x00\n        /* \"#utility.yul\":24616:24617   */\n      dup1\n        /* \"#utility.yul\":24609:24621   */\n      revert\n        /* \"#utility.yul\":24571:24623   */\n    tag_866:\n        /* \"#utility.yul\":24651:24660   */\n      dup2\n        /* \"#utility.yul\":24645:24661   */\n      mload\n        /* \"#utility.yul\":24670:24698   */\n      tag_250\n        /* \"#utility.yul\":24692:24697   */\n      dup2\n        /* \"#utility.yul\":24670:24698   */\n      tag_682\n      jump\t// in\n\n    auxdata: 0xa2646970667358221220d48bcf8c5c9ee0e0c5240946b3d587f0eb1dd275216d3595e26bf67ff30085b464736f6c63430008130033\n}\n",
				"bytecode": {
					"linkReferences": {},
					"object": "608060408190526000805473ece897a85688f2e83a73fed36b9d1a6efcc99e936001600160a01b0319918216179091556015805473874069fa1eb16d44d622f2e0ca25eea172369bc192168217905563313ce56760e01b82529063313ce56790608490602090600481865afa1580156200007d573d6000803e3d6000fd5b505050506040513d601f19601f82011682018060405250810190620000a39190620000c7565b620000b090600a62000208565b601655348015620000c057600080fd5b5062000219565b600060208284031215620000da57600080fd5b815160ff81168114620000ec57600080fd5b9392505050565b634e487b7160e01b600052601160045260246000fd5b600181815b808511156200014a5781600019048211156200012e576200012e620000f3565b808516156200013c57918102915b93841c93908002906200010e565b509250929050565b600082620001635750600162000202565b81620001725750600062000202565b81600181146200018b57600281146200019657620001b6565b600191505062000202565b60ff841115620001aa57620001aa620000f3565b50506001821b62000202565b5060208310610133831016604e8410600b8410161715620001db575081810a62000202565b620001e7838362000109565b8060001904821115620001fe57620001fe620000f3565b0290505b92915050565b6000620000ec60ff84168362000152565b61493a80620002296000396000f3fe608060405234801561001057600080fd5b506004361061025e5760003560e01c80636b8ac0e711610146578063a58543fe116100c3578063cc4903ca11610087578063cc4903ca146106d4578063d7e93794146106e7578063d8cb629014610707578063f31e72e414610727578063f692a3bb1461073a578063fb47e9e61461076157600080fd5b8063a58543fe14610628578063b3265ecd14610660578063b9c745b314610673578063c0ac4ae4146106a1578063ca2e7f9b146106c157600080fd5b80637e9508191161010a5780637e950819146105695780638e6da6191461059757806395ecea1f146105e2578063964f6566146105f55780639a23218f1461061557600080fd5b80636b8ac0e7146104ef5780636f5fde111461050257806373fd653d1461052557806379252d97146105385780637a1bc3751461056157600080fd5b8063392a5822116101df5780634fe1cfad116101a35780634fe1cfad146104135780635822bff11461043c5780635b76074e1461045c5780635fa7a90a1461046f57806368df32991461048f57806369bff3fb146104a257600080fd5b8063392a5822146103a55780633abb615a146103c55780633b43b7d0146103d857806340ca213d146103ed578063449626091461040057600080fd5b80631bd1ebc4116102265780631bd1ebc4146103165780632076a35a146103295780632394e5dc1461034957806325f18424146103695780633882db7d1461037c57600080fd5b806303f16747146102635780630478318b1461028957806307f6646e146102a9578063125bb83d146102c95780631b6f2485146102f0575b600080fd5b610276610271366004613c9d565b610784565b6040519081526020015b60405180910390f35b61029c610297366004613cdb565b610814565b6040516102809190613d43565b6102bc6102b7366004613cdb565b610a42565b6040516102809190613e60565b6102dc6102d7366004613c9d565b610c59565b604051610280989796959493929190613ec2565b6103036102fe366004613f2b565b610ddd565b6040516102809796959493929190613f44565b610276610324366004613f2b565b610ec2565b61033c610337366004613f96565b61102d565b6040516102809190613fc2565b61035c610357366004613cdb565b61131b565b60405161028091906140d1565b610276610377366004613cdb565b6114bd565b61027661038a366004613cdb565b6001600160a01b03166000908152600a602052604090205490565b6103b86103b3366004613cdb565b611588565b60405161028091906140e4565b6102bc6103d3366004613cdb565b6116d3565b6103eb6103e6366004614205565b6118ce565b005b6103eb6103fb366004614280565b611abe565b61027661040e366004613c9d565b611cac565b610276610421366004613cdb565b6001600160a01b031660009081526008602052604090205490565b61027661044a366004613cdb565b60086020526000908152604090205481565b6102dc61046a366004613cdb565b611e0e565b61027661047d366004613cdb565b60096020526000908152604090205481565b61027661049d36600461433b565b611e41565b6104b56104b0366004613c9d565b6120d8565b604080519687526020870195909552938501929092526001600160a01b0316606084015215156080830152151560a082015260c001610280565b6103eb6104fd366004613f96565b61213d565b610515610510366004613cdb565b612620565b6040519015158152602001610280565b6103eb610533366004613cdb565b612654565b610276610546366004613cdb565b6001600160a01b031660009081526009602052604090205490565b6102bc612956565b610515610577366004613f96565b600760209081526000928352604080842090915290825290205460ff1681565b6105aa6105a5366004613f2b565b612a9a565b6040805195865260208601949094526001600160a01b039092169284019290925260608301919091521515608082015260a001610280565b6105aa6105f0366004613f2b565b612ae8565b610608610603366004613f2b565b612af8565b6040516102809190614441565b610515610623366004613cdb565b612ce8565b610515610636366004614496565b60009081526006602090815260408083206001600160a01b03949094168352929052205460ff1690565b6103eb61066e3660046144c0565b612d14565b610515610681366004613f96565b600660209081526000928352604080842090915290825290205460ff1681565b6106b46106af366004613f2b565b612ea2565b60405161028091906144ff565b6103eb6106cf366004614523565b612fd5565b61033c6106e2366004613f2b565b613579565b6102766106f5366004613cdb565b600a6020526000908152604090205481565b61071a610715366004613f2b565b61362e565b60405161028091906145d8565b61071a610735366004613f2b565b61374d565b61074d610748366004613cdb565b61386c565b604051610280989796959493929190614666565b61077461076f366004613c9d565b613a5a565b60405161028094939291906146dc565b60165460009081906107969085614724565b6107a0908261473b565b9050826005036107c5576016546107b8906002614724565b6107c2908261473b565b90505b826007036107e8576016546107db906004614724565b6107e5908261473b565b90505b8260090361080b576016546107fe906006614724565b610808908261473b565b90505b90505b92915050565b61081c613b32565b6001600160a01b038083166000908152600160208181526040928390208351610100810185528154815292810154909416908201526002830180549193928401916108669061474e565b80601f01602080910402602001604051908101604052809291908181526020018280546108929061474e565b80156108df5780601f106108b4576101008083540402835291602001916108df565b820191906000526020600020905b8154815290600101906020018083116108c257829003601f168201915b505050505081526020016003820180546108f89061474e565b80601f01602080910402602001604051908101604052809291908181526020018280546109249061474e565b80156109715780601f1061094657610100808354040283529160200191610971565b820191906000526020600020905b81548152906001019060200180831161095457829003601f168201915b5050505050815260200160048201805461098a9061474e565b80601f01602080910402602001604051908101604052809291908181526020018280546109b69061474e565b8015610a035780601f106109d857610100808354040283529160200191610a03565b820191906000526020600020905b8154815290600101906020018083116109e657829003601f168201915b50505091835250506005919091015460ff8082161515602084015261010082048116151560408401526201000090910416151560609091015292915050565b6001600160a01b038116600090815260086020526040812054606091816001600160401b03811115610a7657610a76614150565b604051908082528060200260200182016040528015610aaf57816020015b610a9c613b86565b815260200190600190039081610a945790505b5090506000805b600354811015610c4f57600060038281548110610ad557610ad5614788565b90600052602060002090600702016040518060e0016040529081600082015481526020016001820160009054906101000a90046001600160a01b03166001600160a01b03166001600160a01b03168152602001600282018054610b379061474e565b80601f0160208091040260200160405190810160405280929190818152602001828054610b639061474e565b8015610bb05780601f10610b8557610100808354040283529160200191610bb0565b820191906000526020600020905b815481529060010190602001808311610b9357829003601f168201915b50505091835250506003820154602080830191909152600483015460408301526005830154606083015260069092015460ff1615156080909101528101519091506001600160a01b03808916911603610c3c5780848481518110610c1657610c16614788565b60200260200101819052508280610c2c9061479e565b935050848303610c3c5750610c4f565b5080610c478161479e565b915050610ab6565b5090949350505050565b600b6020528160005260406000208181548110610c7557600080fd5b60009182526020909120600790910201805460018201546002830180549295506001600160a01b03909116935090610cac9061474e565b80601f0160208091040260200160405190810160405280929190818152602001828054610cd89061474e565b8015610d255780601f10610cfa57610100808354040283529160200191610d25565b820191906000526020600020905b815481529060010190602001808311610d0857829003601f168201915b505050505090806003018054610d3a9061474e565b80601f0160208091040260200160405190810160405280929190818152602001828054610d669061474e565b8015610db35780601f10610d8857610100808354040283529160200191610db3565b820191906000526020600020905b815481529060010190602001808311610d9657829003601f168201915b50505050600483015460058401546006909401549293909290915060ff8082169161010090041688565b60038181548110610ded57600080fd5b60009182526020909120600790910201805460018201546002830180549294506001600160a01b039091169291610e239061474e565b80601f0160208091040260200160405190810160405280929190818152602001828054610e4f9061474e565b8015610e9c5780601f10610e7157610100808354040283529160200191610e9c565b820191906000526020600020905b815481529060010190602001808311610e7f57829003601f168201915b505050506003830154600484015460058501546006909501549394919390925060ff1687565b60008060038381548110610ed857610ed8614788565b90600052602060002090600702016040518060e0016040529081600082015481526020016001820160009054906101000a90046001600160a01b03166001600160a01b03166001600160a01b03168152602001600282018054610f3a9061474e565b80601f0160208091040260200160405190810160405280929190818152602001828054610f669061474e565b8015610fb35780601f10610f8857610100808354040283529160200191610fb3565b820191906000526020600020905b815481529060010190602001808311610f9657829003601f168201915b50505091835250506003820154602082015260048201546040820152600580830154606083015260069092015460ff16151560809182015260a0830151908301519293509190600090600a9061100a908590614724565b61101491906147b7565b9050600061102283836147b7565b979650505050505050565b606060006003848154811061104457611044614788565b90600052602060002090600702016040518060e0016040529081600082015481526020016001820160009054906101000a90046001600160a01b03166001600160a01b03166001600160a01b031681526020016002820180546110a69061474e565b80601f01602080910402602001604051908101604052809291908181526020018280546110d29061474e565b801561111f5780601f106110f45761010080835404028352916020019161111f565b820191906000526020600020905b81548152906001019060200180831161110257829003601f168201915b505050505081526020016003820154815260200160048201548152602001600582015481526020016006820160009054906101000a900460ff1615151515815250509050600060056000868152602001908152602001600020805480602002602001604051908101604052809291908181526020016000905b828210156112185760008481526020908190206040805160c081018252600486029092018054835260018082015484860152600282015492840192909252600301546001600160a01b038116606084015260ff600160a01b8204811615156080850152600160a81b90910416151560a08301529083529092019101611198565b5050505060608301519091506000816001600160401b0381111561123e5761123e614150565b60405190808252806020026020018201604052801561127757816020015b611264613bce565b81526020019060019003908161125c5790505b5090506000805b845181101561130e57600085828151811061129b5761129b614788565b60200260200101519050886001600160a01b031681606001516001600160a01b0316036112fb57808484815181106112d5576112d5614788565b602002602001018190525082806112eb9061479e565b9350508483036112fb575061130e565b50806113068161479e565b91505061127e565b5090979650505050505050565b611323613c11565b6001600160a01b03808316600090815260026020818152604092839020835161010081018552815481526001820154909516918501919091529081018054919284019161136f9061474e565b80601f016020809104026020016040519081016040528092919081815260200182805461139b9061474e565b80156113e85780601f106113bd576101008083540402835291602001916113e8565b820191906000526020600020905b8154815290600101906020018083116113cb57829003601f168201915b505050505081526020016003820180546114019061474e565b80601f016020809104026020016040519081016040528092919081815260200182805461142d9061474e565b801561147a5780601f1061144f5761010080835404028352916020019161147a565b820191906000526020600020905b81548152906001019060200180831161145d57829003601f168201915b5050509183525050600482015460208201526005820154604082015260069091015460ff8082161515606084015261010090910416151560809091015292915050565b6001600160a01b03811660009081526002602052604081206005015481816001600160401b038111156114f2576114f2614150565b60405190808252806020026020018201604052801561152b57816020015b611518613c63565b8152602001906001900390816115105790505b5090506000805b825181101561157f57600083828151811061154f5761154f614788565b60200260200101519050806060015183611569919061473b565b92505080806115779061479e565b915050611532565b50949350505050565b6001600160a01b038116600090815260026020526040812060050154606091816001600160401b038111156115bf576115bf614150565b6040519080825280602002602001820160405280156115f857816020015b6115e5613c63565b8152602001906001900390816115dd5790505b5090506000805b600d54811015610c4f576000600d828154811061161e5761161e614788565b60009182526020918290206040805160a08101825260059093029091018054835260018101549383019390935260028301546001600160a01b039081169183018290526003840154606084015260049093015460ff161515608083015290925090881690036116c0578084848151811061169a5761169a614788565b602002602001018190525082806116b09061479e565b9350508483036116c05750610c4f565b50806116cb8161479e565b9150506115ff565b606060006116e083611588565b9050600081516001600160401b038111156116fd576116fd614150565b60405190808252806020026020018201604052801561173657816020015b611723613b86565b81526020019060019003908161171b5790505b5090506000805b8351811015610c4f57600084828151811061175a5761175a614788565b60200260200101519050600381602001518154811061177b5761177b614788565b90600052602060002090600702016040518060e0016040529081600082015481526020016001820160009054906101000a90046001600160a01b03166001600160a01b03166001600160a01b031681526020016002820180546117dd9061474e565b80601f01602080910402602001604051908101604052809291908181526020018280546118099061474e565b80156118565780601f1061182b57610100808354040283529160200191611856565b820191906000526020600020905b81548152906001019060200180831161183957829003601f168201915b505050918352505060038201546020820152600482015460408201526005820154606082015260069091015460ff16151560809091015284518590859081106118a1576118a1614788565b602002602001018190525082806118b79061479e565b9350505080806118c69061479e565b91505061173d565b600f546118d9613c11565b8181526001600160a01b038616602082015260408101859052606081018490526080810183905261190986612ce8565b156119f557600061191987610814565b600160a0820181905260c084018190526001600160a01b0389811660009081526020838152604091829020855181559085015193810180546001600160a01b03191694909316939093179091558201519192508291600282019061197d9082614828565b50606082015160038201906119929082614828565b50608082015160048201906119a79082614828565b5060a08201516005909101805460c084015160e0909401511515620100000262ff0000199415156101000261ff00199415159490941661ffff19909216919091179290921792909216179055505b6001600160a01b0386811660009081526002602081815260409283902085518155908501516001820180546001600160a01b031916919095161790935590830151839291820190611a469082614828565b5060608201516003820190611a5b9082614828565b506080820151600482015560a0820151600582015560c08201516006909101805460e09093015115156101000261ff00199215159290921661ffff1990931692909217179055600f8054906000611ab18361479e565b9190505550505050505050565b600e54611ac9613b32565b8181526001600160a01b0386166020820152604081018590526060810184905260808101839052600060c0820152611b0086612620565b15611bd2576000611b108761131b565b600160c0820181905260a084018190526001600160a01b03898116600090815260026020818152604092839020865181559086015194810180546001600160a01b0319169590941694909417909255830151929350839290820190611b759082614828565b5060608201516003820190611b8a9082614828565b506080820151600482015560a0820151600582015560c08201516006909101805460e09093015115156101000261ff00199215159290921661ffff1990931692909217179055505b6001600160a01b03868116600090815260016020818152604092839020855181559085015191810180546001600160a01b03191692909416919091179092558201518291906002820190611c269082614828565b5060608201516003820190611c3b9082614828565b5060808201516004820190611c509082614828565b5060a08201516005909101805460c084015160e0909401511515620100000262ff0000199415156101000261ff00199415159490941661ffff19909216919091179290921792909216179055600e8054906000611ab18361479e565b60008060038481548110611cc257611cc2614788565b90600052602060002090600702016040518060e0016040529081600082015481526020016001820160009054906101000a90046001600160a01b03166001600160a01b03166001600160a01b03168152602001600282018054611d249061474e565b80601f0160208091040260200160405190810160405280929190818152602001828054611d509061474e565b8015611d9d5780601f10611d7257610100808354040283529160200191611d9d565b820191906000526020600020905b815481529060010190602001808311611d8057829003601f168201915b50505091835250506003820154602082015260048201546040820152600580830154606083015260069092015460ff16151560809091015260a08201519192506000908590600a90611df0908590614724565b611dfa91906147b7565b611e0491906147b7565b9695505050505050565b600260208190526000918252604090912080546001820154928201805491936001600160a01b03169291610cac9061474e565b601054600090611e4f613b86565b8181526001600160a01b0389166020820152604081018890526060810187905260808101869052601654611e839085614724565b60a08201526003805460018101825560009190915281517fc2575a0e9e593c00f959f8c92f12db2869c3395a3b0502d05e2516446f71f85b600790920291820190815560208301517fc2575a0e9e593c00f959f8c92f12db2869c3395a3b0502d05e2516446f71f85c830180546001600160a01b0319166001600160a01b03909216919091179055604083015183927fc2575a0e9e593c00f959f8c92f12db2869c3395a3b0502d05e2516446f71f85d0190611f3f9082614828565b50606082015160038201556080820151600482015560a0820151600582015560c0909101516006909101805460ff191691151591909117905580516001600160a01b038a166000908152600a6020908152604080832093909355600890529081205490611fad82600161473b565b6001600160a01b038c1660009081526008602052604081208290559091505b898110156120b25760115460408051608081018252600060208201818152606093830184905292820152828152865190915289518a908490811061201257612012614788565b602090810291909101810151604080840191825288516000908152600480855291812080546001818101835591835291859020865192909302909201908155928401519083015551829190600282019061206c9082614828565b50606091909101516003909101805460ff1916911515919091179055601180549060006120988361479e565b9190505550505080806120aa9061479e565b915050611fcc565b50601080549060006120c38361479e565b909155505091519a9950505050505050505050565b600560205281600052604060002081815481106120f457600080fd5b6000918252602090912060049091020180546001820154600283015460039093015491945092506001600160a01b0381169060ff600160a01b8204811691600160a81b90041686565b60006003838154811061215257612152614788565b90600052602060002090600702016040518060e0016040529081600082015481526020016001820160009054906101000a90046001600160a01b03166001600160a01b03166001600160a01b031681526020016002820180546121b49061474e565b80601f01602080910402602001604051908101604052809291908181526020018280546121e09061474e565b801561222d5780601f106122025761010080835404028352916020019161222d565b820191906000526020600020905b81548152906001019060200180831161221057829003601f168201915b505050918352505060038201546020820152600482015460408201526005820154606082015260069091015460ff1615156080909101529050600061227184610ec2565b60155460405163a9059cbb60e01b81526001600160a01b0386811660048301526024820184905292935091169063a9059cbb906044016020604051808303816000875af11580156122c6573d6000803e3d6000fd5b505050506040513d601f19601f820116820180604052508101906122ea91906148e7565b5060006122fb858460800151611cac565b60155460005460405163a9059cbb60e01b81526001600160a01b03918216600482015260248101849052929350169063a9059cbb906044016020604051808303816000875af1158015612352573d6000803e3d6000fd5b505050506040513d601f19601f8201168201806040525081019061237691906148e7565b5061237f613c63565b601380548252602082018781526001600160a01b038781166040850190815260608501878152600d8054600181018255600091825287517fd7b6990105719101dabeb77144f2a3385c8033acd3af97e9423a695e81ad1eb560059092029182015594517fd7b6990105719101dabeb77144f2a3385c8033acd3af97e9423a695e81ad1eb686015591517fd7b6990105719101dabeb77144f2a3385c8033acd3af97e9423a695e81ad1eb7850180546001600160a01b031916919094161790925590517fd7b6990105719101dabeb77144f2a3385c8033acd3af97e9423a695e81ad1eb883015560808401517fd7b6990105719101dabeb77144f2a3385c8033acd3af97e9423a695e81ad1eb9909201805460ff191692151592909217909155815491906124ab8361479e565b909155505060008681526007602090815260408083206001600160a01b03891684529091529020805460ff191660011790556124e5613c63565b60138054825260208201888152600080546001600160a01b039081166040860190815260608601888152600d805460018101825590855287517fd7b6990105719101dabeb77144f2a3385c8033acd3af97e9423a695e81ad1eb560059092029182015594517fd7b6990105719101dabeb77144f2a3385c8033acd3af97e9423a695e81ad1eb686015590517fd7b6990105719101dabeb77144f2a3385c8033acd3af97e9423a695e81ad1eb7850180546001600160a01b0319169190931617909155517fd7b6990105719101dabeb77144f2a3385c8033acd3af97e9423a695e81ad1eb883015560808401517fd7b6990105719101dabeb77144f2a3385c8033acd3af97e9423a695e81ad1eb9909201805460ff191692151592909217909155815491906126128361479e565b919050555050505050505050565b6001600160a01b038082166000818152600260205260408120600101549092161461264c57600061080e565b600192915050565b6001600160a01b03808216600090815260016020818152604080842081516101008101835281548152938101549095169183019190915260028401805493949293918401916126a29061474e565b80601f01602080910402602001604051908101604052809291908181526020018280546126ce9061474e565b801561271b5780601f106126f05761010080835404028352916020019161271b565b820191906000526020600020905b8154815290600101906020018083116126fe57829003601f168201915b505050505081526020016003820180546127349061474e565b80601f01602080910402602001604051908101604052809291908181526020018280546127609061474e565b80156127ad5780601f10612782576101008083540402835291602001916127ad565b820191906000526020600020905b81548152906001019060200180831161279057829003601f168201915b505050505081526020016004820180546127c69061474e565b80601f01602080910402602001604051908101604052809291908181526020018280546127f29061474e565b801561283f5780601f106128145761010080835404028352916020019161283f565b820191906000526020600020905b81548152906001019060200180831161282257829003601f168201915b50505091835250506005919091015460ff8082161515602080850191909152610100830482161515604080860191909152620100009093049091161515606090930192909252600160c084018190526001600160a01b038681166000908152828552839020855181559385015191840180546001600160a01b03191692909116919091179055820151919250829160028201906128dc9082614828565b50606082015160038201906128f19082614828565b50608082015160048201906129069082614828565b5060a08201516005909101805460c084015160e0909401511515620100000262ff0000199415156101000261ff00199415159490941661ffff199092169190911792909217929092161790555050565b60606003805480602002602001604051908101604052809291908181526020016000905b82821015612a915760008481526020908190206040805160e081018252600786029092018054835260018101546001600160a01b031693830193909352600283018054929392918401916129cd9061474e565b80601f01602080910402602001604051908101604052809291908181526020018280546129f99061474e565b8015612a465780601f10612a1b57610100808354040283529160200191612a46565b820191906000526020600020905b815481529060010190602001808311612a2957829003601f168201915b50505091835250506003820154602080830191909152600483015460408301526005830154606083015260069092015460ff161515608090910152908252600192909201910161297a565b50505050905090565b600d8181548110612aaa57600080fd5b60009182526020909120600590910201805460018201546002830154600384015460049094015492945090926001600160a01b039091169160ff1685565b600c8181548110612aaa57600080fd5b6060600b6000838152602001908152602001600020805480602002602001604051908101604052809291908181526020016000905b82821015612cdd5760008481526020908190206040805161010081018252600786029092018054835260018101546001600160a01b03169383019390935260028301805492939291840191612b819061474e565b80601f0160208091040260200160405190810160405280929190818152602001828054612bad9061474e565b8015612bfa5780601f10612bcf57610100808354040283529160200191612bfa565b820191906000526020600020905b815481529060010190602001808311612bdd57829003601f168201915b50505050508152602001600382018054612c139061474e565b80601f0160208091040260200160405190810160405280929190818152602001828054612c3f9061474e565b8015612c8c5780601f10612c6157610100808354040283529160200191612c8c565b820191906000526020600020905b815481529060010190602001808311612c6f57829003601f168201915b505050918352505060048201546020808301919091526005830154604083015260069092015460ff808216151560608401526101009091041615156080909101529082526001929092019101612b2d565b505050509050919050565b6001600160a01b038082166000818152600160208190526040822001549092161461264c57600061080e565b6000612d208585610784565b6014546040805160a08101825260006080820181815284835260208084018a81526001600160a01b038a8116868801818152606088018b8152600c805460018101825590895289517fdf6966c971051c3d54ec59162606531493a51404a002842f56009d7e5cf4a8c760059092029182015594517fdf6966c971051c3d54ec59162606531493a51404a002842f56009d7e5cf4a8c886015590517fdf6966c971051c3d54ec59162606531493a51404a002842f56009d7e5cf4a8c9850180546001600160a01b031916919094161790925590517fdf6966c971051c3d54ec59162606531493a51404a002842f56009d7e5cf4a8ca83015592517fdf6966c971051c3d54ec59162606531493a51404a002842f56009d7e5cf4a8cb909101805460ff19169115159190911790559082526009905291909120549293509091612e67848261473b565b6001600160a01b03861660009081526009602052604081208290556014805492935090612e938361479e565b91905055505050505050505050565b612eaa613b86565b60038281548110612ebd57612ebd614788565b90600052602060002090600702016040518060e0016040529081600082015481526020016001820160009054906101000a90046001600160a01b03166001600160a01b03166001600160a01b03168152602001600282018054612f1f9061474e565b80601f0160208091040260200160405190810160405280929190818152602001828054612f4b9061474e565b8015612f985780601f10612f6d57610100808354040283529160200191612f98565b820191906000526020600020905b815481529060010190602001808311612f7b57829003601f168201915b505050918352505060038201546020820152600482015460408201526005820154606082015260069091015460ff16151560809091015292915050565b6001600160a01b03808316600090815260026020818152604080842081516101008101835281548152600182015490961692860192909252918101805493949391928401916130239061474e565b80601f016020809104026020016040519081016040528092919081815260200182805461304f9061474e565b801561309c5780601f106130715761010080835404028352916020019161309c565b820191906000526020600020905b81548152906001019060200180831161307f57829003601f168201915b505050505081526020016003820180546130b59061474e565b80601f01602080910402602001604051908101604052809291908181526020018280546130e19061474e565b801561312e5780601f106131035761010080835404028352916020019161312e565b820191906000526020600020905b81548152906001019060200180831161311157829003601f168201915b5050509183525050600482015460208201526005820154604082015260069091015460ff80821615156060840152610100909104161515608090910152600380549192506000918690811061318557613185614788565b90600052602060002090600702016040518060e0016040529081600082015481526020016001820160009054906101000a90046001600160a01b03166001600160a01b03166001600160a01b031681526020016002820180546131e79061474e565b80601f01602080910402602001604051908101604052809291908181526020018280546132139061474e565b80156132605780601f1061323557610100808354040283529160200191613260565b820191906000526020600020905b81548152906001019060200180831161324357829003601f168201915b50505091835250506003820154602082015260048201546040820152600582015460608083019190915260069092015460ff16151560809091015281015190915060005b818110156133b3576132b4613bce565b60125480825260208201839052604082018990526001600160a01b038816606083015286518790849081106132eb576132eb614788565b60209081029190910181015115156080840190815260008b8152600583526040808220805460018181018355918452858420885160049092020190815594870151908501558501516002840155606085015160039093018054925160a08701511515600160a81b0260ff60a81b19911515600160a01b026001600160a81b03199095166001600160a01b0390961695909517939093179290921692909217905560128054916133998361479e565b9190505550505080806133ab9061479e565b9150506132a4565b5060008681526006602090815260408083206001600160a01b03891684528252808320805460ff19166001179055888352600b90915290206133f48661131b565b815460018082018455600093845260209384902083516007909302019182559282015192810180546001600160a01b0319166001600160a01b03909416939093179092556040810151909190600282019061344f9082614828565b50606082015160038201906134649082614828565b506080820151600482015560a080830151600583015560c08301516006909201805460e09094015115156101000261ff00199315159390931661ffff19909416939093179190911790915583018051600191906134c290839061473b565b9052506001600160a01b0385811660009081526002602081815260409283902087518155908701516001820180546001600160a01b0319169190951617909355908501518592918201906135169082614828565b506060820151600382019061352b9082614828565b506080820151600482015560a0820151600582015560c08201516006909101805460e09093015115156101000261ff00199215159290921661ffff1990931692909217179055505050505050565b606060056000838152602001908152602001600020805480602002602001604051908101604052809291908181526020016000905b82821015612cdd5760008481526020908190206040805160c081018252600486029092018054835260018082015484860152600282015492840192909252600301546001600160a01b038116606084015260ff600160a01b8204811615156080850152600160a81b90910416151560a083015290835290920191016135ae565b606060046000838152602001908152602001600020805480602002602001604051908101604052809291908181526020016000905b82821015612cdd578382906000526020600020906004020160405180608001604052908160008201548152602001600182015481526020016002820180546136aa9061474e565b80601f01602080910402602001604051908101604052809291908181526020018280546136d69061474e565b80156137235780601f106136f857610100808354040283529160200191613723565b820191906000526020600020905b81548152906001019060200180831161370657829003601f168201915b50505091835250506003919091015460ff1615156020918201529082526001929092019101613663565b606060046000838152602001908152602001600020805480602002602001604051908101604052809291908181526020016000905b82821015612cdd578382906000526020600020906004020160405180608001604052908160008201548152602001600182015481526020016002820180546137c99061474e565b80601f01602080910402602001604051908101604052809291908181526020018280546137f59061474e565b80156138425780601f1061381757610100808354040283529160200191613842565b820191906000526020600020905b81548152906001019060200180831161382557829003601f168201915b50505091835250506003919091015460ff1615156020918201529082526001929092019101613782565b60016020819052600091825260409091208054918101546002820180546001600160a01b03909216929161389f9061474e565b80601f01602080910402602001604051908101604052809291908181526020018280546138cb9061474e565b80156139185780601f106138ed57610100808354040283529160200191613918565b820191906000526020600020905b8154815290600101906020018083116138fb57829003601f168201915b50505050509080600301805461392d9061474e565b80601f01602080910402602001604051908101604052809291908181526020018280546139599061474e565b80156139a65780601f1061397b576101008083540402835291602001916139a6565b820191906000526020600020905b81548152906001019060200180831161398957829003601f168201915b5050505050908060040180546139bb9061474e565b80601f01602080910402602001604051908101604052809291908181526020018280546139e79061474e565b8015613a345780601f10613a0957610100808354040283529160200191613a34565b820191906000526020600020905b815481529060010190602001808311613a1757829003601f168201915b5050506005909301549192505060ff808216916101008104821691620100009091041688565b60046020528160005260406000208181548110613a7657600080fd5b906000526020600020906004020160009150915050806000015490806001015490806002018054613aa69061474e565b80601f0160208091040260200160405190810160405280929190818152602001828054613ad29061474e565b8015613b1f5780601f10613af457610100808354040283529160200191613b1f565b820191906000526020600020905b815481529060010190602001808311613b0257829003601f168201915b5050506003909301549192505060ff1684565b6040518061010001604052806000815260200160006001600160a01b031681526020016060815260200160608152602001606081526020016000151581526020016000151581526020016000151581525090565b6040518060e001604052806000815260200160006001600160a01b03168152602001606081526020016000815260200160008152602001600081526020016000151581525090565b6040518060c0016040528060008152602001600081526020016000815260200160006001600160a01b031681526020016000151581526020016000151581525090565b6040518061010001604052806000815260200160006001600160a01b03168152602001606081526020016060815260200160008152602001600081526020016000151581526020016000151581525090565b6040518060a00160405280600081526020016000815260200160006001600160a01b03168152602001600081526020016000151581525090565b60008060408385031215613cb057600080fd5b50508035926020909101359150565b80356001600160a01b0381168114613cd657600080fd5b919050565b600060208284031215613ced57600080fd5b613cf682613cbf565b9392505050565b6000815180845260005b81811015613d2357602081850181015186830182015201613d07565b506000602082860101526020601f19601f83011685010191505092915050565b602081528151602082015260006020830151613d6a60408401826001600160a01b03169052565b506040830151610100806060850152613d87610120850183613cfd565b91506060850151601f1980868503016080870152613da58483613cfd565b935060808701519150808685030160a087015250613dc38382613cfd565b92505060a0850151613dd960c086018215159052565b5060c085015180151560e08601525060e085015180151585830152610c4f565b8051825260018060a01b0360208201511660208301526000604082015160e06040850152613e2a60e0850182613cfd565b9050606083015160608501526080830151608085015260a083015160a085015260c0830151151560c08501528091505092915050565b6000602080830181845280855180835260408601915060408160051b870101925083870160005b82811015613eb557603f19888603018452613ea3858351613df9565b94509285019290850190600101613e87565b5092979650505050505050565b8881526001600160a01b038816602082015261010060408201819052600090613eed8382018a613cfd565b90508281036060840152613f018189613cfd565b6080840197909752505060a081019390935290151560c0830152151560e090910152949350505050565b600060208284031215613f3d57600080fd5b5035919050565b8781526001600160a01b038716602082015260e060408201819052600090613f6e90830188613cfd565b90508560608301528460808301528360a083015282151560c083015298975050505050505050565b60008060408385031215613fa957600080fd5b82359150613fb960208401613cbf565b90509250929050565b602080825282518282018190526000919060409081850190868401855b8281101561403a57815180518552868101518786015285810151868601526060808201516001600160a01b03169086015260808082015115159086015260a09081015115159085015260c09093019290850190600101613fdf565b5091979650505050505050565b60006101008251845260018060a01b036020840151166020850152604083015181604086015261407982860182613cfd565b915050606083015184820360608601526140938282613cfd565b9150506080830151608085015260a083015160a085015260c0830151151560c085015260e08301516140c960e086018215159052565b509392505050565b602081526000613cf66020830184614047565b602080825282518282018190526000919060409081850190868401855b8281101561403a578151805185528681015187860152858101516001600160a01b0316868601526060808201519086015260809081015115159085015260a09093019290850190600101614101565b634e487b7160e01b600052604160045260246000fd5b604051601f8201601f191681016001600160401b038111828210171561418e5761418e614150565b604052919050565b600082601f8301126141a757600080fd5b81356001600160401b038111156141c0576141c0614150565b6141d3601f8201601f1916602001614166565b8181528460208386010111156141e857600080fd5b816020850160208301376000918101602001919091529392505050565b6000806000806080858703121561421b57600080fd5b61422485613cbf565b935060208501356001600160401b038082111561424057600080fd5b61424c88838901614196565b9450604087013591508082111561426257600080fd5b5061426f87828801614196565b949793965093946060013593505050565b6000806000806080858703121561429657600080fd5b61429f85613cbf565b935060208501356001600160401b03808211156142bb57600080fd5b6142c788838901614196565b945060408701359150808211156142dd57600080fd5b6142e988838901614196565b935060608701359150808211156142ff57600080fd5b5061430c87828801614196565b91505092959194509250565b60006001600160401b0382111561433157614331614150565b5060051b60200190565b60008060008060008060c0878903121561435457600080fd5b61435d87613cbf565b95506020808801356001600160401b038082111561437a57600080fd5b6143868b838c01614196565b975060408a0135965060608a0135955060808a01359150808211156143aa57600080fd5b818a0191508a601f8301126143be57600080fd5b81356143d16143cc82614318565b614166565b81815260059190911b8301840190848101908d8311156143f057600080fd5b8585015b8381101561442657848135111561440a57600080fd5b6144198f888335890101614196565b83529186019186016143f4565b5080975050505050505060a087013590509295509295509295565b6000602080830181845280855180835260408601915060408160051b870101925083870160005b82811015613eb557603f19888603018452614484858351614047565b94509285019290850190600101614468565b600080604083850312156144a957600080fd5b6144b283613cbf565b946020939093013593505050565b600080600080608085870312156144d657600080fd5b8435935060208501359250604085013591506144f460608601613cbf565b905092959194509250565b602081526000613cf66020830184613df9565b801515811461452057600080fd5b50565b60008060006060848603121561453857600080fd5b833592506020614549818601613cbf565b925060408501356001600160401b0381111561456457600080fd5b8501601f8101871361457557600080fd5b80356145836143cc82614318565b81815260059190911b820183019083810190898311156145a257600080fd5b928401925b828410156145c95783356145ba81614512565b825292840192908401906145a7565b80955050505050509250925092565b60006020808301818452808551808352604092508286019150828160051b87010184880160005b8381101561465857603f198984030185528151608081518552888201518986015287820151818987015261463582870182613cfd565b6060938401511515969093019590955250948701949250908601906001016145ff565b509098975050505050505050565b8881526001600160a01b0388166020820152610100604082018190526000906146918382018a613cfd565b905082810360608401526146a58189613cfd565b905082810360808401526146b98188613cfd565b95151560a0840152505091151560c0830152151560e09091015295945050505050565b8481528360208201526080604082015260006146fb6080830185613cfd565b9050821515606083015295945050505050565b634e487b7160e01b600052601160045260246000fd5b808202811582820484141761080e5761080e61470e565b8082018082111561080e5761080e61470e565b600181811c9082168061476257607f821691505b60208210810361478257634e487b7160e01b600052602260045260246000fd5b50919050565b634e487b7160e01b600052603260045260246000fd5b6000600182016147b0576147b061470e565b5060010190565b6000826147d457634e487b7160e01b600052601260045260246000fd5b500490565b601f82111561482357600081815260208120601f850160051c810160208610156148005750805b601f850160051c820191505b8181101561481f5782815560010161480c565b5050505b505050565b81516001600160401b0381111561484157614841614150565b6148558161484f845461474e565b846147d9565b602080601f83116001811461488a57600084156148725750858301515b600019600386901b1c1916600185901b17855561481f565b600085815260208120601f198616915b828110156148b95788860151825594840194600190910190840161489a565b50858210156148d75787850151600019600388901b60f8161c191681555b5050505050600190811b01905550565b6000602082840312156148f957600080fd5b815161080b8161451256fea2646970667358221220d48bcf8c5c9ee0e0c5240946b3d587f0eb1dd275216d3595e26bf67ff30085b464736f6c63430008130033",
					"opcodes": "PUSH1 0x80 PUSH1 0x40 DUP2 SWAP1 MSTORE PUSH1 0x0 DUP1 SLOAD PUSH20 0xECE897A85688F2E83A73FED36B9D1A6EFCC99E93 PUSH1 0x1 PUSH1 0x1 PUSH1 0xA0 SHL SUB NOT SWAP2 DUP3 AND OR SWAP1 SWAP2 SSTORE PUSH1 0x15 DUP1 SLOAD PUSH20 0x874069FA1EB16D44D622F2E0CA25EEA172369BC1 SWAP3 AND DUP3 OR SWAP1 SSTORE PUSH4 0x313CE567 PUSH1 0xE0 SHL DUP3 MSTORE SWAP1 PUSH4 0x313CE567 SWAP1 PUSH1 0x84 SWAP1 PUSH1 0x20 SWAP1 PUSH1 0x4 DUP2 DUP7 GAS STATICCALL ISZERO DUP1 ISZERO PUSH3 0x7D JUMPI RETURNDATASIZE PUSH1 0x0 DUP1 RETURNDATACOPY RETURNDATASIZE PUSH1 0x0 REVERT JUMPDEST POP POP POP POP PUSH1 0x40 MLOAD RETURNDATASIZE PUSH1 0x1F NOT PUSH1 0x1F DUP3 ADD AND DUP3 ADD DUP1 PUSH1 0x40 MSTORE POP DUP2 ADD SWAP1 PUSH3 0xA3 SWAP2 SWAP1 PUSH3 0xC7 JUMP JUMPDEST PUSH3 0xB0 SWAP1 PUSH1 0xA PUSH3 0x208 JUMP JUMPDEST PUSH1 0x16 SSTORE CALLVALUE DUP1 ISZERO PUSH3 0xC0 JUMPI PUSH1 0x0 DUP1 REVERT JUMPDEST POP PUSH3 0x219 JUMP JUMPDEST PUSH1 0x0 PUSH1 0x20 DUP3 DUP5 SUB SLT ISZERO PUSH3 0xDA JUMPI PUSH1 0x0 DUP1 REVERT JUMPDEST DUP2 MLOAD PUSH1 0xFF DUP2 AND DUP2 EQ PUSH3 0xEC JUMPI PUSH1 0x0 DUP1 REVERT JUMPDEST SWAP4 SWAP3 POP POP POP JUMP JUMPDEST PUSH4 0x4E487B71 PUSH1 0xE0 SHL PUSH1 0x0 MSTORE PUSH1 0x11 PUSH1 0x4 MSTORE PUSH1 0x24 PUSH1 0x0 REVERT JUMPDEST PUSH1 0x1 DUP2 DUP2 JUMPDEST DUP1 DUP6 GT ISZERO PUSH3 0x14A JUMPI DUP2 PUSH1 0x0 NOT DIV DUP3 GT ISZERO PUSH3 0x12E JUMPI PUSH3 0x12E PUSH3 0xF3 JUMP JUMPDEST DUP1 DUP6 AND ISZERO PUSH3 0x13C JUMPI SWAP2 DUP2 MUL SWAP2 JUMPDEST SWAP4 DUP5 SHR SWAP4 SWAP1 DUP1 MUL SWAP1 PUSH3 0x10E JUMP JUMPDEST POP SWAP3 POP SWAP3 SWAP1 POP JUMP JUMPDEST PUSH1 0x0 DUP3 PUSH3 0x163 JUMPI POP PUSH1 0x1 PUSH3 0x202 JUMP JUMPDEST DUP2 PUSH3 0x172 JUMPI POP PUSH1 0x0 PUSH3 0x202 JUMP JUMPDEST DUP2 PUSH1 0x1 DUP2 EQ PUSH3 0x18B JUMPI PUSH1 0x2 DUP2 EQ PUSH3 0x196 JUMPI PUSH3 0x1B6 JUMP JUMPDEST PUSH1 0x1 SWAP2 POP POP PUSH3 0x202 JUMP JUMPDEST PUSH1 0xFF DUP5 GT ISZERO PUSH3 0x1AA JUMPI PUSH3 0x1AA PUSH3 0xF3 JUMP JUMPDEST POP POP PUSH1 0x1 DUP3 SHL PUSH3 0x202 JUMP JUMPDEST POP PUSH1 0x20 DUP4 LT PUSH2 0x133 DUP4 LT AND PUSH1 0x4E DUP5 LT PUSH1 0xB DUP5 LT AND OR ISZERO PUSH3 0x1DB JUMPI POP DUP2 DUP2 EXP PUSH3 0x202 JUMP JUMPDEST PUSH3 0x1E7 DUP4 DUP4 PUSH3 0x109 JUMP JUMPDEST DUP1 PUSH1 0x0 NOT DIV DUP3 GT ISZERO PUSH3 0x1FE JUMPI PUSH3 0x1FE PUSH3 0xF3 JUMP JUMPDEST MUL SWAP1 POP JUMPDEST SWAP3 SWAP2 POP POP JUMP JUMPDEST PUSH1 0x0 PUSH3 0xEC PUSH1 0xFF DUP5 AND DUP4 PUSH3 0x152 JUMP JUMPDEST PUSH2 0x493A DUP1 PUSH3 0x229 PUSH1 0x0 CODECOPY PUSH1 0x0 RETURN INVALID PUSH1 0x80 PUSH1 0x40 MSTORE CALLVALUE DUP1 ISZERO PUSH2 0x10 JUMPI PUSH1 0x0 DUP1 REVERT JUMPDEST POP PUSH1 0x4 CALLDATASIZE LT PUSH2 0x25E JUMPI PUSH1 0x0 CALLDATALOAD PUSH1 0xE0 SHR DUP1 PUSH4 0x6B8AC0E7 GT PUSH2 0x146 JUMPI DUP1 PUSH4 0xA58543FE GT PUSH2 0xC3 JUMPI DUP1 PUSH4 0xCC4903CA GT PUSH2 0x87 JUMPI DUP1 PUSH4 0xCC4903CA EQ PUSH2 0x6D4 JUMPI DUP1 PUSH4 0xD7E93794 EQ PUSH2 0x6E7 JUMPI DUP1 PUSH4 0xD8CB6290 EQ PUSH2 0x707 JUMPI DUP1 PUSH4 0xF31E72E4 EQ PUSH2 0x727 JUMPI DUP1 PUSH4 0xF692A3BB EQ PUSH2 0x73A JUMPI DUP1 PUSH4 0xFB47E9E6 EQ PUSH2 0x761 JUMPI PUSH1 0x0 DUP1 REVERT JUMPDEST DUP1 PUSH4 0xA58543FE EQ PUSH2 0x628 JUMPI DUP1 PUSH4 0xB3265ECD EQ PUSH2 0x660 JUMPI DUP1 PUSH4 0xB9C745B3 EQ PUSH2 0x673 JUMPI DUP1 PUSH4 0xC0AC4AE4 EQ PUSH2 0x6A1 JUMPI DUP1 PUSH4 0xCA2E7F9B EQ PUSH2 0x6C1 JUMPI PUSH1 0x0 DUP1 REVERT JUMPDEST DUP1 PUSH4 0x7E950819 GT PUSH2 0x10A JUMPI DUP1 PUSH4 0x7E950819 EQ PUSH2 0x569 JUMPI DUP1 PUSH4 0x8E6DA619 EQ PUSH2 0x597 JUMPI DUP1 PUSH4 0x95ECEA1F EQ PUSH2 0x5E2 JUMPI DUP1 PUSH4 0x964F6566 EQ PUSH2 0x5F5 JUMPI DUP1 PUSH4 0x9A23218F EQ PUSH2 0x615 JUMPI PUSH1 0x0 DUP1 REVERT JUMPDEST DUP1 PUSH4 0x6B8AC0E7 EQ PUSH2 0x4EF JUMPI DUP1 PUSH4 0x6F5FDE11 EQ PUSH2 0x502 JUMPI DUP1 PUSH4 0x73FD653D EQ PUSH2 0x525 JUMPI DUP1 PUSH4 0x79252D97 EQ PUSH2 0x538 JUMPI DUP1 PUSH4 0x7A1BC375 EQ PUSH2 0x561 JUMPI PUSH1 0x0 DUP1 REVERT JUMPDEST DUP1 PUSH4 0x392A5822 GT PUSH2 0x1DF JUMPI DUP1 PUSH4 0x4FE1CFAD GT PUSH2 0x1A3 JUMPI DUP1 PUSH4 0x4FE1CFAD EQ PUSH2 0x413 JUMPI DUP1 PUSH4 0x5822BFF1 EQ PUSH2 0x43C JUMPI DUP1 PUSH4 0x5B76074E EQ PUSH2 0x45C JUMPI DUP1 PUSH4 0x5FA7A90A EQ PUSH2 0x46F JUMPI DUP1 PUSH4 0x68DF3299 EQ PUSH2 0x48F JUMPI DUP1 PUSH4 0x69BFF3FB EQ PUSH2 0x4A2 JUMPI PUSH1 0x0 DUP1 REVERT JUMPDEST DUP1 PUSH4 0x392A5822 EQ PUSH2 0x3A5 JUMPI DUP1 PUSH4 0x3ABB615A EQ PUSH2 0x3C5 JUMPI DUP1 PUSH4 0x3B43B7D0 EQ PUSH2 0x3D8 JUMPI DUP1 PUSH4 0x40CA213D EQ PUSH2 0x3ED JUMPI DUP1 PUSH4 0x44962609 EQ PUSH2 0x400 JUMPI PUSH1 0x0 DUP1 REVERT JUMPDEST DUP1 PUSH4 0x1BD1EBC4 GT PUSH2 0x226 JUMPI DUP1 PUSH4 0x1BD1EBC4 EQ PUSH2 0x316 JUMPI DUP1 PUSH4 0x2076A35A EQ PUSH2 0x329 JUMPI DUP1 PUSH4 0x2394E5DC EQ PUSH2 0x349 JUMPI DUP1 PUSH4 0x25F18424 EQ PUSH2 0x369 JUMPI DUP1 PUSH4 0x3882DB7D EQ PUSH2 0x37C JUMPI PUSH1 0x0 DUP1 REVERT JUMPDEST DUP1 PUSH4 0x3F16747 EQ PUSH2 0x263 JUMPI DUP1 PUSH4 0x478318B EQ PUSH2 0x289 JUMPI DUP1 PUSH4 0x7F6646E EQ PUSH2 0x2A9 JUMPI DUP1 PUSH4 0x125BB83D EQ PUSH2 0x2C9 JUMPI DUP1 PUSH4 0x1B6F2485 EQ PUSH2 0x2F0 JUMPI JUMPDEST PUSH1 0x0 DUP1 REVERT JUMPDEST PUSH2 0x276 PUSH2 0x271 CALLDATASIZE PUSH1 0x4 PUSH2 0x3C9D JUMP JUMPDEST PUSH2 0x784 JUMP JUMPDEST PUSH1 0x40 MLOAD SWAP1 DUP2 MSTORE PUSH1 0x20 ADD JUMPDEST PUSH1 0x40 MLOAD DUP1 SWAP2 SUB SWAP1 RETURN JUMPDEST PUSH2 0x29C PUSH2 0x297 CALLDATASIZE PUSH1 0x4 PUSH2 0x3CDB JUMP JUMPDEST PUSH2 0x814 JUMP JUMPDEST PUSH1 0x40 MLOAD PUSH2 0x280 SWAP2 SWAP1 PUSH2 0x3D43 JUMP JUMPDEST PUSH2 0x2BC PUSH2 0x2B7 CALLDATASIZE PUSH1 0x4 PUSH2 0x3CDB JUMP JUMPDEST PUSH2 0xA42 JUMP JUMPDEST PUSH1 0x40 MLOAD PUSH2 0x280 SWAP2 SWAP1 PUSH2 0x3E60 JUMP JUMPDEST PUSH2 0x2DC PUSH2 0x2D7 CALLDATASIZE PUSH1 0x4 PUSH2 0x3C9D JUMP JUMPDEST PUSH2 0xC59 JUMP JUMPDEST PUSH1 0x40 MLOAD PUSH2 0x280 SWAP9 SWAP8 SWAP7 SWAP6 SWAP5 SWAP4 SWAP3 SWAP2 SWAP1 PUSH2 0x3EC2 JUMP JUMPDEST PUSH2 0x303 PUSH2 0x2FE CALLDATASIZE PUSH1 0x4 PUSH2 0x3F2B JUMP JUMPDEST PUSH2 0xDDD JUMP JUMPDEST PUSH1 0x40 MLOAD PUSH2 0x280 SWAP8 SWAP7 SWAP6 SWAP5 SWAP4 SWAP3 SWAP2 SWAP1 PUSH2 0x3F44 JUMP JUMPDEST PUSH2 0x276 PUSH2 0x324 CALLDATASIZE PUSH1 0x4 PUSH2 0x3F2B JUMP JUMPDEST PUSH2 0xEC2 JUMP JUMPDEST PUSH2 0x33C PUSH2 0x337 CALLDATASIZE PUSH1 0x4 PUSH2 0x3F96 JUMP JUMPDEST PUSH2 0x102D JUMP JUMPDEST PUSH1 0x40 MLOAD PUSH2 0x280 SWAP2 SWAP1 PUSH2 0x3FC2 JUMP JUMPDEST PUSH2 0x35C PUSH2 0x357 CALLDATASIZE PUSH1 0x4 PUSH2 0x3CDB JUMP JUMPDEST PUSH2 0x131B JUMP JUMPDEST PUSH1 0x40 MLOAD PUSH2 0x280 SWAP2 SWAP1 PUSH2 0x40D1 JUMP JUMPDEST PUSH2 0x276 PUSH2 0x377 CALLDATASIZE PUSH1 0x4 PUSH2 0x3CDB JUMP JUMPDEST PUSH2 0x14BD JUMP JUMPDEST PUSH2 0x276 PUSH2 0x38A CALLDATASIZE PUSH1 0x4 PUSH2 0x3CDB JUMP JUMPDEST PUSH1 0x1 PUSH1 0x1 PUSH1 0xA0 SHL SUB AND PUSH1 0x0 SWAP1 DUP2 MSTORE PUSH1 0xA PUSH1 0x20 MSTORE PUSH1 0x40 SWAP1 KECCAK256 SLOAD SWAP1 JUMP JUMPDEST PUSH2 0x3B8 PUSH2 0x3B3 CALLDATASIZE PUSH1 0x4 PUSH2 0x3CDB JUMP JUMPDEST PUSH2 0x1588 JUMP JUMPDEST PUSH1 0x40 MLOAD PUSH2 0x280 SWAP2 SWAP1 PUSH2 0x40E4 JUMP JUMPDEST PUSH2 0x2BC PUSH2 0x3D3 CALLDATASIZE PUSH1 0x4 PUSH2 0x3CDB JUMP JUMPDEST PUSH2 0x16D3 JUMP JUMPDEST PUSH2 0x3EB PUSH2 0x3E6 CALLDATASIZE PUSH1 0x4 PUSH2 0x4205 JUMP JUMPDEST PUSH2 0x18CE JUMP JUMPDEST STOP JUMPDEST PUSH2 0x3EB PUSH2 0x3FB CALLDATASIZE PUSH1 0x4 PUSH2 0x4280 JUMP JUMPDEST PUSH2 0x1ABE JUMP JUMPDEST PUSH2 0x276 PUSH2 0x40E CALLDATASIZE PUSH1 0x4 PUSH2 0x3C9D JUMP JUMPDEST PUSH2 0x1CAC JUMP JUMPDEST PUSH2 0x276 PUSH2 0x421 CALLDATASIZE PUSH1 0x4 PUSH2 0x3CDB JUMP JUMPDEST PUSH1 0x1 PUSH1 0x1 PUSH1 0xA0 SHL SUB AND PUSH1 0x0 SWAP1 DUP2 MSTORE PUSH1 0x8 PUSH1 0x20 MSTORE PUSH1 0x40 SWAP1 KECCAK256 SLOAD SWAP1 JUMP JUMPDEST PUSH2 0x276 PUSH2 0x44A CALLDATASIZE PUSH1 0x4 PUSH2 0x3CDB JUMP JUMPDEST PUSH1 0x8 PUSH1 0x20 MSTORE PUSH1 0x0 SWAP1 DUP2 MSTORE PUSH1 0x40 SWAP1 KECCAK256 SLOAD DUP2 JUMP JUMPDEST PUSH2 0x2DC PUSH2 0x46A CALLDATASIZE PUSH1 0x4 PUSH2 0x3CDB JUMP JUMPDEST PUSH2 0x1E0E JUMP JUMPDEST PUSH2 0x276 PUSH2 0x47D CALLDATASIZE PUSH1 0x4 PUSH2 0x3CDB JUMP JUMPDEST PUSH1 0x9 PUSH1 0x20 MSTORE PUSH1 0x0 SWAP1 DUP2 MSTORE PUSH1 0x40 SWAP1 KECCAK256 SLOAD DUP2 JUMP JUMPDEST PUSH2 0x276 PUSH2 0x49D CALLDATASIZE PUSH1 0x4 PUSH2 0x433B JUMP JUMPDEST PUSH2 0x1E41 JUMP JUMPDEST PUSH2 0x4B5 PUSH2 0x4B0 CALLDATASIZE PUSH1 0x4 PUSH2 0x3C9D JUMP JUMPDEST PUSH2 0x20D8 JUMP JUMPDEST PUSH1 0x40 DUP1 MLOAD SWAP7 DUP8 MSTORE PUSH1 0x20 DUP8 ADD SWAP6 SWAP1 SWAP6 MSTORE SWAP4 DUP6 ADD SWAP3 SWAP1 SWAP3 MSTORE PUSH1 0x1 PUSH1 0x1 PUSH1 0xA0 SHL SUB AND PUSH1 0x60 DUP5 ADD MSTORE ISZERO ISZERO PUSH1 0x80 DUP4 ADD MSTORE ISZERO ISZERO PUSH1 0xA0 DUP3 ADD MSTORE PUSH1 0xC0 ADD PUSH2 0x280 JUMP JUMPDEST PUSH2 0x3EB PUSH2 0x4FD CALLDATASIZE PUSH1 0x4 PUSH2 0x3F96 JUMP JUMPDEST PUSH2 0x213D JUMP JUMPDEST PUSH2 0x515 PUSH2 0x510 CALLDATASIZE PUSH1 0x4 PUSH2 0x3CDB JUMP JUMPDEST PUSH2 0x2620 JUMP JUMPDEST PUSH1 0x40 MLOAD SWAP1 ISZERO ISZERO DUP2 MSTORE PUSH1 0x20 ADD PUSH2 0x280 JUMP JUMPDEST PUSH2 0x3EB PUSH2 0x533 CALLDATASIZE PUSH1 0x4 PUSH2 0x3CDB JUMP JUMPDEST PUSH2 0x2654 JUMP JUMPDEST PUSH2 0x276 PUSH2 0x546 CALLDATASIZE PUSH1 0x4 PUSH2 0x3CDB JUMP JUMPDEST PUSH1 0x1 PUSH1 0x1 PUSH1 0xA0 SHL SUB AND PUSH1 0x0 SWAP1 DUP2 MSTORE PUSH1 0x9 PUSH1 0x20 MSTORE PUSH1 0x40 SWAP1 KECCAK256 SLOAD SWAP1 JUMP JUMPDEST PUSH2 0x2BC PUSH2 0x2956 JUMP JUMPDEST PUSH2 0x515 PUSH2 0x577 CALLDATASIZE PUSH1 0x4 PUSH2 0x3F96 JUMP JUMPDEST PUSH1 0x7 PUSH1 0x20 SWAP1 DUP2 MSTORE PUSH1 0x0 SWAP3 DUP4 MSTORE PUSH1 0x40 DUP1 DUP5 KECCAK256 SWAP1 SWAP2 MSTORE SWAP1 DUP3 MSTORE SWAP1 KECCAK256 SLOAD PUSH1 0xFF AND DUP2 JUMP JUMPDEST PUSH2 0x5AA PUSH2 0x5A5 CALLDATASIZE PUSH1 0x4 PUSH2 0x3F2B JUMP JUMPDEST PUSH2 0x2A9A JUMP JUMPDEST PUSH1 0x40 DUP1 MLOAD SWAP6 DUP7 MSTORE PUSH1 0x20 DUP7 ADD SWAP5 SWAP1 SWAP5 MSTORE PUSH1 0x1 PUSH1 0x1 PUSH1 0xA0 SHL SUB SWAP1 SWAP3 AND SWAP3 DUP5 ADD SWAP3 SWAP1 SWAP3 MSTORE PUSH1 0x60 DUP4 ADD SWAP2 SWAP1 SWAP2 MSTORE ISZERO ISZERO PUSH1 0x80 DUP3 ADD MSTORE PUSH1 0xA0 ADD PUSH2 0x280 JUMP JUMPDEST PUSH2 0x5AA PUSH2 0x5F0 CALLDATASIZE PUSH1 0x4 PUSH2 0x3F2B JUMP JUMPDEST PUSH2 0x2AE8 JUMP JUMPDEST PUSH2 0x608 PUSH2 0x603 CALLDATASIZE PUSH1 0x4 PUSH2 0x3F2B JUMP JUMPDEST PUSH2 0x2AF8 JUMP JUMPDEST PUSH1 0x40 MLOAD PUSH2 0x280 SWAP2 SWAP1 PUSH2 0x4441 JUMP JUMPDEST PUSH2 0x515 PUSH2 0x623 CALLDATASIZE PUSH1 0x4 PUSH2 0x3CDB JUMP JUMPDEST PUSH2 0x2CE8 JUMP JUMPDEST PUSH2 0x515 PUSH2 0x636 CALLDATASIZE PUSH1 0x4 PUSH2 0x4496 JUMP JUMPDEST PUSH1 0x0 SWAP1 DUP2 MSTORE PUSH1 0x6 PUSH1 0x20 SWAP1 DUP2 MSTORE PUSH1 0x40 DUP1 DUP4 KECCAK256 PUSH1 0x1 PUSH1 0x1 PUSH1 0xA0 SHL SUB SWAP5 SWAP1 SWAP5 AND DUP4 MSTORE SWAP3 SWAP1 MSTORE KECCAK256 SLOAD PUSH1 0xFF AND SWAP1 JUMP JUMPDEST PUSH2 0x3EB PUSH2 0x66E CALLDATASIZE PUSH1 0x4 PUSH2 0x44C0 JUMP JUMPDEST PUSH2 0x2D14 JUMP JUMPDEST PUSH2 0x515 PUSH2 0x681 CALLDATASIZE PUSH1 0x4 PUSH2 0x3F96 JUMP JUMPDEST PUSH1 0x6 PUSH1 0x20 SWAP1 DUP2 MSTORE PUSH1 0x0 SWAP3 DUP4 MSTORE PUSH1 0x40 DUP1 DUP5 KECCAK256 SWAP1 SWAP2 MSTORE SWAP1 DUP3 MSTORE SWAP1 KECCAK256 SLOAD PUSH1 0xFF AND DUP2 JUMP JUMPDEST PUSH2 0x6B4 PUSH2 0x6AF CALLDATASIZE PUSH1 0x4 PUSH2 0x3F2B JUMP JUMPDEST PUSH2 0x2EA2 JUMP JUMPDEST PUSH1 0x40 MLOAD PUSH2 0x280 SWAP2 SWAP1 PUSH2 0x44FF JUMP JUMPDEST PUSH2 0x3EB PUSH2 0x6CF CALLDATASIZE PUSH1 0x4 PUSH2 0x4523 JUMP JUMPDEST PUSH2 0x2FD5 JUMP JUMPDEST PUSH2 0x33C PUSH2 0x6E2 CALLDATASIZE PUSH1 0x4 PUSH2 0x3F2B JUMP JUMPDEST PUSH2 0x3579 JUMP JUMPDEST PUSH2 0x276 PUSH2 0x6F5 CALLDATASIZE PUSH1 0x4 PUSH2 0x3CDB JUMP JUMPDEST PUSH1 0xA PUSH1 0x20 MSTORE PUSH1 0x0 SWAP1 DUP2 MSTORE PUSH1 0x40 SWAP1 KECCAK256 SLOAD DUP2 JUMP JUMPDEST PUSH2 0x71A PUSH2 0x715 CALLDATASIZE PUSH1 0x4 PUSH2 0x3F2B JUMP JUMPDEST PUSH2 0x362E JUMP JUMPDEST PUSH1 0x40 MLOAD PUSH2 0x280 SWAP2 SWAP1 PUSH2 0x45D8 JUMP JUMPDEST PUSH2 0x71A PUSH2 0x735 CALLDATASIZE PUSH1 0x4 PUSH2 0x3F2B JUMP JUMPDEST PUSH2 0x374D JUMP JUMPDEST PUSH2 0x74D PUSH2 0x748 CALLDATASIZE PUSH1 0x4 PUSH2 0x3CDB JUMP JUMPDEST PUSH2 0x386C JUMP JUMPDEST PUSH1 0x40 MLOAD PUSH2 0x280 SWAP9 SWAP8 SWAP7 SWAP6 SWAP5 SWAP4 SWAP3 SWAP2 SWAP1 PUSH2 0x4666 JUMP JUMPDEST PUSH2 0x774 PUSH2 0x76F CALLDATASIZE PUSH1 0x4 PUSH2 0x3C9D JUMP JUMPDEST PUSH2 0x3A5A JUMP JUMPDEST PUSH1 0x40 MLOAD PUSH2 0x280 SWAP5 SWAP4 SWAP3 SWAP2 SWAP1 PUSH2 0x46DC JUMP JUMPDEST PUSH1 0x16 SLOAD PUSH1 0x0 SWAP1 DUP2 SWAP1 PUSH2 0x796 SWAP1 DUP6 PUSH2 0x4724 JUMP JUMPDEST PUSH2 0x7A0 SWAP1 DUP3 PUSH2 0x473B JUMP JUMPDEST SWAP1 POP DUP3 PUSH1 0x5 SUB PUSH2 0x7C5 JUMPI PUSH1 0x16 SLOAD PUSH2 0x7B8 SWAP1 PUSH1 0x2 PUSH2 0x4724 JUMP JUMPDEST PUSH2 0x7C2 SWAP1 DUP3 PUSH2 0x473B JUMP JUMPDEST SWAP1 POP JUMPDEST DUP3 PUSH1 0x7 SUB PUSH2 0x7E8 JUMPI PUSH1 0x16 SLOAD PUSH2 0x7DB SWAP1 PUSH1 0x4 PUSH2 0x4724 JUMP JUMPDEST PUSH2 0x7E5 SWAP1 DUP3 PUSH2 0x473B JUMP JUMPDEST SWAP1 POP JUMPDEST DUP3 PUSH1 0x9 SUB PUSH2 0x80B JUMPI PUSH1 0x16 SLOAD PUSH2 0x7FE SWAP1 PUSH1 0x6 PUSH2 0x4724 JUMP JUMPDEST PUSH2 0x808 SWAP1 DUP3 PUSH2 0x473B JUMP JUMPDEST SWAP1 POP JUMPDEST SWAP1 POP JUMPDEST SWAP3 SWAP2 POP POP JUMP JUMPDEST PUSH2 0x81C PUSH2 0x3B32 JUMP JUMPDEST PUSH1 0x1 PUSH1 0x1 PUSH1 0xA0 SHL SUB DUP1 DUP4 AND PUSH1 0x0 SWAP1 DUP2 MSTORE PUSH1 0x1 PUSH1 0x20 DUP2 DUP2 MSTORE PUSH1 0x40 SWAP3 DUP4 SWAP1 KECCAK256 DUP4 MLOAD PUSH2 0x100 DUP2 ADD DUP6 MSTORE DUP2 SLOAD DUP2 MSTORE SWAP3 DUP2 ADD SLOAD SWAP1 SWAP5 AND SWAP1 DUP3 ADD MSTORE PUSH1 0x2 DUP4 ADD DUP1 SLOAD SWAP2 SWAP4 SWAP3 DUP5 ADD SWAP2 PUSH2 0x866 SWAP1 PUSH2 0x474E JUMP JUMPDEST DUP1 PUSH1 0x1F ADD PUSH1 0x20 DUP1 SWAP2 DIV MUL PUSH1 0x20 ADD PUSH1 0x40 MLOAD SWAP1 DUP2 ADD PUSH1 0x40 MSTORE DUP1 SWAP3 SWAP2 SWAP1 DUP2 DUP2 MSTORE PUSH1 0x20 ADD DUP3 DUP1 SLOAD PUSH2 0x892 SWAP1 PUSH2 0x474E JUMP JUMPDEST DUP1 ISZERO PUSH2 0x8DF JUMPI DUP1 PUSH1 0x1F LT PUSH2 0x8B4 JUMPI PUSH2 0x100 DUP1 DUP4 SLOAD DIV MUL DUP4 MSTORE SWAP2 PUSH1 0x20 ADD SWAP2 PUSH2 0x8DF JUMP JUMPDEST DUP3 ADD SWAP2 SWAP1 PUSH1 0x0 MSTORE PUSH1 0x20 PUSH1 0x0 KECCAK256 SWAP1 JUMPDEST DUP2 SLOAD DUP2 MSTORE SWAP1 PUSH1 0x1 ADD SWAP1 PUSH1 0x20 ADD DUP1 DUP4 GT PUSH2 0x8C2 JUMPI DUP3 SWAP1 SUB PUSH1 0x1F AND DUP3 ADD SWAP2 JUMPDEST POP POP POP POP POP DUP2 MSTORE PUSH1 0x20 ADD PUSH1 0x3 DUP3 ADD DUP1 SLOAD PUSH2 0x8F8 SWAP1 PUSH2 0x474E JUMP JUMPDEST DUP1 PUSH1 0x1F ADD PUSH1 0x20 DUP1 SWAP2 DIV MUL PUSH1 0x20 ADD PUSH1 0x40 MLOAD SWAP1 DUP2 ADD PUSH1 0x40 MSTORE DUP1 SWAP3 SWAP2 SWAP1 DUP2 DUP2 MSTORE PUSH1 0x20 ADD DUP3 DUP1 SLOAD PUSH2 0x924 SWAP1 PUSH2 0x474E JUMP JUMPDEST DUP1 ISZERO PUSH2 0x971 JUMPI DUP1 PUSH1 0x1F LT PUSH2 0x946 JUMPI PUSH2 0x100 DUP1 DUP4 SLOAD DIV MUL DUP4 MSTORE SWAP2 PUSH1 0x20 ADD SWAP2 PUSH2 0x971 JUMP JUMPDEST DUP3 ADD SWAP2 SWAP1 PUSH1 0x0 MSTORE PUSH1 0x20 PUSH1 0x0 KECCAK256 SWAP1 JUMPDEST DUP2 SLOAD DUP2 MSTORE SWAP1 PUSH1 0x1 ADD SWAP1 PUSH1 0x20 ADD DUP1 DUP4 GT PUSH2 0x954 JUMPI DUP3 SWAP1 SUB PUSH1 0x1F AND DUP3 ADD SWAP2 JUMPDEST POP POP POP POP POP DUP2 MSTORE PUSH1 0x20 ADD PUSH1 0x4 DUP3 ADD DUP1 SLOAD PUSH2 0x98A SWAP1 PUSH2 0x474E JUMP JUMPDEST DUP1 PUSH1 0x1F ADD PUSH1 0x20 DUP1 SWAP2 DIV MUL PUSH1 0x20 ADD PUSH1 0x40 MLOAD SWAP1 DUP2 ADD PUSH1 0x40 MSTORE DUP1 SWAP3 SWAP2 SWAP1 DUP2 DUP2 MSTORE PUSH1 0x20 ADD DUP3 DUP1 SLOAD PUSH2 0x9B6 SWAP1 PUSH2 0x474E JUMP JUMPDEST DUP1 ISZERO PUSH2 0xA03 JUMPI DUP1 PUSH1 0x1F LT PUSH2 0x9D8 JUMPI PUSH2 0x100 DUP1 DUP4 SLOAD DIV MUL DUP4 MSTORE SWAP2 PUSH1 0x20 ADD SWAP2 PUSH2 0xA03 JUMP JUMPDEST DUP3 ADD SWAP2 SWAP1 PUSH1 0x0 MSTORE PUSH1 0x20 PUSH1 0x0 KECCAK256 SWAP1 JUMPDEST DUP2 SLOAD DUP2 MSTORE SWAP1 PUSH1 0x1 ADD SWAP1 PUSH1 0x20 ADD DUP1 DUP4 GT PUSH2 0x9E6 JUMPI DUP3 SWAP1 SUB PUSH1 0x1F AND DUP3 ADD SWAP2 JUMPDEST POP POP POP SWAP2 DUP4 MSTORE POP POP PUSH1 0x5 SWAP2 SWAP1 SWAP2 ADD SLOAD PUSH1 0xFF DUP1 DUP3 AND ISZERO ISZERO PUSH1 0x20 DUP5 ADD MSTORE PUSH2 0x100 DUP3 DIV DUP2 AND ISZERO ISZERO PUSH1 0x40 DUP5 ADD MSTORE PUSH3 0x10000 SWAP1 SWAP2 DIV AND ISZERO ISZERO PUSH1 0x60 SWAP1 SWAP2 ADD MSTORE SWAP3 SWAP2 POP POP JUMP JUMPDEST PUSH1 0x1 PUSH1 0x1 PUSH1 0xA0 SHL SUB DUP2 AND PUSH1 0x0 SWAP1 DUP2 MSTORE PUSH1 0x8 PUSH1 0x20 MSTORE PUSH1 0x40 DUP2 KECCAK256 SLOAD PUSH1 0x60 SWAP2 DUP2 PUSH1 0x1 PUSH1 0x1 PUSH1 0x40 SHL SUB DUP2 GT ISZERO PUSH2 0xA76 JUMPI PUSH2 0xA76 PUSH2 0x4150 JUMP JUMPDEST PUSH1 0x40 MLOAD SWAP1 DUP1 DUP3 MSTORE DUP1 PUSH1 0x20 MUL PUSH1 0x20 ADD DUP3 ADD PUSH1 0x40 MSTORE DUP1 ISZERO PUSH2 0xAAF JUMPI DUP2 PUSH1 0x20 ADD JUMPDEST PUSH2 0xA9C PUSH2 0x3B86 JUMP JUMPDEST DUP2 MSTORE PUSH1 0x20 ADD SWAP1 PUSH1 0x1 SWAP1 SUB SWAP1 DUP2 PUSH2 0xA94 JUMPI SWAP1 POP JUMPDEST POP SWAP1 POP PUSH1 0x0 DUP1 JUMPDEST PUSH1 0x3 SLOAD DUP2 LT ISZERO PUSH2 0xC4F JUMPI PUSH1 0x0 PUSH1 0x3 DUP3 DUP2 SLOAD DUP2 LT PUSH2 0xAD5 JUMPI PUSH2 0xAD5 PUSH2 0x4788 JUMP JUMPDEST SWAP1 PUSH1 0x0 MSTORE PUSH1 0x20 PUSH1 0x0 KECCAK256 SWAP1 PUSH1 0x7 MUL ADD PUSH1 0x40 MLOAD DUP1 PUSH1 0xE0 ADD PUSH1 0x40 MSTORE SWAP1 DUP2 PUSH1 0x0 DUP3 ADD SLOAD DUP2 MSTORE PUSH1 0x20 ADD PUSH1 0x1 DUP3 ADD PUSH1 0x0 SWAP1 SLOAD SWAP1 PUSH2 0x100 EXP SWAP1 DIV PUSH1 0x1 PUSH1 0x1 PUSH1 0xA0 SHL SUB AND PUSH1 0x1 PUSH1 0x1 PUSH1 0xA0 SHL SUB AND PUSH1 0x1 PUSH1 0x1 PUSH1 0xA0 SHL SUB AND DUP2 MSTORE PUSH1 0x20 ADD PUSH1 0x2 DUP3 ADD DUP1 SLOAD PUSH2 0xB37 SWAP1 PUSH2 0x474E JUMP JUMPDEST DUP1 PUSH1 0x1F ADD PUSH1 0x20 DUP1 SWAP2 DIV MUL PUSH1 0x20 ADD PUSH1 0x40 MLOAD SWAP1 DUP2 ADD PUSH1 0x40 MSTORE DUP1 SWAP3 SWAP2 SWAP1 DUP2 DUP2 MSTORE PUSH1 0x20 ADD DUP3 DUP1 SLOAD PUSH2 0xB63 SWAP1 PUSH2 0x474E JUMP JUMPDEST DUP1 ISZERO PUSH2 0xBB0 JUMPI DUP1 PUSH1 0x1F LT PUSH2 0xB85 JUMPI PUSH2 0x100 DUP1 DUP4 SLOAD DIV MUL DUP4 MSTORE SWAP2 PUSH1 0x20 ADD SWAP2 PUSH2 0xBB0 JUMP JUMPDEST DUP3 ADD SWAP2 SWAP1 PUSH1 0x0 MSTORE PUSH1 0x20 PUSH1 0x0 KECCAK256 SWAP1 JUMPDEST DUP2 SLOAD DUP2 MSTORE SWAP1 PUSH1 0x1 ADD SWAP1 PUSH1 0x20 ADD DUP1 DUP4 GT PUSH2 0xB93 JUMPI DUP3 SWAP1 SUB PUSH1 0x1F AND DUP3 ADD SWAP2 JUMPDEST POP POP POP SWAP2 DUP4 MSTORE POP POP PUSH1 0x3 DUP3 ADD SLOAD PUSH1 0x20 DUP1 DUP4 ADD SWAP2 SWAP1 SWAP2 MSTORE PUSH1 0x4 DUP4 ADD SLOAD PUSH1 0x40 DUP4 ADD MSTORE PUSH1 0x5 DUP4 ADD SLOAD PUSH1 0x60 DUP4 ADD MSTORE PUSH1 0x6 SWAP1 SWAP3 ADD SLOAD PUSH1 0xFF AND ISZERO ISZERO PUSH1 0x80 SWAP1 SWAP2 ADD MSTORE DUP2 ADD MLOAD SWAP1 SWAP2 POP PUSH1 0x1 PUSH1 0x1 PUSH1 0xA0 SHL SUB DUP1 DUP10 AND SWAP2 AND SUB PUSH2 0xC3C JUMPI DUP1 DUP5 DUP5 DUP2 MLOAD DUP2 LT PUSH2 0xC16 JUMPI PUSH2 0xC16 PUSH2 0x4788 JUMP JUMPDEST PUSH1 0x20 MUL PUSH1 0x20 ADD ADD DUP2 SWAP1 MSTORE POP DUP3 DUP1 PUSH2 0xC2C SWAP1 PUSH2 0x479E JUMP JUMPDEST SWAP4 POP POP DUP5 DUP4 SUB PUSH2 0xC3C JUMPI POP PUSH2 0xC4F JUMP JUMPDEST POP DUP1 PUSH2 0xC47 DUP2 PUSH2 0x479E JUMP JUMPDEST SWAP2 POP POP PUSH2 0xAB6 JUMP JUMPDEST POP SWAP1 SWAP5 SWAP4 POP POP POP POP JUMP JUMPDEST PUSH1 0xB PUSH1 0x20 MSTORE DUP2 PUSH1 0x0 MSTORE PUSH1 0x40 PUSH1 0x0 KECCAK256 DUP2 DUP2 SLOAD DUP2 LT PUSH2 0xC75 JUMPI PUSH1 0x0 DUP1 REVERT JUMPDEST PUSH1 0x0 SWAP2 DUP3 MSTORE PUSH1 0x20 SWAP1 SWAP2 KECCAK256 PUSH1 0x7 SWAP1 SWAP2 MUL ADD DUP1 SLOAD PUSH1 0x1 DUP3 ADD SLOAD PUSH1 0x2 DUP4 ADD DUP1 SLOAD SWAP3 SWAP6 POP PUSH1 0x1 PUSH1 0x1 PUSH1 0xA0 SHL SUB SWAP1 SWAP2 AND SWAP4 POP SWAP1 PUSH2 0xCAC SWAP1 PUSH2 0x474E JUMP JUMPDEST DUP1 PUSH1 0x1F ADD PUSH1 0x20 DUP1 SWAP2 DIV MUL PUSH1 0x20 ADD PUSH1 0x40 MLOAD SWAP1 DUP2 ADD PUSH1 0x40 MSTORE DUP1 SWAP3 SWAP2 SWAP1 DUP2 DUP2 MSTORE PUSH1 0x20 ADD DUP3 DUP1 SLOAD PUSH2 0xCD8 SWAP1 PUSH2 0x474E JUMP JUMPDEST DUP1 ISZERO PUSH2 0xD25 JUMPI DUP1 PUSH1 0x1F LT PUSH2 0xCFA JUMPI PUSH2 0x100 DUP1 DUP4 SLOAD DIV MUL DUP4 MSTORE SWAP2 PUSH1 0x20 ADD SWAP2 PUSH2 0xD25 JUMP JUMPDEST DUP3 ADD SWAP2 SWAP1 PUSH1 0x0 MSTORE PUSH1 0x20 PUSH1 0x0 KECCAK256 SWAP1 JUMPDEST DUP2 SLOAD DUP2 MSTORE SWAP1 PUSH1 0x1 ADD SWAP1 PUSH1 0x20 ADD DUP1 DUP4 GT PUSH2 0xD08 JUMPI DUP3 SWAP1 SUB PUSH1 0x1F AND DUP3 ADD SWAP2 JUMPDEST POP POP POP POP POP SWAP1 DUP1 PUSH1 0x3 ADD DUP1 SLOAD PUSH2 0xD3A SWAP1 PUSH2 0x474E JUMP JUMPDEST DUP1 PUSH1 0x1F ADD PUSH1 0x20 DUP1 SWAP2 DIV MUL PUSH1 0x20 ADD PUSH1 0x40 MLOAD SWAP1 DUP2 ADD PUSH1 0x40 MSTORE DUP1 SWAP3 SWAP2 SWAP1 DUP2 DUP2 MSTORE PUSH1 0x20 ADD DUP3 DUP1 SLOAD PUSH2 0xD66 SWAP1 PUSH2 0x474E JUMP JUMPDEST DUP1 ISZERO PUSH2 0xDB3 JUMPI DUP1 PUSH1 0x1F LT PUSH2 0xD88 JUMPI PUSH2 0x100 DUP1 DUP4 SLOAD DIV MUL DUP4 MSTORE SWAP2 PUSH1 0x20 ADD SWAP2 PUSH2 0xDB3 JUMP JUMPDEST DUP3 ADD SWAP2 SWAP1 PUSH1 0x0 MSTORE PUSH1 0x20 PUSH1 0x0 KECCAK256 SWAP1 JUMPDEST DUP2 SLOAD DUP2 MSTORE SWAP1 PUSH1 0x1 ADD SWAP1 PUSH1 0x20 ADD DUP1 DUP4 GT PUSH2 0xD96 JUMPI DUP3 SWAP1 SUB PUSH1 0x1F AND DUP3 ADD SWAP2 JUMPDEST POP POP POP POP PUSH1 0x4 DUP4 ADD SLOAD PUSH1 0x5 DUP5 ADD SLOAD PUSH1 0x6 SWAP1 SWAP5 ADD SLOAD SWAP3 SWAP4 SWAP1 SWAP3 SWAP1 SWAP2 POP PUSH1 0xFF DUP1 DUP3 AND SWAP2 PUSH2 0x100 SWAP1 DIV AND DUP9 JUMP JUMPDEST PUSH1 0x3 DUP2 DUP2 SLOAD DUP2 LT PUSH2 0xDED JUMPI PUSH1 0x0 DUP1 REVERT JUMPDEST PUSH1 0x0 SWAP2 DUP3 MSTORE PUSH1 0x20 SWAP1 SWAP2 KECCAK256 PUSH1 0x7 SWAP1 SWAP2 MUL ADD DUP1 SLOAD PUSH1 0x1 DUP3 ADD SLOAD PUSH1 0x2 DUP4 ADD DUP1 SLOAD SWAP3 SWAP5 POP PUSH1 0x1 PUSH1 0x1 PUSH1 0xA0 SHL SUB SWAP1 SWAP2 AND SWAP3 SWAP2 PUSH2 0xE23 SWAP1 PUSH2 0x474E JUMP JUMPDEST DUP1 PUSH1 0x1F ADD PUSH1 0x20 DUP1 SWAP2 DIV MUL PUSH1 0x20 ADD PUSH1 0x40 MLOAD SWAP1 DUP2 ADD PUSH1 0x40 MSTORE DUP1 SWAP3 SWAP2 SWAP1 DUP2 DUP2 MSTORE PUSH1 0x20 ADD DUP3 DUP1 SLOAD PUSH2 0xE4F SWAP1 PUSH2 0x474E JUMP JUMPDEST DUP1 ISZERO PUSH2 0xE9C JUMPI DUP1 PUSH1 0x1F LT PUSH2 0xE71 JUMPI PUSH2 0x100 DUP1 DUP4 SLOAD DIV MUL DUP4 MSTORE SWAP2 PUSH1 0x20 ADD SWAP2 PUSH2 0xE9C JUMP JUMPDEST DUP3 ADD SWAP2 SWAP1 PUSH1 0x0 MSTORE PUSH1 0x20 PUSH1 0x0 KECCAK256 SWAP1 JUMPDEST DUP2 SLOAD DUP2 MSTORE SWAP1 PUSH1 0x1 ADD SWAP1 PUSH1 0x20 ADD DUP1 DUP4 GT PUSH2 0xE7F JUMPI DUP3 SWAP1 SUB PUSH1 0x1F AND DUP3 ADD SWAP2 JUMPDEST POP POP POP POP PUSH1 0x3 DUP4 ADD SLOAD PUSH1 0x4 DUP5 ADD SLOAD PUSH1 0x5 DUP6 ADD SLOAD PUSH1 0x6 SWAP1 SWAP6 ADD SLOAD SWAP4 SWAP5 SWAP2 SWAP4 SWAP1 SWAP3 POP PUSH1 0xFF AND DUP8 JUMP JUMPDEST PUSH1 0x0 DUP1 PUSH1 0x3 DUP4 DUP2 SLOAD DUP2 LT PUSH2 0xED8 JUMPI PUSH2 0xED8 PUSH2 0x4788 JUMP JUMPDEST SWAP1 PUSH1 0x0 MSTORE PUSH1 0x20 PUSH1 0x0 KECCAK256 SWAP1 PUSH1 0x7 MUL ADD PUSH1 0x40 MLOAD DUP1 PUSH1 0xE0 ADD PUSH1 0x40 MSTORE SWAP1 DUP2 PUSH1 0x0 DUP3 ADD SLOAD DUP2 MSTORE PUSH1 0x20 ADD PUSH1 0x1 DUP3 ADD PUSH1 0x0 SWAP1 SLOAD SWAP1 PUSH2 0x100 EXP SWAP1 DIV PUSH1 0x1 PUSH1 0x1 PUSH1 0xA0 SHL SUB AND PUSH1 0x1 PUSH1 0x1 PUSH1 0xA0 SHL SUB AND PUSH1 0x1 PUSH1 0x1 PUSH1 0xA0 SHL SUB AND DUP2 MSTORE PUSH1 0x20 ADD PUSH1 0x2 DUP3 ADD DUP1 SLOAD PUSH2 0xF3A SWAP1 PUSH2 0x474E JUMP JUMPDEST DUP1 PUSH1 0x1F ADD PUSH1 0x20 DUP1 SWAP2 DIV MUL PUSH1 0x20 ADD PUSH1 0x40 MLOAD SWAP1 DUP2 ADD PUSH1 0x40 MSTORE DUP1 SWAP3 SWAP2 SWAP1 DUP2 DUP2 MSTORE PUSH1 0x20 ADD DUP3 DUP1 SLOAD PUSH2 0xF66 SWAP1 PUSH2 0x474E JUMP JUMPDEST DUP1 ISZERO PUSH2 0xFB3 JUMPI DUP1 PUSH1 0x1F LT PUSH2 0xF88 JUMPI PUSH2 0x100 DUP1 DUP4 SLOAD DIV MUL DUP4 MSTORE SWAP2 PUSH1 0x20 ADD SWAP2 PUSH2 0xFB3 JUMP JUMPDEST DUP3 ADD SWAP2 SWAP1 PUSH1 0x0 MSTORE PUSH1 0x20 PUSH1 0x0 KECCAK256 SWAP1 JUMPDEST DUP2 SLOAD DUP2 MSTORE SWAP1 PUSH1 0x1 ADD SWAP1 PUSH1 0x20 ADD DUP1 DUP4 GT PUSH2 0xF96 JUMPI DUP3 SWAP1 SUB PUSH1 0x1F AND DUP3 ADD SWAP2 JUMPDEST POP POP POP SWAP2 DUP4 MSTORE POP POP PUSH1 0x3 DUP3 ADD SLOAD PUSH1 0x20 DUP3 ADD MSTORE PUSH1 0x4 DUP3 ADD SLOAD PUSH1 0x40 DUP3 ADD MSTORE PUSH1 0x5 DUP1 DUP4 ADD SLOAD PUSH1 0x60 DUP4 ADD MSTORE PUSH1 0x6 SWAP1 SWAP3 ADD SLOAD PUSH1 0xFF AND ISZERO ISZERO PUSH1 0x80 SWAP2 DUP3 ADD MSTORE PUSH1 0xA0 DUP4 ADD MLOAD SWAP1 DUP4 ADD MLOAD SWAP3 SWAP4 POP SWAP2 SWAP1 PUSH1 0x0 SWAP1 PUSH1 0xA SWAP1 PUSH2 0x100A SWAP1 DUP6 SWAP1 PUSH2 0x4724 JUMP JUMPDEST PUSH2 0x1014 SWAP2 SWAP1 PUSH2 0x47B7 JUMP JUMPDEST SWAP1 POP PUSH1 0x0 PUSH2 0x1022 DUP4 DUP4 PUSH2 0x47B7 JUMP JUMPDEST SWAP8 SWAP7 POP POP POP POP POP POP POP JUMP JUMPDEST PUSH1 0x60 PUSH1 0x0 PUSH1 0x3 DUP5 DUP2 SLOAD DUP2 LT PUSH2 0x1044 JUMPI PUSH2 0x1044 PUSH2 0x4788 JUMP JUMPDEST SWAP1 PUSH1 0x0 MSTORE PUSH1 0x20 PUSH1 0x0 KECCAK256 SWAP1 PUSH1 0x7 MUL ADD PUSH1 0x40 MLOAD DUP1 PUSH1 0xE0 ADD PUSH1 0x40 MSTORE SWAP1 DUP2 PUSH1 0x0 DUP3 ADD SLOAD DUP2 MSTORE PUSH1 0x20 ADD PUSH1 0x1 DUP3 ADD PUSH1 0x0 SWAP1 SLOAD SWAP1 PUSH2 0x100 EXP SWAP1 DIV PUSH1 0x1 PUSH1 0x1 PUSH1 0xA0 SHL SUB AND PUSH1 0x1 PUSH1 0x1 PUSH1 0xA0 SHL SUB AND PUSH1 0x1 PUSH1 0x1 PUSH1 0xA0 SHL SUB AND DUP2 MSTORE PUSH1 0x20 ADD PUSH1 0x2 DUP3 ADD DUP1 SLOAD PUSH2 0x10A6 SWAP1 PUSH2 0x474E JUMP JUMPDEST DUP1 PUSH1 0x1F ADD PUSH1 0x20 DUP1 SWAP2 DIV MUL PUSH1 0x20 ADD PUSH1 0x40 MLOAD SWAP1 DUP2 ADD PUSH1 0x40 MSTORE DUP1 SWAP3 SWAP2 SWAP1 DUP2 DUP2 MSTORE PUSH1 0x20 ADD DUP3 DUP1 SLOAD PUSH2 0x10D2 SWAP1 PUSH2 0x474E JUMP JUMPDEST DUP1 ISZERO PUSH2 0x111F JUMPI DUP1 PUSH1 0x1F LT PUSH2 0x10F4 JUMPI PUSH2 0x100 DUP1 DUP4 SLOAD DIV MUL DUP4 MSTORE SWAP2 PUSH1 0x20 ADD SWAP2 PUSH2 0x111F JUMP JUMPDEST DUP3 ADD SWAP2 SWAP1 PUSH1 0x0 MSTORE PUSH1 0x20 PUSH1 0x0 KECCAK256 SWAP1 JUMPDEST DUP2 SLOAD DUP2 MSTORE SWAP1 PUSH1 0x1 ADD SWAP1 PUSH1 0x20 ADD DUP1 DUP4 GT PUSH2 0x1102 JUMPI DUP3 SWAP1 SUB PUSH1 0x1F AND DUP3 ADD SWAP2 JUMPDEST POP POP POP POP POP DUP2 MSTORE PUSH1 0x20 ADD PUSH1 0x3 DUP3 ADD SLOAD DUP2 MSTORE PUSH1 0x20 ADD PUSH1 0x4 DUP3 ADD SLOAD DUP2 MSTORE PUSH1 0x20 ADD PUSH1 0x5 DUP3 ADD SLOAD DUP2 MSTORE PUSH1 0x20 ADD PUSH1 0x6 DUP3 ADD PUSH1 0x0 SWAP1 SLOAD SWAP1 PUSH2 0x100 EXP SWAP1 DIV PUSH1 0xFF AND ISZERO ISZERO ISZERO ISZERO DUP2 MSTORE POP POP SWAP1 POP PUSH1 0x0 PUSH1 0x5 PUSH1 0x0 DUP7 DUP2 MSTORE PUSH1 0x20 ADD SWAP1 DUP2 MSTORE PUSH1 0x20 ADD PUSH1 0x0 KECCAK256 DUP1 SLOAD DUP1 PUSH1 0x20 MUL PUSH1 0x20 ADD PUSH1 0x40 MLOAD SWAP1 DUP2 ADD PUSH1 0x40 MSTORE DUP1 SWAP3 SWAP2 SWAP1 DUP2 DUP2 MSTORE PUSH1 0x20 ADD PUSH1 0x0 SWAP1 JUMPDEST DUP3 DUP3 LT ISZERO PUSH2 0x1218 JUMPI PUSH1 0x0 DUP5 DUP2 MSTORE PUSH1 0x20 SWAP1 DUP2 SWAP1 KECCAK256 PUSH1 0x40 DUP1 MLOAD PUSH1 0xC0 DUP2 ADD DUP3 MSTORE PUSH1 0x4 DUP7 MUL SWAP1 SWAP3 ADD DUP1 SLOAD DUP4 MSTORE PUSH1 0x1 DUP1 DUP3 ADD SLOAD DUP5 DUP7 ADD MSTORE PUSH1 0x2 DUP3 ADD SLOAD SWAP3 DUP5 ADD SWAP3 SWAP1 SWAP3 MSTORE PUSH1 0x3 ADD SLOAD PUSH1 0x1 PUSH1 0x1 PUSH1 0xA0 SHL SUB DUP2 AND PUSH1 0x60 DUP5 ADD MSTORE PUSH1 0xFF PUSH1 0x1 PUSH1 0xA0 SHL DUP3 DIV DUP2 AND ISZERO ISZERO PUSH1 0x80 DUP6 ADD MSTORE PUSH1 0x1 PUSH1 0xA8 SHL SWAP1 SWAP2 DIV AND ISZERO ISZERO PUSH1 0xA0 DUP4 ADD MSTORE SWAP1 DUP4 MSTORE SWAP1 SWAP3 ADD SWAP2 ADD PUSH2 0x1198 JUMP JUMPDEST POP POP POP POP PUSH1 0x60 DUP4 ADD MLOAD SWAP1 SWAP2 POP PUSH1 0x0 DUP2 PUSH1 0x1 PUSH1 0x1 PUSH1 0x40 SHL SUB DUP2 GT ISZERO PUSH2 0x123E JUMPI PUSH2 0x123E PUSH2 0x4150 JUMP JUMPDEST PUSH1 0x40 MLOAD SWAP1 DUP1 DUP3 MSTORE DUP1 PUSH1 0x20 MUL PUSH1 0x20 ADD DUP3 ADD PUSH1 0x40 MSTORE DUP1 ISZERO PUSH2 0x1277 JUMPI DUP2 PUSH1 0x20 ADD JUMPDEST PUSH2 0x1264 PUSH2 0x3BCE JUMP JUMPDEST DUP2 MSTORE PUSH1 0x20 ADD SWAP1 PUSH1 0x1 SWAP1 SUB SWAP1 DUP2 PUSH2 0x125C JUMPI SWAP1 POP JUMPDEST POP SWAP1 POP PUSH1 0x0 DUP1 JUMPDEST DUP5 MLOAD DUP2 LT ISZERO PUSH2 0x130E JUMPI PUSH1 0x0 DUP6 DUP3 DUP2 MLOAD DUP2 LT PUSH2 0x129B JUMPI PUSH2 0x129B PUSH2 0x4788 JUMP JUMPDEST PUSH1 0x20 MUL PUSH1 0x20 ADD ADD MLOAD SWAP1 POP DUP9 PUSH1 0x1 PUSH1 0x1 PUSH1 0xA0 SHL SUB AND DUP2 PUSH1 0x60 ADD MLOAD PUSH1 0x1 PUSH1 0x1 PUSH1 0xA0 SHL SUB AND SUB PUSH2 0x12FB JUMPI DUP1 DUP5 DUP5 DUP2 MLOAD DUP2 LT PUSH2 0x12D5 JUMPI PUSH2 0x12D5 PUSH2 0x4788 JUMP JUMPDEST PUSH1 0x20 MUL PUSH1 0x20 ADD ADD DUP2 SWAP1 MSTORE POP DUP3 DUP1 PUSH2 0x12EB SWAP1 PUSH2 0x479E JUMP JUMPDEST SWAP4 POP POP DUP5 DUP4 SUB PUSH2 0x12FB JUMPI POP PUSH2 0x130E JUMP JUMPDEST POP DUP1 PUSH2 0x1306 DUP2 PUSH2 0x479E JUMP JUMPDEST SWAP2 POP POP PUSH2 0x127E JUMP JUMPDEST POP SWAP1 SWAP8 SWAP7 POP POP POP POP POP POP POP JUMP JUMPDEST PUSH2 0x1323 PUSH2 0x3C11 JUMP JUMPDEST PUSH1 0x1 PUSH1 0x1 PUSH1 0xA0 SHL SUB DUP1 DUP4 AND PUSH1 0x0 SWAP1 DUP2 MSTORE PUSH1 0x2 PUSH1 0x20 DUP2 DUP2 MSTORE PUSH1 0x40 SWAP3 DUP4 SWAP1 KECCAK256 DUP4 MLOAD PUSH2 0x100 DUP2 ADD DUP6 MSTORE DUP2 SLOAD DUP2 MSTORE PUSH1 0x1 DUP3 ADD SLOAD SWAP1 SWAP6 AND SWAP2 DUP6 ADD SWAP2 SWAP1 SWAP2 MSTORE SWAP1 DUP2 ADD DUP1 SLOAD SWAP2 SWAP3 DUP5 ADD SWAP2 PUSH2 0x136F SWAP1 PUSH2 0x474E JUMP JUMPDEST DUP1 PUSH1 0x1F ADD PUSH1 0x20 DUP1 SWAP2 DIV MUL PUSH1 0x20 ADD PUSH1 0x40 MLOAD SWAP1 DUP2 ADD PUSH1 0x40 MSTORE DUP1 SWAP3 SWAP2 SWAP1 DUP2 DUP2 MSTORE PUSH1 0x20 ADD DUP3 DUP1 SLOAD PUSH2 0x139B SWAP1 PUSH2 0x474E JUMP JUMPDEST DUP1 ISZERO PUSH2 0x13E8 JUMPI DUP1 PUSH1 0x1F LT PUSH2 0x13BD JUMPI PUSH2 0x100 DUP1 DUP4 SLOAD DIV MUL DUP4 MSTORE SWAP2 PUSH1 0x20 ADD SWAP2 PUSH2 0x13E8 JUMP JUMPDEST DUP3 ADD SWAP2 SWAP1 PUSH1 0x0 MSTORE PUSH1 0x20 PUSH1 0x0 KECCAK256 SWAP1 JUMPDEST DUP2 SLOAD DUP2 MSTORE SWAP1 PUSH1 0x1 ADD SWAP1 PUSH1 0x20 ADD DUP1 DUP4 GT PUSH2 0x13CB JUMPI DUP3 SWAP1 SUB PUSH1 0x1F AND DUP3 ADD SWAP2 JUMPDEST POP POP POP POP POP DUP2 MSTORE PUSH1 0x20 ADD PUSH1 0x3 DUP3 ADD DUP1 SLOAD PUSH2 0x1401 SWAP1 PUSH2 0x474E JUMP JUMPDEST DUP1 PUSH1 0x1F ADD PUSH1 0x20 DUP1 SWAP2 DIV MUL PUSH1 0x20 ADD PUSH1 0x40 MLOAD SWAP1 DUP2 ADD PUSH1 0x40 MSTORE DUP1 SWAP3 SWAP2 SWAP1 DUP2 DUP2 MSTORE PUSH1 0x20 ADD DUP3 DUP1 SLOAD PUSH2 0x142D SWAP1 PUSH2 0x474E JUMP JUMPDEST DUP1 ISZERO PUSH2 0x147A JUMPI DUP1 PUSH1 0x1F LT PUSH2 0x144F JUMPI PUSH2 0x100 DUP1 DUP4 SLOAD DIV MUL DUP4 MSTORE SWAP2 PUSH1 0x20 ADD SWAP2 PUSH2 0x147A JUMP JUMPDEST DUP3 ADD SWAP2 SWAP1 PUSH1 0x0 MSTORE PUSH1 0x20 PUSH1 0x0 KECCAK256 SWAP1 JUMPDEST DUP2 SLOAD DUP2 MSTORE SWAP1 PUSH1 0x1 ADD SWAP1 PUSH1 0x20 ADD DUP1 DUP4 GT PUSH2 0x145D JUMPI DUP3 SWAP1 SUB PUSH1 0x1F AND DUP3 ADD SWAP2 JUMPDEST POP POP POP SWAP2 DUP4 MSTORE POP POP PUSH1 0x4 DUP3 ADD SLOAD PUSH1 0x20 DUP3 ADD MSTORE PUSH1 0x5 DUP3 ADD SLOAD PUSH1 0x40 DUP3 ADD MSTORE PUSH1 0x6 SWAP1 SWAP2 ADD SLOAD PUSH1 0xFF DUP1 DUP3 AND ISZERO ISZERO PUSH1 0x60 DUP5 ADD MSTORE PUSH2 0x100 SWAP1 SWAP2 DIV AND ISZERO ISZERO PUSH1 0x80 SWAP1 SWAP2 ADD MSTORE SWAP3 SWAP2 POP POP JUMP JUMPDEST PUSH1 0x1 PUSH1 0x1 PUSH1 0xA0 SHL SUB DUP2 AND PUSH1 0x0 SWAP1 DUP2 MSTORE PUSH1 0x2 PUSH1 0x20 MSTORE PUSH1 0x40 DUP2 KECCAK256 PUSH1 0x5 ADD SLOAD DUP2 DUP2 PUSH1 0x1 PUSH1 0x1 PUSH1 0x40 SHL SUB DUP2 GT ISZERO PUSH2 0x14F2 JUMPI PUSH2 0x14F2 PUSH2 0x4150 JUMP JUMPDEST PUSH1 0x40 MLOAD SWAP1 DUP1 DUP3 MSTORE DUP1 PUSH1 0x20 MUL PUSH1 0x20 ADD DUP3 ADD PUSH1 0x40 MSTORE DUP1 ISZERO PUSH2 0x152B JUMPI DUP2 PUSH1 0x20 ADD JUMPDEST PUSH2 0x1518 PUSH2 0x3C63 JUMP JUMPDEST DUP2 MSTORE PUSH1 0x20 ADD SWAP1 PUSH1 0x1 SWAP1 SUB SWAP1 DUP2 PUSH2 0x1510 JUMPI SWAP1 POP JUMPDEST POP SWAP1 POP PUSH1 0x0 DUP1 JUMPDEST DUP3 MLOAD DUP2 LT ISZERO PUSH2 0x157F JUMPI PUSH1 0x0 DUP4 DUP3 DUP2 MLOAD DUP2 LT PUSH2 0x154F JUMPI PUSH2 0x154F PUSH2 0x4788 JUMP JUMPDEST PUSH1 0x20 MUL PUSH1 0x20 ADD ADD MLOAD SWAP1 POP DUP1 PUSH1 0x60 ADD MLOAD DUP4 PUSH2 0x1569 SWAP2 SWAP1 PUSH2 0x473B JUMP JUMPDEST SWAP3 POP POP DUP1 DUP1 PUSH2 0x1577 SWAP1 PUSH2 0x479E JUMP JUMPDEST SWAP2 POP POP PUSH2 0x1532 JUMP JUMPDEST POP SWAP5 SWAP4 POP POP POP POP JUMP JUMPDEST PUSH1 0x1 PUSH1 0x1 PUSH1 0xA0 SHL SUB DUP2 AND PUSH1 0x0 SWAP1 DUP2 MSTORE PUSH1 0x2 PUSH1 0x20 MSTORE PUSH1 0x40 DUP2 KECCAK256 PUSH1 0x5 ADD SLOAD PUSH1 0x60 SWAP2 DUP2 PUSH1 0x1 PUSH1 0x1 PUSH1 0x40 SHL SUB DUP2 GT ISZERO PUSH2 0x15BF JUMPI PUSH2 0x15BF PUSH2 0x4150 JUMP JUMPDEST PUSH1 0x40 MLOAD SWAP1 DUP1 DUP3 MSTORE DUP1 PUSH1 0x20 MUL PUSH1 0x20 ADD DUP3 ADD PUSH1 0x40 MSTORE DUP1 ISZERO PUSH2 0x15F8 JUMPI DUP2 PUSH1 0x20 ADD JUMPDEST PUSH2 0x15E5 PUSH2 0x3C63 JUMP JUMPDEST DUP2 MSTORE PUSH1 0x20 ADD SWAP1 PUSH1 0x1 SWAP1 SUB SWAP1 DUP2 PUSH2 0x15DD JUMPI SWAP1 POP JUMPDEST POP SWAP1 POP PUSH1 0x0 DUP1 JUMPDEST PUSH1 0xD SLOAD DUP2 LT ISZERO PUSH2 0xC4F JUMPI PUSH1 0x0 PUSH1 0xD DUP3 DUP2 SLOAD DUP2 LT PUSH2 0x161E JUMPI PUSH2 0x161E PUSH2 0x4788 JUMP JUMPDEST PUSH1 0x0 SWAP2 DUP3 MSTORE PUSH1 0x20 SWAP2 DUP3 SWAP1 KECCAK256 PUSH1 0x40 DUP1 MLOAD PUSH1 0xA0 DUP2 ADD DUP3 MSTORE PUSH1 0x5 SWAP1 SWAP4 MUL SWAP1 SWAP2 ADD DUP1 SLOAD DUP4 MSTORE PUSH1 0x1 DUP2 ADD SLOAD SWAP4 DUP4 ADD SWAP4 SWAP1 SWAP4 MSTORE PUSH1 0x2 DUP4 ADD SLOAD PUSH1 0x1 PUSH1 0x1 PUSH1 0xA0 SHL SUB SWAP1 DUP2 AND SWAP2 DUP4 ADD DUP3 SWAP1 MSTORE PUSH1 0x3 DUP5 ADD SLOAD PUSH1 0x60 DUP5 ADD MSTORE PUSH1 0x4 SWAP1 SWAP4 ADD SLOAD PUSH1 0xFF AND ISZERO ISZERO PUSH1 0x80 DUP4 ADD MSTORE SWAP1 SWAP3 POP SWAP1 DUP9 AND SWAP1 SUB PUSH2 0x16C0 JUMPI DUP1 DUP5 DUP5 DUP2 MLOAD DUP2 LT PUSH2 0x169A JUMPI PUSH2 0x169A PUSH2 0x4788 JUMP JUMPDEST PUSH1 0x20 MUL PUSH1 0x20 ADD ADD DUP2 SWAP1 MSTORE POP DUP3 DUP1 PUSH2 0x16B0 SWAP1 PUSH2 0x479E JUMP JUMPDEST SWAP4 POP POP DUP5 DUP4 SUB PUSH2 0x16C0 JUMPI POP PUSH2 0xC4F JUMP JUMPDEST POP DUP1 PUSH2 0x16CB DUP2 PUSH2 0x479E JUMP JUMPDEST SWAP2 POP POP PUSH2 0x15FF JUMP JUMPDEST PUSH1 0x60 PUSH1 0x0 PUSH2 0x16E0 DUP4 PUSH2 0x1588 JUMP JUMPDEST SWAP1 POP PUSH1 0x0 DUP2 MLOAD PUSH1 0x1 PUSH1 0x1 PUSH1 0x40 SHL SUB DUP2 GT ISZERO PUSH2 0x16FD JUMPI PUSH2 0x16FD PUSH2 0x4150 JUMP JUMPDEST PUSH1 0x40 MLOAD SWAP1 DUP1 DUP3 MSTORE DUP1 PUSH1 0x20 MUL PUSH1 0x20 ADD DUP3 ADD PUSH1 0x40 MSTORE DUP1 ISZERO PUSH2 0x1736 JUMPI DUP2 PUSH1 0x20 ADD JUMPDEST PUSH2 0x1723 PUSH2 0x3B86 JUMP JUMPDEST DUP2 MSTORE PUSH1 0x20 ADD SWAP1 PUSH1 0x1 SWAP1 SUB SWAP1 DUP2 PUSH2 0x171B JUMPI SWAP1 POP JUMPDEST POP SWAP1 POP PUSH1 0x0 DUP1 JUMPDEST DUP4 MLOAD DUP2 LT ISZERO PUSH2 0xC4F JUMPI PUSH1 0x0 DUP5 DUP3 DUP2 MLOAD DUP2 LT PUSH2 0x175A JUMPI PUSH2 0x175A PUSH2 0x4788 JUMP JUMPDEST PUSH1 0x20 MUL PUSH1 0x20 ADD ADD MLOAD SWAP1 POP PUSH1 0x3 DUP2 PUSH1 0x20 ADD MLOAD DUP2 SLOAD DUP2 LT PUSH2 0x177B JUMPI PUSH2 0x177B PUSH2 0x4788 JUMP JUMPDEST SWAP1 PUSH1 0x0 MSTORE PUSH1 0x20 PUSH1 0x0 KECCAK256 SWAP1 PUSH1 0x7 MUL ADD PUSH1 0x40 MLOAD DUP1 PUSH1 0xE0 ADD PUSH1 0x40 MSTORE SWAP1 DUP2 PUSH1 0x0 DUP3 ADD SLOAD DUP2 MSTORE PUSH1 0x20 ADD PUSH1 0x1 DUP3 ADD PUSH1 0x0 SWAP1 SLOAD SWAP1 PUSH2 0x100 EXP SWAP1 DIV PUSH1 0x1 PUSH1 0x1 PUSH1 0xA0 SHL SUB AND PUSH1 0x1 PUSH1 0x1 PUSH1 0xA0 SHL SUB AND PUSH1 0x1 PUSH1 0x1 PUSH1 0xA0 SHL SUB AND DUP2 MSTORE PUSH1 0x20 ADD PUSH1 0x2 DUP3 ADD DUP1 SLOAD PUSH2 0x17DD SWAP1 PUSH2 0x474E JUMP JUMPDEST DUP1 PUSH1 0x1F ADD PUSH1 0x20 DUP1 SWAP2 DIV MUL PUSH1 0x20 ADD PUSH1 0x40 MLOAD SWAP1 DUP2 ADD PUSH1 0x40 MSTORE DUP1 SWAP3 SWAP2 SWAP1 DUP2 DUP2 MSTORE PUSH1 0x20 ADD DUP3 DUP1 SLOAD PUSH2 0x1809 SWAP1 PUSH2 0x474E JUMP JUMPDEST DUP1 ISZERO PUSH2 0x1856 JUMPI DUP1 PUSH1 0x1F LT PUSH2 0x182B JUMPI PUSH2 0x100 DUP1 DUP4 SLOAD DIV MUL DUP4 MSTORE SWAP2 PUSH1 0x20 ADD SWAP2 PUSH2 0x1856 JUMP JUMPDEST DUP3 ADD SWAP2 SWAP1 PUSH1 0x0 MSTORE PUSH1 0x20 PUSH1 0x0 KECCAK256 SWAP1 JUMPDEST DUP2 SLOAD DUP2 MSTORE SWAP1 PUSH1 0x1 ADD SWAP1 PUSH1 0x20 ADD DUP1 DUP4 GT PUSH2 0x1839 JUMPI DUP3 SWAP1 SUB PUSH1 0x1F AND DUP3 ADD SWAP2 JUMPDEST POP POP POP SWAP2 DUP4 MSTORE POP POP PUSH1 0x3 DUP3 ADD SLOAD PUSH1 0x20 DUP3 ADD MSTORE PUSH1 0x4 DUP3 ADD SLOAD PUSH1 0x40 DUP3 ADD MSTORE PUSH1 0x5 DUP3 ADD SLOAD PUSH1 0x60 DUP3 ADD MSTORE PUSH1 0x6 SWAP1 SWAP2 ADD SLOAD PUSH1 0xFF AND ISZERO ISZERO PUSH1 0x80 SWAP1 SWAP2 ADD MSTORE DUP5 MLOAD DUP6 SWAP1 DUP6 SWAP1 DUP2 LT PUSH2 0x18A1 JUMPI PUSH2 0x18A1 PUSH2 0x4788 JUMP JUMPDEST PUSH1 0x20 MUL PUSH1 0x20 ADD ADD DUP2 SWAP1 MSTORE POP DUP3 DUP1 PUSH2 0x18B7 SWAP1 PUSH2 0x479E JUMP JUMPDEST SWAP4 POP POP POP DUP1 DUP1 PUSH2 0x18C6 SWAP1 PUSH2 0x479E JUMP JUMPDEST SWAP2 POP POP PUSH2 0x173D JUMP JUMPDEST PUSH1 0xF SLOAD PUSH2 0x18D9 PUSH2 0x3C11 JUMP JUMPDEST DUP2 DUP2 MSTORE PUSH1 0x1 PUSH1 0x1 PUSH1 0xA0 SHL SUB DUP7 AND PUSH1 0x20 DUP3 ADD MSTORE PUSH1 0x40 DUP2 ADD DUP6 SWAP1 MSTORE PUSH1 0x60 DUP2 ADD DUP5 SWAP1 MSTORE PUSH1 0x80 DUP2 ADD DUP4 SWAP1 MSTORE PUSH2 0x1909 DUP7 PUSH2 0x2CE8 JUMP JUMPDEST ISZERO PUSH2 0x19F5 JUMPI PUSH1 0x0 PUSH2 0x1919 DUP8 PUSH2 0x814 JUMP JUMPDEST PUSH1 0x1 PUSH1 0xA0 DUP3 ADD DUP2 SWAP1 MSTORE PUSH1 0xC0 DUP5 ADD DUP2 SWAP1 MSTORE PUSH1 0x1 PUSH1 0x1 PUSH1 0xA0 SHL SUB DUP10 DUP2 AND PUSH1 0x0 SWAP1 DUP2 MSTORE PUSH1 0x20 DUP4 DUP2 MSTORE PUSH1 0x40 SWAP2 DUP3 SWAP1 KECCAK256 DUP6 MLOAD DUP2 SSTORE SWAP1 DUP6 ADD MLOAD SWAP4 DUP2 ADD DUP1 SLOAD PUSH1 0x1 PUSH1 0x1 PUSH1 0xA0 SHL SUB NOT AND SWAP5 SWAP1 SWAP4 AND SWAP4 SWAP1 SWAP4 OR SWAP1 SWAP2 SSTORE DUP3 ADD MLOAD SWAP2 SWAP3 POP DUP3 SWAP2 PUSH1 0x2 DUP3 ADD SWAP1 PUSH2 0x197D SWAP1 DUP3 PUSH2 0x4828 JUMP JUMPDEST POP PUSH1 0x60 DUP3 ADD MLOAD PUSH1 0x3 DUP3 ADD SWAP1 PUSH2 0x1992 SWAP1 DUP3 PUSH2 0x4828 JUMP JUMPDEST POP PUSH1 0x80 DUP3 ADD MLOAD PUSH1 0x4 DUP3 ADD SWAP1 PUSH2 0x19A7 SWAP1 DUP3 PUSH2 0x4828 JUMP JUMPDEST POP PUSH1 0xA0 DUP3 ADD MLOAD PUSH1 0x5 SWAP1 SWAP2 ADD DUP1 SLOAD PUSH1 0xC0 DUP5 ADD MLOAD PUSH1 0xE0 SWAP1 SWAP5 ADD MLOAD ISZERO ISZERO PUSH3 0x10000 MUL PUSH3 0xFF0000 NOT SWAP5 ISZERO ISZERO PUSH2 0x100 MUL PUSH2 0xFF00 NOT SWAP5 ISZERO ISZERO SWAP5 SWAP1 SWAP5 AND PUSH2 0xFFFF NOT SWAP1 SWAP3 AND SWAP2 SWAP1 SWAP2 OR SWAP3 SWAP1 SWAP3 OR SWAP3 SWAP1 SWAP3 AND OR SWAP1 SSTORE POP JUMPDEST PUSH1 0x1 PUSH1 0x1 PUSH1 0xA0 SHL SUB DUP7 DUP2 AND PUSH1 0x0 SWAP1 DUP2 MSTORE PUSH1 0x2 PUSH1 0x20 DUP2 DUP2 MSTORE PUSH1 0x40 SWAP3 DUP4 SWAP1 KECCAK256 DUP6 MLOAD DUP2 SSTORE SWAP1 DUP6 ADD MLOAD PUSH1 0x1 DUP3 ADD DUP1 SLOAD PUSH1 0x1 PUSH1 0x1 PUSH1 0xA0 SHL SUB NOT AND SWAP2 SWAP1 SWAP6 AND OR SWAP1 SWAP4 SSTORE SWAP1 DUP4 ADD MLOAD DUP4 SWAP3 SWAP2 DUP3 ADD SWAP1 PUSH2 0x1A46 SWAP1 DUP3 PUSH2 0x4828 JUMP JUMPDEST POP PUSH1 0x60 DUP3 ADD MLOAD PUSH1 0x3 DUP3 ADD SWAP1 PUSH2 0x1A5B SWAP1 DUP3 PUSH2 0x4828 JUMP JUMPDEST POP PUSH1 0x80 DUP3 ADD MLOAD PUSH1 0x4 DUP3 ADD SSTORE PUSH1 0xA0 DUP3 ADD MLOAD PUSH1 0x5 DUP3 ADD SSTORE PUSH1 0xC0 DUP3 ADD MLOAD PUSH1 0x6 SWAP1 SWAP2 ADD DUP1 SLOAD PUSH1 0xE0 SWAP1 SWAP4 ADD MLOAD ISZERO ISZERO PUSH2 0x100 MUL PUSH2 0xFF00 NOT SWAP3 ISZERO ISZERO SWAP3 SWAP1 SWAP3 AND PUSH2 0xFFFF NOT SWAP1 SWAP4 AND SWAP3 SWAP1 SWAP3 OR OR SWAP1 SSTORE PUSH1 0xF DUP1 SLOAD SWAP1 PUSH1 0x0 PUSH2 0x1AB1 DUP4 PUSH2 0x479E JUMP JUMPDEST SWAP2 SWAP1 POP SSTORE POP POP POP POP POP POP POP JUMP JUMPDEST PUSH1 0xE SLOAD PUSH2 0x1AC9 PUSH2 0x3B32 JUMP JUMPDEST DUP2 DUP2 MSTORE PUSH1 0x1 PUSH1 0x1 PUSH1 0xA0 SHL SUB DUP7 AND PUSH1 0x20 DUP3 ADD MSTORE PUSH1 0x40 DUP2 ADD DUP6 SWAP1 MSTORE PUSH1 0x60 DUP2 ADD DUP5 SWAP1 MSTORE PUSH1 0x80 DUP2 ADD DUP4 SWAP1 MSTORE PUSH1 0x0 PUSH1 0xC0 DUP3 ADD MSTORE PUSH2 0x1B00 DUP7 PUSH2 0x2620 JUMP JUMPDEST ISZERO PUSH2 0x1BD2 JUMPI PUSH1 0x0 PUSH2 0x1B10 DUP8 PUSH2 0x131B JUMP JUMPDEST PUSH1 0x1 PUSH1 0xC0 DUP3 ADD DUP2 SWAP1 MSTORE PUSH1 0xA0 DUP5 ADD DUP2 SWAP1 MSTORE PUSH1 0x1 PUSH1 0x1 PUSH1 0xA0 SHL SUB DUP10 DUP2 AND PUSH1 0x0 SWAP1 DUP2 MSTORE PUSH1 0x2 PUSH1 0x20 DUP2 DUP2 MSTORE PUSH1 0x40 SWAP3 DUP4 SWAP1 KECCAK256 DUP7 MLOAD DUP2 SSTORE SWAP1 DUP7 ADD MLOAD SWAP5 DUP2 ADD DUP1 SLOAD PUSH1 0x1 PUSH1 0x1 PUSH1 0xA0 SHL SUB NOT AND SWAP6 SWAP1 SWAP5 AND SWAP5 SWAP1 SWAP5 OR SWAP1 SWAP3 SSTORE DUP4 ADD MLOAD SWAP3 SWAP4 POP DUP4 SWAP3 SWAP1 DUP3 ADD SWAP1 PUSH2 0x1B75 SWAP1 DUP3 PUSH2 0x4828 JUMP JUMPDEST POP PUSH1 0x60 DUP3 ADD MLOAD PUSH1 0x3 DUP3 ADD SWAP1 PUSH2 0x1B8A SWAP1 DUP3 PUSH2 0x4828 JUMP JUMPDEST POP PUSH1 0x80 DUP3 ADD MLOAD PUSH1 0x4 DUP3 ADD SSTORE PUSH1 0xA0 DUP3 ADD MLOAD PUSH1 0x5 DUP3 ADD SSTORE PUSH1 0xC0 DUP3 ADD MLOAD PUSH1 0x6 SWAP1 SWAP2 ADD DUP1 SLOAD PUSH1 0xE0 SWAP1 SWAP4 ADD MLOAD ISZERO ISZERO PUSH2 0x100 MUL PUSH2 0xFF00 NOT SWAP3 ISZERO ISZERO SWAP3 SWAP1 SWAP3 AND PUSH2 0xFFFF NOT SWAP1 SWAP4 AND SWAP3 SWAP1 SWAP3 OR OR SWAP1 SSTORE POP JUMPDEST PUSH1 0x1 PUSH1 0x1 PUSH1 0xA0 SHL SUB DUP7 DUP2 AND PUSH1 0x0 SWAP1 DUP2 MSTORE PUSH1 0x1 PUSH1 0x20 DUP2 DUP2 MSTORE PUSH1 0x40 SWAP3 DUP4 SWAP1 KECCAK256 DUP6 MLOAD DUP2 SSTORE SWAP1 DUP6 ADD MLOAD SWAP2 DUP2 ADD DUP1 SLOAD PUSH1 0x1 PUSH1 0x1 PUSH1 0xA0 SHL SUB NOT AND SWAP3 SWAP1 SWAP5 AND SWAP2 SWAP1 SWAP2 OR SWAP1 SWAP3 SSTORE DUP3 ADD MLOAD DUP3 SWAP2 SWAP1 PUSH1 0x2 DUP3 ADD SWAP1 PUSH2 0x1C26 SWAP1 DUP3 PUSH2 0x4828 JUMP JUMPDEST POP PUSH1 0x60 DUP3 ADD MLOAD PUSH1 0x3 DUP3 ADD SWAP1 PUSH2 0x1C3B SWAP1 DUP3 PUSH2 0x4828 JUMP JUMPDEST POP PUSH1 0x80 DUP3 ADD MLOAD PUSH1 0x4 DUP3 ADD SWAP1 PUSH2 0x1C50 SWAP1 DUP3 PUSH2 0x4828 JUMP JUMPDEST POP PUSH1 0xA0 DUP3 ADD MLOAD PUSH1 0x5 SWAP1 SWAP2 ADD DUP1 SLOAD PUSH1 0xC0 DUP5 ADD MLOAD PUSH1 0xE0 SWAP1 SWAP5 ADD MLOAD ISZERO ISZERO PUSH3 0x10000 MUL PUSH3 0xFF0000 NOT SWAP5 ISZERO ISZERO PUSH2 0x100 MUL PUSH2 0xFF00 NOT SWAP5 ISZERO ISZERO SWAP5 SWAP1 SWAP5 AND PUSH2 0xFFFF NOT SWAP1 SWAP3 AND SWAP2 SWAP1 SWAP2 OR SWAP3 SWAP1 SWAP3 OR SWAP3 SWAP1 SWAP3 AND OR SWAP1 SSTORE PUSH1 0xE DUP1 SLOAD SWAP1 PUSH1 0x0 PUSH2 0x1AB1 DUP4 PUSH2 0x479E JUMP JUMPDEST PUSH1 0x0 DUP1 PUSH1 0x3 DUP5 DUP2 SLOAD DUP2 LT PUSH2 0x1CC2 JUMPI PUSH2 0x1CC2 PUSH2 0x4788 JUMP JUMPDEST SWAP1 PUSH1 0x0 MSTORE PUSH1 0x20 PUSH1 0x0 KECCAK256 SWAP1 PUSH1 0x7 MUL ADD PUSH1 0x40 MLOAD DUP1 PUSH1 0xE0 ADD PUSH1 0x40 MSTORE SWAP1 DUP2 PUSH1 0x0 DUP3 ADD SLOAD DUP2 MSTORE PUSH1 0x20 ADD PUSH1 0x1 DUP3 ADD PUSH1 0x0 SWAP1 SLOAD SWAP1 PUSH2 0x100 EXP SWAP1 DIV PUSH1 0x1 PUSH1 0x1 PUSH1 0xA0 SHL SUB AND PUSH1 0x1 PUSH1 0x1 PUSH1 0xA0 SHL SUB AND PUSH1 0x1 PUSH1 0x1 PUSH1 0xA0 SHL SUB AND DUP2 MSTORE PUSH1 0x20 ADD PUSH1 0x2 DUP3 ADD DUP1 SLOAD PUSH2 0x1D24 SWAP1 PUSH2 0x474E JUMP JUMPDEST DUP1 PUSH1 0x1F ADD PUSH1 0x20 DUP1 SWAP2 DIV MUL PUSH1 0x20 ADD PUSH1 0x40 MLOAD SWAP1 DUP2 ADD PUSH1 0x40 MSTORE DUP1 SWAP3 SWAP2 SWAP1 DUP2 DUP2 MSTORE PUSH1 0x20 ADD DUP3 DUP1 SLOAD PUSH2 0x1D50 SWAP1 PUSH2 0x474E JUMP JUMPDEST DUP1 ISZERO PUSH2 0x1D9D JUMPI DUP1 PUSH1 0x1F LT PUSH2 0x1D72 JUMPI PUSH2 0x100 DUP1 DUP4 SLOAD DIV MUL DUP4 MSTORE SWAP2 PUSH1 0x20 ADD SWAP2 PUSH2 0x1D9D JUMP JUMPDEST DUP3 ADD SWAP2 SWAP1 PUSH1 0x0 MSTORE PUSH1 0x20 PUSH1 0x0 KECCAK256 SWAP1 JUMPDEST DUP2 SLOAD DUP2 MSTORE SWAP1 PUSH1 0x1 ADD SWAP1 PUSH1 0x20 ADD DUP1 DUP4 GT PUSH2 0x1D80 JUMPI DUP3 SWAP1 SUB PUSH1 0x1F AND DUP3 ADD SWAP2 JUMPDEST POP POP POP SWAP2 DUP4 MSTORE POP POP PUSH1 0x3 DUP3 ADD SLOAD PUSH1 0x20 DUP3 ADD MSTORE PUSH1 0x4 DUP3 ADD SLOAD PUSH1 0x40 DUP3 ADD MSTORE PUSH1 0x5 DUP1 DUP4 ADD SLOAD PUSH1 0x60 DUP4 ADD MSTORE PUSH1 0x6 SWAP1 SWAP3 ADD SLOAD PUSH1 0xFF AND ISZERO ISZERO PUSH1 0x80 SWAP1 SWAP2 ADD MSTORE PUSH1 0xA0 DUP3 ADD MLOAD SWAP2 SWAP3 POP PUSH1 0x0 SWAP1 DUP6 SWAP1 PUSH1 0xA SWAP1 PUSH2 0x1DF0 SWAP1 DUP6 SWAP1 PUSH2 0x4724 JUMP JUMPDEST PUSH2 0x1DFA SWAP2 SWAP1 PUSH2 0x47B7 JUMP JUMPDEST PUSH2 0x1E04 SWAP2 SWAP1 PUSH2 0x47B7 JUMP JUMPDEST SWAP7 SWAP6 POP POP POP POP POP POP JUMP JUMPDEST PUSH1 0x2 PUSH1 0x20 DUP2 SWAP1 MSTORE PUSH1 0x0 SWAP2 DUP3 MSTORE PUSH1 0x40 SWAP1 SWAP2 KECCAK256 DUP1 SLOAD PUSH1 0x1 DUP3 ADD SLOAD SWAP3 DUP3 ADD DUP1 SLOAD SWAP2 SWAP4 PUSH1 0x1 PUSH1 0x1 PUSH1 0xA0 SHL SUB AND SWAP3 SWAP2 PUSH2 0xCAC SWAP1 PUSH2 0x474E JUMP JUMPDEST PUSH1 0x10 SLOAD PUSH1 0x0 SWAP1 PUSH2 0x1E4F PUSH2 0x3B86 JUMP JUMPDEST DUP2 DUP2 MSTORE PUSH1 0x1 PUSH1 0x1 PUSH1 0xA0 SHL SUB DUP10 AND PUSH1 0x20 DUP3 ADD MSTORE PUSH1 0x40 DUP2 ADD DUP9 SWAP1 MSTORE PUSH1 0x60 DUP2 ADD DUP8 SWAP1 MSTORE PUSH1 0x80 DUP2 ADD DUP7 SWAP1 MSTORE PUSH1 0x16 SLOAD PUSH2 0x1E83 SWAP1 DUP6 PUSH2 0x4724 JUMP JUMPDEST PUSH1 0xA0 DUP3 ADD MSTORE PUSH1 0x3 DUP1 SLOAD PUSH1 0x1 DUP2 ADD DUP3 SSTORE PUSH1 0x0 SWAP2 SWAP1 SWAP2 MSTORE DUP2 MLOAD PUSH32 0xC2575A0E9E593C00F959F8C92F12DB2869C3395A3B0502D05E2516446F71F85B PUSH1 0x7 SWAP1 SWAP3 MUL SWAP2 DUP3 ADD SWAP1 DUP2 SSTORE PUSH1 0x20 DUP4 ADD MLOAD PUSH32 0xC2575A0E9E593C00F959F8C92F12DB2869C3395A3B0502D05E2516446F71F85C DUP4 ADD DUP1 SLOAD PUSH1 0x1 PUSH1 0x1 PUSH1 0xA0 SHL SUB NOT AND PUSH1 0x1 PUSH1 0x1 PUSH1 0xA0 SHL SUB SWAP1 SWAP3 AND SWAP2 SWAP1 SWAP2 OR SWAP1 SSTORE PUSH1 0x40 DUP4 ADD MLOAD DUP4 SWAP3 PUSH32 0xC2575A0E9E593C00F959F8C92F12DB2869C3395A3B0502D05E2516446F71F85D ADD SWAP1 PUSH2 0x1F3F SWAP1 DUP3 PUSH2 0x4828 JUMP JUMPDEST POP PUSH1 0x60 DUP3 ADD MLOAD PUSH1 0x3 DUP3 ADD SSTORE PUSH1 0x80 DUP3 ADD MLOAD PUSH1 0x4 DUP3 ADD SSTORE PUSH1 0xA0 DUP3 ADD MLOAD PUSH1 0x5 DUP3 ADD SSTORE PUSH1 0xC0 SWAP1 SWAP2 ADD MLOAD PUSH1 0x6 SWAP1 SWAP2 ADD DUP1 SLOAD PUSH1 0xFF NOT AND SWAP2 ISZERO ISZERO SWAP2 SWAP1 SWAP2 OR SWAP1 SSTORE DUP1 MLOAD PUSH1 0x1 PUSH1 0x1 PUSH1 0xA0 SHL SUB DUP11 AND PUSH1 0x0 SWAP1 DUP2 MSTORE PUSH1 0xA PUSH1 0x20 SWAP1 DUP2 MSTORE PUSH1 0x40 DUP1 DUP4 KECCAK256 SWAP4 SWAP1 SWAP4 SSTORE PUSH1 0x8 SWAP1 MSTORE SWAP1 DUP2 KECCAK256 SLOAD SWAP1 PUSH2 0x1FAD DUP3 PUSH1 0x1 PUSH2 0x473B JUMP JUMPDEST PUSH1 0x1 PUSH1 0x1 PUSH1 0xA0 SHL SUB DUP13 AND PUSH1 0x0 SWAP1 DUP2 MSTORE PUSH1 0x8 PUSH1 0x20 MSTORE PUSH1 0x40 DUP2 KECCAK256 DUP3 SWAP1 SSTORE SWAP1 SWAP2 POP JUMPDEST DUP10 DUP2 LT ISZERO PUSH2 0x20B2 JUMPI PUSH1 0x11 SLOAD PUSH1 0x40 DUP1 MLOAD PUSH1 0x80 DUP2 ADD DUP3 MSTORE PUSH1 0x0 PUSH1 0x20 DUP3 ADD DUP2 DUP2 MSTORE PUSH1 0x60 SWAP4 DUP4 ADD DUP5 SWAP1 MSTORE SWAP3 DUP3 ADD MSTORE DUP3 DUP2 MSTORE DUP7 MLOAD SWAP1 SWAP2 MSTORE DUP10 MLOAD DUP11 SWAP1 DUP5 SWAP1 DUP2 LT PUSH2 0x2012 JUMPI PUSH2 0x2012 PUSH2 0x4788 JUMP JUMPDEST PUSH1 0x20 SWAP1 DUP2 MUL SWAP2 SWAP1 SWAP2 ADD DUP2 ADD MLOAD PUSH1 0x40 DUP1 DUP5 ADD SWAP2 DUP3 MSTORE DUP9 MLOAD PUSH1 0x0 SWAP1 DUP2 MSTORE PUSH1 0x4 DUP1 DUP6 MSTORE SWAP2 DUP2 KECCAK256 DUP1 SLOAD PUSH1 0x1 DUP2 DUP2 ADD DUP4 SSTORE SWAP2 DUP4 MSTORE SWAP2 DUP6 SWAP1 KECCAK256 DUP7 MLOAD SWAP3 SWAP1 SWAP4 MUL SWAP1 SWAP3 ADD SWAP1 DUP2 SSTORE SWAP3 DUP5 ADD MLOAD SWAP1 DUP4 ADD SSTORE MLOAD DUP3 SWAP2 SWAP1 PUSH1 0x2 DUP3 ADD SWAP1 PUSH2 0x206C SWAP1 DUP3 PUSH2 0x4828 JUMP JUMPDEST POP PUSH1 0x60 SWAP2 SWAP1 SWAP2 ADD MLOAD PUSH1 0x3 SWAP1 SWAP2 ADD DUP1 SLOAD PUSH1 0xFF NOT AND SWAP2 ISZERO ISZERO SWAP2 SWAP1 SWAP2 OR SWAP1 SSTORE PUSH1 0x11 DUP1 SLOAD SWAP1 PUSH1 0x0 PUSH2 0x2098 DUP4 PUSH2 0x479E JUMP JUMPDEST SWAP2 SWAP1 POP SSTORE POP POP POP DUP1 DUP1 PUSH2 0x20AA SWAP1 PUSH2 0x479E JUMP JUMPDEST SWAP2 POP POP PUSH2 0x1FCC JUMP JUMPDEST POP PUSH1 0x10 DUP1 SLOAD SWAP1 PUSH1 0x0 PUSH2 0x20C3 DUP4 PUSH2 0x479E JUMP JUMPDEST SWAP1 SWAP2 SSTORE POP POP SWAP2 MLOAD SWAP11 SWAP10 POP POP POP POP POP POP POP POP POP POP JUMP JUMPDEST PUSH1 0x5 PUSH1 0x20 MSTORE DUP2 PUSH1 0x0 MSTORE PUSH1 0x40 PUSH1 0x0 KECCAK256 DUP2 DUP2 SLOAD DUP2 LT PUSH2 0x20F4 JUMPI PUSH1 0x0 DUP1 REVERT JUMPDEST PUSH1 0x0 SWAP2 DUP3 MSTORE PUSH1 0x20 SWAP1 SWAP2 KECCAK256 PUSH1 0x4 SWAP1 SWAP2 MUL ADD DUP1 SLOAD PUSH1 0x1 DUP3 ADD SLOAD PUSH1 0x2 DUP4 ADD SLOAD PUSH1 0x3 SWAP1 SWAP4 ADD SLOAD SWAP2 SWAP5 POP SWAP3 POP PUSH1 0x1 PUSH1 0x1 PUSH1 0xA0 SHL SUB DUP2 AND SWAP1 PUSH1 0xFF PUSH1 0x1 PUSH1 0xA0 SHL DUP3 DIV DUP2 AND SWAP2 PUSH1 0x1 PUSH1 0xA8 SHL SWAP1 DIV AND DUP7 JUMP JUMPDEST PUSH1 0x0 PUSH1 0x3 DUP4 DUP2 SLOAD DUP2 LT PUSH2 0x2152 JUMPI PUSH2 0x2152 PUSH2 0x4788 JUMP JUMPDEST SWAP1 PUSH1 0x0 MSTORE PUSH1 0x20 PUSH1 0x0 KECCAK256 SWAP1 PUSH1 0x7 MUL ADD PUSH1 0x40 MLOAD DUP1 PUSH1 0xE0 ADD PUSH1 0x40 MSTORE SWAP1 DUP2 PUSH1 0x0 DUP3 ADD SLOAD DUP2 MSTORE PUSH1 0x20 ADD PUSH1 0x1 DUP3 ADD PUSH1 0x0 SWAP1 SLOAD SWAP1 PUSH2 0x100 EXP SWAP1 DIV PUSH1 0x1 PUSH1 0x1 PUSH1 0xA0 SHL SUB AND PUSH1 0x1 PUSH1 0x1 PUSH1 0xA0 SHL SUB AND PUSH1 0x1 PUSH1 0x1 PUSH1 0xA0 SHL SUB AND DUP2 MSTORE PUSH1 0x20 ADD PUSH1 0x2 DUP3 ADD DUP1 SLOAD PUSH2 0x21B4 SWAP1 PUSH2 0x474E JUMP JUMPDEST DUP1 PUSH1 0x1F ADD PUSH1 0x20 DUP1 SWAP2 DIV MUL PUSH1 0x20 ADD PUSH1 0x40 MLOAD SWAP1 DUP2 ADD PUSH1 0x40 MSTORE DUP1 SWAP3 SWAP2 SWAP1 DUP2 DUP2 MSTORE PUSH1 0x20 ADD DUP3 DUP1 SLOAD PUSH2 0x21E0 SWAP1 PUSH2 0x474E JUMP JUMPDEST DUP1 ISZERO PUSH2 0x222D JUMPI DUP1 PUSH1 0x1F LT PUSH2 0x2202 JUMPI PUSH2 0x100 DUP1 DUP4 SLOAD DIV MUL DUP4 MSTORE SWAP2 PUSH1 0x20 ADD SWAP2 PUSH2 0x222D JUMP JUMPDEST DUP3 ADD SWAP2 SWAP1 PUSH1 0x0 MSTORE PUSH1 0x20 PUSH1 0x0 KECCAK256 SWAP1 JUMPDEST DUP2 SLOAD DUP2 MSTORE SWAP1 PUSH1 0x1 ADD SWAP1 PUSH1 0x20 ADD DUP1 DUP4 GT PUSH2 0x2210 JUMPI DUP3 SWAP1 SUB PUSH1 0x1F AND DUP3 ADD SWAP2 JUMPDEST POP POP POP SWAP2 DUP4 MSTORE POP POP PUSH1 0x3 DUP3 ADD SLOAD PUSH1 0x20 DUP3 ADD MSTORE PUSH1 0x4 DUP3 ADD SLOAD PUSH1 0x40 DUP3 ADD MSTORE PUSH1 0x5 DUP3 ADD SLOAD PUSH1 0x60 DUP3 ADD MSTORE PUSH1 0x6 SWAP1 SWAP2 ADD SLOAD PUSH1 0xFF AND ISZERO ISZERO PUSH1 0x80 SWAP1 SWAP2 ADD MSTORE SWAP1 POP PUSH1 0x0 PUSH2 0x2271 DUP5 PUSH2 0xEC2 JUMP JUMPDEST PUSH1 0x15 SLOAD PUSH1 0x40 MLOAD PUSH4 0xA9059CBB PUSH1 0xE0 SHL DUP2 MSTORE PUSH1 0x1 PUSH1 0x1 PUSH1 0xA0 SHL SUB DUP7 DUP2 AND PUSH1 0x4 DUP4 ADD MSTORE PUSH1 0x24 DUP3 ADD DUP5 SWAP1 MSTORE SWAP3 SWAP4 POP SWAP2 AND SWAP1 PUSH4 0xA9059CBB SWAP1 PUSH1 0x44 ADD PUSH1 0x20 PUSH1 0x40 MLOAD DUP1 DUP4 SUB DUP2 PUSH1 0x0 DUP8 GAS CALL ISZERO DUP1 ISZERO PUSH2 0x22C6 JUMPI RETURNDATASIZE PUSH1 0x0 DUP1 RETURNDATACOPY RETURNDATASIZE PUSH1 0x0 REVERT JUMPDEST POP POP POP POP PUSH1 0x40 MLOAD RETURNDATASIZE PUSH1 0x1F NOT PUSH1 0x1F DUP3 ADD AND DUP3 ADD DUP1 PUSH1 0x40 MSTORE POP DUP2 ADD SWAP1 PUSH2 0x22EA SWAP2 SWAP1 PUSH2 0x48E7 JUMP JUMPDEST POP PUSH1 0x0 PUSH2 0x22FB DUP6 DUP5 PUSH1 0x80 ADD MLOAD PUSH2 0x1CAC JUMP JUMPDEST PUSH1 0x15 SLOAD PUSH1 0x0 SLOAD PUSH1 0x40 MLOAD PUSH4 0xA9059CBB PUSH1 0xE0 SHL DUP2 MSTORE PUSH1 0x1 PUSH1 0x1 PUSH1 0xA0 SHL SUB SWAP2 DUP3 AND PUSH1 0x4 DUP3 ADD MSTORE PUSH1 0x24 DUP2 ADD DUP5 SWAP1 MSTORE SWAP3 SWAP4 POP AND SWAP1 PUSH4 0xA9059CBB SWAP1 PUSH1 0x44 ADD PUSH1 0x20 PUSH1 0x40 MLOAD DUP1 DUP4 SUB DUP2 PUSH1 0x0 DUP8 GAS CALL ISZERO DUP1 ISZERO PUSH2 0x2352 JUMPI RETURNDATASIZE PUSH1 0x0 DUP1 RETURNDATACOPY RETURNDATASIZE PUSH1 0x0 REVERT JUMPDEST POP POP POP POP PUSH1 0x40 MLOAD RETURNDATASIZE PUSH1 0x1F NOT PUSH1 0x1F DUP3 ADD AND DUP3 ADD DUP1 PUSH1 0x40 MSTORE POP DUP2 ADD SWAP1 PUSH2 0x2376 SWAP2 SWAP1 PUSH2 0x48E7 JUMP JUMPDEST POP PUSH2 0x237F PUSH2 0x3C63 JUMP JUMPDEST PUSH1 0x13 DUP1 SLOAD DUP3 MSTORE PUSH1 0x20 DUP3 ADD DUP8 DUP2 MSTORE PUSH1 0x1 PUSH1 0x1 PUSH1 0xA0 SHL SUB DUP8 DUP2 AND PUSH1 0x40 DUP6 ADD SWAP1 DUP2 MSTORE PUSH1 0x60 DUP6 ADD DUP8 DUP2 MSTORE PUSH1 0xD DUP1 SLOAD PUSH1 0x1 DUP2 ADD DUP3 SSTORE PUSH1 0x0 SWAP2 DUP3 MSTORE DUP8 MLOAD PUSH32 0xD7B6990105719101DABEB77144F2A3385C8033ACD3AF97E9423A695E81AD1EB5 PUSH1 0x5 SWAP1 SWAP3 MUL SWAP2 DUP3 ADD SSTORE SWAP5 MLOAD PUSH32 0xD7B6990105719101DABEB77144F2A3385C8033ACD3AF97E9423A695E81AD1EB6 DUP7 ADD SSTORE SWAP2 MLOAD PUSH32 0xD7B6990105719101DABEB77144F2A3385C8033ACD3AF97E9423A695E81AD1EB7 DUP6 ADD DUP1 SLOAD PUSH1 0x1 PUSH1 0x1 PUSH1 0xA0 SHL SUB NOT AND SWAP2 SWAP1 SWAP5 AND OR SWAP1 SWAP3 SSTORE SWAP1 MLOAD PUSH32 0xD7B6990105719101DABEB77144F2A3385C8033ACD3AF97E9423A695E81AD1EB8 DUP4 ADD SSTORE PUSH1 0x80 DUP5 ADD MLOAD PUSH32 0xD7B6990105719101DABEB77144F2A3385C8033ACD3AF97E9423A695E81AD1EB9 SWAP1 SWAP3 ADD DUP1 SLOAD PUSH1 0xFF NOT AND SWAP3 ISZERO ISZERO SWAP3 SWAP1 SWAP3 OR SWAP1 SWAP2 SSTORE DUP2 SLOAD SWAP2 SWAP1 PUSH2 0x24AB DUP4 PUSH2 0x479E JUMP JUMPDEST SWAP1 SWAP2 SSTORE POP POP PUSH1 0x0 DUP7 DUP2 MSTORE PUSH1 0x7 PUSH1 0x20 SWAP1 DUP2 MSTORE PUSH1 0x40 DUP1 DUP4 KECCAK256 PUSH1 0x1 PUSH1 0x1 PUSH1 0xA0 SHL SUB DUP10 AND DUP5 MSTORE SWAP1 SWAP2 MSTORE SWAP1 KECCAK256 DUP1 SLOAD PUSH1 0xFF NOT AND PUSH1 0x1 OR SWAP1 SSTORE PUSH2 0x24E5 PUSH2 0x3C63 JUMP JUMPDEST PUSH1 0x13 DUP1 SLOAD DUP3 MSTORE PUSH1 0x20 DUP3 ADD DUP9 DUP2 MSTORE PUSH1 0x0 DUP1 SLOAD PUSH1 0x1 PUSH1 0x1 PUSH1 0xA0 SHL SUB SWAP1 DUP2 AND PUSH1 0x40 DUP7 ADD SWAP1 DUP2 MSTORE PUSH1 0x60 DUP7 ADD DUP9 DUP2 MSTORE PUSH1 0xD DUP1 SLOAD PUSH1 0x1 DUP2 ADD DUP3 SSTORE SWAP1 DUP6 MSTORE DUP8 MLOAD PUSH32 0xD7B6990105719101DABEB77144F2A3385C8033ACD3AF97E9423A695E81AD1EB5 PUSH1 0x5 SWAP1 SWAP3 MUL SWAP2 DUP3 ADD SSTORE SWAP5 MLOAD PUSH32 0xD7B6990105719101DABEB77144F2A3385C8033ACD3AF97E9423A695E81AD1EB6 DUP7 ADD SSTORE SWAP1 MLOAD PUSH32 0xD7B6990105719101DABEB77144F2A3385C8033ACD3AF97E9423A695E81AD1EB7 DUP6 ADD DUP1 SLOAD PUSH1 0x1 PUSH1 0x1 PUSH1 0xA0 SHL SUB NOT AND SWAP2 SWAP1 SWAP4 AND OR SWAP1 SWAP2 SSTORE MLOAD PUSH32 0xD7B6990105719101DABEB77144F2A3385C8033ACD3AF97E9423A695E81AD1EB8 DUP4 ADD SSTORE PUSH1 0x80 DUP5 ADD MLOAD PUSH32 0xD7B6990105719101DABEB77144F2A3385C8033ACD3AF97E9423A695E81AD1EB9 SWAP1 SWAP3 ADD DUP1 SLOAD PUSH1 0xFF NOT AND SWAP3 ISZERO ISZERO SWAP3 SWAP1 SWAP3 OR SWAP1 SWAP2 SSTORE DUP2 SLOAD SWAP2 SWAP1 PUSH2 0x2612 DUP4 PUSH2 0x479E JUMP JUMPDEST SWAP2 SWAP1 POP SSTORE POP POP POP POP POP POP POP POP JUMP JUMPDEST PUSH1 0x1 PUSH1 0x1 PUSH1 0xA0 SHL SUB DUP1 DUP3 AND PUSH1 0x0 DUP2 DUP2 MSTORE PUSH1 0x2 PUSH1 0x20 MSTORE PUSH1 0x40 DUP2 KECCAK256 PUSH1 0x1 ADD SLOAD SWAP1 SWAP3 AND EQ PUSH2 0x264C JUMPI PUSH1 0x0 PUSH2 0x80E JUMP JUMPDEST PUSH1 0x1 SWAP3 SWAP2 POP POP JUMP JUMPDEST PUSH1 0x1 PUSH1 0x1 PUSH1 0xA0 SHL SUB DUP1 DUP3 AND PUSH1 0x0 SWAP1 DUP2 MSTORE PUSH1 0x1 PUSH1 0x20 DUP2 DUP2 MSTORE PUSH1 0x40 DUP1 DUP5 KECCAK256 DUP2 MLOAD PUSH2 0x100 DUP2 ADD DUP4 MSTORE DUP2 SLOAD DUP2 MSTORE SWAP4 DUP2 ADD SLOAD SWAP1 SWAP6 AND SWAP2 DUP4 ADD SWAP2 SWAP1 SWAP2 MSTORE PUSH1 0x2 DUP5 ADD DUP1 SLOAD SWAP4 SWAP5 SWAP3 SWAP4 SWAP2 DUP5 ADD SWAP2 PUSH2 0x26A2 SWAP1 PUSH2 0x474E JUMP JUMPDEST DUP1 PUSH1 0x1F ADD PUSH1 0x20 DUP1 SWAP2 DIV MUL PUSH1 0x20 ADD PUSH1 0x40 MLOAD SWAP1 DUP2 ADD PUSH1 0x40 MSTORE DUP1 SWAP3 SWAP2 SWAP1 DUP2 DUP2 MSTORE PUSH1 0x20 ADD DUP3 DUP1 SLOAD PUSH2 0x26CE SWAP1 PUSH2 0x474E JUMP JUMPDEST DUP1 ISZERO PUSH2 0x271B JUMPI DUP1 PUSH1 0x1F LT PUSH2 0x26F0 JUMPI PUSH2 0x100 DUP1 DUP4 SLOAD DIV MUL DUP4 MSTORE SWAP2 PUSH1 0x20 ADD SWAP2 PUSH2 0x271B JUMP JUMPDEST DUP3 ADD SWAP2 SWAP1 PUSH1 0x0 MSTORE PUSH1 0x20 PUSH1 0x0 KECCAK256 SWAP1 JUMPDEST DUP2 SLOAD DUP2 MSTORE SWAP1 PUSH1 0x1 ADD SWAP1 PUSH1 0x20 ADD DUP1 DUP4 GT PUSH2 0x26FE JUMPI DUP3 SWAP1 SUB PUSH1 0x1F AND DUP3 ADD SWAP2 JUMPDEST POP POP POP POP POP DUP2 MSTORE PUSH1 0x20 ADD PUSH1 0x3 DUP3 ADD DUP1 SLOAD PUSH2 0x2734 SWAP1 PUSH2 0x474E JUMP JUMPDEST DUP1 PUSH1 0x1F ADD PUSH1 0x20 DUP1 SWAP2 DIV MUL PUSH1 0x20 ADD PUSH1 0x40 MLOAD SWAP1 DUP2 ADD PUSH1 0x40 MSTORE DUP1 SWAP3 SWAP2 SWAP1 DUP2 DUP2 MSTORE PUSH1 0x20 ADD DUP3 DUP1 SLOAD PUSH2 0x2760 SWAP1 PUSH2 0x474E JUMP JUMPDEST DUP1 ISZERO PUSH2 0x27AD JUMPI DUP1 PUSH1 0x1F LT PUSH2 0x2782 JUMPI PUSH2 0x100 DUP1 DUP4 SLOAD DIV MUL DUP4 MSTORE SWAP2 PUSH1 0x20 ADD SWAP2 PUSH2 0x27AD JUMP JUMPDEST DUP3 ADD SWAP2 SWAP1 PUSH1 0x0 MSTORE PUSH1 0x20 PUSH1 0x0 KECCAK256 SWAP1 JUMPDEST DUP2 SLOAD DUP2 MSTORE SWAP1 PUSH1 0x1 ADD SWAP1 PUSH1 0x20 ADD DUP1 DUP4 GT PUSH2 0x2790 JUMPI DUP3 SWAP1 SUB PUSH1 0x1F AND DUP3 ADD SWAP2 JUMPDEST POP POP POP POP POP DUP2 MSTORE PUSH1 0x20 ADD PUSH1 0x4 DUP3 ADD DUP1 SLOAD PUSH2 0x27C6 SWAP1 PUSH2 0x474E JUMP JUMPDEST DUP1 PUSH1 0x1F ADD PUSH1 0x20 DUP1 SWAP2 DIV MUL PUSH1 0x20 ADD PUSH1 0x40 MLOAD SWAP1 DUP2 ADD PUSH1 0x40 MSTORE DUP1 SWAP3 SWAP2 SWAP1 DUP2 DUP2 MSTORE PUSH1 0x20 ADD DUP3 DUP1 SLOAD PUSH2 0x27F2 SWAP1 PUSH2 0x474E JUMP JUMPDEST DUP1 ISZERO PUSH2 0x283F JUMPI DUP1 PUSH1 0x1F LT PUSH2 0x2814 JUMPI PUSH2 0x100 DUP1 DUP4 SLOAD DIV MUL DUP4 MSTORE SWAP2 PUSH1 0x20 ADD SWAP2 PUSH2 0x283F JUMP JUMPDEST DUP3 ADD SWAP2 SWAP1 PUSH1 0x0 MSTORE PUSH1 0x20 PUSH1 0x0 KECCAK256 SWAP1 JUMPDEST DUP2 SLOAD DUP2 MSTORE SWAP1 PUSH1 0x1 ADD SWAP1 PUSH1 0x20 ADD DUP1 DUP4 GT PUSH2 0x2822 JUMPI DUP3 SWAP1 SUB PUSH1 0x1F AND DUP3 ADD SWAP2 JUMPDEST POP POP POP SWAP2 DUP4 MSTORE POP POP PUSH1 0x5 SWAP2 SWAP1 SWAP2 ADD SLOAD PUSH1 0xFF DUP1 DUP3 AND ISZERO ISZERO PUSH1 0x20 DUP1 DUP6 ADD SWAP2 SWAP1 SWAP2 MSTORE PUSH2 0x100 DUP4 DIV DUP3 AND ISZERO ISZERO PUSH1 0x40 DUP1 DUP7 ADD SWAP2 SWAP1 SWAP2 MSTORE PUSH3 0x10000 SWAP1 SWAP4 DIV SWAP1 SWAP2 AND ISZERO ISZERO PUSH1 0x60 SWAP1 SWAP4 ADD SWAP3 SWAP1 SWAP3 MSTORE PUSH1 0x1 PUSH1 0xC0 DUP5 ADD DUP2 SWAP1 MSTORE PUSH1 0x1 PUSH1 0x1 PUSH1 0xA0 SHL SUB DUP7 DUP2 AND PUSH1 0x0 SWAP1 DUP2 MSTORE DUP3 DUP6 MSTORE DUP4 SWAP1 KECCAK256 DUP6 MLOAD DUP2 SSTORE SWAP4 DUP6 ADD MLOAD SWAP2 DUP5 ADD DUP1 SLOAD PUSH1 0x1 PUSH1 0x1 PUSH1 0xA0 SHL SUB NOT AND SWAP3 SWAP1 SWAP2 AND SWAP2 SWAP1 SWAP2 OR SWAP1 SSTORE DUP3 ADD MLOAD SWAP2 SWAP3 POP DUP3 SWAP2 PUSH1 0x2 DUP3 ADD SWAP1 PUSH2 0x28DC SWAP1 DUP3 PUSH2 0x4828 JUMP JUMPDEST POP PUSH1 0x60 DUP3 ADD MLOAD PUSH1 0x3 DUP3 ADD SWAP1 PUSH2 0x28F1 SWAP1 DUP3 PUSH2 0x4828 JUMP JUMPDEST POP PUSH1 0x80 DUP3 ADD MLOAD PUSH1 0x4 DUP3 ADD SWAP1 PUSH2 0x2906 SWAP1 DUP3 PUSH2 0x4828 JUMP JUMPDEST POP PUSH1 0xA0 DUP3 ADD MLOAD PUSH1 0x5 SWAP1 SWAP2 ADD DUP1 SLOAD PUSH1 0xC0 DUP5 ADD MLOAD PUSH1 0xE0 SWAP1 SWAP5 ADD MLOAD ISZERO ISZERO PUSH3 0x10000 MUL PUSH3 0xFF0000 NOT SWAP5 ISZERO ISZERO PUSH2 0x100 MUL PUSH2 0xFF00 NOT SWAP5 ISZERO ISZERO SWAP5 SWAP1 SWAP5 AND PUSH2 0xFFFF NOT SWAP1 SWAP3 AND SWAP2 SWAP1 SWAP2 OR SWAP3 SWAP1 SWAP3 OR SWAP3 SWAP1 SWAP3 AND OR SWAP1 SSTORE POP POP JUMP JUMPDEST PUSH1 0x60 PUSH1 0x3 DUP1 SLOAD DUP1 PUSH1 0x20 MUL PUSH1 0x20 ADD PUSH1 0x40 MLOAD SWAP1 DUP2 ADD PUSH1 0x40 MSTORE DUP1 SWAP3 SWAP2 SWAP1 DUP2 DUP2 MSTORE PUSH1 0x20 ADD PUSH1 0x0 SWAP1 JUMPDEST DUP3 DUP3 LT ISZERO PUSH2 0x2A91 JUMPI PUSH1 0x0 DUP5 DUP2 MSTORE PUSH1 0x20 SWAP1 DUP2 SWAP1 KECCAK256 PUSH1 0x40 DUP1 MLOAD PUSH1 0xE0 DUP2 ADD DUP3 MSTORE PUSH1 0x7 DUP7 MUL SWAP1 SWAP3 ADD DUP1 SLOAD DUP4 MSTORE PUSH1 0x1 DUP2 ADD SLOAD PUSH1 0x1 PUSH1 0x1 PUSH1 0xA0 SHL SUB AND SWAP4 DUP4 ADD SWAP4 SWAP1 SWAP4 MSTORE PUSH1 0x2 DUP4 ADD DUP1 SLOAD SWAP3 SWAP4 SWAP3 SWAP2 DUP5 ADD SWAP2 PUSH2 0x29CD SWAP1 PUSH2 0x474E JUMP JUMPDEST DUP1 PUSH1 0x1F ADD PUSH1 0x20 DUP1 SWAP2 DIV MUL PUSH1 0x20 ADD PUSH1 0x40 MLOAD SWAP1 DUP2 ADD PUSH1 0x40 MSTORE DUP1 SWAP3 SWAP2 SWAP1 DUP2 DUP2 MSTORE PUSH1 0x20 ADD DUP3 DUP1 SLOAD PUSH2 0x29F9 SWAP1 PUSH2 0x474E JUMP JUMPDEST DUP1 ISZERO PUSH2 0x2A46 JUMPI DUP1 PUSH1 0x1F LT PUSH2 0x2A1B JUMPI PUSH2 0x100 DUP1 DUP4 SLOAD DIV MUL DUP4 MSTORE SWAP2 PUSH1 0x20 ADD SWAP2 PUSH2 0x2A46 JUMP JUMPDEST DUP3 ADD SWAP2 SWAP1 PUSH1 0x0 MSTORE PUSH1 0x20 PUSH1 0x0 KECCAK256 SWAP1 JUMPDEST DUP2 SLOAD DUP2 MSTORE SWAP1 PUSH1 0x1 ADD SWAP1 PUSH1 0x20 ADD DUP1 DUP4 GT PUSH2 0x2A29 JUMPI DUP3 SWAP1 SUB PUSH1 0x1F AND DUP3 ADD SWAP2 JUMPDEST POP POP POP SWAP2 DUP4 MSTORE POP POP PUSH1 0x3 DUP3 ADD SLOAD PUSH1 0x20 DUP1 DUP4 ADD SWAP2 SWAP1 SWAP2 MSTORE PUSH1 0x4 DUP4 ADD SLOAD PUSH1 0x40 DUP4 ADD MSTORE PUSH1 0x5 DUP4 ADD SLOAD PUSH1 0x60 DUP4 ADD MSTORE PUSH1 0x6 SWAP1 SWAP3 ADD SLOAD PUSH1 0xFF AND ISZERO ISZERO PUSH1 0x80 SWAP1 SWAP2 ADD MSTORE SWAP1 DUP3 MSTORE PUSH1 0x1 SWAP3 SWAP1 SWAP3 ADD SWAP2 ADD PUSH2 0x297A JUMP JUMPDEST POP POP POP POP SWAP1 POP SWAP1 JUMP JUMPDEST PUSH1 0xD DUP2 DUP2 SLOAD DUP2 LT PUSH2 0x2AAA JUMPI PUSH1 0x0 DUP1 REVERT JUMPDEST PUSH1 0x0 SWAP2 DUP3 MSTORE PUSH1 0x20 SWAP1 SWAP2 KECCAK256 PUSH1 0x5 SWAP1 SWAP2 MUL ADD DUP1 SLOAD PUSH1 0x1 DUP3 ADD SLOAD PUSH1 0x2 DUP4 ADD SLOAD PUSH1 0x3 DUP5 ADD SLOAD PUSH1 0x4 SWAP1 SWAP5 ADD SLOAD SWAP3 SWAP5 POP SWAP1 SWAP3 PUSH1 0x1 PUSH1 0x1 PUSH1 0xA0 SHL SUB SWAP1 SWAP2 AND SWAP2 PUSH1 0xFF AND DUP6 JUMP JUMPDEST PUSH1 0xC DUP2 DUP2 SLOAD DUP2 LT PUSH2 0x2AAA JUMPI PUSH1 0x0 DUP1 REVERT JUMPDEST PUSH1 0x60 PUSH1 0xB PUSH1 0x0 DUP4 DUP2 MSTORE PUSH1 0x20 ADD SWAP1 DUP2 MSTORE PUSH1 0x20 ADD PUSH1 0x0 KECCAK256 DUP1 SLOAD DUP1 PUSH1 0x20 MUL PUSH1 0x20 ADD PUSH1 0x40 MLOAD SWAP1 DUP2 ADD PUSH1 0x40 MSTORE DUP1 SWAP3 SWAP2 SWAP1 DUP2 DUP2 MSTORE PUSH1 0x20 ADD PUSH1 0x0 SWAP1 JUMPDEST DUP3 DUP3 LT ISZERO PUSH2 0x2CDD JUMPI PUSH1 0x0 DUP5 DUP2 MSTORE PUSH1 0x20 SWAP1 DUP2 SWAP1 KECCAK256 PUSH1 0x40 DUP1 MLOAD PUSH2 0x100 DUP2 ADD DUP3 MSTORE PUSH1 0x7 DUP7 MUL SWAP1 SWAP3 ADD DUP1 SLOAD DUP4 MSTORE PUSH1 0x1 DUP2 ADD SLOAD PUSH1 0x1 PUSH1 0x1 PUSH1 0xA0 SHL SUB AND SWAP4 DUP4 ADD SWAP4 SWAP1 SWAP4 MSTORE PUSH1 0x2 DUP4 ADD DUP1 SLOAD SWAP3 SWAP4 SWAP3 SWAP2 DUP5 ADD SWAP2 PUSH2 0x2B81 SWAP1 PUSH2 0x474E JUMP JUMPDEST DUP1 PUSH1 0x1F ADD PUSH1 0x20 DUP1 SWAP2 DIV MUL PUSH1 0x20 ADD PUSH1 0x40 MLOAD SWAP1 DUP2 ADD PUSH1 0x40 MSTORE DUP1 SWAP3 SWAP2 SWAP1 DUP2 DUP2 MSTORE PUSH1 0x20 ADD DUP3 DUP1 SLOAD PUSH2 0x2BAD SWAP1 PUSH2 0x474E JUMP JUMPDEST DUP1 ISZERO PUSH2 0x2BFA JUMPI DUP1 PUSH1 0x1F LT PUSH2 0x2BCF JUMPI PUSH2 0x100 DUP1 DUP4 SLOAD DIV MUL DUP4 MSTORE SWAP2 PUSH1 0x20 ADD SWAP2 PUSH2 0x2BFA JUMP JUMPDEST DUP3 ADD SWAP2 SWAP1 PUSH1 0x0 MSTORE PUSH1 0x20 PUSH1 0x0 KECCAK256 SWAP1 JUMPDEST DUP2 SLOAD DUP2 MSTORE SWAP1 PUSH1 0x1 ADD SWAP1 PUSH1 0x20 ADD DUP1 DUP4 GT PUSH2 0x2BDD JUMPI DUP3 SWAP1 SUB PUSH1 0x1F AND DUP3 ADD SWAP2 JUMPDEST POP POP POP POP POP DUP2 MSTORE PUSH1 0x20 ADD PUSH1 0x3 DUP3 ADD DUP1 SLOAD PUSH2 0x2C13 SWAP1 PUSH2 0x474E JUMP JUMPDEST DUP1 PUSH1 0x1F ADD PUSH1 0x20 DUP1 SWAP2 DIV MUL PUSH1 0x20 ADD PUSH1 0x40 MLOAD SWAP1 DUP2 ADD PUSH1 0x40 MSTORE DUP1 SWAP3 SWAP2 SWAP1 DUP2 DUP2 MSTORE PUSH1 0x20 ADD DUP3 DUP1 SLOAD PUSH2 0x2C3F SWAP1 PUSH2 0x474E JUMP JUMPDEST DUP1 ISZERO PUSH2 0x2C8C JUMPI DUP1 PUSH1 0x1F LT PUSH2 0x2C61 JUMPI PUSH2 0x100 DUP1 DUP4 SLOAD DIV MUL DUP4 MSTORE SWAP2 PUSH1 0x20 ADD SWAP2 PUSH2 0x2C8C JUMP JUMPDEST DUP3 ADD SWAP2 SWAP1 PUSH1 0x0 MSTORE PUSH1 0x20 PUSH1 0x0 KECCAK256 SWAP1 JUMPDEST DUP2 SLOAD DUP2 MSTORE SWAP1 PUSH1 0x1 ADD SWAP1 PUSH1 0x20 ADD DUP1 DUP4 GT PUSH2 0x2C6F JUMPI DUP3 SWAP1 SUB PUSH1 0x1F AND DUP3 ADD SWAP2 JUMPDEST POP POP POP SWAP2 DUP4 MSTORE POP POP PUSH1 0x4 DUP3 ADD SLOAD PUSH1 0x20 DUP1 DUP4 ADD SWAP2 SWAP1 SWAP2 MSTORE PUSH1 0x5 DUP4 ADD SLOAD PUSH1 0x40 DUP4 ADD MSTORE PUSH1 0x6 SWAP1 SWAP3 ADD SLOAD PUSH1 0xFF DUP1 DUP3 AND ISZERO ISZERO PUSH1 0x60 DUP5 ADD MSTORE PUSH2 0x100 SWAP1 SWAP2 DIV AND ISZERO ISZERO PUSH1 0x80 SWAP1 SWAP2 ADD MSTORE SWAP1 DUP3 MSTORE PUSH1 0x1 SWAP3 SWAP1 SWAP3 ADD SWAP2 ADD PUSH2 0x2B2D JUMP JUMPDEST POP POP POP POP SWAP1 POP SWAP2 SWAP1 POP JUMP JUMPDEST PUSH1 0x1 PUSH1 0x1 PUSH1 0xA0 SHL SUB DUP1 DUP3 AND PUSH1 0x0 DUP2 DUP2 MSTORE PUSH1 0x1 PUSH1 0x20 DUP2 SWAP1 MSTORE PUSH1 0x40 DUP3 KECCAK256 ADD SLOAD SWAP1 SWAP3 AND EQ PUSH2 0x264C JUMPI PUSH1 0x0 PUSH2 0x80E JUMP JUMPDEST PUSH1 0x0 PUSH2 0x2D20 DUP6 DUP6 PUSH2 0x784 JUMP JUMPDEST PUSH1 0x14 SLOAD PUSH1 0x40 DUP1 MLOAD PUSH1 0xA0 DUP2 ADD DUP3 MSTORE PUSH1 0x0 PUSH1 0x80 DUP3 ADD DUP2 DUP2 MSTORE DUP5 DUP4 MSTORE PUSH1 0x20 DUP1 DUP5 ADD DUP11 DUP2 MSTORE PUSH1 0x1 PUSH1 0x1 PUSH1 0xA0 SHL SUB DUP11 DUP2 AND DUP7 DUP9 ADD DUP2 DUP2 MSTORE PUSH1 0x60 DUP9 ADD DUP12 DUP2 MSTORE PUSH1 0xC DUP1 SLOAD PUSH1 0x1 DUP2 ADD DUP3 SSTORE SWAP1 DUP10 MSTORE DUP10 MLOAD PUSH32 0xDF6966C971051C3D54EC59162606531493A51404A002842F56009D7E5CF4A8C7 PUSH1 0x5 SWAP1 SWAP3 MUL SWAP2 DUP3 ADD SSTORE SWAP5 MLOAD PUSH32 0xDF6966C971051C3D54EC59162606531493A51404A002842F56009D7E5CF4A8C8 DUP7 ADD SSTORE SWAP1 MLOAD PUSH32 0xDF6966C971051C3D54EC59162606531493A51404A002842F56009D7E5CF4A8C9 DUP6 ADD DUP1 SLOAD PUSH1 0x1 PUSH1 0x1 PUSH1 0xA0 SHL SUB NOT AND SWAP2 SWAP1 SWAP5 AND OR SWAP1 SWAP3 SSTORE SWAP1 MLOAD PUSH32 0xDF6966C971051C3D54EC59162606531493A51404A002842F56009D7E5CF4A8CA DUP4 ADD SSTORE SWAP3 MLOAD PUSH32 0xDF6966C971051C3D54EC59162606531493A51404A002842F56009D7E5CF4A8CB SWAP1 SWAP2 ADD DUP1 SLOAD PUSH1 0xFF NOT AND SWAP2 ISZERO ISZERO SWAP2 SWAP1 SWAP2 OR SWAP1 SSTORE SWAP1 DUP3 MSTORE PUSH1 0x9 SWAP1 MSTORE SWAP2 SWAP1 SWAP2 KECCAK256 SLOAD SWAP3 SWAP4 POP SWAP1 SWAP2 PUSH2 0x2E67 DUP5 DUP3 PUSH2 0x473B JUMP JUMPDEST PUSH1 0x1 PUSH1 0x1 PUSH1 0xA0 SHL SUB DUP7 AND PUSH1 0x0 SWAP1 DUP2 MSTORE PUSH1 0x9 PUSH1 0x20 MSTORE PUSH1 0x40 DUP2 KECCAK256 DUP3 SWAP1 SSTORE PUSH1 0x14 DUP1 SLOAD SWAP3 SWAP4 POP SWAP1 PUSH2 0x2E93 DUP4 PUSH2 0x479E JUMP JUMPDEST SWAP2 SWAP1 POP SSTORE POP POP POP POP POP POP POP POP POP JUMP JUMPDEST PUSH2 0x2EAA PUSH2 0x3B86 JUMP JUMPDEST PUSH1 0x3 DUP3 DUP2 SLOAD DUP2 LT PUSH2 0x2EBD JUMPI PUSH2 0x2EBD PUSH2 0x4788 JUMP JUMPDEST SWAP1 PUSH1 0x0 MSTORE PUSH1 0x20 PUSH1 0x0 KECCAK256 SWAP1 PUSH1 0x7 MUL ADD PUSH1 0x40 MLOAD DUP1 PUSH1 0xE0 ADD PUSH1 0x40 MSTORE SWAP1 DUP2 PUSH1 0x0 DUP3 ADD SLOAD DUP2 MSTORE PUSH1 0x20 ADD PUSH1 0x1 DUP3 ADD PUSH1 0x0 SWAP1 SLOAD SWAP1 PUSH2 0x100 EXP SWAP1 DIV PUSH1 0x1 PUSH1 0x1 PUSH1 0xA0 SHL SUB AND PUSH1 0x1 PUSH1 0x1 PUSH1 0xA0 SHL SUB AND PUSH1 0x1 PUSH1 0x1 PUSH1 0xA0 SHL SUB AND DUP2 MSTORE PUSH1 0x20 ADD PUSH1 0x2 DUP3 ADD DUP1 SLOAD PUSH2 0x2F1F SWAP1 PUSH2 0x474E JUMP JUMPDEST DUP1 PUSH1 0x1F ADD PUSH1 0x20 DUP1 SWAP2 DIV MUL PUSH1 0x20 ADD PUSH1 0x40 MLOAD SWAP1 DUP2 ADD PUSH1 0x40 MSTORE DUP1 SWAP3 SWAP2 SWAP1 DUP2 DUP2 MSTORE PUSH1 0x20 ADD DUP3 DUP1 SLOAD PUSH2 0x2F4B SWAP1 PUSH2 0x474E JUMP JUMPDEST DUP1 ISZERO PUSH2 0x2F98 JUMPI DUP1 PUSH1 0x1F LT PUSH2 0x2F6D JUMPI PUSH2 0x100 DUP1 DUP4 SLOAD DIV MUL DUP4 MSTORE SWAP2 PUSH1 0x20 ADD SWAP2 PUSH2 0x2F98 JUMP JUMPDEST DUP3 ADD SWAP2 SWAP1 PUSH1 0x0 MSTORE PUSH1 0x20 PUSH1 0x0 KECCAK256 SWAP1 JUMPDEST DUP2 SLOAD DUP2 MSTORE SWAP1 PUSH1 0x1 ADD SWAP1 PUSH1 0x20 ADD DUP1 DUP4 GT PUSH2 0x2F7B JUMPI DUP3 SWAP1 SUB PUSH1 0x1F AND DUP3 ADD SWAP2 JUMPDEST POP POP POP SWAP2 DUP4 MSTORE POP POP PUSH1 0x3 DUP3 ADD SLOAD PUSH1 0x20 DUP3 ADD MSTORE PUSH1 0x4 DUP3 ADD SLOAD PUSH1 0x40 DUP3 ADD MSTORE PUSH1 0x5 DUP3 ADD SLOAD PUSH1 0x60 DUP3 ADD MSTORE PUSH1 0x6 SWAP1 SWAP2 ADD SLOAD PUSH1 0xFF AND ISZERO ISZERO PUSH1 0x80 SWAP1 SWAP2 ADD MSTORE SWAP3 SWAP2 POP POP JUMP JUMPDEST PUSH1 0x1 PUSH1 0x1 PUSH1 0xA0 SHL SUB DUP1 DUP4 AND PUSH1 0x0 SWAP1 DUP2 MSTORE PUSH1 0x2 PUSH1 0x20 DUP2 DUP2 MSTORE PUSH1 0x40 DUP1 DUP5 KECCAK256 DUP2 MLOAD PUSH2 0x100 DUP2 ADD DUP4 MSTORE DUP2 SLOAD DUP2 MSTORE PUSH1 0x1 DUP3 ADD SLOAD SWAP1 SWAP7 AND SWAP3 DUP7 ADD SWAP3 SWAP1 SWAP3 MSTORE SWAP2 DUP2 ADD DUP1 SLOAD SWAP4 SWAP5 SWAP4 SWAP2 SWAP3 DUP5 ADD SWAP2 PUSH2 0x3023 SWAP1 PUSH2 0x474E JUMP JUMPDEST DUP1 PUSH1 0x1F ADD PUSH1 0x20 DUP1 SWAP2 DIV MUL PUSH1 0x20 ADD PUSH1 0x40 MLOAD SWAP1 DUP2 ADD PUSH1 0x40 MSTORE DUP1 SWAP3 SWAP2 SWAP1 DUP2 DUP2 MSTORE PUSH1 0x20 ADD DUP3 DUP1 SLOAD PUSH2 0x304F SWAP1 PUSH2 0x474E JUMP JUMPDEST DUP1 ISZERO PUSH2 0x309C JUMPI DUP1 PUSH1 0x1F LT PUSH2 0x3071 JUMPI PUSH2 0x100 DUP1 DUP4 SLOAD DIV MUL DUP4 MSTORE SWAP2 PUSH1 0x20 ADD SWAP2 PUSH2 0x309C JUMP JUMPDEST DUP3 ADD SWAP2 SWAP1 PUSH1 0x0 MSTORE PUSH1 0x20 PUSH1 0x0 KECCAK256 SWAP1 JUMPDEST DUP2 SLOAD DUP2 MSTORE SWAP1 PUSH1 0x1 ADD SWAP1 PUSH1 0x20 ADD DUP1 DUP4 GT PUSH2 0x307F JUMPI DUP3 SWAP1 SUB PUSH1 0x1F AND DUP3 ADD SWAP2 JUMPDEST POP POP POP POP POP DUP2 MSTORE PUSH1 0x20 ADD PUSH1 0x3 DUP3 ADD DUP1 SLOAD PUSH2 0x30B5 SWAP1 PUSH2 0x474E JUMP JUMPDEST DUP1 PUSH1 0x1F ADD PUSH1 0x20 DUP1 SWAP2 DIV MUL PUSH1 0x20 ADD PUSH1 0x40 MLOAD SWAP1 DUP2 ADD PUSH1 0x40 MSTORE DUP1 SWAP3 SWAP2 SWAP1 DUP2 DUP2 MSTORE PUSH1 0x20 ADD DUP3 DUP1 SLOAD PUSH2 0x30E1 SWAP1 PUSH2 0x474E JUMP JUMPDEST DUP1 ISZERO PUSH2 0x312E JUMPI DUP1 PUSH1 0x1F LT PUSH2 0x3103 JUMPI PUSH2 0x100 DUP1 DUP4 SLOAD DIV MUL DUP4 MSTORE SWAP2 PUSH1 0x20 ADD SWAP2 PUSH2 0x312E JUMP JUMPDEST DUP3 ADD SWAP2 SWAP1 PUSH1 0x0 MSTORE PUSH1 0x20 PUSH1 0x0 KECCAK256 SWAP1 JUMPDEST DUP2 SLOAD DUP2 MSTORE SWAP1 PUSH1 0x1 ADD SWAP1 PUSH1 0x20 ADD DUP1 DUP4 GT PUSH2 0x3111 JUMPI DUP3 SWAP1 SUB PUSH1 0x1F AND DUP3 ADD SWAP2 JUMPDEST POP POP POP SWAP2 DUP4 MSTORE POP POP PUSH1 0x4 DUP3 ADD SLOAD PUSH1 0x20 DUP3 ADD MSTORE PUSH1 0x5 DUP3 ADD SLOAD PUSH1 0x40 DUP3 ADD MSTORE PUSH1 0x6 SWAP1 SWAP2 ADD SLOAD PUSH1 0xFF DUP1 DUP3 AND ISZERO ISZERO PUSH1 0x60 DUP5 ADD MSTORE PUSH2 0x100 SWAP1 SWAP2 DIV AND ISZERO ISZERO PUSH1 0x80 SWAP1 SWAP2 ADD MSTORE PUSH1 0x3 DUP1 SLOAD SWAP2 SWAP3 POP PUSH1 0x0 SWAP2 DUP7 SWAP1 DUP2 LT PUSH2 0x3185 JUMPI PUSH2 0x3185 PUSH2 0x4788 JUMP JUMPDEST SWAP1 PUSH1 0x0 MSTORE PUSH1 0x20 PUSH1 0x0 KECCAK256 SWAP1 PUSH1 0x7 MUL ADD PUSH1 0x40 MLOAD DUP1 PUSH1 0xE0 ADD PUSH1 0x40 MSTORE SWAP1 DUP2 PUSH1 0x0 DUP3 ADD SLOAD DUP2 MSTORE PUSH1 0x20 ADD PUSH1 0x1 DUP3 ADD PUSH1 0x0 SWAP1 SLOAD SWAP1 PUSH2 0x100 EXP SWAP1 DIV PUSH1 0x1 PUSH1 0x1 PUSH1 0xA0 SHL SUB AND PUSH1 0x1 PUSH1 0x1 PUSH1 0xA0 SHL SUB AND PUSH1 0x1 PUSH1 0x1 PUSH1 0xA0 SHL SUB AND DUP2 MSTORE PUSH1 0x20 ADD PUSH1 0x2 DUP3 ADD DUP1 SLOAD PUSH2 0x31E7 SWAP1 PUSH2 0x474E JUMP JUMPDEST DUP1 PUSH1 0x1F ADD PUSH1 0x20 DUP1 SWAP2 DIV MUL PUSH1 0x20 ADD PUSH1 0x40 MLOAD SWAP1 DUP2 ADD PUSH1 0x40 MSTORE DUP1 SWAP3 SWAP2 SWAP1 DUP2 DUP2 MSTORE PUSH1 0x20 ADD DUP3 DUP1 SLOAD PUSH2 0x3213 SWAP1 PUSH2 0x474E JUMP JUMPDEST DUP1 ISZERO PUSH2 0x3260 JUMPI DUP1 PUSH1 0x1F LT PUSH2 0x3235 JUMPI PUSH2 0x100 DUP1 DUP4 SLOAD DIV MUL DUP4 MSTORE SWAP2 PUSH1 0x20 ADD SWAP2 PUSH2 0x3260 JUMP JUMPDEST DUP3 ADD SWAP2 SWAP1 PUSH1 0x0 MSTORE PUSH1 0x20 PUSH1 0x0 KECCAK256 SWAP1 JUMPDEST DUP2 SLOAD DUP2 MSTORE SWAP1 PUSH1 0x1 ADD SWAP1 PUSH1 0x20 ADD DUP1 DUP4 GT PUSH2 0x3243 JUMPI DUP3 SWAP1 SUB PUSH1 0x1F AND DUP3 ADD SWAP2 JUMPDEST POP POP POP SWAP2 DUP4 MSTORE POP POP PUSH1 0x3 DUP3 ADD SLOAD PUSH1 0x20 DUP3 ADD MSTORE PUSH1 0x4 DUP3 ADD SLOAD PUSH1 0x40 DUP3 ADD MSTORE PUSH1 0x5 DUP3 ADD SLOAD PUSH1 0x60 DUP1 DUP4 ADD SWAP2 SWAP1 SWAP2 MSTORE PUSH1 0x6 SWAP1 SWAP3 ADD SLOAD PUSH1 0xFF AND ISZERO ISZERO PUSH1 0x80 SWAP1 SWAP2 ADD MSTORE DUP2 ADD MLOAD SWAP1 SWAP2 POP PUSH1 0x0 JUMPDEST DUP2 DUP2 LT ISZERO PUSH2 0x33B3 JUMPI PUSH2 0x32B4 PUSH2 0x3BCE JUMP JUMPDEST PUSH1 0x12 SLOAD DUP1 DUP3 MSTORE PUSH1 0x20 DUP3 ADD DUP4 SWAP1 MSTORE PUSH1 0x40 DUP3 ADD DUP10 SWAP1 MSTORE PUSH1 0x1 PUSH1 0x1 PUSH1 0xA0 SHL SUB DUP9 AND PUSH1 0x60 DUP4 ADD MSTORE DUP7 MLOAD DUP8 SWAP1 DUP5 SWAP1 DUP2 LT PUSH2 0x32EB JUMPI PUSH2 0x32EB PUSH2 0x4788 JUMP JUMPDEST PUSH1 0x20 SWAP1 DUP2 MUL SWAP2 SWAP1 SWAP2 ADD DUP2 ADD MLOAD ISZERO ISZERO PUSH1 0x80 DUP5 ADD SWAP1 DUP2 MSTORE PUSH1 0x0 DUP12 DUP2 MSTORE PUSH1 0x5 DUP4 MSTORE PUSH1 0x40 DUP1 DUP3 KECCAK256 DUP1 SLOAD PUSH1 0x1 DUP2 DUP2 ADD DUP4 SSTORE SWAP2 DUP5 MSTORE DUP6 DUP5 KECCAK256 DUP9 MLOAD PUSH1 0x4 SWAP1 SWAP3 MUL ADD SWAP1 DUP2 SSTORE SWAP5 DUP8 ADD MLOAD SWAP1 DUP6 ADD SSTORE DUP6 ADD MLOAD PUSH1 0x2 DUP5 ADD SSTORE PUSH1 0x60 DUP6 ADD MLOAD PUSH1 0x3 SWAP1 SWAP4 ADD DUP1 SLOAD SWAP3 MLOAD PUSH1 0xA0 DUP8 ADD MLOAD ISZERO ISZERO PUSH1 0x1 PUSH1 0xA8 SHL MUL PUSH1 0xFF PUSH1 0xA8 SHL NOT SWAP2 ISZERO ISZERO PUSH1 0x1 PUSH1 0xA0 SHL MUL PUSH1 0x1 PUSH1 0x1 PUSH1 0xA8 SHL SUB NOT SWAP1 SWAP6 AND PUSH1 0x1 PUSH1 0x1 PUSH1 0xA0 SHL SUB SWAP1 SWAP7 AND SWAP6 SWAP1 SWAP6 OR SWAP4 SWAP1 SWAP4 OR SWAP3 SWAP1 SWAP3 AND SWAP3 SWAP1 SWAP3 OR SWAP1 SSTORE PUSH1 0x12 DUP1 SLOAD SWAP2 PUSH2 0x3399 DUP4 PUSH2 0x479E JUMP JUMPDEST SWAP2 SWAP1 POP SSTORE POP POP POP DUP1 DUP1 PUSH2 0x33AB SWAP1 PUSH2 0x479E JUMP JUMPDEST SWAP2 POP POP PUSH2 0x32A4 JUMP JUMPDEST POP PUSH1 0x0 DUP7 DUP2 MSTORE PUSH1 0x6 PUSH1 0x20 SWAP1 DUP2 MSTORE PUSH1 0x40 DUP1 DUP4 KECCAK256 PUSH1 0x1 PUSH1 0x1 PUSH1 0xA0 SHL SUB DUP10 AND DUP5 MSTORE DUP3 MSTORE DUP1 DUP4 KECCAK256 DUP1 SLOAD PUSH1 0xFF NOT AND PUSH1 0x1 OR SWAP1 SSTORE DUP9 DUP4 MSTORE PUSH1 0xB SWAP1 SWAP2 MSTORE SWAP1 KECCAK256 PUSH2 0x33F4 DUP7 PUSH2 0x131B JUMP JUMPDEST DUP2 SLOAD PUSH1 0x1 DUP1 DUP3 ADD DUP5 SSTORE PUSH1 0x0 SWAP4 DUP5 MSTORE PUSH1 0x20 SWAP4 DUP5 SWAP1 KECCAK256 DUP4 MLOAD PUSH1 0x7 SWAP1 SWAP4 MUL ADD SWAP2 DUP3 SSTORE SWAP3 DUP3 ADD MLOAD SWAP3 DUP2 ADD DUP1 SLOAD PUSH1 0x1 PUSH1 0x1 PUSH1 0xA0 SHL SUB NOT AND PUSH1 0x1 PUSH1 0x1 PUSH1 0xA0 SHL SUB SWAP1 SWAP5 AND SWAP4 SWAP1 SWAP4 OR SWAP1 SWAP3 SSTORE PUSH1 0x40 DUP2 ADD MLOAD SWAP1 SWAP2 SWAP1 PUSH1 0x2 DUP3 ADD SWAP1 PUSH2 0x344F SWAP1 DUP3 PUSH2 0x4828 JUMP JUMPDEST POP PUSH1 0x60 DUP3 ADD MLOAD PUSH1 0x3 DUP3 ADD SWAP1 PUSH2 0x3464 SWAP1 DUP3 PUSH2 0x4828 JUMP JUMPDEST POP PUSH1 0x80 DUP3 ADD MLOAD PUSH1 0x4 DUP3 ADD SSTORE PUSH1 0xA0 DUP1 DUP4 ADD MLOAD PUSH1 0x5 DUP4 ADD SSTORE PUSH1 0xC0 DUP4 ADD MLOAD PUSH1 0x6 SWAP1 SWAP3 ADD DUP1 SLOAD PUSH1 0xE0 SWAP1 SWAP5 ADD MLOAD ISZERO ISZERO PUSH2 0x100 MUL PUSH2 0xFF00 NOT SWAP4 ISZERO ISZERO SWAP4 SWAP1 SWAP4 AND PUSH2 0xFFFF NOT SWAP1 SWAP5 AND SWAP4 SWAP1 SWAP4 OR SWAP2 SWAP1 SWAP2 OR SWAP1 SWAP2 SSTORE DUP4 ADD DUP1 MLOAD PUSH1 0x1 SWAP2 SWAP1 PUSH2 0x34C2 SWAP1 DUP4 SWAP1 PUSH2 0x473B JUMP JUMPDEST SWAP1 MSTORE POP PUSH1 0x1 PUSH1 0x1 PUSH1 0xA0 SHL SUB DUP6 DUP2 AND PUSH1 0x0 SWAP1 DUP2 MSTORE PUSH1 0x2 PUSH1 0x20 DUP2 DUP2 MSTORE PUSH1 0x40 SWAP3 DUP4 SWAP1 KECCAK256 DUP8 MLOAD DUP2 SSTORE SWAP1 DUP8 ADD MLOAD PUSH1 0x1 DUP3 ADD DUP1 SLOAD PUSH1 0x1 PUSH1 0x1 PUSH1 0xA0 SHL SUB NOT AND SWAP2 SWAP1 SWAP6 AND OR SWAP1 SWAP4 SSTORE SWAP1 DUP6 ADD MLOAD DUP6 SWAP3 SWAP2 DUP3 ADD SWAP1 PUSH2 0x3516 SWAP1 DUP3 PUSH2 0x4828 JUMP JUMPDEST POP PUSH1 0x60 DUP3 ADD MLOAD PUSH1 0x3 DUP3 ADD SWAP1 PUSH2 0x352B SWAP1 DUP3 PUSH2 0x4828 JUMP JUMPDEST POP PUSH1 0x80 DUP3 ADD MLOAD PUSH1 0x4 DUP3 ADD SSTORE PUSH1 0xA0 DUP3 ADD MLOAD PUSH1 0x5 DUP3 ADD SSTORE PUSH1 0xC0 DUP3 ADD MLOAD PUSH1 0x6 SWAP1 SWAP2 ADD DUP1 SLOAD PUSH1 0xE0 SWAP1 SWAP4 ADD MLOAD ISZERO ISZERO PUSH2 0x100 MUL PUSH2 0xFF00 NOT SWAP3 ISZERO ISZERO SWAP3 SWAP1 SWAP3 AND PUSH2 0xFFFF NOT SWAP1 SWAP4 AND SWAP3 SWAP1 SWAP3 OR OR SWAP1 SSTORE POP POP POP POP POP POP JUMP JUMPDEST PUSH1 0x60 PUSH1 0x5 PUSH1 0x0 DUP4 DUP2 MSTORE PUSH1 0x20 ADD SWAP1 DUP2 MSTORE PUSH1 0x20 ADD PUSH1 0x0 KECCAK256 DUP1 SLOAD DUP1 PUSH1 0x20 MUL PUSH1 0x20 ADD PUSH1 0x40 MLOAD SWAP1 DUP2 ADD PUSH1 0x40 MSTORE DUP1 SWAP3 SWAP2 SWAP1 DUP2 DUP2 MSTORE PUSH1 0x20 ADD PUSH1 0x0 SWAP1 JUMPDEST DUP3 DUP3 LT ISZERO PUSH2 0x2CDD JUMPI PUSH1 0x0 DUP5 DUP2 MSTORE PUSH1 0x20 SWAP1 DUP2 SWAP1 KECCAK256 PUSH1 0x40 DUP1 MLOAD PUSH1 0xC0 DUP2 ADD DUP3 MSTORE PUSH1 0x4 DUP7 MUL SWAP1 SWAP3 ADD DUP1 SLOAD DUP4 MSTORE PUSH1 0x1 DUP1 DUP3 ADD SLOAD DUP5 DUP7 ADD MSTORE PUSH1 0x2 DUP3 ADD SLOAD SWAP3 DUP5 ADD SWAP3 SWAP1 SWAP3 MSTORE PUSH1 0x3 ADD SLOAD PUSH1 0x1 PUSH1 0x1 PUSH1 0xA0 SHL SUB DUP2 AND PUSH1 0x60 DUP5 ADD MSTORE PUSH1 0xFF PUSH1 0x1 PUSH1 0xA0 SHL DUP3 DIV DUP2 AND ISZERO ISZERO PUSH1 0x80 DUP6 ADD MSTORE PUSH1 0x1 PUSH1 0xA8 SHL SWAP1 SWAP2 DIV AND ISZERO ISZERO PUSH1 0xA0 DUP4 ADD MSTORE SWAP1 DUP4 MSTORE SWAP1 SWAP3 ADD SWAP2 ADD PUSH2 0x35AE JUMP JUMPDEST PUSH1 0x60 PUSH1 0x4 PUSH1 0x0 DUP4 DUP2 MSTORE PUSH1 0x20 ADD SWAP1 DUP2 MSTORE PUSH1 0x20 ADD PUSH1 0x0 KECCAK256 DUP1 SLOAD DUP1 PUSH1 0x20 MUL PUSH1 0x20 ADD PUSH1 0x40 MLOAD SWAP1 DUP2 ADD PUSH1 0x40 MSTORE DUP1 SWAP3 SWAP2 SWAP1 DUP2 DUP2 MSTORE PUSH1 0x20 ADD PUSH1 0x0 SWAP1 JUMPDEST DUP3 DUP3 LT ISZERO PUSH2 0x2CDD JUMPI DUP4 DUP3 SWAP1 PUSH1 0x0 MSTORE PUSH1 0x20 PUSH1 0x0 KECCAK256 SWAP1 PUSH1 0x4 MUL ADD PUSH1 0x40 MLOAD DUP1 PUSH1 0x80 ADD PUSH1 0x40 MSTORE SWAP1 DUP2 PUSH1 0x0 DUP3 ADD SLOAD DUP2 MSTORE PUSH1 0x20 ADD PUSH1 0x1 DUP3 ADD SLOAD DUP2 MSTORE PUSH1 0x20 ADD PUSH1 0x2 DUP3 ADD DUP1 SLOAD PUSH2 0x36AA SWAP1 PUSH2 0x474E JUMP JUMPDEST DUP1 PUSH1 0x1F ADD PUSH1 0x20 DUP1 SWAP2 DIV MUL PUSH1 0x20 ADD PUSH1 0x40 MLOAD SWAP1 DUP2 ADD PUSH1 0x40 MSTORE DUP1 SWAP3 SWAP2 SWAP1 DUP2 DUP2 MSTORE PUSH1 0x20 ADD DUP3 DUP1 SLOAD PUSH2 0x36D6 SWAP1 PUSH2 0x474E JUMP JUMPDEST DUP1 ISZERO PUSH2 0x3723 JUMPI DUP1 PUSH1 0x1F LT PUSH2 0x36F8 JUMPI PUSH2 0x100 DUP1 DUP4 SLOAD DIV MUL DUP4 MSTORE SWAP2 PUSH1 0x20 ADD SWAP2 PUSH2 0x3723 JUMP JUMPDEST DUP3 ADD SWAP2 SWAP1 PUSH1 0x0 MSTORE PUSH1 0x20 PUSH1 0x0 KECCAK256 SWAP1 JUMPDEST DUP2 SLOAD DUP2 MSTORE SWAP1 PUSH1 0x1 ADD SWAP1 PUSH1 0x20 ADD DUP1 DUP4 GT PUSH2 0x3706 JUMPI DUP3 SWAP1 SUB PUSH1 0x1F AND DUP3 ADD SWAP2 JUMPDEST POP POP POP SWAP2 DUP4 MSTORE POP POP PUSH1 0x3 SWAP2 SWAP1 SWAP2 ADD SLOAD PUSH1 0xFF AND ISZERO ISZERO PUSH1 0x20 SWAP2 DUP3 ADD MSTORE SWAP1 DUP3 MSTORE PUSH1 0x1 SWAP3 SWAP1 SWAP3 ADD SWAP2 ADD PUSH2 0x3663 JUMP JUMPDEST PUSH1 0x60 PUSH1 0x4 PUSH1 0x0 DUP4 DUP2 MSTORE PUSH1 0x20 ADD SWAP1 DUP2 MSTORE PUSH1 0x20 ADD PUSH1 0x0 KECCAK256 DUP1 SLOAD DUP1 PUSH1 0x20 MUL PUSH1 0x20 ADD PUSH1 0x40 MLOAD SWAP1 DUP2 ADD PUSH1 0x40 MSTORE DUP1 SWAP3 SWAP2 SWAP1 DUP2 DUP2 MSTORE PUSH1 0x20 ADD PUSH1 0x0 SWAP1 JUMPDEST DUP3 DUP3 LT ISZERO PUSH2 0x2CDD JUMPI DUP4 DUP3 SWAP1 PUSH1 0x0 MSTORE PUSH1 0x20 PUSH1 0x0 KECCAK256 SWAP1 PUSH1 0x4 MUL ADD PUSH1 0x40 MLOAD DUP1 PUSH1 0x80 ADD PUSH1 0x40 MSTORE SWAP1 DUP2 PUSH1 0x0 DUP3 ADD SLOAD DUP2 MSTORE PUSH1 0x20 ADD PUSH1 0x1 DUP3 ADD SLOAD DUP2 MSTORE PUSH1 0x20 ADD PUSH1 0x2 DUP3 ADD DUP1 SLOAD PUSH2 0x37C9 SWAP1 PUSH2 0x474E JUMP JUMPDEST DUP1 PUSH1 0x1F ADD PUSH1 0x20 DUP1 SWAP2 DIV MUL PUSH1 0x20 ADD PUSH1 0x40 MLOAD SWAP1 DUP2 ADD PUSH1 0x40 MSTORE DUP1 SWAP3 SWAP2 SWAP1 DUP2 DUP2 MSTORE PUSH1 0x20 ADD DUP3 DUP1 SLOAD PUSH2 0x37F5 SWAP1 PUSH2 0x474E JUMP JUMPDEST DUP1 ISZERO PUSH2 0x3842 JUMPI DUP1 PUSH1 0x1F LT PUSH2 0x3817 JUMPI PUSH2 0x100 DUP1 DUP4 SLOAD DIV MUL DUP4 MSTORE SWAP2 PUSH1 0x20 ADD SWAP2 PUSH2 0x3842 JUMP JUMPDEST DUP3 ADD SWAP2 SWAP1 PUSH1 0x0 MSTORE PUSH1 0x20 PUSH1 0x0 KECCAK256 SWAP1 JUMPDEST DUP2 SLOAD DUP2 MSTORE SWAP1 PUSH1 0x1 ADD SWAP1 PUSH1 0x20 ADD DUP1 DUP4 GT PUSH2 0x3825 JUMPI DUP3 SWAP1 SUB PUSH1 0x1F AND DUP3 ADD SWAP2 JUMPDEST POP POP POP SWAP2 DUP4 MSTORE POP POP PUSH1 0x3 SWAP2 SWAP1 SWAP2 ADD SLOAD PUSH1 0xFF AND ISZERO ISZERO PUSH1 0x20 SWAP2 DUP3 ADD MSTORE SWAP1 DUP3 MSTORE PUSH1 0x1 SWAP3 SWAP1 SWAP3 ADD SWAP2 ADD PUSH2 0x3782 JUMP JUMPDEST PUSH1 0x1 PUSH1 0x20 DUP2 SWAP1 MSTORE PUSH1 0x0 SWAP2 DUP3 MSTORE PUSH1 0x40 SWAP1 SWAP2 KECCAK256 DUP1 SLOAD SWAP2 DUP2 ADD SLOAD PUSH1 0x2 DUP3 ADD DUP1 SLOAD PUSH1 0x1 PUSH1 0x1 PUSH1 0xA0 SHL SUB SWAP1 SWAP3 AND SWAP3 SWAP2 PUSH2 0x389F SWAP1 PUSH2 0x474E JUMP JUMPDEST DUP1 PUSH1 0x1F ADD PUSH1 0x20 DUP1 SWAP2 DIV MUL PUSH1 0x20 ADD PUSH1 0x40 MLOAD SWAP1 DUP2 ADD PUSH1 0x40 MSTORE DUP1 SWAP3 SWAP2 SWAP1 DUP2 DUP2 MSTORE PUSH1 0x20 ADD DUP3 DUP1 SLOAD PUSH2 0x38CB SWAP1 PUSH2 0x474E JUMP JUMPDEST DUP1 ISZERO PUSH2 0x3918 JUMPI DUP1 PUSH1 0x1F LT PUSH2 0x38ED JUMPI PUSH2 0x100 DUP1 DUP4 SLOAD DIV MUL DUP4 MSTORE SWAP2 PUSH1 0x20 ADD SWAP2 PUSH2 0x3918 JUMP JUMPDEST DUP3 ADD SWAP2 SWAP1 PUSH1 0x0 MSTORE PUSH1 0x20 PUSH1 0x0 KECCAK256 SWAP1 JUMPDEST DUP2 SLOAD DUP2 MSTORE SWAP1 PUSH1 0x1 ADD SWAP1 PUSH1 0x20 ADD DUP1 DUP4 GT PUSH2 0x38FB JUMPI DUP3 SWAP1 SUB PUSH1 0x1F AND DUP3 ADD SWAP2 JUMPDEST POP POP POP POP POP SWAP1 DUP1 PUSH1 0x3 ADD DUP1 SLOAD PUSH2 0x392D SWAP1 PUSH2 0x474E JUMP JUMPDEST DUP1 PUSH1 0x1F ADD PUSH1 0x20 DUP1 SWAP2 DIV MUL PUSH1 0x20 ADD PUSH1 0x40 MLOAD SWAP1 DUP2 ADD PUSH1 0x40 MSTORE DUP1 SWAP3 SWAP2 SWAP1 DUP2 DUP2 MSTORE PUSH1 0x20 ADD DUP3 DUP1 SLOAD PUSH2 0x3959 SWAP1 PUSH2 0x474E JUMP JUMPDEST DUP1 ISZERO PUSH2 0x39A6 JUMPI DUP1 PUSH1 0x1F LT PUSH2 0x397B JUMPI PUSH2 0x100 DUP1 DUP4 SLOAD DIV MUL DUP4 MSTORE SWAP2 PUSH1 0x20 ADD SWAP2 PUSH2 0x39A6 JUMP JUMPDEST DUP3 ADD SWAP2 SWAP1 PUSH1 0x0 MSTORE PUSH1 0x20 PUSH1 0x0 KECCAK256 SWAP1 JUMPDEST DUP2 SLOAD DUP2 MSTORE SWAP1 PUSH1 0x1 ADD SWAP1 PUSH1 0x20 ADD DUP1 DUP4 GT PUSH2 0x3989 JUMPI DUP3 SWAP1 SUB PUSH1 0x1F AND DUP3 ADD SWAP2 JUMPDEST POP POP POP POP POP SWAP1 DUP1 PUSH1 0x4 ADD DUP1 SLOAD PUSH2 0x39BB SWAP1 PUSH2 0x474E JUMP JUMPDEST DUP1 PUSH1 0x1F ADD PUSH1 0x20 DUP1 SWAP2 DIV MUL PUSH1 0x20 ADD PUSH1 0x40 MLOAD SWAP1 DUP2 ADD PUSH1 0x40 MSTORE DUP1 SWAP3 SWAP2 SWAP1 DUP2 DUP2 MSTORE PUSH1 0x20 ADD DUP3 DUP1 SLOAD PUSH2 0x39E7 SWAP1 PUSH2 0x474E JUMP JUMPDEST DUP1 ISZERO PUSH2 0x3A34 JUMPI DUP1 PUSH1 0x1F LT PUSH2 0x3A09 JUMPI PUSH2 0x100 DUP1 DUP4 SLOAD DIV MUL DUP4 MSTORE SWAP2 PUSH1 0x20 ADD SWAP2 PUSH2 0x3A34 JUMP JUMPDEST DUP3 ADD SWAP2 SWAP1 PUSH1 0x0 MSTORE PUSH1 0x20 PUSH1 0x0 KECCAK256 SWAP1 JUMPDEST DUP2 SLOAD DUP2 MSTORE SWAP1 PUSH1 0x1 ADD SWAP1 PUSH1 0x20 ADD DUP1 DUP4 GT PUSH2 0x3A17 JUMPI DUP3 SWAP1 SUB PUSH1 0x1F AND DUP3 ADD SWAP2 JUMPDEST POP POP POP PUSH1 0x5 SWAP1 SWAP4 ADD SLOAD SWAP2 SWAP3 POP POP PUSH1 0xFF DUP1 DUP3 AND SWAP2 PUSH2 0x100 DUP2 DIV DUP3 AND SWAP2 PUSH3 0x10000 SWAP1 SWAP2 DIV AND DUP9 JUMP JUMPDEST PUSH1 0x4 PUSH1 0x20 MSTORE DUP2 PUSH1 0x0 MSTORE PUSH1 0x40 PUSH1 0x0 KECCAK256 DUP2 DUP2 SLOAD DUP2 LT PUSH2 0x3A76 JUMPI PUSH1 0x0 DUP1 REVERT JUMPDEST SWAP1 PUSH1 0x0 MSTORE PUSH1 0x20 PUSH1 0x0 KECCAK256 SWAP1 PUSH1 0x4 MUL ADD PUSH1 0x0 SWAP2 POP SWAP2 POP POP DUP1 PUSH1 0x0 ADD SLOAD SWAP1 DUP1 PUSH1 0x1 ADD SLOAD SWAP1 DUP1 PUSH1 0x2 ADD DUP1 SLOAD PUSH2 0x3AA6 SWAP1 PUSH2 0x474E JUMP JUMPDEST DUP1 PUSH1 0x1F ADD PUSH1 0x20 DUP1 SWAP2 DIV MUL PUSH1 0x20 ADD PUSH1 0x40 MLOAD SWAP1 DUP2 ADD PUSH1 0x40 MSTORE DUP1 SWAP3 SWAP2 SWAP1 DUP2 DUP2 MSTORE PUSH1 0x20 ADD DUP3 DUP1 SLOAD PUSH2 0x3AD2 SWAP1 PUSH2 0x474E JUMP JUMPDEST DUP1 ISZERO PUSH2 0x3B1F JUMPI DUP1 PUSH1 0x1F LT PUSH2 0x3AF4 JUMPI PUSH2 0x100 DUP1 DUP4 SLOAD DIV MUL DUP4 MSTORE SWAP2 PUSH1 0x20 ADD SWAP2 PUSH2 0x3B1F JUMP JUMPDEST DUP3 ADD SWAP2 SWAP1 PUSH1 0x0 MSTORE PUSH1 0x20 PUSH1 0x0 KECCAK256 SWAP1 JUMPDEST DUP2 SLOAD DUP2 MSTORE SWAP1 PUSH1 0x1 ADD SWAP1 PUSH1 0x20 ADD DUP1 DUP4 GT PUSH2 0x3B02 JUMPI DUP3 SWAP1 SUB PUSH1 0x1F AND DUP3 ADD SWAP2 JUMPDEST POP POP POP PUSH1 0x3 SWAP1 SWAP4 ADD SLOAD SWAP2 SWAP3 POP POP PUSH1 0xFF AND DUP5 JUMP JUMPDEST PUSH1 0x40 MLOAD DUP1 PUSH2 0x100 ADD PUSH1 0x40 MSTORE DUP1 PUSH1 0x0 DUP2 MSTORE PUSH1 0x20 ADD PUSH1 0x0 PUSH1 0x1 PUSH1 0x1 PUSH1 0xA0 SHL SUB AND DUP2 MSTORE PUSH1 0x20 ADD PUSH1 0x60 DUP2 MSTORE PUSH1 0x20 ADD PUSH1 0x60 DUP2 MSTORE PUSH1 0x20 ADD PUSH1 0x60 DUP2 MSTORE PUSH1 0x20 ADD PUSH1 0x0 ISZERO ISZERO DUP2 MSTORE PUSH1 0x20 ADD PUSH1 0x0 ISZERO ISZERO DUP2 MSTORE PUSH1 0x20 ADD PUSH1 0x0 ISZERO ISZERO DUP2 MSTORE POP SWAP1 JUMP JUMPDEST PUSH1 0x40 MLOAD DUP1 PUSH1 0xE0 ADD PUSH1 0x40 MSTORE DUP1 PUSH1 0x0 DUP2 MSTORE PUSH1 0x20 ADD PUSH1 0x0 PUSH1 0x1 PUSH1 0x1 PUSH1 0xA0 SHL SUB AND DUP2 MSTORE PUSH1 0x20 ADD PUSH1 0x60 DUP2 MSTORE PUSH1 0x20 ADD PUSH1 0x0 DUP2 MSTORE PUSH1 0x20 ADD PUSH1 0x0 DUP2 MSTORE PUSH1 0x20 ADD PUSH1 0x0 DUP2 MSTORE PUSH1 0x20 ADD PUSH1 0x0 ISZERO ISZERO DUP2 MSTORE POP SWAP1 JUMP JUMPDEST PUSH1 0x40 MLOAD DUP1 PUSH1 0xC0 ADD PUSH1 0x40 MSTORE DUP1 PUSH1 0x0 DUP2 MSTORE PUSH1 0x20 ADD PUSH1 0x0 DUP2 MSTORE PUSH1 0x20 ADD PUSH1 0x0 DUP2 MSTORE PUSH1 0x20 ADD PUSH1 0x0 PUSH1 0x1 PUSH1 0x1 PUSH1 0xA0 SHL SUB AND DUP2 MSTORE PUSH1 0x20 ADD PUSH1 0x0 ISZERO ISZERO DUP2 MSTORE PUSH1 0x20 ADD PUSH1 0x0 ISZERO ISZERO DUP2 MSTORE POP SWAP1 JUMP JUMPDEST PUSH1 0x40 MLOAD DUP1 PUSH2 0x100 ADD PUSH1 0x40 MSTORE DUP1 PUSH1 0x0 DUP2 MSTORE PUSH1 0x20 ADD PUSH1 0x0 PUSH1 0x1 PUSH1 0x1 PUSH1 0xA0 SHL SUB AND DUP2 MSTORE PUSH1 0x20 ADD PUSH1 0x60 DUP2 MSTORE PUSH1 0x20 ADD PUSH1 0x60 DUP2 MSTORE PUSH1 0x20 ADD PUSH1 0x0 DUP2 MSTORE PUSH1 0x20 ADD PUSH1 0x0 DUP2 MSTORE PUSH1 0x20 ADD PUSH1 0x0 ISZERO ISZERO DUP2 MSTORE PUSH1 0x20 ADD PUSH1 0x0 ISZERO ISZERO DUP2 MSTORE POP SWAP1 JUMP JUMPDEST PUSH1 0x40 MLOAD DUP1 PUSH1 0xA0 ADD PUSH1 0x40 MSTORE DUP1 PUSH1 0x0 DUP2 MSTORE PUSH1 0x20 ADD PUSH1 0x0 DUP2 MSTORE PUSH1 0x20 ADD PUSH1 0x0 PUSH1 0x1 PUSH1 0x1 PUSH1 0xA0 SHL SUB AND DUP2 MSTORE PUSH1 0x20 ADD PUSH1 0x0 DUP2 MSTORE PUSH1 0x20 ADD PUSH1 0x0 ISZERO ISZERO DUP2 MSTORE POP SWAP1 JUMP JUMPDEST PUSH1 0x0 DUP1 PUSH1 0x40 DUP4 DUP6 SUB SLT ISZERO PUSH2 0x3CB0 JUMPI PUSH1 0x0 DUP1 REVERT JUMPDEST POP POP DUP1 CALLDATALOAD SWAP3 PUSH1 0x20 SWAP1 SWAP2 ADD CALLDATALOAD SWAP2 POP JUMP JUMPDEST DUP1 CALLDATALOAD PUSH1 0x1 PUSH1 0x1 PUSH1 0xA0 SHL SUB DUP2 AND DUP2 EQ PUSH2 0x3CD6 JUMPI PUSH1 0x0 DUP1 REVERT JUMPDEST SWAP2 SWAP1 POP JUMP JUMPDEST PUSH1 0x0 PUSH1 0x20 DUP3 DUP5 SUB SLT ISZERO PUSH2 0x3CED JUMPI PUSH1 0x0 DUP1 REVERT JUMPDEST PUSH2 0x3CF6 DUP3 PUSH2 0x3CBF JUMP JUMPDEST SWAP4 SWAP3 POP POP POP JUMP JUMPDEST PUSH1 0x0 DUP2 MLOAD DUP1 DUP5 MSTORE PUSH1 0x0 JUMPDEST DUP2 DUP2 LT ISZERO PUSH2 0x3D23 JUMPI PUSH1 0x20 DUP2 DUP6 ADD DUP2 ADD MLOAD DUP7 DUP4 ADD DUP3 ADD MSTORE ADD PUSH2 0x3D07 JUMP JUMPDEST POP PUSH1 0x0 PUSH1 0x20 DUP3 DUP7 ADD ADD MSTORE PUSH1 0x20 PUSH1 0x1F NOT PUSH1 0x1F DUP4 ADD AND DUP6 ADD ADD SWAP2 POP POP SWAP3 SWAP2 POP POP JUMP JUMPDEST PUSH1 0x20 DUP2 MSTORE DUP2 MLOAD PUSH1 0x20 DUP3 ADD MSTORE PUSH1 0x0 PUSH1 0x20 DUP4 ADD MLOAD PUSH2 0x3D6A PUSH1 0x40 DUP5 ADD DUP3 PUSH1 0x1 PUSH1 0x1 PUSH1 0xA0 SHL SUB AND SWAP1 MSTORE JUMP JUMPDEST POP PUSH1 0x40 DUP4 ADD MLOAD PUSH2 0x100 DUP1 PUSH1 0x60 DUP6 ADD MSTORE PUSH2 0x3D87 PUSH2 0x120 DUP6 ADD DUP4 PUSH2 0x3CFD JUMP JUMPDEST SWAP2 POP PUSH1 0x60 DUP6 ADD MLOAD PUSH1 0x1F NOT DUP1 DUP7 DUP6 SUB ADD PUSH1 0x80 DUP8 ADD MSTORE PUSH2 0x3DA5 DUP5 DUP4 PUSH2 0x3CFD JUMP JUMPDEST SWAP4 POP PUSH1 0x80 DUP8 ADD MLOAD SWAP2 POP DUP1 DUP7 DUP6 SUB ADD PUSH1 0xA0 DUP8 ADD MSTORE POP PUSH2 0x3DC3 DUP4 DUP3 PUSH2 0x3CFD JUMP JUMPDEST SWAP3 POP POP PUSH1 0xA0 DUP6 ADD MLOAD PUSH2 0x3DD9 PUSH1 0xC0 DUP7 ADD DUP3 ISZERO ISZERO SWAP1 MSTORE JUMP JUMPDEST POP PUSH1 0xC0 DUP6 ADD MLOAD DUP1 ISZERO ISZERO PUSH1 0xE0 DUP7 ADD MSTORE POP PUSH1 0xE0 DUP6 ADD MLOAD DUP1 ISZERO ISZERO DUP6 DUP4 ADD MSTORE PUSH2 0xC4F JUMP JUMPDEST DUP1 MLOAD DUP3 MSTORE PUSH1 0x1 DUP1 PUSH1 0xA0 SHL SUB PUSH1 0x20 DUP3 ADD MLOAD AND PUSH1 0x20 DUP4 ADD MSTORE PUSH1 0x0 PUSH1 0x40 DUP3 ADD MLOAD PUSH1 0xE0 PUSH1 0x40 DUP6 ADD MSTORE PUSH2 0x3E2A PUSH1 0xE0 DUP6 ADD DUP3 PUSH2 0x3CFD JUMP JUMPDEST SWAP1 POP PUSH1 0x60 DUP4 ADD MLOAD PUSH1 0x60 DUP6 ADD MSTORE PUSH1 0x80 DUP4 ADD MLOAD PUSH1 0x80 DUP6 ADD MSTORE PUSH1 0xA0 DUP4 ADD MLOAD PUSH1 0xA0 DUP6 ADD MSTORE PUSH1 0xC0 DUP4 ADD MLOAD ISZERO ISZERO PUSH1 0xC0 DUP6 ADD MSTORE DUP1 SWAP2 POP POP SWAP3 SWAP2 POP POP JUMP JUMPDEST PUSH1 0x0 PUSH1 0x20 DUP1 DUP4 ADD DUP2 DUP5 MSTORE DUP1 DUP6 MLOAD DUP1 DUP4 MSTORE PUSH1 0x40 DUP7 ADD SWAP2 POP PUSH1 0x40 DUP2 PUSH1 0x5 SHL DUP8 ADD ADD SWAP3 POP DUP4 DUP8 ADD PUSH1 0x0 JUMPDEST DUP3 DUP2 LT ISZERO PUSH2 0x3EB5 JUMPI PUSH1 0x3F NOT DUP9 DUP7 SUB ADD DUP5 MSTORE PUSH2 0x3EA3 DUP6 DUP4 MLOAD PUSH2 0x3DF9 JUMP JUMPDEST SWAP5 POP SWAP3 DUP6 ADD SWAP3 SWAP1 DUP6 ADD SWAP1 PUSH1 0x1 ADD PUSH2 0x3E87 JUMP JUMPDEST POP SWAP3 SWAP8 SWAP7 POP POP POP POP POP POP POP JUMP JUMPDEST DUP9 DUP2 MSTORE PUSH1 0x1 PUSH1 0x1 PUSH1 0xA0 SHL SUB DUP9 AND PUSH1 0x20 DUP3 ADD MSTORE PUSH2 0x100 PUSH1 0x40 DUP3 ADD DUP2 SWAP1 MSTORE PUSH1 0x0 SWAP1 PUSH2 0x3EED DUP4 DUP3 ADD DUP11 PUSH2 0x3CFD JUMP JUMPDEST SWAP1 POP DUP3 DUP2 SUB PUSH1 0x60 DUP5 ADD MSTORE PUSH2 0x3F01 DUP2 DUP10 PUSH2 0x3CFD JUMP JUMPDEST PUSH1 0x80 DUP5 ADD SWAP8 SWAP1 SWAP8 MSTORE POP POP PUSH1 0xA0 DUP2 ADD SWAP4 SWAP1 SWAP4 MSTORE SWAP1 ISZERO ISZERO PUSH1 0xC0 DUP4 ADD MSTORE ISZERO ISZERO PUSH1 0xE0 SWAP1 SWAP2 ADD MSTORE SWAP5 SWAP4 POP POP POP POP JUMP JUMPDEST PUSH1 0x0 PUSH1 0x20 DUP3 DUP5 SUB SLT ISZERO PUSH2 0x3F3D JUMPI PUSH1 0x0 DUP1 REVERT JUMPDEST POP CALLDATALOAD SWAP2 SWAP1 POP JUMP JUMPDEST DUP8 DUP2 MSTORE PUSH1 0x1 PUSH1 0x1 PUSH1 0xA0 SHL SUB DUP8 AND PUSH1 0x20 DUP3 ADD MSTORE PUSH1 0xE0 PUSH1 0x40 DUP3 ADD DUP2 SWAP1 MSTORE PUSH1 0x0 SWAP1 PUSH2 0x3F6E SWAP1 DUP4 ADD DUP9 PUSH2 0x3CFD JUMP JUMPDEST SWAP1 POP DUP6 PUSH1 0x60 DUP4 ADD MSTORE DUP5 PUSH1 0x80 DUP4 ADD MSTORE DUP4 PUSH1 0xA0 DUP4 ADD MSTORE DUP3 ISZERO ISZERO PUSH1 0xC0 DUP4 ADD MSTORE SWAP9 SWAP8 POP POP POP POP POP POP POP POP JUMP JUMPDEST PUSH1 0x0 DUP1 PUSH1 0x40 DUP4 DUP6 SUB SLT ISZERO PUSH2 0x3FA9 JUMPI PUSH1 0x0 DUP1 REVERT JUMPDEST DUP3 CALLDATALOAD SWAP2 POP PUSH2 0x3FB9 PUSH1 0x20 DUP5 ADD PUSH2 0x3CBF JUMP JUMPDEST SWAP1 POP SWAP3 POP SWAP3 SWAP1 POP JUMP JUMPDEST PUSH1 0x20 DUP1 DUP3 MSTORE DUP3 MLOAD DUP3 DUP3 ADD DUP2 SWAP1 MSTORE PUSH1 0x0 SWAP2 SWAP1 PUSH1 0x40 SWAP1 DUP2 DUP6 ADD SWAP1 DUP7 DUP5 ADD DUP6 JUMPDEST DUP3 DUP2 LT ISZERO PUSH2 0x403A JUMPI DUP2 MLOAD DUP1 MLOAD DUP6 MSTORE DUP7 DUP2 ADD MLOAD DUP8 DUP7 ADD MSTORE DUP6 DUP2 ADD MLOAD DUP7 DUP7 ADD MSTORE PUSH1 0x60 DUP1 DUP3 ADD MLOAD PUSH1 0x1 PUSH1 0x1 PUSH1 0xA0 SHL SUB AND SWAP1 DUP7 ADD MSTORE PUSH1 0x80 DUP1 DUP3 ADD MLOAD ISZERO ISZERO SWAP1 DUP7 ADD MSTORE PUSH1 0xA0 SWAP1 DUP2 ADD MLOAD ISZERO ISZERO SWAP1 DUP6 ADD MSTORE PUSH1 0xC0 SWAP1 SWAP4 ADD SWAP3 SWAP1 DUP6 ADD SWAP1 PUSH1 0x1 ADD PUSH2 0x3FDF JUMP JUMPDEST POP SWAP2 SWAP8 SWAP7 POP POP POP POP POP POP POP JUMP JUMPDEST PUSH1 0x0 PUSH2 0x100 DUP3 MLOAD DUP5 MSTORE PUSH1 0x1 DUP1 PUSH1 0xA0 SHL SUB PUSH1 0x20 DUP5 ADD MLOAD AND PUSH1 0x20 DUP6 ADD MSTORE PUSH1 0x40 DUP4 ADD MLOAD DUP2 PUSH1 0x40 DUP7 ADD MSTORE PUSH2 0x4079 DUP3 DUP7 ADD DUP3 PUSH2 0x3CFD JUMP JUMPDEST SWAP2 POP POP PUSH1 0x60 DUP4 ADD MLOAD DUP5 DUP3 SUB PUSH1 0x60 DUP7 ADD MSTORE PUSH2 0x4093 DUP3 DUP3 PUSH2 0x3CFD JUMP JUMPDEST SWAP2 POP POP PUSH1 0x80 DUP4 ADD MLOAD PUSH1 0x80 DUP6 ADD MSTORE PUSH1 0xA0 DUP4 ADD MLOAD PUSH1 0xA0 DUP6 ADD MSTORE PUSH1 0xC0 DUP4 ADD MLOAD ISZERO ISZERO PUSH1 0xC0 DUP6 ADD MSTORE PUSH1 0xE0 DUP4 ADD MLOAD PUSH2 0x40C9 PUSH1 0xE0 DUP7 ADD DUP3 ISZERO ISZERO SWAP1 MSTORE JUMP JUMPDEST POP SWAP4 SWAP3 POP POP POP JUMP JUMPDEST PUSH1 0x20 DUP2 MSTORE PUSH1 0x0 PUSH2 0x3CF6 PUSH1 0x20 DUP4 ADD DUP5 PUSH2 0x4047 JUMP JUMPDEST PUSH1 0x20 DUP1 DUP3 MSTORE DUP3 MLOAD DUP3 DUP3 ADD DUP2 SWAP1 MSTORE PUSH1 0x0 SWAP2 SWAP1 PUSH1 0x40 SWAP1 DUP2 DUP6 ADD SWAP1 DUP7 DUP5 ADD DUP6 JUMPDEST DUP3 DUP2 LT ISZERO PUSH2 0x403A JUMPI DUP2 MLOAD DUP1 MLOAD DUP6 MSTORE DUP7 DUP2 ADD MLOAD DUP8 DUP7 ADD MSTORE DUP6 DUP2 ADD MLOAD PUSH1 0x1 PUSH1 0x1 PUSH1 0xA0 SHL SUB AND DUP7 DUP7 ADD MSTORE PUSH1 0x60 DUP1 DUP3 ADD MLOAD SWAP1 DUP7 ADD MSTORE PUSH1 0x80 SWAP1 DUP2 ADD MLOAD ISZERO ISZERO SWAP1 DUP6 ADD MSTORE PUSH1 0xA0 SWAP1 SWAP4 ADD SWAP3 SWAP1 DUP6 ADD SWAP1 PUSH1 0x1 ADD PUSH2 0x4101 JUMP JUMPDEST PUSH4 0x4E487B71 PUSH1 0xE0 SHL PUSH1 0x0 MSTORE PUSH1 0x41 PUSH1 0x4 MSTORE PUSH1 0x24 PUSH1 0x0 REVERT JUMPDEST PUSH1 0x40 MLOAD PUSH1 0x1F DUP3 ADD PUSH1 0x1F NOT AND DUP2 ADD PUSH1 0x1 PUSH1 0x1 PUSH1 0x40 SHL SUB DUP2 GT DUP3 DUP3 LT OR ISZERO PUSH2 0x418E JUMPI PUSH2 0x418E PUSH2 0x4150 JUMP JUMPDEST PUSH1 0x40 MSTORE SWAP2 SWAP1 POP JUMP JUMPDEST PUSH1 0x0 DUP3 PUSH1 0x1F DUP4 ADD SLT PUSH2 0x41A7 JUMPI PUSH1 0x0 DUP1 REVERT JUMPDEST DUP2 CALLDATALOAD PUSH1 0x1 PUSH1 0x1 PUSH1 0x40 SHL SUB DUP2 GT ISZERO PUSH2 0x41C0 JUMPI PUSH2 0x41C0 PUSH2 0x4150 JUMP JUMPDEST PUSH2 0x41D3 PUSH1 0x1F DUP3 ADD PUSH1 0x1F NOT AND PUSH1 0x20 ADD PUSH2 0x4166 JUMP JUMPDEST DUP2 DUP2 MSTORE DUP5 PUSH1 0x20 DUP4 DUP7 ADD ADD GT ISZERO PUSH2 0x41E8 JUMPI PUSH1 0x0 DUP1 REVERT JUMPDEST DUP2 PUSH1 0x20 DUP6 ADD PUSH1 0x20 DUP4 ADD CALLDATACOPY PUSH1 0x0 SWAP2 DUP2 ADD PUSH1 0x20 ADD SWAP2 SWAP1 SWAP2 MSTORE SWAP4 SWAP3 POP POP POP JUMP JUMPDEST PUSH1 0x0 DUP1 PUSH1 0x0 DUP1 PUSH1 0x80 DUP6 DUP8 SUB SLT ISZERO PUSH2 0x421B JUMPI PUSH1 0x0 DUP1 REVERT JUMPDEST PUSH2 0x4224 DUP6 PUSH2 0x3CBF JUMP JUMPDEST SWAP4 POP PUSH1 0x20 DUP6 ADD CALLDATALOAD PUSH1 0x1 PUSH1 0x1 PUSH1 0x40 SHL SUB DUP1 DUP3 GT ISZERO PUSH2 0x4240 JUMPI PUSH1 0x0 DUP1 REVERT JUMPDEST PUSH2 0x424C DUP9 DUP4 DUP10 ADD PUSH2 0x4196 JUMP JUMPDEST SWAP5 POP PUSH1 0x40 DUP8 ADD CALLDATALOAD SWAP2 POP DUP1 DUP3 GT ISZERO PUSH2 0x4262 JUMPI PUSH1 0x0 DUP1 REVERT JUMPDEST POP PUSH2 0x426F DUP8 DUP3 DUP9 ADD PUSH2 0x4196 JUMP JUMPDEST SWAP5 SWAP8 SWAP4 SWAP7 POP SWAP4 SWAP5 PUSH1 0x60 ADD CALLDATALOAD SWAP4 POP POP POP JUMP JUMPDEST PUSH1 0x0 DUP1 PUSH1 0x0 DUP1 PUSH1 0x80 DUP6 DUP8 SUB SLT ISZERO PUSH2 0x4296 JUMPI PUSH1 0x0 DUP1 REVERT JUMPDEST PUSH2 0x429F DUP6 PUSH2 0x3CBF JUMP JUMPDEST SWAP4 POP PUSH1 0x20 DUP6 ADD CALLDATALOAD PUSH1 0x1 PUSH1 0x1 PUSH1 0x40 SHL SUB DUP1 DUP3 GT ISZERO PUSH2 0x42BB JUMPI PUSH1 0x0 DUP1 REVERT JUMPDEST PUSH2 0x42C7 DUP9 DUP4 DUP10 ADD PUSH2 0x4196 JUMP JUMPDEST SWAP5 POP PUSH1 0x40 DUP8 ADD CALLDATALOAD SWAP2 POP DUP1 DUP3 GT ISZERO PUSH2 0x42DD JUMPI PUSH1 0x0 DUP1 REVERT JUMPDEST PUSH2 0x42E9 DUP9 DUP4 DUP10 ADD PUSH2 0x4196 JUMP JUMPDEST SWAP4 POP PUSH1 0x60 DUP8 ADD CALLDATALOAD SWAP2 POP DUP1 DUP3 GT ISZERO PUSH2 0x42FF JUMPI PUSH1 0x0 DUP1 REVERT JUMPDEST POP PUSH2 0x430C DUP8 DUP3 DUP9 ADD PUSH2 0x4196 JUMP JUMPDEST SWAP2 POP POP SWAP3 SWAP6 SWAP2 SWAP5 POP SWAP3 POP JUMP JUMPDEST PUSH1 0x0 PUSH1 0x1 PUSH1 0x1 PUSH1 0x40 SHL SUB DUP3 GT ISZERO PUSH2 0x4331 JUMPI PUSH2 0x4331 PUSH2 0x4150 JUMP JUMPDEST POP PUSH1 0x5 SHL PUSH1 0x20 ADD SWAP1 JUMP JUMPDEST PUSH1 0x0 DUP1 PUSH1 0x0 DUP1 PUSH1 0x0 DUP1 PUSH1 0xC0 DUP8 DUP10 SUB SLT ISZERO PUSH2 0x4354 JUMPI PUSH1 0x0 DUP1 REVERT JUMPDEST PUSH2 0x435D DUP8 PUSH2 0x3CBF JUMP JUMPDEST SWAP6 POP PUSH1 0x20 DUP1 DUP9 ADD CALLDATALOAD PUSH1 0x1 PUSH1 0x1 PUSH1 0x40 SHL SUB DUP1 DUP3 GT ISZERO PUSH2 0x437A JUMPI PUSH1 0x0 DUP1 REVERT JUMPDEST PUSH2 0x4386 DUP12 DUP4 DUP13 ADD PUSH2 0x4196 JUMP JUMPDEST SWAP8 POP PUSH1 0x40 DUP11 ADD CALLDATALOAD SWAP7 POP PUSH1 0x60 DUP11 ADD CALLDATALOAD SWAP6 POP PUSH1 0x80 DUP11 ADD CALLDATALOAD SWAP2 POP DUP1 DUP3 GT ISZERO PUSH2 0x43AA JUMPI PUSH1 0x0 DUP1 REVERT JUMPDEST DUP2 DUP11 ADD SWAP2 POP DUP11 PUSH1 0x1F DUP4 ADD SLT PUSH2 0x43BE JUMPI PUSH1 0x0 DUP1 REVERT JUMPDEST DUP2 CALLDATALOAD PUSH2 0x43D1 PUSH2 0x43CC DUP3 PUSH2 0x4318 JUMP JUMPDEST PUSH2 0x4166 JUMP JUMPDEST DUP2 DUP2 MSTORE PUSH1 0x5 SWAP2 SWAP1 SWAP2 SHL DUP4 ADD DUP5 ADD SWAP1 DUP5 DUP2 ADD SWAP1 DUP14 DUP4 GT ISZERO PUSH2 0x43F0 JUMPI PUSH1 0x0 DUP1 REVERT JUMPDEST DUP6 DUP6 ADD JUMPDEST DUP4 DUP2 LT ISZERO PUSH2 0x4426 JUMPI DUP5 DUP2 CALLDATALOAD GT ISZERO PUSH2 0x440A JUMPI PUSH1 0x0 DUP1 REVERT JUMPDEST PUSH2 0x4419 DUP16 DUP9 DUP4 CALLDATALOAD DUP10 ADD ADD PUSH2 0x4196 JUMP JUMPDEST DUP4 MSTORE SWAP2 DUP7 ADD SWAP2 DUP7 ADD PUSH2 0x43F4 JUMP JUMPDEST POP DUP1 SWAP8 POP POP POP POP POP POP POP PUSH1 0xA0 DUP8 ADD CALLDATALOAD SWAP1 POP SWAP3 SWAP6 POP SWAP3 SWAP6 POP SWAP3 SWAP6 JUMP JUMPDEST PUSH1 0x0 PUSH1 0x20 DUP1 DUP4 ADD DUP2 DUP5 MSTORE DUP1 DUP6 MLOAD DUP1 DUP4 MSTORE PUSH1 0x40 DUP7 ADD SWAP2 POP PUSH1 0x40 DUP2 PUSH1 0x5 SHL DUP8 ADD ADD SWAP3 POP DUP4 DUP8 ADD PUSH1 0x0 JUMPDEST DUP3 DUP2 LT ISZERO PUSH2 0x3EB5 JUMPI PUSH1 0x3F NOT DUP9 DUP7 SUB ADD DUP5 MSTORE PUSH2 0x4484 DUP6 DUP4 MLOAD PUSH2 0x4047 JUMP JUMPDEST SWAP5 POP SWAP3 DUP6 ADD SWAP3 SWAP1 DUP6 ADD SWAP1 PUSH1 0x1 ADD PUSH2 0x4468 JUMP JUMPDEST PUSH1 0x0 DUP1 PUSH1 0x40 DUP4 DUP6 SUB SLT ISZERO PUSH2 0x44A9 JUMPI PUSH1 0x0 DUP1 REVERT JUMPDEST PUSH2 0x44B2 DUP4 PUSH2 0x3CBF JUMP JUMPDEST SWAP5 PUSH1 0x20 SWAP4 SWAP1 SWAP4 ADD CALLDATALOAD SWAP4 POP POP POP JUMP JUMPDEST PUSH1 0x0 DUP1 PUSH1 0x0 DUP1 PUSH1 0x80 DUP6 DUP8 SUB SLT ISZERO PUSH2 0x44D6 JUMPI PUSH1 0x0 DUP1 REVERT JUMPDEST DUP5 CALLDATALOAD SWAP4 POP PUSH1 0x20 DUP6 ADD CALLDATALOAD SWAP3 POP PUSH1 0x40 DUP6 ADD CALLDATALOAD SWAP2 POP PUSH2 0x44F4 PUSH1 0x60 DUP7 ADD PUSH2 0x3CBF JUMP JUMPDEST SWAP1 POP SWAP3 SWAP6 SWAP2 SWAP5 POP SWAP3 POP JUMP JUMPDEST PUSH1 0x20 DUP2 MSTORE PUSH1 0x0 PUSH2 0x3CF6 PUSH1 0x20 DUP4 ADD DUP5 PUSH2 0x3DF9 JUMP JUMPDEST DUP1 ISZERO ISZERO DUP2 EQ PUSH2 0x4520 JUMPI PUSH1 0x0 DUP1 REVERT JUMPDEST POP JUMP JUMPDEST PUSH1 0x0 DUP1 PUSH1 0x0 PUSH1 0x60 DUP5 DUP7 SUB SLT ISZERO PUSH2 0x4538 JUMPI PUSH1 0x0 DUP1 REVERT JUMPDEST DUP4 CALLDATALOAD SWAP3 POP PUSH1 0x20 PUSH2 0x4549 DUP2 DUP7 ADD PUSH2 0x3CBF JUMP JUMPDEST SWAP3 POP PUSH1 0x40 DUP6 ADD CALLDATALOAD PUSH1 0x1 PUSH1 0x1 PUSH1 0x40 SHL SUB DUP2 GT ISZERO PUSH2 0x4564 JUMPI PUSH1 0x0 DUP1 REVERT JUMPDEST DUP6 ADD PUSH1 0x1F DUP2 ADD DUP8 SGT PUSH2 0x4575 JUMPI PUSH1 0x0 DUP1 REVERT JUMPDEST DUP1 CALLDATALOAD PUSH2 0x4583 PUSH2 0x43CC DUP3 PUSH2 0x4318 JUMP JUMPDEST DUP2 DUP2 MSTORE PUSH1 0x5 SWAP2 SWAP1 SWAP2 SHL DUP3 ADD DUP4 ADD SWAP1 DUP4 DUP2 ADD SWAP1 DUP10 DUP4 GT ISZERO PUSH2 0x45A2 JUMPI PUSH1 0x0 DUP1 REVERT JUMPDEST SWAP3 DUP5 ADD SWAP3 JUMPDEST DUP3 DUP5 LT ISZERO PUSH2 0x45C9 JUMPI DUP4 CALLDATALOAD PUSH2 0x45BA DUP2 PUSH2 0x4512 JUMP JUMPDEST DUP3 MSTORE SWAP3 DUP5 ADD SWAP3 SWAP1 DUP5 ADD SWAP1 PUSH2 0x45A7 JUMP JUMPDEST DUP1 SWAP6 POP POP POP POP POP POP SWAP3 POP SWAP3 POP SWAP3 JUMP JUMPDEST PUSH1 0x0 PUSH1 0x20 DUP1 DUP4 ADD DUP2 DUP5 MSTORE DUP1 DUP6 MLOAD DUP1 DUP4 MSTORE PUSH1 0x40 SWAP3 POP DUP3 DUP7 ADD SWAP2 POP DUP3 DUP2 PUSH1 0x5 SHL DUP8 ADD ADD DUP5 DUP9 ADD PUSH1 0x0 JUMPDEST DUP4 DUP2 LT ISZERO PUSH2 0x4658 JUMPI PUSH1 0x3F NOT DUP10 DUP5 SUB ADD DUP6 MSTORE DUP2 MLOAD PUSH1 0x80 DUP2 MLOAD DUP6 MSTORE DUP9 DUP3 ADD MLOAD DUP10 DUP7 ADD MSTORE DUP8 DUP3 ADD MLOAD DUP2 DUP10 DUP8 ADD MSTORE PUSH2 0x4635 DUP3 DUP8 ADD DUP3 PUSH2 0x3CFD JUMP JUMPDEST PUSH1 0x60 SWAP4 DUP5 ADD MLOAD ISZERO ISZERO SWAP7 SWAP1 SWAP4 ADD SWAP6 SWAP1 SWAP6 MSTORE POP SWAP5 DUP8 ADD SWAP5 SWAP3 POP SWAP1 DUP7 ADD SWAP1 PUSH1 0x1 ADD PUSH2 0x45FF JUMP JUMPDEST POP SWAP1 SWAP9 SWAP8 POP POP POP POP POP POP POP POP JUMP JUMPDEST DUP9 DUP2 MSTORE PUSH1 0x1 PUSH1 0x1 PUSH1 0xA0 SHL SUB DUP9 AND PUSH1 0x20 DUP3 ADD MSTORE PUSH2 0x100 PUSH1 0x40 DUP3 ADD DUP2 SWAP1 MSTORE PUSH1 0x0 SWAP1 PUSH2 0x4691 DUP4 DUP3 ADD DUP11 PUSH2 0x3CFD JUMP JUMPDEST SWAP1 POP DUP3 DUP2 SUB PUSH1 0x60 DUP5 ADD MSTORE PUSH2 0x46A5 DUP2 DUP10 PUSH2 0x3CFD JUMP JUMPDEST SWAP1 POP DUP3 DUP2 SUB PUSH1 0x80 DUP5 ADD MSTORE PUSH2 0x46B9 DUP2 DUP9 PUSH2 0x3CFD JUMP JUMPDEST SWAP6 ISZERO ISZERO PUSH1 0xA0 DUP5 ADD MSTORE POP POP SWAP2 ISZERO ISZERO PUSH1 0xC0 DUP4 ADD MSTORE ISZERO ISZERO PUSH1 0xE0 SWAP1 SWAP2 ADD MSTORE SWAP6 SWAP5 POP POP POP POP POP JUMP JUMPDEST DUP5 DUP2 MSTORE DUP4 PUSH1 0x20 DUP3 ADD MSTORE PUSH1 0x80 PUSH1 0x40 DUP3 ADD MSTORE PUSH1 0x0 PUSH2 0x46FB PUSH1 0x80 DUP4 ADD DUP6 PUSH2 0x3CFD JUMP JUMPDEST SWAP1 POP DUP3 ISZERO ISZERO PUSH1 0x60 DUP4 ADD MSTORE SWAP6 SWAP5 POP POP POP POP POP JUMP JUMPDEST PUSH4 0x4E487B71 PUSH1 0xE0 SHL PUSH1 0x0 MSTORE PUSH1 0x11 PUSH1 0x4 MSTORE PUSH1 0x24 PUSH1 0x0 REVERT JUMPDEST DUP1 DUP3 MUL DUP2 ISZERO DUP3 DUP3 DIV DUP5 EQ OR PUSH2 0x80E JUMPI PUSH2 0x80E PUSH2 0x470E JUMP JUMPDEST DUP1 DUP3 ADD DUP1 DUP3 GT ISZERO PUSH2 0x80E JUMPI PUSH2 0x80E PUSH2 0x470E JUMP JUMPDEST PUSH1 0x1 DUP2 DUP2 SHR SWAP1 DUP3 AND DUP1 PUSH2 0x4762 JUMPI PUSH1 0x7F DUP3 AND SWAP2 POP JUMPDEST PUSH1 0x20 DUP3 LT DUP2 SUB PUSH2 0x4782 JUMPI PUSH4 0x4E487B71 PUSH1 0xE0 SHL PUSH1 0x0 MSTORE PUSH1 0x22 PUSH1 0x4 MSTORE PUSH1 0x24 PUSH1 0x0 REVERT JUMPDEST POP SWAP2 SWAP1 POP JUMP JUMPDEST PUSH4 0x4E487B71 PUSH1 0xE0 SHL PUSH1 0x0 MSTORE PUSH1 0x32 PUSH1 0x4 MSTORE PUSH1 0x24 PUSH1 0x0 REVERT JUMPDEST PUSH1 0x0 PUSH1 0x1 DUP3 ADD PUSH2 0x47B0 JUMPI PUSH2 0x47B0 PUSH2 0x470E JUMP JUMPDEST POP PUSH1 0x1 ADD SWAP1 JUMP JUMPDEST PUSH1 0x0 DUP3 PUSH2 0x47D4 JUMPI PUSH4 0x4E487B71 PUSH1 0xE0 SHL PUSH1 0x0 MSTORE PUSH1 0x12 PUSH1 0x4 MSTORE PUSH1 0x24 PUSH1 0x0 REVERT JUMPDEST POP DIV SWAP1 JUMP JUMPDEST PUSH1 0x1F DUP3 GT ISZERO PUSH2 0x4823 JUMPI PUSH1 0x0 DUP2 DUP2 MSTORE PUSH1 0x20 DUP2 KECCAK256 PUSH1 0x1F DUP6 ADD PUSH1 0x5 SHR DUP2 ADD PUSH1 0x20 DUP7 LT ISZERO PUSH2 0x4800 JUMPI POP DUP1 JUMPDEST PUSH1 0x1F DUP6 ADD PUSH1 0x5 SHR DUP3 ADD SWAP2 POP JUMPDEST DUP2 DUP2 LT ISZERO PUSH2 0x481F JUMPI DUP3 DUP2 SSTORE PUSH1 0x1 ADD PUSH2 0x480C JUMP JUMPDEST POP POP POP JUMPDEST POP POP POP JUMP JUMPDEST DUP2 MLOAD PUSH1 0x1 PUSH1 0x1 PUSH1 0x40 SHL SUB DUP2 GT ISZERO PUSH2 0x4841 JUMPI PUSH2 0x4841 PUSH2 0x4150 JUMP JUMPDEST PUSH2 0x4855 DUP2 PUSH2 0x484F DUP5 SLOAD PUSH2 0x474E JUMP JUMPDEST DUP5 PUSH2 0x47D9 JUMP JUMPDEST PUSH1 0x20 DUP1 PUSH1 0x1F DUP4 GT PUSH1 0x1 DUP2 EQ PUSH2 0x488A JUMPI PUSH1 0x0 DUP5 ISZERO PUSH2 0x4872 JUMPI POP DUP6 DUP4 ADD MLOAD JUMPDEST PUSH1 0x0 NOT PUSH1 0x3 DUP7 SWAP1 SHL SHR NOT AND PUSH1 0x1 DUP6 SWAP1 SHL OR DUP6 SSTORE PUSH2 0x481F JUMP JUMPDEST PUSH1 0x0 DUP6 DUP2 MSTORE PUSH1 0x20 DUP2 KECCAK256 PUSH1 0x1F NOT DUP7 AND SWAP2 JUMPDEST DUP3 DUP2 LT ISZERO PUSH2 0x48B9 JUMPI DUP9 DUP7 ADD MLOAD DUP3 SSTORE SWAP5 DUP5 ADD SWAP5 PUSH1 0x1 SWAP1 SWAP2 ADD SWAP1 DUP5 ADD PUSH2 0x489A JUMP JUMPDEST POP DUP6 DUP3 LT ISZERO PUSH2 0x48D7 JUMPI DUP8 DUP6 ADD MLOAD PUSH1 0x0 NOT PUSH1 0x3 DUP9 SWAP1 SHL PUSH1 0xF8 AND SHR NOT AND DUP2 SSTORE JUMPDEST POP POP POP POP POP PUSH1 0x1 SWAP1 DUP2 SHL ADD SWAP1 SSTORE POP JUMP JUMPDEST PUSH1 0x0 PUSH1 0x20 DUP3 DUP5 SUB SLT ISZERO PUSH2 0x48F9 JUMPI PUSH1 0x0 DUP1 REVERT JUMPDEST DUP2 MLOAD PUSH2 0x80B DUP2 PUSH2 0x4512 JUMP INVALID LOG2 PUSH5 0x6970667358 0x22 SLT KECCAK256 0xD4 DUP12 0xCF DUP13 0x5C SWAP15 0xE0 0xE0 0xC5 0x24 MULMOD CHAINID 0xB3 0xD5 DUP8 CREATE 0xEB SAR 0xD2 PUSH22 0x216D3595E26BF67FF30085B464736F6C634300081300 CALLER "
				},
				"gasEstimates": {
					"creation": {
						"codeDepositCost": "3749200",
						"executionCost": "infinite",
						"totalCost": "infinite"
					},
					"external": {
						"allAnswers(uint256,uint256)": "11370",
						"allEarnings(uint256)": "13260",
						"allFundings(uint256)": "13282",
						"allParticipants(address)": "infinite",
						"allQuestions(uint256,uint256)": "infinite",
						"allResearchers(address)": "infinite",
						"allSurveys(uint256)": "infinite",
						"checkIfParticipantExists(address)": "2682",
						"checkIfParticipantHasAlreadyParticipatedInSurvey(address,uint256)": "2690",
						"checkIfResearcherExists(address)": "2750",
						"createFunding(uint256,uint256,uint256,address)": "infinite",
						"createParticipant(address,string,string,uint256)": "infinite",
						"createResearcher(address,string,string,string)": "infinite",
						"createSurvey(address,string,uint256,uint256,string[],uint256)": "infinite",
						"getAllAnswersOfParticipantOfSurvey(uint256,address)": "infinite",
						"getAllEarningsMadeByParticipant(address)": "infinite",
						"getAllQuestionsOfSurvey(uint256)": "infinite",
						"getAllSurveys()": "infinite",
						"getAllSurveysTakenByParticipant(address)": "infinite",
						"getAmountOfEarningForCanvassingForSurveyPerParticipantInWei(uint256,uint256)": "infinite",
						"getAmountOfEarningPerParticipantForSurveyInWei(uint256)": "infinite",
						"getAmountOfFundingOfAnySurveyInWei(uint256,uint256)": "infinite",
						"getAnswersOfSurvey(uint256)": "infinite",
						"getIdsOfLatestSurveysCreatedByResearchers(address)": "2660",
						"getParticipantByWalletAddress(address)": "infinite",
						"getParticipantsOfSurvey(uint256)": "infinite",
						"getQuestionsOfSurvey(uint256)": "infinite",
						"getResearcherByWalletAddress(address)": "infinite",
						"getSurveyById(uint256)": "infinite",
						"getSurveysCreatedByResearcher(address)": "infinite",
						"getTotalAmountFundedByResearcherInWei(address)": "2638",
						"getTotalAmountOfEarningsReceivedByParticipantInWei(address)": "infinite",
						"getTotalNumberOfSurveyCreatedByResearcher(address)": "2571",
						"idsOfLatestSurveysCreatedByResearchers(address)": "2574",
						"makePayoutAndCreateEarning(uint256,address)": "infinite",
						"participantsOfSurvey(uint256,uint256)": "infinite",
						"participateInSurvey(uint256,address,bool[])": "infinite",
						"participationStatusForSurvey(uint256,address)": "2718",
						"payoutStatusOfParticipantForSurvey(uint256,address)": "2674",
						"totalAmountFundedByResearchersInWei(address)": "2619",
						"totalNumberOfSurveysCreatedByResearchers(address)": "2575",
						"verifyResearcher(address)": "infinite"
					}
				},
				"methodIdentifiers": {
					"allAnswers(uint256,uint256)": "69bff3fb",
					"allEarnings(uint256)": "8e6da619",
					"allFundings(uint256)": "95ecea1f",
					"allParticipants(address)": "5b76074e",
					"allQuestions(uint256,uint256)": "fb47e9e6",
					"allResearchers(address)": "f692a3bb",
					"allSurveys(uint256)": "1b6f2485",
					"checkIfParticipantExists(address)": "6f5fde11",
					"checkIfParticipantHasAlreadyParticipatedInSurvey(address,uint256)": "a58543fe",
					"checkIfResearcherExists(address)": "9a23218f",
					"createFunding(uint256,uint256,uint256,address)": "b3265ecd",
					"createParticipant(address,string,string,uint256)": "3b43b7d0",
					"createResearcher(address,string,string,string)": "40ca213d",
					"createSurvey(address,string,uint256,uint256,string[],uint256)": "68df3299",
					"getAllAnswersOfParticipantOfSurvey(uint256,address)": "2076a35a",
					"getAllEarningsMadeByParticipant(address)": "392a5822",
					"getAllQuestionsOfSurvey(uint256)": "f31e72e4",
					"getAllSurveys()": "7a1bc375",
					"getAllSurveysTakenByParticipant(address)": "3abb615a",
					"getAmountOfEarningForCanvassingForSurveyPerParticipantInWei(uint256,uint256)": "44962609",
					"getAmountOfEarningPerParticipantForSurveyInWei(uint256)": "1bd1ebc4",
					"getAmountOfFundingOfAnySurveyInWei(uint256,uint256)": "03f16747",
					"getAnswersOfSurvey(uint256)": "cc4903ca",
					"getIdsOfLatestSurveysCreatedByResearchers(address)": "3882db7d",
					"getParticipantByWalletAddress(address)": "2394e5dc",
					"getParticipantsOfSurvey(uint256)": "964f6566",
					"getQuestionsOfSurvey(uint256)": "d8cb6290",
					"getResearcherByWalletAddress(address)": "0478318b",
					"getSurveyById(uint256)": "c0ac4ae4",
					"getSurveysCreatedByResearcher(address)": "07f6646e",
					"getTotalAmountFundedByResearcherInWei(address)": "79252d97",
					"getTotalAmountOfEarningsReceivedByParticipantInWei(address)": "25f18424",
					"getTotalNumberOfSurveyCreatedByResearcher(address)": "4fe1cfad",
					"idsOfLatestSurveysCreatedByResearchers(address)": "d7e93794",
					"makePayoutAndCreateEarning(uint256,address)": "6b8ac0e7",
					"participantsOfSurvey(uint256,uint256)": "125bb83d",
					"participateInSurvey(uint256,address,bool[])": "ca2e7f9b",
					"participationStatusForSurvey(uint256,address)": "b9c745b3",
					"payoutStatusOfParticipantForSurvey(uint256,address)": "7e950819",
					"totalAmountFundedByResearchersInWei(address)": "5fa7a90a",
					"totalNumberOfSurveysCreatedByResearchers(address)": "5822bff1",
					"verifyResearcher(address)": "73fd653d"
				}
			},
			"storageLayout": {
				"storage": [
					{
						"astId": 14,
						"contract": "smart-contracts/classroom/main/Canvassing.sol:Canvassing",
						"label": "canvassingWalletAddress",
						"offset": 0,
						"slot": "0",
						"type": "t_address"
					},
					{
						"astId": 19,
						"contract": "smart-contracts/classroom/main/Canvassing.sol:Canvassing",
						"label": "allResearchers",
						"offset": 0,
						"slot": "1",
						"type": "t_mapping(t_address,t_struct(Researcher)1666_storage)"
					},
					{
						"astId": 24,
						"contract": "smart-contracts/classroom/main/Canvassing.sol:Canvassing",
						"label": "allParticipants",
						"offset": 0,
						"slot": "2",
						"type": "t_mapping(t_address,t_struct(Participant)1683_storage)"
					},
					{
						"astId": 28,
						"contract": "smart-contracts/classroom/main/Canvassing.sol:Canvassing",
						"label": "allSurveys",
						"offset": 0,
						"slot": "3",
						"type": "t_array(t_struct(Survey)1698_storage)dyn_storage"
					},
					{
						"astId": 34,
						"contract": "smart-contracts/classroom/main/Canvassing.sol:Canvassing",
						"label": "allQuestions",
						"offset": 0,
						"slot": "4",
						"type": "t_mapping(t_uint256,t_array(t_struct(Question)1707_storage)dyn_storage)"
					},
					{
						"astId": 40,
						"contract": "smart-contracts/classroom/main/Canvassing.sol:Canvassing",
						"label": "allAnswers",
						"offset": 0,
						"slot": "5",
						"type": "t_mapping(t_uint256,t_array(t_struct(Answer)1720_storage)dyn_storage)"
					},
					{
						"astId": 46,
						"contract": "smart-contracts/classroom/main/Canvassing.sol:Canvassing",
						"label": "participationStatusForSurvey",
						"offset": 0,
						"slot": "6",
						"type": "t_mapping(t_uint256,t_mapping(t_address,t_bool))"
					},
					{
						"astId": 52,
						"contract": "smart-contracts/classroom/main/Canvassing.sol:Canvassing",
						"label": "payoutStatusOfParticipantForSurvey",
						"offset": 0,
						"slot": "7",
						"type": "t_mapping(t_uint256,t_mapping(t_address,t_bool))"
					},
					{
						"astId": 56,
						"contract": "smart-contracts/classroom/main/Canvassing.sol:Canvassing",
						"label": "totalNumberOfSurveysCreatedByResearchers",
						"offset": 0,
						"slot": "8",
						"type": "t_mapping(t_address,t_uint256)"
					},
					{
						"astId": 60,
						"contract": "smart-contracts/classroom/main/Canvassing.sol:Canvassing",
						"label": "totalAmountFundedByResearchersInWei",
						"offset": 0,
						"slot": "9",
						"type": "t_mapping(t_address,t_uint256)"
					},
					{
						"astId": 64,
						"contract": "smart-contracts/classroom/main/Canvassing.sol:Canvassing",
						"label": "idsOfLatestSurveysCreatedByResearchers",
						"offset": 0,
						"slot": "10",
						"type": "t_mapping(t_address,t_uint256)"
					},
					{
						"astId": 70,
						"contract": "smart-contracts/classroom/main/Canvassing.sol:Canvassing",
						"label": "participantsOfSurvey",
						"offset": 0,
						"slot": "11",
						"type": "t_mapping(t_uint256,t_array(t_struct(Participant)1683_storage)dyn_storage)"
					},
					{
						"astId": 74,
						"contract": "smart-contracts/classroom/main/Canvassing.sol:Canvassing",
						"label": "allFundings",
						"offset": 0,
						"slot": "12",
						"type": "t_array(t_struct(Funding)1742_storage)dyn_storage"
					},
					{
						"astId": 78,
						"contract": "smart-contracts/classroom/main/Canvassing.sol:Canvassing",
						"label": "allEarnings",
						"offset": 0,
						"slot": "13",
						"type": "t_array(t_struct(Earning)1731_storage)dyn_storage"
					},
					{
						"astId": 80,
						"contract": "smart-contracts/classroom/main/Canvassing.sol:Canvassing",
						"label": "currentResearcherId",
						"offset": 0,
						"slot": "14",
						"type": "t_uint256"
					},
					{
						"astId": 82,
						"contract": "smart-contracts/classroom/main/Canvassing.sol:Canvassing",
						"label": "currentParticipantId",
						"offset": 0,
						"slot": "15",
						"type": "t_uint256"
					},
					{
						"astId": 84,
						"contract": "smart-contracts/classroom/main/Canvassing.sol:Canvassing",
						"label": "currentSurveyId",
						"offset": 0,
						"slot": "16",
						"type": "t_uint256"
					},
					{
						"astId": 86,
						"contract": "smart-contracts/classroom/main/Canvassing.sol:Canvassing",
						"label": "currentQuestionId",
						"offset": 0,
						"slot": "17",
						"type": "t_uint256"
					},
					{
						"astId": 88,
						"contract": "smart-contracts/classroom/main/Canvassing.sol:Canvassing",
						"label": "currentAnswerId",
						"offset": 0,
						"slot": "18",
						"type": "t_uint256"
					},
					{
						"astId": 90,
						"contract": "smart-contracts/classroom/main/Canvassing.sol:Canvassing",
						"label": "currentEarningId",
						"offset": 0,
						"slot": "19",
						"type": "t_uint256"
					},
					{
						"astId": 92,
						"contract": "smart-contracts/classroom/main/Canvassing.sol:Canvassing",
						"label": "currentFundingId",
						"offset": 0,
						"slot": "20",
						"type": "t_uint256"
					},
					{
						"astId": 98,
						"contract": "smart-contracts/classroom/main/Canvassing.sol:Canvassing",
						"label": "cUSD",
						"offset": 0,
						"slot": "21",
						"type": "t_contract(ERC20)1647"
					},
					{
						"astId": 106,
						"contract": "smart-contracts/classroom/main/Canvassing.sol:Canvassing",
						"label": "cUSDDecimalPlaces",
						"offset": 0,
						"slot": "22",
						"type": "t_uint256"
					}
				],
				"types": {
					"t_address": {
						"encoding": "inplace",
						"label": "address",
						"numberOfBytes": "20"
					},
					"t_array(t_struct(Answer)1720_storage)dyn_storage": {
						"base": "t_struct(Answer)1720_storage",
						"encoding": "dynamic_array",
						"label": "struct Answer[]",
						"numberOfBytes": "32"
					},
					"t_array(t_struct(Earning)1731_storage)dyn_storage": {
						"base": "t_struct(Earning)1731_storage",
						"encoding": "dynamic_array",
						"label": "struct Earning[]",
						"numberOfBytes": "32"
					},
					"t_array(t_struct(Funding)1742_storage)dyn_storage": {
						"base": "t_struct(Funding)1742_storage",
						"encoding": "dynamic_array",
						"label": "struct Funding[]",
						"numberOfBytes": "32"
					},
					"t_array(t_struct(Participant)1683_storage)dyn_storage": {
						"base": "t_struct(Participant)1683_storage",
						"encoding": "dynamic_array",
						"label": "struct Participant[]",
						"numberOfBytes": "32"
					},
					"t_array(t_struct(Question)1707_storage)dyn_storage": {
						"base": "t_struct(Question)1707_storage",
						"encoding": "dynamic_array",
						"label": "struct Question[]",
						"numberOfBytes": "32"
					},
					"t_array(t_struct(Survey)1698_storage)dyn_storage": {
						"base": "t_struct(Survey)1698_storage",
						"encoding": "dynamic_array",
						"label": "struct Survey[]",
						"numberOfBytes": "32"
					},
					"t_bool": {
						"encoding": "inplace",
						"label": "bool",
						"numberOfBytes": "1"
					},
					"t_contract(ERC20)1647": {
						"encoding": "inplace",
						"label": "contract ERC20",
						"numberOfBytes": "20"
					},
					"t_mapping(t_address,t_bool)": {
						"encoding": "mapping",
						"key": "t_address",
						"label": "mapping(address => bool)",
						"numberOfBytes": "32",
						"value": "t_bool"
					},
					"t_mapping(t_address,t_struct(Participant)1683_storage)": {
						"encoding": "mapping",
						"key": "t_address",
						"label": "mapping(address => struct Participant)",
						"numberOfBytes": "32",
						"value": "t_struct(Participant)1683_storage"
					},
					"t_mapping(t_address,t_struct(Researcher)1666_storage)": {
						"encoding": "mapping",
						"key": "t_address",
						"label": "mapping(address => struct Researcher)",
						"numberOfBytes": "32",
						"value": "t_struct(Researcher)1666_storage"
					},
					"t_mapping(t_address,t_uint256)": {
						"encoding": "mapping",
						"key": "t_address",
						"label": "mapping(address => uint256)",
						"numberOfBytes": "32",
						"value": "t_uint256"
					},
					"t_mapping(t_uint256,t_array(t_struct(Answer)1720_storage)dyn_storage)": {
						"encoding": "mapping",
						"key": "t_uint256",
						"label": "mapping(uint256 => struct Answer[])",
						"numberOfBytes": "32",
						"value": "t_array(t_struct(Answer)1720_storage)dyn_storage"
					},
					"t_mapping(t_uint256,t_array(t_struct(Participant)1683_storage)dyn_storage)": {
						"encoding": "mapping",
						"key": "t_uint256",
						"label": "mapping(uint256 => struct Participant[])",
						"numberOfBytes": "32",
						"value": "t_array(t_struct(Participant)1683_storage)dyn_storage"
					},
					"t_mapping(t_uint256,t_array(t_struct(Question)1707_storage)dyn_storage)": {
						"encoding": "mapping",
						"key": "t_uint256",
						"label": "mapping(uint256 => struct Question[])",
						"numberOfBytes": "32",
						"value": "t_array(t_struct(Question)1707_storage)dyn_storage"
					},
					"t_mapping(t_uint256,t_mapping(t_address,t_bool))": {
						"encoding": "mapping",
						"key": "t_uint256",
						"label": "mapping(uint256 => mapping(address => bool))",
						"numberOfBytes": "32",
						"value": "t_mapping(t_address,t_bool)"
					},
					"t_string_storage": {
						"encoding": "bytes",
						"label": "string",
						"numberOfBytes": "32"
					},
					"t_struct(Answer)1720_storage": {
						"encoding": "inplace",
						"label": "struct Answer",
						"members": [
							{
								"astId": 1709,
								"contract": "smart-contracts/classroom/main/Canvassing.sol:Canvassing",
								"label": "id",
								"offset": 0,
								"slot": "0",
								"type": "t_uint256"
							},
							{
								"astId": 1711,
								"contract": "smart-contracts/classroom/main/Canvassing.sol:Canvassing",
								"label": "questionId",
								"offset": 0,
								"slot": "1",
								"type": "t_uint256"
							},
							{
								"astId": 1713,
								"contract": "smart-contracts/classroom/main/Canvassing.sol:Canvassing",
								"label": "surveyId",
								"offset": 0,
								"slot": "2",
								"type": "t_uint256"
							},
							{
								"astId": 1715,
								"contract": "smart-contracts/classroom/main/Canvassing.sol:Canvassing",
								"label": "participantWalletAddress",
								"offset": 0,
								"slot": "3",
								"type": "t_address"
							},
							{
								"astId": 1717,
								"contract": "smart-contracts/classroom/main/Canvassing.sol:Canvassing",
								"label": "value",
								"offset": 20,
								"slot": "3",
								"type": "t_bool"
							},
							{
								"astId": 1719,
								"contract": "smart-contracts/classroom/main/Canvassing.sol:Canvassing",
								"label": "isBlank",
								"offset": 21,
								"slot": "3",
								"type": "t_bool"
							}
						],
						"numberOfBytes": "128"
					},
					"t_struct(Earning)1731_storage": {
						"encoding": "inplace",
						"label": "struct Earning",
						"members": [
							{
								"astId": 1722,
								"contract": "smart-contracts/classroom/main/Canvassing.sol:Canvassing",
								"label": "id",
								"offset": 0,
								"slot": "0",
								"type": "t_uint256"
							},
							{
								"astId": 1724,
								"contract": "smart-contracts/classroom/main/Canvassing.sol:Canvassing",
								"label": "surveyId",
								"offset": 0,
								"slot": "1",
								"type": "t_uint256"
							},
							{
								"astId": 1726,
								"contract": "smart-contracts/classroom/main/Canvassing.sol:Canvassing",
								"label": "recipientWalletAddress",
								"offset": 0,
								"slot": "2",
								"type": "t_address"
							},
							{
								"astId": 1728,
								"contract": "smart-contracts/classroom/main/Canvassing.sol:Canvassing",
								"label": "amountPaidOutInWei",
								"offset": 0,
								"slot": "3",
								"type": "t_uint256"
							},
							{
								"astId": 1730,
								"contract": "smart-contracts/classroom/main/Canvassing.sol:Canvassing",
								"label": "isBlank",
								"offset": 0,
								"slot": "4",
								"type": "t_bool"
							}
						],
						"numberOfBytes": "160"
					},
					"t_struct(Funding)1742_storage": {
						"encoding": "inplace",
						"label": "struct Funding",
						"members": [
							{
								"astId": 1733,
								"contract": "smart-contracts/classroom/main/Canvassing.sol:Canvassing",
								"label": "id",
								"offset": 0,
								"slot": "0",
								"type": "t_uint256"
							},
							{
								"astId": 1735,
								"contract": "smart-contracts/classroom/main/Canvassing.sol:Canvassing",
								"label": "surveyId",
								"offset": 0,
								"slot": "1",
								"type": "t_uint256"
							},
							{
								"astId": 1737,
								"contract": "smart-contracts/classroom/main/Canvassing.sol:Canvassing",
								"label": "creatingResearcherWalletAddress",
								"offset": 0,
								"slot": "2",
								"type": "t_address"
							},
							{
								"astId": 1739,
								"contract": "smart-contracts/classroom/main/Canvassing.sol:Canvassing",
								"label": "amountFundedInWei",
								"offset": 0,
								"slot": "3",
								"type": "t_uint256"
							},
							{
								"astId": 1741,
								"contract": "smart-contracts/classroom/main/Canvassing.sol:Canvassing",
								"label": "isBlank",
								"offset": 0,
								"slot": "4",
								"type": "t_bool"
							}
						],
						"numberOfBytes": "160"
					},
					"t_struct(Participant)1683_storage": {
						"encoding": "inplace",
						"label": "struct Participant",
						"members": [
							{
								"astId": 1668,
								"contract": "smart-contracts/classroom/main/Canvassing.sol:Canvassing",
								"label": "id",
								"offset": 0,
								"slot": "0",
								"type": "t_uint256"
							},
							{
								"astId": 1670,
								"contract": "smart-contracts/classroom/main/Canvassing.sol:Canvassing",
								"label": "walletAddress",
								"offset": 0,
								"slot": "1",
								"type": "t_address"
							},
							{
								"astId": 1672,
								"contract": "smart-contracts/classroom/main/Canvassing.sol:Canvassing",
								"label": "gender",
								"offset": 0,
								"slot": "2",
								"type": "t_string_storage"
							},
							{
								"astId": 1674,
								"contract": "smart-contracts/classroom/main/Canvassing.sol:Canvassing",
								"label": "country",
								"offset": 0,
								"slot": "3",
								"type": "t_string_storage"
							},
							{
								"astId": 1676,
								"contract": "smart-contracts/classroom/main/Canvassing.sol:Canvassing",
								"label": "yearOfBirth",
								"offset": 0,
								"slot": "4",
								"type": "t_uint256"
							},
							{
								"astId": 1678,
								"contract": "smart-contracts/classroom/main/Canvassing.sol:Canvassing",
								"label": "totalNumberOfSurveysTaken",
								"offset": 0,
								"slot": "5",
								"type": "t_uint256"
							},
							{
								"astId": 1680,
								"contract": "smart-contracts/classroom/main/Canvassing.sol:Canvassing",
								"label": "isResearcher",
								"offset": 0,
								"slot": "6",
								"type": "t_bool"
							},
							{
								"astId": 1682,
								"contract": "smart-contracts/classroom/main/Canvassing.sol:Canvassing",
								"label": "isBlank",
								"offset": 1,
								"slot": "6",
								"type": "t_bool"
							}
						],
						"numberOfBytes": "224"
					},
					"t_struct(Question)1707_storage": {
						"encoding": "inplace",
						"label": "struct Question",
						"members": [
							{
								"astId": 1700,
								"contract": "smart-contracts/classroom/main/Canvassing.sol:Canvassing",
								"label": "id",
								"offset": 0,
								"slot": "0",
								"type": "t_uint256"
							},
							{
								"astId": 1702,
								"contract": "smart-contracts/classroom/main/Canvassing.sol:Canvassing",
								"label": "surveyId",
								"offset": 0,
								"slot": "1",
								"type": "t_uint256"
							},
							{
								"astId": 1704,
								"contract": "smart-contracts/classroom/main/Canvassing.sol:Canvassing",
								"label": "sentence",
								"offset": 0,
								"slot": "2",
								"type": "t_string_storage"
							},
							{
								"astId": 1706,
								"contract": "smart-contracts/classroom/main/Canvassing.sol:Canvassing",
								"label": "isBlank",
								"offset": 0,
								"slot": "3",
								"type": "t_bool"
							}
						],
						"numberOfBytes": "128"
					},
					"t_struct(Researcher)1666_storage": {
						"encoding": "inplace",
						"label": "struct Researcher",
						"members": [
							{
								"astId": 1651,
								"contract": "smart-contracts/classroom/main/Canvassing.sol:Canvassing",
								"label": "id",
								"offset": 0,
								"slot": "0",
								"type": "t_uint256"
							},
							{
								"astId": 1653,
								"contract": "smart-contracts/classroom/main/Canvassing.sol:Canvassing",
								"label": "walletAddress",
								"offset": 0,
								"slot": "1",
								"type": "t_address"
							},
							{
								"astId": 1655,
								"contract": "smart-contracts/classroom/main/Canvassing.sol:Canvassing",
								"label": "industry",
								"offset": 0,
								"slot": "2",
								"type": "t_string_storage"
							},
							{
								"astId": 1657,
								"contract": "smart-contracts/classroom/main/Canvassing.sol:Canvassing",
								"label": "numberOfEmployees",
								"offset": 0,
								"slot": "3",
								"type": "t_string_storage"
							},
							{
								"astId": 1659,
								"contract": "smart-contracts/classroom/main/Canvassing.sol:Canvassing",
								"label": "yearsInOperation",
								"offset": 0,
								"slot": "4",
								"type": "t_string_storage"
							},
							{
								"astId": 1661,
								"contract": "smart-contracts/classroom/main/Canvassing.sol:Canvassing",
								"label": "isParticipant",
								"offset": 0,
								"slot": "5",
								"type": "t_bool"
							},
							{
								"astId": 1663,
								"contract": "smart-contracts/classroom/main/Canvassing.sol:Canvassing",
								"label": "isVerified",
								"offset": 1,
								"slot": "5",
								"type": "t_bool"
							},
							{
								"astId": 1665,
								"contract": "smart-contracts/classroom/main/Canvassing.sol:Canvassing",
								"label": "isBlank",
								"offset": 2,
								"slot": "5",
								"type": "t_bool"
							}
						],
						"numberOfBytes": "192"
					},
					"t_struct(Survey)1698_storage": {
						"encoding": "inplace",
						"label": "struct Survey",
						"members": [
							{
								"astId": 1685,
								"contract": "smart-contracts/classroom/main/Canvassing.sol:Canvassing",
								"label": "id",
								"offset": 0,
								"slot": "0",
								"type": "t_uint256"
							},
							{
								"astId": 1687,
								"contract": "smart-contracts/classroom/main/Canvassing.sol:Canvassing",
								"label": "creatingResearcherWalletAddress",
								"offset": 0,
								"slot": "1",
								"type": "t_address"
							},
							{
								"astId": 1689,
								"contract": "smart-contracts/classroom/main/Canvassing.sol:Canvassing",
								"label": "topic",
								"offset": 0,
								"slot": "2",
								"type": "t_string_storage"
							},
							{
								"astId": 1691,
								"contract": "smart-contracts/classroom/main/Canvassing.sol:Canvassing",
								"label": "numberOfQuestions",
								"offset": 0,
								"slot": "3",
								"type": "t_uint256"
							},
							{
								"astId": 1693,
								"contract": "smart-contracts/classroom/main/Canvassing.sol:Canvassing",
								"label": "targetNumberOfParticipants",
								"offset": 0,
								"slot": "4",
								"type": "t_uint256"
							},
							{
								"astId": 1695,
								"contract": "smart-contracts/classroom/main/Canvassing.sol:Canvassing",
								"label": "amountFundedInWei",
								"offset": 0,
								"slot": "5",
								"type": "t_uint256"
							},
							{
								"astId": 1697,
								"contract": "smart-contracts/classroom/main/Canvassing.sol:Canvassing",
								"label": "isBlank",
								"offset": 0,
								"slot": "6",
								"type": "t_bool"
							}
						],
						"numberOfBytes": "224"
					},
					"t_uint256": {
						"encoding": "inplace",
						"label": "uint256",
						"numberOfBytes": "32"
					}
				}
			},
			"userdoc": {
				"kind": "user",
				"methods": {},
				"version": 1
			}
		}
	}
}