{
	"smart-contracts/classroom/main/Canvassing_flattened.sol": {
		"Canvassing": {
			"abi": [
				{
					"inputs": [
						{
							"internalType": "uint256",
							"name": "",
							"type": "uint256"
						},
						{
							"internalType": "uint256",
							"name": "",
							"type": "uint256"
						}
					],
					"name": "allAnswers",
					"outputs": [
						{
							"internalType": "uint256",
							"name": "id",
							"type": "uint256"
						},
						{
							"internalType": "uint256",
							"name": "questionId",
							"type": "uint256"
						},
						{
							"internalType": "uint256",
							"name": "surveyId",
							"type": "uint256"
						},
						{
							"internalType": "address",
							"name": "participantWalletAddress",
							"type": "address"
						},
						{
							"internalType": "bool",
							"name": "value",
							"type": "bool"
						},
						{
							"internalType": "bool",
							"name": "isBlank",
							"type": "bool"
						}
					],
					"stateMutability": "view",
					"type": "function"
				},
				{
					"inputs": [
						{
							"internalType": "uint256",
							"name": "",
							"type": "uint256"
						}
					],
					"name": "allEarnings",
					"outputs": [
						{
							"internalType": "uint256",
							"name": "id",
							"type": "uint256"
						},
						{
							"internalType": "uint256",
							"name": "surveyId",
							"type": "uint256"
						},
						{
							"internalType": "address",
							"name": "recipientWalletAddress",
							"type": "address"
						},
						{
							"internalType": "uint256",
							"name": "amountPaidOutInWei",
							"type": "uint256"
						},
						{
							"internalType": "bool",
							"name": "isBlank",
							"type": "bool"
						}
					],
					"stateMutability": "view",
					"type": "function"
				},
				{
					"inputs": [
						{
							"internalType": "uint256",
							"name": "",
							"type": "uint256"
						}
					],
					"name": "allFundings",
					"outputs": [
						{
							"internalType": "uint256",
							"name": "id",
							"type": "uint256"
						},
						{
							"internalType": "uint256",
							"name": "surveyId",
							"type": "uint256"
						},
						{
							"internalType": "address",
							"name": "creatingResearcherWalletAddress",
							"type": "address"
						},
						{
							"internalType": "uint256",
							"name": "amountFundedInWei",
							"type": "uint256"
						},
						{
							"internalType": "bool",
							"name": "isBlank",
							"type": "bool"
						}
					],
					"stateMutability": "view",
					"type": "function"
				},
				{
					"inputs": [
						{
							"internalType": "address",
							"name": "",
							"type": "address"
						}
					],
					"name": "allParticipants",
					"outputs": [
						{
							"internalType": "uint256",
							"name": "id",
							"type": "uint256"
						},
						{
							"internalType": "address",
							"name": "walletAddress",
							"type": "address"
						},
						{
							"internalType": "string",
							"name": "gender",
							"type": "string"
						},
						{
							"internalType": "string",
							"name": "country",
							"type": "string"
						},
						{
							"internalType": "uint256",
							"name": "yearOfBirth",
							"type": "uint256"
						},
						{
							"internalType": "uint256",
							"name": "totalNumberOfSurveysTaken",
							"type": "uint256"
						},
						{
							"internalType": "bool",
							"name": "isResearcher",
							"type": "bool"
						},
						{
							"internalType": "bool",
							"name": "isBlank",
							"type": "bool"
						}
					],
					"stateMutability": "view",
					"type": "function"
				},
				{
					"inputs": [
						{
							"internalType": "uint256",
							"name": "",
							"type": "uint256"
						},
						{
							"internalType": "uint256",
							"name": "",
							"type": "uint256"
						}
					],
					"name": "allQuestions",
					"outputs": [
						{
							"internalType": "uint256",
							"name": "id",
							"type": "uint256"
						},
						{
							"internalType": "uint256",
							"name": "surveyId",
							"type": "uint256"
						},
						{
							"internalType": "string",
							"name": "sentence",
							"type": "string"
						},
						{
							"internalType": "bool",
							"name": "isBlank",
							"type": "bool"
						}
					],
					"stateMutability": "view",
					"type": "function"
				},
				{
					"inputs": [
						{
							"internalType": "address",
							"name": "",
							"type": "address"
						}
					],
					"name": "allResearchers",
					"outputs": [
						{
							"internalType": "uint256",
							"name": "id",
							"type": "uint256"
						},
						{
							"internalType": "address",
							"name": "walletAddress",
							"type": "address"
						},
						{
							"internalType": "string",
							"name": "industry",
							"type": "string"
						},
						{
							"internalType": "string",
							"name": "numberOfEmployees",
							"type": "string"
						},
						{
							"internalType": "string",
							"name": "yearsInOperation",
							"type": "string"
						},
						{
							"internalType": "bool",
							"name": "isParticipant",
							"type": "bool"
						},
						{
							"internalType": "bool",
							"name": "isVerified",
							"type": "bool"
						},
						{
							"internalType": "bool",
							"name": "isBlank",
							"type": "bool"
						}
					],
					"stateMutability": "view",
					"type": "function"
				},
				{
					"inputs": [
						{
							"internalType": "uint256",
							"name": "",
							"type": "uint256"
						}
					],
					"name": "allSurveys",
					"outputs": [
						{
							"internalType": "uint256",
							"name": "id",
							"type": "uint256"
						},
						{
							"internalType": "address",
							"name": "creatingResearcherWalletAddress",
							"type": "address"
						},
						{
							"internalType": "string",
							"name": "topic",
							"type": "string"
						},
						{
							"internalType": "uint256",
							"name": "numberOfQuestions",
							"type": "uint256"
						},
						{
							"internalType": "uint256",
							"name": "targetNumberOfParticipants",
							"type": "uint256"
						},
						{
							"internalType": "uint256",
							"name": "amountFundedInWei",
							"type": "uint256"
						},
						{
							"internalType": "bool",
							"name": "isBlank",
							"type": "bool"
						}
					],
					"stateMutability": "view",
					"type": "function"
				},
				{
					"inputs": [
						{
							"internalType": "address",
							"name": "_walletAddress",
							"type": "address"
						}
					],
					"name": "checkIfParticipantExists",
					"outputs": [
						{
							"internalType": "bool",
							"name": "",
							"type": "bool"
						}
					],
					"stateMutability": "view",
					"type": "function"
				},
				{
					"inputs": [
						{
							"internalType": "address",
							"name": "_participantWalletAddress",
							"type": "address"
						},
						{
							"internalType": "uint256",
							"name": "_surveyId",
							"type": "uint256"
						}
					],
					"name": "checkIfParticipantHasAlreadyParticipatedInSurvey",
					"outputs": [
						{
							"internalType": "bool",
							"name": "",
							"type": "bool"
						}
					],
					"stateMutability": "view",
					"type": "function"
				},
				{
					"inputs": [
						{
							"internalType": "address",
							"name": "_walletAddress",
							"type": "address"
						}
					],
					"name": "checkIfResearcherExists",
					"outputs": [
						{
							"internalType": "bool",
							"name": "",
							"type": "bool"
						}
					],
					"stateMutability": "view",
					"type": "function"
				},
				{
					"inputs": [
						{
							"internalType": "uint256",
							"name": "_numberOfQuestions",
							"type": "uint256"
						},
						{
							"internalType": "uint256",
							"name": "_targetNumberOfParticipants",
							"type": "uint256"
						},
						{
							"internalType": "uint256",
							"name": "_surveyId",
							"type": "uint256"
						},
						{
							"internalType": "address",
							"name": "_researcherWalletAddress",
							"type": "address"
						}
					],
					"name": "createFunding",
					"outputs": [],
					"stateMutability": "nonpayable",
					"type": "function"
				},
				{
					"inputs": [
						{
							"internalType": "address",
							"name": "_walletAddress",
							"type": "address"
						},
						{
							"internalType": "string",
							"name": "_gender",
							"type": "string"
						},
						{
							"internalType": "string",
							"name": "_country",
							"type": "string"
						},
						{
							"internalType": "uint256",
							"name": "_yearOfBirth",
							"type": "uint256"
						}
					],
					"name": "createParticipant",
					"outputs": [],
					"stateMutability": "nonpayable",
					"type": "function"
				},
				{
					"inputs": [
						{
							"internalType": "address",
							"name": "_walletAddress",
							"type": "address"
						},
						{
							"internalType": "string",
							"name": "_industry",
							"type": "string"
						},
						{
							"internalType": "string",
							"name": "_numberOfEmployees",
							"type": "string"
						},
						{
							"internalType": "string",
							"name": "_yearsInOperation",
							"type": "string"
						}
					],
					"name": "createResearcher",
					"outputs": [],
					"stateMutability": "nonpayable",
					"type": "function"
				},
				{
					"inputs": [
						{
							"internalType": "address",
							"name": "_researcherWalletAddress",
							"type": "address"
						},
						{
							"internalType": "string",
							"name": "_topic",
							"type": "string"
						},
						{
							"internalType": "uint256",
							"name": "_numberOfQuestions",
							"type": "uint256"
						},
						{
							"internalType": "uint256",
							"name": "_targetNumberOfParticipants",
							"type": "uint256"
						},
						{
							"internalType": "string[]",
							"name": "_questionSentences",
							"type": "string[]"
						},
						{
							"internalType": "uint256",
							"name": "_amountFundedForSurvey",
							"type": "uint256"
						}
					],
					"name": "createSurvey",
					"outputs": [
						{
							"internalType": "uint256",
							"name": "",
							"type": "uint256"
						}
					],
					"stateMutability": "nonpayable",
					"type": "function"
				},
				{
					"inputs": [
						{
							"internalType": "uint256",
							"name": "_surveyId",
							"type": "uint256"
						},
						{
							"internalType": "address",
							"name": "_participantWalletAddress",
							"type": "address"
						}
					],
					"name": "getAllAnswersOfParticipantOfSurvey",
					"outputs": [
						{
							"components": [
								{
									"internalType": "uint256",
									"name": "id",
									"type": "uint256"
								},
								{
									"internalType": "uint256",
									"name": "questionId",
									"type": "uint256"
								},
								{
									"internalType": "uint256",
									"name": "surveyId",
									"type": "uint256"
								},
								{
									"internalType": "address",
									"name": "participantWalletAddress",
									"type": "address"
								},
								{
									"internalType": "bool",
									"name": "value",
									"type": "bool"
								},
								{
									"internalType": "bool",
									"name": "isBlank",
									"type": "bool"
								}
							],
							"internalType": "struct Answer[]",
							"name": "",
							"type": "tuple[]"
						}
					],
					"stateMutability": "view",
					"type": "function"
				},
				{
					"inputs": [
						{
							"internalType": "address",
							"name": "_walletAddress",
							"type": "address"
						}
					],
					"name": "getAllEarningsMadeByParticipant",
					"outputs": [
						{
							"components": [
								{
									"internalType": "uint256",
									"name": "id",
									"type": "uint256"
								},
								{
									"internalType": "uint256",
									"name": "surveyId",
									"type": "uint256"
								},
								{
									"internalType": "address",
									"name": "recipientWalletAddress",
									"type": "address"
								},
								{
									"internalType": "uint256",
									"name": "amountPaidOutInWei",
									"type": "uint256"
								},
								{
									"internalType": "bool",
									"name": "isBlank",
									"type": "bool"
								}
							],
							"internalType": "struct Earning[]",
							"name": "",
							"type": "tuple[]"
						}
					],
					"stateMutability": "view",
					"type": "function"
				},
				{
					"inputs": [
						{
							"internalType": "uint256",
							"name": "_surveyId",
							"type": "uint256"
						}
					],
					"name": "getAllQuestionsOfSurvey",
					"outputs": [
						{
							"components": [
								{
									"internalType": "uint256",
									"name": "id",
									"type": "uint256"
								},
								{
									"internalType": "uint256",
									"name": "surveyId",
									"type": "uint256"
								},
								{
									"internalType": "string",
									"name": "sentence",
									"type": "string"
								},
								{
									"internalType": "bool",
									"name": "isBlank",
									"type": "bool"
								}
							],
							"internalType": "struct Question[]",
							"name": "",
							"type": "tuple[]"
						}
					],
					"stateMutability": "view",
					"type": "function"
				},
				{
					"inputs": [],
					"name": "getAllSurveys",
					"outputs": [
						{
							"components": [
								{
									"internalType": "uint256",
									"name": "id",
									"type": "uint256"
								},
								{
									"internalType": "address",
									"name": "creatingResearcherWalletAddress",
									"type": "address"
								},
								{
									"internalType": "string",
									"name": "topic",
									"type": "string"
								},
								{
									"internalType": "uint256",
									"name": "numberOfQuestions",
									"type": "uint256"
								},
								{
									"internalType": "uint256",
									"name": "targetNumberOfParticipants",
									"type": "uint256"
								},
								{
									"internalType": "uint256",
									"name": "amountFundedInWei",
									"type": "uint256"
								},
								{
									"internalType": "bool",
									"name": "isBlank",
									"type": "bool"
								}
							],
							"internalType": "struct Survey[]",
							"name": "",
							"type": "tuple[]"
						}
					],
					"stateMutability": "view",
					"type": "function"
				},
				{
					"inputs": [
						{
							"internalType": "address",
							"name": "_walletAddress",
							"type": "address"
						}
					],
					"name": "getAllSurveysTakenByParticipant",
					"outputs": [
						{
							"components": [
								{
									"internalType": "uint256",
									"name": "id",
									"type": "uint256"
								},
								{
									"internalType": "address",
									"name": "creatingResearcherWalletAddress",
									"type": "address"
								},
								{
									"internalType": "string",
									"name": "topic",
									"type": "string"
								},
								{
									"internalType": "uint256",
									"name": "numberOfQuestions",
									"type": "uint256"
								},
								{
									"internalType": "uint256",
									"name": "targetNumberOfParticipants",
									"type": "uint256"
								},
								{
									"internalType": "uint256",
									"name": "amountFundedInWei",
									"type": "uint256"
								},
								{
									"internalType": "bool",
									"name": "isBlank",
									"type": "bool"
								}
							],
							"internalType": "struct Survey[]",
							"name": "",
							"type": "tuple[]"
						}
					],
					"stateMutability": "view",
					"type": "function"
				},
				{
					"inputs": [
						{
							"internalType": "uint256",
							"name": "_surveyId",
							"type": "uint256"
						},
						{
							"internalType": "uint256",
							"name": "_numberOfParticipants",
							"type": "uint256"
						}
					],
					"name": "getAmountOfEarningForCanvassingForSurveyPerParticipantInWei",
					"outputs": [
						{
							"internalType": "uint256",
							"name": "",
							"type": "uint256"
						}
					],
					"stateMutability": "view",
					"type": "function"
				},
				{
					"inputs": [
						{
							"internalType": "uint256",
							"name": "_surveyId",
							"type": "uint256"
						}
					],
					"name": "getAmountOfEarningPerParticipantForSurveyInWei",
					"outputs": [
						{
							"internalType": "uint256",
							"name": "",
							"type": "uint256"
						}
					],
					"stateMutability": "view",
					"type": "function"
				},
				{
					"inputs": [
						{
							"internalType": "uint256",
							"name": "_numberOfQuestions",
							"type": "uint256"
						},
						{
							"internalType": "uint256",
							"name": "_targetNumberOfParticipants",
							"type": "uint256"
						}
					],
					"name": "getAmountOfFundingOfAnySurveyInWei",
					"outputs": [
						{
							"internalType": "uint256",
							"name": "",
							"type": "uint256"
						}
					],
					"stateMutability": "view",
					"type": "function"
				},
				{
					"inputs": [
						{
							"internalType": "uint256",
							"name": "_surveyId",
							"type": "uint256"
						}
					],
					"name": "getAnswersOfSurvey",
					"outputs": [
						{
							"components": [
								{
									"internalType": "uint256",
									"name": "id",
									"type": "uint256"
								},
								{
									"internalType": "uint256",
									"name": "questionId",
									"type": "uint256"
								},
								{
									"internalType": "uint256",
									"name": "surveyId",
									"type": "uint256"
								},
								{
									"internalType": "address",
									"name": "participantWalletAddress",
									"type": "address"
								},
								{
									"internalType": "bool",
									"name": "value",
									"type": "bool"
								},
								{
									"internalType": "bool",
									"name": "isBlank",
									"type": "bool"
								}
							],
							"internalType": "struct Answer[]",
							"name": "",
							"type": "tuple[]"
						}
					],
					"stateMutability": "view",
					"type": "function"
				},
				{
					"inputs": [
						{
							"internalType": "address",
							"name": "_creatingResearcherWalletAddress",
							"type": "address"
						}
					],
					"name": "getIdsOfLatestSurveysCreatedByResearchers",
					"outputs": [
						{
							"internalType": "uint256",
							"name": "",
							"type": "uint256"
						}
					],
					"stateMutability": "view",
					"type": "function"
				},
				{
					"inputs": [
						{
							"internalType": "address",
							"name": "_walletAddress",
							"type": "address"
						}
					],
					"name": "getParticipantByWalletAddress",
					"outputs": [
						{
							"components": [
								{
									"internalType": "uint256",
									"name": "id",
									"type": "uint256"
								},
								{
									"internalType": "address",
									"name": "walletAddress",
									"type": "address"
								},
								{
									"internalType": "string",
									"name": "gender",
									"type": "string"
								},
								{
									"internalType": "string",
									"name": "country",
									"type": "string"
								},
								{
									"internalType": "uint256",
									"name": "yearOfBirth",
									"type": "uint256"
								},
								{
									"internalType": "uint256",
									"name": "totalNumberOfSurveysTaken",
									"type": "uint256"
								},
								{
									"internalType": "bool",
									"name": "isResearcher",
									"type": "bool"
								},
								{
									"internalType": "bool",
									"name": "isBlank",
									"type": "bool"
								}
							],
							"internalType": "struct Participant",
							"name": "",
							"type": "tuple"
						}
					],
					"stateMutability": "view",
					"type": "function"
				},
				{
					"inputs": [
						{
							"internalType": "uint256",
							"name": "_surveyId",
							"type": "uint256"
						}
					],
					"name": "getParticipantsOfSurvey",
					"outputs": [
						{
							"components": [
								{
									"internalType": "uint256",
									"name": "id",
									"type": "uint256"
								},
								{
									"internalType": "address",
									"name": "walletAddress",
									"type": "address"
								},
								{
									"internalType": "string",
									"name": "gender",
									"type": "string"
								},
								{
									"internalType": "string",
									"name": "country",
									"type": "string"
								},
								{
									"internalType": "uint256",
									"name": "yearOfBirth",
									"type": "uint256"
								},
								{
									"internalType": "uint256",
									"name": "totalNumberOfSurveysTaken",
									"type": "uint256"
								},
								{
									"internalType": "bool",
									"name": "isResearcher",
									"type": "bool"
								},
								{
									"internalType": "bool",
									"name": "isBlank",
									"type": "bool"
								}
							],
							"internalType": "struct Participant[]",
							"name": "",
							"type": "tuple[]"
						}
					],
					"stateMutability": "view",
					"type": "function"
				},
				{
					"inputs": [
						{
							"internalType": "uint256",
							"name": "_surveyId",
							"type": "uint256"
						}
					],
					"name": "getQuestionsOfSurvey",
					"outputs": [
						{
							"components": [
								{
									"internalType": "uint256",
									"name": "id",
									"type": "uint256"
								},
								{
									"internalType": "uint256",
									"name": "surveyId",
									"type": "uint256"
								},
								{
									"internalType": "string",
									"name": "sentence",
									"type": "string"
								},
								{
									"internalType": "bool",
									"name": "isBlank",
									"type": "bool"
								}
							],
							"internalType": "struct Question[]",
							"name": "",
							"type": "tuple[]"
						}
					],
					"stateMutability": "view",
					"type": "function"
				},
				{
					"inputs": [
						{
							"internalType": "address",
							"name": "_walletAddress",
							"type": "address"
						}
					],
					"name": "getResearcherByWalletAddress",
					"outputs": [
						{
							"components": [
								{
									"internalType": "uint256",
									"name": "id",
									"type": "uint256"
								},
								{
									"internalType": "address",
									"name": "walletAddress",
									"type": "address"
								},
								{
									"internalType": "string",
									"name": "industry",
									"type": "string"
								},
								{
									"internalType": "string",
									"name": "numberOfEmployees",
									"type": "string"
								},
								{
									"internalType": "string",
									"name": "yearsInOperation",
									"type": "string"
								},
								{
									"internalType": "bool",
									"name": "isParticipant",
									"type": "bool"
								},
								{
									"internalType": "bool",
									"name": "isVerified",
									"type": "bool"
								},
								{
									"internalType": "bool",
									"name": "isBlank",
									"type": "bool"
								}
							],
							"internalType": "struct Researcher",
							"name": "",
							"type": "tuple"
						}
					],
					"stateMutability": "view",
					"type": "function"
				},
				{
					"inputs": [
						{
							"internalType": "uint256",
							"name": "_surveyId",
							"type": "uint256"
						}
					],
					"name": "getSurveyById",
					"outputs": [
						{
							"components": [
								{
									"internalType": "uint256",
									"name": "id",
									"type": "uint256"
								},
								{
									"internalType": "address",
									"name": "creatingResearcherWalletAddress",
									"type": "address"
								},
								{
									"internalType": "string",
									"name": "topic",
									"type": "string"
								},
								{
									"internalType": "uint256",
									"name": "numberOfQuestions",
									"type": "uint256"
								},
								{
									"internalType": "uint256",
									"name": "targetNumberOfParticipants",
									"type": "uint256"
								},
								{
									"internalType": "uint256",
									"name": "amountFundedInWei",
									"type": "uint256"
								},
								{
									"internalType": "bool",
									"name": "isBlank",
									"type": "bool"
								}
							],
							"internalType": "struct Survey",
							"name": "",
							"type": "tuple"
						}
					],
					"stateMutability": "view",
					"type": "function"
				},
				{
					"inputs": [
						{
							"internalType": "address",
							"name": "_researcherWalletAddress",
							"type": "address"
						}
					],
					"name": "getSurveysCreatedByResearcher",
					"outputs": [
						{
							"components": [
								{
									"internalType": "uint256",
									"name": "id",
									"type": "uint256"
								},
								{
									"internalType": "address",
									"name": "creatingResearcherWalletAddress",
									"type": "address"
								},
								{
									"internalType": "string",
									"name": "topic",
									"type": "string"
								},
								{
									"internalType": "uint256",
									"name": "numberOfQuestions",
									"type": "uint256"
								},
								{
									"internalType": "uint256",
									"name": "targetNumberOfParticipants",
									"type": "uint256"
								},
								{
									"internalType": "uint256",
									"name": "amountFundedInWei",
									"type": "uint256"
								},
								{
									"internalType": "bool",
									"name": "isBlank",
									"type": "bool"
								}
							],
							"internalType": "struct Survey[]",
							"name": "",
							"type": "tuple[]"
						}
					],
					"stateMutability": "view",
					"type": "function"
				},
				{
					"inputs": [
						{
							"internalType": "address",
							"name": "_creatingResearcherWalletAddress",
							"type": "address"
						}
					],
					"name": "getTotalAmountFundedByResearcherInWei",
					"outputs": [
						{
							"internalType": "uint256",
							"name": "",
							"type": "uint256"
						}
					],
					"stateMutability": "view",
					"type": "function"
				},
				{
					"inputs": [
						{
							"internalType": "address",
							"name": "_walletAddress",
							"type": "address"
						}
					],
					"name": "getTotalAmountOfEarningsReceivedByParticipantInWei",
					"outputs": [
						{
							"internalType": "uint256",
							"name": "",
							"type": "uint256"
						}
					],
					"stateMutability": "view",
					"type": "function"
				},
				{
					"inputs": [
						{
							"internalType": "address",
							"name": "_creatingResearcherWalletAddress",
							"type": "address"
						}
					],
					"name": "getTotalNumberOfSurveyCreatedByResearcher",
					"outputs": [
						{
							"internalType": "uint256",
							"name": "",
							"type": "uint256"
						}
					],
					"stateMutability": "view",
					"type": "function"
				},
				{
					"inputs": [
						{
							"internalType": "address",
							"name": "",
							"type": "address"
						}
					],
					"name": "idsOfLatestSurveysCreatedByResearchers",
					"outputs": [
						{
							"internalType": "uint256",
							"name": "",
							"type": "uint256"
						}
					],
					"stateMutability": "view",
					"type": "function"
				},
				{
					"inputs": [
						{
							"internalType": "uint256",
							"name": "_surveyId",
							"type": "uint256"
						},
						{
							"internalType": "address",
							"name": "_participantWalletAddress",
							"type": "address"
						}
					],
					"name": "makePayoutAndCreateEarning",
					"outputs": [],
					"stateMutability": "nonpayable",
					"type": "function"
				},
				{
					"inputs": [
						{
							"internalType": "uint256",
							"name": "",
							"type": "uint256"
						},
						{
							"internalType": "uint256",
							"name": "",
							"type": "uint256"
						}
					],
					"name": "participantsOfSurvey",
					"outputs": [
						{
							"internalType": "uint256",
							"name": "id",
							"type": "uint256"
						},
						{
							"internalType": "address",
							"name": "walletAddress",
							"type": "address"
						},
						{
							"internalType": "string",
							"name": "gender",
							"type": "string"
						},
						{
							"internalType": "string",
							"name": "country",
							"type": "string"
						},
						{
							"internalType": "uint256",
							"name": "yearOfBirth",
							"type": "uint256"
						},
						{
							"internalType": "uint256",
							"name": "totalNumberOfSurveysTaken",
							"type": "uint256"
						},
						{
							"internalType": "bool",
							"name": "isResearcher",
							"type": "bool"
						},
						{
							"internalType": "bool",
							"name": "isBlank",
							"type": "bool"
						}
					],
					"stateMutability": "view",
					"type": "function"
				},
				{
					"inputs": [
						{
							"internalType": "uint256",
							"name": "_surveyId",
							"type": "uint256"
						},
						{
							"internalType": "address",
							"name": "_participantWalletAddress",
							"type": "address"
						},
						{
							"internalType": "bool[]",
							"name": "_answerValues",
							"type": "bool[]"
						}
					],
					"name": "participateInSurvey",
					"outputs": [],
					"stateMutability": "nonpayable",
					"type": "function"
				},
				{
					"inputs": [
						{
							"internalType": "uint256",
							"name": "",
							"type": "uint256"
						},
						{
							"internalType": "address",
							"name": "",
							"type": "address"
						}
					],
					"name": "participationStatusForSurvey",
					"outputs": [
						{
							"internalType": "bool",
							"name": "",
							"type": "bool"
						}
					],
					"stateMutability": "view",
					"type": "function"
				},
				{
					"inputs": [
						{
							"internalType": "uint256",
							"name": "",
							"type": "uint256"
						},
						{
							"internalType": "address",
							"name": "",
							"type": "address"
						}
					],
					"name": "payoutStatusOfParticipantForSurvey",
					"outputs": [
						{
							"internalType": "bool",
							"name": "",
							"type": "bool"
						}
					],
					"stateMutability": "view",
					"type": "function"
				},
				{
					"inputs": [
						{
							"internalType": "address",
							"name": "",
							"type": "address"
						}
					],
					"name": "totalAmountFundedByResearchersInWei",
					"outputs": [
						{
							"internalType": "uint256",
							"name": "",
							"type": "uint256"
						}
					],
					"stateMutability": "view",
					"type": "function"
				},
				{
					"inputs": [
						{
							"internalType": "address",
							"name": "",
							"type": "address"
						}
					],
					"name": "totalNumberOfSurveysCreatedByResearchers",
					"outputs": [
						{
							"internalType": "uint256",
							"name": "",
							"type": "uint256"
						}
					],
					"stateMutability": "view",
					"type": "function"
				},
				{
					"inputs": [
						{
							"internalType": "address",
							"name": "_walletAddress",
							"type": "address"
						}
					],
					"name": "verifyResearcher",
					"outputs": [],
					"stateMutability": "nonpayable",
					"type": "function"
				}
			],
			"devdoc": {
				"kind": "dev",
				"methods": {},
				"version": 1
			},
			"evm": {
				"assembly": "    /* \"smart-contracts/classroom/main/Canvassing_flattened.sol\":2910:24508  contract Canvassing {... */\n  0x80\n  0x40\n  dup2\n  swap1\n  mstore\n    /* \"smart-contracts/classroom/main/Canvassing_flattened.sol\":2967:3051  address canvassingWalletAddress =... */\n  0x00\n  dup1\n  sload\n    /* \"smart-contracts/classroom/main/Canvassing_flattened.sol\":3009:3051  0xecE897a85688f2e83a73Fed36b9d1a6efCC99e93 */\n  0xece897a85688f2e83a73fed36b9d1a6efcc99e93\n  not(sub(shl(0xa0, 0x01), 0x01))\n    /* \"smart-contracts/classroom/main/Canvassing_flattened.sol\":2967:3051  address canvassingWalletAddress =... */\n  swap2\n  dup3\n  and\n  or\n  swap1\n  swap2\n  sstore\n    /* \"smart-contracts/classroom/main/Canvassing_flattened.sol\":4568:4630  ERC20 cUSD = ERC20(0x874069Fa1Eb16D44d622F2e0Ca25eeA172369bC1) */\n  0x15\n  dup1\n  sload\n    /* \"smart-contracts/classroom/main/Canvassing_flattened.sol\":4587:4629  0x874069Fa1Eb16D44d622F2e0Ca25eeA172369bC1 */\n  0x874069fa1eb16d44d622f2e0ca25eea172369bc1\n    /* \"smart-contracts/classroom/main/Canvassing_flattened.sol\":4568:4630  ERC20 cUSD = ERC20(0x874069Fa1Eb16D44d622F2e0Ca25eeA172369bC1) */\n  swap3\n  and\n  dup3\n  or\n  swap1\n  sstore\n  shl(0xe0, 0x313ce567)\n    /* \"smart-contracts/classroom/main/Canvassing_flattened.sol\":4669:4684  cUSD.decimals() */\n  dup3\n  mstore\n    /* \"smart-contracts/classroom/main/Canvassing_flattened.sol\":4587:4629  0x874069Fa1Eb16D44d622F2e0Ca25eeA172369bC1 */\n  swap1\n    /* \"smart-contracts/classroom/main/Canvassing_flattened.sol\":4669:4682  cUSD.decimals */\n  0x313ce567\n  swap1\n    /* \"smart-contracts/classroom/main/Canvassing_flattened.sol\":4669:4684  cUSD.decimals() */\n  0x84\n  swap1\n  0x20\n  swap1\n  0x04\n    /* \"smart-contracts/classroom/main/Canvassing_flattened.sol\":2910:24508  contract Canvassing {... */\n  dup2\n    /* \"smart-contracts/classroom/main/Canvassing_flattened.sol\":4587:4629  0x874069Fa1Eb16D44d622F2e0Ca25eeA172369bC1 */\n  dup7\n    /* \"smart-contracts/classroom/main/Canvassing_flattened.sol\":4669:4684  cUSD.decimals() */\n  gas\n  staticcall\n  iszero\n  dup1\n  iszero\n  tag_2\n  jumpi\n  returndatasize\n  0x00\n  dup1\n  returndatacopy\n  revert(0x00, returndatasize)\ntag_2:\n  pop\n  pop\n  pop\n  pop\n  mload(0x40)\n  returndatasize\n  not(0x1f)\n  0x1f\n  dup3\n  add\n  and\n  dup3\n  add\n  dup1\n  0x40\n  mstore\n  pop\n  dup2\n  add\n  swap1\n  tag_3\n  swap2\n  swap1\n  tag_4\n  jump\t// in\ntag_3:\n    /* \"smart-contracts/classroom/main/Canvassing_flattened.sol\":4664:4685  10**(cUSD.decimals()) */\n  tag_5\n  swap1\n    /* \"smart-contracts/classroom/main/Canvassing_flattened.sol\":4664:4666  10 */\n  0x0a\n    /* \"smart-contracts/classroom/main/Canvassing_flattened.sol\":4664:4685  10**(cUSD.decimals()) */\n  tag_6\n  jump\t// in\ntag_5:\n    /* \"smart-contracts/classroom/main/Canvassing_flattened.sol\":4636:4685  uint256 cUSDDecimalPlaces = 10**(cUSD.decimals()) */\n  0x16\n  sstore\n    /* \"smart-contracts/classroom/main/Canvassing_flattened.sol\":2910:24508  contract Canvassing {... */\n  callvalue\n  dup1\n  iszero\n  tag_7\n  jumpi\n  0x00\n  dup1\n  revert\ntag_7:\n  pop\n  jump(tag_12)\n    /* \"#utility.yul\":14:287   */\ntag_4:\n    /* \"#utility.yul\":82:88   */\n  0x00\n    /* \"#utility.yul\":135:137   */\n  0x20\n    /* \"#utility.yul\":123:132   */\n  dup3\n    /* \"#utility.yul\":114:121   */\n  dup5\n    /* \"#utility.yul\":110:133   */\n  sub\n    /* \"#utility.yul\":106:138   */\n  slt\n    /* \"#utility.yul\":103:155   */\n  iszero\n  tag_14\n  jumpi\n    /* \"#utility.yul\":151:152   */\n  0x00\n    /* \"#utility.yul\":148:149   */\n  dup1\n    /* \"#utility.yul\":141:153   */\n  revert\n    /* \"#utility.yul\":103:155   */\ntag_14:\n    /* \"#utility.yul\":183:192   */\n  dup2\n    /* \"#utility.yul\":177:193   */\n  mload\n    /* \"#utility.yul\":233:237   */\n  0xff\n    /* \"#utility.yul\":226:231   */\n  dup2\n    /* \"#utility.yul\":222:238   */\n  and\n    /* \"#utility.yul\":215:220   */\n  dup2\n    /* \"#utility.yul\":212:239   */\n  eq\n    /* \"#utility.yul\":202:257   */\n  tag_15\n  jumpi\n    /* \"#utility.yul\":253:254   */\n  0x00\n    /* \"#utility.yul\":250:251   */\n  dup1\n    /* \"#utility.yul\":243:255   */\n  revert\n    /* \"#utility.yul\":202:257   */\ntag_15:\n    /* \"#utility.yul\":276:281   */\n  swap4\n    /* \"#utility.yul\":14:287   */\n  swap3\n  pop\n  pop\n  pop\n  jump\t// out\n    /* \"#utility.yul\":292:419   */\ntag_9:\n    /* \"#utility.yul\":353:363   */\n  0x4e487b71\n    /* \"#utility.yul\":348:351   */\n  0xe0\n    /* \"#utility.yul\":344:364   */\n  shl\n    /* \"#utility.yul\":341:342   */\n  0x00\n    /* \"#utility.yul\":334:365   */\n  mstore\n    /* \"#utility.yul\":384:388   */\n  0x11\n    /* \"#utility.yul\":381:382   */\n  0x04\n    /* \"#utility.yul\":374:389   */\n  mstore\n    /* \"#utility.yul\":408:412   */\n  0x24\n    /* \"#utility.yul\":405:406   */\n  0x00\n    /* \"#utility.yul\":398:413   */\n  revert\n    /* \"#utility.yul\":424:846   */\ntag_10:\n    /* \"#utility.yul\":513:514   */\n  0x01\n    /* \"#utility.yul\":556:561   */\n  dup2\n    /* \"#utility.yul\":513:514   */\n  dup2\n    /* \"#utility.yul\":570:840   */\ntag_18:\n    /* \"#utility.yul\":591:598   */\n  dup1\n    /* \"#utility.yul\":581:589   */\n  dup6\n    /* \"#utility.yul\":578:599   */\n  gt\n    /* \"#utility.yul\":570:840   */\n  iszero\n  tag_20\n  jumpi\n    /* \"#utility.yul\":650:654   */\n  dup2\n    /* \"#utility.yul\":646:647   */\n  0x00\n    /* \"#utility.yul\":642:648   */\n  not\n    /* \"#utility.yul\":638:655   */\n  div\n    /* \"#utility.yul\":632:636   */\n  dup3\n    /* \"#utility.yul\":629:656   */\n  gt\n    /* \"#utility.yul\":626:679   */\n  iszero\n  tag_22\n  jumpi\n    /* \"#utility.yul\":659:677   */\n  tag_22\n  tag_9\n  jump\t// in\ntag_22:\n    /* \"#utility.yul\":709:716   */\n  dup1\n    /* \"#utility.yul\":699:707   */\n  dup6\n    /* \"#utility.yul\":695:717   */\n  and\n    /* \"#utility.yul\":692:747   */\n  iszero\n  tag_23\n  jumpi\n    /* \"#utility.yul\":729:745   */\n  swap2\n  dup2\n  mul\n  swap2\n    /* \"#utility.yul\":692:747   */\ntag_23:\n    /* \"#utility.yul\":808:830   */\n  swap4\n  dup5\n  shr\n  swap4\n    /* \"#utility.yul\":768:783   */\n  swap1\n  dup1\n  mul\n  swap1\n    /* \"#utility.yul\":570:840   */\n  jump(tag_18)\ntag_20:\n    /* \"#utility.yul\":574:577   */\n  pop\n    /* \"#utility.yul\":424:846   */\n  swap3\n  pop\n  swap3\n  swap1\n  pop\n  jump\t// out\n    /* \"#utility.yul\":851:1657   */\ntag_11:\n    /* \"#utility.yul\":900:905   */\n  0x00\n    /* \"#utility.yul\":930:938   */\n  dup3\n    /* \"#utility.yul\":920:1000   */\n  tag_25\n  jumpi\n  pop\n    /* \"#utility.yul\":971:972   */\n  0x01\n    /* \"#utility.yul\":985:990   */\n  jump(tag_24)\n    /* \"#utility.yul\":920:1000   */\ntag_25:\n    /* \"#utility.yul\":1019:1023   */\n  dup2\n    /* \"#utility.yul\":1009:1085   */\n  tag_26\n  jumpi\n  pop\n    /* \"#utility.yul\":1056:1057   */\n  0x00\n    /* \"#utility.yul\":1070:1075   */\n  jump(tag_24)\n    /* \"#utility.yul\":1009:1085   */\ntag_26:\n    /* \"#utility.yul\":1101:1105   */\n  dup2\n    /* \"#utility.yul\":1119:1120   */\n  0x01\n    /* \"#utility.yul\":1114:1173   */\n  dup2\n  eq\n  tag_28\n  jumpi\n    /* \"#utility.yul\":1187:1188   */\n  0x02\n    /* \"#utility.yul\":1182:1312   */\n  dup2\n  eq\n  tag_29\n  jumpi\n    /* \"#utility.yul\":1094:1312   */\n  jump(tag_27)\n    /* \"#utility.yul\":1114:1173   */\ntag_28:\n    /* \"#utility.yul\":1144:1145   */\n  0x01\n    /* \"#utility.yul\":1135:1145   */\n  swap2\n  pop\n    /* \"#utility.yul\":1158:1163   */\n  pop\n  jump(tag_24)\n    /* \"#utility.yul\":1182:1312   */\ntag_29:\n    /* \"#utility.yul\":1219:1222   */\n  0xff\n    /* \"#utility.yul\":1209:1217   */\n  dup5\n    /* \"#utility.yul\":1206:1223   */\n  gt\n    /* \"#utility.yul\":1203:1246   */\n  iszero\n  tag_31\n  jumpi\n    /* \"#utility.yul\":1226:1244   */\n  tag_31\n  tag_9\n  jump\t// in\ntag_31:\n  pop\n  pop\n    /* \"#utility.yul\":1282:1283   */\n  0x01\n    /* \"#utility.yul\":1268:1284   */\n  dup3\n  shl\n    /* \"#utility.yul\":1297:1302   */\n  jump(tag_24)\n    /* \"#utility.yul\":1094:1312   */\ntag_27:\n  pop\n    /* \"#utility.yul\":1396:1398   */\n  0x20\n    /* \"#utility.yul\":1386:1394   */\n  dup4\n    /* \"#utility.yul\":1383:1399   */\n  lt\n    /* \"#utility.yul\":1377:1380   */\n  0x0133\n    /* \"#utility.yul\":1371:1375   */\n  dup4\n    /* \"#utility.yul\":1368:1381   */\n  lt\n    /* \"#utility.yul\":1364:1400   */\n  and\n    /* \"#utility.yul\":1358:1360   */\n  0x4e\n    /* \"#utility.yul\":1348:1356   */\n  dup5\n    /* \"#utility.yul\":1345:1361   */\n  lt\n    /* \"#utility.yul\":1340:1342   */\n  0x0b\n    /* \"#utility.yul\":1334:1338   */\n  dup5\n    /* \"#utility.yul\":1331:1343   */\n  lt\n    /* \"#utility.yul\":1327:1362   */\n  and\n    /* \"#utility.yul\":1324:1401   */\n  or\n    /* \"#utility.yul\":1321:1480   */\n  iszero\n  tag_32\n  jumpi\n  pop\n    /* \"#utility.yul\":1433:1452   */\n  dup2\n  dup2\n  exp\n    /* \"#utility.yul\":1465:1470   */\n  jump(tag_24)\n    /* \"#utility.yul\":1321:1480   */\ntag_32:\n    /* \"#utility.yul\":1512:1546   */\n  tag_33\n    /* \"#utility.yul\":1537:1545   */\n  dup4\n    /* \"#utility.yul\":1531:1535   */\n  dup4\n    /* \"#utility.yul\":1512:1546   */\n  tag_10\n  jump\t// in\ntag_33:\n    /* \"#utility.yul\":1582:1588   */\n  dup1\n    /* \"#utility.yul\":1578:1579   */\n  0x00\n    /* \"#utility.yul\":1574:1580   */\n  not\n    /* \"#utility.yul\":1570:1589   */\n  div\n    /* \"#utility.yul\":1561:1568   */\n  dup3\n    /* \"#utility.yul\":1558:1590   */\n  gt\n    /* \"#utility.yul\":1555:1613   */\n  iszero\n  tag_35\n  jumpi\n    /* \"#utility.yul\":1593:1611   */\n  tag_35\n  tag_9\n  jump\t// in\ntag_35:\n    /* \"#utility.yul\":1631:1651   */\n  mul\n  swap1\n  pop\n    /* \"#utility.yul\":851:1657   */\ntag_24:\n  swap3\n  swap2\n  pop\n  pop\n  jump\t// out\n    /* \"#utility.yul\":1662:1802   */\ntag_6:\n    /* \"#utility.yul\":1720:1725   */\n  0x00\n    /* \"#utility.yul\":1749:1796   */\n  tag_15\n    /* \"#utility.yul\":1790:1794   */\n  0xff\n    /* \"#utility.yul\":1780:1788   */\n  dup5\n    /* \"#utility.yul\":1776:1795   */\n  and\n    /* \"#utility.yul\":1770:1774   */\n  dup4\n    /* \"#utility.yul\":1749:1796   */\n  tag_11\n  jump\t// in\n    /* \"#utility.yul\":1662:1802   */\ntag_12:\n    /* \"smart-contracts/classroom/main/Canvassing_flattened.sol\":2910:24508  contract Canvassing {... */\n  dataSize(sub_0)\n  dup1\n  dataOffset(sub_0)\n  0x00\n  codecopy\n  0x00\n  return\nstop\n\nsub_0: assembly {\n        /* \"smart-contracts/classroom/main/Canvassing_flattened.sol\":2910:24508  contract Canvassing {... */\n      mstore(0x40, 0x80)\n      callvalue\n      dup1\n      iszero\n      tag_1\n      jumpi\n      0x00\n      dup1\n      revert\n    tag_1:\n      pop\n      jumpi(tag_2, lt(calldatasize, 0x04))\n      shr(0xe0, calldataload(0x00))\n      dup1\n      0x6b8ac0e7\n      gt\n      tag_45\n      jumpi\n      dup1\n      0xa58543fe\n      gt\n      tag_46\n      jumpi\n      dup1\n      0xcc4903ca\n      gt\n      tag_47\n      jumpi\n      dup1\n      0xcc4903ca\n      eq\n      tag_39\n      jumpi\n      dup1\n      0xd7e93794\n      eq\n      tag_40\n      jumpi\n      dup1\n      0xd8cb6290\n      eq\n      tag_41\n      jumpi\n      dup1\n      0xf31e72e4\n      eq\n      tag_42\n      jumpi\n      dup1\n      0xf692a3bb\n      eq\n      tag_43\n      jumpi\n      dup1\n      0xfb47e9e6\n      eq\n      tag_44\n      jumpi\n      0x00\n      dup1\n      revert\n    tag_47:\n      dup1\n      0xa58543fe\n      eq\n      tag_34\n      jumpi\n      dup1\n      0xb3265ecd\n      eq\n      tag_35\n      jumpi\n      dup1\n      0xb9c745b3\n      eq\n      tag_36\n      jumpi\n      dup1\n      0xc0ac4ae4\n      eq\n      tag_37\n      jumpi\n      dup1\n      0xca2e7f9b\n      eq\n      tag_38\n      jumpi\n      0x00\n      dup1\n      revert\n    tag_46:\n      dup1\n      0x7e950819\n      gt\n      tag_48\n      jumpi\n      dup1\n      0x7e950819\n      eq\n      tag_29\n      jumpi\n      dup1\n      0x8e6da619\n      eq\n      tag_30\n      jumpi\n      dup1\n      0x95ecea1f\n      eq\n      tag_31\n      jumpi\n      dup1\n      0x964f6566\n      eq\n      tag_32\n      jumpi\n      dup1\n      0x9a23218f\n      eq\n      tag_33\n      jumpi\n      0x00\n      dup1\n      revert\n    tag_48:\n      dup1\n      0x6b8ac0e7\n      eq\n      tag_24\n      jumpi\n      dup1\n      0x6f5fde11\n      eq\n      tag_25\n      jumpi\n      dup1\n      0x73fd653d\n      eq\n      tag_26\n      jumpi\n      dup1\n      0x79252d97\n      eq\n      tag_27\n      jumpi\n      dup1\n      0x7a1bc375\n      eq\n      tag_28\n      jumpi\n      0x00\n      dup1\n      revert\n    tag_45:\n      dup1\n      0x392a5822\n      gt\n      tag_49\n      jumpi\n      dup1\n      0x4fe1cfad\n      gt\n      tag_50\n      jumpi\n      dup1\n      0x4fe1cfad\n      eq\n      tag_18\n      jumpi\n      dup1\n      0x5822bff1\n      eq\n      tag_19\n      jumpi\n      dup1\n      0x5b76074e\n      eq\n      tag_20\n      jumpi\n      dup1\n      0x5fa7a90a\n      eq\n      tag_21\n      jumpi\n      dup1\n      0x68df3299\n      eq\n      tag_22\n      jumpi\n      dup1\n      0x69bff3fb\n      eq\n      tag_23\n      jumpi\n      0x00\n      dup1\n      revert\n    tag_50:\n      dup1\n      0x392a5822\n      eq\n      tag_13\n      jumpi\n      dup1\n      0x3abb615a\n      eq\n      tag_14\n      jumpi\n      dup1\n      0x3b43b7d0\n      eq\n      tag_15\n      jumpi\n      dup1\n      0x40ca213d\n      eq\n      tag_16\n      jumpi\n      dup1\n      0x44962609\n      eq\n      tag_17\n      jumpi\n      0x00\n      dup1\n      revert\n    tag_49:\n      dup1\n      0x1bd1ebc4\n      gt\n      tag_51\n      jumpi\n      dup1\n      0x1bd1ebc4\n      eq\n      tag_8\n      jumpi\n      dup1\n      0x2076a35a\n      eq\n      tag_9\n      jumpi\n      dup1\n      0x2394e5dc\n      eq\n      tag_10\n      jumpi\n      dup1\n      0x25f18424\n      eq\n      tag_11\n      jumpi\n      dup1\n      0x3882db7d\n      eq\n      tag_12\n      jumpi\n      0x00\n      dup1\n      revert\n    tag_51:\n      dup1\n      0x03f16747\n      eq\n      tag_3\n      jumpi\n      dup1\n      0x0478318b\n      eq\n      tag_4\n      jumpi\n      dup1\n      0x07f6646e\n      eq\n      tag_5\n      jumpi\n      dup1\n      0x125bb83d\n      eq\n      tag_6\n      jumpi\n      dup1\n      0x1b6f2485\n      eq\n      tag_7\n      jumpi\n    tag_2:\n      0x00\n      dup1\n      revert\n        /* \"smart-contracts/classroom/main/Canvassing_flattened.sol\":11174:12098  function getAmountOfFundingOfAnySurveyInWei(... */\n    tag_3:\n      tag_52\n      tag_53\n      calldatasize\n      0x04\n      tag_54\n      jump\t// in\n    tag_53:\n      tag_55\n      jump\t// in\n    tag_52:\n      mload(0x40)\n        /* \"#utility.yul\":413:438   */\n      swap1\n      dup2\n      mstore\n        /* \"#utility.yul\":401:403   */\n      0x20\n        /* \"#utility.yul\":386:404   */\n      add\n        /* \"smart-contracts/classroom/main/Canvassing_flattened.sol\":11174:12098  function getAmountOfFundingOfAnySurveyInWei(... */\n    tag_56:\n      mload(0x40)\n      dup1\n      swap2\n      sub\n      swap1\n      return\n        /* \"smart-contracts/classroom/main/Canvassing_flattened.sol\":17225:17409  function getResearcherByWalletAddress(address _walletAddress)... */\n    tag_4:\n      tag_58\n      tag_59\n      calldatasize\n      0x04\n      tag_60\n      jump\t// in\n    tag_59:\n      tag_61\n      jump\t// in\n    tag_58:\n      mload(0x40)\n      tag_56\n      swap2\n      swap1\n      tag_63\n      jump\t// in\n        /* \"smart-contracts/classroom/main/Canvassing_flattened.sol\":19142:20198  function getSurveysCreatedByResearcher(address _researcherWalletAddress)... */\n    tag_5:\n      tag_64\n      tag_65\n      calldatasize\n      0x04\n      tag_60\n      jump\t// in\n    tag_65:\n      tag_66\n      jump\t// in\n    tag_64:\n      mload(0x40)\n      tag_56\n      swap2\n      swap1\n      tag_68\n      jump\t// in\n        /* \"smart-contracts/classroom/main/Canvassing_flattened.sol\":4184:4245  mapping(uint256 => Participant[]) public participantsOfSurvey */\n    tag_6:\n      tag_69\n      tag_70\n      calldatasize\n      0x04\n      tag_54\n      jump\t// in\n    tag_70:\n      tag_71\n      jump\t// in\n    tag_69:\n      mload(0x40)\n      tag_56\n      swap9\n      swap8\n      swap7\n      swap6\n      swap5\n      swap4\n      swap3\n      swap2\n      swap1\n      tag_73\n      jump\t// in\n        /* \"smart-contracts/classroom/main/Canvassing_flattened.sol\":3266:3292  Survey[] public allSurveys */\n    tag_7:\n      tag_74\n      tag_75\n      calldatasize\n      0x04\n      tag_76\n      jump\t// in\n    tag_75:\n      tag_77\n      jump\t// in\n    tag_74:\n      mload(0x40)\n      tag_56\n      swap8\n      swap7\n      swap6\n      swap5\n      swap4\n      swap3\n      swap2\n      swap1\n      tag_79\n      jump\t// in\n        /* \"smart-contracts/classroom/main/Canvassing_flattened.sol\":12104:12810  function getAmountOfEarningPerParticipantForSurveyInWei(uint256 _surveyId)... */\n    tag_8:\n      tag_52\n      tag_81\n      calldatasize\n      0x04\n      tag_76\n      jump\t// in\n    tag_81:\n      tag_82\n      jump\t// in\n        /* \"smart-contracts/classroom/main/Canvassing_flattened.sol\":9679:10899  function getAllAnswersOfParticipantOfSurvey(... */\n    tag_9:\n      tag_84\n      tag_85\n      calldatasize\n      0x04\n      tag_86\n      jump\t// in\n    tag_85:\n      tag_87\n      jump\t// in\n    tag_84:\n      mload(0x40)\n      tag_56\n      swap2\n      swap1\n      tag_89\n      jump\t// in\n        /* \"smart-contracts/classroom/main/Canvassing_flattened.sol\":4957:5144  function getParticipantByWalletAddress(address _walletAddress)... */\n    tag_10:\n      tag_90\n      tag_91\n      calldatasize\n      0x04\n      tag_60\n      jump\t// in\n    tag_91:\n      tag_92\n      jump\t// in\n    tag_90:\n      mload(0x40)\n      tag_56\n      swap2\n      swap1\n      tag_94\n      jump\t// in\n        /* \"smart-contracts/classroom/main/Canvassing_flattened.sol\":8572:9500  function getTotalAmountOfEarningsReceivedByParticipantInWei(... */\n    tag_11:\n      tag_52\n      tag_96\n      calldatasize\n      0x04\n      tag_60\n      jump\t// in\n    tag_96:\n      tag_97\n      jump\t// in\n        /* \"smart-contracts/classroom/main/Canvassing_flattened.sol\":23713:23988  function getIdsOfLatestSurveysCreatedByResearchers(... */\n    tag_12:\n      tag_52\n      tag_100\n      calldatasize\n      0x04\n      tag_60\n      jump\t// in\n    tag_100:\n      sub(shl(0xa0, 0x01), 0x01)\n        /* \"smart-contracts/classroom/main/Canvassing_flattened.sol\":23879:23981  idsOfLatestSurveysCreatedByResearchers[... */\n      and\n        /* \"smart-contracts/classroom/main/Canvassing_flattened.sol\":23841:23848  uint256 */\n      0x00\n        /* \"smart-contracts/classroom/main/Canvassing_flattened.sol\":23879:23981  idsOfLatestSurveysCreatedByResearchers[... */\n      swap1\n      dup2\n      mstore\n        /* \"smart-contracts/classroom/main/Canvassing_flattened.sol\":23879:23917  idsOfLatestSurveysCreatedByResearchers */\n      0x0a\n        /* \"smart-contracts/classroom/main/Canvassing_flattened.sol\":23879:23981  idsOfLatestSurveysCreatedByResearchers[... */\n      0x20\n      mstore\n      0x40\n      swap1\n      keccak256\n      sload\n      swap1\n        /* \"smart-contracts/classroom/main/Canvassing_flattened.sol\":23713:23988  function getIdsOfLatestSurveysCreatedByResearchers(... */\n      jump\n        /* \"smart-contracts/classroom/main/Canvassing_flattened.sol\":6436:7458  function getAllEarningsMadeByParticipant(address _walletAddress)... */\n    tag_13:\n      tag_103\n      tag_104\n      calldatasize\n      0x04\n      tag_60\n      jump\t// in\n    tag_104:\n      tag_105\n      jump\t// in\n    tag_103:\n      mload(0x40)\n      tag_56\n      swap2\n      swap1\n      tag_107\n      jump\t// in\n        /* \"smart-contracts/classroom/main/Canvassing_flattened.sol\":7464:8566  function getAllSurveysTakenByParticipant(address _walletAddress)... */\n    tag_14:\n      tag_64\n      tag_109\n      calldatasize\n      0x04\n      tag_60\n      jump\t// in\n    tag_109:\n      tag_110\n      jump\t// in\n        /* \"smart-contracts/classroom/main/Canvassing_flattened.sol\":5150:6170  function createParticipant(... */\n    tag_15:\n      tag_112\n      tag_113\n      calldatasize\n      0x04\n      tag_114\n      jump\t// in\n    tag_113:\n      tag_115\n      jump\t// in\n    tag_112:\n      stop\n        /* \"smart-contracts/classroom/main/Canvassing_flattened.sol\":17415:18579  function createResearcher(... */\n    tag_16:\n      tag_112\n      tag_117\n      calldatasize\n      0x04\n      tag_118\n      jump\t// in\n    tag_117:\n      tag_119\n      jump\t// in\n        /* \"smart-contracts/classroom/main/Canvassing_flattened.sol\":12816:13331  function getAmountOfEarningForCanvassingForSurveyPerParticipantInWei(... */\n    tag_17:\n      tag_52\n      tag_121\n      calldatasize\n      0x04\n      tag_54\n      jump\t// in\n    tag_121:\n      tag_122\n      jump\t// in\n        /* \"smart-contracts/classroom/main/Canvassing_flattened.sol\":18585:18862  function getTotalNumberOfSurveyCreatedByResearcher(... */\n    tag_18:\n      tag_52\n      tag_125\n      calldatasize\n      0x04\n      tag_60\n      jump\t// in\n    tag_125:\n      sub(shl(0xa0, 0x01), 0x01)\n        /* \"smart-contracts/classroom/main/Canvassing_flattened.sol\":18751:18855  totalNumberOfSurveysCreatedByResearchers[... */\n      and\n        /* \"smart-contracts/classroom/main/Canvassing_flattened.sol\":18713:18720  uint256 */\n      0x00\n        /* \"smart-contracts/classroom/main/Canvassing_flattened.sol\":18751:18855  totalNumberOfSurveysCreatedByResearchers[... */\n      swap1\n      dup2\n      mstore\n        /* \"smart-contracts/classroom/main/Canvassing_flattened.sol\":18751:18791  totalNumberOfSurveysCreatedByResearchers */\n      0x08\n        /* \"smart-contracts/classroom/main/Canvassing_flattened.sol\":18751:18855  totalNumberOfSurveysCreatedByResearchers[... */\n      0x20\n      mstore\n      0x40\n      swap1\n      keccak256\n      sload\n      swap1\n        /* \"smart-contracts/classroom/main/Canvassing_flattened.sol\":18585:18862  function getTotalNumberOfSurveyCreatedByResearcher(... */\n      jump\n        /* \"smart-contracts/classroom/main/Canvassing_flattened.sol\":3811:3886  mapping(address => uint256) public totalNumberOfSurveysCreatedByResearchers */\n    tag_19:\n      tag_52\n      tag_129\n      calldatasize\n      0x04\n      tag_60\n      jump\t// in\n    tag_129:\n      mstore(0x20, 0x08)\n      0x00\n      swap1\n      dup2\n      mstore\n      0x40\n      swap1\n      keccak256\n      sload\n      dup2\n      jump\n        /* \"smart-contracts/classroom/main/Canvassing_flattened.sol\":3206:3260  mapping(address => Participant) public allParticipants */\n    tag_20:\n      tag_69\n      tag_133\n      calldatasize\n      0x04\n      tag_60\n      jump\t// in\n    tag_133:\n      tag_134\n      jump\t// in\n        /* \"smart-contracts/classroom/main/Canvassing_flattened.sol\":3946:4016  mapping(address => uint256) public totalAmountFundedByResearchersInWei */\n    tag_21:\n      tag_52\n      tag_137\n      calldatasize\n      0x04\n      tag_60\n      jump\t// in\n    tag_137:\n      mstore(0x20, 0x09)\n      0x00\n      swap1\n      dup2\n      mstore\n      0x40\n      swap1\n      keccak256\n      sload\n      dup2\n      jump\n        /* \"smart-contracts/classroom/main/Canvassing_flattened.sol\":21592:23707  function createSurvey(... */\n    tag_22:\n      tag_52\n      tag_141\n      calldatasize\n      0x04\n      tag_142\n      jump\t// in\n    tag_141:\n      tag_143\n      jump\t// in\n        /* \"smart-contracts/classroom/main/Canvassing_flattened.sol\":3414:3460  mapping(uint256 => Answer[]) public allAnswers */\n    tag_23:\n      tag_145\n      tag_146\n      calldatasize\n      0x04\n      tag_54\n      jump\t// in\n    tag_146:\n      tag_147\n      jump\t// in\n    tag_145:\n      0x40\n      dup1\n      mload\n        /* \"#utility.yul\":13970:13995   */\n      swap7\n      dup8\n      mstore\n        /* \"#utility.yul\":14026:14028   */\n      0x20\n        /* \"#utility.yul\":14011:14029   */\n      dup8\n      add\n        /* \"#utility.yul\":14004:14038   */\n      swap6\n      swap1\n      swap6\n      mstore\n        /* \"#utility.yul\":14054:14072   */\n      swap4\n      dup6\n      add\n        /* \"#utility.yul\":14047:14081   */\n      swap3\n      swap1\n      swap3\n      mstore\n      sub(shl(0xa0, 0x01), 0x01)\n        /* \"#utility.yul\":14117:14149   */\n      and\n        /* \"#utility.yul\":14112:14114   */\n      0x60\n        /* \"#utility.yul\":14097:14115   */\n      dup5\n      add\n        /* \"#utility.yul\":14090:14150   */\n      mstore\n        /* \"#utility.yul\":14194:14208   */\n      iszero\n        /* \"#utility.yul\":14187:14209   */\n      iszero\n        /* \"#utility.yul\":14181:14184   */\n      0x80\n        /* \"#utility.yul\":14166:14185   */\n      dup4\n      add\n        /* \"#utility.yul\":14159:14210   */\n      mstore\n        /* \"#utility.yul\":14254:14268   */\n      iszero\n        /* \"#utility.yul\":14247:14269   */\n      iszero\n        /* \"#utility.yul\":14137:14140   */\n      0xa0\n        /* \"#utility.yul\":14226:14245   */\n      dup3\n      add\n        /* \"#utility.yul\":14219:14270   */\n      mstore\n        /* \"#utility.yul\":13957:13960   */\n      0xc0\n        /* \"#utility.yul\":13942:13961   */\n      add\n        /* \"smart-contracts/classroom/main/Canvassing_flattened.sol\":3414:3460  mapping(uint256 => Answer[]) public allAnswers */\n      tag_56\n        /* \"#utility.yul\":13695:14276   */\n      jump\n        /* \"smart-contracts/classroom/main/Canvassing_flattened.sol\":15015:16956  function makePayoutAndCreateEarning(... */\n    tag_24:\n      tag_112\n      tag_151\n      calldatasize\n      0x04\n      tag_86\n      jump\t// in\n    tag_151:\n      tag_152\n      jump\t// in\n        /* \"smart-contracts/classroom/main/Canvassing_flattened.sol\":4692:4951  function checkIfParticipantExists(address _walletAddress)... */\n    tag_25:\n      tag_153\n      tag_154\n      calldatasize\n      0x04\n      tag_60\n      jump\t// in\n    tag_154:\n      tag_155\n      jump\t// in\n    tag_153:\n      mload(0x40)\n        /* \"#utility.yul\":14446:14460   */\n      swap1\n      iszero\n        /* \"#utility.yul\":14439:14461   */\n      iszero\n        /* \"#utility.yul\":14421:14462   */\n      dup2\n      mstore\n        /* \"#utility.yul\":14409:14411   */\n      0x20\n        /* \"#utility.yul\":14394:14412   */\n      add\n        /* \"smart-contracts/classroom/main/Canvassing_flattened.sol\":4692:4951  function checkIfParticipantExists(address _walletAddress)... */\n      tag_56\n        /* \"#utility.yul\":14281:14468   */\n      jump\n        /* \"smart-contracts/classroom/main/Canvassing_flattened.sol\":21339:21586  function verifyResearcher(address _walletAddress) public {... */\n    tag_26:\n      tag_112\n      tag_159\n      calldatasize\n      0x04\n      tag_60\n      jump\t// in\n    tag_159:\n      tag_160\n      jump\t// in\n        /* \"smart-contracts/classroom/main/Canvassing_flattened.sol\":18868:19136  function getTotalAmountFundedByResearcherInWei(... */\n    tag_27:\n      tag_52\n      tag_162\n      calldatasize\n      0x04\n      tag_60\n      jump\t// in\n    tag_162:\n      sub(shl(0xa0, 0x01), 0x01)\n        /* \"smart-contracts/classroom/main/Canvassing_flattened.sol\":19030:19129  totalAmountFundedByResearchersInWei[... */\n      and\n        /* \"smart-contracts/classroom/main/Canvassing_flattened.sol\":18992:18999  uint256 */\n      0x00\n        /* \"smart-contracts/classroom/main/Canvassing_flattened.sol\":19030:19129  totalAmountFundedByResearchersInWei[... */\n      swap1\n      dup2\n      mstore\n        /* \"smart-contracts/classroom/main/Canvassing_flattened.sol\":19030:19065  totalAmountFundedByResearchersInWei */\n      0x09\n        /* \"smart-contracts/classroom/main/Canvassing_flattened.sol\":19030:19129  totalAmountFundedByResearchersInWei[... */\n      0x20\n      mstore\n      0x40\n      swap1\n      keccak256\n      sload\n      swap1\n        /* \"smart-contracts/classroom/main/Canvassing_flattened.sol\":18868:19136  function getTotalAmountFundedByResearcherInWei(... */\n      jump\n        /* \"smart-contracts/classroom/main/Canvassing_flattened.sol\":6176:6273  function getAllSurveys() public view returns (Survey[] memory) {... */\n    tag_28:\n      tag_64\n      tag_166\n      jump\t// in\n        /* \"smart-contracts/classroom/main/Canvassing_flattened.sol\":3658:3752  mapping(uint256 => mapping(address => bool))... */\n    tag_29:\n      tag_153\n      tag_169\n      calldatasize\n      0x04\n      tag_86\n      jump\t// in\n    tag_169:\n      0x07\n      0x20\n      swap1\n      dup2\n      mstore\n      0x00\n      swap3\n      dup4\n      mstore\n      0x40\n      dup1\n      dup5\n      keccak256\n      swap1\n      swap2\n      mstore\n      swap1\n      dup3\n      mstore\n      swap1\n      keccak256\n      sload\n      0xff\n      and\n      dup2\n      jump\n        /* \"smart-contracts/classroom/main/Canvassing_flattened.sol\":4287:4315  Earning[] public allEarnings */\n    tag_30:\n      tag_172\n      tag_173\n      calldatasize\n      0x04\n      tag_76\n      jump\t// in\n    tag_173:\n      tag_174\n      jump\t// in\n    tag_172:\n      0x40\n      dup1\n      mload\n        /* \"#utility.yul\":14726:14751   */\n      swap6\n      dup7\n      mstore\n        /* \"#utility.yul\":14782:14784   */\n      0x20\n        /* \"#utility.yul\":14767:14785   */\n      dup7\n      add\n        /* \"#utility.yul\":14760:14794   */\n      swap5\n      swap1\n      swap5\n      mstore\n      sub(shl(0xa0, 0x01), 0x01)\n        /* \"#utility.yul\":14830:14862   */\n      swap1\n      swap3\n      and\n        /* \"#utility.yul\":14810:14828   */\n      swap3\n      dup5\n      add\n        /* \"#utility.yul\":14803:14863   */\n      swap3\n      swap1\n      swap3\n      mstore\n        /* \"#utility.yul\":14894:14896   */\n      0x60\n        /* \"#utility.yul\":14879:14897   */\n      dup4\n      add\n        /* \"#utility.yul\":14872:14906   */\n      swap2\n      swap1\n      swap2\n      mstore\n        /* \"#utility.yul\":14950:14964   */\n      iszero\n        /* \"#utility.yul\":14943:14965   */\n      iszero\n        /* \"#utility.yul\":14937:14940   */\n      0x80\n        /* \"#utility.yul\":14922:14941   */\n      dup3\n      add\n        /* \"#utility.yul\":14915:14966   */\n      mstore\n        /* \"#utility.yul\":14713:14716   */\n      0xa0\n        /* \"#utility.yul\":14698:14717   */\n      add\n        /* \"smart-contracts/classroom/main/Canvassing_flattened.sol\":4287:4315  Earning[] public allEarnings */\n      tag_56\n        /* \"#utility.yul\":14473:14972   */\n      jump\n        /* \"smart-contracts/classroom/main/Canvassing_flattened.sol\":4252:4280  Funding[] public allFundings */\n    tag_31:\n      tag_172\n      tag_178\n      calldatasize\n      0x04\n      tag_76\n      jump\t// in\n    tag_178:\n      tag_179\n      jump\t// in\n        /* \"smart-contracts/classroom/main/Canvassing_flattened.sol\":23994:24172  function getParticipantsOfSurvey(uint256 _surveyId)... */\n    tag_32:\n      tag_181\n      tag_182\n      calldatasize\n      0x04\n      tag_76\n      jump\t// in\n    tag_182:\n      tag_183\n      jump\t// in\n    tag_181:\n      mload(0x40)\n      tag_56\n      swap2\n      swap1\n      tag_185\n      jump\t// in\n        /* \"smart-contracts/classroom/main/Canvassing_flattened.sol\":16962:17219  function checkIfResearcherExists(address _walletAddress)... */\n    tag_33:\n      tag_153\n      tag_187\n      calldatasize\n      0x04\n      tag_60\n      jump\t// in\n    tag_187:\n      tag_188\n      jump\t// in\n        /* \"smart-contracts/classroom/main/Canvassing_flattened.sol\":10905:11168  function checkIfParticipantHasAlreadyParticipatedInSurvey(... */\n    tag_34:\n      tag_153\n      tag_191\n      calldatasize\n      0x04\n      tag_192\n      jump\t// in\n    tag_191:\n        /* \"smart-contracts/classroom/main/Canvassing_flattened.sol\":11060:11064  bool */\n      0x00\n        /* \"smart-contracts/classroom/main/Canvassing_flattened.sol\":11095:11134  participationStatusForSurvey[_surveyId] */\n      swap1\n      dup2\n      mstore\n        /* \"smart-contracts/classroom/main/Canvassing_flattened.sol\":11095:11123  participationStatusForSurvey */\n      0x06\n        /* \"smart-contracts/classroom/main/Canvassing_flattened.sol\":11095:11134  participationStatusForSurvey[_surveyId] */\n      0x20\n      swap1\n      dup2\n      mstore\n      0x40\n      dup1\n      dup4\n      keccak256\n      sub(shl(0xa0, 0x01), 0x01)\n        /* \"smart-contracts/classroom/main/Canvassing_flattened.sol\":11095:11161  participationStatusForSurvey[_surveyId][_participantWalletAddress] */\n      swap5\n      swap1\n      swap5\n      and\n      dup4\n      mstore\n      swap3\n      swap1\n      mstore\n      keccak256\n      sload\n      0xff\n      and\n      swap1\n        /* \"smart-contracts/classroom/main/Canvassing_flattened.sol\":10905:11168  function checkIfParticipantHasAlreadyParticipatedInSurvey(... */\n      jump\n        /* \"smart-contracts/classroom/main/Canvassing_flattened.sol\":20204:21333  function createFunding(... */\n    tag_35:\n      tag_112\n      tag_196\n      calldatasize\n      0x04\n      tag_197\n      jump\t// in\n    tag_196:\n      tag_198\n      jump\t// in\n        /* \"smart-contracts/classroom/main/Canvassing_flattened.sol\":3496:3584  mapping(uint256 => mapping(address => bool))... */\n    tag_36:\n      tag_153\n      tag_200\n      calldatasize\n      0x04\n      tag_86\n      jump\t// in\n    tag_200:\n      0x06\n      0x20\n      swap1\n      dup2\n      mstore\n      0x00\n      swap3\n      dup4\n      mstore\n      0x40\n      dup1\n      dup5\n      keccak256\n      swap1\n      swap2\n      mstore\n      swap1\n      dup3\n      mstore\n      swap1\n      keccak256\n      sload\n      0xff\n      and\n      dup2\n      jump\n        /* \"smart-contracts/classroom/main/Canvassing_flattened.sol\":6279:6430  function getSurveyById(uint256 _surveyId)... */\n    tag_37:\n      tag_203\n      tag_204\n      calldatasize\n      0x04\n      tag_76\n      jump\t// in\n    tag_204:\n      tag_205\n      jump\t// in\n    tag_203:\n      mload(0x40)\n      tag_56\n      swap2\n      swap1\n      tag_207\n      jump\t// in\n        /* \"smart-contracts/classroom/main/Canvassing_flattened.sol\":13337:15009  function participateInSurvey(... */\n    tag_38:\n      tag_112\n      tag_209\n      calldatasize\n      0x04\n      tag_210\n      jump\t// in\n    tag_209:\n      tag_211\n      jump\t// in\n        /* \"smart-contracts/classroom/main/Canvassing_flattened.sol\":24348:24506  function getAnswersOfSurvey(uint256 _surveyId)... */\n    tag_39:\n      tag_84\n      tag_213\n      calldatasize\n      0x04\n      tag_76\n      jump\t// in\n    tag_213:\n      tag_214\n      jump\t// in\n        /* \"smart-contracts/classroom/main/Canvassing_flattened.sol\":4075:4148  mapping(address => uint256) public idsOfLatestSurveysCreatedByResearchers */\n    tag_40:\n      tag_52\n      tag_217\n      calldatasize\n      0x04\n      tag_60\n      jump\t// in\n    tag_217:\n      mstore(0x20, 0x0a)\n      0x00\n      swap1\n      dup2\n      mstore\n      0x40\n      swap1\n      keccak256\n      sload\n      dup2\n      jump\n        /* \"smart-contracts/classroom/main/Canvassing_flattened.sol\":24178:24342  function getQuestionsOfSurvey(uint256 _surveyId)... */\n    tag_41:\n      tag_220\n      tag_221\n      calldatasize\n      0x04\n      tag_76\n      jump\t// in\n    tag_221:\n      tag_222\n      jump\t// in\n    tag_220:\n      mload(0x40)\n      tag_56\n      swap2\n      swap1\n      tag_224\n      jump\t// in\n        /* \"smart-contracts/classroom/main/Canvassing_flattened.sol\":9506:9673  function getAllQuestionsOfSurvey(uint256 _surveyId)... */\n    tag_42:\n      tag_220\n      tag_226\n      calldatasize\n      0x04\n      tag_76\n      jump\t// in\n    tag_226:\n      tag_227\n      jump\t// in\n        /* \"smart-contracts/classroom/main/Canvassing_flattened.sol\":3102:3154  mapping(address => Researcher) public allResearchers */\n    tag_43:\n      tag_229\n      tag_230\n      calldatasize\n      0x04\n      tag_60\n      jump\t// in\n    tag_230:\n      tag_231\n      jump\t// in\n    tag_229:\n      mload(0x40)\n      tag_56\n      swap9\n      swap8\n      swap7\n      swap6\n      swap5\n      swap4\n      swap3\n      swap2\n      swap1\n      tag_233\n      jump\t// in\n        /* \"smart-contracts/classroom/main/Canvassing_flattened.sol\":3328:3378  mapping(uint256 => Question[]) public allQuestions */\n    tag_44:\n      tag_234\n      tag_235\n      calldatasize\n      0x04\n      tag_54\n      jump\t// in\n    tag_235:\n      tag_236\n      jump\t// in\n    tag_234:\n      mload(0x40)\n      tag_56\n      swap5\n      swap4\n      swap3\n      swap2\n      swap1\n      tag_238\n      jump\t// in\n        /* \"smart-contracts/classroom/main/Canvassing_flattened.sol\":11174:12098  function getAmountOfFundingOfAnySurveyInWei(... */\n    tag_55:\n        /* \"smart-contracts/classroom/main/Canvassing_flattened.sol\":11585:11602  cUSDDecimalPlaces */\n      sload(0x16)\n        /* \"smart-contracts/classroom/main/Canvassing_flattened.sol\":11326:11333  uint256 */\n      0x00\n      swap1\n      dup2\n      swap1\n        /* \"smart-contracts/classroom/main/Canvassing_flattened.sol\":11552:11602  _numberOfQuestions *... */\n      tag_240\n      swap1\n        /* \"smart-contracts/classroom/main/Canvassing_flattened.sol\":11552:11570  _numberOfQuestions */\n      dup6\n        /* \"smart-contracts/classroom/main/Canvassing_flattened.sol\":11552:11602  _numberOfQuestions *... */\n      tag_241\n      jump\t// in\n    tag_240:\n        /* \"smart-contracts/classroom/main/Canvassing_flattened.sol\":11515:11603  potentialFundingOfAnySurveyInWei += (_numberOfQuestions *... */\n      tag_242\n      swap1\n      dup3\n      tag_243\n      jump\t// in\n    tag_242:\n      swap1\n      pop\n        /* \"smart-contracts/classroom/main/Canvassing_flattened.sol\":11660:11687  _targetNumberOfParticipants */\n      dup3\n        /* \"smart-contracts/classroom/main/Canvassing_flattened.sol\":11691:11692  5 */\n      0x05\n        /* \"smart-contracts/classroom/main/Canvassing_flattened.sol\":11660:11692  _targetNumberOfParticipants == 5 */\n      sub\n        /* \"smart-contracts/classroom/main/Canvassing_flattened.sol\":11656:11778  if (_targetNumberOfParticipants == 5) {... */\n      tag_244\n      jumpi\n        /* \"smart-contracts/classroom/main/Canvassing_flattened.sol\":11749:11766  cUSDDecimalPlaces */\n      sload(0x16)\n        /* \"smart-contracts/classroom/main/Canvassing_flattened.sol\":11745:11766  2 * cUSDDecimalPlaces */\n      tag_245\n      swap1\n        /* \"smart-contracts/classroom/main/Canvassing_flattened.sol\":11745:11746  2 */\n      0x02\n        /* \"smart-contracts/classroom/main/Canvassing_flattened.sol\":11745:11766  2 * cUSDDecimalPlaces */\n      tag_241\n      jump\t// in\n    tag_245:\n        /* \"smart-contracts/classroom/main/Canvassing_flattened.sol\":11708:11767  potentialFundingOfAnySurveyInWei += (2 * cUSDDecimalPlaces) */\n      tag_246\n      swap1\n      dup3\n      tag_243\n      jump\t// in\n    tag_246:\n      swap1\n      pop\n        /* \"smart-contracts/classroom/main/Canvassing_flattened.sol\":11656:11778  if (_targetNumberOfParticipants == 5) {... */\n    tag_244:\n        /* \"smart-contracts/classroom/main/Canvassing_flattened.sol\":11792:11819  _targetNumberOfParticipants */\n      dup3\n        /* \"smart-contracts/classroom/main/Canvassing_flattened.sol\":11823:11824  7 */\n      0x07\n        /* \"smart-contracts/classroom/main/Canvassing_flattened.sol\":11792:11824  _targetNumberOfParticipants == 7 */\n      sub\n        /* \"smart-contracts/classroom/main/Canvassing_flattened.sol\":11788:11910  if (_targetNumberOfParticipants == 7) {... */\n      tag_247\n      jumpi\n        /* \"smart-contracts/classroom/main/Canvassing_flattened.sol\":11881:11898  cUSDDecimalPlaces */\n      sload(0x16)\n        /* \"smart-contracts/classroom/main/Canvassing_flattened.sol\":11877:11898  4 * cUSDDecimalPlaces */\n      tag_248\n      swap1\n        /* \"smart-contracts/classroom/main/Canvassing_flattened.sol\":11877:11878  4 */\n      0x04\n        /* \"smart-contracts/classroom/main/Canvassing_flattened.sol\":11877:11898  4 * cUSDDecimalPlaces */\n      tag_241\n      jump\t// in\n    tag_248:\n        /* \"smart-contracts/classroom/main/Canvassing_flattened.sol\":11840:11899  potentialFundingOfAnySurveyInWei += (4 * cUSDDecimalPlaces) */\n      tag_249\n      swap1\n      dup3\n      tag_243\n      jump\t// in\n    tag_249:\n      swap1\n      pop\n        /* \"smart-contracts/classroom/main/Canvassing_flattened.sol\":11788:11910  if (_targetNumberOfParticipants == 7) {... */\n    tag_247:\n        /* \"smart-contracts/classroom/main/Canvassing_flattened.sol\":11924:11951  _targetNumberOfParticipants */\n      dup3\n        /* \"smart-contracts/classroom/main/Canvassing_flattened.sol\":11955:11956  9 */\n      0x09\n        /* \"smart-contracts/classroom/main/Canvassing_flattened.sol\":11924:11956  _targetNumberOfParticipants == 9 */\n      sub\n        /* \"smart-contracts/classroom/main/Canvassing_flattened.sol\":11920:12042  if (_targetNumberOfParticipants == 9) {... */\n      tag_250\n      jumpi\n        /* \"smart-contracts/classroom/main/Canvassing_flattened.sol\":12013:12030  cUSDDecimalPlaces */\n      sload(0x16)\n        /* \"smart-contracts/classroom/main/Canvassing_flattened.sol\":12009:12030  6 * cUSDDecimalPlaces */\n      tag_251\n      swap1\n        /* \"smart-contracts/classroom/main/Canvassing_flattened.sol\":12009:12010  6 */\n      0x06\n        /* \"smart-contracts/classroom/main/Canvassing_flattened.sol\":12009:12030  6 * cUSDDecimalPlaces */\n      tag_241\n      jump\t// in\n    tag_251:\n        /* \"smart-contracts/classroom/main/Canvassing_flattened.sol\":11972:12031  potentialFundingOfAnySurveyInWei += (6 * cUSDDecimalPlaces) */\n      tag_252\n      swap1\n      dup3\n      tag_243\n      jump\t// in\n    tag_252:\n      swap1\n      pop\n        /* \"smart-contracts/classroom/main/Canvassing_flattened.sol\":11920:12042  if (_targetNumberOfParticipants == 9) {... */\n    tag_250:\n        /* \"smart-contracts/classroom/main/Canvassing_flattened.sol\":12059:12091  potentialFundingOfAnySurveyInWei */\n      swap1\n      pop\n        /* \"smart-contracts/classroom/main/Canvassing_flattened.sol\":11174:12098  function getAmountOfFundingOfAnySurveyInWei(... */\n    tag_239:\n      swap3\n      swap2\n      pop\n      pop\n      jump\t// out\n        /* \"smart-contracts/classroom/main/Canvassing_flattened.sol\":17225:17409  function getResearcherByWalletAddress(address _walletAddress)... */\n    tag_61:\n        /* \"smart-contracts/classroom/main/Canvassing_flattened.sol\":17332:17349  Researcher memory */\n      tag_253\n      tag_254\n      jump\t// in\n    tag_253:\n      sub(shl(0xa0, 0x01), 0x01)\n        /* \"smart-contracts/classroom/main/Canvassing_flattened.sol\":17372:17402  allResearchers[_walletAddress] */\n      dup1\n      dup4\n      and\n      0x00\n      swap1\n      dup2\n      mstore\n        /* \"smart-contracts/classroom/main/Canvassing_flattened.sol\":17372:17386  allResearchers */\n      0x01\n        /* \"smart-contracts/classroom/main/Canvassing_flattened.sol\":17372:17402  allResearchers[_walletAddress] */\n      0x20\n      dup2\n      dup2\n      mstore\n      0x40\n      swap3\n      dup4\n      swap1\n      keccak256\n        /* \"smart-contracts/classroom/main/Canvassing_flattened.sol\":17365:17402  return allResearchers[_walletAddress] */\n      dup4\n      mload\n      0x0100\n      dup2\n      add\n      dup6\n      mstore\n      dup2\n      sload\n      dup2\n      mstore\n      swap3\n      dup2\n      add\n      sload\n      swap1\n      swap5\n      and\n      swap1\n      dup3\n      add\n      mstore\n      0x02\n      dup4\n      add\n      dup1\n      sload\n      swap2\n      swap4\n        /* \"smart-contracts/classroom/main/Canvassing_flattened.sol\":17372:17402  allResearchers[_walletAddress] */\n      swap3\n        /* \"smart-contracts/classroom/main/Canvassing_flattened.sol\":17365:17402  return allResearchers[_walletAddress] */\n      dup5\n      add\n      swap2\n      tag_256\n      swap1\n      tag_257\n      jump\t// in\n    tag_256:\n      dup1\n      0x1f\n      add\n      0x20\n      dup1\n      swap2\n      div\n      mul\n      0x20\n      add\n      mload(0x40)\n      swap1\n      dup2\n      add\n      0x40\n      mstore\n      dup1\n      swap3\n      swap2\n      swap1\n      dup2\n      dup2\n      mstore\n      0x20\n      add\n      dup3\n      dup1\n      sload\n      tag_258\n      swap1\n      tag_257\n      jump\t// in\n    tag_258:\n      dup1\n      iszero\n      tag_259\n      jumpi\n      dup1\n      0x1f\n      lt\n      tag_260\n      jumpi\n      0x0100\n      dup1\n      dup4\n      sload\n      div\n      mul\n      dup4\n      mstore\n      swap2\n      0x20\n      add\n      swap2\n      jump(tag_259)\n    tag_260:\n      dup3\n      add\n      swap2\n      swap1\n      0x00\n      mstore\n      keccak256(0x00, 0x20)\n      swap1\n    tag_261:\n      dup2\n      sload\n      dup2\n      mstore\n      swap1\n      0x01\n      add\n      swap1\n      0x20\n      add\n      dup1\n      dup4\n      gt\n      tag_261\n      jumpi\n      dup3\n      swap1\n      sub\n      0x1f\n      and\n      dup3\n      add\n      swap2\n    tag_259:\n      pop\n      pop\n      pop\n      pop\n      pop\n      dup2\n      mstore\n      0x20\n      add\n      0x03\n      dup3\n      add\n      dup1\n      sload\n      tag_262\n      swap1\n      tag_257\n      jump\t// in\n    tag_262:\n      dup1\n      0x1f\n      add\n      0x20\n      dup1\n      swap2\n      div\n      mul\n      0x20\n      add\n      mload(0x40)\n      swap1\n      dup2\n      add\n      0x40\n      mstore\n      dup1\n      swap3\n      swap2\n      swap1\n      dup2\n      dup2\n      mstore\n      0x20\n      add\n      dup3\n      dup1\n      sload\n      tag_263\n      swap1\n      tag_257\n      jump\t// in\n    tag_263:\n      dup1\n      iszero\n      tag_264\n      jumpi\n      dup1\n      0x1f\n      lt\n      tag_265\n      jumpi\n      0x0100\n      dup1\n      dup4\n      sload\n      div\n      mul\n      dup4\n      mstore\n      swap2\n      0x20\n      add\n      swap2\n      jump(tag_264)\n    tag_265:\n      dup3\n      add\n      swap2\n      swap1\n      0x00\n      mstore\n      keccak256(0x00, 0x20)\n      swap1\n    tag_266:\n      dup2\n      sload\n      dup2\n      mstore\n      swap1\n      0x01\n      add\n      swap1\n      0x20\n      add\n      dup1\n      dup4\n      gt\n      tag_266\n      jumpi\n      dup3\n      swap1\n      sub\n      0x1f\n      and\n      dup3\n      add\n      swap2\n    tag_264:\n      pop\n      pop\n      pop\n      pop\n      pop\n      dup2\n      mstore\n      0x20\n      add\n      0x04\n      dup3\n      add\n      dup1\n      sload\n      tag_267\n      swap1\n      tag_257\n      jump\t// in\n    tag_267:\n      dup1\n      0x1f\n      add\n      0x20\n      dup1\n      swap2\n      div\n      mul\n      0x20\n      add\n      mload(0x40)\n      swap1\n      dup2\n      add\n      0x40\n      mstore\n      dup1\n      swap3\n      swap2\n      swap1\n      dup2\n      dup2\n      mstore\n      0x20\n      add\n      dup3\n      dup1\n      sload\n      tag_268\n      swap1\n      tag_257\n      jump\t// in\n    tag_268:\n      dup1\n      iszero\n      tag_269\n      jumpi\n      dup1\n      0x1f\n      lt\n      tag_270\n      jumpi\n      0x0100\n      dup1\n      dup4\n      sload\n      div\n      mul\n      dup4\n      mstore\n      swap2\n      0x20\n      add\n      swap2\n      jump(tag_269)\n    tag_270:\n      dup3\n      add\n      swap2\n      swap1\n      0x00\n      mstore\n      keccak256(0x00, 0x20)\n      swap1\n    tag_271:\n      dup2\n      sload\n      dup2\n      mstore\n      swap1\n      0x01\n      add\n      swap1\n      0x20\n      add\n      dup1\n      dup4\n      gt\n      tag_271\n      jumpi\n      dup3\n      swap1\n      sub\n      0x1f\n      and\n      dup3\n      add\n      swap2\n    tag_269:\n      pop\n      pop\n      pop\n      swap2\n      dup4\n      mstore\n      pop\n      pop\n      0x05\n      swap2\n      swap1\n      swap2\n      add\n      sload\n      0xff\n      dup1\n      dup3\n      and\n      iszero\n      iszero\n      0x20\n      dup5\n      add\n      mstore\n      0x0100\n      dup3\n      div\n      dup2\n      and\n      iszero\n      iszero\n      0x40\n      dup5\n      add\n      mstore\n      0x010000\n      swap1\n      swap2\n      div\n      and\n      iszero\n      iszero\n      0x60\n      swap1\n      swap2\n      add\n      mstore\n      swap3\n        /* \"smart-contracts/classroom/main/Canvassing_flattened.sol\":17225:17409  function getResearcherByWalletAddress(address _walletAddress)... */\n      swap2\n      pop\n      pop\n      jump\t// out\n        /* \"smart-contracts/classroom/main/Canvassing_flattened.sol\":19142:20198  function getSurveysCreatedByResearcher(address _researcherWalletAddress)... */\n    tag_66:\n      sub(shl(0xa0, 0x01), 0x01)\n        /* \"smart-contracts/classroom/main/Canvassing_flattened.sol\":19341:19437  totalNumberOfSurveysCreatedByResearchers[... */\n      dup2\n      and\n        /* \"smart-contracts/classroom/main/Canvassing_flattened.sol\":19291:19338  uint256 totalNumberOfSurveysCreatedByResearcher */\n      0x00\n        /* \"smart-contracts/classroom/main/Canvassing_flattened.sol\":19341:19437  totalNumberOfSurveysCreatedByResearchers[... */\n      swap1\n      dup2\n      mstore\n        /* \"smart-contracts/classroom/main/Canvassing_flattened.sol\":19341:19381  totalNumberOfSurveysCreatedByResearchers */\n      0x08\n        /* \"smart-contracts/classroom/main/Canvassing_flattened.sol\":19341:19437  totalNumberOfSurveysCreatedByResearchers[... */\n      0x20\n      mstore\n      0x40\n      dup2\n      keccak256\n      sload\n        /* \"smart-contracts/classroom/main/Canvassing_flattened.sol\":19260:19275  Survey[] memory */\n      0x60\n      swap2\n        /* \"smart-contracts/classroom/main/Canvassing_flattened.sol\":19341:19437  totalNumberOfSurveysCreatedByResearchers[... */\n      dup2\n      sub(shl(0x40, 0x01), 0x01)\n        /* \"smart-contracts/classroom/main/Canvassing_flattened.sol\":19496:19571  new Survey[](... */\n      dup2\n      gt\n      iszero\n      tag_274\n      jumpi\n      tag_274\n      tag_275\n      jump\t// in\n    tag_274:\n      mload(0x40)\n      swap1\n      dup1\n      dup3\n      mstore\n      dup1\n      0x20\n      mul\n      0x20\n      add\n      dup3\n      add\n      0x40\n      mstore\n      dup1\n      iszero\n      tag_276\n      jumpi\n      dup2\n      0x20\n      add\n    tag_277:\n      tag_278\n      tag_279\n      jump\t// in\n    tag_278:\n      dup2\n      mstore\n      0x20\n      add\n      swap1\n      0x01\n      swap1\n      sub\n      swap1\n      dup2\n      tag_277\n      jumpi\n      swap1\n      pop\n    tag_276:\n      pop\n        /* \"smart-contracts/classroom/main/Canvassing_flattened.sol\":19448:19571  Survey[] memory allSurveysCreatedByResearcher = new Survey[](... */\n      swap1\n      pop\n        /* \"smart-contracts/classroom/main/Canvassing_flattened.sol\":19582:19601  uint256 surveyIndex */\n      0x00\n        /* \"smart-contracts/classroom/main/Canvassing_flattened.sol\":19621:19637  uint256 surveyId */\n      dup1\n        /* \"smart-contracts/classroom/main/Canvassing_flattened.sol\":19616:20145  for (uint256 surveyId = 0; surveyId < allSurveys.length; surveyId++) {... */\n    tag_280:\n        /* \"smart-contracts/classroom/main/Canvassing_flattened.sol\":19654:19664  allSurveys */\n      0x03\n        /* \"smart-contracts/classroom/main/Canvassing_flattened.sol\":19654:19671  allSurveys.length */\n      sload\n        /* \"smart-contracts/classroom/main/Canvassing_flattened.sol\":19643:19671  surveyId < allSurveys.length */\n      dup2\n      lt\n        /* \"smart-contracts/classroom/main/Canvassing_flattened.sol\":19616:20145  for (uint256 surveyId = 0; surveyId < allSurveys.length; surveyId++) {... */\n      iszero\n      tag_281\n      jumpi\n        /* \"smart-contracts/classroom/main/Canvassing_flattened.sol\":19699:19726  Survey memory runningSurvey */\n      0x00\n        /* \"smart-contracts/classroom/main/Canvassing_flattened.sol\":19729:19739  allSurveys */\n      0x03\n        /* \"smart-contracts/classroom/main/Canvassing_flattened.sol\":19740:19748  surveyId */\n      dup3\n        /* \"smart-contracts/classroom/main/Canvassing_flattened.sol\":19729:19749  allSurveys[surveyId] */\n      dup2\n      sload\n      dup2\n      lt\n      tag_284\n      jumpi\n      tag_284\n      tag_285\n      jump\t// in\n    tag_284:\n      swap1\n      0x00\n      mstore\n      keccak256(0x00, 0x20)\n      swap1\n      0x07\n      mul\n      add\n        /* \"smart-contracts/classroom/main/Canvassing_flattened.sol\":19699:19749  Survey memory runningSurvey = allSurveys[surveyId] */\n      mload(0x40)\n      dup1\n      0xe0\n      add\n      0x40\n      mstore\n      swap1\n      dup2\n      0x00\n      dup3\n      add\n      sload\n      dup2\n      mstore\n      0x20\n      add\n      0x01\n      dup3\n      add\n      0x00\n      swap1\n      sload\n      swap1\n      0x0100\n      exp\n      swap1\n      div\n      sub(shl(0xa0, 0x01), 0x01)\n      and\n      sub(shl(0xa0, 0x01), 0x01)\n      and\n      sub(shl(0xa0, 0x01), 0x01)\n      and\n      dup2\n      mstore\n      0x20\n      add\n      0x02\n      dup3\n      add\n      dup1\n      sload\n      tag_287\n      swap1\n      tag_257\n      jump\t// in\n    tag_287:\n      dup1\n      0x1f\n      add\n      0x20\n      dup1\n      swap2\n      div\n      mul\n      0x20\n      add\n      mload(0x40)\n      swap1\n      dup2\n      add\n      0x40\n      mstore\n      dup1\n      swap3\n      swap2\n      swap1\n      dup2\n      dup2\n      mstore\n      0x20\n      add\n      dup3\n      dup1\n      sload\n      tag_288\n      swap1\n      tag_257\n      jump\t// in\n    tag_288:\n      dup1\n      iszero\n      tag_289\n      jumpi\n      dup1\n      0x1f\n      lt\n      tag_290\n      jumpi\n      0x0100\n      dup1\n      dup4\n      sload\n      div\n      mul\n      dup4\n      mstore\n      swap2\n      0x20\n      add\n      swap2\n      jump(tag_289)\n    tag_290:\n      dup3\n      add\n      swap2\n      swap1\n      0x00\n      mstore\n      keccak256(0x00, 0x20)\n      swap1\n    tag_291:\n      dup2\n      sload\n      dup2\n      mstore\n      swap1\n      0x01\n      add\n      swap1\n      0x20\n      add\n      dup1\n      dup4\n      gt\n      tag_291\n      jumpi\n      dup3\n      swap1\n      sub\n      0x1f\n      and\n      dup3\n      add\n      swap2\n    tag_289:\n      pop\n      pop\n      pop\n      swap2\n      dup4\n      mstore\n      pop\n      pop\n      0x03\n      dup3\n      add\n      sload\n      0x20\n      dup1\n      dup4\n      add\n      swap2\n      swap1\n      swap2\n      mstore\n      0x04\n      dup4\n      add\n      sload\n      0x40\n      dup4\n      add\n      mstore\n      0x05\n      dup4\n      add\n      sload\n      0x60\n      dup4\n      add\n      mstore\n      0x06\n      swap1\n      swap3\n      add\n      sload\n      0xff\n      and\n      iszero\n      iszero\n      0x80\n      swap1\n      swap2\n      add\n      mstore\n        /* \"smart-contracts/classroom/main/Canvassing_flattened.sol\":19785:19830  runningSurvey.creatingResearcherWalletAddress */\n      dup2\n      add\n      mload\n        /* \"smart-contracts/classroom/main/Canvassing_flattened.sol\":19699:19749  Survey memory runningSurvey = allSurveys[surveyId] */\n      swap1\n      swap2\n      pop\n      sub(shl(0xa0, 0x01), 0x01)\n        /* \"smart-contracts/classroom/main/Canvassing_flattened.sol\":19785:19874  runningSurvey.creatingResearcherWalletAddress ==... */\n      dup1\n      dup10\n      and\n      swap2\n      and\n      sub\n        /* \"smart-contracts/classroom/main/Canvassing_flattened.sol\":19764:20135  if (... */\n      tag_297\n      jumpi\n        /* \"smart-contracts/classroom/main/Canvassing_flattened.sol\":19952:19965  runningSurvey */\n      dup1\n        /* \"smart-contracts/classroom/main/Canvassing_flattened.sol\":19907:19936  allSurveysCreatedByResearcher */\n      dup5\n        /* \"smart-contracts/classroom/main/Canvassing_flattened.sol\":19937:19948  surveyIndex */\n      dup5\n        /* \"smart-contracts/classroom/main/Canvassing_flattened.sol\":19907:19949  allSurveysCreatedByResearcher[surveyIndex] */\n      dup2\n      mload\n      dup2\n      lt\n      tag_294\n      jumpi\n      tag_294\n      tag_285\n      jump\t// in\n    tag_294:\n      0x20\n      mul\n      0x20\n      add\n      add\n        /* \"smart-contracts/classroom/main/Canvassing_flattened.sol\":19907:19965  allSurveysCreatedByResearcher[surveyIndex] = runningSurvey */\n      dup2\n      swap1\n      mstore\n      pop\n        /* \"smart-contracts/classroom/main/Canvassing_flattened.sol\":19983:19996  surveyIndex++ */\n      dup3\n      dup1\n      tag_295\n      swap1\n      tag_296\n      jump\t// in\n    tag_295:\n      swap4\n      pop\n      pop\n        /* \"smart-contracts/classroom/main/Canvassing_flattened.sol\":20034:20073  totalNumberOfSurveysCreatedByResearcher */\n      dup5\n        /* \"smart-contracts/classroom/main/Canvassing_flattened.sol\":20019:20030  surveyIndex */\n      dup4\n        /* \"smart-contracts/classroom/main/Canvassing_flattened.sol\":20019:20073  surveyIndex == totalNumberOfSurveysCreatedByResearcher */\n      sub\n        /* \"smart-contracts/classroom/main/Canvassing_flattened.sol\":20015:20121  if (surveyIndex == totalNumberOfSurveysCreatedByResearcher) {... */\n      tag_297\n      jumpi\n        /* \"smart-contracts/classroom/main/Canvassing_flattened.sol\":20097:20102  break */\n      pop\n      jump(tag_281)\n        /* \"smart-contracts/classroom/main/Canvassing_flattened.sol\":20015:20121  if (surveyIndex == totalNumberOfSurveysCreatedByResearcher) {... */\n    tag_297:\n      pop\n        /* \"smart-contracts/classroom/main/Canvassing_flattened.sol\":19673:19683  surveyId++ */\n      dup1\n      tag_298\n      dup2\n      tag_296\n      jump\t// in\n    tag_298:\n      swap2\n      pop\n      pop\n        /* \"smart-contracts/classroom/main/Canvassing_flattened.sol\":19616:20145  for (uint256 surveyId = 0; surveyId < allSurveys.length; surveyId++) {... */\n      jump(tag_280)\n    tag_281:\n      pop\n        /* \"smart-contracts/classroom/main/Canvassing_flattened.sol\":20162:20191  allSurveysCreatedByResearcher */\n      swap1\n      swap5\n        /* \"smart-contracts/classroom/main/Canvassing_flattened.sol\":19142:20198  function getSurveysCreatedByResearcher(address _researcherWalletAddress)... */\n      swap4\n      pop\n      pop\n      pop\n      pop\n      jump\t// out\n        /* \"smart-contracts/classroom/main/Canvassing_flattened.sol\":4184:4245  mapping(uint256 => Participant[]) public participantsOfSurvey */\n    tag_71:\n      mstore(0x20, 0x0b)\n      dup2\n      0x00\n      mstore\n      keccak256(0x00, 0x40)\n      dup2\n      dup2\n      sload\n      dup2\n      lt\n      tag_299\n      jumpi\n      0x00\n      dup1\n      revert\n    tag_299:\n      0x00\n      swap2\n      dup3\n      mstore\n      0x20\n      swap1\n      swap2\n      keccak256\n      0x07\n      swap1\n      swap2\n      mul\n      add\n      dup1\n      sload\n      0x01\n      dup3\n      add\n      sload\n      0x02\n      dup4\n      add\n      dup1\n      sload\n      swap3\n      swap6\n      pop\n      sub(shl(0xa0, 0x01), 0x01)\n      swap1\n      swap2\n      and\n      swap4\n      pop\n      swap1\n      tag_301\n      swap1\n      tag_257\n      jump\t// in\n    tag_301:\n      dup1\n      0x1f\n      add\n      0x20\n      dup1\n      swap2\n      div\n      mul\n      0x20\n      add\n      mload(0x40)\n      swap1\n      dup2\n      add\n      0x40\n      mstore\n      dup1\n      swap3\n      swap2\n      swap1\n      dup2\n      dup2\n      mstore\n      0x20\n      add\n      dup3\n      dup1\n      sload\n      tag_302\n      swap1\n      tag_257\n      jump\t// in\n    tag_302:\n      dup1\n      iszero\n      tag_303\n      jumpi\n      dup1\n      0x1f\n      lt\n      tag_304\n      jumpi\n      0x0100\n      dup1\n      dup4\n      sload\n      div\n      mul\n      dup4\n      mstore\n      swap2\n      0x20\n      add\n      swap2\n      jump(tag_303)\n    tag_304:\n      dup3\n      add\n      swap2\n      swap1\n      0x00\n      mstore\n      keccak256(0x00, 0x20)\n      swap1\n    tag_305:\n      dup2\n      sload\n      dup2\n      mstore\n      swap1\n      0x01\n      add\n      swap1\n      0x20\n      add\n      dup1\n      dup4\n      gt\n      tag_305\n      jumpi\n      dup3\n      swap1\n      sub\n      0x1f\n      and\n      dup3\n      add\n      swap2\n    tag_303:\n      pop\n      pop\n      pop\n      pop\n      pop\n      swap1\n      dup1\n      0x03\n      add\n      dup1\n      sload\n      tag_306\n      swap1\n      tag_257\n      jump\t// in\n    tag_306:\n      dup1\n      0x1f\n      add\n      0x20\n      dup1\n      swap2\n      div\n      mul\n      0x20\n      add\n      mload(0x40)\n      swap1\n      dup2\n      add\n      0x40\n      mstore\n      dup1\n      swap3\n      swap2\n      swap1\n      dup2\n      dup2\n      mstore\n      0x20\n      add\n      dup3\n      dup1\n      sload\n      tag_307\n      swap1\n      tag_257\n      jump\t// in\n    tag_307:\n      dup1\n      iszero\n      tag_308\n      jumpi\n      dup1\n      0x1f\n      lt\n      tag_309\n      jumpi\n      0x0100\n      dup1\n      dup4\n      sload\n      div\n      mul\n      dup4\n      mstore\n      swap2\n      0x20\n      add\n      swap2\n      jump(tag_308)\n    tag_309:\n      dup3\n      add\n      swap2\n      swap1\n      0x00\n      mstore\n      keccak256(0x00, 0x20)\n      swap1\n    tag_310:\n      dup2\n      sload\n      dup2\n      mstore\n      swap1\n      0x01\n      add\n      swap1\n      0x20\n      add\n      dup1\n      dup4\n      gt\n      tag_310\n      jumpi\n      dup3\n      swap1\n      sub\n      0x1f\n      and\n      dup3\n      add\n      swap2\n    tag_308:\n      pop\n      pop\n      pop\n      pop\n      0x04\n      dup4\n      add\n      sload\n      0x05\n      dup5\n      add\n      sload\n      0x06\n      swap1\n      swap5\n      add\n      sload\n      swap3\n      swap4\n      swap1\n      swap3\n      swap1\n      swap2\n      pop\n      0xff\n      dup1\n      dup3\n      and\n      swap2\n      0x0100\n      swap1\n      div\n      and\n      dup9\n      jump\t// out\n        /* \"smart-contracts/classroom/main/Canvassing_flattened.sol\":3266:3292  Survey[] public allSurveys */\n    tag_77:\n      0x03\n      dup2\n      dup2\n      sload\n      dup2\n      lt\n      tag_311\n      jumpi\n      0x00\n      dup1\n      revert\n    tag_311:\n      0x00\n      swap2\n      dup3\n      mstore\n      0x20\n      swap1\n      swap2\n      keccak256\n      0x07\n      swap1\n      swap2\n      mul\n      add\n      dup1\n      sload\n      0x01\n      dup3\n      add\n      sload\n      0x02\n      dup4\n      add\n      dup1\n      sload\n      swap3\n      swap5\n      pop\n      sub(shl(0xa0, 0x01), 0x01)\n      swap1\n      swap2\n      and\n      swap3\n      swap2\n      tag_313\n      swap1\n      tag_257\n      jump\t// in\n    tag_313:\n      dup1\n      0x1f\n      add\n      0x20\n      dup1\n      swap2\n      div\n      mul\n      0x20\n      add\n      mload(0x40)\n      swap1\n      dup2\n      add\n      0x40\n      mstore\n      dup1\n      swap3\n      swap2\n      swap1\n      dup2\n      dup2\n      mstore\n      0x20\n      add\n      dup3\n      dup1\n      sload\n      tag_314\n      swap1\n      tag_257\n      jump\t// in\n    tag_314:\n      dup1\n      iszero\n      tag_315\n      jumpi\n      dup1\n      0x1f\n      lt\n      tag_316\n      jumpi\n      0x0100\n      dup1\n      dup4\n      sload\n      div\n      mul\n      dup4\n      mstore\n      swap2\n      0x20\n      add\n      swap2\n      jump(tag_315)\n    tag_316:\n      dup3\n      add\n      swap2\n      swap1\n      0x00\n      mstore\n      keccak256(0x00, 0x20)\n      swap1\n    tag_317:\n      dup2\n      sload\n      dup2\n      mstore\n      swap1\n      0x01\n      add\n      swap1\n      0x20\n      add\n      dup1\n      dup4\n      gt\n      tag_317\n      jumpi\n      dup3\n      swap1\n      sub\n      0x1f\n      and\n      dup3\n      add\n      swap2\n    tag_315:\n      pop\n      pop\n      pop\n      pop\n      0x03\n      dup4\n      add\n      sload\n      0x04\n      dup5\n      add\n      sload\n      0x05\n      dup6\n      add\n      sload\n      0x06\n      swap1\n      swap6\n      add\n      sload\n      swap4\n      swap5\n      swap2\n      swap4\n      swap1\n      swap3\n      pop\n      0xff\n      and\n      dup8\n      jump\t// out\n        /* \"smart-contracts/classroom/main/Canvassing_flattened.sol\":12104:12810  function getAmountOfEarningPerParticipantForSurveyInWei(uint256 _surveyId)... */\n    tag_82:\n        /* \"smart-contracts/classroom/main/Canvassing_flattened.sol\":12224:12231  uint256 */\n      0x00\n        /* \"smart-contracts/classroom/main/Canvassing_flattened.sol\":12247:12274  Survey memory currentSurvey */\n      dup1\n        /* \"smart-contracts/classroom/main/Canvassing_flattened.sol\":12277:12287  allSurveys */\n      0x03\n        /* \"smart-contracts/classroom/main/Canvassing_flattened.sol\":12288:12297  _surveyId */\n      dup4\n        /* \"smart-contracts/classroom/main/Canvassing_flattened.sol\":12277:12298  allSurveys[_surveyId] */\n      dup2\n      sload\n      dup2\n      lt\n      tag_320\n      jumpi\n      tag_320\n      tag_285\n      jump\t// in\n    tag_320:\n      swap1\n      0x00\n      mstore\n      keccak256(0x00, 0x20)\n      swap1\n      0x07\n      mul\n      add\n        /* \"smart-contracts/classroom/main/Canvassing_flattened.sol\":12247:12298  Survey memory currentSurvey = allSurveys[_surveyId] */\n      mload(0x40)\n      dup1\n      0xe0\n      add\n      0x40\n      mstore\n      swap1\n      dup2\n      0x00\n      dup3\n      add\n      sload\n      dup2\n      mstore\n      0x20\n      add\n      0x01\n      dup3\n      add\n      0x00\n      swap1\n      sload\n      swap1\n      0x0100\n      exp\n      swap1\n      div\n      sub(shl(0xa0, 0x01), 0x01)\n      and\n      sub(shl(0xa0, 0x01), 0x01)\n      and\n      sub(shl(0xa0, 0x01), 0x01)\n      and\n      dup2\n      mstore\n      0x20\n      add\n      0x02\n      dup3\n      add\n      dup1\n      sload\n      tag_322\n      swap1\n      tag_257\n      jump\t// in\n    tag_322:\n      dup1\n      0x1f\n      add\n      0x20\n      dup1\n      swap2\n      div\n      mul\n      0x20\n      add\n      mload(0x40)\n      swap1\n      dup2\n      add\n      0x40\n      mstore\n      dup1\n      swap3\n      swap2\n      swap1\n      dup2\n      dup2\n      mstore\n      0x20\n      add\n      dup3\n      dup1\n      sload\n      tag_323\n      swap1\n      tag_257\n      jump\t// in\n    tag_323:\n      dup1\n      iszero\n      tag_324\n      jumpi\n      dup1\n      0x1f\n      lt\n      tag_325\n      jumpi\n      0x0100\n      dup1\n      dup4\n      sload\n      div\n      mul\n      dup4\n      mstore\n      swap2\n      0x20\n      add\n      swap2\n      jump(tag_324)\n    tag_325:\n      dup3\n      add\n      swap2\n      swap1\n      0x00\n      mstore\n      keccak256(0x00, 0x20)\n      swap1\n    tag_326:\n      dup2\n      sload\n      dup2\n      mstore\n      swap1\n      0x01\n      add\n      swap1\n      0x20\n      add\n      dup1\n      dup4\n      gt\n      tag_326\n      jumpi\n      dup3\n      swap1\n      sub\n      0x1f\n      and\n      dup3\n      add\n      swap2\n    tag_324:\n      pop\n      pop\n      pop\n      swap2\n      dup4\n      mstore\n      pop\n      pop\n      0x03\n      dup3\n      add\n      sload\n      0x20\n      dup3\n      add\n      mstore\n      0x04\n      dup3\n      add\n      sload\n      0x40\n      dup3\n      add\n      mstore\n      0x05\n      dup1\n      dup4\n      add\n      sload\n      0x60\n      dup4\n      add\n      mstore\n      0x06\n      swap1\n      swap3\n      add\n      sload\n      0xff\n      and\n      iszero\n      iszero\n      0x80\n      swap2\n      dup3\n      add\n      mstore\n        /* \"smart-contracts/classroom/main/Canvassing_flattened.sol\":12346:12377  currentSurvey.amountFundedInWei */\n      0xa0\n      dup4\n      add\n      mload\n        /* \"smart-contracts/classroom/main/Canvassing_flattened.sol\":12424:12477  currentSurvey... */\n      swap1\n      dup4\n      add\n      mload\n        /* \"smart-contracts/classroom/main/Canvassing_flattened.sol\":12247:12298  Survey memory currentSurvey = allSurveys[_surveyId] */\n      swap3\n      swap4\n      pop\n        /* \"smart-contracts/classroom/main/Canvassing_flattened.sol\":12346:12377  currentSurvey.amountFundedInWei */\n      swap2\n        /* \"smart-contracts/classroom/main/Canvassing_flattened.sol\":12424:12477  currentSurvey... */\n      swap1\n      0x00\n      swap1\n        /* \"smart-contracts/classroom/main/Canvassing_flattened.sol\":12590:12592  10 */\n      0x0a\n      swap1\n        /* \"smart-contracts/classroom/main/Canvassing_flattened.sol\":12540:12586  amountFundedInWeiForSurvey *... */\n      tag_327\n      swap1\n        /* \"smart-contracts/classroom/main/Canvassing_flattened.sol\":12346:12377  currentSurvey.amountFundedInWei */\n      dup6\n      swap1\n        /* \"smart-contracts/classroom/main/Canvassing_flattened.sol\":12540:12586  amountFundedInWeiForSurvey *... */\n      tag_241\n      jump\t// in\n    tag_327:\n        /* \"smart-contracts/classroom/main/Canvassing_flattened.sol\":12539:12592  (amountFundedInWeiForSurvey *... */\n      tag_328\n      swap2\n      swap1\n      tag_329\n      jump\t// in\n    tag_328:\n        /* \"smart-contracts/classroom/main/Canvassing_flattened.sol\":12488:12592  uint256 participantRevenueSharingPoolAmountInWei = (amountFundedInWeiForSurvey *... */\n      swap1\n      pop\n        /* \"smart-contracts/classroom/main/Canvassing_flattened.sol\":12603:12654  uint256 amountOfEarningPerParticipantForSurveyInWei */\n      0x00\n        /* \"smart-contracts/classroom/main/Canvassing_flattened.sol\":12657:12742  participantRevenueSharingPoolAmountInWei /... */\n      tag_330\n        /* \"smart-contracts/classroom/main/Canvassing_flattened.sol\":12716:12742  targetNumberOfParticipants */\n      dup4\n        /* \"smart-contracts/classroom/main/Canvassing_flattened.sol\":12488:12592  uint256 participantRevenueSharingPoolAmountInWei = (amountFundedInWeiForSurvey *... */\n      dup4\n        /* \"smart-contracts/classroom/main/Canvassing_flattened.sol\":12657:12742  participantRevenueSharingPoolAmountInWei /... */\n      tag_329\n      jump\t// in\n    tag_330:\n        /* \"smart-contracts/classroom/main/Canvassing_flattened.sol\":12603:12742  uint256 amountOfEarningPerParticipantForSurveyInWei = participantRevenueSharingPoolAmountInWei /... */\n      swap8\n        /* \"smart-contracts/classroom/main/Canvassing_flattened.sol\":12104:12810  function getAmountOfEarningPerParticipantForSurveyInWei(uint256 _surveyId)... */\n      swap7\n      pop\n      pop\n      pop\n      pop\n      pop\n      pop\n      pop\n      jump\t// out\n        /* \"smart-contracts/classroom/main/Canvassing_flattened.sol\":9679:10899  function getAllAnswersOfParticipantOfSurvey(... */\n    tag_87:\n        /* \"smart-contracts/classroom/main/Canvassing_flattened.sol\":9820:9835  Answer[] memory */\n      0x60\n        /* \"smart-contracts/classroom/main/Canvassing_flattened.sol\":9847:9874  Survey memory currentSurvey */\n      0x00\n        /* \"smart-contracts/classroom/main/Canvassing_flattened.sol\":9877:9887  allSurveys */\n      0x03\n        /* \"smart-contracts/classroom/main/Canvassing_flattened.sol\":9888:9897  _surveyId */\n      dup5\n        /* \"smart-contracts/classroom/main/Canvassing_flattened.sol\":9877:9898  allSurveys[_surveyId] */\n      dup2\n      sload\n      dup2\n      lt\n      tag_333\n      jumpi\n      tag_333\n      tag_285\n      jump\t// in\n    tag_333:\n      swap1\n      0x00\n      mstore\n      keccak256(0x00, 0x20)\n      swap1\n      0x07\n      mul\n      add\n        /* \"smart-contracts/classroom/main/Canvassing_flattened.sol\":9847:9898  Survey memory currentSurvey = allSurveys[_surveyId] */\n      mload(0x40)\n      dup1\n      0xe0\n      add\n      0x40\n      mstore\n      swap1\n      dup2\n      0x00\n      dup3\n      add\n      sload\n      dup2\n      mstore\n      0x20\n      add\n      0x01\n      dup3\n      add\n      0x00\n      swap1\n      sload\n      swap1\n      0x0100\n      exp\n      swap1\n      div\n      sub(shl(0xa0, 0x01), 0x01)\n      and\n      sub(shl(0xa0, 0x01), 0x01)\n      and\n      sub(shl(0xa0, 0x01), 0x01)\n      and\n      dup2\n      mstore\n      0x20\n      add\n      0x02\n      dup3\n      add\n      dup1\n      sload\n      tag_335\n      swap1\n      tag_257\n      jump\t// in\n    tag_335:\n      dup1\n      0x1f\n      add\n      0x20\n      dup1\n      swap2\n      div\n      mul\n      0x20\n      add\n      mload(0x40)\n      swap1\n      dup2\n      add\n      0x40\n      mstore\n      dup1\n      swap3\n      swap2\n      swap1\n      dup2\n      dup2\n      mstore\n      0x20\n      add\n      dup3\n      dup1\n      sload\n      tag_336\n      swap1\n      tag_257\n      jump\t// in\n    tag_336:\n      dup1\n      iszero\n      tag_337\n      jumpi\n      dup1\n      0x1f\n      lt\n      tag_338\n      jumpi\n      0x0100\n      dup1\n      dup4\n      sload\n      div\n      mul\n      dup4\n      mstore\n      swap2\n      0x20\n      add\n      swap2\n      jump(tag_337)\n    tag_338:\n      dup3\n      add\n      swap2\n      swap1\n      0x00\n      mstore\n      keccak256(0x00, 0x20)\n      swap1\n    tag_339:\n      dup2\n      sload\n      dup2\n      mstore\n      swap1\n      0x01\n      add\n      swap1\n      0x20\n      add\n      dup1\n      dup4\n      gt\n      tag_339\n      jumpi\n      dup3\n      swap1\n      sub\n      0x1f\n      and\n      dup3\n      add\n      swap2\n    tag_337:\n      pop\n      pop\n      pop\n      pop\n      pop\n      dup2\n      mstore\n      0x20\n      add\n      0x03\n      dup3\n      add\n      sload\n      dup2\n      mstore\n      0x20\n      add\n      0x04\n      dup3\n      add\n      sload\n      dup2\n      mstore\n      0x20\n      add\n      0x05\n      dup3\n      add\n      sload\n      dup2\n      mstore\n      0x20\n      add\n      0x06\n      dup3\n      add\n      0x00\n      swap1\n      sload\n      swap1\n      0x0100\n      exp\n      swap1\n      div\n      0xff\n      and\n      iszero\n      iszero\n      iszero\n      iszero\n      dup2\n      mstore\n      pop\n      pop\n      swap1\n      pop\n        /* \"smart-contracts/classroom/main/Canvassing_flattened.sol\":9908:9942  Answer[] memory allAnswersOfSurvey */\n      0x00\n        /* \"smart-contracts/classroom/main/Canvassing_flattened.sol\":9945:9955  allAnswers */\n      0x05\n        /* \"smart-contracts/classroom/main/Canvassing_flattened.sol\":9945:9966  allAnswers[_surveyId] */\n      0x00\n        /* \"smart-contracts/classroom/main/Canvassing_flattened.sol\":9956:9965  _surveyId */\n      dup7\n        /* \"smart-contracts/classroom/main/Canvassing_flattened.sol\":9945:9966  allAnswers[_surveyId] */\n      dup2\n      mstore\n      0x20\n      add\n      swap1\n      dup2\n      mstore\n      0x20\n      add\n      0x00\n      keccak256\n        /* \"smart-contracts/classroom/main/Canvassing_flattened.sol\":9908:9966  Answer[] memory allAnswersOfSurvey = allAnswers[_surveyId] */\n      dup1\n      sload\n      dup1\n      0x20\n      mul\n      0x20\n      add\n      mload(0x40)\n      swap1\n      dup2\n      add\n      0x40\n      mstore\n      dup1\n      swap3\n      swap2\n      swap1\n      dup2\n      dup2\n      mstore\n      0x20\n      add\n      0x00\n      swap1\n    tag_340:\n      dup3\n      dup3\n      lt\n      iszero\n      tag_341\n      jumpi\n      0x00\n      dup5\n      dup2\n      mstore\n      0x20\n      swap1\n      dup2\n      swap1\n      keccak256\n      0x40\n      dup1\n      mload\n      0xc0\n      dup2\n      add\n      dup3\n      mstore\n      0x04\n      dup7\n      mul\n      swap1\n      swap3\n      add\n      dup1\n      sload\n      dup4\n      mstore\n      0x01\n      dup1\n      dup3\n      add\n      sload\n      dup5\n      dup7\n      add\n      mstore\n      0x02\n      dup3\n      add\n      sload\n      swap3\n      dup5\n      add\n      swap3\n      swap1\n      swap3\n      mstore\n      0x03\n      add\n      sload\n      sub(shl(0xa0, 0x01), 0x01)\n      dup2\n      and\n      0x60\n      dup5\n      add\n      mstore\n      0xff\n      shl(0xa0, 0x01)\n      dup3\n      div\n      dup2\n      and\n      iszero\n      iszero\n      0x80\n      dup6\n      add\n      mstore\n      shl(0xa8, 0x01)\n      swap1\n      swap2\n      div\n      and\n      iszero\n      iszero\n      0xa0\n      dup4\n      add\n      mstore\n      swap1\n      dup4\n      mstore\n      swap1\n      swap3\n      add\n      swap2\n      add\n      jump(tag_340)\n    tag_341:\n      pop\n      pop\n      pop\n      pop\n        /* \"smart-contracts/classroom/main/Canvassing_flattened.sol\":10029:10073  currentSurvey... */\n      0x60\n      dup4\n      add\n      mload\n        /* \"smart-contracts/classroom/main/Canvassing_flattened.sol\":9908:9966  Answer[] memory allAnswersOfSurvey = allAnswers[_surveyId] */\n      swap1\n      swap2\n      pop\n        /* \"smart-contracts/classroom/main/Canvassing_flattened.sol\":9977:10026  uint256 totalNumberOfAnswersOfParticipantOfSurvey */\n      0x00\n        /* \"smart-contracts/classroom/main/Canvassing_flattened.sol\":10029:10073  currentSurvey... */\n      dup2\n      sub(shl(0x40, 0x01), 0x01)\n        /* \"smart-contracts/classroom/main/Canvassing_flattened.sol\":10134:10211  new Answer[](... */\n      dup2\n      gt\n      iszero\n      tag_344\n      jumpi\n      tag_344\n      tag_275\n      jump\t// in\n    tag_344:\n      mload(0x40)\n      swap1\n      dup1\n      dup3\n      mstore\n      dup1\n      0x20\n      mul\n      0x20\n      add\n      dup3\n      add\n      0x40\n      mstore\n      dup1\n      iszero\n      tag_345\n      jumpi\n      dup2\n      0x20\n      add\n    tag_346:\n      tag_347\n      tag_348\n      jump\t// in\n    tag_347:\n      dup2\n      mstore\n      0x20\n      add\n      swap1\n      0x01\n      swap1\n      sub\n      swap1\n      dup2\n      tag_346\n      jumpi\n      swap1\n      pop\n    tag_345:\n      pop\n        /* \"smart-contracts/classroom/main/Canvassing_flattened.sol\":10084:10211  Answer[] memory allAnswersOfParticipantOfSurvey = new Answer[](... */\n      swap1\n      pop\n        /* \"smart-contracts/classroom/main/Canvassing_flattened.sol\":10222:10241  uint256 answerIndex */\n      0x00\n        /* \"smart-contracts/classroom/main/Canvassing_flattened.sol\":10274:10290  uint256 answerId */\n      dup1\n        /* \"smart-contracts/classroom/main/Canvassing_flattened.sol\":10256:10845  for (... */\n    tag_349:\n        /* \"smart-contracts/classroom/main/Canvassing_flattened.sol\":10319:10337  allAnswersOfSurvey */\n      dup5\n        /* \"smart-contracts/classroom/main/Canvassing_flattened.sol\":10319:10344  allAnswersOfSurvey.length */\n      mload\n        /* \"smart-contracts/classroom/main/Canvassing_flattened.sol\":10308:10316  answerId */\n      dup2\n        /* \"smart-contracts/classroom/main/Canvassing_flattened.sol\":10308:10344  answerId < allAnswersOfSurvey.length */\n      lt\n        /* \"smart-contracts/classroom/main/Canvassing_flattened.sol\":10256:10845  for (... */\n      iszero\n      tag_350\n      jumpi\n        /* \"smart-contracts/classroom/main/Canvassing_flattened.sol\":10393:10420  Answer memory runningAnswer */\n      0x00\n        /* \"smart-contracts/classroom/main/Canvassing_flattened.sol\":10423:10441  allAnswersOfSurvey */\n      dup6\n        /* \"smart-contracts/classroom/main/Canvassing_flattened.sol\":10442:10450  answerId */\n      dup3\n        /* \"smart-contracts/classroom/main/Canvassing_flattened.sol\":10423:10451  allAnswersOfSurvey[answerId] */\n      dup2\n      mload\n      dup2\n      lt\n      tag_353\n      jumpi\n      tag_353\n      tag_285\n      jump\t// in\n    tag_353:\n      0x20\n      mul\n      0x20\n      add\n      add\n      mload\n        /* \"smart-contracts/classroom/main/Canvassing_flattened.sol\":10393:10451  Answer memory runningAnswer = allAnswersOfSurvey[answerId] */\n      swap1\n      pop\n        /* \"smart-contracts/classroom/main/Canvassing_flattened.sol\":10545:10570  _participantWalletAddress */\n      dup9\n      sub(shl(0xa0, 0x01), 0x01)\n        /* \"smart-contracts/classroom/main/Canvassing_flattened.sol\":10487:10570  runningAnswer.participantWalletAddress ==... */\n      and\n        /* \"smart-contracts/classroom/main/Canvassing_flattened.sol\":10487:10500  runningAnswer */\n      dup2\n        /* \"smart-contracts/classroom/main/Canvassing_flattened.sol\":10487:10525  runningAnswer.participantWalletAddress */\n      0x60\n      add\n      mload\n      sub(shl(0xa0, 0x01), 0x01)\n        /* \"smart-contracts/classroom/main/Canvassing_flattened.sol\":10487:10570  runningAnswer.participantWalletAddress ==... */\n      and\n      sub\n        /* \"smart-contracts/classroom/main/Canvassing_flattened.sol\":10466:10835  if (... */\n      tag_358\n      jumpi\n        /* \"smart-contracts/classroom/main/Canvassing_flattened.sol\":10650:10663  runningAnswer */\n      dup1\n        /* \"smart-contracts/classroom/main/Canvassing_flattened.sol\":10603:10634  allAnswersOfParticipantOfSurvey */\n      dup5\n        /* \"smart-contracts/classroom/main/Canvassing_flattened.sol\":10635:10646  answerIndex */\n      dup5\n        /* \"smart-contracts/classroom/main/Canvassing_flattened.sol\":10603:10647  allAnswersOfParticipantOfSurvey[answerIndex] */\n      dup2\n      mload\n      dup2\n      lt\n      tag_356\n      jumpi\n      tag_356\n      tag_285\n      jump\t// in\n    tag_356:\n      0x20\n      mul\n      0x20\n      add\n      add\n        /* \"smart-contracts/classroom/main/Canvassing_flattened.sol\":10603:10663  allAnswersOfParticipantOfSurvey[answerIndex] = runningAnswer */\n      dup2\n      swap1\n      mstore\n      pop\n        /* \"smart-contracts/classroom/main/Canvassing_flattened.sol\":10681:10694  answerIndex++ */\n      dup3\n      dup1\n      tag_357\n      swap1\n      tag_296\n      jump\t// in\n    tag_357:\n      swap4\n      pop\n      pop\n        /* \"smart-contracts/classroom/main/Canvassing_flattened.sol\":10732:10773  totalNumberOfAnswersOfParticipantOfSurvey */\n      dup5\n        /* \"smart-contracts/classroom/main/Canvassing_flattened.sol\":10717:10728  answerIndex */\n      dup4\n        /* \"smart-contracts/classroom/main/Canvassing_flattened.sol\":10717:10773  answerIndex == totalNumberOfAnswersOfParticipantOfSurvey */\n      sub\n        /* \"smart-contracts/classroom/main/Canvassing_flattened.sol\":10713:10821  if (answerIndex == totalNumberOfAnswersOfParticipantOfSurvey) {... */\n      tag_358\n      jumpi\n        /* \"smart-contracts/classroom/main/Canvassing_flattened.sol\":10797:10802  break */\n      pop\n      jump(tag_350)\n        /* \"smart-contracts/classroom/main/Canvassing_flattened.sol\":10713:10821  if (answerIndex == totalNumberOfAnswersOfParticipantOfSurvey) {... */\n    tag_358:\n      pop\n        /* \"smart-contracts/classroom/main/Canvassing_flattened.sol\":10358:10368  answerId++ */\n      dup1\n      tag_359\n      dup2\n      tag_296\n      jump\t// in\n    tag_359:\n      swap2\n      pop\n      pop\n        /* \"smart-contracts/classroom/main/Canvassing_flattened.sol\":10256:10845  for (... */\n      jump(tag_349)\n    tag_350:\n      pop\n        /* \"smart-contracts/classroom/main/Canvassing_flattened.sol\":10861:10892  allAnswersOfParticipantOfSurvey */\n      swap1\n      swap8\n        /* \"smart-contracts/classroom/main/Canvassing_flattened.sol\":9679:10899  function getAllAnswersOfParticipantOfSurvey(... */\n      swap7\n      pop\n      pop\n      pop\n      pop\n      pop\n      pop\n      pop\n      jump\t// out\n        /* \"smart-contracts/classroom/main/Canvassing_flattened.sol\":4957:5144  function getParticipantByWalletAddress(address _walletAddress)... */\n    tag_92:\n        /* \"smart-contracts/classroom/main/Canvassing_flattened.sol\":5065:5083  Participant memory */\n      tag_360\n      tag_361\n      jump\t// in\n    tag_360:\n      sub(shl(0xa0, 0x01), 0x01)\n        /* \"smart-contracts/classroom/main/Canvassing_flattened.sol\":5106:5137  allParticipants[_walletAddress] */\n      dup1\n      dup4\n      and\n      0x00\n      swap1\n      dup2\n      mstore\n        /* \"smart-contracts/classroom/main/Canvassing_flattened.sol\":5106:5121  allParticipants */\n      0x02\n        /* \"smart-contracts/classroom/main/Canvassing_flattened.sol\":5106:5137  allParticipants[_walletAddress] */\n      0x20\n      dup2\n      dup2\n      mstore\n      0x40\n      swap3\n      dup4\n      swap1\n      keccak256\n        /* \"smart-contracts/classroom/main/Canvassing_flattened.sol\":5099:5137  return allParticipants[_walletAddress] */\n      dup4\n      mload\n      0x0100\n      dup2\n      add\n      dup6\n      mstore\n      dup2\n      sload\n      dup2\n      mstore\n      0x01\n      dup3\n      add\n      sload\n      swap1\n      swap6\n      and\n      swap2\n      dup6\n      add\n      swap2\n      swap1\n      swap2\n      mstore\n      swap1\n      dup2\n      add\n      dup1\n      sload\n        /* \"smart-contracts/classroom/main/Canvassing_flattened.sol\":5106:5137  allParticipants[_walletAddress] */\n      swap2\n      swap3\n        /* \"smart-contracts/classroom/main/Canvassing_flattened.sol\":5099:5137  return allParticipants[_walletAddress] */\n      dup5\n      add\n      swap2\n      tag_363\n      swap1\n      tag_257\n      jump\t// in\n    tag_363:\n      dup1\n      0x1f\n      add\n      0x20\n      dup1\n      swap2\n      div\n      mul\n      0x20\n      add\n      mload(0x40)\n      swap1\n      dup2\n      add\n      0x40\n      mstore\n      dup1\n      swap3\n      swap2\n      swap1\n      dup2\n      dup2\n      mstore\n      0x20\n      add\n      dup3\n      dup1\n      sload\n      tag_364\n      swap1\n      tag_257\n      jump\t// in\n    tag_364:\n      dup1\n      iszero\n      tag_365\n      jumpi\n      dup1\n      0x1f\n      lt\n      tag_366\n      jumpi\n      0x0100\n      dup1\n      dup4\n      sload\n      div\n      mul\n      dup4\n      mstore\n      swap2\n      0x20\n      add\n      swap2\n      jump(tag_365)\n    tag_366:\n      dup3\n      add\n      swap2\n      swap1\n      0x00\n      mstore\n      keccak256(0x00, 0x20)\n      swap1\n    tag_367:\n      dup2\n      sload\n      dup2\n      mstore\n      swap1\n      0x01\n      add\n      swap1\n      0x20\n      add\n      dup1\n      dup4\n      gt\n      tag_367\n      jumpi\n      dup3\n      swap1\n      sub\n      0x1f\n      and\n      dup3\n      add\n      swap2\n    tag_365:\n      pop\n      pop\n      pop\n      pop\n      pop\n      dup2\n      mstore\n      0x20\n      add\n      0x03\n      dup3\n      add\n      dup1\n      sload\n      tag_368\n      swap1\n      tag_257\n      jump\t// in\n    tag_368:\n      dup1\n      0x1f\n      add\n      0x20\n      dup1\n      swap2\n      div\n      mul\n      0x20\n      add\n      mload(0x40)\n      swap1\n      dup2\n      add\n      0x40\n      mstore\n      dup1\n      swap3\n      swap2\n      swap1\n      dup2\n      dup2\n      mstore\n      0x20\n      add\n      dup3\n      dup1\n      sload\n      tag_369\n      swap1\n      tag_257\n      jump\t// in\n    tag_369:\n      dup1\n      iszero\n      tag_370\n      jumpi\n      dup1\n      0x1f\n      lt\n      tag_371\n      jumpi\n      0x0100\n      dup1\n      dup4\n      sload\n      div\n      mul\n      dup4\n      mstore\n      swap2\n      0x20\n      add\n      swap2\n      jump(tag_370)\n    tag_371:\n      dup3\n      add\n      swap2\n      swap1\n      0x00\n      mstore\n      keccak256(0x00, 0x20)\n      swap1\n    tag_372:\n      dup2\n      sload\n      dup2\n      mstore\n      swap1\n      0x01\n      add\n      swap1\n      0x20\n      add\n      dup1\n      dup4\n      gt\n      tag_372\n      jumpi\n      dup3\n      swap1\n      sub\n      0x1f\n      and\n      dup3\n      add\n      swap2\n    tag_370:\n      pop\n      pop\n      pop\n      swap2\n      dup4\n      mstore\n      pop\n      pop\n      0x04\n      dup3\n      add\n      sload\n      0x20\n      dup3\n      add\n      mstore\n      0x05\n      dup3\n      add\n      sload\n      0x40\n      dup3\n      add\n      mstore\n      0x06\n      swap1\n      swap2\n      add\n      sload\n      0xff\n      dup1\n      dup3\n      and\n      iszero\n      iszero\n      0x60\n      dup5\n      add\n      mstore\n      0x0100\n      swap1\n      swap2\n      div\n      and\n      iszero\n      iszero\n      0x80\n      swap1\n      swap2\n      add\n      mstore\n      swap3\n        /* \"smart-contracts/classroom/main/Canvassing_flattened.sol\":4957:5144  function getParticipantByWalletAddress(address _walletAddress)... */\n      swap2\n      pop\n      pop\n      jump\t// out\n        /* \"smart-contracts/classroom/main/Canvassing_flattened.sol\":8572:9500  function getTotalAmountOfEarningsReceivedByParticipantInWei(... */\n    tag_97:\n      sub(shl(0xa0, 0x01), 0x01)\n        /* \"smart-contracts/classroom/main/Canvassing_flattened.sol\":8759:8812  allParticipants[... */\n      dup2\n      and\n        /* \"smart-contracts/classroom/main/Canvassing_flattened.sol\":8691:8698  uint256 */\n      0x00\n        /* \"smart-contracts/classroom/main/Canvassing_flattened.sol\":8759:8812  allParticipants[... */\n      swap1\n      dup2\n      mstore\n        /* \"smart-contracts/classroom/main/Canvassing_flattened.sol\":8759:8774  allParticipants */\n      0x02\n        /* \"smart-contracts/classroom/main/Canvassing_flattened.sol\":8759:8812  allParticipants[... */\n      0x20\n      mstore\n      0x40\n      dup2\n      keccak256\n        /* \"smart-contracts/classroom/main/Canvassing_flattened.sol\":8759:8838  allParticipants[... */\n      0x05\n      add\n      sload\n        /* \"smart-contracts/classroom/main/Canvassing_flattened.sol\":8691:8698  uint256 */\n      dup2\n        /* \"smart-contracts/classroom/main/Canvassing_flattened.sol\":8759:8838  allParticipants[... */\n      dup2\n      sub(shl(0x40, 0x01), 0x01)\n        /* \"smart-contracts/classroom/main/Canvassing_flattened.sol\":8897:8972  new Earning[](... */\n      dup2\n      gt\n      iszero\n      tag_375\n      jumpi\n      tag_375\n      tag_275\n      jump\t// in\n    tag_375:\n      mload(0x40)\n      swap1\n      dup1\n      dup3\n      mstore\n      dup1\n      0x20\n      mul\n      0x20\n      add\n      dup3\n      add\n      0x40\n      mstore\n      dup1\n      iszero\n      tag_376\n      jumpi\n      dup2\n      0x20\n      add\n    tag_377:\n      tag_378\n      tag_379\n      jump\t// in\n    tag_378:\n      dup2\n      mstore\n      0x20\n      add\n      swap1\n      0x01\n      swap1\n      sub\n      swap1\n      dup2\n      tag_377\n      jumpi\n      swap1\n      pop\n    tag_376:\n      pop\n        /* \"smart-contracts/classroom/main/Canvassing_flattened.sol\":8849:8972  Earning[] memory allEarningsMadeByParticipant = new Earning[](... */\n      swap1\n      pop\n        /* \"smart-contracts/classroom/main/Canvassing_flattened.sol\":8983:9038  uint256 totalAmountOfEarningsReceivedByParticipantInWei */\n      0x00\n        /* \"smart-contracts/classroom/main/Canvassing_flattened.sol\":9071:9088  uint256 earningId */\n      dup1\n        /* \"smart-contracts/classroom/main/Canvassing_flattened.sol\":9053:9430  for (... */\n    tag_380:\n        /* \"smart-contracts/classroom/main/Canvassing_flattened.sol\":9118:9146  allEarningsMadeByParticipant */\n      dup3\n        /* \"smart-contracts/classroom/main/Canvassing_flattened.sol\":9118:9153  allEarningsMadeByParticipant.length */\n      mload\n        /* \"smart-contracts/classroom/main/Canvassing_flattened.sol\":9106:9115  earningId */\n      dup2\n        /* \"smart-contracts/classroom/main/Canvassing_flattened.sol\":9106:9153  earningId < allEarningsMadeByParticipant.length */\n      lt\n        /* \"smart-contracts/classroom/main/Canvassing_flattened.sol\":9053:9430  for (... */\n      iszero\n      tag_381\n      jumpi\n        /* \"smart-contracts/classroom/main/Canvassing_flattened.sol\":9203:9232  Earning memory runningEarning */\n      0x00\n        /* \"smart-contracts/classroom/main/Canvassing_flattened.sol\":9235:9263  allEarningsMadeByParticipant */\n      dup4\n        /* \"smart-contracts/classroom/main/Canvassing_flattened.sol\":9281:9290  earningId */\n      dup3\n        /* \"smart-contracts/classroom/main/Canvassing_flattened.sol\":9235:9304  allEarningsMadeByParticipant[... */\n      dup2\n      mload\n      dup2\n      lt\n      tag_384\n      jumpi\n      tag_384\n      tag_285\n      jump\t// in\n    tag_384:\n      0x20\n      mul\n      0x20\n      add\n      add\n      mload\n        /* \"smart-contracts/classroom/main/Canvassing_flattened.sol\":9203:9304  Earning memory runningEarning = allEarningsMadeByParticipant[... */\n      swap1\n      pop\n        /* \"smart-contracts/classroom/main/Canvassing_flattened.sol\":9369:9383  runningEarning */\n      dup1\n        /* \"smart-contracts/classroom/main/Canvassing_flattened.sol\":9369:9419  runningEarning... */\n      0x60\n      add\n      mload\n        /* \"smart-contracts/classroom/main/Canvassing_flattened.sol\":9318:9419  totalAmountOfEarningsReceivedByParticipantInWei += runningEarning... */\n      dup4\n      tag_385\n      swap2\n      swap1\n      tag_243\n      jump\t// in\n    tag_385:\n      swap3\n      pop\n        /* \"smart-contracts/classroom/main/Canvassing_flattened.sol\":9189:9430  {... */\n      pop\n        /* \"smart-contracts/classroom/main/Canvassing_flattened.sol\":9167:9178  earningId++ */\n      dup1\n      dup1\n      tag_386\n      swap1\n      tag_296\n      jump\t// in\n    tag_386:\n      swap2\n      pop\n      pop\n        /* \"smart-contracts/classroom/main/Canvassing_flattened.sol\":9053:9430  for (... */\n      jump(tag_380)\n    tag_381:\n      pop\n        /* \"smart-contracts/classroom/main/Canvassing_flattened.sol\":9446:9493  totalAmountOfEarningsReceivedByParticipantInWei */\n      swap5\n        /* \"smart-contracts/classroom/main/Canvassing_flattened.sol\":8572:9500  function getTotalAmountOfEarningsReceivedByParticipantInWei(... */\n      swap4\n      pop\n      pop\n      pop\n      pop\n      jump\t// out\n        /* \"smart-contracts/classroom/main/Canvassing_flattened.sol\":6436:7458  function getAllEarningsMadeByParticipant(address _walletAddress)... */\n    tag_105:\n      sub(shl(0xa0, 0x01), 0x01)\n        /* \"smart-contracts/classroom/main/Canvassing_flattened.sol\":6627:6680  allParticipants[... */\n      dup2\n      and\n        /* \"smart-contracts/classroom/main/Canvassing_flattened.sol\":6578:6624  uint256 totalNumberOfSurveysTakenByParticipant */\n      0x00\n        /* \"smart-contracts/classroom/main/Canvassing_flattened.sol\":6627:6680  allParticipants[... */\n      swap1\n      dup2\n      mstore\n        /* \"smart-contracts/classroom/main/Canvassing_flattened.sol\":6627:6642  allParticipants */\n      0x02\n        /* \"smart-contracts/classroom/main/Canvassing_flattened.sol\":6627:6680  allParticipants[... */\n      0x20\n      mstore\n      0x40\n      dup2\n      keccak256\n        /* \"smart-contracts/classroom/main/Canvassing_flattened.sol\":6627:6706  allParticipants[... */\n      0x05\n      add\n      sload\n        /* \"smart-contracts/classroom/main/Canvassing_flattened.sol\":6546:6562  Earning[] memory */\n      0x60\n      swap2\n        /* \"smart-contracts/classroom/main/Canvassing_flattened.sol\":6627:6706  allParticipants[... */\n      dup2\n      sub(shl(0x40, 0x01), 0x01)\n        /* \"smart-contracts/classroom/main/Canvassing_flattened.sol\":6765:6840  new Earning[](... */\n      dup2\n      gt\n      iszero\n      tag_390\n      jumpi\n      tag_390\n      tag_275\n      jump\t// in\n    tag_390:\n      mload(0x40)\n      swap1\n      dup1\n      dup3\n      mstore\n      dup1\n      0x20\n      mul\n      0x20\n      add\n      dup3\n      add\n      0x40\n      mstore\n      dup1\n      iszero\n      tag_391\n      jumpi\n      dup2\n      0x20\n      add\n    tag_392:\n      tag_393\n      tag_379\n      jump\t// in\n    tag_393:\n      dup2\n      mstore\n      0x20\n      add\n      swap1\n      0x01\n      swap1\n      sub\n      swap1\n      dup2\n      tag_392\n      jumpi\n      swap1\n      pop\n    tag_391:\n      pop\n        /* \"smart-contracts/classroom/main/Canvassing_flattened.sol\":6717:6840  Earning[] memory allEarningsMadeByParticipant = new Earning[](... */\n      swap1\n      pop\n        /* \"smart-contracts/classroom/main/Canvassing_flattened.sol\":6850:6870  uint256 earningIndex */\n      0x00\n        /* \"smart-contracts/classroom/main/Canvassing_flattened.sol\":6903:6920  uint256 earningId */\n      dup1\n        /* \"smart-contracts/classroom/main/Canvassing_flattened.sol\":6885:7406  for (... */\n    tag_394:\n        /* \"smart-contracts/classroom/main/Canvassing_flattened.sol\":6950:6961  allEarnings */\n      0x0d\n        /* \"smart-contracts/classroom/main/Canvassing_flattened.sol\":6950:6968  allEarnings.length */\n      sload\n        /* \"smart-contracts/classroom/main/Canvassing_flattened.sol\":6938:6968  earningId < allEarnings.length */\n      dup2\n      lt\n        /* \"smart-contracts/classroom/main/Canvassing_flattened.sol\":6885:7406  for (... */\n      iszero\n      tag_281\n      jumpi\n        /* \"smart-contracts/classroom/main/Canvassing_flattened.sol\":7018:7047  Earning memory runningEarning */\n      0x00\n        /* \"smart-contracts/classroom/main/Canvassing_flattened.sol\":7050:7061  allEarnings */\n      0x0d\n        /* \"smart-contracts/classroom/main/Canvassing_flattened.sol\":7062:7071  earningId */\n      dup3\n        /* \"smart-contracts/classroom/main/Canvassing_flattened.sol\":7050:7072  allEarnings[earningId] */\n      dup2\n      sload\n      dup2\n      lt\n      tag_398\n      jumpi\n      tag_398\n      tag_285\n      jump\t// in\n    tag_398:\n      0x00\n      swap2\n      dup3\n      mstore\n      0x20\n      swap2\n      dup3\n      swap1\n      keccak256\n        /* \"smart-contracts/classroom/main/Canvassing_flattened.sol\":7018:7072  Earning memory runningEarning = allEarnings[earningId] */\n      0x40\n      dup1\n      mload\n      0xa0\n      dup2\n      add\n      dup3\n      mstore\n        /* \"smart-contracts/classroom/main/Canvassing_flattened.sol\":7050:7072  allEarnings[earningId] */\n      0x05\n      swap1\n      swap4\n      mul\n      swap1\n      swap2\n      add\n        /* \"smart-contracts/classroom/main/Canvassing_flattened.sol\":7018:7072  Earning memory runningEarning = allEarnings[earningId] */\n      dup1\n      sload\n      dup4\n      mstore\n      0x01\n      dup2\n      add\n      sload\n      swap4\n      dup4\n      add\n      swap4\n      swap1\n      swap4\n      mstore\n      0x02\n      dup4\n      add\n      sload\n      sub(shl(0xa0, 0x01), 0x01)\n      swap1\n      dup2\n      and\n      swap2\n      dup4\n      add\n      dup3\n      swap1\n      mstore\n      0x03\n      dup5\n      add\n      sload\n      0x60\n      dup5\n      add\n      mstore\n      0x04\n      swap1\n      swap4\n      add\n      sload\n      0xff\n      and\n      iszero\n      iszero\n      0x80\n      dup4\n      add\n      mstore\n      swap1\n      swap3\n      pop\n        /* \"smart-contracts/classroom/main/Canvassing_flattened.sol\":7091:7146  runningEarning.recipientWalletAddress == _walletAddress */\n      swap1\n      dup9\n      and\n      swap1\n      sub\n        /* \"smart-contracts/classroom/main/Canvassing_flattened.sol\":7087:7396  if (runningEarning.recipientWalletAddress == _walletAddress) {... */\n      tag_404\n      jumpi\n        /* \"smart-contracts/classroom/main/Canvassing_flattened.sol\":7211:7225  runningEarning */\n      dup1\n        /* \"smart-contracts/classroom/main/Canvassing_flattened.sol\":7166:7194  allEarningsMadeByParticipant */\n      dup5\n        /* \"smart-contracts/classroom/main/Canvassing_flattened.sol\":7195:7207  earningIndex */\n      dup5\n        /* \"smart-contracts/classroom/main/Canvassing_flattened.sol\":7166:7208  allEarningsMadeByParticipant[earningIndex] */\n      dup2\n      mload\n      dup2\n      lt\n      tag_402\n      jumpi\n      tag_402\n      tag_285\n      jump\t// in\n    tag_402:\n      0x20\n      mul\n      0x20\n      add\n      add\n        /* \"smart-contracts/classroom/main/Canvassing_flattened.sol\":7166:7225  allEarningsMadeByParticipant[earningIndex] = runningEarning */\n      dup2\n      swap1\n      mstore\n      pop\n        /* \"smart-contracts/classroom/main/Canvassing_flattened.sol\":7243:7257  earningIndex++ */\n      dup3\n      dup1\n      tag_403\n      swap1\n      tag_296\n      jump\t// in\n    tag_403:\n      swap4\n      pop\n      pop\n        /* \"smart-contracts/classroom/main/Canvassing_flattened.sol\":7296:7334  totalNumberOfSurveysTakenByParticipant */\n      dup5\n        /* \"smart-contracts/classroom/main/Canvassing_flattened.sol\":7280:7292  earningIndex */\n      dup4\n        /* \"smart-contracts/classroom/main/Canvassing_flattened.sol\":7280:7334  earningIndex == totalNumberOfSurveysTakenByParticipant */\n      sub\n        /* \"smart-contracts/classroom/main/Canvassing_flattened.sol\":7276:7382  if (earningIndex == totalNumberOfSurveysTakenByParticipant) {... */\n      tag_404\n      jumpi\n        /* \"smart-contracts/classroom/main/Canvassing_flattened.sol\":7358:7363  break */\n      pop\n      jump(tag_281)\n        /* \"smart-contracts/classroom/main/Canvassing_flattened.sol\":7276:7382  if (earningIndex == totalNumberOfSurveysTakenByParticipant) {... */\n    tag_404:\n      pop\n        /* \"smart-contracts/classroom/main/Canvassing_flattened.sol\":6982:6993  earningId++ */\n      dup1\n      tag_405\n      dup2\n      tag_296\n      jump\t// in\n    tag_405:\n      swap2\n      pop\n      pop\n        /* \"smart-contracts/classroom/main/Canvassing_flattened.sol\":6885:7406  for (... */\n      jump(tag_394)\n        /* \"smart-contracts/classroom/main/Canvassing_flattened.sol\":7464:8566  function getAllSurveysTakenByParticipant(address _walletAddress)... */\n    tag_110:\n        /* \"smart-contracts/classroom/main/Canvassing_flattened.sol\":7574:7589  Survey[] memory */\n      0x60\n        /* \"smart-contracts/classroom/main/Canvassing_flattened.sol\":7698:7755  Earning[]... */\n      0x00\n        /* \"smart-contracts/classroom/main/Canvassing_flattened.sol\":7758:7835  getAllEarningsMadeByParticipant(... */\n      tag_407\n        /* \"smart-contracts/classroom/main/Canvassing_flattened.sol\":7807:7821  _walletAddress */\n      dup4\n        /* \"smart-contracts/classroom/main/Canvassing_flattened.sol\":7758:7789  getAllEarningsMadeByParticipant */\n      tag_105\n        /* \"smart-contracts/classroom/main/Canvassing_flattened.sol\":7758:7835  getAllEarningsMadeByParticipant(... */\n      jump\t// in\n    tag_407:\n        /* \"smart-contracts/classroom/main/Canvassing_flattened.sol\":7698:7835  Earning[]... */\n      swap1\n      pop\n        /* \"smart-contracts/classroom/main/Canvassing_flattened.sol\":7846:7890  Survey[] memory allSurveysTakenByParticipant */\n      0x00\n        /* \"smart-contracts/classroom/main/Canvassing_flattened.sol\":7919:7947  allEarningsMadeByParticipant */\n      dup2\n        /* \"smart-contracts/classroom/main/Canvassing_flattened.sol\":7919:7954  allEarningsMadeByParticipant.length */\n      mload\n      sub(shl(0x40, 0x01), 0x01)\n        /* \"smart-contracts/classroom/main/Canvassing_flattened.sol\":7893:7964  new Survey[](... */\n      dup2\n      gt\n      iszero\n      tag_409\n      jumpi\n      tag_409\n      tag_275\n      jump\t// in\n    tag_409:\n      mload(0x40)\n      swap1\n      dup1\n      dup3\n      mstore\n      dup1\n      0x20\n      mul\n      0x20\n      add\n      dup3\n      add\n      0x40\n      mstore\n      dup1\n      iszero\n      tag_410\n      jumpi\n      dup2\n      0x20\n      add\n    tag_411:\n      tag_412\n      tag_279\n      jump\t// in\n    tag_412:\n      dup2\n      mstore\n      0x20\n      add\n      swap1\n      0x01\n      swap1\n      sub\n      swap1\n      dup2\n      tag_411\n      jumpi\n      swap1\n      pop\n    tag_410:\n      pop\n        /* \"smart-contracts/classroom/main/Canvassing_flattened.sol\":7846:7964  Survey[] memory allSurveysTakenByParticipant = new Survey[](... */\n      swap1\n      pop\n        /* \"smart-contracts/classroom/main/Canvassing_flattened.sol\":7974:7993  uint256 surveyIndex */\n      0x00\n        /* \"smart-contracts/classroom/main/Canvassing_flattened.sol\":8119:8136  uint256 earningId */\n      dup1\n        /* \"smart-contracts/classroom/main/Canvassing_flattened.sol\":8101:8514  for (... */\n    tag_413:\n        /* \"smart-contracts/classroom/main/Canvassing_flattened.sol\":8166:8194  allEarningsMadeByParticipant */\n      dup4\n        /* \"smart-contracts/classroom/main/Canvassing_flattened.sol\":8166:8201  allEarningsMadeByParticipant.length */\n      mload\n        /* \"smart-contracts/classroom/main/Canvassing_flattened.sol\":8154:8163  earningId */\n      dup2\n        /* \"smart-contracts/classroom/main/Canvassing_flattened.sol\":8154:8201  earningId < allEarningsMadeByParticipant.length */\n      lt\n        /* \"smart-contracts/classroom/main/Canvassing_flattened.sol\":8101:8514  for (... */\n      iszero\n      tag_281\n      jumpi\n        /* \"smart-contracts/classroom/main/Canvassing_flattened.sol\":8251:8280  Earning memory runningEarning */\n      0x00\n        /* \"smart-contracts/classroom/main/Canvassing_flattened.sol\":8283:8311  allEarningsMadeByParticipant */\n      dup5\n        /* \"smart-contracts/classroom/main/Canvassing_flattened.sol\":8329:8338  earningId */\n      dup3\n        /* \"smart-contracts/classroom/main/Canvassing_flattened.sol\":8283:8352  allEarningsMadeByParticipant[... */\n      dup2\n      mload\n      dup2\n      lt\n      tag_417\n      jumpi\n      tag_417\n      tag_285\n      jump\t// in\n    tag_417:\n      0x20\n      mul\n      0x20\n      add\n      add\n      mload\n        /* \"smart-contracts/classroom/main/Canvassing_flattened.sol\":8251:8352  Earning memory runningEarning = allEarningsMadeByParticipant[... */\n      swap1\n      pop\n        /* \"smart-contracts/classroom/main/Canvassing_flattened.sol\":8411:8421  allSurveys */\n      0x03\n        /* \"smart-contracts/classroom/main/Canvassing_flattened.sol\":8439:8453  runningEarning */\n      dup2\n        /* \"smart-contracts/classroom/main/Canvassing_flattened.sol\":8439:8462  runningEarning.surveyId */\n      0x20\n      add\n      mload\n        /* \"smart-contracts/classroom/main/Canvassing_flattened.sol\":8411:8476  allSurveys[... */\n      dup2\n      sload\n      dup2\n      lt\n      tag_419\n      jumpi\n      tag_419\n      tag_285\n      jump\t// in\n    tag_419:\n      swap1\n      0x00\n      mstore\n      keccak256(0x00, 0x20)\n      swap1\n      0x07\n      mul\n      add\n        /* \"smart-contracts/classroom/main/Canvassing_flattened.sol\":8367:8476  allSurveysTakenByParticipant[surveyIndex] = allSurveys[... */\n      mload(0x40)\n      dup1\n      0xe0\n      add\n      0x40\n      mstore\n      swap1\n      dup2\n      0x00\n      dup3\n      add\n      sload\n      dup2\n      mstore\n      0x20\n      add\n      0x01\n      dup3\n      add\n      0x00\n      swap1\n      sload\n      swap1\n      0x0100\n      exp\n      swap1\n      div\n      sub(shl(0xa0, 0x01), 0x01)\n      and\n      sub(shl(0xa0, 0x01), 0x01)\n      and\n      sub(shl(0xa0, 0x01), 0x01)\n      and\n      dup2\n      mstore\n      0x20\n      add\n      0x02\n      dup3\n      add\n      dup1\n      sload\n      tag_421\n      swap1\n      tag_257\n      jump\t// in\n    tag_421:\n      dup1\n      0x1f\n      add\n      0x20\n      dup1\n      swap2\n      div\n      mul\n      0x20\n      add\n      mload(0x40)\n      swap1\n      dup2\n      add\n      0x40\n      mstore\n      dup1\n      swap3\n      swap2\n      swap1\n      dup2\n      dup2\n      mstore\n      0x20\n      add\n      dup3\n      dup1\n      sload\n      tag_422\n      swap1\n      tag_257\n      jump\t// in\n    tag_422:\n      dup1\n      iszero\n      tag_423\n      jumpi\n      dup1\n      0x1f\n      lt\n      tag_424\n      jumpi\n      0x0100\n      dup1\n      dup4\n      sload\n      div\n      mul\n      dup4\n      mstore\n      swap2\n      0x20\n      add\n      swap2\n      jump(tag_423)\n    tag_424:\n      dup3\n      add\n      swap2\n      swap1\n      0x00\n      mstore\n      keccak256(0x00, 0x20)\n      swap1\n    tag_425:\n      dup2\n      sload\n      dup2\n      mstore\n      swap1\n      0x01\n      add\n      swap1\n      0x20\n      add\n      dup1\n      dup4\n      gt\n      tag_425\n      jumpi\n      dup3\n      swap1\n      sub\n      0x1f\n      and\n      dup3\n      add\n      swap2\n    tag_423:\n      pop\n      pop\n      pop\n      swap2\n      dup4\n      mstore\n      pop\n      pop\n      0x03\n      dup3\n      add\n      sload\n      0x20\n      dup3\n      add\n      mstore\n      0x04\n      dup3\n      add\n      sload\n      0x40\n      dup3\n      add\n      mstore\n      0x05\n      dup3\n      add\n      sload\n      0x60\n      dup3\n      add\n      mstore\n      0x06\n      swap1\n      swap2\n      add\n      sload\n      0xff\n      and\n      iszero\n      iszero\n      0x80\n      swap1\n      swap2\n      add\n      mstore\n        /* \"smart-contracts/classroom/main/Canvassing_flattened.sol\":8367:8408  allSurveysTakenByParticipant[surveyIndex] */\n      dup5\n      mload\n        /* \"smart-contracts/classroom/main/Canvassing_flattened.sol\":8367:8395  allSurveysTakenByParticipant */\n      dup6\n      swap1\n        /* \"smart-contracts/classroom/main/Canvassing_flattened.sol\":8396:8407  surveyIndex */\n      dup6\n      swap1\n        /* \"smart-contracts/classroom/main/Canvassing_flattened.sol\":8367:8408  allSurveysTakenByParticipant[surveyIndex] */\n      dup2\n      lt\n      tag_427\n      jumpi\n      tag_427\n      tag_285\n      jump\t// in\n    tag_427:\n      0x20\n      mul\n      0x20\n      add\n      add\n        /* \"smart-contracts/classroom/main/Canvassing_flattened.sol\":8367:8476  allSurveysTakenByParticipant[surveyIndex] = allSurveys[... */\n      dup2\n      swap1\n      mstore\n      pop\n        /* \"smart-contracts/classroom/main/Canvassing_flattened.sol\":8490:8503  surveyIndex++ */\n      dup3\n      dup1\n      tag_428\n      swap1\n      tag_296\n      jump\t// in\n    tag_428:\n      swap4\n      pop\n      pop\n        /* \"smart-contracts/classroom/main/Canvassing_flattened.sol\":8237:8514  {... */\n      pop\n        /* \"smart-contracts/classroom/main/Canvassing_flattened.sol\":8215:8226  earningId++ */\n      dup1\n      dup1\n      tag_429\n      swap1\n      tag_296\n      jump\t// in\n    tag_429:\n      swap2\n      pop\n      pop\n        /* \"smart-contracts/classroom/main/Canvassing_flattened.sol\":8101:8514  for (... */\n      jump(tag_413)\n        /* \"smart-contracts/classroom/main/Canvassing_flattened.sol\":5150:6170  function createParticipant(... */\n    tag_115:\n        /* \"smart-contracts/classroom/main/Canvassing_flattened.sol\":5352:5372  currentParticipantId */\n      sload(0x0f)\n        /* \"smart-contracts/classroom/main/Canvassing_flattened.sol\":5383:5416  Participant memory newParticipant */\n      tag_431\n      tag_361\n      jump\t// in\n    tag_431:\n        /* \"smart-contracts/classroom/main/Canvassing_flattened.sol\":5427:5463  newParticipant.id = newParticipantId */\n      dup2\n      dup2\n      mstore\n      sub(shl(0xa0, 0x01), 0x01)\n        /* \"smart-contracts/classroom/main/Canvassing_flattened.sol\":5473:5518  newParticipant.walletAddress = _walletAddress */\n      dup7\n      and\n        /* \"smart-contracts/classroom/main/Canvassing_flattened.sol\":5473:5501  newParticipant.walletAddress */\n      0x20\n      dup3\n      add\n        /* \"smart-contracts/classroom/main/Canvassing_flattened.sol\":5473:5518  newParticipant.walletAddress = _walletAddress */\n      mstore\n        /* \"smart-contracts/classroom/main/Canvassing_flattened.sol\":5528:5549  newParticipant.gender */\n      0x40\n      dup2\n      add\n        /* \"smart-contracts/classroom/main/Canvassing_flattened.sol\":5528:5559  newParticipant.gender = _gender */\n      dup6\n      swap1\n      mstore\n        /* \"smart-contracts/classroom/main/Canvassing_flattened.sol\":5569:5591  newParticipant.country */\n      0x60\n      dup2\n      add\n        /* \"smart-contracts/classroom/main/Canvassing_flattened.sol\":5569:5602  newParticipant.country = _country */\n      dup5\n      swap1\n      mstore\n        /* \"smart-contracts/classroom/main/Canvassing_flattened.sol\":5612:5638  newParticipant.yearOfBirth */\n      0x80\n      dup2\n      add\n        /* \"smart-contracts/classroom/main/Canvassing_flattened.sol\":5612:5653  newParticipant.yearOfBirth = _yearOfBirth */\n      dup4\n      swap1\n      mstore\n        /* \"smart-contracts/classroom/main/Canvassing_flattened.sol\":5724:5763  checkIfResearcherExists(_walletAddress) */\n      tag_432\n        /* \"smart-contracts/classroom/main/Canvassing_flattened.sol\":5504:5518  _walletAddress */\n      dup7\n        /* \"smart-contracts/classroom/main/Canvassing_flattened.sol\":5724:5747  checkIfResearcherExists */\n      tag_188\n        /* \"smart-contracts/classroom/main/Canvassing_flattened.sol\":5724:5763  checkIfResearcherExists(_walletAddress) */\n      jump\t// in\n    tag_432:\n        /* \"smart-contracts/classroom/main/Canvassing_flattened.sol\":5720:6072  if (checkIfResearcherExists(_walletAddress)) {... */\n      iszero\n      tag_433\n      jumpi\n        /* \"smart-contracts/classroom/main/Canvassing_flattened.sol\":5779:5815  Researcher memory existingResearcher */\n      0x00\n        /* \"smart-contracts/classroom/main/Canvassing_flattened.sol\":5818:5892  getResearcherByWalletAddress(... */\n      tag_434\n        /* \"smart-contracts/classroom/main/Canvassing_flattened.sol\":5864:5878  _walletAddress */\n      dup8\n        /* \"smart-contracts/classroom/main/Canvassing_flattened.sol\":5818:5846  getResearcherByWalletAddress */\n      tag_61\n        /* \"smart-contracts/classroom/main/Canvassing_flattened.sol\":5818:5892  getResearcherByWalletAddress(... */\n      jump\t// in\n    tag_434:\n        /* \"smart-contracts/classroom/main/Canvassing_flattened.sol\":5942:5946  true */\n      0x01\n        /* \"smart-contracts/classroom/main/Canvassing_flattened.sol\":5907:5939  existingResearcher.isParticipant */\n      0xa0\n      dup3\n      add\n        /* \"smart-contracts/classroom/main/Canvassing_flattened.sol\":5907:5946  existingResearcher.isParticipant = true */\n      dup2\n      swap1\n      mstore\n        /* \"smart-contracts/classroom/main/Canvassing_flattened.sol\":5961:5988  newParticipant.isResearcher */\n      0xc0\n      dup5\n      add\n        /* \"smart-contracts/classroom/main/Canvassing_flattened.sol\":5961:5995  newParticipant.isResearcher = true */\n      dup2\n      swap1\n      mstore\n      sub(shl(0xa0, 0x01), 0x01)\n        /* \"smart-contracts/classroom/main/Canvassing_flattened.sol\":6010:6040  allResearchers[_walletAddress] */\n      dup10\n      dup2\n      and\n        /* \"smart-contracts/classroom/main/Canvassing_flattened.sol\":5907:5946  existingResearcher.isParticipant = true */\n      0x00\n        /* \"smart-contracts/classroom/main/Canvassing_flattened.sol\":6010:6040  allResearchers[_walletAddress] */\n      swap1\n      dup2\n      mstore\n      0x20\n      dup4\n      dup2\n      mstore\n      0x40\n      swap2\n      dup3\n      swap1\n      keccak256\n        /* \"smart-contracts/classroom/main/Canvassing_flattened.sol\":6010:6061  allResearchers[_walletAddress] = existingResearcher */\n      dup6\n      mload\n      dup2\n      sstore\n      swap1\n      dup6\n      add\n      mload\n      swap4\n      dup2\n      add\n      dup1\n      sload\n      not(sub(shl(0xa0, 0x01), 0x01))\n      and\n      swap5\n      swap1\n      swap4\n      and\n      swap4\n      swap1\n      swap4\n      or\n      swap1\n      swap2\n      sstore\n      dup3\n      add\n      mload\n        /* \"smart-contracts/classroom/main/Canvassing_flattened.sol\":5907:5939  existingResearcher.isParticipant */\n      swap2\n      swap3\n      pop\n      dup3\n      swap2\n        /* \"smart-contracts/classroom/main/Canvassing_flattened.sol\":6010:6061  allResearchers[_walletAddress] = existingResearcher */\n      0x02\n      dup3\n      add\n      swap1\n      tag_435\n      swap1\n      dup3\n      tag_436\n      jump\t// in\n    tag_435:\n      pop\n      0x60\n      dup3\n      add\n      mload\n      0x03\n      dup3\n      add\n      swap1\n      tag_437\n      swap1\n      dup3\n      tag_436\n      jump\t// in\n    tag_437:\n      pop\n      0x80\n      dup3\n      add\n      mload\n      0x04\n      dup3\n      add\n      swap1\n      tag_438\n      swap1\n      dup3\n      tag_436\n      jump\t// in\n    tag_438:\n      pop\n      0xa0\n      dup3\n      add\n      mload\n      0x05\n      swap1\n      swap2\n      add\n      dup1\n      sload\n      0xc0\n      dup5\n      add\n      mload\n      0xe0\n      swap1\n      swap5\n      add\n      mload\n      iszero\n      iszero\n      0x010000\n      mul\n      not(0xff0000)\n      swap5\n      iszero\n      iszero\n      0x0100\n      mul\n      not(0xff00)\n      swap5\n      iszero\n      iszero\n      swap5\n      swap1\n      swap5\n      and\n      not(0xffff)\n      swap1\n      swap3\n      and\n      swap2\n      swap1\n      swap2\n      or\n      swap3\n      swap1\n      swap3\n      or\n      swap3\n      swap1\n      swap3\n      and\n      or\n      swap1\n      sstore\n      pop\n        /* \"smart-contracts/classroom/main/Canvassing_flattened.sol\":5720:6072  if (checkIfResearcherExists(_walletAddress)) {... */\n    tag_433:\n      sub(shl(0xa0, 0x01), 0x01)\n        /* \"smart-contracts/classroom/main/Canvassing_flattened.sol\":6082:6113  allParticipants[_walletAddress] */\n      dup7\n      dup2\n      and\n      0x00\n      swap1\n      dup2\n      mstore\n        /* \"smart-contracts/classroom/main/Canvassing_flattened.sol\":6082:6097  allParticipants */\n      0x02\n        /* \"smart-contracts/classroom/main/Canvassing_flattened.sol\":6082:6113  allParticipants[_walletAddress] */\n      0x20\n      dup2\n      dup2\n      mstore\n      0x40\n      swap3\n      dup4\n      swap1\n      keccak256\n        /* \"smart-contracts/classroom/main/Canvassing_flattened.sol\":6082:6130  allParticipants[_walletAddress] = newParticipant */\n      dup6\n      mload\n      dup2\n      sstore\n      swap1\n      dup6\n      add\n      mload\n      0x01\n      dup3\n      add\n      dup1\n      sload\n      not(sub(shl(0xa0, 0x01), 0x01))\n      and\n      swap2\n      swap1\n      swap6\n      and\n      or\n      swap1\n      swap4\n      sstore\n      swap1\n      dup4\n      add\n      mload\n      dup4\n      swap3\n        /* \"smart-contracts/classroom/main/Canvassing_flattened.sol\":6082:6113  allParticipants[_walletAddress] */\n      swap2\n        /* \"smart-contracts/classroom/main/Canvassing_flattened.sol\":6082:6130  allParticipants[_walletAddress] = newParticipant */\n      dup3\n      add\n      swap1\n      tag_439\n      swap1\n      dup3\n      tag_436\n      jump\t// in\n    tag_439:\n      pop\n      0x60\n      dup3\n      add\n      mload\n      0x03\n      dup3\n      add\n      swap1\n      tag_440\n      swap1\n      dup3\n      tag_436\n      jump\t// in\n    tag_440:\n      pop\n      0x80\n      dup3\n      add\n      mload\n      0x04\n      dup3\n      add\n      sstore\n      0xa0\n      dup3\n      add\n      mload\n      0x05\n      dup3\n      add\n      sstore\n      0xc0\n      dup3\n      add\n      mload\n      0x06\n      swap1\n      swap2\n      add\n      dup1\n      sload\n      0xe0\n      swap1\n      swap4\n      add\n      mload\n      iszero\n      iszero\n      0x0100\n      mul\n      not(0xff00)\n      swap3\n      iszero\n      iszero\n      swap3\n      swap1\n      swap3\n      and\n      not(0xffff)\n      swap1\n      swap4\n      and\n      swap3\n      swap1\n      swap3\n      or\n      or\n      swap1\n      sstore\n        /* \"smart-contracts/classroom/main/Canvassing_flattened.sol\":6141:6161  currentParticipantId */\n      0x0f\n        /* \"smart-contracts/classroom/main/Canvassing_flattened.sol\":6141:6163  currentParticipantId++ */\n      dup1\n      sload\n      swap1\n      0x00\n      tag_441\n      dup4\n      tag_296\n      jump\t// in\n    tag_441:\n      swap2\n      swap1\n      pop\n      sstore\n      pop\n        /* \"smart-contracts/classroom/main/Canvassing_flattened.sol\":5315:6170  {... */\n      pop\n      pop\n        /* \"smart-contracts/classroom/main/Canvassing_flattened.sol\":5150:6170  function createParticipant(... */\n      pop\n      pop\n      pop\n      pop\n      jump\t// out\n        /* \"smart-contracts/classroom/main/Canvassing_flattened.sol\":17415:18579  function createResearcher(... */\n    tag_119:\n        /* \"smart-contracts/classroom/main/Canvassing_flattened.sol\":17638:17657  currentResearcherId */\n      sload(0x0e)\n        /* \"smart-contracts/classroom/main/Canvassing_flattened.sol\":17668:17699  Researcher memory newResearcher */\n      tag_443\n      tag_254\n      jump\t// in\n    tag_443:\n        /* \"smart-contracts/classroom/main/Canvassing_flattened.sol\":17709:17743  newResearcher.id = newResearcherId */\n      dup2\n      dup2\n      mstore\n      sub(shl(0xa0, 0x01), 0x01)\n        /* \"smart-contracts/classroom/main/Canvassing_flattened.sol\":17753:17797  newResearcher.walletAddress = _walletAddress */\n      dup7\n      and\n        /* \"smart-contracts/classroom/main/Canvassing_flattened.sol\":17753:17780  newResearcher.walletAddress */\n      0x20\n      dup3\n      add\n        /* \"smart-contracts/classroom/main/Canvassing_flattened.sol\":17753:17797  newResearcher.walletAddress = _walletAddress */\n      mstore\n        /* \"smart-contracts/classroom/main/Canvassing_flattened.sol\":17807:17829  newResearcher.industry */\n      0x40\n      dup2\n      add\n        /* \"smart-contracts/classroom/main/Canvassing_flattened.sol\":17807:17841  newResearcher.industry = _industry */\n      dup6\n      swap1\n      mstore\n        /* \"smart-contracts/classroom/main/Canvassing_flattened.sol\":17851:17882  newResearcher.numberOfEmployees */\n      0x60\n      dup2\n      add\n        /* \"smart-contracts/classroom/main/Canvassing_flattened.sol\":17851:17903  newResearcher.numberOfEmployees = _numberOfEmployees */\n      dup5\n      swap1\n      mstore\n        /* \"smart-contracts/classroom/main/Canvassing_flattened.sol\":17913:17943  newResearcher.yearsInOperation */\n      0x80\n      dup2\n      add\n        /* \"smart-contracts/classroom/main/Canvassing_flattened.sol\":17913:17963  newResearcher.yearsInOperation = _yearsInOperation */\n      dup4\n      swap1\n      mstore\n        /* \"smart-contracts/classroom/main/Canvassing_flattened.sol\":17709:17725  newResearcher.id */\n      0x00\n        /* \"smart-contracts/classroom/main/Canvassing_flattened.sol\":17973:17997  newResearcher.isVerified */\n      0xc0\n      dup3\n      add\n        /* \"smart-contracts/classroom/main/Canvassing_flattened.sol\":17973:18005  newResearcher.isVerified = false */\n      mstore\n        /* \"smart-contracts/classroom/main/Canvassing_flattened.sol\":18077:18117  checkIfParticipantExists(_walletAddress) */\n      tag_444\n        /* \"smart-contracts/classroom/main/Canvassing_flattened.sol\":17783:17797  _walletAddress */\n      dup7\n        /* \"smart-contracts/classroom/main/Canvassing_flattened.sol\":18077:18101  checkIfParticipantExists */\n      tag_155\n        /* \"smart-contracts/classroom/main/Canvassing_flattened.sol\":18077:18117  checkIfParticipantExists(_walletAddress) */\n      jump\t// in\n    tag_444:\n        /* \"smart-contracts/classroom/main/Canvassing_flattened.sol\":18073:18485  if (checkIfParticipantExists(_walletAddress)) {... */\n      iszero\n      tag_445\n      jumpi\n        /* \"smart-contracts/classroom/main/Canvassing_flattened.sol\":18133:18187  Participant... */\n      0x00\n        /* \"smart-contracts/classroom/main/Canvassing_flattened.sol\":18190:18273  getParticipantByWalletAddress(... */\n      tag_446\n        /* \"smart-contracts/classroom/main/Canvassing_flattened.sol\":18241:18255  _walletAddress */\n      dup8\n        /* \"smart-contracts/classroom/main/Canvassing_flattened.sol\":18190:18219  getParticipantByWalletAddress */\n      tag_92\n        /* \"smart-contracts/classroom/main/Canvassing_flattened.sol\":18190:18273  getParticipantByWalletAddress(... */\n      jump\t// in\n    tag_446:\n        /* \"smart-contracts/classroom/main/Canvassing_flattened.sol\":18353:18357  true */\n      0x01\n        /* \"smart-contracts/classroom/main/Canvassing_flattened.sol\":18318:18350  existingParticipant.isResearcher */\n      0xc0\n      dup3\n      add\n        /* \"smart-contracts/classroom/main/Canvassing_flattened.sol\":18318:18357  existingParticipant.isResearcher = true */\n      dup2\n      swap1\n      mstore\n        /* \"smart-contracts/classroom/main/Canvassing_flattened.sol\":18372:18399  newResearcher.isParticipant */\n      0xa0\n      dup5\n      add\n        /* \"smart-contracts/classroom/main/Canvassing_flattened.sol\":18372:18406  newResearcher.isParticipant = true */\n      dup2\n      swap1\n      mstore\n      sub(shl(0xa0, 0x01), 0x01)\n        /* \"smart-contracts/classroom/main/Canvassing_flattened.sol\":18421:18452  allParticipants[_walletAddress] */\n      dup10\n      dup2\n      and\n        /* \"smart-contracts/classroom/main/Canvassing_flattened.sol\":18318:18357  existingParticipant.isResearcher = true */\n      0x00\n        /* \"smart-contracts/classroom/main/Canvassing_flattened.sol\":18421:18452  allParticipants[_walletAddress] */\n      swap1\n      dup2\n      mstore\n        /* \"smart-contracts/classroom/main/Canvassing_flattened.sol\":18421:18436  allParticipants */\n      0x02\n      0x20\n        /* \"smart-contracts/classroom/main/Canvassing_flattened.sol\":18421:18452  allParticipants[_walletAddress] */\n      dup2\n      dup2\n      mstore\n      0x40\n      swap3\n      dup4\n      swap1\n      keccak256\n        /* \"smart-contracts/classroom/main/Canvassing_flattened.sol\":18421:18474  allParticipants[_walletAddress] = existingParticipant */\n      dup7\n      mload\n      dup2\n      sstore\n      swap1\n      dup7\n      add\n      mload\n      swap5\n      dup2\n      add\n      dup1\n      sload\n      not(sub(shl(0xa0, 0x01), 0x01))\n      and\n      swap6\n      swap1\n      swap5\n      and\n      swap5\n      swap1\n      swap5\n      or\n      swap1\n      swap3\n      sstore\n      dup4\n      add\n      mload\n        /* \"smart-contracts/classroom/main/Canvassing_flattened.sol\":18318:18350  existingParticipant.isResearcher */\n      swap3\n      swap4\n      pop\n      dup4\n      swap3\n        /* \"smart-contracts/classroom/main/Canvassing_flattened.sol\":18421:18474  allParticipants[_walletAddress] = existingParticipant */\n      swap1\n      dup3\n      add\n      swap1\n      tag_447\n      swap1\n      dup3\n      tag_436\n      jump\t// in\n    tag_447:\n      pop\n      0x60\n      dup3\n      add\n      mload\n      0x03\n      dup3\n      add\n      swap1\n      tag_448\n      swap1\n      dup3\n      tag_436\n      jump\t// in\n    tag_448:\n      pop\n      0x80\n      dup3\n      add\n      mload\n      0x04\n      dup3\n      add\n      sstore\n      0xa0\n      dup3\n      add\n      mload\n      0x05\n      dup3\n      add\n      sstore\n      0xc0\n      dup3\n      add\n      mload\n      0x06\n      swap1\n      swap2\n      add\n      dup1\n      sload\n      0xe0\n      swap1\n      swap4\n      add\n      mload\n      iszero\n      iszero\n      0x0100\n      mul\n      not(0xff00)\n      swap3\n      iszero\n      iszero\n      swap3\n      swap1\n      swap3\n      and\n      not(0xffff)\n      swap1\n      swap4\n      and\n      swap3\n      swap1\n      swap3\n      or\n      or\n      swap1\n      sstore\n      pop\n        /* \"smart-contracts/classroom/main/Canvassing_flattened.sol\":18073:18485  if (checkIfParticipantExists(_walletAddress)) {... */\n    tag_445:\n      sub(shl(0xa0, 0x01), 0x01)\n        /* \"smart-contracts/classroom/main/Canvassing_flattened.sol\":18495:18525  allResearchers[_walletAddress] */\n      dup7\n      dup2\n      and\n      0x00\n      swap1\n      dup2\n      mstore\n        /* \"smart-contracts/classroom/main/Canvassing_flattened.sol\":18495:18509  allResearchers */\n      0x01\n        /* \"smart-contracts/classroom/main/Canvassing_flattened.sol\":18495:18525  allResearchers[_walletAddress] */\n      0x20\n      dup2\n      dup2\n      mstore\n      0x40\n      swap3\n      dup4\n      swap1\n      keccak256\n        /* \"smart-contracts/classroom/main/Canvassing_flattened.sol\":18495:18541  allResearchers[_walletAddress] = newResearcher */\n      dup6\n      mload\n      dup2\n      sstore\n      swap1\n      dup6\n      add\n      mload\n      swap2\n      dup2\n      add\n      dup1\n      sload\n      not(sub(shl(0xa0, 0x01), 0x01))\n      and\n      swap3\n      swap1\n      swap5\n      and\n      swap2\n      swap1\n      swap2\n      or\n      swap1\n      swap3\n      sstore\n      dup3\n      add\n      mload\n      dup3\n      swap2\n        /* \"smart-contracts/classroom/main/Canvassing_flattened.sol\":18495:18525  allResearchers[_walletAddress] */\n      swap1\n        /* \"smart-contracts/classroom/main/Canvassing_flattened.sol\":18495:18541  allResearchers[_walletAddress] = newResearcher */\n      0x02\n      dup3\n      add\n      swap1\n      tag_449\n      swap1\n      dup3\n      tag_436\n      jump\t// in\n    tag_449:\n      pop\n      0x60\n      dup3\n      add\n      mload\n      0x03\n      dup3\n      add\n      swap1\n      tag_450\n      swap1\n      dup3\n      tag_436\n      jump\t// in\n    tag_450:\n      pop\n      0x80\n      dup3\n      add\n      mload\n      0x04\n      dup3\n      add\n      swap1\n      tag_451\n      swap1\n      dup3\n      tag_436\n      jump\t// in\n    tag_451:\n      pop\n      0xa0\n      dup3\n      add\n      mload\n      0x05\n      swap1\n      swap2\n      add\n      dup1\n      sload\n      0xc0\n      dup5\n      add\n      mload\n      0xe0\n      swap1\n      swap5\n      add\n      mload\n      iszero\n      iszero\n      0x010000\n      mul\n      not(0xff0000)\n      swap5\n      iszero\n      iszero\n      0x0100\n      mul\n      not(0xff00)\n      swap5\n      iszero\n      iszero\n      swap5\n      swap1\n      swap5\n      and\n      not(0xffff)\n      swap1\n      swap3\n      and\n      swap2\n      swap1\n      swap2\n      or\n      swap3\n      swap1\n      swap3\n      or\n      swap3\n      swap1\n      swap3\n      and\n      or\n      swap1\n      sstore\n        /* \"smart-contracts/classroom/main/Canvassing_flattened.sol\":18551:18570  currentResearcherId */\n      0x0e\n        /* \"smart-contracts/classroom/main/Canvassing_flattened.sol\":18551:18572  currentResearcherId++ */\n      dup1\n      sload\n      swap1\n        /* \"smart-contracts/classroom/main/Canvassing_flattened.sol\":18495:18541  allResearchers[_walletAddress] = newResearcher */\n      0x00\n        /* \"smart-contracts/classroom/main/Canvassing_flattened.sol\":18551:18572  currentResearcherId++ */\n      tag_441\n      dup4\n      tag_296\n      jump\t// in\n        /* \"smart-contracts/classroom/main/Canvassing_flattened.sol\":12816:13331  function getAmountOfEarningForCanvassingForSurveyPerParticipantInWei(... */\n    tag_122:\n        /* \"smart-contracts/classroom/main/Canvassing_flattened.sol\":12978:12985  uint256 */\n      0x00\n        /* \"smart-contracts/classroom/main/Canvassing_flattened.sol\":12997:13024  Survey memory currentSurvey */\n      dup1\n        /* \"smart-contracts/classroom/main/Canvassing_flattened.sol\":13027:13037  allSurveys */\n      0x03\n        /* \"smart-contracts/classroom/main/Canvassing_flattened.sol\":13038:13047  _surveyId */\n      dup5\n        /* \"smart-contracts/classroom/main/Canvassing_flattened.sol\":13027:13048  allSurveys[_surveyId] */\n      dup2\n      sload\n      dup2\n      lt\n      tag_455\n      jumpi\n      tag_455\n      tag_285\n      jump\t// in\n    tag_455:\n      swap1\n      0x00\n      mstore\n      keccak256(0x00, 0x20)\n      swap1\n      0x07\n      mul\n      add\n        /* \"smart-contracts/classroom/main/Canvassing_flattened.sol\":12997:13048  Survey memory currentSurvey = allSurveys[_surveyId] */\n      mload(0x40)\n      dup1\n      0xe0\n      add\n      0x40\n      mstore\n      swap1\n      dup2\n      0x00\n      dup3\n      add\n      sload\n      dup2\n      mstore\n      0x20\n      add\n      0x01\n      dup3\n      add\n      0x00\n      swap1\n      sload\n      swap1\n      0x0100\n      exp\n      swap1\n      div\n      sub(shl(0xa0, 0x01), 0x01)\n      and\n      sub(shl(0xa0, 0x01), 0x01)\n      and\n      sub(shl(0xa0, 0x01), 0x01)\n      and\n      dup2\n      mstore\n      0x20\n      add\n      0x02\n      dup3\n      add\n      dup1\n      sload\n      tag_457\n      swap1\n      tag_257\n      jump\t// in\n    tag_457:\n      dup1\n      0x1f\n      add\n      0x20\n      dup1\n      swap2\n      div\n      mul\n      0x20\n      add\n      mload(0x40)\n      swap1\n      dup2\n      add\n      0x40\n      mstore\n      dup1\n      swap3\n      swap2\n      swap1\n      dup2\n      dup2\n      mstore\n      0x20\n      add\n      dup3\n      dup1\n      sload\n      tag_458\n      swap1\n      tag_257\n      jump\t// in\n    tag_458:\n      dup1\n      iszero\n      tag_459\n      jumpi\n      dup1\n      0x1f\n      lt\n      tag_460\n      jumpi\n      0x0100\n      dup1\n      dup4\n      sload\n      div\n      mul\n      dup4\n      mstore\n      swap2\n      0x20\n      add\n      swap2\n      jump(tag_459)\n    tag_460:\n      dup3\n      add\n      swap2\n      swap1\n      0x00\n      mstore\n      keccak256(0x00, 0x20)\n      swap1\n    tag_461:\n      dup2\n      sload\n      dup2\n      mstore\n      swap1\n      0x01\n      add\n      swap1\n      0x20\n      add\n      dup1\n      dup4\n      gt\n      tag_461\n      jumpi\n      dup3\n      swap1\n      sub\n      0x1f\n      and\n      dup3\n      add\n      swap2\n    tag_459:\n      pop\n      pop\n      pop\n      swap2\n      dup4\n      mstore\n      pop\n      pop\n      0x03\n      dup3\n      add\n      sload\n      0x20\n      dup3\n      add\n      mstore\n      0x04\n      dup3\n      add\n      sload\n      0x40\n      dup3\n      add\n      mstore\n      0x05\n      dup1\n      dup4\n      add\n      sload\n      0x60\n      dup4\n      add\n      mstore\n      0x06\n      swap1\n      swap3\n      add\n      sload\n      0xff\n      and\n      iszero\n      iszero\n      0x80\n      swap1\n      swap2\n      add\n      mstore\n        /* \"smart-contracts/classroom/main/Canvassing_flattened.sol\":13095:13126  currentSurvey.amountFundedInWei */\n      0xa0\n      dup3\n      add\n      mload\n        /* \"smart-contracts/classroom/main/Canvassing_flattened.sol\":12997:13048  Survey memory currentSurvey = allSurveys[_surveyId] */\n      swap2\n      swap3\n      pop\n      0x00\n      swap1\n        /* \"smart-contracts/classroom/main/Canvassing_flattened.sol\":13245:13266  _numberOfParticipants */\n      dup6\n      swap1\n        /* \"smart-contracts/classroom/main/Canvassing_flattened.sol\":13239:13241  10 */\n      0x0a\n      swap1\n        /* \"smart-contracts/classroom/main/Canvassing_flattened.sol\":13189:13235  amountFundedInWeiForSurvey *... */\n      tag_462\n      swap1\n        /* \"smart-contracts/classroom/main/Canvassing_flattened.sol\":13095:13126  currentSurvey.amountFundedInWei */\n      dup6\n      swap1\n        /* \"smart-contracts/classroom/main/Canvassing_flattened.sol\":13189:13235  amountFundedInWeiForSurvey *... */\n      tag_241\n      jump\t// in\n    tag_462:\n        /* \"smart-contracts/classroom/main/Canvassing_flattened.sol\":13188:13241  (amountFundedInWeiForSurvey *... */\n      tag_463\n      swap2\n      swap1\n      tag_329\n      jump\t// in\n    tag_463:\n        /* \"smart-contracts/classroom/main/Canvassing_flattened.sol\":13187:13266  ((amountFundedInWeiForSurvey *... */\n      tag_464\n      swap2\n      swap1\n      tag_329\n      jump\t// in\n    tag_464:\n        /* \"smart-contracts/classroom/main/Canvassing_flattened.sol\":13136:13266  uint256 canvassingShareAmountPerParticipantInWei = ((amountFundedInWeiForSurvey *... */\n      swap7\n        /* \"smart-contracts/classroom/main/Canvassing_flattened.sol\":12816:13331  function getAmountOfEarningForCanvassingForSurveyPerParticipantInWei(... */\n      swap6\n      pop\n      pop\n      pop\n      pop\n      pop\n      pop\n      jump\t// out\n        /* \"smart-contracts/classroom/main/Canvassing_flattened.sol\":3206:3260  mapping(address => Participant) public allParticipants */\n    tag_134:\n      0x02\n      0x20\n      dup2\n      swap1\n      mstore\n      0x00\n      swap2\n      dup3\n      mstore\n      0x40\n      swap1\n      swap2\n      keccak256\n      dup1\n      sload\n      0x01\n      dup3\n      add\n      sload\n      swap3\n      dup3\n      add\n      dup1\n      sload\n      swap2\n      swap4\n      sub(shl(0xa0, 0x01), 0x01)\n      and\n      swap3\n      swap2\n      tag_301\n      swap1\n      tag_257\n      jump\t// in\n        /* \"smart-contracts/classroom/main/Canvassing_flattened.sol\":21592:23707  function createSurvey(... */\n    tag_143:\n        /* \"smart-contracts/classroom/main/Canvassing_flattened.sol\":21914:21929  currentSurveyId */\n      sload(0x10)\n        /* \"smart-contracts/classroom/main/Canvassing_flattened.sol\":21873:21880  uint256 */\n      0x00\n      swap1\n        /* \"smart-contracts/classroom/main/Canvassing_flattened.sol\":21974:21997  Survey memory newSurvey */\n      tag_477\n      tag_279\n      jump\t// in\n    tag_477:\n        /* \"smart-contracts/classroom/main/Canvassing_flattened.sol\":22007:22033  newSurvey.id = newSurveyId */\n      dup2\n      dup2\n      mstore\n      sub(shl(0xa0, 0x01), 0x01)\n        /* \"smart-contracts/classroom/main/Canvassing_flattened.sol\":22043:22111  newSurvey.creatingResearcherWalletAddress = _researcherWalletAddress */\n      dup10\n      and\n        /* \"smart-contracts/classroom/main/Canvassing_flattened.sol\":22043:22084  newSurvey.creatingResearcherWalletAddress */\n      0x20\n      dup3\n      add\n        /* \"smart-contracts/classroom/main/Canvassing_flattened.sol\":22043:22111  newSurvey.creatingResearcherWalletAddress = _researcherWalletAddress */\n      mstore\n        /* \"smart-contracts/classroom/main/Canvassing_flattened.sol\":22121:22136  newSurvey.topic */\n      0x40\n      dup2\n      add\n        /* \"smart-contracts/classroom/main/Canvassing_flattened.sol\":22121:22145  newSurvey.topic = _topic */\n      dup9\n      swap1\n      mstore\n        /* \"smart-contracts/classroom/main/Canvassing_flattened.sol\":22155:22182  newSurvey.numberOfQuestions */\n      0x60\n      dup2\n      add\n        /* \"smart-contracts/classroom/main/Canvassing_flattened.sol\":22155:22203  newSurvey.numberOfQuestions = _numberOfQuestions */\n      dup8\n      swap1\n      mstore\n        /* \"smart-contracts/classroom/main/Canvassing_flattened.sol\":22213:22249  newSurvey.targetNumberOfParticipants */\n      0x80\n      dup2\n      add\n        /* \"smart-contracts/classroom/main/Canvassing_flattened.sol\":22213:22279  newSurvey.targetNumberOfParticipants = _targetNumberOfParticipants */\n      dup7\n      swap1\n      mstore\n        /* \"smart-contracts/classroom/main/Canvassing_flattened.sol\":22357:22374  cUSDDecimalPlaces */\n      sload(0x16)\n        /* \"smart-contracts/classroom/main/Canvassing_flattened.sol\":22320:22374  _amountFundedForSurvey *... */\n      tag_478\n      swap1\n        /* \"smart-contracts/classroom/main/Canvassing_flattened.sol\":22320:22342  _amountFundedForSurvey */\n      dup6\n        /* \"smart-contracts/classroom/main/Canvassing_flattened.sol\":22320:22374  _amountFundedForSurvey *... */\n      tag_241\n      jump\t// in\n    tag_478:\n        /* \"smart-contracts/classroom/main/Canvassing_flattened.sol\":22289:22316  newSurvey.amountFundedInWei */\n      0xa0\n      dup3\n      add\n        /* \"smart-contracts/classroom/main/Canvassing_flattened.sol\":22289:22375  newSurvey.amountFundedInWei = (_amountFundedForSurvey *... */\n      mstore\n        /* \"smart-contracts/classroom/main/Canvassing_flattened.sol\":22385:22395  allSurveys */\n      0x03\n        /* \"smart-contracts/classroom/main/Canvassing_flattened.sol\":22385:22411  allSurveys.push(newSurvey) */\n      dup1\n      sload\n      0x01\n      dup2\n      add\n      dup3\n      sstore\n      0x00\n      swap2\n      swap1\n      swap2\n      mstore\n      dup2\n      mload\n      0xc2575a0e9e593c00f959f8c92f12db2869c3395a3b0502d05e2516446f71f85b\n      0x07\n      swap1\n      swap3\n      mul\n      swap2\n      dup3\n      add\n      swap1\n      dup2\n      sstore\n      0x20\n      dup4\n      add\n      mload\n      0xc2575a0e9e593c00f959f8c92f12db2869c3395a3b0502d05e2516446f71f85c\n      dup4\n      add\n      dup1\n      sload\n      not(sub(shl(0xa0, 0x01), 0x01))\n      and\n      sub(shl(0xa0, 0x01), 0x01)\n      swap1\n      swap3\n      and\n      swap2\n      swap1\n      swap2\n      or\n      swap1\n      sstore\n      0x40\n      dup4\n      add\n      mload\n        /* \"smart-contracts/classroom/main/Canvassing_flattened.sol\":22289:22316  newSurvey.amountFundedInWei */\n      dup4\n      swap3\n        /* \"smart-contracts/classroom/main/Canvassing_flattened.sol\":22385:22411  allSurveys.push(newSurvey) */\n      0xc2575a0e9e593c00f959f8c92f12db2869c3395a3b0502d05e2516446f71f85d\n      add\n      swap1\n      tag_480\n      swap1\n      dup3\n      tag_436\n      jump\t// in\n    tag_480:\n      pop\n      0x60\n      dup3\n      add\n      mload\n      0x03\n      dup3\n      add\n      sstore\n      0x80\n      dup3\n      add\n      mload\n      0x04\n      dup3\n      add\n      sstore\n      0xa0\n      dup3\n      add\n      mload\n      0x05\n      dup3\n      add\n      sstore\n      0xc0\n      swap1\n      swap2\n      add\n      mload\n      0x06\n      swap1\n      swap2\n      add\n      dup1\n      sload\n      not(0xff)\n      and\n      swap2\n      iszero\n      iszero\n      swap2\n      swap1\n      swap2\n      or\n      swap1\n      sstore\n        /* \"smart-contracts/classroom/main/Canvassing_flattened.sol\":22511:22523  newSurvey.id */\n      dup1\n      mload\n      sub(shl(0xa0, 0x01), 0x01)\n        /* \"smart-contracts/classroom/main/Canvassing_flattened.sol\":22422:22508  idsOfLatestSurveysCreatedByResearchers[... */\n      dup11\n      and\n      0x00\n      swap1\n      dup2\n      mstore\n        /* \"smart-contracts/classroom/main/Canvassing_flattened.sol\":22422:22460  idsOfLatestSurveysCreatedByResearchers */\n      0x0a\n        /* \"smart-contracts/classroom/main/Canvassing_flattened.sol\":22422:22508  idsOfLatestSurveysCreatedByResearchers[... */\n      0x20\n      swap1\n      dup2\n      mstore\n      0x40\n      dup1\n      dup4\n      keccak256\n        /* \"smart-contracts/classroom/main/Canvassing_flattened.sol\":22422:22523  idsOfLatestSurveysCreatedByResearchers[... */\n      swap4\n      swap1\n      swap4\n      sstore\n        /* \"smart-contracts/classroom/main/Canvassing_flattened.sol\":22590:22630  totalNumberOfSurveysCreatedByResearchers */\n      0x08\n        /* \"smart-contracts/classroom/main/Canvassing_flattened.sol\":22590:22686  totalNumberOfSurveysCreatedByResearchers[... */\n      swap1\n      mstore\n      swap1\n      dup2\n      keccak256\n      sload\n      swap1\n        /* \"smart-contracts/classroom/main/Canvassing_flattened.sol\":22753:22819  currentTotalNumberOfSurveysCreatedByResearcher +... */\n      tag_481\n        /* \"smart-contracts/classroom/main/Canvassing_flattened.sol\":22590:22686  totalNumberOfSurveysCreatedByResearchers[... */\n      dup3\n      0x01\n        /* \"smart-contracts/classroom/main/Canvassing_flattened.sol\":22753:22819  currentTotalNumberOfSurveysCreatedByResearcher +... */\n      tag_243\n      jump\t// in\n    tag_481:\n      sub(shl(0xa0, 0x01), 0x01)\n        /* \"smart-contracts/classroom/main/Canvassing_flattened.sol\":22830:22918  totalNumberOfSurveysCreatedByResearchers[... */\n      dup13\n      and\n      0x00\n      swap1\n      dup2\n      mstore\n        /* \"smart-contracts/classroom/main/Canvassing_flattened.sol\":22830:22870  totalNumberOfSurveysCreatedByResearchers */\n      0x08\n        /* \"smart-contracts/classroom/main/Canvassing_flattened.sol\":22830:22918  totalNumberOfSurveysCreatedByResearchers[... */\n      0x20\n      mstore\n      0x40\n      dup2\n      keccak256\n        /* \"smart-contracts/classroom/main/Canvassing_flattened.sol\":22830:22966  totalNumberOfSurveysCreatedByResearchers[... */\n      dup3\n      swap1\n      sstore\n        /* \"smart-contracts/classroom/main/Canvassing_flattened.sol\":22697:22819  uint256 newestTotalNumberOfSurveysCreatedByResearcher = currentTotalNumberOfSurveysCreatedByResearcher +... */\n      swap1\n      swap2\n      pop\n        /* \"smart-contracts/classroom/main/Canvassing_flattened.sol\":23041:23592  for (... */\n    tag_482:\n        /* \"smart-contracts/classroom/main/Canvassing_flattened.sol\":23114:23132  _numberOfQuestions */\n      dup10\n        /* \"smart-contracts/classroom/main/Canvassing_flattened.sol\":23098:23111  questionIndex */\n      dup2\n        /* \"smart-contracts/classroom/main/Canvassing_flattened.sol\":23098:23132  questionIndex < _numberOfQuestions */\n      lt\n        /* \"smart-contracts/classroom/main/Canvassing_flattened.sol\":23041:23592  for (... */\n      iszero\n      tag_483\n      jumpi\n        /* \"smart-contracts/classroom/main/Canvassing_flattened.sol\":23210:23227  currentQuestionId */\n      sload(0x11)\n      0x40\n      dup1\n      mload\n      0x80\n      dup2\n      add\n      dup3\n      mstore\n      0x00\n      0x20\n      dup3\n      add\n      dup2\n      dup2\n      mstore\n      0x60\n      swap4\n      dup4\n      add\n      dup5\n      swap1\n      mstore\n      swap3\n      dup3\n      add\n      mstore\n        /* \"smart-contracts/classroom/main/Canvassing_flattened.sol\":23283:23313  newQuestion.id = newQuestionId */\n      dup3\n      dup2\n      mstore\n        /* \"smart-contracts/classroom/main/Canvassing_flattened.sol\":23350:23362  newSurvey.id */\n      dup7\n      mload\n        /* \"smart-contracts/classroom/main/Canvassing_flattened.sol\":23327:23362  newQuestion.surveyId = newSurvey.id */\n      swap1\n      swap2\n      mstore\n        /* \"smart-contracts/classroom/main/Canvassing_flattened.sol\":23399:23432  _questionSentences[questionIndex] */\n      dup10\n      mload\n      dup11\n      swap1\n        /* \"smart-contracts/classroom/main/Canvassing_flattened.sol\":23418:23431  questionIndex */\n      dup5\n      swap1\n        /* \"smart-contracts/classroom/main/Canvassing_flattened.sol\":23399:23432  _questionSentences[questionIndex] */\n      dup2\n      lt\n      tag_488\n      jumpi\n      tag_488\n      tag_285\n      jump\t// in\n    tag_488:\n      0x20\n      swap1\n      dup2\n      mul\n      swap2\n      swap1\n      swap2\n      add\n      dup2\n      add\n      mload\n        /* \"smart-contracts/classroom/main/Canvassing_flattened.sol\":23376:23396  newQuestion.sentence */\n      0x40\n      dup1\n      dup5\n      add\n        /* \"smart-contracts/classroom/main/Canvassing_flattened.sol\":23376:23432  newQuestion.sentence = _questionSentences[questionIndex] */\n      swap2\n      dup3\n      mstore\n        /* \"smart-contracts/classroom/main/Canvassing_flattened.sol\":23459:23471  newSurvey.id */\n      dup9\n      mload\n        /* \"smart-contracts/classroom/main/Canvassing_flattened.sol\":23446:23472  allQuestions[newSurvey.id] */\n      0x00\n      swap1\n      dup2\n      mstore\n        /* \"smart-contracts/classroom/main/Canvassing_flattened.sol\":23446:23458  allQuestions */\n      0x04\n        /* \"smart-contracts/classroom/main/Canvassing_flattened.sol\":23446:23472  allQuestions[newSurvey.id] */\n      dup1\n      dup6\n      mstore\n      swap2\n      dup2\n      keccak256\n        /* \"smart-contracts/classroom/main/Canvassing_flattened.sol\":23446:23490  allQuestions[newSurvey.id].push(newQuestion) */\n      dup1\n      sload\n      0x01\n      dup2\n      dup2\n      add\n      dup4\n      sstore\n      swap2\n      dup4\n      mstore\n      swap2\n      dup6\n      swap1\n      keccak256\n      dup7\n      mload\n      swap3\n      swap1\n      swap4\n      mul\n      swap1\n      swap3\n      add\n      swap1\n      dup2\n      sstore\n      swap3\n      dup5\n      add\n      mload\n      swap1\n      dup4\n      add\n      sstore\n      mload\n        /* \"smart-contracts/classroom/main/Canvassing_flattened.sol\":23376:23387  newQuestion */\n      dup3\n      swap2\n        /* \"smart-contracts/classroom/main/Canvassing_flattened.sol\":23446:23490  allQuestions[newSurvey.id].push(newQuestion) */\n      swap1\n      0x02\n      dup3\n      add\n      swap1\n      tag_490\n      swap1\n      dup3\n      tag_436\n      jump\t// in\n    tag_490:\n      pop\n      0x60\n      swap2\n      swap1\n      swap2\n      add\n      mload\n      0x03\n      swap1\n      swap2\n      add\n      dup1\n      sload\n      not(0xff)\n      and\n      swap2\n      iszero\n      iszero\n      swap2\n      swap1\n      swap2\n      or\n      swap1\n      sstore\n        /* \"smart-contracts/classroom/main/Canvassing_flattened.sol\":23562:23579  currentQuestionId */\n      0x11\n        /* \"smart-contracts/classroom/main/Canvassing_flattened.sol\":23562:23581  currentQuestionId++ */\n      dup1\n      sload\n      swap1\n      0x00\n      tag_491\n      dup4\n      tag_296\n      jump\t// in\n    tag_491:\n      swap2\n      swap1\n      pop\n      sstore\n      pop\n        /* \"smart-contracts/classroom/main/Canvassing_flattened.sol\":23172:23592  {... */\n      pop\n      pop\n        /* \"smart-contracts/classroom/main/Canvassing_flattened.sol\":23146:23161  questionIndex++ */\n      dup1\n      dup1\n      tag_492\n      swap1\n      tag_296\n      jump\t// in\n    tag_492:\n      swap2\n      pop\n      pop\n        /* \"smart-contracts/classroom/main/Canvassing_flattened.sol\":23041:23592  for (... */\n      jump(tag_482)\n    tag_483:\n      pop\n        /* \"smart-contracts/classroom/main/Canvassing_flattened.sol\":23653:23668  currentSurveyId */\n      0x10\n        /* \"smart-contracts/classroom/main/Canvassing_flattened.sol\":23653:23670  currentSurveyId++ */\n      dup1\n      sload\n      swap1\n        /* \"smart-contracts/classroom/main/Canvassing_flattened.sol\":23653:23668  currentSurveyId */\n      0x00\n        /* \"smart-contracts/classroom/main/Canvassing_flattened.sol\":23653:23670  currentSurveyId++ */\n      tag_493\n      dup4\n      tag_296\n      jump\t// in\n    tag_493:\n      swap1\n      swap2\n      sstore\n      pop\n      pop\n        /* \"smart-contracts/classroom/main/Canvassing_flattened.sol\":23688:23700  newSurvey.id */\n      swap2\n      mload\n      swap11\n        /* \"smart-contracts/classroom/main/Canvassing_flattened.sol\":21592:23707  function createSurvey(... */\n      swap10\n      pop\n      pop\n      pop\n      pop\n      pop\n      pop\n      pop\n      pop\n      pop\n      pop\n      jump\t// out\n        /* \"smart-contracts/classroom/main/Canvassing_flattened.sol\":3414:3460  mapping(uint256 => Answer[]) public allAnswers */\n    tag_147:\n      mstore(0x20, 0x05)\n      dup2\n      0x00\n      mstore\n      keccak256(0x00, 0x40)\n      dup2\n      dup2\n      sload\n      dup2\n      lt\n      tag_494\n      jumpi\n      0x00\n      dup1\n      revert\n    tag_494:\n      0x00\n      swap2\n      dup3\n      mstore\n      0x20\n      swap1\n      swap2\n      keccak256\n      0x04\n      swap1\n      swap2\n      mul\n      add\n      dup1\n      sload\n      0x01\n      dup3\n      add\n      sload\n      0x02\n      dup4\n      add\n      sload\n      0x03\n      swap1\n      swap4\n      add\n      sload\n      swap2\n      swap5\n      pop\n      swap3\n      pop\n      sub(shl(0xa0, 0x01), 0x01)\n      dup2\n      and\n      swap1\n      0xff\n      shl(0xa0, 0x01)\n      dup3\n      div\n      dup2\n      and\n      swap2\n      shl(0xa8, 0x01)\n      swap1\n      div\n      and\n      dup7\n      jump\t// out\n        /* \"smart-contracts/classroom/main/Canvassing_flattened.sol\":15015:16956  function makePayoutAndCreateEarning(... */\n    tag_152:\n        /* \"smart-contracts/classroom/main/Canvassing_flattened.sol\":15144:15171  Survey memory currentSurvey */\n      0x00\n        /* \"smart-contracts/classroom/main/Canvassing_flattened.sol\":15174:15184  allSurveys */\n      0x03\n        /* \"smart-contracts/classroom/main/Canvassing_flattened.sol\":15185:15194  _surveyId */\n      dup4\n        /* \"smart-contracts/classroom/main/Canvassing_flattened.sol\":15174:15195  allSurveys[_surveyId] */\n      dup2\n      sload\n      dup2\n      lt\n      tag_498\n      jumpi\n      tag_498\n      tag_285\n      jump\t// in\n    tag_498:\n      swap1\n      0x00\n      mstore\n      keccak256(0x00, 0x20)\n      swap1\n      0x07\n      mul\n      add\n        /* \"smart-contracts/classroom/main/Canvassing_flattened.sol\":15144:15195  Survey memory currentSurvey = allSurveys[_surveyId] */\n      mload(0x40)\n      dup1\n      0xe0\n      add\n      0x40\n      mstore\n      swap1\n      dup2\n      0x00\n      dup3\n      add\n      sload\n      dup2\n      mstore\n      0x20\n      add\n      0x01\n      dup3\n      add\n      0x00\n      swap1\n      sload\n      swap1\n      0x0100\n      exp\n      swap1\n      div\n      sub(shl(0xa0, 0x01), 0x01)\n      and\n      sub(shl(0xa0, 0x01), 0x01)\n      and\n      sub(shl(0xa0, 0x01), 0x01)\n      and\n      dup2\n      mstore\n      0x20\n      add\n      0x02\n      dup3\n      add\n      dup1\n      sload\n      tag_500\n      swap1\n      tag_257\n      jump\t// in\n    tag_500:\n      dup1\n      0x1f\n      add\n      0x20\n      dup1\n      swap2\n      div\n      mul\n      0x20\n      add\n      mload(0x40)\n      swap1\n      dup2\n      add\n      0x40\n      mstore\n      dup1\n      swap3\n      swap2\n      swap1\n      dup2\n      dup2\n      mstore\n      0x20\n      add\n      dup3\n      dup1\n      sload\n      tag_501\n      swap1\n      tag_257\n      jump\t// in\n    tag_501:\n      dup1\n      iszero\n      tag_502\n      jumpi\n      dup1\n      0x1f\n      lt\n      tag_503\n      jumpi\n      0x0100\n      dup1\n      dup4\n      sload\n      div\n      mul\n      dup4\n      mstore\n      swap2\n      0x20\n      add\n      swap2\n      jump(tag_502)\n    tag_503:\n      dup3\n      add\n      swap2\n      swap1\n      0x00\n      mstore\n      keccak256(0x00, 0x20)\n      swap1\n    tag_504:\n      dup2\n      sload\n      dup2\n      mstore\n      swap1\n      0x01\n      add\n      swap1\n      0x20\n      add\n      dup1\n      dup4\n      gt\n      tag_504\n      jumpi\n      dup3\n      swap1\n      sub\n      0x1f\n      and\n      dup3\n      add\n      swap2\n    tag_502:\n      pop\n      pop\n      pop\n      swap2\n      dup4\n      mstore\n      pop\n      pop\n      0x03\n      dup3\n      add\n      sload\n      0x20\n      dup3\n      add\n      mstore\n      0x04\n      dup3\n      add\n      sload\n      0x40\n      dup3\n      add\n      mstore\n      0x05\n      dup3\n      add\n      sload\n      0x60\n      dup3\n      add\n      mstore\n      0x06\n      swap1\n      swap2\n      add\n      sload\n      0xff\n      and\n      iszero\n      iszero\n      0x80\n      swap1\n      swap2\n      add\n      mstore\n      swap1\n      pop\n      0x00\n        /* \"smart-contracts/classroom/main/Canvassing_flattened.sol\":15293:15380  getAmountOfEarningPerParticipantForSurveyInWei(... */\n      tag_505\n        /* \"smart-contracts/classroom/main/Canvassing_flattened.sol\":15357:15366  _surveyId */\n      dup5\n        /* \"smart-contracts/classroom/main/Canvassing_flattened.sol\":15293:15339  getAmountOfEarningPerParticipantForSurveyInWei */\n      tag_82\n        /* \"smart-contracts/classroom/main/Canvassing_flattened.sol\":15293:15380  getAmountOfEarningPerParticipantForSurveyInWei(... */\n      jump\t// in\n    tag_505:\n        /* \"smart-contracts/classroom/main/Canvassing_flattened.sol\":15391:15395  cUSD */\n      sload(0x15)\n        /* \"smart-contracts/classroom/main/Canvassing_flattened.sol\":15391:15502  cUSD.transfer(... */\n      mload(0x40)\n      shl(0xe0, 0xa9059cbb)\n      dup2\n      mstore\n      sub(shl(0xa0, 0x01), 0x01)\n        /* \"#utility.yul\":24364:24396   */\n      dup7\n      dup2\n      and\n        /* \"smart-contracts/classroom/main/Canvassing_flattened.sol\":15391:15502  cUSD.transfer(... */\n      0x04\n      dup4\n      add\n        /* \"#utility.yul\":24346:24397   */\n      mstore\n        /* \"#utility.yul\":24413:24431   */\n      0x24\n      dup3\n      add\n        /* \"#utility.yul\":24406:24440   */\n      dup5\n      swap1\n      mstore\n        /* \"smart-contracts/classroom/main/Canvassing_flattened.sol\":15247:15380  uint256 amountToBePaidOutToParticipantInWei = getAmountOfEarningPerParticipantForSurveyInWei(... */\n      swap3\n      swap4\n      pop\n        /* \"smart-contracts/classroom/main/Canvassing_flattened.sol\":15391:15395  cUSD */\n      swap2\n      and\n      swap1\n        /* \"smart-contracts/classroom/main/Canvassing_flattened.sol\":15391:15404  cUSD.transfer */\n      0xa9059cbb\n      swap1\n        /* \"#utility.yul\":24319:24337   */\n      0x44\n      add\n        /* \"smart-contracts/classroom/main/Canvassing_flattened.sol\":15391:15502  cUSD.transfer(... */\n      0x20\n      mload(0x40)\n      dup1\n      dup4\n      sub\n      dup2\n      0x00\n      dup8\n      gas\n      call\n      iszero\n      dup1\n      iszero\n      tag_509\n      jumpi\n      returndatasize\n      0x00\n      dup1\n      returndatacopy\n      revert(0x00, returndatasize)\n    tag_509:\n      pop\n      pop\n      pop\n      pop\n      mload(0x40)\n      returndatasize\n      not(0x1f)\n      0x1f\n      dup3\n      add\n      and\n      dup3\n      add\n      dup1\n      0x40\n      mstore\n      pop\n      dup2\n      add\n      swap1\n      tag_510\n      swap2\n      swap1\n      tag_511\n      jump\t// in\n    tag_510:\n      pop\n        /* \"smart-contracts/classroom/main/Canvassing_flattened.sol\":15574:15616  uint256 amountToBePaidOutToCanvassingInWei */\n      0x00\n        /* \"smart-contracts/classroom/main/Canvassing_flattened.sol\":15619:15777  getAmountOfEarningForCanvassingForSurveyPerParticipantInWei(... */\n      tag_512\n        /* \"smart-contracts/classroom/main/Canvassing_flattened.sol\":15696:15705  _surveyId */\n      dup6\n        /* \"smart-contracts/classroom/main/Canvassing_flattened.sol\":15723:15736  currentSurvey */\n      dup5\n        /* \"smart-contracts/classroom/main/Canvassing_flattened.sol\":15723:15763  currentSurvey.targetNumberOfParticipants */\n      0x80\n      add\n      mload\n        /* \"smart-contracts/classroom/main/Canvassing_flattened.sol\":15619:15678  getAmountOfEarningForCanvassingForSurveyPerParticipantInWei */\n      tag_122\n        /* \"smart-contracts/classroom/main/Canvassing_flattened.sol\":15619:15777  getAmountOfEarningForCanvassingForSurveyPerParticipantInWei(... */\n      jump\t// in\n    tag_512:\n        /* \"smart-contracts/classroom/main/Canvassing_flattened.sol\":15788:15792  cUSD */\n      sload(0x15)\n      0x00\n        /* \"smart-contracts/classroom/main/Canvassing_flattened.sol\":15815:15838  canvassingWalletAddress */\n      sload\n        /* \"smart-contracts/classroom/main/Canvassing_flattened.sol\":15788:15896  cUSD.transfer(... */\n      mload(0x40)\n      shl(0xe0, 0xa9059cbb)\n      dup2\n      mstore\n      sub(shl(0xa0, 0x01), 0x01)\n        /* \"smart-contracts/classroom/main/Canvassing_flattened.sol\":15815:15838  canvassingWalletAddress */\n      swap2\n      dup3\n      and\n        /* \"smart-contracts/classroom/main/Canvassing_flattened.sol\":15788:15896  cUSD.transfer(... */\n      0x04\n      dup3\n      add\n        /* \"#utility.yul\":24346:24397   */\n      mstore\n        /* \"#utility.yul\":24413:24431   */\n      0x24\n      dup2\n      add\n        /* \"#utility.yul\":24406:24440   */\n      dup5\n      swap1\n      mstore\n        /* \"smart-contracts/classroom/main/Canvassing_flattened.sol\":15574:15777  uint256 amountToBePaidOutToCanvassingInWei = getAmountOfEarningForCanvassingForSurveyPerParticipantInWei(... */\n      swap3\n      swap4\n      pop\n        /* \"smart-contracts/classroom/main/Canvassing_flattened.sol\":15788:15792  cUSD */\n      and\n      swap1\n        /* \"smart-contracts/classroom/main/Canvassing_flattened.sol\":15788:15801  cUSD.transfer */\n      0xa9059cbb\n      swap1\n        /* \"#utility.yul\":24319:24337   */\n      0x44\n      add\n        /* \"smart-contracts/classroom/main/Canvassing_flattened.sol\":15788:15896  cUSD.transfer(... */\n      0x20\n      mload(0x40)\n      dup1\n      dup4\n      sub\n      dup2\n      0x00\n      dup8\n      gas\n      call\n      iszero\n      dup1\n      iszero\n      tag_515\n      jumpi\n      returndatasize\n      0x00\n      dup1\n      returndatacopy\n      revert(0x00, returndatasize)\n    tag_515:\n      pop\n      pop\n      pop\n      pop\n      mload(0x40)\n      returndatasize\n      not(0x1f)\n      0x1f\n      dup3\n      add\n      and\n      dup3\n      add\n      dup1\n      0x40\n      mstore\n      pop\n      dup2\n      add\n      swap1\n      tag_516\n      swap2\n      swap1\n      tag_511\n      jump\t// in\n    tag_516:\n      pop\n        /* \"smart-contracts/classroom/main/Canvassing_flattened.sol\":15958:15994  Earning memory newParticipantEarning */\n      tag_517\n      tag_379\n      jump\t// in\n    tag_517:\n        /* \"smart-contracts/classroom/main/Canvassing_flattened.sol\":16031:16047  currentEarningId */\n      0x13\n      dup1\n      sload\n        /* \"smart-contracts/classroom/main/Canvassing_flattened.sol\":16004:16047  newParticipantEarning.id = currentEarningId */\n      dup3\n      mstore\n        /* \"smart-contracts/classroom/main/Canvassing_flattened.sol\":16057:16087  newParticipantEarning.surveyId */\n      0x20\n      dup3\n      add\n        /* \"smart-contracts/classroom/main/Canvassing_flattened.sol\":16057:16099  newParticipantEarning.surveyId = _surveyId */\n      dup8\n      dup2\n      mstore\n      sub(shl(0xa0, 0x01), 0x01)\n        /* \"smart-contracts/classroom/main/Canvassing_flattened.sol\":16109:16194  newParticipantEarning... */\n      dup8\n      dup2\n      and\n        /* \"smart-contracts/classroom/main/Canvassing_flattened.sol\":16109:16166  newParticipantEarning... */\n      0x40\n      dup6\n      add\n        /* \"smart-contracts/classroom/main/Canvassing_flattened.sol\":16109:16194  newParticipantEarning... */\n      swap1\n      dup2\n      mstore\n        /* \"smart-contracts/classroom/main/Canvassing_flattened.sol\":16204:16257  newParticipantEarning... */\n      0x60\n      dup6\n      add\n        /* \"smart-contracts/classroom/main/Canvassing_flattened.sol\":16204:16295  newParticipantEarning... */\n      dup8\n      dup2\n      mstore\n        /* \"smart-contracts/classroom/main/Canvassing_flattened.sol\":16305:16316  allEarnings */\n      0x0d\n        /* \"smart-contracts/classroom/main/Canvassing_flattened.sol\":16305:16344  allEarnings.push(newParticipantEarning) */\n      dup1\n      sload\n      0x01\n      dup2\n      add\n      dup3\n      sstore\n      0x00\n      swap2\n      dup3\n      mstore\n      dup8\n      mload\n      0xd7b6990105719101dabeb77144f2a3385c8033acd3af97e9423a695e81ad1eb5\n      0x05\n      swap1\n      swap3\n      mul\n      swap2\n      dup3\n      add\n      sstore\n      swap5\n      mload\n      0xd7b6990105719101dabeb77144f2a3385c8033acd3af97e9423a695e81ad1eb6\n      dup7\n      add\n      sstore\n      swap2\n      mload\n      0xd7b6990105719101dabeb77144f2a3385c8033acd3af97e9423a695e81ad1eb7\n      dup6\n      add\n      dup1\n      sload\n      not(sub(shl(0xa0, 0x01), 0x01))\n      and\n      swap2\n      swap1\n      swap5\n      and\n      or\n      swap1\n      swap3\n      sstore\n      swap1\n      mload\n      0xd7b6990105719101dabeb77144f2a3385c8033acd3af97e9423a695e81ad1eb8\n      dup4\n      add\n      sstore\n      0x80\n      dup5\n      add\n      mload\n      0xd7b6990105719101dabeb77144f2a3385c8033acd3af97e9423a695e81ad1eb9\n      swap1\n      swap3\n      add\n      dup1\n      sload\n      not(0xff)\n      and\n      swap3\n      iszero\n      iszero\n      swap3\n      swap1\n      swap3\n      or\n      swap1\n      swap2\n      sstore\n        /* \"smart-contracts/classroom/main/Canvassing_flattened.sol\":16354:16372  currentEarningId++ */\n      dup2\n      sload\n      swap2\n        /* \"smart-contracts/classroom/main/Canvassing_flattened.sol\":16031:16047  currentEarningId */\n      swap1\n        /* \"smart-contracts/classroom/main/Canvassing_flattened.sol\":16354:16372  currentEarningId++ */\n      tag_519\n      dup4\n      tag_296\n      jump\t// in\n    tag_519:\n      swap1\n      swap2\n      sstore\n      pop\n      pop\n        /* \"smart-contracts/classroom/main/Canvassing_flattened.sol\":16382:16427  payoutStatusOfParticipantForSurvey[_surveyId] */\n      0x00\n      dup7\n      dup2\n      mstore\n        /* \"smart-contracts/classroom/main/Canvassing_flattened.sol\":16382:16416  payoutStatusOfParticipantForSurvey */\n      0x07\n        /* \"smart-contracts/classroom/main/Canvassing_flattened.sol\":16382:16427  payoutStatusOfParticipantForSurvey[_surveyId] */\n      0x20\n      swap1\n      dup2\n      mstore\n      0x40\n      dup1\n      dup4\n      keccak256\n      sub(shl(0xa0, 0x01), 0x01)\n        /* \"smart-contracts/classroom/main/Canvassing_flattened.sol\":16382:16476  payoutStatusOfParticipantForSurvey[_surveyId][... */\n      dup10\n      and\n      dup5\n      mstore\n      swap1\n      swap2\n      mstore\n      swap1\n      keccak256\n        /* \"smart-contracts/classroom/main/Canvassing_flattened.sol\":16382:16483  payoutStatusOfParticipantForSurvey[_surveyId][... */\n      dup1\n      sload\n      not(0xff)\n      and\n        /* \"smart-contracts/classroom/main/Canvassing_flattened.sol\":16479:16483  true */\n      0x01\n        /* \"smart-contracts/classroom/main/Canvassing_flattened.sol\":16382:16483  payoutStatusOfParticipantForSurvey[_surveyId][... */\n      or\n      swap1\n      sstore\n        /* \"smart-contracts/classroom/main/Canvassing_flattened.sol\":16557:16592  Earning memory newCanvassingEarning */\n      tag_520\n      tag_379\n      jump\t// in\n    tag_520:\n        /* \"smart-contracts/classroom/main/Canvassing_flattened.sol\":16628:16644  currentEarningId */\n      0x13\n      dup1\n      sload\n        /* \"smart-contracts/classroom/main/Canvassing_flattened.sol\":16602:16644  newCanvassingEarning.id = currentEarningId */\n      dup3\n      mstore\n        /* \"smart-contracts/classroom/main/Canvassing_flattened.sol\":16654:16683  newCanvassingEarning.surveyId */\n      0x20\n      dup3\n      add\n        /* \"smart-contracts/classroom/main/Canvassing_flattened.sol\":16654:16695  newCanvassingEarning.surveyId = _surveyId */\n      dup9\n      dup2\n      mstore\n      0x00\n        /* \"smart-contracts/classroom/main/Canvassing_flattened.sol\":16751:16774  canvassingWalletAddress */\n      dup1\n      sload\n      sub(shl(0xa0, 0x01), 0x01)\n      swap1\n      dup2\n      and\n        /* \"smart-contracts/classroom/main/Canvassing_flattened.sol\":16705:16748  newCanvassingEarning.recipientWalletAddress */\n      0x40\n      dup7\n      add\n        /* \"smart-contracts/classroom/main/Canvassing_flattened.sol\":16705:16774  newCanvassingEarning.recipientWalletAddress = canvassingWalletAddress */\n      swap1\n      dup2\n      mstore\n        /* \"smart-contracts/classroom/main/Canvassing_flattened.sol\":16784:16836  newCanvassingEarning... */\n      0x60\n      dup7\n      add\n        /* \"smart-contracts/classroom/main/Canvassing_flattened.sol\":16784:16873  newCanvassingEarning... */\n      dup9\n      dup2\n      mstore\n        /* \"smart-contracts/classroom/main/Canvassing_flattened.sol\":16883:16894  allEarnings */\n      0x0d\n        /* \"smart-contracts/classroom/main/Canvassing_flattened.sol\":16883:16921  allEarnings.push(newCanvassingEarning) */\n      dup1\n      sload\n        /* \"smart-contracts/classroom/main/Canvassing_flattened.sol\":16751:16774  canvassingWalletAddress */\n      0x01\n        /* \"smart-contracts/classroom/main/Canvassing_flattened.sol\":16883:16921  allEarnings.push(newCanvassingEarning) */\n      dup2\n      add\n      dup3\n      sstore\n      swap1\n      dup6\n      mstore\n      dup8\n      mload\n      0xd7b6990105719101dabeb77144f2a3385c8033acd3af97e9423a695e81ad1eb5\n      0x05\n      swap1\n      swap3\n      mul\n      swap2\n      dup3\n      add\n      sstore\n      swap5\n      mload\n      0xd7b6990105719101dabeb77144f2a3385c8033acd3af97e9423a695e81ad1eb6\n      dup7\n      add\n      sstore\n      swap1\n      mload\n      0xd7b6990105719101dabeb77144f2a3385c8033acd3af97e9423a695e81ad1eb7\n      dup6\n      add\n      dup1\n      sload\n      not(sub(shl(0xa0, 0x01), 0x01))\n      and\n      swap2\n      swap1\n      swap4\n      and\n      or\n      swap1\n      swap2\n      sstore\n      mload\n      0xd7b6990105719101dabeb77144f2a3385c8033acd3af97e9423a695e81ad1eb8\n      dup4\n      add\n      sstore\n      0x80\n      dup5\n      add\n      mload\n      0xd7b6990105719101dabeb77144f2a3385c8033acd3af97e9423a695e81ad1eb9\n      swap1\n      swap3\n      add\n      dup1\n      sload\n      not(0xff)\n      and\n      swap3\n      iszero\n      iszero\n      swap3\n      swap1\n      swap3\n      or\n      swap1\n      swap2\n      sstore\n        /* \"smart-contracts/classroom/main/Canvassing_flattened.sol\":16931:16949  currentEarningId++ */\n      dup2\n      sload\n      swap2\n        /* \"smart-contracts/classroom/main/Canvassing_flattened.sol\":16628:16644  currentEarningId */\n      swap1\n        /* \"smart-contracts/classroom/main/Canvassing_flattened.sol\":16931:16949  currentEarningId++ */\n      tag_522\n      dup4\n      tag_296\n      jump\t// in\n    tag_522:\n      swap2\n      swap1\n      pop\n      sstore\n      pop\n        /* \"smart-contracts/classroom/main/Canvassing_flattened.sol\":15134:16956  {... */\n      pop\n      pop\n      pop\n      pop\n      pop\n        /* \"smart-contracts/classroom/main/Canvassing_flattened.sol\":15015:16956  function makePayoutAndCreateEarning(... */\n      pop\n      pop\n      jump\t// out\n        /* \"smart-contracts/classroom/main/Canvassing_flattened.sol\":4692:4951  function checkIfParticipantExists(address _walletAddress)... */\n    tag_155:\n      sub(shl(0xa0, 0x01), 0x01)\n        /* \"smart-contracts/classroom/main/Canvassing_flattened.sol\":4834:4897  allParticipants[_walletAddress].walletAddress == _walletAddress */\n      dup1\n      dup3\n      and\n        /* \"smart-contracts/classroom/main/Canvassing_flattened.sol\":4795:4799  bool */\n      0x00\n        /* \"smart-contracts/classroom/main/Canvassing_flattened.sol\":4834:4865  allParticipants[_walletAddress] */\n      dup2\n      dup2\n      mstore\n        /* \"smart-contracts/classroom/main/Canvassing_flattened.sol\":4834:4849  allParticipants */\n      0x02\n        /* \"smart-contracts/classroom/main/Canvassing_flattened.sol\":4834:4865  allParticipants[_walletAddress] */\n      0x20\n      mstore\n      0x40\n      dup2\n      keccak256\n        /* \"smart-contracts/classroom/main/Canvassing_flattened.sol\":4834:4879  allParticipants[_walletAddress].walletAddress */\n      0x01\n      add\n      sload\n        /* \"smart-contracts/classroom/main/Canvassing_flattened.sol\":4795:4799  bool */\n      swap1\n      swap3\n        /* \"smart-contracts/classroom/main/Canvassing_flattened.sol\":4834:4879  allParticipants[_walletAddress].walletAddress */\n      and\n        /* \"smart-contracts/classroom/main/Canvassing_flattened.sol\":4834:4897  allParticipants[_walletAddress].walletAddress == _walletAddress */\n      eq\n        /* \"smart-contracts/classroom/main/Canvassing_flattened.sol\":4834:4944  allParticipants[_walletAddress].walletAddress == _walletAddress... */\n      tag_524\n      jumpi\n        /* \"smart-contracts/classroom/main/Canvassing_flattened.sol\":4939:4944  false */\n      0x00\n        /* \"smart-contracts/classroom/main/Canvassing_flattened.sol\":4834:4944  allParticipants[_walletAddress].walletAddress == _walletAddress... */\n      jump(tag_239)\n    tag_524:\n        /* \"smart-contracts/classroom/main/Canvassing_flattened.sol\":4916:4920  true */\n      0x01\n        /* \"smart-contracts/classroom/main/Canvassing_flattened.sol\":4815:4944  return... */\n      swap3\n        /* \"smart-contracts/classroom/main/Canvassing_flattened.sol\":4692:4951  function checkIfParticipantExists(address _walletAddress)... */\n      swap2\n      pop\n      pop\n      jump\t// out\n        /* \"smart-contracts/classroom/main/Canvassing_flattened.sol\":21339:21586  function verifyResearcher(address _walletAddress) public {... */\n    tag_160:\n      sub(shl(0xa0, 0x01), 0x01)\n        /* \"smart-contracts/classroom/main/Canvassing_flattened.sol\":21444:21474  allResearchers[_walletAddress] */\n      dup1\n      dup3\n      and\n        /* \"smart-contracts/classroom/main/Canvassing_flattened.sol\":21406:21441  Researcher memory currentResearcher */\n      0x00\n        /* \"smart-contracts/classroom/main/Canvassing_flattened.sol\":21444:21474  allResearchers[_walletAddress] */\n      swap1\n      dup2\n      mstore\n        /* \"smart-contracts/classroom/main/Canvassing_flattened.sol\":21444:21458  allResearchers */\n      0x01\n        /* \"smart-contracts/classroom/main/Canvassing_flattened.sol\":21444:21474  allResearchers[_walletAddress] */\n      0x20\n      dup2\n      dup2\n      mstore\n      0x40\n      dup1\n      dup5\n      keccak256\n        /* \"smart-contracts/classroom/main/Canvassing_flattened.sol\":21406:21474  Researcher memory currentResearcher = allResearchers[_walletAddress] */\n      dup2\n      mload\n      0x0100\n      dup2\n      add\n      dup4\n      mstore\n      dup2\n      sload\n      dup2\n      mstore\n      swap4\n      dup2\n      add\n      sload\n      swap1\n      swap6\n      and\n      swap2\n      dup4\n      add\n      swap2\n      swap1\n      swap2\n      mstore\n      0x02\n      dup5\n      add\n      dup1\n      sload\n        /* \"smart-contracts/classroom/main/Canvassing_flattened.sol\":21406:21441  Researcher memory currentResearcher */\n      swap4\n      swap5\n        /* \"smart-contracts/classroom/main/Canvassing_flattened.sol\":21406:21474  Researcher memory currentResearcher = allResearchers[_walletAddress] */\n      swap3\n      swap4\n      swap2\n      dup5\n      add\n      swap2\n      tag_527\n      swap1\n      tag_257\n      jump\t// in\n    tag_527:\n      dup1\n      0x1f\n      add\n      0x20\n      dup1\n      swap2\n      div\n      mul\n      0x20\n      add\n      mload(0x40)\n      swap1\n      dup2\n      add\n      0x40\n      mstore\n      dup1\n      swap3\n      swap2\n      swap1\n      dup2\n      dup2\n      mstore\n      0x20\n      add\n      dup3\n      dup1\n      sload\n      tag_528\n      swap1\n      tag_257\n      jump\t// in\n    tag_528:\n      dup1\n      iszero\n      tag_529\n      jumpi\n      dup1\n      0x1f\n      lt\n      tag_530\n      jumpi\n      0x0100\n      dup1\n      dup4\n      sload\n      div\n      mul\n      dup4\n      mstore\n      swap2\n      0x20\n      add\n      swap2\n      jump(tag_529)\n    tag_530:\n      dup3\n      add\n      swap2\n      swap1\n      0x00\n      mstore\n      keccak256(0x00, 0x20)\n      swap1\n    tag_531:\n      dup2\n      sload\n      dup2\n      mstore\n      swap1\n      0x01\n      add\n      swap1\n      0x20\n      add\n      dup1\n      dup4\n      gt\n      tag_531\n      jumpi\n      dup3\n      swap1\n      sub\n      0x1f\n      and\n      dup3\n      add\n      swap2\n    tag_529:\n      pop\n      pop\n      pop\n      pop\n      pop\n      dup2\n      mstore\n      0x20\n      add\n      0x03\n      dup3\n      add\n      dup1\n      sload\n      tag_532\n      swap1\n      tag_257\n      jump\t// in\n    tag_532:\n      dup1\n      0x1f\n      add\n      0x20\n      dup1\n      swap2\n      div\n      mul\n      0x20\n      add\n      mload(0x40)\n      swap1\n      dup2\n      add\n      0x40\n      mstore\n      dup1\n      swap3\n      swap2\n      swap1\n      dup2\n      dup2\n      mstore\n      0x20\n      add\n      dup3\n      dup1\n      sload\n      tag_533\n      swap1\n      tag_257\n      jump\t// in\n    tag_533:\n      dup1\n      iszero\n      tag_534\n      jumpi\n      dup1\n      0x1f\n      lt\n      tag_535\n      jumpi\n      0x0100\n      dup1\n      dup4\n      sload\n      div\n      mul\n      dup4\n      mstore\n      swap2\n      0x20\n      add\n      swap2\n      jump(tag_534)\n    tag_535:\n      dup3\n      add\n      swap2\n      swap1\n      0x00\n      mstore\n      keccak256(0x00, 0x20)\n      swap1\n    tag_536:\n      dup2\n      sload\n      dup2\n      mstore\n      swap1\n      0x01\n      add\n      swap1\n      0x20\n      add\n      dup1\n      dup4\n      gt\n      tag_536\n      jumpi\n      dup3\n      swap1\n      sub\n      0x1f\n      and\n      dup3\n      add\n      swap2\n    tag_534:\n      pop\n      pop\n      pop\n      pop\n      pop\n      dup2\n      mstore\n      0x20\n      add\n      0x04\n      dup3\n      add\n      dup1\n      sload\n      tag_537\n      swap1\n      tag_257\n      jump\t// in\n    tag_537:\n      dup1\n      0x1f\n      add\n      0x20\n      dup1\n      swap2\n      div\n      mul\n      0x20\n      add\n      mload(0x40)\n      swap1\n      dup2\n      add\n      0x40\n      mstore\n      dup1\n      swap3\n      swap2\n      swap1\n      dup2\n      dup2\n      mstore\n      0x20\n      add\n      dup3\n      dup1\n      sload\n      tag_538\n      swap1\n      tag_257\n      jump\t// in\n    tag_538:\n      dup1\n      iszero\n      tag_539\n      jumpi\n      dup1\n      0x1f\n      lt\n      tag_540\n      jumpi\n      0x0100\n      dup1\n      dup4\n      sload\n      div\n      mul\n      dup4\n      mstore\n      swap2\n      0x20\n      add\n      swap2\n      jump(tag_539)\n    tag_540:\n      dup3\n      add\n      swap2\n      swap1\n      0x00\n      mstore\n      keccak256(0x00, 0x20)\n      swap1\n    tag_541:\n      dup2\n      sload\n      dup2\n      mstore\n      swap1\n      0x01\n      add\n      swap1\n      0x20\n      add\n      dup1\n      dup4\n      gt\n      tag_541\n      jumpi\n      dup3\n      swap1\n      sub\n      0x1f\n      and\n      dup3\n      add\n      swap2\n    tag_539:\n      pop\n      pop\n      pop\n      swap2\n      dup4\n      mstore\n      pop\n      pop\n      0x05\n      swap2\n      swap1\n      swap2\n      add\n      sload\n      0xff\n      dup1\n      dup3\n      and\n      iszero\n      iszero\n      0x20\n      dup1\n      dup6\n      add\n      swap2\n      swap1\n      swap2\n      mstore\n      0x0100\n      dup4\n      div\n      dup3\n      and\n      iszero\n      iszero\n      0x40\n      dup1\n      dup7\n      add\n      swap2\n      swap1\n      swap2\n      mstore\n      0x010000\n      swap1\n      swap4\n      div\n      swap1\n      swap2\n      and\n      iszero\n      iszero\n      0x60\n      swap1\n      swap4\n      add\n      swap3\n      swap1\n      swap3\n      mstore\n      0x01\n        /* \"smart-contracts/classroom/main/Canvassing_flattened.sol\":21484:21512  currentResearcher.isVerified */\n      0xc0\n      dup5\n      add\n        /* \"smart-contracts/classroom/main/Canvassing_flattened.sol\":21484:21519  currentResearcher.isVerified = true */\n      dup2\n      swap1\n      mstore\n      sub(shl(0xa0, 0x01), 0x01)\n        /* \"smart-contracts/classroom/main/Canvassing_flattened.sol\":21529:21559  allResearchers[_walletAddress] */\n      dup7\n      dup2\n      and\n      0x00\n      swap1\n      dup2\n      mstore\n      dup3\n      dup6\n      mstore\n      dup4\n      swap1\n      keccak256\n        /* \"smart-contracts/classroom/main/Canvassing_flattened.sol\":21529:21579  allResearchers[_walletAddress] = currentResearcher */\n      dup6\n      mload\n      dup2\n      sstore\n      swap4\n      dup6\n      add\n      mload\n      swap2\n      dup5\n      add\n      dup1\n      sload\n      not(sub(shl(0xa0, 0x01), 0x01))\n      and\n      swap3\n      swap1\n      swap2\n      and\n      swap2\n      swap1\n      swap2\n      or\n      swap1\n      sstore\n      dup3\n      add\n      mload\n        /* \"smart-contracts/classroom/main/Canvassing_flattened.sol\":21484:21512  currentResearcher.isVerified */\n      swap2\n      swap3\n      pop\n      dup3\n      swap2\n        /* \"smart-contracts/classroom/main/Canvassing_flattened.sol\":21406:21474  Researcher memory currentResearcher = allResearchers[_walletAddress] */\n      0x02\n        /* \"smart-contracts/classroom/main/Canvassing_flattened.sol\":21529:21579  allResearchers[_walletAddress] = currentResearcher */\n      dup3\n      add\n      swap1\n      tag_542\n      swap1\n      dup3\n      tag_436\n      jump\t// in\n    tag_542:\n      pop\n      0x60\n      dup3\n      add\n      mload\n      0x03\n      dup3\n      add\n      swap1\n      tag_543\n      swap1\n      dup3\n      tag_436\n      jump\t// in\n    tag_543:\n      pop\n      0x80\n      dup3\n      add\n      mload\n      0x04\n      dup3\n      add\n      swap1\n      tag_544\n      swap1\n      dup3\n      tag_436\n      jump\t// in\n    tag_544:\n      pop\n      0xa0\n      dup3\n      add\n      mload\n      0x05\n      swap1\n      swap2\n      add\n      dup1\n      sload\n      0xc0\n      dup5\n      add\n      mload\n      0xe0\n      swap1\n      swap5\n      add\n      mload\n      iszero\n      iszero\n      0x010000\n      mul\n      not(0xff0000)\n      swap5\n      iszero\n      iszero\n      0x0100\n      mul\n      not(0xff00)\n      swap5\n      iszero\n      iszero\n      swap5\n      swap1\n      swap5\n      and\n      not(0xffff)\n      swap1\n      swap3\n      and\n      swap2\n      swap1\n      swap2\n      or\n      swap3\n      swap1\n      swap3\n      or\n      swap3\n      swap1\n      swap3\n      and\n      or\n      swap1\n      sstore\n      pop\n      pop\n        /* \"smart-contracts/classroom/main/Canvassing_flattened.sol\":21339:21586  function verifyResearcher(address _walletAddress) public {... */\n      jump\t// out\n        /* \"smart-contracts/classroom/main/Canvassing_flattened.sol\":6176:6273  function getAllSurveys() public view returns (Survey[] memory) {... */\n    tag_166:\n        /* \"smart-contracts/classroom/main/Canvassing_flattened.sol\":6222:6237  Survey[] memory */\n      0x60\n        /* \"smart-contracts/classroom/main/Canvassing_flattened.sol\":6256:6266  allSurveys */\n      0x03\n        /* \"smart-contracts/classroom/main/Canvassing_flattened.sol\":6249:6266  return allSurveys */\n      dup1\n      sload\n      dup1\n      0x20\n      mul\n      0x20\n      add\n      mload(0x40)\n      swap1\n      dup2\n      add\n      0x40\n      mstore\n      dup1\n      swap3\n      swap2\n      swap1\n      dup2\n      dup2\n      mstore\n      0x20\n      add\n      0x00\n      swap1\n    tag_547:\n      dup3\n      dup3\n      lt\n      iszero\n      tag_548\n      jumpi\n      0x00\n      dup5\n      dup2\n      mstore\n      0x20\n      swap1\n      dup2\n      swap1\n      keccak256\n      0x40\n      dup1\n      mload\n      0xe0\n      dup2\n      add\n      dup3\n      mstore\n      0x07\n      dup7\n      mul\n      swap1\n      swap3\n      add\n      dup1\n      sload\n      dup4\n      mstore\n      0x01\n      dup2\n      add\n      sload\n      sub(shl(0xa0, 0x01), 0x01)\n      and\n      swap4\n      dup4\n      add\n      swap4\n      swap1\n      swap4\n      mstore\n      0x02\n      dup4\n      add\n      dup1\n      sload\n      swap3\n      swap4\n      swap3\n      swap2\n      dup5\n      add\n      swap2\n      tag_550\n      swap1\n      tag_257\n      jump\t// in\n    tag_550:\n      dup1\n      0x1f\n      add\n      0x20\n      dup1\n      swap2\n      div\n      mul\n      0x20\n      add\n      mload(0x40)\n      swap1\n      dup2\n      add\n      0x40\n      mstore\n      dup1\n      swap3\n      swap2\n      swap1\n      dup2\n      dup2\n      mstore\n      0x20\n      add\n      dup3\n      dup1\n      sload\n      tag_551\n      swap1\n      tag_257\n      jump\t// in\n    tag_551:\n      dup1\n      iszero\n      tag_552\n      jumpi\n      dup1\n      0x1f\n      lt\n      tag_553\n      jumpi\n      0x0100\n      dup1\n      dup4\n      sload\n      div\n      mul\n      dup4\n      mstore\n      swap2\n      0x20\n      add\n      swap2\n      jump(tag_552)\n    tag_553:\n      dup3\n      add\n      swap2\n      swap1\n      0x00\n      mstore\n      keccak256(0x00, 0x20)\n      swap1\n    tag_554:\n      dup2\n      sload\n      dup2\n      mstore\n      swap1\n      0x01\n      add\n      swap1\n      0x20\n      add\n      dup1\n      dup4\n      gt\n      tag_554\n      jumpi\n      dup3\n      swap1\n      sub\n      0x1f\n      and\n      dup3\n      add\n      swap2\n    tag_552:\n      pop\n      pop\n      pop\n      swap2\n      dup4\n      mstore\n      pop\n      pop\n      0x03\n      dup3\n      add\n      sload\n      0x20\n      dup1\n      dup4\n      add\n      swap2\n      swap1\n      swap2\n      mstore\n      0x04\n      dup4\n      add\n      sload\n      0x40\n      dup4\n      add\n      mstore\n      0x05\n      dup4\n      add\n      sload\n      0x60\n      dup4\n      add\n      mstore\n      0x06\n      swap1\n      swap3\n      add\n      sload\n      0xff\n      and\n      iszero\n      iszero\n      0x80\n      swap1\n      swap2\n      add\n      mstore\n      swap1\n      dup3\n      mstore\n      0x01\n      swap3\n      swap1\n      swap3\n      add\n      swap2\n      add\n      jump(tag_547)\n    tag_548:\n      pop\n      pop\n      pop\n      pop\n      swap1\n      pop\n        /* \"smart-contracts/classroom/main/Canvassing_flattened.sol\":6176:6273  function getAllSurveys() public view returns (Survey[] memory) {... */\n      swap1\n      jump\t// out\n        /* \"smart-contracts/classroom/main/Canvassing_flattened.sol\":4287:4315  Earning[] public allEarnings */\n    tag_174:\n      0x0d\n      dup2\n      dup2\n      sload\n      dup2\n      lt\n      tag_555\n      jumpi\n      0x00\n      dup1\n      revert\n    tag_555:\n      0x00\n      swap2\n      dup3\n      mstore\n      0x20\n      swap1\n      swap2\n      keccak256\n      0x05\n      swap1\n      swap2\n      mul\n      add\n      dup1\n      sload\n      0x01\n      dup3\n      add\n      sload\n      0x02\n      dup4\n      add\n      sload\n      0x03\n      dup5\n      add\n      sload\n      0x04\n      swap1\n      swap5\n      add\n      sload\n      swap3\n      swap5\n      pop\n      swap1\n      swap3\n      sub(shl(0xa0, 0x01), 0x01)\n      swap1\n      swap2\n      and\n      swap2\n      0xff\n      and\n      dup6\n      jump\t// out\n        /* \"smart-contracts/classroom/main/Canvassing_flattened.sol\":4252:4280  Funding[] public allFundings */\n    tag_179:\n      0x0c\n      dup2\n      dup2\n      sload\n      dup2\n      lt\n      tag_555\n      jumpi\n      0x00\n      dup1\n      revert\n        /* \"smart-contracts/classroom/main/Canvassing_flattened.sol\":23994:24172  function getParticipantsOfSurvey(uint256 _surveyId)... */\n    tag_183:\n        /* \"smart-contracts/classroom/main/Canvassing_flattened.sol\":24091:24111  Participant[] memory */\n      0x60\n        /* \"smart-contracts/classroom/main/Canvassing_flattened.sol\":24134:24154  participantsOfSurvey */\n      0x0b\n        /* \"smart-contracts/classroom/main/Canvassing_flattened.sol\":24134:24165  participantsOfSurvey[_surveyId] */\n      0x00\n        /* \"smart-contracts/classroom/main/Canvassing_flattened.sol\":24155:24164  _surveyId */\n      dup4\n        /* \"smart-contracts/classroom/main/Canvassing_flattened.sol\":24134:24165  participantsOfSurvey[_surveyId] */\n      dup2\n      mstore\n      0x20\n      add\n      swap1\n      dup2\n      mstore\n      0x20\n      add\n      0x00\n      keccak256\n        /* \"smart-contracts/classroom/main/Canvassing_flattened.sol\":24127:24165  return participantsOfSurvey[_surveyId] */\n      dup1\n      sload\n      dup1\n      0x20\n      mul\n      0x20\n      add\n      mload(0x40)\n      swap1\n      dup2\n      add\n      0x40\n      mstore\n      dup1\n      swap3\n      swap2\n      swap1\n      dup2\n      dup2\n      mstore\n      0x20\n      add\n      0x00\n      swap1\n    tag_560:\n      dup3\n      dup3\n      lt\n      iszero\n      tag_561\n      jumpi\n      0x00\n      dup5\n      dup2\n      mstore\n      0x20\n      swap1\n      dup2\n      swap1\n      keccak256\n      0x40\n      dup1\n      mload\n      0x0100\n      dup2\n      add\n      dup3\n      mstore\n      0x07\n      dup7\n      mul\n      swap1\n      swap3\n      add\n      dup1\n      sload\n      dup4\n      mstore\n      0x01\n      dup2\n      add\n      sload\n      sub(shl(0xa0, 0x01), 0x01)\n      and\n      swap4\n      dup4\n      add\n      swap4\n      swap1\n      swap4\n      mstore\n      0x02\n      dup4\n      add\n      dup1\n      sload\n      swap3\n      swap4\n      swap3\n      swap2\n      dup5\n      add\n      swap2\n      tag_563\n      swap1\n      tag_257\n      jump\t// in\n    tag_563:\n      dup1\n      0x1f\n      add\n      0x20\n      dup1\n      swap2\n      div\n      mul\n      0x20\n      add\n      mload(0x40)\n      swap1\n      dup2\n      add\n      0x40\n      mstore\n      dup1\n      swap3\n      swap2\n      swap1\n      dup2\n      dup2\n      mstore\n      0x20\n      add\n      dup3\n      dup1\n      sload\n      tag_564\n      swap1\n      tag_257\n      jump\t// in\n    tag_564:\n      dup1\n      iszero\n      tag_565\n      jumpi\n      dup1\n      0x1f\n      lt\n      tag_566\n      jumpi\n      0x0100\n      dup1\n      dup4\n      sload\n      div\n      mul\n      dup4\n      mstore\n      swap2\n      0x20\n      add\n      swap2\n      jump(tag_565)\n    tag_566:\n      dup3\n      add\n      swap2\n      swap1\n      0x00\n      mstore\n      keccak256(0x00, 0x20)\n      swap1\n    tag_567:\n      dup2\n      sload\n      dup2\n      mstore\n      swap1\n      0x01\n      add\n      swap1\n      0x20\n      add\n      dup1\n      dup4\n      gt\n      tag_567\n      jumpi\n      dup3\n      swap1\n      sub\n      0x1f\n      and\n      dup3\n      add\n      swap2\n    tag_565:\n      pop\n      pop\n      pop\n      pop\n      pop\n      dup2\n      mstore\n      0x20\n      add\n      0x03\n      dup3\n      add\n      dup1\n      sload\n      tag_568\n      swap1\n      tag_257\n      jump\t// in\n    tag_568:\n      dup1\n      0x1f\n      add\n      0x20\n      dup1\n      swap2\n      div\n      mul\n      0x20\n      add\n      mload(0x40)\n      swap1\n      dup2\n      add\n      0x40\n      mstore\n      dup1\n      swap3\n      swap2\n      swap1\n      dup2\n      dup2\n      mstore\n      0x20\n      add\n      dup3\n      dup1\n      sload\n      tag_569\n      swap1\n      tag_257\n      jump\t// in\n    tag_569:\n      dup1\n      iszero\n      tag_570\n      jumpi\n      dup1\n      0x1f\n      lt\n      tag_571\n      jumpi\n      0x0100\n      dup1\n      dup4\n      sload\n      div\n      mul\n      dup4\n      mstore\n      swap2\n      0x20\n      add\n      swap2\n      jump(tag_570)\n    tag_571:\n      dup3\n      add\n      swap2\n      swap1\n      0x00\n      mstore\n      keccak256(0x00, 0x20)\n      swap1\n    tag_572:\n      dup2\n      sload\n      dup2\n      mstore\n      swap1\n      0x01\n      add\n      swap1\n      0x20\n      add\n      dup1\n      dup4\n      gt\n      tag_572\n      jumpi\n      dup3\n      swap1\n      sub\n      0x1f\n      and\n      dup3\n      add\n      swap2\n    tag_570:\n      pop\n      pop\n      pop\n      swap2\n      dup4\n      mstore\n      pop\n      pop\n      0x04\n      dup3\n      add\n      sload\n      0x20\n      dup1\n      dup4\n      add\n      swap2\n      swap1\n      swap2\n      mstore\n      0x05\n      dup4\n      add\n      sload\n      0x40\n      dup4\n      add\n      mstore\n      0x06\n      swap1\n      swap3\n      add\n      sload\n      0xff\n      dup1\n      dup3\n      and\n      iszero\n      iszero\n      0x60\n      dup5\n      add\n      mstore\n      0x0100\n      swap1\n      swap2\n      div\n      and\n      iszero\n      iszero\n      0x80\n      swap1\n      swap2\n      add\n      mstore\n      swap1\n      dup3\n      mstore\n      0x01\n      swap3\n      swap1\n      swap3\n      add\n      swap2\n      add\n      jump(tag_560)\n    tag_561:\n      pop\n      pop\n      pop\n      pop\n      swap1\n      pop\n        /* \"smart-contracts/classroom/main/Canvassing_flattened.sol\":23994:24172  function getParticipantsOfSurvey(uint256 _surveyId)... */\n      swap2\n      swap1\n      pop\n      jump\t// out\n        /* \"smart-contracts/classroom/main/Canvassing_flattened.sol\":16962:17219  function checkIfResearcherExists(address _walletAddress)... */\n    tag_188:\n      sub(shl(0xa0, 0x01), 0x01)\n        /* \"smart-contracts/classroom/main/Canvassing_flattened.sol\":17103:17165  allResearchers[_walletAddress].walletAddress == _walletAddress */\n      dup1\n      dup3\n      and\n        /* \"smart-contracts/classroom/main/Canvassing_flattened.sol\":17064:17068  bool */\n      0x00\n        /* \"smart-contracts/classroom/main/Canvassing_flattened.sol\":17103:17133  allResearchers[_walletAddress] */\n      dup2\n      dup2\n      mstore\n        /* \"smart-contracts/classroom/main/Canvassing_flattened.sol\":17103:17117  allResearchers */\n      0x01\n        /* \"smart-contracts/classroom/main/Canvassing_flattened.sol\":17103:17133  allResearchers[_walletAddress] */\n      0x20\n      dup2\n      swap1\n      mstore\n      0x40\n      dup3\n      keccak256\n        /* \"smart-contracts/classroom/main/Canvassing_flattened.sol\":17103:17147  allResearchers[_walletAddress].walletAddress */\n      add\n      sload\n        /* \"smart-contracts/classroom/main/Canvassing_flattened.sol\":17064:17068  bool */\n      swap1\n      swap3\n        /* \"smart-contracts/classroom/main/Canvassing_flattened.sol\":17103:17147  allResearchers[_walletAddress].walletAddress */\n      and\n        /* \"smart-contracts/classroom/main/Canvassing_flattened.sol\":17103:17165  allResearchers[_walletAddress].walletAddress == _walletAddress */\n      eq\n        /* \"smart-contracts/classroom/main/Canvassing_flattened.sol\":17103:17212  allResearchers[_walletAddress].walletAddress == _walletAddress... */\n      tag_524\n      jumpi\n        /* \"smart-contracts/classroom/main/Canvassing_flattened.sol\":17207:17212  false */\n      0x00\n        /* \"smart-contracts/classroom/main/Canvassing_flattened.sol\":17103:17212  allResearchers[_walletAddress].walletAddress == _walletAddress... */\n      jump(tag_239)\n        /* \"smart-contracts/classroom/main/Canvassing_flattened.sol\":20204:21333  function createFunding(... */\n    tag_198:\n        /* \"smart-contracts/classroom/main/Canvassing_flattened.sol\":20400:20436  uint256 amountOfFundingOfSurveyInWei */\n      0x00\n        /* \"smart-contracts/classroom/main/Canvassing_flattened.sol\":20439:20568  getAmountOfFundingOfAnySurveyInWei(... */\n      tag_578\n        /* \"smart-contracts/classroom/main/Canvassing_flattened.sol\":20491:20509  _numberOfQuestions */\n      dup6\n        /* \"smart-contracts/classroom/main/Canvassing_flattened.sol\":20527:20554  _targetNumberOfParticipants */\n      dup6\n        /* \"smart-contracts/classroom/main/Canvassing_flattened.sol\":20439:20473  getAmountOfFundingOfAnySurveyInWei */\n      tag_55\n        /* \"smart-contracts/classroom/main/Canvassing_flattened.sol\":20439:20568  getAmountOfFundingOfAnySurveyInWei(... */\n      jump\t// in\n    tag_578:\n        /* \"smart-contracts/classroom/main/Canvassing_flattened.sol\":20602:20618  currentFundingId */\n      sload(0x14)\n      0x40\n      dup1\n      mload\n      0xa0\n      dup2\n      add\n      dup3\n      mstore\n      0x00\n      0x80\n      dup3\n      add\n      dup2\n      dup2\n      mstore\n        /* \"smart-contracts/classroom/main/Canvassing_flattened.sol\":20665:20693  newFunding.id = newFundingId */\n      dup5\n      dup4\n      mstore\n      0x20\n      dup1\n      dup5\n      add\n        /* \"smart-contracts/classroom/main/Canvassing_flattened.sol\":20703:20734  newFunding.surveyId = _surveyId */\n      dup11\n      dup2\n      mstore\n      sub(shl(0xa0, 0x01), 0x01)\n        /* \"smart-contracts/classroom/main/Canvassing_flattened.sol\":20744:20813  newFunding.creatingResearcherWalletAddress = _researcherWalletAddress */\n      dup11\n      dup2\n      and\n      dup7\n      dup9\n      add\n      dup2\n      dup2\n      mstore\n      0x60\n      dup9\n      add\n        /* \"smart-contracts/classroom/main/Canvassing_flattened.sol\":20823:20882  newFunding.amountFundedInWei = amountOfFundingOfSurveyInWei */\n      dup12\n      dup2\n      mstore\n        /* \"smart-contracts/classroom/main/Canvassing_flattened.sol\":20893:20904  allFundings */\n      0x0c\n        /* \"smart-contracts/classroom/main/Canvassing_flattened.sol\":20893:20921  allFundings.push(newFunding) */\n      dup1\n      sload\n      0x01\n      dup2\n      add\n      dup3\n      sstore\n      swap1\n      dup10\n      mstore\n      dup10\n      mload\n      0xdf6966c971051c3d54ec59162606531493a51404a002842f56009d7e5cf4a8c7\n      0x05\n      swap1\n      swap3\n      mul\n      swap2\n      dup3\n      add\n      sstore\n      swap5\n      mload\n      0xdf6966c971051c3d54ec59162606531493a51404a002842f56009d7e5cf4a8c8\n      dup7\n      add\n      sstore\n      swap1\n      mload\n      0xdf6966c971051c3d54ec59162606531493a51404a002842f56009d7e5cf4a8c9\n      dup6\n      add\n      dup1\n      sload\n      not(sub(shl(0xa0, 0x01), 0x01))\n      and\n      swap2\n      swap1\n      swap5\n      and\n      or\n      swap1\n      swap3\n      sstore\n      swap1\n      mload\n      0xdf6966c971051c3d54ec59162606531493a51404a002842f56009d7e5cf4a8ca\n      dup4\n      add\n      sstore\n      swap3\n      mload\n      0xdf6966c971051c3d54ec59162606531493a51404a002842f56009d7e5cf4a8cb\n      swap1\n      swap2\n      add\n      dup1\n      sload\n      not(0xff)\n      and\n      swap2\n      iszero\n      iszero\n      swap2\n      swap1\n      swap2\n      or\n      swap1\n      sstore\n        /* \"smart-contracts/classroom/main/Canvassing_flattened.sol\":20984:21075  totalAmountFundedByResearchersInWei[... */\n      swap1\n      dup3\n      mstore\n        /* \"smart-contracts/classroom/main/Canvassing_flattened.sol\":20984:21019  totalAmountFundedByResearchersInWei */\n      0x09\n        /* \"smart-contracts/classroom/main/Canvassing_flattened.sol\":20984:21075  totalAmountFundedByResearchersInWei[... */\n      swap1\n      mstore\n      swap2\n      swap1\n      swap2\n      keccak256\n      sload\n        /* \"smart-contracts/classroom/main/Canvassing_flattened.sol\":20823:20882  newFunding.amountFundedInWei = amountOfFundingOfSurveyInWei */\n      swap3\n      swap4\n      pop\n        /* \"smart-contracts/classroom/main/Canvassing_flattened.sol\":20602:20618  currentFundingId */\n      swap1\n      swap2\n        /* \"smart-contracts/classroom/main/Canvassing_flattened.sol\":21172:21245  currentTotalAmountFundedByResearcherInWei += amountOfFundingOfSurveyInWei */\n      tag_582\n        /* \"smart-contracts/classroom/main/Canvassing_flattened.sol\":20823:20882  newFunding.amountFundedInWei = amountOfFundingOfSurveyInWei */\n      dup5\n        /* \"smart-contracts/classroom/main/Canvassing_flattened.sol\":20984:21075  totalAmountFundedByResearchersInWei[... */\n      dup3\n        /* \"smart-contracts/classroom/main/Canvassing_flattened.sol\":21172:21245  currentTotalAmountFundedByResearcherInWei += amountOfFundingOfSurveyInWei */\n      tag_243\n      jump\t// in\n    tag_582:\n      sub(shl(0xa0, 0x01), 0x01)\n        /* \"smart-contracts/classroom/main/Canvassing_flattened.sol\":21086:21169  totalAmountFundedByResearchersInWei[... */\n      dup7\n      and\n      0x00\n      swap1\n      dup2\n      mstore\n        /* \"smart-contracts/classroom/main/Canvassing_flattened.sol\":21086:21121  totalAmountFundedByResearchersInWei */\n      0x09\n        /* \"smart-contracts/classroom/main/Canvassing_flattened.sol\":21086:21169  totalAmountFundedByResearchersInWei[... */\n      0x20\n      mstore\n      0x40\n      dup2\n      keccak256\n        /* \"smart-contracts/classroom/main/Canvassing_flattened.sol\":21086:21245  totalAmountFundedByResearchersInWei[... */\n      dup3\n      swap1\n      sstore\n        /* \"smart-contracts/classroom/main/Canvassing_flattened.sol\":21308:21324  currentFundingId */\n      0x14\n        /* \"smart-contracts/classroom/main/Canvassing_flattened.sol\":21308:21326  currentFundingId++ */\n      dup1\n      sload\n        /* \"smart-contracts/classroom/main/Canvassing_flattened.sol\":21172:21245  currentTotalAmountFundedByResearcherInWei += amountOfFundingOfSurveyInWei */\n      swap3\n      swap4\n      pop\n        /* \"smart-contracts/classroom/main/Canvassing_flattened.sol\":21308:21324  currentFundingId */\n      swap1\n        /* \"smart-contracts/classroom/main/Canvassing_flattened.sol\":21308:21326  currentFundingId++ */\n      tag_583\n      dup4\n      tag_296\n      jump\t// in\n    tag_583:\n      swap2\n      swap1\n      pop\n      sstore\n      pop\n        /* \"smart-contracts/classroom/main/Canvassing_flattened.sol\":20390:21333  {... */\n      pop\n      pop\n      pop\n      pop\n        /* \"smart-contracts/classroom/main/Canvassing_flattened.sol\":20204:21333  function createFunding(... */\n      pop\n      pop\n      pop\n      pop\n      jump\t// out\n        /* \"smart-contracts/classroom/main/Canvassing_flattened.sol\":6279:6430  function getSurveyById(uint256 _surveyId)... */\n    tag_205:\n        /* \"smart-contracts/classroom/main/Canvassing_flattened.sol\":6366:6379  Survey memory */\n      tag_584\n      tag_279\n      jump\t// in\n    tag_584:\n        /* \"smart-contracts/classroom/main/Canvassing_flattened.sol\":6402:6412  allSurveys */\n      0x03\n        /* \"smart-contracts/classroom/main/Canvassing_flattened.sol\":6413:6422  _surveyId */\n      dup3\n        /* \"smart-contracts/classroom/main/Canvassing_flattened.sol\":6402:6423  allSurveys[_surveyId] */\n      dup2\n      sload\n      dup2\n      lt\n      tag_587\n      jumpi\n      tag_587\n      tag_285\n      jump\t// in\n    tag_587:\n      swap1\n      0x00\n      mstore\n      keccak256(0x00, 0x20)\n      swap1\n      0x07\n      mul\n      add\n        /* \"smart-contracts/classroom/main/Canvassing_flattened.sol\":6395:6423  return allSurveys[_surveyId] */\n      mload(0x40)\n      dup1\n      0xe0\n      add\n      0x40\n      mstore\n      swap1\n      dup2\n      0x00\n      dup3\n      add\n      sload\n      dup2\n      mstore\n      0x20\n      add\n      0x01\n      dup3\n      add\n      0x00\n      swap1\n      sload\n      swap1\n      0x0100\n      exp\n      swap1\n      div\n      sub(shl(0xa0, 0x01), 0x01)\n      and\n      sub(shl(0xa0, 0x01), 0x01)\n      and\n      sub(shl(0xa0, 0x01), 0x01)\n      and\n      dup2\n      mstore\n      0x20\n      add\n      0x02\n      dup3\n      add\n      dup1\n      sload\n      tag_589\n      swap1\n      tag_257\n      jump\t// in\n    tag_589:\n      dup1\n      0x1f\n      add\n      0x20\n      dup1\n      swap2\n      div\n      mul\n      0x20\n      add\n      mload(0x40)\n      swap1\n      dup2\n      add\n      0x40\n      mstore\n      dup1\n      swap3\n      swap2\n      swap1\n      dup2\n      dup2\n      mstore\n      0x20\n      add\n      dup3\n      dup1\n      sload\n      tag_590\n      swap1\n      tag_257\n      jump\t// in\n    tag_590:\n      dup1\n      iszero\n      tag_591\n      jumpi\n      dup1\n      0x1f\n      lt\n      tag_592\n      jumpi\n      0x0100\n      dup1\n      dup4\n      sload\n      div\n      mul\n      dup4\n      mstore\n      swap2\n      0x20\n      add\n      swap2\n      jump(tag_591)\n    tag_592:\n      dup3\n      add\n      swap2\n      swap1\n      0x00\n      mstore\n      keccak256(0x00, 0x20)\n      swap1\n    tag_593:\n      dup2\n      sload\n      dup2\n      mstore\n      swap1\n      0x01\n      add\n      swap1\n      0x20\n      add\n      dup1\n      dup4\n      gt\n      tag_593\n      jumpi\n      dup3\n      swap1\n      sub\n      0x1f\n      and\n      dup3\n      add\n      swap2\n    tag_591:\n      pop\n      pop\n      pop\n      swap2\n      dup4\n      mstore\n      pop\n      pop\n      0x03\n      dup3\n      add\n      sload\n      0x20\n      dup3\n      add\n      mstore\n      0x04\n      dup3\n      add\n      sload\n      0x40\n      dup3\n      add\n      mstore\n      0x05\n      dup3\n      add\n      sload\n      0x60\n      dup3\n      add\n      mstore\n      0x06\n      swap1\n      swap2\n      add\n      sload\n      0xff\n      and\n      iszero\n      iszero\n      0x80\n      swap1\n      swap2\n      add\n      mstore\n      swap3\n        /* \"smart-contracts/classroom/main/Canvassing_flattened.sol\":6279:6430  function getSurveyById(uint256 _surveyId)... */\n      swap2\n      pop\n      pop\n      jump\t// out\n        /* \"smart-contracts/classroom/main/Canvassing_flattened.sol\":13337:15009  function participateInSurvey(... */\n    tag_211:\n      sub(shl(0xa0, 0x01), 0x01)\n        /* \"smart-contracts/classroom/main/Canvassing_flattened.sol\":13536:13600  allParticipants[... */\n      dup1\n      dup4\n      and\n        /* \"smart-contracts/classroom/main/Canvassing_flattened.sol\":13496:13533  Participant memory currentParticipant */\n      0x00\n        /* \"smart-contracts/classroom/main/Canvassing_flattened.sol\":13536:13600  allParticipants[... */\n      swap1\n      dup2\n      mstore\n        /* \"smart-contracts/classroom/main/Canvassing_flattened.sol\":13536:13551  allParticipants */\n      0x02\n        /* \"smart-contracts/classroom/main/Canvassing_flattened.sol\":13536:13600  allParticipants[... */\n      0x20\n      dup2\n      dup2\n      mstore\n      0x40\n      dup1\n      dup5\n      keccak256\n        /* \"smart-contracts/classroom/main/Canvassing_flattened.sol\":13496:13600  Participant memory currentParticipant = allParticipants[... */\n      dup2\n      mload\n      0x0100\n      dup2\n      add\n      dup4\n      mstore\n      dup2\n      sload\n      dup2\n      mstore\n      0x01\n      dup3\n      add\n      sload\n      swap1\n      swap7\n      and\n      swap3\n      dup7\n      add\n      swap3\n      swap1\n      swap3\n      mstore\n      swap2\n      dup2\n      add\n      dup1\n      sload\n        /* \"smart-contracts/classroom/main/Canvassing_flattened.sol\":13496:13533  Participant memory currentParticipant */\n      swap4\n      swap5\n        /* \"smart-contracts/classroom/main/Canvassing_flattened.sol\":13496:13600  Participant memory currentParticipant = allParticipants[... */\n      swap4\n        /* \"smart-contracts/classroom/main/Canvassing_flattened.sol\":13536:13600  allParticipants[... */\n      swap2\n      swap3\n        /* \"smart-contracts/classroom/main/Canvassing_flattened.sol\":13496:13600  Participant memory currentParticipant = allParticipants[... */\n      dup5\n      add\n      swap2\n      tag_595\n      swap1\n      tag_257\n      jump\t// in\n    tag_595:\n      dup1\n      0x1f\n      add\n      0x20\n      dup1\n      swap2\n      div\n      mul\n      0x20\n      add\n      mload(0x40)\n      swap1\n      dup2\n      add\n      0x40\n      mstore\n      dup1\n      swap3\n      swap2\n      swap1\n      dup2\n      dup2\n      mstore\n      0x20\n      add\n      dup3\n      dup1\n      sload\n      tag_596\n      swap1\n      tag_257\n      jump\t// in\n    tag_596:\n      dup1\n      iszero\n      tag_597\n      jumpi\n      dup1\n      0x1f\n      lt\n      tag_598\n      jumpi\n      0x0100\n      dup1\n      dup4\n      sload\n      div\n      mul\n      dup4\n      mstore\n      swap2\n      0x20\n      add\n      swap2\n      jump(tag_597)\n    tag_598:\n      dup3\n      add\n      swap2\n      swap1\n      0x00\n      mstore\n      keccak256(0x00, 0x20)\n      swap1\n    tag_599:\n      dup2\n      sload\n      dup2\n      mstore\n      swap1\n      0x01\n      add\n      swap1\n      0x20\n      add\n      dup1\n      dup4\n      gt\n      tag_599\n      jumpi\n      dup3\n      swap1\n      sub\n      0x1f\n      and\n      dup3\n      add\n      swap2\n    tag_597:\n      pop\n      pop\n      pop\n      pop\n      pop\n      dup2\n      mstore\n      0x20\n      add\n      0x03\n      dup3\n      add\n      dup1\n      sload\n      tag_600\n      swap1\n      tag_257\n      jump\t// in\n    tag_600:\n      dup1\n      0x1f\n      add\n      0x20\n      dup1\n      swap2\n      div\n      mul\n      0x20\n      add\n      mload(0x40)\n      swap1\n      dup2\n      add\n      0x40\n      mstore\n      dup1\n      swap3\n      swap2\n      swap1\n      dup2\n      dup2\n      mstore\n      0x20\n      add\n      dup3\n      dup1\n      sload\n      tag_601\n      swap1\n      tag_257\n      jump\t// in\n    tag_601:\n      dup1\n      iszero\n      tag_602\n      jumpi\n      dup1\n      0x1f\n      lt\n      tag_603\n      jumpi\n      0x0100\n      dup1\n      dup4\n      sload\n      div\n      mul\n      dup4\n      mstore\n      swap2\n      0x20\n      add\n      swap2\n      jump(tag_602)\n    tag_603:\n      dup3\n      add\n      swap2\n      swap1\n      0x00\n      mstore\n      keccak256(0x00, 0x20)\n      swap1\n    tag_604:\n      dup2\n      sload\n      dup2\n      mstore\n      swap1\n      0x01\n      add\n      swap1\n      0x20\n      add\n      dup1\n      dup4\n      gt\n      tag_604\n      jumpi\n      dup3\n      swap1\n      sub\n      0x1f\n      and\n      dup3\n      add\n      swap2\n    tag_602:\n      pop\n      pop\n      pop\n      swap2\n      dup4\n      mstore\n      pop\n      pop\n      0x04\n      dup3\n      add\n      sload\n      0x20\n      dup3\n      add\n      mstore\n      0x05\n      dup3\n      add\n      sload\n      0x40\n      dup3\n      add\n      mstore\n      0x06\n      swap1\n      swap2\n      add\n      sload\n      0xff\n      dup1\n      dup3\n      and\n      iszero\n      iszero\n      0x60\n      dup5\n      add\n      mstore\n      0x0100\n      swap1\n      swap2\n      div\n      and\n      iszero\n      iszero\n      0x80\n      swap1\n      swap2\n      add\n      mstore\n        /* \"smart-contracts/classroom/main/Canvassing_flattened.sol\":13641:13651  allSurveys */\n      0x03\n        /* \"smart-contracts/classroom/main/Canvassing_flattened.sol\":13641:13662  allSurveys[_surveyId] */\n      dup1\n      sload\n        /* \"smart-contracts/classroom/main/Canvassing_flattened.sol\":13496:13600  Participant memory currentParticipant = allParticipants[... */\n      swap2\n      swap3\n      pop\n      0x00\n      swap2\n        /* \"smart-contracts/classroom/main/Canvassing_flattened.sol\":13652:13661  _surveyId */\n      dup7\n      swap1\n        /* \"smart-contracts/classroom/main/Canvassing_flattened.sol\":13641:13662  allSurveys[_surveyId] */\n      dup2\n      lt\n      tag_606\n      jumpi\n      tag_606\n      tag_285\n      jump\t// in\n    tag_606:\n      swap1\n      0x00\n      mstore\n      keccak256(0x00, 0x20)\n      swap1\n      0x07\n      mul\n      add\n        /* \"smart-contracts/classroom/main/Canvassing_flattened.sol\":13611:13662  Survey memory currentSurvey = allSurveys[_surveyId] */\n      mload(0x40)\n      dup1\n      0xe0\n      add\n      0x40\n      mstore\n      swap1\n      dup2\n      0x00\n      dup3\n      add\n      sload\n      dup2\n      mstore\n      0x20\n      add\n      0x01\n      dup3\n      add\n      0x00\n      swap1\n      sload\n      swap1\n      0x0100\n      exp\n      swap1\n      div\n      sub(shl(0xa0, 0x01), 0x01)\n      and\n      sub(shl(0xa0, 0x01), 0x01)\n      and\n      sub(shl(0xa0, 0x01), 0x01)\n      and\n      dup2\n      mstore\n      0x20\n      add\n      0x02\n      dup3\n      add\n      dup1\n      sload\n      tag_608\n      swap1\n      tag_257\n      jump\t// in\n    tag_608:\n      dup1\n      0x1f\n      add\n      0x20\n      dup1\n      swap2\n      div\n      mul\n      0x20\n      add\n      mload(0x40)\n      swap1\n      dup2\n      add\n      0x40\n      mstore\n      dup1\n      swap3\n      swap2\n      swap1\n      dup2\n      dup2\n      mstore\n      0x20\n      add\n      dup3\n      dup1\n      sload\n      tag_609\n      swap1\n      tag_257\n      jump\t// in\n    tag_609:\n      dup1\n      iszero\n      tag_610\n      jumpi\n      dup1\n      0x1f\n      lt\n      tag_611\n      jumpi\n      0x0100\n      dup1\n      dup4\n      sload\n      div\n      mul\n      dup4\n      mstore\n      swap2\n      0x20\n      add\n      swap2\n      jump(tag_610)\n    tag_611:\n      dup3\n      add\n      swap2\n      swap1\n      0x00\n      mstore\n      keccak256(0x00, 0x20)\n      swap1\n    tag_612:\n      dup2\n      sload\n      dup2\n      mstore\n      swap1\n      0x01\n      add\n      swap1\n      0x20\n      add\n      dup1\n      dup4\n      gt\n      tag_612\n      jumpi\n      dup3\n      swap1\n      sub\n      0x1f\n      and\n      dup3\n      add\n      swap2\n    tag_610:\n      pop\n      pop\n      pop\n      swap2\n      dup4\n      mstore\n      pop\n      pop\n      0x03\n      dup3\n      add\n      sload\n      0x20\n      dup3\n      add\n      mstore\n      0x04\n      dup3\n      add\n      sload\n      0x40\n      dup3\n      add\n      mstore\n      0x05\n      dup3\n      add\n      sload\n      0x60\n      dup1\n      dup4\n      add\n      swap2\n      swap1\n      swap2\n      mstore\n      0x06\n      swap1\n      swap3\n      add\n      sload\n      0xff\n      and\n      iszero\n      iszero\n      0x80\n      swap1\n      swap2\n      add\n      mstore\n        /* \"smart-contracts/classroom/main/Canvassing_flattened.sol\":13707:13738  currentSurvey.numberOfQuestions */\n      dup2\n      add\n      mload\n        /* \"smart-contracts/classroom/main/Canvassing_flattened.sol\":13611:13662  Survey memory currentSurvey = allSurveys[_surveyId] */\n      swap1\n      swap2\n      pop\n      0x00\n        /* \"smart-contracts/classroom/main/Canvassing_flattened.sol\":13805:14367  for (... */\n    tag_613:\n        /* \"smart-contracts/classroom/main/Canvassing_flattened.sol\":13868:13891  numberOfExpectedAnswers */\n      dup2\n        /* \"smart-contracts/classroom/main/Canvassing_flattened.sol\":13857:13865  answerId */\n      dup2\n        /* \"smart-contracts/classroom/main/Canvassing_flattened.sol\":13857:13891  answerId < numberOfExpectedAnswers */\n      lt\n        /* \"smart-contracts/classroom/main/Canvassing_flattened.sol\":13805:14367  for (... */\n      iszero\n      tag_614\n      jumpi\n        /* \"smart-contracts/classroom/main/Canvassing_flattened.sol\":13940:13963  Answer memory newAnswer */\n      tag_616\n      tag_348\n      jump\t// in\n    tag_616:\n        /* \"smart-contracts/classroom/main/Canvassing_flattened.sol\":13999:14014  currentAnswerId */\n      sload(0x12)\n        /* \"smart-contracts/classroom/main/Canvassing_flattened.sol\":14028:14054  newAnswer.id = newAnswerId */\n      dup1\n      dup3\n      mstore\n        /* \"smart-contracts/classroom/main/Canvassing_flattened.sol\":14068:14088  newAnswer.questionId */\n      0x20\n      dup3\n      add\n        /* \"smart-contracts/classroom/main/Canvassing_flattened.sol\":14068:14099  newAnswer.questionId = answerId */\n      dup4\n      swap1\n      mstore\n        /* \"smart-contracts/classroom/main/Canvassing_flattened.sol\":14113:14131  newAnswer.surveyId */\n      0x40\n      dup3\n      add\n        /* \"smart-contracts/classroom/main/Canvassing_flattened.sol\":14113:14143  newAnswer.surveyId = _surveyId */\n      dup10\n      swap1\n      mstore\n      sub(shl(0xa0, 0x01), 0x01)\n        /* \"smart-contracts/classroom/main/Canvassing_flattened.sol\":14157:14219  newAnswer.participantWalletAddress = _participantWalletAddress */\n      dup9\n      and\n        /* \"smart-contracts/classroom/main/Canvassing_flattened.sol\":14157:14191  newAnswer.participantWalletAddress */\n      0x60\n      dup4\n      add\n        /* \"smart-contracts/classroom/main/Canvassing_flattened.sol\":14157:14219  newAnswer.participantWalletAddress = _participantWalletAddress */\n      mstore\n        /* \"smart-contracts/classroom/main/Canvassing_flattened.sol\":14251:14274  _answerValues[answerId] */\n      dup7\n      mload\n        /* \"smart-contracts/classroom/main/Canvassing_flattened.sol\":14251:14264  _answerValues */\n      dup8\n      swap1\n        /* \"smart-contracts/classroom/main/Canvassing_flattened.sol\":14091:14099  answerId */\n      dup5\n      swap1\n        /* \"smart-contracts/classroom/main/Canvassing_flattened.sol\":14251:14274  _answerValues[answerId] */\n      dup2\n      lt\n      tag_618\n      jumpi\n      tag_618\n      tag_285\n      jump\t// in\n    tag_618:\n      0x20\n      swap1\n      dup2\n      mul\n      swap2\n      swap1\n      swap2\n      add\n      dup2\n      add\n      mload\n        /* \"smart-contracts/classroom/main/Canvassing_flattened.sol\":14233:14274  newAnswer.value = _answerValues[answerId] */\n      iszero\n      iszero\n        /* \"smart-contracts/classroom/main/Canvassing_flattened.sol\":14233:14248  newAnswer.value */\n      0x80\n      dup5\n      add\n        /* \"smart-contracts/classroom/main/Canvassing_flattened.sol\":14233:14274  newAnswer.value = _answerValues[answerId] */\n      swap1\n      dup2\n      mstore\n        /* \"smart-contracts/classroom/main/Canvassing_flattened.sol\":14288:14309  allAnswers[_surveyId] */\n      0x00\n      dup12\n      dup2\n      mstore\n        /* \"smart-contracts/classroom/main/Canvassing_flattened.sol\":14288:14298  allAnswers */\n      0x05\n        /* \"smart-contracts/classroom/main/Canvassing_flattened.sol\":14288:14309  allAnswers[_surveyId] */\n      dup4\n      mstore\n      0x40\n      dup1\n      dup3\n      keccak256\n        /* \"smart-contracts/classroom/main/Canvassing_flattened.sol\":14288:14325  allAnswers[_surveyId].push(newAnswer) */\n      dup1\n      sload\n      0x01\n      dup2\n      dup2\n      add\n      dup4\n      sstore\n      swap2\n      dup5\n      mstore\n      dup6\n      dup5\n      keccak256\n      dup9\n      mload\n      0x04\n      swap1\n      swap3\n      mul\n      add\n      swap1\n      dup2\n      sstore\n      swap5\n      dup8\n      add\n      mload\n      swap1\n      dup6\n      add\n      sstore\n      dup6\n      add\n      mload\n      0x02\n      dup5\n      add\n      sstore\n      0x60\n      dup6\n      add\n      mload\n      0x03\n      swap1\n      swap4\n      add\n      dup1\n      sload\n      swap3\n      mload\n      0xa0\n      dup8\n      add\n      mload\n      iszero\n      iszero\n      shl(0xa8, 0x01)\n      mul\n      not(shl(0xa8, 0xff))\n      swap2\n      iszero\n      iszero\n      shl(0xa0, 0x01)\n      mul\n      not(sub(shl(0xa8, 0x01), 0x01))\n      swap1\n      swap6\n      and\n      sub(shl(0xa0, 0x01), 0x01)\n      swap1\n      swap7\n      and\n      swap6\n      swap1\n      swap6\n      or\n      swap4\n      swap1\n      swap4\n      or\n      swap3\n      swap1\n      swap3\n      and\n      swap3\n      swap1\n      swap3\n      or\n      swap1\n      sstore\n        /* \"smart-contracts/classroom/main/Canvassing_flattened.sol\":14339:14354  currentAnswerId */\n      0x12\n        /* \"smart-contracts/classroom/main/Canvassing_flattened.sol\":14339:14356  currentAnswerId++ */\n      dup1\n      sload\n      swap2\n      tag_620\n      dup4\n      tag_296\n      jump\t// in\n    tag_620:\n      swap2\n      swap1\n      pop\n      sstore\n      pop\n        /* \"smart-contracts/classroom/main/Canvassing_flattened.sol\":13926:14367  {... */\n      pop\n      pop\n        /* \"smart-contracts/classroom/main/Canvassing_flattened.sol\":13905:13915  answerId++ */\n      dup1\n      dup1\n      tag_621\n      swap1\n      tag_296\n      jump\t// in\n    tag_621:\n      swap2\n      pop\n      pop\n        /* \"smart-contracts/classroom/main/Canvassing_flattened.sol\":13805:14367  for (... */\n      jump(tag_613)\n    tag_614:\n      pop\n        /* \"smart-contracts/classroom/main/Canvassing_flattened.sol\":14450:14489  participationStatusForSurvey[_surveyId] */\n      0x00\n      dup7\n      dup2\n      mstore\n        /* \"smart-contracts/classroom/main/Canvassing_flattened.sol\":14450:14478  participationStatusForSurvey */\n      0x06\n        /* \"smart-contracts/classroom/main/Canvassing_flattened.sol\":14450:14489  participationStatusForSurvey[_surveyId] */\n      0x20\n      swap1\n      dup2\n      mstore\n      0x40\n      dup1\n      dup4\n      keccak256\n      sub(shl(0xa0, 0x01), 0x01)\n        /* \"smart-contracts/classroom/main/Canvassing_flattened.sol\":14450:14538  participationStatusForSurvey[_surveyId][... */\n      dup10\n      and\n      dup5\n      mstore\n      dup3\n      mstore\n      dup1\n      dup4\n      keccak256\n        /* \"smart-contracts/classroom/main/Canvassing_flattened.sol\":14450:14545  participationStatusForSurvey[_surveyId][... */\n      dup1\n      sload\n      not(0xff)\n      and\n        /* \"smart-contracts/classroom/main/Canvassing_flattened.sol\":14541:14545  true */\n      0x01\n        /* \"smart-contracts/classroom/main/Canvassing_flattened.sol\":14450:14545  participationStatusForSurvey[_surveyId][... */\n      or\n      swap1\n      sstore\n        /* \"smart-contracts/classroom/main/Canvassing_flattened.sol\":14628:14659  participantsOfSurvey[_surveyId] */\n      dup9\n      dup4\n      mstore\n        /* \"smart-contracts/classroom/main/Canvassing_flattened.sol\":14628:14648  participantsOfSurvey */\n      0x0b\n        /* \"smart-contracts/classroom/main/Canvassing_flattened.sol\":14628:14659  participantsOfSurvey[_surveyId] */\n      swap1\n      swap2\n      mstore\n      swap1\n      keccak256\n        /* \"smart-contracts/classroom/main/Canvassing_flattened.sol\":14678:14734  getParticipantByWalletAddress(_participantWalletAddress) */\n      tag_622\n        /* \"smart-contracts/classroom/main/Canvassing_flattened.sol\":14503:14528  _participantWalletAddress */\n      dup7\n        /* \"smart-contracts/classroom/main/Canvassing_flattened.sol\":14678:14707  getParticipantByWalletAddress */\n      tag_92\n        /* \"smart-contracts/classroom/main/Canvassing_flattened.sol\":14678:14734  getParticipantByWalletAddress(_participantWalletAddress) */\n      jump\t// in\n    tag_622:\n        /* \"smart-contracts/classroom/main/Canvassing_flattened.sol\":14628:14744  participantsOfSurvey[_surveyId].push(... */\n      dup2\n      sload\n      0x01\n      dup1\n      dup3\n      add\n      dup5\n      sstore\n      0x00\n      swap4\n      dup5\n      mstore\n      0x20\n      swap4\n      dup5\n      swap1\n      keccak256\n      dup4\n      mload\n      0x07\n      swap1\n      swap4\n      mul\n      add\n      swap2\n      dup3\n      sstore\n      swap3\n      dup3\n      add\n      mload\n      swap3\n      dup2\n      add\n      dup1\n      sload\n      not(sub(shl(0xa0, 0x01), 0x01))\n      and\n      sub(shl(0xa0, 0x01), 0x01)\n      swap1\n      swap5\n      and\n      swap4\n      swap1\n      swap4\n      or\n      swap1\n      swap3\n      sstore\n      0x40\n      dup2\n      add\n      mload\n      swap1\n      swap2\n      swap1\n      0x02\n      dup3\n      add\n      swap1\n      tag_624\n      swap1\n      dup3\n      tag_436\n      jump\t// in\n    tag_624:\n      pop\n      0x60\n      dup3\n      add\n      mload\n      0x03\n      dup3\n      add\n      swap1\n      tag_625\n      swap1\n      dup3\n      tag_436\n      jump\t// in\n    tag_625:\n      pop\n      0x80\n      dup3\n      add\n      mload\n      0x04\n      dup3\n      add\n      sstore\n      0xa0\n      dup1\n      dup4\n      add\n      mload\n      0x05\n      dup4\n      add\n      sstore\n      0xc0\n      dup4\n      add\n      mload\n      0x06\n      swap1\n      swap3\n      add\n      dup1\n      sload\n      0xe0\n      swap1\n      swap5\n      add\n      mload\n      iszero\n      iszero\n      0x0100\n      mul\n      not(0xff00)\n      swap4\n      iszero\n      iszero\n      swap4\n      swap1\n      swap4\n      and\n      not(0xffff)\n      swap1\n      swap5\n      and\n      swap4\n      swap1\n      swap4\n      or\n      swap2\n      swap1\n      swap2\n      or\n      swap1\n      swap2\n      sstore\n        /* \"smart-contracts/classroom/main/Canvassing_flattened.sol\":14842:14886  currentParticipant.totalNumberOfSurveysTaken */\n      dup4\n      add\n        /* \"smart-contracts/classroom/main/Canvassing_flattened.sol\":14842:14891  currentParticipant.totalNumberOfSurveysTaken += 1 */\n      dup1\n      mload\n        /* \"smart-contracts/classroom/main/Canvassing_flattened.sol\":14628:14744  participantsOfSurvey[_surveyId].push(... */\n      0x01\n      swap2\n        /* \"smart-contracts/classroom/main/Canvassing_flattened.sol\":14842:14886  currentParticipant.totalNumberOfSurveysTaken */\n      swap1\n        /* \"smart-contracts/classroom/main/Canvassing_flattened.sol\":14842:14891  currentParticipant.totalNumberOfSurveysTaken += 1 */\n      tag_626\n      swap1\n        /* \"smart-contracts/classroom/main/Canvassing_flattened.sol\":14628:14744  participantsOfSurvey[_surveyId].push(... */\n      dup4\n      swap1\n        /* \"smart-contracts/classroom/main/Canvassing_flattened.sol\":14842:14891  currentParticipant.totalNumberOfSurveysTaken += 1 */\n      tag_243\n      jump\t// in\n    tag_626:\n      swap1\n      mstore\n      pop\n      sub(shl(0xa0, 0x01), 0x01)\n        /* \"smart-contracts/classroom/main/Canvassing_flattened.sol\":14939:14981  allParticipants[_participantWalletAddress] */\n      dup6\n      dup2\n      and\n      0x00\n      swap1\n      dup2\n      mstore\n        /* \"smart-contracts/classroom/main/Canvassing_flattened.sol\":14939:14954  allParticipants */\n      0x02\n        /* \"smart-contracts/classroom/main/Canvassing_flattened.sol\":14939:14981  allParticipants[_participantWalletAddress] */\n      0x20\n      dup2\n      dup2\n      mstore\n      0x40\n      swap3\n      dup4\n      swap1\n      keccak256\n        /* \"smart-contracts/classroom/main/Canvassing_flattened.sol\":14939:15002  allParticipants[_participantWalletAddress] = currentParticipant */\n      dup8\n      mload\n      dup2\n      sstore\n      swap1\n      dup8\n      add\n      mload\n      0x01\n      dup3\n      add\n      dup1\n      sload\n      not(sub(shl(0xa0, 0x01), 0x01))\n      and\n      swap2\n      swap1\n      swap6\n      and\n      or\n      swap1\n      swap4\n      sstore\n      swap1\n      dup6\n      add\n      mload\n      dup6\n      swap3\n        /* \"smart-contracts/classroom/main/Canvassing_flattened.sol\":14939:14981  allParticipants[_participantWalletAddress] */\n      swap2\n        /* \"smart-contracts/classroom/main/Canvassing_flattened.sol\":14939:15002  allParticipants[_participantWalletAddress] = currentParticipant */\n      dup3\n      add\n      swap1\n      tag_627\n      swap1\n      dup3\n      tag_436\n      jump\t// in\n    tag_627:\n      pop\n      0x60\n      dup3\n      add\n      mload\n      0x03\n      dup3\n      add\n      swap1\n      tag_628\n      swap1\n      dup3\n      tag_436\n      jump\t// in\n    tag_628:\n      pop\n      0x80\n      dup3\n      add\n      mload\n      0x04\n      dup3\n      add\n      sstore\n      0xa0\n      dup3\n      add\n      mload\n      0x05\n      dup3\n      add\n      sstore\n      0xc0\n      dup3\n      add\n      mload\n      0x06\n      swap1\n      swap2\n      add\n      dup1\n      sload\n      0xe0\n      swap1\n      swap4\n      add\n      mload\n      iszero\n      iszero\n      0x0100\n      mul\n      not(0xff00)\n      swap3\n      iszero\n      iszero\n      swap3\n      swap1\n      swap3\n      and\n      not(0xffff)\n      swap1\n      swap4\n      and\n      swap3\n      swap1\n      swap3\n      or\n      or\n      swap1\n      sstore\n      pop\n      pop\n      pop\n      pop\n      pop\n      pop\n        /* \"smart-contracts/classroom/main/Canvassing_flattened.sol\":13337:15009  function participateInSurvey(... */\n      jump\t// out\n        /* \"smart-contracts/classroom/main/Canvassing_flattened.sol\":24348:24506  function getAnswersOfSurvey(uint256 _surveyId)... */\n    tag_214:\n        /* \"smart-contracts/classroom/main/Canvassing_flattened.sol\":24440:24455  Answer[] memory */\n      0x60\n        /* \"smart-contracts/classroom/main/Canvassing_flattened.sol\":24478:24488  allAnswers */\n      0x05\n        /* \"smart-contracts/classroom/main/Canvassing_flattened.sol\":24478:24499  allAnswers[_surveyId] */\n      0x00\n        /* \"smart-contracts/classroom/main/Canvassing_flattened.sol\":24489:24498  _surveyId */\n      dup4\n        /* \"smart-contracts/classroom/main/Canvassing_flattened.sol\":24478:24499  allAnswers[_surveyId] */\n      dup2\n      mstore\n      0x20\n      add\n      swap1\n      dup2\n      mstore\n      0x20\n      add\n      0x00\n      keccak256\n        /* \"smart-contracts/classroom/main/Canvassing_flattened.sol\":24471:24499  return allAnswers[_surveyId] */\n      dup1\n      sload\n      dup1\n      0x20\n      mul\n      0x20\n      add\n      mload(0x40)\n      swap1\n      dup2\n      add\n      0x40\n      mstore\n      dup1\n      swap3\n      swap2\n      swap1\n      dup2\n      dup2\n      mstore\n      0x20\n      add\n      0x00\n      swap1\n    tag_630:\n      dup3\n      dup3\n      lt\n      iszero\n      tag_561\n      jumpi\n      0x00\n      dup5\n      dup2\n      mstore\n      0x20\n      swap1\n      dup2\n      swap1\n      keccak256\n      0x40\n      dup1\n      mload\n      0xc0\n      dup2\n      add\n      dup3\n      mstore\n      0x04\n      dup7\n      mul\n      swap1\n      swap3\n      add\n      dup1\n      sload\n      dup4\n      mstore\n      0x01\n      dup1\n      dup3\n      add\n      sload\n      dup5\n      dup7\n      add\n      mstore\n      0x02\n      dup3\n      add\n      sload\n      swap3\n      dup5\n      add\n      swap3\n      swap1\n      swap3\n      mstore\n      0x03\n      add\n      sload\n      sub(shl(0xa0, 0x01), 0x01)\n      dup2\n      and\n      0x60\n      dup5\n      add\n      mstore\n      0xff\n      shl(0xa0, 0x01)\n      dup3\n      div\n      dup2\n      and\n      iszero\n      iszero\n      0x80\n      dup6\n      add\n      mstore\n      shl(0xa8, 0x01)\n      swap1\n      swap2\n      div\n      and\n      iszero\n      iszero\n      0xa0\n      dup4\n      add\n      mstore\n      swap1\n      dup4\n      mstore\n      swap1\n      swap3\n      add\n      swap2\n      add\n      jump(tag_630)\n        /* \"smart-contracts/classroom/main/Canvassing_flattened.sol\":24178:24342  function getQuestionsOfSurvey(uint256 _surveyId)... */\n    tag_222:\n        /* \"smart-contracts/classroom/main/Canvassing_flattened.sol\":24272:24289  Question[] memory */\n      0x60\n        /* \"smart-contracts/classroom/main/Canvassing_flattened.sol\":24312:24324  allQuestions */\n      0x04\n        /* \"smart-contracts/classroom/main/Canvassing_flattened.sol\":24312:24335  allQuestions[_surveyId] */\n      0x00\n        /* \"smart-contracts/classroom/main/Canvassing_flattened.sol\":24325:24334  _surveyId */\n      dup4\n        /* \"smart-contracts/classroom/main/Canvassing_flattened.sol\":24312:24335  allQuestions[_surveyId] */\n      dup2\n      mstore\n      0x20\n      add\n      swap1\n      dup2\n      mstore\n      0x20\n      add\n      0x00\n      keccak256\n        /* \"smart-contracts/classroom/main/Canvassing_flattened.sol\":24305:24335  return allQuestions[_surveyId] */\n      dup1\n      sload\n      dup1\n      0x20\n      mul\n      0x20\n      add\n      mload(0x40)\n      swap1\n      dup2\n      add\n      0x40\n      mstore\n      dup1\n      swap3\n      swap2\n      swap1\n      dup2\n      dup2\n      mstore\n      0x20\n      add\n      0x00\n      swap1\n    tag_634:\n      dup3\n      dup3\n      lt\n      iszero\n      tag_561\n      jumpi\n      dup4\n      dup3\n      swap1\n      0x00\n      mstore\n      keccak256(0x00, 0x20)\n      swap1\n      0x04\n      mul\n      add\n      mload(0x40)\n      dup1\n      0x80\n      add\n      0x40\n      mstore\n      swap1\n      dup2\n      0x00\n      dup3\n      add\n      sload\n      dup2\n      mstore\n      0x20\n      add\n      0x01\n      dup3\n      add\n      sload\n      dup2\n      mstore\n      0x20\n      add\n      0x02\n      dup3\n      add\n      dup1\n      sload\n      tag_637\n      swap1\n      tag_257\n      jump\t// in\n    tag_637:\n      dup1\n      0x1f\n      add\n      0x20\n      dup1\n      swap2\n      div\n      mul\n      0x20\n      add\n      mload(0x40)\n      swap1\n      dup2\n      add\n      0x40\n      mstore\n      dup1\n      swap3\n      swap2\n      swap1\n      dup2\n      dup2\n      mstore\n      0x20\n      add\n      dup3\n      dup1\n      sload\n      tag_638\n      swap1\n      tag_257\n      jump\t// in\n    tag_638:\n      dup1\n      iszero\n      tag_639\n      jumpi\n      dup1\n      0x1f\n      lt\n      tag_640\n      jumpi\n      0x0100\n      dup1\n      dup4\n      sload\n      div\n      mul\n      dup4\n      mstore\n      swap2\n      0x20\n      add\n      swap2\n      jump(tag_639)\n    tag_640:\n      dup3\n      add\n      swap2\n      swap1\n      0x00\n      mstore\n      keccak256(0x00, 0x20)\n      swap1\n    tag_641:\n      dup2\n      sload\n      dup2\n      mstore\n      swap1\n      0x01\n      add\n      swap1\n      0x20\n      add\n      dup1\n      dup4\n      gt\n      tag_641\n      jumpi\n      dup3\n      swap1\n      sub\n      0x1f\n      and\n      dup3\n      add\n      swap2\n    tag_639:\n      pop\n      pop\n      pop\n      swap2\n      dup4\n      mstore\n      pop\n      pop\n      0x03\n      swap2\n      swap1\n      swap2\n      add\n      sload\n      0xff\n      and\n      iszero\n      iszero\n      0x20\n      swap2\n      dup3\n      add\n      mstore\n      swap1\n      dup3\n      mstore\n      0x01\n      swap3\n      swap1\n      swap3\n      add\n      swap2\n      add\n      jump(tag_634)\n        /* \"smart-contracts/classroom/main/Canvassing_flattened.sol\":9506:9673  function getAllQuestionsOfSurvey(uint256 _surveyId)... */\n    tag_227:\n        /* \"smart-contracts/classroom/main/Canvassing_flattened.sol\":9603:9620  Question[] memory */\n      0x60\n        /* \"smart-contracts/classroom/main/Canvassing_flattened.sol\":9643:9655  allQuestions */\n      0x04\n        /* \"smart-contracts/classroom/main/Canvassing_flattened.sol\":9643:9666  allQuestions[_surveyId] */\n      0x00\n        /* \"smart-contracts/classroom/main/Canvassing_flattened.sol\":9656:9665  _surveyId */\n      dup4\n        /* \"smart-contracts/classroom/main/Canvassing_flattened.sol\":9643:9666  allQuestions[_surveyId] */\n      dup2\n      mstore\n      0x20\n      add\n      swap1\n      dup2\n      mstore\n      0x20\n      add\n      0x00\n      keccak256\n        /* \"smart-contracts/classroom/main/Canvassing_flattened.sol\":9636:9666  return allQuestions[_surveyId] */\n      dup1\n      sload\n      dup1\n      0x20\n      mul\n      0x20\n      add\n      mload(0x40)\n      swap1\n      dup2\n      add\n      0x40\n      mstore\n      dup1\n      swap3\n      swap2\n      swap1\n      dup2\n      dup2\n      mstore\n      0x20\n      add\n      0x00\n      swap1\n    tag_643:\n      dup3\n      dup3\n      lt\n      iszero\n      tag_561\n      jumpi\n      dup4\n      dup3\n      swap1\n      0x00\n      mstore\n      keccak256(0x00, 0x20)\n      swap1\n      0x04\n      mul\n      add\n      mload(0x40)\n      dup1\n      0x80\n      add\n      0x40\n      mstore\n      swap1\n      dup2\n      0x00\n      dup3\n      add\n      sload\n      dup2\n      mstore\n      0x20\n      add\n      0x01\n      dup3\n      add\n      sload\n      dup2\n      mstore\n      0x20\n      add\n      0x02\n      dup3\n      add\n      dup1\n      sload\n      tag_646\n      swap1\n      tag_257\n      jump\t// in\n    tag_646:\n      dup1\n      0x1f\n      add\n      0x20\n      dup1\n      swap2\n      div\n      mul\n      0x20\n      add\n      mload(0x40)\n      swap1\n      dup2\n      add\n      0x40\n      mstore\n      dup1\n      swap3\n      swap2\n      swap1\n      dup2\n      dup2\n      mstore\n      0x20\n      add\n      dup3\n      dup1\n      sload\n      tag_647\n      swap1\n      tag_257\n      jump\t// in\n    tag_647:\n      dup1\n      iszero\n      tag_648\n      jumpi\n      dup1\n      0x1f\n      lt\n      tag_649\n      jumpi\n      0x0100\n      dup1\n      dup4\n      sload\n      div\n      mul\n      dup4\n      mstore\n      swap2\n      0x20\n      add\n      swap2\n      jump(tag_648)\n    tag_649:\n      dup3\n      add\n      swap2\n      swap1\n      0x00\n      mstore\n      keccak256(0x00, 0x20)\n      swap1\n    tag_650:\n      dup2\n      sload\n      dup2\n      mstore\n      swap1\n      0x01\n      add\n      swap1\n      0x20\n      add\n      dup1\n      dup4\n      gt\n      tag_650\n      jumpi\n      dup3\n      swap1\n      sub\n      0x1f\n      and\n      dup3\n      add\n      swap2\n    tag_648:\n      pop\n      pop\n      pop\n      swap2\n      dup4\n      mstore\n      pop\n      pop\n      0x03\n      swap2\n      swap1\n      swap2\n      add\n      sload\n      0xff\n      and\n      iszero\n      iszero\n      0x20\n      swap2\n      dup3\n      add\n      mstore\n      swap1\n      dup3\n      mstore\n      0x01\n      swap3\n      swap1\n      swap3\n      add\n      swap2\n      add\n      jump(tag_643)\n        /* \"smart-contracts/classroom/main/Canvassing_flattened.sol\":3102:3154  mapping(address => Researcher) public allResearchers */\n    tag_231:\n      0x01\n      0x20\n      dup2\n      swap1\n      mstore\n      0x00\n      swap2\n      dup3\n      mstore\n      0x40\n      swap1\n      swap2\n      keccak256\n      dup1\n      sload\n      swap2\n      dup2\n      add\n      sload\n      0x02\n      dup3\n      add\n      dup1\n      sload\n      sub(shl(0xa0, 0x01), 0x01)\n      swap1\n      swap3\n      and\n      swap3\n      swap2\n      tag_651\n      swap1\n      tag_257\n      jump\t// in\n    tag_651:\n      dup1\n      0x1f\n      add\n      0x20\n      dup1\n      swap2\n      div\n      mul\n      0x20\n      add\n      mload(0x40)\n      swap1\n      dup2\n      add\n      0x40\n      mstore\n      dup1\n      swap3\n      swap2\n      swap1\n      dup2\n      dup2\n      mstore\n      0x20\n      add\n      dup3\n      dup1\n      sload\n      tag_652\n      swap1\n      tag_257\n      jump\t// in\n    tag_652:\n      dup1\n      iszero\n      tag_653\n      jumpi\n      dup1\n      0x1f\n      lt\n      tag_654\n      jumpi\n      0x0100\n      dup1\n      dup4\n      sload\n      div\n      mul\n      dup4\n      mstore\n      swap2\n      0x20\n      add\n      swap2\n      jump(tag_653)\n    tag_654:\n      dup3\n      add\n      swap2\n      swap1\n      0x00\n      mstore\n      keccak256(0x00, 0x20)\n      swap1\n    tag_655:\n      dup2\n      sload\n      dup2\n      mstore\n      swap1\n      0x01\n      add\n      swap1\n      0x20\n      add\n      dup1\n      dup4\n      gt\n      tag_655\n      jumpi\n      dup3\n      swap1\n      sub\n      0x1f\n      and\n      dup3\n      add\n      swap2\n    tag_653:\n      pop\n      pop\n      pop\n      pop\n      pop\n      swap1\n      dup1\n      0x03\n      add\n      dup1\n      sload\n      tag_656\n      swap1\n      tag_257\n      jump\t// in\n    tag_656:\n      dup1\n      0x1f\n      add\n      0x20\n      dup1\n      swap2\n      div\n      mul\n      0x20\n      add\n      mload(0x40)\n      swap1\n      dup2\n      add\n      0x40\n      mstore\n      dup1\n      swap3\n      swap2\n      swap1\n      dup2\n      dup2\n      mstore\n      0x20\n      add\n      dup3\n      dup1\n      sload\n      tag_657\n      swap1\n      tag_257\n      jump\t// in\n    tag_657:\n      dup1\n      iszero\n      tag_658\n      jumpi\n      dup1\n      0x1f\n      lt\n      tag_659\n      jumpi\n      0x0100\n      dup1\n      dup4\n      sload\n      div\n      mul\n      dup4\n      mstore\n      swap2\n      0x20\n      add\n      swap2\n      jump(tag_658)\n    tag_659:\n      dup3\n      add\n      swap2\n      swap1\n      0x00\n      mstore\n      keccak256(0x00, 0x20)\n      swap1\n    tag_660:\n      dup2\n      sload\n      dup2\n      mstore\n      swap1\n      0x01\n      add\n      swap1\n      0x20\n      add\n      dup1\n      dup4\n      gt\n      tag_660\n      jumpi\n      dup3\n      swap1\n      sub\n      0x1f\n      and\n      dup3\n      add\n      swap2\n    tag_658:\n      pop\n      pop\n      pop\n      pop\n      pop\n      swap1\n      dup1\n      0x04\n      add\n      dup1\n      sload\n      tag_661\n      swap1\n      tag_257\n      jump\t// in\n    tag_661:\n      dup1\n      0x1f\n      add\n      0x20\n      dup1\n      swap2\n      div\n      mul\n      0x20\n      add\n      mload(0x40)\n      swap1\n      dup2\n      add\n      0x40\n      mstore\n      dup1\n      swap3\n      swap2\n      swap1\n      dup2\n      dup2\n      mstore\n      0x20\n      add\n      dup3\n      dup1\n      sload\n      tag_662\n      swap1\n      tag_257\n      jump\t// in\n    tag_662:\n      dup1\n      iszero\n      tag_663\n      jumpi\n      dup1\n      0x1f\n      lt\n      tag_664\n      jumpi\n      0x0100\n      dup1\n      dup4\n      sload\n      div\n      mul\n      dup4\n      mstore\n      swap2\n      0x20\n      add\n      swap2\n      jump(tag_663)\n    tag_664:\n      dup3\n      add\n      swap2\n      swap1\n      0x00\n      mstore\n      keccak256(0x00, 0x20)\n      swap1\n    tag_665:\n      dup2\n      sload\n      dup2\n      mstore\n      swap1\n      0x01\n      add\n      swap1\n      0x20\n      add\n      dup1\n      dup4\n      gt\n      tag_665\n      jumpi\n      dup3\n      swap1\n      sub\n      0x1f\n      and\n      dup3\n      add\n      swap2\n    tag_663:\n      pop\n      pop\n      pop\n      0x05\n      swap1\n      swap4\n      add\n      sload\n      swap2\n      swap3\n      pop\n      pop\n      0xff\n      dup1\n      dup3\n      and\n      swap2\n      0x0100\n      dup2\n      div\n      dup3\n      and\n      swap2\n      0x010000\n      swap1\n      swap2\n      div\n      and\n      dup9\n      jump\t// out\n        /* \"smart-contracts/classroom/main/Canvassing_flattened.sol\":3328:3378  mapping(uint256 => Question[]) public allQuestions */\n    tag_236:\n      mstore(0x20, 0x04)\n      dup2\n      0x00\n      mstore\n      keccak256(0x00, 0x40)\n      dup2\n      dup2\n      sload\n      dup2\n      lt\n      tag_666\n      jumpi\n      0x00\n      dup1\n      revert\n    tag_666:\n      swap1\n      0x00\n      mstore\n      keccak256(0x00, 0x20)\n      swap1\n      0x04\n      mul\n      add\n      0x00\n      swap2\n      pop\n      swap2\n      pop\n      pop\n      dup1\n      0x00\n      add\n      sload\n      swap1\n      dup1\n      0x01\n      add\n      sload\n      swap1\n      dup1\n      0x02\n      add\n      dup1\n      sload\n      tag_668\n      swap1\n      tag_257\n      jump\t// in\n    tag_668:\n      dup1\n      0x1f\n      add\n      0x20\n      dup1\n      swap2\n      div\n      mul\n      0x20\n      add\n      mload(0x40)\n      swap1\n      dup2\n      add\n      0x40\n      mstore\n      dup1\n      swap3\n      swap2\n      swap1\n      dup2\n      dup2\n      mstore\n      0x20\n      add\n      dup3\n      dup1\n      sload\n      tag_669\n      swap1\n      tag_257\n      jump\t// in\n    tag_669:\n      dup1\n      iszero\n      tag_670\n      jumpi\n      dup1\n      0x1f\n      lt\n      tag_671\n      jumpi\n      0x0100\n      dup1\n      dup4\n      sload\n      div\n      mul\n      dup4\n      mstore\n      swap2\n      0x20\n      add\n      swap2\n      jump(tag_670)\n    tag_671:\n      dup3\n      add\n      swap2\n      swap1\n      0x00\n      mstore\n      keccak256(0x00, 0x20)\n      swap1\n    tag_672:\n      dup2\n      sload\n      dup2\n      mstore\n      swap1\n      0x01\n      add\n      swap1\n      0x20\n      add\n      dup1\n      dup4\n      gt\n      tag_672\n      jumpi\n      dup3\n      swap1\n      sub\n      0x1f\n      and\n      dup3\n      add\n      swap2\n    tag_670:\n      pop\n      pop\n      pop\n      0x03\n      swap1\n      swap4\n      add\n      sload\n      swap2\n      swap3\n      pop\n      pop\n      0xff\n      and\n      dup5\n      jump\t// out\n    tag_254:\n      mload(0x40)\n      dup1\n      0x0100\n      add\n      0x40\n      mstore\n      dup1\n      0x00\n      dup2\n      mstore\n      0x20\n      add\n      and(sub(shl(0xa0, 0x01), 0x01), 0x00)\n      dup2\n      mstore\n      0x20\n      add\n      0x60\n      dup2\n      mstore\n      0x20\n      add\n      0x60\n      dup2\n      mstore\n      0x20\n      add\n      0x60\n      dup2\n      mstore\n      0x20\n      add\n      iszero(iszero(0x00))\n      dup2\n      mstore\n      0x20\n      add\n      iszero(iszero(0x00))\n      dup2\n      mstore\n      0x20\n      add\n      iszero(iszero(0x00))\n      dup2\n      mstore\n      pop\n      swap1\n      jump\t// out\n    tag_279:\n      mload(0x40)\n      dup1\n      0xe0\n      add\n      0x40\n      mstore\n      dup1\n      0x00\n      dup2\n      mstore\n      0x20\n      add\n      and(sub(shl(0xa0, 0x01), 0x01), 0x00)\n      dup2\n      mstore\n      0x20\n      add\n      0x60\n      dup2\n      mstore\n      0x20\n      add\n      0x00\n      dup2\n      mstore\n      0x20\n      add\n      0x00\n      dup2\n      mstore\n      0x20\n      add\n      0x00\n      dup2\n      mstore\n      0x20\n      add\n      iszero(iszero(0x00))\n      dup2\n      mstore\n      pop\n      swap1\n      jump\t// out\n    tag_348:\n      mload(0x40)\n      dup1\n      0xc0\n      add\n      0x40\n      mstore\n      dup1\n      0x00\n      dup2\n      mstore\n      0x20\n      add\n      0x00\n      dup2\n      mstore\n      0x20\n      add\n      0x00\n      dup2\n      mstore\n      0x20\n      add\n      and(sub(shl(0xa0, 0x01), 0x01), 0x00)\n      dup2\n      mstore\n      0x20\n      add\n      iszero(iszero(0x00))\n      dup2\n      mstore\n      0x20\n      add\n      iszero(iszero(0x00))\n      dup2\n      mstore\n      pop\n      swap1\n      jump\t// out\n    tag_361:\n      mload(0x40)\n      dup1\n      0x0100\n      add\n      0x40\n      mstore\n      dup1\n      0x00\n      dup2\n      mstore\n      0x20\n      add\n      and(sub(shl(0xa0, 0x01), 0x01), 0x00)\n      dup2\n      mstore\n      0x20\n      add\n      0x60\n      dup2\n      mstore\n      0x20\n      add\n      0x60\n      dup2\n      mstore\n      0x20\n      add\n      0x00\n      dup2\n      mstore\n      0x20\n      add\n      0x00\n      dup2\n      mstore\n      0x20\n      add\n      iszero(iszero(0x00))\n      dup2\n      mstore\n      0x20\n      add\n      iszero(iszero(0x00))\n      dup2\n      mstore\n      pop\n      swap1\n      jump\t// out\n    tag_379:\n      mload(0x40)\n      dup1\n      0xa0\n      add\n      0x40\n      mstore\n      dup1\n      0x00\n      dup2\n      mstore\n      0x20\n      add\n      0x00\n      dup2\n      mstore\n      0x20\n      add\n      and(sub(shl(0xa0, 0x01), 0x01), 0x00)\n      dup2\n      mstore\n      0x20\n      add\n      0x00\n      dup2\n      mstore\n      0x20\n      add\n      iszero(iszero(0x00))\n      dup2\n      mstore\n      pop\n      swap1\n      jump\t// out\n        /* \"#utility.yul\":14:262   */\n    tag_54:\n        /* \"#utility.yul\":82:88   */\n      0x00\n        /* \"#utility.yul\":90:96   */\n      dup1\n        /* \"#utility.yul\":143:145   */\n      0x40\n        /* \"#utility.yul\":131:140   */\n      dup4\n        /* \"#utility.yul\":122:129   */\n      dup6\n        /* \"#utility.yul\":118:141   */\n      sub\n        /* \"#utility.yul\":114:146   */\n      slt\n        /* \"#utility.yul\":111:163   */\n      iszero\n      tag_689\n      jumpi\n        /* \"#utility.yul\":159:160   */\n      0x00\n        /* \"#utility.yul\":156:157   */\n      dup1\n        /* \"#utility.yul\":149:161   */\n      revert\n        /* \"#utility.yul\":111:163   */\n    tag_689:\n      pop\n      pop\n        /* \"#utility.yul\":182:205   */\n      dup1\n      calldataload\n      swap3\n        /* \"#utility.yul\":252:254   */\n      0x20\n        /* \"#utility.yul\":237:255   */\n      swap1\n      swap2\n      add\n        /* \"#utility.yul\":224:256   */\n      calldataload\n      swap2\n      pop\n        /* \"#utility.yul\":14:262   */\n      jump\t// out\n        /* \"#utility.yul\":449:622   */\n    tag_673:\n        /* \"#utility.yul\":517:537   */\n      dup1\n      calldataload\n      sub(shl(0xa0, 0x01), 0x01)\n        /* \"#utility.yul\":566:597   */\n      dup2\n      and\n        /* \"#utility.yul\":556:598   */\n      dup2\n      eq\n        /* \"#utility.yul\":546:616   */\n      tag_692\n      jumpi\n        /* \"#utility.yul\":612:613   */\n      0x00\n        /* \"#utility.yul\":609:610   */\n      dup1\n        /* \"#utility.yul\":602:614   */\n      revert\n        /* \"#utility.yul\":546:616   */\n    tag_692:\n        /* \"#utility.yul\":449:622   */\n      swap2\n      swap1\n      pop\n      jump\t// out\n        /* \"#utility.yul\":627:813   */\n    tag_60:\n        /* \"#utility.yul\":686:692   */\n      0x00\n        /* \"#utility.yul\":739:741   */\n      0x20\n        /* \"#utility.yul\":727:736   */\n      dup3\n        /* \"#utility.yul\":718:725   */\n      dup5\n        /* \"#utility.yul\":714:737   */\n      sub\n        /* \"#utility.yul\":710:742   */\n      slt\n        /* \"#utility.yul\":707:759   */\n      iszero\n      tag_694\n      jumpi\n        /* \"#utility.yul\":755:756   */\n      0x00\n        /* \"#utility.yul\":752:753   */\n      dup1\n        /* \"#utility.yul\":745:757   */\n      revert\n        /* \"#utility.yul\":707:759   */\n    tag_694:\n        /* \"#utility.yul\":778:807   */\n      tag_695\n        /* \"#utility.yul\":797:806   */\n      dup3\n        /* \"#utility.yul\":778:807   */\n      tag_673\n      jump\t// in\n    tag_695:\n        /* \"#utility.yul\":768:807   */\n      swap4\n        /* \"#utility.yul\":627:813   */\n      swap3\n      pop\n      pop\n      pop\n      jump\t// out\n        /* \"#utility.yul\":927:1350   */\n    tag_675:\n        /* \"#utility.yul\":969:972   */\n      0x00\n        /* \"#utility.yul\":1007:1012   */\n      dup2\n        /* \"#utility.yul\":1001:1013   */\n      mload\n        /* \"#utility.yul\":1034:1040   */\n      dup1\n        /* \"#utility.yul\":1029:1032   */\n      dup5\n        /* \"#utility.yul\":1022:1041   */\n      mstore\n        /* \"#utility.yul\":1059:1060   */\n      0x00\n        /* \"#utility.yul\":1069:1231   */\n    tag_698:\n        /* \"#utility.yul\":1083:1089   */\n      dup2\n        /* \"#utility.yul\":1080:1081   */\n      dup2\n        /* \"#utility.yul\":1077:1090   */\n      lt\n        /* \"#utility.yul\":1069:1231   */\n      iszero\n      tag_700\n      jumpi\n        /* \"#utility.yul\":1145:1149   */\n      0x20\n        /* \"#utility.yul\":1201:1214   */\n      dup2\n      dup6\n      add\n        /* \"#utility.yul\":1197:1219   */\n      dup2\n      add\n        /* \"#utility.yul\":1191:1220   */\n      mload\n        /* \"#utility.yul\":1173:1184   */\n      dup7\n      dup4\n      add\n        /* \"#utility.yul\":1169:1189   */\n      dup3\n      add\n        /* \"#utility.yul\":1162:1221   */\n      mstore\n        /* \"#utility.yul\":1098:1110   */\n      add\n        /* \"#utility.yul\":1069:1231   */\n      jump(tag_698)\n    tag_700:\n        /* \"#utility.yul\":1073:1076   */\n      pop\n        /* \"#utility.yul\":1276:1277   */\n      0x00\n        /* \"#utility.yul\":1269:1273   */\n      0x20\n        /* \"#utility.yul\":1260:1266   */\n      dup3\n        /* \"#utility.yul\":1255:1258   */\n      dup7\n        /* \"#utility.yul\":1251:1267   */\n      add\n        /* \"#utility.yul\":1247:1274   */\n      add\n        /* \"#utility.yul\":1240:1278   */\n      mstore\n        /* \"#utility.yul\":1339:1343   */\n      0x20\n        /* \"#utility.yul\":1332:1334   */\n      0x1f\n        /* \"#utility.yul\":1328:1335   */\n      not\n        /* \"#utility.yul\":1323:1325   */\n      0x1f\n        /* \"#utility.yul\":1315:1321   */\n      dup4\n        /* \"#utility.yul\":1311:1326   */\n      add\n        /* \"#utility.yul\":1307:1336   */\n      and\n        /* \"#utility.yul\":1302:1305   */\n      dup6\n        /* \"#utility.yul\":1298:1337   */\n      add\n        /* \"#utility.yul\":1294:1344   */\n      add\n        /* \"#utility.yul\":1287:1344   */\n      swap2\n      pop\n      pop\n        /* \"#utility.yul\":927:1350   */\n      swap3\n      swap2\n      pop\n      pop\n      jump\t// out\n        /* \"#utility.yul\":1451:2763   */\n    tag_63:\n        /* \"#utility.yul\":1632:1634   */\n      0x20\n        /* \"#utility.yul\":1621:1630   */\n      dup2\n        /* \"#utility.yul\":1614:1635   */\n      mstore\n        /* \"#utility.yul\":1677:1683   */\n      dup2\n        /* \"#utility.yul\":1671:1684   */\n      mload\n        /* \"#utility.yul\":1666:1668   */\n      0x20\n        /* \"#utility.yul\":1655:1664   */\n      dup3\n        /* \"#utility.yul\":1651:1669   */\n      add\n        /* \"#utility.yul\":1644:1685   */\n      mstore\n        /* \"#utility.yul\":1595:1599   */\n      0x00\n        /* \"#utility.yul\":1732:1734   */\n      0x20\n        /* \"#utility.yul\":1724:1730   */\n      dup4\n        /* \"#utility.yul\":1720:1735   */\n      add\n        /* \"#utility.yul\":1714:1736   */\n      mload\n        /* \"#utility.yul\":1745:1797   */\n      tag_703\n        /* \"#utility.yul\":1793:1795   */\n      0x40\n        /* \"#utility.yul\":1782:1791   */\n      dup5\n        /* \"#utility.yul\":1778:1796   */\n      add\n        /* \"#utility.yul\":1764:1776   */\n      dup3\n      sub(shl(0xa0, 0x01), 0x01)\n        /* \"#utility.yul\":884:915   */\n      and\n        /* \"#utility.yul\":872:916   */\n      swap1\n      mstore\n        /* \"#utility.yul\":818:922   */\n      jump\n        /* \"#utility.yul\":1745:1797   */\n    tag_703:\n      pop\n        /* \"#utility.yul\":1846:1848   */\n      0x40\n        /* \"#utility.yul\":1838:1844   */\n      dup4\n        /* \"#utility.yul\":1834:1849   */\n      add\n        /* \"#utility.yul\":1828:1850   */\n      mload\n        /* \"#utility.yul\":1869:1875   */\n      0x0100\n        /* \"#utility.yul\":1911:1913   */\n      dup1\n        /* \"#utility.yul\":1906:1908   */\n      0x60\n        /* \"#utility.yul\":1895:1904   */\n      dup6\n        /* \"#utility.yul\":1891:1909   */\n      add\n        /* \"#utility.yul\":1884:1914   */\n      mstore\n        /* \"#utility.yul\":1937:1991   */\n      tag_704\n        /* \"#utility.yul\":1986:1989   */\n      0x0120\n        /* \"#utility.yul\":1975:1984   */\n      dup6\n        /* \"#utility.yul\":1971:1990   */\n      add\n        /* \"#utility.yul\":1955:1969   */\n      dup4\n        /* \"#utility.yul\":1937:1991   */\n      tag_675\n      jump\t// in\n    tag_704:\n        /* \"#utility.yul\":1923:1991   */\n      swap2\n      pop\n        /* \"#utility.yul\":2040:2042   */\n      0x60\n        /* \"#utility.yul\":2032:2038   */\n      dup6\n        /* \"#utility.yul\":2028:2043   */\n      add\n        /* \"#utility.yul\":2022:2044   */\n      mload\n        /* \"#utility.yul\":2067:2069   */\n      0x1f\n        /* \"#utility.yul\":2063:2070   */\n      not\n        /* \"#utility.yul\":2135:2137   */\n      dup1\n        /* \"#utility.yul\":2123:2132   */\n      dup7\n        /* \"#utility.yul\":2115:2121   */\n      dup6\n        /* \"#utility.yul\":2111:2133   */\n      sub\n        /* \"#utility.yul\":2107:2138   */\n      add\n        /* \"#utility.yul\":2101:2104   */\n      0x80\n        /* \"#utility.yul\":2090:2099   */\n      dup8\n        /* \"#utility.yul\":2086:2105   */\n      add\n        /* \"#utility.yul\":2079:2139   */\n      mstore\n        /* \"#utility.yul\":2162:2203   */\n      tag_705\n        /* \"#utility.yul\":2196:2202   */\n      dup5\n        /* \"#utility.yul\":2180:2194   */\n      dup4\n        /* \"#utility.yul\":2162:2203   */\n      tag_675\n      jump\t// in\n    tag_705:\n        /* \"#utility.yul\":2148:2203   */\n      swap4\n      pop\n        /* \"#utility.yul\":2252:2255   */\n      0x80\n        /* \"#utility.yul\":2244:2250   */\n      dup8\n        /* \"#utility.yul\":2240:2256   */\n      add\n        /* \"#utility.yul\":2234:2257   */\n      mload\n        /* \"#utility.yul\":2212:2257   */\n      swap2\n      pop\n        /* \"#utility.yul\":2322:2324   */\n      dup1\n        /* \"#utility.yul\":2310:2319   */\n      dup7\n        /* \"#utility.yul\":2302:2308   */\n      dup6\n        /* \"#utility.yul\":2298:2320   */\n      sub\n        /* \"#utility.yul\":2294:2325   */\n      add\n        /* \"#utility.yul\":2288:2291   */\n      0xa0\n        /* \"#utility.yul\":2277:2286   */\n      dup8\n        /* \"#utility.yul\":2273:2292   */\n      add\n        /* \"#utility.yul\":2266:2326   */\n      mstore\n      pop\n        /* \"#utility.yul\":2349:2390   */\n      tag_706\n        /* \"#utility.yul\":2383:2389   */\n      dup4\n        /* \"#utility.yul\":2367:2381   */\n      dup3\n        /* \"#utility.yul\":2349:2390   */\n      tag_675\n      jump\t// in\n    tag_706:\n        /* \"#utility.yul\":2335:2390   */\n      swap3\n      pop\n      pop\n        /* \"#utility.yul\":2439:2442   */\n      0xa0\n        /* \"#utility.yul\":2431:2437   */\n      dup6\n        /* \"#utility.yul\":2427:2443   */\n      add\n        /* \"#utility.yul\":2421:2444   */\n      mload\n        /* \"#utility.yul\":2453:2505   */\n      tag_707\n        /* \"#utility.yul\":2500:2503   */\n      0xc0\n        /* \"#utility.yul\":2489:2498   */\n      dup7\n        /* \"#utility.yul\":2485:2504   */\n      add\n        /* \"#utility.yul\":2469:2483   */\n      dup3\n        /* \"#utility.yul\":1425:1438   */\n      iszero\n        /* \"#utility.yul\":1418:1439   */\n      iszero\n        /* \"#utility.yul\":1406:1440   */\n      swap1\n      mstore\n        /* \"#utility.yul\":1355:1446   */\n      jump\n        /* \"#utility.yul\":2453:2505   */\n    tag_707:\n      pop\n        /* \"#utility.yul\":2554:2557   */\n      0xc0\n        /* \"#utility.yul\":2542:2558   */\n      dup6\n      add\n        /* \"#utility.yul\":2536:2559   */\n      mload\n        /* \"#utility.yul\":1425:1438   */\n      dup1\n      iszero\n        /* \"#utility.yul\":1418:1439   */\n      iszero\n        /* \"#utility.yul\":2615:2618   */\n      0xe0\n        /* \"#utility.yul\":2600:2619   */\n      dup7\n      add\n        /* \"#utility.yul\":1406:1440   */\n      mstore\n      pop\n        /* \"#utility.yul\":2669:2672   */\n      0xe0\n        /* \"#utility.yul\":2657:2673   */\n      dup6\n      add\n        /* \"#utility.yul\":2651:2674   */\n      mload\n        /* \"#utility.yul\":1425:1438   */\n      dup1\n      iszero\n        /* \"#utility.yul\":1418:1439   */\n      iszero\n        /* \"#utility.yul\":2715:2733   */\n      dup6\n      dup4\n      add\n        /* \"#utility.yul\":1406:1440   */\n      mstore\n        /* \"#utility.yul\":2683:2734   */\n      tag_281\n        /* \"#utility.yul\":1355:1446   */\n      jump\n        /* \"#utility.yul\":2768:3365   */\n    tag_677:\n        /* \"#utility.yul\":2853:2858   */\n      dup1\n        /* \"#utility.yul\":2847:2859   */\n      mload\n        /* \"#utility.yul\":2842:2845   */\n      dup3\n        /* \"#utility.yul\":2835:2860   */\n      mstore\n        /* \"#utility.yul\":2938:2939   */\n      0x01\n        /* \"#utility.yul\":2934:2935   */\n      dup1\n        /* \"#utility.yul\":2929:2932   */\n      0xa0\n        /* \"#utility.yul\":2925:2936   */\n      shl\n        /* \"#utility.yul\":2921:2940   */\n      sub\n        /* \"#utility.yul\":2913:2917   */\n      0x20\n        /* \"#utility.yul\":2906:2911   */\n      dup3\n        /* \"#utility.yul\":2902:2918   */\n      add\n        /* \"#utility.yul\":2896:2919   */\n      mload\n        /* \"#utility.yul\":2892:2941   */\n      and\n        /* \"#utility.yul\":2885:2889   */\n      0x20\n        /* \"#utility.yul\":2880:2883   */\n      dup4\n        /* \"#utility.yul\":2876:2890   */\n      add\n        /* \"#utility.yul\":2869:2942   */\n      mstore\n        /* \"#utility.yul\":2817:2820   */\n      0x00\n        /* \"#utility.yul\":2988:2992   */\n      0x40\n        /* \"#utility.yul\":2981:2986   */\n      dup3\n        /* \"#utility.yul\":2977:2993   */\n      add\n        /* \"#utility.yul\":2971:2994   */\n      mload\n        /* \"#utility.yul\":3026:3030   */\n      0xe0\n        /* \"#utility.yul\":3019:3023   */\n      0x40\n        /* \"#utility.yul\":3014:3017   */\n      dup6\n        /* \"#utility.yul\":3010:3024   */\n      add\n        /* \"#utility.yul\":3003:3031   */\n      mstore\n        /* \"#utility.yul\":3052:3099   */\n      tag_711\n        /* \"#utility.yul\":3093:3097   */\n      0xe0\n        /* \"#utility.yul\":3088:3091   */\n      dup6\n        /* \"#utility.yul\":3084:3098   */\n      add\n        /* \"#utility.yul\":3070:3082   */\n      dup3\n        /* \"#utility.yul\":3052:3099   */\n      tag_675\n      jump\t// in\n    tag_711:\n        /* \"#utility.yul\":3040:3099   */\n      swap1\n      pop\n        /* \"#utility.yul\":3148:3152   */\n      0x60\n        /* \"#utility.yul\":3141:3146   */\n      dup4\n        /* \"#utility.yul\":3137:3153   */\n      add\n        /* \"#utility.yul\":3131:3154   */\n      mload\n        /* \"#utility.yul\":3124:3128   */\n      0x60\n        /* \"#utility.yul\":3119:3122   */\n      dup6\n        /* \"#utility.yul\":3115:3129   */\n      add\n        /* \"#utility.yul\":3108:3155   */\n      mstore\n        /* \"#utility.yul\":3204:3208   */\n      0x80\n        /* \"#utility.yul\":3197:3202   */\n      dup4\n        /* \"#utility.yul\":3193:3209   */\n      add\n        /* \"#utility.yul\":3187:3210   */\n      mload\n        /* \"#utility.yul\":3180:3184   */\n      0x80\n        /* \"#utility.yul\":3175:3178   */\n      dup6\n        /* \"#utility.yul\":3171:3185   */\n      add\n        /* \"#utility.yul\":3164:3211   */\n      mstore\n        /* \"#utility.yul\":3260:3264   */\n      0xa0\n        /* \"#utility.yul\":3253:3258   */\n      dup4\n        /* \"#utility.yul\":3249:3265   */\n      add\n        /* \"#utility.yul\":3243:3266   */\n      mload\n        /* \"#utility.yul\":3236:3240   */\n      0xa0\n        /* \"#utility.yul\":3231:3234   */\n      dup6\n        /* \"#utility.yul\":3227:3241   */\n      add\n        /* \"#utility.yul\":3220:3267   */\n      mstore\n        /* \"#utility.yul\":3330:3334   */\n      0xc0\n        /* \"#utility.yul\":3323:3328   */\n      dup4\n        /* \"#utility.yul\":3319:3335   */\n      add\n        /* \"#utility.yul\":3313:3336   */\n      mload\n        /* \"#utility.yul\":3306:3337   */\n      iszero\n        /* \"#utility.yul\":3299:3338   */\n      iszero\n        /* \"#utility.yul\":3292:3296   */\n      0xc0\n        /* \"#utility.yul\":3287:3290   */\n      dup6\n        /* \"#utility.yul\":3283:3297   */\n      add\n        /* \"#utility.yul\":3276:3339   */\n      mstore\n        /* \"#utility.yul\":3355:3359   */\n      dup1\n        /* \"#utility.yul\":3348:3359   */\n      swap2\n      pop\n      pop\n        /* \"#utility.yul\":2768:3365   */\n      swap3\n      swap2\n      pop\n      pop\n      jump\t// out\n        /* \"#utility.yul\":3370:4204   */\n    tag_68:\n        /* \"#utility.yul\":3556:3560   */\n      0x00\n        /* \"#utility.yul\":3585:3587   */\n      0x20\n        /* \"#utility.yul\":3625:3627   */\n      dup1\n        /* \"#utility.yul\":3614:3623   */\n      dup4\n        /* \"#utility.yul\":3610:3628   */\n      add\n        /* \"#utility.yul\":3655:3657   */\n      dup2\n        /* \"#utility.yul\":3644:3653   */\n      dup5\n        /* \"#utility.yul\":3637:3658   */\n      mstore\n        /* \"#utility.yul\":3678:3684   */\n      dup1\n        /* \"#utility.yul\":3713:3719   */\n      dup6\n        /* \"#utility.yul\":3707:3720   */\n      mload\n        /* \"#utility.yul\":3744:3750   */\n      dup1\n        /* \"#utility.yul\":3736:3742   */\n      dup4\n        /* \"#utility.yul\":3729:3751   */\n      mstore\n        /* \"#utility.yul\":3782:3784   */\n      0x40\n        /* \"#utility.yul\":3771:3780   */\n      dup7\n        /* \"#utility.yul\":3767:3785   */\n      add\n        /* \"#utility.yul\":3760:3785   */\n      swap2\n      pop\n        /* \"#utility.yul\":3844:3846   */\n      0x40\n        /* \"#utility.yul\":3834:3840   */\n      dup2\n        /* \"#utility.yul\":3831:3832   */\n      0x05\n        /* \"#utility.yul\":3827:3841   */\n      shl\n        /* \"#utility.yul\":3816:3825   */\n      dup8\n        /* \"#utility.yul\":3812:3842   */\n      add\n        /* \"#utility.yul\":3808:3847   */\n      add\n        /* \"#utility.yul\":3794:3847   */\n      swap3\n      pop\n        /* \"#utility.yul\":3882:3884   */\n      dup4\n        /* \"#utility.yul\":3874:3880   */\n      dup8\n        /* \"#utility.yul\":3870:3885   */\n      add\n        /* \"#utility.yul\":3903:3904   */\n      0x00\n        /* \"#utility.yul\":3913:4175   */\n    tag_713:\n        /* \"#utility.yul\":3927:3933   */\n      dup3\n        /* \"#utility.yul\":3924:3925   */\n      dup2\n        /* \"#utility.yul\":3921:3934   */\n      lt\n        /* \"#utility.yul\":3913:4175   */\n      iszero\n      tag_715\n      jumpi\n        /* \"#utility.yul\":4020:4022   */\n      0x3f\n        /* \"#utility.yul\":4016:4023   */\n      not\n        /* \"#utility.yul\":4004:4013   */\n      dup9\n        /* \"#utility.yul\":3996:4002   */\n      dup7\n        /* \"#utility.yul\":3992:4014   */\n      sub\n        /* \"#utility.yul\":3988:4024   */\n      add\n        /* \"#utility.yul\":3983:3986   */\n      dup5\n        /* \"#utility.yul\":3976:4025   */\n      mstore\n        /* \"#utility.yul\":4048:4095   */\n      tag_716\n        /* \"#utility.yul\":4088:4094   */\n      dup6\n        /* \"#utility.yul\":4079:4085   */\n      dup4\n        /* \"#utility.yul\":4073:4086   */\n      mload\n        /* \"#utility.yul\":4048:4095   */\n      tag_677\n      jump\t// in\n    tag_716:\n        /* \"#utility.yul\":4038:4095   */\n      swap5\n      pop\n        /* \"#utility.yul\":4153:4165   */\n      swap3\n      dup6\n      add\n      swap3\n        /* \"#utility.yul\":4118:4133   */\n      swap1\n      dup6\n      add\n      swap1\n        /* \"#utility.yul\":3949:3950   */\n      0x01\n        /* \"#utility.yul\":3942:3951   */\n      add\n        /* \"#utility.yul\":3913:4175   */\n      jump(tag_713)\n    tag_715:\n      pop\n        /* \"#utility.yul\":4192:4198   */\n      swap3\n      swap8\n        /* \"#utility.yul\":3370:4204   */\n      swap7\n      pop\n      pop\n      pop\n      pop\n      pop\n      pop\n      pop\n      jump\t// out\n        /* \"#utility.yul\":4209:5090   */\n    tag_73:\n        /* \"#utility.yul\":4566:4591   */\n      dup9\n      dup2\n      mstore\n      sub(shl(0xa0, 0x01), 0x01)\n        /* \"#utility.yul\":4627:4659   */\n      dup9\n      and\n        /* \"#utility.yul\":4622:4624   */\n      0x20\n        /* \"#utility.yul\":4607:4625   */\n      dup3\n      add\n        /* \"#utility.yul\":4600:4660   */\n      mstore\n        /* \"#utility.yul\":4554:4557   */\n      0x0100\n        /* \"#utility.yul\":4691:4693   */\n      0x40\n        /* \"#utility.yul\":4676:4694   */\n      dup3\n      add\n        /* \"#utility.yul\":4669:4699   */\n      dup2\n      swap1\n      mstore\n        /* \"#utility.yul\":4525:4529   */\n      0x00\n      swap1\n        /* \"#utility.yul\":4722:4767   */\n      tag_718\n        /* \"#utility.yul\":4748:4766   */\n      dup4\n      dup3\n      add\n        /* \"#utility.yul\":4740:4746   */\n      dup11\n        /* \"#utility.yul\":4722:4767   */\n      tag_675\n      jump\t// in\n    tag_718:\n        /* \"#utility.yul\":4708:4767   */\n      swap1\n      pop\n        /* \"#utility.yul\":4815:4824   */\n      dup3\n        /* \"#utility.yul\":4807:4813   */\n      dup2\n        /* \"#utility.yul\":4803:4825   */\n      sub\n        /* \"#utility.yul\":4798:4800   */\n      0x60\n        /* \"#utility.yul\":4787:4796   */\n      dup5\n        /* \"#utility.yul\":4783:4801   */\n      add\n        /* \"#utility.yul\":4776:4826   */\n      mstore\n        /* \"#utility.yul\":4843:4876   */\n      tag_719\n        /* \"#utility.yul\":4869:4875   */\n      dup2\n        /* \"#utility.yul\":4861:4867   */\n      dup10\n        /* \"#utility.yul\":4843:4876   */\n      tag_675\n      jump\t// in\n    tag_719:\n        /* \"#utility.yul\":4907:4910   */\n      0x80\n        /* \"#utility.yul\":4892:4911   */\n      dup5\n      add\n        /* \"#utility.yul\":4885:4920   */\n      swap8\n      swap1\n      swap8\n      mstore\n      pop\n      pop\n        /* \"#utility.yul\":4951:4954   */\n      0xa0\n        /* \"#utility.yul\":4936:4955   */\n      dup2\n      add\n        /* \"#utility.yul\":4929:4964   */\n      swap4\n      swap1\n      swap4\n      mstore\n        /* \"#utility.yul\":5008:5022   */\n      swap1\n      iszero\n        /* \"#utility.yul\":5001:5023   */\n      iszero\n        /* \"#utility.yul\":4995:4998   */\n      0xc0\n        /* \"#utility.yul\":4980:4999   */\n      dup4\n      add\n        /* \"#utility.yul\":4973:5024   */\n      mstore\n        /* \"#utility.yul\":5068:5082   */\n      iszero\n        /* \"#utility.yul\":5061:5083   */\n      iszero\n        /* \"#utility.yul\":5055:5058   */\n      0xe0\n        /* \"#utility.yul\":5040:5059   */\n      swap1\n      swap2\n      add\n        /* \"#utility.yul\":5033:5084   */\n      mstore\n        /* \"#utility.yul\":4835:4876   */\n      swap5\n        /* \"#utility.yul\":4209:5090   */\n      swap4\n      pop\n      pop\n      pop\n      pop\n      jump\t// out\n        /* \"#utility.yul\":5095:5275   */\n    tag_76:\n        /* \"#utility.yul\":5154:5160   */\n      0x00\n        /* \"#utility.yul\":5207:5209   */\n      0x20\n        /* \"#utility.yul\":5195:5204   */\n      dup3\n        /* \"#utility.yul\":5186:5193   */\n      dup5\n        /* \"#utility.yul\":5182:5205   */\n      sub\n        /* \"#utility.yul\":5178:5210   */\n      slt\n        /* \"#utility.yul\":5175:5227   */\n      iszero\n      tag_721\n      jumpi\n        /* \"#utility.yul\":5223:5224   */\n      0x00\n        /* \"#utility.yul\":5220:5221   */\n      dup1\n        /* \"#utility.yul\":5213:5225   */\n      revert\n        /* \"#utility.yul\":5175:5227   */\n    tag_721:\n      pop\n        /* \"#utility.yul\":5246:5269   */\n      calldataload\n      swap2\n        /* \"#utility.yul\":5095:5275   */\n      swap1\n      pop\n      jump\t// out\n        /* \"#utility.yul\":5280:5967   */\n    tag_79:\n        /* \"#utility.yul\":5573:5598   */\n      dup8\n      dup2\n      mstore\n      sub(shl(0xa0, 0x01), 0x01)\n        /* \"#utility.yul\":5634:5666   */\n      dup8\n      and\n        /* \"#utility.yul\":5629:5631   */\n      0x20\n        /* \"#utility.yul\":5614:5632   */\n      dup3\n      add\n        /* \"#utility.yul\":5607:5667   */\n      mstore\n        /* \"#utility.yul\":5703:5706   */\n      0xe0\n        /* \"#utility.yul\":5698:5700   */\n      0x40\n        /* \"#utility.yul\":5683:5701   */\n      dup3\n      add\n        /* \"#utility.yul\":5676:5707   */\n      dup2\n      swap1\n      mstore\n      0x00\n      swap1\n        /* \"#utility.yul\":5724:5770   */\n      tag_723\n      swap1\n        /* \"#utility.yul\":5750:5769   */\n      dup4\n      add\n        /* \"#utility.yul\":5742:5748   */\n      dup9\n        /* \"#utility.yul\":5724:5770   */\n      tag_675\n      jump\t// in\n    tag_723:\n        /* \"#utility.yul\":5716:5770   */\n      swap1\n      pop\n        /* \"#utility.yul\":5806:5812   */\n      dup6\n        /* \"#utility.yul\":5801:5803   */\n      0x60\n        /* \"#utility.yul\":5790:5799   */\n      dup4\n        /* \"#utility.yul\":5786:5804   */\n      add\n        /* \"#utility.yul\":5779:5813   */\n      mstore\n        /* \"#utility.yul\":5850:5856   */\n      dup5\n        /* \"#utility.yul\":5844:5847   */\n      0x80\n        /* \"#utility.yul\":5833:5842   */\n      dup4\n        /* \"#utility.yul\":5829:5848   */\n      add\n        /* \"#utility.yul\":5822:5857   */\n      mstore\n        /* \"#utility.yul\":5894:5900   */\n      dup4\n        /* \"#utility.yul\":5888:5891   */\n      0xa0\n        /* \"#utility.yul\":5877:5886   */\n      dup4\n        /* \"#utility.yul\":5873:5892   */\n      add\n        /* \"#utility.yul\":5866:5901   */\n      mstore\n        /* \"#utility.yul\":5952:5958   */\n      dup3\n        /* \"#utility.yul\":5945:5959   */\n      iszero\n        /* \"#utility.yul\":5938:5960   */\n      iszero\n        /* \"#utility.yul\":5932:5935   */\n      0xc0\n        /* \"#utility.yul\":5921:5930   */\n      dup4\n        /* \"#utility.yul\":5917:5936   */\n      add\n        /* \"#utility.yul\":5910:5961   */\n      mstore\n        /* \"#utility.yul\":5280:5967   */\n      swap9\n      swap8\n      pop\n      pop\n      pop\n      pop\n      pop\n      pop\n      pop\n      pop\n      jump\t// out\n        /* \"#utility.yul\":5972:6226   */\n    tag_86:\n        /* \"#utility.yul\":6040:6046   */\n      0x00\n        /* \"#utility.yul\":6048:6054   */\n      dup1\n        /* \"#utility.yul\":6101:6103   */\n      0x40\n        /* \"#utility.yul\":6089:6098   */\n      dup4\n        /* \"#utility.yul\":6080:6087   */\n      dup6\n        /* \"#utility.yul\":6076:6099   */\n      sub\n        /* \"#utility.yul\":6072:6104   */\n      slt\n        /* \"#utility.yul\":6069:6121   */\n      iszero\n      tag_725\n      jumpi\n        /* \"#utility.yul\":6117:6118   */\n      0x00\n        /* \"#utility.yul\":6114:6115   */\n      dup1\n        /* \"#utility.yul\":6107:6119   */\n      revert\n        /* \"#utility.yul\":6069:6121   */\n    tag_725:\n        /* \"#utility.yul\":6153:6162   */\n      dup3\n        /* \"#utility.yul\":6140:6163   */\n      calldataload\n        /* \"#utility.yul\":6130:6163   */\n      swap2\n      pop\n        /* \"#utility.yul\":6182:6220   */\n      tag_726\n        /* \"#utility.yul\":6216:6218   */\n      0x20\n        /* \"#utility.yul\":6205:6214   */\n      dup5\n        /* \"#utility.yul\":6201:6219   */\n      add\n        /* \"#utility.yul\":6182:6220   */\n      tag_673\n      jump\t// in\n    tag_726:\n        /* \"#utility.yul\":6172:6220   */\n      swap1\n      pop\n        /* \"#utility.yul\":5972:6226   */\n      swap3\n      pop\n      swap3\n      swap1\n      pop\n      jump\t// out\n        /* \"#utility.yul\":6231:7366   */\n    tag_89:\n        /* \"#utility.yul\":6446:6448   */\n      0x20\n        /* \"#utility.yul\":6498:6519   */\n      dup1\n      dup3\n      mstore\n        /* \"#utility.yul\":6568:6581   */\n      dup3\n      mload\n        /* \"#utility.yul\":6471:6489   */\n      dup3\n      dup3\n      add\n        /* \"#utility.yul\":6590:6612   */\n      dup2\n      swap1\n      mstore\n        /* \"#utility.yul\":6417:6421   */\n      0x00\n      swap2\n        /* \"#utility.yul\":6446:6448   */\n      swap1\n        /* \"#utility.yul\":6631:6633   */\n      0x40\n      swap1\n        /* \"#utility.yul\":6649:6667   */\n      dup2\n      dup6\n      add\n      swap1\n        /* \"#utility.yul\":6690:6705   */\n      dup7\n      dup5\n      add\n        /* \"#utility.yul\":6417:6421   */\n      dup6\n        /* \"#utility.yul\":6733:7340   */\n    tag_728:\n        /* \"#utility.yul\":6747:6753   */\n      dup3\n        /* \"#utility.yul\":6744:6745   */\n      dup2\n        /* \"#utility.yul\":6741:6754   */\n      lt\n        /* \"#utility.yul\":6733:7340   */\n      iszero\n      tag_730\n      jumpi\n        /* \"#utility.yul\":6806:6819   */\n      dup2\n      mload\n        /* \"#utility.yul\":6844:6853   */\n      dup1\n      mload\n        /* \"#utility.yul\":6832:6854   */\n      dup6\n      mstore\n        /* \"#utility.yul\":6894:6905   */\n      dup7\n      dup2\n      add\n        /* \"#utility.yul\":6888:6906   */\n      mload\n        /* \"#utility.yul\":6874:6886   */\n      dup8\n      dup7\n      add\n        /* \"#utility.yul\":6867:6907   */\n      mstore\n        /* \"#utility.yul\":6947:6958   */\n      dup6\n      dup2\n      add\n        /* \"#utility.yul\":6941:6959   */\n      mload\n        /* \"#utility.yul\":6927:6939   */\n      dup7\n      dup7\n      add\n        /* \"#utility.yul\":6920:6960   */\n      mstore\n        /* \"#utility.yul\":6983:6987   */\n      0x60\n        /* \"#utility.yul\":7031:7042   */\n      dup1\n      dup3\n      add\n        /* \"#utility.yul\":7025:7043   */\n      mload\n      sub(shl(0xa0, 0x01), 0x01)\n        /* \"#utility.yul\":7021:7065   */\n      and\n        /* \"#utility.yul\":7007:7019   */\n      swap1\n      dup7\n      add\n        /* \"#utility.yul\":7000:7066   */\n      mstore\n        /* \"#utility.yul\":7089:7093   */\n      0x80\n        /* \"#utility.yul\":7147:7158   */\n      dup1\n      dup3\n      add\n        /* \"#utility.yul\":7141:7159   */\n      mload\n        /* \"#utility.yul\":7134:7160   */\n      iszero\n        /* \"#utility.yul\":7127:7161   */\n      iszero\n        /* \"#utility.yul\":7113:7125   */\n      swap1\n      dup7\n      add\n        /* \"#utility.yul\":7106:7162   */\n      mstore\n        /* \"#utility.yul\":7053:7056   */\n      0xa0\n        /* \"#utility.yul\":7243:7254   */\n      swap1\n      dup2\n      add\n        /* \"#utility.yul\":7237:7255   */\n      mload\n        /* \"#utility.yul\":7230:7256   */\n      iszero\n        /* \"#utility.yul\":7223:7257   */\n      iszero\n        /* \"#utility.yul\":7209:7221   */\n      swap1\n      dup6\n      add\n        /* \"#utility.yul\":7202:7258   */\n      mstore\n        /* \"#utility.yul\":7287:7291   */\n      0xc0\n        /* \"#utility.yul\":7278:7292   */\n      swap1\n      swap4\n      add\n      swap3\n        /* \"#utility.yul\":7315:7330   */\n      swap1\n      dup6\n      add\n      swap1\n        /* \"#utility.yul\":7062:7063   */\n      0x01\n        /* \"#utility.yul\":6762:6771   */\n      add\n        /* \"#utility.yul\":6733:7340   */\n      jump(tag_728)\n    tag_730:\n      pop\n        /* \"#utility.yul\":7357:7360   */\n      swap2\n      swap8\n        /* \"#utility.yul\":6231:7366   */\n      swap7\n      pop\n      pop\n      pop\n      pop\n      pop\n      pop\n      pop\n      jump\t// out\n        /* \"#utility.yul\":7371:8213   */\n    tag_678:\n        /* \"#utility.yul\":7425:7428   */\n      0x00\n        /* \"#utility.yul\":7453:7459   */\n      0x0100\n        /* \"#utility.yul\":7486:7491   */\n      dup3\n        /* \"#utility.yul\":7480:7492   */\n      mload\n        /* \"#utility.yul\":7475:7478   */\n      dup5\n        /* \"#utility.yul\":7468:7493   */\n      mstore\n        /* \"#utility.yul\":7571:7572   */\n      0x01\n        /* \"#utility.yul\":7567:7568   */\n      dup1\n        /* \"#utility.yul\":7562:7565   */\n      0xa0\n        /* \"#utility.yul\":7558:7569   */\n      shl\n        /* \"#utility.yul\":7554:7573   */\n      sub\n        /* \"#utility.yul\":7546:7550   */\n      0x20\n        /* \"#utility.yul\":7539:7544   */\n      dup5\n        /* \"#utility.yul\":7535:7551   */\n      add\n        /* \"#utility.yul\":7529:7552   */\n      mload\n        /* \"#utility.yul\":7525:7574   */\n      and\n        /* \"#utility.yul\":7518:7522   */\n      0x20\n        /* \"#utility.yul\":7513:7516   */\n      dup6\n        /* \"#utility.yul\":7509:7523   */\n      add\n        /* \"#utility.yul\":7502:7575   */\n      mstore\n        /* \"#utility.yul\":7621:7625   */\n      0x40\n        /* \"#utility.yul\":7614:7619   */\n      dup4\n        /* \"#utility.yul\":7610:7626   */\n      add\n        /* \"#utility.yul\":7604:7627   */\n      mload\n        /* \"#utility.yul\":7659:7661   */\n      dup2\n        /* \"#utility.yul\":7652:7656   */\n      0x40\n        /* \"#utility.yul\":7647:7650   */\n      dup7\n        /* \"#utility.yul\":7643:7657   */\n      add\n        /* \"#utility.yul\":7636:7662   */\n      mstore\n        /* \"#utility.yul\":7683:7728   */\n      tag_732\n        /* \"#utility.yul\":7724:7726   */\n      dup3\n        /* \"#utility.yul\":7719:7722   */\n      dup7\n        /* \"#utility.yul\":7715:7727   */\n      add\n        /* \"#utility.yul\":7701:7713   */\n      dup3\n        /* \"#utility.yul\":7683:7728   */\n      tag_675\n      jump\t// in\n    tag_732:\n        /* \"#utility.yul\":7671:7728   */\n      swap2\n      pop\n      pop\n        /* \"#utility.yul\":7776:7780   */\n      0x60\n        /* \"#utility.yul\":7769:7774   */\n      dup4\n        /* \"#utility.yul\":7765:7781   */\n      add\n        /* \"#utility.yul\":7759:7782   */\n      mload\n        /* \"#utility.yul\":7824:7827   */\n      dup5\n        /* \"#utility.yul\":7818:7822   */\n      dup3\n        /* \"#utility.yul\":7814:7828   */\n      sub\n        /* \"#utility.yul\":7807:7811   */\n      0x60\n        /* \"#utility.yul\":7802:7805   */\n      dup7\n        /* \"#utility.yul\":7798:7812   */\n      add\n        /* \"#utility.yul\":7791:7829   */\n      mstore\n        /* \"#utility.yul\":7852:7891   */\n      tag_733\n        /* \"#utility.yul\":7886:7890   */\n      dup3\n        /* \"#utility.yul\":7870:7884   */\n      dup3\n        /* \"#utility.yul\":7852:7891   */\n      tag_675\n      jump\t// in\n    tag_733:\n        /* \"#utility.yul\":7838:7891   */\n      swap2\n      pop\n      pop\n        /* \"#utility.yul\":7940:7944   */\n      0x80\n        /* \"#utility.yul\":7933:7938   */\n      dup4\n        /* \"#utility.yul\":7929:7945   */\n      add\n        /* \"#utility.yul\":7923:7946   */\n      mload\n        /* \"#utility.yul\":7916:7920   */\n      0x80\n        /* \"#utility.yul\":7911:7914   */\n      dup6\n        /* \"#utility.yul\":7907:7921   */\n      add\n        /* \"#utility.yul\":7900:7947   */\n      mstore\n        /* \"#utility.yul\":7996:8000   */\n      0xa0\n        /* \"#utility.yul\":7989:7994   */\n      dup4\n        /* \"#utility.yul\":7985:8001   */\n      add\n        /* \"#utility.yul\":7979:8002   */\n      mload\n        /* \"#utility.yul\":7972:7976   */\n      0xa0\n        /* \"#utility.yul\":7967:7970   */\n      dup6\n        /* \"#utility.yul\":7963:7977   */\n      add\n        /* \"#utility.yul\":7956:8003   */\n      mstore\n        /* \"#utility.yul\":8066:8070   */\n      0xc0\n        /* \"#utility.yul\":8059:8064   */\n      dup4\n        /* \"#utility.yul\":8055:8071   */\n      add\n        /* \"#utility.yul\":8049:8072   */\n      mload\n        /* \"#utility.yul\":8042:8073   */\n      iszero\n        /* \"#utility.yul\":8035:8074   */\n      iszero\n        /* \"#utility.yul\":8028:8032   */\n      0xc0\n        /* \"#utility.yul\":8023:8026   */\n      dup6\n        /* \"#utility.yul\":8019:8033   */\n      add\n        /* \"#utility.yul\":8012:8075   */\n      mstore\n        /* \"#utility.yul\":8123:8127   */\n      0xe0\n        /* \"#utility.yul\":8116:8121   */\n      dup4\n        /* \"#utility.yul\":8112:8128   */\n      add\n        /* \"#utility.yul\":8106:8129   */\n      mload\n        /* \"#utility.yul\":8138:8185   */\n      tag_734\n        /* \"#utility.yul\":8179:8183   */\n      0xe0\n        /* \"#utility.yul\":8174:8177   */\n      dup7\n        /* \"#utility.yul\":8170:8184   */\n      add\n        /* \"#utility.yul\":8154:8168   */\n      dup3\n        /* \"#utility.yul\":1425:1438   */\n      iszero\n        /* \"#utility.yul\":1418:1439   */\n      iszero\n        /* \"#utility.yul\":1406:1440   */\n      swap1\n      mstore\n        /* \"#utility.yul\":1355:1446   */\n      jump\n        /* \"#utility.yul\":8138:8185   */\n    tag_734:\n      pop\n        /* \"#utility.yul\":8201:8207   */\n      swap4\n        /* \"#utility.yul\":7371:8213   */\n      swap3\n      pop\n      pop\n      pop\n      jump\t// out\n        /* \"#utility.yul\":8218:8484   */\n    tag_94:\n        /* \"#utility.yul\":8401:8403   */\n      0x20\n        /* \"#utility.yul\":8390:8399   */\n      dup2\n        /* \"#utility.yul\":8383:8404   */\n      mstore\n        /* \"#utility.yul\":8364:8368   */\n      0x00\n        /* \"#utility.yul\":8421:8478   */\n      tag_695\n        /* \"#utility.yul\":8474:8476   */\n      0x20\n        /* \"#utility.yul\":8463:8472   */\n      dup4\n        /* \"#utility.yul\":8459:8477   */\n      add\n        /* \"#utility.yul\":8451:8457   */\n      dup5\n        /* \"#utility.yul\":8421:8478   */\n      tag_678\n      jump\t// in\n        /* \"#utility.yul\":8489:9530   */\n    tag_107:\n        /* \"#utility.yul\":8706:8708   */\n      0x20\n        /* \"#utility.yul\":8758:8779   */\n      dup1\n      dup3\n      mstore\n        /* \"#utility.yul\":8828:8841   */\n      dup3\n      mload\n        /* \"#utility.yul\":8731:8749   */\n      dup3\n      dup3\n      add\n        /* \"#utility.yul\":8850:8872   */\n      dup2\n      swap1\n      mstore\n        /* \"#utility.yul\":8677:8681   */\n      0x00\n      swap2\n        /* \"#utility.yul\":8706:8708   */\n      swap1\n        /* \"#utility.yul\":8891:8893   */\n      0x40\n      swap1\n        /* \"#utility.yul\":8909:8927   */\n      dup2\n      dup6\n      add\n      swap1\n        /* \"#utility.yul\":8950:8965   */\n      dup7\n      dup5\n      add\n        /* \"#utility.yul\":8677:8681   */\n      dup6\n        /* \"#utility.yul\":8993:9504   */\n    tag_738:\n        /* \"#utility.yul\":9007:9013   */\n      dup3\n        /* \"#utility.yul\":9004:9005   */\n      dup2\n        /* \"#utility.yul\":9001:9014   */\n      lt\n        /* \"#utility.yul\":8993:9504   */\n      iszero\n      tag_730\n      jumpi\n        /* \"#utility.yul\":9066:9079   */\n      dup2\n      mload\n        /* \"#utility.yul\":9104:9113   */\n      dup1\n      mload\n        /* \"#utility.yul\":9092:9114   */\n      dup6\n      mstore\n        /* \"#utility.yul\":9154:9165   */\n      dup7\n      dup2\n      add\n        /* \"#utility.yul\":9148:9166   */\n      mload\n        /* \"#utility.yul\":9134:9146   */\n      dup8\n      dup7\n      add\n        /* \"#utility.yul\":9127:9167   */\n      mstore\n        /* \"#utility.yul\":9211:9222   */\n      dup6\n      dup2\n      add\n        /* \"#utility.yul\":9205:9223   */\n      mload\n      sub(shl(0xa0, 0x01), 0x01)\n        /* \"#utility.yul\":9201:9245   */\n      and\n        /* \"#utility.yul\":9187:9199   */\n      dup7\n      dup7\n      add\n        /* \"#utility.yul\":9180:9246   */\n      mstore\n        /* \"#utility.yul\":9269:9273   */\n      0x60\n        /* \"#utility.yul\":9313:9324   */\n      dup1\n      dup3\n      add\n        /* \"#utility.yul\":9307:9325   */\n      mload\n        /* \"#utility.yul\":9293:9305   */\n      swap1\n      dup7\n      add\n        /* \"#utility.yul\":9286:9326   */\n      mstore\n        /* \"#utility.yul\":9349:9353   */\n      0x80\n        /* \"#utility.yul\":9407:9418   */\n      swap1\n      dup2\n      add\n        /* \"#utility.yul\":9401:9419   */\n      mload\n        /* \"#utility.yul\":9394:9420   */\n      iszero\n        /* \"#utility.yul\":9387:9421   */\n      iszero\n        /* \"#utility.yul\":9373:9385   */\n      swap1\n      dup6\n      add\n        /* \"#utility.yul\":9366:9422   */\n      mstore\n        /* \"#utility.yul\":9233:9236   */\n      0xa0\n        /* \"#utility.yul\":9442:9456   */\n      swap1\n      swap4\n      add\n      swap3\n        /* \"#utility.yul\":9479:9494   */\n      swap1\n      dup6\n      add\n      swap1\n        /* \"#utility.yul\":9242:9243   */\n      0x01\n        /* \"#utility.yul\":9022:9031   */\n      add\n        /* \"#utility.yul\":8993:9504   */\n      jump(tag_738)\n        /* \"#utility.yul\":9535:9662   */\n    tag_275:\n        /* \"#utility.yul\":9596:9606   */\n      0x4e487b71\n        /* \"#utility.yul\":9591:9594   */\n      0xe0\n        /* \"#utility.yul\":9587:9607   */\n      shl\n        /* \"#utility.yul\":9584:9585   */\n      0x00\n        /* \"#utility.yul\":9577:9608   */\n      mstore\n        /* \"#utility.yul\":9627:9631   */\n      0x41\n        /* \"#utility.yul\":9624:9625   */\n      0x04\n        /* \"#utility.yul\":9617:9632   */\n      mstore\n        /* \"#utility.yul\":9651:9655   */\n      0x24\n        /* \"#utility.yul\":9648:9649   */\n      0x00\n        /* \"#utility.yul\":9641:9656   */\n      revert\n        /* \"#utility.yul\":9667:9942   */\n    tag_679:\n        /* \"#utility.yul\":9738:9740   */\n      0x40\n        /* \"#utility.yul\":9732:9741   */\n      mload\n        /* \"#utility.yul\":9803:9805   */\n      0x1f\n        /* \"#utility.yul\":9784:9797   */\n      dup3\n      add\n      not(0x1f)\n        /* \"#utility.yul\":9780:9807   */\n      and\n        /* \"#utility.yul\":9768:9808   */\n      dup2\n      add\n      sub(shl(0x40, 0x01), 0x01)\n        /* \"#utility.yul\":9823:9857   */\n      dup2\n      gt\n        /* \"#utility.yul\":9859:9881   */\n      dup3\n      dup3\n      lt\n        /* \"#utility.yul\":9820:9882   */\n      or\n        /* \"#utility.yul\":9817:9905   */\n      iszero\n      tag_744\n      jumpi\n        /* \"#utility.yul\":9885:9903   */\n      tag_744\n      tag_275\n      jump\t// in\n    tag_744:\n        /* \"#utility.yul\":9921:9923   */\n      0x40\n        /* \"#utility.yul\":9914:9936   */\n      mstore\n        /* \"#utility.yul\":9667:9942   */\n      swap2\n      swap1\n      pop\n      jump\t// out\n        /* \"#utility.yul\":9947:10478   */\n    tag_680:\n        /* \"#utility.yul\":9990:9995   */\n      0x00\n        /* \"#utility.yul\":10043:10046   */\n      dup3\n        /* \"#utility.yul\":10036:10040   */\n      0x1f\n        /* \"#utility.yul\":10028:10034   */\n      dup4\n        /* \"#utility.yul\":10024:10041   */\n      add\n        /* \"#utility.yul\":10020:10047   */\n      slt\n        /* \"#utility.yul\":10010:10065   */\n      tag_746\n      jumpi\n        /* \"#utility.yul\":10061:10062   */\n      0x00\n        /* \"#utility.yul\":10058:10059   */\n      dup1\n        /* \"#utility.yul\":10051:10063   */\n      revert\n        /* \"#utility.yul\":10010:10065   */\n    tag_746:\n        /* \"#utility.yul\":10097:10103   */\n      dup2\n        /* \"#utility.yul\":10084:10104   */\n      calldataload\n      sub(shl(0x40, 0x01), 0x01)\n        /* \"#utility.yul\":10119:10121   */\n      dup2\n        /* \"#utility.yul\":10116:10142   */\n      gt\n        /* \"#utility.yul\":10113:10165   */\n      iszero\n      tag_748\n      jumpi\n        /* \"#utility.yul\":10145:10163   */\n      tag_748\n      tag_275\n      jump\t// in\n    tag_748:\n        /* \"#utility.yul\":10189:10244   */\n      tag_749\n        /* \"#utility.yul\":10232:10234   */\n      0x1f\n        /* \"#utility.yul\":10213:10226   */\n      dup3\n      add\n      not(0x1f)\n        /* \"#utility.yul\":10209:10236   */\n      and\n        /* \"#utility.yul\":10238:10242   */\n      0x20\n        /* \"#utility.yul\":10205:10243   */\n      add\n        /* \"#utility.yul\":10189:10244   */\n      tag_679\n      jump\t// in\n    tag_749:\n        /* \"#utility.yul\":10269:10271   */\n      dup2\n        /* \"#utility.yul\":10260:10267   */\n      dup2\n        /* \"#utility.yul\":10253:10272   */\n      mstore\n        /* \"#utility.yul\":10315:10318   */\n      dup5\n        /* \"#utility.yul\":10308:10312   */\n      0x20\n        /* \"#utility.yul\":10303:10305   */\n      dup4\n        /* \"#utility.yul\":10295:10301   */\n      dup7\n        /* \"#utility.yul\":10291:10306   */\n      add\n        /* \"#utility.yul\":10287:10313   */\n      add\n        /* \"#utility.yul\":10284:10319   */\n      gt\n        /* \"#utility.yul\":10281:10336   */\n      iszero\n      tag_750\n      jumpi\n        /* \"#utility.yul\":10332:10333   */\n      0x00\n        /* \"#utility.yul\":10329:10330   */\n      dup1\n        /* \"#utility.yul\":10322:10334   */\n      revert\n        /* \"#utility.yul\":10281:10336   */\n    tag_750:\n        /* \"#utility.yul\":10397:10399   */\n      dup2\n        /* \"#utility.yul\":10390:10394   */\n      0x20\n        /* \"#utility.yul\":10382:10388   */\n      dup6\n        /* \"#utility.yul\":10378:10395   */\n      add\n        /* \"#utility.yul\":10371:10375   */\n      0x20\n        /* \"#utility.yul\":10362:10369   */\n      dup4\n        /* \"#utility.yul\":10358:10376   */\n      add\n        /* \"#utility.yul\":10345:10400   */\n      calldatacopy\n        /* \"#utility.yul\":10445:10446   */\n      0x00\n        /* \"#utility.yul\":10420:10436   */\n      swap2\n      dup2\n      add\n        /* \"#utility.yul\":10438:10442   */\n      0x20\n        /* \"#utility.yul\":10416:10443   */\n      add\n        /* \"#utility.yul\":10409:10447   */\n      swap2\n      swap1\n      swap2\n      mstore\n        /* \"#utility.yul\":10424:10431   */\n      swap4\n        /* \"#utility.yul\":9947:10478   */\n      swap3\n      pop\n      pop\n      pop\n      jump\t// out\n        /* \"#utility.yul\":10483:11169   */\n    tag_114:\n        /* \"#utility.yul\":10589:10595   */\n      0x00\n        /* \"#utility.yul\":10597:10603   */\n      dup1\n        /* \"#utility.yul\":10605:10611   */\n      0x00\n        /* \"#utility.yul\":10613:10619   */\n      dup1\n        /* \"#utility.yul\":10666:10669   */\n      0x80\n        /* \"#utility.yul\":10654:10663   */\n      dup6\n        /* \"#utility.yul\":10645:10652   */\n      dup8\n        /* \"#utility.yul\":10641:10664   */\n      sub\n        /* \"#utility.yul\":10637:10670   */\n      slt\n        /* \"#utility.yul\":10634:10687   */\n      iszero\n      tag_752\n      jumpi\n        /* \"#utility.yul\":10683:10684   */\n      0x00\n        /* \"#utility.yul\":10680:10681   */\n      dup1\n        /* \"#utility.yul\":10673:10685   */\n      revert\n        /* \"#utility.yul\":10634:10687   */\n    tag_752:\n        /* \"#utility.yul\":10706:10735   */\n      tag_753\n        /* \"#utility.yul\":10725:10734   */\n      dup6\n        /* \"#utility.yul\":10706:10735   */\n      tag_673\n      jump\t// in\n    tag_753:\n        /* \"#utility.yul\":10696:10735   */\n      swap4\n      pop\n        /* \"#utility.yul\":10786:10788   */\n      0x20\n        /* \"#utility.yul\":10775:10784   */\n      dup6\n        /* \"#utility.yul\":10771:10789   */\n      add\n        /* \"#utility.yul\":10758:10790   */\n      calldataload\n      sub(shl(0x40, 0x01), 0x01)\n        /* \"#utility.yul\":10850:10852   */\n      dup1\n        /* \"#utility.yul\":10842:10848   */\n      dup3\n        /* \"#utility.yul\":10839:10853   */\n      gt\n        /* \"#utility.yul\":10836:10870   */\n      iszero\n      tag_754\n      jumpi\n        /* \"#utility.yul\":10866:10867   */\n      0x00\n        /* \"#utility.yul\":10863:10864   */\n      dup1\n        /* \"#utility.yul\":10856:10868   */\n      revert\n        /* \"#utility.yul\":10836:10870   */\n    tag_754:\n        /* \"#utility.yul\":10889:10939   */\n      tag_755\n        /* \"#utility.yul\":10931:10938   */\n      dup9\n        /* \"#utility.yul\":10922:10928   */\n      dup4\n        /* \"#utility.yul\":10911:10920   */\n      dup10\n        /* \"#utility.yul\":10907:10929   */\n      add\n        /* \"#utility.yul\":10889:10939   */\n      tag_680\n      jump\t// in\n    tag_755:\n        /* \"#utility.yul\":10879:10939   */\n      swap5\n      pop\n        /* \"#utility.yul\":10992:10994   */\n      0x40\n        /* \"#utility.yul\":10981:10990   */\n      dup8\n        /* \"#utility.yul\":10977:10995   */\n      add\n        /* \"#utility.yul\":10964:10996   */\n      calldataload\n        /* \"#utility.yul\":10948:10996   */\n      swap2\n      pop\n        /* \"#utility.yul\":11021:11023   */\n      dup1\n        /* \"#utility.yul\":11011:11019   */\n      dup3\n        /* \"#utility.yul\":11008:11024   */\n      gt\n        /* \"#utility.yul\":11005:11041   */\n      iszero\n      tag_756\n      jumpi\n        /* \"#utility.yul\":11037:11038   */\n      0x00\n        /* \"#utility.yul\":11034:11035   */\n      dup1\n        /* \"#utility.yul\":11027:11039   */\n      revert\n        /* \"#utility.yul\":11005:11041   */\n    tag_756:\n      pop\n        /* \"#utility.yul\":11060:11112   */\n      tag_757\n        /* \"#utility.yul\":11104:11111   */\n      dup8\n        /* \"#utility.yul\":11093:11101   */\n      dup3\n        /* \"#utility.yul\":11082:11091   */\n      dup9\n        /* \"#utility.yul\":11078:11102   */\n      add\n        /* \"#utility.yul\":11060:11112   */\n      tag_680\n      jump\t// in\n    tag_757:\n        /* \"#utility.yul\":10483:11169   */\n      swap5\n      swap8\n      swap4\n      swap7\n      pop\n        /* \"#utility.yul\":11050:11112   */\n      swap4\n      swap5\n        /* \"#utility.yul\":11159:11161   */\n      0x60\n        /* \"#utility.yul\":11144:11162   */\n      add\n        /* \"#utility.yul\":11131:11163   */\n      calldataload\n      swap4\n      pop\n      pop\n      pop\n        /* \"#utility.yul\":10483:11169   */\n      jump\t// out\n        /* \"#utility.yul\":11174:11992   */\n    tag_118:\n        /* \"#utility.yul\":11290:11296   */\n      0x00\n        /* \"#utility.yul\":11298:11304   */\n      dup1\n        /* \"#utility.yul\":11306:11312   */\n      0x00\n        /* \"#utility.yul\":11314:11320   */\n      dup1\n        /* \"#utility.yul\":11367:11370   */\n      0x80\n        /* \"#utility.yul\":11355:11364   */\n      dup6\n        /* \"#utility.yul\":11346:11353   */\n      dup8\n        /* \"#utility.yul\":11342:11365   */\n      sub\n        /* \"#utility.yul\":11338:11371   */\n      slt\n        /* \"#utility.yul\":11335:11388   */\n      iszero\n      tag_759\n      jumpi\n        /* \"#utility.yul\":11384:11385   */\n      0x00\n        /* \"#utility.yul\":11381:11382   */\n      dup1\n        /* \"#utility.yul\":11374:11386   */\n      revert\n        /* \"#utility.yul\":11335:11388   */\n    tag_759:\n        /* \"#utility.yul\":11407:11436   */\n      tag_760\n        /* \"#utility.yul\":11426:11435   */\n      dup6\n        /* \"#utility.yul\":11407:11436   */\n      tag_673\n      jump\t// in\n    tag_760:\n        /* \"#utility.yul\":11397:11436   */\n      swap4\n      pop\n        /* \"#utility.yul\":11487:11489   */\n      0x20\n        /* \"#utility.yul\":11476:11485   */\n      dup6\n        /* \"#utility.yul\":11472:11490   */\n      add\n        /* \"#utility.yul\":11459:11491   */\n      calldataload\n      sub(shl(0x40, 0x01), 0x01)\n        /* \"#utility.yul\":11551:11553   */\n      dup1\n        /* \"#utility.yul\":11543:11549   */\n      dup3\n        /* \"#utility.yul\":11540:11554   */\n      gt\n        /* \"#utility.yul\":11537:11571   */\n      iszero\n      tag_761\n      jumpi\n        /* \"#utility.yul\":11567:11568   */\n      0x00\n        /* \"#utility.yul\":11564:11565   */\n      dup1\n        /* \"#utility.yul\":11557:11569   */\n      revert\n        /* \"#utility.yul\":11537:11571   */\n    tag_761:\n        /* \"#utility.yul\":11590:11640   */\n      tag_762\n        /* \"#utility.yul\":11632:11639   */\n      dup9\n        /* \"#utility.yul\":11623:11629   */\n      dup4\n        /* \"#utility.yul\":11612:11621   */\n      dup10\n        /* \"#utility.yul\":11608:11630   */\n      add\n        /* \"#utility.yul\":11590:11640   */\n      tag_680\n      jump\t// in\n    tag_762:\n        /* \"#utility.yul\":11580:11640   */\n      swap5\n      pop\n        /* \"#utility.yul\":11693:11695   */\n      0x40\n        /* \"#utility.yul\":11682:11691   */\n      dup8\n        /* \"#utility.yul\":11678:11696   */\n      add\n        /* \"#utility.yul\":11665:11697   */\n      calldataload\n        /* \"#utility.yul\":11649:11697   */\n      swap2\n      pop\n        /* \"#utility.yul\":11722:11724   */\n      dup1\n        /* \"#utility.yul\":11712:11720   */\n      dup3\n        /* \"#utility.yul\":11709:11725   */\n      gt\n        /* \"#utility.yul\":11706:11742   */\n      iszero\n      tag_763\n      jumpi\n        /* \"#utility.yul\":11738:11739   */\n      0x00\n        /* \"#utility.yul\":11735:11736   */\n      dup1\n        /* \"#utility.yul\":11728:11740   */\n      revert\n        /* \"#utility.yul\":11706:11742   */\n    tag_763:\n        /* \"#utility.yul\":11761:11813   */\n      tag_764\n        /* \"#utility.yul\":11805:11812   */\n      dup9\n        /* \"#utility.yul\":11794:11802   */\n      dup4\n        /* \"#utility.yul\":11783:11792   */\n      dup10\n        /* \"#utility.yul\":11779:11803   */\n      add\n        /* \"#utility.yul\":11761:11813   */\n      tag_680\n      jump\t// in\n    tag_764:\n        /* \"#utility.yul\":11751:11813   */\n      swap4\n      pop\n        /* \"#utility.yul\":11866:11868   */\n      0x60\n        /* \"#utility.yul\":11855:11864   */\n      dup8\n        /* \"#utility.yul\":11851:11869   */\n      add\n        /* \"#utility.yul\":11838:11870   */\n      calldataload\n        /* \"#utility.yul\":11822:11870   */\n      swap2\n      pop\n        /* \"#utility.yul\":11895:11897   */\n      dup1\n        /* \"#utility.yul\":11885:11893   */\n      dup3\n        /* \"#utility.yul\":11882:11898   */\n      gt\n        /* \"#utility.yul\":11879:11915   */\n      iszero\n      tag_765\n      jumpi\n        /* \"#utility.yul\":11911:11912   */\n      0x00\n        /* \"#utility.yul\":11908:11909   */\n      dup1\n        /* \"#utility.yul\":11901:11913   */\n      revert\n        /* \"#utility.yul\":11879:11915   */\n    tag_765:\n      pop\n        /* \"#utility.yul\":11934:11986   */\n      tag_766\n        /* \"#utility.yul\":11978:11985   */\n      dup8\n        /* \"#utility.yul\":11967:11975   */\n      dup3\n        /* \"#utility.yul\":11956:11965   */\n      dup9\n        /* \"#utility.yul\":11952:11976   */\n      add\n        /* \"#utility.yul\":11934:11986   */\n      tag_680\n      jump\t// in\n    tag_766:\n        /* \"#utility.yul\":11924:11986   */\n      swap2\n      pop\n      pop\n        /* \"#utility.yul\":11174:11992   */\n      swap3\n      swap6\n      swap2\n      swap5\n      pop\n      swap3\n      pop\n      jump\t// out\n        /* \"#utility.yul\":11997:12179   */\n    tag_681:\n        /* \"#utility.yul\":12056:12060   */\n      0x00\n      sub(shl(0x40, 0x01), 0x01)\n        /* \"#utility.yul\":12081:12087   */\n      dup3\n        /* \"#utility.yul\":12078:12108   */\n      gt\n        /* \"#utility.yul\":12075:12131   */\n      iszero\n      tag_769\n      jumpi\n        /* \"#utility.yul\":12111:12129   */\n      tag_769\n      tag_275\n      jump\t// in\n    tag_769:\n      pop\n        /* \"#utility.yul\":12156:12157   */\n      0x05\n        /* \"#utility.yul\":12152:12166   */\n      shl\n        /* \"#utility.yul\":12168:12172   */\n      0x20\n        /* \"#utility.yul\":12148:12173   */\n      add\n      swap1\n        /* \"#utility.yul\":11997:12179   */\n      jump\t// out\n        /* \"#utility.yul\":12184:13690   */\n    tag_142:\n        /* \"#utility.yul\":12333:12339   */\n      0x00\n        /* \"#utility.yul\":12341:12347   */\n      dup1\n        /* \"#utility.yul\":12349:12355   */\n      0x00\n        /* \"#utility.yul\":12357:12363   */\n      dup1\n        /* \"#utility.yul\":12365:12371   */\n      0x00\n        /* \"#utility.yul\":12373:12379   */\n      dup1\n        /* \"#utility.yul\":12426:12429   */\n      0xc0\n        /* \"#utility.yul\":12414:12423   */\n      dup8\n        /* \"#utility.yul\":12405:12412   */\n      dup10\n        /* \"#utility.yul\":12401:12424   */\n      sub\n        /* \"#utility.yul\":12397:12430   */\n      slt\n        /* \"#utility.yul\":12394:12447   */\n      iszero\n      tag_771\n      jumpi\n        /* \"#utility.yul\":12443:12444   */\n      0x00\n        /* \"#utility.yul\":12440:12441   */\n      dup1\n        /* \"#utility.yul\":12433:12445   */\n      revert\n        /* \"#utility.yul\":12394:12447   */\n    tag_771:\n        /* \"#utility.yul\":12466:12495   */\n      tag_772\n        /* \"#utility.yul\":12485:12494   */\n      dup8\n        /* \"#utility.yul\":12466:12495   */\n      tag_673\n      jump\t// in\n    tag_772:\n        /* \"#utility.yul\":12456:12495   */\n      swap6\n      pop\n        /* \"#utility.yul\":12514:12516   */\n      0x20\n        /* \"#utility.yul\":12567:12569   */\n      dup1\n        /* \"#utility.yul\":12556:12565   */\n      dup9\n        /* \"#utility.yul\":12552:12570   */\n      add\n        /* \"#utility.yul\":12539:12571   */\n      calldataload\n      sub(shl(0x40, 0x01), 0x01)\n        /* \"#utility.yul\":12631:12633   */\n      dup1\n        /* \"#utility.yul\":12623:12629   */\n      dup3\n        /* \"#utility.yul\":12620:12634   */\n      gt\n        /* \"#utility.yul\":12617:12651   */\n      iszero\n      tag_773\n      jumpi\n        /* \"#utility.yul\":12647:12648   */\n      0x00\n        /* \"#utility.yul\":12644:12645   */\n      dup1\n        /* \"#utility.yul\":12637:12649   */\n      revert\n        /* \"#utility.yul\":12617:12651   */\n    tag_773:\n        /* \"#utility.yul\":12670:12720   */\n      tag_774\n        /* \"#utility.yul\":12712:12719   */\n      dup12\n        /* \"#utility.yul\":12703:12709   */\n      dup4\n        /* \"#utility.yul\":12692:12701   */\n      dup13\n        /* \"#utility.yul\":12688:12710   */\n      add\n        /* \"#utility.yul\":12670:12720   */\n      tag_680\n      jump\t// in\n    tag_774:\n        /* \"#utility.yul\":12660:12720   */\n      swap8\n      pop\n        /* \"#utility.yul\":12767:12769   */\n      0x40\n        /* \"#utility.yul\":12756:12765   */\n      dup11\n        /* \"#utility.yul\":12752:12770   */\n      add\n        /* \"#utility.yul\":12739:12771   */\n      calldataload\n        /* \"#utility.yul\":12729:12771   */\n      swap7\n      pop\n        /* \"#utility.yul\":12818:12820   */\n      0x60\n        /* \"#utility.yul\":12807:12816   */\n      dup11\n        /* \"#utility.yul\":12803:12821   */\n      add\n        /* \"#utility.yul\":12790:12822   */\n      calldataload\n        /* \"#utility.yul\":12780:12822   */\n      swap6\n      pop\n        /* \"#utility.yul\":12875:12878   */\n      0x80\n        /* \"#utility.yul\":12864:12873   */\n      dup11\n        /* \"#utility.yul\":12860:12879   */\n      add\n        /* \"#utility.yul\":12847:12880   */\n      calldataload\n        /* \"#utility.yul\":12831:12880   */\n      swap2\n      pop\n        /* \"#utility.yul\":12905:12907   */\n      dup1\n        /* \"#utility.yul\":12895:12903   */\n      dup3\n        /* \"#utility.yul\":12892:12908   */\n      gt\n        /* \"#utility.yul\":12889:12925   */\n      iszero\n      tag_775\n      jumpi\n        /* \"#utility.yul\":12921:12922   */\n      0x00\n        /* \"#utility.yul\":12918:12919   */\n      dup1\n        /* \"#utility.yul\":12911:12923   */\n      revert\n        /* \"#utility.yul\":12889:12925   */\n    tag_775:\n        /* \"#utility.yul\":12959:12967   */\n      dup2\n        /* \"#utility.yul\":12948:12957   */\n      dup11\n        /* \"#utility.yul\":12944:12968   */\n      add\n        /* \"#utility.yul\":12934:12968   */\n      swap2\n      pop\n        /* \"#utility.yul\":13006:13013   */\n      dup11\n        /* \"#utility.yul\":12999:13003   */\n      0x1f\n        /* \"#utility.yul\":12995:12997   */\n      dup4\n        /* \"#utility.yul\":12991:13004   */\n      add\n        /* \"#utility.yul\":12987:13014   */\n      slt\n        /* \"#utility.yul\":12977:13032   */\n      tag_776\n      jumpi\n        /* \"#utility.yul\":13028:13029   */\n      0x00\n        /* \"#utility.yul\":13025:13026   */\n      dup1\n        /* \"#utility.yul\":13018:13030   */\n      revert\n        /* \"#utility.yul\":12977:13032   */\n    tag_776:\n        /* \"#utility.yul\":13064:13066   */\n      dup2\n        /* \"#utility.yul\":13051:13067   */\n      calldataload\n        /* \"#utility.yul\":13087:13146   */\n      tag_777\n        /* \"#utility.yul\":13103:13145   */\n      tag_778\n        /* \"#utility.yul\":13142:13144   */\n      dup3\n        /* \"#utility.yul\":13103:13145   */\n      tag_681\n      jump\t// in\n    tag_778:\n        /* \"#utility.yul\":13087:13146   */\n      tag_679\n      jump\t// in\n    tag_777:\n        /* \"#utility.yul\":13180:13195   */\n      dup2\n      dup2\n      mstore\n        /* \"#utility.yul\":13262:13263   */\n      0x05\n        /* \"#utility.yul\":13258:13268   */\n      swap2\n      swap1\n      swap2\n      shl\n        /* \"#utility.yul\":13250:13269   */\n      dup4\n      add\n        /* \"#utility.yul\":13246:13274   */\n      dup5\n      add\n      swap1\n        /* \"#utility.yul\":13211:13223   */\n      dup5\n      dup2\n      add\n      swap1\n        /* \"#utility.yul\":13286:13305   */\n      dup14\n      dup4\n      gt\n        /* \"#utility.yul\":13283:13322   */\n      iszero\n      tag_779\n      jumpi\n        /* \"#utility.yul\":13318:13319   */\n      0x00\n        /* \"#utility.yul\":13315:13316   */\n      dup1\n        /* \"#utility.yul\":13308:13320   */\n      revert\n        /* \"#utility.yul\":13283:13322   */\n    tag_779:\n        /* \"#utility.yul\":13350:13352   */\n      dup6\n        /* \"#utility.yul\":13346:13348   */\n      dup6\n        /* \"#utility.yul\":13342:13353   */\n      add\n        /* \"#utility.yul\":13362:13608   */\n    tag_780:\n        /* \"#utility.yul\":13378:13384   */\n      dup4\n        /* \"#utility.yul\":13373:13376   */\n      dup2\n        /* \"#utility.yul\":13370:13385   */\n      lt\n        /* \"#utility.yul\":13362:13608   */\n      iszero\n      tag_782\n      jumpi\n        /* \"#utility.yul\":13457:13459   */\n      dup5\n        /* \"#utility.yul\":13451:13454   */\n      dup2\n        /* \"#utility.yul\":13438:13455   */\n      calldataload\n        /* \"#utility.yul\":13435:13460   */\n      gt\n        /* \"#utility.yul\":13432:13477   */\n      iszero\n      tag_783\n      jumpi\n        /* \"#utility.yul\":13473:13474   */\n      0x00\n        /* \"#utility.yul\":13470:13471   */\n      dup1\n        /* \"#utility.yul\":13463:13475   */\n      revert\n        /* \"#utility.yul\":13432:13477   */\n    tag_783:\n        /* \"#utility.yul\":13502:13565   */\n      tag_784\n        /* \"#utility.yul\":13557:13564   */\n      dup16\n        /* \"#utility.yul\":13552:13554   */\n      dup9\n        /* \"#utility.yul\":13545:13548   */\n      dup4\n        /* \"#utility.yul\":13532:13549   */\n      calldataload\n        /* \"#utility.yul\":13528:13530   */\n      dup10\n        /* \"#utility.yul\":13524:13550   */\n      add\n        /* \"#utility.yul\":13520:13555   */\n      add\n        /* \"#utility.yul\":13502:13565   */\n      tag_680\n      jump\t// in\n    tag_784:\n        /* \"#utility.yul\":13490:13566   */\n      dup4\n      mstore\n        /* \"#utility.yul\":13586:13598   */\n      swap2\n      dup7\n      add\n      swap2\n        /* \"#utility.yul\":13395:13407   */\n      dup7\n      add\n        /* \"#utility.yul\":13362:13608   */\n      jump(tag_780)\n    tag_782:\n        /* \"#utility.yul\":13366:13369   */\n      pop\n        /* \"#utility.yul\":13627:13632   */\n      dup1\n        /* \"#utility.yul\":13617:13632   */\n      swap8\n      pop\n      pop\n      pop\n      pop\n      pop\n      pop\n      pop\n        /* \"#utility.yul\":13679:13682   */\n      0xa0\n        /* \"#utility.yul\":13668:13677   */\n      dup8\n        /* \"#utility.yul\":13664:13683   */\n      add\n        /* \"#utility.yul\":13651:13684   */\n      calldataload\n        /* \"#utility.yul\":13641:13684   */\n      swap1\n      pop\n        /* \"#utility.yul\":12184:13690   */\n      swap3\n      swap6\n      pop\n      swap3\n      swap6\n      pop\n      swap3\n      swap6\n      jump\t// out\n        /* \"#utility.yul\":14977:15826   */\n    tag_185:\n        /* \"#utility.yul\":15173:15177   */\n      0x00\n        /* \"#utility.yul\":15202:15204   */\n      0x20\n        /* \"#utility.yul\":15242:15244   */\n      dup1\n        /* \"#utility.yul\":15231:15240   */\n      dup4\n        /* \"#utility.yul\":15227:15245   */\n      add\n        /* \"#utility.yul\":15272:15274   */\n      dup2\n        /* \"#utility.yul\":15261:15270   */\n      dup5\n        /* \"#utility.yul\":15254:15275   */\n      mstore\n        /* \"#utility.yul\":15295:15301   */\n      dup1\n        /* \"#utility.yul\":15330:15336   */\n      dup6\n        /* \"#utility.yul\":15324:15337   */\n      mload\n        /* \"#utility.yul\":15361:15367   */\n      dup1\n        /* \"#utility.yul\":15353:15359   */\n      dup4\n        /* \"#utility.yul\":15346:15368   */\n      mstore\n        /* \"#utility.yul\":15399:15401   */\n      0x40\n        /* \"#utility.yul\":15388:15397   */\n      dup7\n        /* \"#utility.yul\":15384:15402   */\n      add\n        /* \"#utility.yul\":15377:15402   */\n      swap2\n      pop\n        /* \"#utility.yul\":15461:15463   */\n      0x40\n        /* \"#utility.yul\":15451:15457   */\n      dup2\n        /* \"#utility.yul\":15448:15449   */\n      0x05\n        /* \"#utility.yul\":15444:15458   */\n      shl\n        /* \"#utility.yul\":15433:15442   */\n      dup8\n        /* \"#utility.yul\":15429:15459   */\n      add\n        /* \"#utility.yul\":15425:15464   */\n      add\n        /* \"#utility.yul\":15411:15464   */\n      swap3\n      pop\n        /* \"#utility.yul\":15499:15501   */\n      dup4\n        /* \"#utility.yul\":15491:15497   */\n      dup8\n        /* \"#utility.yul\":15487:15502   */\n      add\n        /* \"#utility.yul\":15520:15521   */\n      0x00\n        /* \"#utility.yul\":15530:15797   */\n    tag_789:\n        /* \"#utility.yul\":15544:15550   */\n      dup3\n        /* \"#utility.yul\":15541:15542   */\n      dup2\n        /* \"#utility.yul\":15538:15551   */\n      lt\n        /* \"#utility.yul\":15530:15797   */\n      iszero\n      tag_715\n      jumpi\n        /* \"#utility.yul\":15637:15639   */\n      0x3f\n        /* \"#utility.yul\":15633:15640   */\n      not\n        /* \"#utility.yul\":15621:15630   */\n      dup9\n        /* \"#utility.yul\":15613:15619   */\n      dup7\n        /* \"#utility.yul\":15609:15631   */\n      sub\n        /* \"#utility.yul\":15605:15641   */\n      add\n        /* \"#utility.yul\":15600:15603   */\n      dup5\n        /* \"#utility.yul\":15593:15642   */\n      mstore\n        /* \"#utility.yul\":15665:15717   */\n      tag_792\n        /* \"#utility.yul\":15710:15716   */\n      dup6\n        /* \"#utility.yul\":15701:15707   */\n      dup4\n        /* \"#utility.yul\":15695:15708   */\n      mload\n        /* \"#utility.yul\":15665:15717   */\n      tag_678\n      jump\t// in\n    tag_792:\n        /* \"#utility.yul\":15655:15717   */\n      swap5\n      pop\n        /* \"#utility.yul\":15775:15787   */\n      swap3\n      dup6\n      add\n      swap3\n        /* \"#utility.yul\":15740:15755   */\n      swap1\n      dup6\n      add\n      swap1\n        /* \"#utility.yul\":15566:15567   */\n      0x01\n        /* \"#utility.yul\":15559:15568   */\n      add\n        /* \"#utility.yul\":15530:15797   */\n      jump(tag_789)\n        /* \"#utility.yul\":15831:16085   */\n    tag_192:\n        /* \"#utility.yul\":15899:15905   */\n      0x00\n        /* \"#utility.yul\":15907:15913   */\n      dup1\n        /* \"#utility.yul\":15960:15962   */\n      0x40\n        /* \"#utility.yul\":15948:15957   */\n      dup4\n        /* \"#utility.yul\":15939:15946   */\n      dup6\n        /* \"#utility.yul\":15935:15958   */\n      sub\n        /* \"#utility.yul\":15931:15963   */\n      slt\n        /* \"#utility.yul\":15928:15980   */\n      iszero\n      tag_794\n      jumpi\n        /* \"#utility.yul\":15976:15977   */\n      0x00\n        /* \"#utility.yul\":15973:15974   */\n      dup1\n        /* \"#utility.yul\":15966:15978   */\n      revert\n        /* \"#utility.yul\":15928:15980   */\n    tag_794:\n        /* \"#utility.yul\":15999:16028   */\n      tag_795\n        /* \"#utility.yul\":16018:16027   */\n      dup4\n        /* \"#utility.yul\":15999:16028   */\n      tag_673\n      jump\t// in\n    tag_795:\n        /* \"#utility.yul\":15989:16028   */\n      swap5\n        /* \"#utility.yul\":16075:16077   */\n      0x20\n        /* \"#utility.yul\":16060:16078   */\n      swap4\n      swap1\n      swap4\n      add\n        /* \"#utility.yul\":16047:16079   */\n      calldataload\n      swap4\n      pop\n      pop\n      pop\n        /* \"#utility.yul\":15831:16085   */\n      jump\t// out\n        /* \"#utility.yul\":16090:16481   */\n    tag_197:\n        /* \"#utility.yul\":16176:16182   */\n      0x00\n        /* \"#utility.yul\":16184:16190   */\n      dup1\n        /* \"#utility.yul\":16192:16198   */\n      0x00\n        /* \"#utility.yul\":16200:16206   */\n      dup1\n        /* \"#utility.yul\":16253:16256   */\n      0x80\n        /* \"#utility.yul\":16241:16250   */\n      dup6\n        /* \"#utility.yul\":16232:16239   */\n      dup8\n        /* \"#utility.yul\":16228:16251   */\n      sub\n        /* \"#utility.yul\":16224:16257   */\n      slt\n        /* \"#utility.yul\":16221:16274   */\n      iszero\n      tag_797\n      jumpi\n        /* \"#utility.yul\":16270:16271   */\n      0x00\n        /* \"#utility.yul\":16267:16268   */\n      dup1\n        /* \"#utility.yul\":16260:16272   */\n      revert\n        /* \"#utility.yul\":16221:16274   */\n    tag_797:\n        /* \"#utility.yul\":16306:16315   */\n      dup5\n        /* \"#utility.yul\":16293:16316   */\n      calldataload\n        /* \"#utility.yul\":16283:16316   */\n      swap4\n      pop\n        /* \"#utility.yul\":16363:16365   */\n      0x20\n        /* \"#utility.yul\":16352:16361   */\n      dup6\n        /* \"#utility.yul\":16348:16366   */\n      add\n        /* \"#utility.yul\":16335:16367   */\n      calldataload\n        /* \"#utility.yul\":16325:16367   */\n      swap3\n      pop\n        /* \"#utility.yul\":16414:16416   */\n      0x40\n        /* \"#utility.yul\":16403:16412   */\n      dup6\n        /* \"#utility.yul\":16399:16417   */\n      add\n        /* \"#utility.yul\":16386:16418   */\n      calldataload\n        /* \"#utility.yul\":16376:16418   */\n      swap2\n      pop\n        /* \"#utility.yul\":16437:16475   */\n      tag_798\n        /* \"#utility.yul\":16471:16473   */\n      0x60\n        /* \"#utility.yul\":16460:16469   */\n      dup7\n        /* \"#utility.yul\":16456:16474   */\n      add\n        /* \"#utility.yul\":16437:16475   */\n      tag_673\n      jump\t// in\n    tag_798:\n        /* \"#utility.yul\":16427:16475   */\n      swap1\n      pop\n        /* \"#utility.yul\":16090:16481   */\n      swap3\n      swap6\n      swap2\n      swap5\n      pop\n      swap3\n      pop\n      jump\t// out\n        /* \"#utility.yul\":16486:16737   */\n    tag_207:\n        /* \"#utility.yul\":16659:16661   */\n      0x20\n        /* \"#utility.yul\":16648:16657   */\n      dup2\n        /* \"#utility.yul\":16641:16662   */\n      mstore\n        /* \"#utility.yul\":16622:16626   */\n      0x00\n        /* \"#utility.yul\":16679:16731   */\n      tag_695\n        /* \"#utility.yul\":16727:16729   */\n      0x20\n        /* \"#utility.yul\":16716:16725   */\n      dup4\n        /* \"#utility.yul\":16712:16730   */\n      add\n        /* \"#utility.yul\":16704:16710   */\n      dup5\n        /* \"#utility.yul\":16679:16731   */\n      tag_677\n      jump\t// in\n        /* \"#utility.yul\":16742:16860   */\n    tag_682:\n        /* \"#utility.yul\":16828:16833   */\n      dup1\n        /* \"#utility.yul\":16821:16834   */\n      iszero\n        /* \"#utility.yul\":16814:16835   */\n      iszero\n        /* \"#utility.yul\":16807:16812   */\n      dup2\n        /* \"#utility.yul\":16804:16836   */\n      eq\n        /* \"#utility.yul\":16794:16854   */\n      tag_802\n      jumpi\n        /* \"#utility.yul\":16850:16851   */\n      0x00\n        /* \"#utility.yul\":16847:16848   */\n      dup1\n        /* \"#utility.yul\":16840:16852   */\n      revert\n        /* \"#utility.yul\":16794:16854   */\n    tag_802:\n        /* \"#utility.yul\":16742:16860   */\n      pop\n      jump\t// out\n        /* \"#utility.yul\":16865:17966   */\n    tag_210:\n        /* \"#utility.yul\":16964:16970   */\n      0x00\n        /* \"#utility.yul\":16972:16978   */\n      dup1\n        /* \"#utility.yul\":16980:16986   */\n      0x00\n        /* \"#utility.yul\":17033:17035   */\n      0x60\n        /* \"#utility.yul\":17021:17030   */\n      dup5\n        /* \"#utility.yul\":17012:17019   */\n      dup7\n        /* \"#utility.yul\":17008:17031   */\n      sub\n        /* \"#utility.yul\":17004:17036   */\n      slt\n        /* \"#utility.yul\":17001:17053   */\n      iszero\n      tag_804\n      jumpi\n        /* \"#utility.yul\":17049:17050   */\n      0x00\n        /* \"#utility.yul\":17046:17047   */\n      dup1\n        /* \"#utility.yul\":17039:17051   */\n      revert\n        /* \"#utility.yul\":17001:17053   */\n    tag_804:\n        /* \"#utility.yul\":17085:17094   */\n      dup4\n        /* \"#utility.yul\":17072:17095   */\n      calldataload\n        /* \"#utility.yul\":17062:17095   */\n      swap3\n      pop\n        /* \"#utility.yul\":17114:17116   */\n      0x20\n        /* \"#utility.yul\":17135:17173   */\n      tag_805\n        /* \"#utility.yul\":17169:17171   */\n      dup2\n        /* \"#utility.yul\":17158:17167   */\n      dup7\n        /* \"#utility.yul\":17154:17172   */\n      add\n        /* \"#utility.yul\":17135:17173   */\n      tag_673\n      jump\t// in\n    tag_805:\n        /* \"#utility.yul\":17125:17173   */\n      swap3\n      pop\n        /* \"#utility.yul\":17224:17226   */\n      0x40\n        /* \"#utility.yul\":17213:17222   */\n      dup6\n        /* \"#utility.yul\":17209:17227   */\n      add\n        /* \"#utility.yul\":17196:17228   */\n      calldataload\n      sub(shl(0x40, 0x01), 0x01)\n        /* \"#utility.yul\":17243:17249   */\n      dup2\n        /* \"#utility.yul\":17240:17270   */\n      gt\n        /* \"#utility.yul\":17237:17287   */\n      iszero\n      tag_806\n      jumpi\n        /* \"#utility.yul\":17283:17284   */\n      0x00\n        /* \"#utility.yul\":17280:17281   */\n      dup1\n        /* \"#utility.yul\":17273:17285   */\n      revert\n        /* \"#utility.yul\":17237:17287   */\n    tag_806:\n        /* \"#utility.yul\":17306:17328   */\n      dup6\n      add\n        /* \"#utility.yul\":17359:17363   */\n      0x1f\n        /* \"#utility.yul\":17351:17364   */\n      dup2\n      add\n        /* \"#utility.yul\":17347:17374   */\n      dup8\n      sgt\n        /* \"#utility.yul\":17337:17392   */\n      tag_807\n      jumpi\n        /* \"#utility.yul\":17388:17389   */\n      0x00\n        /* \"#utility.yul\":17385:17386   */\n      dup1\n        /* \"#utility.yul\":17378:17390   */\n      revert\n        /* \"#utility.yul\":17337:17392   */\n    tag_807:\n        /* \"#utility.yul\":17424:17426   */\n      dup1\n        /* \"#utility.yul\":17411:17427   */\n      calldataload\n        /* \"#utility.yul\":17447:17506   */\n      tag_808\n        /* \"#utility.yul\":17463:17505   */\n      tag_778\n        /* \"#utility.yul\":17502:17504   */\n      dup3\n        /* \"#utility.yul\":17463:17505   */\n      tag_681\n      jump\t// in\n        /* \"#utility.yul\":17447:17506   */\n    tag_808:\n        /* \"#utility.yul\":17540:17555   */\n      dup2\n      dup2\n      mstore\n        /* \"#utility.yul\":17622:17623   */\n      0x05\n        /* \"#utility.yul\":17618:17628   */\n      swap2\n      swap1\n      swap2\n      shl\n        /* \"#utility.yul\":17610:17629   */\n      dup3\n      add\n        /* \"#utility.yul\":17606:17634   */\n      dup4\n      add\n      swap1\n        /* \"#utility.yul\":17571:17583   */\n      dup4\n      dup2\n      add\n      swap1\n        /* \"#utility.yul\":17646:17665   */\n      dup10\n      dup4\n      gt\n        /* \"#utility.yul\":17643:17682   */\n      iszero\n      tag_810\n      jumpi\n        /* \"#utility.yul\":17678:17679   */\n      0x00\n        /* \"#utility.yul\":17675:17676   */\n      dup1\n        /* \"#utility.yul\":17668:17680   */\n      revert\n        /* \"#utility.yul\":17643:17682   */\n    tag_810:\n        /* \"#utility.yul\":17702:17713   */\n      swap3\n      dup5\n      add\n      swap3\n        /* \"#utility.yul\":17722:17936   */\n    tag_811:\n        /* \"#utility.yul\":17738:17744   */\n      dup3\n        /* \"#utility.yul\":17733:17736   */\n      dup5\n        /* \"#utility.yul\":17730:17745   */\n      lt\n        /* \"#utility.yul\":17722:17936   */\n      iszero\n      tag_813\n      jumpi\n        /* \"#utility.yul\":17818:17821   */\n      dup4\n        /* \"#utility.yul\":17805:17822   */\n      calldataload\n        /* \"#utility.yul\":17835:17863   */\n      tag_814\n        /* \"#utility.yul\":17857:17862   */\n      dup2\n        /* \"#utility.yul\":17835:17863   */\n      tag_682\n      jump\t// in\n    tag_814:\n        /* \"#utility.yul\":17876:17894   */\n      dup3\n      mstore\n        /* \"#utility.yul\":17755:17767   */\n      swap3\n      dup5\n      add\n      swap3\n        /* \"#utility.yul\":17914:17926   */\n      swap1\n      dup5\n      add\n      swap1\n        /* \"#utility.yul\":17722:17936   */\n      jump(tag_811)\n    tag_813:\n        /* \"#utility.yul\":17955:17960   */\n      dup1\n        /* \"#utility.yul\":17945:17960   */\n      swap6\n      pop\n      pop\n      pop\n      pop\n      pop\n      pop\n        /* \"#utility.yul\":16865:17966   */\n      swap3\n      pop\n      swap3\n      pop\n      swap3\n      jump\t// out\n        /* \"#utility.yul\":17971:19211   */\n    tag_224:\n        /* \"#utility.yul\":18161:18165   */\n      0x00\n        /* \"#utility.yul\":18190:18192   */\n      0x20\n        /* \"#utility.yul\":18230:18232   */\n      dup1\n        /* \"#utility.yul\":18219:18228   */\n      dup4\n        /* \"#utility.yul\":18215:18233   */\n      add\n        /* \"#utility.yul\":18260:18262   */\n      dup2\n        /* \"#utility.yul\":18249:18258   */\n      dup5\n        /* \"#utility.yul\":18242:18263   */\n      mstore\n        /* \"#utility.yul\":18283:18289   */\n      dup1\n        /* \"#utility.yul\":18318:18324   */\n      dup6\n        /* \"#utility.yul\":18312:18325   */\n      mload\n        /* \"#utility.yul\":18349:18355   */\n      dup1\n        /* \"#utility.yul\":18341:18347   */\n      dup4\n        /* \"#utility.yul\":18334:18356   */\n      mstore\n        /* \"#utility.yul\":18375:18377   */\n      0x40\n        /* \"#utility.yul\":18365:18377   */\n      swap3\n      pop\n        /* \"#utility.yul\":18408:18410   */\n      dup3\n        /* \"#utility.yul\":18397:18406   */\n      dup7\n        /* \"#utility.yul\":18393:18411   */\n      add\n        /* \"#utility.yul\":18386:18411   */\n      swap2\n      pop\n        /* \"#utility.yul\":18470:18472   */\n      dup3\n        /* \"#utility.yul\":18460:18466   */\n      dup2\n        /* \"#utility.yul\":18457:18458   */\n      0x05\n        /* \"#utility.yul\":18453:18467   */\n      shl\n        /* \"#utility.yul\":18442:18451   */\n      dup8\n        /* \"#utility.yul\":18438:18468   */\n      add\n        /* \"#utility.yul\":18434:18473   */\n      add\n        /* \"#utility.yul\":18508:18510   */\n      dup5\n        /* \"#utility.yul\":18500:18506   */\n      dup9\n        /* \"#utility.yul\":18496:18511   */\n      add\n        /* \"#utility.yul\":18529:18530   */\n      0x00\n        /* \"#utility.yul\":18539:19182   */\n    tag_816:\n        /* \"#utility.yul\":18553:18559   */\n      dup4\n        /* \"#utility.yul\":18550:18551   */\n      dup2\n        /* \"#utility.yul\":18547:18560   */\n      lt\n        /* \"#utility.yul\":18539:19182   */\n      iszero\n      tag_818\n      jumpi\n        /* \"#utility.yul\":18646:18648   */\n      0x3f\n        /* \"#utility.yul\":18642:18649   */\n      not\n        /* \"#utility.yul\":18630:18639   */\n      dup10\n        /* \"#utility.yul\":18622:18628   */\n      dup5\n        /* \"#utility.yul\":18618:18640   */\n      sub\n        /* \"#utility.yul\":18614:18650   */\n      add\n        /* \"#utility.yul\":18609:18612   */\n      dup6\n        /* \"#utility.yul\":18602:18651   */\n      mstore\n        /* \"#utility.yul\":18680:18686   */\n      dup2\n        /* \"#utility.yul\":18674:18687   */\n      mload\n        /* \"#utility.yul\":18710:18714   */\n      0x80\n        /* \"#utility.yul\":18748:18750   */\n      dup2\n        /* \"#utility.yul\":18742:18751   */\n      mload\n        /* \"#utility.yul\":18734:18740   */\n      dup6\n        /* \"#utility.yul\":18727:18752   */\n      mstore\n        /* \"#utility.yul\":18803:18805   */\n      dup9\n        /* \"#utility.yul\":18799:18801   */\n      dup3\n        /* \"#utility.yul\":18795:18806   */\n      add\n        /* \"#utility.yul\":18789:18807   */\n      mload\n        /* \"#utility.yul\":18784:18786   */\n      dup10\n        /* \"#utility.yul\":18776:18782   */\n      dup7\n        /* \"#utility.yul\":18772:18787   */\n      add\n        /* \"#utility.yul\":18765:18808   */\n      mstore\n        /* \"#utility.yul\":18855:18857   */\n      dup8\n        /* \"#utility.yul\":18851:18853   */\n      dup3\n        /* \"#utility.yul\":18847:18858   */\n      add\n        /* \"#utility.yul\":18841:18859   */\n      mload\n        /* \"#utility.yul\":18896:18898   */\n      dup2\n        /* \"#utility.yul\":18891:18893   */\n      dup10\n        /* \"#utility.yul\":18883:18889   */\n      dup8\n        /* \"#utility.yul\":18879:18894   */\n      add\n        /* \"#utility.yul\":18872:18899   */\n      mstore\n        /* \"#utility.yul\":18926:18974   */\n      tag_819\n        /* \"#utility.yul\":18970:18972   */\n      dup3\n        /* \"#utility.yul\":18962:18968   */\n      dup8\n        /* \"#utility.yul\":18958:18973   */\n      add\n        /* \"#utility.yul\":18944:18956   */\n      dup3\n        /* \"#utility.yul\":18926:18974   */\n      tag_675\n      jump\t// in\n    tag_819:\n        /* \"#utility.yul\":18997:19001   */\n      0x60\n        /* \"#utility.yul\":19058:19069   */\n      swap4\n      dup5\n      add\n        /* \"#utility.yul\":19052:19070   */\n      mload\n        /* \"#utility.yul\":19045:19071   */\n      iszero\n        /* \"#utility.yul\":19038:19072   */\n      iszero\n        /* \"#utility.yul\":19021:19036   */\n      swap7\n      swap1\n      swap4\n      add\n        /* \"#utility.yul\":19014:19073   */\n      swap6\n      swap1\n      swap6\n      mstore\n      pop\n        /* \"#utility.yul\":19160:19172   */\n      swap5\n      dup8\n      add\n      swap5\n        /* \"#utility.yul\":18912:18974   */\n      swap3\n      pop\n        /* \"#utility.yul\":19125:19140   */\n      swap1\n      dup7\n      add\n      swap1\n        /* \"#utility.yul\":18575:18576   */\n      0x01\n        /* \"#utility.yul\":18568:18577   */\n      add\n        /* \"#utility.yul\":18539:19182   */\n      jump(tag_816)\n    tag_818:\n      pop\n        /* \"#utility.yul\":19199:19205   */\n      swap1\n      swap9\n        /* \"#utility.yul\":17971:19211   */\n      swap8\n      pop\n      pop\n      pop\n      pop\n      pop\n      pop\n      pop\n      pop\n      jump\t// out\n        /* \"#utility.yul\":19216:20199   */\n    tag_233:\n        /* \"#utility.yul\":19587:19612   */\n      dup9\n      dup2\n      mstore\n      sub(shl(0xa0, 0x01), 0x01)\n        /* \"#utility.yul\":19648:19680   */\n      dup9\n      and\n        /* \"#utility.yul\":19643:19645   */\n      0x20\n        /* \"#utility.yul\":19628:19646   */\n      dup3\n      add\n        /* \"#utility.yul\":19621:19681   */\n      mstore\n        /* \"#utility.yul\":19575:19578   */\n      0x0100\n        /* \"#utility.yul\":19712:19714   */\n      0x40\n        /* \"#utility.yul\":19697:19715   */\n      dup3\n      add\n        /* \"#utility.yul\":19690:19720   */\n      dup2\n      swap1\n      mstore\n        /* \"#utility.yul\":19546:19550   */\n      0x00\n      swap1\n        /* \"#utility.yul\":19743:19788   */\n      tag_821\n        /* \"#utility.yul\":19769:19787   */\n      dup4\n      dup3\n      add\n        /* \"#utility.yul\":19761:19767   */\n      dup11\n        /* \"#utility.yul\":19743:19788   */\n      tag_675\n      jump\t// in\n    tag_821:\n        /* \"#utility.yul\":19729:19788   */\n      swap1\n      pop\n        /* \"#utility.yul\":19836:19845   */\n      dup3\n        /* \"#utility.yul\":19828:19834   */\n      dup2\n        /* \"#utility.yul\":19824:19846   */\n      sub\n        /* \"#utility.yul\":19819:19821   */\n      0x60\n        /* \"#utility.yul\":19808:19817   */\n      dup5\n        /* \"#utility.yul\":19804:19822   */\n      add\n        /* \"#utility.yul\":19797:19847   */\n      mstore\n        /* \"#utility.yul\":19870:19903   */\n      tag_822\n        /* \"#utility.yul\":19896:19902   */\n      dup2\n        /* \"#utility.yul\":19888:19894   */\n      dup10\n        /* \"#utility.yul\":19870:19903   */\n      tag_675\n      jump\t// in\n    tag_822:\n        /* \"#utility.yul\":19856:19903   */\n      swap1\n      pop\n        /* \"#utility.yul\":19952:19961   */\n      dup3\n        /* \"#utility.yul\":19944:19950   */\n      dup2\n        /* \"#utility.yul\":19940:19962   */\n      sub\n        /* \"#utility.yul\":19934:19937   */\n      0x80\n        /* \"#utility.yul\":19923:19932   */\n      dup5\n        /* \"#utility.yul\":19919:19938   */\n      add\n        /* \"#utility.yul\":19912:19963   */\n      mstore\n        /* \"#utility.yul\":19980:20013   */\n      tag_823\n        /* \"#utility.yul\":20006:20012   */\n      dup2\n        /* \"#utility.yul\":19998:20004   */\n      dup9\n        /* \"#utility.yul\":19980:20013   */\n      tag_675\n      jump\t// in\n    tag_823:\n        /* \"#utility.yul\":20057:20071   */\n      swap6\n      iszero\n        /* \"#utility.yul\":20050:20072   */\n      iszero\n        /* \"#utility.yul\":20044:20047   */\n      0xa0\n        /* \"#utility.yul\":20029:20048   */\n      dup5\n      add\n        /* \"#utility.yul\":20022:20073   */\n      mstore\n      pop\n      pop\n        /* \"#utility.yul\":20117:20131   */\n      swap2\n      iszero\n        /* \"#utility.yul\":20110:20132   */\n      iszero\n        /* \"#utility.yul\":20104:20107   */\n      0xc0\n        /* \"#utility.yul\":20089:20108   */\n      dup4\n      add\n        /* \"#utility.yul\":20082:20133   */\n      mstore\n        /* \"#utility.yul\":20177:20191   */\n      iszero\n        /* \"#utility.yul\":20170:20192   */\n      iszero\n        /* \"#utility.yul\":20164:20167   */\n      0xe0\n        /* \"#utility.yul\":20149:20168   */\n      swap1\n      swap2\n      add\n        /* \"#utility.yul\":20142:20193   */\n      mstore\n        /* \"#utility.yul\":19972:20013   */\n      swap6\n        /* \"#utility.yul\":19216:20199   */\n      swap5\n      pop\n      pop\n      pop\n      pop\n      pop\n      jump\t// out\n        /* \"#utility.yul\":20204:20649   */\n    tag_238:\n        /* \"#utility.yul\":20431:20437   */\n      dup5\n        /* \"#utility.yul\":20420:20429   */\n      dup2\n        /* \"#utility.yul\":20413:20438   */\n      mstore\n        /* \"#utility.yul\":20474:20480   */\n      dup4\n        /* \"#utility.yul\":20469:20471   */\n      0x20\n        /* \"#utility.yul\":20458:20467   */\n      dup3\n        /* \"#utility.yul\":20454:20472   */\n      add\n        /* \"#utility.yul\":20447:20481   */\n      mstore\n        /* \"#utility.yul\":20517:20520   */\n      0x80\n        /* \"#utility.yul\":20512:20514   */\n      0x40\n        /* \"#utility.yul\":20501:20510   */\n      dup3\n        /* \"#utility.yul\":20497:20515   */\n      add\n        /* \"#utility.yul\":20490:20521   */\n      mstore\n        /* \"#utility.yul\":20394:20398   */\n      0x00\n        /* \"#utility.yul\":20538:20584   */\n      tag_825\n        /* \"#utility.yul\":20579:20582   */\n      0x80\n        /* \"#utility.yul\":20568:20577   */\n      dup4\n        /* \"#utility.yul\":20564:20583   */\n      add\n        /* \"#utility.yul\":20556:20562   */\n      dup6\n        /* \"#utility.yul\":20538:20584   */\n      tag_675\n      jump\t// in\n    tag_825:\n        /* \"#utility.yul\":20530:20584   */\n      swap1\n      pop\n        /* \"#utility.yul\":20634:20640   */\n      dup3\n        /* \"#utility.yul\":20627:20641   */\n      iszero\n        /* \"#utility.yul\":20620:20642   */\n      iszero\n        /* \"#utility.yul\":20615:20617   */\n      0x60\n        /* \"#utility.yul\":20604:20613   */\n      dup4\n        /* \"#utility.yul\":20600:20618   */\n      add\n        /* \"#utility.yul\":20593:20643   */\n      mstore\n        /* \"#utility.yul\":20204:20649   */\n      swap6\n      swap5\n      pop\n      pop\n      pop\n      pop\n      pop\n      jump\t// out\n        /* \"#utility.yul\":20654:20781   */\n    tag_683:\n        /* \"#utility.yul\":20715:20725   */\n      0x4e487b71\n        /* \"#utility.yul\":20710:20713   */\n      0xe0\n        /* \"#utility.yul\":20706:20726   */\n      shl\n        /* \"#utility.yul\":20703:20704   */\n      0x00\n        /* \"#utility.yul\":20696:20727   */\n      mstore\n        /* \"#utility.yul\":20746:20750   */\n      0x11\n        /* \"#utility.yul\":20743:20744   */\n      0x04\n        /* \"#utility.yul\":20736:20751   */\n      mstore\n        /* \"#utility.yul\":20770:20774   */\n      0x24\n        /* \"#utility.yul\":20767:20768   */\n      0x00\n        /* \"#utility.yul\":20760:20775   */\n      revert\n        /* \"#utility.yul\":20786:20954   */\n    tag_241:\n        /* \"#utility.yul\":20859:20868   */\n      dup1\n      dup3\n      mul\n        /* \"#utility.yul\":20890:20899   */\n      dup2\n      iszero\n        /* \"#utility.yul\":20907:20922   */\n      dup3\n      dup3\n      div\n        /* \"#utility.yul\":20901:20923   */\n      dup5\n      eq\n        /* \"#utility.yul\":20887:20924   */\n      or\n        /* \"#utility.yul\":20877:20948   */\n      tag_239\n      jumpi\n        /* \"#utility.yul\":20928:20946   */\n      tag_239\n      tag_683\n      jump\t// in\n        /* \"#utility.yul\":20959:21084   */\n    tag_243:\n        /* \"#utility.yul\":21024:21033   */\n      dup1\n      dup3\n      add\n        /* \"#utility.yul\":21045:21055   */\n      dup1\n      dup3\n      gt\n        /* \"#utility.yul\":21042:21078   */\n      iszero\n      tag_239\n      jumpi\n        /* \"#utility.yul\":21058:21076   */\n      tag_239\n      tag_683\n      jump\t// in\n        /* \"#utility.yul\":21089:21469   */\n    tag_257:\n        /* \"#utility.yul\":21168:21169   */\n      0x01\n        /* \"#utility.yul\":21164:21176   */\n      dup2\n      dup2\n      shr\n      swap1\n        /* \"#utility.yul\":21211:21223   */\n      dup3\n      and\n      dup1\n        /* \"#utility.yul\":21232:21293   */\n      tag_834\n      jumpi\n        /* \"#utility.yul\":21286:21290   */\n      0x7f\n        /* \"#utility.yul\":21278:21284   */\n      dup3\n        /* \"#utility.yul\":21274:21291   */\n      and\n        /* \"#utility.yul\":21264:21291   */\n      swap2\n      pop\n        /* \"#utility.yul\":21232:21293   */\n    tag_834:\n        /* \"#utility.yul\":21339:21341   */\n      0x20\n        /* \"#utility.yul\":21331:21337   */\n      dup3\n        /* \"#utility.yul\":21328:21342   */\n      lt\n        /* \"#utility.yul\":21308:21326   */\n      dup2\n        /* \"#utility.yul\":21305:21343   */\n      sub\n        /* \"#utility.yul\":21302:21463   */\n      tag_835\n      jumpi\n        /* \"#utility.yul\":21385:21395   */\n      0x4e487b71\n        /* \"#utility.yul\":21380:21383   */\n      0xe0\n        /* \"#utility.yul\":21376:21396   */\n      shl\n        /* \"#utility.yul\":21373:21374   */\n      0x00\n        /* \"#utility.yul\":21366:21397   */\n      mstore\n        /* \"#utility.yul\":21420:21424   */\n      0x22\n        /* \"#utility.yul\":21417:21418   */\n      0x04\n        /* \"#utility.yul\":21410:21425   */\n      mstore\n        /* \"#utility.yul\":21448:21452   */\n      0x24\n        /* \"#utility.yul\":21445:21446   */\n      0x00\n        /* \"#utility.yul\":21438:21453   */\n      revert\n        /* \"#utility.yul\":21302:21463   */\n    tag_835:\n      pop\n        /* \"#utility.yul\":21089:21469   */\n      swap2\n      swap1\n      pop\n      jump\t// out\n        /* \"#utility.yul\":21474:21601   */\n    tag_285:\n        /* \"#utility.yul\":21535:21545   */\n      0x4e487b71\n        /* \"#utility.yul\":21530:21533   */\n      0xe0\n        /* \"#utility.yul\":21526:21546   */\n      shl\n        /* \"#utility.yul\":21523:21524   */\n      0x00\n        /* \"#utility.yul\":21516:21547   */\n      mstore\n        /* \"#utility.yul\":21566:21570   */\n      0x32\n        /* \"#utility.yul\":21563:21564   */\n      0x04\n        /* \"#utility.yul\":21556:21571   */\n      mstore\n        /* \"#utility.yul\":21590:21594   */\n      0x24\n        /* \"#utility.yul\":21587:21588   */\n      0x00\n        /* \"#utility.yul\":21580:21595   */\n      revert\n        /* \"#utility.yul\":21606:21741   */\n    tag_296:\n        /* \"#utility.yul\":21645:21648   */\n      0x00\n        /* \"#utility.yul\":21666:21683   */\n      0x01\n      dup3\n      add\n        /* \"#utility.yul\":21663:21706   */\n      tag_839\n      jumpi\n        /* \"#utility.yul\":21686:21704   */\n      tag_839\n      tag_683\n      jump\t// in\n    tag_839:\n      pop\n        /* \"#utility.yul\":21733:21734   */\n      0x01\n        /* \"#utility.yul\":21722:21735   */\n      add\n      swap1\n        /* \"#utility.yul\":21606:21741   */\n      jump\t// out\n        /* \"#utility.yul\":21746:21963   */\n    tag_329:\n        /* \"#utility.yul\":21786:21787   */\n      0x00\n        /* \"#utility.yul\":21812:21813   */\n      dup3\n        /* \"#utility.yul\":21802:21934   */\n      tag_841\n      jumpi\n        /* \"#utility.yul\":21856:21866   */\n      0x4e487b71\n        /* \"#utility.yul\":21851:21854   */\n      0xe0\n        /* \"#utility.yul\":21847:21867   */\n      shl\n        /* \"#utility.yul\":21844:21845   */\n      0x00\n        /* \"#utility.yul\":21837:21868   */\n      mstore\n        /* \"#utility.yul\":21891:21895   */\n      0x12\n        /* \"#utility.yul\":21888:21889   */\n      0x04\n        /* \"#utility.yul\":21881:21896   */\n      mstore\n        /* \"#utility.yul\":21919:21923   */\n      0x24\n        /* \"#utility.yul\":21916:21917   */\n      0x00\n        /* \"#utility.yul\":21909:21924   */\n      revert\n        /* \"#utility.yul\":21802:21934   */\n    tag_841:\n      pop\n        /* \"#utility.yul\":21948:21957   */\n      div\n      swap1\n        /* \"#utility.yul\":21746:21963   */\n      jump\t// out\n        /* \"#utility.yul\":22094:22639   */\n    tag_685:\n        /* \"#utility.yul\":22196:22198   */\n      0x1f\n        /* \"#utility.yul\":22191:22194   */\n      dup3\n        /* \"#utility.yul\":22188:22199   */\n      gt\n        /* \"#utility.yul\":22185:22633   */\n      iszero\n      tag_844\n      jumpi\n        /* \"#utility.yul\":22232:22233   */\n      0x00\n        /* \"#utility.yul\":22257:22262   */\n      dup2\n        /* \"#utility.yul\":22253:22255   */\n      dup2\n        /* \"#utility.yul\":22246:22263   */\n      mstore\n        /* \"#utility.yul\":22302:22306   */\n      0x20\n        /* \"#utility.yul\":22298:22300   */\n      dup2\n        /* \"#utility.yul\":22288:22307   */\n      keccak256\n        /* \"#utility.yul\":22372:22374   */\n      0x1f\n        /* \"#utility.yul\":22360:22370   */\n      dup6\n        /* \"#utility.yul\":22356:22375   */\n      add\n        /* \"#utility.yul\":22353:22354   */\n      0x05\n        /* \"#utility.yul\":22349:22376   */\n      shr\n        /* \"#utility.yul\":22343:22347   */\n      dup2\n        /* \"#utility.yul\":22339:22377   */\n      add\n        /* \"#utility.yul\":22408:22412   */\n      0x20\n        /* \"#utility.yul\":22396:22406   */\n      dup7\n        /* \"#utility.yul\":22393:22413   */\n      lt\n        /* \"#utility.yul\":22390:22437   */\n      iszero\n      tag_845\n      jumpi\n      pop\n        /* \"#utility.yul\":22431:22435   */\n      dup1\n        /* \"#utility.yul\":22390:22437   */\n    tag_845:\n        /* \"#utility.yul\":22486:22488   */\n      0x1f\n        /* \"#utility.yul\":22481:22484   */\n      dup6\n        /* \"#utility.yul\":22477:22489   */\n      add\n        /* \"#utility.yul\":22474:22475   */\n      0x05\n        /* \"#utility.yul\":22470:22490   */\n      shr\n        /* \"#utility.yul\":22464:22468   */\n      dup3\n        /* \"#utility.yul\":22460:22491   */\n      add\n        /* \"#utility.yul\":22450:22491   */\n      swap2\n      pop\n        /* \"#utility.yul\":22541:22623   */\n    tag_846:\n        /* \"#utility.yul\":22559:22561   */\n      dup2\n        /* \"#utility.yul\":22552:22557   */\n      dup2\n        /* \"#utility.yul\":22549:22562   */\n      lt\n        /* \"#utility.yul\":22541:22623   */\n      iszero\n      tag_848\n      jumpi\n        /* \"#utility.yul\":22604:22621   */\n      dup3\n      dup2\n      sstore\n        /* \"#utility.yul\":22585:22586   */\n      0x01\n        /* \"#utility.yul\":22574:22587   */\n      add\n        /* \"#utility.yul\":22541:22623   */\n      jump(tag_846)\n    tag_848:\n        /* \"#utility.yul\":22545:22548   */\n      pop\n      pop\n      pop\n        /* \"#utility.yul\":22185:22633   */\n    tag_844:\n        /* \"#utility.yul\":22094:22639   */\n      pop\n      pop\n      pop\n      jump\t// out\n        /* \"#utility.yul\":22815:24167   */\n    tag_436:\n        /* \"#utility.yul\":22941:22944   */\n      dup2\n        /* \"#utility.yul\":22935:22945   */\n      mload\n      sub(shl(0x40, 0x01), 0x01)\n        /* \"#utility.yul\":22960:22966   */\n      dup2\n        /* \"#utility.yul\":22957:22987   */\n      gt\n        /* \"#utility.yul\":22954:23010   */\n      iszero\n      tag_852\n      jumpi\n        /* \"#utility.yul\":22990:23008   */\n      tag_852\n      tag_275\n      jump\t// in\n    tag_852:\n        /* \"#utility.yul\":23019:23116   */\n      tag_853\n        /* \"#utility.yul\":23109:23115   */\n      dup2\n        /* \"#utility.yul\":23069:23107   */\n      tag_854\n        /* \"#utility.yul\":23101:23105   */\n      dup5\n        /* \"#utility.yul\":23095:23106   */\n      sload\n        /* \"#utility.yul\":23069:23107   */\n      tag_257\n      jump\t// in\n    tag_854:\n        /* \"#utility.yul\":23063:23067   */\n      dup5\n        /* \"#utility.yul\":23019:23116   */\n      tag_685\n      jump\t// in\n    tag_853:\n        /* \"#utility.yul\":23171:23175   */\n      0x20\n      dup1\n        /* \"#utility.yul\":23235:23237   */\n      0x1f\n        /* \"#utility.yul\":23224:23238   */\n      dup4\n      gt\n        /* \"#utility.yul\":23252:23253   */\n      0x01\n        /* \"#utility.yul\":23247:23910   */\n      dup2\n      eq\n      tag_856\n      jumpi\n        /* \"#utility.yul\":23954:23955   */\n      0x00\n        /* \"#utility.yul\":23971:23977   */\n      dup5\n        /* \"#utility.yul\":23968:24057   */\n      iszero\n      tag_857\n      jumpi\n      pop\n        /* \"#utility.yul\":24023:24042   */\n      dup6\n      dup4\n      add\n        /* \"#utility.yul\":24017:24043   */\n      mload\n        /* \"#utility.yul\":23968:24057   */\n    tag_857:\n      not(0x00)\n        /* \"#utility.yul\":22772:22773   */\n      0x03\n        /* \"#utility.yul\":22768:22779   */\n      dup7\n      swap1\n      shl\n        /* \"#utility.yul\":22764:22788   */\n      shr\n        /* \"#utility.yul\":22760:22789   */\n      not\n        /* \"#utility.yul\":22750:22790   */\n      and\n        /* \"#utility.yul\":22796:22797   */\n      0x01\n        /* \"#utility.yul\":22792:22803   */\n      dup6\n      swap1\n      shl\n        /* \"#utility.yul\":22747:22804   */\n      or\n        /* \"#utility.yul\":24070:24151   */\n      dup6\n      sstore\n        /* \"#utility.yul\":23217:24161   */\n      jump(tag_848)\n        /* \"#utility.yul\":23247:23910   */\n    tag_856:\n        /* \"#utility.yul\":22041:22042   */\n      0x00\n        /* \"#utility.yul\":22034:22048   */\n      dup6\n      dup2\n      mstore\n        /* \"#utility.yul\":22078:22082   */\n      0x20\n        /* \"#utility.yul\":22065:22083   */\n      dup2\n      keccak256\n      not(0x1f)\n        /* \"#utility.yul\":23283:23303   */\n      dup7\n      and\n      swap2\n        /* \"#utility.yul\":23401:23637   */\n    tag_860:\n        /* \"#utility.yul\":23415:23422   */\n      dup3\n        /* \"#utility.yul\":23412:23413   */\n      dup2\n        /* \"#utility.yul\":23409:23423   */\n      lt\n        /* \"#utility.yul\":23401:23637   */\n      iszero\n      tag_862\n      jumpi\n        /* \"#utility.yul\":23504:23523   */\n      dup9\n      dup7\n      add\n        /* \"#utility.yul\":23498:23524   */\n      mload\n        /* \"#utility.yul\":23483:23525   */\n      dup3\n      sstore\n        /* \"#utility.yul\":23596:23623   */\n      swap5\n      dup5\n      add\n      swap5\n        /* \"#utility.yul\":23564:23565   */\n      0x01\n        /* \"#utility.yul\":23552:23566   */\n      swap1\n      swap2\n      add\n      swap1\n        /* \"#utility.yul\":23431:23450   */\n      dup5\n      add\n        /* \"#utility.yul\":23401:23637   */\n      jump(tag_860)\n    tag_862:\n        /* \"#utility.yul\":23405:23408   */\n      pop\n        /* \"#utility.yul\":23665:23671   */\n      dup6\n        /* \"#utility.yul\":23656:23663   */\n      dup3\n        /* \"#utility.yul\":23653:23672   */\n      lt\n        /* \"#utility.yul\":23650:23851   */\n      iszero\n      tag_863\n      jumpi\n        /* \"#utility.yul\":23726:23745   */\n      dup8\n      dup6\n      add\n        /* \"#utility.yul\":23720:23746   */\n      mload\n      not(0x00)\n        /* \"#utility.yul\":23809:23810   */\n      0x03\n        /* \"#utility.yul\":23805:23819   */\n      dup9\n      swap1\n      shl\n        /* \"#utility.yul\":23821:23824   */\n      0xf8\n        /* \"#utility.yul\":23801:23825   */\n      and\n        /* \"#utility.yul\":23797:23834   */\n      shr\n        /* \"#utility.yul\":23793:23835   */\n      not\n        /* \"#utility.yul\":23778:23836   */\n      and\n        /* \"#utility.yul\":23763:23837   */\n      dup2\n      sstore\n        /* \"#utility.yul\":23650:23851   */\n    tag_863:\n      pop\n      pop\n      pop\n      pop\n      pop\n        /* \"#utility.yul\":23897:23898   */\n      0x01\n        /* \"#utility.yul\":23881:23895   */\n      swap1\n      dup2\n      shl\n        /* \"#utility.yul\":23877:23899   */\n      add\n        /* \"#utility.yul\":23864:23900   */\n      swap1\n      sstore\n      pop\n        /* \"#utility.yul\":22815:24167   */\n      jump\t// out\n        /* \"#utility.yul\":24451:24696   */\n    tag_511:\n        /* \"#utility.yul\":24518:24524   */\n      0x00\n        /* \"#utility.yul\":24571:24573   */\n      0x20\n        /* \"#utility.yul\":24559:24568   */\n      dup3\n        /* \"#utility.yul\":24550:24557   */\n      dup5\n        /* \"#utility.yul\":24546:24569   */\n      sub\n        /* \"#utility.yul\":24542:24574   */\n      slt\n        /* \"#utility.yul\":24539:24591   */\n      iszero\n      tag_866\n      jumpi\n        /* \"#utility.yul\":24587:24588   */\n      0x00\n        /* \"#utility.yul\":24584:24585   */\n      dup1\n        /* \"#utility.yul\":24577:24589   */\n      revert\n        /* \"#utility.yul\":24539:24591   */\n    tag_866:\n        /* \"#utility.yul\":24619:24628   */\n      dup2\n        /* \"#utility.yul\":24613:24629   */\n      mload\n        /* \"#utility.yul\":24638:24666   */\n      tag_250\n        /* \"#utility.yul\":24660:24665   */\n      dup2\n        /* \"#utility.yul\":24638:24666   */\n      tag_682\n      jump\t// in\n\n    auxdata: 0xa2646970667358221220da1f606396234eb2cbbebaba14044521f32adb4878de2a886b687cffab889cad64736f6c63430008130033\n}\n",
				"bytecode": {
					"linkReferences": {},
					"object": "608060408190526000805473ece897a85688f2e83a73fed36b9d1a6efcc99e936001600160a01b0319918216179091556015805473874069fa1eb16d44d622f2e0ca25eea172369bc192168217905563313ce56760e01b82529063313ce56790608490602090600481865afa1580156200007d573d6000803e3d6000fd5b505050506040513d601f19601f82011682018060405250810190620000a39190620000c7565b620000b090600a62000208565b601655348015620000c057600080fd5b5062000219565b600060208284031215620000da57600080fd5b815160ff81168114620000ec57600080fd5b9392505050565b634e487b7160e01b600052601160045260246000fd5b600181815b808511156200014a5781600019048211156200012e576200012e620000f3565b808516156200013c57918102915b93841c93908002906200010e565b509250929050565b600082620001635750600162000202565b81620001725750600062000202565b81600181146200018b57600281146200019657620001b6565b600191505062000202565b60ff841115620001aa57620001aa620000f3565b50506001821b62000202565b5060208310610133831016604e8410600b8410161715620001db575081810a62000202565b620001e7838362000109565b8060001904821115620001fe57620001fe620000f3565b0290505b92915050565b6000620000ec60ff84168362000152565b61493a80620002296000396000f3fe608060405234801561001057600080fd5b506004361061025e5760003560e01c80636b8ac0e711610146578063a58543fe116100c3578063cc4903ca11610087578063cc4903ca146106d4578063d7e93794146106e7578063d8cb629014610707578063f31e72e414610727578063f692a3bb1461073a578063fb47e9e61461076157600080fd5b8063a58543fe14610628578063b3265ecd14610660578063b9c745b314610673578063c0ac4ae4146106a1578063ca2e7f9b146106c157600080fd5b80637e9508191161010a5780637e950819146105695780638e6da6191461059757806395ecea1f146105e2578063964f6566146105f55780639a23218f1461061557600080fd5b80636b8ac0e7146104ef5780636f5fde111461050257806373fd653d1461052557806379252d97146105385780637a1bc3751461056157600080fd5b8063392a5822116101df5780634fe1cfad116101a35780634fe1cfad146104135780635822bff11461043c5780635b76074e1461045c5780635fa7a90a1461046f57806368df32991461048f57806369bff3fb146104a257600080fd5b8063392a5822146103a55780633abb615a146103c55780633b43b7d0146103d857806340ca213d146103ed578063449626091461040057600080fd5b80631bd1ebc4116102265780631bd1ebc4146103165780632076a35a146103295780632394e5dc1461034957806325f18424146103695780633882db7d1461037c57600080fd5b806303f16747146102635780630478318b1461028957806307f6646e146102a9578063125bb83d146102c95780631b6f2485146102f0575b600080fd5b610276610271366004613c9d565b610784565b6040519081526020015b60405180910390f35b61029c610297366004613cdb565b610814565b6040516102809190613d43565b6102bc6102b7366004613cdb565b610a42565b6040516102809190613e60565b6102dc6102d7366004613c9d565b610c59565b604051610280989796959493929190613ec2565b6103036102fe366004613f2b565b610ddd565b6040516102809796959493929190613f44565b610276610324366004613f2b565b610ec2565b61033c610337366004613f96565b61102d565b6040516102809190613fc2565b61035c610357366004613cdb565b61131b565b60405161028091906140d1565b610276610377366004613cdb565b6114bd565b61027661038a366004613cdb565b6001600160a01b03166000908152600a602052604090205490565b6103b86103b3366004613cdb565b611588565b60405161028091906140e4565b6102bc6103d3366004613cdb565b6116d3565b6103eb6103e6366004614205565b6118ce565b005b6103eb6103fb366004614280565b611abe565b61027661040e366004613c9d565b611cac565b610276610421366004613cdb565b6001600160a01b031660009081526008602052604090205490565b61027661044a366004613cdb565b60086020526000908152604090205481565b6102dc61046a366004613cdb565b611e0e565b61027661047d366004613cdb565b60096020526000908152604090205481565b61027661049d36600461433b565b611e41565b6104b56104b0366004613c9d565b6120d8565b604080519687526020870195909552938501929092526001600160a01b0316606084015215156080830152151560a082015260c001610280565b6103eb6104fd366004613f96565b61213d565b610515610510366004613cdb565b612620565b6040519015158152602001610280565b6103eb610533366004613cdb565b612654565b610276610546366004613cdb565b6001600160a01b031660009081526009602052604090205490565b6102bc612956565b610515610577366004613f96565b600760209081526000928352604080842090915290825290205460ff1681565b6105aa6105a5366004613f2b565b612a9a565b6040805195865260208601949094526001600160a01b039092169284019290925260608301919091521515608082015260a001610280565b6105aa6105f0366004613f2b565b612ae8565b610608610603366004613f2b565b612af8565b6040516102809190614441565b610515610623366004613cdb565b612ce8565b610515610636366004614496565b60009081526006602090815260408083206001600160a01b03949094168352929052205460ff1690565b6103eb61066e3660046144c0565b612d14565b610515610681366004613f96565b600660209081526000928352604080842090915290825290205460ff1681565b6106b46106af366004613f2b565b612ea2565b60405161028091906144ff565b6103eb6106cf366004614523565b612fd5565b61033c6106e2366004613f2b565b613579565b6102766106f5366004613cdb565b600a6020526000908152604090205481565b61071a610715366004613f2b565b61362e565b60405161028091906145d8565b61071a610735366004613f2b565b61374d565b61074d610748366004613cdb565b61386c565b604051610280989796959493929190614666565b61077461076f366004613c9d565b613a5a565b60405161028094939291906146dc565b60165460009081906107969085614724565b6107a0908261473b565b9050826005036107c5576016546107b8906002614724565b6107c2908261473b565b90505b826007036107e8576016546107db906004614724565b6107e5908261473b565b90505b8260090361080b576016546107fe906006614724565b610808908261473b565b90505b90505b92915050565b61081c613b32565b6001600160a01b038083166000908152600160208181526040928390208351610100810185528154815292810154909416908201526002830180549193928401916108669061474e565b80601f01602080910402602001604051908101604052809291908181526020018280546108929061474e565b80156108df5780601f106108b4576101008083540402835291602001916108df565b820191906000526020600020905b8154815290600101906020018083116108c257829003601f168201915b505050505081526020016003820180546108f89061474e565b80601f01602080910402602001604051908101604052809291908181526020018280546109249061474e565b80156109715780601f1061094657610100808354040283529160200191610971565b820191906000526020600020905b81548152906001019060200180831161095457829003601f168201915b5050505050815260200160048201805461098a9061474e565b80601f01602080910402602001604051908101604052809291908181526020018280546109b69061474e565b8015610a035780601f106109d857610100808354040283529160200191610a03565b820191906000526020600020905b8154815290600101906020018083116109e657829003601f168201915b50505091835250506005919091015460ff8082161515602084015261010082048116151560408401526201000090910416151560609091015292915050565b6001600160a01b038116600090815260086020526040812054606091816001600160401b03811115610a7657610a76614150565b604051908082528060200260200182016040528015610aaf57816020015b610a9c613b86565b815260200190600190039081610a945790505b5090506000805b600354811015610c4f57600060038281548110610ad557610ad5614788565b90600052602060002090600702016040518060e0016040529081600082015481526020016001820160009054906101000a90046001600160a01b03166001600160a01b03166001600160a01b03168152602001600282018054610b379061474e565b80601f0160208091040260200160405190810160405280929190818152602001828054610b639061474e565b8015610bb05780601f10610b8557610100808354040283529160200191610bb0565b820191906000526020600020905b815481529060010190602001808311610b9357829003601f168201915b50505091835250506003820154602080830191909152600483015460408301526005830154606083015260069092015460ff1615156080909101528101519091506001600160a01b03808916911603610c3c5780848481518110610c1657610c16614788565b60200260200101819052508280610c2c9061479e565b935050848303610c3c5750610c4f565b5080610c478161479e565b915050610ab6565b5090949350505050565b600b6020528160005260406000208181548110610c7557600080fd5b60009182526020909120600790910201805460018201546002830180549295506001600160a01b03909116935090610cac9061474e565b80601f0160208091040260200160405190810160405280929190818152602001828054610cd89061474e565b8015610d255780601f10610cfa57610100808354040283529160200191610d25565b820191906000526020600020905b815481529060010190602001808311610d0857829003601f168201915b505050505090806003018054610d3a9061474e565b80601f0160208091040260200160405190810160405280929190818152602001828054610d669061474e565b8015610db35780601f10610d8857610100808354040283529160200191610db3565b820191906000526020600020905b815481529060010190602001808311610d9657829003601f168201915b50505050600483015460058401546006909401549293909290915060ff8082169161010090041688565b60038181548110610ded57600080fd5b60009182526020909120600790910201805460018201546002830180549294506001600160a01b039091169291610e239061474e565b80601f0160208091040260200160405190810160405280929190818152602001828054610e4f9061474e565b8015610e9c5780601f10610e7157610100808354040283529160200191610e9c565b820191906000526020600020905b815481529060010190602001808311610e7f57829003601f168201915b505050506003830154600484015460058501546006909501549394919390925060ff1687565b60008060038381548110610ed857610ed8614788565b90600052602060002090600702016040518060e0016040529081600082015481526020016001820160009054906101000a90046001600160a01b03166001600160a01b03166001600160a01b03168152602001600282018054610f3a9061474e565b80601f0160208091040260200160405190810160405280929190818152602001828054610f669061474e565b8015610fb35780601f10610f8857610100808354040283529160200191610fb3565b820191906000526020600020905b815481529060010190602001808311610f9657829003601f168201915b50505091835250506003820154602082015260048201546040820152600580830154606083015260069092015460ff16151560809182015260a0830151908301519293509190600090600a9061100a908590614724565b61101491906147b7565b9050600061102283836147b7565b979650505050505050565b606060006003848154811061104457611044614788565b90600052602060002090600702016040518060e0016040529081600082015481526020016001820160009054906101000a90046001600160a01b03166001600160a01b03166001600160a01b031681526020016002820180546110a69061474e565b80601f01602080910402602001604051908101604052809291908181526020018280546110d29061474e565b801561111f5780601f106110f45761010080835404028352916020019161111f565b820191906000526020600020905b81548152906001019060200180831161110257829003601f168201915b505050505081526020016003820154815260200160048201548152602001600582015481526020016006820160009054906101000a900460ff1615151515815250509050600060056000868152602001908152602001600020805480602002602001604051908101604052809291908181526020016000905b828210156112185760008481526020908190206040805160c081018252600486029092018054835260018082015484860152600282015492840192909252600301546001600160a01b038116606084015260ff600160a01b8204811615156080850152600160a81b90910416151560a08301529083529092019101611198565b5050505060608301519091506000816001600160401b0381111561123e5761123e614150565b60405190808252806020026020018201604052801561127757816020015b611264613bce565b81526020019060019003908161125c5790505b5090506000805b845181101561130e57600085828151811061129b5761129b614788565b60200260200101519050886001600160a01b031681606001516001600160a01b0316036112fb57808484815181106112d5576112d5614788565b602002602001018190525082806112eb9061479e565b9350508483036112fb575061130e565b50806113068161479e565b91505061127e565b5090979650505050505050565b611323613c11565b6001600160a01b03808316600090815260026020818152604092839020835161010081018552815481526001820154909516918501919091529081018054919284019161136f9061474e565b80601f016020809104026020016040519081016040528092919081815260200182805461139b9061474e565b80156113e85780601f106113bd576101008083540402835291602001916113e8565b820191906000526020600020905b8154815290600101906020018083116113cb57829003601f168201915b505050505081526020016003820180546114019061474e565b80601f016020809104026020016040519081016040528092919081815260200182805461142d9061474e565b801561147a5780601f1061144f5761010080835404028352916020019161147a565b820191906000526020600020905b81548152906001019060200180831161145d57829003601f168201915b5050509183525050600482015460208201526005820154604082015260069091015460ff8082161515606084015261010090910416151560809091015292915050565b6001600160a01b03811660009081526002602052604081206005015481816001600160401b038111156114f2576114f2614150565b60405190808252806020026020018201604052801561152b57816020015b611518613c63565b8152602001906001900390816115105790505b5090506000805b825181101561157f57600083828151811061154f5761154f614788565b60200260200101519050806060015183611569919061473b565b92505080806115779061479e565b915050611532565b50949350505050565b6001600160a01b038116600090815260026020526040812060050154606091816001600160401b038111156115bf576115bf614150565b6040519080825280602002602001820160405280156115f857816020015b6115e5613c63565b8152602001906001900390816115dd5790505b5090506000805b600d54811015610c4f576000600d828154811061161e5761161e614788565b60009182526020918290206040805160a08101825260059093029091018054835260018101549383019390935260028301546001600160a01b039081169183018290526003840154606084015260049093015460ff161515608083015290925090881690036116c0578084848151811061169a5761169a614788565b602002602001018190525082806116b09061479e565b9350508483036116c05750610c4f565b50806116cb8161479e565b9150506115ff565b606060006116e083611588565b9050600081516001600160401b038111156116fd576116fd614150565b60405190808252806020026020018201604052801561173657816020015b611723613b86565b81526020019060019003908161171b5790505b5090506000805b8351811015610c4f57600084828151811061175a5761175a614788565b60200260200101519050600381602001518154811061177b5761177b614788565b90600052602060002090600702016040518060e0016040529081600082015481526020016001820160009054906101000a90046001600160a01b03166001600160a01b03166001600160a01b031681526020016002820180546117dd9061474e565b80601f01602080910402602001604051908101604052809291908181526020018280546118099061474e565b80156118565780601f1061182b57610100808354040283529160200191611856565b820191906000526020600020905b81548152906001019060200180831161183957829003601f168201915b505050918352505060038201546020820152600482015460408201526005820154606082015260069091015460ff16151560809091015284518590859081106118a1576118a1614788565b602002602001018190525082806118b79061479e565b9350505080806118c69061479e565b91505061173d565b600f546118d9613c11565b8181526001600160a01b038616602082015260408101859052606081018490526080810183905261190986612ce8565b156119f557600061191987610814565b600160a0820181905260c084018190526001600160a01b0389811660009081526020838152604091829020855181559085015193810180546001600160a01b03191694909316939093179091558201519192508291600282019061197d9082614828565b50606082015160038201906119929082614828565b50608082015160048201906119a79082614828565b5060a08201516005909101805460c084015160e0909401511515620100000262ff0000199415156101000261ff00199415159490941661ffff19909216919091179290921792909216179055505b6001600160a01b0386811660009081526002602081815260409283902085518155908501516001820180546001600160a01b031916919095161790935590830151839291820190611a469082614828565b5060608201516003820190611a5b9082614828565b506080820151600482015560a0820151600582015560c08201516006909101805460e09093015115156101000261ff00199215159290921661ffff1990931692909217179055600f8054906000611ab18361479e565b9190505550505050505050565b600e54611ac9613b32565b8181526001600160a01b0386166020820152604081018590526060810184905260808101839052600060c0820152611b0086612620565b15611bd2576000611b108761131b565b600160c0820181905260a084018190526001600160a01b03898116600090815260026020818152604092839020865181559086015194810180546001600160a01b0319169590941694909417909255830151929350839290820190611b759082614828565b5060608201516003820190611b8a9082614828565b506080820151600482015560a0820151600582015560c08201516006909101805460e09093015115156101000261ff00199215159290921661ffff1990931692909217179055505b6001600160a01b03868116600090815260016020818152604092839020855181559085015191810180546001600160a01b03191692909416919091179092558201518291906002820190611c269082614828565b5060608201516003820190611c3b9082614828565b5060808201516004820190611c509082614828565b5060a08201516005909101805460c084015160e0909401511515620100000262ff0000199415156101000261ff00199415159490941661ffff19909216919091179290921792909216179055600e8054906000611ab18361479e565b60008060038481548110611cc257611cc2614788565b90600052602060002090600702016040518060e0016040529081600082015481526020016001820160009054906101000a90046001600160a01b03166001600160a01b03166001600160a01b03168152602001600282018054611d249061474e565b80601f0160208091040260200160405190810160405280929190818152602001828054611d509061474e565b8015611d9d5780601f10611d7257610100808354040283529160200191611d9d565b820191906000526020600020905b815481529060010190602001808311611d8057829003601f168201915b50505091835250506003820154602082015260048201546040820152600580830154606083015260069092015460ff16151560809091015260a08201519192506000908590600a90611df0908590614724565b611dfa91906147b7565b611e0491906147b7565b9695505050505050565b600260208190526000918252604090912080546001820154928201805491936001600160a01b03169291610cac9061474e565b601054600090611e4f613b86565b8181526001600160a01b0389166020820152604081018890526060810187905260808101869052601654611e839085614724565b60a08201526003805460018101825560009190915281517fc2575a0e9e593c00f959f8c92f12db2869c3395a3b0502d05e2516446f71f85b600790920291820190815560208301517fc2575a0e9e593c00f959f8c92f12db2869c3395a3b0502d05e2516446f71f85c830180546001600160a01b0319166001600160a01b03909216919091179055604083015183927fc2575a0e9e593c00f959f8c92f12db2869c3395a3b0502d05e2516446f71f85d0190611f3f9082614828565b50606082015160038201556080820151600482015560a0820151600582015560c0909101516006909101805460ff191691151591909117905580516001600160a01b038a166000908152600a6020908152604080832093909355600890529081205490611fad82600161473b565b6001600160a01b038c1660009081526008602052604081208290559091505b898110156120b25760115460408051608081018252600060208201818152606093830184905292820152828152865190915289518a908490811061201257612012614788565b602090810291909101810151604080840191825288516000908152600480855291812080546001818101835591835291859020865192909302909201908155928401519083015551829190600282019061206c9082614828565b50606091909101516003909101805460ff1916911515919091179055601180549060006120988361479e565b9190505550505080806120aa9061479e565b915050611fcc565b50601080549060006120c38361479e565b909155505091519a9950505050505050505050565b600560205281600052604060002081815481106120f457600080fd5b6000918252602090912060049091020180546001820154600283015460039093015491945092506001600160a01b0381169060ff600160a01b8204811691600160a81b90041686565b60006003838154811061215257612152614788565b90600052602060002090600702016040518060e0016040529081600082015481526020016001820160009054906101000a90046001600160a01b03166001600160a01b03166001600160a01b031681526020016002820180546121b49061474e565b80601f01602080910402602001604051908101604052809291908181526020018280546121e09061474e565b801561222d5780601f106122025761010080835404028352916020019161222d565b820191906000526020600020905b81548152906001019060200180831161221057829003601f168201915b505050918352505060038201546020820152600482015460408201526005820154606082015260069091015460ff1615156080909101529050600061227184610ec2565b60155460405163a9059cbb60e01b81526001600160a01b0386811660048301526024820184905292935091169063a9059cbb906044016020604051808303816000875af11580156122c6573d6000803e3d6000fd5b505050506040513d601f19601f820116820180604052508101906122ea91906148e7565b5060006122fb858460800151611cac565b60155460005460405163a9059cbb60e01b81526001600160a01b03918216600482015260248101849052929350169063a9059cbb906044016020604051808303816000875af1158015612352573d6000803e3d6000fd5b505050506040513d601f19601f8201168201806040525081019061237691906148e7565b5061237f613c63565b601380548252602082018781526001600160a01b038781166040850190815260608501878152600d8054600181018255600091825287517fd7b6990105719101dabeb77144f2a3385c8033acd3af97e9423a695e81ad1eb560059092029182015594517fd7b6990105719101dabeb77144f2a3385c8033acd3af97e9423a695e81ad1eb686015591517fd7b6990105719101dabeb77144f2a3385c8033acd3af97e9423a695e81ad1eb7850180546001600160a01b031916919094161790925590517fd7b6990105719101dabeb77144f2a3385c8033acd3af97e9423a695e81ad1eb883015560808401517fd7b6990105719101dabeb77144f2a3385c8033acd3af97e9423a695e81ad1eb9909201805460ff191692151592909217909155815491906124ab8361479e565b909155505060008681526007602090815260408083206001600160a01b03891684529091529020805460ff191660011790556124e5613c63565b60138054825260208201888152600080546001600160a01b039081166040860190815260608601888152600d805460018101825590855287517fd7b6990105719101dabeb77144f2a3385c8033acd3af97e9423a695e81ad1eb560059092029182015594517fd7b6990105719101dabeb77144f2a3385c8033acd3af97e9423a695e81ad1eb686015590517fd7b6990105719101dabeb77144f2a3385c8033acd3af97e9423a695e81ad1eb7850180546001600160a01b0319169190931617909155517fd7b6990105719101dabeb77144f2a3385c8033acd3af97e9423a695e81ad1eb883015560808401517fd7b6990105719101dabeb77144f2a3385c8033acd3af97e9423a695e81ad1eb9909201805460ff191692151592909217909155815491906126128361479e565b919050555050505050505050565b6001600160a01b038082166000818152600260205260408120600101549092161461264c57600061080e565b600192915050565b6001600160a01b03808216600090815260016020818152604080842081516101008101835281548152938101549095169183019190915260028401805493949293918401916126a29061474e565b80601f01602080910402602001604051908101604052809291908181526020018280546126ce9061474e565b801561271b5780601f106126f05761010080835404028352916020019161271b565b820191906000526020600020905b8154815290600101906020018083116126fe57829003601f168201915b505050505081526020016003820180546127349061474e565b80601f01602080910402602001604051908101604052809291908181526020018280546127609061474e565b80156127ad5780601f10612782576101008083540402835291602001916127ad565b820191906000526020600020905b81548152906001019060200180831161279057829003601f168201915b505050505081526020016004820180546127c69061474e565b80601f01602080910402602001604051908101604052809291908181526020018280546127f29061474e565b801561283f5780601f106128145761010080835404028352916020019161283f565b820191906000526020600020905b81548152906001019060200180831161282257829003601f168201915b50505091835250506005919091015460ff8082161515602080850191909152610100830482161515604080860191909152620100009093049091161515606090930192909252600160c084018190526001600160a01b038681166000908152828552839020855181559385015191840180546001600160a01b03191692909116919091179055820151919250829160028201906128dc9082614828565b50606082015160038201906128f19082614828565b50608082015160048201906129069082614828565b5060a08201516005909101805460c084015160e0909401511515620100000262ff0000199415156101000261ff00199415159490941661ffff199092169190911792909217929092161790555050565b60606003805480602002602001604051908101604052809291908181526020016000905b82821015612a915760008481526020908190206040805160e081018252600786029092018054835260018101546001600160a01b031693830193909352600283018054929392918401916129cd9061474e565b80601f01602080910402602001604051908101604052809291908181526020018280546129f99061474e565b8015612a465780601f10612a1b57610100808354040283529160200191612a46565b820191906000526020600020905b815481529060010190602001808311612a2957829003601f168201915b50505091835250506003820154602080830191909152600483015460408301526005830154606083015260069092015460ff161515608090910152908252600192909201910161297a565b50505050905090565b600d8181548110612aaa57600080fd5b60009182526020909120600590910201805460018201546002830154600384015460049094015492945090926001600160a01b039091169160ff1685565b600c8181548110612aaa57600080fd5b6060600b6000838152602001908152602001600020805480602002602001604051908101604052809291908181526020016000905b82821015612cdd5760008481526020908190206040805161010081018252600786029092018054835260018101546001600160a01b03169383019390935260028301805492939291840191612b819061474e565b80601f0160208091040260200160405190810160405280929190818152602001828054612bad9061474e565b8015612bfa5780601f10612bcf57610100808354040283529160200191612bfa565b820191906000526020600020905b815481529060010190602001808311612bdd57829003601f168201915b50505050508152602001600382018054612c139061474e565b80601f0160208091040260200160405190810160405280929190818152602001828054612c3f9061474e565b8015612c8c5780601f10612c6157610100808354040283529160200191612c8c565b820191906000526020600020905b815481529060010190602001808311612c6f57829003601f168201915b505050918352505060048201546020808301919091526005830154604083015260069092015460ff808216151560608401526101009091041615156080909101529082526001929092019101612b2d565b505050509050919050565b6001600160a01b038082166000818152600160208190526040822001549092161461264c57600061080e565b6000612d208585610784565b6014546040805160a08101825260006080820181815284835260208084018a81526001600160a01b038a8116868801818152606088018b8152600c805460018101825590895289517fdf6966c971051c3d54ec59162606531493a51404a002842f56009d7e5cf4a8c760059092029182015594517fdf6966c971051c3d54ec59162606531493a51404a002842f56009d7e5cf4a8c886015590517fdf6966c971051c3d54ec59162606531493a51404a002842f56009d7e5cf4a8c9850180546001600160a01b031916919094161790925590517fdf6966c971051c3d54ec59162606531493a51404a002842f56009d7e5cf4a8ca83015592517fdf6966c971051c3d54ec59162606531493a51404a002842f56009d7e5cf4a8cb909101805460ff19169115159190911790559082526009905291909120549293509091612e67848261473b565b6001600160a01b03861660009081526009602052604081208290556014805492935090612e938361479e565b91905055505050505050505050565b612eaa613b86565b60038281548110612ebd57612ebd614788565b90600052602060002090600702016040518060e0016040529081600082015481526020016001820160009054906101000a90046001600160a01b03166001600160a01b03166001600160a01b03168152602001600282018054612f1f9061474e565b80601f0160208091040260200160405190810160405280929190818152602001828054612f4b9061474e565b8015612f985780601f10612f6d57610100808354040283529160200191612f98565b820191906000526020600020905b815481529060010190602001808311612f7b57829003601f168201915b505050918352505060038201546020820152600482015460408201526005820154606082015260069091015460ff16151560809091015292915050565b6001600160a01b03808316600090815260026020818152604080842081516101008101835281548152600182015490961692860192909252918101805493949391928401916130239061474e565b80601f016020809104026020016040519081016040528092919081815260200182805461304f9061474e565b801561309c5780601f106130715761010080835404028352916020019161309c565b820191906000526020600020905b81548152906001019060200180831161307f57829003601f168201915b505050505081526020016003820180546130b59061474e565b80601f01602080910402602001604051908101604052809291908181526020018280546130e19061474e565b801561312e5780601f106131035761010080835404028352916020019161312e565b820191906000526020600020905b81548152906001019060200180831161311157829003601f168201915b5050509183525050600482015460208201526005820154604082015260069091015460ff80821615156060840152610100909104161515608090910152600380549192506000918690811061318557613185614788565b90600052602060002090600702016040518060e0016040529081600082015481526020016001820160009054906101000a90046001600160a01b03166001600160a01b03166001600160a01b031681526020016002820180546131e79061474e565b80601f01602080910402602001604051908101604052809291908181526020018280546132139061474e565b80156132605780601f1061323557610100808354040283529160200191613260565b820191906000526020600020905b81548152906001019060200180831161324357829003601f168201915b50505091835250506003820154602082015260048201546040820152600582015460608083019190915260069092015460ff16151560809091015281015190915060005b818110156133b3576132b4613bce565b60125480825260208201839052604082018990526001600160a01b038816606083015286518790849081106132eb576132eb614788565b60209081029190910181015115156080840190815260008b8152600583526040808220805460018181018355918452858420885160049092020190815594870151908501558501516002840155606085015160039093018054925160a08701511515600160a81b0260ff60a81b19911515600160a01b026001600160a81b03199095166001600160a01b0390961695909517939093179290921692909217905560128054916133998361479e565b9190505550505080806133ab9061479e565b9150506132a4565b5060008681526006602090815260408083206001600160a01b03891684528252808320805460ff19166001179055888352600b90915290206133f48661131b565b815460018082018455600093845260209384902083516007909302019182559282015192810180546001600160a01b0319166001600160a01b03909416939093179092556040810151909190600282019061344f9082614828565b50606082015160038201906134649082614828565b506080820151600482015560a080830151600583015560c08301516006909201805460e09094015115156101000261ff00199315159390931661ffff19909416939093179190911790915583018051600191906134c290839061473b565b9052506001600160a01b0385811660009081526002602081815260409283902087518155908701516001820180546001600160a01b0319169190951617909355908501518592918201906135169082614828565b506060820151600382019061352b9082614828565b506080820151600482015560a0820151600582015560c08201516006909101805460e09093015115156101000261ff00199215159290921661ffff1990931692909217179055505050505050565b606060056000838152602001908152602001600020805480602002602001604051908101604052809291908181526020016000905b82821015612cdd5760008481526020908190206040805160c081018252600486029092018054835260018082015484860152600282015492840192909252600301546001600160a01b038116606084015260ff600160a01b8204811615156080850152600160a81b90910416151560a083015290835290920191016135ae565b606060046000838152602001908152602001600020805480602002602001604051908101604052809291908181526020016000905b82821015612cdd578382906000526020600020906004020160405180608001604052908160008201548152602001600182015481526020016002820180546136aa9061474e565b80601f01602080910402602001604051908101604052809291908181526020018280546136d69061474e565b80156137235780601f106136f857610100808354040283529160200191613723565b820191906000526020600020905b81548152906001019060200180831161370657829003601f168201915b50505091835250506003919091015460ff1615156020918201529082526001929092019101613663565b606060046000838152602001908152602001600020805480602002602001604051908101604052809291908181526020016000905b82821015612cdd578382906000526020600020906004020160405180608001604052908160008201548152602001600182015481526020016002820180546137c99061474e565b80601f01602080910402602001604051908101604052809291908181526020018280546137f59061474e565b80156138425780601f1061381757610100808354040283529160200191613842565b820191906000526020600020905b81548152906001019060200180831161382557829003601f168201915b50505091835250506003919091015460ff1615156020918201529082526001929092019101613782565b60016020819052600091825260409091208054918101546002820180546001600160a01b03909216929161389f9061474e565b80601f01602080910402602001604051908101604052809291908181526020018280546138cb9061474e565b80156139185780601f106138ed57610100808354040283529160200191613918565b820191906000526020600020905b8154815290600101906020018083116138fb57829003601f168201915b50505050509080600301805461392d9061474e565b80601f01602080910402602001604051908101604052809291908181526020018280546139599061474e565b80156139a65780601f1061397b576101008083540402835291602001916139a6565b820191906000526020600020905b81548152906001019060200180831161398957829003601f168201915b5050505050908060040180546139bb9061474e565b80601f01602080910402602001604051908101604052809291908181526020018280546139e79061474e565b8015613a345780601f10613a0957610100808354040283529160200191613a34565b820191906000526020600020905b815481529060010190602001808311613a1757829003601f168201915b5050506005909301549192505060ff808216916101008104821691620100009091041688565b60046020528160005260406000208181548110613a7657600080fd5b906000526020600020906004020160009150915050806000015490806001015490806002018054613aa69061474e565b80601f0160208091040260200160405190810160405280929190818152602001828054613ad29061474e565b8015613b1f5780601f10613af457610100808354040283529160200191613b1f565b820191906000526020600020905b815481529060010190602001808311613b0257829003601f168201915b5050506003909301549192505060ff1684565b6040518061010001604052806000815260200160006001600160a01b031681526020016060815260200160608152602001606081526020016000151581526020016000151581526020016000151581525090565b6040518060e001604052806000815260200160006001600160a01b03168152602001606081526020016000815260200160008152602001600081526020016000151581525090565b6040518060c0016040528060008152602001600081526020016000815260200160006001600160a01b031681526020016000151581526020016000151581525090565b6040518061010001604052806000815260200160006001600160a01b03168152602001606081526020016060815260200160008152602001600081526020016000151581526020016000151581525090565b6040518060a00160405280600081526020016000815260200160006001600160a01b03168152602001600081526020016000151581525090565b60008060408385031215613cb057600080fd5b50508035926020909101359150565b80356001600160a01b0381168114613cd657600080fd5b919050565b600060208284031215613ced57600080fd5b613cf682613cbf565b9392505050565b6000815180845260005b81811015613d2357602081850181015186830182015201613d07565b506000602082860101526020601f19601f83011685010191505092915050565b602081528151602082015260006020830151613d6a60408401826001600160a01b03169052565b506040830151610100806060850152613d87610120850183613cfd565b91506060850151601f1980868503016080870152613da58483613cfd565b935060808701519150808685030160a087015250613dc38382613cfd565b92505060a0850151613dd960c086018215159052565b5060c085015180151560e08601525060e085015180151585830152610c4f565b8051825260018060a01b0360208201511660208301526000604082015160e06040850152613e2a60e0850182613cfd565b9050606083015160608501526080830151608085015260a083015160a085015260c0830151151560c08501528091505092915050565b6000602080830181845280855180835260408601915060408160051b870101925083870160005b82811015613eb557603f19888603018452613ea3858351613df9565b94509285019290850190600101613e87565b5092979650505050505050565b8881526001600160a01b038816602082015261010060408201819052600090613eed8382018a613cfd565b90508281036060840152613f018189613cfd565b6080840197909752505060a081019390935290151560c0830152151560e090910152949350505050565b600060208284031215613f3d57600080fd5b5035919050565b8781526001600160a01b038716602082015260e060408201819052600090613f6e90830188613cfd565b90508560608301528460808301528360a083015282151560c083015298975050505050505050565b60008060408385031215613fa957600080fd5b82359150613fb960208401613cbf565b90509250929050565b602080825282518282018190526000919060409081850190868401855b8281101561403a57815180518552868101518786015285810151868601526060808201516001600160a01b03169086015260808082015115159086015260a09081015115159085015260c09093019290850190600101613fdf565b5091979650505050505050565b60006101008251845260018060a01b036020840151166020850152604083015181604086015261407982860182613cfd565b915050606083015184820360608601526140938282613cfd565b9150506080830151608085015260a083015160a085015260c0830151151560c085015260e08301516140c960e086018215159052565b509392505050565b602081526000613cf66020830184614047565b602080825282518282018190526000919060409081850190868401855b8281101561403a578151805185528681015187860152858101516001600160a01b0316868601526060808201519086015260809081015115159085015260a09093019290850190600101614101565b634e487b7160e01b600052604160045260246000fd5b604051601f8201601f191681016001600160401b038111828210171561418e5761418e614150565b604052919050565b600082601f8301126141a757600080fd5b81356001600160401b038111156141c0576141c0614150565b6141d3601f8201601f1916602001614166565b8181528460208386010111156141e857600080fd5b816020850160208301376000918101602001919091529392505050565b6000806000806080858703121561421b57600080fd5b61422485613cbf565b935060208501356001600160401b038082111561424057600080fd5b61424c88838901614196565b9450604087013591508082111561426257600080fd5b5061426f87828801614196565b949793965093946060013593505050565b6000806000806080858703121561429657600080fd5b61429f85613cbf565b935060208501356001600160401b03808211156142bb57600080fd5b6142c788838901614196565b945060408701359150808211156142dd57600080fd5b6142e988838901614196565b935060608701359150808211156142ff57600080fd5b5061430c87828801614196565b91505092959194509250565b60006001600160401b0382111561433157614331614150565b5060051b60200190565b60008060008060008060c0878903121561435457600080fd5b61435d87613cbf565b95506020808801356001600160401b038082111561437a57600080fd5b6143868b838c01614196565b975060408a0135965060608a0135955060808a01359150808211156143aa57600080fd5b818a0191508a601f8301126143be57600080fd5b81356143d16143cc82614318565b614166565b81815260059190911b8301840190848101908d8311156143f057600080fd5b8585015b8381101561442657848135111561440a57600080fd5b6144198f888335890101614196565b83529186019186016143f4565b5080975050505050505060a087013590509295509295509295565b6000602080830181845280855180835260408601915060408160051b870101925083870160005b82811015613eb557603f19888603018452614484858351614047565b94509285019290850190600101614468565b600080604083850312156144a957600080fd5b6144b283613cbf565b946020939093013593505050565b600080600080608085870312156144d657600080fd5b8435935060208501359250604085013591506144f460608601613cbf565b905092959194509250565b602081526000613cf66020830184613df9565b801515811461452057600080fd5b50565b60008060006060848603121561453857600080fd5b833592506020614549818601613cbf565b925060408501356001600160401b0381111561456457600080fd5b8501601f8101871361457557600080fd5b80356145836143cc82614318565b81815260059190911b820183019083810190898311156145a257600080fd5b928401925b828410156145c95783356145ba81614512565b825292840192908401906145a7565b80955050505050509250925092565b60006020808301818452808551808352604092508286019150828160051b87010184880160005b8381101561465857603f198984030185528151608081518552888201518986015287820151818987015261463582870182613cfd565b6060938401511515969093019590955250948701949250908601906001016145ff565b509098975050505050505050565b8881526001600160a01b0388166020820152610100604082018190526000906146918382018a613cfd565b905082810360608401526146a58189613cfd565b905082810360808401526146b98188613cfd565b95151560a0840152505091151560c0830152151560e09091015295945050505050565b8481528360208201526080604082015260006146fb6080830185613cfd565b9050821515606083015295945050505050565b634e487b7160e01b600052601160045260246000fd5b808202811582820484141761080e5761080e61470e565b8082018082111561080e5761080e61470e565b600181811c9082168061476257607f821691505b60208210810361478257634e487b7160e01b600052602260045260246000fd5b50919050565b634e487b7160e01b600052603260045260246000fd5b6000600182016147b0576147b061470e565b5060010190565b6000826147d457634e487b7160e01b600052601260045260246000fd5b500490565b601f82111561482357600081815260208120601f850160051c810160208610156148005750805b601f850160051c820191505b8181101561481f5782815560010161480c565b5050505b505050565b81516001600160401b0381111561484157614841614150565b6148558161484f845461474e565b846147d9565b602080601f83116001811461488a57600084156148725750858301515b600019600386901b1c1916600185901b17855561481f565b600085815260208120601f198616915b828110156148b95788860151825594840194600190910190840161489a565b50858210156148d75787850151600019600388901b60f8161c191681555b5050505050600190811b01905550565b6000602082840312156148f957600080fd5b815161080b8161451256fea2646970667358221220da1f606396234eb2cbbebaba14044521f32adb4878de2a886b687cffab889cad64736f6c63430008130033",
					"opcodes": "PUSH1 0x80 PUSH1 0x40 DUP2 SWAP1 MSTORE PUSH1 0x0 DUP1 SLOAD PUSH20 0xECE897A85688F2E83A73FED36B9D1A6EFCC99E93 PUSH1 0x1 PUSH1 0x1 PUSH1 0xA0 SHL SUB NOT SWAP2 DUP3 AND OR SWAP1 SWAP2 SSTORE PUSH1 0x15 DUP1 SLOAD PUSH20 0x874069FA1EB16D44D622F2E0CA25EEA172369BC1 SWAP3 AND DUP3 OR SWAP1 SSTORE PUSH4 0x313CE567 PUSH1 0xE0 SHL DUP3 MSTORE SWAP1 PUSH4 0x313CE567 SWAP1 PUSH1 0x84 SWAP1 PUSH1 0x20 SWAP1 PUSH1 0x4 DUP2 DUP7 GAS STATICCALL ISZERO DUP1 ISZERO PUSH3 0x7D JUMPI RETURNDATASIZE PUSH1 0x0 DUP1 RETURNDATACOPY RETURNDATASIZE PUSH1 0x0 REVERT JUMPDEST POP POP POP POP PUSH1 0x40 MLOAD RETURNDATASIZE PUSH1 0x1F NOT PUSH1 0x1F DUP3 ADD AND DUP3 ADD DUP1 PUSH1 0x40 MSTORE POP DUP2 ADD SWAP1 PUSH3 0xA3 SWAP2 SWAP1 PUSH3 0xC7 JUMP JUMPDEST PUSH3 0xB0 SWAP1 PUSH1 0xA PUSH3 0x208 JUMP JUMPDEST PUSH1 0x16 SSTORE CALLVALUE DUP1 ISZERO PUSH3 0xC0 JUMPI PUSH1 0x0 DUP1 REVERT JUMPDEST POP PUSH3 0x219 JUMP JUMPDEST PUSH1 0x0 PUSH1 0x20 DUP3 DUP5 SUB SLT ISZERO PUSH3 0xDA JUMPI PUSH1 0x0 DUP1 REVERT JUMPDEST DUP2 MLOAD PUSH1 0xFF DUP2 AND DUP2 EQ PUSH3 0xEC JUMPI PUSH1 0x0 DUP1 REVERT JUMPDEST SWAP4 SWAP3 POP POP POP JUMP JUMPDEST PUSH4 0x4E487B71 PUSH1 0xE0 SHL PUSH1 0x0 MSTORE PUSH1 0x11 PUSH1 0x4 MSTORE PUSH1 0x24 PUSH1 0x0 REVERT JUMPDEST PUSH1 0x1 DUP2 DUP2 JUMPDEST DUP1 DUP6 GT ISZERO PUSH3 0x14A JUMPI DUP2 PUSH1 0x0 NOT DIV DUP3 GT ISZERO PUSH3 0x12E JUMPI PUSH3 0x12E PUSH3 0xF3 JUMP JUMPDEST DUP1 DUP6 AND ISZERO PUSH3 0x13C JUMPI SWAP2 DUP2 MUL SWAP2 JUMPDEST SWAP4 DUP5 SHR SWAP4 SWAP1 DUP1 MUL SWAP1 PUSH3 0x10E JUMP JUMPDEST POP SWAP3 POP SWAP3 SWAP1 POP JUMP JUMPDEST PUSH1 0x0 DUP3 PUSH3 0x163 JUMPI POP PUSH1 0x1 PUSH3 0x202 JUMP JUMPDEST DUP2 PUSH3 0x172 JUMPI POP PUSH1 0x0 PUSH3 0x202 JUMP JUMPDEST DUP2 PUSH1 0x1 DUP2 EQ PUSH3 0x18B JUMPI PUSH1 0x2 DUP2 EQ PUSH3 0x196 JUMPI PUSH3 0x1B6 JUMP JUMPDEST PUSH1 0x1 SWAP2 POP POP PUSH3 0x202 JUMP JUMPDEST PUSH1 0xFF DUP5 GT ISZERO PUSH3 0x1AA JUMPI PUSH3 0x1AA PUSH3 0xF3 JUMP JUMPDEST POP POP PUSH1 0x1 DUP3 SHL PUSH3 0x202 JUMP JUMPDEST POP PUSH1 0x20 DUP4 LT PUSH2 0x133 DUP4 LT AND PUSH1 0x4E DUP5 LT PUSH1 0xB DUP5 LT AND OR ISZERO PUSH3 0x1DB JUMPI POP DUP2 DUP2 EXP PUSH3 0x202 JUMP JUMPDEST PUSH3 0x1E7 DUP4 DUP4 PUSH3 0x109 JUMP JUMPDEST DUP1 PUSH1 0x0 NOT DIV DUP3 GT ISZERO PUSH3 0x1FE JUMPI PUSH3 0x1FE PUSH3 0xF3 JUMP JUMPDEST MUL SWAP1 POP JUMPDEST SWAP3 SWAP2 POP POP JUMP JUMPDEST PUSH1 0x0 PUSH3 0xEC PUSH1 0xFF DUP5 AND DUP4 PUSH3 0x152 JUMP JUMPDEST PUSH2 0x493A DUP1 PUSH3 0x229 PUSH1 0x0 CODECOPY PUSH1 0x0 RETURN INVALID PUSH1 0x80 PUSH1 0x40 MSTORE CALLVALUE DUP1 ISZERO PUSH2 0x10 JUMPI PUSH1 0x0 DUP1 REVERT JUMPDEST POP PUSH1 0x4 CALLDATASIZE LT PUSH2 0x25E JUMPI PUSH1 0x0 CALLDATALOAD PUSH1 0xE0 SHR DUP1 PUSH4 0x6B8AC0E7 GT PUSH2 0x146 JUMPI DUP1 PUSH4 0xA58543FE GT PUSH2 0xC3 JUMPI DUP1 PUSH4 0xCC4903CA GT PUSH2 0x87 JUMPI DUP1 PUSH4 0xCC4903CA EQ PUSH2 0x6D4 JUMPI DUP1 PUSH4 0xD7E93794 EQ PUSH2 0x6E7 JUMPI DUP1 PUSH4 0xD8CB6290 EQ PUSH2 0x707 JUMPI DUP1 PUSH4 0xF31E72E4 EQ PUSH2 0x727 JUMPI DUP1 PUSH4 0xF692A3BB EQ PUSH2 0x73A JUMPI DUP1 PUSH4 0xFB47E9E6 EQ PUSH2 0x761 JUMPI PUSH1 0x0 DUP1 REVERT JUMPDEST DUP1 PUSH4 0xA58543FE EQ PUSH2 0x628 JUMPI DUP1 PUSH4 0xB3265ECD EQ PUSH2 0x660 JUMPI DUP1 PUSH4 0xB9C745B3 EQ PUSH2 0x673 JUMPI DUP1 PUSH4 0xC0AC4AE4 EQ PUSH2 0x6A1 JUMPI DUP1 PUSH4 0xCA2E7F9B EQ PUSH2 0x6C1 JUMPI PUSH1 0x0 DUP1 REVERT JUMPDEST DUP1 PUSH4 0x7E950819 GT PUSH2 0x10A JUMPI DUP1 PUSH4 0x7E950819 EQ PUSH2 0x569 JUMPI DUP1 PUSH4 0x8E6DA619 EQ PUSH2 0x597 JUMPI DUP1 PUSH4 0x95ECEA1F EQ PUSH2 0x5E2 JUMPI DUP1 PUSH4 0x964F6566 EQ PUSH2 0x5F5 JUMPI DUP1 PUSH4 0x9A23218F EQ PUSH2 0x615 JUMPI PUSH1 0x0 DUP1 REVERT JUMPDEST DUP1 PUSH4 0x6B8AC0E7 EQ PUSH2 0x4EF JUMPI DUP1 PUSH4 0x6F5FDE11 EQ PUSH2 0x502 JUMPI DUP1 PUSH4 0x73FD653D EQ PUSH2 0x525 JUMPI DUP1 PUSH4 0x79252D97 EQ PUSH2 0x538 JUMPI DUP1 PUSH4 0x7A1BC375 EQ PUSH2 0x561 JUMPI PUSH1 0x0 DUP1 REVERT JUMPDEST DUP1 PUSH4 0x392A5822 GT PUSH2 0x1DF JUMPI DUP1 PUSH4 0x4FE1CFAD GT PUSH2 0x1A3 JUMPI DUP1 PUSH4 0x4FE1CFAD EQ PUSH2 0x413 JUMPI DUP1 PUSH4 0x5822BFF1 EQ PUSH2 0x43C JUMPI DUP1 PUSH4 0x5B76074E EQ PUSH2 0x45C JUMPI DUP1 PUSH4 0x5FA7A90A EQ PUSH2 0x46F JUMPI DUP1 PUSH4 0x68DF3299 EQ PUSH2 0x48F JUMPI DUP1 PUSH4 0x69BFF3FB EQ PUSH2 0x4A2 JUMPI PUSH1 0x0 DUP1 REVERT JUMPDEST DUP1 PUSH4 0x392A5822 EQ PUSH2 0x3A5 JUMPI DUP1 PUSH4 0x3ABB615A EQ PUSH2 0x3C5 JUMPI DUP1 PUSH4 0x3B43B7D0 EQ PUSH2 0x3D8 JUMPI DUP1 PUSH4 0x40CA213D EQ PUSH2 0x3ED JUMPI DUP1 PUSH4 0x44962609 EQ PUSH2 0x400 JUMPI PUSH1 0x0 DUP1 REVERT JUMPDEST DUP1 PUSH4 0x1BD1EBC4 GT PUSH2 0x226 JUMPI DUP1 PUSH4 0x1BD1EBC4 EQ PUSH2 0x316 JUMPI DUP1 PUSH4 0x2076A35A EQ PUSH2 0x329 JUMPI DUP1 PUSH4 0x2394E5DC EQ PUSH2 0x349 JUMPI DUP1 PUSH4 0x25F18424 EQ PUSH2 0x369 JUMPI DUP1 PUSH4 0x3882DB7D EQ PUSH2 0x37C JUMPI PUSH1 0x0 DUP1 REVERT JUMPDEST DUP1 PUSH4 0x3F16747 EQ PUSH2 0x263 JUMPI DUP1 PUSH4 0x478318B EQ PUSH2 0x289 JUMPI DUP1 PUSH4 0x7F6646E EQ PUSH2 0x2A9 JUMPI DUP1 PUSH4 0x125BB83D EQ PUSH2 0x2C9 JUMPI DUP1 PUSH4 0x1B6F2485 EQ PUSH2 0x2F0 JUMPI JUMPDEST PUSH1 0x0 DUP1 REVERT JUMPDEST PUSH2 0x276 PUSH2 0x271 CALLDATASIZE PUSH1 0x4 PUSH2 0x3C9D JUMP JUMPDEST PUSH2 0x784 JUMP JUMPDEST PUSH1 0x40 MLOAD SWAP1 DUP2 MSTORE PUSH1 0x20 ADD JUMPDEST PUSH1 0x40 MLOAD DUP1 SWAP2 SUB SWAP1 RETURN JUMPDEST PUSH2 0x29C PUSH2 0x297 CALLDATASIZE PUSH1 0x4 PUSH2 0x3CDB JUMP JUMPDEST PUSH2 0x814 JUMP JUMPDEST PUSH1 0x40 MLOAD PUSH2 0x280 SWAP2 SWAP1 PUSH2 0x3D43 JUMP JUMPDEST PUSH2 0x2BC PUSH2 0x2B7 CALLDATASIZE PUSH1 0x4 PUSH2 0x3CDB JUMP JUMPDEST PUSH2 0xA42 JUMP JUMPDEST PUSH1 0x40 MLOAD PUSH2 0x280 SWAP2 SWAP1 PUSH2 0x3E60 JUMP JUMPDEST PUSH2 0x2DC PUSH2 0x2D7 CALLDATASIZE PUSH1 0x4 PUSH2 0x3C9D JUMP JUMPDEST PUSH2 0xC59 JUMP JUMPDEST PUSH1 0x40 MLOAD PUSH2 0x280 SWAP9 SWAP8 SWAP7 SWAP6 SWAP5 SWAP4 SWAP3 SWAP2 SWAP1 PUSH2 0x3EC2 JUMP JUMPDEST PUSH2 0x303 PUSH2 0x2FE CALLDATASIZE PUSH1 0x4 PUSH2 0x3F2B JUMP JUMPDEST PUSH2 0xDDD JUMP JUMPDEST PUSH1 0x40 MLOAD PUSH2 0x280 SWAP8 SWAP7 SWAP6 SWAP5 SWAP4 SWAP3 SWAP2 SWAP1 PUSH2 0x3F44 JUMP JUMPDEST PUSH2 0x276 PUSH2 0x324 CALLDATASIZE PUSH1 0x4 PUSH2 0x3F2B JUMP JUMPDEST PUSH2 0xEC2 JUMP JUMPDEST PUSH2 0x33C PUSH2 0x337 CALLDATASIZE PUSH1 0x4 PUSH2 0x3F96 JUMP JUMPDEST PUSH2 0x102D JUMP JUMPDEST PUSH1 0x40 MLOAD PUSH2 0x280 SWAP2 SWAP1 PUSH2 0x3FC2 JUMP JUMPDEST PUSH2 0x35C PUSH2 0x357 CALLDATASIZE PUSH1 0x4 PUSH2 0x3CDB JUMP JUMPDEST PUSH2 0x131B JUMP JUMPDEST PUSH1 0x40 MLOAD PUSH2 0x280 SWAP2 SWAP1 PUSH2 0x40D1 JUMP JUMPDEST PUSH2 0x276 PUSH2 0x377 CALLDATASIZE PUSH1 0x4 PUSH2 0x3CDB JUMP JUMPDEST PUSH2 0x14BD JUMP JUMPDEST PUSH2 0x276 PUSH2 0x38A CALLDATASIZE PUSH1 0x4 PUSH2 0x3CDB JUMP JUMPDEST PUSH1 0x1 PUSH1 0x1 PUSH1 0xA0 SHL SUB AND PUSH1 0x0 SWAP1 DUP2 MSTORE PUSH1 0xA PUSH1 0x20 MSTORE PUSH1 0x40 SWAP1 KECCAK256 SLOAD SWAP1 JUMP JUMPDEST PUSH2 0x3B8 PUSH2 0x3B3 CALLDATASIZE PUSH1 0x4 PUSH2 0x3CDB JUMP JUMPDEST PUSH2 0x1588 JUMP JUMPDEST PUSH1 0x40 MLOAD PUSH2 0x280 SWAP2 SWAP1 PUSH2 0x40E4 JUMP JUMPDEST PUSH2 0x2BC PUSH2 0x3D3 CALLDATASIZE PUSH1 0x4 PUSH2 0x3CDB JUMP JUMPDEST PUSH2 0x16D3 JUMP JUMPDEST PUSH2 0x3EB PUSH2 0x3E6 CALLDATASIZE PUSH1 0x4 PUSH2 0x4205 JUMP JUMPDEST PUSH2 0x18CE JUMP JUMPDEST STOP JUMPDEST PUSH2 0x3EB PUSH2 0x3FB CALLDATASIZE PUSH1 0x4 PUSH2 0x4280 JUMP JUMPDEST PUSH2 0x1ABE JUMP JUMPDEST PUSH2 0x276 PUSH2 0x40E CALLDATASIZE PUSH1 0x4 PUSH2 0x3C9D JUMP JUMPDEST PUSH2 0x1CAC JUMP JUMPDEST PUSH2 0x276 PUSH2 0x421 CALLDATASIZE PUSH1 0x4 PUSH2 0x3CDB JUMP JUMPDEST PUSH1 0x1 PUSH1 0x1 PUSH1 0xA0 SHL SUB AND PUSH1 0x0 SWAP1 DUP2 MSTORE PUSH1 0x8 PUSH1 0x20 MSTORE PUSH1 0x40 SWAP1 KECCAK256 SLOAD SWAP1 JUMP JUMPDEST PUSH2 0x276 PUSH2 0x44A CALLDATASIZE PUSH1 0x4 PUSH2 0x3CDB JUMP JUMPDEST PUSH1 0x8 PUSH1 0x20 MSTORE PUSH1 0x0 SWAP1 DUP2 MSTORE PUSH1 0x40 SWAP1 KECCAK256 SLOAD DUP2 JUMP JUMPDEST PUSH2 0x2DC PUSH2 0x46A CALLDATASIZE PUSH1 0x4 PUSH2 0x3CDB JUMP JUMPDEST PUSH2 0x1E0E JUMP JUMPDEST PUSH2 0x276 PUSH2 0x47D CALLDATASIZE PUSH1 0x4 PUSH2 0x3CDB JUMP JUMPDEST PUSH1 0x9 PUSH1 0x20 MSTORE PUSH1 0x0 SWAP1 DUP2 MSTORE PUSH1 0x40 SWAP1 KECCAK256 SLOAD DUP2 JUMP JUMPDEST PUSH2 0x276 PUSH2 0x49D CALLDATASIZE PUSH1 0x4 PUSH2 0x433B JUMP JUMPDEST PUSH2 0x1E41 JUMP JUMPDEST PUSH2 0x4B5 PUSH2 0x4B0 CALLDATASIZE PUSH1 0x4 PUSH2 0x3C9D JUMP JUMPDEST PUSH2 0x20D8 JUMP JUMPDEST PUSH1 0x40 DUP1 MLOAD SWAP7 DUP8 MSTORE PUSH1 0x20 DUP8 ADD SWAP6 SWAP1 SWAP6 MSTORE SWAP4 DUP6 ADD SWAP3 SWAP1 SWAP3 MSTORE PUSH1 0x1 PUSH1 0x1 PUSH1 0xA0 SHL SUB AND PUSH1 0x60 DUP5 ADD MSTORE ISZERO ISZERO PUSH1 0x80 DUP4 ADD MSTORE ISZERO ISZERO PUSH1 0xA0 DUP3 ADD MSTORE PUSH1 0xC0 ADD PUSH2 0x280 JUMP JUMPDEST PUSH2 0x3EB PUSH2 0x4FD CALLDATASIZE PUSH1 0x4 PUSH2 0x3F96 JUMP JUMPDEST PUSH2 0x213D JUMP JUMPDEST PUSH2 0x515 PUSH2 0x510 CALLDATASIZE PUSH1 0x4 PUSH2 0x3CDB JUMP JUMPDEST PUSH2 0x2620 JUMP JUMPDEST PUSH1 0x40 MLOAD SWAP1 ISZERO ISZERO DUP2 MSTORE PUSH1 0x20 ADD PUSH2 0x280 JUMP JUMPDEST PUSH2 0x3EB PUSH2 0x533 CALLDATASIZE PUSH1 0x4 PUSH2 0x3CDB JUMP JUMPDEST PUSH2 0x2654 JUMP JUMPDEST PUSH2 0x276 PUSH2 0x546 CALLDATASIZE PUSH1 0x4 PUSH2 0x3CDB JUMP JUMPDEST PUSH1 0x1 PUSH1 0x1 PUSH1 0xA0 SHL SUB AND PUSH1 0x0 SWAP1 DUP2 MSTORE PUSH1 0x9 PUSH1 0x20 MSTORE PUSH1 0x40 SWAP1 KECCAK256 SLOAD SWAP1 JUMP JUMPDEST PUSH2 0x2BC PUSH2 0x2956 JUMP JUMPDEST PUSH2 0x515 PUSH2 0x577 CALLDATASIZE PUSH1 0x4 PUSH2 0x3F96 JUMP JUMPDEST PUSH1 0x7 PUSH1 0x20 SWAP1 DUP2 MSTORE PUSH1 0x0 SWAP3 DUP4 MSTORE PUSH1 0x40 DUP1 DUP5 KECCAK256 SWAP1 SWAP2 MSTORE SWAP1 DUP3 MSTORE SWAP1 KECCAK256 SLOAD PUSH1 0xFF AND DUP2 JUMP JUMPDEST PUSH2 0x5AA PUSH2 0x5A5 CALLDATASIZE PUSH1 0x4 PUSH2 0x3F2B JUMP JUMPDEST PUSH2 0x2A9A JUMP JUMPDEST PUSH1 0x40 DUP1 MLOAD SWAP6 DUP7 MSTORE PUSH1 0x20 DUP7 ADD SWAP5 SWAP1 SWAP5 MSTORE PUSH1 0x1 PUSH1 0x1 PUSH1 0xA0 SHL SUB SWAP1 SWAP3 AND SWAP3 DUP5 ADD SWAP3 SWAP1 SWAP3 MSTORE PUSH1 0x60 DUP4 ADD SWAP2 SWAP1 SWAP2 MSTORE ISZERO ISZERO PUSH1 0x80 DUP3 ADD MSTORE PUSH1 0xA0 ADD PUSH2 0x280 JUMP JUMPDEST PUSH2 0x5AA PUSH2 0x5F0 CALLDATASIZE PUSH1 0x4 PUSH2 0x3F2B JUMP JUMPDEST PUSH2 0x2AE8 JUMP JUMPDEST PUSH2 0x608 PUSH2 0x603 CALLDATASIZE PUSH1 0x4 PUSH2 0x3F2B JUMP JUMPDEST PUSH2 0x2AF8 JUMP JUMPDEST PUSH1 0x40 MLOAD PUSH2 0x280 SWAP2 SWAP1 PUSH2 0x4441 JUMP JUMPDEST PUSH2 0x515 PUSH2 0x623 CALLDATASIZE PUSH1 0x4 PUSH2 0x3CDB JUMP JUMPDEST PUSH2 0x2CE8 JUMP JUMPDEST PUSH2 0x515 PUSH2 0x636 CALLDATASIZE PUSH1 0x4 PUSH2 0x4496 JUMP JUMPDEST PUSH1 0x0 SWAP1 DUP2 MSTORE PUSH1 0x6 PUSH1 0x20 SWAP1 DUP2 MSTORE PUSH1 0x40 DUP1 DUP4 KECCAK256 PUSH1 0x1 PUSH1 0x1 PUSH1 0xA0 SHL SUB SWAP5 SWAP1 SWAP5 AND DUP4 MSTORE SWAP3 SWAP1 MSTORE KECCAK256 SLOAD PUSH1 0xFF AND SWAP1 JUMP JUMPDEST PUSH2 0x3EB PUSH2 0x66E CALLDATASIZE PUSH1 0x4 PUSH2 0x44C0 JUMP JUMPDEST PUSH2 0x2D14 JUMP JUMPDEST PUSH2 0x515 PUSH2 0x681 CALLDATASIZE PUSH1 0x4 PUSH2 0x3F96 JUMP JUMPDEST PUSH1 0x6 PUSH1 0x20 SWAP1 DUP2 MSTORE PUSH1 0x0 SWAP3 DUP4 MSTORE PUSH1 0x40 DUP1 DUP5 KECCAK256 SWAP1 SWAP2 MSTORE SWAP1 DUP3 MSTORE SWAP1 KECCAK256 SLOAD PUSH1 0xFF AND DUP2 JUMP JUMPDEST PUSH2 0x6B4 PUSH2 0x6AF CALLDATASIZE PUSH1 0x4 PUSH2 0x3F2B JUMP JUMPDEST PUSH2 0x2EA2 JUMP JUMPDEST PUSH1 0x40 MLOAD PUSH2 0x280 SWAP2 SWAP1 PUSH2 0x44FF JUMP JUMPDEST PUSH2 0x3EB PUSH2 0x6CF CALLDATASIZE PUSH1 0x4 PUSH2 0x4523 JUMP JUMPDEST PUSH2 0x2FD5 JUMP JUMPDEST PUSH2 0x33C PUSH2 0x6E2 CALLDATASIZE PUSH1 0x4 PUSH2 0x3F2B JUMP JUMPDEST PUSH2 0x3579 JUMP JUMPDEST PUSH2 0x276 PUSH2 0x6F5 CALLDATASIZE PUSH1 0x4 PUSH2 0x3CDB JUMP JUMPDEST PUSH1 0xA PUSH1 0x20 MSTORE PUSH1 0x0 SWAP1 DUP2 MSTORE PUSH1 0x40 SWAP1 KECCAK256 SLOAD DUP2 JUMP JUMPDEST PUSH2 0x71A PUSH2 0x715 CALLDATASIZE PUSH1 0x4 PUSH2 0x3F2B JUMP JUMPDEST PUSH2 0x362E JUMP JUMPDEST PUSH1 0x40 MLOAD PUSH2 0x280 SWAP2 SWAP1 PUSH2 0x45D8 JUMP JUMPDEST PUSH2 0x71A PUSH2 0x735 CALLDATASIZE PUSH1 0x4 PUSH2 0x3F2B JUMP JUMPDEST PUSH2 0x374D JUMP JUMPDEST PUSH2 0x74D PUSH2 0x748 CALLDATASIZE PUSH1 0x4 PUSH2 0x3CDB JUMP JUMPDEST PUSH2 0x386C JUMP JUMPDEST PUSH1 0x40 MLOAD PUSH2 0x280 SWAP9 SWAP8 SWAP7 SWAP6 SWAP5 SWAP4 SWAP3 SWAP2 SWAP1 PUSH2 0x4666 JUMP JUMPDEST PUSH2 0x774 PUSH2 0x76F CALLDATASIZE PUSH1 0x4 PUSH2 0x3C9D JUMP JUMPDEST PUSH2 0x3A5A JUMP JUMPDEST PUSH1 0x40 MLOAD PUSH2 0x280 SWAP5 SWAP4 SWAP3 SWAP2 SWAP1 PUSH2 0x46DC JUMP JUMPDEST PUSH1 0x16 SLOAD PUSH1 0x0 SWAP1 DUP2 SWAP1 PUSH2 0x796 SWAP1 DUP6 PUSH2 0x4724 JUMP JUMPDEST PUSH2 0x7A0 SWAP1 DUP3 PUSH2 0x473B JUMP JUMPDEST SWAP1 POP DUP3 PUSH1 0x5 SUB PUSH2 0x7C5 JUMPI PUSH1 0x16 SLOAD PUSH2 0x7B8 SWAP1 PUSH1 0x2 PUSH2 0x4724 JUMP JUMPDEST PUSH2 0x7C2 SWAP1 DUP3 PUSH2 0x473B JUMP JUMPDEST SWAP1 POP JUMPDEST DUP3 PUSH1 0x7 SUB PUSH2 0x7E8 JUMPI PUSH1 0x16 SLOAD PUSH2 0x7DB SWAP1 PUSH1 0x4 PUSH2 0x4724 JUMP JUMPDEST PUSH2 0x7E5 SWAP1 DUP3 PUSH2 0x473B JUMP JUMPDEST SWAP1 POP JUMPDEST DUP3 PUSH1 0x9 SUB PUSH2 0x80B JUMPI PUSH1 0x16 SLOAD PUSH2 0x7FE SWAP1 PUSH1 0x6 PUSH2 0x4724 JUMP JUMPDEST PUSH2 0x808 SWAP1 DUP3 PUSH2 0x473B JUMP JUMPDEST SWAP1 POP JUMPDEST SWAP1 POP JUMPDEST SWAP3 SWAP2 POP POP JUMP JUMPDEST PUSH2 0x81C PUSH2 0x3B32 JUMP JUMPDEST PUSH1 0x1 PUSH1 0x1 PUSH1 0xA0 SHL SUB DUP1 DUP4 AND PUSH1 0x0 SWAP1 DUP2 MSTORE PUSH1 0x1 PUSH1 0x20 DUP2 DUP2 MSTORE PUSH1 0x40 SWAP3 DUP4 SWAP1 KECCAK256 DUP4 MLOAD PUSH2 0x100 DUP2 ADD DUP6 MSTORE DUP2 SLOAD DUP2 MSTORE SWAP3 DUP2 ADD SLOAD SWAP1 SWAP5 AND SWAP1 DUP3 ADD MSTORE PUSH1 0x2 DUP4 ADD DUP1 SLOAD SWAP2 SWAP4 SWAP3 DUP5 ADD SWAP2 PUSH2 0x866 SWAP1 PUSH2 0x474E JUMP JUMPDEST DUP1 PUSH1 0x1F ADD PUSH1 0x20 DUP1 SWAP2 DIV MUL PUSH1 0x20 ADD PUSH1 0x40 MLOAD SWAP1 DUP2 ADD PUSH1 0x40 MSTORE DUP1 SWAP3 SWAP2 SWAP1 DUP2 DUP2 MSTORE PUSH1 0x20 ADD DUP3 DUP1 SLOAD PUSH2 0x892 SWAP1 PUSH2 0x474E JUMP JUMPDEST DUP1 ISZERO PUSH2 0x8DF JUMPI DUP1 PUSH1 0x1F LT PUSH2 0x8B4 JUMPI PUSH2 0x100 DUP1 DUP4 SLOAD DIV MUL DUP4 MSTORE SWAP2 PUSH1 0x20 ADD SWAP2 PUSH2 0x8DF JUMP JUMPDEST DUP3 ADD SWAP2 SWAP1 PUSH1 0x0 MSTORE PUSH1 0x20 PUSH1 0x0 KECCAK256 SWAP1 JUMPDEST DUP2 SLOAD DUP2 MSTORE SWAP1 PUSH1 0x1 ADD SWAP1 PUSH1 0x20 ADD DUP1 DUP4 GT PUSH2 0x8C2 JUMPI DUP3 SWAP1 SUB PUSH1 0x1F AND DUP3 ADD SWAP2 JUMPDEST POP POP POP POP POP DUP2 MSTORE PUSH1 0x20 ADD PUSH1 0x3 DUP3 ADD DUP1 SLOAD PUSH2 0x8F8 SWAP1 PUSH2 0x474E JUMP JUMPDEST DUP1 PUSH1 0x1F ADD PUSH1 0x20 DUP1 SWAP2 DIV MUL PUSH1 0x20 ADD PUSH1 0x40 MLOAD SWAP1 DUP2 ADD PUSH1 0x40 MSTORE DUP1 SWAP3 SWAP2 SWAP1 DUP2 DUP2 MSTORE PUSH1 0x20 ADD DUP3 DUP1 SLOAD PUSH2 0x924 SWAP1 PUSH2 0x474E JUMP JUMPDEST DUP1 ISZERO PUSH2 0x971 JUMPI DUP1 PUSH1 0x1F LT PUSH2 0x946 JUMPI PUSH2 0x100 DUP1 DUP4 SLOAD DIV MUL DUP4 MSTORE SWAP2 PUSH1 0x20 ADD SWAP2 PUSH2 0x971 JUMP JUMPDEST DUP3 ADD SWAP2 SWAP1 PUSH1 0x0 MSTORE PUSH1 0x20 PUSH1 0x0 KECCAK256 SWAP1 JUMPDEST DUP2 SLOAD DUP2 MSTORE SWAP1 PUSH1 0x1 ADD SWAP1 PUSH1 0x20 ADD DUP1 DUP4 GT PUSH2 0x954 JUMPI DUP3 SWAP1 SUB PUSH1 0x1F AND DUP3 ADD SWAP2 JUMPDEST POP POP POP POP POP DUP2 MSTORE PUSH1 0x20 ADD PUSH1 0x4 DUP3 ADD DUP1 SLOAD PUSH2 0x98A SWAP1 PUSH2 0x474E JUMP JUMPDEST DUP1 PUSH1 0x1F ADD PUSH1 0x20 DUP1 SWAP2 DIV MUL PUSH1 0x20 ADD PUSH1 0x40 MLOAD SWAP1 DUP2 ADD PUSH1 0x40 MSTORE DUP1 SWAP3 SWAP2 SWAP1 DUP2 DUP2 MSTORE PUSH1 0x20 ADD DUP3 DUP1 SLOAD PUSH2 0x9B6 SWAP1 PUSH2 0x474E JUMP JUMPDEST DUP1 ISZERO PUSH2 0xA03 JUMPI DUP1 PUSH1 0x1F LT PUSH2 0x9D8 JUMPI PUSH2 0x100 DUP1 DUP4 SLOAD DIV MUL DUP4 MSTORE SWAP2 PUSH1 0x20 ADD SWAP2 PUSH2 0xA03 JUMP JUMPDEST DUP3 ADD SWAP2 SWAP1 PUSH1 0x0 MSTORE PUSH1 0x20 PUSH1 0x0 KECCAK256 SWAP1 JUMPDEST DUP2 SLOAD DUP2 MSTORE SWAP1 PUSH1 0x1 ADD SWAP1 PUSH1 0x20 ADD DUP1 DUP4 GT PUSH2 0x9E6 JUMPI DUP3 SWAP1 SUB PUSH1 0x1F AND DUP3 ADD SWAP2 JUMPDEST POP POP POP SWAP2 DUP4 MSTORE POP POP PUSH1 0x5 SWAP2 SWAP1 SWAP2 ADD SLOAD PUSH1 0xFF DUP1 DUP3 AND ISZERO ISZERO PUSH1 0x20 DUP5 ADD MSTORE PUSH2 0x100 DUP3 DIV DUP2 AND ISZERO ISZERO PUSH1 0x40 DUP5 ADD MSTORE PUSH3 0x10000 SWAP1 SWAP2 DIV AND ISZERO ISZERO PUSH1 0x60 SWAP1 SWAP2 ADD MSTORE SWAP3 SWAP2 POP POP JUMP JUMPDEST PUSH1 0x1 PUSH1 0x1 PUSH1 0xA0 SHL SUB DUP2 AND PUSH1 0x0 SWAP1 DUP2 MSTORE PUSH1 0x8 PUSH1 0x20 MSTORE PUSH1 0x40 DUP2 KECCAK256 SLOAD PUSH1 0x60 SWAP2 DUP2 PUSH1 0x1 PUSH1 0x1 PUSH1 0x40 SHL SUB DUP2 GT ISZERO PUSH2 0xA76 JUMPI PUSH2 0xA76 PUSH2 0x4150 JUMP JUMPDEST PUSH1 0x40 MLOAD SWAP1 DUP1 DUP3 MSTORE DUP1 PUSH1 0x20 MUL PUSH1 0x20 ADD DUP3 ADD PUSH1 0x40 MSTORE DUP1 ISZERO PUSH2 0xAAF JUMPI DUP2 PUSH1 0x20 ADD JUMPDEST PUSH2 0xA9C PUSH2 0x3B86 JUMP JUMPDEST DUP2 MSTORE PUSH1 0x20 ADD SWAP1 PUSH1 0x1 SWAP1 SUB SWAP1 DUP2 PUSH2 0xA94 JUMPI SWAP1 POP JUMPDEST POP SWAP1 POP PUSH1 0x0 DUP1 JUMPDEST PUSH1 0x3 SLOAD DUP2 LT ISZERO PUSH2 0xC4F JUMPI PUSH1 0x0 PUSH1 0x3 DUP3 DUP2 SLOAD DUP2 LT PUSH2 0xAD5 JUMPI PUSH2 0xAD5 PUSH2 0x4788 JUMP JUMPDEST SWAP1 PUSH1 0x0 MSTORE PUSH1 0x20 PUSH1 0x0 KECCAK256 SWAP1 PUSH1 0x7 MUL ADD PUSH1 0x40 MLOAD DUP1 PUSH1 0xE0 ADD PUSH1 0x40 MSTORE SWAP1 DUP2 PUSH1 0x0 DUP3 ADD SLOAD DUP2 MSTORE PUSH1 0x20 ADD PUSH1 0x1 DUP3 ADD PUSH1 0x0 SWAP1 SLOAD SWAP1 PUSH2 0x100 EXP SWAP1 DIV PUSH1 0x1 PUSH1 0x1 PUSH1 0xA0 SHL SUB AND PUSH1 0x1 PUSH1 0x1 PUSH1 0xA0 SHL SUB AND PUSH1 0x1 PUSH1 0x1 PUSH1 0xA0 SHL SUB AND DUP2 MSTORE PUSH1 0x20 ADD PUSH1 0x2 DUP3 ADD DUP1 SLOAD PUSH2 0xB37 SWAP1 PUSH2 0x474E JUMP JUMPDEST DUP1 PUSH1 0x1F ADD PUSH1 0x20 DUP1 SWAP2 DIV MUL PUSH1 0x20 ADD PUSH1 0x40 MLOAD SWAP1 DUP2 ADD PUSH1 0x40 MSTORE DUP1 SWAP3 SWAP2 SWAP1 DUP2 DUP2 MSTORE PUSH1 0x20 ADD DUP3 DUP1 SLOAD PUSH2 0xB63 SWAP1 PUSH2 0x474E JUMP JUMPDEST DUP1 ISZERO PUSH2 0xBB0 JUMPI DUP1 PUSH1 0x1F LT PUSH2 0xB85 JUMPI PUSH2 0x100 DUP1 DUP4 SLOAD DIV MUL DUP4 MSTORE SWAP2 PUSH1 0x20 ADD SWAP2 PUSH2 0xBB0 JUMP JUMPDEST DUP3 ADD SWAP2 SWAP1 PUSH1 0x0 MSTORE PUSH1 0x20 PUSH1 0x0 KECCAK256 SWAP1 JUMPDEST DUP2 SLOAD DUP2 MSTORE SWAP1 PUSH1 0x1 ADD SWAP1 PUSH1 0x20 ADD DUP1 DUP4 GT PUSH2 0xB93 JUMPI DUP3 SWAP1 SUB PUSH1 0x1F AND DUP3 ADD SWAP2 JUMPDEST POP POP POP SWAP2 DUP4 MSTORE POP POP PUSH1 0x3 DUP3 ADD SLOAD PUSH1 0x20 DUP1 DUP4 ADD SWAP2 SWAP1 SWAP2 MSTORE PUSH1 0x4 DUP4 ADD SLOAD PUSH1 0x40 DUP4 ADD MSTORE PUSH1 0x5 DUP4 ADD SLOAD PUSH1 0x60 DUP4 ADD MSTORE PUSH1 0x6 SWAP1 SWAP3 ADD SLOAD PUSH1 0xFF AND ISZERO ISZERO PUSH1 0x80 SWAP1 SWAP2 ADD MSTORE DUP2 ADD MLOAD SWAP1 SWAP2 POP PUSH1 0x1 PUSH1 0x1 PUSH1 0xA0 SHL SUB DUP1 DUP10 AND SWAP2 AND SUB PUSH2 0xC3C JUMPI DUP1 DUP5 DUP5 DUP2 MLOAD DUP2 LT PUSH2 0xC16 JUMPI PUSH2 0xC16 PUSH2 0x4788 JUMP JUMPDEST PUSH1 0x20 MUL PUSH1 0x20 ADD ADD DUP2 SWAP1 MSTORE POP DUP3 DUP1 PUSH2 0xC2C SWAP1 PUSH2 0x479E JUMP JUMPDEST SWAP4 POP POP DUP5 DUP4 SUB PUSH2 0xC3C JUMPI POP PUSH2 0xC4F JUMP JUMPDEST POP DUP1 PUSH2 0xC47 DUP2 PUSH2 0x479E JUMP JUMPDEST SWAP2 POP POP PUSH2 0xAB6 JUMP JUMPDEST POP SWAP1 SWAP5 SWAP4 POP POP POP POP JUMP JUMPDEST PUSH1 0xB PUSH1 0x20 MSTORE DUP2 PUSH1 0x0 MSTORE PUSH1 0x40 PUSH1 0x0 KECCAK256 DUP2 DUP2 SLOAD DUP2 LT PUSH2 0xC75 JUMPI PUSH1 0x0 DUP1 REVERT JUMPDEST PUSH1 0x0 SWAP2 DUP3 MSTORE PUSH1 0x20 SWAP1 SWAP2 KECCAK256 PUSH1 0x7 SWAP1 SWAP2 MUL ADD DUP1 SLOAD PUSH1 0x1 DUP3 ADD SLOAD PUSH1 0x2 DUP4 ADD DUP1 SLOAD SWAP3 SWAP6 POP PUSH1 0x1 PUSH1 0x1 PUSH1 0xA0 SHL SUB SWAP1 SWAP2 AND SWAP4 POP SWAP1 PUSH2 0xCAC SWAP1 PUSH2 0x474E JUMP JUMPDEST DUP1 PUSH1 0x1F ADD PUSH1 0x20 DUP1 SWAP2 DIV MUL PUSH1 0x20 ADD PUSH1 0x40 MLOAD SWAP1 DUP2 ADD PUSH1 0x40 MSTORE DUP1 SWAP3 SWAP2 SWAP1 DUP2 DUP2 MSTORE PUSH1 0x20 ADD DUP3 DUP1 SLOAD PUSH2 0xCD8 SWAP1 PUSH2 0x474E JUMP JUMPDEST DUP1 ISZERO PUSH2 0xD25 JUMPI DUP1 PUSH1 0x1F LT PUSH2 0xCFA JUMPI PUSH2 0x100 DUP1 DUP4 SLOAD DIV MUL DUP4 MSTORE SWAP2 PUSH1 0x20 ADD SWAP2 PUSH2 0xD25 JUMP JUMPDEST DUP3 ADD SWAP2 SWAP1 PUSH1 0x0 MSTORE PUSH1 0x20 PUSH1 0x0 KECCAK256 SWAP1 JUMPDEST DUP2 SLOAD DUP2 MSTORE SWAP1 PUSH1 0x1 ADD SWAP1 PUSH1 0x20 ADD DUP1 DUP4 GT PUSH2 0xD08 JUMPI DUP3 SWAP1 SUB PUSH1 0x1F AND DUP3 ADD SWAP2 JUMPDEST POP POP POP POP POP SWAP1 DUP1 PUSH1 0x3 ADD DUP1 SLOAD PUSH2 0xD3A SWAP1 PUSH2 0x474E JUMP JUMPDEST DUP1 PUSH1 0x1F ADD PUSH1 0x20 DUP1 SWAP2 DIV MUL PUSH1 0x20 ADD PUSH1 0x40 MLOAD SWAP1 DUP2 ADD PUSH1 0x40 MSTORE DUP1 SWAP3 SWAP2 SWAP1 DUP2 DUP2 MSTORE PUSH1 0x20 ADD DUP3 DUP1 SLOAD PUSH2 0xD66 SWAP1 PUSH2 0x474E JUMP JUMPDEST DUP1 ISZERO PUSH2 0xDB3 JUMPI DUP1 PUSH1 0x1F LT PUSH2 0xD88 JUMPI PUSH2 0x100 DUP1 DUP4 SLOAD DIV MUL DUP4 MSTORE SWAP2 PUSH1 0x20 ADD SWAP2 PUSH2 0xDB3 JUMP JUMPDEST DUP3 ADD SWAP2 SWAP1 PUSH1 0x0 MSTORE PUSH1 0x20 PUSH1 0x0 KECCAK256 SWAP1 JUMPDEST DUP2 SLOAD DUP2 MSTORE SWAP1 PUSH1 0x1 ADD SWAP1 PUSH1 0x20 ADD DUP1 DUP4 GT PUSH2 0xD96 JUMPI DUP3 SWAP1 SUB PUSH1 0x1F AND DUP3 ADD SWAP2 JUMPDEST POP POP POP POP PUSH1 0x4 DUP4 ADD SLOAD PUSH1 0x5 DUP5 ADD SLOAD PUSH1 0x6 SWAP1 SWAP5 ADD SLOAD SWAP3 SWAP4 SWAP1 SWAP3 SWAP1 SWAP2 POP PUSH1 0xFF DUP1 DUP3 AND SWAP2 PUSH2 0x100 SWAP1 DIV AND DUP9 JUMP JUMPDEST PUSH1 0x3 DUP2 DUP2 SLOAD DUP2 LT PUSH2 0xDED JUMPI PUSH1 0x0 DUP1 REVERT JUMPDEST PUSH1 0x0 SWAP2 DUP3 MSTORE PUSH1 0x20 SWAP1 SWAP2 KECCAK256 PUSH1 0x7 SWAP1 SWAP2 MUL ADD DUP1 SLOAD PUSH1 0x1 DUP3 ADD SLOAD PUSH1 0x2 DUP4 ADD DUP1 SLOAD SWAP3 SWAP5 POP PUSH1 0x1 PUSH1 0x1 PUSH1 0xA0 SHL SUB SWAP1 SWAP2 AND SWAP3 SWAP2 PUSH2 0xE23 SWAP1 PUSH2 0x474E JUMP JUMPDEST DUP1 PUSH1 0x1F ADD PUSH1 0x20 DUP1 SWAP2 DIV MUL PUSH1 0x20 ADD PUSH1 0x40 MLOAD SWAP1 DUP2 ADD PUSH1 0x40 MSTORE DUP1 SWAP3 SWAP2 SWAP1 DUP2 DUP2 MSTORE PUSH1 0x20 ADD DUP3 DUP1 SLOAD PUSH2 0xE4F SWAP1 PUSH2 0x474E JUMP JUMPDEST DUP1 ISZERO PUSH2 0xE9C JUMPI DUP1 PUSH1 0x1F LT PUSH2 0xE71 JUMPI PUSH2 0x100 DUP1 DUP4 SLOAD DIV MUL DUP4 MSTORE SWAP2 PUSH1 0x20 ADD SWAP2 PUSH2 0xE9C JUMP JUMPDEST DUP3 ADD SWAP2 SWAP1 PUSH1 0x0 MSTORE PUSH1 0x20 PUSH1 0x0 KECCAK256 SWAP1 JUMPDEST DUP2 SLOAD DUP2 MSTORE SWAP1 PUSH1 0x1 ADD SWAP1 PUSH1 0x20 ADD DUP1 DUP4 GT PUSH2 0xE7F JUMPI DUP3 SWAP1 SUB PUSH1 0x1F AND DUP3 ADD SWAP2 JUMPDEST POP POP POP POP PUSH1 0x3 DUP4 ADD SLOAD PUSH1 0x4 DUP5 ADD SLOAD PUSH1 0x5 DUP6 ADD SLOAD PUSH1 0x6 SWAP1 SWAP6 ADD SLOAD SWAP4 SWAP5 SWAP2 SWAP4 SWAP1 SWAP3 POP PUSH1 0xFF AND DUP8 JUMP JUMPDEST PUSH1 0x0 DUP1 PUSH1 0x3 DUP4 DUP2 SLOAD DUP2 LT PUSH2 0xED8 JUMPI PUSH2 0xED8 PUSH2 0x4788 JUMP JUMPDEST SWAP1 PUSH1 0x0 MSTORE PUSH1 0x20 PUSH1 0x0 KECCAK256 SWAP1 PUSH1 0x7 MUL ADD PUSH1 0x40 MLOAD DUP1 PUSH1 0xE0 ADD PUSH1 0x40 MSTORE SWAP1 DUP2 PUSH1 0x0 DUP3 ADD SLOAD DUP2 MSTORE PUSH1 0x20 ADD PUSH1 0x1 DUP3 ADD PUSH1 0x0 SWAP1 SLOAD SWAP1 PUSH2 0x100 EXP SWAP1 DIV PUSH1 0x1 PUSH1 0x1 PUSH1 0xA0 SHL SUB AND PUSH1 0x1 PUSH1 0x1 PUSH1 0xA0 SHL SUB AND PUSH1 0x1 PUSH1 0x1 PUSH1 0xA0 SHL SUB AND DUP2 MSTORE PUSH1 0x20 ADD PUSH1 0x2 DUP3 ADD DUP1 SLOAD PUSH2 0xF3A SWAP1 PUSH2 0x474E JUMP JUMPDEST DUP1 PUSH1 0x1F ADD PUSH1 0x20 DUP1 SWAP2 DIV MUL PUSH1 0x20 ADD PUSH1 0x40 MLOAD SWAP1 DUP2 ADD PUSH1 0x40 MSTORE DUP1 SWAP3 SWAP2 SWAP1 DUP2 DUP2 MSTORE PUSH1 0x20 ADD DUP3 DUP1 SLOAD PUSH2 0xF66 SWAP1 PUSH2 0x474E JUMP JUMPDEST DUP1 ISZERO PUSH2 0xFB3 JUMPI DUP1 PUSH1 0x1F LT PUSH2 0xF88 JUMPI PUSH2 0x100 DUP1 DUP4 SLOAD DIV MUL DUP4 MSTORE SWAP2 PUSH1 0x20 ADD SWAP2 PUSH2 0xFB3 JUMP JUMPDEST DUP3 ADD SWAP2 SWAP1 PUSH1 0x0 MSTORE PUSH1 0x20 PUSH1 0x0 KECCAK256 SWAP1 JUMPDEST DUP2 SLOAD DUP2 MSTORE SWAP1 PUSH1 0x1 ADD SWAP1 PUSH1 0x20 ADD DUP1 DUP4 GT PUSH2 0xF96 JUMPI DUP3 SWAP1 SUB PUSH1 0x1F AND DUP3 ADD SWAP2 JUMPDEST POP POP POP SWAP2 DUP4 MSTORE POP POP PUSH1 0x3 DUP3 ADD SLOAD PUSH1 0x20 DUP3 ADD MSTORE PUSH1 0x4 DUP3 ADD SLOAD PUSH1 0x40 DUP3 ADD MSTORE PUSH1 0x5 DUP1 DUP4 ADD SLOAD PUSH1 0x60 DUP4 ADD MSTORE PUSH1 0x6 SWAP1 SWAP3 ADD SLOAD PUSH1 0xFF AND ISZERO ISZERO PUSH1 0x80 SWAP2 DUP3 ADD MSTORE PUSH1 0xA0 DUP4 ADD MLOAD SWAP1 DUP4 ADD MLOAD SWAP3 SWAP4 POP SWAP2 SWAP1 PUSH1 0x0 SWAP1 PUSH1 0xA SWAP1 PUSH2 0x100A SWAP1 DUP6 SWAP1 PUSH2 0x4724 JUMP JUMPDEST PUSH2 0x1014 SWAP2 SWAP1 PUSH2 0x47B7 JUMP JUMPDEST SWAP1 POP PUSH1 0x0 PUSH2 0x1022 DUP4 DUP4 PUSH2 0x47B7 JUMP JUMPDEST SWAP8 SWAP7 POP POP POP POP POP POP POP JUMP JUMPDEST PUSH1 0x60 PUSH1 0x0 PUSH1 0x3 DUP5 DUP2 SLOAD DUP2 LT PUSH2 0x1044 JUMPI PUSH2 0x1044 PUSH2 0x4788 JUMP JUMPDEST SWAP1 PUSH1 0x0 MSTORE PUSH1 0x20 PUSH1 0x0 KECCAK256 SWAP1 PUSH1 0x7 MUL ADD PUSH1 0x40 MLOAD DUP1 PUSH1 0xE0 ADD PUSH1 0x40 MSTORE SWAP1 DUP2 PUSH1 0x0 DUP3 ADD SLOAD DUP2 MSTORE PUSH1 0x20 ADD PUSH1 0x1 DUP3 ADD PUSH1 0x0 SWAP1 SLOAD SWAP1 PUSH2 0x100 EXP SWAP1 DIV PUSH1 0x1 PUSH1 0x1 PUSH1 0xA0 SHL SUB AND PUSH1 0x1 PUSH1 0x1 PUSH1 0xA0 SHL SUB AND PUSH1 0x1 PUSH1 0x1 PUSH1 0xA0 SHL SUB AND DUP2 MSTORE PUSH1 0x20 ADD PUSH1 0x2 DUP3 ADD DUP1 SLOAD PUSH2 0x10A6 SWAP1 PUSH2 0x474E JUMP JUMPDEST DUP1 PUSH1 0x1F ADD PUSH1 0x20 DUP1 SWAP2 DIV MUL PUSH1 0x20 ADD PUSH1 0x40 MLOAD SWAP1 DUP2 ADD PUSH1 0x40 MSTORE DUP1 SWAP3 SWAP2 SWAP1 DUP2 DUP2 MSTORE PUSH1 0x20 ADD DUP3 DUP1 SLOAD PUSH2 0x10D2 SWAP1 PUSH2 0x474E JUMP JUMPDEST DUP1 ISZERO PUSH2 0x111F JUMPI DUP1 PUSH1 0x1F LT PUSH2 0x10F4 JUMPI PUSH2 0x100 DUP1 DUP4 SLOAD DIV MUL DUP4 MSTORE SWAP2 PUSH1 0x20 ADD SWAP2 PUSH2 0x111F JUMP JUMPDEST DUP3 ADD SWAP2 SWAP1 PUSH1 0x0 MSTORE PUSH1 0x20 PUSH1 0x0 KECCAK256 SWAP1 JUMPDEST DUP2 SLOAD DUP2 MSTORE SWAP1 PUSH1 0x1 ADD SWAP1 PUSH1 0x20 ADD DUP1 DUP4 GT PUSH2 0x1102 JUMPI DUP3 SWAP1 SUB PUSH1 0x1F AND DUP3 ADD SWAP2 JUMPDEST POP POP POP POP POP DUP2 MSTORE PUSH1 0x20 ADD PUSH1 0x3 DUP3 ADD SLOAD DUP2 MSTORE PUSH1 0x20 ADD PUSH1 0x4 DUP3 ADD SLOAD DUP2 MSTORE PUSH1 0x20 ADD PUSH1 0x5 DUP3 ADD SLOAD DUP2 MSTORE PUSH1 0x20 ADD PUSH1 0x6 DUP3 ADD PUSH1 0x0 SWAP1 SLOAD SWAP1 PUSH2 0x100 EXP SWAP1 DIV PUSH1 0xFF AND ISZERO ISZERO ISZERO ISZERO DUP2 MSTORE POP POP SWAP1 POP PUSH1 0x0 PUSH1 0x5 PUSH1 0x0 DUP7 DUP2 MSTORE PUSH1 0x20 ADD SWAP1 DUP2 MSTORE PUSH1 0x20 ADD PUSH1 0x0 KECCAK256 DUP1 SLOAD DUP1 PUSH1 0x20 MUL PUSH1 0x20 ADD PUSH1 0x40 MLOAD SWAP1 DUP2 ADD PUSH1 0x40 MSTORE DUP1 SWAP3 SWAP2 SWAP1 DUP2 DUP2 MSTORE PUSH1 0x20 ADD PUSH1 0x0 SWAP1 JUMPDEST DUP3 DUP3 LT ISZERO PUSH2 0x1218 JUMPI PUSH1 0x0 DUP5 DUP2 MSTORE PUSH1 0x20 SWAP1 DUP2 SWAP1 KECCAK256 PUSH1 0x40 DUP1 MLOAD PUSH1 0xC0 DUP2 ADD DUP3 MSTORE PUSH1 0x4 DUP7 MUL SWAP1 SWAP3 ADD DUP1 SLOAD DUP4 MSTORE PUSH1 0x1 DUP1 DUP3 ADD SLOAD DUP5 DUP7 ADD MSTORE PUSH1 0x2 DUP3 ADD SLOAD SWAP3 DUP5 ADD SWAP3 SWAP1 SWAP3 MSTORE PUSH1 0x3 ADD SLOAD PUSH1 0x1 PUSH1 0x1 PUSH1 0xA0 SHL SUB DUP2 AND PUSH1 0x60 DUP5 ADD MSTORE PUSH1 0xFF PUSH1 0x1 PUSH1 0xA0 SHL DUP3 DIV DUP2 AND ISZERO ISZERO PUSH1 0x80 DUP6 ADD MSTORE PUSH1 0x1 PUSH1 0xA8 SHL SWAP1 SWAP2 DIV AND ISZERO ISZERO PUSH1 0xA0 DUP4 ADD MSTORE SWAP1 DUP4 MSTORE SWAP1 SWAP3 ADD SWAP2 ADD PUSH2 0x1198 JUMP JUMPDEST POP POP POP POP PUSH1 0x60 DUP4 ADD MLOAD SWAP1 SWAP2 POP PUSH1 0x0 DUP2 PUSH1 0x1 PUSH1 0x1 PUSH1 0x40 SHL SUB DUP2 GT ISZERO PUSH2 0x123E JUMPI PUSH2 0x123E PUSH2 0x4150 JUMP JUMPDEST PUSH1 0x40 MLOAD SWAP1 DUP1 DUP3 MSTORE DUP1 PUSH1 0x20 MUL PUSH1 0x20 ADD DUP3 ADD PUSH1 0x40 MSTORE DUP1 ISZERO PUSH2 0x1277 JUMPI DUP2 PUSH1 0x20 ADD JUMPDEST PUSH2 0x1264 PUSH2 0x3BCE JUMP JUMPDEST DUP2 MSTORE PUSH1 0x20 ADD SWAP1 PUSH1 0x1 SWAP1 SUB SWAP1 DUP2 PUSH2 0x125C JUMPI SWAP1 POP JUMPDEST POP SWAP1 POP PUSH1 0x0 DUP1 JUMPDEST DUP5 MLOAD DUP2 LT ISZERO PUSH2 0x130E JUMPI PUSH1 0x0 DUP6 DUP3 DUP2 MLOAD DUP2 LT PUSH2 0x129B JUMPI PUSH2 0x129B PUSH2 0x4788 JUMP JUMPDEST PUSH1 0x20 MUL PUSH1 0x20 ADD ADD MLOAD SWAP1 POP DUP9 PUSH1 0x1 PUSH1 0x1 PUSH1 0xA0 SHL SUB AND DUP2 PUSH1 0x60 ADD MLOAD PUSH1 0x1 PUSH1 0x1 PUSH1 0xA0 SHL SUB AND SUB PUSH2 0x12FB JUMPI DUP1 DUP5 DUP5 DUP2 MLOAD DUP2 LT PUSH2 0x12D5 JUMPI PUSH2 0x12D5 PUSH2 0x4788 JUMP JUMPDEST PUSH1 0x20 MUL PUSH1 0x20 ADD ADD DUP2 SWAP1 MSTORE POP DUP3 DUP1 PUSH2 0x12EB SWAP1 PUSH2 0x479E JUMP JUMPDEST SWAP4 POP POP DUP5 DUP4 SUB PUSH2 0x12FB JUMPI POP PUSH2 0x130E JUMP JUMPDEST POP DUP1 PUSH2 0x1306 DUP2 PUSH2 0x479E JUMP JUMPDEST SWAP2 POP POP PUSH2 0x127E JUMP JUMPDEST POP SWAP1 SWAP8 SWAP7 POP POP POP POP POP POP POP JUMP JUMPDEST PUSH2 0x1323 PUSH2 0x3C11 JUMP JUMPDEST PUSH1 0x1 PUSH1 0x1 PUSH1 0xA0 SHL SUB DUP1 DUP4 AND PUSH1 0x0 SWAP1 DUP2 MSTORE PUSH1 0x2 PUSH1 0x20 DUP2 DUP2 MSTORE PUSH1 0x40 SWAP3 DUP4 SWAP1 KECCAK256 DUP4 MLOAD PUSH2 0x100 DUP2 ADD DUP6 MSTORE DUP2 SLOAD DUP2 MSTORE PUSH1 0x1 DUP3 ADD SLOAD SWAP1 SWAP6 AND SWAP2 DUP6 ADD SWAP2 SWAP1 SWAP2 MSTORE SWAP1 DUP2 ADD DUP1 SLOAD SWAP2 SWAP3 DUP5 ADD SWAP2 PUSH2 0x136F SWAP1 PUSH2 0x474E JUMP JUMPDEST DUP1 PUSH1 0x1F ADD PUSH1 0x20 DUP1 SWAP2 DIV MUL PUSH1 0x20 ADD PUSH1 0x40 MLOAD SWAP1 DUP2 ADD PUSH1 0x40 MSTORE DUP1 SWAP3 SWAP2 SWAP1 DUP2 DUP2 MSTORE PUSH1 0x20 ADD DUP3 DUP1 SLOAD PUSH2 0x139B SWAP1 PUSH2 0x474E JUMP JUMPDEST DUP1 ISZERO PUSH2 0x13E8 JUMPI DUP1 PUSH1 0x1F LT PUSH2 0x13BD JUMPI PUSH2 0x100 DUP1 DUP4 SLOAD DIV MUL DUP4 MSTORE SWAP2 PUSH1 0x20 ADD SWAP2 PUSH2 0x13E8 JUMP JUMPDEST DUP3 ADD SWAP2 SWAP1 PUSH1 0x0 MSTORE PUSH1 0x20 PUSH1 0x0 KECCAK256 SWAP1 JUMPDEST DUP2 SLOAD DUP2 MSTORE SWAP1 PUSH1 0x1 ADD SWAP1 PUSH1 0x20 ADD DUP1 DUP4 GT PUSH2 0x13CB JUMPI DUP3 SWAP1 SUB PUSH1 0x1F AND DUP3 ADD SWAP2 JUMPDEST POP POP POP POP POP DUP2 MSTORE PUSH1 0x20 ADD PUSH1 0x3 DUP3 ADD DUP1 SLOAD PUSH2 0x1401 SWAP1 PUSH2 0x474E JUMP JUMPDEST DUP1 PUSH1 0x1F ADD PUSH1 0x20 DUP1 SWAP2 DIV MUL PUSH1 0x20 ADD PUSH1 0x40 MLOAD SWAP1 DUP2 ADD PUSH1 0x40 MSTORE DUP1 SWAP3 SWAP2 SWAP1 DUP2 DUP2 MSTORE PUSH1 0x20 ADD DUP3 DUP1 SLOAD PUSH2 0x142D SWAP1 PUSH2 0x474E JUMP JUMPDEST DUP1 ISZERO PUSH2 0x147A JUMPI DUP1 PUSH1 0x1F LT PUSH2 0x144F JUMPI PUSH2 0x100 DUP1 DUP4 SLOAD DIV MUL DUP4 MSTORE SWAP2 PUSH1 0x20 ADD SWAP2 PUSH2 0x147A JUMP JUMPDEST DUP3 ADD SWAP2 SWAP1 PUSH1 0x0 MSTORE PUSH1 0x20 PUSH1 0x0 KECCAK256 SWAP1 JUMPDEST DUP2 SLOAD DUP2 MSTORE SWAP1 PUSH1 0x1 ADD SWAP1 PUSH1 0x20 ADD DUP1 DUP4 GT PUSH2 0x145D JUMPI DUP3 SWAP1 SUB PUSH1 0x1F AND DUP3 ADD SWAP2 JUMPDEST POP POP POP SWAP2 DUP4 MSTORE POP POP PUSH1 0x4 DUP3 ADD SLOAD PUSH1 0x20 DUP3 ADD MSTORE PUSH1 0x5 DUP3 ADD SLOAD PUSH1 0x40 DUP3 ADD MSTORE PUSH1 0x6 SWAP1 SWAP2 ADD SLOAD PUSH1 0xFF DUP1 DUP3 AND ISZERO ISZERO PUSH1 0x60 DUP5 ADD MSTORE PUSH2 0x100 SWAP1 SWAP2 DIV AND ISZERO ISZERO PUSH1 0x80 SWAP1 SWAP2 ADD MSTORE SWAP3 SWAP2 POP POP JUMP JUMPDEST PUSH1 0x1 PUSH1 0x1 PUSH1 0xA0 SHL SUB DUP2 AND PUSH1 0x0 SWAP1 DUP2 MSTORE PUSH1 0x2 PUSH1 0x20 MSTORE PUSH1 0x40 DUP2 KECCAK256 PUSH1 0x5 ADD SLOAD DUP2 DUP2 PUSH1 0x1 PUSH1 0x1 PUSH1 0x40 SHL SUB DUP2 GT ISZERO PUSH2 0x14F2 JUMPI PUSH2 0x14F2 PUSH2 0x4150 JUMP JUMPDEST PUSH1 0x40 MLOAD SWAP1 DUP1 DUP3 MSTORE DUP1 PUSH1 0x20 MUL PUSH1 0x20 ADD DUP3 ADD PUSH1 0x40 MSTORE DUP1 ISZERO PUSH2 0x152B JUMPI DUP2 PUSH1 0x20 ADD JUMPDEST PUSH2 0x1518 PUSH2 0x3C63 JUMP JUMPDEST DUP2 MSTORE PUSH1 0x20 ADD SWAP1 PUSH1 0x1 SWAP1 SUB SWAP1 DUP2 PUSH2 0x1510 JUMPI SWAP1 POP JUMPDEST POP SWAP1 POP PUSH1 0x0 DUP1 JUMPDEST DUP3 MLOAD DUP2 LT ISZERO PUSH2 0x157F JUMPI PUSH1 0x0 DUP4 DUP3 DUP2 MLOAD DUP2 LT PUSH2 0x154F JUMPI PUSH2 0x154F PUSH2 0x4788 JUMP JUMPDEST PUSH1 0x20 MUL PUSH1 0x20 ADD ADD MLOAD SWAP1 POP DUP1 PUSH1 0x60 ADD MLOAD DUP4 PUSH2 0x1569 SWAP2 SWAP1 PUSH2 0x473B JUMP JUMPDEST SWAP3 POP POP DUP1 DUP1 PUSH2 0x1577 SWAP1 PUSH2 0x479E JUMP JUMPDEST SWAP2 POP POP PUSH2 0x1532 JUMP JUMPDEST POP SWAP5 SWAP4 POP POP POP POP JUMP JUMPDEST PUSH1 0x1 PUSH1 0x1 PUSH1 0xA0 SHL SUB DUP2 AND PUSH1 0x0 SWAP1 DUP2 MSTORE PUSH1 0x2 PUSH1 0x20 MSTORE PUSH1 0x40 DUP2 KECCAK256 PUSH1 0x5 ADD SLOAD PUSH1 0x60 SWAP2 DUP2 PUSH1 0x1 PUSH1 0x1 PUSH1 0x40 SHL SUB DUP2 GT ISZERO PUSH2 0x15BF JUMPI PUSH2 0x15BF PUSH2 0x4150 JUMP JUMPDEST PUSH1 0x40 MLOAD SWAP1 DUP1 DUP3 MSTORE DUP1 PUSH1 0x20 MUL PUSH1 0x20 ADD DUP3 ADD PUSH1 0x40 MSTORE DUP1 ISZERO PUSH2 0x15F8 JUMPI DUP2 PUSH1 0x20 ADD JUMPDEST PUSH2 0x15E5 PUSH2 0x3C63 JUMP JUMPDEST DUP2 MSTORE PUSH1 0x20 ADD SWAP1 PUSH1 0x1 SWAP1 SUB SWAP1 DUP2 PUSH2 0x15DD JUMPI SWAP1 POP JUMPDEST POP SWAP1 POP PUSH1 0x0 DUP1 JUMPDEST PUSH1 0xD SLOAD DUP2 LT ISZERO PUSH2 0xC4F JUMPI PUSH1 0x0 PUSH1 0xD DUP3 DUP2 SLOAD DUP2 LT PUSH2 0x161E JUMPI PUSH2 0x161E PUSH2 0x4788 JUMP JUMPDEST PUSH1 0x0 SWAP2 DUP3 MSTORE PUSH1 0x20 SWAP2 DUP3 SWAP1 KECCAK256 PUSH1 0x40 DUP1 MLOAD PUSH1 0xA0 DUP2 ADD DUP3 MSTORE PUSH1 0x5 SWAP1 SWAP4 MUL SWAP1 SWAP2 ADD DUP1 SLOAD DUP4 MSTORE PUSH1 0x1 DUP2 ADD SLOAD SWAP4 DUP4 ADD SWAP4 SWAP1 SWAP4 MSTORE PUSH1 0x2 DUP4 ADD SLOAD PUSH1 0x1 PUSH1 0x1 PUSH1 0xA0 SHL SUB SWAP1 DUP2 AND SWAP2 DUP4 ADD DUP3 SWAP1 MSTORE PUSH1 0x3 DUP5 ADD SLOAD PUSH1 0x60 DUP5 ADD MSTORE PUSH1 0x4 SWAP1 SWAP4 ADD SLOAD PUSH1 0xFF AND ISZERO ISZERO PUSH1 0x80 DUP4 ADD MSTORE SWAP1 SWAP3 POP SWAP1 DUP9 AND SWAP1 SUB PUSH2 0x16C0 JUMPI DUP1 DUP5 DUP5 DUP2 MLOAD DUP2 LT PUSH2 0x169A JUMPI PUSH2 0x169A PUSH2 0x4788 JUMP JUMPDEST PUSH1 0x20 MUL PUSH1 0x20 ADD ADD DUP2 SWAP1 MSTORE POP DUP3 DUP1 PUSH2 0x16B0 SWAP1 PUSH2 0x479E JUMP JUMPDEST SWAP4 POP POP DUP5 DUP4 SUB PUSH2 0x16C0 JUMPI POP PUSH2 0xC4F JUMP JUMPDEST POP DUP1 PUSH2 0x16CB DUP2 PUSH2 0x479E JUMP JUMPDEST SWAP2 POP POP PUSH2 0x15FF JUMP JUMPDEST PUSH1 0x60 PUSH1 0x0 PUSH2 0x16E0 DUP4 PUSH2 0x1588 JUMP JUMPDEST SWAP1 POP PUSH1 0x0 DUP2 MLOAD PUSH1 0x1 PUSH1 0x1 PUSH1 0x40 SHL SUB DUP2 GT ISZERO PUSH2 0x16FD JUMPI PUSH2 0x16FD PUSH2 0x4150 JUMP JUMPDEST PUSH1 0x40 MLOAD SWAP1 DUP1 DUP3 MSTORE DUP1 PUSH1 0x20 MUL PUSH1 0x20 ADD DUP3 ADD PUSH1 0x40 MSTORE DUP1 ISZERO PUSH2 0x1736 JUMPI DUP2 PUSH1 0x20 ADD JUMPDEST PUSH2 0x1723 PUSH2 0x3B86 JUMP JUMPDEST DUP2 MSTORE PUSH1 0x20 ADD SWAP1 PUSH1 0x1 SWAP1 SUB SWAP1 DUP2 PUSH2 0x171B JUMPI SWAP1 POP JUMPDEST POP SWAP1 POP PUSH1 0x0 DUP1 JUMPDEST DUP4 MLOAD DUP2 LT ISZERO PUSH2 0xC4F JUMPI PUSH1 0x0 DUP5 DUP3 DUP2 MLOAD DUP2 LT PUSH2 0x175A JUMPI PUSH2 0x175A PUSH2 0x4788 JUMP JUMPDEST PUSH1 0x20 MUL PUSH1 0x20 ADD ADD MLOAD SWAP1 POP PUSH1 0x3 DUP2 PUSH1 0x20 ADD MLOAD DUP2 SLOAD DUP2 LT PUSH2 0x177B JUMPI PUSH2 0x177B PUSH2 0x4788 JUMP JUMPDEST SWAP1 PUSH1 0x0 MSTORE PUSH1 0x20 PUSH1 0x0 KECCAK256 SWAP1 PUSH1 0x7 MUL ADD PUSH1 0x40 MLOAD DUP1 PUSH1 0xE0 ADD PUSH1 0x40 MSTORE SWAP1 DUP2 PUSH1 0x0 DUP3 ADD SLOAD DUP2 MSTORE PUSH1 0x20 ADD PUSH1 0x1 DUP3 ADD PUSH1 0x0 SWAP1 SLOAD SWAP1 PUSH2 0x100 EXP SWAP1 DIV PUSH1 0x1 PUSH1 0x1 PUSH1 0xA0 SHL SUB AND PUSH1 0x1 PUSH1 0x1 PUSH1 0xA0 SHL SUB AND PUSH1 0x1 PUSH1 0x1 PUSH1 0xA0 SHL SUB AND DUP2 MSTORE PUSH1 0x20 ADD PUSH1 0x2 DUP3 ADD DUP1 SLOAD PUSH2 0x17DD SWAP1 PUSH2 0x474E JUMP JUMPDEST DUP1 PUSH1 0x1F ADD PUSH1 0x20 DUP1 SWAP2 DIV MUL PUSH1 0x20 ADD PUSH1 0x40 MLOAD SWAP1 DUP2 ADD PUSH1 0x40 MSTORE DUP1 SWAP3 SWAP2 SWAP1 DUP2 DUP2 MSTORE PUSH1 0x20 ADD DUP3 DUP1 SLOAD PUSH2 0x1809 SWAP1 PUSH2 0x474E JUMP JUMPDEST DUP1 ISZERO PUSH2 0x1856 JUMPI DUP1 PUSH1 0x1F LT PUSH2 0x182B JUMPI PUSH2 0x100 DUP1 DUP4 SLOAD DIV MUL DUP4 MSTORE SWAP2 PUSH1 0x20 ADD SWAP2 PUSH2 0x1856 JUMP JUMPDEST DUP3 ADD SWAP2 SWAP1 PUSH1 0x0 MSTORE PUSH1 0x20 PUSH1 0x0 KECCAK256 SWAP1 JUMPDEST DUP2 SLOAD DUP2 MSTORE SWAP1 PUSH1 0x1 ADD SWAP1 PUSH1 0x20 ADD DUP1 DUP4 GT PUSH2 0x1839 JUMPI DUP3 SWAP1 SUB PUSH1 0x1F AND DUP3 ADD SWAP2 JUMPDEST POP POP POP SWAP2 DUP4 MSTORE POP POP PUSH1 0x3 DUP3 ADD SLOAD PUSH1 0x20 DUP3 ADD MSTORE PUSH1 0x4 DUP3 ADD SLOAD PUSH1 0x40 DUP3 ADD MSTORE PUSH1 0x5 DUP3 ADD SLOAD PUSH1 0x60 DUP3 ADD MSTORE PUSH1 0x6 SWAP1 SWAP2 ADD SLOAD PUSH1 0xFF AND ISZERO ISZERO PUSH1 0x80 SWAP1 SWAP2 ADD MSTORE DUP5 MLOAD DUP6 SWAP1 DUP6 SWAP1 DUP2 LT PUSH2 0x18A1 JUMPI PUSH2 0x18A1 PUSH2 0x4788 JUMP JUMPDEST PUSH1 0x20 MUL PUSH1 0x20 ADD ADD DUP2 SWAP1 MSTORE POP DUP3 DUP1 PUSH2 0x18B7 SWAP1 PUSH2 0x479E JUMP JUMPDEST SWAP4 POP POP POP DUP1 DUP1 PUSH2 0x18C6 SWAP1 PUSH2 0x479E JUMP JUMPDEST SWAP2 POP POP PUSH2 0x173D JUMP JUMPDEST PUSH1 0xF SLOAD PUSH2 0x18D9 PUSH2 0x3C11 JUMP JUMPDEST DUP2 DUP2 MSTORE PUSH1 0x1 PUSH1 0x1 PUSH1 0xA0 SHL SUB DUP7 AND PUSH1 0x20 DUP3 ADD MSTORE PUSH1 0x40 DUP2 ADD DUP6 SWAP1 MSTORE PUSH1 0x60 DUP2 ADD DUP5 SWAP1 MSTORE PUSH1 0x80 DUP2 ADD DUP4 SWAP1 MSTORE PUSH2 0x1909 DUP7 PUSH2 0x2CE8 JUMP JUMPDEST ISZERO PUSH2 0x19F5 JUMPI PUSH1 0x0 PUSH2 0x1919 DUP8 PUSH2 0x814 JUMP JUMPDEST PUSH1 0x1 PUSH1 0xA0 DUP3 ADD DUP2 SWAP1 MSTORE PUSH1 0xC0 DUP5 ADD DUP2 SWAP1 MSTORE PUSH1 0x1 PUSH1 0x1 PUSH1 0xA0 SHL SUB DUP10 DUP2 AND PUSH1 0x0 SWAP1 DUP2 MSTORE PUSH1 0x20 DUP4 DUP2 MSTORE PUSH1 0x40 SWAP2 DUP3 SWAP1 KECCAK256 DUP6 MLOAD DUP2 SSTORE SWAP1 DUP6 ADD MLOAD SWAP4 DUP2 ADD DUP1 SLOAD PUSH1 0x1 PUSH1 0x1 PUSH1 0xA0 SHL SUB NOT AND SWAP5 SWAP1 SWAP4 AND SWAP4 SWAP1 SWAP4 OR SWAP1 SWAP2 SSTORE DUP3 ADD MLOAD SWAP2 SWAP3 POP DUP3 SWAP2 PUSH1 0x2 DUP3 ADD SWAP1 PUSH2 0x197D SWAP1 DUP3 PUSH2 0x4828 JUMP JUMPDEST POP PUSH1 0x60 DUP3 ADD MLOAD PUSH1 0x3 DUP3 ADD SWAP1 PUSH2 0x1992 SWAP1 DUP3 PUSH2 0x4828 JUMP JUMPDEST POP PUSH1 0x80 DUP3 ADD MLOAD PUSH1 0x4 DUP3 ADD SWAP1 PUSH2 0x19A7 SWAP1 DUP3 PUSH2 0x4828 JUMP JUMPDEST POP PUSH1 0xA0 DUP3 ADD MLOAD PUSH1 0x5 SWAP1 SWAP2 ADD DUP1 SLOAD PUSH1 0xC0 DUP5 ADD MLOAD PUSH1 0xE0 SWAP1 SWAP5 ADD MLOAD ISZERO ISZERO PUSH3 0x10000 MUL PUSH3 0xFF0000 NOT SWAP5 ISZERO ISZERO PUSH2 0x100 MUL PUSH2 0xFF00 NOT SWAP5 ISZERO ISZERO SWAP5 SWAP1 SWAP5 AND PUSH2 0xFFFF NOT SWAP1 SWAP3 AND SWAP2 SWAP1 SWAP2 OR SWAP3 SWAP1 SWAP3 OR SWAP3 SWAP1 SWAP3 AND OR SWAP1 SSTORE POP JUMPDEST PUSH1 0x1 PUSH1 0x1 PUSH1 0xA0 SHL SUB DUP7 DUP2 AND PUSH1 0x0 SWAP1 DUP2 MSTORE PUSH1 0x2 PUSH1 0x20 DUP2 DUP2 MSTORE PUSH1 0x40 SWAP3 DUP4 SWAP1 KECCAK256 DUP6 MLOAD DUP2 SSTORE SWAP1 DUP6 ADD MLOAD PUSH1 0x1 DUP3 ADD DUP1 SLOAD PUSH1 0x1 PUSH1 0x1 PUSH1 0xA0 SHL SUB NOT AND SWAP2 SWAP1 SWAP6 AND OR SWAP1 SWAP4 SSTORE SWAP1 DUP4 ADD MLOAD DUP4 SWAP3 SWAP2 DUP3 ADD SWAP1 PUSH2 0x1A46 SWAP1 DUP3 PUSH2 0x4828 JUMP JUMPDEST POP PUSH1 0x60 DUP3 ADD MLOAD PUSH1 0x3 DUP3 ADD SWAP1 PUSH2 0x1A5B SWAP1 DUP3 PUSH2 0x4828 JUMP JUMPDEST POP PUSH1 0x80 DUP3 ADD MLOAD PUSH1 0x4 DUP3 ADD SSTORE PUSH1 0xA0 DUP3 ADD MLOAD PUSH1 0x5 DUP3 ADD SSTORE PUSH1 0xC0 DUP3 ADD MLOAD PUSH1 0x6 SWAP1 SWAP2 ADD DUP1 SLOAD PUSH1 0xE0 SWAP1 SWAP4 ADD MLOAD ISZERO ISZERO PUSH2 0x100 MUL PUSH2 0xFF00 NOT SWAP3 ISZERO ISZERO SWAP3 SWAP1 SWAP3 AND PUSH2 0xFFFF NOT SWAP1 SWAP4 AND SWAP3 SWAP1 SWAP3 OR OR SWAP1 SSTORE PUSH1 0xF DUP1 SLOAD SWAP1 PUSH1 0x0 PUSH2 0x1AB1 DUP4 PUSH2 0x479E JUMP JUMPDEST SWAP2 SWAP1 POP SSTORE POP POP POP POP POP POP POP JUMP JUMPDEST PUSH1 0xE SLOAD PUSH2 0x1AC9 PUSH2 0x3B32 JUMP JUMPDEST DUP2 DUP2 MSTORE PUSH1 0x1 PUSH1 0x1 PUSH1 0xA0 SHL SUB DUP7 AND PUSH1 0x20 DUP3 ADD MSTORE PUSH1 0x40 DUP2 ADD DUP6 SWAP1 MSTORE PUSH1 0x60 DUP2 ADD DUP5 SWAP1 MSTORE PUSH1 0x80 DUP2 ADD DUP4 SWAP1 MSTORE PUSH1 0x0 PUSH1 0xC0 DUP3 ADD MSTORE PUSH2 0x1B00 DUP7 PUSH2 0x2620 JUMP JUMPDEST ISZERO PUSH2 0x1BD2 JUMPI PUSH1 0x0 PUSH2 0x1B10 DUP8 PUSH2 0x131B JUMP JUMPDEST PUSH1 0x1 PUSH1 0xC0 DUP3 ADD DUP2 SWAP1 MSTORE PUSH1 0xA0 DUP5 ADD DUP2 SWAP1 MSTORE PUSH1 0x1 PUSH1 0x1 PUSH1 0xA0 SHL SUB DUP10 DUP2 AND PUSH1 0x0 SWAP1 DUP2 MSTORE PUSH1 0x2 PUSH1 0x20 DUP2 DUP2 MSTORE PUSH1 0x40 SWAP3 DUP4 SWAP1 KECCAK256 DUP7 MLOAD DUP2 SSTORE SWAP1 DUP7 ADD MLOAD SWAP5 DUP2 ADD DUP1 SLOAD PUSH1 0x1 PUSH1 0x1 PUSH1 0xA0 SHL SUB NOT AND SWAP6 SWAP1 SWAP5 AND SWAP5 SWAP1 SWAP5 OR SWAP1 SWAP3 SSTORE DUP4 ADD MLOAD SWAP3 SWAP4 POP DUP4 SWAP3 SWAP1 DUP3 ADD SWAP1 PUSH2 0x1B75 SWAP1 DUP3 PUSH2 0x4828 JUMP JUMPDEST POP PUSH1 0x60 DUP3 ADD MLOAD PUSH1 0x3 DUP3 ADD SWAP1 PUSH2 0x1B8A SWAP1 DUP3 PUSH2 0x4828 JUMP JUMPDEST POP PUSH1 0x80 DUP3 ADD MLOAD PUSH1 0x4 DUP3 ADD SSTORE PUSH1 0xA0 DUP3 ADD MLOAD PUSH1 0x5 DUP3 ADD SSTORE PUSH1 0xC0 DUP3 ADD MLOAD PUSH1 0x6 SWAP1 SWAP2 ADD DUP1 SLOAD PUSH1 0xE0 SWAP1 SWAP4 ADD MLOAD ISZERO ISZERO PUSH2 0x100 MUL PUSH2 0xFF00 NOT SWAP3 ISZERO ISZERO SWAP3 SWAP1 SWAP3 AND PUSH2 0xFFFF NOT SWAP1 SWAP4 AND SWAP3 SWAP1 SWAP3 OR OR SWAP1 SSTORE POP JUMPDEST PUSH1 0x1 PUSH1 0x1 PUSH1 0xA0 SHL SUB DUP7 DUP2 AND PUSH1 0x0 SWAP1 DUP2 MSTORE PUSH1 0x1 PUSH1 0x20 DUP2 DUP2 MSTORE PUSH1 0x40 SWAP3 DUP4 SWAP1 KECCAK256 DUP6 MLOAD DUP2 SSTORE SWAP1 DUP6 ADD MLOAD SWAP2 DUP2 ADD DUP1 SLOAD PUSH1 0x1 PUSH1 0x1 PUSH1 0xA0 SHL SUB NOT AND SWAP3 SWAP1 SWAP5 AND SWAP2 SWAP1 SWAP2 OR SWAP1 SWAP3 SSTORE DUP3 ADD MLOAD DUP3 SWAP2 SWAP1 PUSH1 0x2 DUP3 ADD SWAP1 PUSH2 0x1C26 SWAP1 DUP3 PUSH2 0x4828 JUMP JUMPDEST POP PUSH1 0x60 DUP3 ADD MLOAD PUSH1 0x3 DUP3 ADD SWAP1 PUSH2 0x1C3B SWAP1 DUP3 PUSH2 0x4828 JUMP JUMPDEST POP PUSH1 0x80 DUP3 ADD MLOAD PUSH1 0x4 DUP3 ADD SWAP1 PUSH2 0x1C50 SWAP1 DUP3 PUSH2 0x4828 JUMP JUMPDEST POP PUSH1 0xA0 DUP3 ADD MLOAD PUSH1 0x5 SWAP1 SWAP2 ADD DUP1 SLOAD PUSH1 0xC0 DUP5 ADD MLOAD PUSH1 0xE0 SWAP1 SWAP5 ADD MLOAD ISZERO ISZERO PUSH3 0x10000 MUL PUSH3 0xFF0000 NOT SWAP5 ISZERO ISZERO PUSH2 0x100 MUL PUSH2 0xFF00 NOT SWAP5 ISZERO ISZERO SWAP5 SWAP1 SWAP5 AND PUSH2 0xFFFF NOT SWAP1 SWAP3 AND SWAP2 SWAP1 SWAP2 OR SWAP3 SWAP1 SWAP3 OR SWAP3 SWAP1 SWAP3 AND OR SWAP1 SSTORE PUSH1 0xE DUP1 SLOAD SWAP1 PUSH1 0x0 PUSH2 0x1AB1 DUP4 PUSH2 0x479E JUMP JUMPDEST PUSH1 0x0 DUP1 PUSH1 0x3 DUP5 DUP2 SLOAD DUP2 LT PUSH2 0x1CC2 JUMPI PUSH2 0x1CC2 PUSH2 0x4788 JUMP JUMPDEST SWAP1 PUSH1 0x0 MSTORE PUSH1 0x20 PUSH1 0x0 KECCAK256 SWAP1 PUSH1 0x7 MUL ADD PUSH1 0x40 MLOAD DUP1 PUSH1 0xE0 ADD PUSH1 0x40 MSTORE SWAP1 DUP2 PUSH1 0x0 DUP3 ADD SLOAD DUP2 MSTORE PUSH1 0x20 ADD PUSH1 0x1 DUP3 ADD PUSH1 0x0 SWAP1 SLOAD SWAP1 PUSH2 0x100 EXP SWAP1 DIV PUSH1 0x1 PUSH1 0x1 PUSH1 0xA0 SHL SUB AND PUSH1 0x1 PUSH1 0x1 PUSH1 0xA0 SHL SUB AND PUSH1 0x1 PUSH1 0x1 PUSH1 0xA0 SHL SUB AND DUP2 MSTORE PUSH1 0x20 ADD PUSH1 0x2 DUP3 ADD DUP1 SLOAD PUSH2 0x1D24 SWAP1 PUSH2 0x474E JUMP JUMPDEST DUP1 PUSH1 0x1F ADD PUSH1 0x20 DUP1 SWAP2 DIV MUL PUSH1 0x20 ADD PUSH1 0x40 MLOAD SWAP1 DUP2 ADD PUSH1 0x40 MSTORE DUP1 SWAP3 SWAP2 SWAP1 DUP2 DUP2 MSTORE PUSH1 0x20 ADD DUP3 DUP1 SLOAD PUSH2 0x1D50 SWAP1 PUSH2 0x474E JUMP JUMPDEST DUP1 ISZERO PUSH2 0x1D9D JUMPI DUP1 PUSH1 0x1F LT PUSH2 0x1D72 JUMPI PUSH2 0x100 DUP1 DUP4 SLOAD DIV MUL DUP4 MSTORE SWAP2 PUSH1 0x20 ADD SWAP2 PUSH2 0x1D9D JUMP JUMPDEST DUP3 ADD SWAP2 SWAP1 PUSH1 0x0 MSTORE PUSH1 0x20 PUSH1 0x0 KECCAK256 SWAP1 JUMPDEST DUP2 SLOAD DUP2 MSTORE SWAP1 PUSH1 0x1 ADD SWAP1 PUSH1 0x20 ADD DUP1 DUP4 GT PUSH2 0x1D80 JUMPI DUP3 SWAP1 SUB PUSH1 0x1F AND DUP3 ADD SWAP2 JUMPDEST POP POP POP SWAP2 DUP4 MSTORE POP POP PUSH1 0x3 DUP3 ADD SLOAD PUSH1 0x20 DUP3 ADD MSTORE PUSH1 0x4 DUP3 ADD SLOAD PUSH1 0x40 DUP3 ADD MSTORE PUSH1 0x5 DUP1 DUP4 ADD SLOAD PUSH1 0x60 DUP4 ADD MSTORE PUSH1 0x6 SWAP1 SWAP3 ADD SLOAD PUSH1 0xFF AND ISZERO ISZERO PUSH1 0x80 SWAP1 SWAP2 ADD MSTORE PUSH1 0xA0 DUP3 ADD MLOAD SWAP2 SWAP3 POP PUSH1 0x0 SWAP1 DUP6 SWAP1 PUSH1 0xA SWAP1 PUSH2 0x1DF0 SWAP1 DUP6 SWAP1 PUSH2 0x4724 JUMP JUMPDEST PUSH2 0x1DFA SWAP2 SWAP1 PUSH2 0x47B7 JUMP JUMPDEST PUSH2 0x1E04 SWAP2 SWAP1 PUSH2 0x47B7 JUMP JUMPDEST SWAP7 SWAP6 POP POP POP POP POP POP JUMP JUMPDEST PUSH1 0x2 PUSH1 0x20 DUP2 SWAP1 MSTORE PUSH1 0x0 SWAP2 DUP3 MSTORE PUSH1 0x40 SWAP1 SWAP2 KECCAK256 DUP1 SLOAD PUSH1 0x1 DUP3 ADD SLOAD SWAP3 DUP3 ADD DUP1 SLOAD SWAP2 SWAP4 PUSH1 0x1 PUSH1 0x1 PUSH1 0xA0 SHL SUB AND SWAP3 SWAP2 PUSH2 0xCAC SWAP1 PUSH2 0x474E JUMP JUMPDEST PUSH1 0x10 SLOAD PUSH1 0x0 SWAP1 PUSH2 0x1E4F PUSH2 0x3B86 JUMP JUMPDEST DUP2 DUP2 MSTORE PUSH1 0x1 PUSH1 0x1 PUSH1 0xA0 SHL SUB DUP10 AND PUSH1 0x20 DUP3 ADD MSTORE PUSH1 0x40 DUP2 ADD DUP9 SWAP1 MSTORE PUSH1 0x60 DUP2 ADD DUP8 SWAP1 MSTORE PUSH1 0x80 DUP2 ADD DUP7 SWAP1 MSTORE PUSH1 0x16 SLOAD PUSH2 0x1E83 SWAP1 DUP6 PUSH2 0x4724 JUMP JUMPDEST PUSH1 0xA0 DUP3 ADD MSTORE PUSH1 0x3 DUP1 SLOAD PUSH1 0x1 DUP2 ADD DUP3 SSTORE PUSH1 0x0 SWAP2 SWAP1 SWAP2 MSTORE DUP2 MLOAD PUSH32 0xC2575A0E9E593C00F959F8C92F12DB2869C3395A3B0502D05E2516446F71F85B PUSH1 0x7 SWAP1 SWAP3 MUL SWAP2 DUP3 ADD SWAP1 DUP2 SSTORE PUSH1 0x20 DUP4 ADD MLOAD PUSH32 0xC2575A0E9E593C00F959F8C92F12DB2869C3395A3B0502D05E2516446F71F85C DUP4 ADD DUP1 SLOAD PUSH1 0x1 PUSH1 0x1 PUSH1 0xA0 SHL SUB NOT AND PUSH1 0x1 PUSH1 0x1 PUSH1 0xA0 SHL SUB SWAP1 SWAP3 AND SWAP2 SWAP1 SWAP2 OR SWAP1 SSTORE PUSH1 0x40 DUP4 ADD MLOAD DUP4 SWAP3 PUSH32 0xC2575A0E9E593C00F959F8C92F12DB2869C3395A3B0502D05E2516446F71F85D ADD SWAP1 PUSH2 0x1F3F SWAP1 DUP3 PUSH2 0x4828 JUMP JUMPDEST POP PUSH1 0x60 DUP3 ADD MLOAD PUSH1 0x3 DUP3 ADD SSTORE PUSH1 0x80 DUP3 ADD MLOAD PUSH1 0x4 DUP3 ADD SSTORE PUSH1 0xA0 DUP3 ADD MLOAD PUSH1 0x5 DUP3 ADD SSTORE PUSH1 0xC0 SWAP1 SWAP2 ADD MLOAD PUSH1 0x6 SWAP1 SWAP2 ADD DUP1 SLOAD PUSH1 0xFF NOT AND SWAP2 ISZERO ISZERO SWAP2 SWAP1 SWAP2 OR SWAP1 SSTORE DUP1 MLOAD PUSH1 0x1 PUSH1 0x1 PUSH1 0xA0 SHL SUB DUP11 AND PUSH1 0x0 SWAP1 DUP2 MSTORE PUSH1 0xA PUSH1 0x20 SWAP1 DUP2 MSTORE PUSH1 0x40 DUP1 DUP4 KECCAK256 SWAP4 SWAP1 SWAP4 SSTORE PUSH1 0x8 SWAP1 MSTORE SWAP1 DUP2 KECCAK256 SLOAD SWAP1 PUSH2 0x1FAD DUP3 PUSH1 0x1 PUSH2 0x473B JUMP JUMPDEST PUSH1 0x1 PUSH1 0x1 PUSH1 0xA0 SHL SUB DUP13 AND PUSH1 0x0 SWAP1 DUP2 MSTORE PUSH1 0x8 PUSH1 0x20 MSTORE PUSH1 0x40 DUP2 KECCAK256 DUP3 SWAP1 SSTORE SWAP1 SWAP2 POP JUMPDEST DUP10 DUP2 LT ISZERO PUSH2 0x20B2 JUMPI PUSH1 0x11 SLOAD PUSH1 0x40 DUP1 MLOAD PUSH1 0x80 DUP2 ADD DUP3 MSTORE PUSH1 0x0 PUSH1 0x20 DUP3 ADD DUP2 DUP2 MSTORE PUSH1 0x60 SWAP4 DUP4 ADD DUP5 SWAP1 MSTORE SWAP3 DUP3 ADD MSTORE DUP3 DUP2 MSTORE DUP7 MLOAD SWAP1 SWAP2 MSTORE DUP10 MLOAD DUP11 SWAP1 DUP5 SWAP1 DUP2 LT PUSH2 0x2012 JUMPI PUSH2 0x2012 PUSH2 0x4788 JUMP JUMPDEST PUSH1 0x20 SWAP1 DUP2 MUL SWAP2 SWAP1 SWAP2 ADD DUP2 ADD MLOAD PUSH1 0x40 DUP1 DUP5 ADD SWAP2 DUP3 MSTORE DUP9 MLOAD PUSH1 0x0 SWAP1 DUP2 MSTORE PUSH1 0x4 DUP1 DUP6 MSTORE SWAP2 DUP2 KECCAK256 DUP1 SLOAD PUSH1 0x1 DUP2 DUP2 ADD DUP4 SSTORE SWAP2 DUP4 MSTORE SWAP2 DUP6 SWAP1 KECCAK256 DUP7 MLOAD SWAP3 SWAP1 SWAP4 MUL SWAP1 SWAP3 ADD SWAP1 DUP2 SSTORE SWAP3 DUP5 ADD MLOAD SWAP1 DUP4 ADD SSTORE MLOAD DUP3 SWAP2 SWAP1 PUSH1 0x2 DUP3 ADD SWAP1 PUSH2 0x206C SWAP1 DUP3 PUSH2 0x4828 JUMP JUMPDEST POP PUSH1 0x60 SWAP2 SWAP1 SWAP2 ADD MLOAD PUSH1 0x3 SWAP1 SWAP2 ADD DUP1 SLOAD PUSH1 0xFF NOT AND SWAP2 ISZERO ISZERO SWAP2 SWAP1 SWAP2 OR SWAP1 SSTORE PUSH1 0x11 DUP1 SLOAD SWAP1 PUSH1 0x0 PUSH2 0x2098 DUP4 PUSH2 0x479E JUMP JUMPDEST SWAP2 SWAP1 POP SSTORE POP POP POP DUP1 DUP1 PUSH2 0x20AA SWAP1 PUSH2 0x479E JUMP JUMPDEST SWAP2 POP POP PUSH2 0x1FCC JUMP JUMPDEST POP PUSH1 0x10 DUP1 SLOAD SWAP1 PUSH1 0x0 PUSH2 0x20C3 DUP4 PUSH2 0x479E JUMP JUMPDEST SWAP1 SWAP2 SSTORE POP POP SWAP2 MLOAD SWAP11 SWAP10 POP POP POP POP POP POP POP POP POP POP JUMP JUMPDEST PUSH1 0x5 PUSH1 0x20 MSTORE DUP2 PUSH1 0x0 MSTORE PUSH1 0x40 PUSH1 0x0 KECCAK256 DUP2 DUP2 SLOAD DUP2 LT PUSH2 0x20F4 JUMPI PUSH1 0x0 DUP1 REVERT JUMPDEST PUSH1 0x0 SWAP2 DUP3 MSTORE PUSH1 0x20 SWAP1 SWAP2 KECCAK256 PUSH1 0x4 SWAP1 SWAP2 MUL ADD DUP1 SLOAD PUSH1 0x1 DUP3 ADD SLOAD PUSH1 0x2 DUP4 ADD SLOAD PUSH1 0x3 SWAP1 SWAP4 ADD SLOAD SWAP2 SWAP5 POP SWAP3 POP PUSH1 0x1 PUSH1 0x1 PUSH1 0xA0 SHL SUB DUP2 AND SWAP1 PUSH1 0xFF PUSH1 0x1 PUSH1 0xA0 SHL DUP3 DIV DUP2 AND SWAP2 PUSH1 0x1 PUSH1 0xA8 SHL SWAP1 DIV AND DUP7 JUMP JUMPDEST PUSH1 0x0 PUSH1 0x3 DUP4 DUP2 SLOAD DUP2 LT PUSH2 0x2152 JUMPI PUSH2 0x2152 PUSH2 0x4788 JUMP JUMPDEST SWAP1 PUSH1 0x0 MSTORE PUSH1 0x20 PUSH1 0x0 KECCAK256 SWAP1 PUSH1 0x7 MUL ADD PUSH1 0x40 MLOAD DUP1 PUSH1 0xE0 ADD PUSH1 0x40 MSTORE SWAP1 DUP2 PUSH1 0x0 DUP3 ADD SLOAD DUP2 MSTORE PUSH1 0x20 ADD PUSH1 0x1 DUP3 ADD PUSH1 0x0 SWAP1 SLOAD SWAP1 PUSH2 0x100 EXP SWAP1 DIV PUSH1 0x1 PUSH1 0x1 PUSH1 0xA0 SHL SUB AND PUSH1 0x1 PUSH1 0x1 PUSH1 0xA0 SHL SUB AND PUSH1 0x1 PUSH1 0x1 PUSH1 0xA0 SHL SUB AND DUP2 MSTORE PUSH1 0x20 ADD PUSH1 0x2 DUP3 ADD DUP1 SLOAD PUSH2 0x21B4 SWAP1 PUSH2 0x474E JUMP JUMPDEST DUP1 PUSH1 0x1F ADD PUSH1 0x20 DUP1 SWAP2 DIV MUL PUSH1 0x20 ADD PUSH1 0x40 MLOAD SWAP1 DUP2 ADD PUSH1 0x40 MSTORE DUP1 SWAP3 SWAP2 SWAP1 DUP2 DUP2 MSTORE PUSH1 0x20 ADD DUP3 DUP1 SLOAD PUSH2 0x21E0 SWAP1 PUSH2 0x474E JUMP JUMPDEST DUP1 ISZERO PUSH2 0x222D JUMPI DUP1 PUSH1 0x1F LT PUSH2 0x2202 JUMPI PUSH2 0x100 DUP1 DUP4 SLOAD DIV MUL DUP4 MSTORE SWAP2 PUSH1 0x20 ADD SWAP2 PUSH2 0x222D JUMP JUMPDEST DUP3 ADD SWAP2 SWAP1 PUSH1 0x0 MSTORE PUSH1 0x20 PUSH1 0x0 KECCAK256 SWAP1 JUMPDEST DUP2 SLOAD DUP2 MSTORE SWAP1 PUSH1 0x1 ADD SWAP1 PUSH1 0x20 ADD DUP1 DUP4 GT PUSH2 0x2210 JUMPI DUP3 SWAP1 SUB PUSH1 0x1F AND DUP3 ADD SWAP2 JUMPDEST POP POP POP SWAP2 DUP4 MSTORE POP POP PUSH1 0x3 DUP3 ADD SLOAD PUSH1 0x20 DUP3 ADD MSTORE PUSH1 0x4 DUP3 ADD SLOAD PUSH1 0x40 DUP3 ADD MSTORE PUSH1 0x5 DUP3 ADD SLOAD PUSH1 0x60 DUP3 ADD MSTORE PUSH1 0x6 SWAP1 SWAP2 ADD SLOAD PUSH1 0xFF AND ISZERO ISZERO PUSH1 0x80 SWAP1 SWAP2 ADD MSTORE SWAP1 POP PUSH1 0x0 PUSH2 0x2271 DUP5 PUSH2 0xEC2 JUMP JUMPDEST PUSH1 0x15 SLOAD PUSH1 0x40 MLOAD PUSH4 0xA9059CBB PUSH1 0xE0 SHL DUP2 MSTORE PUSH1 0x1 PUSH1 0x1 PUSH1 0xA0 SHL SUB DUP7 DUP2 AND PUSH1 0x4 DUP4 ADD MSTORE PUSH1 0x24 DUP3 ADD DUP5 SWAP1 MSTORE SWAP3 SWAP4 POP SWAP2 AND SWAP1 PUSH4 0xA9059CBB SWAP1 PUSH1 0x44 ADD PUSH1 0x20 PUSH1 0x40 MLOAD DUP1 DUP4 SUB DUP2 PUSH1 0x0 DUP8 GAS CALL ISZERO DUP1 ISZERO PUSH2 0x22C6 JUMPI RETURNDATASIZE PUSH1 0x0 DUP1 RETURNDATACOPY RETURNDATASIZE PUSH1 0x0 REVERT JUMPDEST POP POP POP POP PUSH1 0x40 MLOAD RETURNDATASIZE PUSH1 0x1F NOT PUSH1 0x1F DUP3 ADD AND DUP3 ADD DUP1 PUSH1 0x40 MSTORE POP DUP2 ADD SWAP1 PUSH2 0x22EA SWAP2 SWAP1 PUSH2 0x48E7 JUMP JUMPDEST POP PUSH1 0x0 PUSH2 0x22FB DUP6 DUP5 PUSH1 0x80 ADD MLOAD PUSH2 0x1CAC JUMP JUMPDEST PUSH1 0x15 SLOAD PUSH1 0x0 SLOAD PUSH1 0x40 MLOAD PUSH4 0xA9059CBB PUSH1 0xE0 SHL DUP2 MSTORE PUSH1 0x1 PUSH1 0x1 PUSH1 0xA0 SHL SUB SWAP2 DUP3 AND PUSH1 0x4 DUP3 ADD MSTORE PUSH1 0x24 DUP2 ADD DUP5 SWAP1 MSTORE SWAP3 SWAP4 POP AND SWAP1 PUSH4 0xA9059CBB SWAP1 PUSH1 0x44 ADD PUSH1 0x20 PUSH1 0x40 MLOAD DUP1 DUP4 SUB DUP2 PUSH1 0x0 DUP8 GAS CALL ISZERO DUP1 ISZERO PUSH2 0x2352 JUMPI RETURNDATASIZE PUSH1 0x0 DUP1 RETURNDATACOPY RETURNDATASIZE PUSH1 0x0 REVERT JUMPDEST POP POP POP POP PUSH1 0x40 MLOAD RETURNDATASIZE PUSH1 0x1F NOT PUSH1 0x1F DUP3 ADD AND DUP3 ADD DUP1 PUSH1 0x40 MSTORE POP DUP2 ADD SWAP1 PUSH2 0x2376 SWAP2 SWAP1 PUSH2 0x48E7 JUMP JUMPDEST POP PUSH2 0x237F PUSH2 0x3C63 JUMP JUMPDEST PUSH1 0x13 DUP1 SLOAD DUP3 MSTORE PUSH1 0x20 DUP3 ADD DUP8 DUP2 MSTORE PUSH1 0x1 PUSH1 0x1 PUSH1 0xA0 SHL SUB DUP8 DUP2 AND PUSH1 0x40 DUP6 ADD SWAP1 DUP2 MSTORE PUSH1 0x60 DUP6 ADD DUP8 DUP2 MSTORE PUSH1 0xD DUP1 SLOAD PUSH1 0x1 DUP2 ADD DUP3 SSTORE PUSH1 0x0 SWAP2 DUP3 MSTORE DUP8 MLOAD PUSH32 0xD7B6990105719101DABEB77144F2A3385C8033ACD3AF97E9423A695E81AD1EB5 PUSH1 0x5 SWAP1 SWAP3 MUL SWAP2 DUP3 ADD SSTORE SWAP5 MLOAD PUSH32 0xD7B6990105719101DABEB77144F2A3385C8033ACD3AF97E9423A695E81AD1EB6 DUP7 ADD SSTORE SWAP2 MLOAD PUSH32 0xD7B6990105719101DABEB77144F2A3385C8033ACD3AF97E9423A695E81AD1EB7 DUP6 ADD DUP1 SLOAD PUSH1 0x1 PUSH1 0x1 PUSH1 0xA0 SHL SUB NOT AND SWAP2 SWAP1 SWAP5 AND OR SWAP1 SWAP3 SSTORE SWAP1 MLOAD PUSH32 0xD7B6990105719101DABEB77144F2A3385C8033ACD3AF97E9423A695E81AD1EB8 DUP4 ADD SSTORE PUSH1 0x80 DUP5 ADD MLOAD PUSH32 0xD7B6990105719101DABEB77144F2A3385C8033ACD3AF97E9423A695E81AD1EB9 SWAP1 SWAP3 ADD DUP1 SLOAD PUSH1 0xFF NOT AND SWAP3 ISZERO ISZERO SWAP3 SWAP1 SWAP3 OR SWAP1 SWAP2 SSTORE DUP2 SLOAD SWAP2 SWAP1 PUSH2 0x24AB DUP4 PUSH2 0x479E JUMP JUMPDEST SWAP1 SWAP2 SSTORE POP POP PUSH1 0x0 DUP7 DUP2 MSTORE PUSH1 0x7 PUSH1 0x20 SWAP1 DUP2 MSTORE PUSH1 0x40 DUP1 DUP4 KECCAK256 PUSH1 0x1 PUSH1 0x1 PUSH1 0xA0 SHL SUB DUP10 AND DUP5 MSTORE SWAP1 SWAP2 MSTORE SWAP1 KECCAK256 DUP1 SLOAD PUSH1 0xFF NOT AND PUSH1 0x1 OR SWAP1 SSTORE PUSH2 0x24E5 PUSH2 0x3C63 JUMP JUMPDEST PUSH1 0x13 DUP1 SLOAD DUP3 MSTORE PUSH1 0x20 DUP3 ADD DUP9 DUP2 MSTORE PUSH1 0x0 DUP1 SLOAD PUSH1 0x1 PUSH1 0x1 PUSH1 0xA0 SHL SUB SWAP1 DUP2 AND PUSH1 0x40 DUP7 ADD SWAP1 DUP2 MSTORE PUSH1 0x60 DUP7 ADD DUP9 DUP2 MSTORE PUSH1 0xD DUP1 SLOAD PUSH1 0x1 DUP2 ADD DUP3 SSTORE SWAP1 DUP6 MSTORE DUP8 MLOAD PUSH32 0xD7B6990105719101DABEB77144F2A3385C8033ACD3AF97E9423A695E81AD1EB5 PUSH1 0x5 SWAP1 SWAP3 MUL SWAP2 DUP3 ADD SSTORE SWAP5 MLOAD PUSH32 0xD7B6990105719101DABEB77144F2A3385C8033ACD3AF97E9423A695E81AD1EB6 DUP7 ADD SSTORE SWAP1 MLOAD PUSH32 0xD7B6990105719101DABEB77144F2A3385C8033ACD3AF97E9423A695E81AD1EB7 DUP6 ADD DUP1 SLOAD PUSH1 0x1 PUSH1 0x1 PUSH1 0xA0 SHL SUB NOT AND SWAP2 SWAP1 SWAP4 AND OR SWAP1 SWAP2 SSTORE MLOAD PUSH32 0xD7B6990105719101DABEB77144F2A3385C8033ACD3AF97E9423A695E81AD1EB8 DUP4 ADD SSTORE PUSH1 0x80 DUP5 ADD MLOAD PUSH32 0xD7B6990105719101DABEB77144F2A3385C8033ACD3AF97E9423A695E81AD1EB9 SWAP1 SWAP3 ADD DUP1 SLOAD PUSH1 0xFF NOT AND SWAP3 ISZERO ISZERO SWAP3 SWAP1 SWAP3 OR SWAP1 SWAP2 SSTORE DUP2 SLOAD SWAP2 SWAP1 PUSH2 0x2612 DUP4 PUSH2 0x479E JUMP JUMPDEST SWAP2 SWAP1 POP SSTORE POP POP POP POP POP POP POP POP JUMP JUMPDEST PUSH1 0x1 PUSH1 0x1 PUSH1 0xA0 SHL SUB DUP1 DUP3 AND PUSH1 0x0 DUP2 DUP2 MSTORE PUSH1 0x2 PUSH1 0x20 MSTORE PUSH1 0x40 DUP2 KECCAK256 PUSH1 0x1 ADD SLOAD SWAP1 SWAP3 AND EQ PUSH2 0x264C JUMPI PUSH1 0x0 PUSH2 0x80E JUMP JUMPDEST PUSH1 0x1 SWAP3 SWAP2 POP POP JUMP JUMPDEST PUSH1 0x1 PUSH1 0x1 PUSH1 0xA0 SHL SUB DUP1 DUP3 AND PUSH1 0x0 SWAP1 DUP2 MSTORE PUSH1 0x1 PUSH1 0x20 DUP2 DUP2 MSTORE PUSH1 0x40 DUP1 DUP5 KECCAK256 DUP2 MLOAD PUSH2 0x100 DUP2 ADD DUP4 MSTORE DUP2 SLOAD DUP2 MSTORE SWAP4 DUP2 ADD SLOAD SWAP1 SWAP6 AND SWAP2 DUP4 ADD SWAP2 SWAP1 SWAP2 MSTORE PUSH1 0x2 DUP5 ADD DUP1 SLOAD SWAP4 SWAP5 SWAP3 SWAP4 SWAP2 DUP5 ADD SWAP2 PUSH2 0x26A2 SWAP1 PUSH2 0x474E JUMP JUMPDEST DUP1 PUSH1 0x1F ADD PUSH1 0x20 DUP1 SWAP2 DIV MUL PUSH1 0x20 ADD PUSH1 0x40 MLOAD SWAP1 DUP2 ADD PUSH1 0x40 MSTORE DUP1 SWAP3 SWAP2 SWAP1 DUP2 DUP2 MSTORE PUSH1 0x20 ADD DUP3 DUP1 SLOAD PUSH2 0x26CE SWAP1 PUSH2 0x474E JUMP JUMPDEST DUP1 ISZERO PUSH2 0x271B JUMPI DUP1 PUSH1 0x1F LT PUSH2 0x26F0 JUMPI PUSH2 0x100 DUP1 DUP4 SLOAD DIV MUL DUP4 MSTORE SWAP2 PUSH1 0x20 ADD SWAP2 PUSH2 0x271B JUMP JUMPDEST DUP3 ADD SWAP2 SWAP1 PUSH1 0x0 MSTORE PUSH1 0x20 PUSH1 0x0 KECCAK256 SWAP1 JUMPDEST DUP2 SLOAD DUP2 MSTORE SWAP1 PUSH1 0x1 ADD SWAP1 PUSH1 0x20 ADD DUP1 DUP4 GT PUSH2 0x26FE JUMPI DUP3 SWAP1 SUB PUSH1 0x1F AND DUP3 ADD SWAP2 JUMPDEST POP POP POP POP POP DUP2 MSTORE PUSH1 0x20 ADD PUSH1 0x3 DUP3 ADD DUP1 SLOAD PUSH2 0x2734 SWAP1 PUSH2 0x474E JUMP JUMPDEST DUP1 PUSH1 0x1F ADD PUSH1 0x20 DUP1 SWAP2 DIV MUL PUSH1 0x20 ADD PUSH1 0x40 MLOAD SWAP1 DUP2 ADD PUSH1 0x40 MSTORE DUP1 SWAP3 SWAP2 SWAP1 DUP2 DUP2 MSTORE PUSH1 0x20 ADD DUP3 DUP1 SLOAD PUSH2 0x2760 SWAP1 PUSH2 0x474E JUMP JUMPDEST DUP1 ISZERO PUSH2 0x27AD JUMPI DUP1 PUSH1 0x1F LT PUSH2 0x2782 JUMPI PUSH2 0x100 DUP1 DUP4 SLOAD DIV MUL DUP4 MSTORE SWAP2 PUSH1 0x20 ADD SWAP2 PUSH2 0x27AD JUMP JUMPDEST DUP3 ADD SWAP2 SWAP1 PUSH1 0x0 MSTORE PUSH1 0x20 PUSH1 0x0 KECCAK256 SWAP1 JUMPDEST DUP2 SLOAD DUP2 MSTORE SWAP1 PUSH1 0x1 ADD SWAP1 PUSH1 0x20 ADD DUP1 DUP4 GT PUSH2 0x2790 JUMPI DUP3 SWAP1 SUB PUSH1 0x1F AND DUP3 ADD SWAP2 JUMPDEST POP POP POP POP POP DUP2 MSTORE PUSH1 0x20 ADD PUSH1 0x4 DUP3 ADD DUP1 SLOAD PUSH2 0x27C6 SWAP1 PUSH2 0x474E JUMP JUMPDEST DUP1 PUSH1 0x1F ADD PUSH1 0x20 DUP1 SWAP2 DIV MUL PUSH1 0x20 ADD PUSH1 0x40 MLOAD SWAP1 DUP2 ADD PUSH1 0x40 MSTORE DUP1 SWAP3 SWAP2 SWAP1 DUP2 DUP2 MSTORE PUSH1 0x20 ADD DUP3 DUP1 SLOAD PUSH2 0x27F2 SWAP1 PUSH2 0x474E JUMP JUMPDEST DUP1 ISZERO PUSH2 0x283F JUMPI DUP1 PUSH1 0x1F LT PUSH2 0x2814 JUMPI PUSH2 0x100 DUP1 DUP4 SLOAD DIV MUL DUP4 MSTORE SWAP2 PUSH1 0x20 ADD SWAP2 PUSH2 0x283F JUMP JUMPDEST DUP3 ADD SWAP2 SWAP1 PUSH1 0x0 MSTORE PUSH1 0x20 PUSH1 0x0 KECCAK256 SWAP1 JUMPDEST DUP2 SLOAD DUP2 MSTORE SWAP1 PUSH1 0x1 ADD SWAP1 PUSH1 0x20 ADD DUP1 DUP4 GT PUSH2 0x2822 JUMPI DUP3 SWAP1 SUB PUSH1 0x1F AND DUP3 ADD SWAP2 JUMPDEST POP POP POP SWAP2 DUP4 MSTORE POP POP PUSH1 0x5 SWAP2 SWAP1 SWAP2 ADD SLOAD PUSH1 0xFF DUP1 DUP3 AND ISZERO ISZERO PUSH1 0x20 DUP1 DUP6 ADD SWAP2 SWAP1 SWAP2 MSTORE PUSH2 0x100 DUP4 DIV DUP3 AND ISZERO ISZERO PUSH1 0x40 DUP1 DUP7 ADD SWAP2 SWAP1 SWAP2 MSTORE PUSH3 0x10000 SWAP1 SWAP4 DIV SWAP1 SWAP2 AND ISZERO ISZERO PUSH1 0x60 SWAP1 SWAP4 ADD SWAP3 SWAP1 SWAP3 MSTORE PUSH1 0x1 PUSH1 0xC0 DUP5 ADD DUP2 SWAP1 MSTORE PUSH1 0x1 PUSH1 0x1 PUSH1 0xA0 SHL SUB DUP7 DUP2 AND PUSH1 0x0 SWAP1 DUP2 MSTORE DUP3 DUP6 MSTORE DUP4 SWAP1 KECCAK256 DUP6 MLOAD DUP2 SSTORE SWAP4 DUP6 ADD MLOAD SWAP2 DUP5 ADD DUP1 SLOAD PUSH1 0x1 PUSH1 0x1 PUSH1 0xA0 SHL SUB NOT AND SWAP3 SWAP1 SWAP2 AND SWAP2 SWAP1 SWAP2 OR SWAP1 SSTORE DUP3 ADD MLOAD SWAP2 SWAP3 POP DUP3 SWAP2 PUSH1 0x2 DUP3 ADD SWAP1 PUSH2 0x28DC SWAP1 DUP3 PUSH2 0x4828 JUMP JUMPDEST POP PUSH1 0x60 DUP3 ADD MLOAD PUSH1 0x3 DUP3 ADD SWAP1 PUSH2 0x28F1 SWAP1 DUP3 PUSH2 0x4828 JUMP JUMPDEST POP PUSH1 0x80 DUP3 ADD MLOAD PUSH1 0x4 DUP3 ADD SWAP1 PUSH2 0x2906 SWAP1 DUP3 PUSH2 0x4828 JUMP JUMPDEST POP PUSH1 0xA0 DUP3 ADD MLOAD PUSH1 0x5 SWAP1 SWAP2 ADD DUP1 SLOAD PUSH1 0xC0 DUP5 ADD MLOAD PUSH1 0xE0 SWAP1 SWAP5 ADD MLOAD ISZERO ISZERO PUSH3 0x10000 MUL PUSH3 0xFF0000 NOT SWAP5 ISZERO ISZERO PUSH2 0x100 MUL PUSH2 0xFF00 NOT SWAP5 ISZERO ISZERO SWAP5 SWAP1 SWAP5 AND PUSH2 0xFFFF NOT SWAP1 SWAP3 AND SWAP2 SWAP1 SWAP2 OR SWAP3 SWAP1 SWAP3 OR SWAP3 SWAP1 SWAP3 AND OR SWAP1 SSTORE POP POP JUMP JUMPDEST PUSH1 0x60 PUSH1 0x3 DUP1 SLOAD DUP1 PUSH1 0x20 MUL PUSH1 0x20 ADD PUSH1 0x40 MLOAD SWAP1 DUP2 ADD PUSH1 0x40 MSTORE DUP1 SWAP3 SWAP2 SWAP1 DUP2 DUP2 MSTORE PUSH1 0x20 ADD PUSH1 0x0 SWAP1 JUMPDEST DUP3 DUP3 LT ISZERO PUSH2 0x2A91 JUMPI PUSH1 0x0 DUP5 DUP2 MSTORE PUSH1 0x20 SWAP1 DUP2 SWAP1 KECCAK256 PUSH1 0x40 DUP1 MLOAD PUSH1 0xE0 DUP2 ADD DUP3 MSTORE PUSH1 0x7 DUP7 MUL SWAP1 SWAP3 ADD DUP1 SLOAD DUP4 MSTORE PUSH1 0x1 DUP2 ADD SLOAD PUSH1 0x1 PUSH1 0x1 PUSH1 0xA0 SHL SUB AND SWAP4 DUP4 ADD SWAP4 SWAP1 SWAP4 MSTORE PUSH1 0x2 DUP4 ADD DUP1 SLOAD SWAP3 SWAP4 SWAP3 SWAP2 DUP5 ADD SWAP2 PUSH2 0x29CD SWAP1 PUSH2 0x474E JUMP JUMPDEST DUP1 PUSH1 0x1F ADD PUSH1 0x20 DUP1 SWAP2 DIV MUL PUSH1 0x20 ADD PUSH1 0x40 MLOAD SWAP1 DUP2 ADD PUSH1 0x40 MSTORE DUP1 SWAP3 SWAP2 SWAP1 DUP2 DUP2 MSTORE PUSH1 0x20 ADD DUP3 DUP1 SLOAD PUSH2 0x29F9 SWAP1 PUSH2 0x474E JUMP JUMPDEST DUP1 ISZERO PUSH2 0x2A46 JUMPI DUP1 PUSH1 0x1F LT PUSH2 0x2A1B JUMPI PUSH2 0x100 DUP1 DUP4 SLOAD DIV MUL DUP4 MSTORE SWAP2 PUSH1 0x20 ADD SWAP2 PUSH2 0x2A46 JUMP JUMPDEST DUP3 ADD SWAP2 SWAP1 PUSH1 0x0 MSTORE PUSH1 0x20 PUSH1 0x0 KECCAK256 SWAP1 JUMPDEST DUP2 SLOAD DUP2 MSTORE SWAP1 PUSH1 0x1 ADD SWAP1 PUSH1 0x20 ADD DUP1 DUP4 GT PUSH2 0x2A29 JUMPI DUP3 SWAP1 SUB PUSH1 0x1F AND DUP3 ADD SWAP2 JUMPDEST POP POP POP SWAP2 DUP4 MSTORE POP POP PUSH1 0x3 DUP3 ADD SLOAD PUSH1 0x20 DUP1 DUP4 ADD SWAP2 SWAP1 SWAP2 MSTORE PUSH1 0x4 DUP4 ADD SLOAD PUSH1 0x40 DUP4 ADD MSTORE PUSH1 0x5 DUP4 ADD SLOAD PUSH1 0x60 DUP4 ADD MSTORE PUSH1 0x6 SWAP1 SWAP3 ADD SLOAD PUSH1 0xFF AND ISZERO ISZERO PUSH1 0x80 SWAP1 SWAP2 ADD MSTORE SWAP1 DUP3 MSTORE PUSH1 0x1 SWAP3 SWAP1 SWAP3 ADD SWAP2 ADD PUSH2 0x297A JUMP JUMPDEST POP POP POP POP SWAP1 POP SWAP1 JUMP JUMPDEST PUSH1 0xD DUP2 DUP2 SLOAD DUP2 LT PUSH2 0x2AAA JUMPI PUSH1 0x0 DUP1 REVERT JUMPDEST PUSH1 0x0 SWAP2 DUP3 MSTORE PUSH1 0x20 SWAP1 SWAP2 KECCAK256 PUSH1 0x5 SWAP1 SWAP2 MUL ADD DUP1 SLOAD PUSH1 0x1 DUP3 ADD SLOAD PUSH1 0x2 DUP4 ADD SLOAD PUSH1 0x3 DUP5 ADD SLOAD PUSH1 0x4 SWAP1 SWAP5 ADD SLOAD SWAP3 SWAP5 POP SWAP1 SWAP3 PUSH1 0x1 PUSH1 0x1 PUSH1 0xA0 SHL SUB SWAP1 SWAP2 AND SWAP2 PUSH1 0xFF AND DUP6 JUMP JUMPDEST PUSH1 0xC DUP2 DUP2 SLOAD DUP2 LT PUSH2 0x2AAA JUMPI PUSH1 0x0 DUP1 REVERT JUMPDEST PUSH1 0x60 PUSH1 0xB PUSH1 0x0 DUP4 DUP2 MSTORE PUSH1 0x20 ADD SWAP1 DUP2 MSTORE PUSH1 0x20 ADD PUSH1 0x0 KECCAK256 DUP1 SLOAD DUP1 PUSH1 0x20 MUL PUSH1 0x20 ADD PUSH1 0x40 MLOAD SWAP1 DUP2 ADD PUSH1 0x40 MSTORE DUP1 SWAP3 SWAP2 SWAP1 DUP2 DUP2 MSTORE PUSH1 0x20 ADD PUSH1 0x0 SWAP1 JUMPDEST DUP3 DUP3 LT ISZERO PUSH2 0x2CDD JUMPI PUSH1 0x0 DUP5 DUP2 MSTORE PUSH1 0x20 SWAP1 DUP2 SWAP1 KECCAK256 PUSH1 0x40 DUP1 MLOAD PUSH2 0x100 DUP2 ADD DUP3 MSTORE PUSH1 0x7 DUP7 MUL SWAP1 SWAP3 ADD DUP1 SLOAD DUP4 MSTORE PUSH1 0x1 DUP2 ADD SLOAD PUSH1 0x1 PUSH1 0x1 PUSH1 0xA0 SHL SUB AND SWAP4 DUP4 ADD SWAP4 SWAP1 SWAP4 MSTORE PUSH1 0x2 DUP4 ADD DUP1 SLOAD SWAP3 SWAP4 SWAP3 SWAP2 DUP5 ADD SWAP2 PUSH2 0x2B81 SWAP1 PUSH2 0x474E JUMP JUMPDEST DUP1 PUSH1 0x1F ADD PUSH1 0x20 DUP1 SWAP2 DIV MUL PUSH1 0x20 ADD PUSH1 0x40 MLOAD SWAP1 DUP2 ADD PUSH1 0x40 MSTORE DUP1 SWAP3 SWAP2 SWAP1 DUP2 DUP2 MSTORE PUSH1 0x20 ADD DUP3 DUP1 SLOAD PUSH2 0x2BAD SWAP1 PUSH2 0x474E JUMP JUMPDEST DUP1 ISZERO PUSH2 0x2BFA JUMPI DUP1 PUSH1 0x1F LT PUSH2 0x2BCF JUMPI PUSH2 0x100 DUP1 DUP4 SLOAD DIV MUL DUP4 MSTORE SWAP2 PUSH1 0x20 ADD SWAP2 PUSH2 0x2BFA JUMP JUMPDEST DUP3 ADD SWAP2 SWAP1 PUSH1 0x0 MSTORE PUSH1 0x20 PUSH1 0x0 KECCAK256 SWAP1 JUMPDEST DUP2 SLOAD DUP2 MSTORE SWAP1 PUSH1 0x1 ADD SWAP1 PUSH1 0x20 ADD DUP1 DUP4 GT PUSH2 0x2BDD JUMPI DUP3 SWAP1 SUB PUSH1 0x1F AND DUP3 ADD SWAP2 JUMPDEST POP POP POP POP POP DUP2 MSTORE PUSH1 0x20 ADD PUSH1 0x3 DUP3 ADD DUP1 SLOAD PUSH2 0x2C13 SWAP1 PUSH2 0x474E JUMP JUMPDEST DUP1 PUSH1 0x1F ADD PUSH1 0x20 DUP1 SWAP2 DIV MUL PUSH1 0x20 ADD PUSH1 0x40 MLOAD SWAP1 DUP2 ADD PUSH1 0x40 MSTORE DUP1 SWAP3 SWAP2 SWAP1 DUP2 DUP2 MSTORE PUSH1 0x20 ADD DUP3 DUP1 SLOAD PUSH2 0x2C3F SWAP1 PUSH2 0x474E JUMP JUMPDEST DUP1 ISZERO PUSH2 0x2C8C JUMPI DUP1 PUSH1 0x1F LT PUSH2 0x2C61 JUMPI PUSH2 0x100 DUP1 DUP4 SLOAD DIV MUL DUP4 MSTORE SWAP2 PUSH1 0x20 ADD SWAP2 PUSH2 0x2C8C JUMP JUMPDEST DUP3 ADD SWAP2 SWAP1 PUSH1 0x0 MSTORE PUSH1 0x20 PUSH1 0x0 KECCAK256 SWAP1 JUMPDEST DUP2 SLOAD DUP2 MSTORE SWAP1 PUSH1 0x1 ADD SWAP1 PUSH1 0x20 ADD DUP1 DUP4 GT PUSH2 0x2C6F JUMPI DUP3 SWAP1 SUB PUSH1 0x1F AND DUP3 ADD SWAP2 JUMPDEST POP POP POP SWAP2 DUP4 MSTORE POP POP PUSH1 0x4 DUP3 ADD SLOAD PUSH1 0x20 DUP1 DUP4 ADD SWAP2 SWAP1 SWAP2 MSTORE PUSH1 0x5 DUP4 ADD SLOAD PUSH1 0x40 DUP4 ADD MSTORE PUSH1 0x6 SWAP1 SWAP3 ADD SLOAD PUSH1 0xFF DUP1 DUP3 AND ISZERO ISZERO PUSH1 0x60 DUP5 ADD MSTORE PUSH2 0x100 SWAP1 SWAP2 DIV AND ISZERO ISZERO PUSH1 0x80 SWAP1 SWAP2 ADD MSTORE SWAP1 DUP3 MSTORE PUSH1 0x1 SWAP3 SWAP1 SWAP3 ADD SWAP2 ADD PUSH2 0x2B2D JUMP JUMPDEST POP POP POP POP SWAP1 POP SWAP2 SWAP1 POP JUMP JUMPDEST PUSH1 0x1 PUSH1 0x1 PUSH1 0xA0 SHL SUB DUP1 DUP3 AND PUSH1 0x0 DUP2 DUP2 MSTORE PUSH1 0x1 PUSH1 0x20 DUP2 SWAP1 MSTORE PUSH1 0x40 DUP3 KECCAK256 ADD SLOAD SWAP1 SWAP3 AND EQ PUSH2 0x264C JUMPI PUSH1 0x0 PUSH2 0x80E JUMP JUMPDEST PUSH1 0x0 PUSH2 0x2D20 DUP6 DUP6 PUSH2 0x784 JUMP JUMPDEST PUSH1 0x14 SLOAD PUSH1 0x40 DUP1 MLOAD PUSH1 0xA0 DUP2 ADD DUP3 MSTORE PUSH1 0x0 PUSH1 0x80 DUP3 ADD DUP2 DUP2 MSTORE DUP5 DUP4 MSTORE PUSH1 0x20 DUP1 DUP5 ADD DUP11 DUP2 MSTORE PUSH1 0x1 PUSH1 0x1 PUSH1 0xA0 SHL SUB DUP11 DUP2 AND DUP7 DUP9 ADD DUP2 DUP2 MSTORE PUSH1 0x60 DUP9 ADD DUP12 DUP2 MSTORE PUSH1 0xC DUP1 SLOAD PUSH1 0x1 DUP2 ADD DUP3 SSTORE SWAP1 DUP10 MSTORE DUP10 MLOAD PUSH32 0xDF6966C971051C3D54EC59162606531493A51404A002842F56009D7E5CF4A8C7 PUSH1 0x5 SWAP1 SWAP3 MUL SWAP2 DUP3 ADD SSTORE SWAP5 MLOAD PUSH32 0xDF6966C971051C3D54EC59162606531493A51404A002842F56009D7E5CF4A8C8 DUP7 ADD SSTORE SWAP1 MLOAD PUSH32 0xDF6966C971051C3D54EC59162606531493A51404A002842F56009D7E5CF4A8C9 DUP6 ADD DUP1 SLOAD PUSH1 0x1 PUSH1 0x1 PUSH1 0xA0 SHL SUB NOT AND SWAP2 SWAP1 SWAP5 AND OR SWAP1 SWAP3 SSTORE SWAP1 MLOAD PUSH32 0xDF6966C971051C3D54EC59162606531493A51404A002842F56009D7E5CF4A8CA DUP4 ADD SSTORE SWAP3 MLOAD PUSH32 0xDF6966C971051C3D54EC59162606531493A51404A002842F56009D7E5CF4A8CB SWAP1 SWAP2 ADD DUP1 SLOAD PUSH1 0xFF NOT AND SWAP2 ISZERO ISZERO SWAP2 SWAP1 SWAP2 OR SWAP1 SSTORE SWAP1 DUP3 MSTORE PUSH1 0x9 SWAP1 MSTORE SWAP2 SWAP1 SWAP2 KECCAK256 SLOAD SWAP3 SWAP4 POP SWAP1 SWAP2 PUSH2 0x2E67 DUP5 DUP3 PUSH2 0x473B JUMP JUMPDEST PUSH1 0x1 PUSH1 0x1 PUSH1 0xA0 SHL SUB DUP7 AND PUSH1 0x0 SWAP1 DUP2 MSTORE PUSH1 0x9 PUSH1 0x20 MSTORE PUSH1 0x40 DUP2 KECCAK256 DUP3 SWAP1 SSTORE PUSH1 0x14 DUP1 SLOAD SWAP3 SWAP4 POP SWAP1 PUSH2 0x2E93 DUP4 PUSH2 0x479E JUMP JUMPDEST SWAP2 SWAP1 POP SSTORE POP POP POP POP POP POP POP POP POP JUMP JUMPDEST PUSH2 0x2EAA PUSH2 0x3B86 JUMP JUMPDEST PUSH1 0x3 DUP3 DUP2 SLOAD DUP2 LT PUSH2 0x2EBD JUMPI PUSH2 0x2EBD PUSH2 0x4788 JUMP JUMPDEST SWAP1 PUSH1 0x0 MSTORE PUSH1 0x20 PUSH1 0x0 KECCAK256 SWAP1 PUSH1 0x7 MUL ADD PUSH1 0x40 MLOAD DUP1 PUSH1 0xE0 ADD PUSH1 0x40 MSTORE SWAP1 DUP2 PUSH1 0x0 DUP3 ADD SLOAD DUP2 MSTORE PUSH1 0x20 ADD PUSH1 0x1 DUP3 ADD PUSH1 0x0 SWAP1 SLOAD SWAP1 PUSH2 0x100 EXP SWAP1 DIV PUSH1 0x1 PUSH1 0x1 PUSH1 0xA0 SHL SUB AND PUSH1 0x1 PUSH1 0x1 PUSH1 0xA0 SHL SUB AND PUSH1 0x1 PUSH1 0x1 PUSH1 0xA0 SHL SUB AND DUP2 MSTORE PUSH1 0x20 ADD PUSH1 0x2 DUP3 ADD DUP1 SLOAD PUSH2 0x2F1F SWAP1 PUSH2 0x474E JUMP JUMPDEST DUP1 PUSH1 0x1F ADD PUSH1 0x20 DUP1 SWAP2 DIV MUL PUSH1 0x20 ADD PUSH1 0x40 MLOAD SWAP1 DUP2 ADD PUSH1 0x40 MSTORE DUP1 SWAP3 SWAP2 SWAP1 DUP2 DUP2 MSTORE PUSH1 0x20 ADD DUP3 DUP1 SLOAD PUSH2 0x2F4B SWAP1 PUSH2 0x474E JUMP JUMPDEST DUP1 ISZERO PUSH2 0x2F98 JUMPI DUP1 PUSH1 0x1F LT PUSH2 0x2F6D JUMPI PUSH2 0x100 DUP1 DUP4 SLOAD DIV MUL DUP4 MSTORE SWAP2 PUSH1 0x20 ADD SWAP2 PUSH2 0x2F98 JUMP JUMPDEST DUP3 ADD SWAP2 SWAP1 PUSH1 0x0 MSTORE PUSH1 0x20 PUSH1 0x0 KECCAK256 SWAP1 JUMPDEST DUP2 SLOAD DUP2 MSTORE SWAP1 PUSH1 0x1 ADD SWAP1 PUSH1 0x20 ADD DUP1 DUP4 GT PUSH2 0x2F7B JUMPI DUP3 SWAP1 SUB PUSH1 0x1F AND DUP3 ADD SWAP2 JUMPDEST POP POP POP SWAP2 DUP4 MSTORE POP POP PUSH1 0x3 DUP3 ADD SLOAD PUSH1 0x20 DUP3 ADD MSTORE PUSH1 0x4 DUP3 ADD SLOAD PUSH1 0x40 DUP3 ADD MSTORE PUSH1 0x5 DUP3 ADD SLOAD PUSH1 0x60 DUP3 ADD MSTORE PUSH1 0x6 SWAP1 SWAP2 ADD SLOAD PUSH1 0xFF AND ISZERO ISZERO PUSH1 0x80 SWAP1 SWAP2 ADD MSTORE SWAP3 SWAP2 POP POP JUMP JUMPDEST PUSH1 0x1 PUSH1 0x1 PUSH1 0xA0 SHL SUB DUP1 DUP4 AND PUSH1 0x0 SWAP1 DUP2 MSTORE PUSH1 0x2 PUSH1 0x20 DUP2 DUP2 MSTORE PUSH1 0x40 DUP1 DUP5 KECCAK256 DUP2 MLOAD PUSH2 0x100 DUP2 ADD DUP4 MSTORE DUP2 SLOAD DUP2 MSTORE PUSH1 0x1 DUP3 ADD SLOAD SWAP1 SWAP7 AND SWAP3 DUP7 ADD SWAP3 SWAP1 SWAP3 MSTORE SWAP2 DUP2 ADD DUP1 SLOAD SWAP4 SWAP5 SWAP4 SWAP2 SWAP3 DUP5 ADD SWAP2 PUSH2 0x3023 SWAP1 PUSH2 0x474E JUMP JUMPDEST DUP1 PUSH1 0x1F ADD PUSH1 0x20 DUP1 SWAP2 DIV MUL PUSH1 0x20 ADD PUSH1 0x40 MLOAD SWAP1 DUP2 ADD PUSH1 0x40 MSTORE DUP1 SWAP3 SWAP2 SWAP1 DUP2 DUP2 MSTORE PUSH1 0x20 ADD DUP3 DUP1 SLOAD PUSH2 0x304F SWAP1 PUSH2 0x474E JUMP JUMPDEST DUP1 ISZERO PUSH2 0x309C JUMPI DUP1 PUSH1 0x1F LT PUSH2 0x3071 JUMPI PUSH2 0x100 DUP1 DUP4 SLOAD DIV MUL DUP4 MSTORE SWAP2 PUSH1 0x20 ADD SWAP2 PUSH2 0x309C JUMP JUMPDEST DUP3 ADD SWAP2 SWAP1 PUSH1 0x0 MSTORE PUSH1 0x20 PUSH1 0x0 KECCAK256 SWAP1 JUMPDEST DUP2 SLOAD DUP2 MSTORE SWAP1 PUSH1 0x1 ADD SWAP1 PUSH1 0x20 ADD DUP1 DUP4 GT PUSH2 0x307F JUMPI DUP3 SWAP1 SUB PUSH1 0x1F AND DUP3 ADD SWAP2 JUMPDEST POP POP POP POP POP DUP2 MSTORE PUSH1 0x20 ADD PUSH1 0x3 DUP3 ADD DUP1 SLOAD PUSH2 0x30B5 SWAP1 PUSH2 0x474E JUMP JUMPDEST DUP1 PUSH1 0x1F ADD PUSH1 0x20 DUP1 SWAP2 DIV MUL PUSH1 0x20 ADD PUSH1 0x40 MLOAD SWAP1 DUP2 ADD PUSH1 0x40 MSTORE DUP1 SWAP3 SWAP2 SWAP1 DUP2 DUP2 MSTORE PUSH1 0x20 ADD DUP3 DUP1 SLOAD PUSH2 0x30E1 SWAP1 PUSH2 0x474E JUMP JUMPDEST DUP1 ISZERO PUSH2 0x312E JUMPI DUP1 PUSH1 0x1F LT PUSH2 0x3103 JUMPI PUSH2 0x100 DUP1 DUP4 SLOAD DIV MUL DUP4 MSTORE SWAP2 PUSH1 0x20 ADD SWAP2 PUSH2 0x312E JUMP JUMPDEST DUP3 ADD SWAP2 SWAP1 PUSH1 0x0 MSTORE PUSH1 0x20 PUSH1 0x0 KECCAK256 SWAP1 JUMPDEST DUP2 SLOAD DUP2 MSTORE SWAP1 PUSH1 0x1 ADD SWAP1 PUSH1 0x20 ADD DUP1 DUP4 GT PUSH2 0x3111 JUMPI DUP3 SWAP1 SUB PUSH1 0x1F AND DUP3 ADD SWAP2 JUMPDEST POP POP POP SWAP2 DUP4 MSTORE POP POP PUSH1 0x4 DUP3 ADD SLOAD PUSH1 0x20 DUP3 ADD MSTORE PUSH1 0x5 DUP3 ADD SLOAD PUSH1 0x40 DUP3 ADD MSTORE PUSH1 0x6 SWAP1 SWAP2 ADD SLOAD PUSH1 0xFF DUP1 DUP3 AND ISZERO ISZERO PUSH1 0x60 DUP5 ADD MSTORE PUSH2 0x100 SWAP1 SWAP2 DIV AND ISZERO ISZERO PUSH1 0x80 SWAP1 SWAP2 ADD MSTORE PUSH1 0x3 DUP1 SLOAD SWAP2 SWAP3 POP PUSH1 0x0 SWAP2 DUP7 SWAP1 DUP2 LT PUSH2 0x3185 JUMPI PUSH2 0x3185 PUSH2 0x4788 JUMP JUMPDEST SWAP1 PUSH1 0x0 MSTORE PUSH1 0x20 PUSH1 0x0 KECCAK256 SWAP1 PUSH1 0x7 MUL ADD PUSH1 0x40 MLOAD DUP1 PUSH1 0xE0 ADD PUSH1 0x40 MSTORE SWAP1 DUP2 PUSH1 0x0 DUP3 ADD SLOAD DUP2 MSTORE PUSH1 0x20 ADD PUSH1 0x1 DUP3 ADD PUSH1 0x0 SWAP1 SLOAD SWAP1 PUSH2 0x100 EXP SWAP1 DIV PUSH1 0x1 PUSH1 0x1 PUSH1 0xA0 SHL SUB AND PUSH1 0x1 PUSH1 0x1 PUSH1 0xA0 SHL SUB AND PUSH1 0x1 PUSH1 0x1 PUSH1 0xA0 SHL SUB AND DUP2 MSTORE PUSH1 0x20 ADD PUSH1 0x2 DUP3 ADD DUP1 SLOAD PUSH2 0x31E7 SWAP1 PUSH2 0x474E JUMP JUMPDEST DUP1 PUSH1 0x1F ADD PUSH1 0x20 DUP1 SWAP2 DIV MUL PUSH1 0x20 ADD PUSH1 0x40 MLOAD SWAP1 DUP2 ADD PUSH1 0x40 MSTORE DUP1 SWAP3 SWAP2 SWAP1 DUP2 DUP2 MSTORE PUSH1 0x20 ADD DUP3 DUP1 SLOAD PUSH2 0x3213 SWAP1 PUSH2 0x474E JUMP JUMPDEST DUP1 ISZERO PUSH2 0x3260 JUMPI DUP1 PUSH1 0x1F LT PUSH2 0x3235 JUMPI PUSH2 0x100 DUP1 DUP4 SLOAD DIV MUL DUP4 MSTORE SWAP2 PUSH1 0x20 ADD SWAP2 PUSH2 0x3260 JUMP JUMPDEST DUP3 ADD SWAP2 SWAP1 PUSH1 0x0 MSTORE PUSH1 0x20 PUSH1 0x0 KECCAK256 SWAP1 JUMPDEST DUP2 SLOAD DUP2 MSTORE SWAP1 PUSH1 0x1 ADD SWAP1 PUSH1 0x20 ADD DUP1 DUP4 GT PUSH2 0x3243 JUMPI DUP3 SWAP1 SUB PUSH1 0x1F AND DUP3 ADD SWAP2 JUMPDEST POP POP POP SWAP2 DUP4 MSTORE POP POP PUSH1 0x3 DUP3 ADD SLOAD PUSH1 0x20 DUP3 ADD MSTORE PUSH1 0x4 DUP3 ADD SLOAD PUSH1 0x40 DUP3 ADD MSTORE PUSH1 0x5 DUP3 ADD SLOAD PUSH1 0x60 DUP1 DUP4 ADD SWAP2 SWAP1 SWAP2 MSTORE PUSH1 0x6 SWAP1 SWAP3 ADD SLOAD PUSH1 0xFF AND ISZERO ISZERO PUSH1 0x80 SWAP1 SWAP2 ADD MSTORE DUP2 ADD MLOAD SWAP1 SWAP2 POP PUSH1 0x0 JUMPDEST DUP2 DUP2 LT ISZERO PUSH2 0x33B3 JUMPI PUSH2 0x32B4 PUSH2 0x3BCE JUMP JUMPDEST PUSH1 0x12 SLOAD DUP1 DUP3 MSTORE PUSH1 0x20 DUP3 ADD DUP4 SWAP1 MSTORE PUSH1 0x40 DUP3 ADD DUP10 SWAP1 MSTORE PUSH1 0x1 PUSH1 0x1 PUSH1 0xA0 SHL SUB DUP9 AND PUSH1 0x60 DUP4 ADD MSTORE DUP7 MLOAD DUP8 SWAP1 DUP5 SWAP1 DUP2 LT PUSH2 0x32EB JUMPI PUSH2 0x32EB PUSH2 0x4788 JUMP JUMPDEST PUSH1 0x20 SWAP1 DUP2 MUL SWAP2 SWAP1 SWAP2 ADD DUP2 ADD MLOAD ISZERO ISZERO PUSH1 0x80 DUP5 ADD SWAP1 DUP2 MSTORE PUSH1 0x0 DUP12 DUP2 MSTORE PUSH1 0x5 DUP4 MSTORE PUSH1 0x40 DUP1 DUP3 KECCAK256 DUP1 SLOAD PUSH1 0x1 DUP2 DUP2 ADD DUP4 SSTORE SWAP2 DUP5 MSTORE DUP6 DUP5 KECCAK256 DUP9 MLOAD PUSH1 0x4 SWAP1 SWAP3 MUL ADD SWAP1 DUP2 SSTORE SWAP5 DUP8 ADD MLOAD SWAP1 DUP6 ADD SSTORE DUP6 ADD MLOAD PUSH1 0x2 DUP5 ADD SSTORE PUSH1 0x60 DUP6 ADD MLOAD PUSH1 0x3 SWAP1 SWAP4 ADD DUP1 SLOAD SWAP3 MLOAD PUSH1 0xA0 DUP8 ADD MLOAD ISZERO ISZERO PUSH1 0x1 PUSH1 0xA8 SHL MUL PUSH1 0xFF PUSH1 0xA8 SHL NOT SWAP2 ISZERO ISZERO PUSH1 0x1 PUSH1 0xA0 SHL MUL PUSH1 0x1 PUSH1 0x1 PUSH1 0xA8 SHL SUB NOT SWAP1 SWAP6 AND PUSH1 0x1 PUSH1 0x1 PUSH1 0xA0 SHL SUB SWAP1 SWAP7 AND SWAP6 SWAP1 SWAP6 OR SWAP4 SWAP1 SWAP4 OR SWAP3 SWAP1 SWAP3 AND SWAP3 SWAP1 SWAP3 OR SWAP1 SSTORE PUSH1 0x12 DUP1 SLOAD SWAP2 PUSH2 0x3399 DUP4 PUSH2 0x479E JUMP JUMPDEST SWAP2 SWAP1 POP SSTORE POP POP POP DUP1 DUP1 PUSH2 0x33AB SWAP1 PUSH2 0x479E JUMP JUMPDEST SWAP2 POP POP PUSH2 0x32A4 JUMP JUMPDEST POP PUSH1 0x0 DUP7 DUP2 MSTORE PUSH1 0x6 PUSH1 0x20 SWAP1 DUP2 MSTORE PUSH1 0x40 DUP1 DUP4 KECCAK256 PUSH1 0x1 PUSH1 0x1 PUSH1 0xA0 SHL SUB DUP10 AND DUP5 MSTORE DUP3 MSTORE DUP1 DUP4 KECCAK256 DUP1 SLOAD PUSH1 0xFF NOT AND PUSH1 0x1 OR SWAP1 SSTORE DUP9 DUP4 MSTORE PUSH1 0xB SWAP1 SWAP2 MSTORE SWAP1 KECCAK256 PUSH2 0x33F4 DUP7 PUSH2 0x131B JUMP JUMPDEST DUP2 SLOAD PUSH1 0x1 DUP1 DUP3 ADD DUP5 SSTORE PUSH1 0x0 SWAP4 DUP5 MSTORE PUSH1 0x20 SWAP4 DUP5 SWAP1 KECCAK256 DUP4 MLOAD PUSH1 0x7 SWAP1 SWAP4 MUL ADD SWAP2 DUP3 SSTORE SWAP3 DUP3 ADD MLOAD SWAP3 DUP2 ADD DUP1 SLOAD PUSH1 0x1 PUSH1 0x1 PUSH1 0xA0 SHL SUB NOT AND PUSH1 0x1 PUSH1 0x1 PUSH1 0xA0 SHL SUB SWAP1 SWAP5 AND SWAP4 SWAP1 SWAP4 OR SWAP1 SWAP3 SSTORE PUSH1 0x40 DUP2 ADD MLOAD SWAP1 SWAP2 SWAP1 PUSH1 0x2 DUP3 ADD SWAP1 PUSH2 0x344F SWAP1 DUP3 PUSH2 0x4828 JUMP JUMPDEST POP PUSH1 0x60 DUP3 ADD MLOAD PUSH1 0x3 DUP3 ADD SWAP1 PUSH2 0x3464 SWAP1 DUP3 PUSH2 0x4828 JUMP JUMPDEST POP PUSH1 0x80 DUP3 ADD MLOAD PUSH1 0x4 DUP3 ADD SSTORE PUSH1 0xA0 DUP1 DUP4 ADD MLOAD PUSH1 0x5 DUP4 ADD SSTORE PUSH1 0xC0 DUP4 ADD MLOAD PUSH1 0x6 SWAP1 SWAP3 ADD DUP1 SLOAD PUSH1 0xE0 SWAP1 SWAP5 ADD MLOAD ISZERO ISZERO PUSH2 0x100 MUL PUSH2 0xFF00 NOT SWAP4 ISZERO ISZERO SWAP4 SWAP1 SWAP4 AND PUSH2 0xFFFF NOT SWAP1 SWAP5 AND SWAP4 SWAP1 SWAP4 OR SWAP2 SWAP1 SWAP2 OR SWAP1 SWAP2 SSTORE DUP4 ADD DUP1 MLOAD PUSH1 0x1 SWAP2 SWAP1 PUSH2 0x34C2 SWAP1 DUP4 SWAP1 PUSH2 0x473B JUMP JUMPDEST SWAP1 MSTORE POP PUSH1 0x1 PUSH1 0x1 PUSH1 0xA0 SHL SUB DUP6 DUP2 AND PUSH1 0x0 SWAP1 DUP2 MSTORE PUSH1 0x2 PUSH1 0x20 DUP2 DUP2 MSTORE PUSH1 0x40 SWAP3 DUP4 SWAP1 KECCAK256 DUP8 MLOAD DUP2 SSTORE SWAP1 DUP8 ADD MLOAD PUSH1 0x1 DUP3 ADD DUP1 SLOAD PUSH1 0x1 PUSH1 0x1 PUSH1 0xA0 SHL SUB NOT AND SWAP2 SWAP1 SWAP6 AND OR SWAP1 SWAP4 SSTORE SWAP1 DUP6 ADD MLOAD DUP6 SWAP3 SWAP2 DUP3 ADD SWAP1 PUSH2 0x3516 SWAP1 DUP3 PUSH2 0x4828 JUMP JUMPDEST POP PUSH1 0x60 DUP3 ADD MLOAD PUSH1 0x3 DUP3 ADD SWAP1 PUSH2 0x352B SWAP1 DUP3 PUSH2 0x4828 JUMP JUMPDEST POP PUSH1 0x80 DUP3 ADD MLOAD PUSH1 0x4 DUP3 ADD SSTORE PUSH1 0xA0 DUP3 ADD MLOAD PUSH1 0x5 DUP3 ADD SSTORE PUSH1 0xC0 DUP3 ADD MLOAD PUSH1 0x6 SWAP1 SWAP2 ADD DUP1 SLOAD PUSH1 0xE0 SWAP1 SWAP4 ADD MLOAD ISZERO ISZERO PUSH2 0x100 MUL PUSH2 0xFF00 NOT SWAP3 ISZERO ISZERO SWAP3 SWAP1 SWAP3 AND PUSH2 0xFFFF NOT SWAP1 SWAP4 AND SWAP3 SWAP1 SWAP3 OR OR SWAP1 SSTORE POP POP POP POP POP POP JUMP JUMPDEST PUSH1 0x60 PUSH1 0x5 PUSH1 0x0 DUP4 DUP2 MSTORE PUSH1 0x20 ADD SWAP1 DUP2 MSTORE PUSH1 0x20 ADD PUSH1 0x0 KECCAK256 DUP1 SLOAD DUP1 PUSH1 0x20 MUL PUSH1 0x20 ADD PUSH1 0x40 MLOAD SWAP1 DUP2 ADD PUSH1 0x40 MSTORE DUP1 SWAP3 SWAP2 SWAP1 DUP2 DUP2 MSTORE PUSH1 0x20 ADD PUSH1 0x0 SWAP1 JUMPDEST DUP3 DUP3 LT ISZERO PUSH2 0x2CDD JUMPI PUSH1 0x0 DUP5 DUP2 MSTORE PUSH1 0x20 SWAP1 DUP2 SWAP1 KECCAK256 PUSH1 0x40 DUP1 MLOAD PUSH1 0xC0 DUP2 ADD DUP3 MSTORE PUSH1 0x4 DUP7 MUL SWAP1 SWAP3 ADD DUP1 SLOAD DUP4 MSTORE PUSH1 0x1 DUP1 DUP3 ADD SLOAD DUP5 DUP7 ADD MSTORE PUSH1 0x2 DUP3 ADD SLOAD SWAP3 DUP5 ADD SWAP3 SWAP1 SWAP3 MSTORE PUSH1 0x3 ADD SLOAD PUSH1 0x1 PUSH1 0x1 PUSH1 0xA0 SHL SUB DUP2 AND PUSH1 0x60 DUP5 ADD MSTORE PUSH1 0xFF PUSH1 0x1 PUSH1 0xA0 SHL DUP3 DIV DUP2 AND ISZERO ISZERO PUSH1 0x80 DUP6 ADD MSTORE PUSH1 0x1 PUSH1 0xA8 SHL SWAP1 SWAP2 DIV AND ISZERO ISZERO PUSH1 0xA0 DUP4 ADD MSTORE SWAP1 DUP4 MSTORE SWAP1 SWAP3 ADD SWAP2 ADD PUSH2 0x35AE JUMP JUMPDEST PUSH1 0x60 PUSH1 0x4 PUSH1 0x0 DUP4 DUP2 MSTORE PUSH1 0x20 ADD SWAP1 DUP2 MSTORE PUSH1 0x20 ADD PUSH1 0x0 KECCAK256 DUP1 SLOAD DUP1 PUSH1 0x20 MUL PUSH1 0x20 ADD PUSH1 0x40 MLOAD SWAP1 DUP2 ADD PUSH1 0x40 MSTORE DUP1 SWAP3 SWAP2 SWAP1 DUP2 DUP2 MSTORE PUSH1 0x20 ADD PUSH1 0x0 SWAP1 JUMPDEST DUP3 DUP3 LT ISZERO PUSH2 0x2CDD JUMPI DUP4 DUP3 SWAP1 PUSH1 0x0 MSTORE PUSH1 0x20 PUSH1 0x0 KECCAK256 SWAP1 PUSH1 0x4 MUL ADD PUSH1 0x40 MLOAD DUP1 PUSH1 0x80 ADD PUSH1 0x40 MSTORE SWAP1 DUP2 PUSH1 0x0 DUP3 ADD SLOAD DUP2 MSTORE PUSH1 0x20 ADD PUSH1 0x1 DUP3 ADD SLOAD DUP2 MSTORE PUSH1 0x20 ADD PUSH1 0x2 DUP3 ADD DUP1 SLOAD PUSH2 0x36AA SWAP1 PUSH2 0x474E JUMP JUMPDEST DUP1 PUSH1 0x1F ADD PUSH1 0x20 DUP1 SWAP2 DIV MUL PUSH1 0x20 ADD PUSH1 0x40 MLOAD SWAP1 DUP2 ADD PUSH1 0x40 MSTORE DUP1 SWAP3 SWAP2 SWAP1 DUP2 DUP2 MSTORE PUSH1 0x20 ADD DUP3 DUP1 SLOAD PUSH2 0x36D6 SWAP1 PUSH2 0x474E JUMP JUMPDEST DUP1 ISZERO PUSH2 0x3723 JUMPI DUP1 PUSH1 0x1F LT PUSH2 0x36F8 JUMPI PUSH2 0x100 DUP1 DUP4 SLOAD DIV MUL DUP4 MSTORE SWAP2 PUSH1 0x20 ADD SWAP2 PUSH2 0x3723 JUMP JUMPDEST DUP3 ADD SWAP2 SWAP1 PUSH1 0x0 MSTORE PUSH1 0x20 PUSH1 0x0 KECCAK256 SWAP1 JUMPDEST DUP2 SLOAD DUP2 MSTORE SWAP1 PUSH1 0x1 ADD SWAP1 PUSH1 0x20 ADD DUP1 DUP4 GT PUSH2 0x3706 JUMPI DUP3 SWAP1 SUB PUSH1 0x1F AND DUP3 ADD SWAP2 JUMPDEST POP POP POP SWAP2 DUP4 MSTORE POP POP PUSH1 0x3 SWAP2 SWAP1 SWAP2 ADD SLOAD PUSH1 0xFF AND ISZERO ISZERO PUSH1 0x20 SWAP2 DUP3 ADD MSTORE SWAP1 DUP3 MSTORE PUSH1 0x1 SWAP3 SWAP1 SWAP3 ADD SWAP2 ADD PUSH2 0x3663 JUMP JUMPDEST PUSH1 0x60 PUSH1 0x4 PUSH1 0x0 DUP4 DUP2 MSTORE PUSH1 0x20 ADD SWAP1 DUP2 MSTORE PUSH1 0x20 ADD PUSH1 0x0 KECCAK256 DUP1 SLOAD DUP1 PUSH1 0x20 MUL PUSH1 0x20 ADD PUSH1 0x40 MLOAD SWAP1 DUP2 ADD PUSH1 0x40 MSTORE DUP1 SWAP3 SWAP2 SWAP1 DUP2 DUP2 MSTORE PUSH1 0x20 ADD PUSH1 0x0 SWAP1 JUMPDEST DUP3 DUP3 LT ISZERO PUSH2 0x2CDD JUMPI DUP4 DUP3 SWAP1 PUSH1 0x0 MSTORE PUSH1 0x20 PUSH1 0x0 KECCAK256 SWAP1 PUSH1 0x4 MUL ADD PUSH1 0x40 MLOAD DUP1 PUSH1 0x80 ADD PUSH1 0x40 MSTORE SWAP1 DUP2 PUSH1 0x0 DUP3 ADD SLOAD DUP2 MSTORE PUSH1 0x20 ADD PUSH1 0x1 DUP3 ADD SLOAD DUP2 MSTORE PUSH1 0x20 ADD PUSH1 0x2 DUP3 ADD DUP1 SLOAD PUSH2 0x37C9 SWAP1 PUSH2 0x474E JUMP JUMPDEST DUP1 PUSH1 0x1F ADD PUSH1 0x20 DUP1 SWAP2 DIV MUL PUSH1 0x20 ADD PUSH1 0x40 MLOAD SWAP1 DUP2 ADD PUSH1 0x40 MSTORE DUP1 SWAP3 SWAP2 SWAP1 DUP2 DUP2 MSTORE PUSH1 0x20 ADD DUP3 DUP1 SLOAD PUSH2 0x37F5 SWAP1 PUSH2 0x474E JUMP JUMPDEST DUP1 ISZERO PUSH2 0x3842 JUMPI DUP1 PUSH1 0x1F LT PUSH2 0x3817 JUMPI PUSH2 0x100 DUP1 DUP4 SLOAD DIV MUL DUP4 MSTORE SWAP2 PUSH1 0x20 ADD SWAP2 PUSH2 0x3842 JUMP JUMPDEST DUP3 ADD SWAP2 SWAP1 PUSH1 0x0 MSTORE PUSH1 0x20 PUSH1 0x0 KECCAK256 SWAP1 JUMPDEST DUP2 SLOAD DUP2 MSTORE SWAP1 PUSH1 0x1 ADD SWAP1 PUSH1 0x20 ADD DUP1 DUP4 GT PUSH2 0x3825 JUMPI DUP3 SWAP1 SUB PUSH1 0x1F AND DUP3 ADD SWAP2 JUMPDEST POP POP POP SWAP2 DUP4 MSTORE POP POP PUSH1 0x3 SWAP2 SWAP1 SWAP2 ADD SLOAD PUSH1 0xFF AND ISZERO ISZERO PUSH1 0x20 SWAP2 DUP3 ADD MSTORE SWAP1 DUP3 MSTORE PUSH1 0x1 SWAP3 SWAP1 SWAP3 ADD SWAP2 ADD PUSH2 0x3782 JUMP JUMPDEST PUSH1 0x1 PUSH1 0x20 DUP2 SWAP1 MSTORE PUSH1 0x0 SWAP2 DUP3 MSTORE PUSH1 0x40 SWAP1 SWAP2 KECCAK256 DUP1 SLOAD SWAP2 DUP2 ADD SLOAD PUSH1 0x2 DUP3 ADD DUP1 SLOAD PUSH1 0x1 PUSH1 0x1 PUSH1 0xA0 SHL SUB SWAP1 SWAP3 AND SWAP3 SWAP2 PUSH2 0x389F SWAP1 PUSH2 0x474E JUMP JUMPDEST DUP1 PUSH1 0x1F ADD PUSH1 0x20 DUP1 SWAP2 DIV MUL PUSH1 0x20 ADD PUSH1 0x40 MLOAD SWAP1 DUP2 ADD PUSH1 0x40 MSTORE DUP1 SWAP3 SWAP2 SWAP1 DUP2 DUP2 MSTORE PUSH1 0x20 ADD DUP3 DUP1 SLOAD PUSH2 0x38CB SWAP1 PUSH2 0x474E JUMP JUMPDEST DUP1 ISZERO PUSH2 0x3918 JUMPI DUP1 PUSH1 0x1F LT PUSH2 0x38ED JUMPI PUSH2 0x100 DUP1 DUP4 SLOAD DIV MUL DUP4 MSTORE SWAP2 PUSH1 0x20 ADD SWAP2 PUSH2 0x3918 JUMP JUMPDEST DUP3 ADD SWAP2 SWAP1 PUSH1 0x0 MSTORE PUSH1 0x20 PUSH1 0x0 KECCAK256 SWAP1 JUMPDEST DUP2 SLOAD DUP2 MSTORE SWAP1 PUSH1 0x1 ADD SWAP1 PUSH1 0x20 ADD DUP1 DUP4 GT PUSH2 0x38FB JUMPI DUP3 SWAP1 SUB PUSH1 0x1F AND DUP3 ADD SWAP2 JUMPDEST POP POP POP POP POP SWAP1 DUP1 PUSH1 0x3 ADD DUP1 SLOAD PUSH2 0x392D SWAP1 PUSH2 0x474E JUMP JUMPDEST DUP1 PUSH1 0x1F ADD PUSH1 0x20 DUP1 SWAP2 DIV MUL PUSH1 0x20 ADD PUSH1 0x40 MLOAD SWAP1 DUP2 ADD PUSH1 0x40 MSTORE DUP1 SWAP3 SWAP2 SWAP1 DUP2 DUP2 MSTORE PUSH1 0x20 ADD DUP3 DUP1 SLOAD PUSH2 0x3959 SWAP1 PUSH2 0x474E JUMP JUMPDEST DUP1 ISZERO PUSH2 0x39A6 JUMPI DUP1 PUSH1 0x1F LT PUSH2 0x397B JUMPI PUSH2 0x100 DUP1 DUP4 SLOAD DIV MUL DUP4 MSTORE SWAP2 PUSH1 0x20 ADD SWAP2 PUSH2 0x39A6 JUMP JUMPDEST DUP3 ADD SWAP2 SWAP1 PUSH1 0x0 MSTORE PUSH1 0x20 PUSH1 0x0 KECCAK256 SWAP1 JUMPDEST DUP2 SLOAD DUP2 MSTORE SWAP1 PUSH1 0x1 ADD SWAP1 PUSH1 0x20 ADD DUP1 DUP4 GT PUSH2 0x3989 JUMPI DUP3 SWAP1 SUB PUSH1 0x1F AND DUP3 ADD SWAP2 JUMPDEST POP POP POP POP POP SWAP1 DUP1 PUSH1 0x4 ADD DUP1 SLOAD PUSH2 0x39BB SWAP1 PUSH2 0x474E JUMP JUMPDEST DUP1 PUSH1 0x1F ADD PUSH1 0x20 DUP1 SWAP2 DIV MUL PUSH1 0x20 ADD PUSH1 0x40 MLOAD SWAP1 DUP2 ADD PUSH1 0x40 MSTORE DUP1 SWAP3 SWAP2 SWAP1 DUP2 DUP2 MSTORE PUSH1 0x20 ADD DUP3 DUP1 SLOAD PUSH2 0x39E7 SWAP1 PUSH2 0x474E JUMP JUMPDEST DUP1 ISZERO PUSH2 0x3A34 JUMPI DUP1 PUSH1 0x1F LT PUSH2 0x3A09 JUMPI PUSH2 0x100 DUP1 DUP4 SLOAD DIV MUL DUP4 MSTORE SWAP2 PUSH1 0x20 ADD SWAP2 PUSH2 0x3A34 JUMP JUMPDEST DUP3 ADD SWAP2 SWAP1 PUSH1 0x0 MSTORE PUSH1 0x20 PUSH1 0x0 KECCAK256 SWAP1 JUMPDEST DUP2 SLOAD DUP2 MSTORE SWAP1 PUSH1 0x1 ADD SWAP1 PUSH1 0x20 ADD DUP1 DUP4 GT PUSH2 0x3A17 JUMPI DUP3 SWAP1 SUB PUSH1 0x1F AND DUP3 ADD SWAP2 JUMPDEST POP POP POP PUSH1 0x5 SWAP1 SWAP4 ADD SLOAD SWAP2 SWAP3 POP POP PUSH1 0xFF DUP1 DUP3 AND SWAP2 PUSH2 0x100 DUP2 DIV DUP3 AND SWAP2 PUSH3 0x10000 SWAP1 SWAP2 DIV AND DUP9 JUMP JUMPDEST PUSH1 0x4 PUSH1 0x20 MSTORE DUP2 PUSH1 0x0 MSTORE PUSH1 0x40 PUSH1 0x0 KECCAK256 DUP2 DUP2 SLOAD DUP2 LT PUSH2 0x3A76 JUMPI PUSH1 0x0 DUP1 REVERT JUMPDEST SWAP1 PUSH1 0x0 MSTORE PUSH1 0x20 PUSH1 0x0 KECCAK256 SWAP1 PUSH1 0x4 MUL ADD PUSH1 0x0 SWAP2 POP SWAP2 POP POP DUP1 PUSH1 0x0 ADD SLOAD SWAP1 DUP1 PUSH1 0x1 ADD SLOAD SWAP1 DUP1 PUSH1 0x2 ADD DUP1 SLOAD PUSH2 0x3AA6 SWAP1 PUSH2 0x474E JUMP JUMPDEST DUP1 PUSH1 0x1F ADD PUSH1 0x20 DUP1 SWAP2 DIV MUL PUSH1 0x20 ADD PUSH1 0x40 MLOAD SWAP1 DUP2 ADD PUSH1 0x40 MSTORE DUP1 SWAP3 SWAP2 SWAP1 DUP2 DUP2 MSTORE PUSH1 0x20 ADD DUP3 DUP1 SLOAD PUSH2 0x3AD2 SWAP1 PUSH2 0x474E JUMP JUMPDEST DUP1 ISZERO PUSH2 0x3B1F JUMPI DUP1 PUSH1 0x1F LT PUSH2 0x3AF4 JUMPI PUSH2 0x100 DUP1 DUP4 SLOAD DIV MUL DUP4 MSTORE SWAP2 PUSH1 0x20 ADD SWAP2 PUSH2 0x3B1F JUMP JUMPDEST DUP3 ADD SWAP2 SWAP1 PUSH1 0x0 MSTORE PUSH1 0x20 PUSH1 0x0 KECCAK256 SWAP1 JUMPDEST DUP2 SLOAD DUP2 MSTORE SWAP1 PUSH1 0x1 ADD SWAP1 PUSH1 0x20 ADD DUP1 DUP4 GT PUSH2 0x3B02 JUMPI DUP3 SWAP1 SUB PUSH1 0x1F AND DUP3 ADD SWAP2 JUMPDEST POP POP POP PUSH1 0x3 SWAP1 SWAP4 ADD SLOAD SWAP2 SWAP3 POP POP PUSH1 0xFF AND DUP5 JUMP JUMPDEST PUSH1 0x40 MLOAD DUP1 PUSH2 0x100 ADD PUSH1 0x40 MSTORE DUP1 PUSH1 0x0 DUP2 MSTORE PUSH1 0x20 ADD PUSH1 0x0 PUSH1 0x1 PUSH1 0x1 PUSH1 0xA0 SHL SUB AND DUP2 MSTORE PUSH1 0x20 ADD PUSH1 0x60 DUP2 MSTORE PUSH1 0x20 ADD PUSH1 0x60 DUP2 MSTORE PUSH1 0x20 ADD PUSH1 0x60 DUP2 MSTORE PUSH1 0x20 ADD PUSH1 0x0 ISZERO ISZERO DUP2 MSTORE PUSH1 0x20 ADD PUSH1 0x0 ISZERO ISZERO DUP2 MSTORE PUSH1 0x20 ADD PUSH1 0x0 ISZERO ISZERO DUP2 MSTORE POP SWAP1 JUMP JUMPDEST PUSH1 0x40 MLOAD DUP1 PUSH1 0xE0 ADD PUSH1 0x40 MSTORE DUP1 PUSH1 0x0 DUP2 MSTORE PUSH1 0x20 ADD PUSH1 0x0 PUSH1 0x1 PUSH1 0x1 PUSH1 0xA0 SHL SUB AND DUP2 MSTORE PUSH1 0x20 ADD PUSH1 0x60 DUP2 MSTORE PUSH1 0x20 ADD PUSH1 0x0 DUP2 MSTORE PUSH1 0x20 ADD PUSH1 0x0 DUP2 MSTORE PUSH1 0x20 ADD PUSH1 0x0 DUP2 MSTORE PUSH1 0x20 ADD PUSH1 0x0 ISZERO ISZERO DUP2 MSTORE POP SWAP1 JUMP JUMPDEST PUSH1 0x40 MLOAD DUP1 PUSH1 0xC0 ADD PUSH1 0x40 MSTORE DUP1 PUSH1 0x0 DUP2 MSTORE PUSH1 0x20 ADD PUSH1 0x0 DUP2 MSTORE PUSH1 0x20 ADD PUSH1 0x0 DUP2 MSTORE PUSH1 0x20 ADD PUSH1 0x0 PUSH1 0x1 PUSH1 0x1 PUSH1 0xA0 SHL SUB AND DUP2 MSTORE PUSH1 0x20 ADD PUSH1 0x0 ISZERO ISZERO DUP2 MSTORE PUSH1 0x20 ADD PUSH1 0x0 ISZERO ISZERO DUP2 MSTORE POP SWAP1 JUMP JUMPDEST PUSH1 0x40 MLOAD DUP1 PUSH2 0x100 ADD PUSH1 0x40 MSTORE DUP1 PUSH1 0x0 DUP2 MSTORE PUSH1 0x20 ADD PUSH1 0x0 PUSH1 0x1 PUSH1 0x1 PUSH1 0xA0 SHL SUB AND DUP2 MSTORE PUSH1 0x20 ADD PUSH1 0x60 DUP2 MSTORE PUSH1 0x20 ADD PUSH1 0x60 DUP2 MSTORE PUSH1 0x20 ADD PUSH1 0x0 DUP2 MSTORE PUSH1 0x20 ADD PUSH1 0x0 DUP2 MSTORE PUSH1 0x20 ADD PUSH1 0x0 ISZERO ISZERO DUP2 MSTORE PUSH1 0x20 ADD PUSH1 0x0 ISZERO ISZERO DUP2 MSTORE POP SWAP1 JUMP JUMPDEST PUSH1 0x40 MLOAD DUP1 PUSH1 0xA0 ADD PUSH1 0x40 MSTORE DUP1 PUSH1 0x0 DUP2 MSTORE PUSH1 0x20 ADD PUSH1 0x0 DUP2 MSTORE PUSH1 0x20 ADD PUSH1 0x0 PUSH1 0x1 PUSH1 0x1 PUSH1 0xA0 SHL SUB AND DUP2 MSTORE PUSH1 0x20 ADD PUSH1 0x0 DUP2 MSTORE PUSH1 0x20 ADD PUSH1 0x0 ISZERO ISZERO DUP2 MSTORE POP SWAP1 JUMP JUMPDEST PUSH1 0x0 DUP1 PUSH1 0x40 DUP4 DUP6 SUB SLT ISZERO PUSH2 0x3CB0 JUMPI PUSH1 0x0 DUP1 REVERT JUMPDEST POP POP DUP1 CALLDATALOAD SWAP3 PUSH1 0x20 SWAP1 SWAP2 ADD CALLDATALOAD SWAP2 POP JUMP JUMPDEST DUP1 CALLDATALOAD PUSH1 0x1 PUSH1 0x1 PUSH1 0xA0 SHL SUB DUP2 AND DUP2 EQ PUSH2 0x3CD6 JUMPI PUSH1 0x0 DUP1 REVERT JUMPDEST SWAP2 SWAP1 POP JUMP JUMPDEST PUSH1 0x0 PUSH1 0x20 DUP3 DUP5 SUB SLT ISZERO PUSH2 0x3CED JUMPI PUSH1 0x0 DUP1 REVERT JUMPDEST PUSH2 0x3CF6 DUP3 PUSH2 0x3CBF JUMP JUMPDEST SWAP4 SWAP3 POP POP POP JUMP JUMPDEST PUSH1 0x0 DUP2 MLOAD DUP1 DUP5 MSTORE PUSH1 0x0 JUMPDEST DUP2 DUP2 LT ISZERO PUSH2 0x3D23 JUMPI PUSH1 0x20 DUP2 DUP6 ADD DUP2 ADD MLOAD DUP7 DUP4 ADD DUP3 ADD MSTORE ADD PUSH2 0x3D07 JUMP JUMPDEST POP PUSH1 0x0 PUSH1 0x20 DUP3 DUP7 ADD ADD MSTORE PUSH1 0x20 PUSH1 0x1F NOT PUSH1 0x1F DUP4 ADD AND DUP6 ADD ADD SWAP2 POP POP SWAP3 SWAP2 POP POP JUMP JUMPDEST PUSH1 0x20 DUP2 MSTORE DUP2 MLOAD PUSH1 0x20 DUP3 ADD MSTORE PUSH1 0x0 PUSH1 0x20 DUP4 ADD MLOAD PUSH2 0x3D6A PUSH1 0x40 DUP5 ADD DUP3 PUSH1 0x1 PUSH1 0x1 PUSH1 0xA0 SHL SUB AND SWAP1 MSTORE JUMP JUMPDEST POP PUSH1 0x40 DUP4 ADD MLOAD PUSH2 0x100 DUP1 PUSH1 0x60 DUP6 ADD MSTORE PUSH2 0x3D87 PUSH2 0x120 DUP6 ADD DUP4 PUSH2 0x3CFD JUMP JUMPDEST SWAP2 POP PUSH1 0x60 DUP6 ADD MLOAD PUSH1 0x1F NOT DUP1 DUP7 DUP6 SUB ADD PUSH1 0x80 DUP8 ADD MSTORE PUSH2 0x3DA5 DUP5 DUP4 PUSH2 0x3CFD JUMP JUMPDEST SWAP4 POP PUSH1 0x80 DUP8 ADD MLOAD SWAP2 POP DUP1 DUP7 DUP6 SUB ADD PUSH1 0xA0 DUP8 ADD MSTORE POP PUSH2 0x3DC3 DUP4 DUP3 PUSH2 0x3CFD JUMP JUMPDEST SWAP3 POP POP PUSH1 0xA0 DUP6 ADD MLOAD PUSH2 0x3DD9 PUSH1 0xC0 DUP7 ADD DUP3 ISZERO ISZERO SWAP1 MSTORE JUMP JUMPDEST POP PUSH1 0xC0 DUP6 ADD MLOAD DUP1 ISZERO ISZERO PUSH1 0xE0 DUP7 ADD MSTORE POP PUSH1 0xE0 DUP6 ADD MLOAD DUP1 ISZERO ISZERO DUP6 DUP4 ADD MSTORE PUSH2 0xC4F JUMP JUMPDEST DUP1 MLOAD DUP3 MSTORE PUSH1 0x1 DUP1 PUSH1 0xA0 SHL SUB PUSH1 0x20 DUP3 ADD MLOAD AND PUSH1 0x20 DUP4 ADD MSTORE PUSH1 0x0 PUSH1 0x40 DUP3 ADD MLOAD PUSH1 0xE0 PUSH1 0x40 DUP6 ADD MSTORE PUSH2 0x3E2A PUSH1 0xE0 DUP6 ADD DUP3 PUSH2 0x3CFD JUMP JUMPDEST SWAP1 POP PUSH1 0x60 DUP4 ADD MLOAD PUSH1 0x60 DUP6 ADD MSTORE PUSH1 0x80 DUP4 ADD MLOAD PUSH1 0x80 DUP6 ADD MSTORE PUSH1 0xA0 DUP4 ADD MLOAD PUSH1 0xA0 DUP6 ADD MSTORE PUSH1 0xC0 DUP4 ADD MLOAD ISZERO ISZERO PUSH1 0xC0 DUP6 ADD MSTORE DUP1 SWAP2 POP POP SWAP3 SWAP2 POP POP JUMP JUMPDEST PUSH1 0x0 PUSH1 0x20 DUP1 DUP4 ADD DUP2 DUP5 MSTORE DUP1 DUP6 MLOAD DUP1 DUP4 MSTORE PUSH1 0x40 DUP7 ADD SWAP2 POP PUSH1 0x40 DUP2 PUSH1 0x5 SHL DUP8 ADD ADD SWAP3 POP DUP4 DUP8 ADD PUSH1 0x0 JUMPDEST DUP3 DUP2 LT ISZERO PUSH2 0x3EB5 JUMPI PUSH1 0x3F NOT DUP9 DUP7 SUB ADD DUP5 MSTORE PUSH2 0x3EA3 DUP6 DUP4 MLOAD PUSH2 0x3DF9 JUMP JUMPDEST SWAP5 POP SWAP3 DUP6 ADD SWAP3 SWAP1 DUP6 ADD SWAP1 PUSH1 0x1 ADD PUSH2 0x3E87 JUMP JUMPDEST POP SWAP3 SWAP8 SWAP7 POP POP POP POP POP POP POP JUMP JUMPDEST DUP9 DUP2 MSTORE PUSH1 0x1 PUSH1 0x1 PUSH1 0xA0 SHL SUB DUP9 AND PUSH1 0x20 DUP3 ADD MSTORE PUSH2 0x100 PUSH1 0x40 DUP3 ADD DUP2 SWAP1 MSTORE PUSH1 0x0 SWAP1 PUSH2 0x3EED DUP4 DUP3 ADD DUP11 PUSH2 0x3CFD JUMP JUMPDEST SWAP1 POP DUP3 DUP2 SUB PUSH1 0x60 DUP5 ADD MSTORE PUSH2 0x3F01 DUP2 DUP10 PUSH2 0x3CFD JUMP JUMPDEST PUSH1 0x80 DUP5 ADD SWAP8 SWAP1 SWAP8 MSTORE POP POP PUSH1 0xA0 DUP2 ADD SWAP4 SWAP1 SWAP4 MSTORE SWAP1 ISZERO ISZERO PUSH1 0xC0 DUP4 ADD MSTORE ISZERO ISZERO PUSH1 0xE0 SWAP1 SWAP2 ADD MSTORE SWAP5 SWAP4 POP POP POP POP JUMP JUMPDEST PUSH1 0x0 PUSH1 0x20 DUP3 DUP5 SUB SLT ISZERO PUSH2 0x3F3D JUMPI PUSH1 0x0 DUP1 REVERT JUMPDEST POP CALLDATALOAD SWAP2 SWAP1 POP JUMP JUMPDEST DUP8 DUP2 MSTORE PUSH1 0x1 PUSH1 0x1 PUSH1 0xA0 SHL SUB DUP8 AND PUSH1 0x20 DUP3 ADD MSTORE PUSH1 0xE0 PUSH1 0x40 DUP3 ADD DUP2 SWAP1 MSTORE PUSH1 0x0 SWAP1 PUSH2 0x3F6E SWAP1 DUP4 ADD DUP9 PUSH2 0x3CFD JUMP JUMPDEST SWAP1 POP DUP6 PUSH1 0x60 DUP4 ADD MSTORE DUP5 PUSH1 0x80 DUP4 ADD MSTORE DUP4 PUSH1 0xA0 DUP4 ADD MSTORE DUP3 ISZERO ISZERO PUSH1 0xC0 DUP4 ADD MSTORE SWAP9 SWAP8 POP POP POP POP POP POP POP POP JUMP JUMPDEST PUSH1 0x0 DUP1 PUSH1 0x40 DUP4 DUP6 SUB SLT ISZERO PUSH2 0x3FA9 JUMPI PUSH1 0x0 DUP1 REVERT JUMPDEST DUP3 CALLDATALOAD SWAP2 POP PUSH2 0x3FB9 PUSH1 0x20 DUP5 ADD PUSH2 0x3CBF JUMP JUMPDEST SWAP1 POP SWAP3 POP SWAP3 SWAP1 POP JUMP JUMPDEST PUSH1 0x20 DUP1 DUP3 MSTORE DUP3 MLOAD DUP3 DUP3 ADD DUP2 SWAP1 MSTORE PUSH1 0x0 SWAP2 SWAP1 PUSH1 0x40 SWAP1 DUP2 DUP6 ADD SWAP1 DUP7 DUP5 ADD DUP6 JUMPDEST DUP3 DUP2 LT ISZERO PUSH2 0x403A JUMPI DUP2 MLOAD DUP1 MLOAD DUP6 MSTORE DUP7 DUP2 ADD MLOAD DUP8 DUP7 ADD MSTORE DUP6 DUP2 ADD MLOAD DUP7 DUP7 ADD MSTORE PUSH1 0x60 DUP1 DUP3 ADD MLOAD PUSH1 0x1 PUSH1 0x1 PUSH1 0xA0 SHL SUB AND SWAP1 DUP7 ADD MSTORE PUSH1 0x80 DUP1 DUP3 ADD MLOAD ISZERO ISZERO SWAP1 DUP7 ADD MSTORE PUSH1 0xA0 SWAP1 DUP2 ADD MLOAD ISZERO ISZERO SWAP1 DUP6 ADD MSTORE PUSH1 0xC0 SWAP1 SWAP4 ADD SWAP3 SWAP1 DUP6 ADD SWAP1 PUSH1 0x1 ADD PUSH2 0x3FDF JUMP JUMPDEST POP SWAP2 SWAP8 SWAP7 POP POP POP POP POP POP POP JUMP JUMPDEST PUSH1 0x0 PUSH2 0x100 DUP3 MLOAD DUP5 MSTORE PUSH1 0x1 DUP1 PUSH1 0xA0 SHL SUB PUSH1 0x20 DUP5 ADD MLOAD AND PUSH1 0x20 DUP6 ADD MSTORE PUSH1 0x40 DUP4 ADD MLOAD DUP2 PUSH1 0x40 DUP7 ADD MSTORE PUSH2 0x4079 DUP3 DUP7 ADD DUP3 PUSH2 0x3CFD JUMP JUMPDEST SWAP2 POP POP PUSH1 0x60 DUP4 ADD MLOAD DUP5 DUP3 SUB PUSH1 0x60 DUP7 ADD MSTORE PUSH2 0x4093 DUP3 DUP3 PUSH2 0x3CFD JUMP JUMPDEST SWAP2 POP POP PUSH1 0x80 DUP4 ADD MLOAD PUSH1 0x80 DUP6 ADD MSTORE PUSH1 0xA0 DUP4 ADD MLOAD PUSH1 0xA0 DUP6 ADD MSTORE PUSH1 0xC0 DUP4 ADD MLOAD ISZERO ISZERO PUSH1 0xC0 DUP6 ADD MSTORE PUSH1 0xE0 DUP4 ADD MLOAD PUSH2 0x40C9 PUSH1 0xE0 DUP7 ADD DUP3 ISZERO ISZERO SWAP1 MSTORE JUMP JUMPDEST POP SWAP4 SWAP3 POP POP POP JUMP JUMPDEST PUSH1 0x20 DUP2 MSTORE PUSH1 0x0 PUSH2 0x3CF6 PUSH1 0x20 DUP4 ADD DUP5 PUSH2 0x4047 JUMP JUMPDEST PUSH1 0x20 DUP1 DUP3 MSTORE DUP3 MLOAD DUP3 DUP3 ADD DUP2 SWAP1 MSTORE PUSH1 0x0 SWAP2 SWAP1 PUSH1 0x40 SWAP1 DUP2 DUP6 ADD SWAP1 DUP7 DUP5 ADD DUP6 JUMPDEST DUP3 DUP2 LT ISZERO PUSH2 0x403A JUMPI DUP2 MLOAD DUP1 MLOAD DUP6 MSTORE DUP7 DUP2 ADD MLOAD DUP8 DUP7 ADD MSTORE DUP6 DUP2 ADD MLOAD PUSH1 0x1 PUSH1 0x1 PUSH1 0xA0 SHL SUB AND DUP7 DUP7 ADD MSTORE PUSH1 0x60 DUP1 DUP3 ADD MLOAD SWAP1 DUP7 ADD MSTORE PUSH1 0x80 SWAP1 DUP2 ADD MLOAD ISZERO ISZERO SWAP1 DUP6 ADD MSTORE PUSH1 0xA0 SWAP1 SWAP4 ADD SWAP3 SWAP1 DUP6 ADD SWAP1 PUSH1 0x1 ADD PUSH2 0x4101 JUMP JUMPDEST PUSH4 0x4E487B71 PUSH1 0xE0 SHL PUSH1 0x0 MSTORE PUSH1 0x41 PUSH1 0x4 MSTORE PUSH1 0x24 PUSH1 0x0 REVERT JUMPDEST PUSH1 0x40 MLOAD PUSH1 0x1F DUP3 ADD PUSH1 0x1F NOT AND DUP2 ADD PUSH1 0x1 PUSH1 0x1 PUSH1 0x40 SHL SUB DUP2 GT DUP3 DUP3 LT OR ISZERO PUSH2 0x418E JUMPI PUSH2 0x418E PUSH2 0x4150 JUMP JUMPDEST PUSH1 0x40 MSTORE SWAP2 SWAP1 POP JUMP JUMPDEST PUSH1 0x0 DUP3 PUSH1 0x1F DUP4 ADD SLT PUSH2 0x41A7 JUMPI PUSH1 0x0 DUP1 REVERT JUMPDEST DUP2 CALLDATALOAD PUSH1 0x1 PUSH1 0x1 PUSH1 0x40 SHL SUB DUP2 GT ISZERO PUSH2 0x41C0 JUMPI PUSH2 0x41C0 PUSH2 0x4150 JUMP JUMPDEST PUSH2 0x41D3 PUSH1 0x1F DUP3 ADD PUSH1 0x1F NOT AND PUSH1 0x20 ADD PUSH2 0x4166 JUMP JUMPDEST DUP2 DUP2 MSTORE DUP5 PUSH1 0x20 DUP4 DUP7 ADD ADD GT ISZERO PUSH2 0x41E8 JUMPI PUSH1 0x0 DUP1 REVERT JUMPDEST DUP2 PUSH1 0x20 DUP6 ADD PUSH1 0x20 DUP4 ADD CALLDATACOPY PUSH1 0x0 SWAP2 DUP2 ADD PUSH1 0x20 ADD SWAP2 SWAP1 SWAP2 MSTORE SWAP4 SWAP3 POP POP POP JUMP JUMPDEST PUSH1 0x0 DUP1 PUSH1 0x0 DUP1 PUSH1 0x80 DUP6 DUP8 SUB SLT ISZERO PUSH2 0x421B JUMPI PUSH1 0x0 DUP1 REVERT JUMPDEST PUSH2 0x4224 DUP6 PUSH2 0x3CBF JUMP JUMPDEST SWAP4 POP PUSH1 0x20 DUP6 ADD CALLDATALOAD PUSH1 0x1 PUSH1 0x1 PUSH1 0x40 SHL SUB DUP1 DUP3 GT ISZERO PUSH2 0x4240 JUMPI PUSH1 0x0 DUP1 REVERT JUMPDEST PUSH2 0x424C DUP9 DUP4 DUP10 ADD PUSH2 0x4196 JUMP JUMPDEST SWAP5 POP PUSH1 0x40 DUP8 ADD CALLDATALOAD SWAP2 POP DUP1 DUP3 GT ISZERO PUSH2 0x4262 JUMPI PUSH1 0x0 DUP1 REVERT JUMPDEST POP PUSH2 0x426F DUP8 DUP3 DUP9 ADD PUSH2 0x4196 JUMP JUMPDEST SWAP5 SWAP8 SWAP4 SWAP7 POP SWAP4 SWAP5 PUSH1 0x60 ADD CALLDATALOAD SWAP4 POP POP POP JUMP JUMPDEST PUSH1 0x0 DUP1 PUSH1 0x0 DUP1 PUSH1 0x80 DUP6 DUP8 SUB SLT ISZERO PUSH2 0x4296 JUMPI PUSH1 0x0 DUP1 REVERT JUMPDEST PUSH2 0x429F DUP6 PUSH2 0x3CBF JUMP JUMPDEST SWAP4 POP PUSH1 0x20 DUP6 ADD CALLDATALOAD PUSH1 0x1 PUSH1 0x1 PUSH1 0x40 SHL SUB DUP1 DUP3 GT ISZERO PUSH2 0x42BB JUMPI PUSH1 0x0 DUP1 REVERT JUMPDEST PUSH2 0x42C7 DUP9 DUP4 DUP10 ADD PUSH2 0x4196 JUMP JUMPDEST SWAP5 POP PUSH1 0x40 DUP8 ADD CALLDATALOAD SWAP2 POP DUP1 DUP3 GT ISZERO PUSH2 0x42DD JUMPI PUSH1 0x0 DUP1 REVERT JUMPDEST PUSH2 0x42E9 DUP9 DUP4 DUP10 ADD PUSH2 0x4196 JUMP JUMPDEST SWAP4 POP PUSH1 0x60 DUP8 ADD CALLDATALOAD SWAP2 POP DUP1 DUP3 GT ISZERO PUSH2 0x42FF JUMPI PUSH1 0x0 DUP1 REVERT JUMPDEST POP PUSH2 0x430C DUP8 DUP3 DUP9 ADD PUSH2 0x4196 JUMP JUMPDEST SWAP2 POP POP SWAP3 SWAP6 SWAP2 SWAP5 POP SWAP3 POP JUMP JUMPDEST PUSH1 0x0 PUSH1 0x1 PUSH1 0x1 PUSH1 0x40 SHL SUB DUP3 GT ISZERO PUSH2 0x4331 JUMPI PUSH2 0x4331 PUSH2 0x4150 JUMP JUMPDEST POP PUSH1 0x5 SHL PUSH1 0x20 ADD SWAP1 JUMP JUMPDEST PUSH1 0x0 DUP1 PUSH1 0x0 DUP1 PUSH1 0x0 DUP1 PUSH1 0xC0 DUP8 DUP10 SUB SLT ISZERO PUSH2 0x4354 JUMPI PUSH1 0x0 DUP1 REVERT JUMPDEST PUSH2 0x435D DUP8 PUSH2 0x3CBF JUMP JUMPDEST SWAP6 POP PUSH1 0x20 DUP1 DUP9 ADD CALLDATALOAD PUSH1 0x1 PUSH1 0x1 PUSH1 0x40 SHL SUB DUP1 DUP3 GT ISZERO PUSH2 0x437A JUMPI PUSH1 0x0 DUP1 REVERT JUMPDEST PUSH2 0x4386 DUP12 DUP4 DUP13 ADD PUSH2 0x4196 JUMP JUMPDEST SWAP8 POP PUSH1 0x40 DUP11 ADD CALLDATALOAD SWAP7 POP PUSH1 0x60 DUP11 ADD CALLDATALOAD SWAP6 POP PUSH1 0x80 DUP11 ADD CALLDATALOAD SWAP2 POP DUP1 DUP3 GT ISZERO PUSH2 0x43AA JUMPI PUSH1 0x0 DUP1 REVERT JUMPDEST DUP2 DUP11 ADD SWAP2 POP DUP11 PUSH1 0x1F DUP4 ADD SLT PUSH2 0x43BE JUMPI PUSH1 0x0 DUP1 REVERT JUMPDEST DUP2 CALLDATALOAD PUSH2 0x43D1 PUSH2 0x43CC DUP3 PUSH2 0x4318 JUMP JUMPDEST PUSH2 0x4166 JUMP JUMPDEST DUP2 DUP2 MSTORE PUSH1 0x5 SWAP2 SWAP1 SWAP2 SHL DUP4 ADD DUP5 ADD SWAP1 DUP5 DUP2 ADD SWAP1 DUP14 DUP4 GT ISZERO PUSH2 0x43F0 JUMPI PUSH1 0x0 DUP1 REVERT JUMPDEST DUP6 DUP6 ADD JUMPDEST DUP4 DUP2 LT ISZERO PUSH2 0x4426 JUMPI DUP5 DUP2 CALLDATALOAD GT ISZERO PUSH2 0x440A JUMPI PUSH1 0x0 DUP1 REVERT JUMPDEST PUSH2 0x4419 DUP16 DUP9 DUP4 CALLDATALOAD DUP10 ADD ADD PUSH2 0x4196 JUMP JUMPDEST DUP4 MSTORE SWAP2 DUP7 ADD SWAP2 DUP7 ADD PUSH2 0x43F4 JUMP JUMPDEST POP DUP1 SWAP8 POP POP POP POP POP POP POP PUSH1 0xA0 DUP8 ADD CALLDATALOAD SWAP1 POP SWAP3 SWAP6 POP SWAP3 SWAP6 POP SWAP3 SWAP6 JUMP JUMPDEST PUSH1 0x0 PUSH1 0x20 DUP1 DUP4 ADD DUP2 DUP5 MSTORE DUP1 DUP6 MLOAD DUP1 DUP4 MSTORE PUSH1 0x40 DUP7 ADD SWAP2 POP PUSH1 0x40 DUP2 PUSH1 0x5 SHL DUP8 ADD ADD SWAP3 POP DUP4 DUP8 ADD PUSH1 0x0 JUMPDEST DUP3 DUP2 LT ISZERO PUSH2 0x3EB5 JUMPI PUSH1 0x3F NOT DUP9 DUP7 SUB ADD DUP5 MSTORE PUSH2 0x4484 DUP6 DUP4 MLOAD PUSH2 0x4047 JUMP JUMPDEST SWAP5 POP SWAP3 DUP6 ADD SWAP3 SWAP1 DUP6 ADD SWAP1 PUSH1 0x1 ADD PUSH2 0x4468 JUMP JUMPDEST PUSH1 0x0 DUP1 PUSH1 0x40 DUP4 DUP6 SUB SLT ISZERO PUSH2 0x44A9 JUMPI PUSH1 0x0 DUP1 REVERT JUMPDEST PUSH2 0x44B2 DUP4 PUSH2 0x3CBF JUMP JUMPDEST SWAP5 PUSH1 0x20 SWAP4 SWAP1 SWAP4 ADD CALLDATALOAD SWAP4 POP POP POP JUMP JUMPDEST PUSH1 0x0 DUP1 PUSH1 0x0 DUP1 PUSH1 0x80 DUP6 DUP8 SUB SLT ISZERO PUSH2 0x44D6 JUMPI PUSH1 0x0 DUP1 REVERT JUMPDEST DUP5 CALLDATALOAD SWAP4 POP PUSH1 0x20 DUP6 ADD CALLDATALOAD SWAP3 POP PUSH1 0x40 DUP6 ADD CALLDATALOAD SWAP2 POP PUSH2 0x44F4 PUSH1 0x60 DUP7 ADD PUSH2 0x3CBF JUMP JUMPDEST SWAP1 POP SWAP3 SWAP6 SWAP2 SWAP5 POP SWAP3 POP JUMP JUMPDEST PUSH1 0x20 DUP2 MSTORE PUSH1 0x0 PUSH2 0x3CF6 PUSH1 0x20 DUP4 ADD DUP5 PUSH2 0x3DF9 JUMP JUMPDEST DUP1 ISZERO ISZERO DUP2 EQ PUSH2 0x4520 JUMPI PUSH1 0x0 DUP1 REVERT JUMPDEST POP JUMP JUMPDEST PUSH1 0x0 DUP1 PUSH1 0x0 PUSH1 0x60 DUP5 DUP7 SUB SLT ISZERO PUSH2 0x4538 JUMPI PUSH1 0x0 DUP1 REVERT JUMPDEST DUP4 CALLDATALOAD SWAP3 POP PUSH1 0x20 PUSH2 0x4549 DUP2 DUP7 ADD PUSH2 0x3CBF JUMP JUMPDEST SWAP3 POP PUSH1 0x40 DUP6 ADD CALLDATALOAD PUSH1 0x1 PUSH1 0x1 PUSH1 0x40 SHL SUB DUP2 GT ISZERO PUSH2 0x4564 JUMPI PUSH1 0x0 DUP1 REVERT JUMPDEST DUP6 ADD PUSH1 0x1F DUP2 ADD DUP8 SGT PUSH2 0x4575 JUMPI PUSH1 0x0 DUP1 REVERT JUMPDEST DUP1 CALLDATALOAD PUSH2 0x4583 PUSH2 0x43CC DUP3 PUSH2 0x4318 JUMP JUMPDEST DUP2 DUP2 MSTORE PUSH1 0x5 SWAP2 SWAP1 SWAP2 SHL DUP3 ADD DUP4 ADD SWAP1 DUP4 DUP2 ADD SWAP1 DUP10 DUP4 GT ISZERO PUSH2 0x45A2 JUMPI PUSH1 0x0 DUP1 REVERT JUMPDEST SWAP3 DUP5 ADD SWAP3 JUMPDEST DUP3 DUP5 LT ISZERO PUSH2 0x45C9 JUMPI DUP4 CALLDATALOAD PUSH2 0x45BA DUP2 PUSH2 0x4512 JUMP JUMPDEST DUP3 MSTORE SWAP3 DUP5 ADD SWAP3 SWAP1 DUP5 ADD SWAP1 PUSH2 0x45A7 JUMP JUMPDEST DUP1 SWAP6 POP POP POP POP POP POP SWAP3 POP SWAP3 POP SWAP3 JUMP JUMPDEST PUSH1 0x0 PUSH1 0x20 DUP1 DUP4 ADD DUP2 DUP5 MSTORE DUP1 DUP6 MLOAD DUP1 DUP4 MSTORE PUSH1 0x40 SWAP3 POP DUP3 DUP7 ADD SWAP2 POP DUP3 DUP2 PUSH1 0x5 SHL DUP8 ADD ADD DUP5 DUP9 ADD PUSH1 0x0 JUMPDEST DUP4 DUP2 LT ISZERO PUSH2 0x4658 JUMPI PUSH1 0x3F NOT DUP10 DUP5 SUB ADD DUP6 MSTORE DUP2 MLOAD PUSH1 0x80 DUP2 MLOAD DUP6 MSTORE DUP9 DUP3 ADD MLOAD DUP10 DUP7 ADD MSTORE DUP8 DUP3 ADD MLOAD DUP2 DUP10 DUP8 ADD MSTORE PUSH2 0x4635 DUP3 DUP8 ADD DUP3 PUSH2 0x3CFD JUMP JUMPDEST PUSH1 0x60 SWAP4 DUP5 ADD MLOAD ISZERO ISZERO SWAP7 SWAP1 SWAP4 ADD SWAP6 SWAP1 SWAP6 MSTORE POP SWAP5 DUP8 ADD SWAP5 SWAP3 POP SWAP1 DUP7 ADD SWAP1 PUSH1 0x1 ADD PUSH2 0x45FF JUMP JUMPDEST POP SWAP1 SWAP9 SWAP8 POP POP POP POP POP POP POP POP JUMP JUMPDEST DUP9 DUP2 MSTORE PUSH1 0x1 PUSH1 0x1 PUSH1 0xA0 SHL SUB DUP9 AND PUSH1 0x20 DUP3 ADD MSTORE PUSH2 0x100 PUSH1 0x40 DUP3 ADD DUP2 SWAP1 MSTORE PUSH1 0x0 SWAP1 PUSH2 0x4691 DUP4 DUP3 ADD DUP11 PUSH2 0x3CFD JUMP JUMPDEST SWAP1 POP DUP3 DUP2 SUB PUSH1 0x60 DUP5 ADD MSTORE PUSH2 0x46A5 DUP2 DUP10 PUSH2 0x3CFD JUMP JUMPDEST SWAP1 POP DUP3 DUP2 SUB PUSH1 0x80 DUP5 ADD MSTORE PUSH2 0x46B9 DUP2 DUP9 PUSH2 0x3CFD JUMP JUMPDEST SWAP6 ISZERO ISZERO PUSH1 0xA0 DUP5 ADD MSTORE POP POP SWAP2 ISZERO ISZERO PUSH1 0xC0 DUP4 ADD MSTORE ISZERO ISZERO PUSH1 0xE0 SWAP1 SWAP2 ADD MSTORE SWAP6 SWAP5 POP POP POP POP POP JUMP JUMPDEST DUP5 DUP2 MSTORE DUP4 PUSH1 0x20 DUP3 ADD MSTORE PUSH1 0x80 PUSH1 0x40 DUP3 ADD MSTORE PUSH1 0x0 PUSH2 0x46FB PUSH1 0x80 DUP4 ADD DUP6 PUSH2 0x3CFD JUMP JUMPDEST SWAP1 POP DUP3 ISZERO ISZERO PUSH1 0x60 DUP4 ADD MSTORE SWAP6 SWAP5 POP POP POP POP POP JUMP JUMPDEST PUSH4 0x4E487B71 PUSH1 0xE0 SHL PUSH1 0x0 MSTORE PUSH1 0x11 PUSH1 0x4 MSTORE PUSH1 0x24 PUSH1 0x0 REVERT JUMPDEST DUP1 DUP3 MUL DUP2 ISZERO DUP3 DUP3 DIV DUP5 EQ OR PUSH2 0x80E JUMPI PUSH2 0x80E PUSH2 0x470E JUMP JUMPDEST DUP1 DUP3 ADD DUP1 DUP3 GT ISZERO PUSH2 0x80E JUMPI PUSH2 0x80E PUSH2 0x470E JUMP JUMPDEST PUSH1 0x1 DUP2 DUP2 SHR SWAP1 DUP3 AND DUP1 PUSH2 0x4762 JUMPI PUSH1 0x7F DUP3 AND SWAP2 POP JUMPDEST PUSH1 0x20 DUP3 LT DUP2 SUB PUSH2 0x4782 JUMPI PUSH4 0x4E487B71 PUSH1 0xE0 SHL PUSH1 0x0 MSTORE PUSH1 0x22 PUSH1 0x4 MSTORE PUSH1 0x24 PUSH1 0x0 REVERT JUMPDEST POP SWAP2 SWAP1 POP JUMP JUMPDEST PUSH4 0x4E487B71 PUSH1 0xE0 SHL PUSH1 0x0 MSTORE PUSH1 0x32 PUSH1 0x4 MSTORE PUSH1 0x24 PUSH1 0x0 REVERT JUMPDEST PUSH1 0x0 PUSH1 0x1 DUP3 ADD PUSH2 0x47B0 JUMPI PUSH2 0x47B0 PUSH2 0x470E JUMP JUMPDEST POP PUSH1 0x1 ADD SWAP1 JUMP JUMPDEST PUSH1 0x0 DUP3 PUSH2 0x47D4 JUMPI PUSH4 0x4E487B71 PUSH1 0xE0 SHL PUSH1 0x0 MSTORE PUSH1 0x12 PUSH1 0x4 MSTORE PUSH1 0x24 PUSH1 0x0 REVERT JUMPDEST POP DIV SWAP1 JUMP JUMPDEST PUSH1 0x1F DUP3 GT ISZERO PUSH2 0x4823 JUMPI PUSH1 0x0 DUP2 DUP2 MSTORE PUSH1 0x20 DUP2 KECCAK256 PUSH1 0x1F DUP6 ADD PUSH1 0x5 SHR DUP2 ADD PUSH1 0x20 DUP7 LT ISZERO PUSH2 0x4800 JUMPI POP DUP1 JUMPDEST PUSH1 0x1F DUP6 ADD PUSH1 0x5 SHR DUP3 ADD SWAP2 POP JUMPDEST DUP2 DUP2 LT ISZERO PUSH2 0x481F JUMPI DUP3 DUP2 SSTORE PUSH1 0x1 ADD PUSH2 0x480C JUMP JUMPDEST POP POP POP JUMPDEST POP POP POP JUMP JUMPDEST DUP2 MLOAD PUSH1 0x1 PUSH1 0x1 PUSH1 0x40 SHL SUB DUP2 GT ISZERO PUSH2 0x4841 JUMPI PUSH2 0x4841 PUSH2 0x4150 JUMP JUMPDEST PUSH2 0x4855 DUP2 PUSH2 0x484F DUP5 SLOAD PUSH2 0x474E JUMP JUMPDEST DUP5 PUSH2 0x47D9 JUMP JUMPDEST PUSH1 0x20 DUP1 PUSH1 0x1F DUP4 GT PUSH1 0x1 DUP2 EQ PUSH2 0x488A JUMPI PUSH1 0x0 DUP5 ISZERO PUSH2 0x4872 JUMPI POP DUP6 DUP4 ADD MLOAD JUMPDEST PUSH1 0x0 NOT PUSH1 0x3 DUP7 SWAP1 SHL SHR NOT AND PUSH1 0x1 DUP6 SWAP1 SHL OR DUP6 SSTORE PUSH2 0x481F JUMP JUMPDEST PUSH1 0x0 DUP6 DUP2 MSTORE PUSH1 0x20 DUP2 KECCAK256 PUSH1 0x1F NOT DUP7 AND SWAP2 JUMPDEST DUP3 DUP2 LT ISZERO PUSH2 0x48B9 JUMPI DUP9 DUP7 ADD MLOAD DUP3 SSTORE SWAP5 DUP5 ADD SWAP5 PUSH1 0x1 SWAP1 SWAP2 ADD SWAP1 DUP5 ADD PUSH2 0x489A JUMP JUMPDEST POP DUP6 DUP3 LT ISZERO PUSH2 0x48D7 JUMPI DUP8 DUP6 ADD MLOAD PUSH1 0x0 NOT PUSH1 0x3 DUP9 SWAP1 SHL PUSH1 0xF8 AND SHR NOT AND DUP2 SSTORE JUMPDEST POP POP POP POP POP PUSH1 0x1 SWAP1 DUP2 SHL ADD SWAP1 SSTORE POP JUMP JUMPDEST PUSH1 0x0 PUSH1 0x20 DUP3 DUP5 SUB SLT ISZERO PUSH2 0x48F9 JUMPI PUSH1 0x0 DUP1 REVERT JUMPDEST DUP2 MLOAD PUSH2 0x80B DUP2 PUSH2 0x4512 JUMP INVALID LOG2 PUSH5 0x6970667358 0x22 SLT KECCAK256 0xDA 0x1F PUSH1 0x63 SWAP7 0x23 0x4E 0xB2 0xCB 0xBE 0xBA 0xBA EQ DIV GASLIMIT 0x21 RETURN 0x2A 0xDB BASEFEE PUSH25 0xDE2A886B687CFFAB889CAD64736F6C63430008130033000000 "
				},
				"gasEstimates": {
					"creation": {
						"codeDepositCost": "3749200",
						"executionCost": "infinite",
						"totalCost": "infinite"
					},
					"external": {
						"allAnswers(uint256,uint256)": "11370",
						"allEarnings(uint256)": "13260",
						"allFundings(uint256)": "13282",
						"allParticipants(address)": "infinite",
						"allQuestions(uint256,uint256)": "infinite",
						"allResearchers(address)": "infinite",
						"allSurveys(uint256)": "infinite",
						"checkIfParticipantExists(address)": "2682",
						"checkIfParticipantHasAlreadyParticipatedInSurvey(address,uint256)": "2690",
						"checkIfResearcherExists(address)": "2750",
						"createFunding(uint256,uint256,uint256,address)": "infinite",
						"createParticipant(address,string,string,uint256)": "infinite",
						"createResearcher(address,string,string,string)": "infinite",
						"createSurvey(address,string,uint256,uint256,string[],uint256)": "infinite",
						"getAllAnswersOfParticipantOfSurvey(uint256,address)": "infinite",
						"getAllEarningsMadeByParticipant(address)": "infinite",
						"getAllQuestionsOfSurvey(uint256)": "infinite",
						"getAllSurveys()": "infinite",
						"getAllSurveysTakenByParticipant(address)": "infinite",
						"getAmountOfEarningForCanvassingForSurveyPerParticipantInWei(uint256,uint256)": "infinite",
						"getAmountOfEarningPerParticipantForSurveyInWei(uint256)": "infinite",
						"getAmountOfFundingOfAnySurveyInWei(uint256,uint256)": "infinite",
						"getAnswersOfSurvey(uint256)": "infinite",
						"getIdsOfLatestSurveysCreatedByResearchers(address)": "2660",
						"getParticipantByWalletAddress(address)": "infinite",
						"getParticipantsOfSurvey(uint256)": "infinite",
						"getQuestionsOfSurvey(uint256)": "infinite",
						"getResearcherByWalletAddress(address)": "infinite",
						"getSurveyById(uint256)": "infinite",
						"getSurveysCreatedByResearcher(address)": "infinite",
						"getTotalAmountFundedByResearcherInWei(address)": "2638",
						"getTotalAmountOfEarningsReceivedByParticipantInWei(address)": "infinite",
						"getTotalNumberOfSurveyCreatedByResearcher(address)": "2571",
						"idsOfLatestSurveysCreatedByResearchers(address)": "2574",
						"makePayoutAndCreateEarning(uint256,address)": "infinite",
						"participantsOfSurvey(uint256,uint256)": "infinite",
						"participateInSurvey(uint256,address,bool[])": "infinite",
						"participationStatusForSurvey(uint256,address)": "2718",
						"payoutStatusOfParticipantForSurvey(uint256,address)": "2674",
						"totalAmountFundedByResearchersInWei(address)": "2619",
						"totalNumberOfSurveysCreatedByResearchers(address)": "2575",
						"verifyResearcher(address)": "infinite"
					}
				},
				"methodIdentifiers": {
					"allAnswers(uint256,uint256)": "69bff3fb",
					"allEarnings(uint256)": "8e6da619",
					"allFundings(uint256)": "95ecea1f",
					"allParticipants(address)": "5b76074e",
					"allQuestions(uint256,uint256)": "fb47e9e6",
					"allResearchers(address)": "f692a3bb",
					"allSurveys(uint256)": "1b6f2485",
					"checkIfParticipantExists(address)": "6f5fde11",
					"checkIfParticipantHasAlreadyParticipatedInSurvey(address,uint256)": "a58543fe",
					"checkIfResearcherExists(address)": "9a23218f",
					"createFunding(uint256,uint256,uint256,address)": "b3265ecd",
					"createParticipant(address,string,string,uint256)": "3b43b7d0",
					"createResearcher(address,string,string,string)": "40ca213d",
					"createSurvey(address,string,uint256,uint256,string[],uint256)": "68df3299",
					"getAllAnswersOfParticipantOfSurvey(uint256,address)": "2076a35a",
					"getAllEarningsMadeByParticipant(address)": "392a5822",
					"getAllQuestionsOfSurvey(uint256)": "f31e72e4",
					"getAllSurveys()": "7a1bc375",
					"getAllSurveysTakenByParticipant(address)": "3abb615a",
					"getAmountOfEarningForCanvassingForSurveyPerParticipantInWei(uint256,uint256)": "44962609",
					"getAmountOfEarningPerParticipantForSurveyInWei(uint256)": "1bd1ebc4",
					"getAmountOfFundingOfAnySurveyInWei(uint256,uint256)": "03f16747",
					"getAnswersOfSurvey(uint256)": "cc4903ca",
					"getIdsOfLatestSurveysCreatedByResearchers(address)": "3882db7d",
					"getParticipantByWalletAddress(address)": "2394e5dc",
					"getParticipantsOfSurvey(uint256)": "964f6566",
					"getQuestionsOfSurvey(uint256)": "d8cb6290",
					"getResearcherByWalletAddress(address)": "0478318b",
					"getSurveyById(uint256)": "c0ac4ae4",
					"getSurveysCreatedByResearcher(address)": "07f6646e",
					"getTotalAmountFundedByResearcherInWei(address)": "79252d97",
					"getTotalAmountOfEarningsReceivedByParticipantInWei(address)": "25f18424",
					"getTotalNumberOfSurveyCreatedByResearcher(address)": "4fe1cfad",
					"idsOfLatestSurveysCreatedByResearchers(address)": "d7e93794",
					"makePayoutAndCreateEarning(uint256,address)": "6b8ac0e7",
					"participantsOfSurvey(uint256,uint256)": "125bb83d",
					"participateInSurvey(uint256,address,bool[])": "ca2e7f9b",
					"participationStatusForSurvey(uint256,address)": "b9c745b3",
					"payoutStatusOfParticipantForSurvey(uint256,address)": "7e950819",
					"totalAmountFundedByResearchersInWei(address)": "5fa7a90a",
					"totalNumberOfSurveysCreatedByResearchers(address)": "5822bff1",
					"verifyResearcher(address)": "73fd653d"
				}
			},
			"storageLayout": {
				"storage": [
					{
						"astId": 249,
						"contract": "smart-contracts/classroom/main/Canvassing_flattened.sol:Canvassing",
						"label": "canvassingWalletAddress",
						"offset": 0,
						"slot": "0",
						"type": "t_address"
					},
					{
						"astId": 254,
						"contract": "smart-contracts/classroom/main/Canvassing_flattened.sol:Canvassing",
						"label": "allResearchers",
						"offset": 0,
						"slot": "1",
						"type": "t_mapping(t_address,t_struct(Researcher)18_storage)"
					},
					{
						"astId": 259,
						"contract": "smart-contracts/classroom/main/Canvassing_flattened.sol:Canvassing",
						"label": "allParticipants",
						"offset": 0,
						"slot": "2",
						"type": "t_mapping(t_address,t_struct(Participant)35_storage)"
					},
					{
						"astId": 263,
						"contract": "smart-contracts/classroom/main/Canvassing_flattened.sol:Canvassing",
						"label": "allSurveys",
						"offset": 0,
						"slot": "3",
						"type": "t_array(t_struct(Survey)50_storage)dyn_storage"
					},
					{
						"astId": 269,
						"contract": "smart-contracts/classroom/main/Canvassing_flattened.sol:Canvassing",
						"label": "allQuestions",
						"offset": 0,
						"slot": "4",
						"type": "t_mapping(t_uint256,t_array(t_struct(Question)59_storage)dyn_storage)"
					},
					{
						"astId": 275,
						"contract": "smart-contracts/classroom/main/Canvassing_flattened.sol:Canvassing",
						"label": "allAnswers",
						"offset": 0,
						"slot": "5",
						"type": "t_mapping(t_uint256,t_array(t_struct(Answer)72_storage)dyn_storage)"
					},
					{
						"astId": 281,
						"contract": "smart-contracts/classroom/main/Canvassing_flattened.sol:Canvassing",
						"label": "participationStatusForSurvey",
						"offset": 0,
						"slot": "6",
						"type": "t_mapping(t_uint256,t_mapping(t_address,t_bool))"
					},
					{
						"astId": 287,
						"contract": "smart-contracts/classroom/main/Canvassing_flattened.sol:Canvassing",
						"label": "payoutStatusOfParticipantForSurvey",
						"offset": 0,
						"slot": "7",
						"type": "t_mapping(t_uint256,t_mapping(t_address,t_bool))"
					},
					{
						"astId": 291,
						"contract": "smart-contracts/classroom/main/Canvassing_flattened.sol:Canvassing",
						"label": "totalNumberOfSurveysCreatedByResearchers",
						"offset": 0,
						"slot": "8",
						"type": "t_mapping(t_address,t_uint256)"
					},
					{
						"astId": 295,
						"contract": "smart-contracts/classroom/main/Canvassing_flattened.sol:Canvassing",
						"label": "totalAmountFundedByResearchersInWei",
						"offset": 0,
						"slot": "9",
						"type": "t_mapping(t_address,t_uint256)"
					},
					{
						"astId": 299,
						"contract": "smart-contracts/classroom/main/Canvassing_flattened.sol:Canvassing",
						"label": "idsOfLatestSurveysCreatedByResearchers",
						"offset": 0,
						"slot": "10",
						"type": "t_mapping(t_address,t_uint256)"
					},
					{
						"astId": 305,
						"contract": "smart-contracts/classroom/main/Canvassing_flattened.sol:Canvassing",
						"label": "participantsOfSurvey",
						"offset": 0,
						"slot": "11",
						"type": "t_mapping(t_uint256,t_array(t_struct(Participant)35_storage)dyn_storage)"
					},
					{
						"astId": 309,
						"contract": "smart-contracts/classroom/main/Canvassing_flattened.sol:Canvassing",
						"label": "allFundings",
						"offset": 0,
						"slot": "12",
						"type": "t_array(t_struct(Funding)94_storage)dyn_storage"
					},
					{
						"astId": 313,
						"contract": "smart-contracts/classroom/main/Canvassing_flattened.sol:Canvassing",
						"label": "allEarnings",
						"offset": 0,
						"slot": "13",
						"type": "t_array(t_struct(Earning)83_storage)dyn_storage"
					},
					{
						"astId": 315,
						"contract": "smart-contracts/classroom/main/Canvassing_flattened.sol:Canvassing",
						"label": "currentResearcherId",
						"offset": 0,
						"slot": "14",
						"type": "t_uint256"
					},
					{
						"astId": 317,
						"contract": "smart-contracts/classroom/main/Canvassing_flattened.sol:Canvassing",
						"label": "currentParticipantId",
						"offset": 0,
						"slot": "15",
						"type": "t_uint256"
					},
					{
						"astId": 319,
						"contract": "smart-contracts/classroom/main/Canvassing_flattened.sol:Canvassing",
						"label": "currentSurveyId",
						"offset": 0,
						"slot": "16",
						"type": "t_uint256"
					},
					{
						"astId": 321,
						"contract": "smart-contracts/classroom/main/Canvassing_flattened.sol:Canvassing",
						"label": "currentQuestionId",
						"offset": 0,
						"slot": "17",
						"type": "t_uint256"
					},
					{
						"astId": 323,
						"contract": "smart-contracts/classroom/main/Canvassing_flattened.sol:Canvassing",
						"label": "currentAnswerId",
						"offset": 0,
						"slot": "18",
						"type": "t_uint256"
					},
					{
						"astId": 325,
						"contract": "smart-contracts/classroom/main/Canvassing_flattened.sol:Canvassing",
						"label": "currentEarningId",
						"offset": 0,
						"slot": "19",
						"type": "t_uint256"
					},
					{
						"astId": 327,
						"contract": "smart-contracts/classroom/main/Canvassing_flattened.sol:Canvassing",
						"label": "currentFundingId",
						"offset": 0,
						"slot": "20",
						"type": "t_uint256"
					},
					{
						"astId": 333,
						"contract": "smart-contracts/classroom/main/Canvassing_flattened.sol:Canvassing",
						"label": "cUSD",
						"offset": 0,
						"slot": "21",
						"type": "t_contract(ERC20)245"
					},
					{
						"astId": 341,
						"contract": "smart-contracts/classroom/main/Canvassing_flattened.sol:Canvassing",
						"label": "cUSDDecimalPlaces",
						"offset": 0,
						"slot": "22",
						"type": "t_uint256"
					}
				],
				"types": {
					"t_address": {
						"encoding": "inplace",
						"label": "address",
						"numberOfBytes": "20"
					},
					"t_array(t_struct(Answer)72_storage)dyn_storage": {
						"base": "t_struct(Answer)72_storage",
						"encoding": "dynamic_array",
						"label": "struct Answer[]",
						"numberOfBytes": "32"
					},
					"t_array(t_struct(Earning)83_storage)dyn_storage": {
						"base": "t_struct(Earning)83_storage",
						"encoding": "dynamic_array",
						"label": "struct Earning[]",
						"numberOfBytes": "32"
					},
					"t_array(t_struct(Funding)94_storage)dyn_storage": {
						"base": "t_struct(Funding)94_storage",
						"encoding": "dynamic_array",
						"label": "struct Funding[]",
						"numberOfBytes": "32"
					},
					"t_array(t_struct(Participant)35_storage)dyn_storage": {
						"base": "t_struct(Participant)35_storage",
						"encoding": "dynamic_array",
						"label": "struct Participant[]",
						"numberOfBytes": "32"
					},
					"t_array(t_struct(Question)59_storage)dyn_storage": {
						"base": "t_struct(Question)59_storage",
						"encoding": "dynamic_array",
						"label": "struct Question[]",
						"numberOfBytes": "32"
					},
					"t_array(t_struct(Survey)50_storage)dyn_storage": {
						"base": "t_struct(Survey)50_storage",
						"encoding": "dynamic_array",
						"label": "struct Survey[]",
						"numberOfBytes": "32"
					},
					"t_bool": {
						"encoding": "inplace",
						"label": "bool",
						"numberOfBytes": "1"
					},
					"t_contract(ERC20)245": {
						"encoding": "inplace",
						"label": "contract ERC20",
						"numberOfBytes": "20"
					},
					"t_mapping(t_address,t_bool)": {
						"encoding": "mapping",
						"key": "t_address",
						"label": "mapping(address => bool)",
						"numberOfBytes": "32",
						"value": "t_bool"
					},
					"t_mapping(t_address,t_struct(Participant)35_storage)": {
						"encoding": "mapping",
						"key": "t_address",
						"label": "mapping(address => struct Participant)",
						"numberOfBytes": "32",
						"value": "t_struct(Participant)35_storage"
					},
					"t_mapping(t_address,t_struct(Researcher)18_storage)": {
						"encoding": "mapping",
						"key": "t_address",
						"label": "mapping(address => struct Researcher)",
						"numberOfBytes": "32",
						"value": "t_struct(Researcher)18_storage"
					},
					"t_mapping(t_address,t_uint256)": {
						"encoding": "mapping",
						"key": "t_address",
						"label": "mapping(address => uint256)",
						"numberOfBytes": "32",
						"value": "t_uint256"
					},
					"t_mapping(t_uint256,t_array(t_struct(Answer)72_storage)dyn_storage)": {
						"encoding": "mapping",
						"key": "t_uint256",
						"label": "mapping(uint256 => struct Answer[])",
						"numberOfBytes": "32",
						"value": "t_array(t_struct(Answer)72_storage)dyn_storage"
					},
					"t_mapping(t_uint256,t_array(t_struct(Participant)35_storage)dyn_storage)": {
						"encoding": "mapping",
						"key": "t_uint256",
						"label": "mapping(uint256 => struct Participant[])",
						"numberOfBytes": "32",
						"value": "t_array(t_struct(Participant)35_storage)dyn_storage"
					},
					"t_mapping(t_uint256,t_array(t_struct(Question)59_storage)dyn_storage)": {
						"encoding": "mapping",
						"key": "t_uint256",
						"label": "mapping(uint256 => struct Question[])",
						"numberOfBytes": "32",
						"value": "t_array(t_struct(Question)59_storage)dyn_storage"
					},
					"t_mapping(t_uint256,t_mapping(t_address,t_bool))": {
						"encoding": "mapping",
						"key": "t_uint256",
						"label": "mapping(uint256 => mapping(address => bool))",
						"numberOfBytes": "32",
						"value": "t_mapping(t_address,t_bool)"
					},
					"t_string_storage": {
						"encoding": "bytes",
						"label": "string",
						"numberOfBytes": "32"
					},
					"t_struct(Answer)72_storage": {
						"encoding": "inplace",
						"label": "struct Answer",
						"members": [
							{
								"astId": 61,
								"contract": "smart-contracts/classroom/main/Canvassing_flattened.sol:Canvassing",
								"label": "id",
								"offset": 0,
								"slot": "0",
								"type": "t_uint256"
							},
							{
								"astId": 63,
								"contract": "smart-contracts/classroom/main/Canvassing_flattened.sol:Canvassing",
								"label": "questionId",
								"offset": 0,
								"slot": "1",
								"type": "t_uint256"
							},
							{
								"astId": 65,
								"contract": "smart-contracts/classroom/main/Canvassing_flattened.sol:Canvassing",
								"label": "surveyId",
								"offset": 0,
								"slot": "2",
								"type": "t_uint256"
							},
							{
								"astId": 67,
								"contract": "smart-contracts/classroom/main/Canvassing_flattened.sol:Canvassing",
								"label": "participantWalletAddress",
								"offset": 0,
								"slot": "3",
								"type": "t_address"
							},
							{
								"astId": 69,
								"contract": "smart-contracts/classroom/main/Canvassing_flattened.sol:Canvassing",
								"label": "value",
								"offset": 20,
								"slot": "3",
								"type": "t_bool"
							},
							{
								"astId": 71,
								"contract": "smart-contracts/classroom/main/Canvassing_flattened.sol:Canvassing",
								"label": "isBlank",
								"offset": 21,
								"slot": "3",
								"type": "t_bool"
							}
						],
						"numberOfBytes": "128"
					},
					"t_struct(Earning)83_storage": {
						"encoding": "inplace",
						"label": "struct Earning",
						"members": [
							{
								"astId": 74,
								"contract": "smart-contracts/classroom/main/Canvassing_flattened.sol:Canvassing",
								"label": "id",
								"offset": 0,
								"slot": "0",
								"type": "t_uint256"
							},
							{
								"astId": 76,
								"contract": "smart-contracts/classroom/main/Canvassing_flattened.sol:Canvassing",
								"label": "surveyId",
								"offset": 0,
								"slot": "1",
								"type": "t_uint256"
							},
							{
								"astId": 78,
								"contract": "smart-contracts/classroom/main/Canvassing_flattened.sol:Canvassing",
								"label": "recipientWalletAddress",
								"offset": 0,
								"slot": "2",
								"type": "t_address"
							},
							{
								"astId": 80,
								"contract": "smart-contracts/classroom/main/Canvassing_flattened.sol:Canvassing",
								"label": "amountPaidOutInWei",
								"offset": 0,
								"slot": "3",
								"type": "t_uint256"
							},
							{
								"astId": 82,
								"contract": "smart-contracts/classroom/main/Canvassing_flattened.sol:Canvassing",
								"label": "isBlank",
								"offset": 0,
								"slot": "4",
								"type": "t_bool"
							}
						],
						"numberOfBytes": "160"
					},
					"t_struct(Funding)94_storage": {
						"encoding": "inplace",
						"label": "struct Funding",
						"members": [
							{
								"astId": 85,
								"contract": "smart-contracts/classroom/main/Canvassing_flattened.sol:Canvassing",
								"label": "id",
								"offset": 0,
								"slot": "0",
								"type": "t_uint256"
							},
							{
								"astId": 87,
								"contract": "smart-contracts/classroom/main/Canvassing_flattened.sol:Canvassing",
								"label": "surveyId",
								"offset": 0,
								"slot": "1",
								"type": "t_uint256"
							},
							{
								"astId": 89,
								"contract": "smart-contracts/classroom/main/Canvassing_flattened.sol:Canvassing",
								"label": "creatingResearcherWalletAddress",
								"offset": 0,
								"slot": "2",
								"type": "t_address"
							},
							{
								"astId": 91,
								"contract": "smart-contracts/classroom/main/Canvassing_flattened.sol:Canvassing",
								"label": "amountFundedInWei",
								"offset": 0,
								"slot": "3",
								"type": "t_uint256"
							},
							{
								"astId": 93,
								"contract": "smart-contracts/classroom/main/Canvassing_flattened.sol:Canvassing",
								"label": "isBlank",
								"offset": 0,
								"slot": "4",
								"type": "t_bool"
							}
						],
						"numberOfBytes": "160"
					},
					"t_struct(Participant)35_storage": {
						"encoding": "inplace",
						"label": "struct Participant",
						"members": [
							{
								"astId": 20,
								"contract": "smart-contracts/classroom/main/Canvassing_flattened.sol:Canvassing",
								"label": "id",
								"offset": 0,
								"slot": "0",
								"type": "t_uint256"
							},
							{
								"astId": 22,
								"contract": "smart-contracts/classroom/main/Canvassing_flattened.sol:Canvassing",
								"label": "walletAddress",
								"offset": 0,
								"slot": "1",
								"type": "t_address"
							},
							{
								"astId": 24,
								"contract": "smart-contracts/classroom/main/Canvassing_flattened.sol:Canvassing",
								"label": "gender",
								"offset": 0,
								"slot": "2",
								"type": "t_string_storage"
							},
							{
								"astId": 26,
								"contract": "smart-contracts/classroom/main/Canvassing_flattened.sol:Canvassing",
								"label": "country",
								"offset": 0,
								"slot": "3",
								"type": "t_string_storage"
							},
							{
								"astId": 28,
								"contract": "smart-contracts/classroom/main/Canvassing_flattened.sol:Canvassing",
								"label": "yearOfBirth",
								"offset": 0,
								"slot": "4",
								"type": "t_uint256"
							},
							{
								"astId": 30,
								"contract": "smart-contracts/classroom/main/Canvassing_flattened.sol:Canvassing",
								"label": "totalNumberOfSurveysTaken",
								"offset": 0,
								"slot": "5",
								"type": "t_uint256"
							},
							{
								"astId": 32,
								"contract": "smart-contracts/classroom/main/Canvassing_flattened.sol:Canvassing",
								"label": "isResearcher",
								"offset": 0,
								"slot": "6",
								"type": "t_bool"
							},
							{
								"astId": 34,
								"contract": "smart-contracts/classroom/main/Canvassing_flattened.sol:Canvassing",
								"label": "isBlank",
								"offset": 1,
								"slot": "6",
								"type": "t_bool"
							}
						],
						"numberOfBytes": "224"
					},
					"t_struct(Question)59_storage": {
						"encoding": "inplace",
						"label": "struct Question",
						"members": [
							{
								"astId": 52,
								"contract": "smart-contracts/classroom/main/Canvassing_flattened.sol:Canvassing",
								"label": "id",
								"offset": 0,
								"slot": "0",
								"type": "t_uint256"
							},
							{
								"astId": 54,
								"contract": "smart-contracts/classroom/main/Canvassing_flattened.sol:Canvassing",
								"label": "surveyId",
								"offset": 0,
								"slot": "1",
								"type": "t_uint256"
							},
							{
								"astId": 56,
								"contract": "smart-contracts/classroom/main/Canvassing_flattened.sol:Canvassing",
								"label": "sentence",
								"offset": 0,
								"slot": "2",
								"type": "t_string_storage"
							},
							{
								"astId": 58,
								"contract": "smart-contracts/classroom/main/Canvassing_flattened.sol:Canvassing",
								"label": "isBlank",
								"offset": 0,
								"slot": "3",
								"type": "t_bool"
							}
						],
						"numberOfBytes": "128"
					},
					"t_struct(Researcher)18_storage": {
						"encoding": "inplace",
						"label": "struct Researcher",
						"members": [
							{
								"astId": 3,
								"contract": "smart-contracts/classroom/main/Canvassing_flattened.sol:Canvassing",
								"label": "id",
								"offset": 0,
								"slot": "0",
								"type": "t_uint256"
							},
							{
								"astId": 5,
								"contract": "smart-contracts/classroom/main/Canvassing_flattened.sol:Canvassing",
								"label": "walletAddress",
								"offset": 0,
								"slot": "1",
								"type": "t_address"
							},
							{
								"astId": 7,
								"contract": "smart-contracts/classroom/main/Canvassing_flattened.sol:Canvassing",
								"label": "industry",
								"offset": 0,
								"slot": "2",
								"type": "t_string_storage"
							},
							{
								"astId": 9,
								"contract": "smart-contracts/classroom/main/Canvassing_flattened.sol:Canvassing",
								"label": "numberOfEmployees",
								"offset": 0,
								"slot": "3",
								"type": "t_string_storage"
							},
							{
								"astId": 11,
								"contract": "smart-contracts/classroom/main/Canvassing_flattened.sol:Canvassing",
								"label": "yearsInOperation",
								"offset": 0,
								"slot": "4",
								"type": "t_string_storage"
							},
							{
								"astId": 13,
								"contract": "smart-contracts/classroom/main/Canvassing_flattened.sol:Canvassing",
								"label": "isParticipant",
								"offset": 0,
								"slot": "5",
								"type": "t_bool"
							},
							{
								"astId": 15,
								"contract": "smart-contracts/classroom/main/Canvassing_flattened.sol:Canvassing",
								"label": "isVerified",
								"offset": 1,
								"slot": "5",
								"type": "t_bool"
							},
							{
								"astId": 17,
								"contract": "smart-contracts/classroom/main/Canvassing_flattened.sol:Canvassing",
								"label": "isBlank",
								"offset": 2,
								"slot": "5",
								"type": "t_bool"
							}
						],
						"numberOfBytes": "192"
					},
					"t_struct(Survey)50_storage": {
						"encoding": "inplace",
						"label": "struct Survey",
						"members": [
							{
								"astId": 37,
								"contract": "smart-contracts/classroom/main/Canvassing_flattened.sol:Canvassing",
								"label": "id",
								"offset": 0,
								"slot": "0",
								"type": "t_uint256"
							},
							{
								"astId": 39,
								"contract": "smart-contracts/classroom/main/Canvassing_flattened.sol:Canvassing",
								"label": "creatingResearcherWalletAddress",
								"offset": 0,
								"slot": "1",
								"type": "t_address"
							},
							{
								"astId": 41,
								"contract": "smart-contracts/classroom/main/Canvassing_flattened.sol:Canvassing",
								"label": "topic",
								"offset": 0,
								"slot": "2",
								"type": "t_string_storage"
							},
							{
								"astId": 43,
								"contract": "smart-contracts/classroom/main/Canvassing_flattened.sol:Canvassing",
								"label": "numberOfQuestions",
								"offset": 0,
								"slot": "3",
								"type": "t_uint256"
							},
							{
								"astId": 45,
								"contract": "smart-contracts/classroom/main/Canvassing_flattened.sol:Canvassing",
								"label": "targetNumberOfParticipants",
								"offset": 0,
								"slot": "4",
								"type": "t_uint256"
							},
							{
								"astId": 47,
								"contract": "smart-contracts/classroom/main/Canvassing_flattened.sol:Canvassing",
								"label": "amountFundedInWei",
								"offset": 0,
								"slot": "5",
								"type": "t_uint256"
							},
							{
								"astId": 49,
								"contract": "smart-contracts/classroom/main/Canvassing_flattened.sol:Canvassing",
								"label": "isBlank",
								"offset": 0,
								"slot": "6",
								"type": "t_bool"
							}
						],
						"numberOfBytes": "224"
					},
					"t_uint256": {
						"encoding": "inplace",
						"label": "uint256",
						"numberOfBytes": "32"
					}
				}
			},
			"userdoc": {
				"kind": "user",
				"methods": {},
				"version": 1
			}
		}
	}
}