{
	"data": {
		"bytecode": {
			"linkReferences": {},
			"object": "608060408190526000805473ece897a85688f2e83a73fed36b9d1a6efcc99e936001600160a01b0319918216179091556015805473874069fa1eb16d44d622f2e0ca25eea172369bc192168217905563313ce56760e01b82529063313ce56790608490602090600481865afa1580156200007d573d6000803e3d6000fd5b505050506040513d601f19601f82011682018060405250810190620000a39190620000c7565b620000b090600a62000208565b601655348015620000c057600080fd5b5062000219565b600060208284031215620000da57600080fd5b815160ff81168114620000ec57600080fd5b9392505050565b634e487b7160e01b600052601160045260246000fd5b600181815b808511156200014a5781600019048211156200012e576200012e620000f3565b808516156200013c57918102915b93841c93908002906200010e565b509250929050565b600082620001635750600162000202565b81620001725750600062000202565b81600181146200018b57600281146200019657620001b6565b600191505062000202565b60ff841115620001aa57620001aa620000f3565b50506001821b62000202565b5060208310610133831016604e8410600b8410161715620001db575081810a62000202565b620001e7838362000109565b8060001904821115620001fe57620001fe620000f3565b0290505b92915050565b6000620000ec60ff84168362000152565b61439f80620002296000396000f3fe608060405234801561001057600080fd5b50600436106102535760003560e01c806368df3299116101465780639a23218f116100c3578063ca2e7f9b11610087578063ca2e7f9b146106b6578063cc4903ca146106c9578063d7e93794146106dc578063f31e72e4146106fc578063f692a3bb1461071c578063fb47e9e61461074257600080fd5b80639a23218f1461060a578063a58543fe1461061d578063b3265ecd14610655578063b9c745b314610668578063c0ac4ae41461069657600080fd5b80637a1bc3751161010a5780637a1bc375146105565780637e9508191461055e5780638e6da6191461058c57806395ecea1f146105d7578063964f6566146105ea57600080fd5b806368df3299146104ad57806369bff3fb146104c05780636b8ac0e71461050d5780636f5fde111461052057806373fd653d1461054357600080fd5b80633882db7d116101d45780634496260911610198578063449626091461041e5780634fe1cfad146104315780635822bff11461045a5780635b76074e1461047a5780635fa7a90a1461048d57600080fd5b80633882db7d14610386578063392a5822146103af5780633abb615a146103cf5780633b43b7d0146103e25780633bdd0ad1146103f557600080fd5b80631b6f24851161021b5780631b6f2485146102fa5780631bd1ebc4146103205780632076a35a146103335780632394e5dc1461035357806325f184241461037357600080fd5b806303f16747146102585780630478318b1461027e57806307f6646e1461029e578063125bb83d146102be578063196f7f1e146102e5575b600080fd5b61026b6102663660046137ab565b610765565b6040519081526020015b60405180910390f35b61029161028c3660046137e9565b6107f5565b6040516102759190613851565b6102b16102ac3660046137e9565b610907565b604051610275919061392b565b6102d16102cc3660046137ab565b610b1e565b60405161027598979695949392919061398d565b6102f86102f3366004613aab565b610ca2565b005b61030d610308366004613b01565b610e75565b6040516102759796959493929190613b1a565b61026b61032e366004613b01565b610f5a565b610346610341366004613b6c565b6110c5565b6040516102759190613b98565b6103666103613660046137e9565b6113b3565b6040516102759190613ca7565b61026b6103813660046137e9565b611555565b61026b6103943660046137e9565b6001600160a01b03166000908152600a602052604090205490565b6103c26103bd3660046137e9565b611620565b6040516102759190613cba565b6102b16103dd3660046137e9565b61176b565b6102f86103f0366004613d26565b611966565b61026b6104033660046137e9565b6001600160a01b031660009081526009602052604090205490565b61026b61042c3660046137ab565b611b36565b61026b61043f3660046137e9565b6001600160a01b031660009081526008602052604090205490565b61026b6104683660046137e9565b60086020526000908152604090205481565b6102d16104883660046137e9565b611c98565b61026b61049b3660046137e9565b60096020526000908152604090205481565b61026b6104bb366004613dc4565b611ccb565b6104d36104ce3660046137ab565b611f62565b604080519687526020870195909552938501929092526001600160a01b0316606084015215156080830152151560a082015260c001610275565b6102f861051b366004613b6c565b611fc7565b61053361052e3660046137e9565b6124aa565b6040519015158152602001610275565b6102f86105513660046137e9565b6124de565b6102b16126a2565b61053361056c366004613b6c565b600760209081526000928352604080842090915290825290205460ff1681565b61059f61059a366004613b01565b6127e6565b6040805195865260208601949094526001600160a01b039092169284019290925260608301919091521515608082015260a001610275565b61059f6105e5366004613b01565b612834565b6105fd6105f8366004613b01565b612844565b6040516102759190613eca565b6105336106183660046137e9565b612a34565b61053361062b366004613f1f565b60009081526006602090815260408083206001600160a01b03949094168352929052205460ff1690565b6102f8610663366004613f49565b612a60565b610533610676366004613b6c565b600660209081526000928352604080842090915290825290205460ff1681565b6106a96106a4366004613b01565b612bee565b6040516102759190613f88565b6102f86106c4366004613fac565b612d21565b6103466106d7366004613b01565b6132c5565b61026b6106ea3660046137e9565b600a6020526000908152604090205481565b61070f61070a366004613b01565b61337a565b6040516102759190614061565b61072f61072a3660046137e9565b613499565b60405161027597969594939291906140ef565b6107556107503660046137ab565b613570565b6040516102759493929190614141565b60165460009081906107779085614189565b61078190826141a0565b9050826005036107a657601654610799906002614189565b6107a390826141a0565b90505b826007036107c9576016546107bc906004614189565b6107c690826141a0565b90505b826009036107ec576016546107df906006614189565b6107e990826141a0565b90505b90505b92915050565b6107fd613648565b6001600160a01b03808316600090815260016020818152604092839020835160e081018552815481529281015490941690820152600283018054919392840191610846906141b3565b80601f0160208091040260200160405190810160405280929190818152602001828054610872906141b3565b80156108bf5780601f10610894576101008083540402835291602001916108bf565b820191906000526020600020905b8154815290600101906020018083116108a257829003601f168201915b50505091835250506003820154602082015260049091015460ff8082161515604084015261010082048116151560608401526201000090910416151560809091015292915050565b6001600160a01b038116600090815260086020526040812054606091816001600160401b0381111561093b5761093b6139f6565b60405190808252806020026020018201604052801561097457816020015b610961613694565b8152602001906001900390816109595790505b5090506000805b600354811015610b145760006003828154811061099a5761099a6141ed565b90600052602060002090600702016040518060e0016040529081600082015481526020016001820160009054906101000a90046001600160a01b03166001600160a01b03166001600160a01b031681526020016002820180546109fc906141b3565b80601f0160208091040260200160405190810160405280929190818152602001828054610a28906141b3565b8015610a755780601f10610a4a57610100808354040283529160200191610a75565b820191906000526020600020905b815481529060010190602001808311610a5857829003601f168201915b50505091835250506003820154602080830191909152600483015460408301526005830154606083015260069092015460ff1615156080909101528101519091506001600160a01b03808916911603610b015780848481518110610adb57610adb6141ed565b60200260200101819052508280610af190614203565b935050848303610b015750610b14565b5080610b0c81614203565b91505061097b565b5090949350505050565b600b6020528160005260406000208181548110610b3a57600080fd5b60009182526020909120600790910201805460018201546002830180549295506001600160a01b03909116935090610b71906141b3565b80601f0160208091040260200160405190810160405280929190818152602001828054610b9d906141b3565b8015610bea5780601f10610bbf57610100808354040283529160200191610bea565b820191906000526020600020905b815481529060010190602001808311610bcd57829003601f168201915b505050505090806003018054610bff906141b3565b80601f0160208091040260200160405190810160405280929190818152602001828054610c2b906141b3565b8015610c785780601f10610c4d57610100808354040283529160200191610c78565b820191906000526020600020905b815481529060010190602001808311610c5b57829003601f168201915b50505050600483015460058401546006909401549293909290915060ff8082169161010090041688565b600e54610cad613648565b8181526001600160a01b03851660208201526040810184905260608101839052600060a0820152610cdd856124aa565b15610daf576000610ced866113b3565b600160c08201819052608084018190526001600160a01b03888116600090815260026020818152604092839020865181559086015194810180546001600160a01b0319169590941694909417909255830151929350839290820190610d52908261426b565b5060608201516003820190610d67908261426b565b506080820151600482015560a0820151600582015560c08201516006909101805460e09093015115156101000261ff00199215159290921661ffff1990931692909217179055505b6001600160a01b03858116600090815260016020818152604092839020855181559085015191810180546001600160a01b03191692909416919091179092558201518291906002820190610e03908261426b565b506060820151600382015560808201516004909101805460a084015160c0909401511515620100000262ff0000199415156101000261ff00199415159490941661ffff19909216919091179290921792909216179055600e8054906000610e6983614203565b91905055505050505050565b60038181548110610e8557600080fd5b60009182526020909120600790910201805460018201546002830180549294506001600160a01b039091169291610ebb906141b3565b80601f0160208091040260200160405190810160405280929190818152602001828054610ee7906141b3565b8015610f345780601f10610f0957610100808354040283529160200191610f34565b820191906000526020600020905b815481529060010190602001808311610f1757829003601f168201915b505050506003830154600484015460058501546006909501549394919390925060ff1687565b60008060038381548110610f7057610f706141ed565b90600052602060002090600702016040518060e0016040529081600082015481526020016001820160009054906101000a90046001600160a01b03166001600160a01b03166001600160a01b03168152602001600282018054610fd2906141b3565b80601f0160208091040260200160405190810160405280929190818152602001828054610ffe906141b3565b801561104b5780601f106110205761010080835404028352916020019161104b565b820191906000526020600020905b81548152906001019060200180831161102e57829003601f168201915b50505091835250506003820154602082015260048201546040820152600580830154606083015260069092015460ff16151560809182015260a0830151908301519293509190600090600a906110a2908590614189565b6110ac919061432a565b905060006110ba838361432a565b979650505050505050565b60606000600384815481106110dc576110dc6141ed565b90600052602060002090600702016040518060e0016040529081600082015481526020016001820160009054906101000a90046001600160a01b03166001600160a01b03166001600160a01b0316815260200160028201805461113e906141b3565b80601f016020809104026020016040519081016040528092919081815260200182805461116a906141b3565b80156111b75780601f1061118c576101008083540402835291602001916111b7565b820191906000526020600020905b81548152906001019060200180831161119a57829003601f168201915b505050505081526020016003820154815260200160048201548152602001600582015481526020016006820160009054906101000a900460ff1615151515815250509050600060056000868152602001908152602001600020805480602002602001604051908101604052809291908181526020016000905b828210156112b05760008481526020908190206040805160c081018252600486029092018054835260018082015484860152600282015492840192909252600301546001600160a01b038116606084015260ff600160a01b8204811615156080850152600160a81b90910416151560a08301529083529092019101611230565b5050505060608301519091506000816001600160401b038111156112d6576112d66139f6565b60405190808252806020026020018201604052801561130f57816020015b6112fc6136dc565b8152602001906001900390816112f45790505b5090506000805b84518110156113a6576000858281518110611333576113336141ed565b60200260200101519050886001600160a01b031681606001516001600160a01b031603611393578084848151811061136d5761136d6141ed565b6020026020010181905250828061138390614203565b93505084830361139357506113a6565b508061139e81614203565b915050611316565b5090979650505050505050565b6113bb61371f565b6001600160a01b038083166000908152600260208181526040928390208351610100810185528154815260018201549095169185019190915290810180549192840191611407906141b3565b80601f0160208091040260200160405190810160405280929190818152602001828054611433906141b3565b80156114805780601f1061145557610100808354040283529160200191611480565b820191906000526020600020905b81548152906001019060200180831161146357829003601f168201915b50505050508152602001600382018054611499906141b3565b80601f01602080910402602001604051908101604052809291908181526020018280546114c5906141b3565b80156115125780601f106114e757610100808354040283529160200191611512565b820191906000526020600020905b8154815290600101906020018083116114f557829003601f168201915b5050509183525050600482015460208201526005820154604082015260069091015460ff8082161515606084015261010090910416151560809091015292915050565b6001600160a01b03811660009081526002602052604081206005015481816001600160401b0381111561158a5761158a6139f6565b6040519080825280602002602001820160405280156115c357816020015b6115b0613771565b8152602001906001900390816115a85790505b5090506000805b82518110156116175760008382815181106115e7576115e76141ed565b6020026020010151905080606001518361160191906141a0565b925050808061160f90614203565b9150506115ca565b50949350505050565b6001600160a01b038116600090815260026020526040812060050154606091816001600160401b03811115611657576116576139f6565b60405190808252806020026020018201604052801561169057816020015b61167d613771565b8152602001906001900390816116755790505b5090506000805b600d54811015610b14576000600d82815481106116b6576116b66141ed565b60009182526020918290206040805160a08101825260059093029091018054835260018101549383019390935260028301546001600160a01b039081169183018290526003840154606084015260049093015460ff161515608083015290925090881690036117585780848481518110611732576117326141ed565b6020026020010181905250828061174890614203565b9350508483036117585750610b14565b508061176381614203565b915050611697565b6060600061177883611620565b9050600081516001600160401b03811115611795576117956139f6565b6040519080825280602002602001820160405280156117ce57816020015b6117bb613694565b8152602001906001900390816117b35790505b5090506000805b8351811015610b145760008482815181106117f2576117f26141ed565b602002602001015190506003816020015181548110611813576118136141ed565b90600052602060002090600702016040518060e0016040529081600082015481526020016001820160009054906101000a90046001600160a01b03166001600160a01b03166001600160a01b03168152602001600282018054611875906141b3565b80601f01602080910402602001604051908101604052809291908181526020018280546118a1906141b3565b80156118ee5780601f106118c3576101008083540402835291602001916118ee565b820191906000526020600020905b8154815290600101906020018083116118d157829003601f168201915b505050918352505060038201546020820152600482015460408201526005820154606082015260069091015460ff1615156080909101528451859085908110611939576119396141ed565b6020026020010181905250828061194f90614203565b93505050808061195e90614203565b9150506117d5565b600f5461197161371f565b8181526001600160a01b03861660208201526040810185905260608101849052608081018390526119a186612a34565b15611a6d5760006119b1876107f5565b60016080820181905260c084018190526001600160a01b0389811660009081526020838152604091829020855181559085015193810180546001600160a01b031916949093169390931790915582015191925082916002820190611a15908261426b565b506060820151600382015560808201516004909101805460a084015160c0909401511515620100000262ff0000199415156101000261ff00199415159490941661ffff19909216919091179290921792909216179055505b6001600160a01b0386811660009081526002602081815260409283902085518155908501516001820180546001600160a01b031916919095161790935590830151839291820190611abe908261426b565b5060608201516003820190611ad3908261426b565b506080820151600482015560a0820151600582015560c08201516006909101805460e09093015115156101000261ff00199215159290921661ffff1990931692909217179055600f8054906000611b2983614203565b9190505550505050505050565b60008060038481548110611b4c57611b4c6141ed565b90600052602060002090600702016040518060e0016040529081600082015481526020016001820160009054906101000a90046001600160a01b03166001600160a01b03166001600160a01b03168152602001600282018054611bae906141b3565b80601f0160208091040260200160405190810160405280929190818152602001828054611bda906141b3565b8015611c275780601f10611bfc57610100808354040283529160200191611c27565b820191906000526020600020905b815481529060010190602001808311611c0a57829003601f168201915b50505091835250506003820154602082015260048201546040820152600580830154606083015260069092015460ff16151560809091015260a08201519192506000908590600a90611c7a908590614189565b611c84919061432a565b611c8e919061432a565b9695505050505050565b600260208190526000918252604090912080546001820154928201805491936001600160a01b03169291610b71906141b3565b601054600090611cd9613694565b8181526001600160a01b0389166020820152604081018890526060810187905260808101869052601654611d0d9085614189565b60a08201526003805460018101825560009190915281517fc2575a0e9e593c00f959f8c92f12db2869c3395a3b0502d05e2516446f71f85b600790920291820190815560208301517fc2575a0e9e593c00f959f8c92f12db2869c3395a3b0502d05e2516446f71f85c830180546001600160a01b0319166001600160a01b03909216919091179055604083015183927fc2575a0e9e593c00f959f8c92f12db2869c3395a3b0502d05e2516446f71f85d0190611dc9908261426b565b50606082015160038201556080820151600482015560a0820151600582015560c0909101516006909101805460ff191691151591909117905580516001600160a01b038a166000908152600a6020908152604080832093909355600890529081205490611e378260016141a0565b6001600160a01b038c1660009081526008602052604081208290559091505b89811015611f3c5760115460408051608081018252600060208201818152606093830184905292820152828152865190915289518a9084908110611e9c57611e9c6141ed565b6020908102919091018101516040808401918252885160009081526004808552918120805460018181018355918352918590208651929093029092019081559284015190830155518291906002820190611ef6908261426b565b50606091909101516003909101805460ff191691151591909117905560118054906000611f2283614203565b919050555050508080611f3490614203565b915050611e56565b5060108054906000611f4d83614203565b909155505091519a9950505050505050505050565b60056020528160005260406000208181548110611f7e57600080fd5b6000918252602090912060049091020180546001820154600283015460039093015491945092506001600160a01b0381169060ff600160a01b8204811691600160a81b90041686565b600060038381548110611fdc57611fdc6141ed565b90600052602060002090600702016040518060e0016040529081600082015481526020016001820160009054906101000a90046001600160a01b03166001600160a01b03166001600160a01b0316815260200160028201805461203e906141b3565b80601f016020809104026020016040519081016040528092919081815260200182805461206a906141b3565b80156120b75780601f1061208c576101008083540402835291602001916120b7565b820191906000526020600020905b81548152906001019060200180831161209a57829003601f168201915b505050918352505060038201546020820152600482015460408201526005820154606082015260069091015460ff161515608090910152905060006120fb84610f5a565b60155460405163a9059cbb60e01b81526001600160a01b0386811660048301526024820184905292935091169063a9059cbb906044016020604051808303816000875af1158015612150573d6000803e3d6000fd5b505050506040513d601f19601f82011682018060405250810190612174919061434c565b506000612185858460800151611b36565b60155460005460405163a9059cbb60e01b81526001600160a01b03918216600482015260248101849052929350169063a9059cbb906044016020604051808303816000875af11580156121dc573d6000803e3d6000fd5b505050506040513d601f19601f82011682018060405250810190612200919061434c565b50612209613771565b601380548252602082018781526001600160a01b038781166040850190815260608501878152600d8054600181018255600091825287517fd7b6990105719101dabeb77144f2a3385c8033acd3af97e9423a695e81ad1eb560059092029182015594517fd7b6990105719101dabeb77144f2a3385c8033acd3af97e9423a695e81ad1eb686015591517fd7b6990105719101dabeb77144f2a3385c8033acd3af97e9423a695e81ad1eb7850180546001600160a01b031916919094161790925590517fd7b6990105719101dabeb77144f2a3385c8033acd3af97e9423a695e81ad1eb883015560808401517fd7b6990105719101dabeb77144f2a3385c8033acd3af97e9423a695e81ad1eb9909201805460ff1916921515929092179091558154919061233583614203565b909155505060008681526007602090815260408083206001600160a01b03891684529091529020805460ff1916600117905561236f613771565b60138054825260208201888152600080546001600160a01b039081166040860190815260608601888152600d805460018101825590855287517fd7b6990105719101dabeb77144f2a3385c8033acd3af97e9423a695e81ad1eb560059092029182015594517fd7b6990105719101dabeb77144f2a3385c8033acd3af97e9423a695e81ad1eb686015590517fd7b6990105719101dabeb77144f2a3385c8033acd3af97e9423a695e81ad1eb7850180546001600160a01b0319169190931617909155517fd7b6990105719101dabeb77144f2a3385c8033acd3af97e9423a695e81ad1eb883015560808401517fd7b6990105719101dabeb77144f2a3385c8033acd3af97e9423a695e81ad1eb9909201805460ff1916921515929092179091558154919061249c83614203565b919050555050505050505050565b6001600160a01b03808216600081815260026020526040812060010154909216146124d65760006107ef565b600192915050565b6001600160a01b038082166000908152600160208181526040808420815160e081018352815481529381015490951691830191909152600284018054939492939184019161252b906141b3565b80601f0160208091040260200160405190810160405280929190818152602001828054612557906141b3565b80156125a45780601f10612579576101008083540402835291602001916125a4565b820191906000526020600020905b81548152906001019060200180831161258757829003601f168201915b5050509183525050600382015460208083019190915260049092015460ff8082161515604080850191909152610100830482161515606085015262010000909204161515608090920191909152600160a084018190526001600160a01b038681166000908152828552839020855181559385015191840180546001600160a01b0319169290911691909117905582015191925082916002820190612648908261426b565b506060820151600382015560808201516004909101805460a084015160c0909401511515620100000262ff0000199415156101000261ff00199415159490941661ffff199092169190911792909217929092161790555050565b60606003805480602002602001604051908101604052809291908181526020016000905b828210156127dd5760008481526020908190206040805160e081018252600786029092018054835260018101546001600160a01b03169383019390935260028301805492939291840191612719906141b3565b80601f0160208091040260200160405190810160405280929190818152602001828054612745906141b3565b80156127925780601f1061276757610100808354040283529160200191612792565b820191906000526020600020905b81548152906001019060200180831161277557829003601f168201915b50505091835250506003820154602080830191909152600483015460408301526005830154606083015260069092015460ff16151560809091015290825260019290920191016126c6565b50505050905090565b600d81815481106127f657600080fd5b60009182526020909120600590910201805460018201546002830154600384015460049094015492945090926001600160a01b039091169160ff1685565b600c81815481106127f657600080fd5b6060600b6000838152602001908152602001600020805480602002602001604051908101604052809291908181526020016000905b82821015612a295760008481526020908190206040805161010081018252600786029092018054835260018101546001600160a01b031693830193909352600283018054929392918401916128cd906141b3565b80601f01602080910402602001604051908101604052809291908181526020018280546128f9906141b3565b80156129465780601f1061291b57610100808354040283529160200191612946565b820191906000526020600020905b81548152906001019060200180831161292957829003601f168201915b5050505050815260200160038201805461295f906141b3565b80601f016020809104026020016040519081016040528092919081815260200182805461298b906141b3565b80156129d85780601f106129ad576101008083540402835291602001916129d8565b820191906000526020600020905b8154815290600101906020018083116129bb57829003601f168201915b505050918352505060048201546020808301919091526005830154604083015260069092015460ff808216151560608401526101009091041615156080909101529082526001929092019101612879565b505050509050919050565b6001600160a01b03808216600081815260016020819052604082200154909216146124d65760006107ef565b6000612a6c8585610765565b6014546040805160a08101825260006080820181815284835260208084018a81526001600160a01b038a8116868801818152606088018b8152600c805460018101825590895289517fdf6966c971051c3d54ec59162606531493a51404a002842f56009d7e5cf4a8c760059092029182015594517fdf6966c971051c3d54ec59162606531493a51404a002842f56009d7e5cf4a8c886015590517fdf6966c971051c3d54ec59162606531493a51404a002842f56009d7e5cf4a8c9850180546001600160a01b031916919094161790925590517fdf6966c971051c3d54ec59162606531493a51404a002842f56009d7e5cf4a8ca83015592517fdf6966c971051c3d54ec59162606531493a51404a002842f56009d7e5cf4a8cb909101805460ff19169115159190911790559082526009905291909120549293509091612bb384826141a0565b6001600160a01b03861660009081526009602052604081208290556014805492935090612bdf83614203565b91905055505050505050505050565b612bf6613694565b60038281548110612c0957612c096141ed565b90600052602060002090600702016040518060e0016040529081600082015481526020016001820160009054906101000a90046001600160a01b03166001600160a01b03166001600160a01b03168152602001600282018054612c6b906141b3565b80601f0160208091040260200160405190810160405280929190818152602001828054612c97906141b3565b8015612ce45780601f10612cb957610100808354040283529160200191612ce4565b820191906000526020600020905b815481529060010190602001808311612cc757829003601f168201915b505050918352505060038201546020820152600482015460408201526005820154606082015260069091015460ff16151560809091015292915050565b6001600160a01b0380831660009081526002602081815260408084208151610100810183528154815260018201549096169286019290925291810180549394939192840191612d6f906141b3565b80601f0160208091040260200160405190810160405280929190818152602001828054612d9b906141b3565b8015612de85780601f10612dbd57610100808354040283529160200191612de8565b820191906000526020600020905b815481529060010190602001808311612dcb57829003601f168201915b50505050508152602001600382018054612e01906141b3565b80601f0160208091040260200160405190810160405280929190818152602001828054612e2d906141b3565b8015612e7a5780601f10612e4f57610100808354040283529160200191612e7a565b820191906000526020600020905b815481529060010190602001808311612e5d57829003601f168201915b5050509183525050600482015460208201526005820154604082015260069091015460ff808216151560608401526101009091041615156080909101526003805491925060009186908110612ed157612ed16141ed565b90600052602060002090600702016040518060e0016040529081600082015481526020016001820160009054906101000a90046001600160a01b03166001600160a01b03166001600160a01b03168152602001600282018054612f33906141b3565b80601f0160208091040260200160405190810160405280929190818152602001828054612f5f906141b3565b8015612fac5780601f10612f8157610100808354040283529160200191612fac565b820191906000526020600020905b815481529060010190602001808311612f8f57829003601f168201915b50505091835250506003820154602082015260048201546040820152600582015460608083019190915260069092015460ff16151560809091015281015190915060005b818110156130ff576130006136dc565b60125480825260208201839052604082018990526001600160a01b03881660608301528651879084908110613037576130376141ed565b60209081029190910181015115156080840190815260008b8152600583526040808220805460018181018355918452858420885160049092020190815594870151908501558501516002840155606085015160039093018054925160a08701511515600160a81b0260ff60a81b19911515600160a01b026001600160a81b03199095166001600160a01b0390961695909517939093179290921692909217905560128054916130e583614203565b9190505550505080806130f790614203565b915050612ff0565b5060008681526006602090815260408083206001600160a01b03891684528252808320805460ff19166001179055888352600b9091529020613140866113b3565b815460018082018455600093845260209384902083516007909302019182559282015192810180546001600160a01b0319166001600160a01b03909416939093179092556040810151909190600282019061319b908261426b565b50606082015160038201906131b0908261426b565b506080820151600482015560a080830151600583015560c08301516006909201805460e09094015115156101000261ff00199315159390931661ffff199094169390931791909117909155830180516001919061320e9083906141a0565b9052506001600160a01b0385811660009081526002602081815260409283902087518155908701516001820180546001600160a01b031916919095161790935590850151859291820190613262908261426b565b5060608201516003820190613277908261426b565b506080820151600482015560a0820151600582015560c08201516006909101805460e09093015115156101000261ff00199215159290921661ffff1990931692909217179055505050505050565b606060056000838152602001908152602001600020805480602002602001604051908101604052809291908181526020016000905b82821015612a295760008481526020908190206040805160c081018252600486029092018054835260018082015484860152600282015492840192909252600301546001600160a01b038116606084015260ff600160a01b8204811615156080850152600160a81b90910416151560a083015290835290920191016132fa565b606060046000838152602001908152602001600020805480602002602001604051908101604052809291908181526020016000905b82821015612a29578382906000526020600020906004020160405180608001604052908160008201548152602001600182015481526020016002820180546133f6906141b3565b80601f0160208091040260200160405190810160405280929190818152602001828054613422906141b3565b801561346f5780601f106134445761010080835404028352916020019161346f565b820191906000526020600020905b81548152906001019060200180831161345257829003601f168201915b50505091835250506003919091015460ff16151560209182015290825260019290920191016133af565b60016020819052600091825260409091208054918101546002820180546001600160a01b0390921692916134cc906141b3565b80601f01602080910402602001604051908101604052809291908181526020018280546134f8906141b3565b80156135455780601f1061351a57610100808354040283529160200191613545565b820191906000526020600020905b81548152906001019060200180831161352857829003601f168201915b50505050600383015460049093015491929160ff808216925061010082048116916201000090041687565b6004602052816000526040600020818154811061358c57600080fd5b9060005260206000209060040201600091509150508060000154908060010154908060020180546135bc906141b3565b80601f01602080910402602001604051908101604052809291908181526020018280546135e8906141b3565b80156136355780601f1061360a57610100808354040283529160200191613635565b820191906000526020600020905b81548152906001019060200180831161361857829003601f168201915b5050506003909301549192505060ff1684565b6040518060e001604052806000815260200160006001600160a01b0316815260200160608152602001600081526020016000151581526020016000151581526020016000151581525090565b6040518060e001604052806000815260200160006001600160a01b03168152602001606081526020016000815260200160008152602001600081526020016000151581525090565b6040518060c0016040528060008152602001600081526020016000815260200160006001600160a01b031681526020016000151581526020016000151581525090565b6040518061010001604052806000815260200160006001600160a01b03168152602001606081526020016060815260200160008152602001600081526020016000151581526020016000151581525090565b6040518060a00160405280600081526020016000815260200160006001600160a01b03168152602001600081526020016000151581525090565b600080604083850312156137be57600080fd5b50508035926020909101359150565b80356001600160a01b03811681146137e457600080fd5b919050565b6000602082840312156137fb57600080fd5b613804826137cd565b9392505050565b6000815180845260005b8181101561383157602081850181015186830182015201613815565b506000602082860101526020601f19601f83011685010191505092915050565b602081528151602082015260018060a01b0360208301511660408201526000604083015160e0606084015261388a61010084018261380b565b9050606084015160808401526080840151151560a084015260a0840151151560c084015260c0840151151560e08401528091505092915050565b8051825260018060a01b0360208201511660208301526000604082015160e060408501526138f560e085018261380b565b9050606083015160608501526080830151608085015260a083015160a085015260c0830151151560c08501528091505092915050565b6000602080830181845280855180835260408601915060408160051b870101925083870160005b8281101561398057603f1988860301845261396e8583516138c4565b94509285019290850190600101613952565b5092979650505050505050565b8881526001600160a01b0388166020820152610100604082018190526000906139b88382018a61380b565b905082810360608401526139cc818961380b565b6080840197909752505060a081019390935290151560c0830152151560e090910152949350505050565b634e487b7160e01b600052604160045260246000fd5b604051601f8201601f191681016001600160401b0381118282101715613a3457613a346139f6565b604052919050565b600082601f830112613a4d57600080fd5b81356001600160401b03811115613a6657613a666139f6565b613a79601f8201601f1916602001613a0c565b818152846020838601011115613a8e57600080fd5b816020850160208301376000918101602001919091529392505050565b600080600060608486031215613ac057600080fd5b613ac9846137cd565b925060208401356001600160401b03811115613ae457600080fd5b613af086828701613a3c565b925050604084013590509250925092565b600060208284031215613b1357600080fd5b5035919050565b8781526001600160a01b038716602082015260e060408201819052600090613b449083018861380b565b90508560608301528460808301528360a083015282151560c083015298975050505050505050565b60008060408385031215613b7f57600080fd5b82359150613b8f602084016137cd565b90509250929050565b602080825282518282018190526000919060409081850190868401855b82811015613c1057815180518552868101518786015285810151868601526060808201516001600160a01b03169086015260808082015115159086015260a09081015115159085015260c09093019290850190600101613bb5565b5091979650505050505050565b60006101008251845260018060a01b0360208401511660208501526040830151816040860152613c4f8286018261380b565b91505060608301518482036060860152613c69828261380b565b9150506080830151608085015260a083015160a085015260c0830151151560c085015260e0830151613c9f60e086018215159052565b509392505050565b6020815260006138046020830184613c1d565b602080825282518282018190526000919060409081850190868401855b82811015613c10578151805185528681015187860152858101516001600160a01b0316868601526060808201519086015260809081015115159085015260a09093019290850190600101613cd7565b60008060008060808587031215613d3c57600080fd5b613d45856137cd565b935060208501356001600160401b0380821115613d6157600080fd5b613d6d88838901613a3c565b94506040870135915080821115613d8357600080fd5b50613d9087828801613a3c565b949793965093946060013593505050565b60006001600160401b03821115613dba57613dba6139f6565b5060051b60200190565b60008060008060008060c08789031215613ddd57600080fd5b613de6876137cd565b95506020808801356001600160401b0380821115613e0357600080fd5b613e0f8b838c01613a3c565b975060408a0135965060608a0135955060808a0135915080821115613e3357600080fd5b818a0191508a601f830112613e4757600080fd5b8135613e5a613e5582613da1565b613a0c565b81815260059190911b8301840190848101908d831115613e7957600080fd5b8585015b83811015613eaf578481351115613e9357600080fd5b613ea28f888335890101613a3c565b8352918601918601613e7d565b5080975050505050505060a087013590509295509295509295565b6000602080830181845280855180835260408601915060408160051b870101925083870160005b8281101561398057603f19888603018452613f0d858351613c1d565b94509285019290850190600101613ef1565b60008060408385031215613f3257600080fd5b613f3b836137cd565b946020939093013593505050565b60008060008060808587031215613f5f57600080fd5b843593506020850135925060408501359150613f7d606086016137cd565b905092959194509250565b60208152600061380460208301846138c4565b8015158114613fa957600080fd5b50565b600080600060608486031215613fc157600080fd5b833592506020613fd28186016137cd565b925060408501356001600160401b03811115613fed57600080fd5b8501601f81018713613ffe57600080fd5b803561400c613e5582613da1565b81815260059190911b8201830190838101908983111561402b57600080fd5b928401925b8284101561405257833561404381613f9b565b82529284019290840190614030565b80955050505050509250925092565b60006020808301818452808551808352604092508286019150828160051b87010184880160005b838110156140e157603f19898403018552815160808151855288820151898601528782015181898701526140be8287018261380b565b606093840151151596909301959095525094870194925090860190600101614088565b509098975050505050505050565b8781526001600160a01b038716602082015260e0604082018190526000906141199083018861380b565b606083019690965250921515608084015290151560a0830152151560c0909101529392505050565b848152836020820152608060408201526000614160608083018561380b565b9050821515606083015295945050505050565b634e487b7160e01b600052601160045260246000fd5b80820281158282048414176107ef576107ef614173565b808201808211156107ef576107ef614173565b600181811c908216806141c757607f821691505b6020821081036141e757634e487b7160e01b600052602260045260246000fd5b50919050565b634e487b7160e01b600052603260045260246000fd5b60006001820161421557614215614173565b5060010190565b601f82111561426657600081815260208120601f850160051c810160208610156142435750805b601f850160051c820191505b818110156142625782815560010161424f565b5050505b505050565b81516001600160401b03811115614284576142846139f6565b6142988161429284546141b3565b8461421c565b602080601f8311600181146142cd57600084156142b55750858301515b600019600386901b1c1916600185901b178555614262565b600085815260208120601f198616915b828110156142fc578886015182559484019460019091019084016142dd565b508582101561431a5787850151600019600388901b60f8161c191681555b5050505050600190811b01905550565b60008261434757634e487b7160e01b600052601260045260246000fd5b500490565b60006020828403121561435e57600080fd5b81516107ec81613f9b56fea26469706673582212200ac09c47826ff1dc0139219644282b75aa83ae9044fa376d84f7a2cfd1cdcba464736f6c63430008130033",
			"opcodes": "PUSH1 0x80 PUSH1 0x40 DUP2 SWAP1 MSTORE PUSH1 0x0 DUP1 SLOAD PUSH20 0xECE897A85688F2E83A73FED36B9D1A6EFCC99E93 PUSH1 0x1 PUSH1 0x1 PUSH1 0xA0 SHL SUB NOT SWAP2 DUP3 AND OR SWAP1 SWAP2 SSTORE PUSH1 0x15 DUP1 SLOAD PUSH20 0x874069FA1EB16D44D622F2E0CA25EEA172369BC1 SWAP3 AND DUP3 OR SWAP1 SSTORE PUSH4 0x313CE567 PUSH1 0xE0 SHL DUP3 MSTORE SWAP1 PUSH4 0x313CE567 SWAP1 PUSH1 0x84 SWAP1 PUSH1 0x20 SWAP1 PUSH1 0x4 DUP2 DUP7 GAS STATICCALL ISZERO DUP1 ISZERO PUSH3 0x7D JUMPI RETURNDATASIZE PUSH1 0x0 DUP1 RETURNDATACOPY RETURNDATASIZE PUSH1 0x0 REVERT JUMPDEST POP POP POP POP PUSH1 0x40 MLOAD RETURNDATASIZE PUSH1 0x1F NOT PUSH1 0x1F DUP3 ADD AND DUP3 ADD DUP1 PUSH1 0x40 MSTORE POP DUP2 ADD SWAP1 PUSH3 0xA3 SWAP2 SWAP1 PUSH3 0xC7 JUMP JUMPDEST PUSH3 0xB0 SWAP1 PUSH1 0xA PUSH3 0x208 JUMP JUMPDEST PUSH1 0x16 SSTORE CALLVALUE DUP1 ISZERO PUSH3 0xC0 JUMPI PUSH1 0x0 DUP1 REVERT JUMPDEST POP PUSH3 0x219 JUMP JUMPDEST PUSH1 0x0 PUSH1 0x20 DUP3 DUP5 SUB SLT ISZERO PUSH3 0xDA JUMPI PUSH1 0x0 DUP1 REVERT JUMPDEST DUP2 MLOAD PUSH1 0xFF DUP2 AND DUP2 EQ PUSH3 0xEC JUMPI PUSH1 0x0 DUP1 REVERT JUMPDEST SWAP4 SWAP3 POP POP POP JUMP JUMPDEST PUSH4 0x4E487B71 PUSH1 0xE0 SHL PUSH1 0x0 MSTORE PUSH1 0x11 PUSH1 0x4 MSTORE PUSH1 0x24 PUSH1 0x0 REVERT JUMPDEST PUSH1 0x1 DUP2 DUP2 JUMPDEST DUP1 DUP6 GT ISZERO PUSH3 0x14A JUMPI DUP2 PUSH1 0x0 NOT DIV DUP3 GT ISZERO PUSH3 0x12E JUMPI PUSH3 0x12E PUSH3 0xF3 JUMP JUMPDEST DUP1 DUP6 AND ISZERO PUSH3 0x13C JUMPI SWAP2 DUP2 MUL SWAP2 JUMPDEST SWAP4 DUP5 SHR SWAP4 SWAP1 DUP1 MUL SWAP1 PUSH3 0x10E JUMP JUMPDEST POP SWAP3 POP SWAP3 SWAP1 POP JUMP JUMPDEST PUSH1 0x0 DUP3 PUSH3 0x163 JUMPI POP PUSH1 0x1 PUSH3 0x202 JUMP JUMPDEST DUP2 PUSH3 0x172 JUMPI POP PUSH1 0x0 PUSH3 0x202 JUMP JUMPDEST DUP2 PUSH1 0x1 DUP2 EQ PUSH3 0x18B JUMPI PUSH1 0x2 DUP2 EQ PUSH3 0x196 JUMPI PUSH3 0x1B6 JUMP JUMPDEST PUSH1 0x1 SWAP2 POP POP PUSH3 0x202 JUMP JUMPDEST PUSH1 0xFF DUP5 GT ISZERO PUSH3 0x1AA JUMPI PUSH3 0x1AA PUSH3 0xF3 JUMP JUMPDEST POP POP PUSH1 0x1 DUP3 SHL PUSH3 0x202 JUMP JUMPDEST POP PUSH1 0x20 DUP4 LT PUSH2 0x133 DUP4 LT AND PUSH1 0x4E DUP5 LT PUSH1 0xB DUP5 LT AND OR ISZERO PUSH3 0x1DB JUMPI POP DUP2 DUP2 EXP PUSH3 0x202 JUMP JUMPDEST PUSH3 0x1E7 DUP4 DUP4 PUSH3 0x109 JUMP JUMPDEST DUP1 PUSH1 0x0 NOT DIV DUP3 GT ISZERO PUSH3 0x1FE JUMPI PUSH3 0x1FE PUSH3 0xF3 JUMP JUMPDEST MUL SWAP1 POP JUMPDEST SWAP3 SWAP2 POP POP JUMP JUMPDEST PUSH1 0x0 PUSH3 0xEC PUSH1 0xFF DUP5 AND DUP4 PUSH3 0x152 JUMP JUMPDEST PUSH2 0x439F DUP1 PUSH3 0x229 PUSH1 0x0 CODECOPY PUSH1 0x0 RETURN INVALID PUSH1 0x80 PUSH1 0x40 MSTORE CALLVALUE DUP1 ISZERO PUSH2 0x10 JUMPI PUSH1 0x0 DUP1 REVERT JUMPDEST POP PUSH1 0x4 CALLDATASIZE LT PUSH2 0x253 JUMPI PUSH1 0x0 CALLDATALOAD PUSH1 0xE0 SHR DUP1 PUSH4 0x68DF3299 GT PUSH2 0x146 JUMPI DUP1 PUSH4 0x9A23218F GT PUSH2 0xC3 JUMPI DUP1 PUSH4 0xCA2E7F9B GT PUSH2 0x87 JUMPI DUP1 PUSH4 0xCA2E7F9B EQ PUSH2 0x6B6 JUMPI DUP1 PUSH4 0xCC4903CA EQ PUSH2 0x6C9 JUMPI DUP1 PUSH4 0xD7E93794 EQ PUSH2 0x6DC JUMPI DUP1 PUSH4 0xF31E72E4 EQ PUSH2 0x6FC JUMPI DUP1 PUSH4 0xF692A3BB EQ PUSH2 0x71C JUMPI DUP1 PUSH4 0xFB47E9E6 EQ PUSH2 0x742 JUMPI PUSH1 0x0 DUP1 REVERT JUMPDEST DUP1 PUSH4 0x9A23218F EQ PUSH2 0x60A JUMPI DUP1 PUSH4 0xA58543FE EQ PUSH2 0x61D JUMPI DUP1 PUSH4 0xB3265ECD EQ PUSH2 0x655 JUMPI DUP1 PUSH4 0xB9C745B3 EQ PUSH2 0x668 JUMPI DUP1 PUSH4 0xC0AC4AE4 EQ PUSH2 0x696 JUMPI PUSH1 0x0 DUP1 REVERT JUMPDEST DUP1 PUSH4 0x7A1BC375 GT PUSH2 0x10A JUMPI DUP1 PUSH4 0x7A1BC375 EQ PUSH2 0x556 JUMPI DUP1 PUSH4 0x7E950819 EQ PUSH2 0x55E JUMPI DUP1 PUSH4 0x8E6DA619 EQ PUSH2 0x58C JUMPI DUP1 PUSH4 0x95ECEA1F EQ PUSH2 0x5D7 JUMPI DUP1 PUSH4 0x964F6566 EQ PUSH2 0x5EA JUMPI PUSH1 0x0 DUP1 REVERT JUMPDEST DUP1 PUSH4 0x68DF3299 EQ PUSH2 0x4AD JUMPI DUP1 PUSH4 0x69BFF3FB EQ PUSH2 0x4C0 JUMPI DUP1 PUSH4 0x6B8AC0E7 EQ PUSH2 0x50D JUMPI DUP1 PUSH4 0x6F5FDE11 EQ PUSH2 0x520 JUMPI DUP1 PUSH4 0x73FD653D EQ PUSH2 0x543 JUMPI PUSH1 0x0 DUP1 REVERT JUMPDEST DUP1 PUSH4 0x3882DB7D GT PUSH2 0x1D4 JUMPI DUP1 PUSH4 0x44962609 GT PUSH2 0x198 JUMPI DUP1 PUSH4 0x44962609 EQ PUSH2 0x41E JUMPI DUP1 PUSH4 0x4FE1CFAD EQ PUSH2 0x431 JUMPI DUP1 PUSH4 0x5822BFF1 EQ PUSH2 0x45A JUMPI DUP1 PUSH4 0x5B76074E EQ PUSH2 0x47A JUMPI DUP1 PUSH4 0x5FA7A90A EQ PUSH2 0x48D JUMPI PUSH1 0x0 DUP1 REVERT JUMPDEST DUP1 PUSH4 0x3882DB7D EQ PUSH2 0x386 JUMPI DUP1 PUSH4 0x392A5822 EQ PUSH2 0x3AF JUMPI DUP1 PUSH4 0x3ABB615A EQ PUSH2 0x3CF JUMPI DUP1 PUSH4 0x3B43B7D0 EQ PUSH2 0x3E2 JUMPI DUP1 PUSH4 0x3BDD0AD1 EQ PUSH2 0x3F5 JUMPI PUSH1 0x0 DUP1 REVERT JUMPDEST DUP1 PUSH4 0x1B6F2485 GT PUSH2 0x21B JUMPI DUP1 PUSH4 0x1B6F2485 EQ PUSH2 0x2FA JUMPI DUP1 PUSH4 0x1BD1EBC4 EQ PUSH2 0x320 JUMPI DUP1 PUSH4 0x2076A35A EQ PUSH2 0x333 JUMPI DUP1 PUSH4 0x2394E5DC EQ PUSH2 0x353 JUMPI DUP1 PUSH4 0x25F18424 EQ PUSH2 0x373 JUMPI PUSH1 0x0 DUP1 REVERT JUMPDEST DUP1 PUSH4 0x3F16747 EQ PUSH2 0x258 JUMPI DUP1 PUSH4 0x478318B EQ PUSH2 0x27E JUMPI DUP1 PUSH4 0x7F6646E EQ PUSH2 0x29E JUMPI DUP1 PUSH4 0x125BB83D EQ PUSH2 0x2BE JUMPI DUP1 PUSH4 0x196F7F1E EQ PUSH2 0x2E5 JUMPI JUMPDEST PUSH1 0x0 DUP1 REVERT JUMPDEST PUSH2 0x26B PUSH2 0x266 CALLDATASIZE PUSH1 0x4 PUSH2 0x37AB JUMP JUMPDEST PUSH2 0x765 JUMP JUMPDEST PUSH1 0x40 MLOAD SWAP1 DUP2 MSTORE PUSH1 0x20 ADD JUMPDEST PUSH1 0x40 MLOAD DUP1 SWAP2 SUB SWAP1 RETURN JUMPDEST PUSH2 0x291 PUSH2 0x28C CALLDATASIZE PUSH1 0x4 PUSH2 0x37E9 JUMP JUMPDEST PUSH2 0x7F5 JUMP JUMPDEST PUSH1 0x40 MLOAD PUSH2 0x275 SWAP2 SWAP1 PUSH2 0x3851 JUMP JUMPDEST PUSH2 0x2B1 PUSH2 0x2AC CALLDATASIZE PUSH1 0x4 PUSH2 0x37E9 JUMP JUMPDEST PUSH2 0x907 JUMP JUMPDEST PUSH1 0x40 MLOAD PUSH2 0x275 SWAP2 SWAP1 PUSH2 0x392B JUMP JUMPDEST PUSH2 0x2D1 PUSH2 0x2CC CALLDATASIZE PUSH1 0x4 PUSH2 0x37AB JUMP JUMPDEST PUSH2 0xB1E JUMP JUMPDEST PUSH1 0x40 MLOAD PUSH2 0x275 SWAP9 SWAP8 SWAP7 SWAP6 SWAP5 SWAP4 SWAP3 SWAP2 SWAP1 PUSH2 0x398D JUMP JUMPDEST PUSH2 0x2F8 PUSH2 0x2F3 CALLDATASIZE PUSH1 0x4 PUSH2 0x3AAB JUMP JUMPDEST PUSH2 0xCA2 JUMP JUMPDEST STOP JUMPDEST PUSH2 0x30D PUSH2 0x308 CALLDATASIZE PUSH1 0x4 PUSH2 0x3B01 JUMP JUMPDEST PUSH2 0xE75 JUMP JUMPDEST PUSH1 0x40 MLOAD PUSH2 0x275 SWAP8 SWAP7 SWAP6 SWAP5 SWAP4 SWAP3 SWAP2 SWAP1 PUSH2 0x3B1A JUMP JUMPDEST PUSH2 0x26B PUSH2 0x32E CALLDATASIZE PUSH1 0x4 PUSH2 0x3B01 JUMP JUMPDEST PUSH2 0xF5A JUMP JUMPDEST PUSH2 0x346 PUSH2 0x341 CALLDATASIZE PUSH1 0x4 PUSH2 0x3B6C JUMP JUMPDEST PUSH2 0x10C5 JUMP JUMPDEST PUSH1 0x40 MLOAD PUSH2 0x275 SWAP2 SWAP1 PUSH2 0x3B98 JUMP JUMPDEST PUSH2 0x366 PUSH2 0x361 CALLDATASIZE PUSH1 0x4 PUSH2 0x37E9 JUMP JUMPDEST PUSH2 0x13B3 JUMP JUMPDEST PUSH1 0x40 MLOAD PUSH2 0x275 SWAP2 SWAP1 PUSH2 0x3CA7 JUMP JUMPDEST PUSH2 0x26B PUSH2 0x381 CALLDATASIZE PUSH1 0x4 PUSH2 0x37E9 JUMP JUMPDEST PUSH2 0x1555 JUMP JUMPDEST PUSH2 0x26B PUSH2 0x394 CALLDATASIZE PUSH1 0x4 PUSH2 0x37E9 JUMP JUMPDEST PUSH1 0x1 PUSH1 0x1 PUSH1 0xA0 SHL SUB AND PUSH1 0x0 SWAP1 DUP2 MSTORE PUSH1 0xA PUSH1 0x20 MSTORE PUSH1 0x40 SWAP1 KECCAK256 SLOAD SWAP1 JUMP JUMPDEST PUSH2 0x3C2 PUSH2 0x3BD CALLDATASIZE PUSH1 0x4 PUSH2 0x37E9 JUMP JUMPDEST PUSH2 0x1620 JUMP JUMPDEST PUSH1 0x40 MLOAD PUSH2 0x275 SWAP2 SWAP1 PUSH2 0x3CBA JUMP JUMPDEST PUSH2 0x2B1 PUSH2 0x3DD CALLDATASIZE PUSH1 0x4 PUSH2 0x37E9 JUMP JUMPDEST PUSH2 0x176B JUMP JUMPDEST PUSH2 0x2F8 PUSH2 0x3F0 CALLDATASIZE PUSH1 0x4 PUSH2 0x3D26 JUMP JUMPDEST PUSH2 0x1966 JUMP JUMPDEST PUSH2 0x26B PUSH2 0x403 CALLDATASIZE PUSH1 0x4 PUSH2 0x37E9 JUMP JUMPDEST PUSH1 0x1 PUSH1 0x1 PUSH1 0xA0 SHL SUB AND PUSH1 0x0 SWAP1 DUP2 MSTORE PUSH1 0x9 PUSH1 0x20 MSTORE PUSH1 0x40 SWAP1 KECCAK256 SLOAD SWAP1 JUMP JUMPDEST PUSH2 0x26B PUSH2 0x42C CALLDATASIZE PUSH1 0x4 PUSH2 0x37AB JUMP JUMPDEST PUSH2 0x1B36 JUMP JUMPDEST PUSH2 0x26B PUSH2 0x43F CALLDATASIZE PUSH1 0x4 PUSH2 0x37E9 JUMP JUMPDEST PUSH1 0x1 PUSH1 0x1 PUSH1 0xA0 SHL SUB AND PUSH1 0x0 SWAP1 DUP2 MSTORE PUSH1 0x8 PUSH1 0x20 MSTORE PUSH1 0x40 SWAP1 KECCAK256 SLOAD SWAP1 JUMP JUMPDEST PUSH2 0x26B PUSH2 0x468 CALLDATASIZE PUSH1 0x4 PUSH2 0x37E9 JUMP JUMPDEST PUSH1 0x8 PUSH1 0x20 MSTORE PUSH1 0x0 SWAP1 DUP2 MSTORE PUSH1 0x40 SWAP1 KECCAK256 SLOAD DUP2 JUMP JUMPDEST PUSH2 0x2D1 PUSH2 0x488 CALLDATASIZE PUSH1 0x4 PUSH2 0x37E9 JUMP JUMPDEST PUSH2 0x1C98 JUMP JUMPDEST PUSH2 0x26B PUSH2 0x49B CALLDATASIZE PUSH1 0x4 PUSH2 0x37E9 JUMP JUMPDEST PUSH1 0x9 PUSH1 0x20 MSTORE PUSH1 0x0 SWAP1 DUP2 MSTORE PUSH1 0x40 SWAP1 KECCAK256 SLOAD DUP2 JUMP JUMPDEST PUSH2 0x26B PUSH2 0x4BB CALLDATASIZE PUSH1 0x4 PUSH2 0x3DC4 JUMP JUMPDEST PUSH2 0x1CCB JUMP JUMPDEST PUSH2 0x4D3 PUSH2 0x4CE CALLDATASIZE PUSH1 0x4 PUSH2 0x37AB JUMP JUMPDEST PUSH2 0x1F62 JUMP JUMPDEST PUSH1 0x40 DUP1 MLOAD SWAP7 DUP8 MSTORE PUSH1 0x20 DUP8 ADD SWAP6 SWAP1 SWAP6 MSTORE SWAP4 DUP6 ADD SWAP3 SWAP1 SWAP3 MSTORE PUSH1 0x1 PUSH1 0x1 PUSH1 0xA0 SHL SUB AND PUSH1 0x60 DUP5 ADD MSTORE ISZERO ISZERO PUSH1 0x80 DUP4 ADD MSTORE ISZERO ISZERO PUSH1 0xA0 DUP3 ADD MSTORE PUSH1 0xC0 ADD PUSH2 0x275 JUMP JUMPDEST PUSH2 0x2F8 PUSH2 0x51B CALLDATASIZE PUSH1 0x4 PUSH2 0x3B6C JUMP JUMPDEST PUSH2 0x1FC7 JUMP JUMPDEST PUSH2 0x533 PUSH2 0x52E CALLDATASIZE PUSH1 0x4 PUSH2 0x37E9 JUMP JUMPDEST PUSH2 0x24AA JUMP JUMPDEST PUSH1 0x40 MLOAD SWAP1 ISZERO ISZERO DUP2 MSTORE PUSH1 0x20 ADD PUSH2 0x275 JUMP JUMPDEST PUSH2 0x2F8 PUSH2 0x551 CALLDATASIZE PUSH1 0x4 PUSH2 0x37E9 JUMP JUMPDEST PUSH2 0x24DE JUMP JUMPDEST PUSH2 0x2B1 PUSH2 0x26A2 JUMP JUMPDEST PUSH2 0x533 PUSH2 0x56C CALLDATASIZE PUSH1 0x4 PUSH2 0x3B6C JUMP JUMPDEST PUSH1 0x7 PUSH1 0x20 SWAP1 DUP2 MSTORE PUSH1 0x0 SWAP3 DUP4 MSTORE PUSH1 0x40 DUP1 DUP5 KECCAK256 SWAP1 SWAP2 MSTORE SWAP1 DUP3 MSTORE SWAP1 KECCAK256 SLOAD PUSH1 0xFF AND DUP2 JUMP JUMPDEST PUSH2 0x59F PUSH2 0x59A CALLDATASIZE PUSH1 0x4 PUSH2 0x3B01 JUMP JUMPDEST PUSH2 0x27E6 JUMP JUMPDEST PUSH1 0x40 DUP1 MLOAD SWAP6 DUP7 MSTORE PUSH1 0x20 DUP7 ADD SWAP5 SWAP1 SWAP5 MSTORE PUSH1 0x1 PUSH1 0x1 PUSH1 0xA0 SHL SUB SWAP1 SWAP3 AND SWAP3 DUP5 ADD SWAP3 SWAP1 SWAP3 MSTORE PUSH1 0x60 DUP4 ADD SWAP2 SWAP1 SWAP2 MSTORE ISZERO ISZERO PUSH1 0x80 DUP3 ADD MSTORE PUSH1 0xA0 ADD PUSH2 0x275 JUMP JUMPDEST PUSH2 0x59F PUSH2 0x5E5 CALLDATASIZE PUSH1 0x4 PUSH2 0x3B01 JUMP JUMPDEST PUSH2 0x2834 JUMP JUMPDEST PUSH2 0x5FD PUSH2 0x5F8 CALLDATASIZE PUSH1 0x4 PUSH2 0x3B01 JUMP JUMPDEST PUSH2 0x2844 JUMP JUMPDEST PUSH1 0x40 MLOAD PUSH2 0x275 SWAP2 SWAP1 PUSH2 0x3ECA JUMP JUMPDEST PUSH2 0x533 PUSH2 0x618 CALLDATASIZE PUSH1 0x4 PUSH2 0x37E9 JUMP JUMPDEST PUSH2 0x2A34 JUMP JUMPDEST PUSH2 0x533 PUSH2 0x62B CALLDATASIZE PUSH1 0x4 PUSH2 0x3F1F JUMP JUMPDEST PUSH1 0x0 SWAP1 DUP2 MSTORE PUSH1 0x6 PUSH1 0x20 SWAP1 DUP2 MSTORE PUSH1 0x40 DUP1 DUP4 KECCAK256 PUSH1 0x1 PUSH1 0x1 PUSH1 0xA0 SHL SUB SWAP5 SWAP1 SWAP5 AND DUP4 MSTORE SWAP3 SWAP1 MSTORE KECCAK256 SLOAD PUSH1 0xFF AND SWAP1 JUMP JUMPDEST PUSH2 0x2F8 PUSH2 0x663 CALLDATASIZE PUSH1 0x4 PUSH2 0x3F49 JUMP JUMPDEST PUSH2 0x2A60 JUMP JUMPDEST PUSH2 0x533 PUSH2 0x676 CALLDATASIZE PUSH1 0x4 PUSH2 0x3B6C JUMP JUMPDEST PUSH1 0x6 PUSH1 0x20 SWAP1 DUP2 MSTORE PUSH1 0x0 SWAP3 DUP4 MSTORE PUSH1 0x40 DUP1 DUP5 KECCAK256 SWAP1 SWAP2 MSTORE SWAP1 DUP3 MSTORE SWAP1 KECCAK256 SLOAD PUSH1 0xFF AND DUP2 JUMP JUMPDEST PUSH2 0x6A9 PUSH2 0x6A4 CALLDATASIZE PUSH1 0x4 PUSH2 0x3B01 JUMP JUMPDEST PUSH2 0x2BEE JUMP JUMPDEST PUSH1 0x40 MLOAD PUSH2 0x275 SWAP2 SWAP1 PUSH2 0x3F88 JUMP JUMPDEST PUSH2 0x2F8 PUSH2 0x6C4 CALLDATASIZE PUSH1 0x4 PUSH2 0x3FAC JUMP JUMPDEST PUSH2 0x2D21 JUMP JUMPDEST PUSH2 0x346 PUSH2 0x6D7 CALLDATASIZE PUSH1 0x4 PUSH2 0x3B01 JUMP JUMPDEST PUSH2 0x32C5 JUMP JUMPDEST PUSH2 0x26B PUSH2 0x6EA CALLDATASIZE PUSH1 0x4 PUSH2 0x37E9 JUMP JUMPDEST PUSH1 0xA PUSH1 0x20 MSTORE PUSH1 0x0 SWAP1 DUP2 MSTORE PUSH1 0x40 SWAP1 KECCAK256 SLOAD DUP2 JUMP JUMPDEST PUSH2 0x70F PUSH2 0x70A CALLDATASIZE PUSH1 0x4 PUSH2 0x3B01 JUMP JUMPDEST PUSH2 0x337A JUMP JUMPDEST PUSH1 0x40 MLOAD PUSH2 0x275 SWAP2 SWAP1 PUSH2 0x4061 JUMP JUMPDEST PUSH2 0x72F PUSH2 0x72A CALLDATASIZE PUSH1 0x4 PUSH2 0x37E9 JUMP JUMPDEST PUSH2 0x3499 JUMP JUMPDEST PUSH1 0x40 MLOAD PUSH2 0x275 SWAP8 SWAP7 SWAP6 SWAP5 SWAP4 SWAP3 SWAP2 SWAP1 PUSH2 0x40EF JUMP JUMPDEST PUSH2 0x755 PUSH2 0x750 CALLDATASIZE PUSH1 0x4 PUSH2 0x37AB JUMP JUMPDEST PUSH2 0x3570 JUMP JUMPDEST PUSH1 0x40 MLOAD PUSH2 0x275 SWAP5 SWAP4 SWAP3 SWAP2 SWAP1 PUSH2 0x4141 JUMP JUMPDEST PUSH1 0x16 SLOAD PUSH1 0x0 SWAP1 DUP2 SWAP1 PUSH2 0x777 SWAP1 DUP6 PUSH2 0x4189 JUMP JUMPDEST PUSH2 0x781 SWAP1 DUP3 PUSH2 0x41A0 JUMP JUMPDEST SWAP1 POP DUP3 PUSH1 0x5 SUB PUSH2 0x7A6 JUMPI PUSH1 0x16 SLOAD PUSH2 0x799 SWAP1 PUSH1 0x2 PUSH2 0x4189 JUMP JUMPDEST PUSH2 0x7A3 SWAP1 DUP3 PUSH2 0x41A0 JUMP JUMPDEST SWAP1 POP JUMPDEST DUP3 PUSH1 0x7 SUB PUSH2 0x7C9 JUMPI PUSH1 0x16 SLOAD PUSH2 0x7BC SWAP1 PUSH1 0x4 PUSH2 0x4189 JUMP JUMPDEST PUSH2 0x7C6 SWAP1 DUP3 PUSH2 0x41A0 JUMP JUMPDEST SWAP1 POP JUMPDEST DUP3 PUSH1 0x9 SUB PUSH2 0x7EC JUMPI PUSH1 0x16 SLOAD PUSH2 0x7DF SWAP1 PUSH1 0x6 PUSH2 0x4189 JUMP JUMPDEST PUSH2 0x7E9 SWAP1 DUP3 PUSH2 0x41A0 JUMP JUMPDEST SWAP1 POP JUMPDEST SWAP1 POP JUMPDEST SWAP3 SWAP2 POP POP JUMP JUMPDEST PUSH2 0x7FD PUSH2 0x3648 JUMP JUMPDEST PUSH1 0x1 PUSH1 0x1 PUSH1 0xA0 SHL SUB DUP1 DUP4 AND PUSH1 0x0 SWAP1 DUP2 MSTORE PUSH1 0x1 PUSH1 0x20 DUP2 DUP2 MSTORE PUSH1 0x40 SWAP3 DUP4 SWAP1 KECCAK256 DUP4 MLOAD PUSH1 0xE0 DUP2 ADD DUP6 MSTORE DUP2 SLOAD DUP2 MSTORE SWAP3 DUP2 ADD SLOAD SWAP1 SWAP5 AND SWAP1 DUP3 ADD MSTORE PUSH1 0x2 DUP4 ADD DUP1 SLOAD SWAP2 SWAP4 SWAP3 DUP5 ADD SWAP2 PUSH2 0x846 SWAP1 PUSH2 0x41B3 JUMP JUMPDEST DUP1 PUSH1 0x1F ADD PUSH1 0x20 DUP1 SWAP2 DIV MUL PUSH1 0x20 ADD PUSH1 0x40 MLOAD SWAP1 DUP2 ADD PUSH1 0x40 MSTORE DUP1 SWAP3 SWAP2 SWAP1 DUP2 DUP2 MSTORE PUSH1 0x20 ADD DUP3 DUP1 SLOAD PUSH2 0x872 SWAP1 PUSH2 0x41B3 JUMP JUMPDEST DUP1 ISZERO PUSH2 0x8BF JUMPI DUP1 PUSH1 0x1F LT PUSH2 0x894 JUMPI PUSH2 0x100 DUP1 DUP4 SLOAD DIV MUL DUP4 MSTORE SWAP2 PUSH1 0x20 ADD SWAP2 PUSH2 0x8BF JUMP JUMPDEST DUP3 ADD SWAP2 SWAP1 PUSH1 0x0 MSTORE PUSH1 0x20 PUSH1 0x0 KECCAK256 SWAP1 JUMPDEST DUP2 SLOAD DUP2 MSTORE SWAP1 PUSH1 0x1 ADD SWAP1 PUSH1 0x20 ADD DUP1 DUP4 GT PUSH2 0x8A2 JUMPI DUP3 SWAP1 SUB PUSH1 0x1F AND DUP3 ADD SWAP2 JUMPDEST POP POP POP SWAP2 DUP4 MSTORE POP POP PUSH1 0x3 DUP3 ADD SLOAD PUSH1 0x20 DUP3 ADD MSTORE PUSH1 0x4 SWAP1 SWAP2 ADD SLOAD PUSH1 0xFF DUP1 DUP3 AND ISZERO ISZERO PUSH1 0x40 DUP5 ADD MSTORE PUSH2 0x100 DUP3 DIV DUP2 AND ISZERO ISZERO PUSH1 0x60 DUP5 ADD MSTORE PUSH3 0x10000 SWAP1 SWAP2 DIV AND ISZERO ISZERO PUSH1 0x80 SWAP1 SWAP2 ADD MSTORE SWAP3 SWAP2 POP POP JUMP JUMPDEST PUSH1 0x1 PUSH1 0x1 PUSH1 0xA0 SHL SUB DUP2 AND PUSH1 0x0 SWAP1 DUP2 MSTORE PUSH1 0x8 PUSH1 0x20 MSTORE PUSH1 0x40 DUP2 KECCAK256 SLOAD PUSH1 0x60 SWAP2 DUP2 PUSH1 0x1 PUSH1 0x1 PUSH1 0x40 SHL SUB DUP2 GT ISZERO PUSH2 0x93B JUMPI PUSH2 0x93B PUSH2 0x39F6 JUMP JUMPDEST PUSH1 0x40 MLOAD SWAP1 DUP1 DUP3 MSTORE DUP1 PUSH1 0x20 MUL PUSH1 0x20 ADD DUP3 ADD PUSH1 0x40 MSTORE DUP1 ISZERO PUSH2 0x974 JUMPI DUP2 PUSH1 0x20 ADD JUMPDEST PUSH2 0x961 PUSH2 0x3694 JUMP JUMPDEST DUP2 MSTORE PUSH1 0x20 ADD SWAP1 PUSH1 0x1 SWAP1 SUB SWAP1 DUP2 PUSH2 0x959 JUMPI SWAP1 POP JUMPDEST POP SWAP1 POP PUSH1 0x0 DUP1 JUMPDEST PUSH1 0x3 SLOAD DUP2 LT ISZERO PUSH2 0xB14 JUMPI PUSH1 0x0 PUSH1 0x3 DUP3 DUP2 SLOAD DUP2 LT PUSH2 0x99A JUMPI PUSH2 0x99A PUSH2 0x41ED JUMP JUMPDEST SWAP1 PUSH1 0x0 MSTORE PUSH1 0x20 PUSH1 0x0 KECCAK256 SWAP1 PUSH1 0x7 MUL ADD PUSH1 0x40 MLOAD DUP1 PUSH1 0xE0 ADD PUSH1 0x40 MSTORE SWAP1 DUP2 PUSH1 0x0 DUP3 ADD SLOAD DUP2 MSTORE PUSH1 0x20 ADD PUSH1 0x1 DUP3 ADD PUSH1 0x0 SWAP1 SLOAD SWAP1 PUSH2 0x100 EXP SWAP1 DIV PUSH1 0x1 PUSH1 0x1 PUSH1 0xA0 SHL SUB AND PUSH1 0x1 PUSH1 0x1 PUSH1 0xA0 SHL SUB AND PUSH1 0x1 PUSH1 0x1 PUSH1 0xA0 SHL SUB AND DUP2 MSTORE PUSH1 0x20 ADD PUSH1 0x2 DUP3 ADD DUP1 SLOAD PUSH2 0x9FC SWAP1 PUSH2 0x41B3 JUMP JUMPDEST DUP1 PUSH1 0x1F ADD PUSH1 0x20 DUP1 SWAP2 DIV MUL PUSH1 0x20 ADD PUSH1 0x40 MLOAD SWAP1 DUP2 ADD PUSH1 0x40 MSTORE DUP1 SWAP3 SWAP2 SWAP1 DUP2 DUP2 MSTORE PUSH1 0x20 ADD DUP3 DUP1 SLOAD PUSH2 0xA28 SWAP1 PUSH2 0x41B3 JUMP JUMPDEST DUP1 ISZERO PUSH2 0xA75 JUMPI DUP1 PUSH1 0x1F LT PUSH2 0xA4A JUMPI PUSH2 0x100 DUP1 DUP4 SLOAD DIV MUL DUP4 MSTORE SWAP2 PUSH1 0x20 ADD SWAP2 PUSH2 0xA75 JUMP JUMPDEST DUP3 ADD SWAP2 SWAP1 PUSH1 0x0 MSTORE PUSH1 0x20 PUSH1 0x0 KECCAK256 SWAP1 JUMPDEST DUP2 SLOAD DUP2 MSTORE SWAP1 PUSH1 0x1 ADD SWAP1 PUSH1 0x20 ADD DUP1 DUP4 GT PUSH2 0xA58 JUMPI DUP3 SWAP1 SUB PUSH1 0x1F AND DUP3 ADD SWAP2 JUMPDEST POP POP POP SWAP2 DUP4 MSTORE POP POP PUSH1 0x3 DUP3 ADD SLOAD PUSH1 0x20 DUP1 DUP4 ADD SWAP2 SWAP1 SWAP2 MSTORE PUSH1 0x4 DUP4 ADD SLOAD PUSH1 0x40 DUP4 ADD MSTORE PUSH1 0x5 DUP4 ADD SLOAD PUSH1 0x60 DUP4 ADD MSTORE PUSH1 0x6 SWAP1 SWAP3 ADD SLOAD PUSH1 0xFF AND ISZERO ISZERO PUSH1 0x80 SWAP1 SWAP2 ADD MSTORE DUP2 ADD MLOAD SWAP1 SWAP2 POP PUSH1 0x1 PUSH1 0x1 PUSH1 0xA0 SHL SUB DUP1 DUP10 AND SWAP2 AND SUB PUSH2 0xB01 JUMPI DUP1 DUP5 DUP5 DUP2 MLOAD DUP2 LT PUSH2 0xADB JUMPI PUSH2 0xADB PUSH2 0x41ED JUMP JUMPDEST PUSH1 0x20 MUL PUSH1 0x20 ADD ADD DUP2 SWAP1 MSTORE POP DUP3 DUP1 PUSH2 0xAF1 SWAP1 PUSH2 0x4203 JUMP JUMPDEST SWAP4 POP POP DUP5 DUP4 SUB PUSH2 0xB01 JUMPI POP PUSH2 0xB14 JUMP JUMPDEST POP DUP1 PUSH2 0xB0C DUP2 PUSH2 0x4203 JUMP JUMPDEST SWAP2 POP POP PUSH2 0x97B JUMP JUMPDEST POP SWAP1 SWAP5 SWAP4 POP POP POP POP JUMP JUMPDEST PUSH1 0xB PUSH1 0x20 MSTORE DUP2 PUSH1 0x0 MSTORE PUSH1 0x40 PUSH1 0x0 KECCAK256 DUP2 DUP2 SLOAD DUP2 LT PUSH2 0xB3A JUMPI PUSH1 0x0 DUP1 REVERT JUMPDEST PUSH1 0x0 SWAP2 DUP3 MSTORE PUSH1 0x20 SWAP1 SWAP2 KECCAK256 PUSH1 0x7 SWAP1 SWAP2 MUL ADD DUP1 SLOAD PUSH1 0x1 DUP3 ADD SLOAD PUSH1 0x2 DUP4 ADD DUP1 SLOAD SWAP3 SWAP6 POP PUSH1 0x1 PUSH1 0x1 PUSH1 0xA0 SHL SUB SWAP1 SWAP2 AND SWAP4 POP SWAP1 PUSH2 0xB71 SWAP1 PUSH2 0x41B3 JUMP JUMPDEST DUP1 PUSH1 0x1F ADD PUSH1 0x20 DUP1 SWAP2 DIV MUL PUSH1 0x20 ADD PUSH1 0x40 MLOAD SWAP1 DUP2 ADD PUSH1 0x40 MSTORE DUP1 SWAP3 SWAP2 SWAP1 DUP2 DUP2 MSTORE PUSH1 0x20 ADD DUP3 DUP1 SLOAD PUSH2 0xB9D SWAP1 PUSH2 0x41B3 JUMP JUMPDEST DUP1 ISZERO PUSH2 0xBEA JUMPI DUP1 PUSH1 0x1F LT PUSH2 0xBBF JUMPI PUSH2 0x100 DUP1 DUP4 SLOAD DIV MUL DUP4 MSTORE SWAP2 PUSH1 0x20 ADD SWAP2 PUSH2 0xBEA JUMP JUMPDEST DUP3 ADD SWAP2 SWAP1 PUSH1 0x0 MSTORE PUSH1 0x20 PUSH1 0x0 KECCAK256 SWAP1 JUMPDEST DUP2 SLOAD DUP2 MSTORE SWAP1 PUSH1 0x1 ADD SWAP1 PUSH1 0x20 ADD DUP1 DUP4 GT PUSH2 0xBCD JUMPI DUP3 SWAP1 SUB PUSH1 0x1F AND DUP3 ADD SWAP2 JUMPDEST POP POP POP POP POP SWAP1 DUP1 PUSH1 0x3 ADD DUP1 SLOAD PUSH2 0xBFF SWAP1 PUSH2 0x41B3 JUMP JUMPDEST DUP1 PUSH1 0x1F ADD PUSH1 0x20 DUP1 SWAP2 DIV MUL PUSH1 0x20 ADD PUSH1 0x40 MLOAD SWAP1 DUP2 ADD PUSH1 0x40 MSTORE DUP1 SWAP3 SWAP2 SWAP1 DUP2 DUP2 MSTORE PUSH1 0x20 ADD DUP3 DUP1 SLOAD PUSH2 0xC2B SWAP1 PUSH2 0x41B3 JUMP JUMPDEST DUP1 ISZERO PUSH2 0xC78 JUMPI DUP1 PUSH1 0x1F LT PUSH2 0xC4D JUMPI PUSH2 0x100 DUP1 DUP4 SLOAD DIV MUL DUP4 MSTORE SWAP2 PUSH1 0x20 ADD SWAP2 PUSH2 0xC78 JUMP JUMPDEST DUP3 ADD SWAP2 SWAP1 PUSH1 0x0 MSTORE PUSH1 0x20 PUSH1 0x0 KECCAK256 SWAP1 JUMPDEST DUP2 SLOAD DUP2 MSTORE SWAP1 PUSH1 0x1 ADD SWAP1 PUSH1 0x20 ADD DUP1 DUP4 GT PUSH2 0xC5B JUMPI DUP3 SWAP1 SUB PUSH1 0x1F AND DUP3 ADD SWAP2 JUMPDEST POP POP POP POP PUSH1 0x4 DUP4 ADD SLOAD PUSH1 0x5 DUP5 ADD SLOAD PUSH1 0x6 SWAP1 SWAP5 ADD SLOAD SWAP3 SWAP4 SWAP1 SWAP3 SWAP1 SWAP2 POP PUSH1 0xFF DUP1 DUP3 AND SWAP2 PUSH2 0x100 SWAP1 DIV AND DUP9 JUMP JUMPDEST PUSH1 0xE SLOAD PUSH2 0xCAD PUSH2 0x3648 JUMP JUMPDEST DUP2 DUP2 MSTORE PUSH1 0x1 PUSH1 0x1 PUSH1 0xA0 SHL SUB DUP6 AND PUSH1 0x20 DUP3 ADD MSTORE PUSH1 0x40 DUP2 ADD DUP5 SWAP1 MSTORE PUSH1 0x60 DUP2 ADD DUP4 SWAP1 MSTORE PUSH1 0x0 PUSH1 0xA0 DUP3 ADD MSTORE PUSH2 0xCDD DUP6 PUSH2 0x24AA JUMP JUMPDEST ISZERO PUSH2 0xDAF JUMPI PUSH1 0x0 PUSH2 0xCED DUP7 PUSH2 0x13B3 JUMP JUMPDEST PUSH1 0x1 PUSH1 0xC0 DUP3 ADD DUP2 SWAP1 MSTORE PUSH1 0x80 DUP5 ADD DUP2 SWAP1 MSTORE PUSH1 0x1 PUSH1 0x1 PUSH1 0xA0 SHL SUB DUP9 DUP2 AND PUSH1 0x0 SWAP1 DUP2 MSTORE PUSH1 0x2 PUSH1 0x20 DUP2 DUP2 MSTORE PUSH1 0x40 SWAP3 DUP4 SWAP1 KECCAK256 DUP7 MLOAD DUP2 SSTORE SWAP1 DUP7 ADD MLOAD SWAP5 DUP2 ADD DUP1 SLOAD PUSH1 0x1 PUSH1 0x1 PUSH1 0xA0 SHL SUB NOT AND SWAP6 SWAP1 SWAP5 AND SWAP5 SWAP1 SWAP5 OR SWAP1 SWAP3 SSTORE DUP4 ADD MLOAD SWAP3 SWAP4 POP DUP4 SWAP3 SWAP1 DUP3 ADD SWAP1 PUSH2 0xD52 SWAP1 DUP3 PUSH2 0x426B JUMP JUMPDEST POP PUSH1 0x60 DUP3 ADD MLOAD PUSH1 0x3 DUP3 ADD SWAP1 PUSH2 0xD67 SWAP1 DUP3 PUSH2 0x426B JUMP JUMPDEST POP PUSH1 0x80 DUP3 ADD MLOAD PUSH1 0x4 DUP3 ADD SSTORE PUSH1 0xA0 DUP3 ADD MLOAD PUSH1 0x5 DUP3 ADD SSTORE PUSH1 0xC0 DUP3 ADD MLOAD PUSH1 0x6 SWAP1 SWAP2 ADD DUP1 SLOAD PUSH1 0xE0 SWAP1 SWAP4 ADD MLOAD ISZERO ISZERO PUSH2 0x100 MUL PUSH2 0xFF00 NOT SWAP3 ISZERO ISZERO SWAP3 SWAP1 SWAP3 AND PUSH2 0xFFFF NOT SWAP1 SWAP4 AND SWAP3 SWAP1 SWAP3 OR OR SWAP1 SSTORE POP JUMPDEST PUSH1 0x1 PUSH1 0x1 PUSH1 0xA0 SHL SUB DUP6 DUP2 AND PUSH1 0x0 SWAP1 DUP2 MSTORE PUSH1 0x1 PUSH1 0x20 DUP2 DUP2 MSTORE PUSH1 0x40 SWAP3 DUP4 SWAP1 KECCAK256 DUP6 MLOAD DUP2 SSTORE SWAP1 DUP6 ADD MLOAD SWAP2 DUP2 ADD DUP1 SLOAD PUSH1 0x1 PUSH1 0x1 PUSH1 0xA0 SHL SUB NOT AND SWAP3 SWAP1 SWAP5 AND SWAP2 SWAP1 SWAP2 OR SWAP1 SWAP3 SSTORE DUP3 ADD MLOAD DUP3 SWAP2 SWAP1 PUSH1 0x2 DUP3 ADD SWAP1 PUSH2 0xE03 SWAP1 DUP3 PUSH2 0x426B JUMP JUMPDEST POP PUSH1 0x60 DUP3 ADD MLOAD PUSH1 0x3 DUP3 ADD SSTORE PUSH1 0x80 DUP3 ADD MLOAD PUSH1 0x4 SWAP1 SWAP2 ADD DUP1 SLOAD PUSH1 0xA0 DUP5 ADD MLOAD PUSH1 0xC0 SWAP1 SWAP5 ADD MLOAD ISZERO ISZERO PUSH3 0x10000 MUL PUSH3 0xFF0000 NOT SWAP5 ISZERO ISZERO PUSH2 0x100 MUL PUSH2 0xFF00 NOT SWAP5 ISZERO ISZERO SWAP5 SWAP1 SWAP5 AND PUSH2 0xFFFF NOT SWAP1 SWAP3 AND SWAP2 SWAP1 SWAP2 OR SWAP3 SWAP1 SWAP3 OR SWAP3 SWAP1 SWAP3 AND OR SWAP1 SSTORE PUSH1 0xE DUP1 SLOAD SWAP1 PUSH1 0x0 PUSH2 0xE69 DUP4 PUSH2 0x4203 JUMP JUMPDEST SWAP2 SWAP1 POP SSTORE POP POP POP POP POP POP JUMP JUMPDEST PUSH1 0x3 DUP2 DUP2 SLOAD DUP2 LT PUSH2 0xE85 JUMPI PUSH1 0x0 DUP1 REVERT JUMPDEST PUSH1 0x0 SWAP2 DUP3 MSTORE PUSH1 0x20 SWAP1 SWAP2 KECCAK256 PUSH1 0x7 SWAP1 SWAP2 MUL ADD DUP1 SLOAD PUSH1 0x1 DUP3 ADD SLOAD PUSH1 0x2 DUP4 ADD DUP1 SLOAD SWAP3 SWAP5 POP PUSH1 0x1 PUSH1 0x1 PUSH1 0xA0 SHL SUB SWAP1 SWAP2 AND SWAP3 SWAP2 PUSH2 0xEBB SWAP1 PUSH2 0x41B3 JUMP JUMPDEST DUP1 PUSH1 0x1F ADD PUSH1 0x20 DUP1 SWAP2 DIV MUL PUSH1 0x20 ADD PUSH1 0x40 MLOAD SWAP1 DUP2 ADD PUSH1 0x40 MSTORE DUP1 SWAP3 SWAP2 SWAP1 DUP2 DUP2 MSTORE PUSH1 0x20 ADD DUP3 DUP1 SLOAD PUSH2 0xEE7 SWAP1 PUSH2 0x41B3 JUMP JUMPDEST DUP1 ISZERO PUSH2 0xF34 JUMPI DUP1 PUSH1 0x1F LT PUSH2 0xF09 JUMPI PUSH2 0x100 DUP1 DUP4 SLOAD DIV MUL DUP4 MSTORE SWAP2 PUSH1 0x20 ADD SWAP2 PUSH2 0xF34 JUMP JUMPDEST DUP3 ADD SWAP2 SWAP1 PUSH1 0x0 MSTORE PUSH1 0x20 PUSH1 0x0 KECCAK256 SWAP1 JUMPDEST DUP2 SLOAD DUP2 MSTORE SWAP1 PUSH1 0x1 ADD SWAP1 PUSH1 0x20 ADD DUP1 DUP4 GT PUSH2 0xF17 JUMPI DUP3 SWAP1 SUB PUSH1 0x1F AND DUP3 ADD SWAP2 JUMPDEST POP POP POP POP PUSH1 0x3 DUP4 ADD SLOAD PUSH1 0x4 DUP5 ADD SLOAD PUSH1 0x5 DUP6 ADD SLOAD PUSH1 0x6 SWAP1 SWAP6 ADD SLOAD SWAP4 SWAP5 SWAP2 SWAP4 SWAP1 SWAP3 POP PUSH1 0xFF AND DUP8 JUMP JUMPDEST PUSH1 0x0 DUP1 PUSH1 0x3 DUP4 DUP2 SLOAD DUP2 LT PUSH2 0xF70 JUMPI PUSH2 0xF70 PUSH2 0x41ED JUMP JUMPDEST SWAP1 PUSH1 0x0 MSTORE PUSH1 0x20 PUSH1 0x0 KECCAK256 SWAP1 PUSH1 0x7 MUL ADD PUSH1 0x40 MLOAD DUP1 PUSH1 0xE0 ADD PUSH1 0x40 MSTORE SWAP1 DUP2 PUSH1 0x0 DUP3 ADD SLOAD DUP2 MSTORE PUSH1 0x20 ADD PUSH1 0x1 DUP3 ADD PUSH1 0x0 SWAP1 SLOAD SWAP1 PUSH2 0x100 EXP SWAP1 DIV PUSH1 0x1 PUSH1 0x1 PUSH1 0xA0 SHL SUB AND PUSH1 0x1 PUSH1 0x1 PUSH1 0xA0 SHL SUB AND PUSH1 0x1 PUSH1 0x1 PUSH1 0xA0 SHL SUB AND DUP2 MSTORE PUSH1 0x20 ADD PUSH1 0x2 DUP3 ADD DUP1 SLOAD PUSH2 0xFD2 SWAP1 PUSH2 0x41B3 JUMP JUMPDEST DUP1 PUSH1 0x1F ADD PUSH1 0x20 DUP1 SWAP2 DIV MUL PUSH1 0x20 ADD PUSH1 0x40 MLOAD SWAP1 DUP2 ADD PUSH1 0x40 MSTORE DUP1 SWAP3 SWAP2 SWAP1 DUP2 DUP2 MSTORE PUSH1 0x20 ADD DUP3 DUP1 SLOAD PUSH2 0xFFE SWAP1 PUSH2 0x41B3 JUMP JUMPDEST DUP1 ISZERO PUSH2 0x104B JUMPI DUP1 PUSH1 0x1F LT PUSH2 0x1020 JUMPI PUSH2 0x100 DUP1 DUP4 SLOAD DIV MUL DUP4 MSTORE SWAP2 PUSH1 0x20 ADD SWAP2 PUSH2 0x104B JUMP JUMPDEST DUP3 ADD SWAP2 SWAP1 PUSH1 0x0 MSTORE PUSH1 0x20 PUSH1 0x0 KECCAK256 SWAP1 JUMPDEST DUP2 SLOAD DUP2 MSTORE SWAP1 PUSH1 0x1 ADD SWAP1 PUSH1 0x20 ADD DUP1 DUP4 GT PUSH2 0x102E JUMPI DUP3 SWAP1 SUB PUSH1 0x1F AND DUP3 ADD SWAP2 JUMPDEST POP POP POP SWAP2 DUP4 MSTORE POP POP PUSH1 0x3 DUP3 ADD SLOAD PUSH1 0x20 DUP3 ADD MSTORE PUSH1 0x4 DUP3 ADD SLOAD PUSH1 0x40 DUP3 ADD MSTORE PUSH1 0x5 DUP1 DUP4 ADD SLOAD PUSH1 0x60 DUP4 ADD MSTORE PUSH1 0x6 SWAP1 SWAP3 ADD SLOAD PUSH1 0xFF AND ISZERO ISZERO PUSH1 0x80 SWAP2 DUP3 ADD MSTORE PUSH1 0xA0 DUP4 ADD MLOAD SWAP1 DUP4 ADD MLOAD SWAP3 SWAP4 POP SWAP2 SWAP1 PUSH1 0x0 SWAP1 PUSH1 0xA SWAP1 PUSH2 0x10A2 SWAP1 DUP6 SWAP1 PUSH2 0x4189 JUMP JUMPDEST PUSH2 0x10AC SWAP2 SWAP1 PUSH2 0x432A JUMP JUMPDEST SWAP1 POP PUSH1 0x0 PUSH2 0x10BA DUP4 DUP4 PUSH2 0x432A JUMP JUMPDEST SWAP8 SWAP7 POP POP POP POP POP POP POP JUMP JUMPDEST PUSH1 0x60 PUSH1 0x0 PUSH1 0x3 DUP5 DUP2 SLOAD DUP2 LT PUSH2 0x10DC JUMPI PUSH2 0x10DC PUSH2 0x41ED JUMP JUMPDEST SWAP1 PUSH1 0x0 MSTORE PUSH1 0x20 PUSH1 0x0 KECCAK256 SWAP1 PUSH1 0x7 MUL ADD PUSH1 0x40 MLOAD DUP1 PUSH1 0xE0 ADD PUSH1 0x40 MSTORE SWAP1 DUP2 PUSH1 0x0 DUP3 ADD SLOAD DUP2 MSTORE PUSH1 0x20 ADD PUSH1 0x1 DUP3 ADD PUSH1 0x0 SWAP1 SLOAD SWAP1 PUSH2 0x100 EXP SWAP1 DIV PUSH1 0x1 PUSH1 0x1 PUSH1 0xA0 SHL SUB AND PUSH1 0x1 PUSH1 0x1 PUSH1 0xA0 SHL SUB AND PUSH1 0x1 PUSH1 0x1 PUSH1 0xA0 SHL SUB AND DUP2 MSTORE PUSH1 0x20 ADD PUSH1 0x2 DUP3 ADD DUP1 SLOAD PUSH2 0x113E SWAP1 PUSH2 0x41B3 JUMP JUMPDEST DUP1 PUSH1 0x1F ADD PUSH1 0x20 DUP1 SWAP2 DIV MUL PUSH1 0x20 ADD PUSH1 0x40 MLOAD SWAP1 DUP2 ADD PUSH1 0x40 MSTORE DUP1 SWAP3 SWAP2 SWAP1 DUP2 DUP2 MSTORE PUSH1 0x20 ADD DUP3 DUP1 SLOAD PUSH2 0x116A SWAP1 PUSH2 0x41B3 JUMP JUMPDEST DUP1 ISZERO PUSH2 0x11B7 JUMPI DUP1 PUSH1 0x1F LT PUSH2 0x118C JUMPI PUSH2 0x100 DUP1 DUP4 SLOAD DIV MUL DUP4 MSTORE SWAP2 PUSH1 0x20 ADD SWAP2 PUSH2 0x11B7 JUMP JUMPDEST DUP3 ADD SWAP2 SWAP1 PUSH1 0x0 MSTORE PUSH1 0x20 PUSH1 0x0 KECCAK256 SWAP1 JUMPDEST DUP2 SLOAD DUP2 MSTORE SWAP1 PUSH1 0x1 ADD SWAP1 PUSH1 0x20 ADD DUP1 DUP4 GT PUSH2 0x119A JUMPI DUP3 SWAP1 SUB PUSH1 0x1F AND DUP3 ADD SWAP2 JUMPDEST POP POP POP POP POP DUP2 MSTORE PUSH1 0x20 ADD PUSH1 0x3 DUP3 ADD SLOAD DUP2 MSTORE PUSH1 0x20 ADD PUSH1 0x4 DUP3 ADD SLOAD DUP2 MSTORE PUSH1 0x20 ADD PUSH1 0x5 DUP3 ADD SLOAD DUP2 MSTORE PUSH1 0x20 ADD PUSH1 0x6 DUP3 ADD PUSH1 0x0 SWAP1 SLOAD SWAP1 PUSH2 0x100 EXP SWAP1 DIV PUSH1 0xFF AND ISZERO ISZERO ISZERO ISZERO DUP2 MSTORE POP POP SWAP1 POP PUSH1 0x0 PUSH1 0x5 PUSH1 0x0 DUP7 DUP2 MSTORE PUSH1 0x20 ADD SWAP1 DUP2 MSTORE PUSH1 0x20 ADD PUSH1 0x0 KECCAK256 DUP1 SLOAD DUP1 PUSH1 0x20 MUL PUSH1 0x20 ADD PUSH1 0x40 MLOAD SWAP1 DUP2 ADD PUSH1 0x40 MSTORE DUP1 SWAP3 SWAP2 SWAP1 DUP2 DUP2 MSTORE PUSH1 0x20 ADD PUSH1 0x0 SWAP1 JUMPDEST DUP3 DUP3 LT ISZERO PUSH2 0x12B0 JUMPI PUSH1 0x0 DUP5 DUP2 MSTORE PUSH1 0x20 SWAP1 DUP2 SWAP1 KECCAK256 PUSH1 0x40 DUP1 MLOAD PUSH1 0xC0 DUP2 ADD DUP3 MSTORE PUSH1 0x4 DUP7 MUL SWAP1 SWAP3 ADD DUP1 SLOAD DUP4 MSTORE PUSH1 0x1 DUP1 DUP3 ADD SLOAD DUP5 DUP7 ADD MSTORE PUSH1 0x2 DUP3 ADD SLOAD SWAP3 DUP5 ADD SWAP3 SWAP1 SWAP3 MSTORE PUSH1 0x3 ADD SLOAD PUSH1 0x1 PUSH1 0x1 PUSH1 0xA0 SHL SUB DUP2 AND PUSH1 0x60 DUP5 ADD MSTORE PUSH1 0xFF PUSH1 0x1 PUSH1 0xA0 SHL DUP3 DIV DUP2 AND ISZERO ISZERO PUSH1 0x80 DUP6 ADD MSTORE PUSH1 0x1 PUSH1 0xA8 SHL SWAP1 SWAP2 DIV AND ISZERO ISZERO PUSH1 0xA0 DUP4 ADD MSTORE SWAP1 DUP4 MSTORE SWAP1 SWAP3 ADD SWAP2 ADD PUSH2 0x1230 JUMP JUMPDEST POP POP POP POP PUSH1 0x60 DUP4 ADD MLOAD SWAP1 SWAP2 POP PUSH1 0x0 DUP2 PUSH1 0x1 PUSH1 0x1 PUSH1 0x40 SHL SUB DUP2 GT ISZERO PUSH2 0x12D6 JUMPI PUSH2 0x12D6 PUSH2 0x39F6 JUMP JUMPDEST PUSH1 0x40 MLOAD SWAP1 DUP1 DUP3 MSTORE DUP1 PUSH1 0x20 MUL PUSH1 0x20 ADD DUP3 ADD PUSH1 0x40 MSTORE DUP1 ISZERO PUSH2 0x130F JUMPI DUP2 PUSH1 0x20 ADD JUMPDEST PUSH2 0x12FC PUSH2 0x36DC JUMP JUMPDEST DUP2 MSTORE PUSH1 0x20 ADD SWAP1 PUSH1 0x1 SWAP1 SUB SWAP1 DUP2 PUSH2 0x12F4 JUMPI SWAP1 POP JUMPDEST POP SWAP1 POP PUSH1 0x0 DUP1 JUMPDEST DUP5 MLOAD DUP2 LT ISZERO PUSH2 0x13A6 JUMPI PUSH1 0x0 DUP6 DUP3 DUP2 MLOAD DUP2 LT PUSH2 0x1333 JUMPI PUSH2 0x1333 PUSH2 0x41ED JUMP JUMPDEST PUSH1 0x20 MUL PUSH1 0x20 ADD ADD MLOAD SWAP1 POP DUP9 PUSH1 0x1 PUSH1 0x1 PUSH1 0xA0 SHL SUB AND DUP2 PUSH1 0x60 ADD MLOAD PUSH1 0x1 PUSH1 0x1 PUSH1 0xA0 SHL SUB AND SUB PUSH2 0x1393 JUMPI DUP1 DUP5 DUP5 DUP2 MLOAD DUP2 LT PUSH2 0x136D JUMPI PUSH2 0x136D PUSH2 0x41ED JUMP JUMPDEST PUSH1 0x20 MUL PUSH1 0x20 ADD ADD DUP2 SWAP1 MSTORE POP DUP3 DUP1 PUSH2 0x1383 SWAP1 PUSH2 0x4203 JUMP JUMPDEST SWAP4 POP POP DUP5 DUP4 SUB PUSH2 0x1393 JUMPI POP PUSH2 0x13A6 JUMP JUMPDEST POP DUP1 PUSH2 0x139E DUP2 PUSH2 0x4203 JUMP JUMPDEST SWAP2 POP POP PUSH2 0x1316 JUMP JUMPDEST POP SWAP1 SWAP8 SWAP7 POP POP POP POP POP POP POP JUMP JUMPDEST PUSH2 0x13BB PUSH2 0x371F JUMP JUMPDEST PUSH1 0x1 PUSH1 0x1 PUSH1 0xA0 SHL SUB DUP1 DUP4 AND PUSH1 0x0 SWAP1 DUP2 MSTORE PUSH1 0x2 PUSH1 0x20 DUP2 DUP2 MSTORE PUSH1 0x40 SWAP3 DUP4 SWAP1 KECCAK256 DUP4 MLOAD PUSH2 0x100 DUP2 ADD DUP6 MSTORE DUP2 SLOAD DUP2 MSTORE PUSH1 0x1 DUP3 ADD SLOAD SWAP1 SWAP6 AND SWAP2 DUP6 ADD SWAP2 SWAP1 SWAP2 MSTORE SWAP1 DUP2 ADD DUP1 SLOAD SWAP2 SWAP3 DUP5 ADD SWAP2 PUSH2 0x1407 SWAP1 PUSH2 0x41B3 JUMP JUMPDEST DUP1 PUSH1 0x1F ADD PUSH1 0x20 DUP1 SWAP2 DIV MUL PUSH1 0x20 ADD PUSH1 0x40 MLOAD SWAP1 DUP2 ADD PUSH1 0x40 MSTORE DUP1 SWAP3 SWAP2 SWAP1 DUP2 DUP2 MSTORE PUSH1 0x20 ADD DUP3 DUP1 SLOAD PUSH2 0x1433 SWAP1 PUSH2 0x41B3 JUMP JUMPDEST DUP1 ISZERO PUSH2 0x1480 JUMPI DUP1 PUSH1 0x1F LT PUSH2 0x1455 JUMPI PUSH2 0x100 DUP1 DUP4 SLOAD DIV MUL DUP4 MSTORE SWAP2 PUSH1 0x20 ADD SWAP2 PUSH2 0x1480 JUMP JUMPDEST DUP3 ADD SWAP2 SWAP1 PUSH1 0x0 MSTORE PUSH1 0x20 PUSH1 0x0 KECCAK256 SWAP1 JUMPDEST DUP2 SLOAD DUP2 MSTORE SWAP1 PUSH1 0x1 ADD SWAP1 PUSH1 0x20 ADD DUP1 DUP4 GT PUSH2 0x1463 JUMPI DUP3 SWAP1 SUB PUSH1 0x1F AND DUP3 ADD SWAP2 JUMPDEST POP POP POP POP POP DUP2 MSTORE PUSH1 0x20 ADD PUSH1 0x3 DUP3 ADD DUP1 SLOAD PUSH2 0x1499 SWAP1 PUSH2 0x41B3 JUMP JUMPDEST DUP1 PUSH1 0x1F ADD PUSH1 0x20 DUP1 SWAP2 DIV MUL PUSH1 0x20 ADD PUSH1 0x40 MLOAD SWAP1 DUP2 ADD PUSH1 0x40 MSTORE DUP1 SWAP3 SWAP2 SWAP1 DUP2 DUP2 MSTORE PUSH1 0x20 ADD DUP3 DUP1 SLOAD PUSH2 0x14C5 SWAP1 PUSH2 0x41B3 JUMP JUMPDEST DUP1 ISZERO PUSH2 0x1512 JUMPI DUP1 PUSH1 0x1F LT PUSH2 0x14E7 JUMPI PUSH2 0x100 DUP1 DUP4 SLOAD DIV MUL DUP4 MSTORE SWAP2 PUSH1 0x20 ADD SWAP2 PUSH2 0x1512 JUMP JUMPDEST DUP3 ADD SWAP2 SWAP1 PUSH1 0x0 MSTORE PUSH1 0x20 PUSH1 0x0 KECCAK256 SWAP1 JUMPDEST DUP2 SLOAD DUP2 MSTORE SWAP1 PUSH1 0x1 ADD SWAP1 PUSH1 0x20 ADD DUP1 DUP4 GT PUSH2 0x14F5 JUMPI DUP3 SWAP1 SUB PUSH1 0x1F AND DUP3 ADD SWAP2 JUMPDEST POP POP POP SWAP2 DUP4 MSTORE POP POP PUSH1 0x4 DUP3 ADD SLOAD PUSH1 0x20 DUP3 ADD MSTORE PUSH1 0x5 DUP3 ADD SLOAD PUSH1 0x40 DUP3 ADD MSTORE PUSH1 0x6 SWAP1 SWAP2 ADD SLOAD PUSH1 0xFF DUP1 DUP3 AND ISZERO ISZERO PUSH1 0x60 DUP5 ADD MSTORE PUSH2 0x100 SWAP1 SWAP2 DIV AND ISZERO ISZERO PUSH1 0x80 SWAP1 SWAP2 ADD MSTORE SWAP3 SWAP2 POP POP JUMP JUMPDEST PUSH1 0x1 PUSH1 0x1 PUSH1 0xA0 SHL SUB DUP2 AND PUSH1 0x0 SWAP1 DUP2 MSTORE PUSH1 0x2 PUSH1 0x20 MSTORE PUSH1 0x40 DUP2 KECCAK256 PUSH1 0x5 ADD SLOAD DUP2 DUP2 PUSH1 0x1 PUSH1 0x1 PUSH1 0x40 SHL SUB DUP2 GT ISZERO PUSH2 0x158A JUMPI PUSH2 0x158A PUSH2 0x39F6 JUMP JUMPDEST PUSH1 0x40 MLOAD SWAP1 DUP1 DUP3 MSTORE DUP1 PUSH1 0x20 MUL PUSH1 0x20 ADD DUP3 ADD PUSH1 0x40 MSTORE DUP1 ISZERO PUSH2 0x15C3 JUMPI DUP2 PUSH1 0x20 ADD JUMPDEST PUSH2 0x15B0 PUSH2 0x3771 JUMP JUMPDEST DUP2 MSTORE PUSH1 0x20 ADD SWAP1 PUSH1 0x1 SWAP1 SUB SWAP1 DUP2 PUSH2 0x15A8 JUMPI SWAP1 POP JUMPDEST POP SWAP1 POP PUSH1 0x0 DUP1 JUMPDEST DUP3 MLOAD DUP2 LT ISZERO PUSH2 0x1617 JUMPI PUSH1 0x0 DUP4 DUP3 DUP2 MLOAD DUP2 LT PUSH2 0x15E7 JUMPI PUSH2 0x15E7 PUSH2 0x41ED JUMP JUMPDEST PUSH1 0x20 MUL PUSH1 0x20 ADD ADD MLOAD SWAP1 POP DUP1 PUSH1 0x60 ADD MLOAD DUP4 PUSH2 0x1601 SWAP2 SWAP1 PUSH2 0x41A0 JUMP JUMPDEST SWAP3 POP POP DUP1 DUP1 PUSH2 0x160F SWAP1 PUSH2 0x4203 JUMP JUMPDEST SWAP2 POP POP PUSH2 0x15CA JUMP JUMPDEST POP SWAP5 SWAP4 POP POP POP POP JUMP JUMPDEST PUSH1 0x1 PUSH1 0x1 PUSH1 0xA0 SHL SUB DUP2 AND PUSH1 0x0 SWAP1 DUP2 MSTORE PUSH1 0x2 PUSH1 0x20 MSTORE PUSH1 0x40 DUP2 KECCAK256 PUSH1 0x5 ADD SLOAD PUSH1 0x60 SWAP2 DUP2 PUSH1 0x1 PUSH1 0x1 PUSH1 0x40 SHL SUB DUP2 GT ISZERO PUSH2 0x1657 JUMPI PUSH2 0x1657 PUSH2 0x39F6 JUMP JUMPDEST PUSH1 0x40 MLOAD SWAP1 DUP1 DUP3 MSTORE DUP1 PUSH1 0x20 MUL PUSH1 0x20 ADD DUP3 ADD PUSH1 0x40 MSTORE DUP1 ISZERO PUSH2 0x1690 JUMPI DUP2 PUSH1 0x20 ADD JUMPDEST PUSH2 0x167D PUSH2 0x3771 JUMP JUMPDEST DUP2 MSTORE PUSH1 0x20 ADD SWAP1 PUSH1 0x1 SWAP1 SUB SWAP1 DUP2 PUSH2 0x1675 JUMPI SWAP1 POP JUMPDEST POP SWAP1 POP PUSH1 0x0 DUP1 JUMPDEST PUSH1 0xD SLOAD DUP2 LT ISZERO PUSH2 0xB14 JUMPI PUSH1 0x0 PUSH1 0xD DUP3 DUP2 SLOAD DUP2 LT PUSH2 0x16B6 JUMPI PUSH2 0x16B6 PUSH2 0x41ED JUMP JUMPDEST PUSH1 0x0 SWAP2 DUP3 MSTORE PUSH1 0x20 SWAP2 DUP3 SWAP1 KECCAK256 PUSH1 0x40 DUP1 MLOAD PUSH1 0xA0 DUP2 ADD DUP3 MSTORE PUSH1 0x5 SWAP1 SWAP4 MUL SWAP1 SWAP2 ADD DUP1 SLOAD DUP4 MSTORE PUSH1 0x1 DUP2 ADD SLOAD SWAP4 DUP4 ADD SWAP4 SWAP1 SWAP4 MSTORE PUSH1 0x2 DUP4 ADD SLOAD PUSH1 0x1 PUSH1 0x1 PUSH1 0xA0 SHL SUB SWAP1 DUP2 AND SWAP2 DUP4 ADD DUP3 SWAP1 MSTORE PUSH1 0x3 DUP5 ADD SLOAD PUSH1 0x60 DUP5 ADD MSTORE PUSH1 0x4 SWAP1 SWAP4 ADD SLOAD PUSH1 0xFF AND ISZERO ISZERO PUSH1 0x80 DUP4 ADD MSTORE SWAP1 SWAP3 POP SWAP1 DUP9 AND SWAP1 SUB PUSH2 0x1758 JUMPI DUP1 DUP5 DUP5 DUP2 MLOAD DUP2 LT PUSH2 0x1732 JUMPI PUSH2 0x1732 PUSH2 0x41ED JUMP JUMPDEST PUSH1 0x20 MUL PUSH1 0x20 ADD ADD DUP2 SWAP1 MSTORE POP DUP3 DUP1 PUSH2 0x1748 SWAP1 PUSH2 0x4203 JUMP JUMPDEST SWAP4 POP POP DUP5 DUP4 SUB PUSH2 0x1758 JUMPI POP PUSH2 0xB14 JUMP JUMPDEST POP DUP1 PUSH2 0x1763 DUP2 PUSH2 0x4203 JUMP JUMPDEST SWAP2 POP POP PUSH2 0x1697 JUMP JUMPDEST PUSH1 0x60 PUSH1 0x0 PUSH2 0x1778 DUP4 PUSH2 0x1620 JUMP JUMPDEST SWAP1 POP PUSH1 0x0 DUP2 MLOAD PUSH1 0x1 PUSH1 0x1 PUSH1 0x40 SHL SUB DUP2 GT ISZERO PUSH2 0x1795 JUMPI PUSH2 0x1795 PUSH2 0x39F6 JUMP JUMPDEST PUSH1 0x40 MLOAD SWAP1 DUP1 DUP3 MSTORE DUP1 PUSH1 0x20 MUL PUSH1 0x20 ADD DUP3 ADD PUSH1 0x40 MSTORE DUP1 ISZERO PUSH2 0x17CE JUMPI DUP2 PUSH1 0x20 ADD JUMPDEST PUSH2 0x17BB PUSH2 0x3694 JUMP JUMPDEST DUP2 MSTORE PUSH1 0x20 ADD SWAP1 PUSH1 0x1 SWAP1 SUB SWAP1 DUP2 PUSH2 0x17B3 JUMPI SWAP1 POP JUMPDEST POP SWAP1 POP PUSH1 0x0 DUP1 JUMPDEST DUP4 MLOAD DUP2 LT ISZERO PUSH2 0xB14 JUMPI PUSH1 0x0 DUP5 DUP3 DUP2 MLOAD DUP2 LT PUSH2 0x17F2 JUMPI PUSH2 0x17F2 PUSH2 0x41ED JUMP JUMPDEST PUSH1 0x20 MUL PUSH1 0x20 ADD ADD MLOAD SWAP1 POP PUSH1 0x3 DUP2 PUSH1 0x20 ADD MLOAD DUP2 SLOAD DUP2 LT PUSH2 0x1813 JUMPI PUSH2 0x1813 PUSH2 0x41ED JUMP JUMPDEST SWAP1 PUSH1 0x0 MSTORE PUSH1 0x20 PUSH1 0x0 KECCAK256 SWAP1 PUSH1 0x7 MUL ADD PUSH1 0x40 MLOAD DUP1 PUSH1 0xE0 ADD PUSH1 0x40 MSTORE SWAP1 DUP2 PUSH1 0x0 DUP3 ADD SLOAD DUP2 MSTORE PUSH1 0x20 ADD PUSH1 0x1 DUP3 ADD PUSH1 0x0 SWAP1 SLOAD SWAP1 PUSH2 0x100 EXP SWAP1 DIV PUSH1 0x1 PUSH1 0x1 PUSH1 0xA0 SHL SUB AND PUSH1 0x1 PUSH1 0x1 PUSH1 0xA0 SHL SUB AND PUSH1 0x1 PUSH1 0x1 PUSH1 0xA0 SHL SUB AND DUP2 MSTORE PUSH1 0x20 ADD PUSH1 0x2 DUP3 ADD DUP1 SLOAD PUSH2 0x1875 SWAP1 PUSH2 0x41B3 JUMP JUMPDEST DUP1 PUSH1 0x1F ADD PUSH1 0x20 DUP1 SWAP2 DIV MUL PUSH1 0x20 ADD PUSH1 0x40 MLOAD SWAP1 DUP2 ADD PUSH1 0x40 MSTORE DUP1 SWAP3 SWAP2 SWAP1 DUP2 DUP2 MSTORE PUSH1 0x20 ADD DUP3 DUP1 SLOAD PUSH2 0x18A1 SWAP1 PUSH2 0x41B3 JUMP JUMPDEST DUP1 ISZERO PUSH2 0x18EE JUMPI DUP1 PUSH1 0x1F LT PUSH2 0x18C3 JUMPI PUSH2 0x100 DUP1 DUP4 SLOAD DIV MUL DUP4 MSTORE SWAP2 PUSH1 0x20 ADD SWAP2 PUSH2 0x18EE JUMP JUMPDEST DUP3 ADD SWAP2 SWAP1 PUSH1 0x0 MSTORE PUSH1 0x20 PUSH1 0x0 KECCAK256 SWAP1 JUMPDEST DUP2 SLOAD DUP2 MSTORE SWAP1 PUSH1 0x1 ADD SWAP1 PUSH1 0x20 ADD DUP1 DUP4 GT PUSH2 0x18D1 JUMPI DUP3 SWAP1 SUB PUSH1 0x1F AND DUP3 ADD SWAP2 JUMPDEST POP POP POP SWAP2 DUP4 MSTORE POP POP PUSH1 0x3 DUP3 ADD SLOAD PUSH1 0x20 DUP3 ADD MSTORE PUSH1 0x4 DUP3 ADD SLOAD PUSH1 0x40 DUP3 ADD MSTORE PUSH1 0x5 DUP3 ADD SLOAD PUSH1 0x60 DUP3 ADD MSTORE PUSH1 0x6 SWAP1 SWAP2 ADD SLOAD PUSH1 0xFF AND ISZERO ISZERO PUSH1 0x80 SWAP1 SWAP2 ADD MSTORE DUP5 MLOAD DUP6 SWAP1 DUP6 SWAP1 DUP2 LT PUSH2 0x1939 JUMPI PUSH2 0x1939 PUSH2 0x41ED JUMP JUMPDEST PUSH1 0x20 MUL PUSH1 0x20 ADD ADD DUP2 SWAP1 MSTORE POP DUP3 DUP1 PUSH2 0x194F SWAP1 PUSH2 0x4203 JUMP JUMPDEST SWAP4 POP POP POP DUP1 DUP1 PUSH2 0x195E SWAP1 PUSH2 0x4203 JUMP JUMPDEST SWAP2 POP POP PUSH2 0x17D5 JUMP JUMPDEST PUSH1 0xF SLOAD PUSH2 0x1971 PUSH2 0x371F JUMP JUMPDEST DUP2 DUP2 MSTORE PUSH1 0x1 PUSH1 0x1 PUSH1 0xA0 SHL SUB DUP7 AND PUSH1 0x20 DUP3 ADD MSTORE PUSH1 0x40 DUP2 ADD DUP6 SWAP1 MSTORE PUSH1 0x60 DUP2 ADD DUP5 SWAP1 MSTORE PUSH1 0x80 DUP2 ADD DUP4 SWAP1 MSTORE PUSH2 0x19A1 DUP7 PUSH2 0x2A34 JUMP JUMPDEST ISZERO PUSH2 0x1A6D JUMPI PUSH1 0x0 PUSH2 0x19B1 DUP8 PUSH2 0x7F5 JUMP JUMPDEST PUSH1 0x1 PUSH1 0x80 DUP3 ADD DUP2 SWAP1 MSTORE PUSH1 0xC0 DUP5 ADD DUP2 SWAP1 MSTORE PUSH1 0x1 PUSH1 0x1 PUSH1 0xA0 SHL SUB DUP10 DUP2 AND PUSH1 0x0 SWAP1 DUP2 MSTORE PUSH1 0x20 DUP4 DUP2 MSTORE PUSH1 0x40 SWAP2 DUP3 SWAP1 KECCAK256 DUP6 MLOAD DUP2 SSTORE SWAP1 DUP6 ADD MLOAD SWAP4 DUP2 ADD DUP1 SLOAD PUSH1 0x1 PUSH1 0x1 PUSH1 0xA0 SHL SUB NOT AND SWAP5 SWAP1 SWAP4 AND SWAP4 SWAP1 SWAP4 OR SWAP1 SWAP2 SSTORE DUP3 ADD MLOAD SWAP2 SWAP3 POP DUP3 SWAP2 PUSH1 0x2 DUP3 ADD SWAP1 PUSH2 0x1A15 SWAP1 DUP3 PUSH2 0x426B JUMP JUMPDEST POP PUSH1 0x60 DUP3 ADD MLOAD PUSH1 0x3 DUP3 ADD SSTORE PUSH1 0x80 DUP3 ADD MLOAD PUSH1 0x4 SWAP1 SWAP2 ADD DUP1 SLOAD PUSH1 0xA0 DUP5 ADD MLOAD PUSH1 0xC0 SWAP1 SWAP5 ADD MLOAD ISZERO ISZERO PUSH3 0x10000 MUL PUSH3 0xFF0000 NOT SWAP5 ISZERO ISZERO PUSH2 0x100 MUL PUSH2 0xFF00 NOT SWAP5 ISZERO ISZERO SWAP5 SWAP1 SWAP5 AND PUSH2 0xFFFF NOT SWAP1 SWAP3 AND SWAP2 SWAP1 SWAP2 OR SWAP3 SWAP1 SWAP3 OR SWAP3 SWAP1 SWAP3 AND OR SWAP1 SSTORE POP JUMPDEST PUSH1 0x1 PUSH1 0x1 PUSH1 0xA0 SHL SUB DUP7 DUP2 AND PUSH1 0x0 SWAP1 DUP2 MSTORE PUSH1 0x2 PUSH1 0x20 DUP2 DUP2 MSTORE PUSH1 0x40 SWAP3 DUP4 SWAP1 KECCAK256 DUP6 MLOAD DUP2 SSTORE SWAP1 DUP6 ADD MLOAD PUSH1 0x1 DUP3 ADD DUP1 SLOAD PUSH1 0x1 PUSH1 0x1 PUSH1 0xA0 SHL SUB NOT AND SWAP2 SWAP1 SWAP6 AND OR SWAP1 SWAP4 SSTORE SWAP1 DUP4 ADD MLOAD DUP4 SWAP3 SWAP2 DUP3 ADD SWAP1 PUSH2 0x1ABE SWAP1 DUP3 PUSH2 0x426B JUMP JUMPDEST POP PUSH1 0x60 DUP3 ADD MLOAD PUSH1 0x3 DUP3 ADD SWAP1 PUSH2 0x1AD3 SWAP1 DUP3 PUSH2 0x426B JUMP JUMPDEST POP PUSH1 0x80 DUP3 ADD MLOAD PUSH1 0x4 DUP3 ADD SSTORE PUSH1 0xA0 DUP3 ADD MLOAD PUSH1 0x5 DUP3 ADD SSTORE PUSH1 0xC0 DUP3 ADD MLOAD PUSH1 0x6 SWAP1 SWAP2 ADD DUP1 SLOAD PUSH1 0xE0 SWAP1 SWAP4 ADD MLOAD ISZERO ISZERO PUSH2 0x100 MUL PUSH2 0xFF00 NOT SWAP3 ISZERO ISZERO SWAP3 SWAP1 SWAP3 AND PUSH2 0xFFFF NOT SWAP1 SWAP4 AND SWAP3 SWAP1 SWAP3 OR OR SWAP1 SSTORE PUSH1 0xF DUP1 SLOAD SWAP1 PUSH1 0x0 PUSH2 0x1B29 DUP4 PUSH2 0x4203 JUMP JUMPDEST SWAP2 SWAP1 POP SSTORE POP POP POP POP POP POP POP JUMP JUMPDEST PUSH1 0x0 DUP1 PUSH1 0x3 DUP5 DUP2 SLOAD DUP2 LT PUSH2 0x1B4C JUMPI PUSH2 0x1B4C PUSH2 0x41ED JUMP JUMPDEST SWAP1 PUSH1 0x0 MSTORE PUSH1 0x20 PUSH1 0x0 KECCAK256 SWAP1 PUSH1 0x7 MUL ADD PUSH1 0x40 MLOAD DUP1 PUSH1 0xE0 ADD PUSH1 0x40 MSTORE SWAP1 DUP2 PUSH1 0x0 DUP3 ADD SLOAD DUP2 MSTORE PUSH1 0x20 ADD PUSH1 0x1 DUP3 ADD PUSH1 0x0 SWAP1 SLOAD SWAP1 PUSH2 0x100 EXP SWAP1 DIV PUSH1 0x1 PUSH1 0x1 PUSH1 0xA0 SHL SUB AND PUSH1 0x1 PUSH1 0x1 PUSH1 0xA0 SHL SUB AND PUSH1 0x1 PUSH1 0x1 PUSH1 0xA0 SHL SUB AND DUP2 MSTORE PUSH1 0x20 ADD PUSH1 0x2 DUP3 ADD DUP1 SLOAD PUSH2 0x1BAE SWAP1 PUSH2 0x41B3 JUMP JUMPDEST DUP1 PUSH1 0x1F ADD PUSH1 0x20 DUP1 SWAP2 DIV MUL PUSH1 0x20 ADD PUSH1 0x40 MLOAD SWAP1 DUP2 ADD PUSH1 0x40 MSTORE DUP1 SWAP3 SWAP2 SWAP1 DUP2 DUP2 MSTORE PUSH1 0x20 ADD DUP3 DUP1 SLOAD PUSH2 0x1BDA SWAP1 PUSH2 0x41B3 JUMP JUMPDEST DUP1 ISZERO PUSH2 0x1C27 JUMPI DUP1 PUSH1 0x1F LT PUSH2 0x1BFC JUMPI PUSH2 0x100 DUP1 DUP4 SLOAD DIV MUL DUP4 MSTORE SWAP2 PUSH1 0x20 ADD SWAP2 PUSH2 0x1C27 JUMP JUMPDEST DUP3 ADD SWAP2 SWAP1 PUSH1 0x0 MSTORE PUSH1 0x20 PUSH1 0x0 KECCAK256 SWAP1 JUMPDEST DUP2 SLOAD DUP2 MSTORE SWAP1 PUSH1 0x1 ADD SWAP1 PUSH1 0x20 ADD DUP1 DUP4 GT PUSH2 0x1C0A JUMPI DUP3 SWAP1 SUB PUSH1 0x1F AND DUP3 ADD SWAP2 JUMPDEST POP POP POP SWAP2 DUP4 MSTORE POP POP PUSH1 0x3 DUP3 ADD SLOAD PUSH1 0x20 DUP3 ADD MSTORE PUSH1 0x4 DUP3 ADD SLOAD PUSH1 0x40 DUP3 ADD MSTORE PUSH1 0x5 DUP1 DUP4 ADD SLOAD PUSH1 0x60 DUP4 ADD MSTORE PUSH1 0x6 SWAP1 SWAP3 ADD SLOAD PUSH1 0xFF AND ISZERO ISZERO PUSH1 0x80 SWAP1 SWAP2 ADD MSTORE PUSH1 0xA0 DUP3 ADD MLOAD SWAP2 SWAP3 POP PUSH1 0x0 SWAP1 DUP6 SWAP1 PUSH1 0xA SWAP1 PUSH2 0x1C7A SWAP1 DUP6 SWAP1 PUSH2 0x4189 JUMP JUMPDEST PUSH2 0x1C84 SWAP2 SWAP1 PUSH2 0x432A JUMP JUMPDEST PUSH2 0x1C8E SWAP2 SWAP1 PUSH2 0x432A JUMP JUMPDEST SWAP7 SWAP6 POP POP POP POP POP POP JUMP JUMPDEST PUSH1 0x2 PUSH1 0x20 DUP2 SWAP1 MSTORE PUSH1 0x0 SWAP2 DUP3 MSTORE PUSH1 0x40 SWAP1 SWAP2 KECCAK256 DUP1 SLOAD PUSH1 0x1 DUP3 ADD SLOAD SWAP3 DUP3 ADD DUP1 SLOAD SWAP2 SWAP4 PUSH1 0x1 PUSH1 0x1 PUSH1 0xA0 SHL SUB AND SWAP3 SWAP2 PUSH2 0xB71 SWAP1 PUSH2 0x41B3 JUMP JUMPDEST PUSH1 0x10 SLOAD PUSH1 0x0 SWAP1 PUSH2 0x1CD9 PUSH2 0x3694 JUMP JUMPDEST DUP2 DUP2 MSTORE PUSH1 0x1 PUSH1 0x1 PUSH1 0xA0 SHL SUB DUP10 AND PUSH1 0x20 DUP3 ADD MSTORE PUSH1 0x40 DUP2 ADD DUP9 SWAP1 MSTORE PUSH1 0x60 DUP2 ADD DUP8 SWAP1 MSTORE PUSH1 0x80 DUP2 ADD DUP7 SWAP1 MSTORE PUSH1 0x16 SLOAD PUSH2 0x1D0D SWAP1 DUP6 PUSH2 0x4189 JUMP JUMPDEST PUSH1 0xA0 DUP3 ADD MSTORE PUSH1 0x3 DUP1 SLOAD PUSH1 0x1 DUP2 ADD DUP3 SSTORE PUSH1 0x0 SWAP2 SWAP1 SWAP2 MSTORE DUP2 MLOAD PUSH32 0xC2575A0E9E593C00F959F8C92F12DB2869C3395A3B0502D05E2516446F71F85B PUSH1 0x7 SWAP1 SWAP3 MUL SWAP2 DUP3 ADD SWAP1 DUP2 SSTORE PUSH1 0x20 DUP4 ADD MLOAD PUSH32 0xC2575A0E9E593C00F959F8C92F12DB2869C3395A3B0502D05E2516446F71F85C DUP4 ADD DUP1 SLOAD PUSH1 0x1 PUSH1 0x1 PUSH1 0xA0 SHL SUB NOT AND PUSH1 0x1 PUSH1 0x1 PUSH1 0xA0 SHL SUB SWAP1 SWAP3 AND SWAP2 SWAP1 SWAP2 OR SWAP1 SSTORE PUSH1 0x40 DUP4 ADD MLOAD DUP4 SWAP3 PUSH32 0xC2575A0E9E593C00F959F8C92F12DB2869C3395A3B0502D05E2516446F71F85D ADD SWAP1 PUSH2 0x1DC9 SWAP1 DUP3 PUSH2 0x426B JUMP JUMPDEST POP PUSH1 0x60 DUP3 ADD MLOAD PUSH1 0x3 DUP3 ADD SSTORE PUSH1 0x80 DUP3 ADD MLOAD PUSH1 0x4 DUP3 ADD SSTORE PUSH1 0xA0 DUP3 ADD MLOAD PUSH1 0x5 DUP3 ADD SSTORE PUSH1 0xC0 SWAP1 SWAP2 ADD MLOAD PUSH1 0x6 SWAP1 SWAP2 ADD DUP1 SLOAD PUSH1 0xFF NOT AND SWAP2 ISZERO ISZERO SWAP2 SWAP1 SWAP2 OR SWAP1 SSTORE DUP1 MLOAD PUSH1 0x1 PUSH1 0x1 PUSH1 0xA0 SHL SUB DUP11 AND PUSH1 0x0 SWAP1 DUP2 MSTORE PUSH1 0xA PUSH1 0x20 SWAP1 DUP2 MSTORE PUSH1 0x40 DUP1 DUP4 KECCAK256 SWAP4 SWAP1 SWAP4 SSTORE PUSH1 0x8 SWAP1 MSTORE SWAP1 DUP2 KECCAK256 SLOAD SWAP1 PUSH2 0x1E37 DUP3 PUSH1 0x1 PUSH2 0x41A0 JUMP JUMPDEST PUSH1 0x1 PUSH1 0x1 PUSH1 0xA0 SHL SUB DUP13 AND PUSH1 0x0 SWAP1 DUP2 MSTORE PUSH1 0x8 PUSH1 0x20 MSTORE PUSH1 0x40 DUP2 KECCAK256 DUP3 SWAP1 SSTORE SWAP1 SWAP2 POP JUMPDEST DUP10 DUP2 LT ISZERO PUSH2 0x1F3C JUMPI PUSH1 0x11 SLOAD PUSH1 0x40 DUP1 MLOAD PUSH1 0x80 DUP2 ADD DUP3 MSTORE PUSH1 0x0 PUSH1 0x20 DUP3 ADD DUP2 DUP2 MSTORE PUSH1 0x60 SWAP4 DUP4 ADD DUP5 SWAP1 MSTORE SWAP3 DUP3 ADD MSTORE DUP3 DUP2 MSTORE DUP7 MLOAD SWAP1 SWAP2 MSTORE DUP10 MLOAD DUP11 SWAP1 DUP5 SWAP1 DUP2 LT PUSH2 0x1E9C JUMPI PUSH2 0x1E9C PUSH2 0x41ED JUMP JUMPDEST PUSH1 0x20 SWAP1 DUP2 MUL SWAP2 SWAP1 SWAP2 ADD DUP2 ADD MLOAD PUSH1 0x40 DUP1 DUP5 ADD SWAP2 DUP3 MSTORE DUP9 MLOAD PUSH1 0x0 SWAP1 DUP2 MSTORE PUSH1 0x4 DUP1 DUP6 MSTORE SWAP2 DUP2 KECCAK256 DUP1 SLOAD PUSH1 0x1 DUP2 DUP2 ADD DUP4 SSTORE SWAP2 DUP4 MSTORE SWAP2 DUP6 SWAP1 KECCAK256 DUP7 MLOAD SWAP3 SWAP1 SWAP4 MUL SWAP1 SWAP3 ADD SWAP1 DUP2 SSTORE SWAP3 DUP5 ADD MLOAD SWAP1 DUP4 ADD SSTORE MLOAD DUP3 SWAP2 SWAP1 PUSH1 0x2 DUP3 ADD SWAP1 PUSH2 0x1EF6 SWAP1 DUP3 PUSH2 0x426B JUMP JUMPDEST POP PUSH1 0x60 SWAP2 SWAP1 SWAP2 ADD MLOAD PUSH1 0x3 SWAP1 SWAP2 ADD DUP1 SLOAD PUSH1 0xFF NOT AND SWAP2 ISZERO ISZERO SWAP2 SWAP1 SWAP2 OR SWAP1 SSTORE PUSH1 0x11 DUP1 SLOAD SWAP1 PUSH1 0x0 PUSH2 0x1F22 DUP4 PUSH2 0x4203 JUMP JUMPDEST SWAP2 SWAP1 POP SSTORE POP POP POP DUP1 DUP1 PUSH2 0x1F34 SWAP1 PUSH2 0x4203 JUMP JUMPDEST SWAP2 POP POP PUSH2 0x1E56 JUMP JUMPDEST POP PUSH1 0x10 DUP1 SLOAD SWAP1 PUSH1 0x0 PUSH2 0x1F4D DUP4 PUSH2 0x4203 JUMP JUMPDEST SWAP1 SWAP2 SSTORE POP POP SWAP2 MLOAD SWAP11 SWAP10 POP POP POP POP POP POP POP POP POP POP JUMP JUMPDEST PUSH1 0x5 PUSH1 0x20 MSTORE DUP2 PUSH1 0x0 MSTORE PUSH1 0x40 PUSH1 0x0 KECCAK256 DUP2 DUP2 SLOAD DUP2 LT PUSH2 0x1F7E JUMPI PUSH1 0x0 DUP1 REVERT JUMPDEST PUSH1 0x0 SWAP2 DUP3 MSTORE PUSH1 0x20 SWAP1 SWAP2 KECCAK256 PUSH1 0x4 SWAP1 SWAP2 MUL ADD DUP1 SLOAD PUSH1 0x1 DUP3 ADD SLOAD PUSH1 0x2 DUP4 ADD SLOAD PUSH1 0x3 SWAP1 SWAP4 ADD SLOAD SWAP2 SWAP5 POP SWAP3 POP PUSH1 0x1 PUSH1 0x1 PUSH1 0xA0 SHL SUB DUP2 AND SWAP1 PUSH1 0xFF PUSH1 0x1 PUSH1 0xA0 SHL DUP3 DIV DUP2 AND SWAP2 PUSH1 0x1 PUSH1 0xA8 SHL SWAP1 DIV AND DUP7 JUMP JUMPDEST PUSH1 0x0 PUSH1 0x3 DUP4 DUP2 SLOAD DUP2 LT PUSH2 0x1FDC JUMPI PUSH2 0x1FDC PUSH2 0x41ED JUMP JUMPDEST SWAP1 PUSH1 0x0 MSTORE PUSH1 0x20 PUSH1 0x0 KECCAK256 SWAP1 PUSH1 0x7 MUL ADD PUSH1 0x40 MLOAD DUP1 PUSH1 0xE0 ADD PUSH1 0x40 MSTORE SWAP1 DUP2 PUSH1 0x0 DUP3 ADD SLOAD DUP2 MSTORE PUSH1 0x20 ADD PUSH1 0x1 DUP3 ADD PUSH1 0x0 SWAP1 SLOAD SWAP1 PUSH2 0x100 EXP SWAP1 DIV PUSH1 0x1 PUSH1 0x1 PUSH1 0xA0 SHL SUB AND PUSH1 0x1 PUSH1 0x1 PUSH1 0xA0 SHL SUB AND PUSH1 0x1 PUSH1 0x1 PUSH1 0xA0 SHL SUB AND DUP2 MSTORE PUSH1 0x20 ADD PUSH1 0x2 DUP3 ADD DUP1 SLOAD PUSH2 0x203E SWAP1 PUSH2 0x41B3 JUMP JUMPDEST DUP1 PUSH1 0x1F ADD PUSH1 0x20 DUP1 SWAP2 DIV MUL PUSH1 0x20 ADD PUSH1 0x40 MLOAD SWAP1 DUP2 ADD PUSH1 0x40 MSTORE DUP1 SWAP3 SWAP2 SWAP1 DUP2 DUP2 MSTORE PUSH1 0x20 ADD DUP3 DUP1 SLOAD PUSH2 0x206A SWAP1 PUSH2 0x41B3 JUMP JUMPDEST DUP1 ISZERO PUSH2 0x20B7 JUMPI DUP1 PUSH1 0x1F LT PUSH2 0x208C JUMPI PUSH2 0x100 DUP1 DUP4 SLOAD DIV MUL DUP4 MSTORE SWAP2 PUSH1 0x20 ADD SWAP2 PUSH2 0x20B7 JUMP JUMPDEST DUP3 ADD SWAP2 SWAP1 PUSH1 0x0 MSTORE PUSH1 0x20 PUSH1 0x0 KECCAK256 SWAP1 JUMPDEST DUP2 SLOAD DUP2 MSTORE SWAP1 PUSH1 0x1 ADD SWAP1 PUSH1 0x20 ADD DUP1 DUP4 GT PUSH2 0x209A JUMPI DUP3 SWAP1 SUB PUSH1 0x1F AND DUP3 ADD SWAP2 JUMPDEST POP POP POP SWAP2 DUP4 MSTORE POP POP PUSH1 0x3 DUP3 ADD SLOAD PUSH1 0x20 DUP3 ADD MSTORE PUSH1 0x4 DUP3 ADD SLOAD PUSH1 0x40 DUP3 ADD MSTORE PUSH1 0x5 DUP3 ADD SLOAD PUSH1 0x60 DUP3 ADD MSTORE PUSH1 0x6 SWAP1 SWAP2 ADD SLOAD PUSH1 0xFF AND ISZERO ISZERO PUSH1 0x80 SWAP1 SWAP2 ADD MSTORE SWAP1 POP PUSH1 0x0 PUSH2 0x20FB DUP5 PUSH2 0xF5A JUMP JUMPDEST PUSH1 0x15 SLOAD PUSH1 0x40 MLOAD PUSH4 0xA9059CBB PUSH1 0xE0 SHL DUP2 MSTORE PUSH1 0x1 PUSH1 0x1 PUSH1 0xA0 SHL SUB DUP7 DUP2 AND PUSH1 0x4 DUP4 ADD MSTORE PUSH1 0x24 DUP3 ADD DUP5 SWAP1 MSTORE SWAP3 SWAP4 POP SWAP2 AND SWAP1 PUSH4 0xA9059CBB SWAP1 PUSH1 0x44 ADD PUSH1 0x20 PUSH1 0x40 MLOAD DUP1 DUP4 SUB DUP2 PUSH1 0x0 DUP8 GAS CALL ISZERO DUP1 ISZERO PUSH2 0x2150 JUMPI RETURNDATASIZE PUSH1 0x0 DUP1 RETURNDATACOPY RETURNDATASIZE PUSH1 0x0 REVERT JUMPDEST POP POP POP POP PUSH1 0x40 MLOAD RETURNDATASIZE PUSH1 0x1F NOT PUSH1 0x1F DUP3 ADD AND DUP3 ADD DUP1 PUSH1 0x40 MSTORE POP DUP2 ADD SWAP1 PUSH2 0x2174 SWAP2 SWAP1 PUSH2 0x434C JUMP JUMPDEST POP PUSH1 0x0 PUSH2 0x2185 DUP6 DUP5 PUSH1 0x80 ADD MLOAD PUSH2 0x1B36 JUMP JUMPDEST PUSH1 0x15 SLOAD PUSH1 0x0 SLOAD PUSH1 0x40 MLOAD PUSH4 0xA9059CBB PUSH1 0xE0 SHL DUP2 MSTORE PUSH1 0x1 PUSH1 0x1 PUSH1 0xA0 SHL SUB SWAP2 DUP3 AND PUSH1 0x4 DUP3 ADD MSTORE PUSH1 0x24 DUP2 ADD DUP5 SWAP1 MSTORE SWAP3 SWAP4 POP AND SWAP1 PUSH4 0xA9059CBB SWAP1 PUSH1 0x44 ADD PUSH1 0x20 PUSH1 0x40 MLOAD DUP1 DUP4 SUB DUP2 PUSH1 0x0 DUP8 GAS CALL ISZERO DUP1 ISZERO PUSH2 0x21DC JUMPI RETURNDATASIZE PUSH1 0x0 DUP1 RETURNDATACOPY RETURNDATASIZE PUSH1 0x0 REVERT JUMPDEST POP POP POP POP PUSH1 0x40 MLOAD RETURNDATASIZE PUSH1 0x1F NOT PUSH1 0x1F DUP3 ADD AND DUP3 ADD DUP1 PUSH1 0x40 MSTORE POP DUP2 ADD SWAP1 PUSH2 0x2200 SWAP2 SWAP1 PUSH2 0x434C JUMP JUMPDEST POP PUSH2 0x2209 PUSH2 0x3771 JUMP JUMPDEST PUSH1 0x13 DUP1 SLOAD DUP3 MSTORE PUSH1 0x20 DUP3 ADD DUP8 DUP2 MSTORE PUSH1 0x1 PUSH1 0x1 PUSH1 0xA0 SHL SUB DUP8 DUP2 AND PUSH1 0x40 DUP6 ADD SWAP1 DUP2 MSTORE PUSH1 0x60 DUP6 ADD DUP8 DUP2 MSTORE PUSH1 0xD DUP1 SLOAD PUSH1 0x1 DUP2 ADD DUP3 SSTORE PUSH1 0x0 SWAP2 DUP3 MSTORE DUP8 MLOAD PUSH32 0xD7B6990105719101DABEB77144F2A3385C8033ACD3AF97E9423A695E81AD1EB5 PUSH1 0x5 SWAP1 SWAP3 MUL SWAP2 DUP3 ADD SSTORE SWAP5 MLOAD PUSH32 0xD7B6990105719101DABEB77144F2A3385C8033ACD3AF97E9423A695E81AD1EB6 DUP7 ADD SSTORE SWAP2 MLOAD PUSH32 0xD7B6990105719101DABEB77144F2A3385C8033ACD3AF97E9423A695E81AD1EB7 DUP6 ADD DUP1 SLOAD PUSH1 0x1 PUSH1 0x1 PUSH1 0xA0 SHL SUB NOT AND SWAP2 SWAP1 SWAP5 AND OR SWAP1 SWAP3 SSTORE SWAP1 MLOAD PUSH32 0xD7B6990105719101DABEB77144F2A3385C8033ACD3AF97E9423A695E81AD1EB8 DUP4 ADD SSTORE PUSH1 0x80 DUP5 ADD MLOAD PUSH32 0xD7B6990105719101DABEB77144F2A3385C8033ACD3AF97E9423A695E81AD1EB9 SWAP1 SWAP3 ADD DUP1 SLOAD PUSH1 0xFF NOT AND SWAP3 ISZERO ISZERO SWAP3 SWAP1 SWAP3 OR SWAP1 SWAP2 SSTORE DUP2 SLOAD SWAP2 SWAP1 PUSH2 0x2335 DUP4 PUSH2 0x4203 JUMP JUMPDEST SWAP1 SWAP2 SSTORE POP POP PUSH1 0x0 DUP7 DUP2 MSTORE PUSH1 0x7 PUSH1 0x20 SWAP1 DUP2 MSTORE PUSH1 0x40 DUP1 DUP4 KECCAK256 PUSH1 0x1 PUSH1 0x1 PUSH1 0xA0 SHL SUB DUP10 AND DUP5 MSTORE SWAP1 SWAP2 MSTORE SWAP1 KECCAK256 DUP1 SLOAD PUSH1 0xFF NOT AND PUSH1 0x1 OR SWAP1 SSTORE PUSH2 0x236F PUSH2 0x3771 JUMP JUMPDEST PUSH1 0x13 DUP1 SLOAD DUP3 MSTORE PUSH1 0x20 DUP3 ADD DUP9 DUP2 MSTORE PUSH1 0x0 DUP1 SLOAD PUSH1 0x1 PUSH1 0x1 PUSH1 0xA0 SHL SUB SWAP1 DUP2 AND PUSH1 0x40 DUP7 ADD SWAP1 DUP2 MSTORE PUSH1 0x60 DUP7 ADD DUP9 DUP2 MSTORE PUSH1 0xD DUP1 SLOAD PUSH1 0x1 DUP2 ADD DUP3 SSTORE SWAP1 DUP6 MSTORE DUP8 MLOAD PUSH32 0xD7B6990105719101DABEB77144F2A3385C8033ACD3AF97E9423A695E81AD1EB5 PUSH1 0x5 SWAP1 SWAP3 MUL SWAP2 DUP3 ADD SSTORE SWAP5 MLOAD PUSH32 0xD7B6990105719101DABEB77144F2A3385C8033ACD3AF97E9423A695E81AD1EB6 DUP7 ADD SSTORE SWAP1 MLOAD PUSH32 0xD7B6990105719101DABEB77144F2A3385C8033ACD3AF97E9423A695E81AD1EB7 DUP6 ADD DUP1 SLOAD PUSH1 0x1 PUSH1 0x1 PUSH1 0xA0 SHL SUB NOT AND SWAP2 SWAP1 SWAP4 AND OR SWAP1 SWAP2 SSTORE MLOAD PUSH32 0xD7B6990105719101DABEB77144F2A3385C8033ACD3AF97E9423A695E81AD1EB8 DUP4 ADD SSTORE PUSH1 0x80 DUP5 ADD MLOAD PUSH32 0xD7B6990105719101DABEB77144F2A3385C8033ACD3AF97E9423A695E81AD1EB9 SWAP1 SWAP3 ADD DUP1 SLOAD PUSH1 0xFF NOT AND SWAP3 ISZERO ISZERO SWAP3 SWAP1 SWAP3 OR SWAP1 SWAP2 SSTORE DUP2 SLOAD SWAP2 SWAP1 PUSH2 0x249C DUP4 PUSH2 0x4203 JUMP JUMPDEST SWAP2 SWAP1 POP SSTORE POP POP POP POP POP POP POP POP JUMP JUMPDEST PUSH1 0x1 PUSH1 0x1 PUSH1 0xA0 SHL SUB DUP1 DUP3 AND PUSH1 0x0 DUP2 DUP2 MSTORE PUSH1 0x2 PUSH1 0x20 MSTORE PUSH1 0x40 DUP2 KECCAK256 PUSH1 0x1 ADD SLOAD SWAP1 SWAP3 AND EQ PUSH2 0x24D6 JUMPI PUSH1 0x0 PUSH2 0x7EF JUMP JUMPDEST PUSH1 0x1 SWAP3 SWAP2 POP POP JUMP JUMPDEST PUSH1 0x1 PUSH1 0x1 PUSH1 0xA0 SHL SUB DUP1 DUP3 AND PUSH1 0x0 SWAP1 DUP2 MSTORE PUSH1 0x1 PUSH1 0x20 DUP2 DUP2 MSTORE PUSH1 0x40 DUP1 DUP5 KECCAK256 DUP2 MLOAD PUSH1 0xE0 DUP2 ADD DUP4 MSTORE DUP2 SLOAD DUP2 MSTORE SWAP4 DUP2 ADD SLOAD SWAP1 SWAP6 AND SWAP2 DUP4 ADD SWAP2 SWAP1 SWAP2 MSTORE PUSH1 0x2 DUP5 ADD DUP1 SLOAD SWAP4 SWAP5 SWAP3 SWAP4 SWAP2 DUP5 ADD SWAP2 PUSH2 0x252B SWAP1 PUSH2 0x41B3 JUMP JUMPDEST DUP1 PUSH1 0x1F ADD PUSH1 0x20 DUP1 SWAP2 DIV MUL PUSH1 0x20 ADD PUSH1 0x40 MLOAD SWAP1 DUP2 ADD PUSH1 0x40 MSTORE DUP1 SWAP3 SWAP2 SWAP1 DUP2 DUP2 MSTORE PUSH1 0x20 ADD DUP3 DUP1 SLOAD PUSH2 0x2557 SWAP1 PUSH2 0x41B3 JUMP JUMPDEST DUP1 ISZERO PUSH2 0x25A4 JUMPI DUP1 PUSH1 0x1F LT PUSH2 0x2579 JUMPI PUSH2 0x100 DUP1 DUP4 SLOAD DIV MUL DUP4 MSTORE SWAP2 PUSH1 0x20 ADD SWAP2 PUSH2 0x25A4 JUMP JUMPDEST DUP3 ADD SWAP2 SWAP1 PUSH1 0x0 MSTORE PUSH1 0x20 PUSH1 0x0 KECCAK256 SWAP1 JUMPDEST DUP2 SLOAD DUP2 MSTORE SWAP1 PUSH1 0x1 ADD SWAP1 PUSH1 0x20 ADD DUP1 DUP4 GT PUSH2 0x2587 JUMPI DUP3 SWAP1 SUB PUSH1 0x1F AND DUP3 ADD SWAP2 JUMPDEST POP POP POP SWAP2 DUP4 MSTORE POP POP PUSH1 0x3 DUP3 ADD SLOAD PUSH1 0x20 DUP1 DUP4 ADD SWAP2 SWAP1 SWAP2 MSTORE PUSH1 0x4 SWAP1 SWAP3 ADD SLOAD PUSH1 0xFF DUP1 DUP3 AND ISZERO ISZERO PUSH1 0x40 DUP1 DUP6 ADD SWAP2 SWAP1 SWAP2 MSTORE PUSH2 0x100 DUP4 DIV DUP3 AND ISZERO ISZERO PUSH1 0x60 DUP6 ADD MSTORE PUSH3 0x10000 SWAP1 SWAP3 DIV AND ISZERO ISZERO PUSH1 0x80 SWAP1 SWAP3 ADD SWAP2 SWAP1 SWAP2 MSTORE PUSH1 0x1 PUSH1 0xA0 DUP5 ADD DUP2 SWAP1 MSTORE PUSH1 0x1 PUSH1 0x1 PUSH1 0xA0 SHL SUB DUP7 DUP2 AND PUSH1 0x0 SWAP1 DUP2 MSTORE DUP3 DUP6 MSTORE DUP4 SWAP1 KECCAK256 DUP6 MLOAD DUP2 SSTORE SWAP4 DUP6 ADD MLOAD SWAP2 DUP5 ADD DUP1 SLOAD PUSH1 0x1 PUSH1 0x1 PUSH1 0xA0 SHL SUB NOT AND SWAP3 SWAP1 SWAP2 AND SWAP2 SWAP1 SWAP2 OR SWAP1 SSTORE DUP3 ADD MLOAD SWAP2 SWAP3 POP DUP3 SWAP2 PUSH1 0x2 DUP3 ADD SWAP1 PUSH2 0x2648 SWAP1 DUP3 PUSH2 0x426B JUMP JUMPDEST POP PUSH1 0x60 DUP3 ADD MLOAD PUSH1 0x3 DUP3 ADD SSTORE PUSH1 0x80 DUP3 ADD MLOAD PUSH1 0x4 SWAP1 SWAP2 ADD DUP1 SLOAD PUSH1 0xA0 DUP5 ADD MLOAD PUSH1 0xC0 SWAP1 SWAP5 ADD MLOAD ISZERO ISZERO PUSH3 0x10000 MUL PUSH3 0xFF0000 NOT SWAP5 ISZERO ISZERO PUSH2 0x100 MUL PUSH2 0xFF00 NOT SWAP5 ISZERO ISZERO SWAP5 SWAP1 SWAP5 AND PUSH2 0xFFFF NOT SWAP1 SWAP3 AND SWAP2 SWAP1 SWAP2 OR SWAP3 SWAP1 SWAP3 OR SWAP3 SWAP1 SWAP3 AND OR SWAP1 SSTORE POP POP JUMP JUMPDEST PUSH1 0x60 PUSH1 0x3 DUP1 SLOAD DUP1 PUSH1 0x20 MUL PUSH1 0x20 ADD PUSH1 0x40 MLOAD SWAP1 DUP2 ADD PUSH1 0x40 MSTORE DUP1 SWAP3 SWAP2 SWAP1 DUP2 DUP2 MSTORE PUSH1 0x20 ADD PUSH1 0x0 SWAP1 JUMPDEST DUP3 DUP3 LT ISZERO PUSH2 0x27DD JUMPI PUSH1 0x0 DUP5 DUP2 MSTORE PUSH1 0x20 SWAP1 DUP2 SWAP1 KECCAK256 PUSH1 0x40 DUP1 MLOAD PUSH1 0xE0 DUP2 ADD DUP3 MSTORE PUSH1 0x7 DUP7 MUL SWAP1 SWAP3 ADD DUP1 SLOAD DUP4 MSTORE PUSH1 0x1 DUP2 ADD SLOAD PUSH1 0x1 PUSH1 0x1 PUSH1 0xA0 SHL SUB AND SWAP4 DUP4 ADD SWAP4 SWAP1 SWAP4 MSTORE PUSH1 0x2 DUP4 ADD DUP1 SLOAD SWAP3 SWAP4 SWAP3 SWAP2 DUP5 ADD SWAP2 PUSH2 0x2719 SWAP1 PUSH2 0x41B3 JUMP JUMPDEST DUP1 PUSH1 0x1F ADD PUSH1 0x20 DUP1 SWAP2 DIV MUL PUSH1 0x20 ADD PUSH1 0x40 MLOAD SWAP1 DUP2 ADD PUSH1 0x40 MSTORE DUP1 SWAP3 SWAP2 SWAP1 DUP2 DUP2 MSTORE PUSH1 0x20 ADD DUP3 DUP1 SLOAD PUSH2 0x2745 SWAP1 PUSH2 0x41B3 JUMP JUMPDEST DUP1 ISZERO PUSH2 0x2792 JUMPI DUP1 PUSH1 0x1F LT PUSH2 0x2767 JUMPI PUSH2 0x100 DUP1 DUP4 SLOAD DIV MUL DUP4 MSTORE SWAP2 PUSH1 0x20 ADD SWAP2 PUSH2 0x2792 JUMP JUMPDEST DUP3 ADD SWAP2 SWAP1 PUSH1 0x0 MSTORE PUSH1 0x20 PUSH1 0x0 KECCAK256 SWAP1 JUMPDEST DUP2 SLOAD DUP2 MSTORE SWAP1 PUSH1 0x1 ADD SWAP1 PUSH1 0x20 ADD DUP1 DUP4 GT PUSH2 0x2775 JUMPI DUP3 SWAP1 SUB PUSH1 0x1F AND DUP3 ADD SWAP2 JUMPDEST POP POP POP SWAP2 DUP4 MSTORE POP POP PUSH1 0x3 DUP3 ADD SLOAD PUSH1 0x20 DUP1 DUP4 ADD SWAP2 SWAP1 SWAP2 MSTORE PUSH1 0x4 DUP4 ADD SLOAD PUSH1 0x40 DUP4 ADD MSTORE PUSH1 0x5 DUP4 ADD SLOAD PUSH1 0x60 DUP4 ADD MSTORE PUSH1 0x6 SWAP1 SWAP3 ADD SLOAD PUSH1 0xFF AND ISZERO ISZERO PUSH1 0x80 SWAP1 SWAP2 ADD MSTORE SWAP1 DUP3 MSTORE PUSH1 0x1 SWAP3 SWAP1 SWAP3 ADD SWAP2 ADD PUSH2 0x26C6 JUMP JUMPDEST POP POP POP POP SWAP1 POP SWAP1 JUMP JUMPDEST PUSH1 0xD DUP2 DUP2 SLOAD DUP2 LT PUSH2 0x27F6 JUMPI PUSH1 0x0 DUP1 REVERT JUMPDEST PUSH1 0x0 SWAP2 DUP3 MSTORE PUSH1 0x20 SWAP1 SWAP2 KECCAK256 PUSH1 0x5 SWAP1 SWAP2 MUL ADD DUP1 SLOAD PUSH1 0x1 DUP3 ADD SLOAD PUSH1 0x2 DUP4 ADD SLOAD PUSH1 0x3 DUP5 ADD SLOAD PUSH1 0x4 SWAP1 SWAP5 ADD SLOAD SWAP3 SWAP5 POP SWAP1 SWAP3 PUSH1 0x1 PUSH1 0x1 PUSH1 0xA0 SHL SUB SWAP1 SWAP2 AND SWAP2 PUSH1 0xFF AND DUP6 JUMP JUMPDEST PUSH1 0xC DUP2 DUP2 SLOAD DUP2 LT PUSH2 0x27F6 JUMPI PUSH1 0x0 DUP1 REVERT JUMPDEST PUSH1 0x60 PUSH1 0xB PUSH1 0x0 DUP4 DUP2 MSTORE PUSH1 0x20 ADD SWAP1 DUP2 MSTORE PUSH1 0x20 ADD PUSH1 0x0 KECCAK256 DUP1 SLOAD DUP1 PUSH1 0x20 MUL PUSH1 0x20 ADD PUSH1 0x40 MLOAD SWAP1 DUP2 ADD PUSH1 0x40 MSTORE DUP1 SWAP3 SWAP2 SWAP1 DUP2 DUP2 MSTORE PUSH1 0x20 ADD PUSH1 0x0 SWAP1 JUMPDEST DUP3 DUP3 LT ISZERO PUSH2 0x2A29 JUMPI PUSH1 0x0 DUP5 DUP2 MSTORE PUSH1 0x20 SWAP1 DUP2 SWAP1 KECCAK256 PUSH1 0x40 DUP1 MLOAD PUSH2 0x100 DUP2 ADD DUP3 MSTORE PUSH1 0x7 DUP7 MUL SWAP1 SWAP3 ADD DUP1 SLOAD DUP4 MSTORE PUSH1 0x1 DUP2 ADD SLOAD PUSH1 0x1 PUSH1 0x1 PUSH1 0xA0 SHL SUB AND SWAP4 DUP4 ADD SWAP4 SWAP1 SWAP4 MSTORE PUSH1 0x2 DUP4 ADD DUP1 SLOAD SWAP3 SWAP4 SWAP3 SWAP2 DUP5 ADD SWAP2 PUSH2 0x28CD SWAP1 PUSH2 0x41B3 JUMP JUMPDEST DUP1 PUSH1 0x1F ADD PUSH1 0x20 DUP1 SWAP2 DIV MUL PUSH1 0x20 ADD PUSH1 0x40 MLOAD SWAP1 DUP2 ADD PUSH1 0x40 MSTORE DUP1 SWAP3 SWAP2 SWAP1 DUP2 DUP2 MSTORE PUSH1 0x20 ADD DUP3 DUP1 SLOAD PUSH2 0x28F9 SWAP1 PUSH2 0x41B3 JUMP JUMPDEST DUP1 ISZERO PUSH2 0x2946 JUMPI DUP1 PUSH1 0x1F LT PUSH2 0x291B JUMPI PUSH2 0x100 DUP1 DUP4 SLOAD DIV MUL DUP4 MSTORE SWAP2 PUSH1 0x20 ADD SWAP2 PUSH2 0x2946 JUMP JUMPDEST DUP3 ADD SWAP2 SWAP1 PUSH1 0x0 MSTORE PUSH1 0x20 PUSH1 0x0 KECCAK256 SWAP1 JUMPDEST DUP2 SLOAD DUP2 MSTORE SWAP1 PUSH1 0x1 ADD SWAP1 PUSH1 0x20 ADD DUP1 DUP4 GT PUSH2 0x2929 JUMPI DUP3 SWAP1 SUB PUSH1 0x1F AND DUP3 ADD SWAP2 JUMPDEST POP POP POP POP POP DUP2 MSTORE PUSH1 0x20 ADD PUSH1 0x3 DUP3 ADD DUP1 SLOAD PUSH2 0x295F SWAP1 PUSH2 0x41B3 JUMP JUMPDEST DUP1 PUSH1 0x1F ADD PUSH1 0x20 DUP1 SWAP2 DIV MUL PUSH1 0x20 ADD PUSH1 0x40 MLOAD SWAP1 DUP2 ADD PUSH1 0x40 MSTORE DUP1 SWAP3 SWAP2 SWAP1 DUP2 DUP2 MSTORE PUSH1 0x20 ADD DUP3 DUP1 SLOAD PUSH2 0x298B SWAP1 PUSH2 0x41B3 JUMP JUMPDEST DUP1 ISZERO PUSH2 0x29D8 JUMPI DUP1 PUSH1 0x1F LT PUSH2 0x29AD JUMPI PUSH2 0x100 DUP1 DUP4 SLOAD DIV MUL DUP4 MSTORE SWAP2 PUSH1 0x20 ADD SWAP2 PUSH2 0x29D8 JUMP JUMPDEST DUP3 ADD SWAP2 SWAP1 PUSH1 0x0 MSTORE PUSH1 0x20 PUSH1 0x0 KECCAK256 SWAP1 JUMPDEST DUP2 SLOAD DUP2 MSTORE SWAP1 PUSH1 0x1 ADD SWAP1 PUSH1 0x20 ADD DUP1 DUP4 GT PUSH2 0x29BB JUMPI DUP3 SWAP1 SUB PUSH1 0x1F AND DUP3 ADD SWAP2 JUMPDEST POP POP POP SWAP2 DUP4 MSTORE POP POP PUSH1 0x4 DUP3 ADD SLOAD PUSH1 0x20 DUP1 DUP4 ADD SWAP2 SWAP1 SWAP2 MSTORE PUSH1 0x5 DUP4 ADD SLOAD PUSH1 0x40 DUP4 ADD MSTORE PUSH1 0x6 SWAP1 SWAP3 ADD SLOAD PUSH1 0xFF DUP1 DUP3 AND ISZERO ISZERO PUSH1 0x60 DUP5 ADD MSTORE PUSH2 0x100 SWAP1 SWAP2 DIV AND ISZERO ISZERO PUSH1 0x80 SWAP1 SWAP2 ADD MSTORE SWAP1 DUP3 MSTORE PUSH1 0x1 SWAP3 SWAP1 SWAP3 ADD SWAP2 ADD PUSH2 0x2879 JUMP JUMPDEST POP POP POP POP SWAP1 POP SWAP2 SWAP1 POP JUMP JUMPDEST PUSH1 0x1 PUSH1 0x1 PUSH1 0xA0 SHL SUB DUP1 DUP3 AND PUSH1 0x0 DUP2 DUP2 MSTORE PUSH1 0x1 PUSH1 0x20 DUP2 SWAP1 MSTORE PUSH1 0x40 DUP3 KECCAK256 ADD SLOAD SWAP1 SWAP3 AND EQ PUSH2 0x24D6 JUMPI PUSH1 0x0 PUSH2 0x7EF JUMP JUMPDEST PUSH1 0x0 PUSH2 0x2A6C DUP6 DUP6 PUSH2 0x765 JUMP JUMPDEST PUSH1 0x14 SLOAD PUSH1 0x40 DUP1 MLOAD PUSH1 0xA0 DUP2 ADD DUP3 MSTORE PUSH1 0x0 PUSH1 0x80 DUP3 ADD DUP2 DUP2 MSTORE DUP5 DUP4 MSTORE PUSH1 0x20 DUP1 DUP5 ADD DUP11 DUP2 MSTORE PUSH1 0x1 PUSH1 0x1 PUSH1 0xA0 SHL SUB DUP11 DUP2 AND DUP7 DUP9 ADD DUP2 DUP2 MSTORE PUSH1 0x60 DUP9 ADD DUP12 DUP2 MSTORE PUSH1 0xC DUP1 SLOAD PUSH1 0x1 DUP2 ADD DUP3 SSTORE SWAP1 DUP10 MSTORE DUP10 MLOAD PUSH32 0xDF6966C971051C3D54EC59162606531493A51404A002842F56009D7E5CF4A8C7 PUSH1 0x5 SWAP1 SWAP3 MUL SWAP2 DUP3 ADD SSTORE SWAP5 MLOAD PUSH32 0xDF6966C971051C3D54EC59162606531493A51404A002842F56009D7E5CF4A8C8 DUP7 ADD SSTORE SWAP1 MLOAD PUSH32 0xDF6966C971051C3D54EC59162606531493A51404A002842F56009D7E5CF4A8C9 DUP6 ADD DUP1 SLOAD PUSH1 0x1 PUSH1 0x1 PUSH1 0xA0 SHL SUB NOT AND SWAP2 SWAP1 SWAP5 AND OR SWAP1 SWAP3 SSTORE SWAP1 MLOAD PUSH32 0xDF6966C971051C3D54EC59162606531493A51404A002842F56009D7E5CF4A8CA DUP4 ADD SSTORE SWAP3 MLOAD PUSH32 0xDF6966C971051C3D54EC59162606531493A51404A002842F56009D7E5CF4A8CB SWAP1 SWAP2 ADD DUP1 SLOAD PUSH1 0xFF NOT AND SWAP2 ISZERO ISZERO SWAP2 SWAP1 SWAP2 OR SWAP1 SSTORE SWAP1 DUP3 MSTORE PUSH1 0x9 SWAP1 MSTORE SWAP2 SWAP1 SWAP2 KECCAK256 SLOAD SWAP3 SWAP4 POP SWAP1 SWAP2 PUSH2 0x2BB3 DUP5 DUP3 PUSH2 0x41A0 JUMP JUMPDEST PUSH1 0x1 PUSH1 0x1 PUSH1 0xA0 SHL SUB DUP7 AND PUSH1 0x0 SWAP1 DUP2 MSTORE PUSH1 0x9 PUSH1 0x20 MSTORE PUSH1 0x40 DUP2 KECCAK256 DUP3 SWAP1 SSTORE PUSH1 0x14 DUP1 SLOAD SWAP3 SWAP4 POP SWAP1 PUSH2 0x2BDF DUP4 PUSH2 0x4203 JUMP JUMPDEST SWAP2 SWAP1 POP SSTORE POP POP POP POP POP POP POP POP POP JUMP JUMPDEST PUSH2 0x2BF6 PUSH2 0x3694 JUMP JUMPDEST PUSH1 0x3 DUP3 DUP2 SLOAD DUP2 LT PUSH2 0x2C09 JUMPI PUSH2 0x2C09 PUSH2 0x41ED JUMP JUMPDEST SWAP1 PUSH1 0x0 MSTORE PUSH1 0x20 PUSH1 0x0 KECCAK256 SWAP1 PUSH1 0x7 MUL ADD PUSH1 0x40 MLOAD DUP1 PUSH1 0xE0 ADD PUSH1 0x40 MSTORE SWAP1 DUP2 PUSH1 0x0 DUP3 ADD SLOAD DUP2 MSTORE PUSH1 0x20 ADD PUSH1 0x1 DUP3 ADD PUSH1 0x0 SWAP1 SLOAD SWAP1 PUSH2 0x100 EXP SWAP1 DIV PUSH1 0x1 PUSH1 0x1 PUSH1 0xA0 SHL SUB AND PUSH1 0x1 PUSH1 0x1 PUSH1 0xA0 SHL SUB AND PUSH1 0x1 PUSH1 0x1 PUSH1 0xA0 SHL SUB AND DUP2 MSTORE PUSH1 0x20 ADD PUSH1 0x2 DUP3 ADD DUP1 SLOAD PUSH2 0x2C6B SWAP1 PUSH2 0x41B3 JUMP JUMPDEST DUP1 PUSH1 0x1F ADD PUSH1 0x20 DUP1 SWAP2 DIV MUL PUSH1 0x20 ADD PUSH1 0x40 MLOAD SWAP1 DUP2 ADD PUSH1 0x40 MSTORE DUP1 SWAP3 SWAP2 SWAP1 DUP2 DUP2 MSTORE PUSH1 0x20 ADD DUP3 DUP1 SLOAD PUSH2 0x2C97 SWAP1 PUSH2 0x41B3 JUMP JUMPDEST DUP1 ISZERO PUSH2 0x2CE4 JUMPI DUP1 PUSH1 0x1F LT PUSH2 0x2CB9 JUMPI PUSH2 0x100 DUP1 DUP4 SLOAD DIV MUL DUP4 MSTORE SWAP2 PUSH1 0x20 ADD SWAP2 PUSH2 0x2CE4 JUMP JUMPDEST DUP3 ADD SWAP2 SWAP1 PUSH1 0x0 MSTORE PUSH1 0x20 PUSH1 0x0 KECCAK256 SWAP1 JUMPDEST DUP2 SLOAD DUP2 MSTORE SWAP1 PUSH1 0x1 ADD SWAP1 PUSH1 0x20 ADD DUP1 DUP4 GT PUSH2 0x2CC7 JUMPI DUP3 SWAP1 SUB PUSH1 0x1F AND DUP3 ADD SWAP2 JUMPDEST POP POP POP SWAP2 DUP4 MSTORE POP POP PUSH1 0x3 DUP3 ADD SLOAD PUSH1 0x20 DUP3 ADD MSTORE PUSH1 0x4 DUP3 ADD SLOAD PUSH1 0x40 DUP3 ADD MSTORE PUSH1 0x5 DUP3 ADD SLOAD PUSH1 0x60 DUP3 ADD MSTORE PUSH1 0x6 SWAP1 SWAP2 ADD SLOAD PUSH1 0xFF AND ISZERO ISZERO PUSH1 0x80 SWAP1 SWAP2 ADD MSTORE SWAP3 SWAP2 POP POP JUMP JUMPDEST PUSH1 0x1 PUSH1 0x1 PUSH1 0xA0 SHL SUB DUP1 DUP4 AND PUSH1 0x0 SWAP1 DUP2 MSTORE PUSH1 0x2 PUSH1 0x20 DUP2 DUP2 MSTORE PUSH1 0x40 DUP1 DUP5 KECCAK256 DUP2 MLOAD PUSH2 0x100 DUP2 ADD DUP4 MSTORE DUP2 SLOAD DUP2 MSTORE PUSH1 0x1 DUP3 ADD SLOAD SWAP1 SWAP7 AND SWAP3 DUP7 ADD SWAP3 SWAP1 SWAP3 MSTORE SWAP2 DUP2 ADD DUP1 SLOAD SWAP4 SWAP5 SWAP4 SWAP2 SWAP3 DUP5 ADD SWAP2 PUSH2 0x2D6F SWAP1 PUSH2 0x41B3 JUMP JUMPDEST DUP1 PUSH1 0x1F ADD PUSH1 0x20 DUP1 SWAP2 DIV MUL PUSH1 0x20 ADD PUSH1 0x40 MLOAD SWAP1 DUP2 ADD PUSH1 0x40 MSTORE DUP1 SWAP3 SWAP2 SWAP1 DUP2 DUP2 MSTORE PUSH1 0x20 ADD DUP3 DUP1 SLOAD PUSH2 0x2D9B SWAP1 PUSH2 0x41B3 JUMP JUMPDEST DUP1 ISZERO PUSH2 0x2DE8 JUMPI DUP1 PUSH1 0x1F LT PUSH2 0x2DBD JUMPI PUSH2 0x100 DUP1 DUP4 SLOAD DIV MUL DUP4 MSTORE SWAP2 PUSH1 0x20 ADD SWAP2 PUSH2 0x2DE8 JUMP JUMPDEST DUP3 ADD SWAP2 SWAP1 PUSH1 0x0 MSTORE PUSH1 0x20 PUSH1 0x0 KECCAK256 SWAP1 JUMPDEST DUP2 SLOAD DUP2 MSTORE SWAP1 PUSH1 0x1 ADD SWAP1 PUSH1 0x20 ADD DUP1 DUP4 GT PUSH2 0x2DCB JUMPI DUP3 SWAP1 SUB PUSH1 0x1F AND DUP3 ADD SWAP2 JUMPDEST POP POP POP POP POP DUP2 MSTORE PUSH1 0x20 ADD PUSH1 0x3 DUP3 ADD DUP1 SLOAD PUSH2 0x2E01 SWAP1 PUSH2 0x41B3 JUMP JUMPDEST DUP1 PUSH1 0x1F ADD PUSH1 0x20 DUP1 SWAP2 DIV MUL PUSH1 0x20 ADD PUSH1 0x40 MLOAD SWAP1 DUP2 ADD PUSH1 0x40 MSTORE DUP1 SWAP3 SWAP2 SWAP1 DUP2 DUP2 MSTORE PUSH1 0x20 ADD DUP3 DUP1 SLOAD PUSH2 0x2E2D SWAP1 PUSH2 0x41B3 JUMP JUMPDEST DUP1 ISZERO PUSH2 0x2E7A JUMPI DUP1 PUSH1 0x1F LT PUSH2 0x2E4F JUMPI PUSH2 0x100 DUP1 DUP4 SLOAD DIV MUL DUP4 MSTORE SWAP2 PUSH1 0x20 ADD SWAP2 PUSH2 0x2E7A JUMP JUMPDEST DUP3 ADD SWAP2 SWAP1 PUSH1 0x0 MSTORE PUSH1 0x20 PUSH1 0x0 KECCAK256 SWAP1 JUMPDEST DUP2 SLOAD DUP2 MSTORE SWAP1 PUSH1 0x1 ADD SWAP1 PUSH1 0x20 ADD DUP1 DUP4 GT PUSH2 0x2E5D JUMPI DUP3 SWAP1 SUB PUSH1 0x1F AND DUP3 ADD SWAP2 JUMPDEST POP POP POP SWAP2 DUP4 MSTORE POP POP PUSH1 0x4 DUP3 ADD SLOAD PUSH1 0x20 DUP3 ADD MSTORE PUSH1 0x5 DUP3 ADD SLOAD PUSH1 0x40 DUP3 ADD MSTORE PUSH1 0x6 SWAP1 SWAP2 ADD SLOAD PUSH1 0xFF DUP1 DUP3 AND ISZERO ISZERO PUSH1 0x60 DUP5 ADD MSTORE PUSH2 0x100 SWAP1 SWAP2 DIV AND ISZERO ISZERO PUSH1 0x80 SWAP1 SWAP2 ADD MSTORE PUSH1 0x3 DUP1 SLOAD SWAP2 SWAP3 POP PUSH1 0x0 SWAP2 DUP7 SWAP1 DUP2 LT PUSH2 0x2ED1 JUMPI PUSH2 0x2ED1 PUSH2 0x41ED JUMP JUMPDEST SWAP1 PUSH1 0x0 MSTORE PUSH1 0x20 PUSH1 0x0 KECCAK256 SWAP1 PUSH1 0x7 MUL ADD PUSH1 0x40 MLOAD DUP1 PUSH1 0xE0 ADD PUSH1 0x40 MSTORE SWAP1 DUP2 PUSH1 0x0 DUP3 ADD SLOAD DUP2 MSTORE PUSH1 0x20 ADD PUSH1 0x1 DUP3 ADD PUSH1 0x0 SWAP1 SLOAD SWAP1 PUSH2 0x100 EXP SWAP1 DIV PUSH1 0x1 PUSH1 0x1 PUSH1 0xA0 SHL SUB AND PUSH1 0x1 PUSH1 0x1 PUSH1 0xA0 SHL SUB AND PUSH1 0x1 PUSH1 0x1 PUSH1 0xA0 SHL SUB AND DUP2 MSTORE PUSH1 0x20 ADD PUSH1 0x2 DUP3 ADD DUP1 SLOAD PUSH2 0x2F33 SWAP1 PUSH2 0x41B3 JUMP JUMPDEST DUP1 PUSH1 0x1F ADD PUSH1 0x20 DUP1 SWAP2 DIV MUL PUSH1 0x20 ADD PUSH1 0x40 MLOAD SWAP1 DUP2 ADD PUSH1 0x40 MSTORE DUP1 SWAP3 SWAP2 SWAP1 DUP2 DUP2 MSTORE PUSH1 0x20 ADD DUP3 DUP1 SLOAD PUSH2 0x2F5F SWAP1 PUSH2 0x41B3 JUMP JUMPDEST DUP1 ISZERO PUSH2 0x2FAC JUMPI DUP1 PUSH1 0x1F LT PUSH2 0x2F81 JUMPI PUSH2 0x100 DUP1 DUP4 SLOAD DIV MUL DUP4 MSTORE SWAP2 PUSH1 0x20 ADD SWAP2 PUSH2 0x2FAC JUMP JUMPDEST DUP3 ADD SWAP2 SWAP1 PUSH1 0x0 MSTORE PUSH1 0x20 PUSH1 0x0 KECCAK256 SWAP1 JUMPDEST DUP2 SLOAD DUP2 MSTORE SWAP1 PUSH1 0x1 ADD SWAP1 PUSH1 0x20 ADD DUP1 DUP4 GT PUSH2 0x2F8F JUMPI DUP3 SWAP1 SUB PUSH1 0x1F AND DUP3 ADD SWAP2 JUMPDEST POP POP POP SWAP2 DUP4 MSTORE POP POP PUSH1 0x3 DUP3 ADD SLOAD PUSH1 0x20 DUP3 ADD MSTORE PUSH1 0x4 DUP3 ADD SLOAD PUSH1 0x40 DUP3 ADD MSTORE PUSH1 0x5 DUP3 ADD SLOAD PUSH1 0x60 DUP1 DUP4 ADD SWAP2 SWAP1 SWAP2 MSTORE PUSH1 0x6 SWAP1 SWAP3 ADD SLOAD PUSH1 0xFF AND ISZERO ISZERO PUSH1 0x80 SWAP1 SWAP2 ADD MSTORE DUP2 ADD MLOAD SWAP1 SWAP2 POP PUSH1 0x0 JUMPDEST DUP2 DUP2 LT ISZERO PUSH2 0x30FF JUMPI PUSH2 0x3000 PUSH2 0x36DC JUMP JUMPDEST PUSH1 0x12 SLOAD DUP1 DUP3 MSTORE PUSH1 0x20 DUP3 ADD DUP4 SWAP1 MSTORE PUSH1 0x40 DUP3 ADD DUP10 SWAP1 MSTORE PUSH1 0x1 PUSH1 0x1 PUSH1 0xA0 SHL SUB DUP9 AND PUSH1 0x60 DUP4 ADD MSTORE DUP7 MLOAD DUP8 SWAP1 DUP5 SWAP1 DUP2 LT PUSH2 0x3037 JUMPI PUSH2 0x3037 PUSH2 0x41ED JUMP JUMPDEST PUSH1 0x20 SWAP1 DUP2 MUL SWAP2 SWAP1 SWAP2 ADD DUP2 ADD MLOAD ISZERO ISZERO PUSH1 0x80 DUP5 ADD SWAP1 DUP2 MSTORE PUSH1 0x0 DUP12 DUP2 MSTORE PUSH1 0x5 DUP4 MSTORE PUSH1 0x40 DUP1 DUP3 KECCAK256 DUP1 SLOAD PUSH1 0x1 DUP2 DUP2 ADD DUP4 SSTORE SWAP2 DUP5 MSTORE DUP6 DUP5 KECCAK256 DUP9 MLOAD PUSH1 0x4 SWAP1 SWAP3 MUL ADD SWAP1 DUP2 SSTORE SWAP5 DUP8 ADD MLOAD SWAP1 DUP6 ADD SSTORE DUP6 ADD MLOAD PUSH1 0x2 DUP5 ADD SSTORE PUSH1 0x60 DUP6 ADD MLOAD PUSH1 0x3 SWAP1 SWAP4 ADD DUP1 SLOAD SWAP3 MLOAD PUSH1 0xA0 DUP8 ADD MLOAD ISZERO ISZERO PUSH1 0x1 PUSH1 0xA8 SHL MUL PUSH1 0xFF PUSH1 0xA8 SHL NOT SWAP2 ISZERO ISZERO PUSH1 0x1 PUSH1 0xA0 SHL MUL PUSH1 0x1 PUSH1 0x1 PUSH1 0xA8 SHL SUB NOT SWAP1 SWAP6 AND PUSH1 0x1 PUSH1 0x1 PUSH1 0xA0 SHL SUB SWAP1 SWAP7 AND SWAP6 SWAP1 SWAP6 OR SWAP4 SWAP1 SWAP4 OR SWAP3 SWAP1 SWAP3 AND SWAP3 SWAP1 SWAP3 OR SWAP1 SSTORE PUSH1 0x12 DUP1 SLOAD SWAP2 PUSH2 0x30E5 DUP4 PUSH2 0x4203 JUMP JUMPDEST SWAP2 SWAP1 POP SSTORE POP POP POP DUP1 DUP1 PUSH2 0x30F7 SWAP1 PUSH2 0x4203 JUMP JUMPDEST SWAP2 POP POP PUSH2 0x2FF0 JUMP JUMPDEST POP PUSH1 0x0 DUP7 DUP2 MSTORE PUSH1 0x6 PUSH1 0x20 SWAP1 DUP2 MSTORE PUSH1 0x40 DUP1 DUP4 KECCAK256 PUSH1 0x1 PUSH1 0x1 PUSH1 0xA0 SHL SUB DUP10 AND DUP5 MSTORE DUP3 MSTORE DUP1 DUP4 KECCAK256 DUP1 SLOAD PUSH1 0xFF NOT AND PUSH1 0x1 OR SWAP1 SSTORE DUP9 DUP4 MSTORE PUSH1 0xB SWAP1 SWAP2 MSTORE SWAP1 KECCAK256 PUSH2 0x3140 DUP7 PUSH2 0x13B3 JUMP JUMPDEST DUP2 SLOAD PUSH1 0x1 DUP1 DUP3 ADD DUP5 SSTORE PUSH1 0x0 SWAP4 DUP5 MSTORE PUSH1 0x20 SWAP4 DUP5 SWAP1 KECCAK256 DUP4 MLOAD PUSH1 0x7 SWAP1 SWAP4 MUL ADD SWAP2 DUP3 SSTORE SWAP3 DUP3 ADD MLOAD SWAP3 DUP2 ADD DUP1 SLOAD PUSH1 0x1 PUSH1 0x1 PUSH1 0xA0 SHL SUB NOT AND PUSH1 0x1 PUSH1 0x1 PUSH1 0xA0 SHL SUB SWAP1 SWAP5 AND SWAP4 SWAP1 SWAP4 OR SWAP1 SWAP3 SSTORE PUSH1 0x40 DUP2 ADD MLOAD SWAP1 SWAP2 SWAP1 PUSH1 0x2 DUP3 ADD SWAP1 PUSH2 0x319B SWAP1 DUP3 PUSH2 0x426B JUMP JUMPDEST POP PUSH1 0x60 DUP3 ADD MLOAD PUSH1 0x3 DUP3 ADD SWAP1 PUSH2 0x31B0 SWAP1 DUP3 PUSH2 0x426B JUMP JUMPDEST POP PUSH1 0x80 DUP3 ADD MLOAD PUSH1 0x4 DUP3 ADD SSTORE PUSH1 0xA0 DUP1 DUP4 ADD MLOAD PUSH1 0x5 DUP4 ADD SSTORE PUSH1 0xC0 DUP4 ADD MLOAD PUSH1 0x6 SWAP1 SWAP3 ADD DUP1 SLOAD PUSH1 0xE0 SWAP1 SWAP5 ADD MLOAD ISZERO ISZERO PUSH2 0x100 MUL PUSH2 0xFF00 NOT SWAP4 ISZERO ISZERO SWAP4 SWAP1 SWAP4 AND PUSH2 0xFFFF NOT SWAP1 SWAP5 AND SWAP4 SWAP1 SWAP4 OR SWAP2 SWAP1 SWAP2 OR SWAP1 SWAP2 SSTORE DUP4 ADD DUP1 MLOAD PUSH1 0x1 SWAP2 SWAP1 PUSH2 0x320E SWAP1 DUP4 SWAP1 PUSH2 0x41A0 JUMP JUMPDEST SWAP1 MSTORE POP PUSH1 0x1 PUSH1 0x1 PUSH1 0xA0 SHL SUB DUP6 DUP2 AND PUSH1 0x0 SWAP1 DUP2 MSTORE PUSH1 0x2 PUSH1 0x20 DUP2 DUP2 MSTORE PUSH1 0x40 SWAP3 DUP4 SWAP1 KECCAK256 DUP8 MLOAD DUP2 SSTORE SWAP1 DUP8 ADD MLOAD PUSH1 0x1 DUP3 ADD DUP1 SLOAD PUSH1 0x1 PUSH1 0x1 PUSH1 0xA0 SHL SUB NOT AND SWAP2 SWAP1 SWAP6 AND OR SWAP1 SWAP4 SSTORE SWAP1 DUP6 ADD MLOAD DUP6 SWAP3 SWAP2 DUP3 ADD SWAP1 PUSH2 0x3262 SWAP1 DUP3 PUSH2 0x426B JUMP JUMPDEST POP PUSH1 0x60 DUP3 ADD MLOAD PUSH1 0x3 DUP3 ADD SWAP1 PUSH2 0x3277 SWAP1 DUP3 PUSH2 0x426B JUMP JUMPDEST POP PUSH1 0x80 DUP3 ADD MLOAD PUSH1 0x4 DUP3 ADD SSTORE PUSH1 0xA0 DUP3 ADD MLOAD PUSH1 0x5 DUP3 ADD SSTORE PUSH1 0xC0 DUP3 ADD MLOAD PUSH1 0x6 SWAP1 SWAP2 ADD DUP1 SLOAD PUSH1 0xE0 SWAP1 SWAP4 ADD MLOAD ISZERO ISZERO PUSH2 0x100 MUL PUSH2 0xFF00 NOT SWAP3 ISZERO ISZERO SWAP3 SWAP1 SWAP3 AND PUSH2 0xFFFF NOT SWAP1 SWAP4 AND SWAP3 SWAP1 SWAP3 OR OR SWAP1 SSTORE POP POP POP POP POP POP JUMP JUMPDEST PUSH1 0x60 PUSH1 0x5 PUSH1 0x0 DUP4 DUP2 MSTORE PUSH1 0x20 ADD SWAP1 DUP2 MSTORE PUSH1 0x20 ADD PUSH1 0x0 KECCAK256 DUP1 SLOAD DUP1 PUSH1 0x20 MUL PUSH1 0x20 ADD PUSH1 0x40 MLOAD SWAP1 DUP2 ADD PUSH1 0x40 MSTORE DUP1 SWAP3 SWAP2 SWAP1 DUP2 DUP2 MSTORE PUSH1 0x20 ADD PUSH1 0x0 SWAP1 JUMPDEST DUP3 DUP3 LT ISZERO PUSH2 0x2A29 JUMPI PUSH1 0x0 DUP5 DUP2 MSTORE PUSH1 0x20 SWAP1 DUP2 SWAP1 KECCAK256 PUSH1 0x40 DUP1 MLOAD PUSH1 0xC0 DUP2 ADD DUP3 MSTORE PUSH1 0x4 DUP7 MUL SWAP1 SWAP3 ADD DUP1 SLOAD DUP4 MSTORE PUSH1 0x1 DUP1 DUP3 ADD SLOAD DUP5 DUP7 ADD MSTORE PUSH1 0x2 DUP3 ADD SLOAD SWAP3 DUP5 ADD SWAP3 SWAP1 SWAP3 MSTORE PUSH1 0x3 ADD SLOAD PUSH1 0x1 PUSH1 0x1 PUSH1 0xA0 SHL SUB DUP2 AND PUSH1 0x60 DUP5 ADD MSTORE PUSH1 0xFF PUSH1 0x1 PUSH1 0xA0 SHL DUP3 DIV DUP2 AND ISZERO ISZERO PUSH1 0x80 DUP6 ADD MSTORE PUSH1 0x1 PUSH1 0xA8 SHL SWAP1 SWAP2 DIV AND ISZERO ISZERO PUSH1 0xA0 DUP4 ADD MSTORE SWAP1 DUP4 MSTORE SWAP1 SWAP3 ADD SWAP2 ADD PUSH2 0x32FA JUMP JUMPDEST PUSH1 0x60 PUSH1 0x4 PUSH1 0x0 DUP4 DUP2 MSTORE PUSH1 0x20 ADD SWAP1 DUP2 MSTORE PUSH1 0x20 ADD PUSH1 0x0 KECCAK256 DUP1 SLOAD DUP1 PUSH1 0x20 MUL PUSH1 0x20 ADD PUSH1 0x40 MLOAD SWAP1 DUP2 ADD PUSH1 0x40 MSTORE DUP1 SWAP3 SWAP2 SWAP1 DUP2 DUP2 MSTORE PUSH1 0x20 ADD PUSH1 0x0 SWAP1 JUMPDEST DUP3 DUP3 LT ISZERO PUSH2 0x2A29 JUMPI DUP4 DUP3 SWAP1 PUSH1 0x0 MSTORE PUSH1 0x20 PUSH1 0x0 KECCAK256 SWAP1 PUSH1 0x4 MUL ADD PUSH1 0x40 MLOAD DUP1 PUSH1 0x80 ADD PUSH1 0x40 MSTORE SWAP1 DUP2 PUSH1 0x0 DUP3 ADD SLOAD DUP2 MSTORE PUSH1 0x20 ADD PUSH1 0x1 DUP3 ADD SLOAD DUP2 MSTORE PUSH1 0x20 ADD PUSH1 0x2 DUP3 ADD DUP1 SLOAD PUSH2 0x33F6 SWAP1 PUSH2 0x41B3 JUMP JUMPDEST DUP1 PUSH1 0x1F ADD PUSH1 0x20 DUP1 SWAP2 DIV MUL PUSH1 0x20 ADD PUSH1 0x40 MLOAD SWAP1 DUP2 ADD PUSH1 0x40 MSTORE DUP1 SWAP3 SWAP2 SWAP1 DUP2 DUP2 MSTORE PUSH1 0x20 ADD DUP3 DUP1 SLOAD PUSH2 0x3422 SWAP1 PUSH2 0x41B3 JUMP JUMPDEST DUP1 ISZERO PUSH2 0x346F JUMPI DUP1 PUSH1 0x1F LT PUSH2 0x3444 JUMPI PUSH2 0x100 DUP1 DUP4 SLOAD DIV MUL DUP4 MSTORE SWAP2 PUSH1 0x20 ADD SWAP2 PUSH2 0x346F JUMP JUMPDEST DUP3 ADD SWAP2 SWAP1 PUSH1 0x0 MSTORE PUSH1 0x20 PUSH1 0x0 KECCAK256 SWAP1 JUMPDEST DUP2 SLOAD DUP2 MSTORE SWAP1 PUSH1 0x1 ADD SWAP1 PUSH1 0x20 ADD DUP1 DUP4 GT PUSH2 0x3452 JUMPI DUP3 SWAP1 SUB PUSH1 0x1F AND DUP3 ADD SWAP2 JUMPDEST POP POP POP SWAP2 DUP4 MSTORE POP POP PUSH1 0x3 SWAP2 SWAP1 SWAP2 ADD SLOAD PUSH1 0xFF AND ISZERO ISZERO PUSH1 0x20 SWAP2 DUP3 ADD MSTORE SWAP1 DUP3 MSTORE PUSH1 0x1 SWAP3 SWAP1 SWAP3 ADD SWAP2 ADD PUSH2 0x33AF JUMP JUMPDEST PUSH1 0x1 PUSH1 0x20 DUP2 SWAP1 MSTORE PUSH1 0x0 SWAP2 DUP3 MSTORE PUSH1 0x40 SWAP1 SWAP2 KECCAK256 DUP1 SLOAD SWAP2 DUP2 ADD SLOAD PUSH1 0x2 DUP3 ADD DUP1 SLOAD PUSH1 0x1 PUSH1 0x1 PUSH1 0xA0 SHL SUB SWAP1 SWAP3 AND SWAP3 SWAP2 PUSH2 0x34CC SWAP1 PUSH2 0x41B3 JUMP JUMPDEST DUP1 PUSH1 0x1F ADD PUSH1 0x20 DUP1 SWAP2 DIV MUL PUSH1 0x20 ADD PUSH1 0x40 MLOAD SWAP1 DUP2 ADD PUSH1 0x40 MSTORE DUP1 SWAP3 SWAP2 SWAP1 DUP2 DUP2 MSTORE PUSH1 0x20 ADD DUP3 DUP1 SLOAD PUSH2 0x34F8 SWAP1 PUSH2 0x41B3 JUMP JUMPDEST DUP1 ISZERO PUSH2 0x3545 JUMPI DUP1 PUSH1 0x1F LT PUSH2 0x351A JUMPI PUSH2 0x100 DUP1 DUP4 SLOAD DIV MUL DUP4 MSTORE SWAP2 PUSH1 0x20 ADD SWAP2 PUSH2 0x3545 JUMP JUMPDEST DUP3 ADD SWAP2 SWAP1 PUSH1 0x0 MSTORE PUSH1 0x20 PUSH1 0x0 KECCAK256 SWAP1 JUMPDEST DUP2 SLOAD DUP2 MSTORE SWAP1 PUSH1 0x1 ADD SWAP1 PUSH1 0x20 ADD DUP1 DUP4 GT PUSH2 0x3528 JUMPI DUP3 SWAP1 SUB PUSH1 0x1F AND DUP3 ADD SWAP2 JUMPDEST POP POP POP POP PUSH1 0x3 DUP4 ADD SLOAD PUSH1 0x4 SWAP1 SWAP4 ADD SLOAD SWAP2 SWAP3 SWAP2 PUSH1 0xFF DUP1 DUP3 AND SWAP3 POP PUSH2 0x100 DUP3 DIV DUP2 AND SWAP2 PUSH3 0x10000 SWAP1 DIV AND DUP8 JUMP JUMPDEST PUSH1 0x4 PUSH1 0x20 MSTORE DUP2 PUSH1 0x0 MSTORE PUSH1 0x40 PUSH1 0x0 KECCAK256 DUP2 DUP2 SLOAD DUP2 LT PUSH2 0x358C JUMPI PUSH1 0x0 DUP1 REVERT JUMPDEST SWAP1 PUSH1 0x0 MSTORE PUSH1 0x20 PUSH1 0x0 KECCAK256 SWAP1 PUSH1 0x4 MUL ADD PUSH1 0x0 SWAP2 POP SWAP2 POP POP DUP1 PUSH1 0x0 ADD SLOAD SWAP1 DUP1 PUSH1 0x1 ADD SLOAD SWAP1 DUP1 PUSH1 0x2 ADD DUP1 SLOAD PUSH2 0x35BC SWAP1 PUSH2 0x41B3 JUMP JUMPDEST DUP1 PUSH1 0x1F ADD PUSH1 0x20 DUP1 SWAP2 DIV MUL PUSH1 0x20 ADD PUSH1 0x40 MLOAD SWAP1 DUP2 ADD PUSH1 0x40 MSTORE DUP1 SWAP3 SWAP2 SWAP1 DUP2 DUP2 MSTORE PUSH1 0x20 ADD DUP3 DUP1 SLOAD PUSH2 0x35E8 SWAP1 PUSH2 0x41B3 JUMP JUMPDEST DUP1 ISZERO PUSH2 0x3635 JUMPI DUP1 PUSH1 0x1F LT PUSH2 0x360A JUMPI PUSH2 0x100 DUP1 DUP4 SLOAD DIV MUL DUP4 MSTORE SWAP2 PUSH1 0x20 ADD SWAP2 PUSH2 0x3635 JUMP JUMPDEST DUP3 ADD SWAP2 SWAP1 PUSH1 0x0 MSTORE PUSH1 0x20 PUSH1 0x0 KECCAK256 SWAP1 JUMPDEST DUP2 SLOAD DUP2 MSTORE SWAP1 PUSH1 0x1 ADD SWAP1 PUSH1 0x20 ADD DUP1 DUP4 GT PUSH2 0x3618 JUMPI DUP3 SWAP1 SUB PUSH1 0x1F AND DUP3 ADD SWAP2 JUMPDEST POP POP POP PUSH1 0x3 SWAP1 SWAP4 ADD SLOAD SWAP2 SWAP3 POP POP PUSH1 0xFF AND DUP5 JUMP JUMPDEST PUSH1 0x40 MLOAD DUP1 PUSH1 0xE0 ADD PUSH1 0x40 MSTORE DUP1 PUSH1 0x0 DUP2 MSTORE PUSH1 0x20 ADD PUSH1 0x0 PUSH1 0x1 PUSH1 0x1 PUSH1 0xA0 SHL SUB AND DUP2 MSTORE PUSH1 0x20 ADD PUSH1 0x60 DUP2 MSTORE PUSH1 0x20 ADD PUSH1 0x0 DUP2 MSTORE PUSH1 0x20 ADD PUSH1 0x0 ISZERO ISZERO DUP2 MSTORE PUSH1 0x20 ADD PUSH1 0x0 ISZERO ISZERO DUP2 MSTORE PUSH1 0x20 ADD PUSH1 0x0 ISZERO ISZERO DUP2 MSTORE POP SWAP1 JUMP JUMPDEST PUSH1 0x40 MLOAD DUP1 PUSH1 0xE0 ADD PUSH1 0x40 MSTORE DUP1 PUSH1 0x0 DUP2 MSTORE PUSH1 0x20 ADD PUSH1 0x0 PUSH1 0x1 PUSH1 0x1 PUSH1 0xA0 SHL SUB AND DUP2 MSTORE PUSH1 0x20 ADD PUSH1 0x60 DUP2 MSTORE PUSH1 0x20 ADD PUSH1 0x0 DUP2 MSTORE PUSH1 0x20 ADD PUSH1 0x0 DUP2 MSTORE PUSH1 0x20 ADD PUSH1 0x0 DUP2 MSTORE PUSH1 0x20 ADD PUSH1 0x0 ISZERO ISZERO DUP2 MSTORE POP SWAP1 JUMP JUMPDEST PUSH1 0x40 MLOAD DUP1 PUSH1 0xC0 ADD PUSH1 0x40 MSTORE DUP1 PUSH1 0x0 DUP2 MSTORE PUSH1 0x20 ADD PUSH1 0x0 DUP2 MSTORE PUSH1 0x20 ADD PUSH1 0x0 DUP2 MSTORE PUSH1 0x20 ADD PUSH1 0x0 PUSH1 0x1 PUSH1 0x1 PUSH1 0xA0 SHL SUB AND DUP2 MSTORE PUSH1 0x20 ADD PUSH1 0x0 ISZERO ISZERO DUP2 MSTORE PUSH1 0x20 ADD PUSH1 0x0 ISZERO ISZERO DUP2 MSTORE POP SWAP1 JUMP JUMPDEST PUSH1 0x40 MLOAD DUP1 PUSH2 0x100 ADD PUSH1 0x40 MSTORE DUP1 PUSH1 0x0 DUP2 MSTORE PUSH1 0x20 ADD PUSH1 0x0 PUSH1 0x1 PUSH1 0x1 PUSH1 0xA0 SHL SUB AND DUP2 MSTORE PUSH1 0x20 ADD PUSH1 0x60 DUP2 MSTORE PUSH1 0x20 ADD PUSH1 0x60 DUP2 MSTORE PUSH1 0x20 ADD PUSH1 0x0 DUP2 MSTORE PUSH1 0x20 ADD PUSH1 0x0 DUP2 MSTORE PUSH1 0x20 ADD PUSH1 0x0 ISZERO ISZERO DUP2 MSTORE PUSH1 0x20 ADD PUSH1 0x0 ISZERO ISZERO DUP2 MSTORE POP SWAP1 JUMP JUMPDEST PUSH1 0x40 MLOAD DUP1 PUSH1 0xA0 ADD PUSH1 0x40 MSTORE DUP1 PUSH1 0x0 DUP2 MSTORE PUSH1 0x20 ADD PUSH1 0x0 DUP2 MSTORE PUSH1 0x20 ADD PUSH1 0x0 PUSH1 0x1 PUSH1 0x1 PUSH1 0xA0 SHL SUB AND DUP2 MSTORE PUSH1 0x20 ADD PUSH1 0x0 DUP2 MSTORE PUSH1 0x20 ADD PUSH1 0x0 ISZERO ISZERO DUP2 MSTORE POP SWAP1 JUMP JUMPDEST PUSH1 0x0 DUP1 PUSH1 0x40 DUP4 DUP6 SUB SLT ISZERO PUSH2 0x37BE JUMPI PUSH1 0x0 DUP1 REVERT JUMPDEST POP POP DUP1 CALLDATALOAD SWAP3 PUSH1 0x20 SWAP1 SWAP2 ADD CALLDATALOAD SWAP2 POP JUMP JUMPDEST DUP1 CALLDATALOAD PUSH1 0x1 PUSH1 0x1 PUSH1 0xA0 SHL SUB DUP2 AND DUP2 EQ PUSH2 0x37E4 JUMPI PUSH1 0x0 DUP1 REVERT JUMPDEST SWAP2 SWAP1 POP JUMP JUMPDEST PUSH1 0x0 PUSH1 0x20 DUP3 DUP5 SUB SLT ISZERO PUSH2 0x37FB JUMPI PUSH1 0x0 DUP1 REVERT JUMPDEST PUSH2 0x3804 DUP3 PUSH2 0x37CD JUMP JUMPDEST SWAP4 SWAP3 POP POP POP JUMP JUMPDEST PUSH1 0x0 DUP2 MLOAD DUP1 DUP5 MSTORE PUSH1 0x0 JUMPDEST DUP2 DUP2 LT ISZERO PUSH2 0x3831 JUMPI PUSH1 0x20 DUP2 DUP6 ADD DUP2 ADD MLOAD DUP7 DUP4 ADD DUP3 ADD MSTORE ADD PUSH2 0x3815 JUMP JUMPDEST POP PUSH1 0x0 PUSH1 0x20 DUP3 DUP7 ADD ADD MSTORE PUSH1 0x20 PUSH1 0x1F NOT PUSH1 0x1F DUP4 ADD AND DUP6 ADD ADD SWAP2 POP POP SWAP3 SWAP2 POP POP JUMP JUMPDEST PUSH1 0x20 DUP2 MSTORE DUP2 MLOAD PUSH1 0x20 DUP3 ADD MSTORE PUSH1 0x1 DUP1 PUSH1 0xA0 SHL SUB PUSH1 0x20 DUP4 ADD MLOAD AND PUSH1 0x40 DUP3 ADD MSTORE PUSH1 0x0 PUSH1 0x40 DUP4 ADD MLOAD PUSH1 0xE0 PUSH1 0x60 DUP5 ADD MSTORE PUSH2 0x388A PUSH2 0x100 DUP5 ADD DUP3 PUSH2 0x380B JUMP JUMPDEST SWAP1 POP PUSH1 0x60 DUP5 ADD MLOAD PUSH1 0x80 DUP5 ADD MSTORE PUSH1 0x80 DUP5 ADD MLOAD ISZERO ISZERO PUSH1 0xA0 DUP5 ADD MSTORE PUSH1 0xA0 DUP5 ADD MLOAD ISZERO ISZERO PUSH1 0xC0 DUP5 ADD MSTORE PUSH1 0xC0 DUP5 ADD MLOAD ISZERO ISZERO PUSH1 0xE0 DUP5 ADD MSTORE DUP1 SWAP2 POP POP SWAP3 SWAP2 POP POP JUMP JUMPDEST DUP1 MLOAD DUP3 MSTORE PUSH1 0x1 DUP1 PUSH1 0xA0 SHL SUB PUSH1 0x20 DUP3 ADD MLOAD AND PUSH1 0x20 DUP4 ADD MSTORE PUSH1 0x0 PUSH1 0x40 DUP3 ADD MLOAD PUSH1 0xE0 PUSH1 0x40 DUP6 ADD MSTORE PUSH2 0x38F5 PUSH1 0xE0 DUP6 ADD DUP3 PUSH2 0x380B JUMP JUMPDEST SWAP1 POP PUSH1 0x60 DUP4 ADD MLOAD PUSH1 0x60 DUP6 ADD MSTORE PUSH1 0x80 DUP4 ADD MLOAD PUSH1 0x80 DUP6 ADD MSTORE PUSH1 0xA0 DUP4 ADD MLOAD PUSH1 0xA0 DUP6 ADD MSTORE PUSH1 0xC0 DUP4 ADD MLOAD ISZERO ISZERO PUSH1 0xC0 DUP6 ADD MSTORE DUP1 SWAP2 POP POP SWAP3 SWAP2 POP POP JUMP JUMPDEST PUSH1 0x0 PUSH1 0x20 DUP1 DUP4 ADD DUP2 DUP5 MSTORE DUP1 DUP6 MLOAD DUP1 DUP4 MSTORE PUSH1 0x40 DUP7 ADD SWAP2 POP PUSH1 0x40 DUP2 PUSH1 0x5 SHL DUP8 ADD ADD SWAP3 POP DUP4 DUP8 ADD PUSH1 0x0 JUMPDEST DUP3 DUP2 LT ISZERO PUSH2 0x3980 JUMPI PUSH1 0x3F NOT DUP9 DUP7 SUB ADD DUP5 MSTORE PUSH2 0x396E DUP6 DUP4 MLOAD PUSH2 0x38C4 JUMP JUMPDEST SWAP5 POP SWAP3 DUP6 ADD SWAP3 SWAP1 DUP6 ADD SWAP1 PUSH1 0x1 ADD PUSH2 0x3952 JUMP JUMPDEST POP SWAP3 SWAP8 SWAP7 POP POP POP POP POP POP POP JUMP JUMPDEST DUP9 DUP2 MSTORE PUSH1 0x1 PUSH1 0x1 PUSH1 0xA0 SHL SUB DUP9 AND PUSH1 0x20 DUP3 ADD MSTORE PUSH2 0x100 PUSH1 0x40 DUP3 ADD DUP2 SWAP1 MSTORE PUSH1 0x0 SWAP1 PUSH2 0x39B8 DUP4 DUP3 ADD DUP11 PUSH2 0x380B JUMP JUMPDEST SWAP1 POP DUP3 DUP2 SUB PUSH1 0x60 DUP5 ADD MSTORE PUSH2 0x39CC DUP2 DUP10 PUSH2 0x380B JUMP JUMPDEST PUSH1 0x80 DUP5 ADD SWAP8 SWAP1 SWAP8 MSTORE POP POP PUSH1 0xA0 DUP2 ADD SWAP4 SWAP1 SWAP4 MSTORE SWAP1 ISZERO ISZERO PUSH1 0xC0 DUP4 ADD MSTORE ISZERO ISZERO PUSH1 0xE0 SWAP1 SWAP2 ADD MSTORE SWAP5 SWAP4 POP POP POP POP JUMP JUMPDEST PUSH4 0x4E487B71 PUSH1 0xE0 SHL PUSH1 0x0 MSTORE PUSH1 0x41 PUSH1 0x4 MSTORE PUSH1 0x24 PUSH1 0x0 REVERT JUMPDEST PUSH1 0x40 MLOAD PUSH1 0x1F DUP3 ADD PUSH1 0x1F NOT AND DUP2 ADD PUSH1 0x1 PUSH1 0x1 PUSH1 0x40 SHL SUB DUP2 GT DUP3 DUP3 LT OR ISZERO PUSH2 0x3A34 JUMPI PUSH2 0x3A34 PUSH2 0x39F6 JUMP JUMPDEST PUSH1 0x40 MSTORE SWAP2 SWAP1 POP JUMP JUMPDEST PUSH1 0x0 DUP3 PUSH1 0x1F DUP4 ADD SLT PUSH2 0x3A4D JUMPI PUSH1 0x0 DUP1 REVERT JUMPDEST DUP2 CALLDATALOAD PUSH1 0x1 PUSH1 0x1 PUSH1 0x40 SHL SUB DUP2 GT ISZERO PUSH2 0x3A66 JUMPI PUSH2 0x3A66 PUSH2 0x39F6 JUMP JUMPDEST PUSH2 0x3A79 PUSH1 0x1F DUP3 ADD PUSH1 0x1F NOT AND PUSH1 0x20 ADD PUSH2 0x3A0C JUMP JUMPDEST DUP2 DUP2 MSTORE DUP5 PUSH1 0x20 DUP4 DUP7 ADD ADD GT ISZERO PUSH2 0x3A8E JUMPI PUSH1 0x0 DUP1 REVERT JUMPDEST DUP2 PUSH1 0x20 DUP6 ADD PUSH1 0x20 DUP4 ADD CALLDATACOPY PUSH1 0x0 SWAP2 DUP2 ADD PUSH1 0x20 ADD SWAP2 SWAP1 SWAP2 MSTORE SWAP4 SWAP3 POP POP POP JUMP JUMPDEST PUSH1 0x0 DUP1 PUSH1 0x0 PUSH1 0x60 DUP5 DUP7 SUB SLT ISZERO PUSH2 0x3AC0 JUMPI PUSH1 0x0 DUP1 REVERT JUMPDEST PUSH2 0x3AC9 DUP5 PUSH2 0x37CD JUMP JUMPDEST SWAP3 POP PUSH1 0x20 DUP5 ADD CALLDATALOAD PUSH1 0x1 PUSH1 0x1 PUSH1 0x40 SHL SUB DUP2 GT ISZERO PUSH2 0x3AE4 JUMPI PUSH1 0x0 DUP1 REVERT JUMPDEST PUSH2 0x3AF0 DUP7 DUP3 DUP8 ADD PUSH2 0x3A3C JUMP JUMPDEST SWAP3 POP POP PUSH1 0x40 DUP5 ADD CALLDATALOAD SWAP1 POP SWAP3 POP SWAP3 POP SWAP3 JUMP JUMPDEST PUSH1 0x0 PUSH1 0x20 DUP3 DUP5 SUB SLT ISZERO PUSH2 0x3B13 JUMPI PUSH1 0x0 DUP1 REVERT JUMPDEST POP CALLDATALOAD SWAP2 SWAP1 POP JUMP JUMPDEST DUP8 DUP2 MSTORE PUSH1 0x1 PUSH1 0x1 PUSH1 0xA0 SHL SUB DUP8 AND PUSH1 0x20 DUP3 ADD MSTORE PUSH1 0xE0 PUSH1 0x40 DUP3 ADD DUP2 SWAP1 MSTORE PUSH1 0x0 SWAP1 PUSH2 0x3B44 SWAP1 DUP4 ADD DUP9 PUSH2 0x380B JUMP JUMPDEST SWAP1 POP DUP6 PUSH1 0x60 DUP4 ADD MSTORE DUP5 PUSH1 0x80 DUP4 ADD MSTORE DUP4 PUSH1 0xA0 DUP4 ADD MSTORE DUP3 ISZERO ISZERO PUSH1 0xC0 DUP4 ADD MSTORE SWAP9 SWAP8 POP POP POP POP POP POP POP POP JUMP JUMPDEST PUSH1 0x0 DUP1 PUSH1 0x40 DUP4 DUP6 SUB SLT ISZERO PUSH2 0x3B7F JUMPI PUSH1 0x0 DUP1 REVERT JUMPDEST DUP3 CALLDATALOAD SWAP2 POP PUSH2 0x3B8F PUSH1 0x20 DUP5 ADD PUSH2 0x37CD JUMP JUMPDEST SWAP1 POP SWAP3 POP SWAP3 SWAP1 POP JUMP JUMPDEST PUSH1 0x20 DUP1 DUP3 MSTORE DUP3 MLOAD DUP3 DUP3 ADD DUP2 SWAP1 MSTORE PUSH1 0x0 SWAP2 SWAP1 PUSH1 0x40 SWAP1 DUP2 DUP6 ADD SWAP1 DUP7 DUP5 ADD DUP6 JUMPDEST DUP3 DUP2 LT ISZERO PUSH2 0x3C10 JUMPI DUP2 MLOAD DUP1 MLOAD DUP6 MSTORE DUP7 DUP2 ADD MLOAD DUP8 DUP7 ADD MSTORE DUP6 DUP2 ADD MLOAD DUP7 DUP7 ADD MSTORE PUSH1 0x60 DUP1 DUP3 ADD MLOAD PUSH1 0x1 PUSH1 0x1 PUSH1 0xA0 SHL SUB AND SWAP1 DUP7 ADD MSTORE PUSH1 0x80 DUP1 DUP3 ADD MLOAD ISZERO ISZERO SWAP1 DUP7 ADD MSTORE PUSH1 0xA0 SWAP1 DUP2 ADD MLOAD ISZERO ISZERO SWAP1 DUP6 ADD MSTORE PUSH1 0xC0 SWAP1 SWAP4 ADD SWAP3 SWAP1 DUP6 ADD SWAP1 PUSH1 0x1 ADD PUSH2 0x3BB5 JUMP JUMPDEST POP SWAP2 SWAP8 SWAP7 POP POP POP POP POP POP POP JUMP JUMPDEST PUSH1 0x0 PUSH2 0x100 DUP3 MLOAD DUP5 MSTORE PUSH1 0x1 DUP1 PUSH1 0xA0 SHL SUB PUSH1 0x20 DUP5 ADD MLOAD AND PUSH1 0x20 DUP6 ADD MSTORE PUSH1 0x40 DUP4 ADD MLOAD DUP2 PUSH1 0x40 DUP7 ADD MSTORE PUSH2 0x3C4F DUP3 DUP7 ADD DUP3 PUSH2 0x380B JUMP JUMPDEST SWAP2 POP POP PUSH1 0x60 DUP4 ADD MLOAD DUP5 DUP3 SUB PUSH1 0x60 DUP7 ADD MSTORE PUSH2 0x3C69 DUP3 DUP3 PUSH2 0x380B JUMP JUMPDEST SWAP2 POP POP PUSH1 0x80 DUP4 ADD MLOAD PUSH1 0x80 DUP6 ADD MSTORE PUSH1 0xA0 DUP4 ADD MLOAD PUSH1 0xA0 DUP6 ADD MSTORE PUSH1 0xC0 DUP4 ADD MLOAD ISZERO ISZERO PUSH1 0xC0 DUP6 ADD MSTORE PUSH1 0xE0 DUP4 ADD MLOAD PUSH2 0x3C9F PUSH1 0xE0 DUP7 ADD DUP3 ISZERO ISZERO SWAP1 MSTORE JUMP JUMPDEST POP SWAP4 SWAP3 POP POP POP JUMP JUMPDEST PUSH1 0x20 DUP2 MSTORE PUSH1 0x0 PUSH2 0x3804 PUSH1 0x20 DUP4 ADD DUP5 PUSH2 0x3C1D JUMP JUMPDEST PUSH1 0x20 DUP1 DUP3 MSTORE DUP3 MLOAD DUP3 DUP3 ADD DUP2 SWAP1 MSTORE PUSH1 0x0 SWAP2 SWAP1 PUSH1 0x40 SWAP1 DUP2 DUP6 ADD SWAP1 DUP7 DUP5 ADD DUP6 JUMPDEST DUP3 DUP2 LT ISZERO PUSH2 0x3C10 JUMPI DUP2 MLOAD DUP1 MLOAD DUP6 MSTORE DUP7 DUP2 ADD MLOAD DUP8 DUP7 ADD MSTORE DUP6 DUP2 ADD MLOAD PUSH1 0x1 PUSH1 0x1 PUSH1 0xA0 SHL SUB AND DUP7 DUP7 ADD MSTORE PUSH1 0x60 DUP1 DUP3 ADD MLOAD SWAP1 DUP7 ADD MSTORE PUSH1 0x80 SWAP1 DUP2 ADD MLOAD ISZERO ISZERO SWAP1 DUP6 ADD MSTORE PUSH1 0xA0 SWAP1 SWAP4 ADD SWAP3 SWAP1 DUP6 ADD SWAP1 PUSH1 0x1 ADD PUSH2 0x3CD7 JUMP JUMPDEST PUSH1 0x0 DUP1 PUSH1 0x0 DUP1 PUSH1 0x80 DUP6 DUP8 SUB SLT ISZERO PUSH2 0x3D3C JUMPI PUSH1 0x0 DUP1 REVERT JUMPDEST PUSH2 0x3D45 DUP6 PUSH2 0x37CD JUMP JUMPDEST SWAP4 POP PUSH1 0x20 DUP6 ADD CALLDATALOAD PUSH1 0x1 PUSH1 0x1 PUSH1 0x40 SHL SUB DUP1 DUP3 GT ISZERO PUSH2 0x3D61 JUMPI PUSH1 0x0 DUP1 REVERT JUMPDEST PUSH2 0x3D6D DUP9 DUP4 DUP10 ADD PUSH2 0x3A3C JUMP JUMPDEST SWAP5 POP PUSH1 0x40 DUP8 ADD CALLDATALOAD SWAP2 POP DUP1 DUP3 GT ISZERO PUSH2 0x3D83 JUMPI PUSH1 0x0 DUP1 REVERT JUMPDEST POP PUSH2 0x3D90 DUP8 DUP3 DUP9 ADD PUSH2 0x3A3C JUMP JUMPDEST SWAP5 SWAP8 SWAP4 SWAP7 POP SWAP4 SWAP5 PUSH1 0x60 ADD CALLDATALOAD SWAP4 POP POP POP JUMP JUMPDEST PUSH1 0x0 PUSH1 0x1 PUSH1 0x1 PUSH1 0x40 SHL SUB DUP3 GT ISZERO PUSH2 0x3DBA JUMPI PUSH2 0x3DBA PUSH2 0x39F6 JUMP JUMPDEST POP PUSH1 0x5 SHL PUSH1 0x20 ADD SWAP1 JUMP JUMPDEST PUSH1 0x0 DUP1 PUSH1 0x0 DUP1 PUSH1 0x0 DUP1 PUSH1 0xC0 DUP8 DUP10 SUB SLT ISZERO PUSH2 0x3DDD JUMPI PUSH1 0x0 DUP1 REVERT JUMPDEST PUSH2 0x3DE6 DUP8 PUSH2 0x37CD JUMP JUMPDEST SWAP6 POP PUSH1 0x20 DUP1 DUP9 ADD CALLDATALOAD PUSH1 0x1 PUSH1 0x1 PUSH1 0x40 SHL SUB DUP1 DUP3 GT ISZERO PUSH2 0x3E03 JUMPI PUSH1 0x0 DUP1 REVERT JUMPDEST PUSH2 0x3E0F DUP12 DUP4 DUP13 ADD PUSH2 0x3A3C JUMP JUMPDEST SWAP8 POP PUSH1 0x40 DUP11 ADD CALLDATALOAD SWAP7 POP PUSH1 0x60 DUP11 ADD CALLDATALOAD SWAP6 POP PUSH1 0x80 DUP11 ADD CALLDATALOAD SWAP2 POP DUP1 DUP3 GT ISZERO PUSH2 0x3E33 JUMPI PUSH1 0x0 DUP1 REVERT JUMPDEST DUP2 DUP11 ADD SWAP2 POP DUP11 PUSH1 0x1F DUP4 ADD SLT PUSH2 0x3E47 JUMPI PUSH1 0x0 DUP1 REVERT JUMPDEST DUP2 CALLDATALOAD PUSH2 0x3E5A PUSH2 0x3E55 DUP3 PUSH2 0x3DA1 JUMP JUMPDEST PUSH2 0x3A0C JUMP JUMPDEST DUP2 DUP2 MSTORE PUSH1 0x5 SWAP2 SWAP1 SWAP2 SHL DUP4 ADD DUP5 ADD SWAP1 DUP5 DUP2 ADD SWAP1 DUP14 DUP4 GT ISZERO PUSH2 0x3E79 JUMPI PUSH1 0x0 DUP1 REVERT JUMPDEST DUP6 DUP6 ADD JUMPDEST DUP4 DUP2 LT ISZERO PUSH2 0x3EAF JUMPI DUP5 DUP2 CALLDATALOAD GT ISZERO PUSH2 0x3E93 JUMPI PUSH1 0x0 DUP1 REVERT JUMPDEST PUSH2 0x3EA2 DUP16 DUP9 DUP4 CALLDATALOAD DUP10 ADD ADD PUSH2 0x3A3C JUMP JUMPDEST DUP4 MSTORE SWAP2 DUP7 ADD SWAP2 DUP7 ADD PUSH2 0x3E7D JUMP JUMPDEST POP DUP1 SWAP8 POP POP POP POP POP POP POP PUSH1 0xA0 DUP8 ADD CALLDATALOAD SWAP1 POP SWAP3 SWAP6 POP SWAP3 SWAP6 POP SWAP3 SWAP6 JUMP JUMPDEST PUSH1 0x0 PUSH1 0x20 DUP1 DUP4 ADD DUP2 DUP5 MSTORE DUP1 DUP6 MLOAD DUP1 DUP4 MSTORE PUSH1 0x40 DUP7 ADD SWAP2 POP PUSH1 0x40 DUP2 PUSH1 0x5 SHL DUP8 ADD ADD SWAP3 POP DUP4 DUP8 ADD PUSH1 0x0 JUMPDEST DUP3 DUP2 LT ISZERO PUSH2 0x3980 JUMPI PUSH1 0x3F NOT DUP9 DUP7 SUB ADD DUP5 MSTORE PUSH2 0x3F0D DUP6 DUP4 MLOAD PUSH2 0x3C1D JUMP JUMPDEST SWAP5 POP SWAP3 DUP6 ADD SWAP3 SWAP1 DUP6 ADD SWAP1 PUSH1 0x1 ADD PUSH2 0x3EF1 JUMP JUMPDEST PUSH1 0x0 DUP1 PUSH1 0x40 DUP4 DUP6 SUB SLT ISZERO PUSH2 0x3F32 JUMPI PUSH1 0x0 DUP1 REVERT JUMPDEST PUSH2 0x3F3B DUP4 PUSH2 0x37CD JUMP JUMPDEST SWAP5 PUSH1 0x20 SWAP4 SWAP1 SWAP4 ADD CALLDATALOAD SWAP4 POP POP POP JUMP JUMPDEST PUSH1 0x0 DUP1 PUSH1 0x0 DUP1 PUSH1 0x80 DUP6 DUP8 SUB SLT ISZERO PUSH2 0x3F5F JUMPI PUSH1 0x0 DUP1 REVERT JUMPDEST DUP5 CALLDATALOAD SWAP4 POP PUSH1 0x20 DUP6 ADD CALLDATALOAD SWAP3 POP PUSH1 0x40 DUP6 ADD CALLDATALOAD SWAP2 POP PUSH2 0x3F7D PUSH1 0x60 DUP7 ADD PUSH2 0x37CD JUMP JUMPDEST SWAP1 POP SWAP3 SWAP6 SWAP2 SWAP5 POP SWAP3 POP JUMP JUMPDEST PUSH1 0x20 DUP2 MSTORE PUSH1 0x0 PUSH2 0x3804 PUSH1 0x20 DUP4 ADD DUP5 PUSH2 0x38C4 JUMP JUMPDEST DUP1 ISZERO ISZERO DUP2 EQ PUSH2 0x3FA9 JUMPI PUSH1 0x0 DUP1 REVERT JUMPDEST POP JUMP JUMPDEST PUSH1 0x0 DUP1 PUSH1 0x0 PUSH1 0x60 DUP5 DUP7 SUB SLT ISZERO PUSH2 0x3FC1 JUMPI PUSH1 0x0 DUP1 REVERT JUMPDEST DUP4 CALLDATALOAD SWAP3 POP PUSH1 0x20 PUSH2 0x3FD2 DUP2 DUP7 ADD PUSH2 0x37CD JUMP JUMPDEST SWAP3 POP PUSH1 0x40 DUP6 ADD CALLDATALOAD PUSH1 0x1 PUSH1 0x1 PUSH1 0x40 SHL SUB DUP2 GT ISZERO PUSH2 0x3FED JUMPI PUSH1 0x0 DUP1 REVERT JUMPDEST DUP6 ADD PUSH1 0x1F DUP2 ADD DUP8 SGT PUSH2 0x3FFE JUMPI PUSH1 0x0 DUP1 REVERT JUMPDEST DUP1 CALLDATALOAD PUSH2 0x400C PUSH2 0x3E55 DUP3 PUSH2 0x3DA1 JUMP JUMPDEST DUP2 DUP2 MSTORE PUSH1 0x5 SWAP2 SWAP1 SWAP2 SHL DUP3 ADD DUP4 ADD SWAP1 DUP4 DUP2 ADD SWAP1 DUP10 DUP4 GT ISZERO PUSH2 0x402B JUMPI PUSH1 0x0 DUP1 REVERT JUMPDEST SWAP3 DUP5 ADD SWAP3 JUMPDEST DUP3 DUP5 LT ISZERO PUSH2 0x4052 JUMPI DUP4 CALLDATALOAD PUSH2 0x4043 DUP2 PUSH2 0x3F9B JUMP JUMPDEST DUP3 MSTORE SWAP3 DUP5 ADD SWAP3 SWAP1 DUP5 ADD SWAP1 PUSH2 0x4030 JUMP JUMPDEST DUP1 SWAP6 POP POP POP POP POP POP SWAP3 POP SWAP3 POP SWAP3 JUMP JUMPDEST PUSH1 0x0 PUSH1 0x20 DUP1 DUP4 ADD DUP2 DUP5 MSTORE DUP1 DUP6 MLOAD DUP1 DUP4 MSTORE PUSH1 0x40 SWAP3 POP DUP3 DUP7 ADD SWAP2 POP DUP3 DUP2 PUSH1 0x5 SHL DUP8 ADD ADD DUP5 DUP9 ADD PUSH1 0x0 JUMPDEST DUP4 DUP2 LT ISZERO PUSH2 0x40E1 JUMPI PUSH1 0x3F NOT DUP10 DUP5 SUB ADD DUP6 MSTORE DUP2 MLOAD PUSH1 0x80 DUP2 MLOAD DUP6 MSTORE DUP9 DUP3 ADD MLOAD DUP10 DUP7 ADD MSTORE DUP8 DUP3 ADD MLOAD DUP2 DUP10 DUP8 ADD MSTORE PUSH2 0x40BE DUP3 DUP8 ADD DUP3 PUSH2 0x380B JUMP JUMPDEST PUSH1 0x60 SWAP4 DUP5 ADD MLOAD ISZERO ISZERO SWAP7 SWAP1 SWAP4 ADD SWAP6 SWAP1 SWAP6 MSTORE POP SWAP5 DUP8 ADD SWAP5 SWAP3 POP SWAP1 DUP7 ADD SWAP1 PUSH1 0x1 ADD PUSH2 0x4088 JUMP JUMPDEST POP SWAP1 SWAP9 SWAP8 POP POP POP POP POP POP POP POP JUMP JUMPDEST DUP8 DUP2 MSTORE PUSH1 0x1 PUSH1 0x1 PUSH1 0xA0 SHL SUB DUP8 AND PUSH1 0x20 DUP3 ADD MSTORE PUSH1 0xE0 PUSH1 0x40 DUP3 ADD DUP2 SWAP1 MSTORE PUSH1 0x0 SWAP1 PUSH2 0x4119 SWAP1 DUP4 ADD DUP9 PUSH2 0x380B JUMP JUMPDEST PUSH1 0x60 DUP4 ADD SWAP7 SWAP1 SWAP7 MSTORE POP SWAP3 ISZERO ISZERO PUSH1 0x80 DUP5 ADD MSTORE SWAP1 ISZERO ISZERO PUSH1 0xA0 DUP4 ADD MSTORE ISZERO ISZERO PUSH1 0xC0 SWAP1 SWAP2 ADD MSTORE SWAP4 SWAP3 POP POP POP JUMP JUMPDEST DUP5 DUP2 MSTORE DUP4 PUSH1 0x20 DUP3 ADD MSTORE PUSH1 0x80 PUSH1 0x40 DUP3 ADD MSTORE PUSH1 0x0 PUSH2 0x4160 PUSH1 0x80 DUP4 ADD DUP6 PUSH2 0x380B JUMP JUMPDEST SWAP1 POP DUP3 ISZERO ISZERO PUSH1 0x60 DUP4 ADD MSTORE SWAP6 SWAP5 POP POP POP POP POP JUMP JUMPDEST PUSH4 0x4E487B71 PUSH1 0xE0 SHL PUSH1 0x0 MSTORE PUSH1 0x11 PUSH1 0x4 MSTORE PUSH1 0x24 PUSH1 0x0 REVERT JUMPDEST DUP1 DUP3 MUL DUP2 ISZERO DUP3 DUP3 DIV DUP5 EQ OR PUSH2 0x7EF JUMPI PUSH2 0x7EF PUSH2 0x4173 JUMP JUMPDEST DUP1 DUP3 ADD DUP1 DUP3 GT ISZERO PUSH2 0x7EF JUMPI PUSH2 0x7EF PUSH2 0x4173 JUMP JUMPDEST PUSH1 0x1 DUP2 DUP2 SHR SWAP1 DUP3 AND DUP1 PUSH2 0x41C7 JUMPI PUSH1 0x7F DUP3 AND SWAP2 POP JUMPDEST PUSH1 0x20 DUP3 LT DUP2 SUB PUSH2 0x41E7 JUMPI PUSH4 0x4E487B71 PUSH1 0xE0 SHL PUSH1 0x0 MSTORE PUSH1 0x22 PUSH1 0x4 MSTORE PUSH1 0x24 PUSH1 0x0 REVERT JUMPDEST POP SWAP2 SWAP1 POP JUMP JUMPDEST PUSH4 0x4E487B71 PUSH1 0xE0 SHL PUSH1 0x0 MSTORE PUSH1 0x32 PUSH1 0x4 MSTORE PUSH1 0x24 PUSH1 0x0 REVERT JUMPDEST PUSH1 0x0 PUSH1 0x1 DUP3 ADD PUSH2 0x4215 JUMPI PUSH2 0x4215 PUSH2 0x4173 JUMP JUMPDEST POP PUSH1 0x1 ADD SWAP1 JUMP JUMPDEST PUSH1 0x1F DUP3 GT ISZERO PUSH2 0x4266 JUMPI PUSH1 0x0 DUP2 DUP2 MSTORE PUSH1 0x20 DUP2 KECCAK256 PUSH1 0x1F DUP6 ADD PUSH1 0x5 SHR DUP2 ADD PUSH1 0x20 DUP7 LT ISZERO PUSH2 0x4243 JUMPI POP DUP1 JUMPDEST PUSH1 0x1F DUP6 ADD PUSH1 0x5 SHR DUP3 ADD SWAP2 POP JUMPDEST DUP2 DUP2 LT ISZERO PUSH2 0x4262 JUMPI DUP3 DUP2 SSTORE PUSH1 0x1 ADD PUSH2 0x424F JUMP JUMPDEST POP POP POP JUMPDEST POP POP POP JUMP JUMPDEST DUP2 MLOAD PUSH1 0x1 PUSH1 0x1 PUSH1 0x40 SHL SUB DUP2 GT ISZERO PUSH2 0x4284 JUMPI PUSH2 0x4284 PUSH2 0x39F6 JUMP JUMPDEST PUSH2 0x4298 DUP2 PUSH2 0x4292 DUP5 SLOAD PUSH2 0x41B3 JUMP JUMPDEST DUP5 PUSH2 0x421C JUMP JUMPDEST PUSH1 0x20 DUP1 PUSH1 0x1F DUP4 GT PUSH1 0x1 DUP2 EQ PUSH2 0x42CD JUMPI PUSH1 0x0 DUP5 ISZERO PUSH2 0x42B5 JUMPI POP DUP6 DUP4 ADD MLOAD JUMPDEST PUSH1 0x0 NOT PUSH1 0x3 DUP7 SWAP1 SHL SHR NOT AND PUSH1 0x1 DUP6 SWAP1 SHL OR DUP6 SSTORE PUSH2 0x4262 JUMP JUMPDEST PUSH1 0x0 DUP6 DUP2 MSTORE PUSH1 0x20 DUP2 KECCAK256 PUSH1 0x1F NOT DUP7 AND SWAP2 JUMPDEST DUP3 DUP2 LT ISZERO PUSH2 0x42FC JUMPI DUP9 DUP7 ADD MLOAD DUP3 SSTORE SWAP5 DUP5 ADD SWAP5 PUSH1 0x1 SWAP1 SWAP2 ADD SWAP1 DUP5 ADD PUSH2 0x42DD JUMP JUMPDEST POP DUP6 DUP3 LT ISZERO PUSH2 0x431A JUMPI DUP8 DUP6 ADD MLOAD PUSH1 0x0 NOT PUSH1 0x3 DUP9 SWAP1 SHL PUSH1 0xF8 AND SHR NOT AND DUP2 SSTORE JUMPDEST POP POP POP POP POP PUSH1 0x1 SWAP1 DUP2 SHL ADD SWAP1 SSTORE POP JUMP JUMPDEST PUSH1 0x0 DUP3 PUSH2 0x4347 JUMPI PUSH4 0x4E487B71 PUSH1 0xE0 SHL PUSH1 0x0 MSTORE PUSH1 0x12 PUSH1 0x4 MSTORE PUSH1 0x24 PUSH1 0x0 REVERT JUMPDEST POP DIV SWAP1 JUMP JUMPDEST PUSH1 0x0 PUSH1 0x20 DUP3 DUP5 SUB SLT ISZERO PUSH2 0x435E JUMPI PUSH1 0x0 DUP1 REVERT JUMPDEST DUP2 MLOAD PUSH2 0x7EC DUP2 PUSH2 0x3F9B JUMP INVALID LOG2 PUSH5 0x6970667358 0x22 SLT KECCAK256 EXP 0xC0 SWAP13 SELFBALANCE DUP3 PUSH16 0xF1DC0139219644282B75AA83AE9044FA CALLDATACOPY PUSH14 0x84F7A2CFD1CDCBA464736F6C6343 STOP ADDMOD SGT STOP CALLER "
		},
		"gasEstimates": {
			"creation": {
				"codeDepositCost": "3462200",
				"executionCost": "infinite",
				"totalCost": "infinite"
			},
			"external": {
				"allAnswers(uint256,uint256)": "11283",
				"allEarnings(uint256)": "13282",
				"allFundings(uint256)": "13304",
				"allParticipants(address)": "infinite",
				"allQuestions(uint256,uint256)": "infinite",
				"allResearchers(address)": "infinite",
				"allSurveys(uint256)": "infinite",
				"checkIfParticipantExists(address)": "2726",
				"checkIfParticipantHasAlreadyParticipatedInSurvey(address,uint256)": "2712",
				"checkIfResearcherExists(address)": "2662",
				"createFunding(uint256,uint256,uint256,address)": "infinite",
				"createParticipant(address,string,string,uint256)": "infinite",
				"createResearcher(address,string,uint256)": "infinite",
				"createSurvey(address,string,uint256,uint256,string[],uint256)": "infinite",
				"getAllAnswersOfParticipantOfSurvey(uint256,address)": "infinite",
				"getAllEarningsMadeByParticipant(address)": "infinite",
				"getAllQuestionsOfSurvey(uint256)": "infinite",
				"getAllSurveys()": "infinite",
				"getAllSurveysTakenByParticipant(address)": "infinite",
				"getAmountOfEarningForCanvassingForSurveyPerParticipantInWei(uint256,uint256)": "infinite",
				"getAmountOfEarningPerParticipantForSurveyInWei(uint256)": "infinite",
				"getAmountOfFundingOfAnySurveyInWei(uint256,uint256)": "infinite",
				"getAnswersOfSurvey(uint256)": "infinite",
				"getIdsOfLatestSurveysCreatedByResearchers(address)": "2572",
				"getParticipantByWalletAddress(address)": "infinite",
				"getParticipantsOfSurvey(uint256)": "infinite",
				"getResearcherByWalletAddress(address)": "infinite",
				"getSurveyById(uint256)": "infinite",
				"getSurveysCreatedByResearcher(address)": "infinite",
				"getTotalAmountFundedByResearchersInWei(address)": "2660",
				"getTotalAmountOfEarningsReceivedByParticipantInWei(address)": "infinite",
				"getTotalNumberOfSurveyCreatedByResearcher(address)": "2593",
				"idsOfLatestSurveysCreatedByResearchers(address)": "2596",
				"makePayoutAndCreateEarning(uint256,address)": "infinite",
				"participantsOfSurvey(uint256,uint256)": "infinite",
				"participateInSurvey(uint256,address,bool[])": "infinite",
				"participationStatusForSurvey(uint256,address)": "2740",
				"payoutStatusOfParticipantForSurvey(uint256,address)": "2696",
				"totalAmountFundedByResearchersInWei(address)": "2641",
				"totalNumberOfSurveysCreatedByResearchers(address)": "2597",
				"verifyResearcher(address)": "infinite"
			}
		},
		"methodIdentifiers": {
			"allAnswers(uint256,uint256)": "69bff3fb",
			"allEarnings(uint256)": "8e6da619",
			"allFundings(uint256)": "95ecea1f",
			"allParticipants(address)": "5b76074e",
			"allQuestions(uint256,uint256)": "fb47e9e6",
			"allResearchers(address)": "f692a3bb",
			"allSurveys(uint256)": "1b6f2485",
			"checkIfParticipantExists(address)": "6f5fde11",
			"checkIfParticipantHasAlreadyParticipatedInSurvey(address,uint256)": "a58543fe",
			"checkIfResearcherExists(address)": "9a23218f",
			"createFunding(uint256,uint256,uint256,address)": "b3265ecd",
			"createParticipant(address,string,string,uint256)": "3b43b7d0",
			"createResearcher(address,string,uint256)": "196f7f1e",
			"createSurvey(address,string,uint256,uint256,string[],uint256)": "68df3299",
			"getAllAnswersOfParticipantOfSurvey(uint256,address)": "2076a35a",
			"getAllEarningsMadeByParticipant(address)": "392a5822",
			"getAllQuestionsOfSurvey(uint256)": "f31e72e4",
			"getAllSurveys()": "7a1bc375",
			"getAllSurveysTakenByParticipant(address)": "3abb615a",
			"getAmountOfEarningForCanvassingForSurveyPerParticipantInWei(uint256,uint256)": "44962609",
			"getAmountOfEarningPerParticipantForSurveyInWei(uint256)": "1bd1ebc4",
			"getAmountOfFundingOfAnySurveyInWei(uint256,uint256)": "03f16747",
			"getAnswersOfSurvey(uint256)": "cc4903ca",
			"getIdsOfLatestSurveysCreatedByResearchers(address)": "3882db7d",
			"getParticipantByWalletAddress(address)": "2394e5dc",
			"getParticipantsOfSurvey(uint256)": "964f6566",
			"getResearcherByWalletAddress(address)": "0478318b",
			"getSurveyById(uint256)": "c0ac4ae4",
			"getSurveysCreatedByResearcher(address)": "07f6646e",
			"getTotalAmountFundedByResearchersInWei(address)": "3bdd0ad1",
			"getTotalAmountOfEarningsReceivedByParticipantInWei(address)": "25f18424",
			"getTotalNumberOfSurveyCreatedByResearcher(address)": "4fe1cfad",
			"idsOfLatestSurveysCreatedByResearchers(address)": "d7e93794",
			"makePayoutAndCreateEarning(uint256,address)": "6b8ac0e7",
			"participantsOfSurvey(uint256,uint256)": "125bb83d",
			"participateInSurvey(uint256,address,bool[])": "ca2e7f9b",
			"participationStatusForSurvey(uint256,address)": "b9c745b3",
			"payoutStatusOfParticipantForSurvey(uint256,address)": "7e950819",
			"totalAmountFundedByResearchersInWei(address)": "5fa7a90a",
			"totalNumberOfSurveysCreatedByResearchers(address)": "5822bff1",
			"verifyResearcher(address)": "73fd653d"
		}
	},
	"abi": [
		{
			"inputs": [
				{
					"internalType": "uint256",
					"name": "",
					"type": "uint256"
				},
				{
					"internalType": "uint256",
					"name": "",
					"type": "uint256"
				}
			],
			"name": "allAnswers",
			"outputs": [
				{
					"internalType": "uint256",
					"name": "id",
					"type": "uint256"
				},
				{
					"internalType": "uint256",
					"name": "questionId",
					"type": "uint256"
				},
				{
					"internalType": "uint256",
					"name": "surveyId",
					"type": "uint256"
				},
				{
					"internalType": "address",
					"name": "participantWalletAddress",
					"type": "address"
				},
				{
					"internalType": "bool",
					"name": "value",
					"type": "bool"
				},
				{
					"internalType": "bool",
					"name": "isBlank",
					"type": "bool"
				}
			],
			"stateMutability": "view",
			"type": "function"
		},
		{
			"inputs": [
				{
					"internalType": "uint256",
					"name": "",
					"type": "uint256"
				}
			],
			"name": "allEarnings",
			"outputs": [
				{
					"internalType": "uint256",
					"name": "id",
					"type": "uint256"
				},
				{
					"internalType": "uint256",
					"name": "surveyId",
					"type": "uint256"
				},
				{
					"internalType": "address",
					"name": "recipientWalletAddress",
					"type": "address"
				},
				{
					"internalType": "uint256",
					"name": "amountPaidOutInWei",
					"type": "uint256"
				},
				{
					"internalType": "bool",
					"name": "isBlank",
					"type": "bool"
				}
			],
			"stateMutability": "view",
			"type": "function"
		},
		{
			"inputs": [
				{
					"internalType": "uint256",
					"name": "",
					"type": "uint256"
				}
			],
			"name": "allFundings",
			"outputs": [
				{
					"internalType": "uint256",
					"name": "id",
					"type": "uint256"
				},
				{
					"internalType": "uint256",
					"name": "surveyId",
					"type": "uint256"
				},
				{
					"internalType": "address",
					"name": "creatingResearcherWalletAddress",
					"type": "address"
				},
				{
					"internalType": "uint256",
					"name": "amountFundedInWei",
					"type": "uint256"
				},
				{
					"internalType": "bool",
					"name": "isBlank",
					"type": "bool"
				}
			],
			"stateMutability": "view",
			"type": "function"
		},
		{
			"inputs": [
				{
					"internalType": "address",
					"name": "",
					"type": "address"
				}
			],
			"name": "allParticipants",
			"outputs": [
				{
					"internalType": "uint256",
					"name": "id",
					"type": "uint256"
				},
				{
					"internalType": "address",
					"name": "walletAddress",
					"type": "address"
				},
				{
					"internalType": "string",
					"name": "gender",
					"type": "string"
				},
				{
					"internalType": "string",
					"name": "country",
					"type": "string"
				},
				{
					"internalType": "uint256",
					"name": "yearOfBirth",
					"type": "uint256"
				},
				{
					"internalType": "uint256",
					"name": "totalNumberOfSurveysTaken",
					"type": "uint256"
				},
				{
					"internalType": "bool",
					"name": "isResearcher",
					"type": "bool"
				},
				{
					"internalType": "bool",
					"name": "isBlank",
					"type": "bool"
				}
			],
			"stateMutability": "view",
			"type": "function"
		},
		{
			"inputs": [
				{
					"internalType": "uint256",
					"name": "",
					"type": "uint256"
				},
				{
					"internalType": "uint256",
					"name": "",
					"type": "uint256"
				}
			],
			"name": "allQuestions",
			"outputs": [
				{
					"internalType": "uint256",
					"name": "id",
					"type": "uint256"
				},
				{
					"internalType": "uint256",
					"name": "surveyId",
					"type": "uint256"
				},
				{
					"internalType": "string",
					"name": "sentence",
					"type": "string"
				},
				{
					"internalType": "bool",
					"name": "isBlank",
					"type": "bool"
				}
			],
			"stateMutability": "view",
			"type": "function"
		},
		{
			"inputs": [
				{
					"internalType": "address",
					"name": "",
					"type": "address"
				}
			],
			"name": "allResearchers",
			"outputs": [
				{
					"internalType": "uint256",
					"name": "id",
					"type": "uint256"
				},
				{
					"internalType": "address",
					"name": "walletAddress",
					"type": "address"
				},
				{
					"internalType": "string",
					"name": "industry",
					"type": "string"
				},
				{
					"internalType": "uint256",
					"name": "yearOfIncorporation",
					"type": "uint256"
				},
				{
					"internalType": "bool",
					"name": "isParticipant",
					"type": "bool"
				},
				{
					"internalType": "bool",
					"name": "isVerified",
					"type": "bool"
				},
				{
					"internalType": "bool",
					"name": "isBlank",
					"type": "bool"
				}
			],
			"stateMutability": "view",
			"type": "function"
		},
		{
			"inputs": [
				{
					"internalType": "uint256",
					"name": "",
					"type": "uint256"
				}
			],
			"name": "allSurveys",
			"outputs": [
				{
					"internalType": "uint256",
					"name": "id",
					"type": "uint256"
				},
				{
					"internalType": "address",
					"name": "creatingResearcherWalletAddress",
					"type": "address"
				},
				{
					"internalType": "string",
					"name": "topic",
					"type": "string"
				},
				{
					"internalType": "uint256",
					"name": "numberOfQuestions",
					"type": "uint256"
				},
				{
					"internalType": "uint256",
					"name": "targetNumberOfParticipants",
					"type": "uint256"
				},
				{
					"internalType": "uint256",
					"name": "amountFundedInWei",
					"type": "uint256"
				},
				{
					"internalType": "bool",
					"name": "isBlank",
					"type": "bool"
				}
			],
			"stateMutability": "view",
			"type": "function"
		},
		{
			"inputs": [
				{
					"internalType": "address",
					"name": "_walletAddress",
					"type": "address"
				}
			],
			"name": "checkIfParticipantExists",
			"outputs": [
				{
					"internalType": "bool",
					"name": "",
					"type": "bool"
				}
			],
			"stateMutability": "view",
			"type": "function"
		},
		{
			"inputs": [
				{
					"internalType": "address",
					"name": "_participantWalletAddress",
					"type": "address"
				},
				{
					"internalType": "uint256",
					"name": "_surveyId",
					"type": "uint256"
				}
			],
			"name": "checkIfParticipantHasAlreadyParticipatedInSurvey",
			"outputs": [
				{
					"internalType": "bool",
					"name": "",
					"type": "bool"
				}
			],
			"stateMutability": "view",
			"type": "function"
		},
		{
			"inputs": [
				{
					"internalType": "address",
					"name": "_walletAddress",
					"type": "address"
				}
			],
			"name": "checkIfResearcherExists",
			"outputs": [
				{
					"internalType": "bool",
					"name": "",
					"type": "bool"
				}
			],
			"stateMutability": "view",
			"type": "function"
		},
		{
			"inputs": [
				{
					"internalType": "uint256",
					"name": "_numberOfQuestions",
					"type": "uint256"
				},
				{
					"internalType": "uint256",
					"name": "_targetNumberOfParticipants",
					"type": "uint256"
				},
				{
					"internalType": "uint256",
					"name": "_surveyId",
					"type": "uint256"
				},
				{
					"internalType": "address",
					"name": "_researcherWalletAddress",
					"type": "address"
				}
			],
			"name": "createFunding",
			"outputs": [],
			"stateMutability": "nonpayable",
			"type": "function"
		},
		{
			"inputs": [
				{
					"internalType": "address",
					"name": "_walletAddress",
					"type": "address"
				},
				{
					"internalType": "string",
					"name": "_gender",
					"type": "string"
				},
				{
					"internalType": "string",
					"name": "_country",
					"type": "string"
				},
				{
					"internalType": "uint256",
					"name": "_yearOfBirth",
					"type": "uint256"
				}
			],
			"name": "createParticipant",
			"outputs": [],
			"stateMutability": "nonpayable",
			"type": "function"
		},
		{
			"inputs": [
				{
					"internalType": "address",
					"name": "_walletAddress",
					"type": "address"
				},
				{
					"internalType": "string",
					"name": "_industry",
					"type": "string"
				},
				{
					"internalType": "uint256",
					"name": "_yearOfCorporation",
					"type": "uint256"
				}
			],
			"name": "createResearcher",
			"outputs": [],
			"stateMutability": "nonpayable",
			"type": "function"
		},
		{
			"inputs": [
				{
					"internalType": "address",
					"name": "_researcherWalletAddress",
					"type": "address"
				},
				{
					"internalType": "string",
					"name": "_topic",
					"type": "string"
				},
				{
					"internalType": "uint256",
					"name": "_numberOfQuestions",
					"type": "uint256"
				},
				{
					"internalType": "uint256",
					"name": "_targetNumberOfParticipants",
					"type": "uint256"
				},
				{
					"internalType": "string[]",
					"name": "_questionSentences",
					"type": "string[]"
				},
				{
					"internalType": "uint256",
					"name": "_amountFundedForSurvey",
					"type": "uint256"
				}
			],
			"name": "createSurvey",
			"outputs": [
				{
					"internalType": "uint256",
					"name": "",
					"type": "uint256"
				}
			],
			"stateMutability": "nonpayable",
			"type": "function"
		},
		{
			"inputs": [
				{
					"internalType": "uint256",
					"name": "_surveyId",
					"type": "uint256"
				},
				{
					"internalType": "address",
					"name": "_participantWalletAddress",
					"type": "address"
				}
			],
			"name": "getAllAnswersOfParticipantOfSurvey",
			"outputs": [
				{
					"components": [
						{
							"internalType": "uint256",
							"name": "id",
							"type": "uint256"
						},
						{
							"internalType": "uint256",
							"name": "questionId",
							"type": "uint256"
						},
						{
							"internalType": "uint256",
							"name": "surveyId",
							"type": "uint256"
						},
						{
							"internalType": "address",
							"name": "participantWalletAddress",
							"type": "address"
						},
						{
							"internalType": "bool",
							"name": "value",
							"type": "bool"
						},
						{
							"internalType": "bool",
							"name": "isBlank",
							"type": "bool"
						}
					],
					"internalType": "struct Answer[]",
					"name": "",
					"type": "tuple[]"
				}
			],
			"stateMutability": "view",
			"type": "function"
		},
		{
			"inputs": [
				{
					"internalType": "address",
					"name": "_walletAddress",
					"type": "address"
				}
			],
			"name": "getAllEarningsMadeByParticipant",
			"outputs": [
				{
					"components": [
						{
							"internalType": "uint256",
							"name": "id",
							"type": "uint256"
						},
						{
							"internalType": "uint256",
							"name": "surveyId",
							"type": "uint256"
						},
						{
							"internalType": "address",
							"name": "recipientWalletAddress",
							"type": "address"
						},
						{
							"internalType": "uint256",
							"name": "amountPaidOutInWei",
							"type": "uint256"
						},
						{
							"internalType": "bool",
							"name": "isBlank",
							"type": "bool"
						}
					],
					"internalType": "struct Earning[]",
					"name": "",
					"type": "tuple[]"
				}
			],
			"stateMutability": "view",
			"type": "function"
		},
		{
			"inputs": [
				{
					"internalType": "uint256",
					"name": "_surveyId",
					"type": "uint256"
				}
			],
			"name": "getAllQuestionsOfSurvey",
			"outputs": [
				{
					"components": [
						{
							"internalType": "uint256",
							"name": "id",
							"type": "uint256"
						},
						{
							"internalType": "uint256",
							"name": "surveyId",
							"type": "uint256"
						},
						{
							"internalType": "string",
							"name": "sentence",
							"type": "string"
						},
						{
							"internalType": "bool",
							"name": "isBlank",
							"type": "bool"
						}
					],
					"internalType": "struct Question[]",
					"name": "",
					"type": "tuple[]"
				}
			],
			"stateMutability": "view",
			"type": "function"
		},
		{
			"inputs": [],
			"name": "getAllSurveys",
			"outputs": [
				{
					"components": [
						{
							"internalType": "uint256",
							"name": "id",
							"type": "uint256"
						},
						{
							"internalType": "address",
							"name": "creatingResearcherWalletAddress",
							"type": "address"
						},
						{
							"internalType": "string",
							"name": "topic",
							"type": "string"
						},
						{
							"internalType": "uint256",
							"name": "numberOfQuestions",
							"type": "uint256"
						},
						{
							"internalType": "uint256",
							"name": "targetNumberOfParticipants",
							"type": "uint256"
						},
						{
							"internalType": "uint256",
							"name": "amountFundedInWei",
							"type": "uint256"
						},
						{
							"internalType": "bool",
							"name": "isBlank",
							"type": "bool"
						}
					],
					"internalType": "struct Survey[]",
					"name": "",
					"type": "tuple[]"
				}
			],
			"stateMutability": "view",
			"type": "function"
		},
		{
			"inputs": [
				{
					"internalType": "address",
					"name": "_walletAddress",
					"type": "address"
				}
			],
			"name": "getAllSurveysTakenByParticipant",
			"outputs": [
				{
					"components": [
						{
							"internalType": "uint256",
							"name": "id",
							"type": "uint256"
						},
						{
							"internalType": "address",
							"name": "creatingResearcherWalletAddress",
							"type": "address"
						},
						{
							"internalType": "string",
							"name": "topic",
							"type": "string"
						},
						{
							"internalType": "uint256",
							"name": "numberOfQuestions",
							"type": "uint256"
						},
						{
							"internalType": "uint256",
							"name": "targetNumberOfParticipants",
							"type": "uint256"
						},
						{
							"internalType": "uint256",
							"name": "amountFundedInWei",
							"type": "uint256"
						},
						{
							"internalType": "bool",
							"name": "isBlank",
							"type": "bool"
						}
					],
					"internalType": "struct Survey[]",
					"name": "",
					"type": "tuple[]"
				}
			],
			"stateMutability": "view",
			"type": "function"
		},
		{
			"inputs": [
				{
					"internalType": "uint256",
					"name": "_surveyId",
					"type": "uint256"
				},
				{
					"internalType": "uint256",
					"name": "_numberOfParticipants",
					"type": "uint256"
				}
			],
			"name": "getAmountOfEarningForCanvassingForSurveyPerParticipantInWei",
			"outputs": [
				{
					"internalType": "uint256",
					"name": "",
					"type": "uint256"
				}
			],
			"stateMutability": "view",
			"type": "function"
		},
		{
			"inputs": [
				{
					"internalType": "uint256",
					"name": "_surveyId",
					"type": "uint256"
				}
			],
			"name": "getAmountOfEarningPerParticipantForSurveyInWei",
			"outputs": [
				{
					"internalType": "uint256",
					"name": "",
					"type": "uint256"
				}
			],
			"stateMutability": "view",
			"type": "function"
		},
		{
			"inputs": [
				{
					"internalType": "uint256",
					"name": "_numberOfQuestions",
					"type": "uint256"
				},
				{
					"internalType": "uint256",
					"name": "_targetNumberOfParticipants",
					"type": "uint256"
				}
			],
			"name": "getAmountOfFundingOfAnySurveyInWei",
			"outputs": [
				{
					"internalType": "uint256",
					"name": "",
					"type": "uint256"
				}
			],
			"stateMutability": "view",
			"type": "function"
		},
		{
			"inputs": [
				{
					"internalType": "uint256",
					"name": "_surveyId",
					"type": "uint256"
				}
			],
			"name": "getAnswersOfSurvey",
			"outputs": [
				{
					"components": [
						{
							"internalType": "uint256",
							"name": "id",
							"type": "uint256"
						},
						{
							"internalType": "uint256",
							"name": "questionId",
							"type": "uint256"
						},
						{
							"internalType": "uint256",
							"name": "surveyId",
							"type": "uint256"
						},
						{
							"internalType": "address",
							"name": "participantWalletAddress",
							"type": "address"
						},
						{
							"internalType": "bool",
							"name": "value",
							"type": "bool"
						},
						{
							"internalType": "bool",
							"name": "isBlank",
							"type": "bool"
						}
					],
					"internalType": "struct Answer[]",
					"name": "",
					"type": "tuple[]"
				}
			],
			"stateMutability": "view",
			"type": "function"
		},
		{
			"inputs": [
				{
					"internalType": "address",
					"name": "_creatingResearcherWalletAddress",
					"type": "address"
				}
			],
			"name": "getIdsOfLatestSurveysCreatedByResearchers",
			"outputs": [
				{
					"internalType": "uint256",
					"name": "",
					"type": "uint256"
				}
			],
			"stateMutability": "view",
			"type": "function"
		},
		{
			"inputs": [
				{
					"internalType": "address",
					"name": "_walletAddress",
					"type": "address"
				}
			],
			"name": "getParticipantByWalletAddress",
			"outputs": [
				{
					"components": [
						{
							"internalType": "uint256",
							"name": "id",
							"type": "uint256"
						},
						{
							"internalType": "address",
							"name": "walletAddress",
							"type": "address"
						},
						{
							"internalType": "string",
							"name": "gender",
							"type": "string"
						},
						{
							"internalType": "string",
							"name": "country",
							"type": "string"
						},
						{
							"internalType": "uint256",
							"name": "yearOfBirth",
							"type": "uint256"
						},
						{
							"internalType": "uint256",
							"name": "totalNumberOfSurveysTaken",
							"type": "uint256"
						},
						{
							"internalType": "bool",
							"name": "isResearcher",
							"type": "bool"
						},
						{
							"internalType": "bool",
							"name": "isBlank",
							"type": "bool"
						}
					],
					"internalType": "struct Participant",
					"name": "",
					"type": "tuple"
				}
			],
			"stateMutability": "view",
			"type": "function"
		},
		{
			"inputs": [
				{
					"internalType": "uint256",
					"name": "_surveyId",
					"type": "uint256"
				}
			],
			"name": "getParticipantsOfSurvey",
			"outputs": [
				{
					"components": [
						{
							"internalType": "uint256",
							"name": "id",
							"type": "uint256"
						},
						{
							"internalType": "address",
							"name": "walletAddress",
							"type": "address"
						},
						{
							"internalType": "string",
							"name": "gender",
							"type": "string"
						},
						{
							"internalType": "string",
							"name": "country",
							"type": "string"
						},
						{
							"internalType": "uint256",
							"name": "yearOfBirth",
							"type": "uint256"
						},
						{
							"internalType": "uint256",
							"name": "totalNumberOfSurveysTaken",
							"type": "uint256"
						},
						{
							"internalType": "bool",
							"name": "isResearcher",
							"type": "bool"
						},
						{
							"internalType": "bool",
							"name": "isBlank",
							"type": "bool"
						}
					],
					"internalType": "struct Participant[]",
					"name": "",
					"type": "tuple[]"
				}
			],
			"stateMutability": "view",
			"type": "function"
		},
		{
			"inputs": [
				{
					"internalType": "address",
					"name": "_walletAddress",
					"type": "address"
				}
			],
			"name": "getResearcherByWalletAddress",
			"outputs": [
				{
					"components": [
						{
							"internalType": "uint256",
							"name": "id",
							"type": "uint256"
						},
						{
							"internalType": "address",
							"name": "walletAddress",
							"type": "address"
						},
						{
							"internalType": "string",
							"name": "industry",
							"type": "string"
						},
						{
							"internalType": "uint256",
							"name": "yearOfIncorporation",
							"type": "uint256"
						},
						{
							"internalType": "bool",
							"name": "isParticipant",
							"type": "bool"
						},
						{
							"internalType": "bool",
							"name": "isVerified",
							"type": "bool"
						},
						{
							"internalType": "bool",
							"name": "isBlank",
							"type": "bool"
						}
					],
					"internalType": "struct Researcher",
					"name": "",
					"type": "tuple"
				}
			],
			"stateMutability": "view",
			"type": "function"
		},
		{
			"inputs": [
				{
					"internalType": "uint256",
					"name": "_surveyId",
					"type": "uint256"
				}
			],
			"name": "getSurveyById",
			"outputs": [
				{
					"components": [
						{
							"internalType": "uint256",
							"name": "id",
							"type": "uint256"
						},
						{
							"internalType": "address",
							"name": "creatingResearcherWalletAddress",
							"type": "address"
						},
						{
							"internalType": "string",
							"name": "topic",
							"type": "string"
						},
						{
							"internalType": "uint256",
							"name": "numberOfQuestions",
							"type": "uint256"
						},
						{
							"internalType": "uint256",
							"name": "targetNumberOfParticipants",
							"type": "uint256"
						},
						{
							"internalType": "uint256",
							"name": "amountFundedInWei",
							"type": "uint256"
						},
						{
							"internalType": "bool",
							"name": "isBlank",
							"type": "bool"
						}
					],
					"internalType": "struct Survey",
					"name": "",
					"type": "tuple"
				}
			],
			"stateMutability": "view",
			"type": "function"
		},
		{
			"inputs": [
				{
					"internalType": "address",
					"name": "_researcherWalletAddress",
					"type": "address"
				}
			],
			"name": "getSurveysCreatedByResearcher",
			"outputs": [
				{
					"components": [
						{
							"internalType": "uint256",
							"name": "id",
							"type": "uint256"
						},
						{
							"internalType": "address",
							"name": "creatingResearcherWalletAddress",
							"type": "address"
						},
						{
							"internalType": "string",
							"name": "topic",
							"type": "string"
						},
						{
							"internalType": "uint256",
							"name": "numberOfQuestions",
							"type": "uint256"
						},
						{
							"internalType": "uint256",
							"name": "targetNumberOfParticipants",
							"type": "uint256"
						},
						{
							"internalType": "uint256",
							"name": "amountFundedInWei",
							"type": "uint256"
						},
						{
							"internalType": "bool",
							"name": "isBlank",
							"type": "bool"
						}
					],
					"internalType": "struct Survey[]",
					"name": "",
					"type": "tuple[]"
				}
			],
			"stateMutability": "view",
			"type": "function"
		},
		{
			"inputs": [
				{
					"internalType": "address",
					"name": "_creatingResearcherWalletAddress",
					"type": "address"
				}
			],
			"name": "getTotalAmountFundedByResearchersInWei",
			"outputs": [
				{
					"internalType": "uint256",
					"name": "",
					"type": "uint256"
				}
			],
			"stateMutability": "view",
			"type": "function"
		},
		{
			"inputs": [
				{
					"internalType": "address",
					"name": "_walletAddress",
					"type": "address"
				}
			],
			"name": "getTotalAmountOfEarningsReceivedByParticipantInWei",
			"outputs": [
				{
					"internalType": "uint256",
					"name": "",
					"type": "uint256"
				}
			],
			"stateMutability": "view",
			"type": "function"
		},
		{
			"inputs": [
				{
					"internalType": "address",
					"name": "_creatingResearcherWalletAddress",
					"type": "address"
				}
			],
			"name": "getTotalNumberOfSurveyCreatedByResearcher",
			"outputs": [
				{
					"internalType": "uint256",
					"name": "",
					"type": "uint256"
				}
			],
			"stateMutability": "view",
			"type": "function"
		},
		{
			"inputs": [
				{
					"internalType": "address",
					"name": "",
					"type": "address"
				}
			],
			"name": "idsOfLatestSurveysCreatedByResearchers",
			"outputs": [
				{
					"internalType": "uint256",
					"name": "",
					"type": "uint256"
				}
			],
			"stateMutability": "view",
			"type": "function"
		},
		{
			"inputs": [
				{
					"internalType": "uint256",
					"name": "_surveyId",
					"type": "uint256"
				},
				{
					"internalType": "address",
					"name": "_participantWalletAddress",
					"type": "address"
				}
			],
			"name": "makePayoutAndCreateEarning",
			"outputs": [],
			"stateMutability": "nonpayable",
			"type": "function"
		},
		{
			"inputs": [
				{
					"internalType": "uint256",
					"name": "",
					"type": "uint256"
				},
				{
					"internalType": "uint256",
					"name": "",
					"type": "uint256"
				}
			],
			"name": "participantsOfSurvey",
			"outputs": [
				{
					"internalType": "uint256",
					"name": "id",
					"type": "uint256"
				},
				{
					"internalType": "address",
					"name": "walletAddress",
					"type": "address"
				},
				{
					"internalType": "string",
					"name": "gender",
					"type": "string"
				},
				{
					"internalType": "string",
					"name": "country",
					"type": "string"
				},
				{
					"internalType": "uint256",
					"name": "yearOfBirth",
					"type": "uint256"
				},
				{
					"internalType": "uint256",
					"name": "totalNumberOfSurveysTaken",
					"type": "uint256"
				},
				{
					"internalType": "bool",
					"name": "isResearcher",
					"type": "bool"
				},
				{
					"internalType": "bool",
					"name": "isBlank",
					"type": "bool"
				}
			],
			"stateMutability": "view",
			"type": "function"
		},
		{
			"inputs": [
				{
					"internalType": "uint256",
					"name": "_surveyId",
					"type": "uint256"
				},
				{
					"internalType": "address",
					"name": "_participantWalletAddress",
					"type": "address"
				},
				{
					"internalType": "bool[]",
					"name": "_answerValues",
					"type": "bool[]"
				}
			],
			"name": "participateInSurvey",
			"outputs": [],
			"stateMutability": "nonpayable",
			"type": "function"
		},
		{
			"inputs": [
				{
					"internalType": "uint256",
					"name": "",
					"type": "uint256"
				},
				{
					"internalType": "address",
					"name": "",
					"type": "address"
				}
			],
			"name": "participationStatusForSurvey",
			"outputs": [
				{
					"internalType": "bool",
					"name": "",
					"type": "bool"
				}
			],
			"stateMutability": "view",
			"type": "function"
		},
		{
			"inputs": [
				{
					"internalType": "uint256",
					"name": "",
					"type": "uint256"
				},
				{
					"internalType": "address",
					"name": "",
					"type": "address"
				}
			],
			"name": "payoutStatusOfParticipantForSurvey",
			"outputs": [
				{
					"internalType": "bool",
					"name": "",
					"type": "bool"
				}
			],
			"stateMutability": "view",
			"type": "function"
		},
		{
			"inputs": [
				{
					"internalType": "address",
					"name": "",
					"type": "address"
				}
			],
			"name": "totalAmountFundedByResearchersInWei",
			"outputs": [
				{
					"internalType": "uint256",
					"name": "",
					"type": "uint256"
				}
			],
			"stateMutability": "view",
			"type": "function"
		},
		{
			"inputs": [
				{
					"internalType": "address",
					"name": "",
					"type": "address"
				}
			],
			"name": "totalNumberOfSurveysCreatedByResearchers",
			"outputs": [
				{
					"internalType": "uint256",
					"name": "",
					"type": "uint256"
				}
			],
			"stateMutability": "view",
			"type": "function"
		},
		{
			"inputs": [
				{
					"internalType": "address",
					"name": "_walletAddress",
					"type": "address"
				}
			],
			"name": "verifyResearcher",
			"outputs": [],
			"stateMutability": "nonpayable",
			"type": "function"
		}
	]
}